{
	"data": {
		"bytecode": {
			"linkReferences": {},
			"object": "6080604052348015600e575f80fd5b50610a2e8061001c5f395ff3fe608060405234801561000f575f80fd5b506004361061003f575f3560e01c80632abbc36a14610043578063b4facdab1461005f578063c0666f3e1461007b575b5f80fd5b61005d600480360381019061005891906106da565b6100ab565b005b610079600480360381019061007491906106da565b6101c2565b005b610095600480360381019061009091906106da565b610291565b6040516100a29190610739565b60405180910390f35b5f816040516100ba91906107a4565b90815260200160405180910390206001015f9054906101000a900460ff16610117576040517f08c379a000000000000000000000000000000000000000000000000000000000815260040161010e90610814565b60405180910390fd5b5f808260405161012791906107a4565b90815260200160405180910390205f015442610143919061085f565b90505f61015082846102b8565b90505f808460405161016291906107a4565b90815260200160405180910390206001015f6101000a81548160ff0219169083151502179055508060018460405161019a91906107a4565b90815260200160405180910390205f8282546101b69190610892565b92505081905550505050565b5f816040516101d191906107a4565b90815260200160405180910390206001015f9054906101000a900460ff161561022f576040517f08c379a00000000000000000000000000000000000000000000000000000000081526004016102269061090f565b60405180910390fd5b6040518060400160405280428152602001600115158152505f8260405161025691906107a4565b90815260200160405180910390205f820151815f01556020820151816001015f6101000a81548160ff02191690831515021790555090505050565b5f6001826040516102a291906107a4565b9081526020016040518091039020549050919050565b5f611c2083116102ca575f9050610356565b5f603c611c20856102db919061085f565b6102e5919061095a565b90505f60c8826102f5919061098a565b90506103008461035c565b15610325576064605082610314919061098a565b61031e919061095a565b9050610350565b61032e84610427565b1561034f576064603282610342919061098a565b61034c919061095a565b90505b5b80925050505b92915050565b5f808290505f5b815181101561041b57603060f81b828281518110610384576103836109cb565b5b602001015160f81c60f81b7effffffffffffffffffffffffffffffffffffffffffffffffffffffffffffff191610806103ff5750603960f81b8282815181106103d0576103cf6109cb565b5b602001015160f81c60f81b7effffffffffffffffffffffffffffffffffffffffffffffffffffffffffffff1916115b1561040e575f92505050610422565b8080600101915050610363565b5060019150505b919050565b5f808290505f5b815181101561058157604160f81b82828151811061044f5761044e6109cb565b5b602001015160f81c60f81b7effffffffffffffffffffffffffffffffffffffffffffffffffffffffffffff191610806104ca5750605a60f81b82828151811061049b5761049a6109cb565b5b602001015160f81c60f81b7effffffffffffffffffffffffffffffffffffffffffffffffffffffffffffff1916115b80156105655750606160f81b8282815181106104e9576104e86109cb565b5b602001015160f81c60f81b7effffffffffffffffffffffffffffffffffffffffffffffffffffffffffffff191610806105645750607a60f81b828281518110610535576105346109cb565b5b602001015160f81c60f81b7effffffffffffffffffffffffffffffffffffffffffffffffffffffffffffff1916115b5b15610574575f92505050610588565b808060010191505061042e565b5060019150505b919050565b5f604051905090565b5f80fd5b5f80fd5b5f80fd5b5f80fd5b5f601f19601f8301169050919050565b7f4e487b71000000000000000000000000000000000000000000000000000000005f52604160045260245ffd5b6105ec826105a6565b810181811067ffffffffffffffff8211171561060b5761060a6105b6565b5b80604052505050565b5f61061d61058d565b905061062982826105e3565b919050565b5f67ffffffffffffffff821115610648576106476105b6565b5b610651826105a6565b9050602081019050919050565b828183375f83830152505050565b5f61067e6106798461062e565b610614565b90508281526020810184848401111561069a576106996105a2565b5b6106a584828561065e565b509392505050565b5f82601f8301126106c1576106c061059e565b5b81356106d184826020860161066c565b91505092915050565b5f602082840312156106ef576106ee610596565b5b5f82013567ffffffffffffffff81111561070c5761070b61059a565b5b610718848285016106ad565b91505092915050565b5f819050919050565b61073381610721565b82525050565b5f60208201905061074c5f83018461072a565b92915050565b5f81519050919050565b5f81905092915050565b8281835e5f83830152505050565b5f61077e82610752565b610788818561075c565b9350610798818560208601610766565b80840191505092915050565b5f6107af8284610774565b915081905092915050565b5f82825260208201905092915050565b7f56656869636c65206e6f74207061726b65642e000000000000000000000000005f82015250565b5f6107fe6013836107ba565b9150610809826107ca565b602082019050919050565b5f6020820190508181035f83015261082b816107f2565b9050919050565b7f4e487b71000000000000000000000000000000000000000000000000000000005f52601160045260245ffd5b5f61086982610721565b915061087483610721565b925082820390508181111561088c5761088b610832565b5b92915050565b5f61089c82610721565b91506108a783610721565b92508282019050808211156108bf576108be610832565b5b92915050565b7f56656869636c6520616c7265616479207061726b65642e0000000000000000005f82015250565b5f6108f96017836107ba565b9150610904826108c5565b602082019050919050565b5f6020820190508181035f830152610926816108ed565b9050919050565b7f4e487b71000000000000000000000000000000000000000000000000000000005f52601260045260245ffd5b5f61096482610721565b915061096f83610721565b92508261097f5761097e61092d565b5b828204905092915050565b5f61099482610721565b915061099f83610721565b92508282026109ad81610721565b915082820484148315176109c4576109c3610832565b5b5092915050565b7f4e487b71000000000000000000000000000000000000000000000000000000005f52603260045260245ffdfea2646970667358221220fd3ddc2fe19249fd669cde9fa03acdd160fa238f1043dfb4e096f94ae0d06b4964736f6c634300081a0033",
			"opcodes": "PUSH1 0x80 PUSH1 0x40 MSTORE CALLVALUE DUP1 ISZERO PUSH1 0xE JUMPI PUSH0 DUP1 REVERT JUMPDEST POP PUSH2 0xA2E DUP1 PUSH2 0x1C PUSH0 CODECOPY PUSH0 RETURN INVALID PUSH1 0x80 PUSH1 0x40 MSTORE CALLVALUE DUP1 ISZERO PUSH2 0xF JUMPI PUSH0 DUP1 REVERT JUMPDEST POP PUSH1 0x4 CALLDATASIZE LT PUSH2 0x3F JUMPI PUSH0 CALLDATALOAD PUSH1 0xE0 SHR DUP1 PUSH4 0x2ABBC36A EQ PUSH2 0x43 JUMPI DUP1 PUSH4 0xB4FACDAB EQ PUSH2 0x5F JUMPI DUP1 PUSH4 0xC0666F3E EQ PUSH2 0x7B JUMPI JUMPDEST PUSH0 DUP1 REVERT JUMPDEST PUSH2 0x5D PUSH1 0x4 DUP1 CALLDATASIZE SUB DUP2 ADD SWAP1 PUSH2 0x58 SWAP2 SWAP1 PUSH2 0x6DA JUMP JUMPDEST PUSH2 0xAB JUMP JUMPDEST STOP JUMPDEST PUSH2 0x79 PUSH1 0x4 DUP1 CALLDATASIZE SUB DUP2 ADD SWAP1 PUSH2 0x74 SWAP2 SWAP1 PUSH2 0x6DA JUMP JUMPDEST PUSH2 0x1C2 JUMP JUMPDEST STOP JUMPDEST PUSH2 0x95 PUSH1 0x4 DUP1 CALLDATASIZE SUB DUP2 ADD SWAP1 PUSH2 0x90 SWAP2 SWAP1 PUSH2 0x6DA JUMP JUMPDEST PUSH2 0x291 JUMP JUMPDEST PUSH1 0x40 MLOAD PUSH2 0xA2 SWAP2 SWAP1 PUSH2 0x739 JUMP JUMPDEST PUSH1 0x40 MLOAD DUP1 SWAP2 SUB SWAP1 RETURN JUMPDEST PUSH0 DUP2 PUSH1 0x40 MLOAD PUSH2 0xBA SWAP2 SWAP1 PUSH2 0x7A4 JUMP JUMPDEST SWAP1 DUP2 MSTORE PUSH1 0x20 ADD PUSH1 0x40 MLOAD DUP1 SWAP2 SUB SWAP1 KECCAK256 PUSH1 0x1 ADD PUSH0 SWAP1 SLOAD SWAP1 PUSH2 0x100 EXP SWAP1 DIV PUSH1 0xFF AND PUSH2 0x117 JUMPI PUSH1 0x40 MLOAD PUSH32 0x8C379A000000000000000000000000000000000000000000000000000000000 DUP2 MSTORE PUSH1 0x4 ADD PUSH2 0x10E SWAP1 PUSH2 0x814 JUMP JUMPDEST PUSH1 0x40 MLOAD DUP1 SWAP2 SUB SWAP1 REVERT JUMPDEST PUSH0 DUP1 DUP3 PUSH1 0x40 MLOAD PUSH2 0x127 SWAP2 SWAP1 PUSH2 0x7A4 JUMP JUMPDEST SWAP1 DUP2 MSTORE PUSH1 0x20 ADD PUSH1 0x40 MLOAD DUP1 SWAP2 SUB SWAP1 KECCAK256 PUSH0 ADD SLOAD TIMESTAMP PUSH2 0x143 SWAP2 SWAP1 PUSH2 0x85F JUMP JUMPDEST SWAP1 POP PUSH0 PUSH2 0x150 DUP3 DUP5 PUSH2 0x2B8 JUMP JUMPDEST SWAP1 POP PUSH0 DUP1 DUP5 PUSH1 0x40 MLOAD PUSH2 0x162 SWAP2 SWAP1 PUSH2 0x7A4 JUMP JUMPDEST SWAP1 DUP2 MSTORE PUSH1 0x20 ADD PUSH1 0x40 MLOAD DUP1 SWAP2 SUB SWAP1 KECCAK256 PUSH1 0x1 ADD PUSH0 PUSH2 0x100 EXP DUP2 SLOAD DUP2 PUSH1 0xFF MUL NOT AND SWAP1 DUP4 ISZERO ISZERO MUL OR SWAP1 SSTORE POP DUP1 PUSH1 0x1 DUP5 PUSH1 0x40 MLOAD PUSH2 0x19A SWAP2 SWAP1 PUSH2 0x7A4 JUMP JUMPDEST SWAP1 DUP2 MSTORE PUSH1 0x20 ADD PUSH1 0x40 MLOAD DUP1 SWAP2 SUB SWAP1 KECCAK256 PUSH0 DUP3 DUP3 SLOAD PUSH2 0x1B6 SWAP2 SWAP1 PUSH2 0x892 JUMP JUMPDEST SWAP3 POP POP DUP2 SWAP1 SSTORE POP POP POP POP JUMP JUMPDEST PUSH0 DUP2 PUSH1 0x40 MLOAD PUSH2 0x1D1 SWAP2 SWAP1 PUSH2 0x7A4 JUMP JUMPDEST SWAP1 DUP2 MSTORE PUSH1 0x20 ADD PUSH1 0x40 MLOAD DUP1 SWAP2 SUB SWAP1 KECCAK256 PUSH1 0x1 ADD PUSH0 SWAP1 SLOAD SWAP1 PUSH2 0x100 EXP SWAP1 DIV PUSH1 0xFF AND ISZERO PUSH2 0x22F JUMPI PUSH1 0x40 MLOAD PUSH32 0x8C379A000000000000000000000000000000000000000000000000000000000 DUP2 MSTORE PUSH1 0x4 ADD PUSH2 0x226 SWAP1 PUSH2 0x90F JUMP JUMPDEST PUSH1 0x40 MLOAD DUP1 SWAP2 SUB SWAP1 REVERT JUMPDEST PUSH1 0x40 MLOAD DUP1 PUSH1 0x40 ADD PUSH1 0x40 MSTORE DUP1 TIMESTAMP DUP2 MSTORE PUSH1 0x20 ADD PUSH1 0x1 ISZERO ISZERO DUP2 MSTORE POP PUSH0 DUP3 PUSH1 0x40 MLOAD PUSH2 0x256 SWAP2 SWAP1 PUSH2 0x7A4 JUMP JUMPDEST SWAP1 DUP2 MSTORE PUSH1 0x20 ADD PUSH1 0x40 MLOAD DUP1 SWAP2 SUB SWAP1 KECCAK256 PUSH0 DUP3 ADD MLOAD DUP2 PUSH0 ADD SSTORE PUSH1 0x20 DUP3 ADD MLOAD DUP2 PUSH1 0x1 ADD PUSH0 PUSH2 0x100 EXP DUP2 SLOAD DUP2 PUSH1 0xFF MUL NOT AND SWAP1 DUP4 ISZERO ISZERO MUL OR SWAP1 SSTORE POP SWAP1 POP POP POP JUMP JUMPDEST PUSH0 PUSH1 0x1 DUP3 PUSH1 0x40 MLOAD PUSH2 0x2A2 SWAP2 SWAP1 PUSH2 0x7A4 JUMP JUMPDEST SWAP1 DUP2 MSTORE PUSH1 0x20 ADD PUSH1 0x40 MLOAD DUP1 SWAP2 SUB SWAP1 KECCAK256 SLOAD SWAP1 POP SWAP2 SWAP1 POP JUMP JUMPDEST PUSH0 PUSH2 0x1C20 DUP4 GT PUSH2 0x2CA JUMPI PUSH0 SWAP1 POP PUSH2 0x356 JUMP JUMPDEST PUSH0 PUSH1 0x3C PUSH2 0x1C20 DUP6 PUSH2 0x2DB SWAP2 SWAP1 PUSH2 0x85F JUMP JUMPDEST PUSH2 0x2E5 SWAP2 SWAP1 PUSH2 0x95A JUMP JUMPDEST SWAP1 POP PUSH0 PUSH1 0xC8 DUP3 PUSH2 0x2F5 SWAP2 SWAP1 PUSH2 0x98A JUMP JUMPDEST SWAP1 POP PUSH2 0x300 DUP5 PUSH2 0x35C JUMP JUMPDEST ISZERO PUSH2 0x325 JUMPI PUSH1 0x64 PUSH1 0x50 DUP3 PUSH2 0x314 SWAP2 SWAP1 PUSH2 0x98A JUMP JUMPDEST PUSH2 0x31E SWAP2 SWAP1 PUSH2 0x95A JUMP JUMPDEST SWAP1 POP PUSH2 0x350 JUMP JUMPDEST PUSH2 0x32E DUP5 PUSH2 0x427 JUMP JUMPDEST ISZERO PUSH2 0x34F JUMPI PUSH1 0x64 PUSH1 0x32 DUP3 PUSH2 0x342 SWAP2 SWAP1 PUSH2 0x98A JUMP JUMPDEST PUSH2 0x34C SWAP2 SWAP1 PUSH2 0x95A JUMP JUMPDEST SWAP1 POP JUMPDEST JUMPDEST DUP1 SWAP3 POP POP POP JUMPDEST SWAP3 SWAP2 POP POP JUMP JUMPDEST PUSH0 DUP1 DUP3 SWAP1 POP PUSH0 JUMPDEST DUP2 MLOAD DUP2 LT ISZERO PUSH2 0x41B JUMPI PUSH1 0x30 PUSH1 0xF8 SHL DUP3 DUP3 DUP2 MLOAD DUP2 LT PUSH2 0x384 JUMPI PUSH2 0x383 PUSH2 0x9CB JUMP JUMPDEST JUMPDEST PUSH1 0x20 ADD ADD MLOAD PUSH1 0xF8 SHR PUSH1 0xF8 SHL PUSH31 0xFFFFFFFFFFFFFFFFFFFFFFFFFFFFFFFFFFFFFFFFFFFFFFFFFFFFFFFFFFFFFF NOT AND LT DUP1 PUSH2 0x3FF JUMPI POP PUSH1 0x39 PUSH1 0xF8 SHL DUP3 DUP3 DUP2 MLOAD DUP2 LT PUSH2 0x3D0 JUMPI PUSH2 0x3CF PUSH2 0x9CB JUMP JUMPDEST JUMPDEST PUSH1 0x20 ADD ADD MLOAD PUSH1 0xF8 SHR PUSH1 0xF8 SHL PUSH31 0xFFFFFFFFFFFFFFFFFFFFFFFFFFFFFFFFFFFFFFFFFFFFFFFFFFFFFFFFFFFFFF NOT AND GT JUMPDEST ISZERO PUSH2 0x40E JUMPI PUSH0 SWAP3 POP POP POP PUSH2 0x422 JUMP JUMPDEST DUP1 DUP1 PUSH1 0x1 ADD SWAP2 POP POP PUSH2 0x363 JUMP JUMPDEST POP PUSH1 0x1 SWAP2 POP POP JUMPDEST SWAP2 SWAP1 POP JUMP JUMPDEST PUSH0 DUP1 DUP3 SWAP1 POP PUSH0 JUMPDEST DUP2 MLOAD DUP2 LT ISZERO PUSH2 0x581 JUMPI PUSH1 0x41 PUSH1 0xF8 SHL DUP3 DUP3 DUP2 MLOAD DUP2 LT PUSH2 0x44F JUMPI PUSH2 0x44E PUSH2 0x9CB JUMP JUMPDEST JUMPDEST PUSH1 0x20 ADD ADD MLOAD PUSH1 0xF8 SHR PUSH1 0xF8 SHL PUSH31 0xFFFFFFFFFFFFFFFFFFFFFFFFFFFFFFFFFFFFFFFFFFFFFFFFFFFFFFFFFFFFFF NOT AND LT DUP1 PUSH2 0x4CA JUMPI POP PUSH1 0x5A PUSH1 0xF8 SHL DUP3 DUP3 DUP2 MLOAD DUP2 LT PUSH2 0x49B JUMPI PUSH2 0x49A PUSH2 0x9CB JUMP JUMPDEST JUMPDEST PUSH1 0x20 ADD ADD MLOAD PUSH1 0xF8 SHR PUSH1 0xF8 SHL PUSH31 0xFFFFFFFFFFFFFFFFFFFFFFFFFFFFFFFFFFFFFFFFFFFFFFFFFFFFFFFFFFFFFF NOT AND GT JUMPDEST DUP1 ISZERO PUSH2 0x565 JUMPI POP PUSH1 0x61 PUSH1 0xF8 SHL DUP3 DUP3 DUP2 MLOAD DUP2 LT PUSH2 0x4E9 JUMPI PUSH2 0x4E8 PUSH2 0x9CB JUMP JUMPDEST JUMPDEST PUSH1 0x20 ADD ADD MLOAD PUSH1 0xF8 SHR PUSH1 0xF8 SHL PUSH31 0xFFFFFFFFFFFFFFFFFFFFFFFFFFFFFFFFFFFFFFFFFFFFFFFFFFFFFFFFFFFFFF NOT AND LT DUP1 PUSH2 0x564 JUMPI POP PUSH1 0x7A PUSH1 0xF8 SHL DUP3 DUP3 DUP2 MLOAD DUP2 LT PUSH2 0x535 JUMPI PUSH2 0x534 PUSH2 0x9CB JUMP JUMPDEST JUMPDEST PUSH1 0x20 ADD ADD MLOAD PUSH1 0xF8 SHR PUSH1 0xF8 SHL PUSH31 0xFFFFFFFFFFFFFFFFFFFFFFFFFFFFFFFFFFFFFFFFFFFFFFFFFFFFFFFFFFFFFF NOT AND GT JUMPDEST JUMPDEST ISZERO PUSH2 0x574 JUMPI PUSH0 SWAP3 POP POP POP PUSH2 0x588 JUMP JUMPDEST DUP1 DUP1 PUSH1 0x1 ADD SWAP2 POP POP PUSH2 0x42E JUMP JUMPDEST POP PUSH1 0x1 SWAP2 POP POP JUMPDEST SWAP2 SWAP1 POP JUMP JUMPDEST PUSH0 PUSH1 0x40 MLOAD SWAP1 POP SWAP1 JUMP JUMPDEST PUSH0 DUP1 REVERT JUMPDEST PUSH0 DUP1 REVERT JUMPDEST PUSH0 DUP1 REVERT JUMPDEST PUSH0 DUP1 REVERT JUMPDEST PUSH0 PUSH1 0x1F NOT PUSH1 0x1F DUP4 ADD AND SWAP1 POP SWAP2 SWAP1 POP JUMP JUMPDEST PUSH32 0x4E487B7100000000000000000000000000000000000000000000000000000000 PUSH0 MSTORE PUSH1 0x41 PUSH1 0x4 MSTORE PUSH1 0x24 PUSH0 REVERT JUMPDEST PUSH2 0x5EC DUP3 PUSH2 0x5A6 JUMP JUMPDEST DUP2 ADD DUP2 DUP2 LT PUSH8 0xFFFFFFFFFFFFFFFF DUP3 GT OR ISZERO PUSH2 0x60B JUMPI PUSH2 0x60A PUSH2 0x5B6 JUMP JUMPDEST JUMPDEST DUP1 PUSH1 0x40 MSTORE POP POP POP JUMP JUMPDEST PUSH0 PUSH2 0x61D PUSH2 0x58D JUMP JUMPDEST SWAP1 POP PUSH2 0x629 DUP3 DUP3 PUSH2 0x5E3 JUMP JUMPDEST SWAP2 SWAP1 POP JUMP JUMPDEST PUSH0 PUSH8 0xFFFFFFFFFFFFFFFF DUP3 GT ISZERO PUSH2 0x648 JUMPI PUSH2 0x647 PUSH2 0x5B6 JUMP JUMPDEST JUMPDEST PUSH2 0x651 DUP3 PUSH2 0x5A6 JUMP JUMPDEST SWAP1 POP PUSH1 0x20 DUP2 ADD SWAP1 POP SWAP2 SWAP1 POP JUMP JUMPDEST DUP3 DUP2 DUP4 CALLDATACOPY PUSH0 DUP4 DUP4 ADD MSTORE POP POP POP JUMP JUMPDEST PUSH0 PUSH2 0x67E PUSH2 0x679 DUP5 PUSH2 0x62E JUMP JUMPDEST PUSH2 0x614 JUMP JUMPDEST SWAP1 POP DUP3 DUP2 MSTORE PUSH1 0x20 DUP2 ADD DUP5 DUP5 DUP5 ADD GT ISZERO PUSH2 0x69A JUMPI PUSH2 0x699 PUSH2 0x5A2 JUMP JUMPDEST JUMPDEST PUSH2 0x6A5 DUP5 DUP3 DUP6 PUSH2 0x65E JUMP JUMPDEST POP SWAP4 SWAP3 POP POP POP JUMP JUMPDEST PUSH0 DUP3 PUSH1 0x1F DUP4 ADD SLT PUSH2 0x6C1 JUMPI PUSH2 0x6C0 PUSH2 0x59E JUMP JUMPDEST JUMPDEST DUP2 CALLDATALOAD PUSH2 0x6D1 DUP5 DUP3 PUSH1 0x20 DUP7 ADD PUSH2 0x66C JUMP JUMPDEST SWAP2 POP POP SWAP3 SWAP2 POP POP JUMP JUMPDEST PUSH0 PUSH1 0x20 DUP3 DUP5 SUB SLT ISZERO PUSH2 0x6EF JUMPI PUSH2 0x6EE PUSH2 0x596 JUMP JUMPDEST JUMPDEST PUSH0 DUP3 ADD CALLDATALOAD PUSH8 0xFFFFFFFFFFFFFFFF DUP2 GT ISZERO PUSH2 0x70C JUMPI PUSH2 0x70B PUSH2 0x59A JUMP JUMPDEST JUMPDEST PUSH2 0x718 DUP5 DUP3 DUP6 ADD PUSH2 0x6AD JUMP JUMPDEST SWAP2 POP POP SWAP3 SWAP2 POP POP JUMP JUMPDEST PUSH0 DUP2 SWAP1 POP SWAP2 SWAP1 POP JUMP JUMPDEST PUSH2 0x733 DUP2 PUSH2 0x721 JUMP JUMPDEST DUP3 MSTORE POP POP JUMP JUMPDEST PUSH0 PUSH1 0x20 DUP3 ADD SWAP1 POP PUSH2 0x74C PUSH0 DUP4 ADD DUP5 PUSH2 0x72A JUMP JUMPDEST SWAP3 SWAP2 POP POP JUMP JUMPDEST PUSH0 DUP2 MLOAD SWAP1 POP SWAP2 SWAP1 POP JUMP JUMPDEST PUSH0 DUP2 SWAP1 POP SWAP3 SWAP2 POP POP JUMP JUMPDEST DUP3 DUP2 DUP4 MCOPY PUSH0 DUP4 DUP4 ADD MSTORE POP POP POP JUMP JUMPDEST PUSH0 PUSH2 0x77E DUP3 PUSH2 0x752 JUMP JUMPDEST PUSH2 0x788 DUP2 DUP6 PUSH2 0x75C JUMP JUMPDEST SWAP4 POP PUSH2 0x798 DUP2 DUP6 PUSH1 0x20 DUP7 ADD PUSH2 0x766 JUMP JUMPDEST DUP1 DUP5 ADD SWAP2 POP POP SWAP3 SWAP2 POP POP JUMP JUMPDEST PUSH0 PUSH2 0x7AF DUP3 DUP5 PUSH2 0x774 JUMP JUMPDEST SWAP2 POP DUP2 SWAP1 POP SWAP3 SWAP2 POP POP JUMP JUMPDEST PUSH0 DUP3 DUP3 MSTORE PUSH1 0x20 DUP3 ADD SWAP1 POP SWAP3 SWAP2 POP POP JUMP JUMPDEST PUSH32 0x56656869636C65206E6F74207061726B65642E00000000000000000000000000 PUSH0 DUP3 ADD MSTORE POP JUMP JUMPDEST PUSH0 PUSH2 0x7FE PUSH1 0x13 DUP4 PUSH2 0x7BA JUMP JUMPDEST SWAP2 POP PUSH2 0x809 DUP3 PUSH2 0x7CA JUMP JUMPDEST PUSH1 0x20 DUP3 ADD SWAP1 POP SWAP2 SWAP1 POP JUMP JUMPDEST PUSH0 PUSH1 0x20 DUP3 ADD SWAP1 POP DUP2 DUP2 SUB PUSH0 DUP4 ADD MSTORE PUSH2 0x82B DUP2 PUSH2 0x7F2 JUMP JUMPDEST SWAP1 POP SWAP2 SWAP1 POP JUMP JUMPDEST PUSH32 0x4E487B7100000000000000000000000000000000000000000000000000000000 PUSH0 MSTORE PUSH1 0x11 PUSH1 0x4 MSTORE PUSH1 0x24 PUSH0 REVERT JUMPDEST PUSH0 PUSH2 0x869 DUP3 PUSH2 0x721 JUMP JUMPDEST SWAP2 POP PUSH2 0x874 DUP4 PUSH2 0x721 JUMP JUMPDEST SWAP3 POP DUP3 DUP3 SUB SWAP1 POP DUP2 DUP2 GT ISZERO PUSH2 0x88C JUMPI PUSH2 0x88B PUSH2 0x832 JUMP JUMPDEST JUMPDEST SWAP3 SWAP2 POP POP JUMP JUMPDEST PUSH0 PUSH2 0x89C DUP3 PUSH2 0x721 JUMP JUMPDEST SWAP2 POP PUSH2 0x8A7 DUP4 PUSH2 0x721 JUMP JUMPDEST SWAP3 POP DUP3 DUP3 ADD SWAP1 POP DUP1 DUP3 GT ISZERO PUSH2 0x8BF JUMPI PUSH2 0x8BE PUSH2 0x832 JUMP JUMPDEST JUMPDEST SWAP3 SWAP2 POP POP JUMP JUMPDEST PUSH32 0x56656869636C6520616C7265616479207061726B65642E000000000000000000 PUSH0 DUP3 ADD MSTORE POP JUMP JUMPDEST PUSH0 PUSH2 0x8F9 PUSH1 0x17 DUP4 PUSH2 0x7BA JUMP JUMPDEST SWAP2 POP PUSH2 0x904 DUP3 PUSH2 0x8C5 JUMP JUMPDEST PUSH1 0x20 DUP3 ADD SWAP1 POP SWAP2 SWAP1 POP JUMP JUMPDEST PUSH0 PUSH1 0x20 DUP3 ADD SWAP1 POP DUP2 DUP2 SUB PUSH0 DUP4 ADD MSTORE PUSH2 0x926 DUP2 PUSH2 0x8ED JUMP JUMPDEST SWAP1 POP SWAP2 SWAP1 POP JUMP JUMPDEST PUSH32 0x4E487B7100000000000000000000000000000000000000000000000000000000 PUSH0 MSTORE PUSH1 0x12 PUSH1 0x4 MSTORE PUSH1 0x24 PUSH0 REVERT JUMPDEST PUSH0 PUSH2 0x964 DUP3 PUSH2 0x721 JUMP JUMPDEST SWAP2 POP PUSH2 0x96F DUP4 PUSH2 0x721 JUMP JUMPDEST SWAP3 POP DUP3 PUSH2 0x97F JUMPI PUSH2 0x97E PUSH2 0x92D JUMP JUMPDEST JUMPDEST DUP3 DUP3 DIV SWAP1 POP SWAP3 SWAP2 POP POP JUMP JUMPDEST PUSH0 PUSH2 0x994 DUP3 PUSH2 0x721 JUMP JUMPDEST SWAP2 POP PUSH2 0x99F DUP4 PUSH2 0x721 JUMP JUMPDEST SWAP3 POP DUP3 DUP3 MUL PUSH2 0x9AD DUP2 PUSH2 0x721 JUMP JUMPDEST SWAP2 POP DUP3 DUP3 DIV DUP5 EQ DUP4 ISZERO OR PUSH2 0x9C4 JUMPI PUSH2 0x9C3 PUSH2 0x832 JUMP JUMPDEST JUMPDEST POP SWAP3 SWAP2 POP POP JUMP JUMPDEST PUSH32 0x4E487B7100000000000000000000000000000000000000000000000000000000 PUSH0 MSTORE PUSH1 0x32 PUSH1 0x4 MSTORE PUSH1 0x24 PUSH0 REVERT INVALID LOG2 PUSH5 0x6970667358 0x22 SLT KECCAK256 REVERT RETURNDATASIZE 0xDC 0x2F 0xE1 SWAP3 BLOBHASH REVERT PUSH7 0x9CDE9FA03ACDD1 PUSH1 0xFA 0x23 DUP16 LT NUMBER 0xDF 0xB4 0xE0 SWAP7 0xF9 BLOBBASEFEE 0xE0 0xD0 PUSH12 0x4964736F6C634300081A0033 "
		},
		"gasEstimates": {
			"creation": {
				"codeDepositCost": "521200",
				"executionCost": "554",
				"totalCost": "521754"
			},
			"external": {
				"enterParking(string)": "infinite",
				"exitParking(string)": "infinite",
				"getParkingFee(string)": "infinite"
			},
			"internal": {
				"calculateParkingFee(uint256,string memory)": "infinite",
				"isAlphabetic(string memory)": "infinite",
				"isNumeric(string memory)": "infinite"
			}
		},
		"methodIdentifiers": {
			"enterParking(string)": "b4facdab",
			"exitParking(string)": "2abbc36a",
			"getParkingFee(string)": "c0666f3e"
		}
	},
	"abi": [
		{
			"inputs": [
				{
					"internalType": "string",
					"name": "_plateNumber",
					"type": "string"
				}
			],
			"name": "enterParking",
			"outputs": [],
			"stateMutability": "nonpayable",
			"type": "function"
		},
		{
			"inputs": [
				{
					"internalType": "string",
					"name": "_plateNumber",
					"type": "string"
				}
			],
			"name": "exitParking",
			"outputs": [],
			"stateMutability": "nonpayable",
			"type": "function"
		},
		{
			"inputs": [
				{
					"internalType": "string",
					"name": "_plateNumber",
					"type": "string"
				}
			],
			"name": "getParkingFee",
			"outputs": [
				{
					"internalType": "uint256",
					"name": "",
					"type": "uint256"
				}
			],
			"stateMutability": "view",
			"type": "function"
		}
	]
}