{
	"data": {
		"bytecode": {
			"linkReferences": {},
			"object": "6080604052348015600e575f80fd5b505f808190555060646001819055505f60025f6101000a81548160ff0219169083151502179055505f6003819055506109668061004a5f395ff3fe608060405260043610610090575f3560e01c80635642e2dc116100585780635642e2dc146101125780635b04d6b6146101285780638044f7e614610152578063ae7579f314610168578063c20906ac1461017e57610090565b806306503fd3146100945780631842447d146100be578063279bad16146100d457806334fe1d1e146100fe5780634c1ec9aa14610108575b5f80fd5b34801561009f575f80fd5b506100a86101a8565b6040516100b59190610545565b60405180910390f35b3480156100c9575f80fd5b506100d26101ba565b005b3480156100df575f80fd5b506100e86101d6565b6040516100f59190610576565b60405180910390f35b6101066101dc565b005b610110610238565b005b34801561011d575f80fd5b506101266102d0565b005b348015610133575f80fd5b5061013c6103b1565b6040516101499190610576565b60405180910390f35b34801561015d575f80fd5b506101666103b7565b005b348015610173575f80fd5b5061017c610415565b005b348015610189575f80fd5b50610192610526565b60405161019f9190610576565b60405180910390f35b60025f9054906101000a900460ff1681565b600160025f6101000a81548160ff021916908315150217905550565b60015481565b5f341161021e576040517f08c379a0000000000000000000000000000000000000000000000000000000008152600401610215906105e9565b60405180910390fd5b3460035f82825461022f9190610634565b92505081905550565b670de0b6b3a764000034036102545760646001819055506102ce565b670de0b6b3a76400006003541061029257670de0b6b3a764000060035f82825461027e9190610667565b9250508190555060646001819055506102cd565b6040517f08c379a00000000000000000000000000000000000000000000000000000000081526004016102c4906106e4565b60405180910390fd5b5b565b6001151560025f9054906101000a900460ff16151514610325576040517f08c379a000000000000000000000000000000000000000000000000000000000815260040161031c9061074c565b60405180910390fd5b5f805411610368576040517f08c379a000000000000000000000000000000000000000000000000000000000815260040161035f906107b4565b60405180910390fd5b600a5f54101561037d575f8081905550610396565b600a5f8082825461038e9190610667565b925050819055505b600a60015f8282546103a89190610667565b92505081905550565b60035481565b5f8054146103fa576040517f08c379a00000000000000000000000000000000000000000000000000000000081526004016103f190610842565b60405180910390fd5b5f60025f6101000a81548160ff021916908315150217905550565b6001151560025f9054906101000a900460ff1615151461046a576040517f08c379a00000000000000000000000000000000000000000000000000000000081526004016104619061074c565b60405180910390fd5b601e600154116104af576040517f08c379a00000000000000000000000000000000000000000000000000000000081526004016104a6906108aa565b60405180910390fd5b60465f54106104f3576040517f08c379a00000000000000000000000000000000000000000000000000000000081526004016104ea90610912565b60405180910390fd5b600a5f808282546105049190610634565b92505081905550601460015f82825461051d9190610667565b92505081905550565b5f5481565b5f8115159050919050565b61053f8161052b565b82525050565b5f6020820190506105585f830184610536565b92915050565b5f819050919050565b6105708161055e565b82525050565b5f6020820190506105895f830184610567565b92915050565b5f82825260208201905092915050565b7f5061796d656e74206d7573742062652067726561746572207468616e203000005f82015250565b5f6105d3601e8361058f565b91506105de8261059f565b602082019050919050565b5f6020820190508181035f830152610600816105c7565b9050919050565b7f4e487b71000000000000000000000000000000000000000000000000000000005f52601160045260245ffd5b5f61063e8261055e565b91506106498361055e565b925082820190508082111561066157610660610607565b5b92915050565b5f6106718261055e565b915061067c8361055e565b925082820390508181111561069457610693610607565b5b92915050565b7f496e73756666696369656e74207061796d656e740000000000000000000000005f82015250565b5f6106ce60148361058f565b91506106d98261069a565b602082019050919050565b5f6020820190508181035f8301526106fb816106c2565b9050919050565b7f456e67696e65206973206f6666000000000000000000000000000000000000005f82015250565b5f610736600d8361058f565b915061074182610702565b602082019050919050565b5f6020820190508181035f8301526107638161072a565b9050919050565b7f43617220697320616c72656164792073746f70706564000000000000000000005f82015250565b5f61079e60168361058f565b91506107a98261076a565b602082019050919050565b5f6020820190508181035f8301526107cb81610792565b9050919050565b7f436172206d7573742062652073746f7070656420746f207475726e206f6666205f8201527f656e67696e650000000000000000000000000000000000000000000000000000602082015250565b5f61082c60268361058f565b9150610837826107d2565b604082019050919050565b5f6020820190508181035f83015261085981610820565b9050919050565b7f4e6f7420656e6f756768206675656c00000000000000000000000000000000005f82015250565b5f610894600f8361058f565b915061089f82610860565b602082019050919050565b5f6020820190508181035f8301526108c181610888565b9050919050565b7f537065656420697320746f6f20686967680000000000000000000000000000005f82015250565b5f6108fc60118361058f565b9150610907826108c8565b602082019050919050565b5f6020820190508181035f830152610929816108f0565b905091905056fea2646970667358221220e1ab34a793774eed7f7c1b6791d2808ef854331f080a65cb93e7f92034ccad8764736f6c634300081a0033",
			"opcodes": "PUSH1 0x80 PUSH1 0x40 MSTORE CALLVALUE DUP1 ISZERO PUSH1 0xE JUMPI PUSH0 DUP1 REVERT JUMPDEST POP PUSH0 DUP1 DUP2 SWAP1 SSTORE POP PUSH1 0x64 PUSH1 0x1 DUP2 SWAP1 SSTORE POP PUSH0 PUSH1 0x2 PUSH0 PUSH2 0x100 EXP DUP2 SLOAD DUP2 PUSH1 0xFF MUL NOT AND SWAP1 DUP4 ISZERO ISZERO MUL OR SWAP1 SSTORE POP PUSH0 PUSH1 0x3 DUP2 SWAP1 SSTORE POP PUSH2 0x966 DUP1 PUSH2 0x4A PUSH0 CODECOPY PUSH0 RETURN INVALID PUSH1 0x80 PUSH1 0x40 MSTORE PUSH1 0x4 CALLDATASIZE LT PUSH2 0x90 JUMPI PUSH0 CALLDATALOAD PUSH1 0xE0 SHR DUP1 PUSH4 0x5642E2DC GT PUSH2 0x58 JUMPI DUP1 PUSH4 0x5642E2DC EQ PUSH2 0x112 JUMPI DUP1 PUSH4 0x5B04D6B6 EQ PUSH2 0x128 JUMPI DUP1 PUSH4 0x8044F7E6 EQ PUSH2 0x152 JUMPI DUP1 PUSH4 0xAE7579F3 EQ PUSH2 0x168 JUMPI DUP1 PUSH4 0xC20906AC EQ PUSH2 0x17E JUMPI PUSH2 0x90 JUMP JUMPDEST DUP1 PUSH4 0x6503FD3 EQ PUSH2 0x94 JUMPI DUP1 PUSH4 0x1842447D EQ PUSH2 0xBE JUMPI DUP1 PUSH4 0x279BAD16 EQ PUSH2 0xD4 JUMPI DUP1 PUSH4 0x34FE1D1E EQ PUSH2 0xFE JUMPI DUP1 PUSH4 0x4C1EC9AA EQ PUSH2 0x108 JUMPI JUMPDEST PUSH0 DUP1 REVERT JUMPDEST CALLVALUE DUP1 ISZERO PUSH2 0x9F JUMPI PUSH0 DUP1 REVERT JUMPDEST POP PUSH2 0xA8 PUSH2 0x1A8 JUMP JUMPDEST PUSH1 0x40 MLOAD PUSH2 0xB5 SWAP2 SWAP1 PUSH2 0x545 JUMP JUMPDEST PUSH1 0x40 MLOAD DUP1 SWAP2 SUB SWAP1 RETURN JUMPDEST CALLVALUE DUP1 ISZERO PUSH2 0xC9 JUMPI PUSH0 DUP1 REVERT JUMPDEST POP PUSH2 0xD2 PUSH2 0x1BA JUMP JUMPDEST STOP JUMPDEST CALLVALUE DUP1 ISZERO PUSH2 0xDF JUMPI PUSH0 DUP1 REVERT JUMPDEST POP PUSH2 0xE8 PUSH2 0x1D6 JUMP JUMPDEST PUSH1 0x40 MLOAD PUSH2 0xF5 SWAP2 SWAP1 PUSH2 0x576 JUMP JUMPDEST PUSH1 0x40 MLOAD DUP1 SWAP2 SUB SWAP1 RETURN JUMPDEST PUSH2 0x106 PUSH2 0x1DC JUMP JUMPDEST STOP JUMPDEST PUSH2 0x110 PUSH2 0x238 JUMP JUMPDEST STOP JUMPDEST CALLVALUE DUP1 ISZERO PUSH2 0x11D JUMPI PUSH0 DUP1 REVERT JUMPDEST POP PUSH2 0x126 PUSH2 0x2D0 JUMP JUMPDEST STOP JUMPDEST CALLVALUE DUP1 ISZERO PUSH2 0x133 JUMPI PUSH0 DUP1 REVERT JUMPDEST POP PUSH2 0x13C PUSH2 0x3B1 JUMP JUMPDEST PUSH1 0x40 MLOAD PUSH2 0x149 SWAP2 SWAP1 PUSH2 0x576 JUMP JUMPDEST PUSH1 0x40 MLOAD DUP1 SWAP2 SUB SWAP1 RETURN JUMPDEST CALLVALUE DUP1 ISZERO PUSH2 0x15D JUMPI PUSH0 DUP1 REVERT JUMPDEST POP PUSH2 0x166 PUSH2 0x3B7 JUMP JUMPDEST STOP JUMPDEST CALLVALUE DUP1 ISZERO PUSH2 0x173 JUMPI PUSH0 DUP1 REVERT JUMPDEST POP PUSH2 0x17C PUSH2 0x415 JUMP JUMPDEST STOP JUMPDEST CALLVALUE DUP1 ISZERO PUSH2 0x189 JUMPI PUSH0 DUP1 REVERT JUMPDEST POP PUSH2 0x192 PUSH2 0x526 JUMP JUMPDEST PUSH1 0x40 MLOAD PUSH2 0x19F SWAP2 SWAP1 PUSH2 0x576 JUMP JUMPDEST PUSH1 0x40 MLOAD DUP1 SWAP2 SUB SWAP1 RETURN JUMPDEST PUSH1 0x2 PUSH0 SWAP1 SLOAD SWAP1 PUSH2 0x100 EXP SWAP1 DIV PUSH1 0xFF AND DUP2 JUMP JUMPDEST PUSH1 0x1 PUSH1 0x2 PUSH0 PUSH2 0x100 EXP DUP2 SLOAD DUP2 PUSH1 0xFF MUL NOT AND SWAP1 DUP4 ISZERO ISZERO MUL OR SWAP1 SSTORE POP JUMP JUMPDEST PUSH1 0x1 SLOAD DUP2 JUMP JUMPDEST PUSH0 CALLVALUE GT PUSH2 0x21E JUMPI PUSH1 0x40 MLOAD PUSH32 0x8C379A000000000000000000000000000000000000000000000000000000000 DUP2 MSTORE PUSH1 0x4 ADD PUSH2 0x215 SWAP1 PUSH2 0x5E9 JUMP JUMPDEST PUSH1 0x40 MLOAD DUP1 SWAP2 SUB SWAP1 REVERT JUMPDEST CALLVALUE PUSH1 0x3 PUSH0 DUP3 DUP3 SLOAD PUSH2 0x22F SWAP2 SWAP1 PUSH2 0x634 JUMP JUMPDEST SWAP3 POP POP DUP2 SWAP1 SSTORE POP JUMP JUMPDEST PUSH8 0xDE0B6B3A7640000 CALLVALUE SUB PUSH2 0x254 JUMPI PUSH1 0x64 PUSH1 0x1 DUP2 SWAP1 SSTORE POP PUSH2 0x2CE JUMP JUMPDEST PUSH8 0xDE0B6B3A7640000 PUSH1 0x3 SLOAD LT PUSH2 0x292 JUMPI PUSH8 0xDE0B6B3A7640000 PUSH1 0x3 PUSH0 DUP3 DUP3 SLOAD PUSH2 0x27E SWAP2 SWAP1 PUSH2 0x667 JUMP JUMPDEST SWAP3 POP POP DUP2 SWAP1 SSTORE POP PUSH1 0x64 PUSH1 0x1 DUP2 SWAP1 SSTORE POP PUSH2 0x2CD JUMP JUMPDEST PUSH1 0x40 MLOAD PUSH32 0x8C379A000000000000000000000000000000000000000000000000000000000 DUP2 MSTORE PUSH1 0x4 ADD PUSH2 0x2C4 SWAP1 PUSH2 0x6E4 JUMP JUMPDEST PUSH1 0x40 MLOAD DUP1 SWAP2 SUB SWAP1 REVERT JUMPDEST JUMPDEST JUMP JUMPDEST PUSH1 0x1 ISZERO ISZERO PUSH1 0x2 PUSH0 SWAP1 SLOAD SWAP1 PUSH2 0x100 EXP SWAP1 DIV PUSH1 0xFF AND ISZERO ISZERO EQ PUSH2 0x325 JUMPI PUSH1 0x40 MLOAD PUSH32 0x8C379A000000000000000000000000000000000000000000000000000000000 DUP2 MSTORE PUSH1 0x4 ADD PUSH2 0x31C SWAP1 PUSH2 0x74C JUMP JUMPDEST PUSH1 0x40 MLOAD DUP1 SWAP2 SUB SWAP1 REVERT JUMPDEST PUSH0 DUP1 SLOAD GT PUSH2 0x368 JUMPI PUSH1 0x40 MLOAD PUSH32 0x8C379A000000000000000000000000000000000000000000000000000000000 DUP2 MSTORE PUSH1 0x4 ADD PUSH2 0x35F SWAP1 PUSH2 0x7B4 JUMP JUMPDEST PUSH1 0x40 MLOAD DUP1 SWAP2 SUB SWAP1 REVERT JUMPDEST PUSH1 0xA PUSH0 SLOAD LT ISZERO PUSH2 0x37D JUMPI PUSH0 DUP1 DUP2 SWAP1 SSTORE POP PUSH2 0x396 JUMP JUMPDEST PUSH1 0xA PUSH0 DUP1 DUP3 DUP3 SLOAD PUSH2 0x38E SWAP2 SWAP1 PUSH2 0x667 JUMP JUMPDEST SWAP3 POP POP DUP2 SWAP1 SSTORE POP JUMPDEST PUSH1 0xA PUSH1 0x1 PUSH0 DUP3 DUP3 SLOAD PUSH2 0x3A8 SWAP2 SWAP1 PUSH2 0x667 JUMP JUMPDEST SWAP3 POP POP DUP2 SWAP1 SSTORE POP JUMP JUMPDEST PUSH1 0x3 SLOAD DUP2 JUMP JUMPDEST PUSH0 DUP1 SLOAD EQ PUSH2 0x3FA JUMPI PUSH1 0x40 MLOAD PUSH32 0x8C379A000000000000000000000000000000000000000000000000000000000 DUP2 MSTORE PUSH1 0x4 ADD PUSH2 0x3F1 SWAP1 PUSH2 0x842 JUMP JUMPDEST PUSH1 0x40 MLOAD DUP1 SWAP2 SUB SWAP1 REVERT JUMPDEST PUSH0 PUSH1 0x2 PUSH0 PUSH2 0x100 EXP DUP2 SLOAD DUP2 PUSH1 0xFF MUL NOT AND SWAP1 DUP4 ISZERO ISZERO MUL OR SWAP1 SSTORE POP JUMP JUMPDEST PUSH1 0x1 ISZERO ISZERO PUSH1 0x2 PUSH0 SWAP1 SLOAD SWAP1 PUSH2 0x100 EXP SWAP1 DIV PUSH1 0xFF AND ISZERO ISZERO EQ PUSH2 0x46A JUMPI PUSH1 0x40 MLOAD PUSH32 0x8C379A000000000000000000000000000000000000000000000000000000000 DUP2 MSTORE PUSH1 0x4 ADD PUSH2 0x461 SWAP1 PUSH2 0x74C JUMP JUMPDEST PUSH1 0x40 MLOAD DUP1 SWAP2 SUB SWAP1 REVERT JUMPDEST PUSH1 0x1E PUSH1 0x1 SLOAD GT PUSH2 0x4AF JUMPI PUSH1 0x40 MLOAD PUSH32 0x8C379A000000000000000000000000000000000000000000000000000000000 DUP2 MSTORE PUSH1 0x4 ADD PUSH2 0x4A6 SWAP1 PUSH2 0x8AA JUMP JUMPDEST PUSH1 0x40 MLOAD DUP1 SWAP2 SUB SWAP1 REVERT JUMPDEST PUSH1 0x46 PUSH0 SLOAD LT PUSH2 0x4F3 JUMPI PUSH1 0x40 MLOAD PUSH32 0x8C379A000000000000000000000000000000000000000000000000000000000 DUP2 MSTORE PUSH1 0x4 ADD PUSH2 0x4EA SWAP1 PUSH2 0x912 JUMP JUMPDEST PUSH1 0x40 MLOAD DUP1 SWAP2 SUB SWAP1 REVERT JUMPDEST PUSH1 0xA PUSH0 DUP1 DUP3 DUP3 SLOAD PUSH2 0x504 SWAP2 SWAP1 PUSH2 0x634 JUMP JUMPDEST SWAP3 POP POP DUP2 SWAP1 SSTORE POP PUSH1 0x14 PUSH1 0x1 PUSH0 DUP3 DUP3 SLOAD PUSH2 0x51D SWAP2 SWAP1 PUSH2 0x667 JUMP JUMPDEST SWAP3 POP POP DUP2 SWAP1 SSTORE POP JUMP JUMPDEST PUSH0 SLOAD DUP2 JUMP JUMPDEST PUSH0 DUP2 ISZERO ISZERO SWAP1 POP SWAP2 SWAP1 POP JUMP JUMPDEST PUSH2 0x53F DUP2 PUSH2 0x52B JUMP JUMPDEST DUP3 MSTORE POP POP JUMP JUMPDEST PUSH0 PUSH1 0x20 DUP3 ADD SWAP1 POP PUSH2 0x558 PUSH0 DUP4 ADD DUP5 PUSH2 0x536 JUMP JUMPDEST SWAP3 SWAP2 POP POP JUMP JUMPDEST PUSH0 DUP2 SWAP1 POP SWAP2 SWAP1 POP JUMP JUMPDEST PUSH2 0x570 DUP2 PUSH2 0x55E JUMP JUMPDEST DUP3 MSTORE POP POP JUMP JUMPDEST PUSH0 PUSH1 0x20 DUP3 ADD SWAP1 POP PUSH2 0x589 PUSH0 DUP4 ADD DUP5 PUSH2 0x567 JUMP JUMPDEST SWAP3 SWAP2 POP POP JUMP JUMPDEST PUSH0 DUP3 DUP3 MSTORE PUSH1 0x20 DUP3 ADD SWAP1 POP SWAP3 SWAP2 POP POP JUMP JUMPDEST PUSH32 0x5061796D656E74206D7573742062652067726561746572207468616E20300000 PUSH0 DUP3 ADD MSTORE POP JUMP JUMPDEST PUSH0 PUSH2 0x5D3 PUSH1 0x1E DUP4 PUSH2 0x58F JUMP JUMPDEST SWAP2 POP PUSH2 0x5DE DUP3 PUSH2 0x59F JUMP JUMPDEST PUSH1 0x20 DUP3 ADD SWAP1 POP SWAP2 SWAP1 POP JUMP JUMPDEST PUSH0 PUSH1 0x20 DUP3 ADD SWAP1 POP DUP2 DUP2 SUB PUSH0 DUP4 ADD MSTORE PUSH2 0x600 DUP2 PUSH2 0x5C7 JUMP JUMPDEST SWAP1 POP SWAP2 SWAP1 POP JUMP JUMPDEST PUSH32 0x4E487B7100000000000000000000000000000000000000000000000000000000 PUSH0 MSTORE PUSH1 0x11 PUSH1 0x4 MSTORE PUSH1 0x24 PUSH0 REVERT JUMPDEST PUSH0 PUSH2 0x63E DUP3 PUSH2 0x55E JUMP JUMPDEST SWAP2 POP PUSH2 0x649 DUP4 PUSH2 0x55E JUMP JUMPDEST SWAP3 POP DUP3 DUP3 ADD SWAP1 POP DUP1 DUP3 GT ISZERO PUSH2 0x661 JUMPI PUSH2 0x660 PUSH2 0x607 JUMP JUMPDEST JUMPDEST SWAP3 SWAP2 POP POP JUMP JUMPDEST PUSH0 PUSH2 0x671 DUP3 PUSH2 0x55E JUMP JUMPDEST SWAP2 POP PUSH2 0x67C DUP4 PUSH2 0x55E JUMP JUMPDEST SWAP3 POP DUP3 DUP3 SUB SWAP1 POP DUP2 DUP2 GT ISZERO PUSH2 0x694 JUMPI PUSH2 0x693 PUSH2 0x607 JUMP JUMPDEST JUMPDEST SWAP3 SWAP2 POP POP JUMP JUMPDEST PUSH32 0x496E73756666696369656E74207061796D656E74000000000000000000000000 PUSH0 DUP3 ADD MSTORE POP JUMP JUMPDEST PUSH0 PUSH2 0x6CE PUSH1 0x14 DUP4 PUSH2 0x58F JUMP JUMPDEST SWAP2 POP PUSH2 0x6D9 DUP3 PUSH2 0x69A JUMP JUMPDEST PUSH1 0x20 DUP3 ADD SWAP1 POP SWAP2 SWAP1 POP JUMP JUMPDEST PUSH0 PUSH1 0x20 DUP3 ADD SWAP1 POP DUP2 DUP2 SUB PUSH0 DUP4 ADD MSTORE PUSH2 0x6FB DUP2 PUSH2 0x6C2 JUMP JUMPDEST SWAP1 POP SWAP2 SWAP1 POP JUMP JUMPDEST PUSH32 0x456E67696E65206973206F666600000000000000000000000000000000000000 PUSH0 DUP3 ADD MSTORE POP JUMP JUMPDEST PUSH0 PUSH2 0x736 PUSH1 0xD DUP4 PUSH2 0x58F JUMP JUMPDEST SWAP2 POP PUSH2 0x741 DUP3 PUSH2 0x702 JUMP JUMPDEST PUSH1 0x20 DUP3 ADD SWAP1 POP SWAP2 SWAP1 POP JUMP JUMPDEST PUSH0 PUSH1 0x20 DUP3 ADD SWAP1 POP DUP2 DUP2 SUB PUSH0 DUP4 ADD MSTORE PUSH2 0x763 DUP2 PUSH2 0x72A JUMP JUMPDEST SWAP1 POP SWAP2 SWAP1 POP JUMP JUMPDEST PUSH32 0x43617220697320616C72656164792073746F7070656400000000000000000000 PUSH0 DUP3 ADD MSTORE POP JUMP JUMPDEST PUSH0 PUSH2 0x79E PUSH1 0x16 DUP4 PUSH2 0x58F JUMP JUMPDEST SWAP2 POP PUSH2 0x7A9 DUP3 PUSH2 0x76A JUMP JUMPDEST PUSH1 0x20 DUP3 ADD SWAP1 POP SWAP2 SWAP1 POP JUMP JUMPDEST PUSH0 PUSH1 0x20 DUP3 ADD SWAP1 POP DUP2 DUP2 SUB PUSH0 DUP4 ADD MSTORE PUSH2 0x7CB DUP2 PUSH2 0x792 JUMP JUMPDEST SWAP1 POP SWAP2 SWAP1 POP JUMP JUMPDEST PUSH32 0x436172206D7573742062652073746F7070656420746F207475726E206F666620 PUSH0 DUP3 ADD MSTORE PUSH32 0x656E67696E650000000000000000000000000000000000000000000000000000 PUSH1 0x20 DUP3 ADD MSTORE POP JUMP JUMPDEST PUSH0 PUSH2 0x82C PUSH1 0x26 DUP4 PUSH2 0x58F JUMP JUMPDEST SWAP2 POP PUSH2 0x837 DUP3 PUSH2 0x7D2 JUMP JUMPDEST PUSH1 0x40 DUP3 ADD SWAP1 POP SWAP2 SWAP1 POP JUMP JUMPDEST PUSH0 PUSH1 0x20 DUP3 ADD SWAP1 POP DUP2 DUP2 SUB PUSH0 DUP4 ADD MSTORE PUSH2 0x859 DUP2 PUSH2 0x820 JUMP JUMPDEST SWAP1 POP SWAP2 SWAP1 POP JUMP JUMPDEST PUSH32 0x4E6F7420656E6F756768206675656C0000000000000000000000000000000000 PUSH0 DUP3 ADD MSTORE POP JUMP JUMPDEST PUSH0 PUSH2 0x894 PUSH1 0xF DUP4 PUSH2 0x58F JUMP JUMPDEST SWAP2 POP PUSH2 0x89F DUP3 PUSH2 0x860 JUMP JUMPDEST PUSH1 0x20 DUP3 ADD SWAP1 POP SWAP2 SWAP1 POP JUMP JUMPDEST PUSH0 PUSH1 0x20 DUP3 ADD SWAP1 POP DUP2 DUP2 SUB PUSH0 DUP4 ADD MSTORE PUSH2 0x8C1 DUP2 PUSH2 0x888 JUMP JUMPDEST SWAP1 POP SWAP2 SWAP1 POP JUMP JUMPDEST PUSH32 0x537065656420697320746F6F2068696768000000000000000000000000000000 PUSH0 DUP3 ADD MSTORE POP JUMP JUMPDEST PUSH0 PUSH2 0x8FC PUSH1 0x11 DUP4 PUSH2 0x58F JUMP JUMPDEST SWAP2 POP PUSH2 0x907 DUP3 PUSH2 0x8C8 JUMP JUMPDEST PUSH1 0x20 DUP3 ADD SWAP1 POP SWAP2 SWAP1 POP JUMP JUMPDEST PUSH0 PUSH1 0x20 DUP3 ADD SWAP1 POP DUP2 DUP2 SUB PUSH0 DUP4 ADD MSTORE PUSH2 0x929 DUP2 PUSH2 0x8F0 JUMP JUMPDEST SWAP1 POP SWAP2 SWAP1 POP JUMP INVALID LOG2 PUSH5 0x6970667358 0x22 SLT KECCAK256 0xE1 0xAB CALLVALUE 0xA7 SWAP4 PUSH24 0x4EED7F7C1B6791D2808EF854331F080A65CB93E7F92034CC 0xAD DUP8 PUSH5 0x736F6C6343 STOP ADDMOD BYTE STOP CALLER "
		},
		"gasEstimates": {
			"creation": {
				"codeDepositCost": "481200",
				"executionCost": "56921",
				"totalCost": "538121"
			},
			"external": {
				"accelerate()": "infinite",
				"brake()": "infinite",
				"engineStatus()": "2467",
				"fuel()": "2470",
				"prepaidBalance()": "2447",
				"prepay()": "infinite",
				"refuel()": "infinite",
				"speed()": "2512",
				"turnOffEngine()": "26574",
				"turnOnEngine()": "24432"
			}
		},
		"methodIdentifiers": {
			"accelerate()": "ae7579f3",
			"brake()": "5642e2dc",
			"engineStatus()": "06503fd3",
			"fuel()": "279bad16",
			"prepaidBalance()": "5b04d6b6",
			"prepay()": "34fe1d1e",
			"refuel()": "4c1ec9aa",
			"speed()": "c20906ac",
			"turnOffEngine()": "8044f7e6",
			"turnOnEngine()": "1842447d"
		}
	},
	"abi": [
		{
			"inputs": [],
			"stateMutability": "nonpayable",
			"type": "constructor"
		},
		{
			"inputs": [],
			"name": "accelerate",
			"outputs": [],
			"stateMutability": "nonpayable",
			"type": "function"
		},
		{
			"inputs": [],
			"name": "brake",
			"outputs": [],
			"stateMutability": "nonpayable",
			"type": "function"
		},
		{
			"inputs": [],
			"name": "engineStatus",
			"outputs": [
				{
					"internalType": "bool",
					"name": "",
					"type": "bool"
				}
			],
			"stateMutability": "view",
			"type": "function"
		},
		{
			"inputs": [],
			"name": "fuel",
			"outputs": [
				{
					"internalType": "uint256",
					"name": "",
					"type": "uint256"
				}
			],
			"stateMutability": "view",
			"type": "function"
		},
		{
			"inputs": [],
			"name": "prepaidBalance",
			"outputs": [
				{
					"internalType": "uint256",
					"name": "",
					"type": "uint256"
				}
			],
			"stateMutability": "view",
			"type": "function"
		},
		{
			"inputs": [],
			"name": "prepay",
			"outputs": [],
			"stateMutability": "payable",
			"type": "function"
		},
		{
			"inputs": [],
			"name": "refuel",
			"outputs": [],
			"stateMutability": "payable",
			"type": "function"
		},
		{
			"inputs": [],
			"name": "speed",
			"outputs": [
				{
					"internalType": "uint256",
					"name": "",
					"type": "uint256"
				}
			],
			"stateMutability": "view",
			"type": "function"
		},
		{
			"inputs": [],
			"name": "turnOffEngine",
			"outputs": [],
			"stateMutability": "nonpayable",
			"type": "function"
		},
		{
			"inputs": [],
			"name": "turnOnEngine",
			"outputs": [],
			"stateMutability": "nonpayable",
			"type": "function"
		}
	]
}