{
	"data": {
		"bytecode": {
			"linkReferences": {},
			"object": "6080604052348015600e575f80fd5b505f805f018190555060645f6001018190555060015f6002015f6101000a81548160ff0219169083600281111560455760446055565b5b02179055505f6003819055506082565b7f4e487b71000000000000000000000000000000000000000000000000000000005f52602160045260245ffd5b610b5f8061008f5f395ff3fe60806040526004361061007a575f3560e01c80639cdde8131161004d5780639cdde813146100d2578063af10c810146100fe578063ba33ed7d14610114578063f282df781461012a5761007a565b806334fe1d1e1461007e57806355161913146100885780635642e2dc146100925780635b04d6b6146100a8575b5f80fd5b610086610140565b005b61009061019c565b005b34801561009d575f80fd5b506100a6610238565b005b3480156100b3575f80fd5b506100bc61036f565b6040516100c99190610639565b60405180910390f35b3480156100dd575f80fd5b506100e6610375565b6040516100f5939291906106c5565b60405180910390f35b348015610109575f80fd5b50610112610397565b005b34801561011f575f80fd5b5061012861043b565b005b348015610135575f80fd5b5061013e6104e7565b005b5f3411610182576040517f08c379a000000000000000000000000000000000000000000000000000000000815260040161017990610754565b60405180910390fd5b3460035f828254610193919061079f565b92505081905550565b670de0b6b3a764000034036101ba5760645f60010181905550610236565b670de0b6b3a7640000600354106101fa57670de0b6b3a764000060035f8282546101e491906107d2565b9250508190555060645f60010181905550610235565b6040517f08c379a000000000000000000000000000000000000000000000000000000000815260040161022c9061084f565b60405180910390fd5b5b565b60028081111561024b5761024a610652565b5b5f6002015f9054906101000a900460ff16600281111561026e5761026d610652565b5b146102ae576040517f08c379a00000000000000000000000000000000000000000000000000000000081526004016102a5906108b7565b60405180910390fd5b5f805f0154116102f3576040517f08c379a00000000000000000000000000000000000000000000000000000000081526004016102ea9061091f565b60405180910390fd5b600a5f8001541015610337575f805f01819055505f806002015f6101000a81548160ff0219169083600281111561032d5761032c610652565b5b0217905550610352565b600a5f80015f82825461034a91906107d2565b925050819055505b600a5f6001015f82825461036691906107d2565b92505081905550565b60035481565b5f805f015490806001015490806002015f9054906101000a900460ff16905083565b5f60028111156103aa576103a9610652565b5b5f6002015f9054906101000a900460ff1660028111156103cd576103cc610652565b5b1461040d576040517f08c379a0000000000000000000000000000000000000000000000000000000008152600401610404906109ad565b60405180910390fd5b60015f6002015f6101000a81548160ff0219169083600281111561043457610433610652565b5b0217905550565b5f600281111561044e5761044d610652565b5b5f6002015f9054906101000a900460ff16600281111561047157610470610652565b5b146104b1576040517f08c379a00000000000000000000000000000000000000000000000000000000081526004016104a890610a3b565b60405180910390fd5b60025f6002015f6101000a81548160ff021916908360028111156104d8576104d7610652565b5b02179055505f805f0181905550565b6002808111156104fa576104f9610652565b5b5f6002015f9054906101000a900460ff16600281111561051d5761051c610652565b5b1461055d576040517f08c379a0000000000000000000000000000000000000000000000000000000008152600401610554906108b7565b60405180910390fd5b601e5f60010154116105a4576040517f08c379a000000000000000000000000000000000000000000000000000000000815260040161059b90610aa3565b60405180910390fd5b60465f800154106105ea576040517f08c379a00000000000000000000000000000000000000000000000000000000081526004016105e190610b0b565b60405180910390fd5b600a5f80015f8282546105fd919061079f565b9250508190555060145f6001015f82825461061891906107d2565b92505081905550565b5f819050919050565b61063381610621565b82525050565b5f60208201905061064c5f83018461062a565b92915050565b7f4e487b71000000000000000000000000000000000000000000000000000000005f52602160045260245ffd5b600381106106905761068f610652565b5b50565b5f8190506106a08261067f565b919050565b5f6106af82610693565b9050919050565b6106bf816106a5565b82525050565b5f6060820190506106d85f83018661062a565b6106e5602083018561062a565b6106f260408301846106b6565b949350505050565b5f82825260208201905092915050565b7f5061796d656e74206d7573742062652067726561746572207468616e20302e005f82015250565b5f61073e601f836106fa565b91506107498261070a565b602082019050919050565b5f6020820190508181035f83015261076b81610732565b9050919050565b7f4e487b71000000000000000000000000000000000000000000000000000000005f52601160045260245ffd5b5f6107a982610621565b91506107b483610621565b92508282019050808211156107cc576107cb610772565b5b92915050565b5f6107dc82610621565b91506107e783610621565b92508282039050818111156107ff576107fe610772565b5b92915050565b7f496e73756666696369656e74207061796d656e742e00000000000000000000005f82015250565b5f6108396015836106fa565b915061084482610805565b602082019050919050565b5f6020820190508181035f8301526108668161082d565b9050919050565b7f54686520636172206d7573742062652064726976696e672e00000000000000005f82015250565b5f6108a16018836106fa565b91506108ac8261086d565b602082019050919050565b5f6020820190508181035f8301526108ce81610895565b9050919050565b7f5468652063617220697320616c72656164792073746f707065642e00000000005f82015250565b5f610909601b836106fa565b9150610914826108d5565b602082019050919050565b5f6020820190508181035f830152610936816108fd565b9050919050565b7f54686520636172206d7573742062652073746f7070656420746f207475726e205f8201527f6f66662074686520656e67696e652e0000000000000000000000000000000000602082015250565b5f610997602f836106fa565b91506109a28261093d565b604082019050919050565b5f6020820190508181035f8301526109c48161098b565b9050919050565b7f54686520636172206d7573742062652073746f7070656420746f207475726e205f8201527f6f6e2074686520656e67696e652e000000000000000000000000000000000000602082015250565b5f610a25602e836106fa565b9150610a30826109cb565b604082019050919050565b5f6020820190508181035f830152610a5281610a19565b9050919050565b7f4e6f7420656e6f756768206675656c2e000000000000000000000000000000005f82015250565b5f610a8d6010836106fa565b9150610a9882610a59565b602082019050919050565b5f6020820190508181035f830152610aba81610a81565b9050919050565b7f537065656420697320746f6f20686967682e00000000000000000000000000005f82015250565b5f610af56012836106fa565b9150610b0082610ac1565b602082019050919050565b5f6020820190508181035f830152610b2281610ae9565b905091905056fea26469706673582212208e5549dae14ef0dbc9b7f0f00d600518f8888d6d0b9fe44c0795f83a657a4dab64736f6c634300081a0033",
			"opcodes": "PUSH1 0x80 PUSH1 0x40 MSTORE CALLVALUE DUP1 ISZERO PUSH1 0xE JUMPI PUSH0 DUP1 REVERT JUMPDEST POP PUSH0 DUP1 PUSH0 ADD DUP2 SWAP1 SSTORE POP PUSH1 0x64 PUSH0 PUSH1 0x1 ADD DUP2 SWAP1 SSTORE POP PUSH1 0x1 PUSH0 PUSH1 0x2 ADD PUSH0 PUSH2 0x100 EXP DUP2 SLOAD DUP2 PUSH1 0xFF MUL NOT AND SWAP1 DUP4 PUSH1 0x2 DUP2 GT ISZERO PUSH1 0x45 JUMPI PUSH1 0x44 PUSH1 0x55 JUMP JUMPDEST JUMPDEST MUL OR SWAP1 SSTORE POP PUSH0 PUSH1 0x3 DUP2 SWAP1 SSTORE POP PUSH1 0x82 JUMP JUMPDEST PUSH32 0x4E487B7100000000000000000000000000000000000000000000000000000000 PUSH0 MSTORE PUSH1 0x21 PUSH1 0x4 MSTORE PUSH1 0x24 PUSH0 REVERT JUMPDEST PUSH2 0xB5F DUP1 PUSH2 0x8F PUSH0 CODECOPY PUSH0 RETURN INVALID PUSH1 0x80 PUSH1 0x40 MSTORE PUSH1 0x4 CALLDATASIZE LT PUSH2 0x7A JUMPI PUSH0 CALLDATALOAD PUSH1 0xE0 SHR DUP1 PUSH4 0x9CDDE813 GT PUSH2 0x4D JUMPI DUP1 PUSH4 0x9CDDE813 EQ PUSH2 0xD2 JUMPI DUP1 PUSH4 0xAF10C810 EQ PUSH2 0xFE JUMPI DUP1 PUSH4 0xBA33ED7D EQ PUSH2 0x114 JUMPI DUP1 PUSH4 0xF282DF78 EQ PUSH2 0x12A JUMPI PUSH2 0x7A JUMP JUMPDEST DUP1 PUSH4 0x34FE1D1E EQ PUSH2 0x7E JUMPI DUP1 PUSH4 0x55161913 EQ PUSH2 0x88 JUMPI DUP1 PUSH4 0x5642E2DC EQ PUSH2 0x92 JUMPI DUP1 PUSH4 0x5B04D6B6 EQ PUSH2 0xA8 JUMPI JUMPDEST PUSH0 DUP1 REVERT JUMPDEST PUSH2 0x86 PUSH2 0x140 JUMP JUMPDEST STOP JUMPDEST PUSH2 0x90 PUSH2 0x19C JUMP JUMPDEST STOP JUMPDEST CALLVALUE DUP1 ISZERO PUSH2 0x9D JUMPI PUSH0 DUP1 REVERT JUMPDEST POP PUSH2 0xA6 PUSH2 0x238 JUMP JUMPDEST STOP JUMPDEST CALLVALUE DUP1 ISZERO PUSH2 0xB3 JUMPI PUSH0 DUP1 REVERT JUMPDEST POP PUSH2 0xBC PUSH2 0x36F JUMP JUMPDEST PUSH1 0x40 MLOAD PUSH2 0xC9 SWAP2 SWAP1 PUSH2 0x639 JUMP JUMPDEST PUSH1 0x40 MLOAD DUP1 SWAP2 SUB SWAP1 RETURN JUMPDEST CALLVALUE DUP1 ISZERO PUSH2 0xDD JUMPI PUSH0 DUP1 REVERT JUMPDEST POP PUSH2 0xE6 PUSH2 0x375 JUMP JUMPDEST PUSH1 0x40 MLOAD PUSH2 0xF5 SWAP4 SWAP3 SWAP2 SWAP1 PUSH2 0x6C5 JUMP JUMPDEST PUSH1 0x40 MLOAD DUP1 SWAP2 SUB SWAP1 RETURN JUMPDEST CALLVALUE DUP1 ISZERO PUSH2 0x109 JUMPI PUSH0 DUP1 REVERT JUMPDEST POP PUSH2 0x112 PUSH2 0x397 JUMP JUMPDEST STOP JUMPDEST CALLVALUE DUP1 ISZERO PUSH2 0x11F JUMPI PUSH0 DUP1 REVERT JUMPDEST POP PUSH2 0x128 PUSH2 0x43B JUMP JUMPDEST STOP JUMPDEST CALLVALUE DUP1 ISZERO PUSH2 0x135 JUMPI PUSH0 DUP1 REVERT JUMPDEST POP PUSH2 0x13E PUSH2 0x4E7 JUMP JUMPDEST STOP JUMPDEST PUSH0 CALLVALUE GT PUSH2 0x182 JUMPI PUSH1 0x40 MLOAD PUSH32 0x8C379A000000000000000000000000000000000000000000000000000000000 DUP2 MSTORE PUSH1 0x4 ADD PUSH2 0x179 SWAP1 PUSH2 0x754 JUMP JUMPDEST PUSH1 0x40 MLOAD DUP1 SWAP2 SUB SWAP1 REVERT JUMPDEST CALLVALUE PUSH1 0x3 PUSH0 DUP3 DUP3 SLOAD PUSH2 0x193 SWAP2 SWAP1 PUSH2 0x79F JUMP JUMPDEST SWAP3 POP POP DUP2 SWAP1 SSTORE POP JUMP JUMPDEST PUSH8 0xDE0B6B3A7640000 CALLVALUE SUB PUSH2 0x1BA JUMPI PUSH1 0x64 PUSH0 PUSH1 0x1 ADD DUP2 SWAP1 SSTORE POP PUSH2 0x236 JUMP JUMPDEST PUSH8 0xDE0B6B3A7640000 PUSH1 0x3 SLOAD LT PUSH2 0x1FA JUMPI PUSH8 0xDE0B6B3A7640000 PUSH1 0x3 PUSH0 DUP3 DUP3 SLOAD PUSH2 0x1E4 SWAP2 SWAP1 PUSH2 0x7D2 JUMP JUMPDEST SWAP3 POP POP DUP2 SWAP1 SSTORE POP PUSH1 0x64 PUSH0 PUSH1 0x1 ADD DUP2 SWAP1 SSTORE POP PUSH2 0x235 JUMP JUMPDEST PUSH1 0x40 MLOAD PUSH32 0x8C379A000000000000000000000000000000000000000000000000000000000 DUP2 MSTORE PUSH1 0x4 ADD PUSH2 0x22C SWAP1 PUSH2 0x84F JUMP JUMPDEST PUSH1 0x40 MLOAD DUP1 SWAP2 SUB SWAP1 REVERT JUMPDEST JUMPDEST JUMP JUMPDEST PUSH1 0x2 DUP1 DUP2 GT ISZERO PUSH2 0x24B JUMPI PUSH2 0x24A PUSH2 0x652 JUMP JUMPDEST JUMPDEST PUSH0 PUSH1 0x2 ADD PUSH0 SWAP1 SLOAD SWAP1 PUSH2 0x100 EXP SWAP1 DIV PUSH1 0xFF AND PUSH1 0x2 DUP2 GT ISZERO PUSH2 0x26E JUMPI PUSH2 0x26D PUSH2 0x652 JUMP JUMPDEST JUMPDEST EQ PUSH2 0x2AE JUMPI PUSH1 0x40 MLOAD PUSH32 0x8C379A000000000000000000000000000000000000000000000000000000000 DUP2 MSTORE PUSH1 0x4 ADD PUSH2 0x2A5 SWAP1 PUSH2 0x8B7 JUMP JUMPDEST PUSH1 0x40 MLOAD DUP1 SWAP2 SUB SWAP1 REVERT JUMPDEST PUSH0 DUP1 PUSH0 ADD SLOAD GT PUSH2 0x2F3 JUMPI PUSH1 0x40 MLOAD PUSH32 0x8C379A000000000000000000000000000000000000000000000000000000000 DUP2 MSTORE PUSH1 0x4 ADD PUSH2 0x2EA SWAP1 PUSH2 0x91F JUMP JUMPDEST PUSH1 0x40 MLOAD DUP1 SWAP2 SUB SWAP1 REVERT JUMPDEST PUSH1 0xA PUSH0 DUP1 ADD SLOAD LT ISZERO PUSH2 0x337 JUMPI PUSH0 DUP1 PUSH0 ADD DUP2 SWAP1 SSTORE POP PUSH0 DUP1 PUSH1 0x2 ADD PUSH0 PUSH2 0x100 EXP DUP2 SLOAD DUP2 PUSH1 0xFF MUL NOT AND SWAP1 DUP4 PUSH1 0x2 DUP2 GT ISZERO PUSH2 0x32D JUMPI PUSH2 0x32C PUSH2 0x652 JUMP JUMPDEST JUMPDEST MUL OR SWAP1 SSTORE POP PUSH2 0x352 JUMP JUMPDEST PUSH1 0xA PUSH0 DUP1 ADD PUSH0 DUP3 DUP3 SLOAD PUSH2 0x34A SWAP2 SWAP1 PUSH2 0x7D2 JUMP JUMPDEST SWAP3 POP POP DUP2 SWAP1 SSTORE POP JUMPDEST PUSH1 0xA PUSH0 PUSH1 0x1 ADD PUSH0 DUP3 DUP3 SLOAD PUSH2 0x366 SWAP2 SWAP1 PUSH2 0x7D2 JUMP JUMPDEST SWAP3 POP POP DUP2 SWAP1 SSTORE POP JUMP JUMPDEST PUSH1 0x3 SLOAD DUP2 JUMP JUMPDEST PUSH0 DUP1 PUSH0 ADD SLOAD SWAP1 DUP1 PUSH1 0x1 ADD SLOAD SWAP1 DUP1 PUSH1 0x2 ADD PUSH0 SWAP1 SLOAD SWAP1 PUSH2 0x100 EXP SWAP1 DIV PUSH1 0xFF AND SWAP1 POP DUP4 JUMP JUMPDEST PUSH0 PUSH1 0x2 DUP2 GT ISZERO PUSH2 0x3AA JUMPI PUSH2 0x3A9 PUSH2 0x652 JUMP JUMPDEST JUMPDEST PUSH0 PUSH1 0x2 ADD PUSH0 SWAP1 SLOAD SWAP1 PUSH2 0x100 EXP SWAP1 DIV PUSH1 0xFF AND PUSH1 0x2 DUP2 GT ISZERO PUSH2 0x3CD JUMPI PUSH2 0x3CC PUSH2 0x652 JUMP JUMPDEST JUMPDEST EQ PUSH2 0x40D JUMPI PUSH1 0x40 MLOAD PUSH32 0x8C379A000000000000000000000000000000000000000000000000000000000 DUP2 MSTORE PUSH1 0x4 ADD PUSH2 0x404 SWAP1 PUSH2 0x9AD JUMP JUMPDEST PUSH1 0x40 MLOAD DUP1 SWAP2 SUB SWAP1 REVERT JUMPDEST PUSH1 0x1 PUSH0 PUSH1 0x2 ADD PUSH0 PUSH2 0x100 EXP DUP2 SLOAD DUP2 PUSH1 0xFF MUL NOT AND SWAP1 DUP4 PUSH1 0x2 DUP2 GT ISZERO PUSH2 0x434 JUMPI PUSH2 0x433 PUSH2 0x652 JUMP JUMPDEST JUMPDEST MUL OR SWAP1 SSTORE POP JUMP JUMPDEST PUSH0 PUSH1 0x2 DUP2 GT ISZERO PUSH2 0x44E JUMPI PUSH2 0x44D PUSH2 0x652 JUMP JUMPDEST JUMPDEST PUSH0 PUSH1 0x2 ADD PUSH0 SWAP1 SLOAD SWAP1 PUSH2 0x100 EXP SWAP1 DIV PUSH1 0xFF AND PUSH1 0x2 DUP2 GT ISZERO PUSH2 0x471 JUMPI PUSH2 0x470 PUSH2 0x652 JUMP JUMPDEST JUMPDEST EQ PUSH2 0x4B1 JUMPI PUSH1 0x40 MLOAD PUSH32 0x8C379A000000000000000000000000000000000000000000000000000000000 DUP2 MSTORE PUSH1 0x4 ADD PUSH2 0x4A8 SWAP1 PUSH2 0xA3B JUMP JUMPDEST PUSH1 0x40 MLOAD DUP1 SWAP2 SUB SWAP1 REVERT JUMPDEST PUSH1 0x2 PUSH0 PUSH1 0x2 ADD PUSH0 PUSH2 0x100 EXP DUP2 SLOAD DUP2 PUSH1 0xFF MUL NOT AND SWAP1 DUP4 PUSH1 0x2 DUP2 GT ISZERO PUSH2 0x4D8 JUMPI PUSH2 0x4D7 PUSH2 0x652 JUMP JUMPDEST JUMPDEST MUL OR SWAP1 SSTORE POP PUSH0 DUP1 PUSH0 ADD DUP2 SWAP1 SSTORE POP JUMP JUMPDEST PUSH1 0x2 DUP1 DUP2 GT ISZERO PUSH2 0x4FA JUMPI PUSH2 0x4F9 PUSH2 0x652 JUMP JUMPDEST JUMPDEST PUSH0 PUSH1 0x2 ADD PUSH0 SWAP1 SLOAD SWAP1 PUSH2 0x100 EXP SWAP1 DIV PUSH1 0xFF AND PUSH1 0x2 DUP2 GT ISZERO PUSH2 0x51D JUMPI PUSH2 0x51C PUSH2 0x652 JUMP JUMPDEST JUMPDEST EQ PUSH2 0x55D JUMPI PUSH1 0x40 MLOAD PUSH32 0x8C379A000000000000000000000000000000000000000000000000000000000 DUP2 MSTORE PUSH1 0x4 ADD PUSH2 0x554 SWAP1 PUSH2 0x8B7 JUMP JUMPDEST PUSH1 0x40 MLOAD DUP1 SWAP2 SUB SWAP1 REVERT JUMPDEST PUSH1 0x1E PUSH0 PUSH1 0x1 ADD SLOAD GT PUSH2 0x5A4 JUMPI PUSH1 0x40 MLOAD PUSH32 0x8C379A000000000000000000000000000000000000000000000000000000000 DUP2 MSTORE PUSH1 0x4 ADD PUSH2 0x59B SWAP1 PUSH2 0xAA3 JUMP JUMPDEST PUSH1 0x40 MLOAD DUP1 SWAP2 SUB SWAP1 REVERT JUMPDEST PUSH1 0x46 PUSH0 DUP1 ADD SLOAD LT PUSH2 0x5EA JUMPI PUSH1 0x40 MLOAD PUSH32 0x8C379A000000000000000000000000000000000000000000000000000000000 DUP2 MSTORE PUSH1 0x4 ADD PUSH2 0x5E1 SWAP1 PUSH2 0xB0B JUMP JUMPDEST PUSH1 0x40 MLOAD DUP1 SWAP2 SUB SWAP1 REVERT JUMPDEST PUSH1 0xA PUSH0 DUP1 ADD PUSH0 DUP3 DUP3 SLOAD PUSH2 0x5FD SWAP2 SWAP1 PUSH2 0x79F JUMP JUMPDEST SWAP3 POP POP DUP2 SWAP1 SSTORE POP PUSH1 0x14 PUSH0 PUSH1 0x1 ADD PUSH0 DUP3 DUP3 SLOAD PUSH2 0x618 SWAP2 SWAP1 PUSH2 0x7D2 JUMP JUMPDEST SWAP3 POP POP DUP2 SWAP1 SSTORE POP JUMP JUMPDEST PUSH0 DUP2 SWAP1 POP SWAP2 SWAP1 POP JUMP JUMPDEST PUSH2 0x633 DUP2 PUSH2 0x621 JUMP JUMPDEST DUP3 MSTORE POP POP JUMP JUMPDEST PUSH0 PUSH1 0x20 DUP3 ADD SWAP1 POP PUSH2 0x64C PUSH0 DUP4 ADD DUP5 PUSH2 0x62A JUMP JUMPDEST SWAP3 SWAP2 POP POP JUMP JUMPDEST PUSH32 0x4E487B7100000000000000000000000000000000000000000000000000000000 PUSH0 MSTORE PUSH1 0x21 PUSH1 0x4 MSTORE PUSH1 0x24 PUSH0 REVERT JUMPDEST PUSH1 0x3 DUP2 LT PUSH2 0x690 JUMPI PUSH2 0x68F PUSH2 0x652 JUMP JUMPDEST JUMPDEST POP JUMP JUMPDEST PUSH0 DUP2 SWAP1 POP PUSH2 0x6A0 DUP3 PUSH2 0x67F JUMP JUMPDEST SWAP2 SWAP1 POP JUMP JUMPDEST PUSH0 PUSH2 0x6AF DUP3 PUSH2 0x693 JUMP JUMPDEST SWAP1 POP SWAP2 SWAP1 POP JUMP JUMPDEST PUSH2 0x6BF DUP2 PUSH2 0x6A5 JUMP JUMPDEST DUP3 MSTORE POP POP JUMP JUMPDEST PUSH0 PUSH1 0x60 DUP3 ADD SWAP1 POP PUSH2 0x6D8 PUSH0 DUP4 ADD DUP7 PUSH2 0x62A JUMP JUMPDEST PUSH2 0x6E5 PUSH1 0x20 DUP4 ADD DUP6 PUSH2 0x62A JUMP JUMPDEST PUSH2 0x6F2 PUSH1 0x40 DUP4 ADD DUP5 PUSH2 0x6B6 JUMP JUMPDEST SWAP5 SWAP4 POP POP POP POP JUMP JUMPDEST PUSH0 DUP3 DUP3 MSTORE PUSH1 0x20 DUP3 ADD SWAP1 POP SWAP3 SWAP2 POP POP JUMP JUMPDEST PUSH32 0x5061796D656E74206D7573742062652067726561746572207468616E20302E00 PUSH0 DUP3 ADD MSTORE POP JUMP JUMPDEST PUSH0 PUSH2 0x73E PUSH1 0x1F DUP4 PUSH2 0x6FA JUMP JUMPDEST SWAP2 POP PUSH2 0x749 DUP3 PUSH2 0x70A JUMP JUMPDEST PUSH1 0x20 DUP3 ADD SWAP1 POP SWAP2 SWAP1 POP JUMP JUMPDEST PUSH0 PUSH1 0x20 DUP3 ADD SWAP1 POP DUP2 DUP2 SUB PUSH0 DUP4 ADD MSTORE PUSH2 0x76B DUP2 PUSH2 0x732 JUMP JUMPDEST SWAP1 POP SWAP2 SWAP1 POP JUMP JUMPDEST PUSH32 0x4E487B7100000000000000000000000000000000000000000000000000000000 PUSH0 MSTORE PUSH1 0x11 PUSH1 0x4 MSTORE PUSH1 0x24 PUSH0 REVERT JUMPDEST PUSH0 PUSH2 0x7A9 DUP3 PUSH2 0x621 JUMP JUMPDEST SWAP2 POP PUSH2 0x7B4 DUP4 PUSH2 0x621 JUMP JUMPDEST SWAP3 POP DUP3 DUP3 ADD SWAP1 POP DUP1 DUP3 GT ISZERO PUSH2 0x7CC JUMPI PUSH2 0x7CB PUSH2 0x772 JUMP JUMPDEST JUMPDEST SWAP3 SWAP2 POP POP JUMP JUMPDEST PUSH0 PUSH2 0x7DC DUP3 PUSH2 0x621 JUMP JUMPDEST SWAP2 POP PUSH2 0x7E7 DUP4 PUSH2 0x621 JUMP JUMPDEST SWAP3 POP DUP3 DUP3 SUB SWAP1 POP DUP2 DUP2 GT ISZERO PUSH2 0x7FF JUMPI PUSH2 0x7FE PUSH2 0x772 JUMP JUMPDEST JUMPDEST SWAP3 SWAP2 POP POP JUMP JUMPDEST PUSH32 0x496E73756666696369656E74207061796D656E742E0000000000000000000000 PUSH0 DUP3 ADD MSTORE POP JUMP JUMPDEST PUSH0 PUSH2 0x839 PUSH1 0x15 DUP4 PUSH2 0x6FA JUMP JUMPDEST SWAP2 POP PUSH2 0x844 DUP3 PUSH2 0x805 JUMP JUMPDEST PUSH1 0x20 DUP3 ADD SWAP1 POP SWAP2 SWAP1 POP JUMP JUMPDEST PUSH0 PUSH1 0x20 DUP3 ADD SWAP1 POP DUP2 DUP2 SUB PUSH0 DUP4 ADD MSTORE PUSH2 0x866 DUP2 PUSH2 0x82D JUMP JUMPDEST SWAP1 POP SWAP2 SWAP1 POP JUMP JUMPDEST PUSH32 0x54686520636172206D7573742062652064726976696E672E0000000000000000 PUSH0 DUP3 ADD MSTORE POP JUMP JUMPDEST PUSH0 PUSH2 0x8A1 PUSH1 0x18 DUP4 PUSH2 0x6FA JUMP JUMPDEST SWAP2 POP PUSH2 0x8AC DUP3 PUSH2 0x86D JUMP JUMPDEST PUSH1 0x20 DUP3 ADD SWAP1 POP SWAP2 SWAP1 POP JUMP JUMPDEST PUSH0 PUSH1 0x20 DUP3 ADD SWAP1 POP DUP2 DUP2 SUB PUSH0 DUP4 ADD MSTORE PUSH2 0x8CE DUP2 PUSH2 0x895 JUMP JUMPDEST SWAP1 POP SWAP2 SWAP1 POP JUMP JUMPDEST PUSH32 0x5468652063617220697320616C72656164792073746F707065642E0000000000 PUSH0 DUP3 ADD MSTORE POP JUMP JUMPDEST PUSH0 PUSH2 0x909 PUSH1 0x1B DUP4 PUSH2 0x6FA JUMP JUMPDEST SWAP2 POP PUSH2 0x914 DUP3 PUSH2 0x8D5 JUMP JUMPDEST PUSH1 0x20 DUP3 ADD SWAP1 POP SWAP2 SWAP1 POP JUMP JUMPDEST PUSH0 PUSH1 0x20 DUP3 ADD SWAP1 POP DUP2 DUP2 SUB PUSH0 DUP4 ADD MSTORE PUSH2 0x936 DUP2 PUSH2 0x8FD JUMP JUMPDEST SWAP1 POP SWAP2 SWAP1 POP JUMP JUMPDEST PUSH32 0x54686520636172206D7573742062652073746F7070656420746F207475726E20 PUSH0 DUP3 ADD MSTORE PUSH32 0x6F66662074686520656E67696E652E0000000000000000000000000000000000 PUSH1 0x20 DUP3 ADD MSTORE POP JUMP JUMPDEST PUSH0 PUSH2 0x997 PUSH1 0x2F DUP4 PUSH2 0x6FA JUMP JUMPDEST SWAP2 POP PUSH2 0x9A2 DUP3 PUSH2 0x93D JUMP JUMPDEST PUSH1 0x40 DUP3 ADD SWAP1 POP SWAP2 SWAP1 POP JUMP JUMPDEST PUSH0 PUSH1 0x20 DUP3 ADD SWAP1 POP DUP2 DUP2 SUB PUSH0 DUP4 ADD MSTORE PUSH2 0x9C4 DUP2 PUSH2 0x98B JUMP JUMPDEST SWAP1 POP SWAP2 SWAP1 POP JUMP JUMPDEST PUSH32 0x54686520636172206D7573742062652073746F7070656420746F207475726E20 PUSH0 DUP3 ADD MSTORE PUSH32 0x6F6E2074686520656E67696E652E000000000000000000000000000000000000 PUSH1 0x20 DUP3 ADD MSTORE POP JUMP JUMPDEST PUSH0 PUSH2 0xA25 PUSH1 0x2E DUP4 PUSH2 0x6FA JUMP JUMPDEST SWAP2 POP PUSH2 0xA30 DUP3 PUSH2 0x9CB JUMP JUMPDEST PUSH1 0x40 DUP3 ADD SWAP1 POP SWAP2 SWAP1 POP JUMP JUMPDEST PUSH0 PUSH1 0x20 DUP3 ADD SWAP1 POP DUP2 DUP2 SUB PUSH0 DUP4 ADD MSTORE PUSH2 0xA52 DUP2 PUSH2 0xA19 JUMP JUMPDEST SWAP1 POP SWAP2 SWAP1 POP JUMP JUMPDEST PUSH32 0x4E6F7420656E6F756768206675656C2E00000000000000000000000000000000 PUSH0 DUP3 ADD MSTORE POP JUMP JUMPDEST PUSH0 PUSH2 0xA8D PUSH1 0x10 DUP4 PUSH2 0x6FA JUMP JUMPDEST SWAP2 POP PUSH2 0xA98 DUP3 PUSH2 0xA59 JUMP JUMPDEST PUSH1 0x20 DUP3 ADD SWAP1 POP SWAP2 SWAP1 POP JUMP JUMPDEST PUSH0 PUSH1 0x20 DUP3 ADD SWAP1 POP DUP2 DUP2 SUB PUSH0 DUP4 ADD MSTORE PUSH2 0xABA DUP2 PUSH2 0xA81 JUMP JUMPDEST SWAP1 POP SWAP2 SWAP1 POP JUMP JUMPDEST PUSH32 0x537065656420697320746F6F20686967682E0000000000000000000000000000 PUSH0 DUP3 ADD MSTORE POP JUMP JUMPDEST PUSH0 PUSH2 0xAF5 PUSH1 0x12 DUP4 PUSH2 0x6FA JUMP JUMPDEST SWAP2 POP PUSH2 0xB00 DUP3 PUSH2 0xAC1 JUMP JUMPDEST PUSH1 0x20 DUP3 ADD SWAP1 POP SWAP2 SWAP1 POP JUMP JUMPDEST PUSH0 PUSH1 0x20 DUP3 ADD SWAP1 POP DUP2 DUP2 SUB PUSH0 DUP4 ADD MSTORE PUSH2 0xB22 DUP2 PUSH2 0xAE9 JUMP JUMPDEST SWAP1 POP SWAP2 SWAP1 POP JUMP INVALID LOG2 PUSH5 0x6970667358 0x22 SLT KECCAK256 DUP15 SSTORE BLOBHASH 0xDA 0xE1 0x4E CREATE 0xDB 0xC9 0xB7 CREATE CREATE 0xD PUSH1 0x5 XOR 0xF8 DUP9 DUP14 PUSH14 0xB9FE44C0795F83A657A4DAB6473 PUSH16 0x6C634300081A00330000000000000000 "
		},
		"gasEstimates": {
			"creation": {
				"codeDepositCost": "582200",
				"executionCost": "57064",
				"totalCost": "639264"
			},
			"external": {
				"accel()": "infinite",
				"brake()": "infinite",
				"charge()": "infinite",
				"myCar()": "infinite",
				"prepaidBalance()": "2492",
				"prepay()": "infinite",
				"turnOff()": "26670",
				"turnOn()": "31710"
			}
		},
		"methodIdentifiers": {
			"accel()": "f282df78",
			"brake()": "5642e2dc",
			"charge()": "55161913",
			"myCar()": "9cdde813",
			"prepaidBalance()": "5b04d6b6",
			"prepay()": "34fe1d1e",
			"turnOff()": "af10c810",
			"turnOn()": "ba33ed7d"
		}
	},
	"abi": [
		{
			"inputs": [],
			"stateMutability": "nonpayable",
			"type": "constructor"
		},
		{
			"inputs": [],
			"name": "accel",
			"outputs": [],
			"stateMutability": "nonpayable",
			"type": "function"
		},
		{
			"inputs": [],
			"name": "brake",
			"outputs": [],
			"stateMutability": "nonpayable",
			"type": "function"
		},
		{
			"inputs": [],
			"name": "charge",
			"outputs": [],
			"stateMutability": "payable",
			"type": "function"
		},
		{
			"inputs": [],
			"name": "myCar",
			"outputs": [
				{
					"internalType": "uint256",
					"name": "speed",
					"type": "uint256"
				},
				{
					"internalType": "uint256",
					"name": "gas",
					"type": "uint256"
				},
				{
					"internalType": "enum Test7.CarStatus",
					"name": "status",
					"type": "uint8"
				}
			],
			"stateMutability": "view",
			"type": "function"
		},
		{
			"inputs": [],
			"name": "prepaidBalance",
			"outputs": [
				{
					"internalType": "uint256",
					"name": "",
					"type": "uint256"
				}
			],
			"stateMutability": "view",
			"type": "function"
		},
		{
			"inputs": [],
			"name": "prepay",
			"outputs": [],
			"stateMutability": "payable",
			"type": "function"
		},
		{
			"inputs": [],
			"name": "turnOff",
			"outputs": [],
			"stateMutability": "nonpayable",
			"type": "function"
		},
		{
			"inputs": [],
			"name": "turnOn",
			"outputs": [],
			"stateMutability": "nonpayable",
			"type": "function"
		}
	]
}