{
	"data": {
		"bytecode": {
			"linkReferences": {},
			"object": "608060405266b1a2bc2ec500006005553480156019575f80fd5b503360045f6101000a81548173ffffffffffffffffffffffffffffffffffffffff021916908373ffffffffffffffffffffffffffffffffffffffff160217905550611b99806100675f395ff3fe608060405260043610610094575f3560e01c80638da5cb5b116100585780638da5cb5b1461015f578063b30906d414610189578063bae78d7b146101c5578063c109965614610203578063d09685b01461023f5761009b565b806310b6e4821461009f5780631209b1f6146100c75780634e45f095146100f15780637ce52eb61461012d5780638baae14c146101435761009b565b3661009b57005b5f80fd5b3480156100aa575f80fd5b506100c560048036038101906100c09190611256565b610269565b005b3480156100d2575f80fd5b506100db610359565b6040516100e891906112c8565b60405180910390f35b3480156100fc575f80fd5b506101176004803603810190610112919061130b565b61035f565b6040516101249190611345565b60405180910390f35b348015610138575f80fd5b50610141610388565b005b61015d60048036038101906101589190611256565b610782565b005b34801561016a575f80fd5b506101736108e8565b604051610180919061139d565b60405180910390f35b348015610194575f80fd5b506101af60048036038101906101aa919061130b565b61090d565b6040516101bc919061139d565b60405180910390f35b3480156101d0575f80fd5b506101eb60048036038101906101e6919061130b565b610955565b6040516101fa9392919061156a565b60405180910390f35b34801561020e575f80fd5b506102296004803603810190610224919061130b565b610ae2565b60405161023691906115ee565b60405180910390f35b34801561024a575f80fd5b50610253610b81565b60405161026091906112c8565b60405180910390f35b60045f9054906101000a900473ffffffffffffffffffffffffffffffffffffffff1673ffffffffffffffffffffffffffffffffffffffff163373ffffffffffffffffffffffffffffffffffffffff16146102f8576040517f08c379a00000000000000000000000000000000000000000000000000000000081526004016102ef9061167e565b60405180910390fd5b816001906004610309929190610d0e565b5080600290600261031b929190610da5565b507f036eaf57b62a30fce504114c11bf31c26f49bb0842743f4e796177f4bb6bb8fb828260405161034d92919061169c565b60405180910390a15050565b60055481565b6001816004811061036e575f80fd5b60209182820401919006915054906101000a900460ff1681565b60045f9054906101000a900473ffffffffffffffffffffffffffffffffffffffff1673ffffffffffffffffffffffffffffffffffffffff163373ffffffffffffffffffffffffffffffffffffffff1614610417576040517f08c379a000000000000000000000000000000000000000000000000000000000815260040161040e9061167e565b60405180910390fd5b5f5b5f80549050811015610773575f6105d95f838154811061043c5761043b6116ca565b5b905f5260205f2090600402016040518060600160405290815f82016004806020026040519081016040528092919082600480156104b2576020028201915f905b82829054906101000a900460ff1660ff16815260200190600101906020825f0104928301926001038202915080841161047c5790505b5050505050815260200160018201600280602002604051908101604052809291905f905b828210156105775783820180546104ec90611724565b80601f016020809104026020016040519081016040528092919081815260200182805461051890611724565b80156105635780601f1061053a57610100808354040283529160200191610563565b820191905f5260205f20905b81548152906001019060200180831161054657829003601f168201915b5050505050815260200190600101906104d6565b505050508152602001600382015f9054906101000a900473ffffffffffffffffffffffffffffffffffffffff1673ffffffffffffffffffffffffffffffffffffffff1673ffffffffffffffffffffffffffffffffffffffff1681525050610b8c565b90505f60068260ff16036105f757670de0b6b3a76400009050610647565b60058260ff160361061257670a688906bd8b00009050610646565b60048260ff160361062d576703782dace9d900009050610645565b60038260ff16036106445767016345785d8a000090505b5b5b5b5f811115610764575f8381548110610662576106616116ca565b5b905f5260205f2090600402016003015f9054906101000a900473ffffffffffffffffffffffffffffffffffffffff1673ffffffffffffffffffffffffffffffffffffffff166108fc8290811502906040515f60405180830381858888f193505050501580156106d3573d5f803e3d5ffd5b505f83815481106106e7576106e66116ca565b5b905f5260205f2090600402016003015f9054906101000a900473ffffffffffffffffffffffffffffffffffffffff1673ffffffffffffffffffffffffffffffffffffffff167fb8e091d87f82e56d22276c9a0088ea5d6068e355383dc08b2721b7b6cb10e8458260405161075b91906112c8565b60405180910390a25b50508080600101915050610419565b505f806107809190610df1565b565b60055434146107c6576040517f08c379a00000000000000000000000000000000000000000000000000000000081526004016107bd9061179e565b60405180910390fd5b5f60405180606001604052808481526020018381526020013373ffffffffffffffffffffffffffffffffffffffff16815250908060018154018082558091505060019003905f5260205f2090600402015f909190919091505f820151815f01906004610833929190610d0e565b5060208201518160010190600261084b929190610da5565b506040820151816003015f6101000a81548173ffffffffffffffffffffffffffffffffffffffff021916908373ffffffffffffffffffffffffffffffffffffffff16021790555050503373ffffffffffffffffffffffffffffffffffffffff167f94243a7065b4400927d1b5240ca7db2a443565e4bddef8e585541ea25b644ed683836040516108dc92919061169c565b60405180910390a25050565b60045f9054906101000a900473ffffffffffffffffffffffffffffffffffffffff1681565b5f818154811061091b575f80fd5b905f5260205f2090600402015f91509050806003015f9054906101000a900473ffffffffffffffffffffffffffffffffffffffff16905081565b61095d610e12565b610965610e34565b5f805f858154811061097a576109796116ca565b5b905f5260205f2090600402019050805f0181600101826003015f9054906101000a900473ffffffffffffffffffffffffffffffffffffffff1682600480602002604051908101604052809291908260048015610a0f576020028201915f905b82829054906101000a900460ff1660ff16815260200190600101906020825f010492830192600103820291508084116109d95790505b5050505050925081600280602002604051908101604052809291905f905b82821015610ace578382018054610a4390611724565b80601f0160208091040260200160405190810160405280929190818152602001828054610a6f90611724565b8015610aba5780601f10610a9157610100808354040283529160200191610aba565b820191905f5260205f20905b815481529060010190602001808311610a9d57829003601f168201915b505050505081526020019060010190610a2d565b505050509150935093509350509193909250565b60028160028110610af1575f80fd5b015f915090508054610b0290611724565b80601f0160208091040260200160405190810160405280929190818152602001828054610b2e90611724565b8015610b795780601f10610b5057610100808354040283529160200191610b79565b820191905f5260205f20905b815481529060010190602001808311610b5c57829003601f168201915b505050505081565b5f8080549050905090565b5f805f90505f5b60048160ff161015610c31575f5b60048160ff161015610c235760018160ff1660048110610bc457610bc36116ca565b5b602091828204019190069054906101000a900460ff1660ff16855f01518360ff1660048110610bf657610bf56116ca565b5b602002015160ff1603610c16578280610c0e906117e9565b935050610c23565b8080600101915050610ba1565b508080600101915050610b93565b505f5b60028160ff161015610d04575f5b60028160ff161015610cf65760028160ff1660028110610c6557610c646116ca565b5b01604051602001610c7691906118ad565b6040516020818303038152906040528051906020012085602001518360ff1660028110610ca657610ca56116ca565b5b6020020151604051602001610cbb91906118f3565b6040516020818303038152906040528051906020012003610ce9578280610ce1906117e9565b935050610cf6565b8080600101915050610c42565b508080600101915050610c34565b5080915050919050565b826004601f01602090048101928215610d94579160200282015f5b83821115610d6657835183826101000a81548160ff021916908360ff16021790555092602001926001016020815f01049283019260010302610d29565b8015610d925782816101000a81549060ff02191690556001016020815f01049283019260010302610d66565b505b509050610da19190610e5b565b5090565b8260028101928215610de0579160200282015b82811115610ddf578251829081610dcf9190611a94565b5091602001919060010190610db8565b5b509050610ded9190610e76565b5090565b5080545f8255600402905f5260205f2090810190610e0f9190610e99565b50565b6040518060800160405280600490602082028036833780820191505090505090565b60405180604001604052806002905b6060815260200190600190039081610e435790505090565b5b80821115610e72575f815f905550600101610e5c565b5090565b5b80821115610e95575f8181610e8c9190610ef3565b50600101610e77565b5090565b5b80821115610eef575f8082015f610eb19190610f30565b600182015f610ec09190610f36565b600382015f6101000a81549073ffffffffffffffffffffffffffffffffffffffff021916905550600401610e9a565b5090565b508054610eff90611724565b5f825580601f10610f105750610f2d565b601f0160209004905f5260205f2090810190610f2c9190610e5b565b5b50565b505f9055565b505f8181610f449190610ef3565b506001015f610f539190610ef3565b565b5f604051905090565b5f80fd5b5f80fd5b5f80fd5b5f601f19601f8301169050919050565b7f4e487b71000000000000000000000000000000000000000000000000000000005f52604160045260245ffd5b610fb082610f6a565b810181811067ffffffffffffffff82111715610fcf57610fce610f7a565b5b80604052505050565b5f610fe1610f55565b9050610fed8282610fa7565b919050565b5f67ffffffffffffffff82111561100c5761100b610f7a565b5b602082029050919050565b5f80fd5b5f60ff82169050919050565b6110308161101b565b811461103a575f80fd5b50565b5f8135905061104b81611027565b92915050565b5f61106361105e84610ff2565b610fd8565b9050806020840283018581111561107d5761107c611017565b5b835b818110156110a65780611092888261103d565b84526020840193505060208101905061107f565b5050509392505050565b5f82601f8301126110c4576110c3610f66565b5b60046110d1848285611051565b91505092915050565b5f67ffffffffffffffff8211156110f4576110f3610f7a565b5b602082029050919050565b5f80fd5b5f67ffffffffffffffff82111561111d5761111c610f7a565b5b61112682610f6a565b9050602081019050919050565b828183375f83830152505050565b5f61115361114e84611103565b610fd8565b90508281526020810184848401111561116f5761116e6110ff565b5b61117a848285611133565b509392505050565b5f82601f83011261119657611195610f66565b5b81356111a6848260208601611141565b91505092915050565b5f6111c16111bc846110da565b610fd8565b905080602084028301858111156111db576111da611017565b5b835b8181101561122257803567ffffffffffffffff811115611200576111ff610f66565b5b80860161120d8982611182565b855260208501945050506020810190506111dd565b5050509392505050565b5f82601f8301126112405761123f610f66565b5b600261124d8482856111af565b91505092915050565b5f8060a0838503121561126c5761126b610f5e565b5b5f611279858286016110b0565b925050608083013567ffffffffffffffff81111561129a57611299610f62565b5b6112a68582860161122c565b9150509250929050565b5f819050919050565b6112c2816112b0565b82525050565b5f6020820190506112db5f8301846112b9565b92915050565b6112ea816112b0565b81146112f4575f80fd5b50565b5f81359050611305816112e1565b92915050565b5f602082840312156113205761131f610f5e565b5b5f61132d848285016112f7565b91505092915050565b61133f8161101b565b82525050565b5f6020820190506113585f830184611336565b92915050565b5f73ffffffffffffffffffffffffffffffffffffffff82169050919050565b5f6113878261135e565b9050919050565b6113978161137d565b82525050565b5f6020820190506113b05f83018461138e565b92915050565b5f60049050919050565b5f81905092915050565b5f819050919050565b6113dc8161101b565b82525050565b5f6113ed83836113d3565b60208301905092915050565b5f602082019050919050565b61140e816113b6565b61141881846113c0565b9250611423826113ca565b805f5b8381101561145357815161143a87826113e2565b9650611445836113f9565b925050600181019050611426565b505050505050565b5f60029050919050565b5f81905092915050565b5f819050919050565b5f81519050919050565b5f82825260208201905092915050565b8281835e5f83830152505050565b5f6114aa82611478565b6114b48185611482565b93506114c4818560208601611492565b6114cd81610f6a565b840191505092915050565b5f6114e383836114a0565b905092915050565b5f602082019050919050565b5f6115018261145b565b61150b8185611465565b93508360208202850161151d8561146f565b805f5b85811015611558578484038952815161153985826114d8565b9450611544836114eb565b925060208a01995050600181019050611520565b50829750879550505050505092915050565b5f60c08201905061157d5f830186611405565b818103608083015261158f81856114f7565b905061159e60a083018461138e565b949350505050565b5f82825260208201905092915050565b5f6115c082611478565b6115ca81856115a6565b93506115da818560208601611492565b6115e381610f6a565b840191505092915050565b5f6020820190508181035f83015261160681846115b6565b905092915050565b7f4f6e6c79206f776e65722063616e2063616c6c20746869732066756e6374696f5f8201527f6e00000000000000000000000000000000000000000000000000000000000000602082015250565b5f6116686021836115a6565b91506116738261160e565b604082019050919050565b5f6020820190508181035f8301526116958161165c565b9050919050565b5f60a0820190506116af5f830185611405565b81810360808301526116c181846114f7565b90509392505050565b7f4e487b71000000000000000000000000000000000000000000000000000000005f52603260045260245ffd5b7f4e487b71000000000000000000000000000000000000000000000000000000005f52602260045260245ffd5b5f600282049050600182168061173b57607f821691505b60208210810361174e5761174d6116f7565b5b50919050565b7f496e636f7272656374207469636b6574207072696365000000000000000000005f82015250565b5f6117886016836115a6565b915061179382611754565b602082019050919050565b5f6020820190508181035f8301526117b58161177c565b9050919050565b7f4e487b71000000000000000000000000000000000000000000000000000000005f52601160045260245ffd5b5f6117f38261101b565b915060ff8203611806576118056117bc565b5b600182019050919050565b5f81905092915050565b5f819050815f5260205f209050919050565b5f815461183981611724565b6118438186611811565b9450600182165f811461185d5760018114611872576118a4565b60ff19831686528115158202860193506118a4565b61187b8561181b565b5f5b8381101561189c5781548189015260018201915060208101905061187d565b838801955050505b50505092915050565b5f6118b8828461182d565b915081905092915050565b5f6118cd82611478565b6118d78185611811565b93506118e7818560208601611492565b80840191505092915050565b5f6118fe82846118c3565b915081905092915050565b5f6020601f8301049050919050565b5f82821b905092915050565b5f600883026119537fffffffffffffffffffffffffffffffffffffffffffffffffffffffffffffffff82611918565b61195d8683611918565b95508019841693508086168417925050509392505050565b5f819050919050565b5f61199861199361198e846112b0565b611975565b6112b0565b9050919050565b5f819050919050565b6119b18361197e565b6119c56119bd8261199f565b848454611924565b825550505050565b5f90565b6119d96119cd565b6119e48184846119a8565b505050565b5b81811015611a07576119fc5f826119d1565b6001810190506119ea565b5050565b601f821115611a4c57611a1d8161181b565b611a2684611909565b81016020851015611a35578190505b611a49611a4185611909565b8301826119e9565b50505b505050565b5f82821c905092915050565b5f611a6c5f1984600802611a51565b1980831691505092915050565b5f611a848383611a5d565b9150826002028217905092915050565b611a9d82611478565b67ffffffffffffffff811115611ab657611ab5610f7a565b5b611ac08254611724565b611acb828285611a0b565b5f60209050601f831160018114611afc575f8415611aea578287015190505b611af48582611a79565b865550611b5b565b601f198416611b0a8661181b565b5f5b82811015611b3157848901518255600182019150602085019450602081019050611b0c565b86831015611b4e5784890151611b4a601f891682611a5d565b8355505b6001600288020188555050505b50505050505056fea26469706673582212200e852226a077ad49d683d217b3dd2499a03eada0312a4a5717c3aa03578942b164736f6c634300081a0033",
			"opcodes": "PUSH1 0x80 PUSH1 0x40 MSTORE PUSH7 0xB1A2BC2EC50000 PUSH1 0x5 SSTORE CALLVALUE DUP1 ISZERO PUSH1 0x19 JUMPI PUSH0 DUP1 REVERT JUMPDEST POP CALLER PUSH1 0x4 PUSH0 PUSH2 0x100 EXP DUP2 SLOAD DUP2 PUSH20 0xFFFFFFFFFFFFFFFFFFFFFFFFFFFFFFFFFFFFFFFF MUL NOT AND SWAP1 DUP4 PUSH20 0xFFFFFFFFFFFFFFFFFFFFFFFFFFFFFFFFFFFFFFFF AND MUL OR SWAP1 SSTORE POP PUSH2 0x1B99 DUP1 PUSH2 0x67 PUSH0 CODECOPY PUSH0 RETURN INVALID PUSH1 0x80 PUSH1 0x40 MSTORE PUSH1 0x4 CALLDATASIZE LT PUSH2 0x94 JUMPI PUSH0 CALLDATALOAD PUSH1 0xE0 SHR DUP1 PUSH4 0x8DA5CB5B GT PUSH2 0x58 JUMPI DUP1 PUSH4 0x8DA5CB5B EQ PUSH2 0x15F JUMPI DUP1 PUSH4 0xB30906D4 EQ PUSH2 0x189 JUMPI DUP1 PUSH4 0xBAE78D7B EQ PUSH2 0x1C5 JUMPI DUP1 PUSH4 0xC1099656 EQ PUSH2 0x203 JUMPI DUP1 PUSH4 0xD09685B0 EQ PUSH2 0x23F JUMPI PUSH2 0x9B JUMP JUMPDEST DUP1 PUSH4 0x10B6E482 EQ PUSH2 0x9F JUMPI DUP1 PUSH4 0x1209B1F6 EQ PUSH2 0xC7 JUMPI DUP1 PUSH4 0x4E45F095 EQ PUSH2 0xF1 JUMPI DUP1 PUSH4 0x7CE52EB6 EQ PUSH2 0x12D JUMPI DUP1 PUSH4 0x8BAAE14C EQ PUSH2 0x143 JUMPI PUSH2 0x9B JUMP JUMPDEST CALLDATASIZE PUSH2 0x9B JUMPI STOP JUMPDEST PUSH0 DUP1 REVERT JUMPDEST CALLVALUE DUP1 ISZERO PUSH2 0xAA JUMPI PUSH0 DUP1 REVERT JUMPDEST POP PUSH2 0xC5 PUSH1 0x4 DUP1 CALLDATASIZE SUB DUP2 ADD SWAP1 PUSH2 0xC0 SWAP2 SWAP1 PUSH2 0x1256 JUMP JUMPDEST PUSH2 0x269 JUMP JUMPDEST STOP JUMPDEST CALLVALUE DUP1 ISZERO PUSH2 0xD2 JUMPI PUSH0 DUP1 REVERT JUMPDEST POP PUSH2 0xDB PUSH2 0x359 JUMP JUMPDEST PUSH1 0x40 MLOAD PUSH2 0xE8 SWAP2 SWAP1 PUSH2 0x12C8 JUMP JUMPDEST PUSH1 0x40 MLOAD DUP1 SWAP2 SUB SWAP1 RETURN JUMPDEST CALLVALUE DUP1 ISZERO PUSH2 0xFC JUMPI PUSH0 DUP1 REVERT JUMPDEST POP PUSH2 0x117 PUSH1 0x4 DUP1 CALLDATASIZE SUB DUP2 ADD SWAP1 PUSH2 0x112 SWAP2 SWAP1 PUSH2 0x130B JUMP JUMPDEST PUSH2 0x35F JUMP JUMPDEST PUSH1 0x40 MLOAD PUSH2 0x124 SWAP2 SWAP1 PUSH2 0x1345 JUMP JUMPDEST PUSH1 0x40 MLOAD DUP1 SWAP2 SUB SWAP1 RETURN JUMPDEST CALLVALUE DUP1 ISZERO PUSH2 0x138 JUMPI PUSH0 DUP1 REVERT JUMPDEST POP PUSH2 0x141 PUSH2 0x388 JUMP JUMPDEST STOP JUMPDEST PUSH2 0x15D PUSH1 0x4 DUP1 CALLDATASIZE SUB DUP2 ADD SWAP1 PUSH2 0x158 SWAP2 SWAP1 PUSH2 0x1256 JUMP JUMPDEST PUSH2 0x782 JUMP JUMPDEST STOP JUMPDEST CALLVALUE DUP1 ISZERO PUSH2 0x16A JUMPI PUSH0 DUP1 REVERT JUMPDEST POP PUSH2 0x173 PUSH2 0x8E8 JUMP JUMPDEST PUSH1 0x40 MLOAD PUSH2 0x180 SWAP2 SWAP1 PUSH2 0x139D JUMP JUMPDEST PUSH1 0x40 MLOAD DUP1 SWAP2 SUB SWAP1 RETURN JUMPDEST CALLVALUE DUP1 ISZERO PUSH2 0x194 JUMPI PUSH0 DUP1 REVERT JUMPDEST POP PUSH2 0x1AF PUSH1 0x4 DUP1 CALLDATASIZE SUB DUP2 ADD SWAP1 PUSH2 0x1AA SWAP2 SWAP1 PUSH2 0x130B JUMP JUMPDEST PUSH2 0x90D JUMP JUMPDEST PUSH1 0x40 MLOAD PUSH2 0x1BC SWAP2 SWAP1 PUSH2 0x139D JUMP JUMPDEST PUSH1 0x40 MLOAD DUP1 SWAP2 SUB SWAP1 RETURN JUMPDEST CALLVALUE DUP1 ISZERO PUSH2 0x1D0 JUMPI PUSH0 DUP1 REVERT JUMPDEST POP PUSH2 0x1EB PUSH1 0x4 DUP1 CALLDATASIZE SUB DUP2 ADD SWAP1 PUSH2 0x1E6 SWAP2 SWAP1 PUSH2 0x130B JUMP JUMPDEST PUSH2 0x955 JUMP JUMPDEST PUSH1 0x40 MLOAD PUSH2 0x1FA SWAP4 SWAP3 SWAP2 SWAP1 PUSH2 0x156A JUMP JUMPDEST PUSH1 0x40 MLOAD DUP1 SWAP2 SUB SWAP1 RETURN JUMPDEST CALLVALUE DUP1 ISZERO PUSH2 0x20E JUMPI PUSH0 DUP1 REVERT JUMPDEST POP PUSH2 0x229 PUSH1 0x4 DUP1 CALLDATASIZE SUB DUP2 ADD SWAP1 PUSH2 0x224 SWAP2 SWAP1 PUSH2 0x130B JUMP JUMPDEST PUSH2 0xAE2 JUMP JUMPDEST PUSH1 0x40 MLOAD PUSH2 0x236 SWAP2 SWAP1 PUSH2 0x15EE JUMP JUMPDEST PUSH1 0x40 MLOAD DUP1 SWAP2 SUB SWAP1 RETURN JUMPDEST CALLVALUE DUP1 ISZERO PUSH2 0x24A JUMPI PUSH0 DUP1 REVERT JUMPDEST POP PUSH2 0x253 PUSH2 0xB81 JUMP JUMPDEST PUSH1 0x40 MLOAD PUSH2 0x260 SWAP2 SWAP1 PUSH2 0x12C8 JUMP JUMPDEST PUSH1 0x40 MLOAD DUP1 SWAP2 SUB SWAP1 RETURN JUMPDEST PUSH1 0x4 PUSH0 SWAP1 SLOAD SWAP1 PUSH2 0x100 EXP SWAP1 DIV PUSH20 0xFFFFFFFFFFFFFFFFFFFFFFFFFFFFFFFFFFFFFFFF AND PUSH20 0xFFFFFFFFFFFFFFFFFFFFFFFFFFFFFFFFFFFFFFFF AND CALLER PUSH20 0xFFFFFFFFFFFFFFFFFFFFFFFFFFFFFFFFFFFFFFFF AND EQ PUSH2 0x2F8 JUMPI PUSH1 0x40 MLOAD PUSH32 0x8C379A000000000000000000000000000000000000000000000000000000000 DUP2 MSTORE PUSH1 0x4 ADD PUSH2 0x2EF SWAP1 PUSH2 0x167E JUMP JUMPDEST PUSH1 0x40 MLOAD DUP1 SWAP2 SUB SWAP1 REVERT JUMPDEST DUP2 PUSH1 0x1 SWAP1 PUSH1 0x4 PUSH2 0x309 SWAP3 SWAP2 SWAP1 PUSH2 0xD0E JUMP JUMPDEST POP DUP1 PUSH1 0x2 SWAP1 PUSH1 0x2 PUSH2 0x31B SWAP3 SWAP2 SWAP1 PUSH2 0xDA5 JUMP JUMPDEST POP PUSH32 0x36EAF57B62A30FCE504114C11BF31C26F49BB0842743F4E796177F4BB6BB8FB DUP3 DUP3 PUSH1 0x40 MLOAD PUSH2 0x34D SWAP3 SWAP2 SWAP1 PUSH2 0x169C JUMP JUMPDEST PUSH1 0x40 MLOAD DUP1 SWAP2 SUB SWAP1 LOG1 POP POP JUMP JUMPDEST PUSH1 0x5 SLOAD DUP2 JUMP JUMPDEST PUSH1 0x1 DUP2 PUSH1 0x4 DUP2 LT PUSH2 0x36E JUMPI PUSH0 DUP1 REVERT JUMPDEST PUSH1 0x20 SWAP2 DUP3 DUP3 DIV ADD SWAP2 SWAP1 MOD SWAP2 POP SLOAD SWAP1 PUSH2 0x100 EXP SWAP1 DIV PUSH1 0xFF AND DUP2 JUMP JUMPDEST PUSH1 0x4 PUSH0 SWAP1 SLOAD SWAP1 PUSH2 0x100 EXP SWAP1 DIV PUSH20 0xFFFFFFFFFFFFFFFFFFFFFFFFFFFFFFFFFFFFFFFF AND PUSH20 0xFFFFFFFFFFFFFFFFFFFFFFFFFFFFFFFFFFFFFFFF AND CALLER PUSH20 0xFFFFFFFFFFFFFFFFFFFFFFFFFFFFFFFFFFFFFFFF AND EQ PUSH2 0x417 JUMPI PUSH1 0x40 MLOAD PUSH32 0x8C379A000000000000000000000000000000000000000000000000000000000 DUP2 MSTORE PUSH1 0x4 ADD PUSH2 0x40E SWAP1 PUSH2 0x167E JUMP JUMPDEST PUSH1 0x40 MLOAD DUP1 SWAP2 SUB SWAP1 REVERT JUMPDEST PUSH0 JUMPDEST PUSH0 DUP1 SLOAD SWAP1 POP DUP2 LT ISZERO PUSH2 0x773 JUMPI PUSH0 PUSH2 0x5D9 PUSH0 DUP4 DUP2 SLOAD DUP2 LT PUSH2 0x43C JUMPI PUSH2 0x43B PUSH2 0x16CA JUMP JUMPDEST JUMPDEST SWAP1 PUSH0 MSTORE PUSH1 0x20 PUSH0 KECCAK256 SWAP1 PUSH1 0x4 MUL ADD PUSH1 0x40 MLOAD DUP1 PUSH1 0x60 ADD PUSH1 0x40 MSTORE SWAP1 DUP2 PUSH0 DUP3 ADD PUSH1 0x4 DUP1 PUSH1 0x20 MUL PUSH1 0x40 MLOAD SWAP1 DUP2 ADD PUSH1 0x40 MSTORE DUP1 SWAP3 SWAP2 SWAP1 DUP3 PUSH1 0x4 DUP1 ISZERO PUSH2 0x4B2 JUMPI PUSH1 0x20 MUL DUP3 ADD SWAP2 PUSH0 SWAP1 JUMPDEST DUP3 DUP3 SWAP1 SLOAD SWAP1 PUSH2 0x100 EXP SWAP1 DIV PUSH1 0xFF AND PUSH1 0xFF AND DUP2 MSTORE PUSH1 0x20 ADD SWAP1 PUSH1 0x1 ADD SWAP1 PUSH1 0x20 DUP3 PUSH0 ADD DIV SWAP3 DUP4 ADD SWAP3 PUSH1 0x1 SUB DUP3 MUL SWAP2 POP DUP1 DUP5 GT PUSH2 0x47C JUMPI SWAP1 POP JUMPDEST POP POP POP POP POP DUP2 MSTORE PUSH1 0x20 ADD PUSH1 0x1 DUP3 ADD PUSH1 0x2 DUP1 PUSH1 0x20 MUL PUSH1 0x40 MLOAD SWAP1 DUP2 ADD PUSH1 0x40 MSTORE DUP1 SWAP3 SWAP2 SWAP1 PUSH0 SWAP1 JUMPDEST DUP3 DUP3 LT ISZERO PUSH2 0x577 JUMPI DUP4 DUP3 ADD DUP1 SLOAD PUSH2 0x4EC SWAP1 PUSH2 0x1724 JUMP JUMPDEST DUP1 PUSH1 0x1F ADD PUSH1 0x20 DUP1 SWAP2 DIV MUL PUSH1 0x20 ADD PUSH1 0x40 MLOAD SWAP1 DUP2 ADD PUSH1 0x40 MSTORE DUP1 SWAP3 SWAP2 SWAP1 DUP2 DUP2 MSTORE PUSH1 0x20 ADD DUP3 DUP1 SLOAD PUSH2 0x518 SWAP1 PUSH2 0x1724 JUMP JUMPDEST DUP1 ISZERO PUSH2 0x563 JUMPI DUP1 PUSH1 0x1F LT PUSH2 0x53A JUMPI PUSH2 0x100 DUP1 DUP4 SLOAD DIV MUL DUP4 MSTORE SWAP2 PUSH1 0x20 ADD SWAP2 PUSH2 0x563 JUMP JUMPDEST DUP3 ADD SWAP2 SWAP1 PUSH0 MSTORE PUSH1 0x20 PUSH0 KECCAK256 SWAP1 JUMPDEST DUP2 SLOAD DUP2 MSTORE SWAP1 PUSH1 0x1 ADD SWAP1 PUSH1 0x20 ADD DUP1 DUP4 GT PUSH2 0x546 JUMPI DUP3 SWAP1 SUB PUSH1 0x1F AND DUP3 ADD SWAP2 JUMPDEST POP POP POP POP POP DUP2 MSTORE PUSH1 0x20 ADD SWAP1 PUSH1 0x1 ADD SWAP1 PUSH2 0x4D6 JUMP JUMPDEST POP POP POP POP DUP2 MSTORE PUSH1 0x20 ADD PUSH1 0x3 DUP3 ADD PUSH0 SWAP1 SLOAD SWAP1 PUSH2 0x100 EXP SWAP1 DIV PUSH20 0xFFFFFFFFFFFFFFFFFFFFFFFFFFFFFFFFFFFFFFFF AND PUSH20 0xFFFFFFFFFFFFFFFFFFFFFFFFFFFFFFFFFFFFFFFF AND PUSH20 0xFFFFFFFFFFFFFFFFFFFFFFFFFFFFFFFFFFFFFFFF AND DUP2 MSTORE POP POP PUSH2 0xB8C JUMP JUMPDEST SWAP1 POP PUSH0 PUSH1 0x6 DUP3 PUSH1 0xFF AND SUB PUSH2 0x5F7 JUMPI PUSH8 0xDE0B6B3A7640000 SWAP1 POP PUSH2 0x647 JUMP JUMPDEST PUSH1 0x5 DUP3 PUSH1 0xFF AND SUB PUSH2 0x612 JUMPI PUSH8 0xA688906BD8B0000 SWAP1 POP PUSH2 0x646 JUMP JUMPDEST PUSH1 0x4 DUP3 PUSH1 0xFF AND SUB PUSH2 0x62D JUMPI PUSH8 0x3782DACE9D90000 SWAP1 POP PUSH2 0x645 JUMP JUMPDEST PUSH1 0x3 DUP3 PUSH1 0xFF AND SUB PUSH2 0x644 JUMPI PUSH8 0x16345785D8A0000 SWAP1 POP JUMPDEST JUMPDEST JUMPDEST JUMPDEST PUSH0 DUP2 GT ISZERO PUSH2 0x764 JUMPI PUSH0 DUP4 DUP2 SLOAD DUP2 LT PUSH2 0x662 JUMPI PUSH2 0x661 PUSH2 0x16CA JUMP JUMPDEST JUMPDEST SWAP1 PUSH0 MSTORE PUSH1 0x20 PUSH0 KECCAK256 SWAP1 PUSH1 0x4 MUL ADD PUSH1 0x3 ADD PUSH0 SWAP1 SLOAD SWAP1 PUSH2 0x100 EXP SWAP1 DIV PUSH20 0xFFFFFFFFFFFFFFFFFFFFFFFFFFFFFFFFFFFFFFFF AND PUSH20 0xFFFFFFFFFFFFFFFFFFFFFFFFFFFFFFFFFFFFFFFF AND PUSH2 0x8FC DUP3 SWAP1 DUP2 ISZERO MUL SWAP1 PUSH1 0x40 MLOAD PUSH0 PUSH1 0x40 MLOAD DUP1 DUP4 SUB DUP2 DUP6 DUP9 DUP9 CALL SWAP4 POP POP POP POP ISZERO DUP1 ISZERO PUSH2 0x6D3 JUMPI RETURNDATASIZE PUSH0 DUP1 RETURNDATACOPY RETURNDATASIZE PUSH0 REVERT JUMPDEST POP PUSH0 DUP4 DUP2 SLOAD DUP2 LT PUSH2 0x6E7 JUMPI PUSH2 0x6E6 PUSH2 0x16CA JUMP JUMPDEST JUMPDEST SWAP1 PUSH0 MSTORE PUSH1 0x20 PUSH0 KECCAK256 SWAP1 PUSH1 0x4 MUL ADD PUSH1 0x3 ADD PUSH0 SWAP1 SLOAD SWAP1 PUSH2 0x100 EXP SWAP1 DIV PUSH20 0xFFFFFFFFFFFFFFFFFFFFFFFFFFFFFFFFFFFFFFFF AND PUSH20 0xFFFFFFFFFFFFFFFFFFFFFFFFFFFFFFFFFFFFFFFF AND PUSH32 0xB8E091D87F82E56D22276C9A0088EA5D6068E355383DC08B2721B7B6CB10E845 DUP3 PUSH1 0x40 MLOAD PUSH2 0x75B SWAP2 SWAP1 PUSH2 0x12C8 JUMP JUMPDEST PUSH1 0x40 MLOAD DUP1 SWAP2 SUB SWAP1 LOG2 JUMPDEST POP POP DUP1 DUP1 PUSH1 0x1 ADD SWAP2 POP POP PUSH2 0x419 JUMP JUMPDEST POP PUSH0 DUP1 PUSH2 0x780 SWAP2 SWAP1 PUSH2 0xDF1 JUMP JUMPDEST JUMP JUMPDEST PUSH1 0x5 SLOAD CALLVALUE EQ PUSH2 0x7C6 JUMPI PUSH1 0x40 MLOAD PUSH32 0x8C379A000000000000000000000000000000000000000000000000000000000 DUP2 MSTORE PUSH1 0x4 ADD PUSH2 0x7BD SWAP1 PUSH2 0x179E JUMP JUMPDEST PUSH1 0x40 MLOAD DUP1 SWAP2 SUB SWAP1 REVERT JUMPDEST PUSH0 PUSH1 0x40 MLOAD DUP1 PUSH1 0x60 ADD PUSH1 0x40 MSTORE DUP1 DUP5 DUP2 MSTORE PUSH1 0x20 ADD DUP4 DUP2 MSTORE PUSH1 0x20 ADD CALLER PUSH20 0xFFFFFFFFFFFFFFFFFFFFFFFFFFFFFFFFFFFFFFFF AND DUP2 MSTORE POP SWAP1 DUP1 PUSH1 0x1 DUP2 SLOAD ADD DUP1 DUP3 SSTORE DUP1 SWAP2 POP POP PUSH1 0x1 SWAP1 SUB SWAP1 PUSH0 MSTORE PUSH1 0x20 PUSH0 KECCAK256 SWAP1 PUSH1 0x4 MUL ADD PUSH0 SWAP1 SWAP2 SWAP1 SWAP2 SWAP1 SWAP2 POP PUSH0 DUP3 ADD MLOAD DUP2 PUSH0 ADD SWAP1 PUSH1 0x4 PUSH2 0x833 SWAP3 SWAP2 SWAP1 PUSH2 0xD0E JUMP JUMPDEST POP PUSH1 0x20 DUP3 ADD MLOAD DUP2 PUSH1 0x1 ADD SWAP1 PUSH1 0x2 PUSH2 0x84B SWAP3 SWAP2 SWAP1 PUSH2 0xDA5 JUMP JUMPDEST POP PUSH1 0x40 DUP3 ADD MLOAD DUP2 PUSH1 0x3 ADD PUSH0 PUSH2 0x100 EXP DUP2 SLOAD DUP2 PUSH20 0xFFFFFFFFFFFFFFFFFFFFFFFFFFFFFFFFFFFFFFFF MUL NOT AND SWAP1 DUP4 PUSH20 0xFFFFFFFFFFFFFFFFFFFFFFFFFFFFFFFFFFFFFFFF AND MUL OR SWAP1 SSTORE POP POP POP CALLER PUSH20 0xFFFFFFFFFFFFFFFFFFFFFFFFFFFFFFFFFFFFFFFF AND PUSH32 0x94243A7065B4400927D1B5240CA7DB2A443565E4BDDEF8E585541EA25B644ED6 DUP4 DUP4 PUSH1 0x40 MLOAD PUSH2 0x8DC SWAP3 SWAP2 SWAP1 PUSH2 0x169C JUMP JUMPDEST PUSH1 0x40 MLOAD DUP1 SWAP2 SUB SWAP1 LOG2 POP POP JUMP JUMPDEST PUSH1 0x4 PUSH0 SWAP1 SLOAD SWAP1 PUSH2 0x100 EXP SWAP1 DIV PUSH20 0xFFFFFFFFFFFFFFFFFFFFFFFFFFFFFFFFFFFFFFFF AND DUP2 JUMP JUMPDEST PUSH0 DUP2 DUP2 SLOAD DUP2 LT PUSH2 0x91B JUMPI PUSH0 DUP1 REVERT JUMPDEST SWAP1 PUSH0 MSTORE PUSH1 0x20 PUSH0 KECCAK256 SWAP1 PUSH1 0x4 MUL ADD PUSH0 SWAP2 POP SWAP1 POP DUP1 PUSH1 0x3 ADD PUSH0 SWAP1 SLOAD SWAP1 PUSH2 0x100 EXP SWAP1 DIV PUSH20 0xFFFFFFFFFFFFFFFFFFFFFFFFFFFFFFFFFFFFFFFF AND SWAP1 POP DUP2 JUMP JUMPDEST PUSH2 0x95D PUSH2 0xE12 JUMP JUMPDEST PUSH2 0x965 PUSH2 0xE34 JUMP JUMPDEST PUSH0 DUP1 PUSH0 DUP6 DUP2 SLOAD DUP2 LT PUSH2 0x97A JUMPI PUSH2 0x979 PUSH2 0x16CA JUMP JUMPDEST JUMPDEST SWAP1 PUSH0 MSTORE PUSH1 0x20 PUSH0 KECCAK256 SWAP1 PUSH1 0x4 MUL ADD SWAP1 POP DUP1 PUSH0 ADD DUP2 PUSH1 0x1 ADD DUP3 PUSH1 0x3 ADD PUSH0 SWAP1 SLOAD SWAP1 PUSH2 0x100 EXP SWAP1 DIV PUSH20 0xFFFFFFFFFFFFFFFFFFFFFFFFFFFFFFFFFFFFFFFF AND DUP3 PUSH1 0x4 DUP1 PUSH1 0x20 MUL PUSH1 0x40 MLOAD SWAP1 DUP2 ADD PUSH1 0x40 MSTORE DUP1 SWAP3 SWAP2 SWAP1 DUP3 PUSH1 0x4 DUP1 ISZERO PUSH2 0xA0F JUMPI PUSH1 0x20 MUL DUP3 ADD SWAP2 PUSH0 SWAP1 JUMPDEST DUP3 DUP3 SWAP1 SLOAD SWAP1 PUSH2 0x100 EXP SWAP1 DIV PUSH1 0xFF AND PUSH1 0xFF AND DUP2 MSTORE PUSH1 0x20 ADD SWAP1 PUSH1 0x1 ADD SWAP1 PUSH1 0x20 DUP3 PUSH0 ADD DIV SWAP3 DUP4 ADD SWAP3 PUSH1 0x1 SUB DUP3 MUL SWAP2 POP DUP1 DUP5 GT PUSH2 0x9D9 JUMPI SWAP1 POP JUMPDEST POP POP POP POP POP SWAP3 POP DUP2 PUSH1 0x2 DUP1 PUSH1 0x20 MUL PUSH1 0x40 MLOAD SWAP1 DUP2 ADD PUSH1 0x40 MSTORE DUP1 SWAP3 SWAP2 SWAP1 PUSH0 SWAP1 JUMPDEST DUP3 DUP3 LT ISZERO PUSH2 0xACE JUMPI DUP4 DUP3 ADD DUP1 SLOAD PUSH2 0xA43 SWAP1 PUSH2 0x1724 JUMP JUMPDEST DUP1 PUSH1 0x1F ADD PUSH1 0x20 DUP1 SWAP2 DIV MUL PUSH1 0x20 ADD PUSH1 0x40 MLOAD SWAP1 DUP2 ADD PUSH1 0x40 MSTORE DUP1 SWAP3 SWAP2 SWAP1 DUP2 DUP2 MSTORE PUSH1 0x20 ADD DUP3 DUP1 SLOAD PUSH2 0xA6F SWAP1 PUSH2 0x1724 JUMP JUMPDEST DUP1 ISZERO PUSH2 0xABA JUMPI DUP1 PUSH1 0x1F LT PUSH2 0xA91 JUMPI PUSH2 0x100 DUP1 DUP4 SLOAD DIV MUL DUP4 MSTORE SWAP2 PUSH1 0x20 ADD SWAP2 PUSH2 0xABA JUMP JUMPDEST DUP3 ADD SWAP2 SWAP1 PUSH0 MSTORE PUSH1 0x20 PUSH0 KECCAK256 SWAP1 JUMPDEST DUP2 SLOAD DUP2 MSTORE SWAP1 PUSH1 0x1 ADD SWAP1 PUSH1 0x20 ADD DUP1 DUP4 GT PUSH2 0xA9D JUMPI DUP3 SWAP1 SUB PUSH1 0x1F AND DUP3 ADD SWAP2 JUMPDEST POP POP POP POP POP DUP2 MSTORE PUSH1 0x20 ADD SWAP1 PUSH1 0x1 ADD SWAP1 PUSH2 0xA2D JUMP JUMPDEST POP POP POP POP SWAP2 POP SWAP4 POP SWAP4 POP SWAP4 POP POP SWAP2 SWAP4 SWAP1 SWAP3 POP JUMP JUMPDEST PUSH1 0x2 DUP2 PUSH1 0x2 DUP2 LT PUSH2 0xAF1 JUMPI PUSH0 DUP1 REVERT JUMPDEST ADD PUSH0 SWAP2 POP SWAP1 POP DUP1 SLOAD PUSH2 0xB02 SWAP1 PUSH2 0x1724 JUMP JUMPDEST DUP1 PUSH1 0x1F ADD PUSH1 0x20 DUP1 SWAP2 DIV MUL PUSH1 0x20 ADD PUSH1 0x40 MLOAD SWAP1 DUP2 ADD PUSH1 0x40 MSTORE DUP1 SWAP3 SWAP2 SWAP1 DUP2 DUP2 MSTORE PUSH1 0x20 ADD DUP3 DUP1 SLOAD PUSH2 0xB2E SWAP1 PUSH2 0x1724 JUMP JUMPDEST DUP1 ISZERO PUSH2 0xB79 JUMPI DUP1 PUSH1 0x1F LT PUSH2 0xB50 JUMPI PUSH2 0x100 DUP1 DUP4 SLOAD DIV MUL DUP4 MSTORE SWAP2 PUSH1 0x20 ADD SWAP2 PUSH2 0xB79 JUMP JUMPDEST DUP3 ADD SWAP2 SWAP1 PUSH0 MSTORE PUSH1 0x20 PUSH0 KECCAK256 SWAP1 JUMPDEST DUP2 SLOAD DUP2 MSTORE SWAP1 PUSH1 0x1 ADD SWAP1 PUSH1 0x20 ADD DUP1 DUP4 GT PUSH2 0xB5C JUMPI DUP3 SWAP1 SUB PUSH1 0x1F AND DUP3 ADD SWAP2 JUMPDEST POP POP POP POP POP DUP2 JUMP JUMPDEST PUSH0 DUP1 DUP1 SLOAD SWAP1 POP SWAP1 POP SWAP1 JUMP JUMPDEST PUSH0 DUP1 PUSH0 SWAP1 POP PUSH0 JUMPDEST PUSH1 0x4 DUP2 PUSH1 0xFF AND LT ISZERO PUSH2 0xC31 JUMPI PUSH0 JUMPDEST PUSH1 0x4 DUP2 PUSH1 0xFF AND LT ISZERO PUSH2 0xC23 JUMPI PUSH1 0x1 DUP2 PUSH1 0xFF AND PUSH1 0x4 DUP2 LT PUSH2 0xBC4 JUMPI PUSH2 0xBC3 PUSH2 0x16CA JUMP JUMPDEST JUMPDEST PUSH1 0x20 SWAP2 DUP3 DUP3 DIV ADD SWAP2 SWAP1 MOD SWAP1 SLOAD SWAP1 PUSH2 0x100 EXP SWAP1 DIV PUSH1 0xFF AND PUSH1 0xFF AND DUP6 PUSH0 ADD MLOAD DUP4 PUSH1 0xFF AND PUSH1 0x4 DUP2 LT PUSH2 0xBF6 JUMPI PUSH2 0xBF5 PUSH2 0x16CA JUMP JUMPDEST JUMPDEST PUSH1 0x20 MUL ADD MLOAD PUSH1 0xFF AND SUB PUSH2 0xC16 JUMPI DUP3 DUP1 PUSH2 0xC0E SWAP1 PUSH2 0x17E9 JUMP JUMPDEST SWAP4 POP POP PUSH2 0xC23 JUMP JUMPDEST DUP1 DUP1 PUSH1 0x1 ADD SWAP2 POP POP PUSH2 0xBA1 JUMP JUMPDEST POP DUP1 DUP1 PUSH1 0x1 ADD SWAP2 POP POP PUSH2 0xB93 JUMP JUMPDEST POP PUSH0 JUMPDEST PUSH1 0x2 DUP2 PUSH1 0xFF AND LT ISZERO PUSH2 0xD04 JUMPI PUSH0 JUMPDEST PUSH1 0x2 DUP2 PUSH1 0xFF AND LT ISZERO PUSH2 0xCF6 JUMPI PUSH1 0x2 DUP2 PUSH1 0xFF AND PUSH1 0x2 DUP2 LT PUSH2 0xC65 JUMPI PUSH2 0xC64 PUSH2 0x16CA JUMP JUMPDEST JUMPDEST ADD PUSH1 0x40 MLOAD PUSH1 0x20 ADD PUSH2 0xC76 SWAP2 SWAP1 PUSH2 0x18AD JUMP JUMPDEST PUSH1 0x40 MLOAD PUSH1 0x20 DUP2 DUP4 SUB SUB DUP2 MSTORE SWAP1 PUSH1 0x40 MSTORE DUP1 MLOAD SWAP1 PUSH1 0x20 ADD KECCAK256 DUP6 PUSH1 0x20 ADD MLOAD DUP4 PUSH1 0xFF AND PUSH1 0x2 DUP2 LT PUSH2 0xCA6 JUMPI PUSH2 0xCA5 PUSH2 0x16CA JUMP JUMPDEST JUMPDEST PUSH1 0x20 MUL ADD MLOAD PUSH1 0x40 MLOAD PUSH1 0x20 ADD PUSH2 0xCBB SWAP2 SWAP1 PUSH2 0x18F3 JUMP JUMPDEST PUSH1 0x40 MLOAD PUSH1 0x20 DUP2 DUP4 SUB SUB DUP2 MSTORE SWAP1 PUSH1 0x40 MSTORE DUP1 MLOAD SWAP1 PUSH1 0x20 ADD KECCAK256 SUB PUSH2 0xCE9 JUMPI DUP3 DUP1 PUSH2 0xCE1 SWAP1 PUSH2 0x17E9 JUMP JUMPDEST SWAP4 POP POP PUSH2 0xCF6 JUMP JUMPDEST DUP1 DUP1 PUSH1 0x1 ADD SWAP2 POP POP PUSH2 0xC42 JUMP JUMPDEST POP DUP1 DUP1 PUSH1 0x1 ADD SWAP2 POP POP PUSH2 0xC34 JUMP JUMPDEST POP DUP1 SWAP2 POP POP SWAP2 SWAP1 POP JUMP JUMPDEST DUP3 PUSH1 0x4 PUSH1 0x1F ADD PUSH1 0x20 SWAP1 DIV DUP2 ADD SWAP3 DUP3 ISZERO PUSH2 0xD94 JUMPI SWAP2 PUSH1 0x20 MUL DUP3 ADD PUSH0 JUMPDEST DUP4 DUP3 GT ISZERO PUSH2 0xD66 JUMPI DUP4 MLOAD DUP4 DUP3 PUSH2 0x100 EXP DUP2 SLOAD DUP2 PUSH1 0xFF MUL NOT AND SWAP1 DUP4 PUSH1 0xFF AND MUL OR SWAP1 SSTORE POP SWAP3 PUSH1 0x20 ADD SWAP3 PUSH1 0x1 ADD PUSH1 0x20 DUP2 PUSH0 ADD DIV SWAP3 DUP4 ADD SWAP3 PUSH1 0x1 SUB MUL PUSH2 0xD29 JUMP JUMPDEST DUP1 ISZERO PUSH2 0xD92 JUMPI DUP3 DUP2 PUSH2 0x100 EXP DUP2 SLOAD SWAP1 PUSH1 0xFF MUL NOT AND SWAP1 SSTORE PUSH1 0x1 ADD PUSH1 0x20 DUP2 PUSH0 ADD DIV SWAP3 DUP4 ADD SWAP3 PUSH1 0x1 SUB MUL PUSH2 0xD66 JUMP JUMPDEST POP JUMPDEST POP SWAP1 POP PUSH2 0xDA1 SWAP2 SWAP1 PUSH2 0xE5B JUMP JUMPDEST POP SWAP1 JUMP JUMPDEST DUP3 PUSH1 0x2 DUP2 ADD SWAP3 DUP3 ISZERO PUSH2 0xDE0 JUMPI SWAP2 PUSH1 0x20 MUL DUP3 ADD JUMPDEST DUP3 DUP2 GT ISZERO PUSH2 0xDDF JUMPI DUP3 MLOAD DUP3 SWAP1 DUP2 PUSH2 0xDCF SWAP2 SWAP1 PUSH2 0x1A94 JUMP JUMPDEST POP SWAP2 PUSH1 0x20 ADD SWAP2 SWAP1 PUSH1 0x1 ADD SWAP1 PUSH2 0xDB8 JUMP JUMPDEST JUMPDEST POP SWAP1 POP PUSH2 0xDED SWAP2 SWAP1 PUSH2 0xE76 JUMP JUMPDEST POP SWAP1 JUMP JUMPDEST POP DUP1 SLOAD PUSH0 DUP3 SSTORE PUSH1 0x4 MUL SWAP1 PUSH0 MSTORE PUSH1 0x20 PUSH0 KECCAK256 SWAP1 DUP2 ADD SWAP1 PUSH2 0xE0F SWAP2 SWAP1 PUSH2 0xE99 JUMP JUMPDEST POP JUMP JUMPDEST PUSH1 0x40 MLOAD DUP1 PUSH1 0x80 ADD PUSH1 0x40 MSTORE DUP1 PUSH1 0x4 SWAP1 PUSH1 0x20 DUP3 MUL DUP1 CALLDATASIZE DUP4 CALLDATACOPY DUP1 DUP3 ADD SWAP2 POP POP SWAP1 POP POP SWAP1 JUMP JUMPDEST PUSH1 0x40 MLOAD DUP1 PUSH1 0x40 ADD PUSH1 0x40 MSTORE DUP1 PUSH1 0x2 SWAP1 JUMPDEST PUSH1 0x60 DUP2 MSTORE PUSH1 0x20 ADD SWAP1 PUSH1 0x1 SWAP1 SUB SWAP1 DUP2 PUSH2 0xE43 JUMPI SWAP1 POP POP SWAP1 JUMP JUMPDEST JUMPDEST DUP1 DUP3 GT ISZERO PUSH2 0xE72 JUMPI PUSH0 DUP2 PUSH0 SWAP1 SSTORE POP PUSH1 0x1 ADD PUSH2 0xE5C JUMP JUMPDEST POP SWAP1 JUMP JUMPDEST JUMPDEST DUP1 DUP3 GT ISZERO PUSH2 0xE95 JUMPI PUSH0 DUP2 DUP2 PUSH2 0xE8C SWAP2 SWAP1 PUSH2 0xEF3 JUMP JUMPDEST POP PUSH1 0x1 ADD PUSH2 0xE77 JUMP JUMPDEST POP SWAP1 JUMP JUMPDEST JUMPDEST DUP1 DUP3 GT ISZERO PUSH2 0xEEF JUMPI PUSH0 DUP1 DUP3 ADD PUSH0 PUSH2 0xEB1 SWAP2 SWAP1 PUSH2 0xF30 JUMP JUMPDEST PUSH1 0x1 DUP3 ADD PUSH0 PUSH2 0xEC0 SWAP2 SWAP1 PUSH2 0xF36 JUMP JUMPDEST PUSH1 0x3 DUP3 ADD PUSH0 PUSH2 0x100 EXP DUP2 SLOAD SWAP1 PUSH20 0xFFFFFFFFFFFFFFFFFFFFFFFFFFFFFFFFFFFFFFFF MUL NOT AND SWAP1 SSTORE POP PUSH1 0x4 ADD PUSH2 0xE9A JUMP JUMPDEST POP SWAP1 JUMP JUMPDEST POP DUP1 SLOAD PUSH2 0xEFF SWAP1 PUSH2 0x1724 JUMP JUMPDEST PUSH0 DUP3 SSTORE DUP1 PUSH1 0x1F LT PUSH2 0xF10 JUMPI POP PUSH2 0xF2D JUMP JUMPDEST PUSH1 0x1F ADD PUSH1 0x20 SWAP1 DIV SWAP1 PUSH0 MSTORE PUSH1 0x20 PUSH0 KECCAK256 SWAP1 DUP2 ADD SWAP1 PUSH2 0xF2C SWAP2 SWAP1 PUSH2 0xE5B JUMP JUMPDEST JUMPDEST POP JUMP JUMPDEST POP PUSH0 SWAP1 SSTORE JUMP JUMPDEST POP PUSH0 DUP2 DUP2 PUSH2 0xF44 SWAP2 SWAP1 PUSH2 0xEF3 JUMP JUMPDEST POP PUSH1 0x1 ADD PUSH0 PUSH2 0xF53 SWAP2 SWAP1 PUSH2 0xEF3 JUMP JUMPDEST JUMP JUMPDEST PUSH0 PUSH1 0x40 MLOAD SWAP1 POP SWAP1 JUMP JUMPDEST PUSH0 DUP1 REVERT JUMPDEST PUSH0 DUP1 REVERT JUMPDEST PUSH0 DUP1 REVERT JUMPDEST PUSH0 PUSH1 0x1F NOT PUSH1 0x1F DUP4 ADD AND SWAP1 POP SWAP2 SWAP1 POP JUMP JUMPDEST PUSH32 0x4E487B7100000000000000000000000000000000000000000000000000000000 PUSH0 MSTORE PUSH1 0x41 PUSH1 0x4 MSTORE PUSH1 0x24 PUSH0 REVERT JUMPDEST PUSH2 0xFB0 DUP3 PUSH2 0xF6A JUMP JUMPDEST DUP2 ADD DUP2 DUP2 LT PUSH8 0xFFFFFFFFFFFFFFFF DUP3 GT OR ISZERO PUSH2 0xFCF JUMPI PUSH2 0xFCE PUSH2 0xF7A JUMP JUMPDEST JUMPDEST DUP1 PUSH1 0x40 MSTORE POP POP POP JUMP JUMPDEST PUSH0 PUSH2 0xFE1 PUSH2 0xF55 JUMP JUMPDEST SWAP1 POP PUSH2 0xFED DUP3 DUP3 PUSH2 0xFA7 JUMP JUMPDEST SWAP2 SWAP1 POP JUMP JUMPDEST PUSH0 PUSH8 0xFFFFFFFFFFFFFFFF DUP3 GT ISZERO PUSH2 0x100C JUMPI PUSH2 0x100B PUSH2 0xF7A JUMP JUMPDEST JUMPDEST PUSH1 0x20 DUP3 MUL SWAP1 POP SWAP2 SWAP1 POP JUMP JUMPDEST PUSH0 DUP1 REVERT JUMPDEST PUSH0 PUSH1 0xFF DUP3 AND SWAP1 POP SWAP2 SWAP1 POP JUMP JUMPDEST PUSH2 0x1030 DUP2 PUSH2 0x101B JUMP JUMPDEST DUP2 EQ PUSH2 0x103A JUMPI PUSH0 DUP1 REVERT JUMPDEST POP JUMP JUMPDEST PUSH0 DUP2 CALLDATALOAD SWAP1 POP PUSH2 0x104B DUP2 PUSH2 0x1027 JUMP JUMPDEST SWAP3 SWAP2 POP POP JUMP JUMPDEST PUSH0 PUSH2 0x1063 PUSH2 0x105E DUP5 PUSH2 0xFF2 JUMP JUMPDEST PUSH2 0xFD8 JUMP JUMPDEST SWAP1 POP DUP1 PUSH1 0x20 DUP5 MUL DUP4 ADD DUP6 DUP2 GT ISZERO PUSH2 0x107D JUMPI PUSH2 0x107C PUSH2 0x1017 JUMP JUMPDEST JUMPDEST DUP4 JUMPDEST DUP2 DUP2 LT ISZERO PUSH2 0x10A6 JUMPI DUP1 PUSH2 0x1092 DUP9 DUP3 PUSH2 0x103D JUMP JUMPDEST DUP5 MSTORE PUSH1 0x20 DUP5 ADD SWAP4 POP POP PUSH1 0x20 DUP2 ADD SWAP1 POP PUSH2 0x107F JUMP JUMPDEST POP POP POP SWAP4 SWAP3 POP POP POP JUMP JUMPDEST PUSH0 DUP3 PUSH1 0x1F DUP4 ADD SLT PUSH2 0x10C4 JUMPI PUSH2 0x10C3 PUSH2 0xF66 JUMP JUMPDEST JUMPDEST PUSH1 0x4 PUSH2 0x10D1 DUP5 DUP3 DUP6 PUSH2 0x1051 JUMP JUMPDEST SWAP2 POP POP SWAP3 SWAP2 POP POP JUMP JUMPDEST PUSH0 PUSH8 0xFFFFFFFFFFFFFFFF DUP3 GT ISZERO PUSH2 0x10F4 JUMPI PUSH2 0x10F3 PUSH2 0xF7A JUMP JUMPDEST JUMPDEST PUSH1 0x20 DUP3 MUL SWAP1 POP SWAP2 SWAP1 POP JUMP JUMPDEST PUSH0 DUP1 REVERT JUMPDEST PUSH0 PUSH8 0xFFFFFFFFFFFFFFFF DUP3 GT ISZERO PUSH2 0x111D JUMPI PUSH2 0x111C PUSH2 0xF7A JUMP JUMPDEST JUMPDEST PUSH2 0x1126 DUP3 PUSH2 0xF6A JUMP JUMPDEST SWAP1 POP PUSH1 0x20 DUP2 ADD SWAP1 POP SWAP2 SWAP1 POP JUMP JUMPDEST DUP3 DUP2 DUP4 CALLDATACOPY PUSH0 DUP4 DUP4 ADD MSTORE POP POP POP JUMP JUMPDEST PUSH0 PUSH2 0x1153 PUSH2 0x114E DUP5 PUSH2 0x1103 JUMP JUMPDEST PUSH2 0xFD8 JUMP JUMPDEST SWAP1 POP DUP3 DUP2 MSTORE PUSH1 0x20 DUP2 ADD DUP5 DUP5 DUP5 ADD GT ISZERO PUSH2 0x116F JUMPI PUSH2 0x116E PUSH2 0x10FF JUMP JUMPDEST JUMPDEST PUSH2 0x117A DUP5 DUP3 DUP6 PUSH2 0x1133 JUMP JUMPDEST POP SWAP4 SWAP3 POP POP POP JUMP JUMPDEST PUSH0 DUP3 PUSH1 0x1F DUP4 ADD SLT PUSH2 0x1196 JUMPI PUSH2 0x1195 PUSH2 0xF66 JUMP JUMPDEST JUMPDEST DUP2 CALLDATALOAD PUSH2 0x11A6 DUP5 DUP3 PUSH1 0x20 DUP7 ADD PUSH2 0x1141 JUMP JUMPDEST SWAP2 POP POP SWAP3 SWAP2 POP POP JUMP JUMPDEST PUSH0 PUSH2 0x11C1 PUSH2 0x11BC DUP5 PUSH2 0x10DA JUMP JUMPDEST PUSH2 0xFD8 JUMP JUMPDEST SWAP1 POP DUP1 PUSH1 0x20 DUP5 MUL DUP4 ADD DUP6 DUP2 GT ISZERO PUSH2 0x11DB JUMPI PUSH2 0x11DA PUSH2 0x1017 JUMP JUMPDEST JUMPDEST DUP4 JUMPDEST DUP2 DUP2 LT ISZERO PUSH2 0x1222 JUMPI DUP1 CALLDATALOAD PUSH8 0xFFFFFFFFFFFFFFFF DUP2 GT ISZERO PUSH2 0x1200 JUMPI PUSH2 0x11FF PUSH2 0xF66 JUMP JUMPDEST JUMPDEST DUP1 DUP7 ADD PUSH2 0x120D DUP10 DUP3 PUSH2 0x1182 JUMP JUMPDEST DUP6 MSTORE PUSH1 0x20 DUP6 ADD SWAP5 POP POP POP PUSH1 0x20 DUP2 ADD SWAP1 POP PUSH2 0x11DD JUMP JUMPDEST POP POP POP SWAP4 SWAP3 POP POP POP JUMP JUMPDEST PUSH0 DUP3 PUSH1 0x1F DUP4 ADD SLT PUSH2 0x1240 JUMPI PUSH2 0x123F PUSH2 0xF66 JUMP JUMPDEST JUMPDEST PUSH1 0x2 PUSH2 0x124D DUP5 DUP3 DUP6 PUSH2 0x11AF JUMP JUMPDEST SWAP2 POP POP SWAP3 SWAP2 POP POP JUMP JUMPDEST PUSH0 DUP1 PUSH1 0xA0 DUP4 DUP6 SUB SLT ISZERO PUSH2 0x126C JUMPI PUSH2 0x126B PUSH2 0xF5E JUMP JUMPDEST JUMPDEST PUSH0 PUSH2 0x1279 DUP6 DUP3 DUP7 ADD PUSH2 0x10B0 JUMP JUMPDEST SWAP3 POP POP PUSH1 0x80 DUP4 ADD CALLDATALOAD PUSH8 0xFFFFFFFFFFFFFFFF DUP2 GT ISZERO PUSH2 0x129A JUMPI PUSH2 0x1299 PUSH2 0xF62 JUMP JUMPDEST JUMPDEST PUSH2 0x12A6 DUP6 DUP3 DUP7 ADD PUSH2 0x122C JUMP JUMPDEST SWAP2 POP POP SWAP3 POP SWAP3 SWAP1 POP JUMP JUMPDEST PUSH0 DUP2 SWAP1 POP SWAP2 SWAP1 POP JUMP JUMPDEST PUSH2 0x12C2 DUP2 PUSH2 0x12B0 JUMP JUMPDEST DUP3 MSTORE POP POP JUMP JUMPDEST PUSH0 PUSH1 0x20 DUP3 ADD SWAP1 POP PUSH2 0x12DB PUSH0 DUP4 ADD DUP5 PUSH2 0x12B9 JUMP JUMPDEST SWAP3 SWAP2 POP POP JUMP JUMPDEST PUSH2 0x12EA DUP2 PUSH2 0x12B0 JUMP JUMPDEST DUP2 EQ PUSH2 0x12F4 JUMPI PUSH0 DUP1 REVERT JUMPDEST POP JUMP JUMPDEST PUSH0 DUP2 CALLDATALOAD SWAP1 POP PUSH2 0x1305 DUP2 PUSH2 0x12E1 JUMP JUMPDEST SWAP3 SWAP2 POP POP JUMP JUMPDEST PUSH0 PUSH1 0x20 DUP3 DUP5 SUB SLT ISZERO PUSH2 0x1320 JUMPI PUSH2 0x131F PUSH2 0xF5E JUMP JUMPDEST JUMPDEST PUSH0 PUSH2 0x132D DUP5 DUP3 DUP6 ADD PUSH2 0x12F7 JUMP JUMPDEST SWAP2 POP POP SWAP3 SWAP2 POP POP JUMP JUMPDEST PUSH2 0x133F DUP2 PUSH2 0x101B JUMP JUMPDEST DUP3 MSTORE POP POP JUMP JUMPDEST PUSH0 PUSH1 0x20 DUP3 ADD SWAP1 POP PUSH2 0x1358 PUSH0 DUP4 ADD DUP5 PUSH2 0x1336 JUMP JUMPDEST SWAP3 SWAP2 POP POP JUMP JUMPDEST PUSH0 PUSH20 0xFFFFFFFFFFFFFFFFFFFFFFFFFFFFFFFFFFFFFFFF DUP3 AND SWAP1 POP SWAP2 SWAP1 POP JUMP JUMPDEST PUSH0 PUSH2 0x1387 DUP3 PUSH2 0x135E JUMP JUMPDEST SWAP1 POP SWAP2 SWAP1 POP JUMP JUMPDEST PUSH2 0x1397 DUP2 PUSH2 0x137D JUMP JUMPDEST DUP3 MSTORE POP POP JUMP JUMPDEST PUSH0 PUSH1 0x20 DUP3 ADD SWAP1 POP PUSH2 0x13B0 PUSH0 DUP4 ADD DUP5 PUSH2 0x138E JUMP JUMPDEST SWAP3 SWAP2 POP POP JUMP JUMPDEST PUSH0 PUSH1 0x4 SWAP1 POP SWAP2 SWAP1 POP JUMP JUMPDEST PUSH0 DUP2 SWAP1 POP SWAP3 SWAP2 POP POP JUMP JUMPDEST PUSH0 DUP2 SWAP1 POP SWAP2 SWAP1 POP JUMP JUMPDEST PUSH2 0x13DC DUP2 PUSH2 0x101B JUMP JUMPDEST DUP3 MSTORE POP POP JUMP JUMPDEST PUSH0 PUSH2 0x13ED DUP4 DUP4 PUSH2 0x13D3 JUMP JUMPDEST PUSH1 0x20 DUP4 ADD SWAP1 POP SWAP3 SWAP2 POP POP JUMP JUMPDEST PUSH0 PUSH1 0x20 DUP3 ADD SWAP1 POP SWAP2 SWAP1 POP JUMP JUMPDEST PUSH2 0x140E DUP2 PUSH2 0x13B6 JUMP JUMPDEST PUSH2 0x1418 DUP2 DUP5 PUSH2 0x13C0 JUMP JUMPDEST SWAP3 POP PUSH2 0x1423 DUP3 PUSH2 0x13CA JUMP JUMPDEST DUP1 PUSH0 JUMPDEST DUP4 DUP2 LT ISZERO PUSH2 0x1453 JUMPI DUP2 MLOAD PUSH2 0x143A DUP8 DUP3 PUSH2 0x13E2 JUMP JUMPDEST SWAP7 POP PUSH2 0x1445 DUP4 PUSH2 0x13F9 JUMP JUMPDEST SWAP3 POP POP PUSH1 0x1 DUP2 ADD SWAP1 POP PUSH2 0x1426 JUMP JUMPDEST POP POP POP POP POP POP JUMP JUMPDEST PUSH0 PUSH1 0x2 SWAP1 POP SWAP2 SWAP1 POP JUMP JUMPDEST PUSH0 DUP2 SWAP1 POP SWAP3 SWAP2 POP POP JUMP JUMPDEST PUSH0 DUP2 SWAP1 POP SWAP2 SWAP1 POP JUMP JUMPDEST PUSH0 DUP2 MLOAD SWAP1 POP SWAP2 SWAP1 POP JUMP JUMPDEST PUSH0 DUP3 DUP3 MSTORE PUSH1 0x20 DUP3 ADD SWAP1 POP SWAP3 SWAP2 POP POP JUMP JUMPDEST DUP3 DUP2 DUP4 MCOPY PUSH0 DUP4 DUP4 ADD MSTORE POP POP POP JUMP JUMPDEST PUSH0 PUSH2 0x14AA DUP3 PUSH2 0x1478 JUMP JUMPDEST PUSH2 0x14B4 DUP2 DUP6 PUSH2 0x1482 JUMP JUMPDEST SWAP4 POP PUSH2 0x14C4 DUP2 DUP6 PUSH1 0x20 DUP7 ADD PUSH2 0x1492 JUMP JUMPDEST PUSH2 0x14CD DUP2 PUSH2 0xF6A JUMP JUMPDEST DUP5 ADD SWAP2 POP POP SWAP3 SWAP2 POP POP JUMP JUMPDEST PUSH0 PUSH2 0x14E3 DUP4 DUP4 PUSH2 0x14A0 JUMP JUMPDEST SWAP1 POP SWAP3 SWAP2 POP POP JUMP JUMPDEST PUSH0 PUSH1 0x20 DUP3 ADD SWAP1 POP SWAP2 SWAP1 POP JUMP JUMPDEST PUSH0 PUSH2 0x1501 DUP3 PUSH2 0x145B JUMP JUMPDEST PUSH2 0x150B DUP2 DUP6 PUSH2 0x1465 JUMP JUMPDEST SWAP4 POP DUP4 PUSH1 0x20 DUP3 MUL DUP6 ADD PUSH2 0x151D DUP6 PUSH2 0x146F JUMP JUMPDEST DUP1 PUSH0 JUMPDEST DUP6 DUP2 LT ISZERO PUSH2 0x1558 JUMPI DUP5 DUP5 SUB DUP10 MSTORE DUP2 MLOAD PUSH2 0x1539 DUP6 DUP3 PUSH2 0x14D8 JUMP JUMPDEST SWAP5 POP PUSH2 0x1544 DUP4 PUSH2 0x14EB JUMP JUMPDEST SWAP3 POP PUSH1 0x20 DUP11 ADD SWAP10 POP POP PUSH1 0x1 DUP2 ADD SWAP1 POP PUSH2 0x1520 JUMP JUMPDEST POP DUP3 SWAP8 POP DUP8 SWAP6 POP POP POP POP POP POP SWAP3 SWAP2 POP POP JUMP JUMPDEST PUSH0 PUSH1 0xC0 DUP3 ADD SWAP1 POP PUSH2 0x157D PUSH0 DUP4 ADD DUP7 PUSH2 0x1405 JUMP JUMPDEST DUP2 DUP2 SUB PUSH1 0x80 DUP4 ADD MSTORE PUSH2 0x158F DUP2 DUP6 PUSH2 0x14F7 JUMP JUMPDEST SWAP1 POP PUSH2 0x159E PUSH1 0xA0 DUP4 ADD DUP5 PUSH2 0x138E JUMP JUMPDEST SWAP5 SWAP4 POP POP POP POP JUMP JUMPDEST PUSH0 DUP3 DUP3 MSTORE PUSH1 0x20 DUP3 ADD SWAP1 POP SWAP3 SWAP2 POP POP JUMP JUMPDEST PUSH0 PUSH2 0x15C0 DUP3 PUSH2 0x1478 JUMP JUMPDEST PUSH2 0x15CA DUP2 DUP6 PUSH2 0x15A6 JUMP JUMPDEST SWAP4 POP PUSH2 0x15DA DUP2 DUP6 PUSH1 0x20 DUP7 ADD PUSH2 0x1492 JUMP JUMPDEST PUSH2 0x15E3 DUP2 PUSH2 0xF6A JUMP JUMPDEST DUP5 ADD SWAP2 POP POP SWAP3 SWAP2 POP POP JUMP JUMPDEST PUSH0 PUSH1 0x20 DUP3 ADD SWAP1 POP DUP2 DUP2 SUB PUSH0 DUP4 ADD MSTORE PUSH2 0x1606 DUP2 DUP5 PUSH2 0x15B6 JUMP JUMPDEST SWAP1 POP SWAP3 SWAP2 POP POP JUMP JUMPDEST PUSH32 0x4F6E6C79206F776E65722063616E2063616C6C20746869732066756E6374696F PUSH0 DUP3 ADD MSTORE PUSH32 0x6E00000000000000000000000000000000000000000000000000000000000000 PUSH1 0x20 DUP3 ADD MSTORE POP JUMP JUMPDEST PUSH0 PUSH2 0x1668 PUSH1 0x21 DUP4 PUSH2 0x15A6 JUMP JUMPDEST SWAP2 POP PUSH2 0x1673 DUP3 PUSH2 0x160E JUMP JUMPDEST PUSH1 0x40 DUP3 ADD SWAP1 POP SWAP2 SWAP1 POP JUMP JUMPDEST PUSH0 PUSH1 0x20 DUP3 ADD SWAP1 POP DUP2 DUP2 SUB PUSH0 DUP4 ADD MSTORE PUSH2 0x1695 DUP2 PUSH2 0x165C JUMP JUMPDEST SWAP1 POP SWAP2 SWAP1 POP JUMP JUMPDEST PUSH0 PUSH1 0xA0 DUP3 ADD SWAP1 POP PUSH2 0x16AF PUSH0 DUP4 ADD DUP6 PUSH2 0x1405 JUMP JUMPDEST DUP2 DUP2 SUB PUSH1 0x80 DUP4 ADD MSTORE PUSH2 0x16C1 DUP2 DUP5 PUSH2 0x14F7 JUMP JUMPDEST SWAP1 POP SWAP4 SWAP3 POP POP POP JUMP JUMPDEST PUSH32 0x4E487B7100000000000000000000000000000000000000000000000000000000 PUSH0 MSTORE PUSH1 0x32 PUSH1 0x4 MSTORE PUSH1 0x24 PUSH0 REVERT JUMPDEST PUSH32 0x4E487B7100000000000000000000000000000000000000000000000000000000 PUSH0 MSTORE PUSH1 0x22 PUSH1 0x4 MSTORE PUSH1 0x24 PUSH0 REVERT JUMPDEST PUSH0 PUSH1 0x2 DUP3 DIV SWAP1 POP PUSH1 0x1 DUP3 AND DUP1 PUSH2 0x173B JUMPI PUSH1 0x7F DUP3 AND SWAP2 POP JUMPDEST PUSH1 0x20 DUP3 LT DUP2 SUB PUSH2 0x174E JUMPI PUSH2 0x174D PUSH2 0x16F7 JUMP JUMPDEST JUMPDEST POP SWAP2 SWAP1 POP JUMP JUMPDEST PUSH32 0x496E636F7272656374207469636B657420707269636500000000000000000000 PUSH0 DUP3 ADD MSTORE POP JUMP JUMPDEST PUSH0 PUSH2 0x1788 PUSH1 0x16 DUP4 PUSH2 0x15A6 JUMP JUMPDEST SWAP2 POP PUSH2 0x1793 DUP3 PUSH2 0x1754 JUMP JUMPDEST PUSH1 0x20 DUP3 ADD SWAP1 POP SWAP2 SWAP1 POP JUMP JUMPDEST PUSH0 PUSH1 0x20 DUP3 ADD SWAP1 POP DUP2 DUP2 SUB PUSH0 DUP4 ADD MSTORE PUSH2 0x17B5 DUP2 PUSH2 0x177C JUMP JUMPDEST SWAP1 POP SWAP2 SWAP1 POP JUMP JUMPDEST PUSH32 0x4E487B7100000000000000000000000000000000000000000000000000000000 PUSH0 MSTORE PUSH1 0x11 PUSH1 0x4 MSTORE PUSH1 0x24 PUSH0 REVERT JUMPDEST PUSH0 PUSH2 0x17F3 DUP3 PUSH2 0x101B JUMP JUMPDEST SWAP2 POP PUSH1 0xFF DUP3 SUB PUSH2 0x1806 JUMPI PUSH2 0x1805 PUSH2 0x17BC JUMP JUMPDEST JUMPDEST PUSH1 0x1 DUP3 ADD SWAP1 POP SWAP2 SWAP1 POP JUMP JUMPDEST PUSH0 DUP2 SWAP1 POP SWAP3 SWAP2 POP POP JUMP JUMPDEST PUSH0 DUP2 SWAP1 POP DUP2 PUSH0 MSTORE PUSH1 0x20 PUSH0 KECCAK256 SWAP1 POP SWAP2 SWAP1 POP JUMP JUMPDEST PUSH0 DUP2 SLOAD PUSH2 0x1839 DUP2 PUSH2 0x1724 JUMP JUMPDEST PUSH2 0x1843 DUP2 DUP7 PUSH2 0x1811 JUMP JUMPDEST SWAP5 POP PUSH1 0x1 DUP3 AND PUSH0 DUP2 EQ PUSH2 0x185D JUMPI PUSH1 0x1 DUP2 EQ PUSH2 0x1872 JUMPI PUSH2 0x18A4 JUMP JUMPDEST PUSH1 0xFF NOT DUP4 AND DUP7 MSTORE DUP2 ISZERO ISZERO DUP3 MUL DUP7 ADD SWAP4 POP PUSH2 0x18A4 JUMP JUMPDEST PUSH2 0x187B DUP6 PUSH2 0x181B JUMP JUMPDEST PUSH0 JUMPDEST DUP4 DUP2 LT ISZERO PUSH2 0x189C JUMPI DUP2 SLOAD DUP2 DUP10 ADD MSTORE PUSH1 0x1 DUP3 ADD SWAP2 POP PUSH1 0x20 DUP2 ADD SWAP1 POP PUSH2 0x187D JUMP JUMPDEST DUP4 DUP9 ADD SWAP6 POP POP POP JUMPDEST POP POP POP SWAP3 SWAP2 POP POP JUMP JUMPDEST PUSH0 PUSH2 0x18B8 DUP3 DUP5 PUSH2 0x182D JUMP JUMPDEST SWAP2 POP DUP2 SWAP1 POP SWAP3 SWAP2 POP POP JUMP JUMPDEST PUSH0 PUSH2 0x18CD DUP3 PUSH2 0x1478 JUMP JUMPDEST PUSH2 0x18D7 DUP2 DUP6 PUSH2 0x1811 JUMP JUMPDEST SWAP4 POP PUSH2 0x18E7 DUP2 DUP6 PUSH1 0x20 DUP7 ADD PUSH2 0x1492 JUMP JUMPDEST DUP1 DUP5 ADD SWAP2 POP POP SWAP3 SWAP2 POP POP JUMP JUMPDEST PUSH0 PUSH2 0x18FE DUP3 DUP5 PUSH2 0x18C3 JUMP JUMPDEST SWAP2 POP DUP2 SWAP1 POP SWAP3 SWAP2 POP POP JUMP JUMPDEST PUSH0 PUSH1 0x20 PUSH1 0x1F DUP4 ADD DIV SWAP1 POP SWAP2 SWAP1 POP JUMP JUMPDEST PUSH0 DUP3 DUP3 SHL SWAP1 POP SWAP3 SWAP2 POP POP JUMP JUMPDEST PUSH0 PUSH1 0x8 DUP4 MUL PUSH2 0x1953 PUSH32 0xFFFFFFFFFFFFFFFFFFFFFFFFFFFFFFFFFFFFFFFFFFFFFFFFFFFFFFFFFFFFFFFF DUP3 PUSH2 0x1918 JUMP JUMPDEST PUSH2 0x195D DUP7 DUP4 PUSH2 0x1918 JUMP JUMPDEST SWAP6 POP DUP1 NOT DUP5 AND SWAP4 POP DUP1 DUP7 AND DUP5 OR SWAP3 POP POP POP SWAP4 SWAP3 POP POP POP JUMP JUMPDEST PUSH0 DUP2 SWAP1 POP SWAP2 SWAP1 POP JUMP JUMPDEST PUSH0 PUSH2 0x1998 PUSH2 0x1993 PUSH2 0x198E DUP5 PUSH2 0x12B0 JUMP JUMPDEST PUSH2 0x1975 JUMP JUMPDEST PUSH2 0x12B0 JUMP JUMPDEST SWAP1 POP SWAP2 SWAP1 POP JUMP JUMPDEST PUSH0 DUP2 SWAP1 POP SWAP2 SWAP1 POP JUMP JUMPDEST PUSH2 0x19B1 DUP4 PUSH2 0x197E JUMP JUMPDEST PUSH2 0x19C5 PUSH2 0x19BD DUP3 PUSH2 0x199F JUMP JUMPDEST DUP5 DUP5 SLOAD PUSH2 0x1924 JUMP JUMPDEST DUP3 SSTORE POP POP POP POP JUMP JUMPDEST PUSH0 SWAP1 JUMP JUMPDEST PUSH2 0x19D9 PUSH2 0x19CD JUMP JUMPDEST PUSH2 0x19E4 DUP2 DUP5 DUP5 PUSH2 0x19A8 JUMP JUMPDEST POP POP POP JUMP JUMPDEST JUMPDEST DUP2 DUP2 LT ISZERO PUSH2 0x1A07 JUMPI PUSH2 0x19FC PUSH0 DUP3 PUSH2 0x19D1 JUMP JUMPDEST PUSH1 0x1 DUP2 ADD SWAP1 POP PUSH2 0x19EA JUMP JUMPDEST POP POP JUMP JUMPDEST PUSH1 0x1F DUP3 GT ISZERO PUSH2 0x1A4C JUMPI PUSH2 0x1A1D DUP2 PUSH2 0x181B JUMP JUMPDEST PUSH2 0x1A26 DUP5 PUSH2 0x1909 JUMP JUMPDEST DUP2 ADD PUSH1 0x20 DUP6 LT ISZERO PUSH2 0x1A35 JUMPI DUP2 SWAP1 POP JUMPDEST PUSH2 0x1A49 PUSH2 0x1A41 DUP6 PUSH2 0x1909 JUMP JUMPDEST DUP4 ADD DUP3 PUSH2 0x19E9 JUMP JUMPDEST POP POP JUMPDEST POP POP POP JUMP JUMPDEST PUSH0 DUP3 DUP3 SHR SWAP1 POP SWAP3 SWAP2 POP POP JUMP JUMPDEST PUSH0 PUSH2 0x1A6C PUSH0 NOT DUP5 PUSH1 0x8 MUL PUSH2 0x1A51 JUMP JUMPDEST NOT DUP1 DUP4 AND SWAP2 POP POP SWAP3 SWAP2 POP POP JUMP JUMPDEST PUSH0 PUSH2 0x1A84 DUP4 DUP4 PUSH2 0x1A5D JUMP JUMPDEST SWAP2 POP DUP3 PUSH1 0x2 MUL DUP3 OR SWAP1 POP SWAP3 SWAP2 POP POP JUMP JUMPDEST PUSH2 0x1A9D DUP3 PUSH2 0x1478 JUMP JUMPDEST PUSH8 0xFFFFFFFFFFFFFFFF DUP2 GT ISZERO PUSH2 0x1AB6 JUMPI PUSH2 0x1AB5 PUSH2 0xF7A JUMP JUMPDEST JUMPDEST PUSH2 0x1AC0 DUP3 SLOAD PUSH2 0x1724 JUMP JUMPDEST PUSH2 0x1ACB DUP3 DUP3 DUP6 PUSH2 0x1A0B JUMP JUMPDEST PUSH0 PUSH1 0x20 SWAP1 POP PUSH1 0x1F DUP4 GT PUSH1 0x1 DUP2 EQ PUSH2 0x1AFC JUMPI PUSH0 DUP5 ISZERO PUSH2 0x1AEA JUMPI DUP3 DUP8 ADD MLOAD SWAP1 POP JUMPDEST PUSH2 0x1AF4 DUP6 DUP3 PUSH2 0x1A79 JUMP JUMPDEST DUP7 SSTORE POP PUSH2 0x1B5B JUMP JUMPDEST PUSH1 0x1F NOT DUP5 AND PUSH2 0x1B0A DUP7 PUSH2 0x181B JUMP JUMPDEST PUSH0 JUMPDEST DUP3 DUP2 LT ISZERO PUSH2 0x1B31 JUMPI DUP5 DUP10 ADD MLOAD DUP3 SSTORE PUSH1 0x1 DUP3 ADD SWAP2 POP PUSH1 0x20 DUP6 ADD SWAP5 POP PUSH1 0x20 DUP2 ADD SWAP1 POP PUSH2 0x1B0C JUMP JUMPDEST DUP7 DUP4 LT ISZERO PUSH2 0x1B4E JUMPI DUP5 DUP10 ADD MLOAD PUSH2 0x1B4A PUSH1 0x1F DUP10 AND DUP3 PUSH2 0x1A5D JUMP JUMPDEST DUP4 SSTORE POP JUMPDEST PUSH1 0x1 PUSH1 0x2 DUP9 MUL ADD DUP9 SSTORE POP POP POP JUMPDEST POP POP POP POP POP POP JUMP INVALID LOG2 PUSH5 0x6970667358 0x22 SLT KECCAK256 0xE DUP6 0x22 0x26 LOG0 PUSH24 0xAD49D683D217B3DD2499A03EADA0312A4A5717C3AA035789 TIMESTAMP 0xB1 PUSH5 0x736F6C6343 STOP ADDMOD BYTE STOP CALLER "
		},
		"gasEstimates": {
			"creation": {
				"codeDepositCost": "1413000",
				"executionCost": "47841",
				"totalCost": "1460841"
			},
			"external": {
				"distributePrizes()": "infinite",
				"entries(uint256)": "5000",
				"getEntriesCount()": "2528",
				"getEntry(uint256)": "infinite",
				"owner()": "2508",
				"setWinningNumbers(uint8[4],string[2])": "infinite",
				"submitEntry(uint8[4],string[2])": "infinite",
				"ticketPrice()": "2448",
				"winningLetters(uint256)": "infinite",
				"winningNumbers(uint256)": "4424"
			},
			"internal": {
				"checkMatches(struct Test2.Entry memory)": "infinite"
			}
		},
		"methodIdentifiers": {
			"distributePrizes()": "7ce52eb6",
			"entries(uint256)": "b30906d4",
			"getEntriesCount()": "d09685b0",
			"getEntry(uint256)": "bae78d7b",
			"owner()": "8da5cb5b",
			"setWinningNumbers(uint8[4],string[2])": "10b6e482",
			"submitEntry(uint8[4],string[2])": "8baae14c",
			"ticketPrice()": "1209b1f6",
			"winningLetters(uint256)": "c1099656",
			"winningNumbers(uint256)": "4e45f095"
		}
	},
	"abi": [
		{
			"inputs": [],
			"stateMutability": "nonpayable",
			"type": "constructor"
		},
		{
			"anonymous": false,
			"inputs": [
				{
					"indexed": true,
					"internalType": "address",
					"name": "participant",
					"type": "address"
				},
				{
					"indexed": false,
					"internalType": "uint8[4]",
					"name": "numbers",
					"type": "uint8[4]"
				},
				{
					"indexed": false,
					"internalType": "string[2]",
					"name": "letters",
					"type": "string[2]"
				}
			],
			"name": "EntrySubmitted",
			"type": "event"
		},
		{
			"anonymous": false,
			"inputs": [
				{
					"indexed": true,
					"internalType": "address",
					"name": "participant",
					"type": "address"
				},
				{
					"indexed": false,
					"internalType": "uint256",
					"name": "prize",
					"type": "uint256"
				}
			],
			"name": "PrizeDistributed",
			"type": "event"
		},
		{
			"anonymous": false,
			"inputs": [
				{
					"indexed": false,
					"internalType": "uint8[4]",
					"name": "numbers",
					"type": "uint8[4]"
				},
				{
					"indexed": false,
					"internalType": "string[2]",
					"name": "letters",
					"type": "string[2]"
				}
			],
			"name": "WinningNumbersSet",
			"type": "event"
		},
		{
			"inputs": [],
			"name": "distributePrizes",
			"outputs": [],
			"stateMutability": "nonpayable",
			"type": "function"
		},
		{
			"inputs": [
				{
					"internalType": "uint256",
					"name": "",
					"type": "uint256"
				}
			],
			"name": "entries",
			"outputs": [
				{
					"internalType": "address",
					"name": "participant",
					"type": "address"
				}
			],
			"stateMutability": "view",
			"type": "function"
		},
		{
			"inputs": [],
			"name": "getEntriesCount",
			"outputs": [
				{
					"internalType": "uint256",
					"name": "",
					"type": "uint256"
				}
			],
			"stateMutability": "view",
			"type": "function"
		},
		{
			"inputs": [
				{
					"internalType": "uint256",
					"name": "index",
					"type": "uint256"
				}
			],
			"name": "getEntry",
			"outputs": [
				{
					"internalType": "uint8[4]",
					"name": "",
					"type": "uint8[4]"
				},
				{
					"internalType": "string[2]",
					"name": "",
					"type": "string[2]"
				},
				{
					"internalType": "address",
					"name": "",
					"type": "address"
				}
			],
			"stateMutability": "view",
			"type": "function"
		},
		{
			"inputs": [],
			"name": "owner",
			"outputs": [
				{
					"internalType": "address",
					"name": "",
					"type": "address"
				}
			],
			"stateMutability": "view",
			"type": "function"
		},
		{
			"inputs": [
				{
					"internalType": "uint8[4]",
					"name": "numbers",
					"type": "uint8[4]"
				},
				{
					"internalType": "string[2]",
					"name": "letters",
					"type": "string[2]"
				}
			],
			"name": "setWinningNumbers",
			"outputs": [],
			"stateMutability": "nonpayable",
			"type": "function"
		},
		{
			"inputs": [
				{
					"internalType": "uint8[4]",
					"name": "numbers",
					"type": "uint8[4]"
				},
				{
					"internalType": "string[2]",
					"name": "letters",
					"type": "string[2]"
				}
			],
			"name": "submitEntry",
			"outputs": [],
			"stateMutability": "payable",
			"type": "function"
		},
		{
			"inputs": [],
			"name": "ticketPrice",
			"outputs": [
				{
					"internalType": "uint256",
					"name": "",
					"type": "uint256"
				}
			],
			"stateMutability": "view",
			"type": "function"
		},
		{
			"inputs": [
				{
					"internalType": "uint256",
					"name": "",
					"type": "uint256"
				}
			],
			"name": "winningLetters",
			"outputs": [
				{
					"internalType": "string",
					"name": "",
					"type": "string"
				}
			],
			"stateMutability": "view",
			"type": "function"
		},
		{
			"inputs": [
				{
					"internalType": "uint256",
					"name": "",
					"type": "uint256"
				}
			],
			"name": "winningNumbers",
			"outputs": [
				{
					"internalType": "uint8",
					"name": "",
					"type": "uint8"
				}
			],
			"stateMutability": "view",
			"type": "function"
		},
		{
			"stateMutability": "payable",
			"type": "receive"
		}
	]
}