{
	"data": {
		"bytecode": {
			"linkReferences": {},
			"object": "6080604052348015600e575f80fd5b506105c98061001c5f395ff3fe608060405234801561000f575f80fd5b5060043610610029575f3560e01c8063028aaf9f1461002d575b5f80fd5b610047600480360381019061004291906101e5565b61005d565b6040516100549190610280565b60405180910390f35b60605f610e108361006e91906102cd565b90505f603c610e108561008191906102fd565b61008b91906102cd565b90505f603c8561009b91906102fd565b90505f8311156100e757826100af84610150565b836100b985610150565b846040516020016100ce959493929190610488565b604051602081830303815290604052935050505061014b565b5f82111561012557816100f983610150565b8260405160200161010c93929190610515565b604051602081830303815290604052935050505061014b565b80604051602001610136919061056e565b60405160208183030381529060405293505050505b919050565b606060018214610197576040518060400160405280600181526020017f730000000000000000000000000000000000000000000000000000000000000081525090506101a9565b60405180602001604052805f81525090505b919050565b5f80fd5b5f819050919050565b6101c4816101b2565b81146101ce575f80fd5b50565b5f813590506101df816101bb565b92915050565b5f602082840312156101fa576101f96101ae565b5b5f610207848285016101d1565b91505092915050565b5f81519050919050565b5f82825260208201905092915050565b8281835e5f83830152505050565b5f601f19601f8301169050919050565b5f61025282610210565b61025c818561021a565b935061026c81856020860161022a565b61027581610238565b840191505092915050565b5f6020820190508181035f8301526102988184610248565b905092915050565b7f4e487b71000000000000000000000000000000000000000000000000000000005f52601260045260245ffd5b5f6102d7826101b2565b91506102e2836101b2565b9250826102f2576102f16102a0565b5b828204905092915050565b5f610307826101b2565b9150610312836101b2565b925082610322576103216102a0565b5b828206905092915050565b5f819050919050565b610347610342826101b2565b61032d565b82525050565b5f81905092915050565b7f686f7572000000000000000000000000000000000000000000000000000000005f82015250565b5f61038b60048361034d565b915061039682610357565b600482019050919050565b5f6103ab82610210565b6103b5818561034d565b93506103c581856020860161022a565b80840191505092915050565b50565b5f6103df5f8361034d565b91506103ea826103d1565b5f82019050919050565b7f6d696e00000000000000000000000000000000000000000000000000000000005f82015250565b5f61042860038361034d565b9150610433826103f4565b600382019050919050565b7f73656300000000000000000000000000000000000000000000000000000000005f82015250565b5f61047260038361034d565b915061047d8261043e565b600382019050919050565b5f6104938288610336565b6020820191506104a28261037f565b91506104ae82876103a1565b91506104b9826103d4565b91506104c58286610336565b6020820191506104d48261041c565b91506104e082856103a1565b91506104eb826103d4565b91506104f78284610336565b60208201915061050682610466565b91508190509695505050505050565b5f6105208286610336565b60208201915061052f8261041c565b915061053b82856103a1565b9150610546826103d4565b91506105528284610336565b60208201915061056182610466565b9150819050949350505050565b5f6105798284610336565b60208201915061058882610466565b91508190509291505056fea2646970667358221220b7e5342ece2455071bbe45f64d0ec76d3d1b2c69b359cb2361816966015ee3b164736f6c634300081a0033",
			"opcodes": "PUSH1 0x80 PUSH1 0x40 MSTORE CALLVALUE DUP1 ISZERO PUSH1 0xE JUMPI PUSH0 DUP1 REVERT JUMPDEST POP PUSH2 0x5C9 DUP1 PUSH2 0x1C PUSH0 CODECOPY PUSH0 RETURN INVALID PUSH1 0x80 PUSH1 0x40 MSTORE CALLVALUE DUP1 ISZERO PUSH2 0xF JUMPI PUSH0 DUP1 REVERT JUMPDEST POP PUSH1 0x4 CALLDATASIZE LT PUSH2 0x29 JUMPI PUSH0 CALLDATALOAD PUSH1 0xE0 SHR DUP1 PUSH4 0x28AAF9F EQ PUSH2 0x2D JUMPI JUMPDEST PUSH0 DUP1 REVERT JUMPDEST PUSH2 0x47 PUSH1 0x4 DUP1 CALLDATASIZE SUB DUP2 ADD SWAP1 PUSH2 0x42 SWAP2 SWAP1 PUSH2 0x1E5 JUMP JUMPDEST PUSH2 0x5D JUMP JUMPDEST PUSH1 0x40 MLOAD PUSH2 0x54 SWAP2 SWAP1 PUSH2 0x280 JUMP JUMPDEST PUSH1 0x40 MLOAD DUP1 SWAP2 SUB SWAP1 RETURN JUMPDEST PUSH1 0x60 PUSH0 PUSH2 0xE10 DUP4 PUSH2 0x6E SWAP2 SWAP1 PUSH2 0x2CD JUMP JUMPDEST SWAP1 POP PUSH0 PUSH1 0x3C PUSH2 0xE10 DUP6 PUSH2 0x81 SWAP2 SWAP1 PUSH2 0x2FD JUMP JUMPDEST PUSH2 0x8B SWAP2 SWAP1 PUSH2 0x2CD JUMP JUMPDEST SWAP1 POP PUSH0 PUSH1 0x3C DUP6 PUSH2 0x9B SWAP2 SWAP1 PUSH2 0x2FD JUMP JUMPDEST SWAP1 POP PUSH0 DUP4 GT ISZERO PUSH2 0xE7 JUMPI DUP3 PUSH2 0xAF DUP5 PUSH2 0x150 JUMP JUMPDEST DUP4 PUSH2 0xB9 DUP6 PUSH2 0x150 JUMP JUMPDEST DUP5 PUSH1 0x40 MLOAD PUSH1 0x20 ADD PUSH2 0xCE SWAP6 SWAP5 SWAP4 SWAP3 SWAP2 SWAP1 PUSH2 0x488 JUMP JUMPDEST PUSH1 0x40 MLOAD PUSH1 0x20 DUP2 DUP4 SUB SUB DUP2 MSTORE SWAP1 PUSH1 0x40 MSTORE SWAP4 POP POP POP POP PUSH2 0x14B JUMP JUMPDEST PUSH0 DUP3 GT ISZERO PUSH2 0x125 JUMPI DUP2 PUSH2 0xF9 DUP4 PUSH2 0x150 JUMP JUMPDEST DUP3 PUSH1 0x40 MLOAD PUSH1 0x20 ADD PUSH2 0x10C SWAP4 SWAP3 SWAP2 SWAP1 PUSH2 0x515 JUMP JUMPDEST PUSH1 0x40 MLOAD PUSH1 0x20 DUP2 DUP4 SUB SUB DUP2 MSTORE SWAP1 PUSH1 0x40 MSTORE SWAP4 POP POP POP POP PUSH2 0x14B JUMP JUMPDEST DUP1 PUSH1 0x40 MLOAD PUSH1 0x20 ADD PUSH2 0x136 SWAP2 SWAP1 PUSH2 0x56E JUMP JUMPDEST PUSH1 0x40 MLOAD PUSH1 0x20 DUP2 DUP4 SUB SUB DUP2 MSTORE SWAP1 PUSH1 0x40 MSTORE SWAP4 POP POP POP POP JUMPDEST SWAP2 SWAP1 POP JUMP JUMPDEST PUSH1 0x60 PUSH1 0x1 DUP3 EQ PUSH2 0x197 JUMPI PUSH1 0x40 MLOAD DUP1 PUSH1 0x40 ADD PUSH1 0x40 MSTORE DUP1 PUSH1 0x1 DUP2 MSTORE PUSH1 0x20 ADD PUSH32 0x7300000000000000000000000000000000000000000000000000000000000000 DUP2 MSTORE POP SWAP1 POP PUSH2 0x1A9 JUMP JUMPDEST PUSH1 0x40 MLOAD DUP1 PUSH1 0x20 ADD PUSH1 0x40 MSTORE DUP1 PUSH0 DUP2 MSTORE POP SWAP1 POP JUMPDEST SWAP2 SWAP1 POP JUMP JUMPDEST PUSH0 DUP1 REVERT JUMPDEST PUSH0 DUP2 SWAP1 POP SWAP2 SWAP1 POP JUMP JUMPDEST PUSH2 0x1C4 DUP2 PUSH2 0x1B2 JUMP JUMPDEST DUP2 EQ PUSH2 0x1CE JUMPI PUSH0 DUP1 REVERT JUMPDEST POP JUMP JUMPDEST PUSH0 DUP2 CALLDATALOAD SWAP1 POP PUSH2 0x1DF DUP2 PUSH2 0x1BB JUMP JUMPDEST SWAP3 SWAP2 POP POP JUMP JUMPDEST PUSH0 PUSH1 0x20 DUP3 DUP5 SUB SLT ISZERO PUSH2 0x1FA JUMPI PUSH2 0x1F9 PUSH2 0x1AE JUMP JUMPDEST JUMPDEST PUSH0 PUSH2 0x207 DUP5 DUP3 DUP6 ADD PUSH2 0x1D1 JUMP JUMPDEST SWAP2 POP POP SWAP3 SWAP2 POP POP JUMP JUMPDEST PUSH0 DUP2 MLOAD SWAP1 POP SWAP2 SWAP1 POP JUMP JUMPDEST PUSH0 DUP3 DUP3 MSTORE PUSH1 0x20 DUP3 ADD SWAP1 POP SWAP3 SWAP2 POP POP JUMP JUMPDEST DUP3 DUP2 DUP4 MCOPY PUSH0 DUP4 DUP4 ADD MSTORE POP POP POP JUMP JUMPDEST PUSH0 PUSH1 0x1F NOT PUSH1 0x1F DUP4 ADD AND SWAP1 POP SWAP2 SWAP1 POP JUMP JUMPDEST PUSH0 PUSH2 0x252 DUP3 PUSH2 0x210 JUMP JUMPDEST PUSH2 0x25C DUP2 DUP6 PUSH2 0x21A JUMP JUMPDEST SWAP4 POP PUSH2 0x26C DUP2 DUP6 PUSH1 0x20 DUP7 ADD PUSH2 0x22A JUMP JUMPDEST PUSH2 0x275 DUP2 PUSH2 0x238 JUMP JUMPDEST DUP5 ADD SWAP2 POP POP SWAP3 SWAP2 POP POP JUMP JUMPDEST PUSH0 PUSH1 0x20 DUP3 ADD SWAP1 POP DUP2 DUP2 SUB PUSH0 DUP4 ADD MSTORE PUSH2 0x298 DUP2 DUP5 PUSH2 0x248 JUMP JUMPDEST SWAP1 POP SWAP3 SWAP2 POP POP JUMP JUMPDEST PUSH32 0x4E487B7100000000000000000000000000000000000000000000000000000000 PUSH0 MSTORE PUSH1 0x12 PUSH1 0x4 MSTORE PUSH1 0x24 PUSH0 REVERT JUMPDEST PUSH0 PUSH2 0x2D7 DUP3 PUSH2 0x1B2 JUMP JUMPDEST SWAP2 POP PUSH2 0x2E2 DUP4 PUSH2 0x1B2 JUMP JUMPDEST SWAP3 POP DUP3 PUSH2 0x2F2 JUMPI PUSH2 0x2F1 PUSH2 0x2A0 JUMP JUMPDEST JUMPDEST DUP3 DUP3 DIV SWAP1 POP SWAP3 SWAP2 POP POP JUMP JUMPDEST PUSH0 PUSH2 0x307 DUP3 PUSH2 0x1B2 JUMP JUMPDEST SWAP2 POP PUSH2 0x312 DUP4 PUSH2 0x1B2 JUMP JUMPDEST SWAP3 POP DUP3 PUSH2 0x322 JUMPI PUSH2 0x321 PUSH2 0x2A0 JUMP JUMPDEST JUMPDEST DUP3 DUP3 MOD SWAP1 POP SWAP3 SWAP2 POP POP JUMP JUMPDEST PUSH0 DUP2 SWAP1 POP SWAP2 SWAP1 POP JUMP JUMPDEST PUSH2 0x347 PUSH2 0x342 DUP3 PUSH2 0x1B2 JUMP JUMPDEST PUSH2 0x32D JUMP JUMPDEST DUP3 MSTORE POP POP JUMP JUMPDEST PUSH0 DUP2 SWAP1 POP SWAP3 SWAP2 POP POP JUMP JUMPDEST PUSH32 0x686F757200000000000000000000000000000000000000000000000000000000 PUSH0 DUP3 ADD MSTORE POP JUMP JUMPDEST PUSH0 PUSH2 0x38B PUSH1 0x4 DUP4 PUSH2 0x34D JUMP JUMPDEST SWAP2 POP PUSH2 0x396 DUP3 PUSH2 0x357 JUMP JUMPDEST PUSH1 0x4 DUP3 ADD SWAP1 POP SWAP2 SWAP1 POP JUMP JUMPDEST PUSH0 PUSH2 0x3AB DUP3 PUSH2 0x210 JUMP JUMPDEST PUSH2 0x3B5 DUP2 DUP6 PUSH2 0x34D JUMP JUMPDEST SWAP4 POP PUSH2 0x3C5 DUP2 DUP6 PUSH1 0x20 DUP7 ADD PUSH2 0x22A JUMP JUMPDEST DUP1 DUP5 ADD SWAP2 POP POP SWAP3 SWAP2 POP POP JUMP JUMPDEST POP JUMP JUMPDEST PUSH0 PUSH2 0x3DF PUSH0 DUP4 PUSH2 0x34D JUMP JUMPDEST SWAP2 POP PUSH2 0x3EA DUP3 PUSH2 0x3D1 JUMP JUMPDEST PUSH0 DUP3 ADD SWAP1 POP SWAP2 SWAP1 POP JUMP JUMPDEST PUSH32 0x6D696E0000000000000000000000000000000000000000000000000000000000 PUSH0 DUP3 ADD MSTORE POP JUMP JUMPDEST PUSH0 PUSH2 0x428 PUSH1 0x3 DUP4 PUSH2 0x34D JUMP JUMPDEST SWAP2 POP PUSH2 0x433 DUP3 PUSH2 0x3F4 JUMP JUMPDEST PUSH1 0x3 DUP3 ADD SWAP1 POP SWAP2 SWAP1 POP JUMP JUMPDEST PUSH32 0x7365630000000000000000000000000000000000000000000000000000000000 PUSH0 DUP3 ADD MSTORE POP JUMP JUMPDEST PUSH0 PUSH2 0x472 PUSH1 0x3 DUP4 PUSH2 0x34D JUMP JUMPDEST SWAP2 POP PUSH2 0x47D DUP3 PUSH2 0x43E JUMP JUMPDEST PUSH1 0x3 DUP3 ADD SWAP1 POP SWAP2 SWAP1 POP JUMP JUMPDEST PUSH0 PUSH2 0x493 DUP3 DUP9 PUSH2 0x336 JUMP JUMPDEST PUSH1 0x20 DUP3 ADD SWAP2 POP PUSH2 0x4A2 DUP3 PUSH2 0x37F JUMP JUMPDEST SWAP2 POP PUSH2 0x4AE DUP3 DUP8 PUSH2 0x3A1 JUMP JUMPDEST SWAP2 POP PUSH2 0x4B9 DUP3 PUSH2 0x3D4 JUMP JUMPDEST SWAP2 POP PUSH2 0x4C5 DUP3 DUP7 PUSH2 0x336 JUMP JUMPDEST PUSH1 0x20 DUP3 ADD SWAP2 POP PUSH2 0x4D4 DUP3 PUSH2 0x41C JUMP JUMPDEST SWAP2 POP PUSH2 0x4E0 DUP3 DUP6 PUSH2 0x3A1 JUMP JUMPDEST SWAP2 POP PUSH2 0x4EB DUP3 PUSH2 0x3D4 JUMP JUMPDEST SWAP2 POP PUSH2 0x4F7 DUP3 DUP5 PUSH2 0x336 JUMP JUMPDEST PUSH1 0x20 DUP3 ADD SWAP2 POP PUSH2 0x506 DUP3 PUSH2 0x466 JUMP JUMPDEST SWAP2 POP DUP2 SWAP1 POP SWAP7 SWAP6 POP POP POP POP POP POP JUMP JUMPDEST PUSH0 PUSH2 0x520 DUP3 DUP7 PUSH2 0x336 JUMP JUMPDEST PUSH1 0x20 DUP3 ADD SWAP2 POP PUSH2 0x52F DUP3 PUSH2 0x41C JUMP JUMPDEST SWAP2 POP PUSH2 0x53B DUP3 DUP6 PUSH2 0x3A1 JUMP JUMPDEST SWAP2 POP PUSH2 0x546 DUP3 PUSH2 0x3D4 JUMP JUMPDEST SWAP2 POP PUSH2 0x552 DUP3 DUP5 PUSH2 0x336 JUMP JUMPDEST PUSH1 0x20 DUP3 ADD SWAP2 POP PUSH2 0x561 DUP3 PUSH2 0x466 JUMP JUMPDEST SWAP2 POP DUP2 SWAP1 POP SWAP5 SWAP4 POP POP POP POP JUMP JUMPDEST PUSH0 PUSH2 0x579 DUP3 DUP5 PUSH2 0x336 JUMP JUMPDEST PUSH1 0x20 DUP3 ADD SWAP2 POP PUSH2 0x588 DUP3 PUSH2 0x466 JUMP JUMPDEST SWAP2 POP DUP2 SWAP1 POP SWAP3 SWAP2 POP POP JUMP INVALID LOG2 PUSH5 0x6970667358 0x22 SLT KECCAK256 0xB7 0xE5 CALLVALUE 0x2E 0xCE 0x24 SSTORE SMOD SHL 0xBE GASLIMIT 0xF6 0x4D 0xE 0xC7 PUSH14 0x3D1B2C69B359CB2361816966015E 0xE3 0xB1 PUSH5 0x736F6C6343 STOP ADDMOD BYTE STOP CALLER "
		},
		"gasEstimates": {
			"creation": {
				"codeDepositCost": "296200",
				"executionCost": "335",
				"totalCost": "296535"
			},
			"external": {
				"convertSeconds(uint256)": "infinite"
			},
			"internal": {
				"time(uint256)": "infinite"
			}
		},
		"methodIdentifiers": {
			"convertSeconds(uint256)": "028aaf9f"
		}
	},
	"abi": [
		{
			"inputs": [
				{
					"internalType": "uint256",
					"name": "_n",
					"type": "uint256"
				}
			],
			"name": "convertSeconds",
			"outputs": [
				{
					"internalType": "string",
					"name": "",
					"type": "string"
				}
			],
			"stateMutability": "pure",
			"type": "function"
		}
	]
}