{
	"cordingtest/cordingtest7.sol": {
		"Test3": {
			"abi": [
				{
					"inputs": [],
					"stateMutability": "nonpayable",
					"type": "constructor"
				},
				{
					"inputs": [],
					"name": "accelerate",
					"outputs": [],
					"stateMutability": "nonpayable",
					"type": "function"
				},
				{
					"inputs": [],
					"name": "brake",
					"outputs": [],
					"stateMutability": "nonpayable",
					"type": "function"
				},
				{
					"inputs": [],
					"name": "engineStatus",
					"outputs": [
						{
							"internalType": "bool",
							"name": "",
							"type": "bool"
						}
					],
					"stateMutability": "view",
					"type": "function"
				},
				{
					"inputs": [],
					"name": "fuel",
					"outputs": [
						{
							"internalType": "uint256",
							"name": "",
							"type": "uint256"
						}
					],
					"stateMutability": "view",
					"type": "function"
				},
				{
					"inputs": [],
					"name": "prepaidBalance",
					"outputs": [
						{
							"internalType": "uint256",
							"name": "",
							"type": "uint256"
						}
					],
					"stateMutability": "view",
					"type": "function"
				},
				{
					"inputs": [],
					"name": "prepay",
					"outputs": [],
					"stateMutability": "payable",
					"type": "function"
				},
				{
					"inputs": [],
					"name": "refuel",
					"outputs": [],
					"stateMutability": "payable",
					"type": "function"
				},
				{
					"inputs": [],
					"name": "speed",
					"outputs": [
						{
							"internalType": "uint256",
							"name": "",
							"type": "uint256"
						}
					],
					"stateMutability": "view",
					"type": "function"
				},
				{
					"inputs": [],
					"name": "turnOffEngine",
					"outputs": [],
					"stateMutability": "nonpayable",
					"type": "function"
				},
				{
					"inputs": [],
					"name": "turnOnEngine",
					"outputs": [],
					"stateMutability": "nonpayable",
					"type": "function"
				}
			],
			"devdoc": {
				"kind": "dev",
				"methods": {},
				"version": 1
			},
			"evm": {
				"assembly": "    /* \"cordingtest/cordingtest7.sol\":72:2378  contract Test3 {... */\n  mstore(0x40, 0x80)\n    /* \"cordingtest/cordingtest7.sol\":1090:1208  constructor() {... */\n  callvalue\n  dup1\n  iszero\n  tag_1\n  jumpi\n  0x00\n  dup1\n  revert\ntag_1:\n  pop\n    /* \"cordingtest/cordingtest7.sol\":1122:1123  0 */\n  0x00\n    /* \"cordingtest/cordingtest7.sol\":1114:1119  speed */\n  dup1\n    /* \"cordingtest/cordingtest7.sol\":1114:1123  speed = 0 */\n  dup2\n  swap1\n  sstore\n  pop\n    /* \"cordingtest/cordingtest7.sol\":1140:1143  100 */\n  0x64\n    /* \"cordingtest/cordingtest7.sol\":1133:1137  fuel */\n  0x01\n    /* \"cordingtest/cordingtest7.sol\":1133:1143  fuel = 100 */\n  dup2\n  swap1\n  sstore\n  pop\n    /* \"cordingtest/cordingtest7.sol\":1168:1173  false */\n  0x00\n    /* \"cordingtest/cordingtest7.sol\":1153:1165  engineStatus */\n  0x02\n  0x00\n    /* \"cordingtest/cordingtest7.sol\":1153:1173  engineStatus = false */\n  0x0100\n  exp\n  dup2\n  sload\n  dup2\n  0xff\n  mul\n  not\n  and\n  swap1\n  dup4\n  iszero\n  iszero\n  mul\n  or\n  swap1\n  sstore\n  pop\n    /* \"cordingtest/cordingtest7.sol\":1200:1201  0 */\n  0x00\n    /* \"cordingtest/cordingtest7.sol\":1183:1197  prepaidBalance */\n  0x03\n    /* \"cordingtest/cordingtest7.sol\":1183:1201  prepaidBalance = 0 */\n  dup2\n  swap1\n  sstore\n  pop\n    /* \"cordingtest/cordingtest7.sol\":72:2378  contract Test3 {... */\n  dataSize(sub_0)\n  dup1\n  dataOffset(sub_0)\n  0x00\n  codecopy\n  0x00\n  return\nstop\n\nsub_0: assembly {\n        /* \"cordingtest/cordingtest7.sol\":72:2378  contract Test3 {... */\n      mstore(0x40, 0x80)\n      jumpi(tag_1, lt(calldatasize, 0x04))\n      shr(0xe0, calldataload(0x00))\n      dup1\n      0x5642e2dc\n      gt\n      tag_12\n      jumpi\n      dup1\n      0x5642e2dc\n      eq\n      tag_7\n      jumpi\n      dup1\n      0x5b04d6b6\n      eq\n      tag_8\n      jumpi\n      dup1\n      0x8044f7e6\n      eq\n      tag_9\n      jumpi\n      dup1\n      0xae7579f3\n      eq\n      tag_10\n      jumpi\n      dup1\n      0xc20906ac\n      eq\n      tag_11\n      jumpi\n      jump(tag_1)\n    tag_12:\n      dup1\n      0x06503fd3\n      eq\n      tag_2\n      jumpi\n      dup1\n      0x1842447d\n      eq\n      tag_3\n      jumpi\n      dup1\n      0x279bad16\n      eq\n      tag_4\n      jumpi\n      dup1\n      0x34fe1d1e\n      eq\n      tag_5\n      jumpi\n      dup1\n      0x4c1ec9aa\n      eq\n      tag_6\n      jumpi\n    tag_1:\n      0x00\n      dup1\n      revert\n        /* \"cordingtest/cordingtest7.sol\":994:1018  bool public engineStatus */\n    tag_2:\n      callvalue\n      dup1\n      iszero\n      tag_13\n      jumpi\n      0x00\n      dup1\n      revert\n    tag_13:\n      pop\n      tag_14\n      tag_15\n      jump\t// in\n    tag_14:\n      mload(0x40)\n      tag_16\n      swap2\n      swap1\n      tag_17\n      jump\t// in\n    tag_16:\n      mload(0x40)\n      dup1\n      swap2\n      sub\n      swap1\n      return\n        /* \"cordingtest/cordingtest7.sol\":2159:2226  function turnOnEngine() public {... */\n    tag_3:\n      callvalue\n      dup1\n      iszero\n      tag_18\n      jumpi\n      0x00\n      dup1\n      revert\n    tag_18:\n      pop\n      tag_19\n      tag_20\n      jump\t// in\n    tag_19:\n      stop\n        /* \"cordingtest/cordingtest7.sol\":972:988  uint public fuel */\n    tag_4:\n      callvalue\n      dup1\n      iszero\n      tag_21\n      jumpi\n      0x00\n      dup1\n      revert\n    tag_21:\n      pop\n      tag_22\n      tag_23\n      jump\t// in\n    tag_22:\n      mload(0x40)\n      tag_24\n      swap2\n      swap1\n      tag_25\n      jump\t// in\n    tag_24:\n      mload(0x40)\n      dup1\n      swap2\n      sub\n      swap1\n      return\n        /* \"cordingtest/cordingtest7.sol\":2232:2376  function prepay() public payable {... */\n    tag_5:\n      tag_26\n      tag_27\n      jump\t// in\n    tag_26:\n      stop\n        /* \"cordingtest/cordingtest7.sol\":1447:1729  function refuel() public payable {... */\n    tag_6:\n      tag_28\n      tag_29\n      jump\t// in\n    tag_28:\n      stop\n        /* \"cordingtest/cordingtest7.sol\":1735:2006  function brake() public {... */\n    tag_7:\n      callvalue\n      dup1\n      iszero\n      tag_30\n      jumpi\n      0x00\n      dup1\n      revert\n    tag_30:\n      pop\n      tag_31\n      tag_32\n      jump\t// in\n    tag_31:\n      stop\n        /* \"cordingtest/cordingtest7.sol\":1054:1083  uint256 public prepaidBalance */\n    tag_8:\n      callvalue\n      dup1\n      iszero\n      tag_33\n      jumpi\n      0x00\n      dup1\n      revert\n    tag_33:\n      pop\n      tag_34\n      tag_35\n      jump\t// in\n    tag_34:\n      mload(0x40)\n      tag_36\n      swap2\n      swap1\n      tag_25\n      jump\t// in\n    tag_36:\n      mload(0x40)\n      dup1\n      swap2\n      sub\n      swap1\n      return\n        /* \"cordingtest/cordingtest7.sol\":2012:2153  function turnOffEngine() public {... */\n    tag_9:\n      callvalue\n      dup1\n      iszero\n      tag_37\n      jumpi\n      0x00\n      dup1\n      revert\n    tag_37:\n      pop\n      tag_38\n      tag_39\n      jump\t// in\n    tag_38:\n      stop\n        /* \"cordingtest/cordingtest7.sol\":1214:1445  function accelerate() public {... */\n    tag_10:\n      callvalue\n      dup1\n      iszero\n      tag_40\n      jumpi\n      0x00\n      dup1\n      revert\n    tag_40:\n      pop\n      tag_41\n      tag_42\n      jump\t// in\n    tag_41:\n      stop\n        /* \"cordingtest/cordingtest7.sol\":949:966  uint public speed */\n    tag_11:\n      callvalue\n      dup1\n      iszero\n      tag_43\n      jumpi\n      0x00\n      dup1\n      revert\n    tag_43:\n      pop\n      tag_44\n      tag_45\n      jump\t// in\n    tag_44:\n      mload(0x40)\n      tag_46\n      swap2\n      swap1\n      tag_25\n      jump\t// in\n    tag_46:\n      mload(0x40)\n      dup1\n      swap2\n      sub\n      swap1\n      return\n        /* \"cordingtest/cordingtest7.sol\":994:1018  bool public engineStatus */\n    tag_15:\n      0x02\n      0x00\n      swap1\n      sload\n      swap1\n      0x0100\n      exp\n      swap1\n      div\n      0xff\n      and\n      dup2\n      jump\t// out\n        /* \"cordingtest/cordingtest7.sol\":2159:2226  function turnOnEngine() public {... */\n    tag_20:\n        /* \"cordingtest/cordingtest7.sol\":2215:2219  true */\n      0x01\n        /* \"cordingtest/cordingtest7.sol\":2200:2212  engineStatus */\n      0x02\n      0x00\n        /* \"cordingtest/cordingtest7.sol\":2200:2219  engineStatus = true */\n      0x0100\n      exp\n      dup2\n      sload\n      dup2\n      0xff\n      mul\n      not\n      and\n      swap1\n      dup4\n      iszero\n      iszero\n      mul\n      or\n      swap1\n      sstore\n      pop\n        /* \"cordingtest/cordingtest7.sol\":2159:2226  function turnOnEngine() public {... */\n      jump\t// out\n        /* \"cordingtest/cordingtest7.sol\":972:988  uint public fuel */\n    tag_23:\n      sload(0x01)\n      dup2\n      jump\t// out\n        /* \"cordingtest/cordingtest7.sol\":2232:2376  function prepay() public payable {... */\n    tag_27:\n        /* \"cordingtest/cordingtest7.sol\":2295:2296  0 */\n      0x00\n        /* \"cordingtest/cordingtest7.sol\":2283:2292  msg.value */\n      callvalue\n        /* \"cordingtest/cordingtest7.sol\":2283:2296  msg.value > 0 */\n      gt\n        /* \"cordingtest/cordingtest7.sol\":2275:2331  require(msg.value > 0, \"Payment must be greater than 0\") */\n      tag_49\n      jumpi\n      mload(0x40)\n      0x08c379a000000000000000000000000000000000000000000000000000000000\n      dup2\n      mstore\n      0x04\n      add\n      tag_50\n      swap1\n      tag_51\n      jump\t// in\n    tag_50:\n      mload(0x40)\n      dup1\n      swap2\n      sub\n      swap1\n      revert\n    tag_49:\n        /* \"cordingtest/cordingtest7.sol\":2360:2369  msg.value */\n      callvalue\n        /* \"cordingtest/cordingtest7.sol\":2342:2356  prepaidBalance */\n      0x03\n      0x00\n        /* \"cordingtest/cordingtest7.sol\":2342:2369  prepaidBalance += msg.value */\n      dup3\n      dup3\n      sload\n      tag_52\n      swap2\n      swap1\n      tag_53\n      jump\t// in\n    tag_52:\n      swap3\n      pop\n      pop\n      dup2\n      swap1\n      sstore\n      pop\n        /* \"cordingtest/cordingtest7.sol\":2232:2376  function prepay() public payable {... */\n      jump\t// out\n        /* \"cordingtest/cordingtest7.sol\":1447:1729  function refuel() public payable {... */\n    tag_29:\n        /* \"cordingtest/cordingtest7.sol\":1507:1514  1 ether */\n      0x0de0b6b3a7640000\n        /* \"cordingtest/cordingtest7.sol\":1494:1503  msg.value */\n      callvalue\n        /* \"cordingtest/cordingtest7.sol\":1494:1514  msg.value == 1 ether */\n      sub\n        /* \"cordingtest/cordingtest7.sol\":1490:1723  if (msg.value == 1 ether) {... */\n      tag_55\n      jumpi\n        /* \"cordingtest/cordingtest7.sol\":1537:1540  100 */\n      0x64\n        /* \"cordingtest/cordingtest7.sol\":1530:1534  fuel */\n      0x01\n        /* \"cordingtest/cordingtest7.sol\":1530:1540  fuel = 100 */\n      dup2\n      swap1\n      sstore\n      pop\n        /* \"cordingtest/cordingtest7.sol\":1490:1723  if (msg.value == 1 ether) {... */\n      jump(tag_56)\n    tag_55:\n        /* \"cordingtest/cordingtest7.sol\":1579:1586  1 ether */\n      0x0de0b6b3a7640000\n        /* \"cordingtest/cordingtest7.sol\":1561:1575  prepaidBalance */\n      sload(0x03)\n        /* \"cordingtest/cordingtest7.sol\":1561:1586  prepaidBalance >= 1 ether */\n      lt\n        /* \"cordingtest/cordingtest7.sol\":1557:1723  if (prepaidBalance >= 1 ether) {... */\n      tag_57\n      jumpi\n        /* \"cordingtest/cordingtest7.sol\":1620:1627  1 ether */\n      0x0de0b6b3a7640000\n        /* \"cordingtest/cordingtest7.sol\":1602:1616  prepaidBalance */\n      0x03\n      0x00\n        /* \"cordingtest/cordingtest7.sol\":1602:1627  prepaidBalance -= 1 ether */\n      dup3\n      dup3\n      sload\n      tag_58\n      swap2\n      swap1\n      tag_59\n      jump\t// in\n    tag_58:\n      swap3\n      pop\n      pop\n      dup2\n      swap1\n      sstore\n      pop\n        /* \"cordingtest/cordingtest7.sol\":1648:1651  100 */\n      0x64\n        /* \"cordingtest/cordingtest7.sol\":1641:1645  fuel */\n      0x01\n        /* \"cordingtest/cordingtest7.sol\":1641:1651  fuel = 100 */\n      dup2\n      swap1\n      sstore\n      pop\n        /* \"cordingtest/cordingtest7.sol\":1557:1723  if (prepaidBalance >= 1 ether) {... */\n      jump(tag_60)\n    tag_57:\n        /* \"cordingtest/cordingtest7.sol\":1682:1712  revert(\"Insufficient payment\") */\n      mload(0x40)\n      0x08c379a000000000000000000000000000000000000000000000000000000000\n      dup2\n      mstore\n      0x04\n      add\n      tag_61\n      swap1\n      tag_62\n      jump\t// in\n    tag_61:\n      mload(0x40)\n      dup1\n      swap2\n      sub\n      swap1\n      revert\n        /* \"cordingtest/cordingtest7.sol\":1557:1723  if (prepaidBalance >= 1 ether) {... */\n    tag_60:\n        /* \"cordingtest/cordingtest7.sol\":1490:1723  if (msg.value == 1 ether) {... */\n    tag_56:\n        /* \"cordingtest/cordingtest7.sol\":1447:1729  function refuel() public payable {... */\n      jump\t// out\n        /* \"cordingtest/cordingtest7.sol\":1735:2006  function brake() public {... */\n    tag_32:\n        /* \"cordingtest/cordingtest7.sol\":1793:1797  true */\n      0x01\n        /* \"cordingtest/cordingtest7.sol\":1777:1797  engineStatus == true */\n      iszero\n      iszero\n        /* \"cordingtest/cordingtest7.sol\":1777:1789  engineStatus */\n      0x02\n      0x00\n      swap1\n      sload\n      swap1\n      0x0100\n      exp\n      swap1\n      div\n      0xff\n      and\n        /* \"cordingtest/cordingtest7.sol\":1777:1797  engineStatus == true */\n      iszero\n      iszero\n      eq\n        /* \"cordingtest/cordingtest7.sol\":1769:1815  require(engineStatus == true, \"Engine is off\") */\n      tag_64\n      jumpi\n      mload(0x40)\n      0x08c379a000000000000000000000000000000000000000000000000000000000\n      dup2\n      mstore\n      0x04\n      add\n      tag_65\n      swap1\n      tag_66\n      jump\t// in\n    tag_65:\n      mload(0x40)\n      dup1\n      swap2\n      sub\n      swap1\n      revert\n    tag_64:\n        /* \"cordingtest/cordingtest7.sol\":1841:1842  0 */\n      0x00\n        /* \"cordingtest/cordingtest7.sol\":1833:1838  speed */\n      dup1\n      sload\n        /* \"cordingtest/cordingtest7.sol\":1833:1842  speed > 0 */\n      gt\n        /* \"cordingtest/cordingtest7.sol\":1825:1869  require(speed > 0, \"Car is already stopped\") */\n      tag_67\n      jumpi\n      mload(0x40)\n      0x08c379a000000000000000000000000000000000000000000000000000000000\n      dup2\n      mstore\n      0x04\n      add\n      tag_68\n      swap1\n      tag_69\n      jump\t// in\n    tag_68:\n      mload(0x40)\n      dup1\n      swap2\n      sub\n      swap1\n      revert\n    tag_67:\n        /* \"cordingtest/cordingtest7.sol\":1892:1894  10 */\n      0x0a\n        /* \"cordingtest/cordingtest7.sol\":1884:1889  speed */\n      sload(0x00)\n        /* \"cordingtest/cordingtest7.sol\":1884:1894  speed < 10 */\n      lt\n        /* \"cordingtest/cordingtest7.sol\":1880:1972  if (speed < 10) {... */\n      iszero\n      tag_70\n      jumpi\n        /* \"cordingtest/cordingtest7.sol\":1918:1919  0 */\n      0x00\n        /* \"cordingtest/cordingtest7.sol\":1910:1915  speed */\n      dup1\n        /* \"cordingtest/cordingtest7.sol\":1910:1919  speed = 0 */\n      dup2\n      swap1\n      sstore\n      pop\n        /* \"cordingtest/cordingtest7.sol\":1880:1972  if (speed < 10) {... */\n      jump(tag_71)\n    tag_70:\n        /* \"cordingtest/cordingtest7.sol\":1959:1961  10 */\n      0x0a\n        /* \"cordingtest/cordingtest7.sol\":1950:1955  speed */\n      0x00\n      dup1\n        /* \"cordingtest/cordingtest7.sol\":1950:1961  speed -= 10 */\n      dup3\n      dup3\n      sload\n      tag_72\n      swap2\n      swap1\n      tag_59\n      jump\t// in\n    tag_72:\n      swap3\n      pop\n      pop\n      dup2\n      swap1\n      sstore\n      pop\n        /* \"cordingtest/cordingtest7.sol\":1880:1972  if (speed < 10) {... */\n    tag_71:\n        /* \"cordingtest/cordingtest7.sol\":1997:1999  10 */\n      0x0a\n        /* \"cordingtest/cordingtest7.sol\":1989:1993  fuel */\n      0x01\n      0x00\n        /* \"cordingtest/cordingtest7.sol\":1989:1999  fuel -= 10 */\n      dup3\n      dup3\n      sload\n      tag_73\n      swap2\n      swap1\n      tag_59\n      jump\t// in\n    tag_73:\n      swap3\n      pop\n      pop\n      dup2\n      swap1\n      sstore\n      pop\n        /* \"cordingtest/cordingtest7.sol\":1735:2006  function brake() public {... */\n      jump\t// out\n        /* \"cordingtest/cordingtest7.sol\":1054:1083  uint256 public prepaidBalance */\n    tag_35:\n      sload(0x03)\n      dup2\n      jump\t// out\n        /* \"cordingtest/cordingtest7.sol\":2012:2153  function turnOffEngine() public {... */\n    tag_39:\n        /* \"cordingtest/cordingtest7.sol\":2071:2072  0 */\n      0x00\n        /* \"cordingtest/cordingtest7.sol\":2062:2067  speed */\n      dup1\n      sload\n        /* \"cordingtest/cordingtest7.sol\":2062:2072  speed == 0 */\n      eq\n        /* \"cordingtest/cordingtest7.sol\":2054:2115  require(speed == 0, \"Car must be stopped to turn off engine\") */\n      tag_75\n      jumpi\n      mload(0x40)\n      0x08c379a000000000000000000000000000000000000000000000000000000000\n      dup2\n      mstore\n      0x04\n      add\n      tag_76\n      swap1\n      tag_77\n      jump\t// in\n    tag_76:\n      mload(0x40)\n      dup1\n      swap2\n      sub\n      swap1\n      revert\n    tag_75:\n        /* \"cordingtest/cordingtest7.sol\":2141:2146  false */\n      0x00\n        /* \"cordingtest/cordingtest7.sol\":2126:2138  engineStatus */\n      0x02\n      0x00\n        /* \"cordingtest/cordingtest7.sol\":2126:2146  engineStatus = false */\n      0x0100\n      exp\n      dup2\n      sload\n      dup2\n      0xff\n      mul\n      not\n      and\n      swap1\n      dup4\n      iszero\n      iszero\n      mul\n      or\n      swap1\n      sstore\n      pop\n        /* \"cordingtest/cordingtest7.sol\":2012:2153  function turnOffEngine() public {... */\n      jump\t// out\n        /* \"cordingtest/cordingtest7.sol\":1214:1445  function accelerate() public {... */\n    tag_42:\n        /* \"cordingtest/cordingtest7.sol\":1277:1281  true */\n      0x01\n        /* \"cordingtest/cordingtest7.sol\":1261:1281  engineStatus == true */\n      iszero\n      iszero\n        /* \"cordingtest/cordingtest7.sol\":1261:1273  engineStatus */\n      0x02\n      0x00\n      swap1\n      sload\n      swap1\n      0x0100\n      exp\n      swap1\n      div\n      0xff\n      and\n        /* \"cordingtest/cordingtest7.sol\":1261:1281  engineStatus == true */\n      iszero\n      iszero\n      eq\n        /* \"cordingtest/cordingtest7.sol\":1253:1299  require(engineStatus == true, \"Engine is off\") */\n      tag_79\n      jumpi\n      mload(0x40)\n      0x08c379a000000000000000000000000000000000000000000000000000000000\n      dup2\n      mstore\n      0x04\n      add\n      tag_80\n      swap1\n      tag_66\n      jump\t// in\n    tag_80:\n      mload(0x40)\n      dup1\n      swap2\n      sub\n      swap1\n      revert\n    tag_79:\n        /* \"cordingtest/cordingtest7.sol\":1324:1326  30 */\n      0x1e\n        /* \"cordingtest/cordingtest7.sol\":1317:1321  fuel */\n      sload(0x01)\n        /* \"cordingtest/cordingtest7.sol\":1317:1326  fuel > 30 */\n      gt\n        /* \"cordingtest/cordingtest7.sol\":1309:1346  require(fuel > 30, \"Not enough fuel\") */\n      tag_81\n      jumpi\n      mload(0x40)\n      0x08c379a000000000000000000000000000000000000000000000000000000000\n      dup2\n      mstore\n      0x04\n      add\n      tag_82\n      swap1\n      tag_83\n      jump\t// in\n    tag_82:\n      mload(0x40)\n      dup1\n      swap2\n      sub\n      swap1\n      revert\n    tag_81:\n        /* \"cordingtest/cordingtest7.sol\":1372:1374  70 */\n      0x46\n        /* \"cordingtest/cordingtest7.sol\":1364:1369  speed */\n      sload(0x00)\n        /* \"cordingtest/cordingtest7.sol\":1364:1374  speed < 70 */\n      lt\n        /* \"cordingtest/cordingtest7.sol\":1356:1396  require(speed < 70, \"Speed is too high\") */\n      tag_84\n      jumpi\n      mload(0x40)\n      0x08c379a000000000000000000000000000000000000000000000000000000000\n      dup2\n      mstore\n      0x04\n      add\n      tag_85\n      swap1\n      tag_86\n      jump\t// in\n    tag_85:\n      mload(0x40)\n      dup1\n      swap2\n      sub\n      swap1\n      revert\n    tag_84:\n        /* \"cordingtest/cordingtest7.sol\":1416:1418  10 */\n      0x0a\n        /* \"cordingtest/cordingtest7.sol\":1407:1412  speed */\n      0x00\n      dup1\n        /* \"cordingtest/cordingtest7.sol\":1407:1418  speed += 10 */\n      dup3\n      dup3\n      sload\n      tag_87\n      swap2\n      swap1\n      tag_53\n      jump\t// in\n    tag_87:\n      swap3\n      pop\n      pop\n      dup2\n      swap1\n      sstore\n      pop\n        /* \"cordingtest/cordingtest7.sol\":1436:1438  20 */\n      0x14\n        /* \"cordingtest/cordingtest7.sol\":1428:1432  fuel */\n      0x01\n      0x00\n        /* \"cordingtest/cordingtest7.sol\":1428:1438  fuel -= 20 */\n      dup3\n      dup3\n      sload\n      tag_88\n      swap2\n      swap1\n      tag_59\n      jump\t// in\n    tag_88:\n      swap3\n      pop\n      pop\n      dup2\n      swap1\n      sstore\n      pop\n        /* \"cordingtest/cordingtest7.sol\":1214:1445  function accelerate() public {... */\n      jump\t// out\n        /* \"cordingtest/cordingtest7.sol\":949:966  uint public speed */\n    tag_45:\n      sload(0x00)\n      dup2\n      jump\t// out\n        /* \"#utility.yul\":7:97   */\n    tag_89:\n        /* \"#utility.yul\":41:48   */\n      0x00\n        /* \"#utility.yul\":84:89   */\n      dup2\n        /* \"#utility.yul\":77:90   */\n      iszero\n        /* \"#utility.yul\":70:91   */\n      iszero\n        /* \"#utility.yul\":59:91   */\n      swap1\n      pop\n        /* \"#utility.yul\":7:97   */\n      swap2\n      swap1\n      pop\n      jump\t// out\n        /* \"#utility.yul\":103:212   */\n    tag_90:\n        /* \"#utility.yul\":184:205   */\n      tag_112\n        /* \"#utility.yul\":199:204   */\n      dup2\n        /* \"#utility.yul\":184:205   */\n      tag_89\n      jump\t// in\n    tag_112:\n        /* \"#utility.yul\":179:182   */\n      dup3\n        /* \"#utility.yul\":172:206   */\n      mstore\n        /* \"#utility.yul\":103:212   */\n      pop\n      pop\n      jump\t// out\n        /* \"#utility.yul\":218:428   */\n    tag_17:\n        /* \"#utility.yul\":305:309   */\n      0x00\n        /* \"#utility.yul\":343:345   */\n      0x20\n        /* \"#utility.yul\":332:341   */\n      dup3\n        /* \"#utility.yul\":328:346   */\n      add\n        /* \"#utility.yul\":320:346   */\n      swap1\n      pop\n        /* \"#utility.yul\":356:421   */\n      tag_114\n        /* \"#utility.yul\":418:419   */\n      0x00\n        /* \"#utility.yul\":407:416   */\n      dup4\n        /* \"#utility.yul\":403:420   */\n      add\n        /* \"#utility.yul\":394:400   */\n      dup5\n        /* \"#utility.yul\":356:421   */\n      tag_90\n      jump\t// in\n    tag_114:\n        /* \"#utility.yul\":218:428   */\n      swap3\n      swap2\n      pop\n      pop\n      jump\t// out\n        /* \"#utility.yul\":434:511   */\n    tag_91:\n        /* \"#utility.yul\":471:478   */\n      0x00\n        /* \"#utility.yul\":500:505   */\n      dup2\n        /* \"#utility.yul\":489:505   */\n      swap1\n      pop\n        /* \"#utility.yul\":434:511   */\n      swap2\n      swap1\n      pop\n      jump\t// out\n        /* \"#utility.yul\":517:635   */\n    tag_92:\n        /* \"#utility.yul\":604:628   */\n      tag_117\n        /* \"#utility.yul\":622:627   */\n      dup2\n        /* \"#utility.yul\":604:628   */\n      tag_91\n      jump\t// in\n    tag_117:\n        /* \"#utility.yul\":599:602   */\n      dup3\n        /* \"#utility.yul\":592:629   */\n      mstore\n        /* \"#utility.yul\":517:635   */\n      pop\n      pop\n      jump\t// out\n        /* \"#utility.yul\":641:863   */\n    tag_25:\n        /* \"#utility.yul\":734:738   */\n      0x00\n        /* \"#utility.yul\":772:774   */\n      0x20\n        /* \"#utility.yul\":761:770   */\n      dup3\n        /* \"#utility.yul\":757:775   */\n      add\n        /* \"#utility.yul\":749:775   */\n      swap1\n      pop\n        /* \"#utility.yul\":785:856   */\n      tag_119\n        /* \"#utility.yul\":853:854   */\n      0x00\n        /* \"#utility.yul\":842:851   */\n      dup4\n        /* \"#utility.yul\":838:855   */\n      add\n        /* \"#utility.yul\":829:835   */\n      dup5\n        /* \"#utility.yul\":785:856   */\n      tag_92\n      jump\t// in\n    tag_119:\n        /* \"#utility.yul\":641:863   */\n      swap3\n      swap2\n      pop\n      pop\n      jump\t// out\n        /* \"#utility.yul\":869:1038   */\n    tag_93:\n        /* \"#utility.yul\":953:964   */\n      0x00\n        /* \"#utility.yul\":987:993   */\n      dup3\n        /* \"#utility.yul\":982:985   */\n      dup3\n        /* \"#utility.yul\":975:994   */\n      mstore\n        /* \"#utility.yul\":1027:1031   */\n      0x20\n        /* \"#utility.yul\":1022:1025   */\n      dup3\n        /* \"#utility.yul\":1018:1032   */\n      add\n        /* \"#utility.yul\":1003:1032   */\n      swap1\n      pop\n        /* \"#utility.yul\":869:1038   */\n      swap3\n      swap2\n      pop\n      pop\n      jump\t// out\n        /* \"#utility.yul\":1044:1224   */\n    tag_94:\n        /* \"#utility.yul\":1184:1216   */\n      0x5061796d656e74206d7573742062652067726561746572207468616e20300000\n        /* \"#utility.yul\":1180:1181   */\n      0x00\n        /* \"#utility.yul\":1172:1178   */\n      dup3\n        /* \"#utility.yul\":1168:1182   */\n      add\n        /* \"#utility.yul\":1161:1217   */\n      mstore\n        /* \"#utility.yul\":1044:1224   */\n      pop\n      jump\t// out\n        /* \"#utility.yul\":1230:1596   */\n    tag_95:\n        /* \"#utility.yul\":1372:1375   */\n      0x00\n        /* \"#utility.yul\":1393:1460   */\n      tag_123\n        /* \"#utility.yul\":1457:1459   */\n      0x1e\n        /* \"#utility.yul\":1452:1455   */\n      dup4\n        /* \"#utility.yul\":1393:1460   */\n      tag_93\n      jump\t// in\n    tag_123:\n        /* \"#utility.yul\":1386:1460   */\n      swap2\n      pop\n        /* \"#utility.yul\":1469:1562   */\n      tag_124\n        /* \"#utility.yul\":1558:1561   */\n      dup3\n        /* \"#utility.yul\":1469:1562   */\n      tag_94\n      jump\t// in\n    tag_124:\n        /* \"#utility.yul\":1587:1589   */\n      0x20\n        /* \"#utility.yul\":1582:1585   */\n      dup3\n        /* \"#utility.yul\":1578:1590   */\n      add\n        /* \"#utility.yul\":1571:1590   */\n      swap1\n      pop\n        /* \"#utility.yul\":1230:1596   */\n      swap2\n      swap1\n      pop\n      jump\t// out\n        /* \"#utility.yul\":1602:2021   */\n    tag_51:\n        /* \"#utility.yul\":1768:1772   */\n      0x00\n        /* \"#utility.yul\":1806:1808   */\n      0x20\n        /* \"#utility.yul\":1795:1804   */\n      dup3\n        /* \"#utility.yul\":1791:1809   */\n      add\n        /* \"#utility.yul\":1783:1809   */\n      swap1\n      pop\n        /* \"#utility.yul\":1855:1864   */\n      dup2\n        /* \"#utility.yul\":1849:1853   */\n      dup2\n        /* \"#utility.yul\":1845:1865   */\n      sub\n        /* \"#utility.yul\":1841:1842   */\n      0x00\n        /* \"#utility.yul\":1830:1839   */\n      dup4\n        /* \"#utility.yul\":1826:1843   */\n      add\n        /* \"#utility.yul\":1819:1866   */\n      mstore\n        /* \"#utility.yul\":1883:2014   */\n      tag_126\n        /* \"#utility.yul\":2009:2013   */\n      dup2\n        /* \"#utility.yul\":1883:2014   */\n      tag_95\n      jump\t// in\n    tag_126:\n        /* \"#utility.yul\":1875:2014   */\n      swap1\n      pop\n        /* \"#utility.yul\":1602:2021   */\n      swap2\n      swap1\n      pop\n      jump\t// out\n        /* \"#utility.yul\":2027:2207   */\n    tag_96:\n        /* \"#utility.yul\":2075:2152   */\n      0x4e487b7100000000000000000000000000000000000000000000000000000000\n        /* \"#utility.yul\":2072:2073   */\n      0x00\n        /* \"#utility.yul\":2065:2153   */\n      mstore\n        /* \"#utility.yul\":2172:2176   */\n      0x11\n        /* \"#utility.yul\":2169:2170   */\n      0x04\n        /* \"#utility.yul\":2162:2177   */\n      mstore\n        /* \"#utility.yul\":2196:2200   */\n      0x24\n        /* \"#utility.yul\":2193:2194   */\n      0x00\n        /* \"#utility.yul\":2186:2201   */\n      revert\n        /* \"#utility.yul\":2213:2404   */\n    tag_53:\n        /* \"#utility.yul\":2253:2256   */\n      0x00\n        /* \"#utility.yul\":2272:2292   */\n      tag_129\n        /* \"#utility.yul\":2290:2291   */\n      dup3\n        /* \"#utility.yul\":2272:2292   */\n      tag_91\n      jump\t// in\n    tag_129:\n        /* \"#utility.yul\":2267:2292   */\n      swap2\n      pop\n        /* \"#utility.yul\":2306:2326   */\n      tag_130\n        /* \"#utility.yul\":2324:2325   */\n      dup4\n        /* \"#utility.yul\":2306:2326   */\n      tag_91\n      jump\t// in\n    tag_130:\n        /* \"#utility.yul\":2301:2326   */\n      swap3\n      pop\n        /* \"#utility.yul\":2349:2350   */\n      dup3\n        /* \"#utility.yul\":2346:2347   */\n      dup3\n        /* \"#utility.yul\":2342:2351   */\n      add\n        /* \"#utility.yul\":2335:2351   */\n      swap1\n      pop\n        /* \"#utility.yul\":2370:2373   */\n      dup1\n        /* \"#utility.yul\":2367:2368   */\n      dup3\n        /* \"#utility.yul\":2364:2374   */\n      gt\n        /* \"#utility.yul\":2361:2397   */\n      iszero\n      tag_131\n      jumpi\n        /* \"#utility.yul\":2377:2395   */\n      tag_132\n      tag_96\n      jump\t// in\n    tag_132:\n        /* \"#utility.yul\":2361:2397   */\n    tag_131:\n        /* \"#utility.yul\":2213:2404   */\n      swap3\n      swap2\n      pop\n      pop\n      jump\t// out\n        /* \"#utility.yul\":2410:2604   */\n    tag_59:\n        /* \"#utility.yul\":2450:2454   */\n      0x00\n        /* \"#utility.yul\":2470:2490   */\n      tag_134\n        /* \"#utility.yul\":2488:2489   */\n      dup3\n        /* \"#utility.yul\":2470:2490   */\n      tag_91\n      jump\t// in\n    tag_134:\n        /* \"#utility.yul\":2465:2490   */\n      swap2\n      pop\n        /* \"#utility.yul\":2504:2524   */\n      tag_135\n        /* \"#utility.yul\":2522:2523   */\n      dup4\n        /* \"#utility.yul\":2504:2524   */\n      tag_91\n      jump\t// in\n    tag_135:\n        /* \"#utility.yul\":2499:2524   */\n      swap3\n      pop\n        /* \"#utility.yul\":2548:2549   */\n      dup3\n        /* \"#utility.yul\":2545:2546   */\n      dup3\n        /* \"#utility.yul\":2541:2550   */\n      sub\n        /* \"#utility.yul\":2533:2550   */\n      swap1\n      pop\n        /* \"#utility.yul\":2572:2573   */\n      dup2\n        /* \"#utility.yul\":2566:2570   */\n      dup2\n        /* \"#utility.yul\":2563:2574   */\n      gt\n        /* \"#utility.yul\":2560:2597   */\n      iszero\n      tag_136\n      jumpi\n        /* \"#utility.yul\":2577:2595   */\n      tag_137\n      tag_96\n      jump\t// in\n    tag_137:\n        /* \"#utility.yul\":2560:2597   */\n    tag_136:\n        /* \"#utility.yul\":2410:2604   */\n      swap3\n      swap2\n      pop\n      pop\n      jump\t// out\n        /* \"#utility.yul\":2610:2780   */\n    tag_97:\n        /* \"#utility.yul\":2750:2772   */\n      0x496e73756666696369656e74207061796d656e74000000000000000000000000\n        /* \"#utility.yul\":2746:2747   */\n      0x00\n        /* \"#utility.yul\":2738:2744   */\n      dup3\n        /* \"#utility.yul\":2734:2748   */\n      add\n        /* \"#utility.yul\":2727:2773   */\n      mstore\n        /* \"#utility.yul\":2610:2780   */\n      pop\n      jump\t// out\n        /* \"#utility.yul\":2786:3152   */\n    tag_98:\n        /* \"#utility.yul\":2928:2931   */\n      0x00\n        /* \"#utility.yul\":2949:3016   */\n      tag_140\n        /* \"#utility.yul\":3013:3015   */\n      0x14\n        /* \"#utility.yul\":3008:3011   */\n      dup4\n        /* \"#utility.yul\":2949:3016   */\n      tag_93\n      jump\t// in\n    tag_140:\n        /* \"#utility.yul\":2942:3016   */\n      swap2\n      pop\n        /* \"#utility.yul\":3025:3118   */\n      tag_141\n        /* \"#utility.yul\":3114:3117   */\n      dup3\n        /* \"#utility.yul\":3025:3118   */\n      tag_97\n      jump\t// in\n    tag_141:\n        /* \"#utility.yul\":3143:3145   */\n      0x20\n        /* \"#utility.yul\":3138:3141   */\n      dup3\n        /* \"#utility.yul\":3134:3146   */\n      add\n        /* \"#utility.yul\":3127:3146   */\n      swap1\n      pop\n        /* \"#utility.yul\":2786:3152   */\n      swap2\n      swap1\n      pop\n      jump\t// out\n        /* \"#utility.yul\":3158:3577   */\n    tag_62:\n        /* \"#utility.yul\":3324:3328   */\n      0x00\n        /* \"#utility.yul\":3362:3364   */\n      0x20\n        /* \"#utility.yul\":3351:3360   */\n      dup3\n        /* \"#utility.yul\":3347:3365   */\n      add\n        /* \"#utility.yul\":3339:3365   */\n      swap1\n      pop\n        /* \"#utility.yul\":3411:3420   */\n      dup2\n        /* \"#utility.yul\":3405:3409   */\n      dup2\n        /* \"#utility.yul\":3401:3421   */\n      sub\n        /* \"#utility.yul\":3397:3398   */\n      0x00\n        /* \"#utility.yul\":3386:3395   */\n      dup4\n        /* \"#utility.yul\":3382:3399   */\n      add\n        /* \"#utility.yul\":3375:3422   */\n      mstore\n        /* \"#utility.yul\":3439:3570   */\n      tag_143\n        /* \"#utility.yul\":3565:3569   */\n      dup2\n        /* \"#utility.yul\":3439:3570   */\n      tag_98\n      jump\t// in\n    tag_143:\n        /* \"#utility.yul\":3431:3570   */\n      swap1\n      pop\n        /* \"#utility.yul\":3158:3577   */\n      swap2\n      swap1\n      pop\n      jump\t// out\n        /* \"#utility.yul\":3583:3746   */\n    tag_99:\n        /* \"#utility.yul\":3723:3738   */\n      0x456e67696e65206973206f666600000000000000000000000000000000000000\n        /* \"#utility.yul\":3719:3720   */\n      0x00\n        /* \"#utility.yul\":3711:3717   */\n      dup3\n        /* \"#utility.yul\":3707:3721   */\n      add\n        /* \"#utility.yul\":3700:3739   */\n      mstore\n        /* \"#utility.yul\":3583:3746   */\n      pop\n      jump\t// out\n        /* \"#utility.yul\":3752:4118   */\n    tag_100:\n        /* \"#utility.yul\":3894:3897   */\n      0x00\n        /* \"#utility.yul\":3915:3982   */\n      tag_146\n        /* \"#utility.yul\":3979:3981   */\n      0x0d\n        /* \"#utility.yul\":3974:3977   */\n      dup4\n        /* \"#utility.yul\":3915:3982   */\n      tag_93\n      jump\t// in\n    tag_146:\n        /* \"#utility.yul\":3908:3982   */\n      swap2\n      pop\n        /* \"#utility.yul\":3991:4084   */\n      tag_147\n        /* \"#utility.yul\":4080:4083   */\n      dup3\n        /* \"#utility.yul\":3991:4084   */\n      tag_99\n      jump\t// in\n    tag_147:\n        /* \"#utility.yul\":4109:4111   */\n      0x20\n        /* \"#utility.yul\":4104:4107   */\n      dup3\n        /* \"#utility.yul\":4100:4112   */\n      add\n        /* \"#utility.yul\":4093:4112   */\n      swap1\n      pop\n        /* \"#utility.yul\":3752:4118   */\n      swap2\n      swap1\n      pop\n      jump\t// out\n        /* \"#utility.yul\":4124:4543   */\n    tag_66:\n        /* \"#utility.yul\":4290:4294   */\n      0x00\n        /* \"#utility.yul\":4328:4330   */\n      0x20\n        /* \"#utility.yul\":4317:4326   */\n      dup3\n        /* \"#utility.yul\":4313:4331   */\n      add\n        /* \"#utility.yul\":4305:4331   */\n      swap1\n      pop\n        /* \"#utility.yul\":4377:4386   */\n      dup2\n        /* \"#utility.yul\":4371:4375   */\n      dup2\n        /* \"#utility.yul\":4367:4387   */\n      sub\n        /* \"#utility.yul\":4363:4364   */\n      0x00\n        /* \"#utility.yul\":4352:4361   */\n      dup4\n        /* \"#utility.yul\":4348:4365   */\n      add\n        /* \"#utility.yul\":4341:4388   */\n      mstore\n        /* \"#utility.yul\":4405:4536   */\n      tag_149\n        /* \"#utility.yul\":4531:4535   */\n      dup2\n        /* \"#utility.yul\":4405:4536   */\n      tag_100\n      jump\t// in\n    tag_149:\n        /* \"#utility.yul\":4397:4536   */\n      swap1\n      pop\n        /* \"#utility.yul\":4124:4543   */\n      swap2\n      swap1\n      pop\n      jump\t// out\n        /* \"#utility.yul\":4549:4721   */\n    tag_101:\n        /* \"#utility.yul\":4689:4713   */\n      0x43617220697320616c72656164792073746f7070656400000000000000000000\n        /* \"#utility.yul\":4685:4686   */\n      0x00\n        /* \"#utility.yul\":4677:4683   */\n      dup3\n        /* \"#utility.yul\":4673:4687   */\n      add\n        /* \"#utility.yul\":4666:4714   */\n      mstore\n        /* \"#utility.yul\":4549:4721   */\n      pop\n      jump\t// out\n        /* \"#utility.yul\":4727:5093   */\n    tag_102:\n        /* \"#utility.yul\":4869:4872   */\n      0x00\n        /* \"#utility.yul\":4890:4957   */\n      tag_152\n        /* \"#utility.yul\":4954:4956   */\n      0x16\n        /* \"#utility.yul\":4949:4952   */\n      dup4\n        /* \"#utility.yul\":4890:4957   */\n      tag_93\n      jump\t// in\n    tag_152:\n        /* \"#utility.yul\":4883:4957   */\n      swap2\n      pop\n        /* \"#utility.yul\":4966:5059   */\n      tag_153\n        /* \"#utility.yul\":5055:5058   */\n      dup3\n        /* \"#utility.yul\":4966:5059   */\n      tag_101\n      jump\t// in\n    tag_153:\n        /* \"#utility.yul\":5084:5086   */\n      0x20\n        /* \"#utility.yul\":5079:5082   */\n      dup3\n        /* \"#utility.yul\":5075:5087   */\n      add\n        /* \"#utility.yul\":5068:5087   */\n      swap1\n      pop\n        /* \"#utility.yul\":4727:5093   */\n      swap2\n      swap1\n      pop\n      jump\t// out\n        /* \"#utility.yul\":5099:5518   */\n    tag_69:\n        /* \"#utility.yul\":5265:5269   */\n      0x00\n        /* \"#utility.yul\":5303:5305   */\n      0x20\n        /* \"#utility.yul\":5292:5301   */\n      dup3\n        /* \"#utility.yul\":5288:5306   */\n      add\n        /* \"#utility.yul\":5280:5306   */\n      swap1\n      pop\n        /* \"#utility.yul\":5352:5361   */\n      dup2\n        /* \"#utility.yul\":5346:5350   */\n      dup2\n        /* \"#utility.yul\":5342:5362   */\n      sub\n        /* \"#utility.yul\":5338:5339   */\n      0x00\n        /* \"#utility.yul\":5327:5336   */\n      dup4\n        /* \"#utility.yul\":5323:5340   */\n      add\n        /* \"#utility.yul\":5316:5363   */\n      mstore\n        /* \"#utility.yul\":5380:5511   */\n      tag_155\n        /* \"#utility.yul\":5506:5510   */\n      dup2\n        /* \"#utility.yul\":5380:5511   */\n      tag_102\n      jump\t// in\n    tag_155:\n        /* \"#utility.yul\":5372:5511   */\n      swap1\n      pop\n        /* \"#utility.yul\":5099:5518   */\n      swap2\n      swap1\n      pop\n      jump\t// out\n        /* \"#utility.yul\":5524:5749   */\n    tag_103:\n        /* \"#utility.yul\":5664:5698   */\n      0x436172206d7573742062652073746f7070656420746f207475726e206f666620\n        /* \"#utility.yul\":5660:5661   */\n      0x00\n        /* \"#utility.yul\":5652:5658   */\n      dup3\n        /* \"#utility.yul\":5648:5662   */\n      add\n        /* \"#utility.yul\":5641:5699   */\n      mstore\n        /* \"#utility.yul\":5733:5741   */\n      0x656e67696e650000000000000000000000000000000000000000000000000000\n        /* \"#utility.yul\":5728:5730   */\n      0x20\n        /* \"#utility.yul\":5720:5726   */\n      dup3\n        /* \"#utility.yul\":5716:5731   */\n      add\n        /* \"#utility.yul\":5709:5742   */\n      mstore\n        /* \"#utility.yul\":5524:5749   */\n      pop\n      jump\t// out\n        /* \"#utility.yul\":5755:6121   */\n    tag_104:\n        /* \"#utility.yul\":5897:5900   */\n      0x00\n        /* \"#utility.yul\":5918:5985   */\n      tag_158\n        /* \"#utility.yul\":5982:5984   */\n      0x26\n        /* \"#utility.yul\":5977:5980   */\n      dup4\n        /* \"#utility.yul\":5918:5985   */\n      tag_93\n      jump\t// in\n    tag_158:\n        /* \"#utility.yul\":5911:5985   */\n      swap2\n      pop\n        /* \"#utility.yul\":5994:6087   */\n      tag_159\n        /* \"#utility.yul\":6083:6086   */\n      dup3\n        /* \"#utility.yul\":5994:6087   */\n      tag_103\n      jump\t// in\n    tag_159:\n        /* \"#utility.yul\":6112:6114   */\n      0x40\n        /* \"#utility.yul\":6107:6110   */\n      dup3\n        /* \"#utility.yul\":6103:6115   */\n      add\n        /* \"#utility.yul\":6096:6115   */\n      swap1\n      pop\n        /* \"#utility.yul\":5755:6121   */\n      swap2\n      swap1\n      pop\n      jump\t// out\n        /* \"#utility.yul\":6127:6546   */\n    tag_77:\n        /* \"#utility.yul\":6293:6297   */\n      0x00\n        /* \"#utility.yul\":6331:6333   */\n      0x20\n        /* \"#utility.yul\":6320:6329   */\n      dup3\n        /* \"#utility.yul\":6316:6334   */\n      add\n        /* \"#utility.yul\":6308:6334   */\n      swap1\n      pop\n        /* \"#utility.yul\":6380:6389   */\n      dup2\n        /* \"#utility.yul\":6374:6378   */\n      dup2\n        /* \"#utility.yul\":6370:6390   */\n      sub\n        /* \"#utility.yul\":6366:6367   */\n      0x00\n        /* \"#utility.yul\":6355:6364   */\n      dup4\n        /* \"#utility.yul\":6351:6368   */\n      add\n        /* \"#utility.yul\":6344:6391   */\n      mstore\n        /* \"#utility.yul\":6408:6539   */\n      tag_161\n        /* \"#utility.yul\":6534:6538   */\n      dup2\n        /* \"#utility.yul\":6408:6539   */\n      tag_104\n      jump\t// in\n    tag_161:\n        /* \"#utility.yul\":6400:6539   */\n      swap1\n      pop\n        /* \"#utility.yul\":6127:6546   */\n      swap2\n      swap1\n      pop\n      jump\t// out\n        /* \"#utility.yul\":6552:6717   */\n    tag_105:\n        /* \"#utility.yul\":6692:6709   */\n      0x4e6f7420656e6f756768206675656c0000000000000000000000000000000000\n        /* \"#utility.yul\":6688:6689   */\n      0x00\n        /* \"#utility.yul\":6680:6686   */\n      dup3\n        /* \"#utility.yul\":6676:6690   */\n      add\n        /* \"#utility.yul\":6669:6710   */\n      mstore\n        /* \"#utility.yul\":6552:6717   */\n      pop\n      jump\t// out\n        /* \"#utility.yul\":6723:7089   */\n    tag_106:\n        /* \"#utility.yul\":6865:6868   */\n      0x00\n        /* \"#utility.yul\":6886:6953   */\n      tag_164\n        /* \"#utility.yul\":6950:6952   */\n      0x0f\n        /* \"#utility.yul\":6945:6948   */\n      dup4\n        /* \"#utility.yul\":6886:6953   */\n      tag_93\n      jump\t// in\n    tag_164:\n        /* \"#utility.yul\":6879:6953   */\n      swap2\n      pop\n        /* \"#utility.yul\":6962:7055   */\n      tag_165\n        /* \"#utility.yul\":7051:7054   */\n      dup3\n        /* \"#utility.yul\":6962:7055   */\n      tag_105\n      jump\t// in\n    tag_165:\n        /* \"#utility.yul\":7080:7082   */\n      0x20\n        /* \"#utility.yul\":7075:7078   */\n      dup3\n        /* \"#utility.yul\":7071:7083   */\n      add\n        /* \"#utility.yul\":7064:7083   */\n      swap1\n      pop\n        /* \"#utility.yul\":6723:7089   */\n      swap2\n      swap1\n      pop\n      jump\t// out\n        /* \"#utility.yul\":7095:7514   */\n    tag_83:\n        /* \"#utility.yul\":7261:7265   */\n      0x00\n        /* \"#utility.yul\":7299:7301   */\n      0x20\n        /* \"#utility.yul\":7288:7297   */\n      dup3\n        /* \"#utility.yul\":7284:7302   */\n      add\n        /* \"#utility.yul\":7276:7302   */\n      swap1\n      pop\n        /* \"#utility.yul\":7348:7357   */\n      dup2\n        /* \"#utility.yul\":7342:7346   */\n      dup2\n        /* \"#utility.yul\":7338:7358   */\n      sub\n        /* \"#utility.yul\":7334:7335   */\n      0x00\n        /* \"#utility.yul\":7323:7332   */\n      dup4\n        /* \"#utility.yul\":7319:7336   */\n      add\n        /* \"#utility.yul\":7312:7359   */\n      mstore\n        /* \"#utility.yul\":7376:7507   */\n      tag_167\n        /* \"#utility.yul\":7502:7506   */\n      dup2\n        /* \"#utility.yul\":7376:7507   */\n      tag_106\n      jump\t// in\n    tag_167:\n        /* \"#utility.yul\":7368:7507   */\n      swap1\n      pop\n        /* \"#utility.yul\":7095:7514   */\n      swap2\n      swap1\n      pop\n      jump\t// out\n        /* \"#utility.yul\":7520:7687   */\n    tag_107:\n        /* \"#utility.yul\":7660:7679   */\n      0x537065656420697320746f6f2068696768000000000000000000000000000000\n        /* \"#utility.yul\":7656:7657   */\n      0x00\n        /* \"#utility.yul\":7648:7654   */\n      dup3\n        /* \"#utility.yul\":7644:7658   */\n      add\n        /* \"#utility.yul\":7637:7680   */\n      mstore\n        /* \"#utility.yul\":7520:7687   */\n      pop\n      jump\t// out\n        /* \"#utility.yul\":7693:8059   */\n    tag_108:\n        /* \"#utility.yul\":7835:7838   */\n      0x00\n        /* \"#utility.yul\":7856:7923   */\n      tag_170\n        /* \"#utility.yul\":7920:7922   */\n      0x11\n        /* \"#utility.yul\":7915:7918   */\n      dup4\n        /* \"#utility.yul\":7856:7923   */\n      tag_93\n      jump\t// in\n    tag_170:\n        /* \"#utility.yul\":7849:7923   */\n      swap2\n      pop\n        /* \"#utility.yul\":7932:8025   */\n      tag_171\n        /* \"#utility.yul\":8021:8024   */\n      dup3\n        /* \"#utility.yul\":7932:8025   */\n      tag_107\n      jump\t// in\n    tag_171:\n        /* \"#utility.yul\":8050:8052   */\n      0x20\n        /* \"#utility.yul\":8045:8048   */\n      dup3\n        /* \"#utility.yul\":8041:8053   */\n      add\n        /* \"#utility.yul\":8034:8053   */\n      swap1\n      pop\n        /* \"#utility.yul\":7693:8059   */\n      swap2\n      swap1\n      pop\n      jump\t// out\n        /* \"#utility.yul\":8065:8484   */\n    tag_86:\n        /* \"#utility.yul\":8231:8235   */\n      0x00\n        /* \"#utility.yul\":8269:8271   */\n      0x20\n        /* \"#utility.yul\":8258:8267   */\n      dup3\n        /* \"#utility.yul\":8254:8272   */\n      add\n        /* \"#utility.yul\":8246:8272   */\n      swap1\n      pop\n        /* \"#utility.yul\":8318:8327   */\n      dup2\n        /* \"#utility.yul\":8312:8316   */\n      dup2\n        /* \"#utility.yul\":8308:8328   */\n      sub\n        /* \"#utility.yul\":8304:8305   */\n      0x00\n        /* \"#utility.yul\":8293:8302   */\n      dup4\n        /* \"#utility.yul\":8289:8306   */\n      add\n        /* \"#utility.yul\":8282:8329   */\n      mstore\n        /* \"#utility.yul\":8346:8477   */\n      tag_173\n        /* \"#utility.yul\":8472:8476   */\n      dup2\n        /* \"#utility.yul\":8346:8477   */\n      tag_108\n      jump\t// in\n    tag_173:\n        /* \"#utility.yul\":8338:8477   */\n      swap1\n      pop\n        /* \"#utility.yul\":8065:8484   */\n      swap2\n      swap1\n      pop\n      jump\t// out\n\n    auxdata: 0xa2646970667358221220acfb619ffb5c8f707e0f18cffe226aaf354288113f013309313b51805894036c64736f6c634300081a0033\n}\n",
				"bytecode": {
					"linkReferences": {},
					"object": "6080604052348015600e575f80fd5b505f808190555060646001819055505f60025f6101000a81548160ff0219169083151502179055505f6003819055506109668061004a5f395ff3fe608060405260043610610090575f3560e01c80635642e2dc116100585780635642e2dc146101125780635b04d6b6146101285780638044f7e614610152578063ae7579f314610168578063c20906ac1461017e57610090565b806306503fd3146100945780631842447d146100be578063279bad16146100d457806334fe1d1e146100fe5780634c1ec9aa14610108575b5f80fd5b34801561009f575f80fd5b506100a86101a8565b6040516100b59190610545565b60405180910390f35b3480156100c9575f80fd5b506100d26101ba565b005b3480156100df575f80fd5b506100e86101d6565b6040516100f59190610576565b60405180910390f35b6101066101dc565b005b610110610238565b005b34801561011d575f80fd5b506101266102d0565b005b348015610133575f80fd5b5061013c6103b1565b6040516101499190610576565b60405180910390f35b34801561015d575f80fd5b506101666103b7565b005b348015610173575f80fd5b5061017c610415565b005b348015610189575f80fd5b50610192610526565b60405161019f9190610576565b60405180910390f35b60025f9054906101000a900460ff1681565b600160025f6101000a81548160ff021916908315150217905550565b60015481565b5f341161021e576040517f08c379a0000000000000000000000000000000000000000000000000000000008152600401610215906105e9565b60405180910390fd5b3460035f82825461022f9190610634565b92505081905550565b670de0b6b3a764000034036102545760646001819055506102ce565b670de0b6b3a76400006003541061029257670de0b6b3a764000060035f82825461027e9190610667565b9250508190555060646001819055506102cd565b6040517f08c379a00000000000000000000000000000000000000000000000000000000081526004016102c4906106e4565b60405180910390fd5b5b565b6001151560025f9054906101000a900460ff16151514610325576040517f08c379a000000000000000000000000000000000000000000000000000000000815260040161031c9061074c565b60405180910390fd5b5f805411610368576040517f08c379a000000000000000000000000000000000000000000000000000000000815260040161035f906107b4565b60405180910390fd5b600a5f54101561037d575f8081905550610396565b600a5f8082825461038e9190610667565b925050819055505b600a60015f8282546103a89190610667565b92505081905550565b60035481565b5f8054146103fa576040517f08c379a00000000000000000000000000000000000000000000000000000000081526004016103f190610842565b60405180910390fd5b5f60025f6101000a81548160ff021916908315150217905550565b6001151560025f9054906101000a900460ff1615151461046a576040517f08c379a00000000000000000000000000000000000000000000000000000000081526004016104619061074c565b60405180910390fd5b601e600154116104af576040517f08c379a00000000000000000000000000000000000000000000000000000000081526004016104a6906108aa565b60405180910390fd5b60465f54106104f3576040517f08c379a00000000000000000000000000000000000000000000000000000000081526004016104ea90610912565b60405180910390fd5b600a5f808282546105049190610634565b92505081905550601460015f82825461051d9190610667565b92505081905550565b5f5481565b5f8115159050919050565b61053f8161052b565b82525050565b5f6020820190506105585f830184610536565b92915050565b5f819050919050565b6105708161055e565b82525050565b5f6020820190506105895f830184610567565b92915050565b5f82825260208201905092915050565b7f5061796d656e74206d7573742062652067726561746572207468616e203000005f82015250565b5f6105d3601e8361058f565b91506105de8261059f565b602082019050919050565b5f6020820190508181035f830152610600816105c7565b9050919050565b7f4e487b71000000000000000000000000000000000000000000000000000000005f52601160045260245ffd5b5f61063e8261055e565b91506106498361055e565b925082820190508082111561066157610660610607565b5b92915050565b5f6106718261055e565b915061067c8361055e565b925082820390508181111561069457610693610607565b5b92915050565b7f496e73756666696369656e74207061796d656e740000000000000000000000005f82015250565b5f6106ce60148361058f565b91506106d98261069a565b602082019050919050565b5f6020820190508181035f8301526106fb816106c2565b9050919050565b7f456e67696e65206973206f6666000000000000000000000000000000000000005f82015250565b5f610736600d8361058f565b915061074182610702565b602082019050919050565b5f6020820190508181035f8301526107638161072a565b9050919050565b7f43617220697320616c72656164792073746f70706564000000000000000000005f82015250565b5f61079e60168361058f565b91506107a98261076a565b602082019050919050565b5f6020820190508181035f8301526107cb81610792565b9050919050565b7f436172206d7573742062652073746f7070656420746f207475726e206f6666205f8201527f656e67696e650000000000000000000000000000000000000000000000000000602082015250565b5f61082c60268361058f565b9150610837826107d2565b604082019050919050565b5f6020820190508181035f83015261085981610820565b9050919050565b7f4e6f7420656e6f756768206675656c00000000000000000000000000000000005f82015250565b5f610894600f8361058f565b915061089f82610860565b602082019050919050565b5f6020820190508181035f8301526108c181610888565b9050919050565b7f537065656420697320746f6f20686967680000000000000000000000000000005f82015250565b5f6108fc60118361058f565b9150610907826108c8565b602082019050919050565b5f6020820190508181035f830152610929816108f0565b905091905056fea2646970667358221220acfb619ffb5c8f707e0f18cffe226aaf354288113f013309313b51805894036c64736f6c634300081a0033",
					"opcodes": "PUSH1 0x80 PUSH1 0x40 MSTORE CALLVALUE DUP1 ISZERO PUSH1 0xE JUMPI PUSH0 DUP1 REVERT JUMPDEST POP PUSH0 DUP1 DUP2 SWAP1 SSTORE POP PUSH1 0x64 PUSH1 0x1 DUP2 SWAP1 SSTORE POP PUSH0 PUSH1 0x2 PUSH0 PUSH2 0x100 EXP DUP2 SLOAD DUP2 PUSH1 0xFF MUL NOT AND SWAP1 DUP4 ISZERO ISZERO MUL OR SWAP1 SSTORE POP PUSH0 PUSH1 0x3 DUP2 SWAP1 SSTORE POP PUSH2 0x966 DUP1 PUSH2 0x4A PUSH0 CODECOPY PUSH0 RETURN INVALID PUSH1 0x80 PUSH1 0x40 MSTORE PUSH1 0x4 CALLDATASIZE LT PUSH2 0x90 JUMPI PUSH0 CALLDATALOAD PUSH1 0xE0 SHR DUP1 PUSH4 0x5642E2DC GT PUSH2 0x58 JUMPI DUP1 PUSH4 0x5642E2DC EQ PUSH2 0x112 JUMPI DUP1 PUSH4 0x5B04D6B6 EQ PUSH2 0x128 JUMPI DUP1 PUSH4 0x8044F7E6 EQ PUSH2 0x152 JUMPI DUP1 PUSH4 0xAE7579F3 EQ PUSH2 0x168 JUMPI DUP1 PUSH4 0xC20906AC EQ PUSH2 0x17E JUMPI PUSH2 0x90 JUMP JUMPDEST DUP1 PUSH4 0x6503FD3 EQ PUSH2 0x94 JUMPI DUP1 PUSH4 0x1842447D EQ PUSH2 0xBE JUMPI DUP1 PUSH4 0x279BAD16 EQ PUSH2 0xD4 JUMPI DUP1 PUSH4 0x34FE1D1E EQ PUSH2 0xFE JUMPI DUP1 PUSH4 0x4C1EC9AA EQ PUSH2 0x108 JUMPI JUMPDEST PUSH0 DUP1 REVERT JUMPDEST CALLVALUE DUP1 ISZERO PUSH2 0x9F JUMPI PUSH0 DUP1 REVERT JUMPDEST POP PUSH2 0xA8 PUSH2 0x1A8 JUMP JUMPDEST PUSH1 0x40 MLOAD PUSH2 0xB5 SWAP2 SWAP1 PUSH2 0x545 JUMP JUMPDEST PUSH1 0x40 MLOAD DUP1 SWAP2 SUB SWAP1 RETURN JUMPDEST CALLVALUE DUP1 ISZERO PUSH2 0xC9 JUMPI PUSH0 DUP1 REVERT JUMPDEST POP PUSH2 0xD2 PUSH2 0x1BA JUMP JUMPDEST STOP JUMPDEST CALLVALUE DUP1 ISZERO PUSH2 0xDF JUMPI PUSH0 DUP1 REVERT JUMPDEST POP PUSH2 0xE8 PUSH2 0x1D6 JUMP JUMPDEST PUSH1 0x40 MLOAD PUSH2 0xF5 SWAP2 SWAP1 PUSH2 0x576 JUMP JUMPDEST PUSH1 0x40 MLOAD DUP1 SWAP2 SUB SWAP1 RETURN JUMPDEST PUSH2 0x106 PUSH2 0x1DC JUMP JUMPDEST STOP JUMPDEST PUSH2 0x110 PUSH2 0x238 JUMP JUMPDEST STOP JUMPDEST CALLVALUE DUP1 ISZERO PUSH2 0x11D JUMPI PUSH0 DUP1 REVERT JUMPDEST POP PUSH2 0x126 PUSH2 0x2D0 JUMP JUMPDEST STOP JUMPDEST CALLVALUE DUP1 ISZERO PUSH2 0x133 JUMPI PUSH0 DUP1 REVERT JUMPDEST POP PUSH2 0x13C PUSH2 0x3B1 JUMP JUMPDEST PUSH1 0x40 MLOAD PUSH2 0x149 SWAP2 SWAP1 PUSH2 0x576 JUMP JUMPDEST PUSH1 0x40 MLOAD DUP1 SWAP2 SUB SWAP1 RETURN JUMPDEST CALLVALUE DUP1 ISZERO PUSH2 0x15D JUMPI PUSH0 DUP1 REVERT JUMPDEST POP PUSH2 0x166 PUSH2 0x3B7 JUMP JUMPDEST STOP JUMPDEST CALLVALUE DUP1 ISZERO PUSH2 0x173 JUMPI PUSH0 DUP1 REVERT JUMPDEST POP PUSH2 0x17C PUSH2 0x415 JUMP JUMPDEST STOP JUMPDEST CALLVALUE DUP1 ISZERO PUSH2 0x189 JUMPI PUSH0 DUP1 REVERT JUMPDEST POP PUSH2 0x192 PUSH2 0x526 JUMP JUMPDEST PUSH1 0x40 MLOAD PUSH2 0x19F SWAP2 SWAP1 PUSH2 0x576 JUMP JUMPDEST PUSH1 0x40 MLOAD DUP1 SWAP2 SUB SWAP1 RETURN JUMPDEST PUSH1 0x2 PUSH0 SWAP1 SLOAD SWAP1 PUSH2 0x100 EXP SWAP1 DIV PUSH1 0xFF AND DUP2 JUMP JUMPDEST PUSH1 0x1 PUSH1 0x2 PUSH0 PUSH2 0x100 EXP DUP2 SLOAD DUP2 PUSH1 0xFF MUL NOT AND SWAP1 DUP4 ISZERO ISZERO MUL OR SWAP1 SSTORE POP JUMP JUMPDEST PUSH1 0x1 SLOAD DUP2 JUMP JUMPDEST PUSH0 CALLVALUE GT PUSH2 0x21E JUMPI PUSH1 0x40 MLOAD PUSH32 0x8C379A000000000000000000000000000000000000000000000000000000000 DUP2 MSTORE PUSH1 0x4 ADD PUSH2 0x215 SWAP1 PUSH2 0x5E9 JUMP JUMPDEST PUSH1 0x40 MLOAD DUP1 SWAP2 SUB SWAP1 REVERT JUMPDEST CALLVALUE PUSH1 0x3 PUSH0 DUP3 DUP3 SLOAD PUSH2 0x22F SWAP2 SWAP1 PUSH2 0x634 JUMP JUMPDEST SWAP3 POP POP DUP2 SWAP1 SSTORE POP JUMP JUMPDEST PUSH8 0xDE0B6B3A7640000 CALLVALUE SUB PUSH2 0x254 JUMPI PUSH1 0x64 PUSH1 0x1 DUP2 SWAP1 SSTORE POP PUSH2 0x2CE JUMP JUMPDEST PUSH8 0xDE0B6B3A7640000 PUSH1 0x3 SLOAD LT PUSH2 0x292 JUMPI PUSH8 0xDE0B6B3A7640000 PUSH1 0x3 PUSH0 DUP3 DUP3 SLOAD PUSH2 0x27E SWAP2 SWAP1 PUSH2 0x667 JUMP JUMPDEST SWAP3 POP POP DUP2 SWAP1 SSTORE POP PUSH1 0x64 PUSH1 0x1 DUP2 SWAP1 SSTORE POP PUSH2 0x2CD JUMP JUMPDEST PUSH1 0x40 MLOAD PUSH32 0x8C379A000000000000000000000000000000000000000000000000000000000 DUP2 MSTORE PUSH1 0x4 ADD PUSH2 0x2C4 SWAP1 PUSH2 0x6E4 JUMP JUMPDEST PUSH1 0x40 MLOAD DUP1 SWAP2 SUB SWAP1 REVERT JUMPDEST JUMPDEST JUMP JUMPDEST PUSH1 0x1 ISZERO ISZERO PUSH1 0x2 PUSH0 SWAP1 SLOAD SWAP1 PUSH2 0x100 EXP SWAP1 DIV PUSH1 0xFF AND ISZERO ISZERO EQ PUSH2 0x325 JUMPI PUSH1 0x40 MLOAD PUSH32 0x8C379A000000000000000000000000000000000000000000000000000000000 DUP2 MSTORE PUSH1 0x4 ADD PUSH2 0x31C SWAP1 PUSH2 0x74C JUMP JUMPDEST PUSH1 0x40 MLOAD DUP1 SWAP2 SUB SWAP1 REVERT JUMPDEST PUSH0 DUP1 SLOAD GT PUSH2 0x368 JUMPI PUSH1 0x40 MLOAD PUSH32 0x8C379A000000000000000000000000000000000000000000000000000000000 DUP2 MSTORE PUSH1 0x4 ADD PUSH2 0x35F SWAP1 PUSH2 0x7B4 JUMP JUMPDEST PUSH1 0x40 MLOAD DUP1 SWAP2 SUB SWAP1 REVERT JUMPDEST PUSH1 0xA PUSH0 SLOAD LT ISZERO PUSH2 0x37D JUMPI PUSH0 DUP1 DUP2 SWAP1 SSTORE POP PUSH2 0x396 JUMP JUMPDEST PUSH1 0xA PUSH0 DUP1 DUP3 DUP3 SLOAD PUSH2 0x38E SWAP2 SWAP1 PUSH2 0x667 JUMP JUMPDEST SWAP3 POP POP DUP2 SWAP1 SSTORE POP JUMPDEST PUSH1 0xA PUSH1 0x1 PUSH0 DUP3 DUP3 SLOAD PUSH2 0x3A8 SWAP2 SWAP1 PUSH2 0x667 JUMP JUMPDEST SWAP3 POP POP DUP2 SWAP1 SSTORE POP JUMP JUMPDEST PUSH1 0x3 SLOAD DUP2 JUMP JUMPDEST PUSH0 DUP1 SLOAD EQ PUSH2 0x3FA JUMPI PUSH1 0x40 MLOAD PUSH32 0x8C379A000000000000000000000000000000000000000000000000000000000 DUP2 MSTORE PUSH1 0x4 ADD PUSH2 0x3F1 SWAP1 PUSH2 0x842 JUMP JUMPDEST PUSH1 0x40 MLOAD DUP1 SWAP2 SUB SWAP1 REVERT JUMPDEST PUSH0 PUSH1 0x2 PUSH0 PUSH2 0x100 EXP DUP2 SLOAD DUP2 PUSH1 0xFF MUL NOT AND SWAP1 DUP4 ISZERO ISZERO MUL OR SWAP1 SSTORE POP JUMP JUMPDEST PUSH1 0x1 ISZERO ISZERO PUSH1 0x2 PUSH0 SWAP1 SLOAD SWAP1 PUSH2 0x100 EXP SWAP1 DIV PUSH1 0xFF AND ISZERO ISZERO EQ PUSH2 0x46A JUMPI PUSH1 0x40 MLOAD PUSH32 0x8C379A000000000000000000000000000000000000000000000000000000000 DUP2 MSTORE PUSH1 0x4 ADD PUSH2 0x461 SWAP1 PUSH2 0x74C JUMP JUMPDEST PUSH1 0x40 MLOAD DUP1 SWAP2 SUB SWAP1 REVERT JUMPDEST PUSH1 0x1E PUSH1 0x1 SLOAD GT PUSH2 0x4AF JUMPI PUSH1 0x40 MLOAD PUSH32 0x8C379A000000000000000000000000000000000000000000000000000000000 DUP2 MSTORE PUSH1 0x4 ADD PUSH2 0x4A6 SWAP1 PUSH2 0x8AA JUMP JUMPDEST PUSH1 0x40 MLOAD DUP1 SWAP2 SUB SWAP1 REVERT JUMPDEST PUSH1 0x46 PUSH0 SLOAD LT PUSH2 0x4F3 JUMPI PUSH1 0x40 MLOAD PUSH32 0x8C379A000000000000000000000000000000000000000000000000000000000 DUP2 MSTORE PUSH1 0x4 ADD PUSH2 0x4EA SWAP1 PUSH2 0x912 JUMP JUMPDEST PUSH1 0x40 MLOAD DUP1 SWAP2 SUB SWAP1 REVERT JUMPDEST PUSH1 0xA PUSH0 DUP1 DUP3 DUP3 SLOAD PUSH2 0x504 SWAP2 SWAP1 PUSH2 0x634 JUMP JUMPDEST SWAP3 POP POP DUP2 SWAP1 SSTORE POP PUSH1 0x14 PUSH1 0x1 PUSH0 DUP3 DUP3 SLOAD PUSH2 0x51D SWAP2 SWAP1 PUSH2 0x667 JUMP JUMPDEST SWAP3 POP POP DUP2 SWAP1 SSTORE POP JUMP JUMPDEST PUSH0 SLOAD DUP2 JUMP JUMPDEST PUSH0 DUP2 ISZERO ISZERO SWAP1 POP SWAP2 SWAP1 POP JUMP JUMPDEST PUSH2 0x53F DUP2 PUSH2 0x52B JUMP JUMPDEST DUP3 MSTORE POP POP JUMP JUMPDEST PUSH0 PUSH1 0x20 DUP3 ADD SWAP1 POP PUSH2 0x558 PUSH0 DUP4 ADD DUP5 PUSH2 0x536 JUMP JUMPDEST SWAP3 SWAP2 POP POP JUMP JUMPDEST PUSH0 DUP2 SWAP1 POP SWAP2 SWAP1 POP JUMP JUMPDEST PUSH2 0x570 DUP2 PUSH2 0x55E JUMP JUMPDEST DUP3 MSTORE POP POP JUMP JUMPDEST PUSH0 PUSH1 0x20 DUP3 ADD SWAP1 POP PUSH2 0x589 PUSH0 DUP4 ADD DUP5 PUSH2 0x567 JUMP JUMPDEST SWAP3 SWAP2 POP POP JUMP JUMPDEST PUSH0 DUP3 DUP3 MSTORE PUSH1 0x20 DUP3 ADD SWAP1 POP SWAP3 SWAP2 POP POP JUMP JUMPDEST PUSH32 0x5061796D656E74206D7573742062652067726561746572207468616E20300000 PUSH0 DUP3 ADD MSTORE POP JUMP JUMPDEST PUSH0 PUSH2 0x5D3 PUSH1 0x1E DUP4 PUSH2 0x58F JUMP JUMPDEST SWAP2 POP PUSH2 0x5DE DUP3 PUSH2 0x59F JUMP JUMPDEST PUSH1 0x20 DUP3 ADD SWAP1 POP SWAP2 SWAP1 POP JUMP JUMPDEST PUSH0 PUSH1 0x20 DUP3 ADD SWAP1 POP DUP2 DUP2 SUB PUSH0 DUP4 ADD MSTORE PUSH2 0x600 DUP2 PUSH2 0x5C7 JUMP JUMPDEST SWAP1 POP SWAP2 SWAP1 POP JUMP JUMPDEST PUSH32 0x4E487B7100000000000000000000000000000000000000000000000000000000 PUSH0 MSTORE PUSH1 0x11 PUSH1 0x4 MSTORE PUSH1 0x24 PUSH0 REVERT JUMPDEST PUSH0 PUSH2 0x63E DUP3 PUSH2 0x55E JUMP JUMPDEST SWAP2 POP PUSH2 0x649 DUP4 PUSH2 0x55E JUMP JUMPDEST SWAP3 POP DUP3 DUP3 ADD SWAP1 POP DUP1 DUP3 GT ISZERO PUSH2 0x661 JUMPI PUSH2 0x660 PUSH2 0x607 JUMP JUMPDEST JUMPDEST SWAP3 SWAP2 POP POP JUMP JUMPDEST PUSH0 PUSH2 0x671 DUP3 PUSH2 0x55E JUMP JUMPDEST SWAP2 POP PUSH2 0x67C DUP4 PUSH2 0x55E JUMP JUMPDEST SWAP3 POP DUP3 DUP3 SUB SWAP1 POP DUP2 DUP2 GT ISZERO PUSH2 0x694 JUMPI PUSH2 0x693 PUSH2 0x607 JUMP JUMPDEST JUMPDEST SWAP3 SWAP2 POP POP JUMP JUMPDEST PUSH32 0x496E73756666696369656E74207061796D656E74000000000000000000000000 PUSH0 DUP3 ADD MSTORE POP JUMP JUMPDEST PUSH0 PUSH2 0x6CE PUSH1 0x14 DUP4 PUSH2 0x58F JUMP JUMPDEST SWAP2 POP PUSH2 0x6D9 DUP3 PUSH2 0x69A JUMP JUMPDEST PUSH1 0x20 DUP3 ADD SWAP1 POP SWAP2 SWAP1 POP JUMP JUMPDEST PUSH0 PUSH1 0x20 DUP3 ADD SWAP1 POP DUP2 DUP2 SUB PUSH0 DUP4 ADD MSTORE PUSH2 0x6FB DUP2 PUSH2 0x6C2 JUMP JUMPDEST SWAP1 POP SWAP2 SWAP1 POP JUMP JUMPDEST PUSH32 0x456E67696E65206973206F666600000000000000000000000000000000000000 PUSH0 DUP3 ADD MSTORE POP JUMP JUMPDEST PUSH0 PUSH2 0x736 PUSH1 0xD DUP4 PUSH2 0x58F JUMP JUMPDEST SWAP2 POP PUSH2 0x741 DUP3 PUSH2 0x702 JUMP JUMPDEST PUSH1 0x20 DUP3 ADD SWAP1 POP SWAP2 SWAP1 POP JUMP JUMPDEST PUSH0 PUSH1 0x20 DUP3 ADD SWAP1 POP DUP2 DUP2 SUB PUSH0 DUP4 ADD MSTORE PUSH2 0x763 DUP2 PUSH2 0x72A JUMP JUMPDEST SWAP1 POP SWAP2 SWAP1 POP JUMP JUMPDEST PUSH32 0x43617220697320616C72656164792073746F7070656400000000000000000000 PUSH0 DUP3 ADD MSTORE POP JUMP JUMPDEST PUSH0 PUSH2 0x79E PUSH1 0x16 DUP4 PUSH2 0x58F JUMP JUMPDEST SWAP2 POP PUSH2 0x7A9 DUP3 PUSH2 0x76A JUMP JUMPDEST PUSH1 0x20 DUP3 ADD SWAP1 POP SWAP2 SWAP1 POP JUMP JUMPDEST PUSH0 PUSH1 0x20 DUP3 ADD SWAP1 POP DUP2 DUP2 SUB PUSH0 DUP4 ADD MSTORE PUSH2 0x7CB DUP2 PUSH2 0x792 JUMP JUMPDEST SWAP1 POP SWAP2 SWAP1 POP JUMP JUMPDEST PUSH32 0x436172206D7573742062652073746F7070656420746F207475726E206F666620 PUSH0 DUP3 ADD MSTORE PUSH32 0x656E67696E650000000000000000000000000000000000000000000000000000 PUSH1 0x20 DUP3 ADD MSTORE POP JUMP JUMPDEST PUSH0 PUSH2 0x82C PUSH1 0x26 DUP4 PUSH2 0x58F JUMP JUMPDEST SWAP2 POP PUSH2 0x837 DUP3 PUSH2 0x7D2 JUMP JUMPDEST PUSH1 0x40 DUP3 ADD SWAP1 POP SWAP2 SWAP1 POP JUMP JUMPDEST PUSH0 PUSH1 0x20 DUP3 ADD SWAP1 POP DUP2 DUP2 SUB PUSH0 DUP4 ADD MSTORE PUSH2 0x859 DUP2 PUSH2 0x820 JUMP JUMPDEST SWAP1 POP SWAP2 SWAP1 POP JUMP JUMPDEST PUSH32 0x4E6F7420656E6F756768206675656C0000000000000000000000000000000000 PUSH0 DUP3 ADD MSTORE POP JUMP JUMPDEST PUSH0 PUSH2 0x894 PUSH1 0xF DUP4 PUSH2 0x58F JUMP JUMPDEST SWAP2 POP PUSH2 0x89F DUP3 PUSH2 0x860 JUMP JUMPDEST PUSH1 0x20 DUP3 ADD SWAP1 POP SWAP2 SWAP1 POP JUMP JUMPDEST PUSH0 PUSH1 0x20 DUP3 ADD SWAP1 POP DUP2 DUP2 SUB PUSH0 DUP4 ADD MSTORE PUSH2 0x8C1 DUP2 PUSH2 0x888 JUMP JUMPDEST SWAP1 POP SWAP2 SWAP1 POP JUMP JUMPDEST PUSH32 0x537065656420697320746F6F2068696768000000000000000000000000000000 PUSH0 DUP3 ADD MSTORE POP JUMP JUMPDEST PUSH0 PUSH2 0x8FC PUSH1 0x11 DUP4 PUSH2 0x58F JUMP JUMPDEST SWAP2 POP PUSH2 0x907 DUP3 PUSH2 0x8C8 JUMP JUMPDEST PUSH1 0x20 DUP3 ADD SWAP1 POP SWAP2 SWAP1 POP JUMP JUMPDEST PUSH0 PUSH1 0x20 DUP3 ADD SWAP1 POP DUP2 DUP2 SUB PUSH0 DUP4 ADD MSTORE PUSH2 0x929 DUP2 PUSH2 0x8F0 JUMP JUMPDEST SWAP1 POP SWAP2 SWAP1 POP JUMP INVALID LOG2 PUSH5 0x6970667358 0x22 SLT KECCAK256 0xAC 0xFB PUSH2 0x9FFB TLOAD DUP16 PUSH17 0x7E0F18CFFE226AAF354288113F01330931 EXTCODESIZE MLOAD DUP1 PC SWAP5 SUB PUSH13 0x64736F6C634300081A00330000 "
				},
				"gasEstimates": {
					"creation": {
						"codeDepositCost": "481200",
						"executionCost": "56921",
						"totalCost": "538121"
					},
					"external": {
						"accelerate()": "infinite",
						"brake()": "infinite",
						"engineStatus()": "2467",
						"fuel()": "2470",
						"prepaidBalance()": "2447",
						"prepay()": "infinite",
						"refuel()": "infinite",
						"speed()": "2512",
						"turnOffEngine()": "26574",
						"turnOnEngine()": "24432"
					}
				},
				"methodIdentifiers": {
					"accelerate()": "ae7579f3",
					"brake()": "5642e2dc",
					"engineStatus()": "06503fd3",
					"fuel()": "279bad16",
					"prepaidBalance()": "5b04d6b6",
					"prepay()": "34fe1d1e",
					"refuel()": "4c1ec9aa",
					"speed()": "c20906ac",
					"turnOffEngine()": "8044f7e6",
					"turnOnEngine()": "1842447d"
				}
			},
			"storageLayout": {
				"storage": [
					{
						"astId": 3,
						"contract": "cordingtest/cordingtest7.sol:Test3",
						"label": "speed",
						"offset": 0,
						"slot": "0",
						"type": "t_uint256"
					},
					{
						"astId": 5,
						"contract": "cordingtest/cordingtest7.sol:Test3",
						"label": "fuel",
						"offset": 0,
						"slot": "1",
						"type": "t_uint256"
					},
					{
						"astId": 7,
						"contract": "cordingtest/cordingtest7.sol:Test3",
						"label": "engineStatus",
						"offset": 0,
						"slot": "2",
						"type": "t_bool"
					},
					{
						"astId": 9,
						"contract": "cordingtest/cordingtest7.sol:Test3",
						"label": "prepaidBalance",
						"offset": 0,
						"slot": "3",
						"type": "t_uint256"
					}
				],
				"types": {
					"t_bool": {
						"encoding": "inplace",
						"label": "bool",
						"numberOfBytes": "1"
					},
					"t_uint256": {
						"encoding": "inplace",
						"label": "uint256",
						"numberOfBytes": "32"
					}
				}
			},
			"userdoc": {
				"kind": "user",
				"methods": {},
				"version": 1
			}
		}
	}
}