{
	"cordingtest/cordingtest3.sol": {
		"Test3": {
			"abi": [
				{
					"inputs": [
						{
							"internalType": "string",
							"name": "_id",
							"type": "string"
						},
						{
							"internalType": "string",
							"name": "_password",
							"type": "string"
						}
					],
					"name": "login",
					"outputs": [
						{
							"internalType": "string",
							"name": "",
							"type": "string"
						}
					],
					"stateMutability": "view",
					"type": "function"
				},
				{
					"inputs": [
						{
							"internalType": "string",
							"name": "_id",
							"type": "string"
						},
						{
							"internalType": "string",
							"name": "_password",
							"type": "string"
						}
					],
					"name": "registerUser",
					"outputs": [],
					"stateMutability": "nonpayable",
					"type": "function"
				},
				{
					"inputs": [
						{
							"internalType": "string",
							"name": "_id",
							"type": "string"
						},
						{
							"internalType": "string",
							"name": "_password",
							"type": "string"
						}
					],
					"name": "unregister",
					"outputs": [],
					"stateMutability": "nonpayable",
					"type": "function"
				}
			],
			"devdoc": {
				"kind": "dev",
				"methods": {},
				"version": 1
			},
			"evm": {
				"assembly": "    /* \"cordingtest/cordingtest3.sol\":72:2766  contract Test3 {... */\n  mstore(0x40, 0x80)\n  callvalue\n  dup1\n  iszero\n  tag_1\n  jumpi\n  0x00\n  dup1\n  revert\ntag_1:\n  pop\n  dataSize(sub_0)\n  dup1\n  dataOffset(sub_0)\n  0x00\n  codecopy\n  0x00\n  return\nstop\n\nsub_0: assembly {\n        /* \"cordingtest/cordingtest3.sol\":72:2766  contract Test3 {... */\n      mstore(0x40, 0x80)\n      callvalue\n      dup1\n      iszero\n      tag_1\n      jumpi\n      0x00\n      dup1\n      revert\n    tag_1:\n      pop\n      jumpi(tag_2, lt(calldatasize, 0x04))\n      shr(0xe0, calldataload(0x00))\n      dup1\n      0x1d2e4afd\n      eq\n      tag_3\n      jumpi\n      dup1\n      0x58467dbc\n      eq\n      tag_4\n      jumpi\n      dup1\n      0xeef15670\n      eq\n      tag_5\n      jumpi\n    tag_2:\n      0x00\n      dup1\n      revert\n        /* \"cordingtest/cordingtest3.sol\":1518:1789  function registerUser(string memory _id, string memory _password) public {... */\n    tag_3:\n      tag_6\n      0x04\n      dup1\n      calldatasize\n      sub\n      dup2\n      add\n      swap1\n      tag_7\n      swap2\n      swap1\n      tag_8\n      jump\t// in\n    tag_7:\n      tag_9\n      jump\t// in\n    tag_6:\n      stop\n        /* \"cordingtest/cordingtest3.sol\":1796:2424  function login(string memory _id, string memory _password) public view returns (string memory) {... */\n    tag_4:\n      tag_10\n      0x04\n      dup1\n      calldatasize\n      sub\n      dup2\n      add\n      swap1\n      tag_11\n      swap2\n      swap1\n      tag_8\n      jump\t// in\n    tag_11:\n      tag_12\n      jump\t// in\n    tag_10:\n      mload(0x40)\n      tag_13\n      swap2\n      swap1\n      tag_14\n      jump\t// in\n    tag_13:\n      mload(0x40)\n      dup1\n      swap2\n      sub\n      swap1\n      return\n        /* \"cordingtest/cordingtest3.sol\":2430:2764  function unregister(string memory _id, string memory _password) public {... */\n    tag_5:\n      tag_15\n      0x04\n      dup1\n      calldatasize\n      sub\n      dup2\n      add\n      swap1\n      tag_16\n      swap2\n      swap1\n      tag_8\n      jump\t// in\n    tag_16:\n      tag_17\n      jump\t// in\n    tag_15:\n      stop\n        /* \"cordingtest/cordingtest3.sol\":1518:1789  function registerUser(string memory _id, string memory _password) public {... */\n    tag_9:\n        /* \"cordingtest/cordingtest3.sol\":1610:1615  users */\n      0x00\n        /* \"cordingtest/cordingtest3.sol\":1616:1619  _id */\n      dup3\n        /* \"cordingtest/cordingtest3.sol\":1610:1620  users[_id] */\n      mload(0x40)\n      tag_19\n      swap2\n      swap1\n      tag_20\n      jump\t// in\n    tag_19:\n      swap1\n      dup2\n      mstore\n      0x20\n      add\n      mload(0x40)\n      dup1\n      swap2\n      sub\n      swap1\n      keccak256\n        /* \"cordingtest/cordingtest3.sol\":1610:1631  users[_id].registered */\n      0x01\n      add\n      0x00\n      swap1\n      sload\n      swap1\n      0x0100\n      exp\n      swap1\n      div\n      0xff\n      and\n        /* \"cordingtest/cordingtest3.sol\":1609:1631  !users[_id].registered */\n      iszero\n        /* \"cordingtest/cordingtest3.sol\":1601:1648  require(!users[_id].registered, \"ID is exist.\") */\n      tag_21\n      jumpi\n      mload(0x40)\n      0x08c379a000000000000000000000000000000000000000000000000000000000\n      dup2\n      mstore\n      0x04\n      add\n      tag_22\n      swap1\n      tag_23\n      jump\t// in\n    tag_22:\n      mload(0x40)\n      dup1\n      swap2\n      sub\n      swap1\n      revert\n    tag_21:\n        /* \"cordingtest/cordingtest3.sol\":1667:1687  bytes32 passwordHash */\n      0x00\n        /* \"cordingtest/cordingtest3.sol\":1717:1726  _password */\n      dup2\n        /* \"cordingtest/cordingtest3.sol\":1700:1727  abi.encodePacked(_password) */\n      add(0x20, mload(0x40))\n      tag_24\n      swap2\n      swap1\n      tag_20\n      jump\t// in\n    tag_24:\n      mload(0x40)\n      0x20\n      dup2\n      dup4\n      sub\n      sub\n      dup2\n      mstore\n      swap1\n      0x40\n      mstore\n        /* \"cordingtest/cordingtest3.sol\":1690:1728  keccak256(abi.encodePacked(_password)) */\n      dup1\n      mload\n      swap1\n      0x20\n      add\n      keccak256\n        /* \"cordingtest/cordingtest3.sol\":1667:1728  bytes32 passwordHash = keccak256(abi.encodePacked(_password)) */\n      swap1\n      pop\n        /* \"cordingtest/cordingtest3.sol\":1751:1782  UserInfo(passwordHash, true, 0) */\n      mload(0x40)\n      dup1\n      0x60\n      add\n      0x40\n      mstore\n      dup1\n        /* \"cordingtest/cordingtest3.sol\":1760:1772  passwordHash */\n      dup3\n        /* \"cordingtest/cordingtest3.sol\":1751:1782  UserInfo(passwordHash, true, 0) */\n      dup2\n      mstore\n      0x20\n      add\n        /* \"cordingtest/cordingtest3.sol\":1774:1778  true */\n      0x01\n        /* \"cordingtest/cordingtest3.sol\":1751:1782  UserInfo(passwordHash, true, 0) */\n      iszero\n      iszero\n      dup2\n      mstore\n      0x20\n      add\n        /* \"cordingtest/cordingtest3.sol\":1780:1781  0 */\n      0x00\n        /* \"cordingtest/cordingtest3.sol\":1751:1782  UserInfo(passwordHash, true, 0) */\n      dup2\n      mstore\n      pop\n        /* \"cordingtest/cordingtest3.sol\":1738:1743  users */\n      0x00\n        /* \"cordingtest/cordingtest3.sol\":1744:1747  _id */\n      dup5\n        /* \"cordingtest/cordingtest3.sol\":1738:1748  users[_id] */\n      mload(0x40)\n      tag_25\n      swap2\n      swap1\n      tag_20\n      jump\t// in\n    tag_25:\n      swap1\n      dup2\n      mstore\n      0x20\n      add\n      mload(0x40)\n      dup1\n      swap2\n      sub\n      swap1\n      keccak256\n        /* \"cordingtest/cordingtest3.sol\":1738:1782  users[_id] = UserInfo(passwordHash, true, 0) */\n      0x00\n      dup3\n      add\n      mload\n      dup2\n      0x00\n      add\n      sstore\n      0x20\n      dup3\n      add\n      mload\n      dup2\n      0x01\n      add\n      exp(0x0100, 0x00)\n      dup2\n      sload\n      dup2\n      0xff\n      mul\n      not\n      and\n      swap1\n      dup4\n      iszero\n      iszero\n      mul\n      or\n      swap1\n      sstore\n      pop\n      0x40\n      dup3\n      add\n      mload\n      dup2\n      0x02\n      add\n      sstore\n      swap1\n      pop\n      pop\n        /* \"cordingtest/cordingtest3.sol\":1591:1789  {... */\n      pop\n        /* \"cordingtest/cordingtest3.sol\":1518:1789  function registerUser(string memory _id, string memory _password) public {... */\n      pop\n      pop\n      jump\t// out\n        /* \"cordingtest/cordingtest3.sol\":1796:2424  function login(string memory _id, string memory _password) public view returns (string memory) {... */\n    tag_12:\n        /* \"cordingtest/cordingtest3.sol\":1876:1889  string memory */\n      0x60\n        /* \"cordingtest/cordingtest3.sol\":1901:1921  UserInfo memory user */\n      0x00\n        /* \"cordingtest/cordingtest3.sol\":1924:1929  users */\n      dup1\n        /* \"cordingtest/cordingtest3.sol\":1930:1933  _id */\n      dup5\n        /* \"cordingtest/cordingtest3.sol\":1924:1934  users[_id] */\n      mload(0x40)\n      tag_27\n      swap2\n      swap1\n      tag_20\n      jump\t// in\n    tag_27:\n      swap1\n      dup2\n      mstore\n      0x20\n      add\n      mload(0x40)\n      dup1\n      swap2\n      sub\n      swap1\n      keccak256\n        /* \"cordingtest/cordingtest3.sol\":1901:1934  UserInfo memory user = users[_id] */\n      mload(0x40)\n      dup1\n      0x60\n      add\n      0x40\n      mstore\n      swap1\n      dup2\n      0x00\n      dup3\n      add\n      sload\n      dup2\n      mstore\n      0x20\n      add\n      0x01\n      dup3\n      add\n      0x00\n      swap1\n      sload\n      swap1\n      0x0100\n      exp\n      swap1\n      div\n      0xff\n      and\n      iszero\n      iszero\n      iszero\n      iszero\n      dup2\n      mstore\n      0x20\n      add\n      0x02\n      dup3\n      add\n      sload\n      dup2\n      mstore\n      pop\n      pop\n      swap1\n      pop\n        /* \"cordingtest/cordingtest3.sol\":1949:1953  user */\n      dup1\n        /* \"cordingtest/cordingtest3.sol\":1949:1964  user.registered */\n      0x20\n      add\n      mload\n        /* \"cordingtest/cordingtest3.sol\":1944:2023  if (!user.registered) {... */\n      tag_28\n      jumpi\n        /* \"cordingtest/cordingtest3.sol\":1980:2012  return \"This ID does not exist.\" */\n      mload(0x40)\n      dup1\n      0x40\n      add\n      0x40\n      mstore\n      dup1\n      0x17\n      dup2\n      mstore\n      0x20\n      add\n      0x5468697320494420646f6573206e6f742065786973742e000000000000000000\n      dup2\n      mstore\n      pop\n      swap2\n      pop\n      pop\n      jump(tag_26)\n        /* \"cordingtest/cordingtest3.sol\":1944:2023  if (!user.registered) {... */\n    tag_28:\n        /* \"cordingtest/cordingtest3.sol\":2033:2053  bytes32 passwordHash */\n      0x00\n        /* \"cordingtest/cordingtest3.sol\":2083:2092  _password */\n      dup4\n        /* \"cordingtest/cordingtest3.sol\":2066:2093  abi.encodePacked(_password) */\n      add(0x20, mload(0x40))\n      tag_29\n      swap2\n      swap1\n      tag_20\n      jump\t// in\n    tag_29:\n      mload(0x40)\n      0x20\n      dup2\n      dup4\n      sub\n      sub\n      dup2\n      mstore\n      swap1\n      0x40\n      mstore\n        /* \"cordingtest/cordingtest3.sol\":2056:2094  keccak256(abi.encodePacked(_password)) */\n      dup1\n      mload\n      swap1\n      0x20\n      add\n      keccak256\n        /* \"cordingtest/cordingtest3.sol\":2033:2094  bytes32 passwordHash = keccak256(abi.encodePacked(_password)) */\n      swap1\n      pop\n        /* \"cordingtest/cordingtest3.sol\":2124:2128  user */\n      dup2\n        /* \"cordingtest/cordingtest3.sol\":2124:2137  user.password */\n      0x00\n      add\n      mload\n        /* \"cordingtest/cordingtest3.sol\":2108:2120  passwordHash */\n      dup2\n        /* \"cordingtest/cordingtest3.sol\":2108:2137  passwordHash == user.password */\n      sub\n        /* \"cordingtest/cordingtest3.sol\":2104:2418  if (passwordHash == user.password) {... */\n      tag_30\n      jumpi\n        /* \"cordingtest/cordingtest3.sol\":2151:2165  return \"Login\" */\n      mload(0x40)\n      dup1\n      0x40\n      add\n      0x40\n      mstore\n      dup1\n      0x05\n      dup2\n      mstore\n      0x20\n      add\n      0x4c6f67696e000000000000000000000000000000000000000000000000000000\n      dup2\n      mstore\n      pop\n      swap3\n      pop\n      pop\n      pop\n      jump(tag_26)\n        /* \"cordingtest/cordingtest3.sol\":2104:2418  if (passwordHash == user.password) {... */\n    tag_30:\n        /* \"cordingtest/cordingtest3.sol\":2225:2226  5 */\n      0x05\n        /* \"cordingtest/cordingtest3.sol\":2220:2221  1 */\n      0x01\n        /* \"cordingtest/cordingtest3.sol\":2200:2204  user */\n      dup4\n        /* \"cordingtest/cordingtest3.sol\":2200:2218  user.loginAttempts */\n      0x40\n      add\n      mload\n        /* \"cordingtest/cordingtest3.sol\":2200:2221  user.loginAttempts +1 */\n      tag_32\n      swap2\n      swap1\n      tag_33\n      jump\t// in\n    tag_32:\n        /* \"cordingtest/cordingtest3.sol\":2200:2226  user.loginAttempts +1 >= 5 */\n      lt\n        /* \"cordingtest/cordingtest3.sol\":2196:2408  if (user.loginAttempts +1 >= 5) {... */\n      tag_34\n      jumpi\n        /* \"cordingtest/cordingtest3.sol\":2246:2322  return \"Password attempts have exceeded 5 times. Raises a security warning.\" */\n      mload(0x40)\n      dup1\n      0x80\n      add\n      0x40\n      mstore\n      dup1\n      0x43\n      dup2\n      mstore\n      0x20\n      add\n      data_f5a3dc30dc5c45750f973001617e49e0579824fd40dc838ac6599fd0471ef7a7\n      0x43\n      swap2\n      codecopy\n      swap3\n      pop\n      pop\n      pop\n      jump(tag_26)\n        /* \"cordingtest/cordingtest3.sol\":2196:2408  if (user.loginAttempts +1 >= 5) {... */\n    tag_34:\n        /* \"cordingtest/cordingtest3.sol\":2361:2393  return \"passwords do not match.\" */\n      mload(0x40)\n      dup1\n      0x40\n      add\n      0x40\n      mstore\n      dup1\n      0x17\n      dup2\n      mstore\n      0x20\n      add\n      0x70617373776f72647320646f206e6f74206d617463682e000000000000000000\n      dup2\n      mstore\n      pop\n      swap3\n      pop\n      pop\n      pop\n        /* \"cordingtest/cordingtest3.sol\":1796:2424  function login(string memory _id, string memory _password) public view returns (string memory) {... */\n    tag_26:\n      swap3\n      swap2\n      pop\n      pop\n      jump\t// out\n        /* \"cordingtest/cordingtest3.sol\":2430:2764  function unregister(string memory _id, string memory _password) public {... */\n    tag_17:\n        /* \"cordingtest/cordingtest3.sol\":2519:2524  users */\n      0x00\n        /* \"cordingtest/cordingtest3.sol\":2525:2528  _id */\n      dup3\n        /* \"cordingtest/cordingtest3.sol\":2519:2529  users[_id] */\n      mload(0x40)\n      tag_37\n      swap2\n      swap1\n      tag_20\n      jump\t// in\n    tag_37:\n      swap1\n      dup2\n      mstore\n      0x20\n      add\n      mload(0x40)\n      dup1\n      swap2\n      sub\n      swap1\n      keccak256\n        /* \"cordingtest/cordingtest3.sol\":2519:2540  users[_id].registered */\n      0x01\n      add\n      0x00\n      swap1\n      sload\n      swap1\n      0x0100\n      exp\n      swap1\n      div\n      0xff\n      and\n        /* \"cordingtest/cordingtest3.sol\":2511:2568  require(users[_id].registered, \"This ID does not exist.\") */\n      tag_38\n      jumpi\n      mload(0x40)\n      0x08c379a000000000000000000000000000000000000000000000000000000000\n      dup2\n      mstore\n      0x04\n      add\n      tag_39\n      swap1\n      tag_40\n      jump\t// in\n    tag_39:\n      mload(0x40)\n      dup1\n      swap2\n      sub\n      swap1\n      revert\n    tag_38:\n        /* \"cordingtest/cordingtest3.sol\":2587:2603  bytes32 password */\n      0x00\n        /* \"cordingtest/cordingtest3.sol\":2633:2642  _password */\n      dup2\n        /* \"cordingtest/cordingtest3.sol\":2616:2643  abi.encodePacked(_password) */\n      add(0x20, mload(0x40))\n      tag_41\n      swap2\n      swap1\n      tag_20\n      jump\t// in\n    tag_41:\n      mload(0x40)\n      0x20\n      dup2\n      dup4\n      sub\n      sub\n      dup2\n      mstore\n      swap1\n      0x40\n      mstore\n        /* \"cordingtest/cordingtest3.sol\":2606:2644  keccak256(abi.encodePacked(_password)) */\n      dup1\n      mload\n      swap1\n      0x20\n      add\n      keccak256\n        /* \"cordingtest/cordingtest3.sol\":2587:2644  bytes32 password = keccak256(abi.encodePacked(_password)) */\n      swap1\n      pop\n        /* \"cordingtest/cordingtest3.sol\":2674:2679  users */\n      0x00\n        /* \"cordingtest/cordingtest3.sol\":2680:2683  _id */\n      dup4\n        /* \"cordingtest/cordingtest3.sol\":2674:2684  users[_id] */\n      mload(0x40)\n      tag_42\n      swap2\n      swap1\n      tag_20\n      jump\t// in\n    tag_42:\n      swap1\n      dup2\n      mstore\n      0x20\n      add\n      mload(0x40)\n      dup1\n      swap2\n      sub\n      swap1\n      keccak256\n        /* \"cordingtest/cordingtest3.sol\":2674:2693  users[_id].password */\n      0x00\n      add\n      sload\n        /* \"cordingtest/cordingtest3.sol\":2662:2670  password */\n      dup2\n        /* \"cordingtest/cordingtest3.sol\":2662:2693  password == users[_id].password */\n      eq\n        /* \"cordingtest/cordingtest3.sol\":2654:2721  require(password == users[_id].password, \"This ID does not exist.\") */\n      tag_43\n      jumpi\n      mload(0x40)\n      0x08c379a000000000000000000000000000000000000000000000000000000000\n      dup2\n      mstore\n      0x04\n      add\n      tag_44\n      swap1\n      tag_40\n      jump\t// in\n    tag_44:\n      mload(0x40)\n      dup1\n      swap2\n      sub\n      swap1\n      revert\n    tag_43:\n        /* \"cordingtest/cordingtest3.sol\":2747:2752  users */\n      0x00\n        /* \"cordingtest/cordingtest3.sol\":2753:2756  _id */\n      dup4\n        /* \"cordingtest/cordingtest3.sol\":2747:2757  users[_id] */\n      mload(0x40)\n      tag_45\n      swap2\n      swap1\n      tag_20\n      jump\t// in\n    tag_45:\n      swap1\n      dup2\n      mstore\n      0x20\n      add\n      mload(0x40)\n      dup1\n      swap2\n      sub\n      swap1\n      keccak256\n      0x00\n        /* \"cordingtest/cordingtest3.sol\":2740:2757  delete users[_id] */\n      dup1\n      dup3\n      add\n      0x00\n      swap1\n      sstore\n      0x01\n      dup3\n      add\n      exp(0x0100, 0x00)\n      dup2\n      sload\n      swap1\n      0xff\n      mul\n      not\n      and\n      swap1\n      sstore\n      0x02\n      dup3\n      add\n      0x00\n      swap1\n      sstore\n      pop\n      pop\n        /* \"cordingtest/cordingtest3.sol\":2501:2764  {... */\n      pop\n        /* \"cordingtest/cordingtest3.sol\":2430:2764  function unregister(string memory _id, string memory _password) public {... */\n      pop\n      pop\n      jump\t// out\n        /* \"#utility.yul\":7:82   */\n    tag_46:\n        /* \"#utility.yul\":40:46   */\n      0x00\n        /* \"#utility.yul\":73:75   */\n      0x40\n        /* \"#utility.yul\":67:76   */\n      mload\n        /* \"#utility.yul\":57:76   */\n      swap1\n      pop\n        /* \"#utility.yul\":7:82   */\n      swap1\n      jump\t// out\n        /* \"#utility.yul\":88:205   */\n    tag_47:\n        /* \"#utility.yul\":197:198   */\n      0x00\n        /* \"#utility.yul\":194:195   */\n      dup1\n        /* \"#utility.yul\":187:199   */\n      revert\n        /* \"#utility.yul\":211:328   */\n    tag_48:\n        /* \"#utility.yul\":320:321   */\n      0x00\n        /* \"#utility.yul\":317:318   */\n      dup1\n        /* \"#utility.yul\":310:322   */\n      revert\n        /* \"#utility.yul\":334:451   */\n    tag_49:\n        /* \"#utility.yul\":443:444   */\n      0x00\n        /* \"#utility.yul\":440:441   */\n      dup1\n        /* \"#utility.yul\":433:445   */\n      revert\n        /* \"#utility.yul\":457:574   */\n    tag_50:\n        /* \"#utility.yul\":566:567   */\n      0x00\n        /* \"#utility.yul\":563:564   */\n      dup1\n        /* \"#utility.yul\":556:568   */\n      revert\n        /* \"#utility.yul\":580:682   */\n    tag_51:\n        /* \"#utility.yul\":621:627   */\n      0x00\n        /* \"#utility.yul\":672:674   */\n      0x1f\n        /* \"#utility.yul\":668:675   */\n      not\n        /* \"#utility.yul\":663:665   */\n      0x1f\n        /* \"#utility.yul\":656:661   */\n      dup4\n        /* \"#utility.yul\":652:666   */\n      add\n        /* \"#utility.yul\":648:676   */\n      and\n        /* \"#utility.yul\":638:676   */\n      swap1\n      pop\n        /* \"#utility.yul\":580:682   */\n      swap2\n      swap1\n      pop\n      jump\t// out\n        /* \"#utility.yul\":688:868   */\n    tag_52:\n        /* \"#utility.yul\":736:813   */\n      0x4e487b7100000000000000000000000000000000000000000000000000000000\n        /* \"#utility.yul\":733:734   */\n      0x00\n        /* \"#utility.yul\":726:814   */\n      mstore\n        /* \"#utility.yul\":833:837   */\n      0x41\n        /* \"#utility.yul\":830:831   */\n      0x04\n        /* \"#utility.yul\":823:838   */\n      mstore\n        /* \"#utility.yul\":857:861   */\n      0x24\n        /* \"#utility.yul\":854:855   */\n      0x00\n        /* \"#utility.yul\":847:862   */\n      revert\n        /* \"#utility.yul\":874:1155   */\n    tag_53:\n        /* \"#utility.yul\":957:984   */\n      tag_80\n        /* \"#utility.yul\":979:983   */\n      dup3\n        /* \"#utility.yul\":957:984   */\n      tag_51\n      jump\t// in\n    tag_80:\n        /* \"#utility.yul\":949:955   */\n      dup2\n        /* \"#utility.yul\":945:985   */\n      add\n        /* \"#utility.yul\":1087:1093   */\n      dup2\n        /* \"#utility.yul\":1075:1085   */\n      dup2\n        /* \"#utility.yul\":1072:1094   */\n      lt\n        /* \"#utility.yul\":1051:1069   */\n      0xffffffffffffffff\n        /* \"#utility.yul\":1039:1049   */\n      dup3\n        /* \"#utility.yul\":1036:1070   */\n      gt\n        /* \"#utility.yul\":1033:1095   */\n      or\n        /* \"#utility.yul\":1030:1118   */\n      iszero\n      tag_81\n      jumpi\n        /* \"#utility.yul\":1098:1116   */\n      tag_82\n      tag_52\n      jump\t// in\n    tag_82:\n        /* \"#utility.yul\":1030:1118   */\n    tag_81:\n        /* \"#utility.yul\":1138:1148   */\n      dup1\n        /* \"#utility.yul\":1134:1136   */\n      0x40\n        /* \"#utility.yul\":1127:1149   */\n      mstore\n        /* \"#utility.yul\":917:1155   */\n      pop\n        /* \"#utility.yul\":874:1155   */\n      pop\n      pop\n      jump\t// out\n        /* \"#utility.yul\":1161:1290   */\n    tag_54:\n        /* \"#utility.yul\":1195:1201   */\n      0x00\n        /* \"#utility.yul\":1222:1242   */\n      tag_84\n      tag_46\n      jump\t// in\n    tag_84:\n        /* \"#utility.yul\":1212:1242   */\n      swap1\n      pop\n        /* \"#utility.yul\":1251:1284   */\n      tag_85\n        /* \"#utility.yul\":1279:1283   */\n      dup3\n        /* \"#utility.yul\":1271:1277   */\n      dup3\n        /* \"#utility.yul\":1251:1284   */\n      tag_53\n      jump\t// in\n    tag_85:\n        /* \"#utility.yul\":1161:1290   */\n      swap2\n      swap1\n      pop\n      jump\t// out\n        /* \"#utility.yul\":1296:1604   */\n    tag_55:\n        /* \"#utility.yul\":1358:1362   */\n      0x00\n        /* \"#utility.yul\":1448:1466   */\n      0xffffffffffffffff\n        /* \"#utility.yul\":1440:1446   */\n      dup3\n        /* \"#utility.yul\":1437:1467   */\n      gt\n        /* \"#utility.yul\":1434:1490   */\n      iszero\n      tag_87\n      jumpi\n        /* \"#utility.yul\":1470:1488   */\n      tag_88\n      tag_52\n      jump\t// in\n    tag_88:\n        /* \"#utility.yul\":1434:1490   */\n    tag_87:\n        /* \"#utility.yul\":1508:1537   */\n      tag_89\n        /* \"#utility.yul\":1530:1536   */\n      dup3\n        /* \"#utility.yul\":1508:1537   */\n      tag_51\n      jump\t// in\n    tag_89:\n        /* \"#utility.yul\":1500:1537   */\n      swap1\n      pop\n        /* \"#utility.yul\":1592:1596   */\n      0x20\n        /* \"#utility.yul\":1586:1590   */\n      dup2\n        /* \"#utility.yul\":1582:1597   */\n      add\n        /* \"#utility.yul\":1574:1597   */\n      swap1\n      pop\n        /* \"#utility.yul\":1296:1604   */\n      swap2\n      swap1\n      pop\n      jump\t// out\n        /* \"#utility.yul\":1610:1758   */\n    tag_56:\n        /* \"#utility.yul\":1708:1714   */\n      dup3\n        /* \"#utility.yul\":1703:1706   */\n      dup2\n        /* \"#utility.yul\":1698:1701   */\n      dup4\n        /* \"#utility.yul\":1685:1715   */\n      calldatacopy\n        /* \"#utility.yul\":1749:1750   */\n      0x00\n        /* \"#utility.yul\":1740:1746   */\n      dup4\n        /* \"#utility.yul\":1735:1738   */\n      dup4\n        /* \"#utility.yul\":1731:1747   */\n      add\n        /* \"#utility.yul\":1724:1751   */\n      mstore\n        /* \"#utility.yul\":1610:1758   */\n      pop\n      pop\n      pop\n      jump\t// out\n        /* \"#utility.yul\":1764:2189   */\n    tag_57:\n        /* \"#utility.yul\":1842:1847   */\n      0x00\n        /* \"#utility.yul\":1867:1933   */\n      tag_92\n        /* \"#utility.yul\":1883:1932   */\n      tag_93\n        /* \"#utility.yul\":1925:1931   */\n      dup5\n        /* \"#utility.yul\":1883:1932   */\n      tag_55\n      jump\t// in\n    tag_93:\n        /* \"#utility.yul\":1867:1933   */\n      tag_54\n      jump\t// in\n    tag_92:\n        /* \"#utility.yul\":1858:1933   */\n      swap1\n      pop\n        /* \"#utility.yul\":1956:1962   */\n      dup3\n        /* \"#utility.yul\":1949:1954   */\n      dup2\n        /* \"#utility.yul\":1942:1963   */\n      mstore\n        /* \"#utility.yul\":1994:1998   */\n      0x20\n        /* \"#utility.yul\":1987:1992   */\n      dup2\n        /* \"#utility.yul\":1983:1999   */\n      add\n        /* \"#utility.yul\":2032:2035   */\n      dup5\n        /* \"#utility.yul\":2023:2029   */\n      dup5\n        /* \"#utility.yul\":2018:2021   */\n      dup5\n        /* \"#utility.yul\":2014:2030   */\n      add\n        /* \"#utility.yul\":2011:2036   */\n      gt\n        /* \"#utility.yul\":2008:2120   */\n      iszero\n      tag_94\n      jumpi\n        /* \"#utility.yul\":2039:2118   */\n      tag_95\n      tag_50\n      jump\t// in\n    tag_95:\n        /* \"#utility.yul\":2008:2120   */\n    tag_94:\n        /* \"#utility.yul\":2129:2183   */\n      tag_96\n        /* \"#utility.yul\":2176:2182   */\n      dup5\n        /* \"#utility.yul\":2171:2174   */\n      dup3\n        /* \"#utility.yul\":2166:2169   */\n      dup6\n        /* \"#utility.yul\":2129:2183   */\n      tag_56\n      jump\t// in\n    tag_96:\n        /* \"#utility.yul\":1848:2189   */\n      pop\n        /* \"#utility.yul\":1764:2189   */\n      swap4\n      swap3\n      pop\n      pop\n      pop\n      jump\t// out\n        /* \"#utility.yul\":2209:2549   */\n    tag_58:\n        /* \"#utility.yul\":2265:2270   */\n      0x00\n        /* \"#utility.yul\":2314:2317   */\n      dup3\n        /* \"#utility.yul\":2307:2311   */\n      0x1f\n        /* \"#utility.yul\":2299:2305   */\n      dup4\n        /* \"#utility.yul\":2295:2312   */\n      add\n        /* \"#utility.yul\":2291:2318   */\n      slt\n        /* \"#utility.yul\":2281:2403   */\n      tag_98\n      jumpi\n        /* \"#utility.yul\":2322:2401   */\n      tag_99\n      tag_49\n      jump\t// in\n    tag_99:\n        /* \"#utility.yul\":2281:2403   */\n    tag_98:\n        /* \"#utility.yul\":2439:2445   */\n      dup2\n        /* \"#utility.yul\":2426:2446   */\n      calldataload\n        /* \"#utility.yul\":2464:2543   */\n      tag_100\n        /* \"#utility.yul\":2539:2542   */\n      dup5\n        /* \"#utility.yul\":2531:2537   */\n      dup3\n        /* \"#utility.yul\":2524:2528   */\n      0x20\n        /* \"#utility.yul\":2516:2522   */\n      dup7\n        /* \"#utility.yul\":2512:2529   */\n      add\n        /* \"#utility.yul\":2464:2543   */\n      tag_57\n      jump\t// in\n    tag_100:\n        /* \"#utility.yul\":2455:2543   */\n      swap2\n      pop\n        /* \"#utility.yul\":2271:2549   */\n      pop\n        /* \"#utility.yul\":2209:2549   */\n      swap3\n      swap2\n      pop\n      pop\n      jump\t// out\n        /* \"#utility.yul\":2555:3389   */\n    tag_8:\n        /* \"#utility.yul\":2643:2649   */\n      0x00\n        /* \"#utility.yul\":2651:2657   */\n      dup1\n        /* \"#utility.yul\":2700:2702   */\n      0x40\n        /* \"#utility.yul\":2688:2697   */\n      dup4\n        /* \"#utility.yul\":2679:2686   */\n      dup6\n        /* \"#utility.yul\":2675:2698   */\n      sub\n        /* \"#utility.yul\":2671:2703   */\n      slt\n        /* \"#utility.yul\":2668:2787   */\n      iszero\n      tag_102\n      jumpi\n        /* \"#utility.yul\":2706:2785   */\n      tag_103\n      tag_47\n      jump\t// in\n    tag_103:\n        /* \"#utility.yul\":2668:2787   */\n    tag_102:\n        /* \"#utility.yul\":2854:2855   */\n      0x00\n        /* \"#utility.yul\":2843:2852   */\n      dup4\n        /* \"#utility.yul\":2839:2856   */\n      add\n        /* \"#utility.yul\":2826:2857   */\n      calldataload\n        /* \"#utility.yul\":2884:2902   */\n      0xffffffffffffffff\n        /* \"#utility.yul\":2876:2882   */\n      dup2\n        /* \"#utility.yul\":2873:2903   */\n      gt\n        /* \"#utility.yul\":2870:2987   */\n      iszero\n      tag_104\n      jumpi\n        /* \"#utility.yul\":2906:2985   */\n      tag_105\n      tag_48\n      jump\t// in\n    tag_105:\n        /* \"#utility.yul\":2870:2987   */\n    tag_104:\n        /* \"#utility.yul\":3011:3074   */\n      tag_106\n        /* \"#utility.yul\":3066:3073   */\n      dup6\n        /* \"#utility.yul\":3057:3063   */\n      dup3\n        /* \"#utility.yul\":3046:3055   */\n      dup7\n        /* \"#utility.yul\":3042:3064   */\n      add\n        /* \"#utility.yul\":3011:3074   */\n      tag_58\n      jump\t// in\n    tag_106:\n        /* \"#utility.yul\":3001:3074   */\n      swap3\n      pop\n        /* \"#utility.yul\":2797:3084   */\n      pop\n        /* \"#utility.yul\":3151:3153   */\n      0x20\n        /* \"#utility.yul\":3140:3149   */\n      dup4\n        /* \"#utility.yul\":3136:3154   */\n      add\n        /* \"#utility.yul\":3123:3155   */\n      calldataload\n        /* \"#utility.yul\":3182:3200   */\n      0xffffffffffffffff\n        /* \"#utility.yul\":3174:3180   */\n      dup2\n        /* \"#utility.yul\":3171:3201   */\n      gt\n        /* \"#utility.yul\":3168:3285   */\n      iszero\n      tag_107\n      jumpi\n        /* \"#utility.yul\":3204:3283   */\n      tag_108\n      tag_48\n      jump\t// in\n    tag_108:\n        /* \"#utility.yul\":3168:3285   */\n    tag_107:\n        /* \"#utility.yul\":3309:3372   */\n      tag_109\n        /* \"#utility.yul\":3364:3371   */\n      dup6\n        /* \"#utility.yul\":3355:3361   */\n      dup3\n        /* \"#utility.yul\":3344:3353   */\n      dup7\n        /* \"#utility.yul\":3340:3362   */\n      add\n        /* \"#utility.yul\":3309:3372   */\n      tag_58\n      jump\t// in\n    tag_109:\n        /* \"#utility.yul\":3299:3372   */\n      swap2\n      pop\n        /* \"#utility.yul\":3094:3382   */\n      pop\n        /* \"#utility.yul\":2555:3389   */\n      swap3\n      pop\n      swap3\n      swap1\n      pop\n      jump\t// out\n        /* \"#utility.yul\":3395:3494   */\n    tag_59:\n        /* \"#utility.yul\":3447:3453   */\n      0x00\n        /* \"#utility.yul\":3481:3486   */\n      dup2\n        /* \"#utility.yul\":3475:3487   */\n      mload\n        /* \"#utility.yul\":3465:3487   */\n      swap1\n      pop\n        /* \"#utility.yul\":3395:3494   */\n      swap2\n      swap1\n      pop\n      jump\t// out\n        /* \"#utility.yul\":3500:3669   */\n    tag_60:\n        /* \"#utility.yul\":3584:3595   */\n      0x00\n        /* \"#utility.yul\":3618:3624   */\n      dup3\n        /* \"#utility.yul\":3613:3616   */\n      dup3\n        /* \"#utility.yul\":3606:3625   */\n      mstore\n        /* \"#utility.yul\":3658:3662   */\n      0x20\n        /* \"#utility.yul\":3653:3656   */\n      dup3\n        /* \"#utility.yul\":3649:3663   */\n      add\n        /* \"#utility.yul\":3634:3663   */\n      swap1\n      pop\n        /* \"#utility.yul\":3500:3669   */\n      swap3\n      swap2\n      pop\n      pop\n      jump\t// out\n        /* \"#utility.yul\":3675:3814   */\n    tag_61:\n        /* \"#utility.yul\":3764:3770   */\n      dup3\n        /* \"#utility.yul\":3759:3762   */\n      dup2\n        /* \"#utility.yul\":3754:3757   */\n      dup4\n        /* \"#utility.yul\":3748:3771   */\n      mcopy\n        /* \"#utility.yul\":3805:3806   */\n      0x00\n        /* \"#utility.yul\":3796:3802   */\n      dup4\n        /* \"#utility.yul\":3791:3794   */\n      dup4\n        /* \"#utility.yul\":3787:3803   */\n      add\n        /* \"#utility.yul\":3780:3807   */\n      mstore\n        /* \"#utility.yul\":3675:3814   */\n      pop\n      pop\n      pop\n      jump\t// out\n        /* \"#utility.yul\":3820:4197   */\n    tag_62:\n        /* \"#utility.yul\":3908:3911   */\n      0x00\n        /* \"#utility.yul\":3936:3975   */\n      tag_114\n        /* \"#utility.yul\":3969:3974   */\n      dup3\n        /* \"#utility.yul\":3936:3975   */\n      tag_59\n      jump\t// in\n    tag_114:\n        /* \"#utility.yul\":3991:4062   */\n      tag_115\n        /* \"#utility.yul\":4055:4061   */\n      dup2\n        /* \"#utility.yul\":4050:4053   */\n      dup6\n        /* \"#utility.yul\":3991:4062   */\n      tag_60\n      jump\t// in\n    tag_115:\n        /* \"#utility.yul\":3984:4062   */\n      swap4\n      pop\n        /* \"#utility.yul\":4071:4136   */\n      tag_116\n        /* \"#utility.yul\":4129:4135   */\n      dup2\n        /* \"#utility.yul\":4124:4127   */\n      dup6\n        /* \"#utility.yul\":4117:4121   */\n      0x20\n        /* \"#utility.yul\":4110:4115   */\n      dup7\n        /* \"#utility.yul\":4106:4122   */\n      add\n        /* \"#utility.yul\":4071:4136   */\n      tag_61\n      jump\t// in\n    tag_116:\n        /* \"#utility.yul\":4161:4190   */\n      tag_117\n        /* \"#utility.yul\":4183:4189   */\n      dup2\n        /* \"#utility.yul\":4161:4190   */\n      tag_51\n      jump\t// in\n    tag_117:\n        /* \"#utility.yul\":4156:4159   */\n      dup5\n        /* \"#utility.yul\":4152:4191   */\n      add\n        /* \"#utility.yul\":4145:4191   */\n      swap2\n      pop\n        /* \"#utility.yul\":3912:4197   */\n      pop\n        /* \"#utility.yul\":3820:4197   */\n      swap3\n      swap2\n      pop\n      pop\n      jump\t// out\n        /* \"#utility.yul\":4203:4516   */\n    tag_14:\n        /* \"#utility.yul\":4316:4320   */\n      0x00\n        /* \"#utility.yul\":4354:4356   */\n      0x20\n        /* \"#utility.yul\":4343:4352   */\n      dup3\n        /* \"#utility.yul\":4339:4357   */\n      add\n        /* \"#utility.yul\":4331:4357   */\n      swap1\n      pop\n        /* \"#utility.yul\":4403:4412   */\n      dup2\n        /* \"#utility.yul\":4397:4401   */\n      dup2\n        /* \"#utility.yul\":4393:4413   */\n      sub\n        /* \"#utility.yul\":4389:4390   */\n      0x00\n        /* \"#utility.yul\":4378:4387   */\n      dup4\n        /* \"#utility.yul\":4374:4391   */\n      add\n        /* \"#utility.yul\":4367:4414   */\n      mstore\n        /* \"#utility.yul\":4431:4509   */\n      tag_119\n        /* \"#utility.yul\":4504:4508   */\n      dup2\n        /* \"#utility.yul\":4495:4501   */\n      dup5\n        /* \"#utility.yul\":4431:4509   */\n      tag_62\n      jump\t// in\n    tag_119:\n        /* \"#utility.yul\":4423:4509   */\n      swap1\n      pop\n        /* \"#utility.yul\":4203:4516   */\n      swap3\n      swap2\n      pop\n      pop\n      jump\t// out\n        /* \"#utility.yul\":4522:4670   */\n    tag_63:\n        /* \"#utility.yul\":4624:4635   */\n      0x00\n        /* \"#utility.yul\":4661:4664   */\n      dup2\n        /* \"#utility.yul\":4646:4664   */\n      swap1\n      pop\n        /* \"#utility.yul\":4522:4670   */\n      swap3\n      swap2\n      pop\n      pop\n      jump\t// out\n        /* \"#utility.yul\":4676:5066   */\n    tag_64:\n        /* \"#utility.yul\":4782:4785   */\n      0x00\n        /* \"#utility.yul\":4810:4849   */\n      tag_122\n        /* \"#utility.yul\":4843:4848   */\n      dup3\n        /* \"#utility.yul\":4810:4849   */\n      tag_59\n      jump\t// in\n    tag_122:\n        /* \"#utility.yul\":4865:4954   */\n      tag_123\n        /* \"#utility.yul\":4947:4953   */\n      dup2\n        /* \"#utility.yul\":4942:4945   */\n      dup6\n        /* \"#utility.yul\":4865:4954   */\n      tag_63\n      jump\t// in\n    tag_123:\n        /* \"#utility.yul\":4858:4954   */\n      swap4\n      pop\n        /* \"#utility.yul\":4963:5028   */\n      tag_124\n        /* \"#utility.yul\":5021:5027   */\n      dup2\n        /* \"#utility.yul\":5016:5019   */\n      dup6\n        /* \"#utility.yul\":5009:5013   */\n      0x20\n        /* \"#utility.yul\":5002:5007   */\n      dup7\n        /* \"#utility.yul\":4998:5014   */\n      add\n        /* \"#utility.yul\":4963:5028   */\n      tag_61\n      jump\t// in\n    tag_124:\n        /* \"#utility.yul\":5053:5059   */\n      dup1\n        /* \"#utility.yul\":5048:5051   */\n      dup5\n        /* \"#utility.yul\":5044:5060   */\n      add\n        /* \"#utility.yul\":5037:5060   */\n      swap2\n      pop\n        /* \"#utility.yul\":4786:5066   */\n      pop\n        /* \"#utility.yul\":4676:5066   */\n      swap3\n      swap2\n      pop\n      pop\n      jump\t// out\n        /* \"#utility.yul\":5072:5347   */\n    tag_20:\n        /* \"#utility.yul\":5204:5207   */\n      0x00\n        /* \"#utility.yul\":5226:5321   */\n      tag_126\n        /* \"#utility.yul\":5317:5320   */\n      dup3\n        /* \"#utility.yul\":5308:5314   */\n      dup5\n        /* \"#utility.yul\":5226:5321   */\n      tag_64\n      jump\t// in\n    tag_126:\n        /* \"#utility.yul\":5219:5321   */\n      swap2\n      pop\n        /* \"#utility.yul\":5338:5341   */\n      dup2\n        /* \"#utility.yul\":5331:5341   */\n      swap1\n      pop\n        /* \"#utility.yul\":5072:5347   */\n      swap3\n      swap2\n      pop\n      pop\n      jump\t// out\n        /* \"#utility.yul\":5353:5515   */\n    tag_65:\n        /* \"#utility.yul\":5493:5507   */\n      0x49442069732065786973742e0000000000000000000000000000000000000000\n        /* \"#utility.yul\":5489:5490   */\n      0x00\n        /* \"#utility.yul\":5481:5487   */\n      dup3\n        /* \"#utility.yul\":5477:5491   */\n      add\n        /* \"#utility.yul\":5470:5508   */\n      mstore\n        /* \"#utility.yul\":5353:5515   */\n      pop\n      jump\t// out\n        /* \"#utility.yul\":5521:5887   */\n    tag_66:\n        /* \"#utility.yul\":5663:5666   */\n      0x00\n        /* \"#utility.yul\":5684:5751   */\n      tag_129\n        /* \"#utility.yul\":5748:5750   */\n      0x0c\n        /* \"#utility.yul\":5743:5746   */\n      dup4\n        /* \"#utility.yul\":5684:5751   */\n      tag_60\n      jump\t// in\n    tag_129:\n        /* \"#utility.yul\":5677:5751   */\n      swap2\n      pop\n        /* \"#utility.yul\":5760:5853   */\n      tag_130\n        /* \"#utility.yul\":5849:5852   */\n      dup3\n        /* \"#utility.yul\":5760:5853   */\n      tag_65\n      jump\t// in\n    tag_130:\n        /* \"#utility.yul\":5878:5880   */\n      0x20\n        /* \"#utility.yul\":5873:5876   */\n      dup3\n        /* \"#utility.yul\":5869:5881   */\n      add\n        /* \"#utility.yul\":5862:5881   */\n      swap1\n      pop\n        /* \"#utility.yul\":5521:5887   */\n      swap2\n      swap1\n      pop\n      jump\t// out\n        /* \"#utility.yul\":5893:6312   */\n    tag_23:\n        /* \"#utility.yul\":6059:6063   */\n      0x00\n        /* \"#utility.yul\":6097:6099   */\n      0x20\n        /* \"#utility.yul\":6086:6095   */\n      dup3\n        /* \"#utility.yul\":6082:6100   */\n      add\n        /* \"#utility.yul\":6074:6100   */\n      swap1\n      pop\n        /* \"#utility.yul\":6146:6155   */\n      dup2\n        /* \"#utility.yul\":6140:6144   */\n      dup2\n        /* \"#utility.yul\":6136:6156   */\n      sub\n        /* \"#utility.yul\":6132:6133   */\n      0x00\n        /* \"#utility.yul\":6121:6130   */\n      dup4\n        /* \"#utility.yul\":6117:6134   */\n      add\n        /* \"#utility.yul\":6110:6157   */\n      mstore\n        /* \"#utility.yul\":6174:6305   */\n      tag_132\n        /* \"#utility.yul\":6300:6304   */\n      dup2\n        /* \"#utility.yul\":6174:6305   */\n      tag_66\n      jump\t// in\n    tag_132:\n        /* \"#utility.yul\":6166:6305   */\n      swap1\n      pop\n        /* \"#utility.yul\":5893:6312   */\n      swap2\n      swap1\n      pop\n      jump\t// out\n        /* \"#utility.yul\":6318:6395   */\n    tag_67:\n        /* \"#utility.yul\":6355:6362   */\n      0x00\n        /* \"#utility.yul\":6384:6389   */\n      dup2\n        /* \"#utility.yul\":6373:6389   */\n      swap1\n      pop\n        /* \"#utility.yul\":6318:6395   */\n      swap2\n      swap1\n      pop\n      jump\t// out\n        /* \"#utility.yul\":6401:6581   */\n    tag_68:\n        /* \"#utility.yul\":6449:6526   */\n      0x4e487b7100000000000000000000000000000000000000000000000000000000\n        /* \"#utility.yul\":6446:6447   */\n      0x00\n        /* \"#utility.yul\":6439:6527   */\n      mstore\n        /* \"#utility.yul\":6546:6550   */\n      0x11\n        /* \"#utility.yul\":6543:6544   */\n      0x04\n        /* \"#utility.yul\":6536:6551   */\n      mstore\n        /* \"#utility.yul\":6570:6574   */\n      0x24\n        /* \"#utility.yul\":6567:6568   */\n      0x00\n        /* \"#utility.yul\":6560:6575   */\n      revert\n        /* \"#utility.yul\":6587:6778   */\n    tag_33:\n        /* \"#utility.yul\":6627:6630   */\n      0x00\n        /* \"#utility.yul\":6646:6666   */\n      tag_136\n        /* \"#utility.yul\":6664:6665   */\n      dup3\n        /* \"#utility.yul\":6646:6666   */\n      tag_67\n      jump\t// in\n    tag_136:\n        /* \"#utility.yul\":6641:6666   */\n      swap2\n      pop\n        /* \"#utility.yul\":6680:6700   */\n      tag_137\n        /* \"#utility.yul\":6698:6699   */\n      dup4\n        /* \"#utility.yul\":6680:6700   */\n      tag_67\n      jump\t// in\n    tag_137:\n        /* \"#utility.yul\":6675:6700   */\n      swap3\n      pop\n        /* \"#utility.yul\":6723:6724   */\n      dup3\n        /* \"#utility.yul\":6720:6721   */\n      dup3\n        /* \"#utility.yul\":6716:6725   */\n      add\n        /* \"#utility.yul\":6709:6725   */\n      swap1\n      pop\n        /* \"#utility.yul\":6744:6747   */\n      dup1\n        /* \"#utility.yul\":6741:6742   */\n      dup3\n        /* \"#utility.yul\":6738:6748   */\n      gt\n        /* \"#utility.yul\":6735:6771   */\n      iszero\n      tag_138\n      jumpi\n        /* \"#utility.yul\":6751:6769   */\n      tag_139\n      tag_68\n      jump\t// in\n    tag_139:\n        /* \"#utility.yul\":6735:6771   */\n    tag_138:\n        /* \"#utility.yul\":6587:6778   */\n      swap3\n      swap2\n      pop\n      pop\n      jump\t// out\n        /* \"#utility.yul\":6784:6957   */\n    tag_69:\n        /* \"#utility.yul\":6924:6949   */\n      0x5468697320494420646f6573206e6f742065786973742e000000000000000000\n        /* \"#utility.yul\":6920:6921   */\n      0x00\n        /* \"#utility.yul\":6912:6918   */\n      dup3\n        /* \"#utility.yul\":6908:6922   */\n      add\n        /* \"#utility.yul\":6901:6950   */\n      mstore\n        /* \"#utility.yul\":6784:6957   */\n      pop\n      jump\t// out\n        /* \"#utility.yul\":6963:7329   */\n    tag_70:\n        /* \"#utility.yul\":7105:7108   */\n      0x00\n        /* \"#utility.yul\":7126:7193   */\n      tag_142\n        /* \"#utility.yul\":7190:7192   */\n      0x17\n        /* \"#utility.yul\":7185:7188   */\n      dup4\n        /* \"#utility.yul\":7126:7193   */\n      tag_60\n      jump\t// in\n    tag_142:\n        /* \"#utility.yul\":7119:7193   */\n      swap2\n      pop\n        /* \"#utility.yul\":7202:7295   */\n      tag_143\n        /* \"#utility.yul\":7291:7294   */\n      dup3\n        /* \"#utility.yul\":7202:7295   */\n      tag_69\n      jump\t// in\n    tag_143:\n        /* \"#utility.yul\":7320:7322   */\n      0x20\n        /* \"#utility.yul\":7315:7318   */\n      dup3\n        /* \"#utility.yul\":7311:7323   */\n      add\n        /* \"#utility.yul\":7304:7323   */\n      swap1\n      pop\n        /* \"#utility.yul\":6963:7329   */\n      swap2\n      swap1\n      pop\n      jump\t// out\n        /* \"#utility.yul\":7335:7754   */\n    tag_40:\n        /* \"#utility.yul\":7501:7505   */\n      0x00\n        /* \"#utility.yul\":7539:7541   */\n      0x20\n        /* \"#utility.yul\":7528:7537   */\n      dup3\n        /* \"#utility.yul\":7524:7542   */\n      add\n        /* \"#utility.yul\":7516:7542   */\n      swap1\n      pop\n        /* \"#utility.yul\":7588:7597   */\n      dup2\n        /* \"#utility.yul\":7582:7586   */\n      dup2\n        /* \"#utility.yul\":7578:7598   */\n      sub\n        /* \"#utility.yul\":7574:7575   */\n      0x00\n        /* \"#utility.yul\":7563:7572   */\n      dup4\n        /* \"#utility.yul\":7559:7576   */\n      add\n        /* \"#utility.yul\":7552:7599   */\n      mstore\n        /* \"#utility.yul\":7616:7747   */\n      tag_145\n        /* \"#utility.yul\":7742:7746   */\n      dup2\n        /* \"#utility.yul\":7616:7747   */\n      tag_70\n      jump\t// in\n    tag_145:\n        /* \"#utility.yul\":7608:7747   */\n      swap1\n      pop\n        /* \"#utility.yul\":7335:7754   */\n      swap2\n      swap1\n      pop\n      jump\t// out\n    stop\n    data_f5a3dc30dc5c45750f973001617e49e0579824fd40dc838ac6599fd0471ef7a7 50617373776f726420617474656d707473206861766520657863656564656420352074696d65732e205261697365732061207365637572697479207761726e696e672e\n\n    auxdata: 0xa2646970667358221220e0e355180377aa4d01957463e7de7b323e671ffc39cd7c07c48cbb0f91d1b85864736f6c634300081a0033\n}\n",
				"bytecode": {
					"linkReferences": {},
					"object": "6080604052348015600e575f80fd5b506108c68061001c5f395ff3fe608060405234801561000f575f80fd5b506004361061003f575f3560e01c80631d2e4afd1461004357806358467dbc1461005f578063eef156701461008f575b5f80fd5b61005d600480360381019061005891906105ce565b6100ab565b005b610079600480360381019061007491906105ce565b6101b6565b60405161008691906106a4565b60405180910390f35b6100a960048036038101906100a491906105ce565b610345565b005b5f826040516100ba91906106fe565b90815260200160405180910390206001015f9054906101000a900460ff1615610118576040517f08c379a000000000000000000000000000000000000000000000000000000000815260040161010f9061075e565b60405180910390fd5b5f8160405160200161012a91906106fe565b60405160208183030381529060405280519060200120905060405180606001604052808281526020016001151581526020015f8152505f8460405161016f91906106fe565b90815260200160405180910390205f820151815f01556020820151816001015f6101000a81548160ff02191690831515021790555060408201518160020155905050505050565b60605f80846040516101c891906106fe565b90815260200160405180910390206040518060600160405290815f8201548152602001600182015f9054906101000a900460ff1615151515815260200160028201548152505090508060200151610257576040518060400160405280601781526020017f5468697320494420646f6573206e6f742065786973742e00000000000000000081525091505061033f565b5f8360405160200161026991906106fe565b604051602081830303815290604052805190602001209050815f015181036102ca576040518060400160405280600581526020017f4c6f67696e0000000000000000000000000000000000000000000000000000008152509250505061033f565b6005600183604001516102dd91906107b2565b106103045760405180608001604052806043815260200161084e604391399250505061033f565b6040518060400160405280601781526020017f70617373776f72647320646f206e6f74206d617463682e000000000000000000815250925050505b92915050565b5f8260405161035491906106fe565b90815260200160405180910390206001015f9054906101000a900460ff166103b1576040517f08c379a00000000000000000000000000000000000000000000000000000000081526004016103a89061082f565b60405180910390fd5b5f816040516020016103c391906106fe565b6040516020818303038152906040528051906020012090505f836040516103ea91906106fe565b90815260200160405180910390205f0154811461043c576040517f08c379a00000000000000000000000000000000000000000000000000000000081526004016104339061082f565b60405180910390fd5b5f8360405161044b91906106fe565b90815260200160405180910390205f8082015f9055600182015f6101000a81549060ff0219169055600282015f90555050505050565b5f604051905090565b5f80fd5b5f80fd5b5f80fd5b5f80fd5b5f601f19601f8301169050919050565b7f4e487b71000000000000000000000000000000000000000000000000000000005f52604160045260245ffd5b6104e08261049a565b810181811067ffffffffffffffff821117156104ff576104fe6104aa565b5b80604052505050565b5f610511610481565b905061051d82826104d7565b919050565b5f67ffffffffffffffff82111561053c5761053b6104aa565b5b6105458261049a565b9050602081019050919050565b828183375f83830152505050565b5f61057261056d84610522565b610508565b90508281526020810184848401111561058e5761058d610496565b5b610599848285610552565b509392505050565b5f82601f8301126105b5576105b4610492565b5b81356105c5848260208601610560565b91505092915050565b5f80604083850312156105e4576105e361048a565b5b5f83013567ffffffffffffffff8111156106015761060061048e565b5b61060d858286016105a1565b925050602083013567ffffffffffffffff81111561062e5761062d61048e565b5b61063a858286016105a1565b9150509250929050565b5f81519050919050565b5f82825260208201905092915050565b8281835e5f83830152505050565b5f61067682610644565b610680818561064e565b935061069081856020860161065e565b6106998161049a565b840191505092915050565b5f6020820190508181035f8301526106bc818461066c565b905092915050565b5f81905092915050565b5f6106d882610644565b6106e281856106c4565b93506106f281856020860161065e565b80840191505092915050565b5f61070982846106ce565b915081905092915050565b7f49442069732065786973742e00000000000000000000000000000000000000005f82015250565b5f610748600c8361064e565b915061075382610714565b602082019050919050565b5f6020820190508181035f8301526107758161073c565b9050919050565b5f819050919050565b7f4e487b71000000000000000000000000000000000000000000000000000000005f52601160045260245ffd5b5f6107bc8261077c565b91506107c78361077c565b92508282019050808211156107df576107de610785565b5b92915050565b7f5468697320494420646f6573206e6f742065786973742e0000000000000000005f82015250565b5f61081960178361064e565b9150610824826107e5565b602082019050919050565b5f6020820190508181035f8301526108468161080d565b905091905056fe50617373776f726420617474656d707473206861766520657863656564656420352074696d65732e205261697365732061207365637572697479207761726e696e672ea2646970667358221220e0e355180377aa4d01957463e7de7b323e671ffc39cd7c07c48cbb0f91d1b85864736f6c634300081a0033",
					"opcodes": "PUSH1 0x80 PUSH1 0x40 MSTORE CALLVALUE DUP1 ISZERO PUSH1 0xE JUMPI PUSH0 DUP1 REVERT JUMPDEST POP PUSH2 0x8C6 DUP1 PUSH2 0x1C PUSH0 CODECOPY PUSH0 RETURN INVALID PUSH1 0x80 PUSH1 0x40 MSTORE CALLVALUE DUP1 ISZERO PUSH2 0xF JUMPI PUSH0 DUP1 REVERT JUMPDEST POP PUSH1 0x4 CALLDATASIZE LT PUSH2 0x3F JUMPI PUSH0 CALLDATALOAD PUSH1 0xE0 SHR DUP1 PUSH4 0x1D2E4AFD EQ PUSH2 0x43 JUMPI DUP1 PUSH4 0x58467DBC EQ PUSH2 0x5F JUMPI DUP1 PUSH4 0xEEF15670 EQ PUSH2 0x8F JUMPI JUMPDEST PUSH0 DUP1 REVERT JUMPDEST PUSH2 0x5D PUSH1 0x4 DUP1 CALLDATASIZE SUB DUP2 ADD SWAP1 PUSH2 0x58 SWAP2 SWAP1 PUSH2 0x5CE JUMP JUMPDEST PUSH2 0xAB JUMP JUMPDEST STOP JUMPDEST PUSH2 0x79 PUSH1 0x4 DUP1 CALLDATASIZE SUB DUP2 ADD SWAP1 PUSH2 0x74 SWAP2 SWAP1 PUSH2 0x5CE JUMP JUMPDEST PUSH2 0x1B6 JUMP JUMPDEST PUSH1 0x40 MLOAD PUSH2 0x86 SWAP2 SWAP1 PUSH2 0x6A4 JUMP JUMPDEST PUSH1 0x40 MLOAD DUP1 SWAP2 SUB SWAP1 RETURN JUMPDEST PUSH2 0xA9 PUSH1 0x4 DUP1 CALLDATASIZE SUB DUP2 ADD SWAP1 PUSH2 0xA4 SWAP2 SWAP1 PUSH2 0x5CE JUMP JUMPDEST PUSH2 0x345 JUMP JUMPDEST STOP JUMPDEST PUSH0 DUP3 PUSH1 0x40 MLOAD PUSH2 0xBA SWAP2 SWAP1 PUSH2 0x6FE JUMP JUMPDEST SWAP1 DUP2 MSTORE PUSH1 0x20 ADD PUSH1 0x40 MLOAD DUP1 SWAP2 SUB SWAP1 KECCAK256 PUSH1 0x1 ADD PUSH0 SWAP1 SLOAD SWAP1 PUSH2 0x100 EXP SWAP1 DIV PUSH1 0xFF AND ISZERO PUSH2 0x118 JUMPI PUSH1 0x40 MLOAD PUSH32 0x8C379A000000000000000000000000000000000000000000000000000000000 DUP2 MSTORE PUSH1 0x4 ADD PUSH2 0x10F SWAP1 PUSH2 0x75E JUMP JUMPDEST PUSH1 0x40 MLOAD DUP1 SWAP2 SUB SWAP1 REVERT JUMPDEST PUSH0 DUP2 PUSH1 0x40 MLOAD PUSH1 0x20 ADD PUSH2 0x12A SWAP2 SWAP1 PUSH2 0x6FE JUMP JUMPDEST PUSH1 0x40 MLOAD PUSH1 0x20 DUP2 DUP4 SUB SUB DUP2 MSTORE SWAP1 PUSH1 0x40 MSTORE DUP1 MLOAD SWAP1 PUSH1 0x20 ADD KECCAK256 SWAP1 POP PUSH1 0x40 MLOAD DUP1 PUSH1 0x60 ADD PUSH1 0x40 MSTORE DUP1 DUP3 DUP2 MSTORE PUSH1 0x20 ADD PUSH1 0x1 ISZERO ISZERO DUP2 MSTORE PUSH1 0x20 ADD PUSH0 DUP2 MSTORE POP PUSH0 DUP5 PUSH1 0x40 MLOAD PUSH2 0x16F SWAP2 SWAP1 PUSH2 0x6FE JUMP JUMPDEST SWAP1 DUP2 MSTORE PUSH1 0x20 ADD PUSH1 0x40 MLOAD DUP1 SWAP2 SUB SWAP1 KECCAK256 PUSH0 DUP3 ADD MLOAD DUP2 PUSH0 ADD SSTORE PUSH1 0x20 DUP3 ADD MLOAD DUP2 PUSH1 0x1 ADD PUSH0 PUSH2 0x100 EXP DUP2 SLOAD DUP2 PUSH1 0xFF MUL NOT AND SWAP1 DUP4 ISZERO ISZERO MUL OR SWAP1 SSTORE POP PUSH1 0x40 DUP3 ADD MLOAD DUP2 PUSH1 0x2 ADD SSTORE SWAP1 POP POP POP POP POP JUMP JUMPDEST PUSH1 0x60 PUSH0 DUP1 DUP5 PUSH1 0x40 MLOAD PUSH2 0x1C8 SWAP2 SWAP1 PUSH2 0x6FE JUMP JUMPDEST SWAP1 DUP2 MSTORE PUSH1 0x20 ADD PUSH1 0x40 MLOAD DUP1 SWAP2 SUB SWAP1 KECCAK256 PUSH1 0x40 MLOAD DUP1 PUSH1 0x60 ADD PUSH1 0x40 MSTORE SWAP1 DUP2 PUSH0 DUP3 ADD SLOAD DUP2 MSTORE PUSH1 0x20 ADD PUSH1 0x1 DUP3 ADD PUSH0 SWAP1 SLOAD SWAP1 PUSH2 0x100 EXP SWAP1 DIV PUSH1 0xFF AND ISZERO ISZERO ISZERO ISZERO DUP2 MSTORE PUSH1 0x20 ADD PUSH1 0x2 DUP3 ADD SLOAD DUP2 MSTORE POP POP SWAP1 POP DUP1 PUSH1 0x20 ADD MLOAD PUSH2 0x257 JUMPI PUSH1 0x40 MLOAD DUP1 PUSH1 0x40 ADD PUSH1 0x40 MSTORE DUP1 PUSH1 0x17 DUP2 MSTORE PUSH1 0x20 ADD PUSH32 0x5468697320494420646F6573206E6F742065786973742E000000000000000000 DUP2 MSTORE POP SWAP2 POP POP PUSH2 0x33F JUMP JUMPDEST PUSH0 DUP4 PUSH1 0x40 MLOAD PUSH1 0x20 ADD PUSH2 0x269 SWAP2 SWAP1 PUSH2 0x6FE JUMP JUMPDEST PUSH1 0x40 MLOAD PUSH1 0x20 DUP2 DUP4 SUB SUB DUP2 MSTORE SWAP1 PUSH1 0x40 MSTORE DUP1 MLOAD SWAP1 PUSH1 0x20 ADD KECCAK256 SWAP1 POP DUP2 PUSH0 ADD MLOAD DUP2 SUB PUSH2 0x2CA JUMPI PUSH1 0x40 MLOAD DUP1 PUSH1 0x40 ADD PUSH1 0x40 MSTORE DUP1 PUSH1 0x5 DUP2 MSTORE PUSH1 0x20 ADD PUSH32 0x4C6F67696E000000000000000000000000000000000000000000000000000000 DUP2 MSTORE POP SWAP3 POP POP POP PUSH2 0x33F JUMP JUMPDEST PUSH1 0x5 PUSH1 0x1 DUP4 PUSH1 0x40 ADD MLOAD PUSH2 0x2DD SWAP2 SWAP1 PUSH2 0x7B2 JUMP JUMPDEST LT PUSH2 0x304 JUMPI PUSH1 0x40 MLOAD DUP1 PUSH1 0x80 ADD PUSH1 0x40 MSTORE DUP1 PUSH1 0x43 DUP2 MSTORE PUSH1 0x20 ADD PUSH2 0x84E PUSH1 0x43 SWAP2 CODECOPY SWAP3 POP POP POP PUSH2 0x33F JUMP JUMPDEST PUSH1 0x40 MLOAD DUP1 PUSH1 0x40 ADD PUSH1 0x40 MSTORE DUP1 PUSH1 0x17 DUP2 MSTORE PUSH1 0x20 ADD PUSH32 0x70617373776F72647320646F206E6F74206D617463682E000000000000000000 DUP2 MSTORE POP SWAP3 POP POP POP JUMPDEST SWAP3 SWAP2 POP POP JUMP JUMPDEST PUSH0 DUP3 PUSH1 0x40 MLOAD PUSH2 0x354 SWAP2 SWAP1 PUSH2 0x6FE JUMP JUMPDEST SWAP1 DUP2 MSTORE PUSH1 0x20 ADD PUSH1 0x40 MLOAD DUP1 SWAP2 SUB SWAP1 KECCAK256 PUSH1 0x1 ADD PUSH0 SWAP1 SLOAD SWAP1 PUSH2 0x100 EXP SWAP1 DIV PUSH1 0xFF AND PUSH2 0x3B1 JUMPI PUSH1 0x40 MLOAD PUSH32 0x8C379A000000000000000000000000000000000000000000000000000000000 DUP2 MSTORE PUSH1 0x4 ADD PUSH2 0x3A8 SWAP1 PUSH2 0x82F JUMP JUMPDEST PUSH1 0x40 MLOAD DUP1 SWAP2 SUB SWAP1 REVERT JUMPDEST PUSH0 DUP2 PUSH1 0x40 MLOAD PUSH1 0x20 ADD PUSH2 0x3C3 SWAP2 SWAP1 PUSH2 0x6FE JUMP JUMPDEST PUSH1 0x40 MLOAD PUSH1 0x20 DUP2 DUP4 SUB SUB DUP2 MSTORE SWAP1 PUSH1 0x40 MSTORE DUP1 MLOAD SWAP1 PUSH1 0x20 ADD KECCAK256 SWAP1 POP PUSH0 DUP4 PUSH1 0x40 MLOAD PUSH2 0x3EA SWAP2 SWAP1 PUSH2 0x6FE JUMP JUMPDEST SWAP1 DUP2 MSTORE PUSH1 0x20 ADD PUSH1 0x40 MLOAD DUP1 SWAP2 SUB SWAP1 KECCAK256 PUSH0 ADD SLOAD DUP2 EQ PUSH2 0x43C JUMPI PUSH1 0x40 MLOAD PUSH32 0x8C379A000000000000000000000000000000000000000000000000000000000 DUP2 MSTORE PUSH1 0x4 ADD PUSH2 0x433 SWAP1 PUSH2 0x82F JUMP JUMPDEST PUSH1 0x40 MLOAD DUP1 SWAP2 SUB SWAP1 REVERT JUMPDEST PUSH0 DUP4 PUSH1 0x40 MLOAD PUSH2 0x44B SWAP2 SWAP1 PUSH2 0x6FE JUMP JUMPDEST SWAP1 DUP2 MSTORE PUSH1 0x20 ADD PUSH1 0x40 MLOAD DUP1 SWAP2 SUB SWAP1 KECCAK256 PUSH0 DUP1 DUP3 ADD PUSH0 SWAP1 SSTORE PUSH1 0x1 DUP3 ADD PUSH0 PUSH2 0x100 EXP DUP2 SLOAD SWAP1 PUSH1 0xFF MUL NOT AND SWAP1 SSTORE PUSH1 0x2 DUP3 ADD PUSH0 SWAP1 SSTORE POP POP POP POP POP JUMP JUMPDEST PUSH0 PUSH1 0x40 MLOAD SWAP1 POP SWAP1 JUMP JUMPDEST PUSH0 DUP1 REVERT JUMPDEST PUSH0 DUP1 REVERT JUMPDEST PUSH0 DUP1 REVERT JUMPDEST PUSH0 DUP1 REVERT JUMPDEST PUSH0 PUSH1 0x1F NOT PUSH1 0x1F DUP4 ADD AND SWAP1 POP SWAP2 SWAP1 POP JUMP JUMPDEST PUSH32 0x4E487B7100000000000000000000000000000000000000000000000000000000 PUSH0 MSTORE PUSH1 0x41 PUSH1 0x4 MSTORE PUSH1 0x24 PUSH0 REVERT JUMPDEST PUSH2 0x4E0 DUP3 PUSH2 0x49A JUMP JUMPDEST DUP2 ADD DUP2 DUP2 LT PUSH8 0xFFFFFFFFFFFFFFFF DUP3 GT OR ISZERO PUSH2 0x4FF JUMPI PUSH2 0x4FE PUSH2 0x4AA JUMP JUMPDEST JUMPDEST DUP1 PUSH1 0x40 MSTORE POP POP POP JUMP JUMPDEST PUSH0 PUSH2 0x511 PUSH2 0x481 JUMP JUMPDEST SWAP1 POP PUSH2 0x51D DUP3 DUP3 PUSH2 0x4D7 JUMP JUMPDEST SWAP2 SWAP1 POP JUMP JUMPDEST PUSH0 PUSH8 0xFFFFFFFFFFFFFFFF DUP3 GT ISZERO PUSH2 0x53C JUMPI PUSH2 0x53B PUSH2 0x4AA JUMP JUMPDEST JUMPDEST PUSH2 0x545 DUP3 PUSH2 0x49A JUMP JUMPDEST SWAP1 POP PUSH1 0x20 DUP2 ADD SWAP1 POP SWAP2 SWAP1 POP JUMP JUMPDEST DUP3 DUP2 DUP4 CALLDATACOPY PUSH0 DUP4 DUP4 ADD MSTORE POP POP POP JUMP JUMPDEST PUSH0 PUSH2 0x572 PUSH2 0x56D DUP5 PUSH2 0x522 JUMP JUMPDEST PUSH2 0x508 JUMP JUMPDEST SWAP1 POP DUP3 DUP2 MSTORE PUSH1 0x20 DUP2 ADD DUP5 DUP5 DUP5 ADD GT ISZERO PUSH2 0x58E JUMPI PUSH2 0x58D PUSH2 0x496 JUMP JUMPDEST JUMPDEST PUSH2 0x599 DUP5 DUP3 DUP6 PUSH2 0x552 JUMP JUMPDEST POP SWAP4 SWAP3 POP POP POP JUMP JUMPDEST PUSH0 DUP3 PUSH1 0x1F DUP4 ADD SLT PUSH2 0x5B5 JUMPI PUSH2 0x5B4 PUSH2 0x492 JUMP JUMPDEST JUMPDEST DUP2 CALLDATALOAD PUSH2 0x5C5 DUP5 DUP3 PUSH1 0x20 DUP7 ADD PUSH2 0x560 JUMP JUMPDEST SWAP2 POP POP SWAP3 SWAP2 POP POP JUMP JUMPDEST PUSH0 DUP1 PUSH1 0x40 DUP4 DUP6 SUB SLT ISZERO PUSH2 0x5E4 JUMPI PUSH2 0x5E3 PUSH2 0x48A JUMP JUMPDEST JUMPDEST PUSH0 DUP4 ADD CALLDATALOAD PUSH8 0xFFFFFFFFFFFFFFFF DUP2 GT ISZERO PUSH2 0x601 JUMPI PUSH2 0x600 PUSH2 0x48E JUMP JUMPDEST JUMPDEST PUSH2 0x60D DUP6 DUP3 DUP7 ADD PUSH2 0x5A1 JUMP JUMPDEST SWAP3 POP POP PUSH1 0x20 DUP4 ADD CALLDATALOAD PUSH8 0xFFFFFFFFFFFFFFFF DUP2 GT ISZERO PUSH2 0x62E JUMPI PUSH2 0x62D PUSH2 0x48E JUMP JUMPDEST JUMPDEST PUSH2 0x63A DUP6 DUP3 DUP7 ADD PUSH2 0x5A1 JUMP JUMPDEST SWAP2 POP POP SWAP3 POP SWAP3 SWAP1 POP JUMP JUMPDEST PUSH0 DUP2 MLOAD SWAP1 POP SWAP2 SWAP1 POP JUMP JUMPDEST PUSH0 DUP3 DUP3 MSTORE PUSH1 0x20 DUP3 ADD SWAP1 POP SWAP3 SWAP2 POP POP JUMP JUMPDEST DUP3 DUP2 DUP4 MCOPY PUSH0 DUP4 DUP4 ADD MSTORE POP POP POP JUMP JUMPDEST PUSH0 PUSH2 0x676 DUP3 PUSH2 0x644 JUMP JUMPDEST PUSH2 0x680 DUP2 DUP6 PUSH2 0x64E JUMP JUMPDEST SWAP4 POP PUSH2 0x690 DUP2 DUP6 PUSH1 0x20 DUP7 ADD PUSH2 0x65E JUMP JUMPDEST PUSH2 0x699 DUP2 PUSH2 0x49A JUMP JUMPDEST DUP5 ADD SWAP2 POP POP SWAP3 SWAP2 POP POP JUMP JUMPDEST PUSH0 PUSH1 0x20 DUP3 ADD SWAP1 POP DUP2 DUP2 SUB PUSH0 DUP4 ADD MSTORE PUSH2 0x6BC DUP2 DUP5 PUSH2 0x66C JUMP JUMPDEST SWAP1 POP SWAP3 SWAP2 POP POP JUMP JUMPDEST PUSH0 DUP2 SWAP1 POP SWAP3 SWAP2 POP POP JUMP JUMPDEST PUSH0 PUSH2 0x6D8 DUP3 PUSH2 0x644 JUMP JUMPDEST PUSH2 0x6E2 DUP2 DUP6 PUSH2 0x6C4 JUMP JUMPDEST SWAP4 POP PUSH2 0x6F2 DUP2 DUP6 PUSH1 0x20 DUP7 ADD PUSH2 0x65E JUMP JUMPDEST DUP1 DUP5 ADD SWAP2 POP POP SWAP3 SWAP2 POP POP JUMP JUMPDEST PUSH0 PUSH2 0x709 DUP3 DUP5 PUSH2 0x6CE JUMP JUMPDEST SWAP2 POP DUP2 SWAP1 POP SWAP3 SWAP2 POP POP JUMP JUMPDEST PUSH32 0x49442069732065786973742E0000000000000000000000000000000000000000 PUSH0 DUP3 ADD MSTORE POP JUMP JUMPDEST PUSH0 PUSH2 0x748 PUSH1 0xC DUP4 PUSH2 0x64E JUMP JUMPDEST SWAP2 POP PUSH2 0x753 DUP3 PUSH2 0x714 JUMP JUMPDEST PUSH1 0x20 DUP3 ADD SWAP1 POP SWAP2 SWAP1 POP JUMP JUMPDEST PUSH0 PUSH1 0x20 DUP3 ADD SWAP1 POP DUP2 DUP2 SUB PUSH0 DUP4 ADD MSTORE PUSH2 0x775 DUP2 PUSH2 0x73C JUMP JUMPDEST SWAP1 POP SWAP2 SWAP1 POP JUMP JUMPDEST PUSH0 DUP2 SWAP1 POP SWAP2 SWAP1 POP JUMP JUMPDEST PUSH32 0x4E487B7100000000000000000000000000000000000000000000000000000000 PUSH0 MSTORE PUSH1 0x11 PUSH1 0x4 MSTORE PUSH1 0x24 PUSH0 REVERT JUMPDEST PUSH0 PUSH2 0x7BC DUP3 PUSH2 0x77C JUMP JUMPDEST SWAP2 POP PUSH2 0x7C7 DUP4 PUSH2 0x77C JUMP JUMPDEST SWAP3 POP DUP3 DUP3 ADD SWAP1 POP DUP1 DUP3 GT ISZERO PUSH2 0x7DF JUMPI PUSH2 0x7DE PUSH2 0x785 JUMP JUMPDEST JUMPDEST SWAP3 SWAP2 POP POP JUMP JUMPDEST PUSH32 0x5468697320494420646F6573206E6F742065786973742E000000000000000000 PUSH0 DUP3 ADD MSTORE POP JUMP JUMPDEST PUSH0 PUSH2 0x819 PUSH1 0x17 DUP4 PUSH2 0x64E JUMP JUMPDEST SWAP2 POP PUSH2 0x824 DUP3 PUSH2 0x7E5 JUMP JUMPDEST PUSH1 0x20 DUP3 ADD SWAP1 POP SWAP2 SWAP1 POP JUMP JUMPDEST PUSH0 PUSH1 0x20 DUP3 ADD SWAP1 POP DUP2 DUP2 SUB PUSH0 DUP4 ADD MSTORE PUSH2 0x846 DUP2 PUSH2 0x80D JUMP JUMPDEST SWAP1 POP SWAP2 SWAP1 POP JUMP INVALID POP PUSH2 0x7373 PUSH24 0x6F726420617474656D707473206861766520657863656564 PUSH6 0x642035207469 PUSH14 0x65732E2052616973657320612073 PUSH6 0x637572697479 KECCAK256 PUSH24 0x61726E696E672EA2646970667358221220E0E355180377AA 0x4D ADD SWAP6 PUSH21 0x63E7DE7B323E671FFC39CD7C07C48CBB0F91D1B858 PUSH5 0x736F6C6343 STOP ADDMOD BYTE STOP CALLER "
				},
				"gasEstimates": {
					"creation": {
						"codeDepositCost": "449200",
						"executionCost": "484",
						"totalCost": "449684"
					},
					"external": {
						"login(string,string)": "infinite",
						"registerUser(string,string)": "infinite",
						"unregister(string,string)": "infinite"
					}
				},
				"methodIdentifiers": {
					"login(string,string)": "58467dbc",
					"registerUser(string,string)": "1d2e4afd",
					"unregister(string,string)": "eef15670"
				}
			},
			"storageLayout": {
				"storage": [
					{
						"astId": 13,
						"contract": "cordingtest/cordingtest3.sol:Test3",
						"label": "users",
						"offset": 0,
						"slot": "0",
						"type": "t_mapping(t_string_memory_ptr,t_struct(UserInfo)8_storage)"
					}
				],
				"types": {
					"t_bool": {
						"encoding": "inplace",
						"label": "bool",
						"numberOfBytes": "1"
					},
					"t_bytes32": {
						"encoding": "inplace",
						"label": "bytes32",
						"numberOfBytes": "32"
					},
					"t_mapping(t_string_memory_ptr,t_struct(UserInfo)8_storage)": {
						"encoding": "mapping",
						"key": "t_string_memory_ptr",
						"label": "mapping(string => struct Test3.UserInfo)",
						"numberOfBytes": "32",
						"value": "t_struct(UserInfo)8_storage"
					},
					"t_string_memory_ptr": {
						"encoding": "bytes",
						"label": "string",
						"numberOfBytes": "32"
					},
					"t_struct(UserInfo)8_storage": {
						"encoding": "inplace",
						"label": "struct Test3.UserInfo",
						"members": [
							{
								"astId": 3,
								"contract": "cordingtest/cordingtest3.sol:Test3",
								"label": "password",
								"offset": 0,
								"slot": "0",
								"type": "t_bytes32"
							},
							{
								"astId": 5,
								"contract": "cordingtest/cordingtest3.sol:Test3",
								"label": "registered",
								"offset": 0,
								"slot": "1",
								"type": "t_bool"
							},
							{
								"astId": 7,
								"contract": "cordingtest/cordingtest3.sol:Test3",
								"label": "loginAttempts",
								"offset": 0,
								"slot": "2",
								"type": "t_uint256"
							}
						],
						"numberOfBytes": "96"
					},
					"t_uint256": {
						"encoding": "inplace",
						"label": "uint256",
						"numberOfBytes": "32"
					}
				}
			},
			"userdoc": {
				"kind": "user",
				"methods": {},
				"version": 1
			}
		}
	}
}