{
	"cordingtest/cordingtest6.sol": {
		"Test6": {
			"abi": [
				{
					"inputs": [
						{
							"internalType": "uint256",
							"name": "num",
							"type": "uint256"
						}
					],
					"name": "splitNumber",
					"outputs": [
						{
							"internalType": "uint256",
							"name": "",
							"type": "uint256"
						},
						{
							"internalType": "uint256[]",
							"name": "",
							"type": "uint256[]"
						}
					],
					"stateMutability": "pure",
					"type": "function"
				},
				{
					"inputs": [
						{
							"internalType": "string",
							"name": "str",
							"type": "string"
						}
					],
					"name": "splitString",
					"outputs": [
						{
							"internalType": "uint256",
							"name": "",
							"type": "uint256"
						},
						{
							"internalType": "string[]",
							"name": "",
							"type": "string[]"
						}
					],
					"stateMutability": "pure",
					"type": "function"
				}
			],
			"devdoc": {
				"kind": "dev",
				"methods": {},
				"version": 1
			},
			"evm": {
				"assembly": "    /* \"cordingtest/cordingtest6.sol\":72:1410  contract Test6 {... */\n  mstore(0x40, 0x80)\n  callvalue\n  dup1\n  iszero\n  tag_1\n  jumpi\n  0x00\n  dup1\n  revert\ntag_1:\n  pop\n  dataSize(sub_0)\n  dup1\n  dataOffset(sub_0)\n  0x00\n  codecopy\n  0x00\n  return\nstop\n\nsub_0: assembly {\n        /* \"cordingtest/cordingtest6.sol\":72:1410  contract Test6 {... */\n      mstore(0x40, 0x80)\n      callvalue\n      dup1\n      iszero\n      tag_1\n      jumpi\n      0x00\n      dup1\n      revert\n    tag_1:\n      pop\n      jumpi(tag_2, lt(calldatasize, 0x04))\n      shr(0xe0, calldataload(0x00))\n      dup1\n      0x080cea7a\n      eq\n      tag_3\n      jumpi\n      dup1\n      0x1a5d193d\n      eq\n      tag_4\n      jumpi\n    tag_2:\n      0x00\n      dup1\n      revert\n        /* \"cordingtest/cordingtest6.sol\":1030:1408  function splitString(string memory str) public pure returns (uint, string[] memory) {... */\n    tag_3:\n      tag_5\n      0x04\n      dup1\n      calldatasize\n      sub\n      dup2\n      add\n      swap1\n      tag_6\n      swap2\n      swap1\n      tag_7\n      jump\t// in\n    tag_6:\n      tag_8\n      jump\t// in\n    tag_5:\n      mload(0x40)\n      tag_9\n      swap3\n      swap2\n      swap1\n      tag_10\n      jump\t// in\n    tag_9:\n      mload(0x40)\n      dup1\n      swap2\n      sub\n      swap1\n      return\n        /* \"cordingtest/cordingtest6.sol\":581:1024  function splitNumber(uint num) public pure returns (uint, uint[] memory) {... */\n    tag_4:\n      tag_11\n      0x04\n      dup1\n      calldatasize\n      sub\n      dup2\n      add\n      swap1\n      tag_12\n      swap2\n      swap1\n      tag_13\n      jump\t// in\n    tag_12:\n      tag_14\n      jump\t// in\n    tag_11:\n      mload(0x40)\n      tag_15\n      swap3\n      swap2\n      swap1\n      tag_16\n      jump\t// in\n    tag_15:\n      mload(0x40)\n      dup1\n      swap2\n      sub\n      swap1\n      return\n        /* \"cordingtest/cordingtest6.sol\":1030:1408  function splitString(string memory str) public pure returns (uint, string[] memory) {... */\n    tag_8:\n        /* \"cordingtest/cordingtest6.sol\":1091:1095  uint */\n      0x00\n        /* \"cordingtest/cordingtest6.sol\":1097:1112  string[] memory */\n      0x60\n        /* \"cordingtest/cordingtest6.sol\":1124:1145  bytes memory strBytes */\n      0x00\n        /* \"cordingtest/cordingtest6.sol\":1154:1157  str */\n      dup4\n        /* \"cordingtest/cordingtest6.sol\":1124:1158  bytes memory strBytes = bytes(str) */\n      swap1\n      pop\n        /* \"cordingtest/cordingtest6.sol\":1168:1179  uint length */\n      0x00\n        /* \"cordingtest/cordingtest6.sol\":1182:1190  strBytes */\n      dup2\n        /* \"cordingtest/cordingtest6.sol\":1182:1197  strBytes.length */\n      mload\n        /* \"cordingtest/cordingtest6.sol\":1168:1197  uint length = strBytes.length */\n      swap1\n      pop\n        /* \"cordingtest/cordingtest6.sol\":1207:1228  string[] memory chars */\n      0x00\n        /* \"cordingtest/cordingtest6.sol\":1244:1250  length */\n      dup2\n        /* \"cordingtest/cordingtest6.sol\":1231:1251  new string[](length) */\n      0xffffffffffffffff\n      dup2\n      gt\n      iszero\n      tag_18\n      jumpi\n      tag_19\n      tag_20\n      jump\t// in\n    tag_19:\n    tag_18:\n      mload(0x40)\n      swap1\n      dup1\n      dup3\n      mstore\n      dup1\n      0x20\n      mul\n      0x20\n      add\n      dup3\n      add\n      0x40\n      mstore\n      dup1\n      iszero\n      tag_21\n      jumpi\n      dup2\n      0x20\n      add\n    tag_22:\n      0x60\n      dup2\n      mstore\n      0x20\n      add\n      swap1\n      0x01\n      swap1\n      sub\n      swap1\n      dup2\n      tag_22\n      jumpi\n      swap1\n      pop\n    tag_21:\n      pop\n        /* \"cordingtest/cordingtest6.sol\":1207:1251  string[] memory chars = new string[](length) */\n      swap1\n      pop\n        /* \"cordingtest/cordingtest6.sol\":1267:1273  uint i */\n      0x00\n        /* \"cordingtest/cordingtest6.sol\":1262:1369  for (uint i = 0; i < length; i++) {... */\n    tag_23:\n        /* \"cordingtest/cordingtest6.sol\":1283:1289  length */\n      dup3\n        /* \"cordingtest/cordingtest6.sol\":1279:1280  i */\n      dup2\n        /* \"cordingtest/cordingtest6.sol\":1279:1289  i < length */\n      lt\n        /* \"cordingtest/cordingtest6.sol\":1262:1369  for (uint i = 0; i < length; i++) {... */\n      iszero\n      tag_24\n      jumpi\n        /* \"cordingtest/cordingtest6.sol\":1345:1353  strBytes */\n      dup4\n        /* \"cordingtest/cordingtest6.sol\":1354:1355  i */\n      dup2\n        /* \"cordingtest/cordingtest6.sol\":1345:1356  strBytes[i] */\n      dup2\n      mload\n      dup2\n      lt\n      tag_26\n      jumpi\n      tag_27\n      tag_28\n      jump\t// in\n    tag_27:\n    tag_26:\n      0x20\n      add\n      add\n      mload\n      0xf8\n      shr\n      0xf8\n      shl\n        /* \"cordingtest/cordingtest6.sol\":1328:1357  abi.encodePacked(strBytes[i]) */\n      add(0x20, mload(0x40))\n      tag_29\n      swap2\n      swap1\n      tag_30\n      jump\t// in\n    tag_29:\n      mload(0x40)\n      0x20\n      dup2\n      dup4\n      sub\n      sub\n      dup2\n      mstore\n      swap1\n      0x40\n      mstore\n        /* \"cordingtest/cordingtest6.sol\":1310:1315  chars */\n      dup3\n        /* \"cordingtest/cordingtest6.sol\":1316:1317  i */\n      dup3\n        /* \"cordingtest/cordingtest6.sol\":1310:1318  chars[i] */\n      dup2\n      mload\n      dup2\n      lt\n      tag_31\n      jumpi\n      tag_32\n      tag_28\n      jump\t// in\n    tag_32:\n    tag_31:\n      0x20\n      mul\n      0x20\n      add\n      add\n        /* \"cordingtest/cordingtest6.sol\":1310:1358  chars[i] = string(abi.encodePacked(strBytes[i])) */\n      dup2\n      swap1\n      mstore\n      pop\n        /* \"cordingtest/cordingtest6.sol\":1291:1294  i++ */\n      dup1\n      dup1\n      0x01\n      add\n      swap2\n      pop\n      pop\n        /* \"cordingtest/cordingtest6.sol\":1262:1369  for (uint i = 0; i < length; i++) {... */\n      jump(tag_23)\n    tag_24:\n      pop\n        /* \"cordingtest/cordingtest6.sol\":1387:1393  length */\n      dup2\n        /* \"cordingtest/cordingtest6.sol\":1395:1400  chars */\n      dup2\n        /* \"cordingtest/cordingtest6.sol\":1379:1401  return (length, chars) */\n      swap5\n      pop\n      swap5\n      pop\n      pop\n      pop\n      pop\n        /* \"cordingtest/cordingtest6.sol\":1030:1408  function splitString(string memory str) public pure returns (uint, string[] memory) {... */\n      swap2\n      pop\n      swap2\n      jump\t// out\n        /* \"cordingtest/cordingtest6.sol\":581:1024  function splitNumber(uint num) public pure returns (uint, uint[] memory) {... */\n    tag_14:\n        /* \"cordingtest/cordingtest6.sol\":633:637  uint */\n      0x00\n        /* \"cordingtest/cordingtest6.sol\":639:652  uint[] memory */\n      0x60\n        /* \"cordingtest/cordingtest6.sol\":672:683  uint length */\n      0x00\n        /* \"cordingtest/cordingtest6.sol\":697:706  uint temp */\n      dup1\n        /* \"cordingtest/cordingtest6.sol\":709:712  num */\n      dup5\n        /* \"cordingtest/cordingtest6.sol\":697:712  uint temp = num */\n      swap1\n      pop\n        /* \"cordingtest/cordingtest6.sol\":722:797  while (temp != 0) {... */\n    tag_34:\n        /* \"cordingtest/cordingtest6.sol\":737:738  0 */\n      0x00\n        /* \"cordingtest/cordingtest6.sol\":729:733  temp */\n      dup2\n        /* \"cordingtest/cordingtest6.sol\":729:738  temp != 0 */\n      eq\n        /* \"cordingtest/cordingtest6.sol\":722:797  while (temp != 0) {... */\n      tag_35\n      jumpi\n        /* \"cordingtest/cordingtest6.sol\":754:762  length++ */\n      dup2\n      dup1\n      tag_36\n      swap1\n      tag_37\n      jump\t// in\n    tag_36:\n      swap3\n      pop\n      pop\n        /* \"cordingtest/cordingtest6.sol\":784:786  10 */\n      0x0a\n        /* \"cordingtest/cordingtest6.sol\":776:786  temp /= 10 */\n      dup2\n      tag_38\n      swap2\n      swap1\n      tag_39\n      jump\t// in\n    tag_38:\n      swap1\n      pop\n        /* \"cordingtest/cordingtest6.sol\":722:797  while (temp != 0) {... */\n      jump(tag_34)\n    tag_35:\n        /* \"cordingtest/cordingtest6.sol\":807:827  uint[] memory digits */\n      0x00\n        /* \"cordingtest/cordingtest6.sol\":841:847  length */\n      dup3\n        /* \"cordingtest/cordingtest6.sol\":830:848  new uint[](length) */\n      0xffffffffffffffff\n      dup2\n      gt\n      iszero\n      tag_40\n      jumpi\n      tag_41\n      tag_20\n      jump\t// in\n    tag_41:\n    tag_40:\n      mload(0x40)\n      swap1\n      dup1\n      dup3\n      mstore\n      dup1\n      0x20\n      mul\n      0x20\n      add\n      dup3\n      add\n      0x40\n      mstore\n      dup1\n      iszero\n      tag_42\n      jumpi\n      dup2\n      0x20\n      add\n      0x20\n      dup3\n      mul\n      dup1\n      calldatasize\n      dup4\n      calldatacopy\n      dup1\n      dup3\n      add\n      swap2\n      pop\n      pop\n      swap1\n      pop\n    tag_42:\n      pop\n        /* \"cordingtest/cordingtest6.sol\":807:848  uint[] memory digits = new uint[](length) */\n      swap1\n      pop\n        /* \"cordingtest/cordingtest6.sol\":865:868  num */\n      dup6\n        /* \"cordingtest/cordingtest6.sol\":858:868  temp = num */\n      swap2\n      pop\n        /* \"cordingtest/cordingtest6.sol\":883:889  uint i */\n      0x00\n        /* \"cordingtest/cordingtest6.sol\":892:898  length */\n      dup4\n        /* \"cordingtest/cordingtest6.sol\":883:898  uint i = length */\n      swap1\n      pop\n        /* \"cordingtest/cordingtest6.sol\":878:984  for (uint i = length; i > 0; i--) {... */\n    tag_43:\n        /* \"cordingtest/cordingtest6.sol\":904:905  0 */\n      0x00\n        /* \"cordingtest/cordingtest6.sol\":900:901  i */\n      dup2\n        /* \"cordingtest/cordingtest6.sol\":900:905  i > 0 */\n      gt\n        /* \"cordingtest/cordingtest6.sol\":878:984  for (uint i = length; i > 0; i--) {... */\n      iszero\n      tag_44\n      jumpi\n        /* \"cordingtest/cordingtest6.sol\":947:949  10 */\n      0x0a\n        /* \"cordingtest/cordingtest6.sol\":940:944  temp */\n      dup4\n        /* \"cordingtest/cordingtest6.sol\":940:949  temp % 10 */\n      tag_46\n      swap2\n      swap1\n      tag_47\n      jump\t// in\n    tag_46:\n        /* \"cordingtest/cordingtest6.sol\":926:932  digits */\n      dup3\n        /* \"cordingtest/cordingtest6.sol\":935:936  1 */\n      0x01\n        /* \"cordingtest/cordingtest6.sol\":933:934  i */\n      dup4\n        /* \"cordingtest/cordingtest6.sol\":933:936  i-1 */\n      tag_48\n      swap2\n      swap1\n      tag_49\n      jump\t// in\n    tag_48:\n        /* \"cordingtest/cordingtest6.sol\":926:937  digits[i-1] */\n      dup2\n      mload\n      dup2\n      lt\n      tag_50\n      jumpi\n      tag_51\n      tag_28\n      jump\t// in\n    tag_51:\n    tag_50:\n      0x20\n      mul\n      0x20\n      add\n      add\n        /* \"cordingtest/cordingtest6.sol\":926:949  digits[i-1] = temp % 10 */\n      dup2\n      dup2\n      mstore\n      pop\n      pop\n        /* \"cordingtest/cordingtest6.sol\":971:973  10 */\n      0x0a\n        /* \"cordingtest/cordingtest6.sol\":963:973  temp /= 10 */\n      dup4\n      tag_52\n      swap2\n      swap1\n      tag_39\n      jump\t// in\n    tag_52:\n      swap3\n      pop\n        /* \"cordingtest/cordingtest6.sol\":907:910  i-- */\n      dup1\n      dup1\n      tag_53\n      swap1\n      tag_54\n      jump\t// in\n    tag_53:\n      swap2\n      pop\n      pop\n        /* \"cordingtest/cordingtest6.sol\":878:984  for (uint i = length; i > 0; i--) {... */\n      jump(tag_43)\n    tag_44:\n      pop\n        /* \"cordingtest/cordingtest6.sol\":1002:1008  length */\n      dup3\n        /* \"cordingtest/cordingtest6.sol\":1010:1016  digits */\n      dup2\n        /* \"cordingtest/cordingtest6.sol\":994:1017  return (length, digits) */\n      swap5\n      pop\n      swap5\n      pop\n      pop\n      pop\n      pop\n        /* \"cordingtest/cordingtest6.sol\":581:1024  function splitNumber(uint num) public pure returns (uint, uint[] memory) {... */\n      swap2\n      pop\n      swap2\n      jump\t// out\n        /* \"#utility.yul\":7:82   */\n    tag_55:\n        /* \"#utility.yul\":40:46   */\n      0x00\n        /* \"#utility.yul\":73:75   */\n      0x40\n        /* \"#utility.yul\":67:76   */\n      mload\n        /* \"#utility.yul\":57:76   */\n      swap1\n      pop\n        /* \"#utility.yul\":7:82   */\n      swap1\n      jump\t// out\n        /* \"#utility.yul\":88:205   */\n    tag_56:\n        /* \"#utility.yul\":197:198   */\n      0x00\n        /* \"#utility.yul\":194:195   */\n      dup1\n        /* \"#utility.yul\":187:199   */\n      revert\n        /* \"#utility.yul\":211:328   */\n    tag_57:\n        /* \"#utility.yul\":320:321   */\n      0x00\n        /* \"#utility.yul\":317:318   */\n      dup1\n        /* \"#utility.yul\":310:322   */\n      revert\n        /* \"#utility.yul\":334:451   */\n    tag_58:\n        /* \"#utility.yul\":443:444   */\n      0x00\n        /* \"#utility.yul\":440:441   */\n      dup1\n        /* \"#utility.yul\":433:445   */\n      revert\n        /* \"#utility.yul\":457:574   */\n    tag_59:\n        /* \"#utility.yul\":566:567   */\n      0x00\n        /* \"#utility.yul\":563:564   */\n      dup1\n        /* \"#utility.yul\":556:568   */\n      revert\n        /* \"#utility.yul\":580:682   */\n    tag_60:\n        /* \"#utility.yul\":621:627   */\n      0x00\n        /* \"#utility.yul\":672:674   */\n      0x1f\n        /* \"#utility.yul\":668:675   */\n      not\n        /* \"#utility.yul\":663:665   */\n      0x1f\n        /* \"#utility.yul\":656:661   */\n      dup4\n        /* \"#utility.yul\":652:666   */\n      add\n        /* \"#utility.yul\":648:676   */\n      and\n        /* \"#utility.yul\":638:676   */\n      swap1\n      pop\n        /* \"#utility.yul\":580:682   */\n      swap2\n      swap1\n      pop\n      jump\t// out\n        /* \"#utility.yul\":688:868   */\n    tag_20:\n        /* \"#utility.yul\":736:813   */\n      0x4e487b7100000000000000000000000000000000000000000000000000000000\n        /* \"#utility.yul\":733:734   */\n      0x00\n        /* \"#utility.yul\":726:814   */\n      mstore\n        /* \"#utility.yul\":833:837   */\n      0x41\n        /* \"#utility.yul\":830:831   */\n      0x04\n        /* \"#utility.yul\":823:838   */\n      mstore\n        /* \"#utility.yul\":857:861   */\n      0x24\n        /* \"#utility.yul\":854:855   */\n      0x00\n        /* \"#utility.yul\":847:862   */\n      revert\n        /* \"#utility.yul\":874:1155   */\n    tag_61:\n        /* \"#utility.yul\":957:984   */\n      tag_102\n        /* \"#utility.yul\":979:983   */\n      dup3\n        /* \"#utility.yul\":957:984   */\n      tag_60\n      jump\t// in\n    tag_102:\n        /* \"#utility.yul\":949:955   */\n      dup2\n        /* \"#utility.yul\":945:985   */\n      add\n        /* \"#utility.yul\":1087:1093   */\n      dup2\n        /* \"#utility.yul\":1075:1085   */\n      dup2\n        /* \"#utility.yul\":1072:1094   */\n      lt\n        /* \"#utility.yul\":1051:1069   */\n      0xffffffffffffffff\n        /* \"#utility.yul\":1039:1049   */\n      dup3\n        /* \"#utility.yul\":1036:1070   */\n      gt\n        /* \"#utility.yul\":1033:1095   */\n      or\n        /* \"#utility.yul\":1030:1118   */\n      iszero\n      tag_103\n      jumpi\n        /* \"#utility.yul\":1098:1116   */\n      tag_104\n      tag_20\n      jump\t// in\n    tag_104:\n        /* \"#utility.yul\":1030:1118   */\n    tag_103:\n        /* \"#utility.yul\":1138:1148   */\n      dup1\n        /* \"#utility.yul\":1134:1136   */\n      0x40\n        /* \"#utility.yul\":1127:1149   */\n      mstore\n        /* \"#utility.yul\":917:1155   */\n      pop\n        /* \"#utility.yul\":874:1155   */\n      pop\n      pop\n      jump\t// out\n        /* \"#utility.yul\":1161:1290   */\n    tag_62:\n        /* \"#utility.yul\":1195:1201   */\n      0x00\n        /* \"#utility.yul\":1222:1242   */\n      tag_106\n      tag_55\n      jump\t// in\n    tag_106:\n        /* \"#utility.yul\":1212:1242   */\n      swap1\n      pop\n        /* \"#utility.yul\":1251:1284   */\n      tag_107\n        /* \"#utility.yul\":1279:1283   */\n      dup3\n        /* \"#utility.yul\":1271:1277   */\n      dup3\n        /* \"#utility.yul\":1251:1284   */\n      tag_61\n      jump\t// in\n    tag_107:\n        /* \"#utility.yul\":1161:1290   */\n      swap2\n      swap1\n      pop\n      jump\t// out\n        /* \"#utility.yul\":1296:1604   */\n    tag_63:\n        /* \"#utility.yul\":1358:1362   */\n      0x00\n        /* \"#utility.yul\":1448:1466   */\n      0xffffffffffffffff\n        /* \"#utility.yul\":1440:1446   */\n      dup3\n        /* \"#utility.yul\":1437:1467   */\n      gt\n        /* \"#utility.yul\":1434:1490   */\n      iszero\n      tag_109\n      jumpi\n        /* \"#utility.yul\":1470:1488   */\n      tag_110\n      tag_20\n      jump\t// in\n    tag_110:\n        /* \"#utility.yul\":1434:1490   */\n    tag_109:\n        /* \"#utility.yul\":1508:1537   */\n      tag_111\n        /* \"#utility.yul\":1530:1536   */\n      dup3\n        /* \"#utility.yul\":1508:1537   */\n      tag_60\n      jump\t// in\n    tag_111:\n        /* \"#utility.yul\":1500:1537   */\n      swap1\n      pop\n        /* \"#utility.yul\":1592:1596   */\n      0x20\n        /* \"#utility.yul\":1586:1590   */\n      dup2\n        /* \"#utility.yul\":1582:1597   */\n      add\n        /* \"#utility.yul\":1574:1597   */\n      swap1\n      pop\n        /* \"#utility.yul\":1296:1604   */\n      swap2\n      swap1\n      pop\n      jump\t// out\n        /* \"#utility.yul\":1610:1758   */\n    tag_64:\n        /* \"#utility.yul\":1708:1714   */\n      dup3\n        /* \"#utility.yul\":1703:1706   */\n      dup2\n        /* \"#utility.yul\":1698:1701   */\n      dup4\n        /* \"#utility.yul\":1685:1715   */\n      calldatacopy\n        /* \"#utility.yul\":1749:1750   */\n      0x00\n        /* \"#utility.yul\":1740:1746   */\n      dup4\n        /* \"#utility.yul\":1735:1738   */\n      dup4\n        /* \"#utility.yul\":1731:1747   */\n      add\n        /* \"#utility.yul\":1724:1751   */\n      mstore\n        /* \"#utility.yul\":1610:1758   */\n      pop\n      pop\n      pop\n      jump\t// out\n        /* \"#utility.yul\":1764:2189   */\n    tag_65:\n        /* \"#utility.yul\":1842:1847   */\n      0x00\n        /* \"#utility.yul\":1867:1933   */\n      tag_114\n        /* \"#utility.yul\":1883:1932   */\n      tag_115\n        /* \"#utility.yul\":1925:1931   */\n      dup5\n        /* \"#utility.yul\":1883:1932   */\n      tag_63\n      jump\t// in\n    tag_115:\n        /* \"#utility.yul\":1867:1933   */\n      tag_62\n      jump\t// in\n    tag_114:\n        /* \"#utility.yul\":1858:1933   */\n      swap1\n      pop\n        /* \"#utility.yul\":1956:1962   */\n      dup3\n        /* \"#utility.yul\":1949:1954   */\n      dup2\n        /* \"#utility.yul\":1942:1963   */\n      mstore\n        /* \"#utility.yul\":1994:1998   */\n      0x20\n        /* \"#utility.yul\":1987:1992   */\n      dup2\n        /* \"#utility.yul\":1983:1999   */\n      add\n        /* \"#utility.yul\":2032:2035   */\n      dup5\n        /* \"#utility.yul\":2023:2029   */\n      dup5\n        /* \"#utility.yul\":2018:2021   */\n      dup5\n        /* \"#utility.yul\":2014:2030   */\n      add\n        /* \"#utility.yul\":2011:2036   */\n      gt\n        /* \"#utility.yul\":2008:2120   */\n      iszero\n      tag_116\n      jumpi\n        /* \"#utility.yul\":2039:2118   */\n      tag_117\n      tag_59\n      jump\t// in\n    tag_117:\n        /* \"#utility.yul\":2008:2120   */\n    tag_116:\n        /* \"#utility.yul\":2129:2183   */\n      tag_118\n        /* \"#utility.yul\":2176:2182   */\n      dup5\n        /* \"#utility.yul\":2171:2174   */\n      dup3\n        /* \"#utility.yul\":2166:2169   */\n      dup6\n        /* \"#utility.yul\":2129:2183   */\n      tag_64\n      jump\t// in\n    tag_118:\n        /* \"#utility.yul\":1848:2189   */\n      pop\n        /* \"#utility.yul\":1764:2189   */\n      swap4\n      swap3\n      pop\n      pop\n      pop\n      jump\t// out\n        /* \"#utility.yul\":2209:2549   */\n    tag_66:\n        /* \"#utility.yul\":2265:2270   */\n      0x00\n        /* \"#utility.yul\":2314:2317   */\n      dup3\n        /* \"#utility.yul\":2307:2311   */\n      0x1f\n        /* \"#utility.yul\":2299:2305   */\n      dup4\n        /* \"#utility.yul\":2295:2312   */\n      add\n        /* \"#utility.yul\":2291:2318   */\n      slt\n        /* \"#utility.yul\":2281:2403   */\n      tag_120\n      jumpi\n        /* \"#utility.yul\":2322:2401   */\n      tag_121\n      tag_58\n      jump\t// in\n    tag_121:\n        /* \"#utility.yul\":2281:2403   */\n    tag_120:\n        /* \"#utility.yul\":2439:2445   */\n      dup2\n        /* \"#utility.yul\":2426:2446   */\n      calldataload\n        /* \"#utility.yul\":2464:2543   */\n      tag_122\n        /* \"#utility.yul\":2539:2542   */\n      dup5\n        /* \"#utility.yul\":2531:2537   */\n      dup3\n        /* \"#utility.yul\":2524:2528   */\n      0x20\n        /* \"#utility.yul\":2516:2522   */\n      dup7\n        /* \"#utility.yul\":2512:2529   */\n      add\n        /* \"#utility.yul\":2464:2543   */\n      tag_65\n      jump\t// in\n    tag_122:\n        /* \"#utility.yul\":2455:2543   */\n      swap2\n      pop\n        /* \"#utility.yul\":2271:2549   */\n      pop\n        /* \"#utility.yul\":2209:2549   */\n      swap3\n      swap2\n      pop\n      pop\n      jump\t// out\n        /* \"#utility.yul\":2555:3064   */\n    tag_7:\n        /* \"#utility.yul\":2624:2630   */\n      0x00\n        /* \"#utility.yul\":2673:2675   */\n      0x20\n        /* \"#utility.yul\":2661:2670   */\n      dup3\n        /* \"#utility.yul\":2652:2659   */\n      dup5\n        /* \"#utility.yul\":2648:2671   */\n      sub\n        /* \"#utility.yul\":2644:2676   */\n      slt\n        /* \"#utility.yul\":2641:2760   */\n      iszero\n      tag_124\n      jumpi\n        /* \"#utility.yul\":2679:2758   */\n      tag_125\n      tag_56\n      jump\t// in\n    tag_125:\n        /* \"#utility.yul\":2641:2760   */\n    tag_124:\n        /* \"#utility.yul\":2827:2828   */\n      0x00\n        /* \"#utility.yul\":2816:2825   */\n      dup3\n        /* \"#utility.yul\":2812:2829   */\n      add\n        /* \"#utility.yul\":2799:2830   */\n      calldataload\n        /* \"#utility.yul\":2857:2875   */\n      0xffffffffffffffff\n        /* \"#utility.yul\":2849:2855   */\n      dup2\n        /* \"#utility.yul\":2846:2876   */\n      gt\n        /* \"#utility.yul\":2843:2960   */\n      iszero\n      tag_126\n      jumpi\n        /* \"#utility.yul\":2879:2958   */\n      tag_127\n      tag_57\n      jump\t// in\n    tag_127:\n        /* \"#utility.yul\":2843:2960   */\n    tag_126:\n        /* \"#utility.yul\":2984:3047   */\n      tag_128\n        /* \"#utility.yul\":3039:3046   */\n      dup5\n        /* \"#utility.yul\":3030:3036   */\n      dup3\n        /* \"#utility.yul\":3019:3028   */\n      dup6\n        /* \"#utility.yul\":3015:3037   */\n      add\n        /* \"#utility.yul\":2984:3047   */\n      tag_66\n      jump\t// in\n    tag_128:\n        /* \"#utility.yul\":2974:3047   */\n      swap2\n      pop\n        /* \"#utility.yul\":2770:3057   */\n      pop\n        /* \"#utility.yul\":2555:3064   */\n      swap3\n      swap2\n      pop\n      pop\n      jump\t// out\n        /* \"#utility.yul\":3070:3147   */\n    tag_67:\n        /* \"#utility.yul\":3107:3114   */\n      0x00\n        /* \"#utility.yul\":3136:3141   */\n      dup2\n        /* \"#utility.yul\":3125:3141   */\n      swap1\n      pop\n        /* \"#utility.yul\":3070:3147   */\n      swap2\n      swap1\n      pop\n      jump\t// out\n        /* \"#utility.yul\":3153:3271   */\n    tag_68:\n        /* \"#utility.yul\":3240:3264   */\n      tag_131\n        /* \"#utility.yul\":3258:3263   */\n      dup2\n        /* \"#utility.yul\":3240:3264   */\n      tag_67\n      jump\t// in\n    tag_131:\n        /* \"#utility.yul\":3235:3238   */\n      dup3\n        /* \"#utility.yul\":3228:3265   */\n      mstore\n        /* \"#utility.yul\":3153:3271   */\n      pop\n      pop\n      jump\t// out\n        /* \"#utility.yul\":3277:3401   */\n    tag_69:\n        /* \"#utility.yul\":3354:3360   */\n      0x00\n        /* \"#utility.yul\":3388:3393   */\n      dup2\n        /* \"#utility.yul\":3382:3394   */\n      mload\n        /* \"#utility.yul\":3372:3394   */\n      swap1\n      pop\n        /* \"#utility.yul\":3277:3401   */\n      swap2\n      swap1\n      pop\n      jump\t// out\n        /* \"#utility.yul\":3407:3601   */\n    tag_70:\n        /* \"#utility.yul\":3516:3527   */\n      0x00\n        /* \"#utility.yul\":3550:3556   */\n      dup3\n        /* \"#utility.yul\":3545:3548   */\n      dup3\n        /* \"#utility.yul\":3538:3557   */\n      mstore\n        /* \"#utility.yul\":3590:3594   */\n      0x20\n        /* \"#utility.yul\":3585:3588   */\n      dup3\n        /* \"#utility.yul\":3581:3595   */\n      add\n        /* \"#utility.yul\":3566:3595   */\n      swap1\n      pop\n        /* \"#utility.yul\":3407:3601   */\n      swap3\n      swap2\n      pop\n      pop\n      jump\t// out\n        /* \"#utility.yul\":3607:3749   */\n    tag_71:\n        /* \"#utility.yul\":3684:3688   */\n      0x00\n        /* \"#utility.yul\":3707:3710   */\n      dup2\n        /* \"#utility.yul\":3699:3710   */\n      swap1\n      pop\n        /* \"#utility.yul\":3737:3741   */\n      0x20\n        /* \"#utility.yul\":3732:3735   */\n      dup3\n        /* \"#utility.yul\":3728:3742   */\n      add\n        /* \"#utility.yul\":3720:3742   */\n      swap1\n      pop\n        /* \"#utility.yul\":3607:3749   */\n      swap2\n      swap1\n      pop\n      jump\t// out\n        /* \"#utility.yul\":3755:3854   */\n    tag_72:\n        /* \"#utility.yul\":3807:3813   */\n      0x00\n        /* \"#utility.yul\":3841:3846   */\n      dup2\n        /* \"#utility.yul\":3835:3847   */\n      mload\n        /* \"#utility.yul\":3825:3847   */\n      swap1\n      pop\n        /* \"#utility.yul\":3755:3854   */\n      swap2\n      swap1\n      pop\n      jump\t// out\n        /* \"#utility.yul\":3860:4019   */\n    tag_73:\n        /* \"#utility.yul\":3934:3945   */\n      0x00\n        /* \"#utility.yul\":3968:3974   */\n      dup3\n        /* \"#utility.yul\":3963:3966   */\n      dup3\n        /* \"#utility.yul\":3956:3975   */\n      mstore\n        /* \"#utility.yul\":4008:4012   */\n      0x20\n        /* \"#utility.yul\":4003:4006   */\n      dup3\n        /* \"#utility.yul\":3999:4013   */\n      add\n        /* \"#utility.yul\":3984:4013   */\n      swap1\n      pop\n        /* \"#utility.yul\":3860:4019   */\n      swap3\n      swap2\n      pop\n      pop\n      jump\t// out\n        /* \"#utility.yul\":4025:4164   */\n    tag_74:\n        /* \"#utility.yul\":4114:4120   */\n      dup3\n        /* \"#utility.yul\":4109:4112   */\n      dup2\n        /* \"#utility.yul\":4104:4107   */\n      dup4\n        /* \"#utility.yul\":4098:4121   */\n      mcopy\n        /* \"#utility.yul\":4155:4156   */\n      0x00\n        /* \"#utility.yul\":4146:4152   */\n      dup4\n        /* \"#utility.yul\":4141:4144   */\n      dup4\n        /* \"#utility.yul\":4137:4153   */\n      add\n        /* \"#utility.yul\":4130:4157   */\n      mstore\n        /* \"#utility.yul\":4025:4164   */\n      pop\n      pop\n      pop\n      jump\t// out\n        /* \"#utility.yul\":4170:4527   */\n    tag_75:\n        /* \"#utility.yul\":4248:4251   */\n      0x00\n        /* \"#utility.yul\":4276:4315   */\n      tag_139\n        /* \"#utility.yul\":4309:4314   */\n      dup3\n        /* \"#utility.yul\":4276:4315   */\n      tag_72\n      jump\t// in\n    tag_139:\n        /* \"#utility.yul\":4331:4392   */\n      tag_140\n        /* \"#utility.yul\":4385:4391   */\n      dup2\n        /* \"#utility.yul\":4380:4383   */\n      dup6\n        /* \"#utility.yul\":4331:4392   */\n      tag_73\n      jump\t// in\n    tag_140:\n        /* \"#utility.yul\":4324:4392   */\n      swap4\n      pop\n        /* \"#utility.yul\":4401:4466   */\n      tag_141\n        /* \"#utility.yul\":4459:4465   */\n      dup2\n        /* \"#utility.yul\":4454:4457   */\n      dup6\n        /* \"#utility.yul\":4447:4451   */\n      0x20\n        /* \"#utility.yul\":4440:4445   */\n      dup7\n        /* \"#utility.yul\":4436:4452   */\n      add\n        /* \"#utility.yul\":4401:4466   */\n      tag_74\n      jump\t// in\n    tag_141:\n        /* \"#utility.yul\":4491:4520   */\n      tag_142\n        /* \"#utility.yul\":4513:4519   */\n      dup2\n        /* \"#utility.yul\":4491:4520   */\n      tag_60\n      jump\t// in\n    tag_142:\n        /* \"#utility.yul\":4486:4489   */\n      dup5\n        /* \"#utility.yul\":4482:4521   */\n      add\n        /* \"#utility.yul\":4475:4521   */\n      swap2\n      pop\n        /* \"#utility.yul\":4252:4527   */\n      pop\n        /* \"#utility.yul\":4170:4527   */\n      swap3\n      swap2\n      pop\n      pop\n      jump\t// out\n        /* \"#utility.yul\":4533:4729   */\n    tag_76:\n        /* \"#utility.yul\":4622:4632   */\n      0x00\n        /* \"#utility.yul\":4657:4723   */\n      tag_144\n        /* \"#utility.yul\":4719:4722   */\n      dup4\n        /* \"#utility.yul\":4711:4717   */\n      dup4\n        /* \"#utility.yul\":4657:4723   */\n      tag_75\n      jump\t// in\n    tag_144:\n        /* \"#utility.yul\":4643:4723   */\n      swap1\n      pop\n        /* \"#utility.yul\":4533:4729   */\n      swap3\n      swap2\n      pop\n      pop\n      jump\t// out\n        /* \"#utility.yul\":4735:4858   */\n    tag_77:\n        /* \"#utility.yul\":4815:4819   */\n      0x00\n        /* \"#utility.yul\":4847:4851   */\n      0x20\n        /* \"#utility.yul\":4842:4845   */\n      dup3\n        /* \"#utility.yul\":4838:4852   */\n      add\n        /* \"#utility.yul\":4830:4852   */\n      swap1\n      pop\n        /* \"#utility.yul\":4735:4858   */\n      swap2\n      swap1\n      pop\n      jump\t// out\n        /* \"#utility.yul\":4892:5883   */\n    tag_78:\n        /* \"#utility.yul\":5031:5034   */\n      0x00\n        /* \"#utility.yul\":5060:5124   */\n      tag_147\n        /* \"#utility.yul\":5118:5123   */\n      dup3\n        /* \"#utility.yul\":5060:5124   */\n      tag_69\n      jump\t// in\n    tag_147:\n        /* \"#utility.yul\":5140:5236   */\n      tag_148\n        /* \"#utility.yul\":5229:5235   */\n      dup2\n        /* \"#utility.yul\":5224:5227   */\n      dup6\n        /* \"#utility.yul\":5140:5236   */\n      tag_70\n      jump\t// in\n    tag_148:\n        /* \"#utility.yul\":5133:5236   */\n      swap4\n      pop\n        /* \"#utility.yul\":5262:5265   */\n      dup4\n        /* \"#utility.yul\":5307:5311   */\n      0x20\n        /* \"#utility.yul\":5299:5305   */\n      dup3\n        /* \"#utility.yul\":5295:5312   */\n      mul\n        /* \"#utility.yul\":5290:5293   */\n      dup6\n        /* \"#utility.yul\":5286:5313   */\n      add\n        /* \"#utility.yul\":5337:5403   */\n      tag_149\n        /* \"#utility.yul\":5397:5402   */\n      dup6\n        /* \"#utility.yul\":5337:5403   */\n      tag_71\n      jump\t// in\n    tag_149:\n        /* \"#utility.yul\":5426:5433   */\n      dup1\n        /* \"#utility.yul\":5457:5458   */\n      0x00\n        /* \"#utility.yul\":5442:5838   */\n    tag_150:\n        /* \"#utility.yul\":5467:5473   */\n      dup6\n        /* \"#utility.yul\":5464:5465   */\n      dup2\n        /* \"#utility.yul\":5461:5474   */\n      lt\n        /* \"#utility.yul\":5442:5838   */\n      iszero\n      tag_152\n      jumpi\n        /* \"#utility.yul\":5538:5547   */\n      dup5\n        /* \"#utility.yul\":5532:5536   */\n      dup5\n        /* \"#utility.yul\":5528:5548   */\n      sub\n        /* \"#utility.yul\":5523:5526   */\n      dup10\n        /* \"#utility.yul\":5516:5549   */\n      mstore\n        /* \"#utility.yul\":5589:5595   */\n      dup2\n        /* \"#utility.yul\":5583:5596   */\n      mload\n        /* \"#utility.yul\":5617:5701   */\n      tag_153\n        /* \"#utility.yul\":5696:5700   */\n      dup6\n        /* \"#utility.yul\":5681:5694   */\n      dup3\n        /* \"#utility.yul\":5617:5701   */\n      tag_76\n      jump\t// in\n    tag_153:\n        /* \"#utility.yul\":5609:5701   */\n      swap5\n      pop\n        /* \"#utility.yul\":5724:5794   */\n      tag_154\n        /* \"#utility.yul\":5787:5793   */\n      dup4\n        /* \"#utility.yul\":5724:5794   */\n      tag_77\n      jump\t// in\n    tag_154:\n        /* \"#utility.yul\":5714:5794   */\n      swap3\n      pop\n        /* \"#utility.yul\":5823:5827   */\n      0x20\n        /* \"#utility.yul\":5818:5821   */\n      dup11\n        /* \"#utility.yul\":5814:5828   */\n      add\n        /* \"#utility.yul\":5807:5828   */\n      swap10\n      pop\n        /* \"#utility.yul\":5502:5838   */\n      pop\n        /* \"#utility.yul\":5489:5490   */\n      0x01\n        /* \"#utility.yul\":5486:5487   */\n      dup2\n        /* \"#utility.yul\":5482:5491   */\n      add\n        /* \"#utility.yul\":5477:5491   */\n      swap1\n      pop\n        /* \"#utility.yul\":5442:5838   */\n      jump(tag_150)\n    tag_152:\n        /* \"#utility.yul\":5446:5460   */\n      pop\n        /* \"#utility.yul\":5854:5858   */\n      dup3\n        /* \"#utility.yul\":5847:5858   */\n      swap8\n      pop\n        /* \"#utility.yul\":5874:5877   */\n      dup8\n        /* \"#utility.yul\":5867:5877   */\n      swap6\n      pop\n        /* \"#utility.yul\":5036:5883   */\n      pop\n      pop\n      pop\n      pop\n      pop\n        /* \"#utility.yul\":4892:5883   */\n      swap3\n      swap2\n      pop\n      pop\n      jump\t// out\n        /* \"#utility.yul\":5889:6412   */\n    tag_10:\n        /* \"#utility.yul\":6080:6084   */\n      0x00\n        /* \"#utility.yul\":6118:6120   */\n      0x40\n        /* \"#utility.yul\":6107:6116   */\n      dup3\n        /* \"#utility.yul\":6103:6121   */\n      add\n        /* \"#utility.yul\":6095:6121   */\n      swap1\n      pop\n        /* \"#utility.yul\":6131:6202   */\n      tag_156\n        /* \"#utility.yul\":6199:6200   */\n      0x00\n        /* \"#utility.yul\":6188:6197   */\n      dup4\n        /* \"#utility.yul\":6184:6201   */\n      add\n        /* \"#utility.yul\":6175:6181   */\n      dup6\n        /* \"#utility.yul\":6131:6202   */\n      tag_68\n      jump\t// in\n    tag_156:\n        /* \"#utility.yul\":6249:6258   */\n      dup2\n        /* \"#utility.yul\":6243:6247   */\n      dup2\n        /* \"#utility.yul\":6239:6259   */\n      sub\n        /* \"#utility.yul\":6234:6236   */\n      0x20\n        /* \"#utility.yul\":6223:6232   */\n      dup4\n        /* \"#utility.yul\":6219:6237   */\n      add\n        /* \"#utility.yul\":6212:6260   */\n      mstore\n        /* \"#utility.yul\":6277:6405   */\n      tag_157\n        /* \"#utility.yul\":6400:6404   */\n      dup2\n        /* \"#utility.yul\":6391:6397   */\n      dup5\n        /* \"#utility.yul\":6277:6405   */\n      tag_78\n      jump\t// in\n    tag_157:\n        /* \"#utility.yul\":6269:6405   */\n      swap1\n      pop\n        /* \"#utility.yul\":5889:6412   */\n      swap4\n      swap3\n      pop\n      pop\n      pop\n      jump\t// out\n        /* \"#utility.yul\":6418:6540   */\n    tag_79:\n        /* \"#utility.yul\":6491:6515   */\n      tag_159\n        /* \"#utility.yul\":6509:6514   */\n      dup2\n        /* \"#utility.yul\":6491:6515   */\n      tag_67\n      jump\t// in\n    tag_159:\n        /* \"#utility.yul\":6484:6489   */\n      dup2\n        /* \"#utility.yul\":6481:6516   */\n      eq\n        /* \"#utility.yul\":6471:6534   */\n      tag_160\n      jumpi\n        /* \"#utility.yul\":6530:6531   */\n      0x00\n        /* \"#utility.yul\":6527:6528   */\n      dup1\n        /* \"#utility.yul\":6520:6532   */\n      revert\n        /* \"#utility.yul\":6471:6534   */\n    tag_160:\n        /* \"#utility.yul\":6418:6540   */\n      pop\n      jump\t// out\n        /* \"#utility.yul\":6546:6685   */\n    tag_80:\n        /* \"#utility.yul\":6592:6597   */\n      0x00\n        /* \"#utility.yul\":6630:6636   */\n      dup2\n        /* \"#utility.yul\":6617:6637   */\n      calldataload\n        /* \"#utility.yul\":6608:6637   */\n      swap1\n      pop\n        /* \"#utility.yul\":6646:6679   */\n      tag_162\n        /* \"#utility.yul\":6673:6678   */\n      dup2\n        /* \"#utility.yul\":6646:6679   */\n      tag_79\n      jump\t// in\n    tag_162:\n        /* \"#utility.yul\":6546:6685   */\n      swap3\n      swap2\n      pop\n      pop\n      jump\t// out\n        /* \"#utility.yul\":6691:7020   */\n    tag_13:\n        /* \"#utility.yul\":6750:6756   */\n      0x00\n        /* \"#utility.yul\":6799:6801   */\n      0x20\n        /* \"#utility.yul\":6787:6796   */\n      dup3\n        /* \"#utility.yul\":6778:6785   */\n      dup5\n        /* \"#utility.yul\":6774:6797   */\n      sub\n        /* \"#utility.yul\":6770:6802   */\n      slt\n        /* \"#utility.yul\":6767:6886   */\n      iszero\n      tag_164\n      jumpi\n        /* \"#utility.yul\":6805:6884   */\n      tag_165\n      tag_56\n      jump\t// in\n    tag_165:\n        /* \"#utility.yul\":6767:6886   */\n    tag_164:\n        /* \"#utility.yul\":6925:6926   */\n      0x00\n        /* \"#utility.yul\":6950:7003   */\n      tag_166\n        /* \"#utility.yul\":6995:7002   */\n      dup5\n        /* \"#utility.yul\":6986:6992   */\n      dup3\n        /* \"#utility.yul\":6975:6984   */\n      dup6\n        /* \"#utility.yul\":6971:6993   */\n      add\n        /* \"#utility.yul\":6950:7003   */\n      tag_80\n      jump\t// in\n    tag_166:\n        /* \"#utility.yul\":6940:7003   */\n      swap2\n      pop\n        /* \"#utility.yul\":6896:7013   */\n      pop\n        /* \"#utility.yul\":6691:7020   */\n      swap3\n      swap2\n      pop\n      pop\n      jump\t// out\n        /* \"#utility.yul\":7026:7140   */\n    tag_81:\n        /* \"#utility.yul\":7093:7099   */\n      0x00\n        /* \"#utility.yul\":7127:7132   */\n      dup2\n        /* \"#utility.yul\":7121:7133   */\n      mload\n        /* \"#utility.yul\":7111:7133   */\n      swap1\n      pop\n        /* \"#utility.yul\":7026:7140   */\n      swap2\n      swap1\n      pop\n      jump\t// out\n        /* \"#utility.yul\":7146:7330   */\n    tag_82:\n        /* \"#utility.yul\":7245:7256   */\n      0x00\n        /* \"#utility.yul\":7279:7285   */\n      dup3\n        /* \"#utility.yul\":7274:7277   */\n      dup3\n        /* \"#utility.yul\":7267:7286   */\n      mstore\n        /* \"#utility.yul\":7319:7323   */\n      0x20\n        /* \"#utility.yul\":7314:7317   */\n      dup3\n        /* \"#utility.yul\":7310:7324   */\n      add\n        /* \"#utility.yul\":7295:7324   */\n      swap1\n      pop\n        /* \"#utility.yul\":7146:7330   */\n      swap3\n      swap2\n      pop\n      pop\n      jump\t// out\n        /* \"#utility.yul\":7336:7468   */\n    tag_83:\n        /* \"#utility.yul\":7403:7407   */\n      0x00\n        /* \"#utility.yul\":7426:7429   */\n      dup2\n        /* \"#utility.yul\":7418:7429   */\n      swap1\n      pop\n        /* \"#utility.yul\":7456:7460   */\n      0x20\n        /* \"#utility.yul\":7451:7454   */\n      dup3\n        /* \"#utility.yul\":7447:7461   */\n      add\n        /* \"#utility.yul\":7439:7461   */\n      swap1\n      pop\n        /* \"#utility.yul\":7336:7468   */\n      swap2\n      swap1\n      pop\n      jump\t// out\n        /* \"#utility.yul\":7474:7582   */\n    tag_84:\n        /* \"#utility.yul\":7551:7575   */\n      tag_171\n        /* \"#utility.yul\":7569:7574   */\n      dup2\n        /* \"#utility.yul\":7551:7575   */\n      tag_67\n      jump\t// in\n    tag_171:\n        /* \"#utility.yul\":7546:7549   */\n      dup3\n        /* \"#utility.yul\":7539:7576   */\n      mstore\n        /* \"#utility.yul\":7474:7582   */\n      pop\n      pop\n      jump\t// out\n        /* \"#utility.yul\":7588:7767   */\n    tag_85:\n        /* \"#utility.yul\":7657:7667   */\n      0x00\n        /* \"#utility.yul\":7678:7724   */\n      tag_173\n        /* \"#utility.yul\":7720:7723   */\n      dup4\n        /* \"#utility.yul\":7712:7718   */\n      dup4\n        /* \"#utility.yul\":7678:7724   */\n      tag_84\n      jump\t// in\n    tag_173:\n        /* \"#utility.yul\":7756:7760   */\n      0x20\n        /* \"#utility.yul\":7751:7754   */\n      dup4\n        /* \"#utility.yul\":7747:7761   */\n      add\n        /* \"#utility.yul\":7733:7761   */\n      swap1\n      pop\n        /* \"#utility.yul\":7588:7767   */\n      swap3\n      swap2\n      pop\n      pop\n      jump\t// out\n        /* \"#utility.yul\":7773:7886   */\n    tag_86:\n        /* \"#utility.yul\":7843:7847   */\n      0x00\n        /* \"#utility.yul\":7875:7879   */\n      0x20\n        /* \"#utility.yul\":7870:7873   */\n      dup3\n        /* \"#utility.yul\":7866:7880   */\n      add\n        /* \"#utility.yul\":7858:7880   */\n      swap1\n      pop\n        /* \"#utility.yul\":7773:7886   */\n      swap2\n      swap1\n      pop\n      jump\t// out\n        /* \"#utility.yul\":7922:8654   */\n    tag_87:\n        /* \"#utility.yul\":8041:8044   */\n      0x00\n        /* \"#utility.yul\":8070:8124   */\n      tag_176\n        /* \"#utility.yul\":8118:8123   */\n      dup3\n        /* \"#utility.yul\":8070:8124   */\n      tag_81\n      jump\t// in\n    tag_176:\n        /* \"#utility.yul\":8140:8226   */\n      tag_177\n        /* \"#utility.yul\":8219:8225   */\n      dup2\n        /* \"#utility.yul\":8214:8217   */\n      dup6\n        /* \"#utility.yul\":8140:8226   */\n      tag_82\n      jump\t// in\n    tag_177:\n        /* \"#utility.yul\":8133:8226   */\n      swap4\n      pop\n        /* \"#utility.yul\":8250:8306   */\n      tag_178\n        /* \"#utility.yul\":8300:8305   */\n      dup4\n        /* \"#utility.yul\":8250:8306   */\n      tag_83\n      jump\t// in\n    tag_178:\n        /* \"#utility.yul\":8329:8336   */\n      dup1\n        /* \"#utility.yul\":8360:8361   */\n      0x00\n        /* \"#utility.yul\":8345:8629   */\n    tag_179:\n        /* \"#utility.yul\":8370:8376   */\n      dup4\n        /* \"#utility.yul\":8367:8368   */\n      dup2\n        /* \"#utility.yul\":8364:8377   */\n      lt\n        /* \"#utility.yul\":8345:8629   */\n      iszero\n      tag_181\n      jumpi\n        /* \"#utility.yul\":8446:8452   */\n      dup2\n        /* \"#utility.yul\":8440:8453   */\n      mload\n        /* \"#utility.yul\":8473:8536   */\n      tag_182\n        /* \"#utility.yul\":8532:8535   */\n      dup9\n        /* \"#utility.yul\":8517:8530   */\n      dup3\n        /* \"#utility.yul\":8473:8536   */\n      tag_85\n      jump\t// in\n    tag_182:\n        /* \"#utility.yul\":8466:8536   */\n      swap8\n      pop\n        /* \"#utility.yul\":8559:8619   */\n      tag_183\n        /* \"#utility.yul\":8612:8618   */\n      dup4\n        /* \"#utility.yul\":8559:8619   */\n      tag_86\n      jump\t// in\n    tag_183:\n        /* \"#utility.yul\":8549:8619   */\n      swap3\n      pop\n        /* \"#utility.yul\":8405:8629   */\n      pop\n        /* \"#utility.yul\":8392:8393   */\n      0x01\n        /* \"#utility.yul\":8389:8390   */\n      dup2\n        /* \"#utility.yul\":8385:8394   */\n      add\n        /* \"#utility.yul\":8380:8394   */\n      swap1\n      pop\n        /* \"#utility.yul\":8345:8629   */\n      jump(tag_179)\n    tag_181:\n        /* \"#utility.yul\":8349:8363   */\n      pop\n        /* \"#utility.yul\":8645:8648   */\n      dup6\n        /* \"#utility.yul\":8638:8648   */\n      swap4\n      pop\n        /* \"#utility.yul\":8046:8654   */\n      pop\n      pop\n      pop\n        /* \"#utility.yul\":7922:8654   */\n      swap3\n      swap2\n      pop\n      pop\n      jump\t// out\n        /* \"#utility.yul\":8660:9143   */\n    tag_16:\n        /* \"#utility.yul\":8831:8835   */\n      0x00\n        /* \"#utility.yul\":8869:8871   */\n      0x40\n        /* \"#utility.yul\":8858:8867   */\n      dup3\n        /* \"#utility.yul\":8854:8872   */\n      add\n        /* \"#utility.yul\":8846:8872   */\n      swap1\n      pop\n        /* \"#utility.yul\":8882:8953   */\n      tag_185\n        /* \"#utility.yul\":8950:8951   */\n      0x00\n        /* \"#utility.yul\":8939:8948   */\n      dup4\n        /* \"#utility.yul\":8935:8952   */\n      add\n        /* \"#utility.yul\":8926:8932   */\n      dup6\n        /* \"#utility.yul\":8882:8953   */\n      tag_68\n      jump\t// in\n    tag_185:\n        /* \"#utility.yul\":9000:9009   */\n      dup2\n        /* \"#utility.yul\":8994:8998   */\n      dup2\n        /* \"#utility.yul\":8990:9010   */\n      sub\n        /* \"#utility.yul\":8985:8987   */\n      0x20\n        /* \"#utility.yul\":8974:8983   */\n      dup4\n        /* \"#utility.yul\":8970:8988   */\n      add\n        /* \"#utility.yul\":8963:9011   */\n      mstore\n        /* \"#utility.yul\":9028:9136   */\n      tag_186\n        /* \"#utility.yul\":9131:9135   */\n      dup2\n        /* \"#utility.yul\":9122:9128   */\n      dup5\n        /* \"#utility.yul\":9028:9136   */\n      tag_87\n      jump\t// in\n    tag_186:\n        /* \"#utility.yul\":9020:9136   */\n      swap1\n      pop\n        /* \"#utility.yul\":8660:9143   */\n      swap4\n      swap3\n      pop\n      pop\n      pop\n      jump\t// out\n        /* \"#utility.yul\":9149:9329   */\n    tag_28:\n        /* \"#utility.yul\":9197:9274   */\n      0x4e487b7100000000000000000000000000000000000000000000000000000000\n        /* \"#utility.yul\":9194:9195   */\n      0x00\n        /* \"#utility.yul\":9187:9275   */\n      mstore\n        /* \"#utility.yul\":9294:9298   */\n      0x32\n        /* \"#utility.yul\":9291:9292   */\n      0x04\n        /* \"#utility.yul\":9284:9299   */\n      mstore\n        /* \"#utility.yul\":9318:9322   */\n      0x24\n        /* \"#utility.yul\":9315:9316   */\n      0x00\n        /* \"#utility.yul\":9308:9323   */\n      revert\n        /* \"#utility.yul\":9335:9484   */\n    tag_88:\n        /* \"#utility.yul\":9371:9378   */\n      0x00\n        /* \"#utility.yul\":9411:9477   */\n      0xff00000000000000000000000000000000000000000000000000000000000000\n        /* \"#utility.yul\":9404:9409   */\n      dup3\n        /* \"#utility.yul\":9400:9478   */\n      and\n        /* \"#utility.yul\":9389:9478   */\n      swap1\n      pop\n        /* \"#utility.yul\":9335:9484   */\n      swap2\n      swap1\n      pop\n      jump\t// out\n        /* \"#utility.yul\":9490:9568   */\n    tag_89:\n        /* \"#utility.yul\":9528:9535   */\n      0x00\n        /* \"#utility.yul\":9557:9562   */\n      dup2\n        /* \"#utility.yul\":9546:9562   */\n      swap1\n      pop\n        /* \"#utility.yul\":9490:9568   */\n      swap2\n      swap1\n      pop\n      jump\t// out\n        /* \"#utility.yul\":9574:9727   */\n    tag_90:\n        /* \"#utility.yul\":9677:9720   */\n      tag_191\n        /* \"#utility.yul\":9696:9719   */\n      tag_192\n        /* \"#utility.yul\":9713:9718   */\n      dup3\n        /* \"#utility.yul\":9696:9719   */\n      tag_88\n      jump\t// in\n    tag_192:\n        /* \"#utility.yul\":9677:9720   */\n      tag_89\n      jump\t// in\n    tag_191:\n        /* \"#utility.yul\":9672:9675   */\n      dup3\n        /* \"#utility.yul\":9665:9721   */\n      mstore\n        /* \"#utility.yul\":9574:9727   */\n      pop\n      pop\n      jump\t// out\n        /* \"#utility.yul\":9733:9984   */\n    tag_30:\n        /* \"#utility.yul\":9843:9846   */\n      0x00\n        /* \"#utility.yul\":9858:9931   */\n      tag_194\n        /* \"#utility.yul\":9927:9930   */\n      dup3\n        /* \"#utility.yul\":9918:9924   */\n      dup5\n        /* \"#utility.yul\":9858:9931   */\n      tag_90\n      jump\t// in\n    tag_194:\n        /* \"#utility.yul\":9956:9957   */\n      0x01\n        /* \"#utility.yul\":9951:9954   */\n      dup3\n        /* \"#utility.yul\":9947:9958   */\n      add\n        /* \"#utility.yul\":9940:9958   */\n      swap2\n      pop\n        /* \"#utility.yul\":9975:9978   */\n      dup2\n        /* \"#utility.yul\":9968:9978   */\n      swap1\n      pop\n        /* \"#utility.yul\":9733:9984   */\n      swap3\n      swap2\n      pop\n      pop\n      jump\t// out\n        /* \"#utility.yul\":9990:10170   */\n    tag_91:\n        /* \"#utility.yul\":10038:10115   */\n      0x4e487b7100000000000000000000000000000000000000000000000000000000\n        /* \"#utility.yul\":10035:10036   */\n      0x00\n        /* \"#utility.yul\":10028:10116   */\n      mstore\n        /* \"#utility.yul\":10135:10139   */\n      0x11\n        /* \"#utility.yul\":10132:10133   */\n      0x04\n        /* \"#utility.yul\":10125:10140   */\n      mstore\n        /* \"#utility.yul\":10159:10163   */\n      0x24\n        /* \"#utility.yul\":10156:10157   */\n      0x00\n        /* \"#utility.yul\":10149:10164   */\n      revert\n        /* \"#utility.yul\":10176:10409   */\n    tag_37:\n        /* \"#utility.yul\":10215:10218   */\n      0x00\n        /* \"#utility.yul\":10238:10262   */\n      tag_197\n        /* \"#utility.yul\":10256:10261   */\n      dup3\n        /* \"#utility.yul\":10238:10262   */\n      tag_67\n      jump\t// in\n    tag_197:\n        /* \"#utility.yul\":10229:10262   */\n      swap2\n      pop\n        /* \"#utility.yul\":10284:10350   */\n      0xffffffffffffffffffffffffffffffffffffffffffffffffffffffffffffffff\n        /* \"#utility.yul\":10277:10282   */\n      dup3\n        /* \"#utility.yul\":10274:10351   */\n      sub\n        /* \"#utility.yul\":10271:10374   */\n      tag_198\n      jumpi\n        /* \"#utility.yul\":10354:10372   */\n      tag_199\n      tag_91\n      jump\t// in\n    tag_199:\n        /* \"#utility.yul\":10271:10374   */\n    tag_198:\n        /* \"#utility.yul\":10401:10402   */\n      0x01\n        /* \"#utility.yul\":10394:10399   */\n      dup3\n        /* \"#utility.yul\":10390:10403   */\n      add\n        /* \"#utility.yul\":10383:10403   */\n      swap1\n      pop\n        /* \"#utility.yul\":10176:10409   */\n      swap2\n      swap1\n      pop\n      jump\t// out\n        /* \"#utility.yul\":10415:10595   */\n    tag_92:\n        /* \"#utility.yul\":10463:10540   */\n      0x4e487b7100000000000000000000000000000000000000000000000000000000\n        /* \"#utility.yul\":10460:10461   */\n      0x00\n        /* \"#utility.yul\":10453:10541   */\n      mstore\n        /* \"#utility.yul\":10560:10564   */\n      0x12\n        /* \"#utility.yul\":10557:10558   */\n      0x04\n        /* \"#utility.yul\":10550:10565   */\n      mstore\n        /* \"#utility.yul\":10584:10588   */\n      0x24\n        /* \"#utility.yul\":10581:10582   */\n      0x00\n        /* \"#utility.yul\":10574:10589   */\n      revert\n        /* \"#utility.yul\":10601:10786   */\n    tag_39:\n        /* \"#utility.yul\":10641:10642   */\n      0x00\n        /* \"#utility.yul\":10658:10678   */\n      tag_202\n        /* \"#utility.yul\":10676:10677   */\n      dup3\n        /* \"#utility.yul\":10658:10678   */\n      tag_67\n      jump\t// in\n    tag_202:\n        /* \"#utility.yul\":10653:10678   */\n      swap2\n      pop\n        /* \"#utility.yul\":10692:10712   */\n      tag_203\n        /* \"#utility.yul\":10710:10711   */\n      dup4\n        /* \"#utility.yul\":10692:10712   */\n      tag_67\n      jump\t// in\n    tag_203:\n        /* \"#utility.yul\":10687:10712   */\n      swap3\n      pop\n        /* \"#utility.yul\":10731:10732   */\n      dup3\n        /* \"#utility.yul\":10721:10756   */\n      tag_204\n      jumpi\n        /* \"#utility.yul\":10736:10754   */\n      tag_205\n      tag_92\n      jump\t// in\n    tag_205:\n        /* \"#utility.yul\":10721:10756   */\n    tag_204:\n        /* \"#utility.yul\":10778:10779   */\n      dup3\n        /* \"#utility.yul\":10775:10776   */\n      dup3\n        /* \"#utility.yul\":10771:10780   */\n      div\n        /* \"#utility.yul\":10766:10780   */\n      swap1\n      pop\n        /* \"#utility.yul\":10601:10786   */\n      swap3\n      swap2\n      pop\n      pop\n      jump\t// out\n        /* \"#utility.yul\":10792:10968   */\n    tag_47:\n        /* \"#utility.yul\":10824:10825   */\n      0x00\n        /* \"#utility.yul\":10841:10861   */\n      tag_207\n        /* \"#utility.yul\":10859:10860   */\n      dup3\n        /* \"#utility.yul\":10841:10861   */\n      tag_67\n      jump\t// in\n    tag_207:\n        /* \"#utility.yul\":10836:10861   */\n      swap2\n      pop\n        /* \"#utility.yul\":10875:10895   */\n      tag_208\n        /* \"#utility.yul\":10893:10894   */\n      dup4\n        /* \"#utility.yul\":10875:10895   */\n      tag_67\n      jump\t// in\n    tag_208:\n        /* \"#utility.yul\":10870:10895   */\n      swap3\n      pop\n        /* \"#utility.yul\":10914:10915   */\n      dup3\n        /* \"#utility.yul\":10904:10939   */\n      tag_209\n      jumpi\n        /* \"#utility.yul\":10919:10937   */\n      tag_210\n      tag_92\n      jump\t// in\n    tag_210:\n        /* \"#utility.yul\":10904:10939   */\n    tag_209:\n        /* \"#utility.yul\":10960:10961   */\n      dup3\n        /* \"#utility.yul\":10957:10958   */\n      dup3\n        /* \"#utility.yul\":10953:10962   */\n      mod\n        /* \"#utility.yul\":10948:10962   */\n      swap1\n      pop\n        /* \"#utility.yul\":10792:10968   */\n      swap3\n      swap2\n      pop\n      pop\n      jump\t// out\n        /* \"#utility.yul\":10974:11168   */\n    tag_49:\n        /* \"#utility.yul\":11014:11018   */\n      0x00\n        /* \"#utility.yul\":11034:11054   */\n      tag_212\n        /* \"#utility.yul\":11052:11053   */\n      dup3\n        /* \"#utility.yul\":11034:11054   */\n      tag_67\n      jump\t// in\n    tag_212:\n        /* \"#utility.yul\":11029:11054   */\n      swap2\n      pop\n        /* \"#utility.yul\":11068:11088   */\n      tag_213\n        /* \"#utility.yul\":11086:11087   */\n      dup4\n        /* \"#utility.yul\":11068:11088   */\n      tag_67\n      jump\t// in\n    tag_213:\n        /* \"#utility.yul\":11063:11088   */\n      swap3\n      pop\n        /* \"#utility.yul\":11112:11113   */\n      dup3\n        /* \"#utility.yul\":11109:11110   */\n      dup3\n        /* \"#utility.yul\":11105:11114   */\n      sub\n        /* \"#utility.yul\":11097:11114   */\n      swap1\n      pop\n        /* \"#utility.yul\":11136:11137   */\n      dup2\n        /* \"#utility.yul\":11130:11134   */\n      dup2\n        /* \"#utility.yul\":11127:11138   */\n      gt\n        /* \"#utility.yul\":11124:11161   */\n      iszero\n      tag_214\n      jumpi\n        /* \"#utility.yul\":11141:11159   */\n      tag_215\n      tag_91\n      jump\t// in\n    tag_215:\n        /* \"#utility.yul\":11124:11161   */\n    tag_214:\n        /* \"#utility.yul\":10974:11168   */\n      swap3\n      swap2\n      pop\n      pop\n      jump\t// out\n        /* \"#utility.yul\":11174:11345   */\n    tag_54:\n        /* \"#utility.yul\":11213:11216   */\n      0x00\n        /* \"#utility.yul\":11236:11260   */\n      tag_217\n        /* \"#utility.yul\":11254:11259   */\n      dup3\n        /* \"#utility.yul\":11236:11260   */\n      tag_67\n      jump\t// in\n    tag_217:\n        /* \"#utility.yul\":11227:11260   */\n      swap2\n      pop\n        /* \"#utility.yul\":11282:11286   */\n      0x00\n        /* \"#utility.yul\":11275:11280   */\n      dup3\n        /* \"#utility.yul\":11272:11287   */\n      sub\n        /* \"#utility.yul\":11269:11310   */\n      tag_218\n      jumpi\n        /* \"#utility.yul\":11290:11308   */\n      tag_219\n      tag_91\n      jump\t// in\n    tag_219:\n        /* \"#utility.yul\":11269:11310   */\n    tag_218:\n        /* \"#utility.yul\":11337:11338   */\n      0x01\n        /* \"#utility.yul\":11330:11335   */\n      dup3\n        /* \"#utility.yul\":11326:11339   */\n      sub\n        /* \"#utility.yul\":11319:11339   */\n      swap1\n      pop\n        /* \"#utility.yul\":11174:11345   */\n      swap2\n      swap1\n      pop\n      jump\t// out\n\n    auxdata: 0xa26469706673582212202f9ab8c2fd27c1ffa915e296ff9bc0bd217f937e1611b6b6b7bce234b80fcb2e64736f6c634300081a0033\n}\n",
				"bytecode": {
					"linkReferences": {},
					"object": "6080604052348015600e575f80fd5b506108c18061001c5f395ff3fe608060405234801561000f575f80fd5b5060043610610034575f3560e01c8063080cea7a146100385780631a5d193d14610069575b5f80fd5b610052600480360381019061004d91906103bc565b61009a565b604051610060929190610536565b60405180910390f35b610083600480360381019061007e919061058e565b610178565b604051610091929190610670565b60405180910390f35b5f60605f8390505f815190505f8167ffffffffffffffff8111156100c1576100c0610298565b5b6040519080825280602002602001820160405280156100f457816020015b60608152602001906001900390816100df5790505b5090505f5b82811015610169578381815181106101145761011361069e565b5b602001015160f81c60f81b60405160200161012f9190610716565b6040516020818303038152906040528282815181106101515761015061069e565b5b602002602001018190525080806001019150506100f9565b50818194509450505050915091565b5f60605f808490505b5f81146101aa5781806101939061075d565b925050600a816101a391906107d1565b9050610181565b5f8267ffffffffffffffff8111156101c5576101c4610298565b5b6040519080825280602002602001820160405280156101f35781602001602082028036833780820191505090505b5090508591505f8390505b5f81111561026057600a836102139190610801565b826001836102219190610831565b815181106102325761023161069e565b5b602002602001018181525050600a8361024b91906107d1565b9250808061025890610864565b9150506101fe565b50828194509450505050915091565b5f604051905090565b5f80fd5b5f80fd5b5f80fd5b5f80fd5b5f601f19601f8301169050919050565b7f4e487b71000000000000000000000000000000000000000000000000000000005f52604160045260245ffd5b6102ce82610288565b810181811067ffffffffffffffff821117156102ed576102ec610298565b5b80604052505050565b5f6102ff61026f565b905061030b82826102c5565b919050565b5f67ffffffffffffffff82111561032a57610329610298565b5b61033382610288565b9050602081019050919050565b828183375f83830152505050565b5f61036061035b84610310565b6102f6565b90508281526020810184848401111561037c5761037b610284565b5b610387848285610340565b509392505050565b5f82601f8301126103a3576103a2610280565b5b81356103b384826020860161034e565b91505092915050565b5f602082840312156103d1576103d0610278565b5b5f82013567ffffffffffffffff8111156103ee576103ed61027c565b5b6103fa8482850161038f565b91505092915050565b5f819050919050565b61041581610403565b82525050565b5f81519050919050565b5f82825260208201905092915050565b5f819050602082019050919050565b5f81519050919050565b5f82825260208201905092915050565b8281835e5f83830152505050565b5f61047682610444565b610480818561044e565b935061049081856020860161045e565b61049981610288565b840191505092915050565b5f6104af838361046c565b905092915050565b5f602082019050919050565b5f6104cd8261041b565b6104d78185610425565b9350836020820285016104e985610435565b805f5b85811015610524578484038952815161050585826104a4565b9450610510836104b7565b925060208a019950506001810190506104ec565b50829750879550505050505092915050565b5f6040820190506105495f83018561040c565b818103602083015261055b81846104c3565b90509392505050565b61056d81610403565b8114610577575f80fd5b50565b5f8135905061058881610564565b92915050565b5f602082840312156105a3576105a2610278565b5b5f6105b08482850161057a565b91505092915050565b5f81519050919050565b5f82825260208201905092915050565b5f819050602082019050919050565b6105eb81610403565b82525050565b5f6105fc83836105e2565b60208301905092915050565b5f602082019050919050565b5f61061e826105b9565b61062881856105c3565b9350610633836105d3565b805f5b8381101561066357815161064a88826105f1565b975061065583610608565b925050600181019050610636565b5085935050505092915050565b5f6040820190506106835f83018561040c565b81810360208301526106958184610614565b90509392505050565b7f4e487b71000000000000000000000000000000000000000000000000000000005f52603260045260245ffd5b5f7fff0000000000000000000000000000000000000000000000000000000000000082169050919050565b5f819050919050565b61071061070b826106cb565b6106f6565b82525050565b5f61072182846106ff565b60018201915081905092915050565b7f4e487b71000000000000000000000000000000000000000000000000000000005f52601160045260245ffd5b5f61076782610403565b91507fffffffffffffffffffffffffffffffffffffffffffffffffffffffffffffffff820361079957610798610730565b5b600182019050919050565b7f4e487b71000000000000000000000000000000000000000000000000000000005f52601260045260245ffd5b5f6107db82610403565b91506107e683610403565b9250826107f6576107f56107a4565b5b828204905092915050565b5f61080b82610403565b915061081683610403565b925082610826576108256107a4565b5b828206905092915050565b5f61083b82610403565b915061084683610403565b925082820390508181111561085e5761085d610730565b5b92915050565b5f61086e82610403565b91505f82036108805761087f610730565b5b60018203905091905056fea26469706673582212202f9ab8c2fd27c1ffa915e296ff9bc0bd217f937e1611b6b6b7bce234b80fcb2e64736f6c634300081a0033",
					"opcodes": "PUSH1 0x80 PUSH1 0x40 MSTORE CALLVALUE DUP1 ISZERO PUSH1 0xE JUMPI PUSH0 DUP1 REVERT JUMPDEST POP PUSH2 0x8C1 DUP1 PUSH2 0x1C PUSH0 CODECOPY PUSH0 RETURN INVALID PUSH1 0x80 PUSH1 0x40 MSTORE CALLVALUE DUP1 ISZERO PUSH2 0xF JUMPI PUSH0 DUP1 REVERT JUMPDEST POP PUSH1 0x4 CALLDATASIZE LT PUSH2 0x34 JUMPI PUSH0 CALLDATALOAD PUSH1 0xE0 SHR DUP1 PUSH4 0x80CEA7A EQ PUSH2 0x38 JUMPI DUP1 PUSH4 0x1A5D193D EQ PUSH2 0x69 JUMPI JUMPDEST PUSH0 DUP1 REVERT JUMPDEST PUSH2 0x52 PUSH1 0x4 DUP1 CALLDATASIZE SUB DUP2 ADD SWAP1 PUSH2 0x4D SWAP2 SWAP1 PUSH2 0x3BC JUMP JUMPDEST PUSH2 0x9A JUMP JUMPDEST PUSH1 0x40 MLOAD PUSH2 0x60 SWAP3 SWAP2 SWAP1 PUSH2 0x536 JUMP JUMPDEST PUSH1 0x40 MLOAD DUP1 SWAP2 SUB SWAP1 RETURN JUMPDEST PUSH2 0x83 PUSH1 0x4 DUP1 CALLDATASIZE SUB DUP2 ADD SWAP1 PUSH2 0x7E SWAP2 SWAP1 PUSH2 0x58E JUMP JUMPDEST PUSH2 0x178 JUMP JUMPDEST PUSH1 0x40 MLOAD PUSH2 0x91 SWAP3 SWAP2 SWAP1 PUSH2 0x670 JUMP JUMPDEST PUSH1 0x40 MLOAD DUP1 SWAP2 SUB SWAP1 RETURN JUMPDEST PUSH0 PUSH1 0x60 PUSH0 DUP4 SWAP1 POP PUSH0 DUP2 MLOAD SWAP1 POP PUSH0 DUP2 PUSH8 0xFFFFFFFFFFFFFFFF DUP2 GT ISZERO PUSH2 0xC1 JUMPI PUSH2 0xC0 PUSH2 0x298 JUMP JUMPDEST JUMPDEST PUSH1 0x40 MLOAD SWAP1 DUP1 DUP3 MSTORE DUP1 PUSH1 0x20 MUL PUSH1 0x20 ADD DUP3 ADD PUSH1 0x40 MSTORE DUP1 ISZERO PUSH2 0xF4 JUMPI DUP2 PUSH1 0x20 ADD JUMPDEST PUSH1 0x60 DUP2 MSTORE PUSH1 0x20 ADD SWAP1 PUSH1 0x1 SWAP1 SUB SWAP1 DUP2 PUSH2 0xDF JUMPI SWAP1 POP JUMPDEST POP SWAP1 POP PUSH0 JUMPDEST DUP3 DUP2 LT ISZERO PUSH2 0x169 JUMPI DUP4 DUP2 DUP2 MLOAD DUP2 LT PUSH2 0x114 JUMPI PUSH2 0x113 PUSH2 0x69E JUMP JUMPDEST JUMPDEST PUSH1 0x20 ADD ADD MLOAD PUSH1 0xF8 SHR PUSH1 0xF8 SHL PUSH1 0x40 MLOAD PUSH1 0x20 ADD PUSH2 0x12F SWAP2 SWAP1 PUSH2 0x716 JUMP JUMPDEST PUSH1 0x40 MLOAD PUSH1 0x20 DUP2 DUP4 SUB SUB DUP2 MSTORE SWAP1 PUSH1 0x40 MSTORE DUP3 DUP3 DUP2 MLOAD DUP2 LT PUSH2 0x151 JUMPI PUSH2 0x150 PUSH2 0x69E JUMP JUMPDEST JUMPDEST PUSH1 0x20 MUL PUSH1 0x20 ADD ADD DUP2 SWAP1 MSTORE POP DUP1 DUP1 PUSH1 0x1 ADD SWAP2 POP POP PUSH2 0xF9 JUMP JUMPDEST POP DUP2 DUP2 SWAP5 POP SWAP5 POP POP POP POP SWAP2 POP SWAP2 JUMP JUMPDEST PUSH0 PUSH1 0x60 PUSH0 DUP1 DUP5 SWAP1 POP JUMPDEST PUSH0 DUP2 EQ PUSH2 0x1AA JUMPI DUP2 DUP1 PUSH2 0x193 SWAP1 PUSH2 0x75D JUMP JUMPDEST SWAP3 POP POP PUSH1 0xA DUP2 PUSH2 0x1A3 SWAP2 SWAP1 PUSH2 0x7D1 JUMP JUMPDEST SWAP1 POP PUSH2 0x181 JUMP JUMPDEST PUSH0 DUP3 PUSH8 0xFFFFFFFFFFFFFFFF DUP2 GT ISZERO PUSH2 0x1C5 JUMPI PUSH2 0x1C4 PUSH2 0x298 JUMP JUMPDEST JUMPDEST PUSH1 0x40 MLOAD SWAP1 DUP1 DUP3 MSTORE DUP1 PUSH1 0x20 MUL PUSH1 0x20 ADD DUP3 ADD PUSH1 0x40 MSTORE DUP1 ISZERO PUSH2 0x1F3 JUMPI DUP2 PUSH1 0x20 ADD PUSH1 0x20 DUP3 MUL DUP1 CALLDATASIZE DUP4 CALLDATACOPY DUP1 DUP3 ADD SWAP2 POP POP SWAP1 POP JUMPDEST POP SWAP1 POP DUP6 SWAP2 POP PUSH0 DUP4 SWAP1 POP JUMPDEST PUSH0 DUP2 GT ISZERO PUSH2 0x260 JUMPI PUSH1 0xA DUP4 PUSH2 0x213 SWAP2 SWAP1 PUSH2 0x801 JUMP JUMPDEST DUP3 PUSH1 0x1 DUP4 PUSH2 0x221 SWAP2 SWAP1 PUSH2 0x831 JUMP JUMPDEST DUP2 MLOAD DUP2 LT PUSH2 0x232 JUMPI PUSH2 0x231 PUSH2 0x69E JUMP JUMPDEST JUMPDEST PUSH1 0x20 MUL PUSH1 0x20 ADD ADD DUP2 DUP2 MSTORE POP POP PUSH1 0xA DUP4 PUSH2 0x24B SWAP2 SWAP1 PUSH2 0x7D1 JUMP JUMPDEST SWAP3 POP DUP1 DUP1 PUSH2 0x258 SWAP1 PUSH2 0x864 JUMP JUMPDEST SWAP2 POP POP PUSH2 0x1FE JUMP JUMPDEST POP DUP3 DUP2 SWAP5 POP SWAP5 POP POP POP POP SWAP2 POP SWAP2 JUMP JUMPDEST PUSH0 PUSH1 0x40 MLOAD SWAP1 POP SWAP1 JUMP JUMPDEST PUSH0 DUP1 REVERT JUMPDEST PUSH0 DUP1 REVERT JUMPDEST PUSH0 DUP1 REVERT JUMPDEST PUSH0 DUP1 REVERT JUMPDEST PUSH0 PUSH1 0x1F NOT PUSH1 0x1F DUP4 ADD AND SWAP1 POP SWAP2 SWAP1 POP JUMP JUMPDEST PUSH32 0x4E487B7100000000000000000000000000000000000000000000000000000000 PUSH0 MSTORE PUSH1 0x41 PUSH1 0x4 MSTORE PUSH1 0x24 PUSH0 REVERT JUMPDEST PUSH2 0x2CE DUP3 PUSH2 0x288 JUMP JUMPDEST DUP2 ADD DUP2 DUP2 LT PUSH8 0xFFFFFFFFFFFFFFFF DUP3 GT OR ISZERO PUSH2 0x2ED JUMPI PUSH2 0x2EC PUSH2 0x298 JUMP JUMPDEST JUMPDEST DUP1 PUSH1 0x40 MSTORE POP POP POP JUMP JUMPDEST PUSH0 PUSH2 0x2FF PUSH2 0x26F JUMP JUMPDEST SWAP1 POP PUSH2 0x30B DUP3 DUP3 PUSH2 0x2C5 JUMP JUMPDEST SWAP2 SWAP1 POP JUMP JUMPDEST PUSH0 PUSH8 0xFFFFFFFFFFFFFFFF DUP3 GT ISZERO PUSH2 0x32A JUMPI PUSH2 0x329 PUSH2 0x298 JUMP JUMPDEST JUMPDEST PUSH2 0x333 DUP3 PUSH2 0x288 JUMP JUMPDEST SWAP1 POP PUSH1 0x20 DUP2 ADD SWAP1 POP SWAP2 SWAP1 POP JUMP JUMPDEST DUP3 DUP2 DUP4 CALLDATACOPY PUSH0 DUP4 DUP4 ADD MSTORE POP POP POP JUMP JUMPDEST PUSH0 PUSH2 0x360 PUSH2 0x35B DUP5 PUSH2 0x310 JUMP JUMPDEST PUSH2 0x2F6 JUMP JUMPDEST SWAP1 POP DUP3 DUP2 MSTORE PUSH1 0x20 DUP2 ADD DUP5 DUP5 DUP5 ADD GT ISZERO PUSH2 0x37C JUMPI PUSH2 0x37B PUSH2 0x284 JUMP JUMPDEST JUMPDEST PUSH2 0x387 DUP5 DUP3 DUP6 PUSH2 0x340 JUMP JUMPDEST POP SWAP4 SWAP3 POP POP POP JUMP JUMPDEST PUSH0 DUP3 PUSH1 0x1F DUP4 ADD SLT PUSH2 0x3A3 JUMPI PUSH2 0x3A2 PUSH2 0x280 JUMP JUMPDEST JUMPDEST DUP2 CALLDATALOAD PUSH2 0x3B3 DUP5 DUP3 PUSH1 0x20 DUP7 ADD PUSH2 0x34E JUMP JUMPDEST SWAP2 POP POP SWAP3 SWAP2 POP POP JUMP JUMPDEST PUSH0 PUSH1 0x20 DUP3 DUP5 SUB SLT ISZERO PUSH2 0x3D1 JUMPI PUSH2 0x3D0 PUSH2 0x278 JUMP JUMPDEST JUMPDEST PUSH0 DUP3 ADD CALLDATALOAD PUSH8 0xFFFFFFFFFFFFFFFF DUP2 GT ISZERO PUSH2 0x3EE JUMPI PUSH2 0x3ED PUSH2 0x27C JUMP JUMPDEST JUMPDEST PUSH2 0x3FA DUP5 DUP3 DUP6 ADD PUSH2 0x38F JUMP JUMPDEST SWAP2 POP POP SWAP3 SWAP2 POP POP JUMP JUMPDEST PUSH0 DUP2 SWAP1 POP SWAP2 SWAP1 POP JUMP JUMPDEST PUSH2 0x415 DUP2 PUSH2 0x403 JUMP JUMPDEST DUP3 MSTORE POP POP JUMP JUMPDEST PUSH0 DUP2 MLOAD SWAP1 POP SWAP2 SWAP1 POP JUMP JUMPDEST PUSH0 DUP3 DUP3 MSTORE PUSH1 0x20 DUP3 ADD SWAP1 POP SWAP3 SWAP2 POP POP JUMP JUMPDEST PUSH0 DUP2 SWAP1 POP PUSH1 0x20 DUP3 ADD SWAP1 POP SWAP2 SWAP1 POP JUMP JUMPDEST PUSH0 DUP2 MLOAD SWAP1 POP SWAP2 SWAP1 POP JUMP JUMPDEST PUSH0 DUP3 DUP3 MSTORE PUSH1 0x20 DUP3 ADD SWAP1 POP SWAP3 SWAP2 POP POP JUMP JUMPDEST DUP3 DUP2 DUP4 MCOPY PUSH0 DUP4 DUP4 ADD MSTORE POP POP POP JUMP JUMPDEST PUSH0 PUSH2 0x476 DUP3 PUSH2 0x444 JUMP JUMPDEST PUSH2 0x480 DUP2 DUP6 PUSH2 0x44E JUMP JUMPDEST SWAP4 POP PUSH2 0x490 DUP2 DUP6 PUSH1 0x20 DUP7 ADD PUSH2 0x45E JUMP JUMPDEST PUSH2 0x499 DUP2 PUSH2 0x288 JUMP JUMPDEST DUP5 ADD SWAP2 POP POP SWAP3 SWAP2 POP POP JUMP JUMPDEST PUSH0 PUSH2 0x4AF DUP4 DUP4 PUSH2 0x46C JUMP JUMPDEST SWAP1 POP SWAP3 SWAP2 POP POP JUMP JUMPDEST PUSH0 PUSH1 0x20 DUP3 ADD SWAP1 POP SWAP2 SWAP1 POP JUMP JUMPDEST PUSH0 PUSH2 0x4CD DUP3 PUSH2 0x41B JUMP JUMPDEST PUSH2 0x4D7 DUP2 DUP6 PUSH2 0x425 JUMP JUMPDEST SWAP4 POP DUP4 PUSH1 0x20 DUP3 MUL DUP6 ADD PUSH2 0x4E9 DUP6 PUSH2 0x435 JUMP JUMPDEST DUP1 PUSH0 JUMPDEST DUP6 DUP2 LT ISZERO PUSH2 0x524 JUMPI DUP5 DUP5 SUB DUP10 MSTORE DUP2 MLOAD PUSH2 0x505 DUP6 DUP3 PUSH2 0x4A4 JUMP JUMPDEST SWAP5 POP PUSH2 0x510 DUP4 PUSH2 0x4B7 JUMP JUMPDEST SWAP3 POP PUSH1 0x20 DUP11 ADD SWAP10 POP POP PUSH1 0x1 DUP2 ADD SWAP1 POP PUSH2 0x4EC JUMP JUMPDEST POP DUP3 SWAP8 POP DUP8 SWAP6 POP POP POP POP POP POP SWAP3 SWAP2 POP POP JUMP JUMPDEST PUSH0 PUSH1 0x40 DUP3 ADD SWAP1 POP PUSH2 0x549 PUSH0 DUP4 ADD DUP6 PUSH2 0x40C JUMP JUMPDEST DUP2 DUP2 SUB PUSH1 0x20 DUP4 ADD MSTORE PUSH2 0x55B DUP2 DUP5 PUSH2 0x4C3 JUMP JUMPDEST SWAP1 POP SWAP4 SWAP3 POP POP POP JUMP JUMPDEST PUSH2 0x56D DUP2 PUSH2 0x403 JUMP JUMPDEST DUP2 EQ PUSH2 0x577 JUMPI PUSH0 DUP1 REVERT JUMPDEST POP JUMP JUMPDEST PUSH0 DUP2 CALLDATALOAD SWAP1 POP PUSH2 0x588 DUP2 PUSH2 0x564 JUMP JUMPDEST SWAP3 SWAP2 POP POP JUMP JUMPDEST PUSH0 PUSH1 0x20 DUP3 DUP5 SUB SLT ISZERO PUSH2 0x5A3 JUMPI PUSH2 0x5A2 PUSH2 0x278 JUMP JUMPDEST JUMPDEST PUSH0 PUSH2 0x5B0 DUP5 DUP3 DUP6 ADD PUSH2 0x57A JUMP JUMPDEST SWAP2 POP POP SWAP3 SWAP2 POP POP JUMP JUMPDEST PUSH0 DUP2 MLOAD SWAP1 POP SWAP2 SWAP1 POP JUMP JUMPDEST PUSH0 DUP3 DUP3 MSTORE PUSH1 0x20 DUP3 ADD SWAP1 POP SWAP3 SWAP2 POP POP JUMP JUMPDEST PUSH0 DUP2 SWAP1 POP PUSH1 0x20 DUP3 ADD SWAP1 POP SWAP2 SWAP1 POP JUMP JUMPDEST PUSH2 0x5EB DUP2 PUSH2 0x403 JUMP JUMPDEST DUP3 MSTORE POP POP JUMP JUMPDEST PUSH0 PUSH2 0x5FC DUP4 DUP4 PUSH2 0x5E2 JUMP JUMPDEST PUSH1 0x20 DUP4 ADD SWAP1 POP SWAP3 SWAP2 POP POP JUMP JUMPDEST PUSH0 PUSH1 0x20 DUP3 ADD SWAP1 POP SWAP2 SWAP1 POP JUMP JUMPDEST PUSH0 PUSH2 0x61E DUP3 PUSH2 0x5B9 JUMP JUMPDEST PUSH2 0x628 DUP2 DUP6 PUSH2 0x5C3 JUMP JUMPDEST SWAP4 POP PUSH2 0x633 DUP4 PUSH2 0x5D3 JUMP JUMPDEST DUP1 PUSH0 JUMPDEST DUP4 DUP2 LT ISZERO PUSH2 0x663 JUMPI DUP2 MLOAD PUSH2 0x64A DUP9 DUP3 PUSH2 0x5F1 JUMP JUMPDEST SWAP8 POP PUSH2 0x655 DUP4 PUSH2 0x608 JUMP JUMPDEST SWAP3 POP POP PUSH1 0x1 DUP2 ADD SWAP1 POP PUSH2 0x636 JUMP JUMPDEST POP DUP6 SWAP4 POP POP POP POP SWAP3 SWAP2 POP POP JUMP JUMPDEST PUSH0 PUSH1 0x40 DUP3 ADD SWAP1 POP PUSH2 0x683 PUSH0 DUP4 ADD DUP6 PUSH2 0x40C JUMP JUMPDEST DUP2 DUP2 SUB PUSH1 0x20 DUP4 ADD MSTORE PUSH2 0x695 DUP2 DUP5 PUSH2 0x614 JUMP JUMPDEST SWAP1 POP SWAP4 SWAP3 POP POP POP JUMP JUMPDEST PUSH32 0x4E487B7100000000000000000000000000000000000000000000000000000000 PUSH0 MSTORE PUSH1 0x32 PUSH1 0x4 MSTORE PUSH1 0x24 PUSH0 REVERT JUMPDEST PUSH0 PUSH32 0xFF00000000000000000000000000000000000000000000000000000000000000 DUP3 AND SWAP1 POP SWAP2 SWAP1 POP JUMP JUMPDEST PUSH0 DUP2 SWAP1 POP SWAP2 SWAP1 POP JUMP JUMPDEST PUSH2 0x710 PUSH2 0x70B DUP3 PUSH2 0x6CB JUMP JUMPDEST PUSH2 0x6F6 JUMP JUMPDEST DUP3 MSTORE POP POP JUMP JUMPDEST PUSH0 PUSH2 0x721 DUP3 DUP5 PUSH2 0x6FF JUMP JUMPDEST PUSH1 0x1 DUP3 ADD SWAP2 POP DUP2 SWAP1 POP SWAP3 SWAP2 POP POP JUMP JUMPDEST PUSH32 0x4E487B7100000000000000000000000000000000000000000000000000000000 PUSH0 MSTORE PUSH1 0x11 PUSH1 0x4 MSTORE PUSH1 0x24 PUSH0 REVERT JUMPDEST PUSH0 PUSH2 0x767 DUP3 PUSH2 0x403 JUMP JUMPDEST SWAP2 POP PUSH32 0xFFFFFFFFFFFFFFFFFFFFFFFFFFFFFFFFFFFFFFFFFFFFFFFFFFFFFFFFFFFFFFFF DUP3 SUB PUSH2 0x799 JUMPI PUSH2 0x798 PUSH2 0x730 JUMP JUMPDEST JUMPDEST PUSH1 0x1 DUP3 ADD SWAP1 POP SWAP2 SWAP1 POP JUMP JUMPDEST PUSH32 0x4E487B7100000000000000000000000000000000000000000000000000000000 PUSH0 MSTORE PUSH1 0x12 PUSH1 0x4 MSTORE PUSH1 0x24 PUSH0 REVERT JUMPDEST PUSH0 PUSH2 0x7DB DUP3 PUSH2 0x403 JUMP JUMPDEST SWAP2 POP PUSH2 0x7E6 DUP4 PUSH2 0x403 JUMP JUMPDEST SWAP3 POP DUP3 PUSH2 0x7F6 JUMPI PUSH2 0x7F5 PUSH2 0x7A4 JUMP JUMPDEST JUMPDEST DUP3 DUP3 DIV SWAP1 POP SWAP3 SWAP2 POP POP JUMP JUMPDEST PUSH0 PUSH2 0x80B DUP3 PUSH2 0x403 JUMP JUMPDEST SWAP2 POP PUSH2 0x816 DUP4 PUSH2 0x403 JUMP JUMPDEST SWAP3 POP DUP3 PUSH2 0x826 JUMPI PUSH2 0x825 PUSH2 0x7A4 JUMP JUMPDEST JUMPDEST DUP3 DUP3 MOD SWAP1 POP SWAP3 SWAP2 POP POP JUMP JUMPDEST PUSH0 PUSH2 0x83B DUP3 PUSH2 0x403 JUMP JUMPDEST SWAP2 POP PUSH2 0x846 DUP4 PUSH2 0x403 JUMP JUMPDEST SWAP3 POP DUP3 DUP3 SUB SWAP1 POP DUP2 DUP2 GT ISZERO PUSH2 0x85E JUMPI PUSH2 0x85D PUSH2 0x730 JUMP JUMPDEST JUMPDEST SWAP3 SWAP2 POP POP JUMP JUMPDEST PUSH0 PUSH2 0x86E DUP3 PUSH2 0x403 JUMP JUMPDEST SWAP2 POP PUSH0 DUP3 SUB PUSH2 0x880 JUMPI PUSH2 0x87F PUSH2 0x730 JUMP JUMPDEST JUMPDEST PUSH1 0x1 DUP3 SUB SWAP1 POP SWAP2 SWAP1 POP JUMP INVALID LOG2 PUSH5 0x6970667358 0x22 SLT KECCAK256 0x2F SWAP11 0xB8 0xC2 REVERT 0x27 0xC1 SELFDESTRUCT 0xA9 ISZERO 0xE2 SWAP7 SELFDESTRUCT SWAP12 0xC0 0xBD 0x21 PUSH32 0x937E1611B6B6B7BCE234B80FCB2E64736F6C634300081A003300000000000000 "
				},
				"gasEstimates": {
					"creation": {
						"codeDepositCost": "448200",
						"executionCost": "484",
						"totalCost": "448684"
					},
					"external": {
						"splitNumber(uint256)": "infinite",
						"splitString(string)": "infinite"
					}
				},
				"methodIdentifiers": {
					"splitNumber(uint256)": "1a5d193d",
					"splitString(string)": "080cea7a"
				}
			},
			"storageLayout": {
				"storage": [],
				"types": null
			},
			"userdoc": {
				"kind": "user",
				"methods": {},
				"version": 1
			}
		}
	}
}