{
	"cordingtest/cordingtest12.sol": {
		"ParkingSystem": {
			"abi": [
				{
					"inputs": [
						{
							"internalType": "string",
							"name": "_plateNumber",
							"type": "string"
						}
					],
					"name": "enterParking",
					"outputs": [],
					"stateMutability": "nonpayable",
					"type": "function"
				},
				{
					"inputs": [
						{
							"internalType": "string",
							"name": "_plateNumber",
							"type": "string"
						}
					],
					"name": "exitParking",
					"outputs": [],
					"stateMutability": "nonpayable",
					"type": "function"
				},
				{
					"inputs": [
						{
							"internalType": "string",
							"name": "_plateNumber",
							"type": "string"
						}
					],
					"name": "getParkingFee",
					"outputs": [
						{
							"internalType": "uint256",
							"name": "",
							"type": "uint256"
						}
					],
					"stateMutability": "view",
					"type": "function"
				}
			],
			"devdoc": {
				"kind": "dev",
				"methods": {},
				"version": 1
			},
			"evm": {
				"assembly": "    /* \"cordingtest/cordingtest12.sol\":567:2771  contract ParkingSystem {... */\n  mstore(0x40, 0x80)\n  callvalue\n  dup1\n  iszero\n  tag_1\n  jumpi\n  0x00\n  dup1\n  revert\ntag_1:\n  pop\n  dataSize(sub_0)\n  dup1\n  dataOffset(sub_0)\n  0x00\n  codecopy\n  0x00\n  return\nstop\n\nsub_0: assembly {\n        /* \"cordingtest/cordingtest12.sol\":567:2771  contract ParkingSystem {... */\n      mstore(0x40, 0x80)\n      callvalue\n      dup1\n      iszero\n      tag_1\n      jumpi\n      0x00\n      dup1\n      revert\n    tag_1:\n      pop\n      jumpi(tag_2, lt(calldatasize, 0x04))\n      shr(0xe0, calldataload(0x00))\n      dup1\n      0x2abbc36a\n      eq\n      tag_3\n      jumpi\n      dup1\n      0xb4facdab\n      eq\n      tag_4\n      jumpi\n      dup1\n      0xc0666f3e\n      eq\n      tag_5\n      jumpi\n    tag_2:\n      0x00\n      dup1\n      revert\n        /* \"cordingtest/cordingtest12.sol\":1089:1464  function exitParking(string memory _plateNumber) external {... */\n    tag_3:\n      tag_6\n      0x04\n      dup1\n      calldatasize\n      sub\n      dup2\n      add\n      swap1\n      tag_7\n      swap2\n      swap1\n      tag_8\n      jump\t// in\n    tag_7:\n      tag_9\n      jump\t// in\n    tag_6:\n      stop\n        /* \"cordingtest/cordingtest12.sol\":874:1083  function enterParking(string memory _plateNumber) external {... */\n    tag_4:\n      tag_10\n      0x04\n      dup1\n      calldatasize\n      sub\n      dup2\n      add\n      swap1\n      tag_11\n      swap2\n      swap1\n      tag_8\n      jump\t// in\n    tag_11:\n      tag_12\n      jump\t// in\n    tag_10:\n      stop\n        /* \"cordingtest/cordingtest12.sol\":2640:2769  function getParkingFee(string memory _plateNumber) external view returns (uint) {... */\n    tag_5:\n      tag_13\n      0x04\n      dup1\n      calldatasize\n      sub\n      dup2\n      add\n      swap1\n      tag_14\n      swap2\n      swap1\n      tag_8\n      jump\t// in\n    tag_14:\n      tag_15\n      jump\t// in\n    tag_13:\n      mload(0x40)\n      tag_16\n      swap2\n      swap1\n      tag_17\n      jump\t// in\n    tag_16:\n      mload(0x40)\n      dup1\n      swap2\n      sub\n      swap1\n      return\n        /* \"cordingtest/cordingtest12.sol\":1089:1464  function exitParking(string memory _plateNumber) external {... */\n    tag_9:\n        /* \"cordingtest/cordingtest12.sol\":1165:1173  vehicles */\n      0x00\n        /* \"cordingtest/cordingtest12.sol\":1174:1186  _plateNumber */\n      dup2\n        /* \"cordingtest/cordingtest12.sol\":1165:1187  vehicles[_plateNumber] */\n      mload(0x40)\n      tag_19\n      swap2\n      swap1\n      tag_20\n      jump\t// in\n    tag_19:\n      swap1\n      dup2\n      mstore\n      0x20\n      add\n      mload(0x40)\n      dup1\n      swap2\n      sub\n      swap1\n      keccak256\n        /* \"cordingtest/cordingtest12.sol\":1165:1196  vehicles[_plateNumber].isParked */\n      0x01\n      add\n      0x00\n      swap1\n      sload\n      swap1\n      0x0100\n      exp\n      swap1\n      div\n      0xff\n      and\n        /* \"cordingtest/cordingtest12.sol\":1157:1220  require(vehicles[_plateNumber].isParked, \"Vehicle not parked.\") */\n      tag_21\n      jumpi\n      mload(0x40)\n      0x08c379a000000000000000000000000000000000000000000000000000000000\n      dup2\n      mstore\n      0x04\n      add\n      tag_22\n      swap1\n      tag_23\n      jump\t// in\n    tag_22:\n      mload(0x40)\n      dup1\n      swap2\n      sub\n      swap1\n      revert\n    tag_21:\n        /* \"cordingtest/cordingtest12.sol\":1231:1246  uint parkedTime */\n      0x00\n        /* \"cordingtest/cordingtest12.sol\":1267:1275  vehicles */\n      dup1\n        /* \"cordingtest/cordingtest12.sol\":1276:1288  _plateNumber */\n      dup3\n        /* \"cordingtest/cordingtest12.sol\":1267:1289  vehicles[_plateNumber] */\n      mload(0x40)\n      tag_24\n      swap2\n      swap1\n      tag_20\n      jump\t// in\n    tag_24:\n      swap1\n      dup2\n      mstore\n      0x20\n      add\n      mload(0x40)\n      dup1\n      swap2\n      sub\n      swap1\n      keccak256\n        /* \"cordingtest/cordingtest12.sol\":1267:1299  vehicles[_plateNumber].entryTime */\n      0x00\n      add\n      sload\n        /* \"cordingtest/cordingtest12.sol\":1249:1264  block.timestamp */\n      timestamp\n        /* \"cordingtest/cordingtest12.sol\":1249:1299  block.timestamp - vehicles[_plateNumber].entryTime */\n      tag_25\n      swap2\n      swap1\n      tag_26\n      jump\t// in\n    tag_25:\n        /* \"cordingtest/cordingtest12.sol\":1231:1299  uint parkedTime = block.timestamp - vehicles[_plateNumber].entryTime */\n      swap1\n      pop\n        /* \"cordingtest/cordingtest12.sol\":1309:1317  uint fee */\n      0x00\n        /* \"cordingtest/cordingtest12.sol\":1320:1365  calculateParkingFee(parkedTime, _plateNumber) */\n      tag_27\n        /* \"cordingtest/cordingtest12.sol\":1340:1350  parkedTime */\n      dup3\n        /* \"cordingtest/cordingtest12.sol\":1352:1364  _plateNumber */\n      dup5\n        /* \"cordingtest/cordingtest12.sol\":1320:1339  calculateParkingFee */\n      tag_28\n        /* \"cordingtest/cordingtest12.sol\":1320:1365  calculateParkingFee(parkedTime, _plateNumber) */\n      jump\t// in\n    tag_27:\n        /* \"cordingtest/cordingtest12.sol\":1309:1365  uint fee = calculateParkingFee(parkedTime, _plateNumber) */\n      swap1\n      pop\n        /* \"cordingtest/cordingtest12.sol\":1410:1415  false */\n      0x00\n        /* \"cordingtest/cordingtest12.sol\":1376:1384  vehicles */\n      dup1\n        /* \"cordingtest/cordingtest12.sol\":1385:1397  _plateNumber */\n      dup5\n        /* \"cordingtest/cordingtest12.sol\":1376:1398  vehicles[_plateNumber] */\n      mload(0x40)\n      tag_29\n      swap2\n      swap1\n      tag_20\n      jump\t// in\n    tag_29:\n      swap1\n      dup2\n      mstore\n      0x20\n      add\n      mload(0x40)\n      dup1\n      swap2\n      sub\n      swap1\n      keccak256\n        /* \"cordingtest/cordingtest12.sol\":1376:1407  vehicles[_plateNumber].isParked */\n      0x01\n      add\n      0x00\n        /* \"cordingtest/cordingtest12.sol\":1376:1415  vehicles[_plateNumber].isParked = false */\n      0x0100\n      exp\n      dup2\n      sload\n      dup2\n      0xff\n      mul\n      not\n      and\n      swap1\n      dup4\n      iszero\n      iszero\n      mul\n      or\n      swap1\n      sstore\n      pop\n        /* \"cordingtest/cordingtest12.sol\":1454:1457  fee */\n      dup1\n        /* \"cordingtest/cordingtest12.sol\":1425:1436  parkingFees */\n      0x01\n        /* \"cordingtest/cordingtest12.sol\":1437:1449  _plateNumber */\n      dup5\n        /* \"cordingtest/cordingtest12.sol\":1425:1450  parkingFees[_plateNumber] */\n      mload(0x40)\n      tag_30\n      swap2\n      swap1\n      tag_20\n      jump\t// in\n    tag_30:\n      swap1\n      dup2\n      mstore\n      0x20\n      add\n      mload(0x40)\n      dup1\n      swap2\n      sub\n      swap1\n      keccak256\n      0x00\n        /* \"cordingtest/cordingtest12.sol\":1425:1457  parkingFees[_plateNumber] += fee */\n      dup3\n      dup3\n      sload\n      tag_31\n      swap2\n      swap1\n      tag_32\n      jump\t// in\n    tag_31:\n      swap3\n      pop\n      pop\n      dup2\n      swap1\n      sstore\n      pop\n        /* \"cordingtest/cordingtest12.sol\":1147:1464  {... */\n      pop\n      pop\n        /* \"cordingtest/cordingtest12.sol\":1089:1464  function exitParking(string memory _plateNumber) external {... */\n      pop\n      jump\t// out\n        /* \"cordingtest/cordingtest12.sol\":874:1083  function enterParking(string memory _plateNumber) external {... */\n    tag_12:\n        /* \"cordingtest/cordingtest12.sol\":952:960  vehicles */\n      0x00\n        /* \"cordingtest/cordingtest12.sol\":961:973  _plateNumber */\n      dup2\n        /* \"cordingtest/cordingtest12.sol\":952:974  vehicles[_plateNumber] */\n      mload(0x40)\n      tag_34\n      swap2\n      swap1\n      tag_20\n      jump\t// in\n    tag_34:\n      swap1\n      dup2\n      mstore\n      0x20\n      add\n      mload(0x40)\n      dup1\n      swap2\n      sub\n      swap1\n      keccak256\n        /* \"cordingtest/cordingtest12.sol\":952:983  vehicles[_plateNumber].isParked */\n      0x01\n      add\n      0x00\n      swap1\n      sload\n      swap1\n      0x0100\n      exp\n      swap1\n      div\n      0xff\n      and\n        /* \"cordingtest/cordingtest12.sol\":951:983  !vehicles[_plateNumber].isParked */\n      iszero\n        /* \"cordingtest/cordingtest12.sol\":943:1011  require(!vehicles[_plateNumber].isParked, \"Vehicle already parked.\") */\n      tag_35\n      jumpi\n      mload(0x40)\n      0x08c379a000000000000000000000000000000000000000000000000000000000\n      dup2\n      mstore\n      0x04\n      add\n      tag_36\n      swap1\n      tag_37\n      jump\t// in\n    tag_36:\n      mload(0x40)\n      dup1\n      swap2\n      sub\n      swap1\n      revert\n    tag_35:\n        /* \"cordingtest/cordingtest12.sol\":1046:1076  Vehicle(block.timestamp, true) */\n      mload(0x40)\n      dup1\n      0x40\n      add\n      0x40\n      mstore\n      dup1\n        /* \"cordingtest/cordingtest12.sol\":1054:1069  block.timestamp */\n      timestamp\n        /* \"cordingtest/cordingtest12.sol\":1046:1076  Vehicle(block.timestamp, true) */\n      dup2\n      mstore\n      0x20\n      add\n        /* \"cordingtest/cordingtest12.sol\":1071:1075  true */\n      0x01\n        /* \"cordingtest/cordingtest12.sol\":1046:1076  Vehicle(block.timestamp, true) */\n      iszero\n      iszero\n      dup2\n      mstore\n      pop\n        /* \"cordingtest/cordingtest12.sol\":1021:1029  vehicles */\n      0x00\n        /* \"cordingtest/cordingtest12.sol\":1030:1042  _plateNumber */\n      dup3\n        /* \"cordingtest/cordingtest12.sol\":1021:1043  vehicles[_plateNumber] */\n      mload(0x40)\n      tag_38\n      swap2\n      swap1\n      tag_20\n      jump\t// in\n    tag_38:\n      swap1\n      dup2\n      mstore\n      0x20\n      add\n      mload(0x40)\n      dup1\n      swap2\n      sub\n      swap1\n      keccak256\n        /* \"cordingtest/cordingtest12.sol\":1021:1076  vehicles[_plateNumber] = Vehicle(block.timestamp, true) */\n      0x00\n      dup3\n      add\n      mload\n      dup2\n      0x00\n      add\n      sstore\n      0x20\n      dup3\n      add\n      mload\n      dup2\n      0x01\n      add\n      exp(0x0100, 0x00)\n      dup2\n      sload\n      dup2\n      0xff\n      mul\n      not\n      and\n      swap1\n      dup4\n      iszero\n      iszero\n      mul\n      or\n      swap1\n      sstore\n      pop\n      swap1\n      pop\n      pop\n        /* \"cordingtest/cordingtest12.sol\":874:1083  function enterParking(string memory _plateNumber) external {... */\n      pop\n      jump\t// out\n        /* \"cordingtest/cordingtest12.sol\":2640:2769  function getParkingFee(string memory _plateNumber) external view returns (uint) {... */\n    tag_15:\n        /* \"cordingtest/cordingtest12.sol\":2714:2718  uint */\n      0x00\n        /* \"cordingtest/cordingtest12.sol\":2737:2748  parkingFees */\n      0x01\n        /* \"cordingtest/cordingtest12.sol\":2749:2761  _plateNumber */\n      dup3\n        /* \"cordingtest/cordingtest12.sol\":2737:2762  parkingFees[_plateNumber] */\n      mload(0x40)\n      tag_40\n      swap2\n      swap1\n      tag_20\n      jump\t// in\n    tag_40:\n      swap1\n      dup2\n      mstore\n      0x20\n      add\n      mload(0x40)\n      dup1\n      swap2\n      sub\n      swap1\n      keccak256\n      sload\n        /* \"cordingtest/cordingtest12.sol\":2730:2762  return parkingFees[_plateNumber] */\n      swap1\n      pop\n        /* \"cordingtest/cordingtest12.sol\":2640:2769  function getParkingFee(string memory _plateNumber) external view returns (uint) {... */\n      swap2\n      swap1\n      pop\n      jump\t// out\n        /* \"cordingtest/cordingtest12.sol\":1470:2033  function calculateParkingFee(uint _parkedTime, string memory _plateNumber) internal pure returns (uint) {... */\n    tag_28:\n        /* \"cordingtest/cordingtest12.sol\":1568:1572  uint */\n      0x00\n        /* \"cordingtest/cordingtest12.sol\":808:815  2 hours */\n      0x1c20\n        /* \"cordingtest/cordingtest12.sol\":1588:1599  _parkedTime */\n      dup4\n        /* \"cordingtest/cordingtest12.sol\":1588:1624  _parkedTime <= FREE_PARKING_DURATION */\n      gt\n        /* \"cordingtest/cordingtest12.sol\":1584:1659  if (_parkedTime <= FREE_PARKING_DURATION) {... */\n      tag_42\n      jumpi\n        /* \"cordingtest/cordingtest12.sol\":1647:1648  0 */\n      0x00\n        /* \"cordingtest/cordingtest12.sol\":1640:1648  return 0 */\n      swap1\n      pop\n      jump(tag_41)\n        /* \"cordingtest/cordingtest12.sol\":1584:1659  if (_parkedTime <= FREE_PARKING_DURATION) {... */\n    tag_42:\n        /* \"cordingtest/cordingtest12.sol\":1669:1691  uint chargeableMinutes */\n      0x00\n        /* \"cordingtest/cordingtest12.sol\":1734:1743  1 minutes */\n      0x3c\n        /* \"cordingtest/cordingtest12.sol\":808:815  2 hours */\n      0x1c20\n        /* \"cordingtest/cordingtest12.sol\":1695:1706  _parkedTime */\n      dup6\n        /* \"cordingtest/cordingtest12.sol\":1695:1730  _parkedTime - FREE_PARKING_DURATION */\n      tag_43\n      swap2\n      swap1\n      tag_26\n      jump\t// in\n    tag_43:\n        /* \"cordingtest/cordingtest12.sol\":1694:1743  (_parkedTime - FREE_PARKING_DURATION) / 1 minutes */\n      tag_44\n      swap2\n      swap1\n      tag_45\n      jump\t// in\n    tag_44:\n        /* \"cordingtest/cordingtest12.sol\":1669:1743  uint chargeableMinutes = (_parkedTime - FREE_PARKING_DURATION) / 1 minutes */\n      swap1\n      pop\n        /* \"cordingtest/cordingtest12.sol\":1753:1761  uint fee */\n      0x00\n        /* \"cordingtest/cordingtest12.sol\":860:867  200 wei */\n      0xc8\n        /* \"cordingtest/cordingtest12.sol\":1764:1781  chargeableMinutes */\n      dup3\n        /* \"cordingtest/cordingtest12.sol\":1764:1806  chargeableMinutes * PARKING_FEE_PER_MINUTE */\n      tag_46\n      swap2\n      swap1\n      tag_47\n      jump\t// in\n    tag_46:\n        /* \"cordingtest/cordingtest12.sol\":1753:1806  uint fee = chargeableMinutes * PARKING_FEE_PER_MINUTE */\n      swap1\n      pop\n        /* \"cordingtest/cordingtest12.sol\":1821:1844  isNumeric(_plateNumber) */\n      tag_48\n        /* \"cordingtest/cordingtest12.sol\":1831:1843  _plateNumber */\n      dup5\n        /* \"cordingtest/cordingtest12.sol\":1821:1830  isNumeric */\n      tag_49\n        /* \"cordingtest/cordingtest12.sol\":1821:1844  isNumeric(_plateNumber) */\n      jump\t// in\n    tag_48:\n        /* \"cordingtest/cordingtest12.sol\":1817:2006  if (isNumeric(_plateNumber)) {... */\n      iszero\n      tag_50\n      jumpi\n        /* \"cordingtest/cordingtest12.sol\":1879:1882  100 */\n      0x64\n        /* \"cordingtest/cordingtest12.sol\":1873:1875  80 */\n      0x50\n        /* \"cordingtest/cordingtest12.sol\":1867:1870  fee */\n      dup3\n        /* \"cordingtest/cordingtest12.sol\":1867:1875  fee * 80 */\n      tag_51\n      swap2\n      swap1\n      tag_47\n      jump\t// in\n    tag_51:\n        /* \"cordingtest/cordingtest12.sol\":1866:1882  (fee * 80) / 100 */\n      tag_52\n      swap2\n      swap1\n      tag_45\n      jump\t// in\n    tag_52:\n        /* \"cordingtest/cordingtest12.sol\":1860:1882  fee = (fee * 80) / 100 */\n      swap1\n      pop\n        /* \"cordingtest/cordingtest12.sol\":1817:2006  if (isNumeric(_plateNumber)) {... */\n      jump(tag_53)\n    tag_50:\n        /* \"cordingtest/cordingtest12.sol\":1917:1943  isAlphabetic(_plateNumber) */\n      tag_54\n        /* \"cordingtest/cordingtest12.sol\":1930:1942  _plateNumber */\n      dup5\n        /* \"cordingtest/cordingtest12.sol\":1917:1929  isAlphabetic */\n      tag_55\n        /* \"cordingtest/cordingtest12.sol\":1917:1943  isAlphabetic(_plateNumber) */\n      jump\t// in\n    tag_54:\n        /* \"cordingtest/cordingtest12.sol\":1913:2006  if (isAlphabetic(_plateNumber)) {... */\n      iszero\n      tag_56\n      jumpi\n        /* \"cordingtest/cordingtest12.sol\":1978:1981  100 */\n      0x64\n        /* \"cordingtest/cordingtest12.sol\":1972:1974  50 */\n      0x32\n        /* \"cordingtest/cordingtest12.sol\":1966:1969  fee */\n      dup3\n        /* \"cordingtest/cordingtest12.sol\":1966:1974  fee * 50 */\n      tag_57\n      swap2\n      swap1\n      tag_47\n      jump\t// in\n    tag_57:\n        /* \"cordingtest/cordingtest12.sol\":1965:1981  (fee * 50) / 100 */\n      tag_58\n      swap2\n      swap1\n      tag_45\n      jump\t// in\n    tag_58:\n        /* \"cordingtest/cordingtest12.sol\":1959:1981  fee = (fee * 50) / 100 */\n      swap1\n      pop\n        /* \"cordingtest/cordingtest12.sol\":1913:2006  if (isAlphabetic(_plateNumber)) {... */\n    tag_56:\n        /* \"cordingtest/cordingtest12.sol\":1817:2006  if (isNumeric(_plateNumber)) {... */\n    tag_53:\n        /* \"cordingtest/cordingtest12.sol\":2023:2026  fee */\n      dup1\n        /* \"cordingtest/cordingtest12.sol\":2016:2026  return fee */\n      swap3\n      pop\n      pop\n      pop\n        /* \"cordingtest/cordingtest12.sol\":1470:2033  function calculateParkingFee(uint _parkedTime, string memory _plateNumber) internal pure returns (uint) {... */\n    tag_41:\n      swap3\n      swap2\n      pop\n      pop\n      jump\t// out\n        /* \"cordingtest/cordingtest12.sol\":2039:2315  function isNumeric(string memory _str) internal pure returns (bool) {... */\n    tag_49:\n        /* \"cordingtest/cordingtest12.sol\":2101:2105  bool */\n      0x00\n        /* \"cordingtest/cordingtest12.sol\":2117:2131  bytes memory b */\n      dup1\n        /* \"cordingtest/cordingtest12.sol\":2140:2144  _str */\n      dup3\n        /* \"cordingtest/cordingtest12.sol\":2117:2145  bytes memory b = bytes(_str) */\n      swap1\n      pop\n        /* \"cordingtest/cordingtest12.sol\":2160:2166  uint i */\n      0x00\n        /* \"cordingtest/cordingtest12.sol\":2155:2288  for (uint i; i < b.length; i++) {... */\n    tag_60:\n        /* \"cordingtest/cordingtest12.sol\":2172:2173  b */\n      dup2\n        /* \"cordingtest/cordingtest12.sol\":2172:2180  b.length */\n      mload\n        /* \"cordingtest/cordingtest12.sol\":2168:2169  i */\n      dup2\n        /* \"cordingtest/cordingtest12.sol\":2168:2180  i < b.length */\n      lt\n        /* \"cordingtest/cordingtest12.sol\":2155:2288  for (uint i; i < b.length; i++) {... */\n      iszero\n      tag_61\n      jumpi\n        /* \"cordingtest/cordingtest12.sol\":2212:2216  0x30 */\n      0x30\n        /* \"cordingtest/cordingtest12.sol\":2205:2216  b[i] < 0x30 */\n      0xf8\n      shl\n        /* \"cordingtest/cordingtest12.sol\":2205:2206  b */\n      dup3\n        /* \"cordingtest/cordingtest12.sol\":2207:2208  i */\n      dup3\n        /* \"cordingtest/cordingtest12.sol\":2205:2209  b[i] */\n      dup2\n      mload\n      dup2\n      lt\n      tag_63\n      jumpi\n      tag_64\n      tag_65\n      jump\t// in\n    tag_64:\n    tag_63:\n      0x20\n      add\n      add\n      mload\n      0xf8\n      shr\n      0xf8\n      shl\n        /* \"cordingtest/cordingtest12.sol\":2205:2216  b[i] < 0x30 */\n      not(0xffffffffffffffffffffffffffffffffffffffffffffffffffffffffffffff)\n      and\n      lt\n        /* \"cordingtest/cordingtest12.sol\":2205:2231  b[i] < 0x30 || b[i] > 0x39 */\n      dup1\n      tag_66\n      jumpi\n      pop\n        /* \"cordingtest/cordingtest12.sol\":2227:2231  0x39 */\n      0x39\n        /* \"cordingtest/cordingtest12.sol\":2220:2231  b[i] > 0x39 */\n      0xf8\n      shl\n        /* \"cordingtest/cordingtest12.sol\":2220:2221  b */\n      dup3\n        /* \"cordingtest/cordingtest12.sol\":2222:2223  i */\n      dup3\n        /* \"cordingtest/cordingtest12.sol\":2220:2224  b[i] */\n      dup2\n      mload\n      dup2\n      lt\n      tag_67\n      jumpi\n      tag_68\n      tag_65\n      jump\t// in\n    tag_68:\n    tag_67:\n      0x20\n      add\n      add\n      mload\n      0xf8\n      shr\n      0xf8\n      shl\n        /* \"cordingtest/cordingtest12.sol\":2220:2231  b[i] > 0x39 */\n      not(0xffffffffffffffffffffffffffffffffffffffffffffffffffffffffffffff)\n      and\n      gt\n        /* \"cordingtest/cordingtest12.sol\":2205:2231  b[i] < 0x30 || b[i] > 0x39 */\n    tag_66:\n        /* \"cordingtest/cordingtest12.sol\":2201:2278  if (b[i] < 0x30 || b[i] > 0x39) {... */\n      iszero\n      tag_69\n      jumpi\n        /* \"cordingtest/cordingtest12.sol\":2258:2263  false */\n      0x00\n        /* \"cordingtest/cordingtest12.sol\":2251:2263  return false */\n      swap3\n      pop\n      pop\n      pop\n      jump(tag_59)\n        /* \"cordingtest/cordingtest12.sol\":2201:2278  if (b[i] < 0x30 || b[i] > 0x39) {... */\n    tag_69:\n        /* \"cordingtest/cordingtest12.sol\":2182:2185  i++ */\n      dup1\n      dup1\n      0x01\n      add\n      swap2\n      pop\n      pop\n        /* \"cordingtest/cordingtest12.sol\":2155:2288  for (uint i; i < b.length; i++) {... */\n      jump(tag_60)\n    tag_61:\n      pop\n        /* \"cordingtest/cordingtest12.sol\":2304:2308  true */\n      0x01\n        /* \"cordingtest/cordingtest12.sol\":2297:2308  return true */\n      swap2\n      pop\n      pop\n        /* \"cordingtest/cordingtest12.sol\":2039:2315  function isNumeric(string memory _str) internal pure returns (bool) {... */\n    tag_59:\n      swap2\n      swap1\n      pop\n      jump\t// out\n        /* \"cordingtest/cordingtest12.sol\":2321:2634  function isAlphabetic(string memory _str) internal pure returns (bool) {... */\n    tag_55:\n        /* \"cordingtest/cordingtest12.sol\":2386:2390  bool */\n      0x00\n        /* \"cordingtest/cordingtest12.sol\":2402:2416  bytes memory b */\n      dup1\n        /* \"cordingtest/cordingtest12.sol\":2425:2429  _str */\n      dup3\n        /* \"cordingtest/cordingtest12.sol\":2402:2430  bytes memory b = bytes(_str) */\n      swap1\n      pop\n        /* \"cordingtest/cordingtest12.sol\":2445:2451  uint i */\n      0x00\n        /* \"cordingtest/cordingtest12.sol\":2440:2607  for (uint i; i < b.length; i++) {... */\n    tag_71:\n        /* \"cordingtest/cordingtest12.sol\":2457:2458  b */\n      dup2\n        /* \"cordingtest/cordingtest12.sol\":2457:2465  b.length */\n      mload\n        /* \"cordingtest/cordingtest12.sol\":2453:2454  i */\n      dup2\n        /* \"cordingtest/cordingtest12.sol\":2453:2465  i < b.length */\n      lt\n        /* \"cordingtest/cordingtest12.sol\":2440:2607  for (uint i; i < b.length; i++) {... */\n      iszero\n      tag_72\n      jumpi\n        /* \"cordingtest/cordingtest12.sol\":2498:2502  0x41 */\n      0x41\n        /* \"cordingtest/cordingtest12.sol\":2491:2502  b[i] < 0x41 */\n      0xf8\n      shl\n        /* \"cordingtest/cordingtest12.sol\":2491:2492  b */\n      dup3\n        /* \"cordingtest/cordingtest12.sol\":2493:2494  i */\n      dup3\n        /* \"cordingtest/cordingtest12.sol\":2491:2495  b[i] */\n      dup2\n      mload\n      dup2\n      lt\n      tag_74\n      jumpi\n      tag_75\n      tag_65\n      jump\t// in\n    tag_75:\n    tag_74:\n      0x20\n      add\n      add\n      mload\n      0xf8\n      shr\n      0xf8\n      shl\n        /* \"cordingtest/cordingtest12.sol\":2491:2502  b[i] < 0x41 */\n      not(0xffffffffffffffffffffffffffffffffffffffffffffffffffffffffffffff)\n      and\n      lt\n        /* \"cordingtest/cordingtest12.sol\":2491:2517  b[i] < 0x41 || b[i] > 0x5A */\n      dup1\n      tag_76\n      jumpi\n      pop\n        /* \"cordingtest/cordingtest12.sol\":2513:2517  0x5A */\n      0x5a\n        /* \"cordingtest/cordingtest12.sol\":2506:2517  b[i] > 0x5A */\n      0xf8\n      shl\n        /* \"cordingtest/cordingtest12.sol\":2506:2507  b */\n      dup3\n        /* \"cordingtest/cordingtest12.sol\":2508:2509  i */\n      dup3\n        /* \"cordingtest/cordingtest12.sol\":2506:2510  b[i] */\n      dup2\n      mload\n      dup2\n      lt\n      tag_77\n      jumpi\n      tag_78\n      tag_65\n      jump\t// in\n    tag_78:\n    tag_77:\n      0x20\n      add\n      add\n      mload\n      0xf8\n      shr\n      0xf8\n      shl\n        /* \"cordingtest/cordingtest12.sol\":2506:2517  b[i] > 0x5A */\n      not(0xffffffffffffffffffffffffffffffffffffffffffffffffffffffffffffff)\n      and\n      gt\n        /* \"cordingtest/cordingtest12.sol\":2491:2517  b[i] < 0x41 || b[i] > 0x5A */\n    tag_76:\n        /* \"cordingtest/cordingtest12.sol\":2490:2550  (b[i] < 0x41 || b[i] > 0x5A) && (b[i] < 0x61 || b[i] > 0x7A) */\n      dup1\n      iszero\n      tag_79\n      jumpi\n      pop\n        /* \"cordingtest/cordingtest12.sol\":2530:2534  0x61 */\n      0x61\n        /* \"cordingtest/cordingtest12.sol\":2523:2534  b[i] < 0x61 */\n      0xf8\n      shl\n        /* \"cordingtest/cordingtest12.sol\":2523:2524  b */\n      dup3\n        /* \"cordingtest/cordingtest12.sol\":2525:2526  i */\n      dup3\n        /* \"cordingtest/cordingtest12.sol\":2523:2527  b[i] */\n      dup2\n      mload\n      dup2\n      lt\n      tag_80\n      jumpi\n      tag_81\n      tag_65\n      jump\t// in\n    tag_81:\n    tag_80:\n      0x20\n      add\n      add\n      mload\n      0xf8\n      shr\n      0xf8\n      shl\n        /* \"cordingtest/cordingtest12.sol\":2523:2534  b[i] < 0x61 */\n      not(0xffffffffffffffffffffffffffffffffffffffffffffffffffffffffffffff)\n      and\n      lt\n        /* \"cordingtest/cordingtest12.sol\":2523:2549  b[i] < 0x61 || b[i] > 0x7A */\n      dup1\n      tag_82\n      jumpi\n      pop\n        /* \"cordingtest/cordingtest12.sol\":2545:2549  0x7A */\n      0x7a\n        /* \"cordingtest/cordingtest12.sol\":2538:2549  b[i] > 0x7A */\n      0xf8\n      shl\n        /* \"cordingtest/cordingtest12.sol\":2538:2539  b */\n      dup3\n        /* \"cordingtest/cordingtest12.sol\":2540:2541  i */\n      dup3\n        /* \"cordingtest/cordingtest12.sol\":2538:2542  b[i] */\n      dup2\n      mload\n      dup2\n      lt\n      tag_83\n      jumpi\n      tag_84\n      tag_65\n      jump\t// in\n    tag_84:\n    tag_83:\n      0x20\n      add\n      add\n      mload\n      0xf8\n      shr\n      0xf8\n      shl\n        /* \"cordingtest/cordingtest12.sol\":2538:2549  b[i] > 0x7A */\n      not(0xffffffffffffffffffffffffffffffffffffffffffffffffffffffffffffff)\n      and\n      gt\n        /* \"cordingtest/cordingtest12.sol\":2523:2549  b[i] < 0x61 || b[i] > 0x7A */\n    tag_82:\n        /* \"cordingtest/cordingtest12.sol\":2490:2550  (b[i] < 0x41 || b[i] > 0x5A) && (b[i] < 0x61 || b[i] > 0x7A) */\n    tag_79:\n        /* \"cordingtest/cordingtest12.sol\":2486:2597  if ((b[i] < 0x41 || b[i] > 0x5A) && (b[i] < 0x61 || b[i] > 0x7A)) {... */\n      iszero\n      tag_85\n      jumpi\n        /* \"cordingtest/cordingtest12.sol\":2577:2582  false */\n      0x00\n        /* \"cordingtest/cordingtest12.sol\":2570:2582  return false */\n      swap3\n      pop\n      pop\n      pop\n      jump(tag_70)\n        /* \"cordingtest/cordingtest12.sol\":2486:2597  if ((b[i] < 0x41 || b[i] > 0x5A) && (b[i] < 0x61 || b[i] > 0x7A)) {... */\n    tag_85:\n        /* \"cordingtest/cordingtest12.sol\":2467:2470  i++ */\n      dup1\n      dup1\n      0x01\n      add\n      swap2\n      pop\n      pop\n        /* \"cordingtest/cordingtest12.sol\":2440:2607  for (uint i; i < b.length; i++) {... */\n      jump(tag_71)\n    tag_72:\n      pop\n        /* \"cordingtest/cordingtest12.sol\":2623:2627  true */\n      0x01\n        /* \"cordingtest/cordingtest12.sol\":2616:2627  return true */\n      swap2\n      pop\n      pop\n        /* \"cordingtest/cordingtest12.sol\":2321:2634  function isAlphabetic(string memory _str) internal pure returns (bool) {... */\n    tag_70:\n      swap2\n      swap1\n      pop\n      jump\t// out\n        /* \"#utility.yul\":7:82   */\n    tag_86:\n        /* \"#utility.yul\":40:46   */\n      0x00\n        /* \"#utility.yul\":73:75   */\n      0x40\n        /* \"#utility.yul\":67:76   */\n      mload\n        /* \"#utility.yul\":57:76   */\n      swap1\n      pop\n        /* \"#utility.yul\":7:82   */\n      swap1\n      jump\t// out\n        /* \"#utility.yul\":88:205   */\n    tag_87:\n        /* \"#utility.yul\":197:198   */\n      0x00\n        /* \"#utility.yul\":194:195   */\n      dup1\n        /* \"#utility.yul\":187:199   */\n      revert\n        /* \"#utility.yul\":211:328   */\n    tag_88:\n        /* \"#utility.yul\":320:321   */\n      0x00\n        /* \"#utility.yul\":317:318   */\n      dup1\n        /* \"#utility.yul\":310:322   */\n      revert\n        /* \"#utility.yul\":334:451   */\n    tag_89:\n        /* \"#utility.yul\":443:444   */\n      0x00\n        /* \"#utility.yul\":440:441   */\n      dup1\n        /* \"#utility.yul\":433:445   */\n      revert\n        /* \"#utility.yul\":457:574   */\n    tag_90:\n        /* \"#utility.yul\":566:567   */\n      0x00\n        /* \"#utility.yul\":563:564   */\n      dup1\n        /* \"#utility.yul\":556:568   */\n      revert\n        /* \"#utility.yul\":580:682   */\n    tag_91:\n        /* \"#utility.yul\":621:627   */\n      0x00\n        /* \"#utility.yul\":672:674   */\n      0x1f\n        /* \"#utility.yul\":668:675   */\n      not\n        /* \"#utility.yul\":663:665   */\n      0x1f\n        /* \"#utility.yul\":656:661   */\n      dup4\n        /* \"#utility.yul\":652:666   */\n      add\n        /* \"#utility.yul\":648:676   */\n      and\n        /* \"#utility.yul\":638:676   */\n      swap1\n      pop\n        /* \"#utility.yul\":580:682   */\n      swap2\n      swap1\n      pop\n      jump\t// out\n        /* \"#utility.yul\":688:868   */\n    tag_92:\n        /* \"#utility.yul\":736:813   */\n      0x4e487b7100000000000000000000000000000000000000000000000000000000\n        /* \"#utility.yul\":733:734   */\n      0x00\n        /* \"#utility.yul\":726:814   */\n      mstore\n        /* \"#utility.yul\":833:837   */\n      0x41\n        /* \"#utility.yul\":830:831   */\n      0x04\n        /* \"#utility.yul\":823:838   */\n      mstore\n        /* \"#utility.yul\":857:861   */\n      0x24\n        /* \"#utility.yul\":854:855   */\n      0x00\n        /* \"#utility.yul\":847:862   */\n      revert\n        /* \"#utility.yul\":874:1155   */\n    tag_93:\n        /* \"#utility.yul\":957:984   */\n      tag_121\n        /* \"#utility.yul\":979:983   */\n      dup3\n        /* \"#utility.yul\":957:984   */\n      tag_91\n      jump\t// in\n    tag_121:\n        /* \"#utility.yul\":949:955   */\n      dup2\n        /* \"#utility.yul\":945:985   */\n      add\n        /* \"#utility.yul\":1087:1093   */\n      dup2\n        /* \"#utility.yul\":1075:1085   */\n      dup2\n        /* \"#utility.yul\":1072:1094   */\n      lt\n        /* \"#utility.yul\":1051:1069   */\n      0xffffffffffffffff\n        /* \"#utility.yul\":1039:1049   */\n      dup3\n        /* \"#utility.yul\":1036:1070   */\n      gt\n        /* \"#utility.yul\":1033:1095   */\n      or\n        /* \"#utility.yul\":1030:1118   */\n      iszero\n      tag_122\n      jumpi\n        /* \"#utility.yul\":1098:1116   */\n      tag_123\n      tag_92\n      jump\t// in\n    tag_123:\n        /* \"#utility.yul\":1030:1118   */\n    tag_122:\n        /* \"#utility.yul\":1138:1148   */\n      dup1\n        /* \"#utility.yul\":1134:1136   */\n      0x40\n        /* \"#utility.yul\":1127:1149   */\n      mstore\n        /* \"#utility.yul\":917:1155   */\n      pop\n        /* \"#utility.yul\":874:1155   */\n      pop\n      pop\n      jump\t// out\n        /* \"#utility.yul\":1161:1290   */\n    tag_94:\n        /* \"#utility.yul\":1195:1201   */\n      0x00\n        /* \"#utility.yul\":1222:1242   */\n      tag_125\n      tag_86\n      jump\t// in\n    tag_125:\n        /* \"#utility.yul\":1212:1242   */\n      swap1\n      pop\n        /* \"#utility.yul\":1251:1284   */\n      tag_126\n        /* \"#utility.yul\":1279:1283   */\n      dup3\n        /* \"#utility.yul\":1271:1277   */\n      dup3\n        /* \"#utility.yul\":1251:1284   */\n      tag_93\n      jump\t// in\n    tag_126:\n        /* \"#utility.yul\":1161:1290   */\n      swap2\n      swap1\n      pop\n      jump\t// out\n        /* \"#utility.yul\":1296:1604   */\n    tag_95:\n        /* \"#utility.yul\":1358:1362   */\n      0x00\n        /* \"#utility.yul\":1448:1466   */\n      0xffffffffffffffff\n        /* \"#utility.yul\":1440:1446   */\n      dup3\n        /* \"#utility.yul\":1437:1467   */\n      gt\n        /* \"#utility.yul\":1434:1490   */\n      iszero\n      tag_128\n      jumpi\n        /* \"#utility.yul\":1470:1488   */\n      tag_129\n      tag_92\n      jump\t// in\n    tag_129:\n        /* \"#utility.yul\":1434:1490   */\n    tag_128:\n        /* \"#utility.yul\":1508:1537   */\n      tag_130\n        /* \"#utility.yul\":1530:1536   */\n      dup3\n        /* \"#utility.yul\":1508:1537   */\n      tag_91\n      jump\t// in\n    tag_130:\n        /* \"#utility.yul\":1500:1537   */\n      swap1\n      pop\n        /* \"#utility.yul\":1592:1596   */\n      0x20\n        /* \"#utility.yul\":1586:1590   */\n      dup2\n        /* \"#utility.yul\":1582:1597   */\n      add\n        /* \"#utility.yul\":1574:1597   */\n      swap1\n      pop\n        /* \"#utility.yul\":1296:1604   */\n      swap2\n      swap1\n      pop\n      jump\t// out\n        /* \"#utility.yul\":1610:1758   */\n    tag_96:\n        /* \"#utility.yul\":1708:1714   */\n      dup3\n        /* \"#utility.yul\":1703:1706   */\n      dup2\n        /* \"#utility.yul\":1698:1701   */\n      dup4\n        /* \"#utility.yul\":1685:1715   */\n      calldatacopy\n        /* \"#utility.yul\":1749:1750   */\n      0x00\n        /* \"#utility.yul\":1740:1746   */\n      dup4\n        /* \"#utility.yul\":1735:1738   */\n      dup4\n        /* \"#utility.yul\":1731:1747   */\n      add\n        /* \"#utility.yul\":1724:1751   */\n      mstore\n        /* \"#utility.yul\":1610:1758   */\n      pop\n      pop\n      pop\n      jump\t// out\n        /* \"#utility.yul\":1764:2189   */\n    tag_97:\n        /* \"#utility.yul\":1842:1847   */\n      0x00\n        /* \"#utility.yul\":1867:1933   */\n      tag_133\n        /* \"#utility.yul\":1883:1932   */\n      tag_134\n        /* \"#utility.yul\":1925:1931   */\n      dup5\n        /* \"#utility.yul\":1883:1932   */\n      tag_95\n      jump\t// in\n    tag_134:\n        /* \"#utility.yul\":1867:1933   */\n      tag_94\n      jump\t// in\n    tag_133:\n        /* \"#utility.yul\":1858:1933   */\n      swap1\n      pop\n        /* \"#utility.yul\":1956:1962   */\n      dup3\n        /* \"#utility.yul\":1949:1954   */\n      dup2\n        /* \"#utility.yul\":1942:1963   */\n      mstore\n        /* \"#utility.yul\":1994:1998   */\n      0x20\n        /* \"#utility.yul\":1987:1992   */\n      dup2\n        /* \"#utility.yul\":1983:1999   */\n      add\n        /* \"#utility.yul\":2032:2035   */\n      dup5\n        /* \"#utility.yul\":2023:2029   */\n      dup5\n        /* \"#utility.yul\":2018:2021   */\n      dup5\n        /* \"#utility.yul\":2014:2030   */\n      add\n        /* \"#utility.yul\":2011:2036   */\n      gt\n        /* \"#utility.yul\":2008:2120   */\n      iszero\n      tag_135\n      jumpi\n        /* \"#utility.yul\":2039:2118   */\n      tag_136\n      tag_90\n      jump\t// in\n    tag_136:\n        /* \"#utility.yul\":2008:2120   */\n    tag_135:\n        /* \"#utility.yul\":2129:2183   */\n      tag_137\n        /* \"#utility.yul\":2176:2182   */\n      dup5\n        /* \"#utility.yul\":2171:2174   */\n      dup3\n        /* \"#utility.yul\":2166:2169   */\n      dup6\n        /* \"#utility.yul\":2129:2183   */\n      tag_96\n      jump\t// in\n    tag_137:\n        /* \"#utility.yul\":1848:2189   */\n      pop\n        /* \"#utility.yul\":1764:2189   */\n      swap4\n      swap3\n      pop\n      pop\n      pop\n      jump\t// out\n        /* \"#utility.yul\":2209:2549   */\n    tag_98:\n        /* \"#utility.yul\":2265:2270   */\n      0x00\n        /* \"#utility.yul\":2314:2317   */\n      dup3\n        /* \"#utility.yul\":2307:2311   */\n      0x1f\n        /* \"#utility.yul\":2299:2305   */\n      dup4\n        /* \"#utility.yul\":2295:2312   */\n      add\n        /* \"#utility.yul\":2291:2318   */\n      slt\n        /* \"#utility.yul\":2281:2403   */\n      tag_139\n      jumpi\n        /* \"#utility.yul\":2322:2401   */\n      tag_140\n      tag_89\n      jump\t// in\n    tag_140:\n        /* \"#utility.yul\":2281:2403   */\n    tag_139:\n        /* \"#utility.yul\":2439:2445   */\n      dup2\n        /* \"#utility.yul\":2426:2446   */\n      calldataload\n        /* \"#utility.yul\":2464:2543   */\n      tag_141\n        /* \"#utility.yul\":2539:2542   */\n      dup5\n        /* \"#utility.yul\":2531:2537   */\n      dup3\n        /* \"#utility.yul\":2524:2528   */\n      0x20\n        /* \"#utility.yul\":2516:2522   */\n      dup7\n        /* \"#utility.yul\":2512:2529   */\n      add\n        /* \"#utility.yul\":2464:2543   */\n      tag_97\n      jump\t// in\n    tag_141:\n        /* \"#utility.yul\":2455:2543   */\n      swap2\n      pop\n        /* \"#utility.yul\":2271:2549   */\n      pop\n        /* \"#utility.yul\":2209:2549   */\n      swap3\n      swap2\n      pop\n      pop\n      jump\t// out\n        /* \"#utility.yul\":2555:3064   */\n    tag_8:\n        /* \"#utility.yul\":2624:2630   */\n      0x00\n        /* \"#utility.yul\":2673:2675   */\n      0x20\n        /* \"#utility.yul\":2661:2670   */\n      dup3\n        /* \"#utility.yul\":2652:2659   */\n      dup5\n        /* \"#utility.yul\":2648:2671   */\n      sub\n        /* \"#utility.yul\":2644:2676   */\n      slt\n        /* \"#utility.yul\":2641:2760   */\n      iszero\n      tag_143\n      jumpi\n        /* \"#utility.yul\":2679:2758   */\n      tag_144\n      tag_87\n      jump\t// in\n    tag_144:\n        /* \"#utility.yul\":2641:2760   */\n    tag_143:\n        /* \"#utility.yul\":2827:2828   */\n      0x00\n        /* \"#utility.yul\":2816:2825   */\n      dup3\n        /* \"#utility.yul\":2812:2829   */\n      add\n        /* \"#utility.yul\":2799:2830   */\n      calldataload\n        /* \"#utility.yul\":2857:2875   */\n      0xffffffffffffffff\n        /* \"#utility.yul\":2849:2855   */\n      dup2\n        /* \"#utility.yul\":2846:2876   */\n      gt\n        /* \"#utility.yul\":2843:2960   */\n      iszero\n      tag_145\n      jumpi\n        /* \"#utility.yul\":2879:2958   */\n      tag_146\n      tag_88\n      jump\t// in\n    tag_146:\n        /* \"#utility.yul\":2843:2960   */\n    tag_145:\n        /* \"#utility.yul\":2984:3047   */\n      tag_147\n        /* \"#utility.yul\":3039:3046   */\n      dup5\n        /* \"#utility.yul\":3030:3036   */\n      dup3\n        /* \"#utility.yul\":3019:3028   */\n      dup6\n        /* \"#utility.yul\":3015:3037   */\n      add\n        /* \"#utility.yul\":2984:3047   */\n      tag_98\n      jump\t// in\n    tag_147:\n        /* \"#utility.yul\":2974:3047   */\n      swap2\n      pop\n        /* \"#utility.yul\":2770:3057   */\n      pop\n        /* \"#utility.yul\":2555:3064   */\n      swap3\n      swap2\n      pop\n      pop\n      jump\t// out\n        /* \"#utility.yul\":3070:3147   */\n    tag_99:\n        /* \"#utility.yul\":3107:3114   */\n      0x00\n        /* \"#utility.yul\":3136:3141   */\n      dup2\n        /* \"#utility.yul\":3125:3141   */\n      swap1\n      pop\n        /* \"#utility.yul\":3070:3147   */\n      swap2\n      swap1\n      pop\n      jump\t// out\n        /* \"#utility.yul\":3153:3271   */\n    tag_100:\n        /* \"#utility.yul\":3240:3264   */\n      tag_150\n        /* \"#utility.yul\":3258:3263   */\n      dup2\n        /* \"#utility.yul\":3240:3264   */\n      tag_99\n      jump\t// in\n    tag_150:\n        /* \"#utility.yul\":3235:3238   */\n      dup3\n        /* \"#utility.yul\":3228:3265   */\n      mstore\n        /* \"#utility.yul\":3153:3271   */\n      pop\n      pop\n      jump\t// out\n        /* \"#utility.yul\":3277:3499   */\n    tag_17:\n        /* \"#utility.yul\":3370:3374   */\n      0x00\n        /* \"#utility.yul\":3408:3410   */\n      0x20\n        /* \"#utility.yul\":3397:3406   */\n      dup3\n        /* \"#utility.yul\":3393:3411   */\n      add\n        /* \"#utility.yul\":3385:3411   */\n      swap1\n      pop\n        /* \"#utility.yul\":3421:3492   */\n      tag_152\n        /* \"#utility.yul\":3489:3490   */\n      0x00\n        /* \"#utility.yul\":3478:3487   */\n      dup4\n        /* \"#utility.yul\":3474:3491   */\n      add\n        /* \"#utility.yul\":3465:3471   */\n      dup5\n        /* \"#utility.yul\":3421:3492   */\n      tag_100\n      jump\t// in\n    tag_152:\n        /* \"#utility.yul\":3277:3499   */\n      swap3\n      swap2\n      pop\n      pop\n      jump\t// out\n        /* \"#utility.yul\":3505:3604   */\n    tag_101:\n        /* \"#utility.yul\":3557:3563   */\n      0x00\n        /* \"#utility.yul\":3591:3596   */\n      dup2\n        /* \"#utility.yul\":3585:3597   */\n      mload\n        /* \"#utility.yul\":3575:3597   */\n      swap1\n      pop\n        /* \"#utility.yul\":3505:3604   */\n      swap2\n      swap1\n      pop\n      jump\t// out\n        /* \"#utility.yul\":3610:3758   */\n    tag_102:\n        /* \"#utility.yul\":3712:3723   */\n      0x00\n        /* \"#utility.yul\":3749:3752   */\n      dup2\n        /* \"#utility.yul\":3734:3752   */\n      swap1\n      pop\n        /* \"#utility.yul\":3610:3758   */\n      swap3\n      swap2\n      pop\n      pop\n      jump\t// out\n        /* \"#utility.yul\":3764:3903   */\n    tag_103:\n        /* \"#utility.yul\":3853:3859   */\n      dup3\n        /* \"#utility.yul\":3848:3851   */\n      dup2\n        /* \"#utility.yul\":3843:3846   */\n      dup4\n        /* \"#utility.yul\":3837:3860   */\n      mcopy\n        /* \"#utility.yul\":3894:3895   */\n      0x00\n        /* \"#utility.yul\":3885:3891   */\n      dup4\n        /* \"#utility.yul\":3880:3883   */\n      dup4\n        /* \"#utility.yul\":3876:3892   */\n      add\n        /* \"#utility.yul\":3869:3896   */\n      mstore\n        /* \"#utility.yul\":3764:3903   */\n      pop\n      pop\n      pop\n      jump\t// out\n        /* \"#utility.yul\":3909:4299   */\n    tag_104:\n        /* \"#utility.yul\":4015:4018   */\n      0x00\n        /* \"#utility.yul\":4043:4082   */\n      tag_157\n        /* \"#utility.yul\":4076:4081   */\n      dup3\n        /* \"#utility.yul\":4043:4082   */\n      tag_101\n      jump\t// in\n    tag_157:\n        /* \"#utility.yul\":4098:4187   */\n      tag_158\n        /* \"#utility.yul\":4180:4186   */\n      dup2\n        /* \"#utility.yul\":4175:4178   */\n      dup6\n        /* \"#utility.yul\":4098:4187   */\n      tag_102\n      jump\t// in\n    tag_158:\n        /* \"#utility.yul\":4091:4187   */\n      swap4\n      pop\n        /* \"#utility.yul\":4196:4261   */\n      tag_159\n        /* \"#utility.yul\":4254:4260   */\n      dup2\n        /* \"#utility.yul\":4249:4252   */\n      dup6\n        /* \"#utility.yul\":4242:4246   */\n      0x20\n        /* \"#utility.yul\":4235:4240   */\n      dup7\n        /* \"#utility.yul\":4231:4247   */\n      add\n        /* \"#utility.yul\":4196:4261   */\n      tag_103\n      jump\t// in\n    tag_159:\n        /* \"#utility.yul\":4286:4292   */\n      dup1\n        /* \"#utility.yul\":4281:4284   */\n      dup5\n        /* \"#utility.yul\":4277:4293   */\n      add\n        /* \"#utility.yul\":4270:4293   */\n      swap2\n      pop\n        /* \"#utility.yul\":4019:4299   */\n      pop\n        /* \"#utility.yul\":3909:4299   */\n      swap3\n      swap2\n      pop\n      pop\n      jump\t// out\n        /* \"#utility.yul\":4305:4580   */\n    tag_20:\n        /* \"#utility.yul\":4437:4440   */\n      0x00\n        /* \"#utility.yul\":4459:4554   */\n      tag_161\n        /* \"#utility.yul\":4550:4553   */\n      dup3\n        /* \"#utility.yul\":4541:4547   */\n      dup5\n        /* \"#utility.yul\":4459:4554   */\n      tag_104\n      jump\t// in\n    tag_161:\n        /* \"#utility.yul\":4452:4554   */\n      swap2\n      pop\n        /* \"#utility.yul\":4571:4574   */\n      dup2\n        /* \"#utility.yul\":4564:4574   */\n      swap1\n      pop\n        /* \"#utility.yul\":4305:4580   */\n      swap3\n      swap2\n      pop\n      pop\n      jump\t// out\n        /* \"#utility.yul\":4586:4755   */\n    tag_105:\n        /* \"#utility.yul\":4670:4681   */\n      0x00\n        /* \"#utility.yul\":4704:4710   */\n      dup3\n        /* \"#utility.yul\":4699:4702   */\n      dup3\n        /* \"#utility.yul\":4692:4711   */\n      mstore\n        /* \"#utility.yul\":4744:4748   */\n      0x20\n        /* \"#utility.yul\":4739:4742   */\n      dup3\n        /* \"#utility.yul\":4735:4749   */\n      add\n        /* \"#utility.yul\":4720:4749   */\n      swap1\n      pop\n        /* \"#utility.yul\":4586:4755   */\n      swap3\n      swap2\n      pop\n      pop\n      jump\t// out\n        /* \"#utility.yul\":4761:4930   */\n    tag_106:\n        /* \"#utility.yul\":4901:4922   */\n      0x56656869636c65206e6f74207061726b65642e00000000000000000000000000\n        /* \"#utility.yul\":4897:4898   */\n      0x00\n        /* \"#utility.yul\":4889:4895   */\n      dup3\n        /* \"#utility.yul\":4885:4899   */\n      add\n        /* \"#utility.yul\":4878:4923   */\n      mstore\n        /* \"#utility.yul\":4761:4930   */\n      pop\n      jump\t// out\n        /* \"#utility.yul\":4936:5302   */\n    tag_107:\n        /* \"#utility.yul\":5078:5081   */\n      0x00\n        /* \"#utility.yul\":5099:5166   */\n      tag_165\n        /* \"#utility.yul\":5163:5165   */\n      0x13\n        /* \"#utility.yul\":5158:5161   */\n      dup4\n        /* \"#utility.yul\":5099:5166   */\n      tag_105\n      jump\t// in\n    tag_165:\n        /* \"#utility.yul\":5092:5166   */\n      swap2\n      pop\n        /* \"#utility.yul\":5175:5268   */\n      tag_166\n        /* \"#utility.yul\":5264:5267   */\n      dup3\n        /* \"#utility.yul\":5175:5268   */\n      tag_106\n      jump\t// in\n    tag_166:\n        /* \"#utility.yul\":5293:5295   */\n      0x20\n        /* \"#utility.yul\":5288:5291   */\n      dup3\n        /* \"#utility.yul\":5284:5296   */\n      add\n        /* \"#utility.yul\":5277:5296   */\n      swap1\n      pop\n        /* \"#utility.yul\":4936:5302   */\n      swap2\n      swap1\n      pop\n      jump\t// out\n        /* \"#utility.yul\":5308:5727   */\n    tag_23:\n        /* \"#utility.yul\":5474:5478   */\n      0x00\n        /* \"#utility.yul\":5512:5514   */\n      0x20\n        /* \"#utility.yul\":5501:5510   */\n      dup3\n        /* \"#utility.yul\":5497:5515   */\n      add\n        /* \"#utility.yul\":5489:5515   */\n      swap1\n      pop\n        /* \"#utility.yul\":5561:5570   */\n      dup2\n        /* \"#utility.yul\":5555:5559   */\n      dup2\n        /* \"#utility.yul\":5551:5571   */\n      sub\n        /* \"#utility.yul\":5547:5548   */\n      0x00\n        /* \"#utility.yul\":5536:5545   */\n      dup4\n        /* \"#utility.yul\":5532:5549   */\n      add\n        /* \"#utility.yul\":5525:5572   */\n      mstore\n        /* \"#utility.yul\":5589:5720   */\n      tag_168\n        /* \"#utility.yul\":5715:5719   */\n      dup2\n        /* \"#utility.yul\":5589:5720   */\n      tag_107\n      jump\t// in\n    tag_168:\n        /* \"#utility.yul\":5581:5720   */\n      swap1\n      pop\n        /* \"#utility.yul\":5308:5727   */\n      swap2\n      swap1\n      pop\n      jump\t// out\n        /* \"#utility.yul\":5733:5913   */\n    tag_108:\n        /* \"#utility.yul\":5781:5858   */\n      0x4e487b7100000000000000000000000000000000000000000000000000000000\n        /* \"#utility.yul\":5778:5779   */\n      0x00\n        /* \"#utility.yul\":5771:5859   */\n      mstore\n        /* \"#utility.yul\":5878:5882   */\n      0x11\n        /* \"#utility.yul\":5875:5876   */\n      0x04\n        /* \"#utility.yul\":5868:5883   */\n      mstore\n        /* \"#utility.yul\":5902:5906   */\n      0x24\n        /* \"#utility.yul\":5899:5900   */\n      0x00\n        /* \"#utility.yul\":5892:5907   */\n      revert\n        /* \"#utility.yul\":5919:6113   */\n    tag_26:\n        /* \"#utility.yul\":5959:5963   */\n      0x00\n        /* \"#utility.yul\":5979:5999   */\n      tag_171\n        /* \"#utility.yul\":5997:5998   */\n      dup3\n        /* \"#utility.yul\":5979:5999   */\n      tag_99\n      jump\t// in\n    tag_171:\n        /* \"#utility.yul\":5974:5999   */\n      swap2\n      pop\n        /* \"#utility.yul\":6013:6033   */\n      tag_172\n        /* \"#utility.yul\":6031:6032   */\n      dup4\n        /* \"#utility.yul\":6013:6033   */\n      tag_99\n      jump\t// in\n    tag_172:\n        /* \"#utility.yul\":6008:6033   */\n      swap3\n      pop\n        /* \"#utility.yul\":6057:6058   */\n      dup3\n        /* \"#utility.yul\":6054:6055   */\n      dup3\n        /* \"#utility.yul\":6050:6059   */\n      sub\n        /* \"#utility.yul\":6042:6059   */\n      swap1\n      pop\n        /* \"#utility.yul\":6081:6082   */\n      dup2\n        /* \"#utility.yul\":6075:6079   */\n      dup2\n        /* \"#utility.yul\":6072:6083   */\n      gt\n        /* \"#utility.yul\":6069:6106   */\n      iszero\n      tag_173\n      jumpi\n        /* \"#utility.yul\":6086:6104   */\n      tag_174\n      tag_108\n      jump\t// in\n    tag_174:\n        /* \"#utility.yul\":6069:6106   */\n    tag_173:\n        /* \"#utility.yul\":5919:6113   */\n      swap3\n      swap2\n      pop\n      pop\n      jump\t// out\n        /* \"#utility.yul\":6119:6310   */\n    tag_32:\n        /* \"#utility.yul\":6159:6162   */\n      0x00\n        /* \"#utility.yul\":6178:6198   */\n      tag_176\n        /* \"#utility.yul\":6196:6197   */\n      dup3\n        /* \"#utility.yul\":6178:6198   */\n      tag_99\n      jump\t// in\n    tag_176:\n        /* \"#utility.yul\":6173:6198   */\n      swap2\n      pop\n        /* \"#utility.yul\":6212:6232   */\n      tag_177\n        /* \"#utility.yul\":6230:6231   */\n      dup4\n        /* \"#utility.yul\":6212:6232   */\n      tag_99\n      jump\t// in\n    tag_177:\n        /* \"#utility.yul\":6207:6232   */\n      swap3\n      pop\n        /* \"#utility.yul\":6255:6256   */\n      dup3\n        /* \"#utility.yul\":6252:6253   */\n      dup3\n        /* \"#utility.yul\":6248:6257   */\n      add\n        /* \"#utility.yul\":6241:6257   */\n      swap1\n      pop\n        /* \"#utility.yul\":6276:6279   */\n      dup1\n        /* \"#utility.yul\":6273:6274   */\n      dup3\n        /* \"#utility.yul\":6270:6280   */\n      gt\n        /* \"#utility.yul\":6267:6303   */\n      iszero\n      tag_178\n      jumpi\n        /* \"#utility.yul\":6283:6301   */\n      tag_179\n      tag_108\n      jump\t// in\n    tag_179:\n        /* \"#utility.yul\":6267:6303   */\n    tag_178:\n        /* \"#utility.yul\":6119:6310   */\n      swap3\n      swap2\n      pop\n      pop\n      jump\t// out\n        /* \"#utility.yul\":6316:6489   */\n    tag_109:\n        /* \"#utility.yul\":6456:6481   */\n      0x56656869636c6520616c7265616479207061726b65642e000000000000000000\n        /* \"#utility.yul\":6452:6453   */\n      0x00\n        /* \"#utility.yul\":6444:6450   */\n      dup3\n        /* \"#utility.yul\":6440:6454   */\n      add\n        /* \"#utility.yul\":6433:6482   */\n      mstore\n        /* \"#utility.yul\":6316:6489   */\n      pop\n      jump\t// out\n        /* \"#utility.yul\":6495:6861   */\n    tag_110:\n        /* \"#utility.yul\":6637:6640   */\n      0x00\n        /* \"#utility.yul\":6658:6725   */\n      tag_182\n        /* \"#utility.yul\":6722:6724   */\n      0x17\n        /* \"#utility.yul\":6717:6720   */\n      dup4\n        /* \"#utility.yul\":6658:6725   */\n      tag_105\n      jump\t// in\n    tag_182:\n        /* \"#utility.yul\":6651:6725   */\n      swap2\n      pop\n        /* \"#utility.yul\":6734:6827   */\n      tag_183\n        /* \"#utility.yul\":6823:6826   */\n      dup3\n        /* \"#utility.yul\":6734:6827   */\n      tag_109\n      jump\t// in\n    tag_183:\n        /* \"#utility.yul\":6852:6854   */\n      0x20\n        /* \"#utility.yul\":6847:6850   */\n      dup3\n        /* \"#utility.yul\":6843:6855   */\n      add\n        /* \"#utility.yul\":6836:6855   */\n      swap1\n      pop\n        /* \"#utility.yul\":6495:6861   */\n      swap2\n      swap1\n      pop\n      jump\t// out\n        /* \"#utility.yul\":6867:7286   */\n    tag_37:\n        /* \"#utility.yul\":7033:7037   */\n      0x00\n        /* \"#utility.yul\":7071:7073   */\n      0x20\n        /* \"#utility.yul\":7060:7069   */\n      dup3\n        /* \"#utility.yul\":7056:7074   */\n      add\n        /* \"#utility.yul\":7048:7074   */\n      swap1\n      pop\n        /* \"#utility.yul\":7120:7129   */\n      dup2\n        /* \"#utility.yul\":7114:7118   */\n      dup2\n        /* \"#utility.yul\":7110:7130   */\n      sub\n        /* \"#utility.yul\":7106:7107   */\n      0x00\n        /* \"#utility.yul\":7095:7104   */\n      dup4\n        /* \"#utility.yul\":7091:7108   */\n      add\n        /* \"#utility.yul\":7084:7131   */\n      mstore\n        /* \"#utility.yul\":7148:7279   */\n      tag_185\n        /* \"#utility.yul\":7274:7278   */\n      dup2\n        /* \"#utility.yul\":7148:7279   */\n      tag_110\n      jump\t// in\n    tag_185:\n        /* \"#utility.yul\":7140:7279   */\n      swap1\n      pop\n        /* \"#utility.yul\":6867:7286   */\n      swap2\n      swap1\n      pop\n      jump\t// out\n        /* \"#utility.yul\":7292:7472   */\n    tag_111:\n        /* \"#utility.yul\":7340:7417   */\n      0x4e487b7100000000000000000000000000000000000000000000000000000000\n        /* \"#utility.yul\":7337:7338   */\n      0x00\n        /* \"#utility.yul\":7330:7418   */\n      mstore\n        /* \"#utility.yul\":7437:7441   */\n      0x12\n        /* \"#utility.yul\":7434:7435   */\n      0x04\n        /* \"#utility.yul\":7427:7442   */\n      mstore\n        /* \"#utility.yul\":7461:7465   */\n      0x24\n        /* \"#utility.yul\":7458:7459   */\n      0x00\n        /* \"#utility.yul\":7451:7466   */\n      revert\n        /* \"#utility.yul\":7478:7663   */\n    tag_45:\n        /* \"#utility.yul\":7518:7519   */\n      0x00\n        /* \"#utility.yul\":7535:7555   */\n      tag_188\n        /* \"#utility.yul\":7553:7554   */\n      dup3\n        /* \"#utility.yul\":7535:7555   */\n      tag_99\n      jump\t// in\n    tag_188:\n        /* \"#utility.yul\":7530:7555   */\n      swap2\n      pop\n        /* \"#utility.yul\":7569:7589   */\n      tag_189\n        /* \"#utility.yul\":7587:7588   */\n      dup4\n        /* \"#utility.yul\":7569:7589   */\n      tag_99\n      jump\t// in\n    tag_189:\n        /* \"#utility.yul\":7564:7589   */\n      swap3\n      pop\n        /* \"#utility.yul\":7608:7609   */\n      dup3\n        /* \"#utility.yul\":7598:7633   */\n      tag_190\n      jumpi\n        /* \"#utility.yul\":7613:7631   */\n      tag_191\n      tag_111\n      jump\t// in\n    tag_191:\n        /* \"#utility.yul\":7598:7633   */\n    tag_190:\n        /* \"#utility.yul\":7655:7656   */\n      dup3\n        /* \"#utility.yul\":7652:7653   */\n      dup3\n        /* \"#utility.yul\":7648:7657   */\n      div\n        /* \"#utility.yul\":7643:7657   */\n      swap1\n      pop\n        /* \"#utility.yul\":7478:7663   */\n      swap3\n      swap2\n      pop\n      pop\n      jump\t// out\n        /* \"#utility.yul\":7669:8079   */\n    tag_47:\n        /* \"#utility.yul\":7709:7716   */\n      0x00\n        /* \"#utility.yul\":7732:7752   */\n      tag_193\n        /* \"#utility.yul\":7750:7751   */\n      dup3\n        /* \"#utility.yul\":7732:7752   */\n      tag_99\n      jump\t// in\n    tag_193:\n        /* \"#utility.yul\":7727:7752   */\n      swap2\n      pop\n        /* \"#utility.yul\":7766:7786   */\n      tag_194\n        /* \"#utility.yul\":7784:7785   */\n      dup4\n        /* \"#utility.yul\":7766:7786   */\n      tag_99\n      jump\t// in\n    tag_194:\n        /* \"#utility.yul\":7761:7786   */\n      swap3\n      pop\n        /* \"#utility.yul\":7821:7822   */\n      dup3\n        /* \"#utility.yul\":7818:7819   */\n      dup3\n        /* \"#utility.yul\":7814:7823   */\n      mul\n        /* \"#utility.yul\":7843:7873   */\n      tag_195\n        /* \"#utility.yul\":7861:7872   */\n      dup2\n        /* \"#utility.yul\":7843:7873   */\n      tag_99\n      jump\t// in\n    tag_195:\n        /* \"#utility.yul\":7832:7873   */\n      swap2\n      pop\n        /* \"#utility.yul\":8022:8023   */\n      dup3\n        /* \"#utility.yul\":8013:8020   */\n      dup3\n        /* \"#utility.yul\":8009:8024   */\n      div\n        /* \"#utility.yul\":8006:8007   */\n      dup5\n        /* \"#utility.yul\":8003:8025   */\n      eq\n        /* \"#utility.yul\":7983:7984   */\n      dup4\n        /* \"#utility.yul\":7976:7985   */\n      iszero\n        /* \"#utility.yul\":7956:8039   */\n      or\n        /* \"#utility.yul\":7933:8072   */\n      tag_196\n      jumpi\n        /* \"#utility.yul\":8052:8070   */\n      tag_197\n      tag_108\n      jump\t// in\n    tag_197:\n        /* \"#utility.yul\":7933:8072   */\n    tag_196:\n        /* \"#utility.yul\":7717:8079   */\n      pop\n        /* \"#utility.yul\":7669:8079   */\n      swap3\n      swap2\n      pop\n      pop\n      jump\t// out\n        /* \"#utility.yul\":8085:8265   */\n    tag_65:\n        /* \"#utility.yul\":8133:8210   */\n      0x4e487b7100000000000000000000000000000000000000000000000000000000\n        /* \"#utility.yul\":8130:8131   */\n      0x00\n        /* \"#utility.yul\":8123:8211   */\n      mstore\n        /* \"#utility.yul\":8230:8234   */\n      0x32\n        /* \"#utility.yul\":8227:8228   */\n      0x04\n        /* \"#utility.yul\":8220:8235   */\n      mstore\n        /* \"#utility.yul\":8254:8258   */\n      0x24\n        /* \"#utility.yul\":8251:8252   */\n      0x00\n        /* \"#utility.yul\":8244:8259   */\n      revert\n\n    auxdata: 0xa2646970667358221220fd3ddc2fe19249fd669cde9fa03acdd160fa238f1043dfb4e096f94ae0d06b4964736f6c634300081a0033\n}\n",
				"bytecode": {
					"linkReferences": {},
					"object": "6080604052348015600e575f80fd5b50610a2e8061001c5f395ff3fe608060405234801561000f575f80fd5b506004361061003f575f3560e01c80632abbc36a14610043578063b4facdab1461005f578063c0666f3e1461007b575b5f80fd5b61005d600480360381019061005891906106da565b6100ab565b005b610079600480360381019061007491906106da565b6101c2565b005b610095600480360381019061009091906106da565b610291565b6040516100a29190610739565b60405180910390f35b5f816040516100ba91906107a4565b90815260200160405180910390206001015f9054906101000a900460ff16610117576040517f08c379a000000000000000000000000000000000000000000000000000000000815260040161010e90610814565b60405180910390fd5b5f808260405161012791906107a4565b90815260200160405180910390205f015442610143919061085f565b90505f61015082846102b8565b90505f808460405161016291906107a4565b90815260200160405180910390206001015f6101000a81548160ff0219169083151502179055508060018460405161019a91906107a4565b90815260200160405180910390205f8282546101b69190610892565b92505081905550505050565b5f816040516101d191906107a4565b90815260200160405180910390206001015f9054906101000a900460ff161561022f576040517f08c379a00000000000000000000000000000000000000000000000000000000081526004016102269061090f565b60405180910390fd5b6040518060400160405280428152602001600115158152505f8260405161025691906107a4565b90815260200160405180910390205f820151815f01556020820151816001015f6101000a81548160ff02191690831515021790555090505050565b5f6001826040516102a291906107a4565b9081526020016040518091039020549050919050565b5f611c2083116102ca575f9050610356565b5f603c611c20856102db919061085f565b6102e5919061095a565b90505f60c8826102f5919061098a565b90506103008461035c565b15610325576064605082610314919061098a565b61031e919061095a565b9050610350565b61032e84610427565b1561034f576064603282610342919061098a565b61034c919061095a565b90505b5b80925050505b92915050565b5f808290505f5b815181101561041b57603060f81b828281518110610384576103836109cb565b5b602001015160f81c60f81b7effffffffffffffffffffffffffffffffffffffffffffffffffffffffffffff191610806103ff5750603960f81b8282815181106103d0576103cf6109cb565b5b602001015160f81c60f81b7effffffffffffffffffffffffffffffffffffffffffffffffffffffffffffff1916115b1561040e575f92505050610422565b8080600101915050610363565b5060019150505b919050565b5f808290505f5b815181101561058157604160f81b82828151811061044f5761044e6109cb565b5b602001015160f81c60f81b7effffffffffffffffffffffffffffffffffffffffffffffffffffffffffffff191610806104ca5750605a60f81b82828151811061049b5761049a6109cb565b5b602001015160f81c60f81b7effffffffffffffffffffffffffffffffffffffffffffffffffffffffffffff1916115b80156105655750606160f81b8282815181106104e9576104e86109cb565b5b602001015160f81c60f81b7effffffffffffffffffffffffffffffffffffffffffffffffffffffffffffff191610806105645750607a60f81b828281518110610535576105346109cb565b5b602001015160f81c60f81b7effffffffffffffffffffffffffffffffffffffffffffffffffffffffffffff1916115b5b15610574575f92505050610588565b808060010191505061042e565b5060019150505b919050565b5f604051905090565b5f80fd5b5f80fd5b5f80fd5b5f80fd5b5f601f19601f8301169050919050565b7f4e487b71000000000000000000000000000000000000000000000000000000005f52604160045260245ffd5b6105ec826105a6565b810181811067ffffffffffffffff8211171561060b5761060a6105b6565b5b80604052505050565b5f61061d61058d565b905061062982826105e3565b919050565b5f67ffffffffffffffff821115610648576106476105b6565b5b610651826105a6565b9050602081019050919050565b828183375f83830152505050565b5f61067e6106798461062e565b610614565b90508281526020810184848401111561069a576106996105a2565b5b6106a584828561065e565b509392505050565b5f82601f8301126106c1576106c061059e565b5b81356106d184826020860161066c565b91505092915050565b5f602082840312156106ef576106ee610596565b5b5f82013567ffffffffffffffff81111561070c5761070b61059a565b5b610718848285016106ad565b91505092915050565b5f819050919050565b61073381610721565b82525050565b5f60208201905061074c5f83018461072a565b92915050565b5f81519050919050565b5f81905092915050565b8281835e5f83830152505050565b5f61077e82610752565b610788818561075c565b9350610798818560208601610766565b80840191505092915050565b5f6107af8284610774565b915081905092915050565b5f82825260208201905092915050565b7f56656869636c65206e6f74207061726b65642e000000000000000000000000005f82015250565b5f6107fe6013836107ba565b9150610809826107ca565b602082019050919050565b5f6020820190508181035f83015261082b816107f2565b9050919050565b7f4e487b71000000000000000000000000000000000000000000000000000000005f52601160045260245ffd5b5f61086982610721565b915061087483610721565b925082820390508181111561088c5761088b610832565b5b92915050565b5f61089c82610721565b91506108a783610721565b92508282019050808211156108bf576108be610832565b5b92915050565b7f56656869636c6520616c7265616479207061726b65642e0000000000000000005f82015250565b5f6108f96017836107ba565b9150610904826108c5565b602082019050919050565b5f6020820190508181035f830152610926816108ed565b9050919050565b7f4e487b71000000000000000000000000000000000000000000000000000000005f52601260045260245ffd5b5f61096482610721565b915061096f83610721565b92508261097f5761097e61092d565b5b828204905092915050565b5f61099482610721565b915061099f83610721565b92508282026109ad81610721565b915082820484148315176109c4576109c3610832565b5b5092915050565b7f4e487b71000000000000000000000000000000000000000000000000000000005f52603260045260245ffdfea2646970667358221220fd3ddc2fe19249fd669cde9fa03acdd160fa238f1043dfb4e096f94ae0d06b4964736f6c634300081a0033",
					"opcodes": "PUSH1 0x80 PUSH1 0x40 MSTORE CALLVALUE DUP1 ISZERO PUSH1 0xE JUMPI PUSH0 DUP1 REVERT JUMPDEST POP PUSH2 0xA2E DUP1 PUSH2 0x1C PUSH0 CODECOPY PUSH0 RETURN INVALID PUSH1 0x80 PUSH1 0x40 MSTORE CALLVALUE DUP1 ISZERO PUSH2 0xF JUMPI PUSH0 DUP1 REVERT JUMPDEST POP PUSH1 0x4 CALLDATASIZE LT PUSH2 0x3F JUMPI PUSH0 CALLDATALOAD PUSH1 0xE0 SHR DUP1 PUSH4 0x2ABBC36A EQ PUSH2 0x43 JUMPI DUP1 PUSH4 0xB4FACDAB EQ PUSH2 0x5F JUMPI DUP1 PUSH4 0xC0666F3E EQ PUSH2 0x7B JUMPI JUMPDEST PUSH0 DUP1 REVERT JUMPDEST PUSH2 0x5D PUSH1 0x4 DUP1 CALLDATASIZE SUB DUP2 ADD SWAP1 PUSH2 0x58 SWAP2 SWAP1 PUSH2 0x6DA JUMP JUMPDEST PUSH2 0xAB JUMP JUMPDEST STOP JUMPDEST PUSH2 0x79 PUSH1 0x4 DUP1 CALLDATASIZE SUB DUP2 ADD SWAP1 PUSH2 0x74 SWAP2 SWAP1 PUSH2 0x6DA JUMP JUMPDEST PUSH2 0x1C2 JUMP JUMPDEST STOP JUMPDEST PUSH2 0x95 PUSH1 0x4 DUP1 CALLDATASIZE SUB DUP2 ADD SWAP1 PUSH2 0x90 SWAP2 SWAP1 PUSH2 0x6DA JUMP JUMPDEST PUSH2 0x291 JUMP JUMPDEST PUSH1 0x40 MLOAD PUSH2 0xA2 SWAP2 SWAP1 PUSH2 0x739 JUMP JUMPDEST PUSH1 0x40 MLOAD DUP1 SWAP2 SUB SWAP1 RETURN JUMPDEST PUSH0 DUP2 PUSH1 0x40 MLOAD PUSH2 0xBA SWAP2 SWAP1 PUSH2 0x7A4 JUMP JUMPDEST SWAP1 DUP2 MSTORE PUSH1 0x20 ADD PUSH1 0x40 MLOAD DUP1 SWAP2 SUB SWAP1 KECCAK256 PUSH1 0x1 ADD PUSH0 SWAP1 SLOAD SWAP1 PUSH2 0x100 EXP SWAP1 DIV PUSH1 0xFF AND PUSH2 0x117 JUMPI PUSH1 0x40 MLOAD PUSH32 0x8C379A000000000000000000000000000000000000000000000000000000000 DUP2 MSTORE PUSH1 0x4 ADD PUSH2 0x10E SWAP1 PUSH2 0x814 JUMP JUMPDEST PUSH1 0x40 MLOAD DUP1 SWAP2 SUB SWAP1 REVERT JUMPDEST PUSH0 DUP1 DUP3 PUSH1 0x40 MLOAD PUSH2 0x127 SWAP2 SWAP1 PUSH2 0x7A4 JUMP JUMPDEST SWAP1 DUP2 MSTORE PUSH1 0x20 ADD PUSH1 0x40 MLOAD DUP1 SWAP2 SUB SWAP1 KECCAK256 PUSH0 ADD SLOAD TIMESTAMP PUSH2 0x143 SWAP2 SWAP1 PUSH2 0x85F JUMP JUMPDEST SWAP1 POP PUSH0 PUSH2 0x150 DUP3 DUP5 PUSH2 0x2B8 JUMP JUMPDEST SWAP1 POP PUSH0 DUP1 DUP5 PUSH1 0x40 MLOAD PUSH2 0x162 SWAP2 SWAP1 PUSH2 0x7A4 JUMP JUMPDEST SWAP1 DUP2 MSTORE PUSH1 0x20 ADD PUSH1 0x40 MLOAD DUP1 SWAP2 SUB SWAP1 KECCAK256 PUSH1 0x1 ADD PUSH0 PUSH2 0x100 EXP DUP2 SLOAD DUP2 PUSH1 0xFF MUL NOT AND SWAP1 DUP4 ISZERO ISZERO MUL OR SWAP1 SSTORE POP DUP1 PUSH1 0x1 DUP5 PUSH1 0x40 MLOAD PUSH2 0x19A SWAP2 SWAP1 PUSH2 0x7A4 JUMP JUMPDEST SWAP1 DUP2 MSTORE PUSH1 0x20 ADD PUSH1 0x40 MLOAD DUP1 SWAP2 SUB SWAP1 KECCAK256 PUSH0 DUP3 DUP3 SLOAD PUSH2 0x1B6 SWAP2 SWAP1 PUSH2 0x892 JUMP JUMPDEST SWAP3 POP POP DUP2 SWAP1 SSTORE POP POP POP POP JUMP JUMPDEST PUSH0 DUP2 PUSH1 0x40 MLOAD PUSH2 0x1D1 SWAP2 SWAP1 PUSH2 0x7A4 JUMP JUMPDEST SWAP1 DUP2 MSTORE PUSH1 0x20 ADD PUSH1 0x40 MLOAD DUP1 SWAP2 SUB SWAP1 KECCAK256 PUSH1 0x1 ADD PUSH0 SWAP1 SLOAD SWAP1 PUSH2 0x100 EXP SWAP1 DIV PUSH1 0xFF AND ISZERO PUSH2 0x22F JUMPI PUSH1 0x40 MLOAD PUSH32 0x8C379A000000000000000000000000000000000000000000000000000000000 DUP2 MSTORE PUSH1 0x4 ADD PUSH2 0x226 SWAP1 PUSH2 0x90F JUMP JUMPDEST PUSH1 0x40 MLOAD DUP1 SWAP2 SUB SWAP1 REVERT JUMPDEST PUSH1 0x40 MLOAD DUP1 PUSH1 0x40 ADD PUSH1 0x40 MSTORE DUP1 TIMESTAMP DUP2 MSTORE PUSH1 0x20 ADD PUSH1 0x1 ISZERO ISZERO DUP2 MSTORE POP PUSH0 DUP3 PUSH1 0x40 MLOAD PUSH2 0x256 SWAP2 SWAP1 PUSH2 0x7A4 JUMP JUMPDEST SWAP1 DUP2 MSTORE PUSH1 0x20 ADD PUSH1 0x40 MLOAD DUP1 SWAP2 SUB SWAP1 KECCAK256 PUSH0 DUP3 ADD MLOAD DUP2 PUSH0 ADD SSTORE PUSH1 0x20 DUP3 ADD MLOAD DUP2 PUSH1 0x1 ADD PUSH0 PUSH2 0x100 EXP DUP2 SLOAD DUP2 PUSH1 0xFF MUL NOT AND SWAP1 DUP4 ISZERO ISZERO MUL OR SWAP1 SSTORE POP SWAP1 POP POP POP JUMP JUMPDEST PUSH0 PUSH1 0x1 DUP3 PUSH1 0x40 MLOAD PUSH2 0x2A2 SWAP2 SWAP1 PUSH2 0x7A4 JUMP JUMPDEST SWAP1 DUP2 MSTORE PUSH1 0x20 ADD PUSH1 0x40 MLOAD DUP1 SWAP2 SUB SWAP1 KECCAK256 SLOAD SWAP1 POP SWAP2 SWAP1 POP JUMP JUMPDEST PUSH0 PUSH2 0x1C20 DUP4 GT PUSH2 0x2CA JUMPI PUSH0 SWAP1 POP PUSH2 0x356 JUMP JUMPDEST PUSH0 PUSH1 0x3C PUSH2 0x1C20 DUP6 PUSH2 0x2DB SWAP2 SWAP1 PUSH2 0x85F JUMP JUMPDEST PUSH2 0x2E5 SWAP2 SWAP1 PUSH2 0x95A JUMP JUMPDEST SWAP1 POP PUSH0 PUSH1 0xC8 DUP3 PUSH2 0x2F5 SWAP2 SWAP1 PUSH2 0x98A JUMP JUMPDEST SWAP1 POP PUSH2 0x300 DUP5 PUSH2 0x35C JUMP JUMPDEST ISZERO PUSH2 0x325 JUMPI PUSH1 0x64 PUSH1 0x50 DUP3 PUSH2 0x314 SWAP2 SWAP1 PUSH2 0x98A JUMP JUMPDEST PUSH2 0x31E SWAP2 SWAP1 PUSH2 0x95A JUMP JUMPDEST SWAP1 POP PUSH2 0x350 JUMP JUMPDEST PUSH2 0x32E DUP5 PUSH2 0x427 JUMP JUMPDEST ISZERO PUSH2 0x34F JUMPI PUSH1 0x64 PUSH1 0x32 DUP3 PUSH2 0x342 SWAP2 SWAP1 PUSH2 0x98A JUMP JUMPDEST PUSH2 0x34C SWAP2 SWAP1 PUSH2 0x95A JUMP JUMPDEST SWAP1 POP JUMPDEST JUMPDEST DUP1 SWAP3 POP POP POP JUMPDEST SWAP3 SWAP2 POP POP JUMP JUMPDEST PUSH0 DUP1 DUP3 SWAP1 POP PUSH0 JUMPDEST DUP2 MLOAD DUP2 LT ISZERO PUSH2 0x41B JUMPI PUSH1 0x30 PUSH1 0xF8 SHL DUP3 DUP3 DUP2 MLOAD DUP2 LT PUSH2 0x384 JUMPI PUSH2 0x383 PUSH2 0x9CB JUMP JUMPDEST JUMPDEST PUSH1 0x20 ADD ADD MLOAD PUSH1 0xF8 SHR PUSH1 0xF8 SHL PUSH31 0xFFFFFFFFFFFFFFFFFFFFFFFFFFFFFFFFFFFFFFFFFFFFFFFFFFFFFFFFFFFFFF NOT AND LT DUP1 PUSH2 0x3FF JUMPI POP PUSH1 0x39 PUSH1 0xF8 SHL DUP3 DUP3 DUP2 MLOAD DUP2 LT PUSH2 0x3D0 JUMPI PUSH2 0x3CF PUSH2 0x9CB JUMP JUMPDEST JUMPDEST PUSH1 0x20 ADD ADD MLOAD PUSH1 0xF8 SHR PUSH1 0xF8 SHL PUSH31 0xFFFFFFFFFFFFFFFFFFFFFFFFFFFFFFFFFFFFFFFFFFFFFFFFFFFFFFFFFFFFFF NOT AND GT JUMPDEST ISZERO PUSH2 0x40E JUMPI PUSH0 SWAP3 POP POP POP PUSH2 0x422 JUMP JUMPDEST DUP1 DUP1 PUSH1 0x1 ADD SWAP2 POP POP PUSH2 0x363 JUMP JUMPDEST POP PUSH1 0x1 SWAP2 POP POP JUMPDEST SWAP2 SWAP1 POP JUMP JUMPDEST PUSH0 DUP1 DUP3 SWAP1 POP PUSH0 JUMPDEST DUP2 MLOAD DUP2 LT ISZERO PUSH2 0x581 JUMPI PUSH1 0x41 PUSH1 0xF8 SHL DUP3 DUP3 DUP2 MLOAD DUP2 LT PUSH2 0x44F JUMPI PUSH2 0x44E PUSH2 0x9CB JUMP JUMPDEST JUMPDEST PUSH1 0x20 ADD ADD MLOAD PUSH1 0xF8 SHR PUSH1 0xF8 SHL PUSH31 0xFFFFFFFFFFFFFFFFFFFFFFFFFFFFFFFFFFFFFFFFFFFFFFFFFFFFFFFFFFFFFF NOT AND LT DUP1 PUSH2 0x4CA JUMPI POP PUSH1 0x5A PUSH1 0xF8 SHL DUP3 DUP3 DUP2 MLOAD DUP2 LT PUSH2 0x49B JUMPI PUSH2 0x49A PUSH2 0x9CB JUMP JUMPDEST JUMPDEST PUSH1 0x20 ADD ADD MLOAD PUSH1 0xF8 SHR PUSH1 0xF8 SHL PUSH31 0xFFFFFFFFFFFFFFFFFFFFFFFFFFFFFFFFFFFFFFFFFFFFFFFFFFFFFFFFFFFFFF NOT AND GT JUMPDEST DUP1 ISZERO PUSH2 0x565 JUMPI POP PUSH1 0x61 PUSH1 0xF8 SHL DUP3 DUP3 DUP2 MLOAD DUP2 LT PUSH2 0x4E9 JUMPI PUSH2 0x4E8 PUSH2 0x9CB JUMP JUMPDEST JUMPDEST PUSH1 0x20 ADD ADD MLOAD PUSH1 0xF8 SHR PUSH1 0xF8 SHL PUSH31 0xFFFFFFFFFFFFFFFFFFFFFFFFFFFFFFFFFFFFFFFFFFFFFFFFFFFFFFFFFFFFFF NOT AND LT DUP1 PUSH2 0x564 JUMPI POP PUSH1 0x7A PUSH1 0xF8 SHL DUP3 DUP3 DUP2 MLOAD DUP2 LT PUSH2 0x535 JUMPI PUSH2 0x534 PUSH2 0x9CB JUMP JUMPDEST JUMPDEST PUSH1 0x20 ADD ADD MLOAD PUSH1 0xF8 SHR PUSH1 0xF8 SHL PUSH31 0xFFFFFFFFFFFFFFFFFFFFFFFFFFFFFFFFFFFFFFFFFFFFFFFFFFFFFFFFFFFFFF NOT AND GT JUMPDEST JUMPDEST ISZERO PUSH2 0x574 JUMPI PUSH0 SWAP3 POP POP POP PUSH2 0x588 JUMP JUMPDEST DUP1 DUP1 PUSH1 0x1 ADD SWAP2 POP POP PUSH2 0x42E JUMP JUMPDEST POP PUSH1 0x1 SWAP2 POP POP JUMPDEST SWAP2 SWAP1 POP JUMP JUMPDEST PUSH0 PUSH1 0x40 MLOAD SWAP1 POP SWAP1 JUMP JUMPDEST PUSH0 DUP1 REVERT JUMPDEST PUSH0 DUP1 REVERT JUMPDEST PUSH0 DUP1 REVERT JUMPDEST PUSH0 DUP1 REVERT JUMPDEST PUSH0 PUSH1 0x1F NOT PUSH1 0x1F DUP4 ADD AND SWAP1 POP SWAP2 SWAP1 POP JUMP JUMPDEST PUSH32 0x4E487B7100000000000000000000000000000000000000000000000000000000 PUSH0 MSTORE PUSH1 0x41 PUSH1 0x4 MSTORE PUSH1 0x24 PUSH0 REVERT JUMPDEST PUSH2 0x5EC DUP3 PUSH2 0x5A6 JUMP JUMPDEST DUP2 ADD DUP2 DUP2 LT PUSH8 0xFFFFFFFFFFFFFFFF DUP3 GT OR ISZERO PUSH2 0x60B JUMPI PUSH2 0x60A PUSH2 0x5B6 JUMP JUMPDEST JUMPDEST DUP1 PUSH1 0x40 MSTORE POP POP POP JUMP JUMPDEST PUSH0 PUSH2 0x61D PUSH2 0x58D JUMP JUMPDEST SWAP1 POP PUSH2 0x629 DUP3 DUP3 PUSH2 0x5E3 JUMP JUMPDEST SWAP2 SWAP1 POP JUMP JUMPDEST PUSH0 PUSH8 0xFFFFFFFFFFFFFFFF DUP3 GT ISZERO PUSH2 0x648 JUMPI PUSH2 0x647 PUSH2 0x5B6 JUMP JUMPDEST JUMPDEST PUSH2 0x651 DUP3 PUSH2 0x5A6 JUMP JUMPDEST SWAP1 POP PUSH1 0x20 DUP2 ADD SWAP1 POP SWAP2 SWAP1 POP JUMP JUMPDEST DUP3 DUP2 DUP4 CALLDATACOPY PUSH0 DUP4 DUP4 ADD MSTORE POP POP POP JUMP JUMPDEST PUSH0 PUSH2 0x67E PUSH2 0x679 DUP5 PUSH2 0x62E JUMP JUMPDEST PUSH2 0x614 JUMP JUMPDEST SWAP1 POP DUP3 DUP2 MSTORE PUSH1 0x20 DUP2 ADD DUP5 DUP5 DUP5 ADD GT ISZERO PUSH2 0x69A JUMPI PUSH2 0x699 PUSH2 0x5A2 JUMP JUMPDEST JUMPDEST PUSH2 0x6A5 DUP5 DUP3 DUP6 PUSH2 0x65E JUMP JUMPDEST POP SWAP4 SWAP3 POP POP POP JUMP JUMPDEST PUSH0 DUP3 PUSH1 0x1F DUP4 ADD SLT PUSH2 0x6C1 JUMPI PUSH2 0x6C0 PUSH2 0x59E JUMP JUMPDEST JUMPDEST DUP2 CALLDATALOAD PUSH2 0x6D1 DUP5 DUP3 PUSH1 0x20 DUP7 ADD PUSH2 0x66C JUMP JUMPDEST SWAP2 POP POP SWAP3 SWAP2 POP POP JUMP JUMPDEST PUSH0 PUSH1 0x20 DUP3 DUP5 SUB SLT ISZERO PUSH2 0x6EF JUMPI PUSH2 0x6EE PUSH2 0x596 JUMP JUMPDEST JUMPDEST PUSH0 DUP3 ADD CALLDATALOAD PUSH8 0xFFFFFFFFFFFFFFFF DUP2 GT ISZERO PUSH2 0x70C JUMPI PUSH2 0x70B PUSH2 0x59A JUMP JUMPDEST JUMPDEST PUSH2 0x718 DUP5 DUP3 DUP6 ADD PUSH2 0x6AD JUMP JUMPDEST SWAP2 POP POP SWAP3 SWAP2 POP POP JUMP JUMPDEST PUSH0 DUP2 SWAP1 POP SWAP2 SWAP1 POP JUMP JUMPDEST PUSH2 0x733 DUP2 PUSH2 0x721 JUMP JUMPDEST DUP3 MSTORE POP POP JUMP JUMPDEST PUSH0 PUSH1 0x20 DUP3 ADD SWAP1 POP PUSH2 0x74C PUSH0 DUP4 ADD DUP5 PUSH2 0x72A JUMP JUMPDEST SWAP3 SWAP2 POP POP JUMP JUMPDEST PUSH0 DUP2 MLOAD SWAP1 POP SWAP2 SWAP1 POP JUMP JUMPDEST PUSH0 DUP2 SWAP1 POP SWAP3 SWAP2 POP POP JUMP JUMPDEST DUP3 DUP2 DUP4 MCOPY PUSH0 DUP4 DUP4 ADD MSTORE POP POP POP JUMP JUMPDEST PUSH0 PUSH2 0x77E DUP3 PUSH2 0x752 JUMP JUMPDEST PUSH2 0x788 DUP2 DUP6 PUSH2 0x75C JUMP JUMPDEST SWAP4 POP PUSH2 0x798 DUP2 DUP6 PUSH1 0x20 DUP7 ADD PUSH2 0x766 JUMP JUMPDEST DUP1 DUP5 ADD SWAP2 POP POP SWAP3 SWAP2 POP POP JUMP JUMPDEST PUSH0 PUSH2 0x7AF DUP3 DUP5 PUSH2 0x774 JUMP JUMPDEST SWAP2 POP DUP2 SWAP1 POP SWAP3 SWAP2 POP POP JUMP JUMPDEST PUSH0 DUP3 DUP3 MSTORE PUSH1 0x20 DUP3 ADD SWAP1 POP SWAP3 SWAP2 POP POP JUMP JUMPDEST PUSH32 0x56656869636C65206E6F74207061726B65642E00000000000000000000000000 PUSH0 DUP3 ADD MSTORE POP JUMP JUMPDEST PUSH0 PUSH2 0x7FE PUSH1 0x13 DUP4 PUSH2 0x7BA JUMP JUMPDEST SWAP2 POP PUSH2 0x809 DUP3 PUSH2 0x7CA JUMP JUMPDEST PUSH1 0x20 DUP3 ADD SWAP1 POP SWAP2 SWAP1 POP JUMP JUMPDEST PUSH0 PUSH1 0x20 DUP3 ADD SWAP1 POP DUP2 DUP2 SUB PUSH0 DUP4 ADD MSTORE PUSH2 0x82B DUP2 PUSH2 0x7F2 JUMP JUMPDEST SWAP1 POP SWAP2 SWAP1 POP JUMP JUMPDEST PUSH32 0x4E487B7100000000000000000000000000000000000000000000000000000000 PUSH0 MSTORE PUSH1 0x11 PUSH1 0x4 MSTORE PUSH1 0x24 PUSH0 REVERT JUMPDEST PUSH0 PUSH2 0x869 DUP3 PUSH2 0x721 JUMP JUMPDEST SWAP2 POP PUSH2 0x874 DUP4 PUSH2 0x721 JUMP JUMPDEST SWAP3 POP DUP3 DUP3 SUB SWAP1 POP DUP2 DUP2 GT ISZERO PUSH2 0x88C JUMPI PUSH2 0x88B PUSH2 0x832 JUMP JUMPDEST JUMPDEST SWAP3 SWAP2 POP POP JUMP JUMPDEST PUSH0 PUSH2 0x89C DUP3 PUSH2 0x721 JUMP JUMPDEST SWAP2 POP PUSH2 0x8A7 DUP4 PUSH2 0x721 JUMP JUMPDEST SWAP3 POP DUP3 DUP3 ADD SWAP1 POP DUP1 DUP3 GT ISZERO PUSH2 0x8BF JUMPI PUSH2 0x8BE PUSH2 0x832 JUMP JUMPDEST JUMPDEST SWAP3 SWAP2 POP POP JUMP JUMPDEST PUSH32 0x56656869636C6520616C7265616479207061726B65642E000000000000000000 PUSH0 DUP3 ADD MSTORE POP JUMP JUMPDEST PUSH0 PUSH2 0x8F9 PUSH1 0x17 DUP4 PUSH2 0x7BA JUMP JUMPDEST SWAP2 POP PUSH2 0x904 DUP3 PUSH2 0x8C5 JUMP JUMPDEST PUSH1 0x20 DUP3 ADD SWAP1 POP SWAP2 SWAP1 POP JUMP JUMPDEST PUSH0 PUSH1 0x20 DUP3 ADD SWAP1 POP DUP2 DUP2 SUB PUSH0 DUP4 ADD MSTORE PUSH2 0x926 DUP2 PUSH2 0x8ED JUMP JUMPDEST SWAP1 POP SWAP2 SWAP1 POP JUMP JUMPDEST PUSH32 0x4E487B7100000000000000000000000000000000000000000000000000000000 PUSH0 MSTORE PUSH1 0x12 PUSH1 0x4 MSTORE PUSH1 0x24 PUSH0 REVERT JUMPDEST PUSH0 PUSH2 0x964 DUP3 PUSH2 0x721 JUMP JUMPDEST SWAP2 POP PUSH2 0x96F DUP4 PUSH2 0x721 JUMP JUMPDEST SWAP3 POP DUP3 PUSH2 0x97F JUMPI PUSH2 0x97E PUSH2 0x92D JUMP JUMPDEST JUMPDEST DUP3 DUP3 DIV SWAP1 POP SWAP3 SWAP2 POP POP JUMP JUMPDEST PUSH0 PUSH2 0x994 DUP3 PUSH2 0x721 JUMP JUMPDEST SWAP2 POP PUSH2 0x99F DUP4 PUSH2 0x721 JUMP JUMPDEST SWAP3 POP DUP3 DUP3 MUL PUSH2 0x9AD DUP2 PUSH2 0x721 JUMP JUMPDEST SWAP2 POP DUP3 DUP3 DIV DUP5 EQ DUP4 ISZERO OR PUSH2 0x9C4 JUMPI PUSH2 0x9C3 PUSH2 0x832 JUMP JUMPDEST JUMPDEST POP SWAP3 SWAP2 POP POP JUMP JUMPDEST PUSH32 0x4E487B7100000000000000000000000000000000000000000000000000000000 PUSH0 MSTORE PUSH1 0x32 PUSH1 0x4 MSTORE PUSH1 0x24 PUSH0 REVERT INVALID LOG2 PUSH5 0x6970667358 0x22 SLT KECCAK256 REVERT RETURNDATASIZE 0xDC 0x2F 0xE1 SWAP3 BLOBHASH REVERT PUSH7 0x9CDE9FA03ACDD1 PUSH1 0xFA 0x23 DUP16 LT NUMBER 0xDF 0xB4 0xE0 SWAP7 0xF9 BLOBBASEFEE 0xE0 0xD0 PUSH12 0x4964736F6C634300081A0033 "
				},
				"gasEstimates": {
					"creation": {
						"codeDepositCost": "521200",
						"executionCost": "554",
						"totalCost": "521754"
					},
					"external": {
						"enterParking(string)": "infinite",
						"exitParking(string)": "infinite",
						"getParkingFee(string)": "infinite"
					},
					"internal": {
						"calculateParkingFee(uint256,string memory)": "infinite",
						"isAlphabetic(string memory)": "infinite",
						"isNumeric(string memory)": "infinite"
					}
				},
				"methodIdentifiers": {
					"enterParking(string)": "b4facdab",
					"exitParking(string)": "2abbc36a",
					"getParkingFee(string)": "c0666f3e"
				}
			},
			"storageLayout": {
				"storage": [
					{
						"astId": 11,
						"contract": "cordingtest/cordingtest12.sol:ParkingSystem",
						"label": "vehicles",
						"offset": 0,
						"slot": "0",
						"type": "t_mapping(t_string_memory_ptr,t_struct(Vehicle)6_storage)"
					},
					{
						"astId": 15,
						"contract": "cordingtest/cordingtest12.sol:ParkingSystem",
						"label": "parkingFees",
						"offset": 0,
						"slot": "1",
						"type": "t_mapping(t_string_memory_ptr,t_uint256)"
					}
				],
				"types": {
					"t_bool": {
						"encoding": "inplace",
						"label": "bool",
						"numberOfBytes": "1"
					},
					"t_mapping(t_string_memory_ptr,t_struct(Vehicle)6_storage)": {
						"encoding": "mapping",
						"key": "t_string_memory_ptr",
						"label": "mapping(string => struct ParkingSystem.Vehicle)",
						"numberOfBytes": "32",
						"value": "t_struct(Vehicle)6_storage"
					},
					"t_mapping(t_string_memory_ptr,t_uint256)": {
						"encoding": "mapping",
						"key": "t_string_memory_ptr",
						"label": "mapping(string => uint256)",
						"numberOfBytes": "32",
						"value": "t_uint256"
					},
					"t_string_memory_ptr": {
						"encoding": "bytes",
						"label": "string",
						"numberOfBytes": "32"
					},
					"t_struct(Vehicle)6_storage": {
						"encoding": "inplace",
						"label": "struct ParkingSystem.Vehicle",
						"members": [
							{
								"astId": 3,
								"contract": "cordingtest/cordingtest12.sol:ParkingSystem",
								"label": "entryTime",
								"offset": 0,
								"slot": "0",
								"type": "t_uint256"
							},
							{
								"astId": 5,
								"contract": "cordingtest/cordingtest12.sol:ParkingSystem",
								"label": "isParked",
								"offset": 0,
								"slot": "1",
								"type": "t_bool"
							}
						],
						"numberOfBytes": "64"
					},
					"t_uint256": {
						"encoding": "inplace",
						"label": "uint256",
						"numberOfBytes": "32"
					}
				}
			},
			"userdoc": {
				"kind": "user",
				"methods": {},
				"version": 1
			}
		}
	}
}