{
	"cordingtest/cordingtest1.sol": {
		"Test1": {
			"abi": [
				{
					"inputs": [],
					"name": "QualifiedTeacher",
					"outputs": [
						{
							"internalType": "bool",
							"name": "",
							"type": "bool"
						}
					],
					"stateMutability": "view",
					"type": "function"
				},
				{
					"inputs": [
						{
							"internalType": "string",
							"name": "_name",
							"type": "string"
						},
						{
							"internalType": "uint256",
							"name": "_number",
							"type": "uint256"
						},
						{
							"internalType": "uint256",
							"name": "_score",
							"type": "uint256"
						},
						{
							"internalType": "string",
							"name": "_class",
							"type": "string"
						}
					],
					"name": "addStudent",
					"outputs": [],
					"stateMutability": "nonpayable",
					"type": "function"
				},
				{
					"inputs": [],
					"name": "calculateAverage",
					"outputs": [
						{
							"internalType": "uint256",
							"name": "",
							"type": "uint256"
						}
					],
					"stateMutability": "view",
					"type": "function"
				},
				{
					"inputs": [
						{
							"internalType": "uint256",
							"name": "_score",
							"type": "uint256"
						}
					],
					"name": "calculateGrade",
					"outputs": [
						{
							"internalType": "string",
							"name": "",
							"type": "string"
						}
					],
					"stateMutability": "pure",
					"type": "function"
				},
				{
					"inputs": [],
					"name": "getAllStudents",
					"outputs": [
						{
							"components": [
								{
									"internalType": "string",
									"name": "name",
									"type": "string"
								},
								{
									"internalType": "uint256",
									"name": "number",
									"type": "uint256"
								},
								{
									"internalType": "uint256",
									"name": "score",
									"type": "uint256"
								},
								{
									"internalType": "string",
									"name": "grade",
									"type": "string"
								},
								{
									"internalType": "string",
									"name": "class",
									"type": "string"
								}
							],
							"internalType": "struct Test1.Student[]",
							"name": "",
							"type": "tuple[]"
						}
					],
					"stateMutability": "view",
					"type": "function"
				},
				{
					"inputs": [],
					"name": "getFStudents",
					"outputs": [
						{
							"internalType": "uint256",
							"name": "",
							"type": "uint256"
						},
						{
							"components": [
								{
									"internalType": "string",
									"name": "name",
									"type": "string"
								},
								{
									"internalType": "uint256",
									"name": "number",
									"type": "uint256"
								},
								{
									"internalType": "uint256",
									"name": "score",
									"type": "uint256"
								},
								{
									"internalType": "string",
									"name": "grade",
									"type": "string"
								},
								{
									"internalType": "string",
									"name": "class",
									"type": "string"
								}
							],
							"internalType": "struct Test1.Student[]",
							"name": "",
							"type": "tuple[]"
						}
					],
					"stateMutability": "view",
					"type": "function"
				},
				{
					"inputs": [],
					"name": "getNumberStudents",
					"outputs": [
						{
							"internalType": "uint256",
							"name": "",
							"type": "uint256"
						}
					],
					"stateMutability": "view",
					"type": "function"
				},
				{
					"inputs": [
						{
							"internalType": "string",
							"name": "_name",
							"type": "string"
						}
					],
					"name": "getScoreName",
					"outputs": [
						{
							"internalType": "uint256",
							"name": "",
							"type": "uint256"
						}
					],
					"stateMutability": "view",
					"type": "function"
				},
				{
					"inputs": [
						{
							"internalType": "string",
							"name": "_name",
							"type": "string"
						}
					],
					"name": "getStudentName",
					"outputs": [
						{
							"internalType": "string",
							"name": "",
							"type": "string"
						},
						{
							"internalType": "uint256",
							"name": "",
							"type": "uint256"
						},
						{
							"internalType": "uint256",
							"name": "",
							"type": "uint256"
						},
						{
							"internalType": "string",
							"name": "",
							"type": "string"
						},
						{
							"internalType": "string",
							"name": "",
							"type": "string"
						}
					],
					"stateMutability": "view",
					"type": "function"
				},
				{
					"inputs": [
						{
							"internalType": "uint256",
							"name": "_number",
							"type": "uint256"
						}
					],
					"name": "getStudentNumber",
					"outputs": [
						{
							"internalType": "string",
							"name": "",
							"type": "string"
						},
						{
							"internalType": "uint256",
							"name": "",
							"type": "uint256"
						},
						{
							"internalType": "uint256",
							"name": "",
							"type": "uint256"
						},
						{
							"internalType": "string",
							"name": "",
							"type": "string"
						},
						{
							"internalType": "string",
							"name": "",
							"type": "string"
						}
					],
					"stateMutability": "view",
					"type": "function"
				},
				{
					"inputs": [],
					"name": "sClass",
					"outputs": [
						{
							"components": [
								{
									"internalType": "string",
									"name": "name",
									"type": "string"
								},
								{
									"internalType": "uint256",
									"name": "number",
									"type": "uint256"
								},
								{
									"internalType": "uint256",
									"name": "score",
									"type": "uint256"
								},
								{
									"internalType": "string",
									"name": "grade",
									"type": "string"
								},
								{
									"internalType": "string",
									"name": "class",
									"type": "string"
								}
							],
							"internalType": "struct Test1.Student[]",
							"name": "",
							"type": "tuple[]"
						}
					],
					"stateMutability": "view",
					"type": "function"
				},
				{
					"inputs": [
						{
							"internalType": "uint256",
							"name": "",
							"type": "uint256"
						}
					],
					"name": "students",
					"outputs": [
						{
							"internalType": "string",
							"name": "name",
							"type": "string"
						},
						{
							"internalType": "uint256",
							"name": "number",
							"type": "uint256"
						},
						{
							"internalType": "uint256",
							"name": "score",
							"type": "uint256"
						},
						{
							"internalType": "string",
							"name": "grade",
							"type": "string"
						},
						{
							"internalType": "string",
							"name": "class",
							"type": "string"
						}
					],
					"stateMutability": "view",
					"type": "function"
				}
			],
			"devdoc": {
				"kind": "dev",
				"methods": {},
				"version": 1
			},
			"evm": {
				"assembly": "    /* \"cordingtest/cordingtest1.sol\":72:5449  contract Test1 {... */\n  mstore(0x40, 0x80)\n  callvalue\n  dup1\n  iszero\n  tag_1\n  jumpi\n  0x00\n  dup1\n  revert\ntag_1:\n  pop\n  dataSize(sub_0)\n  dup1\n  dataOffset(sub_0)\n  0x00\n  codecopy\n  0x00\n  return\nstop\n\nsub_0: assembly {\n        /* \"cordingtest/cordingtest1.sol\":72:5449  contract Test1 {... */\n      mstore(0x40, 0x80)\n      callvalue\n      dup1\n      iszero\n      tag_1\n      jumpi\n      0x00\n      dup1\n      revert\n    tag_1:\n      pop\n      jumpi(tag_2, lt(calldatasize, 0x04))\n      shr(0xe0, calldataload(0x00))\n      dup1\n      0x98463c74\n      gt\n      tag_15\n      jumpi\n      dup1\n      0x98463c74\n      eq\n      tag_9\n      jumpi\n      dup1\n      0x9ae52f0f\n      eq\n      tag_10\n      jumpi\n      dup1\n      0xc06a93d3\n      eq\n      tag_11\n      jumpi\n      dup1\n      0xe9e30927\n      eq\n      tag_12\n      jumpi\n      dup1\n      0xf317d020\n      eq\n      tag_13\n      jumpi\n      dup1\n      0xfc9b4099\n      eq\n      tag_14\n      jumpi\n      jump(tag_2)\n    tag_15:\n      dup1\n      0x06ead22e\n      eq\n      tag_3\n      jumpi\n      dup1\n      0x3bf1a7d1\n      eq\n      tag_4\n      jumpi\n      dup1\n      0x4007924b\n      eq\n      tag_5\n      jumpi\n      dup1\n      0x6191f364\n      eq\n      tag_6\n      jumpi\n      dup1\n      0x7676688b\n      eq\n      tag_7\n      jumpi\n      dup1\n      0x86be4114\n      eq\n      tag_8\n      jumpi\n    tag_2:\n      0x00\n      dup1\n      revert\n        /* \"cordingtest/cordingtest1.sol\":2043:2068  Student[] public students */\n    tag_3:\n      tag_16\n      0x04\n      dup1\n      calldatasize\n      sub\n      dup2\n      add\n      swap1\n      tag_17\n      swap2\n      swap1\n      tag_18\n      jump\t// in\n    tag_17:\n      tag_19\n      jump\t// in\n    tag_16:\n      mload(0x40)\n      tag_20\n      swap6\n      swap5\n      swap4\n      swap3\n      swap2\n      swap1\n      tag_21\n      jump\t// in\n    tag_20:\n      mload(0x40)\n      dup1\n      swap2\n      sub\n      swap1\n      return\n        /* \"cordingtest/cordingtest1.sol\":2075:2435  function calculateGrade(uint _score) public pure returns (string memory) {... */\n    tag_4:\n      tag_22\n      0x04\n      dup1\n      calldatasize\n      sub\n      dup2\n      add\n      swap1\n      tag_23\n      swap2\n      swap1\n      tag_18\n      jump\t// in\n    tag_23:\n      tag_24\n      jump\t// in\n    tag_22:\n      mload(0x40)\n      tag_25\n      swap2\n      swap1\n      tag_26\n      jump\t// in\n    tag_25:\n      mload(0x40)\n      dup1\n      swap2\n      sub\n      swap1\n      return\n        /* \"cordingtest/cordingtest1.sol\":4953:5447  function sClass() public view returns(Student[] memory) {... */\n    tag_5:\n      tag_27\n      tag_28\n      jump\t// in\n    tag_27:\n      mload(0x40)\n      tag_29\n      swap2\n      swap1\n      tag_30\n      jump\t// in\n    tag_29:\n      mload(0x40)\n      dup1\n      swap2\n      sub\n      swap1\n      return\n        /* \"cordingtest/cordingtest1.sol\":2678:2951  function getStudentNumber(uint _number) public view returns (string memory, uint, uint, string memory, string memory) {... */\n    tag_6:\n      tag_31\n      0x04\n      dup1\n      calldatasize\n      sub\n      dup2\n      add\n      swap1\n      tag_32\n      swap2\n      swap1\n      tag_18\n      jump\t// in\n    tag_32:\n      tag_33\n      jump\t// in\n    tag_31:\n      mload(0x40)\n      tag_34\n      swap6\n      swap5\n      swap4\n      swap3\n      swap2\n      swap1\n      tag_21\n      jump\t// in\n    tag_34:\n      mload(0x40)\n      dup1\n      swap2\n      sub\n      swap1\n      return\n        /* \"cordingtest/cordingtest1.sol\":3408:3722  function getScoreName(string memory _name) public view returns (uint) {... */\n    tag_7:\n      tag_35\n      0x04\n      dup1\n      calldatasize\n      sub\n      dup2\n      add\n      swap1\n      tag_36\n      swap2\n      swap1\n      tag_37\n      jump\t// in\n    tag_36:\n      tag_38\n      jump\t// in\n    tag_35:\n      mload(0x40)\n      tag_39\n      swap2\n      swap1\n      tag_40\n      jump\t// in\n    tag_39:\n      mload(0x40)\n      dup1\n      swap2\n      sub\n      swap1\n      return\n        /* \"cordingtest/cordingtest1.sol\":3932:4176  function calculateAverage() public view returns (uint) {... */\n    tag_8:\n      tag_41\n      tag_42\n      jump\t// in\n    tag_41:\n      mload(0x40)\n      tag_43\n      swap2\n      swap1\n      tag_40\n      jump\t// in\n    tag_43:\n      mload(0x40)\n      dup1\n      swap2\n      sub\n      swap1\n      return\n        /* \"cordingtest/cordingtest1.sol\":4333:4947  function getFStudents() public view returns (uint, Student[] memory) {... */\n    tag_9:\n      tag_44\n      tag_45\n      jump\t// in\n    tag_44:\n      mload(0x40)\n      tag_46\n      swap3\n      swap2\n      swap1\n      tag_47\n      jump\t// in\n    tag_46:\n      mload(0x40)\n      dup1\n      swap2\n      sub\n      swap1\n      return\n        /* \"cordingtest/cordingtest1.sol\":2441:2672  function addStudent(string memory _name, uint _number, uint _score, string memory _class) public {... */\n    tag_10:\n      tag_48\n      0x04\n      dup1\n      calldatasize\n      sub\n      dup2\n      add\n      swap1\n      tag_49\n      swap2\n      swap1\n      tag_50\n      jump\t// in\n    tag_49:\n      tag_51\n      jump\t// in\n    tag_48:\n      stop\n        /* \"cordingtest/cordingtest1.sol\":4182:4327  function QualifiedTeacher() public view returns (bool) {... */\n    tag_11:\n      tag_52\n      tag_53\n      jump\t// in\n    tag_52:\n      mload(0x40)\n      tag_54\n      swap2\n      swap1\n      tag_55\n      jump\t// in\n    tag_54:\n      mload(0x40)\n      dup1\n      swap2\n      sub\n      swap1\n      return\n        /* \"cordingtest/cordingtest1.sol\":3829:3926  function getAllStudents() public view returns (Student[] memory) {... */\n    tag_12:\n      tag_56\n      tag_57\n      jump\t// in\n    tag_56:\n      mload(0x40)\n      tag_58\n      swap2\n      swap1\n      tag_30\n      jump\t// in\n    tag_58:\n      mload(0x40)\n      dup1\n      swap2\n      sub\n      swap1\n      return\n        /* \"cordingtest/cordingtest1.sol\":2957:3402  function getStudentName(string memory _name) public view returns (string memory, uint, uint, string memory, string memory) {... */\n    tag_13:\n      tag_59\n      0x04\n      dup1\n      calldatasize\n      sub\n      dup2\n      add\n      swap1\n      tag_60\n      swap2\n      swap1\n      tag_37\n      jump\t// in\n    tag_60:\n      tag_61\n      jump\t// in\n    tag_59:\n      mload(0x40)\n      tag_62\n      swap6\n      swap5\n      swap4\n      swap3\n      swap2\n      swap1\n      tag_21\n      jump\t// in\n    tag_62:\n      mload(0x40)\n      dup1\n      swap2\n      sub\n      swap1\n      return\n        /* \"cordingtest/cordingtest1.sol\":3728:3823  function getNumberStudents() public view returns (uint) {... */\n    tag_14:\n      tag_63\n      tag_64\n      jump\t// in\n    tag_63:\n      mload(0x40)\n      tag_65\n      swap2\n      swap1\n      tag_40\n      jump\t// in\n    tag_65:\n      mload(0x40)\n      dup1\n      swap2\n      sub\n      swap1\n      return\n        /* \"cordingtest/cordingtest1.sol\":2043:2068  Student[] public students */\n    tag_19:\n      0x00\n      dup2\n      dup2\n      sload\n      dup2\n      lt\n      tag_66\n      jumpi\n      0x00\n      dup1\n      revert\n    tag_66:\n      swap1\n      0x00\n      mstore\n      keccak256(0x00, 0x20)\n      swap1\n      0x05\n      mul\n      add\n      0x00\n      swap2\n      pop\n      swap1\n      pop\n      dup1\n      0x00\n      add\n      dup1\n      sload\n      tag_68\n      swap1\n      tag_69\n      jump\t// in\n    tag_68:\n      dup1\n      0x1f\n      add\n      0x20\n      dup1\n      swap2\n      div\n      mul\n      0x20\n      add\n      mload(0x40)\n      swap1\n      dup2\n      add\n      0x40\n      mstore\n      dup1\n      swap3\n      swap2\n      swap1\n      dup2\n      dup2\n      mstore\n      0x20\n      add\n      dup3\n      dup1\n      sload\n      tag_70\n      swap1\n      tag_69\n      jump\t// in\n    tag_70:\n      dup1\n      iszero\n      tag_71\n      jumpi\n      dup1\n      0x1f\n      lt\n      tag_72\n      jumpi\n      0x0100\n      dup1\n      dup4\n      sload\n      div\n      mul\n      dup4\n      mstore\n      swap2\n      0x20\n      add\n      swap2\n      jump(tag_71)\n    tag_72:\n      dup3\n      add\n      swap2\n      swap1\n      0x00\n      mstore\n      keccak256(0x00, 0x20)\n      swap1\n    tag_73:\n      dup2\n      sload\n      dup2\n      mstore\n      swap1\n      0x01\n      add\n      swap1\n      0x20\n      add\n      dup1\n      dup4\n      gt\n      tag_73\n      jumpi\n      dup3\n      swap1\n      sub\n      0x1f\n      and\n      dup3\n      add\n      swap2\n    tag_71:\n      pop\n      pop\n      pop\n      pop\n      pop\n      swap1\n      dup1\n      0x01\n      add\n      sload\n      swap1\n      dup1\n      0x02\n      add\n      sload\n      swap1\n      dup1\n      0x03\n      add\n      dup1\n      sload\n      tag_74\n      swap1\n      tag_69\n      jump\t// in\n    tag_74:\n      dup1\n      0x1f\n      add\n      0x20\n      dup1\n      swap2\n      div\n      mul\n      0x20\n      add\n      mload(0x40)\n      swap1\n      dup2\n      add\n      0x40\n      mstore\n      dup1\n      swap3\n      swap2\n      swap1\n      dup2\n      dup2\n      mstore\n      0x20\n      add\n      dup3\n      dup1\n      sload\n      tag_75\n      swap1\n      tag_69\n      jump\t// in\n    tag_75:\n      dup1\n      iszero\n      tag_76\n      jumpi\n      dup1\n      0x1f\n      lt\n      tag_77\n      jumpi\n      0x0100\n      dup1\n      dup4\n      sload\n      div\n      mul\n      dup4\n      mstore\n      swap2\n      0x20\n      add\n      swap2\n      jump(tag_76)\n    tag_77:\n      dup3\n      add\n      swap2\n      swap1\n      0x00\n      mstore\n      keccak256(0x00, 0x20)\n      swap1\n    tag_78:\n      dup2\n      sload\n      dup2\n      mstore\n      swap1\n      0x01\n      add\n      swap1\n      0x20\n      add\n      dup1\n      dup4\n      gt\n      tag_78\n      jumpi\n      dup3\n      swap1\n      sub\n      0x1f\n      and\n      dup3\n      add\n      swap2\n    tag_76:\n      pop\n      pop\n      pop\n      pop\n      pop\n      swap1\n      dup1\n      0x04\n      add\n      dup1\n      sload\n      tag_79\n      swap1\n      tag_69\n      jump\t// in\n    tag_79:\n      dup1\n      0x1f\n      add\n      0x20\n      dup1\n      swap2\n      div\n      mul\n      0x20\n      add\n      mload(0x40)\n      swap1\n      dup2\n      add\n      0x40\n      mstore\n      dup1\n      swap3\n      swap2\n      swap1\n      dup2\n      dup2\n      mstore\n      0x20\n      add\n      dup3\n      dup1\n      sload\n      tag_80\n      swap1\n      tag_69\n      jump\t// in\n    tag_80:\n      dup1\n      iszero\n      tag_81\n      jumpi\n      dup1\n      0x1f\n      lt\n      tag_82\n      jumpi\n      0x0100\n      dup1\n      dup4\n      sload\n      div\n      mul\n      dup4\n      mstore\n      swap2\n      0x20\n      add\n      swap2\n      jump(tag_81)\n    tag_82:\n      dup3\n      add\n      swap2\n      swap1\n      0x00\n      mstore\n      keccak256(0x00, 0x20)\n      swap1\n    tag_83:\n      dup2\n      sload\n      dup2\n      mstore\n      swap1\n      0x01\n      add\n      swap1\n      0x20\n      add\n      dup1\n      dup4\n      gt\n      tag_83\n      jumpi\n      dup3\n      swap1\n      sub\n      0x1f\n      and\n      dup3\n      add\n      swap2\n    tag_81:\n      pop\n      pop\n      pop\n      pop\n      pop\n      swap1\n      pop\n      dup6\n      jump\t// out\n        /* \"cordingtest/cordingtest1.sol\":2075:2435  function calculateGrade(uint _score) public pure returns (string memory) {... */\n    tag_24:\n        /* \"cordingtest/cordingtest1.sol\":2133:2146  string memory */\n      0x60\n        /* \"cordingtest/cordingtest1.sol\":2172:2174  90 */\n      0x5a\n        /* \"cordingtest/cordingtest1.sol\":2162:2168  _score */\n      dup3\n        /* \"cordingtest/cordingtest1.sol\":2162:2174  _score >= 90 */\n      lt\n        /* \"cordingtest/cordingtest1.sol\":2158:2429  if (_score >= 90) {... */\n      tag_85\n      jumpi\n        /* \"cordingtest/cordingtest1.sol\":2190:2200  return \"A\" */\n      mload(0x40)\n      dup1\n      0x40\n      add\n      0x40\n      mstore\n      dup1\n      0x01\n      dup2\n      mstore\n      0x20\n      add\n      0x4100000000000000000000000000000000000000000000000000000000000000\n      dup2\n      mstore\n      pop\n      swap1\n      pop\n      jump(tag_84)\n        /* \"cordingtest/cordingtest1.sol\":2158:2429  if (_score >= 90) {... */\n    tag_85:\n        /* \"cordingtest/cordingtest1.sol\":2231:2233  80 */\n      0x50\n        /* \"cordingtest/cordingtest1.sol\":2221:2227  _score */\n      dup3\n        /* \"cordingtest/cordingtest1.sol\":2221:2233  _score >= 80 */\n      lt\n        /* \"cordingtest/cordingtest1.sol\":2217:2429  if (_score >= 80) {... */\n      tag_87\n      jumpi\n        /* \"cordingtest/cordingtest1.sol\":2249:2259  return \"B\" */\n      mload(0x40)\n      dup1\n      0x40\n      add\n      0x40\n      mstore\n      dup1\n      0x01\n      dup2\n      mstore\n      0x20\n      add\n      0x4200000000000000000000000000000000000000000000000000000000000000\n      dup2\n      mstore\n      pop\n      swap1\n      pop\n      jump(tag_84)\n        /* \"cordingtest/cordingtest1.sol\":2217:2429  if (_score >= 80) {... */\n    tag_87:\n        /* \"cordingtest/cordingtest1.sol\":2290:2292  70 */\n      0x46\n        /* \"cordingtest/cordingtest1.sol\":2280:2286  _score */\n      dup3\n        /* \"cordingtest/cordingtest1.sol\":2280:2292  _score >= 70 */\n      lt\n        /* \"cordingtest/cordingtest1.sol\":2276:2429  if (_score >= 70) {... */\n      tag_89\n      jumpi\n        /* \"cordingtest/cordingtest1.sol\":2308:2318  return \"C\" */\n      mload(0x40)\n      dup1\n      0x40\n      add\n      0x40\n      mstore\n      dup1\n      0x01\n      dup2\n      mstore\n      0x20\n      add\n      0x4300000000000000000000000000000000000000000000000000000000000000\n      dup2\n      mstore\n      pop\n      swap1\n      pop\n      jump(tag_84)\n        /* \"cordingtest/cordingtest1.sol\":2276:2429  if (_score >= 70) {... */\n    tag_89:\n        /* \"cordingtest/cordingtest1.sol\":2349:2351  60 */\n      0x3c\n        /* \"cordingtest/cordingtest1.sol\":2339:2345  _score */\n      dup3\n        /* \"cordingtest/cordingtest1.sol\":2339:2351  _score >= 60 */\n      lt\n        /* \"cordingtest/cordingtest1.sol\":2335:2429  if (_score >= 60) {... */\n      tag_91\n      jumpi\n        /* \"cordingtest/cordingtest1.sol\":2367:2377  return \"D\" */\n      mload(0x40)\n      dup1\n      0x40\n      add\n      0x40\n      mstore\n      dup1\n      0x01\n      dup2\n      mstore\n      0x20\n      add\n      0x4400000000000000000000000000000000000000000000000000000000000000\n      dup2\n      mstore\n      pop\n      swap1\n      pop\n      jump(tag_84)\n        /* \"cordingtest/cordingtest1.sol\":2335:2429  if (_score >= 60) {... */\n    tag_91:\n        /* \"cordingtest/cordingtest1.sol\":2408:2418  return \"F\" */\n      mload(0x40)\n      dup1\n      0x40\n      add\n      0x40\n      mstore\n      dup1\n      0x01\n      dup2\n      mstore\n      0x20\n      add\n      0x4600000000000000000000000000000000000000000000000000000000000000\n      dup2\n      mstore\n      pop\n      swap1\n      pop\n        /* \"cordingtest/cordingtest1.sol\":2075:2435  function calculateGrade(uint _score) public pure returns (string memory) {... */\n    tag_84:\n      swap2\n      swap1\n      pop\n      jump\t// out\n        /* \"cordingtest/cordingtest1.sol\":4953:5447  function sClass() public view returns(Student[] memory) {... */\n    tag_28:\n        /* \"cordingtest/cordingtest1.sol\":4991:5007  Student[] memory */\n      0x60\n        /* \"cordingtest/cordingtest1.sol\":5015:5041  Student[] memory _students */\n      0x00\n        /* \"cordingtest/cordingtest1.sol\":5044:5052  students */\n      dup1\n        /* \"cordingtest/cordingtest1.sol\":5015:5052  Student[] memory _students = students */\n      dup1\n      sload\n      dup1\n      0x20\n      mul\n      0x20\n      add\n      mload(0x40)\n      swap1\n      dup2\n      add\n      0x40\n      mstore\n      dup1\n      swap3\n      swap2\n      swap1\n      dup2\n      dup2\n      mstore\n      0x20\n      add\n      0x00\n      swap1\n    tag_94:\n      dup3\n      dup3\n      lt\n      iszero\n      tag_95\n      jumpi\n      dup4\n      dup3\n      swap1\n      0x00\n      mstore\n      keccak256(0x00, 0x20)\n      swap1\n      0x05\n      mul\n      add\n      mload(0x40)\n      dup1\n      0xa0\n      add\n      0x40\n      mstore\n      swap1\n      dup2\n      0x00\n      dup3\n      add\n      dup1\n      sload\n      tag_97\n      swap1\n      tag_69\n      jump\t// in\n    tag_97:\n      dup1\n      0x1f\n      add\n      0x20\n      dup1\n      swap2\n      div\n      mul\n      0x20\n      add\n      mload(0x40)\n      swap1\n      dup2\n      add\n      0x40\n      mstore\n      dup1\n      swap3\n      swap2\n      swap1\n      dup2\n      dup2\n      mstore\n      0x20\n      add\n      dup3\n      dup1\n      sload\n      tag_98\n      swap1\n      tag_69\n      jump\t// in\n    tag_98:\n      dup1\n      iszero\n      tag_99\n      jumpi\n      dup1\n      0x1f\n      lt\n      tag_100\n      jumpi\n      0x0100\n      dup1\n      dup4\n      sload\n      div\n      mul\n      dup4\n      mstore\n      swap2\n      0x20\n      add\n      swap2\n      jump(tag_99)\n    tag_100:\n      dup3\n      add\n      swap2\n      swap1\n      0x00\n      mstore\n      keccak256(0x00, 0x20)\n      swap1\n    tag_101:\n      dup2\n      sload\n      dup2\n      mstore\n      swap1\n      0x01\n      add\n      swap1\n      0x20\n      add\n      dup1\n      dup4\n      gt\n      tag_101\n      jumpi\n      dup3\n      swap1\n      sub\n      0x1f\n      and\n      dup3\n      add\n      swap2\n    tag_99:\n      pop\n      pop\n      pop\n      pop\n      pop\n      dup2\n      mstore\n      0x20\n      add\n      0x01\n      dup3\n      add\n      sload\n      dup2\n      mstore\n      0x20\n      add\n      0x02\n      dup3\n      add\n      sload\n      dup2\n      mstore\n      0x20\n      add\n      0x03\n      dup3\n      add\n      dup1\n      sload\n      tag_102\n      swap1\n      tag_69\n      jump\t// in\n    tag_102:\n      dup1\n      0x1f\n      add\n      0x20\n      dup1\n      swap2\n      div\n      mul\n      0x20\n      add\n      mload(0x40)\n      swap1\n      dup2\n      add\n      0x40\n      mstore\n      dup1\n      swap3\n      swap2\n      swap1\n      dup2\n      dup2\n      mstore\n      0x20\n      add\n      dup3\n      dup1\n      sload\n      tag_103\n      swap1\n      tag_69\n      jump\t// in\n    tag_103:\n      dup1\n      iszero\n      tag_104\n      jumpi\n      dup1\n      0x1f\n      lt\n      tag_105\n      jumpi\n      0x0100\n      dup1\n      dup4\n      sload\n      div\n      mul\n      dup4\n      mstore\n      swap2\n      0x20\n      add\n      swap2\n      jump(tag_104)\n    tag_105:\n      dup3\n      add\n      swap2\n      swap1\n      0x00\n      mstore\n      keccak256(0x00, 0x20)\n      swap1\n    tag_106:\n      dup2\n      sload\n      dup2\n      mstore\n      swap1\n      0x01\n      add\n      swap1\n      0x20\n      add\n      dup1\n      dup4\n      gt\n      tag_106\n      jumpi\n      dup3\n      swap1\n      sub\n      0x1f\n      and\n      dup3\n      add\n      swap2\n    tag_104:\n      pop\n      pop\n      pop\n      pop\n      pop\n      dup2\n      mstore\n      0x20\n      add\n      0x04\n      dup3\n      add\n      dup1\n      sload\n      tag_107\n      swap1\n      tag_69\n      jump\t// in\n    tag_107:\n      dup1\n      0x1f\n      add\n      0x20\n      dup1\n      swap2\n      div\n      mul\n      0x20\n      add\n      mload(0x40)\n      swap1\n      dup2\n      add\n      0x40\n      mstore\n      dup1\n      swap3\n      swap2\n      swap1\n      dup2\n      dup2\n      mstore\n      0x20\n      add\n      dup3\n      dup1\n      sload\n      tag_108\n      swap1\n      tag_69\n      jump\t// in\n    tag_108:\n      dup1\n      iszero\n      tag_109\n      jumpi\n      dup1\n      0x1f\n      lt\n      tag_110\n      jumpi\n      0x0100\n      dup1\n      dup4\n      sload\n      div\n      mul\n      dup4\n      mstore\n      swap2\n      0x20\n      add\n      swap2\n      jump(tag_109)\n    tag_110:\n      dup3\n      add\n      swap2\n      swap1\n      0x00\n      mstore\n      keccak256(0x00, 0x20)\n      swap1\n    tag_111:\n      dup2\n      sload\n      dup2\n      mstore\n      swap1\n      0x01\n      add\n      swap1\n      0x20\n      add\n      dup1\n      dup4\n      gt\n      tag_111\n      jumpi\n      dup3\n      swap1\n      sub\n      0x1f\n      and\n      dup3\n      add\n      swap2\n    tag_109:\n      pop\n      pop\n      pop\n      pop\n      pop\n      dup2\n      mstore\n      pop\n      pop\n      dup2\n      mstore\n      0x20\n      add\n      swap1\n      0x01\n      add\n      swap1\n      jump(tag_94)\n    tag_95:\n      pop\n      pop\n      pop\n      pop\n      swap1\n      pop\n        /* \"cordingtest/cordingtest1.sol\":5062:5068  uint i */\n      0x00\n        /* \"cordingtest/cordingtest1.sol\":5058:5314  for(uint i=0; i<_students.length; i++) {... */\n    tag_112:\n        /* \"cordingtest/cordingtest1.sol\":5074:5083  _students */\n      dup2\n        /* \"cordingtest/cordingtest1.sol\":5074:5090  _students.length */\n      mload\n        /* \"cordingtest/cordingtest1.sol\":5072:5073  i */\n      dup2\n        /* \"cordingtest/cordingtest1.sol\":5072:5090  i<_students.length */\n      lt\n        /* \"cordingtest/cordingtest1.sol\":5058:5314  for(uint i=0; i<_students.length; i++) {... */\n      iszero\n      tag_113\n      jumpi\n        /* \"cordingtest/cordingtest1.sol\":5111:5117  uint j */\n      0x00\n        /* \"cordingtest/cordingtest1.sol\":5120:5121  1 */\n      0x01\n        /* \"cordingtest/cordingtest1.sol\":5118:5119  i */\n      dup3\n        /* \"cordingtest/cordingtest1.sol\":5118:5121  i+1 */\n      tag_118\n      swap2\n      swap1\n      tag_119\n      jump\t// in\n    tag_118:\n        /* \"cordingtest/cordingtest1.sol\":5111:5121  uint j=i+1 */\n      swap1\n      pop\n        /* \"cordingtest/cordingtest1.sol\":5107:5308  for(uint j=i+1; j<_students.length; j++) {... */\n    tag_115:\n        /* \"cordingtest/cordingtest1.sol\":5125:5134  _students */\n      dup3\n        /* \"cordingtest/cordingtest1.sol\":5125:5141  _students.length */\n      mload\n        /* \"cordingtest/cordingtest1.sol\":5123:5124  j */\n      dup2\n        /* \"cordingtest/cordingtest1.sol\":5123:5141  j<_students.length */\n      lt\n        /* \"cordingtest/cordingtest1.sol\":5107:5308  for(uint j=i+1; j<_students.length; j++) {... */\n      iszero\n      tag_116\n      jumpi\n        /* \"cordingtest/cordingtest1.sol\":5186:5195  _students */\n      dup3\n        /* \"cordingtest/cordingtest1.sol\":5196:5197  j */\n      dup2\n        /* \"cordingtest/cordingtest1.sol\":5186:5198  _students[j] */\n      dup2\n      mload\n      dup2\n      lt\n      tag_120\n      jumpi\n      tag_121\n      tag_122\n      jump\t// in\n    tag_121:\n    tag_120:\n      0x20\n      mul\n      0x20\n      add\n      add\n      mload\n        /* \"cordingtest/cordingtest1.sol\":5186:5204  _students[j].score */\n      0x40\n      add\n      mload\n        /* \"cordingtest/cordingtest1.sol\":5165:5174  _students */\n      dup4\n        /* \"cordingtest/cordingtest1.sol\":5175:5176  i */\n      dup4\n        /* \"cordingtest/cordingtest1.sol\":5165:5177  _students[i] */\n      dup2\n      mload\n      dup2\n      lt\n      tag_123\n      jumpi\n      tag_124\n      tag_122\n      jump\t// in\n    tag_124:\n    tag_123:\n      0x20\n      mul\n      0x20\n      add\n      add\n      mload\n        /* \"cordingtest/cordingtest1.sol\":5165:5183  _students[i].score */\n      0x40\n      add\n      mload\n        /* \"cordingtest/cordingtest1.sol\":5165:5204  _students[i].score < _students[j].score */\n      lt\n        /* \"cordingtest/cordingtest1.sol\":5162:5298  if(_students[i].score < _students[j].score) {... */\n      iszero\n      tag_125\n      jumpi\n        /* \"cordingtest/cordingtest1.sol\":5256:5265  _students */\n      dup3\n        /* \"cordingtest/cordingtest1.sol\":5266:5267  j */\n      dup2\n        /* \"cordingtest/cordingtest1.sol\":5256:5268  _students[j] */\n      dup2\n      mload\n      dup2\n      lt\n      tag_126\n      jumpi\n      tag_127\n      tag_122\n      jump\t// in\n    tag_127:\n    tag_126:\n      0x20\n      mul\n      0x20\n      add\n      add\n      mload\n        /* \"cordingtest/cordingtest1.sol\":5270:5279  _students */\n      dup4\n        /* \"cordingtest/cordingtest1.sol\":5280:5281  i */\n      dup4\n        /* \"cordingtest/cordingtest1.sol\":5270:5282  _students[i] */\n      dup2\n      mload\n      dup2\n      lt\n      tag_128\n      jumpi\n      tag_129\n      tag_122\n      jump\t// in\n    tag_129:\n    tag_128:\n      0x20\n      mul\n      0x20\n      add\n      add\n      mload\n        /* \"cordingtest/cordingtest1.sol\":5225:5234  _students */\n      dup5\n        /* \"cordingtest/cordingtest1.sol\":5235:5236  i */\n      dup5\n        /* \"cordingtest/cordingtest1.sol\":5225:5237  _students[i] */\n      dup2\n      mload\n      dup2\n      lt\n      tag_130\n      jumpi\n      tag_131\n      tag_122\n      jump\t// in\n    tag_131:\n    tag_130:\n      0x20\n      mul\n      0x20\n      add\n      add\n        /* \"cordingtest/cordingtest1.sol\":5239:5248  _students */\n      dup6\n        /* \"cordingtest/cordingtest1.sol\":5249:5250  j */\n      dup5\n        /* \"cordingtest/cordingtest1.sol\":5239:5251  _students[j] */\n      dup2\n      mload\n      dup2\n      lt\n      tag_132\n      jumpi\n      tag_133\n      tag_122\n      jump\t// in\n    tag_133:\n    tag_132:\n      0x20\n      mul\n      0x20\n      add\n      add\n        /* \"cordingtest/cordingtest1.sol\":5224:5283  (_students[i], _students[j]) = (_students[j], _students[i]) */\n      dup3\n      swap1\n      mstore\n      dup3\n      swap1\n      mstore\n      pop\n      pop\n        /* \"cordingtest/cordingtest1.sol\":5162:5298  if(_students[i].score < _students[j].score) {... */\n    tag_125:\n        /* \"cordingtest/cordingtest1.sol\":5143:5146  j++ */\n      dup1\n      dup1\n      0x01\n      add\n      swap2\n      pop\n      pop\n        /* \"cordingtest/cordingtest1.sol\":5107:5308  for(uint j=i+1; j<_students.length; j++) {... */\n      jump(tag_115)\n    tag_116:\n      pop\n        /* \"cordingtest/cordingtest1.sol\":5092:5095  i++ */\n      dup1\n      dup1\n      0x01\n      add\n      swap2\n      pop\n      pop\n        /* \"cordingtest/cordingtest1.sol\":5058:5314  for(uint i=0; i<_students.length; i++) {... */\n      jump(tag_112)\n    tag_113:\n      pop\n        /* \"cordingtest/cordingtest1.sol\":5320:5339  Student[] memory _s */\n      0x00\n        /* \"cordingtest/cordingtest1.sol\":5356:5357  4 */\n      0x04\n        /* \"cordingtest/cordingtest1.sol\":5342:5358  new Student[](4) */\n      0xffffffffffffffff\n      dup2\n      gt\n      iszero\n      tag_134\n      jumpi\n      tag_135\n      tag_136\n      jump\t// in\n    tag_135:\n    tag_134:\n      mload(0x40)\n      swap1\n      dup1\n      dup3\n      mstore\n      dup1\n      0x20\n      mul\n      0x20\n      add\n      dup3\n      add\n      0x40\n      mstore\n      dup1\n      iszero\n      tag_137\n      jumpi\n      dup2\n      0x20\n      add\n    tag_138:\n      tag_139\n      tag_140\n      jump\t// in\n    tag_139:\n      dup2\n      mstore\n      0x20\n      add\n      swap1\n      0x01\n      swap1\n      sub\n      swap1\n      dup2\n      tag_138\n      jumpi\n      swap1\n      pop\n    tag_137:\n      pop\n        /* \"cordingtest/cordingtest1.sol\":5320:5358  Student[] memory _s = new Student[](4) */\n      swap1\n      pop\n        /* \"cordingtest/cordingtest1.sol\":5368:5374  uint i */\n      0x00\n        /* \"cordingtest/cordingtest1.sol\":5364:5425  for(uint i=0; i<4; i++) {... */\n    tag_141:\n        /* \"cordingtest/cordingtest1.sol\":5380:5381  4 */\n      0x04\n        /* \"cordingtest/cordingtest1.sol\":5378:5379  i */\n      dup2\n        /* \"cordingtest/cordingtest1.sol\":5378:5381  i<4 */\n      lt\n        /* \"cordingtest/cordingtest1.sol\":5364:5425  for(uint i=0; i<4; i++) {... */\n      iszero\n      tag_142\n      jumpi\n        /* \"cordingtest/cordingtest1.sol\":5406:5415  _students */\n      dup3\n        /* \"cordingtest/cordingtest1.sol\":5416:5417  i */\n      dup2\n        /* \"cordingtest/cordingtest1.sol\":5406:5418  _students[i] */\n      dup2\n      mload\n      dup2\n      lt\n      tag_144\n      jumpi\n      tag_145\n      tag_122\n      jump\t// in\n    tag_145:\n    tag_144:\n      0x20\n      mul\n      0x20\n      add\n      add\n      mload\n        /* \"cordingtest/cordingtest1.sol\":5398:5400  _s */\n      dup3\n        /* \"cordingtest/cordingtest1.sol\":5401:5402  i */\n      dup3\n        /* \"cordingtest/cordingtest1.sol\":5398:5403  _s[i] */\n      dup2\n      mload\n      dup2\n      lt\n      tag_146\n      jumpi\n      tag_147\n      tag_122\n      jump\t// in\n    tag_147:\n    tag_146:\n      0x20\n      mul\n      0x20\n      add\n      add\n        /* \"cordingtest/cordingtest1.sol\":5398:5418  _s[i] = _students[i] */\n      dup2\n      swap1\n      mstore\n      pop\n        /* \"cordingtest/cordingtest1.sol\":5383:5386  i++ */\n      dup1\n      dup1\n      0x01\n      add\n      swap2\n      pop\n      pop\n        /* \"cordingtest/cordingtest1.sol\":5364:5425  for(uint i=0; i<4; i++) {... */\n      jump(tag_141)\n    tag_142:\n      pop\n        /* \"cordingtest/cordingtest1.sol\":5438:5440  _s */\n      dup1\n        /* \"cordingtest/cordingtest1.sol\":5431:5440  return _s */\n      swap3\n      pop\n      pop\n      pop\n        /* \"cordingtest/cordingtest1.sol\":4953:5447  function sClass() public view returns(Student[] memory) {... */\n      swap1\n      jump\t// out\n        /* \"cordingtest/cordingtest1.sol\":2678:2951  function getStudentNumber(uint _number) public view returns (string memory, uint, uint, string memory, string memory) {... */\n    tag_33:\n        /* \"cordingtest/cordingtest1.sol\":2739:2752  string memory */\n      0x60\n        /* \"cordingtest/cordingtest1.sol\":2754:2758  uint */\n      0x00\n        /* \"cordingtest/cordingtest1.sol\":2760:2764  uint */\n      dup1\n        /* \"cordingtest/cordingtest1.sol\":2766:2779  string memory */\n      0x60\n        /* \"cordingtest/cordingtest1.sol\":2781:2794  string memory */\n      dup1\n        /* \"cordingtest/cordingtest1.sol\":2806:2828  Student memory student */\n      0x00\n        /* \"cordingtest/cordingtest1.sol\":2831:2839  students */\n      dup1\n        /* \"cordingtest/cordingtest1.sol\":2850:2851  1 */\n      0x01\n        /* \"cordingtest/cordingtest1.sol\":2840:2847  _number */\n      dup9\n        /* \"cordingtest/cordingtest1.sol\":2840:2851  _number - 1 */\n      tag_149\n      swap2\n      swap1\n      tag_150\n      jump\t// in\n    tag_149:\n        /* \"cordingtest/cordingtest1.sol\":2831:2852  students[_number - 1] */\n      dup2\n      sload\n      dup2\n      lt\n      tag_151\n      jumpi\n      tag_152\n      tag_122\n      jump\t// in\n    tag_152:\n    tag_151:\n      swap1\n      0x00\n      mstore\n      keccak256(0x00, 0x20)\n      swap1\n      0x05\n      mul\n      add\n        /* \"cordingtest/cordingtest1.sol\":2806:2852  Student memory student = students[_number - 1] */\n      mload(0x40)\n      dup1\n      0xa0\n      add\n      0x40\n      mstore\n      swap1\n      dup2\n      0x00\n      dup3\n      add\n      dup1\n      sload\n      tag_154\n      swap1\n      tag_69\n      jump\t// in\n    tag_154:\n      dup1\n      0x1f\n      add\n      0x20\n      dup1\n      swap2\n      div\n      mul\n      0x20\n      add\n      mload(0x40)\n      swap1\n      dup2\n      add\n      0x40\n      mstore\n      dup1\n      swap3\n      swap2\n      swap1\n      dup2\n      dup2\n      mstore\n      0x20\n      add\n      dup3\n      dup1\n      sload\n      tag_155\n      swap1\n      tag_69\n      jump\t// in\n    tag_155:\n      dup1\n      iszero\n      tag_156\n      jumpi\n      dup1\n      0x1f\n      lt\n      tag_157\n      jumpi\n      0x0100\n      dup1\n      dup4\n      sload\n      div\n      mul\n      dup4\n      mstore\n      swap2\n      0x20\n      add\n      swap2\n      jump(tag_156)\n    tag_157:\n      dup3\n      add\n      swap2\n      swap1\n      0x00\n      mstore\n      keccak256(0x00, 0x20)\n      swap1\n    tag_158:\n      dup2\n      sload\n      dup2\n      mstore\n      swap1\n      0x01\n      add\n      swap1\n      0x20\n      add\n      dup1\n      dup4\n      gt\n      tag_158\n      jumpi\n      dup3\n      swap1\n      sub\n      0x1f\n      and\n      dup3\n      add\n      swap2\n    tag_156:\n      pop\n      pop\n      pop\n      pop\n      pop\n      dup2\n      mstore\n      0x20\n      add\n      0x01\n      dup3\n      add\n      sload\n      dup2\n      mstore\n      0x20\n      add\n      0x02\n      dup3\n      add\n      sload\n      dup2\n      mstore\n      0x20\n      add\n      0x03\n      dup3\n      add\n      dup1\n      sload\n      tag_159\n      swap1\n      tag_69\n      jump\t// in\n    tag_159:\n      dup1\n      0x1f\n      add\n      0x20\n      dup1\n      swap2\n      div\n      mul\n      0x20\n      add\n      mload(0x40)\n      swap1\n      dup2\n      add\n      0x40\n      mstore\n      dup1\n      swap3\n      swap2\n      swap1\n      dup2\n      dup2\n      mstore\n      0x20\n      add\n      dup3\n      dup1\n      sload\n      tag_160\n      swap1\n      tag_69\n      jump\t// in\n    tag_160:\n      dup1\n      iszero\n      tag_161\n      jumpi\n      dup1\n      0x1f\n      lt\n      tag_162\n      jumpi\n      0x0100\n      dup1\n      dup4\n      sload\n      div\n      mul\n      dup4\n      mstore\n      swap2\n      0x20\n      add\n      swap2\n      jump(tag_161)\n    tag_162:\n      dup3\n      add\n      swap2\n      swap1\n      0x00\n      mstore\n      keccak256(0x00, 0x20)\n      swap1\n    tag_163:\n      dup2\n      sload\n      dup2\n      mstore\n      swap1\n      0x01\n      add\n      swap1\n      0x20\n      add\n      dup1\n      dup4\n      gt\n      tag_163\n      jumpi\n      dup3\n      swap1\n      sub\n      0x1f\n      and\n      dup3\n      add\n      swap2\n    tag_161:\n      pop\n      pop\n      pop\n      pop\n      pop\n      dup2\n      mstore\n      0x20\n      add\n      0x04\n      dup3\n      add\n      dup1\n      sload\n      tag_164\n      swap1\n      tag_69\n      jump\t// in\n    tag_164:\n      dup1\n      0x1f\n      add\n      0x20\n      dup1\n      swap2\n      div\n      mul\n      0x20\n      add\n      mload(0x40)\n      swap1\n      dup2\n      add\n      0x40\n      mstore\n      dup1\n      swap3\n      swap2\n      swap1\n      dup2\n      dup2\n      mstore\n      0x20\n      add\n      dup3\n      dup1\n      sload\n      tag_165\n      swap1\n      tag_69\n      jump\t// in\n    tag_165:\n      dup1\n      iszero\n      tag_166\n      jumpi\n      dup1\n      0x1f\n      lt\n      tag_167\n      jumpi\n      0x0100\n      dup1\n      dup4\n      sload\n      div\n      mul\n      dup4\n      mstore\n      swap2\n      0x20\n      add\n      swap2\n      jump(tag_166)\n    tag_167:\n      dup3\n      add\n      swap2\n      swap1\n      0x00\n      mstore\n      keccak256(0x00, 0x20)\n      swap1\n    tag_168:\n      dup2\n      sload\n      dup2\n      mstore\n      swap1\n      0x01\n      add\n      swap1\n      0x20\n      add\n      dup1\n      dup4\n      gt\n      tag_168\n      jumpi\n      dup3\n      swap1\n      sub\n      0x1f\n      and\n      dup3\n      add\n      swap2\n    tag_166:\n      pop\n      pop\n      pop\n      pop\n      pop\n      dup2\n      mstore\n      pop\n      pop\n      swap1\n      pop\n        /* \"cordingtest/cordingtest1.sol\":2870:2877  student */\n      dup1\n        /* \"cordingtest/cordingtest1.sol\":2870:2882  student.name */\n      0x00\n      add\n      mload\n        /* \"cordingtest/cordingtest1.sol\":2884:2891  student */\n      dup2\n        /* \"cordingtest/cordingtest1.sol\":2884:2898  student.number */\n      0x20\n      add\n      mload\n        /* \"cordingtest/cordingtest1.sol\":2900:2907  student */\n      dup3\n        /* \"cordingtest/cordingtest1.sol\":2900:2913  student.score */\n      0x40\n      add\n      mload\n        /* \"cordingtest/cordingtest1.sol\":2915:2922  student */\n      dup4\n        /* \"cordingtest/cordingtest1.sol\":2915:2928  student.grade */\n      0x60\n      add\n      mload\n        /* \"cordingtest/cordingtest1.sol\":2930:2937  student */\n      dup5\n        /* \"cordingtest/cordingtest1.sol\":2930:2943  student.class */\n      0x80\n      add\n      mload\n        /* \"cordingtest/cordingtest1.sol\":2862:2944  return (student.name, student.number, student.score, student.grade, student.class) */\n      swap6\n      pop\n      swap6\n      pop\n      swap6\n      pop\n      swap6\n      pop\n      swap6\n      pop\n      pop\n        /* \"cordingtest/cordingtest1.sol\":2678:2951  function getStudentNumber(uint _number) public view returns (string memory, uint, uint, string memory, string memory) {... */\n      swap2\n      swap4\n      swap6\n      swap1\n      swap3\n      swap5\n      pop\n      jump\t// out\n        /* \"cordingtest/cordingtest1.sol\":3408:3722  function getScoreName(string memory _name) public view returns (uint) {... */\n    tag_38:\n        /* \"cordingtest/cordingtest1.sol\":3472:3476  uint */\n      0x00\n        /* \"cordingtest/cordingtest1.sol\":3493:3499  uint i */\n      dup1\n        /* \"cordingtest/cordingtest1.sol\":3502:3503  0 */\n      0x00\n        /* \"cordingtest/cordingtest1.sol\":3493:3503  uint i = 0 */\n      swap1\n      pop\n        /* \"cordingtest/cordingtest1.sol\":3488:3679  for (uint i = 0; i < students.length; i++) {... */\n    tag_170:\n        /* \"cordingtest/cordingtest1.sol\":3509:3517  students */\n      0x00\n        /* \"cordingtest/cordingtest1.sol\":3509:3524  students.length */\n      dup1\n      sload\n      swap1\n      pop\n        /* \"cordingtest/cordingtest1.sol\":3505:3506  i */\n      dup2\n        /* \"cordingtest/cordingtest1.sol\":3505:3524  i < students.length */\n      lt\n        /* \"cordingtest/cordingtest1.sol\":3488:3679  for (uint i = 0; i < students.length; i++) {... */\n      iszero\n      tag_171\n      jumpi\n        /* \"cordingtest/cordingtest1.sol\":3603:3608  _name */\n      dup3\n        /* \"cordingtest/cordingtest1.sol\":3587:3610  keccak256(bytes(_name)) */\n      dup1\n      mload\n      swap1\n      0x20\n      add\n      keccak256\n        /* \"cordingtest/cordingtest1.sol\":3565:3573  students */\n      0x00\n        /* \"cordingtest/cordingtest1.sol\":3574:3575  i */\n      dup3\n        /* \"cordingtest/cordingtest1.sol\":3565:3576  students[i] */\n      dup2\n      sload\n      dup2\n      lt\n      tag_173\n      jumpi\n      tag_174\n      tag_122\n      jump\t// in\n    tag_174:\n    tag_173:\n      swap1\n      0x00\n      mstore\n      keccak256(0x00, 0x20)\n      swap1\n      0x05\n      mul\n      add\n        /* \"cordingtest/cordingtest1.sol\":3565:3581  students[i].name */\n      0x00\n      add\n        /* \"cordingtest/cordingtest1.sol\":3549:3583  keccak256(bytes(students[i].name)) */\n      mload(0x40)\n      tag_176\n      swap2\n      swap1\n      tag_177\n      jump\t// in\n    tag_176:\n      mload(0x40)\n      dup1\n      swap2\n      sub\n      swap1\n      keccak256\n        /* \"cordingtest/cordingtest1.sol\":3549:3610  keccak256(bytes(students[i].name)) == keccak256(bytes(_name)) */\n      sub\n        /* \"cordingtest/cordingtest1.sol\":3545:3669  if (keccak256(bytes(students[i].name)) == keccak256(bytes(_name))) {... */\n      tag_178\n      jumpi\n        /* \"cordingtest/cordingtest1.sol\":3637:3645  students */\n      0x00\n        /* \"cordingtest/cordingtest1.sol\":3646:3647  i */\n      dup2\n        /* \"cordingtest/cordingtest1.sol\":3637:3648  students[i] */\n      dup2\n      sload\n      dup2\n      lt\n      tag_179\n      jumpi\n      tag_180\n      tag_122\n      jump\t// in\n    tag_180:\n    tag_179:\n      swap1\n      0x00\n      mstore\n      keccak256(0x00, 0x20)\n      swap1\n      0x05\n      mul\n      add\n        /* \"cordingtest/cordingtest1.sol\":3637:3654  students[i].score */\n      0x02\n      add\n      sload\n        /* \"cordingtest/cordingtest1.sol\":3630:3654  return students[i].score */\n      swap2\n      pop\n      pop\n      jump(tag_169)\n        /* \"cordingtest/cordingtest1.sol\":3545:3669  if (keccak256(bytes(students[i].name)) == keccak256(bytes(_name))) {... */\n    tag_178:\n        /* \"cordingtest/cordingtest1.sol\":3526:3529  i++ */\n      dup1\n      dup1\n      0x01\n      add\n      swap2\n      pop\n      pop\n        /* \"cordingtest/cordingtest1.sol\":3488:3679  for (uint i = 0; i < students.length; i++) {... */\n      jump(tag_170)\n    tag_171:\n      pop\n        /* \"cordingtest/cordingtest1.sol\":3688:3715  revert(\"Student not found\") */\n      mload(0x40)\n      0x08c379a000000000000000000000000000000000000000000000000000000000\n      dup2\n      mstore\n      0x04\n      add\n      tag_182\n      swap1\n      tag_183\n      jump\t// in\n    tag_182:\n      mload(0x40)\n      dup1\n      swap2\n      sub\n      swap1\n      revert\n        /* \"cordingtest/cordingtest1.sol\":3408:3722  function getScoreName(string memory _name) public view returns (uint) {... */\n    tag_169:\n      swap2\n      swap1\n      pop\n      jump\t// out\n        /* \"cordingtest/cordingtest1.sol\":3932:4176  function calculateAverage() public view returns (uint) {... */\n    tag_42:\n        /* \"cordingtest/cordingtest1.sol\":3981:3985  uint */\n      0x00\n        /* \"cordingtest/cordingtest1.sol\":3997:4012  uint totalScore */\n      dup1\n        /* \"cordingtest/cordingtest1.sol\":4015:4016  0 */\n      0x00\n        /* \"cordingtest/cordingtest1.sol\":3997:4016  uint totalScore = 0 */\n      swap1\n      pop\n        /* \"cordingtest/cordingtest1.sol\":4031:4037  uint i */\n      0x00\n        /* \"cordingtest/cordingtest1.sol\":4026:4125  for (uint i = 0; i < students.length; i++) {... */\n    tag_185:\n        /* \"cordingtest/cordingtest1.sol\":4047:4055  students */\n      0x00\n        /* \"cordingtest/cordingtest1.sol\":4047:4062  students.length */\n      dup1\n      sload\n      swap1\n      pop\n        /* \"cordingtest/cordingtest1.sol\":4043:4044  i */\n      dup2\n        /* \"cordingtest/cordingtest1.sol\":4043:4062  i < students.length */\n      lt\n        /* \"cordingtest/cordingtest1.sol\":4026:4125  for (uint i = 0; i < students.length; i++) {... */\n      iszero\n      tag_186\n      jumpi\n        /* \"cordingtest/cordingtest1.sol\":4097:4105  students */\n      0x00\n        /* \"cordingtest/cordingtest1.sol\":4106:4107  i */\n      dup2\n        /* \"cordingtest/cordingtest1.sol\":4097:4108  students[i] */\n      dup2\n      sload\n      dup2\n      lt\n      tag_188\n      jumpi\n      tag_189\n      tag_122\n      jump\t// in\n    tag_189:\n    tag_188:\n      swap1\n      0x00\n      mstore\n      keccak256(0x00, 0x20)\n      swap1\n      0x05\n      mul\n      add\n        /* \"cordingtest/cordingtest1.sol\":4097:4114  students[i].score */\n      0x02\n      add\n      sload\n        /* \"cordingtest/cordingtest1.sol\":4083:4114  totalScore += students[i].score */\n      dup3\n      tag_191\n      swap2\n      swap1\n      tag_119\n      jump\t// in\n    tag_191:\n      swap2\n      pop\n        /* \"cordingtest/cordingtest1.sol\":4064:4067  i++ */\n      dup1\n      dup1\n      0x01\n      add\n      swap2\n      pop\n      pop\n        /* \"cordingtest/cordingtest1.sol\":4026:4125  for (uint i = 0; i < students.length; i++) {... */\n      jump(tag_185)\n    tag_186:\n      pop\n        /* \"cordingtest/cordingtest1.sol\":4154:4162  students */\n      0x00\n        /* \"cordingtest/cordingtest1.sol\":4154:4169  students.length */\n      dup1\n      sload\n      swap1\n      pop\n        /* \"cordingtest/cordingtest1.sol\":4141:4151  totalScore */\n      dup2\n        /* \"cordingtest/cordingtest1.sol\":4141:4169  totalScore / students.length */\n      tag_192\n      swap2\n      swap1\n      tag_193\n      jump\t// in\n    tag_192:\n        /* \"cordingtest/cordingtest1.sol\":4134:4169  return totalScore / students.length */\n      swap2\n      pop\n      pop\n        /* \"cordingtest/cordingtest1.sol\":3932:4176  function calculateAverage() public view returns (uint) {... */\n      swap1\n      jump\t// out\n        /* \"cordingtest/cordingtest1.sol\":4333:4947  function getFStudents() public view returns (uint, Student[] memory) {... */\n    tag_45:\n        /* \"cordingtest/cordingtest1.sol\":4378:4382  uint */\n      0x00\n        /* \"cordingtest/cordingtest1.sol\":4384:4400  Student[] memory */\n      0x60\n        /* \"cordingtest/cordingtest1.sol\":4412:4422  uint count */\n      0x00\n        /* \"cordingtest/cordingtest1.sol\":4441:4447  uint i */\n      dup1\n        /* \"cordingtest/cordingtest1.sol\":4436:4602  for (uint i = 0; i < students.length; i++) {... */\n    tag_195:\n        /* \"cordingtest/cordingtest1.sol\":4457:4465  students */\n      0x00\n        /* \"cordingtest/cordingtest1.sol\":4457:4472  students.length */\n      dup1\n      sload\n      swap1\n      pop\n        /* \"cordingtest/cordingtest1.sol\":4453:4454  i */\n      dup2\n        /* \"cordingtest/cordingtest1.sol\":4453:4472  i < students.length */\n      lt\n        /* \"cordingtest/cordingtest1.sol\":4436:4602  for (uint i = 0; i < students.length; i++) {... */\n      iszero\n      tag_196\n      jumpi\n        /* \"cordingtest/cordingtest1.sol\":4536:4550  keccak256(\"F\") */\n      0xe61d9a3d3848fb2cdd9a2ab61e2f21a10ea431275aed628a0557f9dee697c37a\n        /* \"cordingtest/cordingtest1.sol\":4513:4521  students */\n      0x00\n        /* \"cordingtest/cordingtest1.sol\":4522:4523  i */\n      dup3\n        /* \"cordingtest/cordingtest1.sol\":4513:4524  students[i] */\n      dup2\n      sload\n      dup2\n      lt\n      tag_198\n      jumpi\n      tag_199\n      tag_122\n      jump\t// in\n    tag_199:\n    tag_198:\n      swap1\n      0x00\n      mstore\n      keccak256(0x00, 0x20)\n      swap1\n      0x05\n      mul\n      add\n        /* \"cordingtest/cordingtest1.sol\":4513:4530  students[i].grade */\n      0x03\n      add\n        /* \"cordingtest/cordingtest1.sol\":4497:4532  keccak256(bytes(students[i].grade)) */\n      mload(0x40)\n      tag_201\n      swap2\n      swap1\n      tag_177\n      jump\t// in\n    tag_201:\n      mload(0x40)\n      dup1\n      swap2\n      sub\n      swap1\n      keccak256\n        /* \"cordingtest/cordingtest1.sol\":4497:4550  keccak256(bytes(students[i].grade)) == keccak256(\"F\") */\n      sub\n        /* \"cordingtest/cordingtest1.sol\":4493:4592  if (keccak256(bytes(students[i].grade)) == keccak256(\"F\")) {... */\n      tag_202\n      jumpi\n        /* \"cordingtest/cordingtest1.sol\":4570:4577  count++ */\n      dup2\n      dup1\n      tag_203\n      swap1\n      tag_204\n      jump\t// in\n    tag_203:\n      swap3\n      pop\n      pop\n        /* \"cordingtest/cordingtest1.sol\":4493:4592  if (keccak256(bytes(students[i].grade)) == keccak256(\"F\")) {... */\n    tag_202:\n        /* \"cordingtest/cordingtest1.sol\":4474:4477  i++ */\n      dup1\n      dup1\n      0x01\n      add\n      swap2\n      pop\n      pop\n        /* \"cordingtest/cordingtest1.sol\":4436:4602  for (uint i = 0; i < students.length; i++) {... */\n      jump(tag_195)\n    tag_196:\n      pop\n        /* \"cordingtest/cordingtest1.sol\":4612:4638  Student[] memory FStudents */\n      0x00\n        /* \"cordingtest/cordingtest1.sol\":4655:4660  count */\n      dup2\n        /* \"cordingtest/cordingtest1.sol\":4641:4661  new Student[](count) */\n      0xffffffffffffffff\n      dup2\n      gt\n      iszero\n      tag_205\n      jumpi\n      tag_206\n      tag_136\n      jump\t// in\n    tag_206:\n    tag_205:\n      mload(0x40)\n      swap1\n      dup1\n      dup3\n      mstore\n      dup1\n      0x20\n      mul\n      0x20\n      add\n      dup3\n      add\n      0x40\n      mstore\n      dup1\n      iszero\n      tag_207\n      jumpi\n      dup2\n      0x20\n      add\n    tag_208:\n      tag_209\n      tag_140\n      jump\t// in\n    tag_209:\n      dup2\n      mstore\n      0x20\n      add\n      swap1\n      0x01\n      swap1\n      sub\n      swap1\n      dup2\n      tag_208\n      jumpi\n      swap1\n      pop\n    tag_207:\n      pop\n        /* \"cordingtest/cordingtest1.sol\":4612:4661  Student[] memory FStudents = new Student[](count) */\n      swap1\n      pop\n        /* \"cordingtest/cordingtest1.sol\":4671:4680  uint data */\n      0x00\n        /* \"cordingtest/cordingtest1.sol\":4699:4705  uint i */\n      dup1\n        /* \"cordingtest/cordingtest1.sol\":4694:4906  for (uint i = 0; i < students.length; i++) {... */\n    tag_210:\n        /* \"cordingtest/cordingtest1.sol\":4715:4723  students */\n      0x00\n        /* \"cordingtest/cordingtest1.sol\":4715:4730  students.length */\n      dup1\n      sload\n      swap1\n      pop\n        /* \"cordingtest/cordingtest1.sol\":4711:4712  i */\n      dup2\n        /* \"cordingtest/cordingtest1.sol\":4711:4730  i < students.length */\n      lt\n        /* \"cordingtest/cordingtest1.sol\":4694:4906  for (uint i = 0; i < students.length; i++) {... */\n      iszero\n      tag_211\n      jumpi\n        /* \"cordingtest/cordingtest1.sol\":4794:4808  keccak256(\"F\") */\n      0xe61d9a3d3848fb2cdd9a2ab61e2f21a10ea431275aed628a0557f9dee697c37a\n        /* \"cordingtest/cordingtest1.sol\":4771:4779  students */\n      0x00\n        /* \"cordingtest/cordingtest1.sol\":4780:4781  i */\n      dup3\n        /* \"cordingtest/cordingtest1.sol\":4771:4782  students[i] */\n      dup2\n      sload\n      dup2\n      lt\n      tag_213\n      jumpi\n      tag_214\n      tag_122\n      jump\t// in\n    tag_214:\n    tag_213:\n      swap1\n      0x00\n      mstore\n      keccak256(0x00, 0x20)\n      swap1\n      0x05\n      mul\n      add\n        /* \"cordingtest/cordingtest1.sol\":4771:4788  students[i].grade */\n      0x03\n      add\n        /* \"cordingtest/cordingtest1.sol\":4755:4790  keccak256(bytes(students[i].grade)) */\n      mload(0x40)\n      tag_216\n      swap2\n      swap1\n      tag_177\n      jump\t// in\n    tag_216:\n      mload(0x40)\n      dup1\n      swap2\n      sub\n      swap1\n      keccak256\n        /* \"cordingtest/cordingtest1.sol\":4755:4808  keccak256(bytes(students[i].grade)) == keccak256(\"F\") */\n      sub\n        /* \"cordingtest/cordingtest1.sol\":4751:4896  if (keccak256(bytes(students[i].grade)) == keccak256(\"F\")) {... */\n      tag_217\n      jumpi\n        /* \"cordingtest/cordingtest1.sol\":4846:4854  students */\n      0x00\n        /* \"cordingtest/cordingtest1.sol\":4855:4856  i */\n      dup2\n        /* \"cordingtest/cordingtest1.sol\":4846:4857  students[i] */\n      dup2\n      sload\n      dup2\n      lt\n      tag_218\n      jumpi\n      tag_219\n      tag_122\n      jump\t// in\n    tag_219:\n    tag_218:\n      swap1\n      0x00\n      mstore\n      keccak256(0x00, 0x20)\n      swap1\n      0x05\n      mul\n      add\n        /* \"cordingtest/cordingtest1.sol\":4828:4857  FStudents[data] = students[i] */\n      mload(0x40)\n      dup1\n      0xa0\n      add\n      0x40\n      mstore\n      swap1\n      dup2\n      0x00\n      dup3\n      add\n      dup1\n      sload\n      tag_221\n      swap1\n      tag_69\n      jump\t// in\n    tag_221:\n      dup1\n      0x1f\n      add\n      0x20\n      dup1\n      swap2\n      div\n      mul\n      0x20\n      add\n      mload(0x40)\n      swap1\n      dup2\n      add\n      0x40\n      mstore\n      dup1\n      swap3\n      swap2\n      swap1\n      dup2\n      dup2\n      mstore\n      0x20\n      add\n      dup3\n      dup1\n      sload\n      tag_222\n      swap1\n      tag_69\n      jump\t// in\n    tag_222:\n      dup1\n      iszero\n      tag_223\n      jumpi\n      dup1\n      0x1f\n      lt\n      tag_224\n      jumpi\n      0x0100\n      dup1\n      dup4\n      sload\n      div\n      mul\n      dup4\n      mstore\n      swap2\n      0x20\n      add\n      swap2\n      jump(tag_223)\n    tag_224:\n      dup3\n      add\n      swap2\n      swap1\n      0x00\n      mstore\n      keccak256(0x00, 0x20)\n      swap1\n    tag_225:\n      dup2\n      sload\n      dup2\n      mstore\n      swap1\n      0x01\n      add\n      swap1\n      0x20\n      add\n      dup1\n      dup4\n      gt\n      tag_225\n      jumpi\n      dup3\n      swap1\n      sub\n      0x1f\n      and\n      dup3\n      add\n      swap2\n    tag_223:\n      pop\n      pop\n      pop\n      pop\n      pop\n      dup2\n      mstore\n      0x20\n      add\n      0x01\n      dup3\n      add\n      sload\n      dup2\n      mstore\n      0x20\n      add\n      0x02\n      dup3\n      add\n      sload\n      dup2\n      mstore\n      0x20\n      add\n      0x03\n      dup3\n      add\n      dup1\n      sload\n      tag_226\n      swap1\n      tag_69\n      jump\t// in\n    tag_226:\n      dup1\n      0x1f\n      add\n      0x20\n      dup1\n      swap2\n      div\n      mul\n      0x20\n      add\n      mload(0x40)\n      swap1\n      dup2\n      add\n      0x40\n      mstore\n      dup1\n      swap3\n      swap2\n      swap1\n      dup2\n      dup2\n      mstore\n      0x20\n      add\n      dup3\n      dup1\n      sload\n      tag_227\n      swap1\n      tag_69\n      jump\t// in\n    tag_227:\n      dup1\n      iszero\n      tag_228\n      jumpi\n      dup1\n      0x1f\n      lt\n      tag_229\n      jumpi\n      0x0100\n      dup1\n      dup4\n      sload\n      div\n      mul\n      dup4\n      mstore\n      swap2\n      0x20\n      add\n      swap2\n      jump(tag_228)\n    tag_229:\n      dup3\n      add\n      swap2\n      swap1\n      0x00\n      mstore\n      keccak256(0x00, 0x20)\n      swap1\n    tag_230:\n      dup2\n      sload\n      dup2\n      mstore\n      swap1\n      0x01\n      add\n      swap1\n      0x20\n      add\n      dup1\n      dup4\n      gt\n      tag_230\n      jumpi\n      dup3\n      swap1\n      sub\n      0x1f\n      and\n      dup3\n      add\n      swap2\n    tag_228:\n      pop\n      pop\n      pop\n      pop\n      pop\n      dup2\n      mstore\n      0x20\n      add\n      0x04\n      dup3\n      add\n      dup1\n      sload\n      tag_231\n      swap1\n      tag_69\n      jump\t// in\n    tag_231:\n      dup1\n      0x1f\n      add\n      0x20\n      dup1\n      swap2\n      div\n      mul\n      0x20\n      add\n      mload(0x40)\n      swap1\n      dup2\n      add\n      0x40\n      mstore\n      dup1\n      swap3\n      swap2\n      swap1\n      dup2\n      dup2\n      mstore\n      0x20\n      add\n      dup3\n      dup1\n      sload\n      tag_232\n      swap1\n      tag_69\n      jump\t// in\n    tag_232:\n      dup1\n      iszero\n      tag_233\n      jumpi\n      dup1\n      0x1f\n      lt\n      tag_234\n      jumpi\n      0x0100\n      dup1\n      dup4\n      sload\n      div\n      mul\n      dup4\n      mstore\n      swap2\n      0x20\n      add\n      swap2\n      jump(tag_233)\n    tag_234:\n      dup3\n      add\n      swap2\n      swap1\n      0x00\n      mstore\n      keccak256(0x00, 0x20)\n      swap1\n    tag_235:\n      dup2\n      sload\n      dup2\n      mstore\n      swap1\n      0x01\n      add\n      swap1\n      0x20\n      add\n      dup1\n      dup4\n      gt\n      tag_235\n      jumpi\n      dup3\n      swap1\n      sub\n      0x1f\n      and\n      dup3\n      add\n      swap2\n    tag_233:\n      pop\n      pop\n      pop\n      pop\n      pop\n      dup2\n      mstore\n      pop\n      pop\n        /* \"cordingtest/cordingtest1.sol\":4828:4837  FStudents */\n      dup4\n        /* \"cordingtest/cordingtest1.sol\":4838:4842  data */\n      dup4\n        /* \"cordingtest/cordingtest1.sol\":4828:4843  FStudents[data] */\n      dup2\n      mload\n      dup2\n      lt\n      tag_236\n      jumpi\n      tag_237\n      tag_122\n      jump\t// in\n    tag_237:\n    tag_236:\n      0x20\n      mul\n      0x20\n      add\n      add\n        /* \"cordingtest/cordingtest1.sol\":4828:4857  FStudents[data] = students[i] */\n      dup2\n      swap1\n      mstore\n      pop\n        /* \"cordingtest/cordingtest1.sol\":4875:4881  data++ */\n      dup2\n      dup1\n      tag_238\n      swap1\n      tag_204\n      jump\t// in\n    tag_238:\n      swap3\n      pop\n      pop\n        /* \"cordingtest/cordingtest1.sol\":4751:4896  if (keccak256(bytes(students[i].grade)) == keccak256(\"F\")) {... */\n    tag_217:\n        /* \"cordingtest/cordingtest1.sol\":4732:4735  i++ */\n      dup1\n      dup1\n      0x01\n      add\n      swap2\n      pop\n      pop\n        /* \"cordingtest/cordingtest1.sol\":4694:4906  for (uint i = 0; i < students.length; i++) {... */\n      jump(tag_210)\n    tag_211:\n      pop\n        /* \"cordingtest/cordingtest1.sol\":4923:4928  count */\n      dup3\n        /* \"cordingtest/cordingtest1.sol\":4930:4939  FStudents */\n      dup3\n        /* \"cordingtest/cordingtest1.sol\":4915:4940  return (count, FStudents) */\n      swap5\n      pop\n      swap5\n      pop\n      pop\n      pop\n      pop\n        /* \"cordingtest/cordingtest1.sol\":4333:4947  function getFStudents() public view returns (uint, Student[] memory) {... */\n      swap1\n      swap2\n      jump\t// out\n        /* \"cordingtest/cordingtest1.sol\":2441:2672  function addStudent(string memory _name, uint _number, uint _score, string memory _class) public {... */\n    tag_51:\n        /* \"cordingtest/cordingtest1.sol\":2548:2568  string memory _grade */\n      0x00\n        /* \"cordingtest/cordingtest1.sol\":2571:2593  calculateGrade(_score) */\n      tag_240\n        /* \"cordingtest/cordingtest1.sol\":2586:2592  _score */\n      dup4\n        /* \"cordingtest/cordingtest1.sol\":2571:2585  calculateGrade */\n      tag_24\n        /* \"cordingtest/cordingtest1.sol\":2571:2593  calculateGrade(_score) */\n      jump\t// in\n    tag_240:\n        /* \"cordingtest/cordingtest1.sol\":2548:2593  string memory _grade = calculateGrade(_score) */\n      swap1\n      pop\n        /* \"cordingtest/cordingtest1.sol\":2603:2611  students */\n      0x00\n        /* \"cordingtest/cordingtest1.sol\":2617:2664  Student(_name, _number, _score, _grade, _class) */\n      mload(0x40)\n      dup1\n      0xa0\n      add\n      0x40\n      mstore\n      dup1\n        /* \"cordingtest/cordingtest1.sol\":2625:2630  _name */\n      dup8\n        /* \"cordingtest/cordingtest1.sol\":2617:2664  Student(_name, _number, _score, _grade, _class) */\n      dup2\n      mstore\n      0x20\n      add\n        /* \"cordingtest/cordingtest1.sol\":2632:2639  _number */\n      dup7\n        /* \"cordingtest/cordingtest1.sol\":2617:2664  Student(_name, _number, _score, _grade, _class) */\n      dup2\n      mstore\n      0x20\n      add\n        /* \"cordingtest/cordingtest1.sol\":2641:2647  _score */\n      dup6\n        /* \"cordingtest/cordingtest1.sol\":2617:2664  Student(_name, _number, _score, _grade, _class) */\n      dup2\n      mstore\n      0x20\n      add\n        /* \"cordingtest/cordingtest1.sol\":2649:2655  _grade */\n      dup4\n        /* \"cordingtest/cordingtest1.sol\":2617:2664  Student(_name, _number, _score, _grade, _class) */\n      dup2\n      mstore\n      0x20\n      add\n        /* \"cordingtest/cordingtest1.sol\":2657:2663  _class */\n      dup5\n        /* \"cordingtest/cordingtest1.sol\":2617:2664  Student(_name, _number, _score, _grade, _class) */\n      dup2\n      mstore\n      pop\n        /* \"cordingtest/cordingtest1.sol\":2603:2665  students.push(Student(_name, _number, _score, _grade, _class)) */\n      swap1\n      dup1\n      0x01\n      dup2\n      sload\n      add\n      dup1\n      dup3\n      sstore\n      dup1\n      swap2\n      pop\n      pop\n      0x01\n      swap1\n      sub\n      swap1\n      0x00\n      mstore\n      keccak256(0x00, 0x20)\n      swap1\n      0x05\n      mul\n      add\n      0x00\n      swap1\n      swap2\n      swap1\n      swap2\n      swap1\n      swap2\n      pop\n      0x00\n      dup3\n      add\n      mload\n      dup2\n      0x00\n      add\n      swap1\n      dup2\n      tag_242\n      swap2\n      swap1\n      tag_243\n      jump\t// in\n    tag_242:\n      pop\n      0x20\n      dup3\n      add\n      mload\n      dup2\n      0x01\n      add\n      sstore\n      0x40\n      dup3\n      add\n      mload\n      dup2\n      0x02\n      add\n      sstore\n      0x60\n      dup3\n      add\n      mload\n      dup2\n      0x03\n      add\n      swap1\n      dup2\n      tag_244\n      swap2\n      swap1\n      tag_243\n      jump\t// in\n    tag_244:\n      pop\n      0x80\n      dup3\n      add\n      mload\n      dup2\n      0x04\n      add\n      swap1\n      dup2\n      tag_245\n      swap2\n      swap1\n      tag_243\n      jump\t// in\n    tag_245:\n      pop\n      pop\n      pop\n        /* \"cordingtest/cordingtest1.sol\":2538:2672  {... */\n      pop\n        /* \"cordingtest/cordingtest1.sol\":2441:2672  function addStudent(string memory _name, uint _number, uint _score, string memory _class) public {... */\n      pop\n      pop\n      pop\n      pop\n      jump\t// out\n        /* \"cordingtest/cordingtest1.sol\":4182:4327  function QualifiedTeacher() public view returns (bool) {... */\n    tag_53:\n        /* \"cordingtest/cordingtest1.sol\":4231:4235  bool */\n      0x00\n        /* \"cordingtest/cordingtest1.sol\":4247:4264  uint averageScore */\n      dup1\n        /* \"cordingtest/cordingtest1.sol\":4267:4285  calculateAverage() */\n      tag_247\n        /* \"cordingtest/cordingtest1.sol\":4267:4283  calculateAverage */\n      tag_42\n        /* \"cordingtest/cordingtest1.sol\":4267:4285  calculateAverage() */\n      jump\t// in\n    tag_247:\n        /* \"cordingtest/cordingtest1.sol\":4247:4285  uint averageScore = calculateAverage() */\n      swap1\n      pop\n        /* \"cordingtest/cordingtest1.sol\":4318:4320  70 */\n      0x46\n        /* \"cordingtest/cordingtest1.sol\":4302:4314  averageScore */\n      dup2\n        /* \"cordingtest/cordingtest1.sol\":4302:4320  averageScore >= 70 */\n      lt\n      iszero\n        /* \"cordingtest/cordingtest1.sol\":4295:4320  return averageScore >= 70 */\n      swap2\n      pop\n      pop\n        /* \"cordingtest/cordingtest1.sol\":4182:4327  function QualifiedTeacher() public view returns (bool) {... */\n      swap1\n      jump\t// out\n        /* \"cordingtest/cordingtest1.sol\":3829:3926  function getAllStudents() public view returns (Student[] memory) {... */\n    tag_57:\n        /* \"cordingtest/cordingtest1.sol\":3876:3892  Student[] memory */\n      0x60\n        /* \"cordingtest/cordingtest1.sol\":3911:3919  students */\n      0x00\n        /* \"cordingtest/cordingtest1.sol\":3904:3919  return students */\n      dup1\n      sload\n      dup1\n      0x20\n      mul\n      0x20\n      add\n      mload(0x40)\n      swap1\n      dup2\n      add\n      0x40\n      mstore\n      dup1\n      swap3\n      swap2\n      swap1\n      dup2\n      dup2\n      mstore\n      0x20\n      add\n      0x00\n      swap1\n    tag_249:\n      dup3\n      dup3\n      lt\n      iszero\n      tag_250\n      jumpi\n      dup4\n      dup3\n      swap1\n      0x00\n      mstore\n      keccak256(0x00, 0x20)\n      swap1\n      0x05\n      mul\n      add\n      mload(0x40)\n      dup1\n      0xa0\n      add\n      0x40\n      mstore\n      swap1\n      dup2\n      0x00\n      dup3\n      add\n      dup1\n      sload\n      tag_252\n      swap1\n      tag_69\n      jump\t// in\n    tag_252:\n      dup1\n      0x1f\n      add\n      0x20\n      dup1\n      swap2\n      div\n      mul\n      0x20\n      add\n      mload(0x40)\n      swap1\n      dup2\n      add\n      0x40\n      mstore\n      dup1\n      swap3\n      swap2\n      swap1\n      dup2\n      dup2\n      mstore\n      0x20\n      add\n      dup3\n      dup1\n      sload\n      tag_253\n      swap1\n      tag_69\n      jump\t// in\n    tag_253:\n      dup1\n      iszero\n      tag_254\n      jumpi\n      dup1\n      0x1f\n      lt\n      tag_255\n      jumpi\n      0x0100\n      dup1\n      dup4\n      sload\n      div\n      mul\n      dup4\n      mstore\n      swap2\n      0x20\n      add\n      swap2\n      jump(tag_254)\n    tag_255:\n      dup3\n      add\n      swap2\n      swap1\n      0x00\n      mstore\n      keccak256(0x00, 0x20)\n      swap1\n    tag_256:\n      dup2\n      sload\n      dup2\n      mstore\n      swap1\n      0x01\n      add\n      swap1\n      0x20\n      add\n      dup1\n      dup4\n      gt\n      tag_256\n      jumpi\n      dup3\n      swap1\n      sub\n      0x1f\n      and\n      dup3\n      add\n      swap2\n    tag_254:\n      pop\n      pop\n      pop\n      pop\n      pop\n      dup2\n      mstore\n      0x20\n      add\n      0x01\n      dup3\n      add\n      sload\n      dup2\n      mstore\n      0x20\n      add\n      0x02\n      dup3\n      add\n      sload\n      dup2\n      mstore\n      0x20\n      add\n      0x03\n      dup3\n      add\n      dup1\n      sload\n      tag_257\n      swap1\n      tag_69\n      jump\t// in\n    tag_257:\n      dup1\n      0x1f\n      add\n      0x20\n      dup1\n      swap2\n      div\n      mul\n      0x20\n      add\n      mload(0x40)\n      swap1\n      dup2\n      add\n      0x40\n      mstore\n      dup1\n      swap3\n      swap2\n      swap1\n      dup2\n      dup2\n      mstore\n      0x20\n      add\n      dup3\n      dup1\n      sload\n      tag_258\n      swap1\n      tag_69\n      jump\t// in\n    tag_258:\n      dup1\n      iszero\n      tag_259\n      jumpi\n      dup1\n      0x1f\n      lt\n      tag_260\n      jumpi\n      0x0100\n      dup1\n      dup4\n      sload\n      div\n      mul\n      dup4\n      mstore\n      swap2\n      0x20\n      add\n      swap2\n      jump(tag_259)\n    tag_260:\n      dup3\n      add\n      swap2\n      swap1\n      0x00\n      mstore\n      keccak256(0x00, 0x20)\n      swap1\n    tag_261:\n      dup2\n      sload\n      dup2\n      mstore\n      swap1\n      0x01\n      add\n      swap1\n      0x20\n      add\n      dup1\n      dup4\n      gt\n      tag_261\n      jumpi\n      dup3\n      swap1\n      sub\n      0x1f\n      and\n      dup3\n      add\n      swap2\n    tag_259:\n      pop\n      pop\n      pop\n      pop\n      pop\n      dup2\n      mstore\n      0x20\n      add\n      0x04\n      dup3\n      add\n      dup1\n      sload\n      tag_262\n      swap1\n      tag_69\n      jump\t// in\n    tag_262:\n      dup1\n      0x1f\n      add\n      0x20\n      dup1\n      swap2\n      div\n      mul\n      0x20\n      add\n      mload(0x40)\n      swap1\n      dup2\n      add\n      0x40\n      mstore\n      dup1\n      swap3\n      swap2\n      swap1\n      dup2\n      dup2\n      mstore\n      0x20\n      add\n      dup3\n      dup1\n      sload\n      tag_263\n      swap1\n      tag_69\n      jump\t// in\n    tag_263:\n      dup1\n      iszero\n      tag_264\n      jumpi\n      dup1\n      0x1f\n      lt\n      tag_265\n      jumpi\n      0x0100\n      dup1\n      dup4\n      sload\n      div\n      mul\n      dup4\n      mstore\n      swap2\n      0x20\n      add\n      swap2\n      jump(tag_264)\n    tag_265:\n      dup3\n      add\n      swap2\n      swap1\n      0x00\n      mstore\n      keccak256(0x00, 0x20)\n      swap1\n    tag_266:\n      dup2\n      sload\n      dup2\n      mstore\n      swap1\n      0x01\n      add\n      swap1\n      0x20\n      add\n      dup1\n      dup4\n      gt\n      tag_266\n      jumpi\n      dup3\n      swap1\n      sub\n      0x1f\n      and\n      dup3\n      add\n      swap2\n    tag_264:\n      pop\n      pop\n      pop\n      pop\n      pop\n      dup2\n      mstore\n      pop\n      pop\n      dup2\n      mstore\n      0x20\n      add\n      swap1\n      0x01\n      add\n      swap1\n      jump(tag_249)\n    tag_250:\n      pop\n      pop\n      pop\n      pop\n      swap1\n      pop\n        /* \"cordingtest/cordingtest1.sol\":3829:3926  function getAllStudents() public view returns (Student[] memory) {... */\n      swap1\n      jump\t// out\n        /* \"cordingtest/cordingtest1.sol\":2957:3402  function getStudentName(string memory _name) public view returns (string memory, uint, uint, string memory, string memory) {... */\n    tag_61:\n        /* \"cordingtest/cordingtest1.sol\":3023:3036  string memory */\n      0x60\n        /* \"cordingtest/cordingtest1.sol\":3038:3042  uint */\n      0x00\n        /* \"cordingtest/cordingtest1.sol\":3044:3048  uint */\n      dup1\n        /* \"cordingtest/cordingtest1.sol\":3050:3063  string memory */\n      0x60\n        /* \"cordingtest/cordingtest1.sol\":3065:3078  string memory */\n      dup1\n        /* \"cordingtest/cordingtest1.sol\":3095:3101  uint i */\n      0x00\n        /* \"cordingtest/cordingtest1.sol\":3090:3359  for (uint i = 0; i < students.length; i++) {... */\n    tag_268:\n        /* \"cordingtest/cordingtest1.sol\":3111:3119  students */\n      0x00\n        /* \"cordingtest/cordingtest1.sol\":3111:3126  students.length */\n      dup1\n      sload\n      swap1\n      pop\n        /* \"cordingtest/cordingtest1.sol\":3107:3108  i */\n      dup2\n        /* \"cordingtest/cordingtest1.sol\":3107:3126  i < students.length */\n      lt\n        /* \"cordingtest/cordingtest1.sol\":3090:3359  for (uint i = 0; i < students.length; i++) {... */\n      iszero\n      tag_269\n      jumpi\n        /* \"cordingtest/cordingtest1.sol\":3205:3210  _name */\n      dup7\n        /* \"cordingtest/cordingtest1.sol\":3189:3212  keccak256(bytes(_name)) */\n      dup1\n      mload\n      swap1\n      0x20\n      add\n      keccak256\n        /* \"cordingtest/cordingtest1.sol\":3167:3175  students */\n      0x00\n        /* \"cordingtest/cordingtest1.sol\":3176:3177  i */\n      dup3\n        /* \"cordingtest/cordingtest1.sol\":3167:3178  students[i] */\n      dup2\n      sload\n      dup2\n      lt\n      tag_271\n      jumpi\n      tag_272\n      tag_122\n      jump\t// in\n    tag_272:\n    tag_271:\n      swap1\n      0x00\n      mstore\n      keccak256(0x00, 0x20)\n      swap1\n      0x05\n      mul\n      add\n        /* \"cordingtest/cordingtest1.sol\":3167:3183  students[i].name */\n      0x00\n      add\n        /* \"cordingtest/cordingtest1.sol\":3151:3185  keccak256(bytes(students[i].name)) */\n      mload(0x40)\n      tag_274\n      swap2\n      swap1\n      tag_177\n      jump\t// in\n    tag_274:\n      mload(0x40)\n      dup1\n      swap2\n      sub\n      swap1\n      keccak256\n        /* \"cordingtest/cordingtest1.sol\":3151:3212  keccak256(bytes(students[i].name)) == keccak256(bytes(_name)) */\n      sub\n        /* \"cordingtest/cordingtest1.sol\":3147:3349  if (keccak256(bytes(students[i].name)) == keccak256(bytes(_name))) {... */\n      tag_275\n      jumpi\n        /* \"cordingtest/cordingtest1.sol\":3240:3248  students */\n      0x00\n        /* \"cordingtest/cordingtest1.sol\":3249:3250  i */\n      dup2\n        /* \"cordingtest/cordingtest1.sol\":3240:3251  students[i] */\n      dup2\n      sload\n      dup2\n      lt\n      tag_276\n      jumpi\n      tag_277\n      tag_122\n      jump\t// in\n    tag_277:\n    tag_276:\n      swap1\n      0x00\n      mstore\n      keccak256(0x00, 0x20)\n      swap1\n      0x05\n      mul\n      add\n        /* \"cordingtest/cordingtest1.sol\":3240:3256  students[i].name */\n      0x00\n      add\n        /* \"cordingtest/cordingtest1.sol\":3258:3266  students */\n      0x00\n        /* \"cordingtest/cordingtest1.sol\":3267:3268  i */\n      dup3\n        /* \"cordingtest/cordingtest1.sol\":3258:3269  students[i] */\n      dup2\n      sload\n      dup2\n      lt\n      tag_279\n      jumpi\n      tag_280\n      tag_122\n      jump\t// in\n    tag_280:\n    tag_279:\n      swap1\n      0x00\n      mstore\n      keccak256(0x00, 0x20)\n      swap1\n      0x05\n      mul\n      add\n        /* \"cordingtest/cordingtest1.sol\":3258:3276  students[i].number */\n      0x01\n      add\n      sload\n        /* \"cordingtest/cordingtest1.sol\":3278:3286  students */\n      0x00\n        /* \"cordingtest/cordingtest1.sol\":3287:3288  i */\n      dup4\n        /* \"cordingtest/cordingtest1.sol\":3278:3289  students[i] */\n      dup2\n      sload\n      dup2\n      lt\n      tag_282\n      jumpi\n      tag_283\n      tag_122\n      jump\t// in\n    tag_283:\n    tag_282:\n      swap1\n      0x00\n      mstore\n      keccak256(0x00, 0x20)\n      swap1\n      0x05\n      mul\n      add\n        /* \"cordingtest/cordingtest1.sol\":3278:3295  students[i].score */\n      0x02\n      add\n      sload\n        /* \"cordingtest/cordingtest1.sol\":3297:3305  students */\n      0x00\n        /* \"cordingtest/cordingtest1.sol\":3306:3307  i */\n      dup5\n        /* \"cordingtest/cordingtest1.sol\":3297:3308  students[i] */\n      dup2\n      sload\n      dup2\n      lt\n      tag_285\n      jumpi\n      tag_286\n      tag_122\n      jump\t// in\n    tag_286:\n    tag_285:\n      swap1\n      0x00\n      mstore\n      keccak256(0x00, 0x20)\n      swap1\n      0x05\n      mul\n      add\n        /* \"cordingtest/cordingtest1.sol\":3297:3314  students[i].grade */\n      0x03\n      add\n        /* \"cordingtest/cordingtest1.sol\":3316:3324  students */\n      0x00\n        /* \"cordingtest/cordingtest1.sol\":3325:3326  i */\n      dup6\n        /* \"cordingtest/cordingtest1.sol\":3316:3327  students[i] */\n      dup2\n      sload\n      dup2\n      lt\n      tag_288\n      jumpi\n      tag_289\n      tag_122\n      jump\t// in\n    tag_289:\n    tag_288:\n      swap1\n      0x00\n      mstore\n      keccak256(0x00, 0x20)\n      swap1\n      0x05\n      mul\n      add\n        /* \"cordingtest/cordingtest1.sol\":3316:3333  students[i].class */\n      0x04\n      add\n        /* \"cordingtest/cordingtest1.sol\":3232:3334  return (students[i].name, students[i].number, students[i].score, students[i].grade, students[i].class) */\n      dup5\n      dup1\n      sload\n      tag_291\n      swap1\n      tag_69\n      jump\t// in\n    tag_291:\n      dup1\n      0x1f\n      add\n      0x20\n      dup1\n      swap2\n      div\n      mul\n      0x20\n      add\n      mload(0x40)\n      swap1\n      dup2\n      add\n      0x40\n      mstore\n      dup1\n      swap3\n      swap2\n      swap1\n      dup2\n      dup2\n      mstore\n      0x20\n      add\n      dup3\n      dup1\n      sload\n      tag_292\n      swap1\n      tag_69\n      jump\t// in\n    tag_292:\n      dup1\n      iszero\n      tag_293\n      jumpi\n      dup1\n      0x1f\n      lt\n      tag_294\n      jumpi\n      0x0100\n      dup1\n      dup4\n      sload\n      div\n      mul\n      dup4\n      mstore\n      swap2\n      0x20\n      add\n      swap2\n      jump(tag_293)\n    tag_294:\n      dup3\n      add\n      swap2\n      swap1\n      0x00\n      mstore\n      keccak256(0x00, 0x20)\n      swap1\n    tag_295:\n      dup2\n      sload\n      dup2\n      mstore\n      swap1\n      0x01\n      add\n      swap1\n      0x20\n      add\n      dup1\n      dup4\n      gt\n      tag_295\n      jumpi\n      dup3\n      swap1\n      sub\n      0x1f\n      and\n      dup3\n      add\n      swap2\n    tag_293:\n      pop\n      pop\n      pop\n      pop\n      pop\n      swap5\n      pop\n      dup2\n      dup1\n      sload\n      tag_296\n      swap1\n      tag_69\n      jump\t// in\n    tag_296:\n      dup1\n      0x1f\n      add\n      0x20\n      dup1\n      swap2\n      div\n      mul\n      0x20\n      add\n      mload(0x40)\n      swap1\n      dup2\n      add\n      0x40\n      mstore\n      dup1\n      swap3\n      swap2\n      swap1\n      dup2\n      dup2\n      mstore\n      0x20\n      add\n      dup3\n      dup1\n      sload\n      tag_297\n      swap1\n      tag_69\n      jump\t// in\n    tag_297:\n      dup1\n      iszero\n      tag_298\n      jumpi\n      dup1\n      0x1f\n      lt\n      tag_299\n      jumpi\n      0x0100\n      dup1\n      dup4\n      sload\n      div\n      mul\n      dup4\n      mstore\n      swap2\n      0x20\n      add\n      swap2\n      jump(tag_298)\n    tag_299:\n      dup3\n      add\n      swap2\n      swap1\n      0x00\n      mstore\n      keccak256(0x00, 0x20)\n      swap1\n    tag_300:\n      dup2\n      sload\n      dup2\n      mstore\n      swap1\n      0x01\n      add\n      swap1\n      0x20\n      add\n      dup1\n      dup4\n      gt\n      tag_300\n      jumpi\n      dup3\n      swap1\n      sub\n      0x1f\n      and\n      dup3\n      add\n      swap2\n    tag_298:\n      pop\n      pop\n      pop\n      pop\n      pop\n      swap2\n      pop\n      dup1\n      dup1\n      sload\n      tag_301\n      swap1\n      tag_69\n      jump\t// in\n    tag_301:\n      dup1\n      0x1f\n      add\n      0x20\n      dup1\n      swap2\n      div\n      mul\n      0x20\n      add\n      mload(0x40)\n      swap1\n      dup2\n      add\n      0x40\n      mstore\n      dup1\n      swap3\n      swap2\n      swap1\n      dup2\n      dup2\n      mstore\n      0x20\n      add\n      dup3\n      dup1\n      sload\n      tag_302\n      swap1\n      tag_69\n      jump\t// in\n    tag_302:\n      dup1\n      iszero\n      tag_303\n      jumpi\n      dup1\n      0x1f\n      lt\n      tag_304\n      jumpi\n      0x0100\n      dup1\n      dup4\n      sload\n      div\n      mul\n      dup4\n      mstore\n      swap2\n      0x20\n      add\n      swap2\n      jump(tag_303)\n    tag_304:\n      dup3\n      add\n      swap2\n      swap1\n      0x00\n      mstore\n      keccak256(0x00, 0x20)\n      swap1\n    tag_305:\n      dup2\n      sload\n      dup2\n      mstore\n      swap1\n      0x01\n      add\n      swap1\n      0x20\n      add\n      dup1\n      dup4\n      gt\n      tag_305\n      jumpi\n      dup3\n      swap1\n      sub\n      0x1f\n      and\n      dup3\n      add\n      swap2\n    tag_303:\n      pop\n      pop\n      pop\n      pop\n      pop\n      swap1\n      pop\n      swap6\n      pop\n      swap6\n      pop\n      swap6\n      pop\n      swap6\n      pop\n      swap6\n      pop\n      pop\n      jump(tag_267)\n        /* \"cordingtest/cordingtest1.sol\":3147:3349  if (keccak256(bytes(students[i].name)) == keccak256(bytes(_name))) {... */\n    tag_275:\n        /* \"cordingtest/cordingtest1.sol\":3128:3131  i++ */\n      dup1\n      dup1\n      0x01\n      add\n      swap2\n      pop\n      pop\n        /* \"cordingtest/cordingtest1.sol\":3090:3359  for (uint i = 0; i < students.length; i++) {... */\n      jump(tag_268)\n    tag_269:\n      pop\n        /* \"cordingtest/cordingtest1.sol\":3368:3395  revert(\"Student not found\") */\n      mload(0x40)\n      0x08c379a000000000000000000000000000000000000000000000000000000000\n      dup2\n      mstore\n      0x04\n      add\n      tag_306\n      swap1\n      tag_183\n      jump\t// in\n    tag_306:\n      mload(0x40)\n      dup1\n      swap2\n      sub\n      swap1\n      revert\n        /* \"cordingtest/cordingtest1.sol\":2957:3402  function getStudentName(string memory _name) public view returns (string memory, uint, uint, string memory, string memory) {... */\n    tag_267:\n      swap2\n      swap4\n      swap6\n      swap1\n      swap3\n      swap5\n      pop\n      jump\t// out\n        /* \"cordingtest/cordingtest1.sol\":3728:3823  function getNumberStudents() public view returns (uint) {... */\n    tag_64:\n        /* \"cordingtest/cordingtest1.sol\":3778:3782  uint */\n      0x00\n        /* \"cordingtest/cordingtest1.sol\":3801:3809  students */\n      dup1\n        /* \"cordingtest/cordingtest1.sol\":3801:3816  students.length */\n      dup1\n      sload\n      swap1\n      pop\n        /* \"cordingtest/cordingtest1.sol\":3794:3816  return students.length */\n      swap1\n      pop\n        /* \"cordingtest/cordingtest1.sol\":3728:3823  function getNumberStudents() public view returns (uint) {... */\n      swap1\n      jump\t// out\n    tag_140:\n      mload(0x40)\n      dup1\n      0xa0\n      add\n      0x40\n      mstore\n      dup1\n      0x60\n      dup2\n      mstore\n      0x20\n      add\n      0x00\n      dup2\n      mstore\n      0x20\n      add\n      0x00\n      dup2\n      mstore\n      0x20\n      add\n      0x60\n      dup2\n      mstore\n      0x20\n      add\n      0x60\n      dup2\n      mstore\n      pop\n      swap1\n      jump\t// out\n        /* \"#utility.yul\":7:82   */\n    tag_308:\n        /* \"#utility.yul\":40:46   */\n      0x00\n        /* \"#utility.yul\":73:75   */\n      0x40\n        /* \"#utility.yul\":67:76   */\n      mload\n        /* \"#utility.yul\":57:76   */\n      swap1\n      pop\n        /* \"#utility.yul\":7:82   */\n      swap1\n      jump\t// out\n        /* \"#utility.yul\":88:205   */\n    tag_309:\n        /* \"#utility.yul\":197:198   */\n      0x00\n        /* \"#utility.yul\":194:195   */\n      dup1\n        /* \"#utility.yul\":187:199   */\n      revert\n        /* \"#utility.yul\":211:328   */\n    tag_310:\n        /* \"#utility.yul\":320:321   */\n      0x00\n        /* \"#utility.yul\":317:318   */\n      dup1\n        /* \"#utility.yul\":310:322   */\n      revert\n        /* \"#utility.yul\":334:411   */\n    tag_311:\n        /* \"#utility.yul\":371:378   */\n      0x00\n        /* \"#utility.yul\":400:405   */\n      dup2\n        /* \"#utility.yul\":389:405   */\n      swap1\n      pop\n        /* \"#utility.yul\":334:411   */\n      swap2\n      swap1\n      pop\n      jump\t// out\n        /* \"#utility.yul\":417:539   */\n    tag_312:\n        /* \"#utility.yul\":490:514   */\n      tag_369\n        /* \"#utility.yul\":508:513   */\n      dup2\n        /* \"#utility.yul\":490:514   */\n      tag_311\n      jump\t// in\n    tag_369:\n        /* \"#utility.yul\":483:488   */\n      dup2\n        /* \"#utility.yul\":480:515   */\n      eq\n        /* \"#utility.yul\":470:533   */\n      tag_370\n      jumpi\n        /* \"#utility.yul\":529:530   */\n      0x00\n        /* \"#utility.yul\":526:527   */\n      dup1\n        /* \"#utility.yul\":519:531   */\n      revert\n        /* \"#utility.yul\":470:533   */\n    tag_370:\n        /* \"#utility.yul\":417:539   */\n      pop\n      jump\t// out\n        /* \"#utility.yul\":545:684   */\n    tag_313:\n        /* \"#utility.yul\":591:596   */\n      0x00\n        /* \"#utility.yul\":629:635   */\n      dup2\n        /* \"#utility.yul\":616:636   */\n      calldataload\n        /* \"#utility.yul\":607:636   */\n      swap1\n      pop\n        /* \"#utility.yul\":645:678   */\n      tag_372\n        /* \"#utility.yul\":672:677   */\n      dup2\n        /* \"#utility.yul\":645:678   */\n      tag_312\n      jump\t// in\n    tag_372:\n        /* \"#utility.yul\":545:684   */\n      swap3\n      swap2\n      pop\n      pop\n      jump\t// out\n        /* \"#utility.yul\":690:1019   */\n    tag_18:\n        /* \"#utility.yul\":749:755   */\n      0x00\n        /* \"#utility.yul\":798:800   */\n      0x20\n        /* \"#utility.yul\":786:795   */\n      dup3\n        /* \"#utility.yul\":777:784   */\n      dup5\n        /* \"#utility.yul\":773:796   */\n      sub\n        /* \"#utility.yul\":769:801   */\n      slt\n        /* \"#utility.yul\":766:885   */\n      iszero\n      tag_374\n      jumpi\n        /* \"#utility.yul\":804:883   */\n      tag_375\n      tag_309\n      jump\t// in\n    tag_375:\n        /* \"#utility.yul\":766:885   */\n    tag_374:\n        /* \"#utility.yul\":924:925   */\n      0x00\n        /* \"#utility.yul\":949:1002   */\n      tag_376\n        /* \"#utility.yul\":994:1001   */\n      dup5\n        /* \"#utility.yul\":985:991   */\n      dup3\n        /* \"#utility.yul\":974:983   */\n      dup6\n        /* \"#utility.yul\":970:992   */\n      add\n        /* \"#utility.yul\":949:1002   */\n      tag_313\n      jump\t// in\n    tag_376:\n        /* \"#utility.yul\":939:1002   */\n      swap2\n      pop\n        /* \"#utility.yul\":895:1012   */\n      pop\n        /* \"#utility.yul\":690:1019   */\n      swap3\n      swap2\n      pop\n      pop\n      jump\t// out\n        /* \"#utility.yul\":1025:1124   */\n    tag_314:\n        /* \"#utility.yul\":1077:1083   */\n      0x00\n        /* \"#utility.yul\":1111:1116   */\n      dup2\n        /* \"#utility.yul\":1105:1117   */\n      mload\n        /* \"#utility.yul\":1095:1117   */\n      swap1\n      pop\n        /* \"#utility.yul\":1025:1124   */\n      swap2\n      swap1\n      pop\n      jump\t// out\n        /* \"#utility.yul\":1130:1299   */\n    tag_315:\n        /* \"#utility.yul\":1214:1225   */\n      0x00\n        /* \"#utility.yul\":1248:1254   */\n      dup3\n        /* \"#utility.yul\":1243:1246   */\n      dup3\n        /* \"#utility.yul\":1236:1255   */\n      mstore\n        /* \"#utility.yul\":1288:1292   */\n      0x20\n        /* \"#utility.yul\":1283:1286   */\n      dup3\n        /* \"#utility.yul\":1279:1293   */\n      add\n        /* \"#utility.yul\":1264:1293   */\n      swap1\n      pop\n        /* \"#utility.yul\":1130:1299   */\n      swap3\n      swap2\n      pop\n      pop\n      jump\t// out\n        /* \"#utility.yul\":1305:1444   */\n    tag_316:\n        /* \"#utility.yul\":1394:1400   */\n      dup3\n        /* \"#utility.yul\":1389:1392   */\n      dup2\n        /* \"#utility.yul\":1384:1387   */\n      dup4\n        /* \"#utility.yul\":1378:1401   */\n      mcopy\n        /* \"#utility.yul\":1435:1436   */\n      0x00\n        /* \"#utility.yul\":1426:1432   */\n      dup4\n        /* \"#utility.yul\":1421:1424   */\n      dup4\n        /* \"#utility.yul\":1417:1433   */\n      add\n        /* \"#utility.yul\":1410:1437   */\n      mstore\n        /* \"#utility.yul\":1305:1444   */\n      pop\n      pop\n      pop\n      jump\t// out\n        /* \"#utility.yul\":1450:1552   */\n    tag_317:\n        /* \"#utility.yul\":1491:1497   */\n      0x00\n        /* \"#utility.yul\":1542:1544   */\n      0x1f\n        /* \"#utility.yul\":1538:1545   */\n      not\n        /* \"#utility.yul\":1533:1535   */\n      0x1f\n        /* \"#utility.yul\":1526:1531   */\n      dup4\n        /* \"#utility.yul\":1522:1536   */\n      add\n        /* \"#utility.yul\":1518:1546   */\n      and\n        /* \"#utility.yul\":1508:1546   */\n      swap1\n      pop\n        /* \"#utility.yul\":1450:1552   */\n      swap2\n      swap1\n      pop\n      jump\t// out\n        /* \"#utility.yul\":1558:1935   */\n    tag_318:\n        /* \"#utility.yul\":1646:1649   */\n      0x00\n        /* \"#utility.yul\":1674:1713   */\n      tag_382\n        /* \"#utility.yul\":1707:1712   */\n      dup3\n        /* \"#utility.yul\":1674:1713   */\n      tag_314\n      jump\t// in\n    tag_382:\n        /* \"#utility.yul\":1729:1800   */\n      tag_383\n        /* \"#utility.yul\":1793:1799   */\n      dup2\n        /* \"#utility.yul\":1788:1791   */\n      dup6\n        /* \"#utility.yul\":1729:1800   */\n      tag_315\n      jump\t// in\n    tag_383:\n        /* \"#utility.yul\":1722:1800   */\n      swap4\n      pop\n        /* \"#utility.yul\":1809:1874   */\n      tag_384\n        /* \"#utility.yul\":1867:1873   */\n      dup2\n        /* \"#utility.yul\":1862:1865   */\n      dup6\n        /* \"#utility.yul\":1855:1859   */\n      0x20\n        /* \"#utility.yul\":1848:1853   */\n      dup7\n        /* \"#utility.yul\":1844:1860   */\n      add\n        /* \"#utility.yul\":1809:1874   */\n      tag_316\n      jump\t// in\n    tag_384:\n        /* \"#utility.yul\":1899:1928   */\n      tag_385\n        /* \"#utility.yul\":1921:1927   */\n      dup2\n        /* \"#utility.yul\":1899:1928   */\n      tag_317\n      jump\t// in\n    tag_385:\n        /* \"#utility.yul\":1894:1897   */\n      dup5\n        /* \"#utility.yul\":1890:1929   */\n      add\n        /* \"#utility.yul\":1883:1929   */\n      swap2\n      pop\n        /* \"#utility.yul\":1650:1935   */\n      pop\n        /* \"#utility.yul\":1558:1935   */\n      swap3\n      swap2\n      pop\n      pop\n      jump\t// out\n        /* \"#utility.yul\":1941:2059   */\n    tag_319:\n        /* \"#utility.yul\":2028:2052   */\n      tag_387\n        /* \"#utility.yul\":2046:2051   */\n      dup2\n        /* \"#utility.yul\":2028:2052   */\n      tag_311\n      jump\t// in\n    tag_387:\n        /* \"#utility.yul\":2023:2026   */\n      dup3\n        /* \"#utility.yul\":2016:2053   */\n      mstore\n        /* \"#utility.yul\":1941:2059   */\n      pop\n      pop\n      jump\t// out\n        /* \"#utility.yul\":2065:3002   */\n    tag_21:\n        /* \"#utility.yul\":2330:2334   */\n      0x00\n        /* \"#utility.yul\":2368:2371   */\n      0xa0\n        /* \"#utility.yul\":2357:2366   */\n      dup3\n        /* \"#utility.yul\":2353:2372   */\n      add\n        /* \"#utility.yul\":2345:2372   */\n      swap1\n      pop\n        /* \"#utility.yul\":2418:2427   */\n      dup2\n        /* \"#utility.yul\":2412:2416   */\n      dup2\n        /* \"#utility.yul\":2408:2428   */\n      sub\n        /* \"#utility.yul\":2404:2405   */\n      0x00\n        /* \"#utility.yul\":2393:2402   */\n      dup4\n        /* \"#utility.yul\":2389:2406   */\n      add\n        /* \"#utility.yul\":2382:2429   */\n      mstore\n        /* \"#utility.yul\":2446:2524   */\n      tag_389\n        /* \"#utility.yul\":2519:2523   */\n      dup2\n        /* \"#utility.yul\":2510:2516   */\n      dup9\n        /* \"#utility.yul\":2446:2524   */\n      tag_318\n      jump\t// in\n    tag_389:\n        /* \"#utility.yul\":2438:2524   */\n      swap1\n      pop\n        /* \"#utility.yul\":2534:2606   */\n      tag_390\n        /* \"#utility.yul\":2602:2604   */\n      0x20\n        /* \"#utility.yul\":2591:2600   */\n      dup4\n        /* \"#utility.yul\":2587:2605   */\n      add\n        /* \"#utility.yul\":2578:2584   */\n      dup8\n        /* \"#utility.yul\":2534:2606   */\n      tag_319\n      jump\t// in\n    tag_390:\n        /* \"#utility.yul\":2616:2688   */\n      tag_391\n        /* \"#utility.yul\":2684:2686   */\n      0x40\n        /* \"#utility.yul\":2673:2682   */\n      dup4\n        /* \"#utility.yul\":2669:2687   */\n      add\n        /* \"#utility.yul\":2660:2666   */\n      dup7\n        /* \"#utility.yul\":2616:2688   */\n      tag_319\n      jump\t// in\n    tag_391:\n        /* \"#utility.yul\":2735:2744   */\n      dup2\n        /* \"#utility.yul\":2729:2733   */\n      dup2\n        /* \"#utility.yul\":2725:2745   */\n      sub\n        /* \"#utility.yul\":2720:2722   */\n      0x60\n        /* \"#utility.yul\":2709:2718   */\n      dup4\n        /* \"#utility.yul\":2705:2723   */\n      add\n        /* \"#utility.yul\":2698:2746   */\n      mstore\n        /* \"#utility.yul\":2763:2841   */\n      tag_392\n        /* \"#utility.yul\":2836:2840   */\n      dup2\n        /* \"#utility.yul\":2827:2833   */\n      dup6\n        /* \"#utility.yul\":2763:2841   */\n      tag_318\n      jump\t// in\n    tag_392:\n        /* \"#utility.yul\":2755:2841   */\n      swap1\n      pop\n        /* \"#utility.yul\":2889:2898   */\n      dup2\n        /* \"#utility.yul\":2883:2887   */\n      dup2\n        /* \"#utility.yul\":2879:2899   */\n      sub\n        /* \"#utility.yul\":2873:2876   */\n      0x80\n        /* \"#utility.yul\":2862:2871   */\n      dup4\n        /* \"#utility.yul\":2858:2877   */\n      add\n        /* \"#utility.yul\":2851:2900   */\n      mstore\n        /* \"#utility.yul\":2917:2995   */\n      tag_393\n        /* \"#utility.yul\":2990:2994   */\n      dup2\n        /* \"#utility.yul\":2981:2987   */\n      dup5\n        /* \"#utility.yul\":2917:2995   */\n      tag_318\n      jump\t// in\n    tag_393:\n        /* \"#utility.yul\":2909:2995   */\n      swap1\n      pop\n        /* \"#utility.yul\":2065:3002   */\n      swap7\n      swap6\n      pop\n      pop\n      pop\n      pop\n      pop\n      pop\n      jump\t// out\n        /* \"#utility.yul\":3008:3321   */\n    tag_26:\n        /* \"#utility.yul\":3121:3125   */\n      0x00\n        /* \"#utility.yul\":3159:3161   */\n      0x20\n        /* \"#utility.yul\":3148:3157   */\n      dup3\n        /* \"#utility.yul\":3144:3162   */\n      add\n        /* \"#utility.yul\":3136:3162   */\n      swap1\n      pop\n        /* \"#utility.yul\":3208:3217   */\n      dup2\n        /* \"#utility.yul\":3202:3206   */\n      dup2\n        /* \"#utility.yul\":3198:3218   */\n      sub\n        /* \"#utility.yul\":3194:3195   */\n      0x00\n        /* \"#utility.yul\":3183:3192   */\n      dup4\n        /* \"#utility.yul\":3179:3196   */\n      add\n        /* \"#utility.yul\":3172:3219   */\n      mstore\n        /* \"#utility.yul\":3236:3314   */\n      tag_395\n        /* \"#utility.yul\":3309:3313   */\n      dup2\n        /* \"#utility.yul\":3300:3306   */\n      dup5\n        /* \"#utility.yul\":3236:3314   */\n      tag_318\n      jump\t// in\n    tag_395:\n        /* \"#utility.yul\":3228:3314   */\n      swap1\n      pop\n        /* \"#utility.yul\":3008:3321   */\n      swap3\n      swap2\n      pop\n      pop\n      jump\t// out\n        /* \"#utility.yul\":3327:3464   */\n    tag_320:\n        /* \"#utility.yul\":3417:3423   */\n      0x00\n        /* \"#utility.yul\":3451:3456   */\n      dup2\n        /* \"#utility.yul\":3445:3457   */\n      mload\n        /* \"#utility.yul\":3435:3457   */\n      swap1\n      pop\n        /* \"#utility.yul\":3327:3464   */\n      swap2\n      swap1\n      pop\n      jump\t// out\n        /* \"#utility.yul\":3470:3677   */\n    tag_321:\n        /* \"#utility.yul\":3592:3603   */\n      0x00\n        /* \"#utility.yul\":3626:3632   */\n      dup3\n        /* \"#utility.yul\":3621:3624   */\n      dup3\n        /* \"#utility.yul\":3614:3633   */\n      mstore\n        /* \"#utility.yul\":3666:3670   */\n      0x20\n        /* \"#utility.yul\":3661:3664   */\n      dup3\n        /* \"#utility.yul\":3657:3671   */\n      add\n        /* \"#utility.yul\":3642:3671   */\n      swap1\n      pop\n        /* \"#utility.yul\":3470:3677   */\n      swap3\n      swap2\n      pop\n      pop\n      jump\t// out\n        /* \"#utility.yul\":3683:3838   */\n    tag_322:\n        /* \"#utility.yul\":3773:3777   */\n      0x00\n        /* \"#utility.yul\":3796:3799   */\n      dup2\n        /* \"#utility.yul\":3788:3799   */\n      swap1\n      pop\n        /* \"#utility.yul\":3826:3830   */\n      0x20\n        /* \"#utility.yul\":3821:3824   */\n      dup3\n        /* \"#utility.yul\":3817:3831   */\n      add\n        /* \"#utility.yul\":3809:3831   */\n      swap1\n      pop\n        /* \"#utility.yul\":3683:3838   */\n      swap2\n      swap1\n      pop\n      jump\t// out\n        /* \"#utility.yul\":3844:4003   */\n    tag_323:\n        /* \"#utility.yul\":3918:3929   */\n      0x00\n        /* \"#utility.yul\":3952:3958   */\n      dup3\n        /* \"#utility.yul\":3947:3950   */\n      dup3\n        /* \"#utility.yul\":3940:3959   */\n      mstore\n        /* \"#utility.yul\":3992:3996   */\n      0x20\n        /* \"#utility.yul\":3987:3990   */\n      dup3\n        /* \"#utility.yul\":3983:3997   */\n      add\n        /* \"#utility.yul\":3968:3997   */\n      swap1\n      pop\n        /* \"#utility.yul\":3844:4003   */\n      swap3\n      swap2\n      pop\n      pop\n      jump\t// out\n        /* \"#utility.yul\":4009:4366   */\n    tag_324:\n        /* \"#utility.yul\":4087:4090   */\n      0x00\n        /* \"#utility.yul\":4115:4154   */\n      tag_401\n        /* \"#utility.yul\":4148:4153   */\n      dup3\n        /* \"#utility.yul\":4115:4154   */\n      tag_314\n      jump\t// in\n    tag_401:\n        /* \"#utility.yul\":4170:4231   */\n      tag_402\n        /* \"#utility.yul\":4224:4230   */\n      dup2\n        /* \"#utility.yul\":4219:4222   */\n      dup6\n        /* \"#utility.yul\":4170:4231   */\n      tag_323\n      jump\t// in\n    tag_402:\n        /* \"#utility.yul\":4163:4231   */\n      swap4\n      pop\n        /* \"#utility.yul\":4240:4305   */\n      tag_403\n        /* \"#utility.yul\":4298:4304   */\n      dup2\n        /* \"#utility.yul\":4293:4296   */\n      dup6\n        /* \"#utility.yul\":4286:4290   */\n      0x20\n        /* \"#utility.yul\":4279:4284   */\n      dup7\n        /* \"#utility.yul\":4275:4291   */\n      add\n        /* \"#utility.yul\":4240:4305   */\n      tag_316\n      jump\t// in\n    tag_403:\n        /* \"#utility.yul\":4330:4359   */\n      tag_404\n        /* \"#utility.yul\":4352:4358   */\n      dup2\n        /* \"#utility.yul\":4330:4359   */\n      tag_317\n      jump\t// in\n    tag_404:\n        /* \"#utility.yul\":4325:4328   */\n      dup5\n        /* \"#utility.yul\":4321:4360   */\n      add\n        /* \"#utility.yul\":4314:4360   */\n      swap2\n      pop\n        /* \"#utility.yul\":4091:4366   */\n      pop\n        /* \"#utility.yul\":4009:4366   */\n      swap3\n      swap2\n      pop\n      pop\n      jump\t// out\n        /* \"#utility.yul\":4372:4480   */\n    tag_325:\n        /* \"#utility.yul\":4449:4473   */\n      tag_406\n        /* \"#utility.yul\":4467:4472   */\n      dup2\n        /* \"#utility.yul\":4449:4473   */\n      tag_311\n      jump\t// in\n    tag_406:\n        /* \"#utility.yul\":4444:4447   */\n      dup3\n        /* \"#utility.yul\":4437:4474   */\n      mstore\n        /* \"#utility.yul\":4372:4480   */\n      pop\n      pop\n      jump\t// out\n        /* \"#utility.yul\":4538:5799   */\n    tag_326:\n        /* \"#utility.yul\":4643:4646   */\n      0x00\n        /* \"#utility.yul\":4679:4683   */\n      0xa0\n        /* \"#utility.yul\":4674:4677   */\n      dup4\n        /* \"#utility.yul\":4670:4684   */\n      add\n        /* \"#utility.yul\":4766:4770   */\n      0x00\n        /* \"#utility.yul\":4759:4764   */\n      dup4\n        /* \"#utility.yul\":4755:4771   */\n      add\n        /* \"#utility.yul\":4749:4772   */\n      mload\n        /* \"#utility.yul\":4819:4822   */\n      dup5\n        /* \"#utility.yul\":4813:4817   */\n      dup3\n        /* \"#utility.yul\":4809:4823   */\n      sub\n        /* \"#utility.yul\":4802:4806   */\n      0x00\n        /* \"#utility.yul\":4797:4800   */\n      dup7\n        /* \"#utility.yul\":4793:4807   */\n      add\n        /* \"#utility.yul\":4786:4824   */\n      mstore\n        /* \"#utility.yul\":4845:4918   */\n      tag_408\n        /* \"#utility.yul\":4913:4917   */\n      dup3\n        /* \"#utility.yul\":4899:4911   */\n      dup3\n        /* \"#utility.yul\":4845:4918   */\n      tag_324\n      jump\t// in\n    tag_408:\n        /* \"#utility.yul\":4837:4918   */\n      swap2\n      pop\n        /* \"#utility.yul\":4694:4929   */\n      pop\n        /* \"#utility.yul\":5013:5017   */\n      0x20\n        /* \"#utility.yul\":5006:5011   */\n      dup4\n        /* \"#utility.yul\":5002:5018   */\n      add\n        /* \"#utility.yul\":4996:5019   */\n      mload\n        /* \"#utility.yul\":5032:5095   */\n      tag_409\n        /* \"#utility.yul\":5089:5093   */\n      0x20\n        /* \"#utility.yul\":5084:5087   */\n      dup7\n        /* \"#utility.yul\":5080:5094   */\n      add\n        /* \"#utility.yul\":5066:5078   */\n      dup3\n        /* \"#utility.yul\":5032:5095   */\n      tag_325\n      jump\t// in\n    tag_409:\n        /* \"#utility.yul\":4939:5105   */\n      pop\n        /* \"#utility.yul\":5188:5192   */\n      0x40\n        /* \"#utility.yul\":5181:5186   */\n      dup4\n        /* \"#utility.yul\":5177:5193   */\n      add\n        /* \"#utility.yul\":5171:5194   */\n      mload\n        /* \"#utility.yul\":5207:5270   */\n      tag_410\n        /* \"#utility.yul\":5264:5268   */\n      0x40\n        /* \"#utility.yul\":5259:5262   */\n      dup7\n        /* \"#utility.yul\":5255:5269   */\n      add\n        /* \"#utility.yul\":5241:5253   */\n      dup3\n        /* \"#utility.yul\":5207:5270   */\n      tag_325\n      jump\t// in\n    tag_410:\n        /* \"#utility.yul\":5115:5280   */\n      pop\n        /* \"#utility.yul\":5363:5367   */\n      0x60\n        /* \"#utility.yul\":5356:5361   */\n      dup4\n        /* \"#utility.yul\":5352:5368   */\n      add\n        /* \"#utility.yul\":5346:5369   */\n      mload\n        /* \"#utility.yul\":5416:5419   */\n      dup5\n        /* \"#utility.yul\":5410:5414   */\n      dup3\n        /* \"#utility.yul\":5406:5420   */\n      sub\n        /* \"#utility.yul\":5399:5403   */\n      0x60\n        /* \"#utility.yul\":5394:5397   */\n      dup7\n        /* \"#utility.yul\":5390:5404   */\n      add\n        /* \"#utility.yul\":5383:5421   */\n      mstore\n        /* \"#utility.yul\":5442:5515   */\n      tag_411\n        /* \"#utility.yul\":5510:5514   */\n      dup3\n        /* \"#utility.yul\":5496:5508   */\n      dup3\n        /* \"#utility.yul\":5442:5515   */\n      tag_324\n      jump\t// in\n    tag_411:\n        /* \"#utility.yul\":5434:5515   */\n      swap2\n      pop\n        /* \"#utility.yul\":5290:5526   */\n      pop\n        /* \"#utility.yul\":5609:5613   */\n      0x80\n        /* \"#utility.yul\":5602:5607   */\n      dup4\n        /* \"#utility.yul\":5598:5614   */\n      add\n        /* \"#utility.yul\":5592:5615   */\n      mload\n        /* \"#utility.yul\":5662:5665   */\n      dup5\n        /* \"#utility.yul\":5656:5660   */\n      dup3\n        /* \"#utility.yul\":5652:5666   */\n      sub\n        /* \"#utility.yul\":5645:5649   */\n      0x80\n        /* \"#utility.yul\":5640:5643   */\n      dup7\n        /* \"#utility.yul\":5636:5650   */\n      add\n        /* \"#utility.yul\":5629:5667   */\n      mstore\n        /* \"#utility.yul\":5688:5761   */\n      tag_412\n        /* \"#utility.yul\":5756:5760   */\n      dup3\n        /* \"#utility.yul\":5742:5754   */\n      dup3\n        /* \"#utility.yul\":5688:5761   */\n      tag_324\n      jump\t// in\n    tag_412:\n        /* \"#utility.yul\":5680:5761   */\n      swap2\n      pop\n        /* \"#utility.yul\":5536:5772   */\n      pop\n        /* \"#utility.yul\":5789:5793   */\n      dup1\n        /* \"#utility.yul\":5782:5793   */\n      swap2\n      pop\n        /* \"#utility.yul\":4648:5799   */\n      pop\n        /* \"#utility.yul\":4538:5799   */\n      swap3\n      swap2\n      pop\n      pop\n      jump\t// out\n        /* \"#utility.yul\":5805:6053   */\n    tag_327:\n        /* \"#utility.yul\":5920:5930   */\n      0x00\n        /* \"#utility.yul\":5955:6047   */\n      tag_414\n        /* \"#utility.yul\":6043:6046   */\n      dup4\n        /* \"#utility.yul\":6035:6041   */\n      dup4\n        /* \"#utility.yul\":5955:6047   */\n      tag_326\n      jump\t// in\n    tag_414:\n        /* \"#utility.yul\":5941:6047   */\n      swap1\n      pop\n        /* \"#utility.yul\":5805:6053   */\n      swap3\n      swap2\n      pop\n      pop\n      jump\t// out\n        /* \"#utility.yul\":6059:6195   */\n    tag_328:\n        /* \"#utility.yul\":6152:6156   */\n      0x00\n        /* \"#utility.yul\":6184:6188   */\n      0x20\n        /* \"#utility.yul\":6179:6182   */\n      dup3\n        /* \"#utility.yul\":6175:6189   */\n      add\n        /* \"#utility.yul\":6167:6189   */\n      swap1\n      pop\n        /* \"#utility.yul\":6059:6195   */\n      swap2\n      swap1\n      pop\n      jump\t// out\n        /* \"#utility.yul\":6257:7352   */\n    tag_329:\n        /* \"#utility.yul\":6422:6425   */\n      0x00\n        /* \"#utility.yul\":6451:6528   */\n      tag_417\n        /* \"#utility.yul\":6522:6527   */\n      dup3\n        /* \"#utility.yul\":6451:6528   */\n      tag_320\n      jump\t// in\n    tag_417:\n        /* \"#utility.yul\":6544:6653   */\n      tag_418\n        /* \"#utility.yul\":6646:6652   */\n      dup2\n        /* \"#utility.yul\":6641:6644   */\n      dup6\n        /* \"#utility.yul\":6544:6653   */\n      tag_321\n      jump\t// in\n    tag_418:\n        /* \"#utility.yul\":6537:6653   */\n      swap4\n      pop\n        /* \"#utility.yul\":6679:6682   */\n      dup4\n        /* \"#utility.yul\":6724:6728   */\n      0x20\n        /* \"#utility.yul\":6716:6722   */\n      dup3\n        /* \"#utility.yul\":6712:6729   */\n      mul\n        /* \"#utility.yul\":6707:6710   */\n      dup6\n        /* \"#utility.yul\":6703:6730   */\n      add\n        /* \"#utility.yul\":6754:6833   */\n      tag_419\n        /* \"#utility.yul\":6827:6832   */\n      dup6\n        /* \"#utility.yul\":6754:6833   */\n      tag_322\n      jump\t// in\n    tag_419:\n        /* \"#utility.yul\":6856:6863   */\n      dup1\n        /* \"#utility.yul\":6887:6888   */\n      0x00\n        /* \"#utility.yul\":6872:7307   */\n    tag_420:\n        /* \"#utility.yul\":6897:6903   */\n      dup6\n        /* \"#utility.yul\":6894:6895   */\n      dup2\n        /* \"#utility.yul\":6891:6904   */\n      lt\n        /* \"#utility.yul\":6872:7307   */\n      iszero\n      tag_422\n      jumpi\n        /* \"#utility.yul\":6968:6977   */\n      dup5\n        /* \"#utility.yul\":6962:6966   */\n      dup5\n        /* \"#utility.yul\":6958:6978   */\n      sub\n        /* \"#utility.yul\":6953:6956   */\n      dup10\n        /* \"#utility.yul\":6946:6979   */\n      mstore\n        /* \"#utility.yul\":7019:7025   */\n      dup2\n        /* \"#utility.yul\":7013:7026   */\n      mload\n        /* \"#utility.yul\":7047:7157   */\n      tag_423\n        /* \"#utility.yul\":7152:7156   */\n      dup6\n        /* \"#utility.yul\":7137:7150   */\n      dup3\n        /* \"#utility.yul\":7047:7157   */\n      tag_327\n      jump\t// in\n    tag_423:\n        /* \"#utility.yul\":7039:7157   */\n      swap5\n      pop\n        /* \"#utility.yul\":7180:7263   */\n      tag_424\n        /* \"#utility.yul\":7256:7262   */\n      dup4\n        /* \"#utility.yul\":7180:7263   */\n      tag_328\n      jump\t// in\n    tag_424:\n        /* \"#utility.yul\":7170:7263   */\n      swap3\n      pop\n        /* \"#utility.yul\":7292:7296   */\n      0x20\n        /* \"#utility.yul\":7287:7290   */\n      dup11\n        /* \"#utility.yul\":7283:7297   */\n      add\n        /* \"#utility.yul\":7276:7297   */\n      swap10\n      pop\n        /* \"#utility.yul\":6932:7307   */\n      pop\n        /* \"#utility.yul\":6919:6920   */\n      0x01\n        /* \"#utility.yul\":6916:6917   */\n      dup2\n        /* \"#utility.yul\":6912:6921   */\n      add\n        /* \"#utility.yul\":6907:6921   */\n      swap1\n      pop\n        /* \"#utility.yul\":6872:7307   */\n      jump(tag_420)\n    tag_422:\n        /* \"#utility.yul\":6876:6890   */\n      pop\n        /* \"#utility.yul\":7323:7327   */\n      dup3\n        /* \"#utility.yul\":7316:7327   */\n      swap8\n      pop\n        /* \"#utility.yul\":7343:7346   */\n      dup8\n        /* \"#utility.yul\":7336:7346   */\n      swap6\n      pop\n        /* \"#utility.yul\":6427:7352   */\n      pop\n      pop\n      pop\n      pop\n      pop\n        /* \"#utility.yul\":6257:7352   */\n      swap3\n      swap2\n      pop\n      pop\n      jump\t// out\n        /* \"#utility.yul\":7358:7823   */\n    tag_30:\n        /* \"#utility.yul\":7547:7551   */\n      0x00\n        /* \"#utility.yul\":7585:7587   */\n      0x20\n        /* \"#utility.yul\":7574:7583   */\n      dup3\n        /* \"#utility.yul\":7570:7588   */\n      add\n        /* \"#utility.yul\":7562:7588   */\n      swap1\n      pop\n        /* \"#utility.yul\":7634:7643   */\n      dup2\n        /* \"#utility.yul\":7628:7632   */\n      dup2\n        /* \"#utility.yul\":7624:7644   */\n      sub\n        /* \"#utility.yul\":7620:7621   */\n      0x00\n        /* \"#utility.yul\":7609:7618   */\n      dup4\n        /* \"#utility.yul\":7605:7622   */\n      add\n        /* \"#utility.yul\":7598:7645   */\n      mstore\n        /* \"#utility.yul\":7662:7816   */\n      tag_426\n        /* \"#utility.yul\":7811:7815   */\n      dup2\n        /* \"#utility.yul\":7802:7808   */\n      dup5\n        /* \"#utility.yul\":7662:7816   */\n      tag_329\n      jump\t// in\n    tag_426:\n        /* \"#utility.yul\":7654:7816   */\n      swap1\n      pop\n        /* \"#utility.yul\":7358:7823   */\n      swap3\n      swap2\n      pop\n      pop\n      jump\t// out\n        /* \"#utility.yul\":7829:7946   */\n    tag_330:\n        /* \"#utility.yul\":7938:7939   */\n      0x00\n        /* \"#utility.yul\":7935:7936   */\n      dup1\n        /* \"#utility.yul\":7928:7940   */\n      revert\n        /* \"#utility.yul\":7952:8069   */\n    tag_331:\n        /* \"#utility.yul\":8061:8062   */\n      0x00\n        /* \"#utility.yul\":8058:8059   */\n      dup1\n        /* \"#utility.yul\":8051:8063   */\n      revert\n        /* \"#utility.yul\":8075:8255   */\n    tag_136:\n        /* \"#utility.yul\":8123:8200   */\n      0x4e487b7100000000000000000000000000000000000000000000000000000000\n        /* \"#utility.yul\":8120:8121   */\n      0x00\n        /* \"#utility.yul\":8113:8201   */\n      mstore\n        /* \"#utility.yul\":8220:8224   */\n      0x41\n        /* \"#utility.yul\":8217:8218   */\n      0x04\n        /* \"#utility.yul\":8210:8225   */\n      mstore\n        /* \"#utility.yul\":8244:8248   */\n      0x24\n        /* \"#utility.yul\":8241:8242   */\n      0x00\n        /* \"#utility.yul\":8234:8249   */\n      revert\n        /* \"#utility.yul\":8261:8542   */\n    tag_332:\n        /* \"#utility.yul\":8344:8371   */\n      tag_431\n        /* \"#utility.yul\":8366:8370   */\n      dup3\n        /* \"#utility.yul\":8344:8371   */\n      tag_317\n      jump\t// in\n    tag_431:\n        /* \"#utility.yul\":8336:8342   */\n      dup2\n        /* \"#utility.yul\":8332:8372   */\n      add\n        /* \"#utility.yul\":8474:8480   */\n      dup2\n        /* \"#utility.yul\":8462:8472   */\n      dup2\n        /* \"#utility.yul\":8459:8481   */\n      lt\n        /* \"#utility.yul\":8438:8456   */\n      0xffffffffffffffff\n        /* \"#utility.yul\":8426:8436   */\n      dup3\n        /* \"#utility.yul\":8423:8457   */\n      gt\n        /* \"#utility.yul\":8420:8482   */\n      or\n        /* \"#utility.yul\":8417:8505   */\n      iszero\n      tag_432\n      jumpi\n        /* \"#utility.yul\":8485:8503   */\n      tag_433\n      tag_136\n      jump\t// in\n    tag_433:\n        /* \"#utility.yul\":8417:8505   */\n    tag_432:\n        /* \"#utility.yul\":8525:8535   */\n      dup1\n        /* \"#utility.yul\":8521:8523   */\n      0x40\n        /* \"#utility.yul\":8514:8536   */\n      mstore\n        /* \"#utility.yul\":8304:8542   */\n      pop\n        /* \"#utility.yul\":8261:8542   */\n      pop\n      pop\n      jump\t// out\n        /* \"#utility.yul\":8548:8677   */\n    tag_333:\n        /* \"#utility.yul\":8582:8588   */\n      0x00\n        /* \"#utility.yul\":8609:8629   */\n      tag_435\n      tag_308\n      jump\t// in\n    tag_435:\n        /* \"#utility.yul\":8599:8629   */\n      swap1\n      pop\n        /* \"#utility.yul\":8638:8671   */\n      tag_436\n        /* \"#utility.yul\":8666:8670   */\n      dup3\n        /* \"#utility.yul\":8658:8664   */\n      dup3\n        /* \"#utility.yul\":8638:8671   */\n      tag_332\n      jump\t// in\n    tag_436:\n        /* \"#utility.yul\":8548:8677   */\n      swap2\n      swap1\n      pop\n      jump\t// out\n        /* \"#utility.yul\":8683:8991   */\n    tag_334:\n        /* \"#utility.yul\":8745:8749   */\n      0x00\n        /* \"#utility.yul\":8835:8853   */\n      0xffffffffffffffff\n        /* \"#utility.yul\":8827:8833   */\n      dup3\n        /* \"#utility.yul\":8824:8854   */\n      gt\n        /* \"#utility.yul\":8821:8877   */\n      iszero\n      tag_438\n      jumpi\n        /* \"#utility.yul\":8857:8875   */\n      tag_439\n      tag_136\n      jump\t// in\n    tag_439:\n        /* \"#utility.yul\":8821:8877   */\n    tag_438:\n        /* \"#utility.yul\":8895:8924   */\n      tag_440\n        /* \"#utility.yul\":8917:8923   */\n      dup3\n        /* \"#utility.yul\":8895:8924   */\n      tag_317\n      jump\t// in\n    tag_440:\n        /* \"#utility.yul\":8887:8924   */\n      swap1\n      pop\n        /* \"#utility.yul\":8979:8983   */\n      0x20\n        /* \"#utility.yul\":8973:8977   */\n      dup2\n        /* \"#utility.yul\":8969:8984   */\n      add\n        /* \"#utility.yul\":8961:8984   */\n      swap1\n      pop\n        /* \"#utility.yul\":8683:8991   */\n      swap2\n      swap1\n      pop\n      jump\t// out\n        /* \"#utility.yul\":8997:9145   */\n    tag_335:\n        /* \"#utility.yul\":9095:9101   */\n      dup3\n        /* \"#utility.yul\":9090:9093   */\n      dup2\n        /* \"#utility.yul\":9085:9088   */\n      dup4\n        /* \"#utility.yul\":9072:9102   */\n      calldatacopy\n        /* \"#utility.yul\":9136:9137   */\n      0x00\n        /* \"#utility.yul\":9127:9133   */\n      dup4\n        /* \"#utility.yul\":9122:9125   */\n      dup4\n        /* \"#utility.yul\":9118:9134   */\n      add\n        /* \"#utility.yul\":9111:9138   */\n      mstore\n        /* \"#utility.yul\":8997:9145   */\n      pop\n      pop\n      pop\n      jump\t// out\n        /* \"#utility.yul\":9151:9576   */\n    tag_336:\n        /* \"#utility.yul\":9229:9234   */\n      0x00\n        /* \"#utility.yul\":9254:9320   */\n      tag_443\n        /* \"#utility.yul\":9270:9319   */\n      tag_444\n        /* \"#utility.yul\":9312:9318   */\n      dup5\n        /* \"#utility.yul\":9270:9319   */\n      tag_334\n      jump\t// in\n    tag_444:\n        /* \"#utility.yul\":9254:9320   */\n      tag_333\n      jump\t// in\n    tag_443:\n        /* \"#utility.yul\":9245:9320   */\n      swap1\n      pop\n        /* \"#utility.yul\":9343:9349   */\n      dup3\n        /* \"#utility.yul\":9336:9341   */\n      dup2\n        /* \"#utility.yul\":9329:9350   */\n      mstore\n        /* \"#utility.yul\":9381:9385   */\n      0x20\n        /* \"#utility.yul\":9374:9379   */\n      dup2\n        /* \"#utility.yul\":9370:9386   */\n      add\n        /* \"#utility.yul\":9419:9422   */\n      dup5\n        /* \"#utility.yul\":9410:9416   */\n      dup5\n        /* \"#utility.yul\":9405:9408   */\n      dup5\n        /* \"#utility.yul\":9401:9417   */\n      add\n        /* \"#utility.yul\":9398:9423   */\n      gt\n        /* \"#utility.yul\":9395:9507   */\n      iszero\n      tag_445\n      jumpi\n        /* \"#utility.yul\":9426:9505   */\n      tag_446\n      tag_331\n      jump\t// in\n    tag_446:\n        /* \"#utility.yul\":9395:9507   */\n    tag_445:\n        /* \"#utility.yul\":9516:9570   */\n      tag_447\n        /* \"#utility.yul\":9563:9569   */\n      dup5\n        /* \"#utility.yul\":9558:9561   */\n      dup3\n        /* \"#utility.yul\":9553:9556   */\n      dup6\n        /* \"#utility.yul\":9516:9570   */\n      tag_335\n      jump\t// in\n    tag_447:\n        /* \"#utility.yul\":9235:9576   */\n      pop\n        /* \"#utility.yul\":9151:9576   */\n      swap4\n      swap3\n      pop\n      pop\n      pop\n      jump\t// out\n        /* \"#utility.yul\":9596:9936   */\n    tag_337:\n        /* \"#utility.yul\":9652:9657   */\n      0x00\n        /* \"#utility.yul\":9701:9704   */\n      dup3\n        /* \"#utility.yul\":9694:9698   */\n      0x1f\n        /* \"#utility.yul\":9686:9692   */\n      dup4\n        /* \"#utility.yul\":9682:9699   */\n      add\n        /* \"#utility.yul\":9678:9705   */\n      slt\n        /* \"#utility.yul\":9668:9790   */\n      tag_449\n      jumpi\n        /* \"#utility.yul\":9709:9788   */\n      tag_450\n      tag_330\n      jump\t// in\n    tag_450:\n        /* \"#utility.yul\":9668:9790   */\n    tag_449:\n        /* \"#utility.yul\":9826:9832   */\n      dup2\n        /* \"#utility.yul\":9813:9833   */\n      calldataload\n        /* \"#utility.yul\":9851:9930   */\n      tag_451\n        /* \"#utility.yul\":9926:9929   */\n      dup5\n        /* \"#utility.yul\":9918:9924   */\n      dup3\n        /* \"#utility.yul\":9911:9915   */\n      0x20\n        /* \"#utility.yul\":9903:9909   */\n      dup7\n        /* \"#utility.yul\":9899:9916   */\n      add\n        /* \"#utility.yul\":9851:9930   */\n      tag_336\n      jump\t// in\n    tag_451:\n        /* \"#utility.yul\":9842:9930   */\n      swap2\n      pop\n        /* \"#utility.yul\":9658:9936   */\n      pop\n        /* \"#utility.yul\":9596:9936   */\n      swap3\n      swap2\n      pop\n      pop\n      jump\t// out\n        /* \"#utility.yul\":9942:10451   */\n    tag_37:\n        /* \"#utility.yul\":10011:10017   */\n      0x00\n        /* \"#utility.yul\":10060:10062   */\n      0x20\n        /* \"#utility.yul\":10048:10057   */\n      dup3\n        /* \"#utility.yul\":10039:10046   */\n      dup5\n        /* \"#utility.yul\":10035:10058   */\n      sub\n        /* \"#utility.yul\":10031:10063   */\n      slt\n        /* \"#utility.yul\":10028:10147   */\n      iszero\n      tag_453\n      jumpi\n        /* \"#utility.yul\":10066:10145   */\n      tag_454\n      tag_309\n      jump\t// in\n    tag_454:\n        /* \"#utility.yul\":10028:10147   */\n    tag_453:\n        /* \"#utility.yul\":10214:10215   */\n      0x00\n        /* \"#utility.yul\":10203:10212   */\n      dup3\n        /* \"#utility.yul\":10199:10216   */\n      add\n        /* \"#utility.yul\":10186:10217   */\n      calldataload\n        /* \"#utility.yul\":10244:10262   */\n      0xffffffffffffffff\n        /* \"#utility.yul\":10236:10242   */\n      dup2\n        /* \"#utility.yul\":10233:10263   */\n      gt\n        /* \"#utility.yul\":10230:10347   */\n      iszero\n      tag_455\n      jumpi\n        /* \"#utility.yul\":10266:10345   */\n      tag_456\n      tag_310\n      jump\t// in\n    tag_456:\n        /* \"#utility.yul\":10230:10347   */\n    tag_455:\n        /* \"#utility.yul\":10371:10434   */\n      tag_457\n        /* \"#utility.yul\":10426:10433   */\n      dup5\n        /* \"#utility.yul\":10417:10423   */\n      dup3\n        /* \"#utility.yul\":10406:10415   */\n      dup6\n        /* \"#utility.yul\":10402:10424   */\n      add\n        /* \"#utility.yul\":10371:10434   */\n      tag_337\n      jump\t// in\n    tag_457:\n        /* \"#utility.yul\":10361:10434   */\n      swap2\n      pop\n        /* \"#utility.yul\":10157:10444   */\n      pop\n        /* \"#utility.yul\":9942:10451   */\n      swap3\n      swap2\n      pop\n      pop\n      jump\t// out\n        /* \"#utility.yul\":10457:10679   */\n    tag_40:\n        /* \"#utility.yul\":10550:10554   */\n      0x00\n        /* \"#utility.yul\":10588:10590   */\n      0x20\n        /* \"#utility.yul\":10577:10586   */\n      dup3\n        /* \"#utility.yul\":10573:10591   */\n      add\n        /* \"#utility.yul\":10565:10591   */\n      swap1\n      pop\n        /* \"#utility.yul\":10601:10672   */\n      tag_459\n        /* \"#utility.yul\":10669:10670   */\n      0x00\n        /* \"#utility.yul\":10658:10667   */\n      dup4\n        /* \"#utility.yul\":10654:10671   */\n      add\n        /* \"#utility.yul\":10645:10651   */\n      dup5\n        /* \"#utility.yul\":10601:10672   */\n      tag_319\n      jump\t// in\n    tag_459:\n        /* \"#utility.yul\":10457:10679   */\n      swap3\n      swap2\n      pop\n      pop\n      jump\t// out\n        /* \"#utility.yul\":10685:11260   */\n    tag_47:\n        /* \"#utility.yul\":10902:10906   */\n      0x00\n        /* \"#utility.yul\":10940:10942   */\n      0x40\n        /* \"#utility.yul\":10929:10938   */\n      dup3\n        /* \"#utility.yul\":10925:10943   */\n      add\n        /* \"#utility.yul\":10917:10943   */\n      swap1\n      pop\n        /* \"#utility.yul\":10953:11024   */\n      tag_461\n        /* \"#utility.yul\":11021:11022   */\n      0x00\n        /* \"#utility.yul\":11010:11019   */\n      dup4\n        /* \"#utility.yul\":11006:11023   */\n      add\n        /* \"#utility.yul\":10997:11003   */\n      dup6\n        /* \"#utility.yul\":10953:11024   */\n      tag_319\n      jump\t// in\n    tag_461:\n        /* \"#utility.yul\":11071:11080   */\n      dup2\n        /* \"#utility.yul\":11065:11069   */\n      dup2\n        /* \"#utility.yul\":11061:11081   */\n      sub\n        /* \"#utility.yul\":11056:11058   */\n      0x20\n        /* \"#utility.yul\":11045:11054   */\n      dup4\n        /* \"#utility.yul\":11041:11059   */\n      add\n        /* \"#utility.yul\":11034:11082   */\n      mstore\n        /* \"#utility.yul\":11099:11253   */\n      tag_462\n        /* \"#utility.yul\":11248:11252   */\n      dup2\n        /* \"#utility.yul\":11239:11245   */\n      dup5\n        /* \"#utility.yul\":11099:11253   */\n      tag_329\n      jump\t// in\n    tag_462:\n        /* \"#utility.yul\":11091:11253   */\n      swap1\n      pop\n        /* \"#utility.yul\":10685:11260   */\n      swap4\n      swap3\n      pop\n      pop\n      pop\n      jump\t// out\n        /* \"#utility.yul\":11266:12391   */\n    tag_50:\n        /* \"#utility.yul\":11372:11378   */\n      0x00\n        /* \"#utility.yul\":11380:11386   */\n      dup1\n        /* \"#utility.yul\":11388:11394   */\n      0x00\n        /* \"#utility.yul\":11396:11402   */\n      dup1\n        /* \"#utility.yul\":11445:11448   */\n      0x80\n        /* \"#utility.yul\":11433:11442   */\n      dup6\n        /* \"#utility.yul\":11424:11431   */\n      dup8\n        /* \"#utility.yul\":11420:11443   */\n      sub\n        /* \"#utility.yul\":11416:11449   */\n      slt\n        /* \"#utility.yul\":11413:11533   */\n      iszero\n      tag_464\n      jumpi\n        /* \"#utility.yul\":11452:11531   */\n      tag_465\n      tag_309\n      jump\t// in\n    tag_465:\n        /* \"#utility.yul\":11413:11533   */\n    tag_464:\n        /* \"#utility.yul\":11600:11601   */\n      0x00\n        /* \"#utility.yul\":11589:11598   */\n      dup6\n        /* \"#utility.yul\":11585:11602   */\n      add\n        /* \"#utility.yul\":11572:11603   */\n      calldataload\n        /* \"#utility.yul\":11630:11648   */\n      0xffffffffffffffff\n        /* \"#utility.yul\":11622:11628   */\n      dup2\n        /* \"#utility.yul\":11619:11649   */\n      gt\n        /* \"#utility.yul\":11616:11733   */\n      iszero\n      tag_466\n      jumpi\n        /* \"#utility.yul\":11652:11731   */\n      tag_467\n      tag_310\n      jump\t// in\n    tag_467:\n        /* \"#utility.yul\":11616:11733   */\n    tag_466:\n        /* \"#utility.yul\":11757:11820   */\n      tag_468\n        /* \"#utility.yul\":11812:11819   */\n      dup8\n        /* \"#utility.yul\":11803:11809   */\n      dup3\n        /* \"#utility.yul\":11792:11801   */\n      dup9\n        /* \"#utility.yul\":11788:11810   */\n      add\n        /* \"#utility.yul\":11757:11820   */\n      tag_337\n      jump\t// in\n    tag_468:\n        /* \"#utility.yul\":11747:11820   */\n      swap5\n      pop\n        /* \"#utility.yul\":11543:11830   */\n      pop\n        /* \"#utility.yul\":11869:11871   */\n      0x20\n        /* \"#utility.yul\":11895:11948   */\n      tag_469\n        /* \"#utility.yul\":11940:11947   */\n      dup8\n        /* \"#utility.yul\":11931:11937   */\n      dup3\n        /* \"#utility.yul\":11920:11929   */\n      dup9\n        /* \"#utility.yul\":11916:11938   */\n      add\n        /* \"#utility.yul\":11895:11948   */\n      tag_313\n      jump\t// in\n    tag_469:\n        /* \"#utility.yul\":11885:11948   */\n      swap4\n      pop\n        /* \"#utility.yul\":11840:11958   */\n      pop\n        /* \"#utility.yul\":11997:11999   */\n      0x40\n        /* \"#utility.yul\":12023:12076   */\n      tag_470\n        /* \"#utility.yul\":12068:12075   */\n      dup8\n        /* \"#utility.yul\":12059:12065   */\n      dup3\n        /* \"#utility.yul\":12048:12057   */\n      dup9\n        /* \"#utility.yul\":12044:12066   */\n      add\n        /* \"#utility.yul\":12023:12076   */\n      tag_313\n      jump\t// in\n    tag_470:\n        /* \"#utility.yul\":12013:12076   */\n      swap3\n      pop\n        /* \"#utility.yul\":11968:12086   */\n      pop\n        /* \"#utility.yul\":12153:12155   */\n      0x60\n        /* \"#utility.yul\":12142:12151   */\n      dup6\n        /* \"#utility.yul\":12138:12156   */\n      add\n        /* \"#utility.yul\":12125:12157   */\n      calldataload\n        /* \"#utility.yul\":12184:12202   */\n      0xffffffffffffffff\n        /* \"#utility.yul\":12176:12182   */\n      dup2\n        /* \"#utility.yul\":12173:12203   */\n      gt\n        /* \"#utility.yul\":12170:12287   */\n      iszero\n      tag_471\n      jumpi\n        /* \"#utility.yul\":12206:12285   */\n      tag_472\n      tag_310\n      jump\t// in\n    tag_472:\n        /* \"#utility.yul\":12170:12287   */\n    tag_471:\n        /* \"#utility.yul\":12311:12374   */\n      tag_473\n        /* \"#utility.yul\":12366:12373   */\n      dup8\n        /* \"#utility.yul\":12357:12363   */\n      dup3\n        /* \"#utility.yul\":12346:12355   */\n      dup9\n        /* \"#utility.yul\":12342:12364   */\n      add\n        /* \"#utility.yul\":12311:12374   */\n      tag_337\n      jump\t// in\n    tag_473:\n        /* \"#utility.yul\":12301:12374   */\n      swap2\n      pop\n        /* \"#utility.yul\":12096:12384   */\n      pop\n        /* \"#utility.yul\":11266:12391   */\n      swap3\n      swap6\n      swap2\n      swap5\n      pop\n      swap3\n      pop\n      jump\t// out\n        /* \"#utility.yul\":12397:12487   */\n    tag_338:\n        /* \"#utility.yul\":12431:12438   */\n      0x00\n        /* \"#utility.yul\":12474:12479   */\n      dup2\n        /* \"#utility.yul\":12467:12480   */\n      iszero\n        /* \"#utility.yul\":12460:12481   */\n      iszero\n        /* \"#utility.yul\":12449:12481   */\n      swap1\n      pop\n        /* \"#utility.yul\":12397:12487   */\n      swap2\n      swap1\n      pop\n      jump\t// out\n        /* \"#utility.yul\":12493:12602   */\n    tag_339:\n        /* \"#utility.yul\":12574:12595   */\n      tag_476\n        /* \"#utility.yul\":12589:12594   */\n      dup2\n        /* \"#utility.yul\":12574:12595   */\n      tag_338\n      jump\t// in\n    tag_476:\n        /* \"#utility.yul\":12569:12572   */\n      dup3\n        /* \"#utility.yul\":12562:12596   */\n      mstore\n        /* \"#utility.yul\":12493:12602   */\n      pop\n      pop\n      jump\t// out\n        /* \"#utility.yul\":12608:12818   */\n    tag_55:\n        /* \"#utility.yul\":12695:12699   */\n      0x00\n        /* \"#utility.yul\":12733:12735   */\n      0x20\n        /* \"#utility.yul\":12722:12731   */\n      dup3\n        /* \"#utility.yul\":12718:12736   */\n      add\n        /* \"#utility.yul\":12710:12736   */\n      swap1\n      pop\n        /* \"#utility.yul\":12746:12811   */\n      tag_478\n        /* \"#utility.yul\":12808:12809   */\n      0x00\n        /* \"#utility.yul\":12797:12806   */\n      dup4\n        /* \"#utility.yul\":12793:12810   */\n      add\n        /* \"#utility.yul\":12784:12790   */\n      dup5\n        /* \"#utility.yul\":12746:12811   */\n      tag_339\n      jump\t// in\n    tag_478:\n        /* \"#utility.yul\":12608:12818   */\n      swap3\n      swap2\n      pop\n      pop\n      jump\t// out\n        /* \"#utility.yul\":12824:13004   */\n    tag_340:\n        /* \"#utility.yul\":12872:12949   */\n      0x4e487b7100000000000000000000000000000000000000000000000000000000\n        /* \"#utility.yul\":12869:12870   */\n      0x00\n        /* \"#utility.yul\":12862:12950   */\n      mstore\n        /* \"#utility.yul\":12969:12973   */\n      0x22\n        /* \"#utility.yul\":12966:12967   */\n      0x04\n        /* \"#utility.yul\":12959:12974   */\n      mstore\n        /* \"#utility.yul\":12993:12997   */\n      0x24\n        /* \"#utility.yul\":12990:12991   */\n      0x00\n        /* \"#utility.yul\":12983:12998   */\n      revert\n        /* \"#utility.yul\":13010:13330   */\n    tag_69:\n        /* \"#utility.yul\":13054:13060   */\n      0x00\n        /* \"#utility.yul\":13091:13092   */\n      0x02\n        /* \"#utility.yul\":13085:13089   */\n      dup3\n        /* \"#utility.yul\":13081:13093   */\n      div\n        /* \"#utility.yul\":13071:13093   */\n      swap1\n      pop\n        /* \"#utility.yul\":13138:13139   */\n      0x01\n        /* \"#utility.yul\":13132:13136   */\n      dup3\n        /* \"#utility.yul\":13128:13140   */\n      and\n        /* \"#utility.yul\":13159:13177   */\n      dup1\n        /* \"#utility.yul\":13149:13230   */\n      tag_481\n      jumpi\n        /* \"#utility.yul\":13215:13219   */\n      0x7f\n        /* \"#utility.yul\":13207:13213   */\n      dup3\n        /* \"#utility.yul\":13203:13220   */\n      and\n        /* \"#utility.yul\":13193:13220   */\n      swap2\n      pop\n        /* \"#utility.yul\":13149:13230   */\n    tag_481:\n        /* \"#utility.yul\":13277:13279   */\n      0x20\n        /* \"#utility.yul\":13269:13275   */\n      dup3\n        /* \"#utility.yul\":13266:13280   */\n      lt\n        /* \"#utility.yul\":13246:13264   */\n      dup2\n        /* \"#utility.yul\":13243:13281   */\n      sub\n        /* \"#utility.yul\":13240:13324   */\n      tag_482\n      jumpi\n        /* \"#utility.yul\":13296:13314   */\n      tag_483\n      tag_340\n      jump\t// in\n    tag_483:\n        /* \"#utility.yul\":13240:13324   */\n    tag_482:\n        /* \"#utility.yul\":13061:13330   */\n      pop\n        /* \"#utility.yul\":13010:13330   */\n      swap2\n      swap1\n      pop\n      jump\t// out\n        /* \"#utility.yul\":13336:13516   */\n    tag_341:\n        /* \"#utility.yul\":13384:13461   */\n      0x4e487b7100000000000000000000000000000000000000000000000000000000\n        /* \"#utility.yul\":13381:13382   */\n      0x00\n        /* \"#utility.yul\":13374:13462   */\n      mstore\n        /* \"#utility.yul\":13481:13485   */\n      0x11\n        /* \"#utility.yul\":13478:13479   */\n      0x04\n        /* \"#utility.yul\":13471:13486   */\n      mstore\n        /* \"#utility.yul\":13505:13509   */\n      0x24\n        /* \"#utility.yul\":13502:13503   */\n      0x00\n        /* \"#utility.yul\":13495:13510   */\n      revert\n        /* \"#utility.yul\":13522:13713   */\n    tag_119:\n        /* \"#utility.yul\":13562:13565   */\n      0x00\n        /* \"#utility.yul\":13581:13601   */\n      tag_486\n        /* \"#utility.yul\":13599:13600   */\n      dup3\n        /* \"#utility.yul\":13581:13601   */\n      tag_311\n      jump\t// in\n    tag_486:\n        /* \"#utility.yul\":13576:13601   */\n      swap2\n      pop\n        /* \"#utility.yul\":13615:13635   */\n      tag_487\n        /* \"#utility.yul\":13633:13634   */\n      dup4\n        /* \"#utility.yul\":13615:13635   */\n      tag_311\n      jump\t// in\n    tag_487:\n        /* \"#utility.yul\":13610:13635   */\n      swap3\n      pop\n        /* \"#utility.yul\":13658:13659   */\n      dup3\n        /* \"#utility.yul\":13655:13656   */\n      dup3\n        /* \"#utility.yul\":13651:13660   */\n      add\n        /* \"#utility.yul\":13644:13660   */\n      swap1\n      pop\n        /* \"#utility.yul\":13679:13682   */\n      dup1\n        /* \"#utility.yul\":13676:13677   */\n      dup3\n        /* \"#utility.yul\":13673:13683   */\n      gt\n        /* \"#utility.yul\":13670:13706   */\n      iszero\n      tag_488\n      jumpi\n        /* \"#utility.yul\":13686:13704   */\n      tag_489\n      tag_341\n      jump\t// in\n    tag_489:\n        /* \"#utility.yul\":13670:13706   */\n    tag_488:\n        /* \"#utility.yul\":13522:13713   */\n      swap3\n      swap2\n      pop\n      pop\n      jump\t// out\n        /* \"#utility.yul\":13719:13899   */\n    tag_122:\n        /* \"#utility.yul\":13767:13844   */\n      0x4e487b7100000000000000000000000000000000000000000000000000000000\n        /* \"#utility.yul\":13764:13765   */\n      0x00\n        /* \"#utility.yul\":13757:13845   */\n      mstore\n        /* \"#utility.yul\":13864:13868   */\n      0x32\n        /* \"#utility.yul\":13861:13862   */\n      0x04\n        /* \"#utility.yul\":13854:13869   */\n      mstore\n        /* \"#utility.yul\":13888:13892   */\n      0x24\n        /* \"#utility.yul\":13885:13886   */\n      0x00\n        /* \"#utility.yul\":13878:13893   */\n      revert\n        /* \"#utility.yul\":13905:14099   */\n    tag_150:\n        /* \"#utility.yul\":13945:13949   */\n      0x00\n        /* \"#utility.yul\":13965:13985   */\n      tag_492\n        /* \"#utility.yul\":13983:13984   */\n      dup3\n        /* \"#utility.yul\":13965:13985   */\n      tag_311\n      jump\t// in\n    tag_492:\n        /* \"#utility.yul\":13960:13985   */\n      swap2\n      pop\n        /* \"#utility.yul\":13999:14019   */\n      tag_493\n        /* \"#utility.yul\":14017:14018   */\n      dup4\n        /* \"#utility.yul\":13999:14019   */\n      tag_311\n      jump\t// in\n    tag_493:\n        /* \"#utility.yul\":13994:14019   */\n      swap3\n      pop\n        /* \"#utility.yul\":14043:14044   */\n      dup3\n        /* \"#utility.yul\":14040:14041   */\n      dup3\n        /* \"#utility.yul\":14036:14045   */\n      sub\n        /* \"#utility.yul\":14028:14045   */\n      swap1\n      pop\n        /* \"#utility.yul\":14067:14068   */\n      dup2\n        /* \"#utility.yul\":14061:14065   */\n      dup2\n        /* \"#utility.yul\":14058:14069   */\n      gt\n        /* \"#utility.yul\":14055:14092   */\n      iszero\n      tag_494\n      jumpi\n        /* \"#utility.yul\":14072:14090   */\n      tag_495\n      tag_341\n      jump\t// in\n    tag_495:\n        /* \"#utility.yul\":14055:14092   */\n    tag_494:\n        /* \"#utility.yul\":13905:14099   */\n      swap3\n      swap2\n      pop\n      pop\n      jump\t// out\n        /* \"#utility.yul\":14105:14252   */\n    tag_342:\n        /* \"#utility.yul\":14206:14217   */\n      0x00\n        /* \"#utility.yul\":14243:14246   */\n      dup2\n        /* \"#utility.yul\":14228:14246   */\n      swap1\n      pop\n        /* \"#utility.yul\":14105:14252   */\n      swap3\n      swap2\n      pop\n      pop\n      jump\t// out\n        /* \"#utility.yul\":14258:14402   */\n    tag_343:\n        /* \"#utility.yul\":14310:14314   */\n      0x00\n        /* \"#utility.yul\":14333:14336   */\n      dup2\n        /* \"#utility.yul\":14325:14336   */\n      swap1\n      pop\n        /* \"#utility.yul\":14356:14359   */\n      dup2\n        /* \"#utility.yul\":14353:14354   */\n      0x00\n        /* \"#utility.yul\":14346:14360   */\n      mstore\n        /* \"#utility.yul\":14390:14394   */\n      0x20\n        /* \"#utility.yul\":14387:14388   */\n      0x00\n        /* \"#utility.yul\":14377:14395   */\n      keccak256\n        /* \"#utility.yul\":14369:14395   */\n      swap1\n      pop\n        /* \"#utility.yul\":14258:14402   */\n      swap2\n      swap1\n      pop\n      jump\t// out\n        /* \"#utility.yul\":14430:15308   */\n    tag_344:\n        /* \"#utility.yul\":14535:14538   */\n      0x00\n        /* \"#utility.yul\":14572:14577   */\n      dup2\n        /* \"#utility.yul\":14566:14578   */\n      sload\n        /* \"#utility.yul\":14601:14637   */\n      tag_499\n        /* \"#utility.yul\":14627:14636   */\n      dup2\n        /* \"#utility.yul\":14601:14637   */\n      tag_69\n      jump\t// in\n    tag_499:\n        /* \"#utility.yul\":14653:14741   */\n      tag_500\n        /* \"#utility.yul\":14734:14740   */\n      dup2\n        /* \"#utility.yul\":14729:14732   */\n      dup7\n        /* \"#utility.yul\":14653:14741   */\n      tag_342\n      jump\t// in\n    tag_500:\n        /* \"#utility.yul\":14646:14741   */\n      swap5\n      pop\n        /* \"#utility.yul\":14772:14773   */\n      0x01\n        /* \"#utility.yul\":14761:14770   */\n      dup3\n        /* \"#utility.yul\":14757:14774   */\n      and\n        /* \"#utility.yul\":14788:14789   */\n      0x00\n        /* \"#utility.yul\":14783:14949   */\n      dup2\n      eq\n      tag_502\n      jumpi\n        /* \"#utility.yul\":14963:14964   */\n      0x01\n        /* \"#utility.yul\":14958:15302   */\n      dup2\n      eq\n      tag_503\n      jumpi\n        /* \"#utility.yul\":14750:15302   */\n      jump(tag_501)\n        /* \"#utility.yul\":14783:14949   */\n    tag_502:\n        /* \"#utility.yul\":14867:14871   */\n      0xff\n        /* \"#utility.yul\":14863:14872   */\n      not\n        /* \"#utility.yul\":14852:14861   */\n      dup4\n        /* \"#utility.yul\":14848:14873   */\n      and\n        /* \"#utility.yul\":14843:14846   */\n      dup7\n        /* \"#utility.yul\":14836:14874   */\n      mstore\n        /* \"#utility.yul\":14929:14935   */\n      dup2\n        /* \"#utility.yul\":14922:14936   */\n      iszero\n        /* \"#utility.yul\":14915:14937   */\n      iszero\n        /* \"#utility.yul\":14907:14913   */\n      dup3\n        /* \"#utility.yul\":14903:14938   */\n      mul\n        /* \"#utility.yul\":14898:14901   */\n      dup7\n        /* \"#utility.yul\":14894:14939   */\n      add\n        /* \"#utility.yul\":14887:14939   */\n      swap4\n      pop\n        /* \"#utility.yul\":14783:14949   */\n      jump(tag_501)\n        /* \"#utility.yul\":14958:15302   */\n    tag_503:\n        /* \"#utility.yul\":15025:15066   */\n      tag_504\n        /* \"#utility.yul\":15060:15065   */\n      dup6\n        /* \"#utility.yul\":15025:15066   */\n      tag_343\n      jump\t// in\n    tag_504:\n        /* \"#utility.yul\":15088:15089   */\n      0x00\n        /* \"#utility.yul\":15102:15256   */\n    tag_505:\n        /* \"#utility.yul\":15116:15122   */\n      dup4\n        /* \"#utility.yul\":15113:15114   */\n      dup2\n        /* \"#utility.yul\":15110:15123   */\n      lt\n        /* \"#utility.yul\":15102:15256   */\n      iszero\n      tag_507\n      jumpi\n        /* \"#utility.yul\":15190:15197   */\n      dup2\n        /* \"#utility.yul\":15184:15198   */\n      sload\n        /* \"#utility.yul\":15180:15181   */\n      dup2\n        /* \"#utility.yul\":15175:15178   */\n      dup10\n        /* \"#utility.yul\":15171:15182   */\n      add\n        /* \"#utility.yul\":15164:15199   */\n      mstore\n        /* \"#utility.yul\":15240:15241   */\n      0x01\n        /* \"#utility.yul\":15231:15238   */\n      dup3\n        /* \"#utility.yul\":15227:15242   */\n      add\n        /* \"#utility.yul\":15216:15242   */\n      swap2\n      pop\n        /* \"#utility.yul\":15138:15142   */\n      0x20\n        /* \"#utility.yul\":15135:15136   */\n      dup2\n        /* \"#utility.yul\":15131:15143   */\n      add\n        /* \"#utility.yul\":15126:15143   */\n      swap1\n      pop\n        /* \"#utility.yul\":15102:15256   */\n      jump(tag_505)\n    tag_507:\n        /* \"#utility.yul\":15285:15291   */\n      dup4\n        /* \"#utility.yul\":15280:15283   */\n      dup9\n        /* \"#utility.yul\":15276:15292   */\n      add\n        /* \"#utility.yul\":15269:15292   */\n      swap6\n      pop\n        /* \"#utility.yul\":14965:15302   */\n      pop\n      pop\n        /* \"#utility.yul\":14750:15302   */\n    tag_501:\n      pop\n        /* \"#utility.yul\":14539:15308   */\n      pop\n      pop\n        /* \"#utility.yul\":14430:15308   */\n      swap3\n      swap2\n      pop\n      pop\n      jump\t// out\n        /* \"#utility.yul\":15314:15587   */\n    tag_177:\n        /* \"#utility.yul\":15445:15448   */\n      0x00\n        /* \"#utility.yul\":15467:15561   */\n      tag_509\n        /* \"#utility.yul\":15557:15560   */\n      dup3\n        /* \"#utility.yul\":15548:15554   */\n      dup5\n        /* \"#utility.yul\":15467:15561   */\n      tag_344\n      jump\t// in\n    tag_509:\n        /* \"#utility.yul\":15460:15561   */\n      swap2\n      pop\n        /* \"#utility.yul\":15578:15581   */\n      dup2\n        /* \"#utility.yul\":15571:15581   */\n      swap1\n      pop\n        /* \"#utility.yul\":15314:15587   */\n      swap3\n      swap2\n      pop\n      pop\n      jump\t// out\n        /* \"#utility.yul\":15593:15760   */\n    tag_345:\n        /* \"#utility.yul\":15733:15752   */\n      0x53747564656e74206e6f7420666f756e64000000000000000000000000000000\n        /* \"#utility.yul\":15729:15730   */\n      0x00\n        /* \"#utility.yul\":15721:15727   */\n      dup3\n        /* \"#utility.yul\":15717:15731   */\n      add\n        /* \"#utility.yul\":15710:15753   */\n      mstore\n        /* \"#utility.yul\":15593:15760   */\n      pop\n      jump\t// out\n        /* \"#utility.yul\":15766:16132   */\n    tag_346:\n        /* \"#utility.yul\":15908:15911   */\n      0x00\n        /* \"#utility.yul\":15929:15996   */\n      tag_512\n        /* \"#utility.yul\":15993:15995   */\n      0x11\n        /* \"#utility.yul\":15988:15991   */\n      dup4\n        /* \"#utility.yul\":15929:15996   */\n      tag_315\n      jump\t// in\n    tag_512:\n        /* \"#utility.yul\":15922:15996   */\n      swap2\n      pop\n        /* \"#utility.yul\":16005:16098   */\n      tag_513\n        /* \"#utility.yul\":16094:16097   */\n      dup3\n        /* \"#utility.yul\":16005:16098   */\n      tag_345\n      jump\t// in\n    tag_513:\n        /* \"#utility.yul\":16123:16125   */\n      0x20\n        /* \"#utility.yul\":16118:16121   */\n      dup3\n        /* \"#utility.yul\":16114:16126   */\n      add\n        /* \"#utility.yul\":16107:16126   */\n      swap1\n      pop\n        /* \"#utility.yul\":15766:16132   */\n      swap2\n      swap1\n      pop\n      jump\t// out\n        /* \"#utility.yul\":16138:16557   */\n    tag_183:\n        /* \"#utility.yul\":16304:16308   */\n      0x00\n        /* \"#utility.yul\":16342:16344   */\n      0x20\n        /* \"#utility.yul\":16331:16340   */\n      dup3\n        /* \"#utility.yul\":16327:16345   */\n      add\n        /* \"#utility.yul\":16319:16345   */\n      swap1\n      pop\n        /* \"#utility.yul\":16391:16400   */\n      dup2\n        /* \"#utility.yul\":16385:16389   */\n      dup2\n        /* \"#utility.yul\":16381:16401   */\n      sub\n        /* \"#utility.yul\":16377:16378   */\n      0x00\n        /* \"#utility.yul\":16366:16375   */\n      dup4\n        /* \"#utility.yul\":16362:16379   */\n      add\n        /* \"#utility.yul\":16355:16402   */\n      mstore\n        /* \"#utility.yul\":16419:16550   */\n      tag_515\n        /* \"#utility.yul\":16545:16549   */\n      dup2\n        /* \"#utility.yul\":16419:16550   */\n      tag_346\n      jump\t// in\n    tag_515:\n        /* \"#utility.yul\":16411:16550   */\n      swap1\n      pop\n        /* \"#utility.yul\":16138:16557   */\n      swap2\n      swap1\n      pop\n      jump\t// out\n        /* \"#utility.yul\":16563:16743   */\n    tag_347:\n        /* \"#utility.yul\":16611:16688   */\n      0x4e487b7100000000000000000000000000000000000000000000000000000000\n        /* \"#utility.yul\":16608:16609   */\n      0x00\n        /* \"#utility.yul\":16601:16689   */\n      mstore\n        /* \"#utility.yul\":16708:16712   */\n      0x12\n        /* \"#utility.yul\":16705:16706   */\n      0x04\n        /* \"#utility.yul\":16698:16713   */\n      mstore\n        /* \"#utility.yul\":16732:16736   */\n      0x24\n        /* \"#utility.yul\":16729:16730   */\n      0x00\n        /* \"#utility.yul\":16722:16737   */\n      revert\n        /* \"#utility.yul\":16749:16934   */\n    tag_193:\n        /* \"#utility.yul\":16789:16790   */\n      0x00\n        /* \"#utility.yul\":16806:16826   */\n      tag_518\n        /* \"#utility.yul\":16824:16825   */\n      dup3\n        /* \"#utility.yul\":16806:16826   */\n      tag_311\n      jump\t// in\n    tag_518:\n        /* \"#utility.yul\":16801:16826   */\n      swap2\n      pop\n        /* \"#utility.yul\":16840:16860   */\n      tag_519\n        /* \"#utility.yul\":16858:16859   */\n      dup4\n        /* \"#utility.yul\":16840:16860   */\n      tag_311\n      jump\t// in\n    tag_519:\n        /* \"#utility.yul\":16835:16860   */\n      swap3\n      pop\n        /* \"#utility.yul\":16879:16880   */\n      dup3\n        /* \"#utility.yul\":16869:16904   */\n      tag_520\n      jumpi\n        /* \"#utility.yul\":16884:16902   */\n      tag_521\n      tag_347\n      jump\t// in\n    tag_521:\n        /* \"#utility.yul\":16869:16904   */\n    tag_520:\n        /* \"#utility.yul\":16926:16927   */\n      dup3\n        /* \"#utility.yul\":16923:16924   */\n      dup3\n        /* \"#utility.yul\":16919:16928   */\n      div\n        /* \"#utility.yul\":16914:16928   */\n      swap1\n      pop\n        /* \"#utility.yul\":16749:16934   */\n      swap3\n      swap2\n      pop\n      pop\n      jump\t// out\n        /* \"#utility.yul\":16940:17173   */\n    tag_204:\n        /* \"#utility.yul\":16979:16982   */\n      0x00\n        /* \"#utility.yul\":17002:17026   */\n      tag_523\n        /* \"#utility.yul\":17020:17025   */\n      dup3\n        /* \"#utility.yul\":17002:17026   */\n      tag_311\n      jump\t// in\n    tag_523:\n        /* \"#utility.yul\":16993:17026   */\n      swap2\n      pop\n        /* \"#utility.yul\":17048:17114   */\n      0xffffffffffffffffffffffffffffffffffffffffffffffffffffffffffffffff\n        /* \"#utility.yul\":17041:17046   */\n      dup3\n        /* \"#utility.yul\":17038:17115   */\n      sub\n        /* \"#utility.yul\":17035:17138   */\n      tag_524\n      jumpi\n        /* \"#utility.yul\":17118:17136   */\n      tag_525\n      tag_341\n      jump\t// in\n    tag_525:\n        /* \"#utility.yul\":17035:17138   */\n    tag_524:\n        /* \"#utility.yul\":17165:17166   */\n      0x01\n        /* \"#utility.yul\":17158:17163   */\n      dup3\n        /* \"#utility.yul\":17154:17167   */\n      add\n        /* \"#utility.yul\":17147:17167   */\n      swap1\n      pop\n        /* \"#utility.yul\":16940:17173   */\n      swap2\n      swap1\n      pop\n      jump\t// out\n        /* \"#utility.yul\":17179:17320   */\n    tag_348:\n        /* \"#utility.yul\":17228:17232   */\n      0x00\n        /* \"#utility.yul\":17251:17254   */\n      dup2\n        /* \"#utility.yul\":17243:17254   */\n      swap1\n      pop\n        /* \"#utility.yul\":17274:17277   */\n      dup2\n        /* \"#utility.yul\":17271:17272   */\n      0x00\n        /* \"#utility.yul\":17264:17278   */\n      mstore\n        /* \"#utility.yul\":17308:17312   */\n      0x20\n        /* \"#utility.yul\":17305:17306   */\n      0x00\n        /* \"#utility.yul\":17295:17313   */\n      keccak256\n        /* \"#utility.yul\":17287:17313   */\n      swap1\n      pop\n        /* \"#utility.yul\":17179:17320   */\n      swap2\n      swap1\n      pop\n      jump\t// out\n        /* \"#utility.yul\":17326:17419   */\n    tag_349:\n        /* \"#utility.yul\":17363:17369   */\n      0x00\n        /* \"#utility.yul\":17410:17412   */\n      0x20\n        /* \"#utility.yul\":17405:17407   */\n      0x1f\n        /* \"#utility.yul\":17398:17403   */\n      dup4\n        /* \"#utility.yul\":17394:17408   */\n      add\n        /* \"#utility.yul\":17390:17413   */\n      div\n        /* \"#utility.yul\":17380:17413   */\n      swap1\n      pop\n        /* \"#utility.yul\":17326:17419   */\n      swap2\n      swap1\n      pop\n      jump\t// out\n        /* \"#utility.yul\":17425:17532   */\n    tag_350:\n        /* \"#utility.yul\":17469:17477   */\n      0x00\n        /* \"#utility.yul\":17519:17524   */\n      dup3\n        /* \"#utility.yul\":17513:17517   */\n      dup3\n        /* \"#utility.yul\":17509:17525   */\n      shl\n        /* \"#utility.yul\":17488:17525   */\n      swap1\n      pop\n        /* \"#utility.yul\":17425:17532   */\n      swap3\n      swap2\n      pop\n      pop\n      jump\t// out\n        /* \"#utility.yul\":17538:17931   */\n    tag_351:\n        /* \"#utility.yul\":17607:17613   */\n      0x00\n        /* \"#utility.yul\":17657:17658   */\n      0x08\n        /* \"#utility.yul\":17645:17655   */\n      dup4\n        /* \"#utility.yul\":17641:17659   */\n      mul\n        /* \"#utility.yul\":17680:17777   */\n      tag_530\n        /* \"#utility.yul\":17710:17776   */\n      0xffffffffffffffffffffffffffffffffffffffffffffffffffffffffffffffff\n        /* \"#utility.yul\":17699:17708   */\n      dup3\n        /* \"#utility.yul\":17680:17777   */\n      tag_350\n      jump\t// in\n    tag_530:\n        /* \"#utility.yul\":17798:17837   */\n      tag_531\n        /* \"#utility.yul\":17828:17836   */\n      dup7\n        /* \"#utility.yul\":17817:17826   */\n      dup4\n        /* \"#utility.yul\":17798:17837   */\n      tag_350\n      jump\t// in\n    tag_531:\n        /* \"#utility.yul\":17786:17837   */\n      swap6\n      pop\n        /* \"#utility.yul\":17870:17874   */\n      dup1\n        /* \"#utility.yul\":17866:17875   */\n      not\n        /* \"#utility.yul\":17859:17864   */\n      dup5\n        /* \"#utility.yul\":17855:17876   */\n      and\n        /* \"#utility.yul\":17846:17876   */\n      swap4\n      pop\n        /* \"#utility.yul\":17919:17923   */\n      dup1\n        /* \"#utility.yul\":17909:17917   */\n      dup7\n        /* \"#utility.yul\":17905:17924   */\n      and\n        /* \"#utility.yul\":17898:17903   */\n      dup5\n        /* \"#utility.yul\":17895:17925   */\n      or\n        /* \"#utility.yul\":17885:17925   */\n      swap3\n      pop\n        /* \"#utility.yul\":17614:17931   */\n      pop\n      pop\n        /* \"#utility.yul\":17538:17931   */\n      swap4\n      swap3\n      pop\n      pop\n      pop\n      jump\t// out\n        /* \"#utility.yul\":17937:17997   */\n    tag_352:\n        /* \"#utility.yul\":17965:17968   */\n      0x00\n        /* \"#utility.yul\":17986:17991   */\n      dup2\n        /* \"#utility.yul\":17979:17991   */\n      swap1\n      pop\n        /* \"#utility.yul\":17937:17997   */\n      swap2\n      swap1\n      pop\n      jump\t// out\n        /* \"#utility.yul\":18003:18145   */\n    tag_353:\n        /* \"#utility.yul\":18053:18062   */\n      0x00\n        /* \"#utility.yul\":18086:18139   */\n      tag_534\n        /* \"#utility.yul\":18104:18138   */\n      tag_535\n        /* \"#utility.yul\":18113:18137   */\n      tag_536\n        /* \"#utility.yul\":18131:18136   */\n      dup5\n        /* \"#utility.yul\":18113:18137   */\n      tag_311\n      jump\t// in\n    tag_536:\n        /* \"#utility.yul\":18104:18138   */\n      tag_352\n      jump\t// in\n    tag_535:\n        /* \"#utility.yul\":18086:18139   */\n      tag_311\n      jump\t// in\n    tag_534:\n        /* \"#utility.yul\":18073:18139   */\n      swap1\n      pop\n        /* \"#utility.yul\":18003:18145   */\n      swap2\n      swap1\n      pop\n      jump\t// out\n        /* \"#utility.yul\":18151:18226   */\n    tag_354:\n        /* \"#utility.yul\":18194:18197   */\n      0x00\n        /* \"#utility.yul\":18215:18220   */\n      dup2\n        /* \"#utility.yul\":18208:18220   */\n      swap1\n      pop\n        /* \"#utility.yul\":18151:18226   */\n      swap2\n      swap1\n      pop\n      jump\t// out\n        /* \"#utility.yul\":18232:18501   */\n    tag_355:\n        /* \"#utility.yul\":18342:18381   */\n      tag_539\n        /* \"#utility.yul\":18373:18380   */\n      dup4\n        /* \"#utility.yul\":18342:18381   */\n      tag_353\n      jump\t// in\n    tag_539:\n        /* \"#utility.yul\":18403:18494   */\n      tag_540\n        /* \"#utility.yul\":18452:18493   */\n      tag_541\n        /* \"#utility.yul\":18476:18492   */\n      dup3\n        /* \"#utility.yul\":18452:18493   */\n      tag_354\n      jump\t// in\n    tag_541:\n        /* \"#utility.yul\":18444:18450   */\n      dup5\n        /* \"#utility.yul\":18437:18441   */\n      dup5\n        /* \"#utility.yul\":18431:18442   */\n      sload\n        /* \"#utility.yul\":18403:18494   */\n      tag_351\n      jump\t// in\n    tag_540:\n        /* \"#utility.yul\":18397:18401   */\n      dup3\n        /* \"#utility.yul\":18390:18495   */\n      sstore\n        /* \"#utility.yul\":18308:18501   */\n      pop\n        /* \"#utility.yul\":18232:18501   */\n      pop\n      pop\n      pop\n      jump\t// out\n        /* \"#utility.yul\":18507:18580   */\n    tag_356:\n        /* \"#utility.yul\":18552:18555   */\n      0x00\n        /* \"#utility.yul\":18507:18580   */\n      swap1\n      jump\t// out\n        /* \"#utility.yul\":18586:18775   */\n    tag_357:\n        /* \"#utility.yul\":18663:18695   */\n      tag_544\n      tag_356\n      jump\t// in\n    tag_544:\n        /* \"#utility.yul\":18704:18769   */\n      tag_545\n        /* \"#utility.yul\":18762:18768   */\n      dup2\n        /* \"#utility.yul\":18754:18760   */\n      dup5\n        /* \"#utility.yul\":18748:18752   */\n      dup5\n        /* \"#utility.yul\":18704:18769   */\n      tag_355\n      jump\t// in\n    tag_545:\n        /* \"#utility.yul\":18639:18775   */\n      pop\n        /* \"#utility.yul\":18586:18775   */\n      pop\n      pop\n      jump\t// out\n        /* \"#utility.yul\":18781:18967   */\n    tag_358:\n        /* \"#utility.yul\":18841:18961   */\n    tag_547:\n        /* \"#utility.yul\":18858:18861   */\n      dup2\n        /* \"#utility.yul\":18851:18856   */\n      dup2\n        /* \"#utility.yul\":18848:18862   */\n      lt\n        /* \"#utility.yul\":18841:18961   */\n      iszero\n      tag_549\n      jumpi\n        /* \"#utility.yul\":18912:18951   */\n      tag_550\n        /* \"#utility.yul\":18949:18950   */\n      0x00\n        /* \"#utility.yul\":18942:18947   */\n      dup3\n        /* \"#utility.yul\":18912:18951   */\n      tag_357\n      jump\t// in\n    tag_550:\n        /* \"#utility.yul\":18885:18886   */\n      0x01\n        /* \"#utility.yul\":18878:18883   */\n      dup2\n        /* \"#utility.yul\":18874:18887   */\n      add\n        /* \"#utility.yul\":18865:18887   */\n      swap1\n      pop\n        /* \"#utility.yul\":18841:18961   */\n      jump(tag_547)\n    tag_549:\n        /* \"#utility.yul\":18781:18967   */\n      pop\n      pop\n      jump\t// out\n        /* \"#utility.yul\":18973:19516   */\n    tag_359:\n        /* \"#utility.yul\":19074:19076   */\n      0x1f\n        /* \"#utility.yul\":19069:19072   */\n      dup3\n        /* \"#utility.yul\":19066:19077   */\n      gt\n        /* \"#utility.yul\":19063:19509   */\n      iszero\n      tag_552\n      jumpi\n        /* \"#utility.yul\":19108:19146   */\n      tag_553\n        /* \"#utility.yul\":19140:19145   */\n      dup2\n        /* \"#utility.yul\":19108:19146   */\n      tag_348\n      jump\t// in\n    tag_553:\n        /* \"#utility.yul\":19192:19221   */\n      tag_554\n        /* \"#utility.yul\":19210:19220   */\n      dup5\n        /* \"#utility.yul\":19192:19221   */\n      tag_349\n      jump\t// in\n    tag_554:\n        /* \"#utility.yul\":19182:19190   */\n      dup2\n        /* \"#utility.yul\":19178:19222   */\n      add\n        /* \"#utility.yul\":19375:19377   */\n      0x20\n        /* \"#utility.yul\":19363:19373   */\n      dup6\n        /* \"#utility.yul\":19360:19378   */\n      lt\n        /* \"#utility.yul\":19357:19406   */\n      iszero\n      tag_555\n      jumpi\n        /* \"#utility.yul\":19396:19404   */\n      dup2\n        /* \"#utility.yul\":19381:19404   */\n      swap1\n      pop\n        /* \"#utility.yul\":19357:19406   */\n    tag_555:\n        /* \"#utility.yul\":19419:19499   */\n      tag_556\n        /* \"#utility.yul\":19475:19497   */\n      tag_557\n        /* \"#utility.yul\":19493:19496   */\n      dup6\n        /* \"#utility.yul\":19475:19497   */\n      tag_349\n      jump\t// in\n    tag_557:\n        /* \"#utility.yul\":19465:19473   */\n      dup4\n        /* \"#utility.yul\":19461:19498   */\n      add\n        /* \"#utility.yul\":19448:19459   */\n      dup3\n        /* \"#utility.yul\":19419:19499   */\n      tag_358\n      jump\t// in\n    tag_556:\n        /* \"#utility.yul\":19078:19509   */\n      pop\n      pop\n        /* \"#utility.yul\":19063:19509   */\n    tag_552:\n        /* \"#utility.yul\":18973:19516   */\n      pop\n      pop\n      pop\n      jump\t// out\n        /* \"#utility.yul\":19522:19639   */\n    tag_360:\n        /* \"#utility.yul\":19576:19584   */\n      0x00\n        /* \"#utility.yul\":19626:19631   */\n      dup3\n        /* \"#utility.yul\":19620:19624   */\n      dup3\n        /* \"#utility.yul\":19616:19632   */\n      shr\n        /* \"#utility.yul\":19595:19632   */\n      swap1\n      pop\n        /* \"#utility.yul\":19522:19639   */\n      swap3\n      swap2\n      pop\n      pop\n      jump\t// out\n        /* \"#utility.yul\":19645:19814   */\n    tag_361:\n        /* \"#utility.yul\":19689:19695   */\n      0x00\n        /* \"#utility.yul\":19722:19773   */\n      tag_560\n        /* \"#utility.yul\":19770:19771   */\n      0x00\n        /* \"#utility.yul\":19766:19772   */\n      not\n        /* \"#utility.yul\":19758:19763   */\n      dup5\n        /* \"#utility.yul\":19755:19756   */\n      0x08\n        /* \"#utility.yul\":19751:19764   */\n      mul\n        /* \"#utility.yul\":19722:19773   */\n      tag_360\n      jump\t// in\n    tag_560:\n        /* \"#utility.yul\":19718:19774   */\n      not\n        /* \"#utility.yul\":19803:19807   */\n      dup1\n        /* \"#utility.yul\":19797:19801   */\n      dup4\n        /* \"#utility.yul\":19793:19808   */\n      and\n        /* \"#utility.yul\":19783:19808   */\n      swap2\n      pop\n        /* \"#utility.yul\":19696:19814   */\n      pop\n        /* \"#utility.yul\":19645:19814   */\n      swap3\n      swap2\n      pop\n      pop\n      jump\t// out\n        /* \"#utility.yul\":19819:20114   */\n    tag_362:\n        /* \"#utility.yul\":19895:19899   */\n      0x00\n        /* \"#utility.yul\":20041:20070   */\n      tag_562\n        /* \"#utility.yul\":20066:20069   */\n      dup4\n        /* \"#utility.yul\":20060:20064   */\n      dup4\n        /* \"#utility.yul\":20041:20070   */\n      tag_361\n      jump\t// in\n    tag_562:\n        /* \"#utility.yul\":20033:20070   */\n      swap2\n      pop\n        /* \"#utility.yul\":20103:20106   */\n      dup3\n        /* \"#utility.yul\":20100:20101   */\n      0x02\n        /* \"#utility.yul\":20096:20107   */\n      mul\n        /* \"#utility.yul\":20090:20094   */\n      dup3\n        /* \"#utility.yul\":20087:20108   */\n      or\n        /* \"#utility.yul\":20079:20108   */\n      swap1\n      pop\n        /* \"#utility.yul\":19819:20114   */\n      swap3\n      swap2\n      pop\n      pop\n      jump\t// out\n        /* \"#utility.yul\":20119:21514   */\n    tag_243:\n        /* \"#utility.yul\":20236:20273   */\n      tag_564\n        /* \"#utility.yul\":20269:20272   */\n      dup3\n        /* \"#utility.yul\":20236:20273   */\n      tag_314\n      jump\t// in\n    tag_564:\n        /* \"#utility.yul\":20338:20356   */\n      0xffffffffffffffff\n        /* \"#utility.yul\":20330:20336   */\n      dup2\n        /* \"#utility.yul\":20327:20357   */\n      gt\n        /* \"#utility.yul\":20324:20380   */\n      iszero\n      tag_565\n      jumpi\n        /* \"#utility.yul\":20360:20378   */\n      tag_566\n      tag_136\n      jump\t// in\n    tag_566:\n        /* \"#utility.yul\":20324:20380   */\n    tag_565:\n        /* \"#utility.yul\":20404:20442   */\n      tag_567\n        /* \"#utility.yul\":20436:20440   */\n      dup3\n        /* \"#utility.yul\":20430:20441   */\n      sload\n        /* \"#utility.yul\":20404:20442   */\n      tag_69\n      jump\t// in\n    tag_567:\n        /* \"#utility.yul\":20489:20556   */\n      tag_568\n        /* \"#utility.yul\":20549:20555   */\n      dup3\n        /* \"#utility.yul\":20541:20547   */\n      dup3\n        /* \"#utility.yul\":20535:20539   */\n      dup6\n        /* \"#utility.yul\":20489:20556   */\n      tag_359\n      jump\t// in\n    tag_568:\n        /* \"#utility.yul\":20583:20584   */\n      0x00\n        /* \"#utility.yul\":20607:20611   */\n      0x20\n        /* \"#utility.yul\":20594:20611   */\n      swap1\n      pop\n        /* \"#utility.yul\":20639:20641   */\n      0x1f\n        /* \"#utility.yul\":20631:20637   */\n      dup4\n        /* \"#utility.yul\":20628:20642   */\n      gt\n        /* \"#utility.yul\":20656:20657   */\n      0x01\n        /* \"#utility.yul\":20651:21269   */\n      dup2\n      eq\n      tag_570\n      jumpi\n        /* \"#utility.yul\":21313:21314   */\n      0x00\n        /* \"#utility.yul\":21330:21336   */\n      dup5\n        /* \"#utility.yul\":21327:21404   */\n      iszero\n      tag_571\n      jumpi\n        /* \"#utility.yul\":21379:21388   */\n      dup3\n        /* \"#utility.yul\":21374:21377   */\n      dup8\n        /* \"#utility.yul\":21370:21389   */\n      add\n        /* \"#utility.yul\":21364:21390   */\n      mload\n        /* \"#utility.yul\":21355:21390   */\n      swap1\n      pop\n        /* \"#utility.yul\":21327:21404   */\n    tag_571:\n        /* \"#utility.yul\":21430:21497   */\n      tag_572\n        /* \"#utility.yul\":21490:21496   */\n      dup6\n        /* \"#utility.yul\":21483:21488   */\n      dup3\n        /* \"#utility.yul\":21430:21497   */\n      tag_362\n      jump\t// in\n    tag_572:\n        /* \"#utility.yul\":21424:21428   */\n      dup7\n        /* \"#utility.yul\":21417:21498   */\n      sstore\n        /* \"#utility.yul\":21286:21508   */\n      pop\n        /* \"#utility.yul\":20621:21508   */\n      jump(tag_569)\n        /* \"#utility.yul\":20651:21269   */\n    tag_570:\n        /* \"#utility.yul\":20703:20707   */\n      0x1f\n        /* \"#utility.yul\":20699:20708   */\n      not\n        /* \"#utility.yul\":20691:20697   */\n      dup5\n        /* \"#utility.yul\":20687:20709   */\n      and\n        /* \"#utility.yul\":20737:20774   */\n      tag_573\n        /* \"#utility.yul\":20769:20773   */\n      dup7\n        /* \"#utility.yul\":20737:20774   */\n      tag_348\n      jump\t// in\n    tag_573:\n        /* \"#utility.yul\":20796:20797   */\n      0x00\n        /* \"#utility.yul\":20810:21018   */\n    tag_574:\n        /* \"#utility.yul\":20824:20831   */\n      dup3\n        /* \"#utility.yul\":20821:20822   */\n      dup2\n        /* \"#utility.yul\":20818:20832   */\n      lt\n        /* \"#utility.yul\":20810:21018   */\n      iszero\n      tag_576\n      jumpi\n        /* \"#utility.yul\":20903:20912   */\n      dup5\n        /* \"#utility.yul\":20898:20901   */\n      dup10\n        /* \"#utility.yul\":20894:20913   */\n      add\n        /* \"#utility.yul\":20888:20914   */\n      mload\n        /* \"#utility.yul\":20880:20886   */\n      dup3\n        /* \"#utility.yul\":20873:20915   */\n      sstore\n        /* \"#utility.yul\":20954:20955   */\n      0x01\n        /* \"#utility.yul\":20946:20952   */\n      dup3\n        /* \"#utility.yul\":20942:20956   */\n      add\n        /* \"#utility.yul\":20932:20956   */\n      swap2\n      pop\n        /* \"#utility.yul\":21001:21003   */\n      0x20\n        /* \"#utility.yul\":20990:20999   */\n      dup6\n        /* \"#utility.yul\":20986:21004   */\n      add\n        /* \"#utility.yul\":20973:21004   */\n      swap5\n      pop\n        /* \"#utility.yul\":20847:20851   */\n      0x20\n        /* \"#utility.yul\":20844:20845   */\n      dup2\n        /* \"#utility.yul\":20840:20852   */\n      add\n        /* \"#utility.yul\":20835:20852   */\n      swap1\n      pop\n        /* \"#utility.yul\":20810:21018   */\n      jump(tag_574)\n    tag_576:\n        /* \"#utility.yul\":21046:21052   */\n      dup7\n        /* \"#utility.yul\":21037:21044   */\n      dup4\n        /* \"#utility.yul\":21034:21053   */\n      lt\n        /* \"#utility.yul\":21031:21210   */\n      iszero\n      tag_577\n      jumpi\n        /* \"#utility.yul\":21104:21113   */\n      dup5\n        /* \"#utility.yul\":21099:21102   */\n      dup10\n        /* \"#utility.yul\":21095:21114   */\n      add\n        /* \"#utility.yul\":21089:21115   */\n      mload\n        /* \"#utility.yul\":21147:21195   */\n      tag_578\n        /* \"#utility.yul\":21189:21193   */\n      0x1f\n        /* \"#utility.yul\":21181:21187   */\n      dup10\n        /* \"#utility.yul\":21177:21194   */\n      and\n        /* \"#utility.yul\":21166:21175   */\n      dup3\n        /* \"#utility.yul\":21147:21195   */\n      tag_361\n      jump\t// in\n    tag_578:\n        /* \"#utility.yul\":21139:21145   */\n      dup4\n        /* \"#utility.yul\":21132:21196   */\n      sstore\n        /* \"#utility.yul\":21054:21210   */\n      pop\n        /* \"#utility.yul\":21031:21210   */\n    tag_577:\n        /* \"#utility.yul\":21256:21257   */\n      0x01\n        /* \"#utility.yul\":21252:21253   */\n      0x02\n        /* \"#utility.yul\":21244:21250   */\n      dup9\n        /* \"#utility.yul\":21240:21254   */\n      mul\n        /* \"#utility.yul\":21236:21258   */\n      add\n        /* \"#utility.yul\":21230:21234   */\n      dup9\n        /* \"#utility.yul\":21223:21259   */\n      sstore\n        /* \"#utility.yul\":20658:21269   */\n      pop\n      pop\n      pop\n        /* \"#utility.yul\":20621:21508   */\n    tag_569:\n      pop\n        /* \"#utility.yul\":20211:21514   */\n      pop\n      pop\n      pop\n        /* \"#utility.yul\":20119:21514   */\n      pop\n      pop\n      jump\t// out\n\n    auxdata: 0xa26469706673582212205bd111cf006c6a0eca999b0bea4e36ced2c64e23d8f4bf95927a3882fd2d6aa864736f6c634300081a0033\n}\n",
				"bytecode": {
					"linkReferences": {},
					"object": "6080604052348015600e575f80fd5b506121ab8061001c5f395ff3fe608060405234801561000f575f80fd5b50600436106100b2575f3560e01c806398463c741161006f57806398463c74146101ba5780639ae52f0f146101d9578063c06a93d3146101f5578063e9e3092714610213578063f317d02014610231578063fc9b409914610265576100b2565b806306ead22e146100b65780633bf1a7d1146100ea5780634007924b1461011a5780636191f364146101385780637676688b1461016c57806386be41141461019c575b5f80fd5b6100d060048036038101906100cb91906116c2565b610283565b6040516100e195949392919061176c565b60405180910390f35b61010460048036038101906100ff91906116c2565b610455565b60405161011191906117d2565b60405180910390f35b6101226105a9565b60405161012f9190611985565b60405180910390f35b610152600480360381019061014d91906116c2565b61096f565b60405161016395949392919061176c565b60405180910390f35b61018660048036038101906101819190611ad1565b610b9e565b6040516101939190611b18565b60405180910390f35b6101a4610c6c565b6040516101b19190611b18565b60405180910390f35b6101c2610cd3565b6040516101d0929190611b31565b60405180910390f35b6101f360048036038101906101ee9190611b5f565b611057565b005b6101fd61110e565b60405161020a9190611c15565b60405180910390f35b61021b611125565b6040516102289190611985565b60405180910390f35b61024b60048036038101906102469190611ad1565b611343565b60405161025c95949392919061176c565b60405180910390f35b61026d611646565b60405161027a9190611b18565b60405180910390f35b5f8181548110610291575f80fd5b905f5260205f2090600502015f91509050805f0180546102b090611c5b565b80601f01602080910402602001604051908101604052809291908181526020018280546102dc90611c5b565b80156103275780601f106102fe57610100808354040283529160200191610327565b820191905f5260205f20905b81548152906001019060200180831161030a57829003601f168201915b50505050509080600101549080600201549080600301805461034890611c5b565b80601f016020809104026020016040519081016040528092919081815260200182805461037490611c5b565b80156103bf5780601f10610396576101008083540402835291602001916103bf565b820191905f5260205f20905b8154815290600101906020018083116103a257829003601f168201915b5050505050908060040180546103d490611c5b565b80601f016020809104026020016040519081016040528092919081815260200182805461040090611c5b565b801561044b5780601f106104225761010080835404028352916020019161044b565b820191905f5260205f20905b81548152906001019060200180831161042e57829003601f168201915b5050505050905085565b6060605a821061049c576040518060400160405280600181526020017f410000000000000000000000000000000000000000000000000000000000000081525090506105a4565b605082106104e1576040518060400160405280600181526020017f420000000000000000000000000000000000000000000000000000000000000081525090506105a4565b60468210610526576040518060400160405280600181526020017f430000000000000000000000000000000000000000000000000000000000000081525090506105a4565b603c821061056b576040518060400160405280600181526020017f440000000000000000000000000000000000000000000000000000000000000081525090506105a4565b6040518060400160405280600181526020017f460000000000000000000000000000000000000000000000000000000000000081525090505b919050565b60605f80805480602002602001604051908101604052809291908181526020015f905b828210156107bf578382905f5260205f2090600502016040518060a00160405290815f820180546105fc90611c5b565b80601f016020809104026020016040519081016040528092919081815260200182805461062890611c5b565b80156106735780601f1061064a57610100808354040283529160200191610673565b820191905f5260205f20905b81548152906001019060200180831161065657829003601f168201915b5050505050815260200160018201548152602001600282015481526020016003820180546106a090611c5b565b80601f01602080910402602001604051908101604052809291908181526020018280546106cc90611c5b565b80156107175780601f106106ee57610100808354040283529160200191610717565b820191905f5260205f20905b8154815290600101906020018083116106fa57829003601f168201915b5050505050815260200160048201805461073090611c5b565b80601f016020809104026020016040519081016040528092919081815260200182805461075c90611c5b565b80156107a75780601f1061077e576101008083540402835291602001916107a7565b820191905f5260205f20905b81548152906001019060200180831161078a57829003601f168201915b505050505081525050815260200190600101906105cc565b5050505090505f5b81518110156108bc575f6001826107de9190611cb8565b90505b82518110156108ae578281815181106107fd576107fc611ceb565b5b60200260200101516040015183838151811061081c5761081b611ceb565b5b60200260200101516040015110156108a15782818151811061084157610840611ceb565b5b602002602001015183838151811061085c5761085b611ceb565b5b602002602001015184848151811061087757610876611ceb565b5b6020026020010185848151811061089157610890611ceb565b5b6020026020010182905282905250505b80806001019150506107e1565b5080806001019150506107c7565b505f600467ffffffffffffffff8111156108d9576108d86119ad565b5b60405190808252806020026020018201604052801561091257816020015b6108ff611651565b8152602001906001900390816108f75790505b5090505f5b60048110156109665782818151811061093357610932611ceb565b5b602002602001015182828151811061094e5761094d611ceb565b5b60200260200101819052508080600101915050610917565b50809250505090565b60605f806060805f806001886109859190611d18565b8154811061099657610995611ceb565b5b905f5260205f2090600502016040518060a00160405290815f820180546109bc90611c5b565b80601f01602080910402602001604051908101604052809291908181526020018280546109e890611c5b565b8015610a335780601f10610a0a57610100808354040283529160200191610a33565b820191905f5260205f20905b815481529060010190602001808311610a1657829003601f168201915b505050505081526020016001820154815260200160028201548152602001600382018054610a6090611c5b565b80601f0160208091040260200160405190810160405280929190818152602001828054610a8c90611c5b565b8015610ad75780601f10610aae57610100808354040283529160200191610ad7565b820191905f5260205f20905b815481529060010190602001808311610aba57829003601f168201915b50505050508152602001600482018054610af090611c5b565b80601f0160208091040260200160405190810160405280929190818152602001828054610b1c90611c5b565b8015610b675780601f10610b3e57610100808354040283529160200191610b67565b820191905f5260205f20905b815481529060010190602001808311610b4a57829003601f168201915b5050505050815250509050805f01518160200151826040015183606001518460800151955095509550955095505091939590929450565b5f805f90505b5f80549050811015610c2b5782805190602001205f8281548110610bcb57610bca611ceb565b5b905f5260205f2090600502015f01604051610be69190611de7565b604051809103902003610c1e575f8181548110610c0657610c05611ceb565b5b905f5260205f20906005020160020154915050610c67565b8080600101915050610ba4565b506040517f08c379a0000000000000000000000000000000000000000000000000000000008152600401610c5e90611e47565b60405180910390fd5b919050565b5f805f90505f5b5f80549050811015610cbc575f8181548110610c9257610c91611ceb565b5b905f5260205f2090600502016002015482610cad9190611cb8565b91508080600101915050610c73565b505f8054905081610ccd9190611e92565b91505090565b5f60605f805b5f80549050811015610d5e577fe61d9a3d3848fb2cdd9a2ab61e2f21a10ea431275aed628a0557f9dee697c37a5f8281548110610d1957610d18611ceb565b5b905f5260205f209060050201600301604051610d359190611de7565b604051809103902003610d51578180610d4d90611ec2565b9250505b8080600101915050610cd9565b505f8167ffffffffffffffff811115610d7a57610d796119ad565b5b604051908082528060200260200182016040528015610db357816020015b610da0611651565b815260200190600190039081610d985790505b5090505f805b5f80549050811015611049577fe61d9a3d3848fb2cdd9a2ab61e2f21a10ea431275aed628a0557f9dee697c37a5f8281548110610df957610df8611ceb565b5b905f5260205f209060050201600301604051610e159190611de7565b60405180910390200361103c575f8181548110610e3557610e34611ceb565b5b905f5260205f2090600502016040518060a00160405290815f82018054610e5b90611c5b565b80601f0160208091040260200160405190810160405280929190818152602001828054610e8790611c5b565b8015610ed25780601f10610ea957610100808354040283529160200191610ed2565b820191905f5260205f20905b815481529060010190602001808311610eb557829003601f168201915b505050505081526020016001820154815260200160028201548152602001600382018054610eff90611c5b565b80601f0160208091040260200160405190810160405280929190818152602001828054610f2b90611c5b565b8015610f765780601f10610f4d57610100808354040283529160200191610f76565b820191905f5260205f20905b815481529060010190602001808311610f5957829003601f168201915b50505050508152602001600482018054610f8f90611c5b565b80601f0160208091040260200160405190810160405280929190818152602001828054610fbb90611c5b565b80156110065780601f10610fdd57610100808354040283529160200191611006565b820191905f5260205f20905b815481529060010190602001808311610fe957829003601f168201915b50505050508152505083838151811061102257611021611ceb565b5b6020026020010181905250818061103890611ec2565b9250505b8080600101915050610db9565b508282945094505050509091565b5f61106183610455565b90505f6040518060a0016040528087815260200186815260200185815260200183815260200184815250908060018154018082558091505060019003905f5260205f2090600502015f909190919091505f820151815f0190816110c491906120a6565b50602082015181600101556040820151816002015560608201518160030190816110ee91906120a6565b50608082015181600401908161110491906120a6565b5050505050505050565b5f80611118610c6c565b9050604681101591505090565b60605f805480602002602001604051908101604052809291908181526020015f905b8282101561133a578382905f5260205f2090600502016040518060a00160405290815f8201805461117790611c5b565b80601f01602080910402602001604051908101604052809291908181526020018280546111a390611c5b565b80156111ee5780601f106111c5576101008083540402835291602001916111ee565b820191905f5260205f20905b8154815290600101906020018083116111d157829003601f168201915b50505050508152602001600182015481526020016002820154815260200160038201805461121b90611c5b565b80601f016020809104026020016040519081016040528092919081815260200182805461124790611c5b565b80156112925780601f1061126957610100808354040283529160200191611292565b820191905f5260205f20905b81548152906001019060200180831161127557829003601f168201915b505050505081526020016004820180546112ab90611c5b565b80601f01602080910402602001604051908101604052809291908181526020018280546112d790611c5b565b80156113225780601f106112f957610100808354040283529160200191611322565b820191905f5260205f20905b81548152906001019060200180831161130557829003601f168201915b50505050508152505081526020019060010190611147565b50505050905090565b60605f806060805f5b5f805490508110156116015786805190602001205f828154811061137357611372611ceb565b5b905f5260205f2090600502015f0160405161138e9190611de7565b6040518091039020036115f4575f81815481106113ae576113ad611ceb565b5b905f5260205f2090600502015f015f82815481106113cf576113ce611ceb565b5b905f5260205f209060050201600101545f83815481106113f2576113f1611ceb565b5b905f5260205f209060050201600201545f848154811061141557611414611ceb565b5b905f5260205f2090600502016003015f858154811061143757611436611ceb565b5b905f5260205f20906005020160040184805461145290611c5b565b80601f016020809104026020016040519081016040528092919081815260200182805461147e90611c5b565b80156114c95780601f106114a0576101008083540402835291602001916114c9565b820191905f5260205f20905b8154815290600101906020018083116114ac57829003601f168201915b505050505094508180546114dc90611c5b565b80601f016020809104026020016040519081016040528092919081815260200182805461150890611c5b565b80156115535780601f1061152a57610100808354040283529160200191611553565b820191905f5260205f20905b81548152906001019060200180831161153657829003601f168201915b5050505050915080805461156690611c5b565b80601f016020809104026020016040519081016040528092919081815260200182805461159290611c5b565b80156115dd5780601f106115b4576101008083540402835291602001916115dd565b820191905f5260205f20905b8154815290600101906020018083116115c057829003601f168201915b50505050509050955095509550955095505061163d565b808060010191505061134c565b506040517f08c379a000000000000000000000000000000000000000000000000000000000815260040161163490611e47565b60405180910390fd5b91939590929450565b5f8080549050905090565b6040518060a00160405280606081526020015f81526020015f815260200160608152602001606081525090565b5f604051905090565b5f80fd5b5f80fd5b5f819050919050565b6116a18161168f565b81146116ab575f80fd5b50565b5f813590506116bc81611698565b92915050565b5f602082840312156116d7576116d6611687565b5b5f6116e4848285016116ae565b91505092915050565b5f81519050919050565b5f82825260208201905092915050565b8281835e5f83830152505050565b5f601f19601f8301169050919050565b5f61172f826116ed565b61173981856116f7565b9350611749818560208601611707565b61175281611715565b840191505092915050565b6117668161168f565b82525050565b5f60a0820190508181035f8301526117848188611725565b9050611793602083018761175d565b6117a0604083018661175d565b81810360608301526117b28185611725565b905081810360808301526117c68184611725565b90509695505050505050565b5f6020820190508181035f8301526117ea8184611725565b905092915050565b5f81519050919050565b5f82825260208201905092915050565b5f819050602082019050919050565b5f82825260208201905092915050565b5f611835826116ed565b61183f818561181b565b935061184f818560208601611707565b61185881611715565b840191505092915050565b61186c8161168f565b82525050565b5f60a083015f8301518482035f86015261188c828261182b565b91505060208301516118a16020860182611863565b5060408301516118b46040860182611863565b50606083015184820360608601526118cc828261182b565b915050608083015184820360808601526118e6828261182b565b9150508091505092915050565b5f6118fe8383611872565b905092915050565b5f602082019050919050565b5f61191c826117f2565b61192681856117fc565b9350836020820285016119388561180c565b805f5b85811015611973578484038952815161195485826118f3565b945061195f83611906565b925060208a0199505060018101905061193b565b50829750879550505050505092915050565b5f6020820190508181035f83015261199d8184611912565b905092915050565b5f80fd5b5f80fd5b7f4e487b71000000000000000000000000000000000000000000000000000000005f52604160045260245ffd5b6119e382611715565b810181811067ffffffffffffffff82111715611a0257611a016119ad565b5b80604052505050565b5f611a1461167e565b9050611a2082826119da565b919050565b5f67ffffffffffffffff821115611a3f57611a3e6119ad565b5b611a4882611715565b9050602081019050919050565b828183375f83830152505050565b5f611a75611a7084611a25565b611a0b565b905082815260208101848484011115611a9157611a906119a9565b5b611a9c848285611a55565b509392505050565b5f82601f830112611ab857611ab76119a5565b5b8135611ac8848260208601611a63565b91505092915050565b5f60208284031215611ae657611ae5611687565b5b5f82013567ffffffffffffffff811115611b0357611b0261168b565b5b611b0f84828501611aa4565b91505092915050565b5f602082019050611b2b5f83018461175d565b92915050565b5f604082019050611b445f83018561175d565b8181036020830152611b568184611912565b90509392505050565b5f805f8060808587031215611b7757611b76611687565b5b5f85013567ffffffffffffffff811115611b9457611b9361168b565b5b611ba087828801611aa4565b9450506020611bb1878288016116ae565b9350506040611bc2878288016116ae565b925050606085013567ffffffffffffffff811115611be357611be261168b565b5b611bef87828801611aa4565b91505092959194509250565b5f8115159050919050565b611c0f81611bfb565b82525050565b5f602082019050611c285f830184611c06565b92915050565b7f4e487b71000000000000000000000000000000000000000000000000000000005f52602260045260245ffd5b5f6002820490506001821680611c7257607f821691505b602082108103611c8557611c84611c2e565b5b50919050565b7f4e487b71000000000000000000000000000000000000000000000000000000005f52601160045260245ffd5b5f611cc28261168f565b9150611ccd8361168f565b9250828201905080821115611ce557611ce4611c8b565b5b92915050565b7f4e487b71000000000000000000000000000000000000000000000000000000005f52603260045260245ffd5b5f611d228261168f565b9150611d2d8361168f565b9250828203905081811115611d4557611d44611c8b565b5b92915050565b5f81905092915050565b5f819050815f5260205f209050919050565b5f8154611d7381611c5b565b611d7d8186611d4b565b9450600182165f8114611d975760018114611dac57611dde565b60ff1983168652811515820286019350611dde565b611db585611d55565b5f5b83811015611dd657815481890152600182019150602081019050611db7565b838801955050505b50505092915050565b5f611df28284611d67565b915081905092915050565b7f53747564656e74206e6f7420666f756e640000000000000000000000000000005f82015250565b5f611e316011836116f7565b9150611e3c82611dfd565b602082019050919050565b5f6020820190508181035f830152611e5e81611e25565b9050919050565b7f4e487b71000000000000000000000000000000000000000000000000000000005f52601260045260245ffd5b5f611e9c8261168f565b9150611ea78361168f565b925082611eb757611eb6611e65565b5b828204905092915050565b5f611ecc8261168f565b91507fffffffffffffffffffffffffffffffffffffffffffffffffffffffffffffffff8203611efe57611efd611c8b565b5b600182019050919050565b5f819050815f5260205f209050919050565b5f6020601f8301049050919050565b5f82821b905092915050565b5f60088302611f657fffffffffffffffffffffffffffffffffffffffffffffffffffffffffffffffff82611f2a565b611f6f8683611f2a565b95508019841693508086168417925050509392505050565b5f819050919050565b5f611faa611fa5611fa08461168f565b611f87565b61168f565b9050919050565b5f819050919050565b611fc383611f90565b611fd7611fcf82611fb1565b848454611f36565b825550505050565b5f90565b611feb611fdf565b611ff6818484611fba565b505050565b5b818110156120195761200e5f82611fe3565b600181019050611ffc565b5050565b601f82111561205e5761202f81611f09565b61203884611f1b565b81016020851015612047578190505b61205b61205385611f1b565b830182611ffb565b50505b505050565b5f82821c905092915050565b5f61207e5f1984600802612063565b1980831691505092915050565b5f612096838361206f565b9150826002028217905092915050565b6120af826116ed565b67ffffffffffffffff8111156120c8576120c76119ad565b5b6120d28254611c5b565b6120dd82828561201d565b5f60209050601f83116001811461210e575f84156120fc578287015190505b612106858261208b565b86555061216d565b601f19841661211c86611f09565b5f5b828110156121435784890151825560018201915060208501945060208101905061211e565b86831015612160578489015161215c601f89168261206f565b8355505b6001600288020188555050505b50505050505056fea26469706673582212205bd111cf006c6a0eca999b0bea4e36ced2c64e23d8f4bf95927a3882fd2d6aa864736f6c634300081a0033",
					"opcodes": "PUSH1 0x80 PUSH1 0x40 MSTORE CALLVALUE DUP1 ISZERO PUSH1 0xE JUMPI PUSH0 DUP1 REVERT JUMPDEST POP PUSH2 0x21AB DUP1 PUSH2 0x1C PUSH0 CODECOPY PUSH0 RETURN INVALID PUSH1 0x80 PUSH1 0x40 MSTORE CALLVALUE DUP1 ISZERO PUSH2 0xF JUMPI PUSH0 DUP1 REVERT JUMPDEST POP PUSH1 0x4 CALLDATASIZE LT PUSH2 0xB2 JUMPI PUSH0 CALLDATALOAD PUSH1 0xE0 SHR DUP1 PUSH4 0x98463C74 GT PUSH2 0x6F JUMPI DUP1 PUSH4 0x98463C74 EQ PUSH2 0x1BA JUMPI DUP1 PUSH4 0x9AE52F0F EQ PUSH2 0x1D9 JUMPI DUP1 PUSH4 0xC06A93D3 EQ PUSH2 0x1F5 JUMPI DUP1 PUSH4 0xE9E30927 EQ PUSH2 0x213 JUMPI DUP1 PUSH4 0xF317D020 EQ PUSH2 0x231 JUMPI DUP1 PUSH4 0xFC9B4099 EQ PUSH2 0x265 JUMPI PUSH2 0xB2 JUMP JUMPDEST DUP1 PUSH4 0x6EAD22E EQ PUSH2 0xB6 JUMPI DUP1 PUSH4 0x3BF1A7D1 EQ PUSH2 0xEA JUMPI DUP1 PUSH4 0x4007924B EQ PUSH2 0x11A JUMPI DUP1 PUSH4 0x6191F364 EQ PUSH2 0x138 JUMPI DUP1 PUSH4 0x7676688B EQ PUSH2 0x16C JUMPI DUP1 PUSH4 0x86BE4114 EQ PUSH2 0x19C JUMPI JUMPDEST PUSH0 DUP1 REVERT JUMPDEST PUSH2 0xD0 PUSH1 0x4 DUP1 CALLDATASIZE SUB DUP2 ADD SWAP1 PUSH2 0xCB SWAP2 SWAP1 PUSH2 0x16C2 JUMP JUMPDEST PUSH2 0x283 JUMP JUMPDEST PUSH1 0x40 MLOAD PUSH2 0xE1 SWAP6 SWAP5 SWAP4 SWAP3 SWAP2 SWAP1 PUSH2 0x176C JUMP JUMPDEST PUSH1 0x40 MLOAD DUP1 SWAP2 SUB SWAP1 RETURN JUMPDEST PUSH2 0x104 PUSH1 0x4 DUP1 CALLDATASIZE SUB DUP2 ADD SWAP1 PUSH2 0xFF SWAP2 SWAP1 PUSH2 0x16C2 JUMP JUMPDEST PUSH2 0x455 JUMP JUMPDEST PUSH1 0x40 MLOAD PUSH2 0x111 SWAP2 SWAP1 PUSH2 0x17D2 JUMP JUMPDEST PUSH1 0x40 MLOAD DUP1 SWAP2 SUB SWAP1 RETURN JUMPDEST PUSH2 0x122 PUSH2 0x5A9 JUMP JUMPDEST PUSH1 0x40 MLOAD PUSH2 0x12F SWAP2 SWAP1 PUSH2 0x1985 JUMP JUMPDEST PUSH1 0x40 MLOAD DUP1 SWAP2 SUB SWAP1 RETURN JUMPDEST PUSH2 0x152 PUSH1 0x4 DUP1 CALLDATASIZE SUB DUP2 ADD SWAP1 PUSH2 0x14D SWAP2 SWAP1 PUSH2 0x16C2 JUMP JUMPDEST PUSH2 0x96F JUMP JUMPDEST PUSH1 0x40 MLOAD PUSH2 0x163 SWAP6 SWAP5 SWAP4 SWAP3 SWAP2 SWAP1 PUSH2 0x176C JUMP JUMPDEST PUSH1 0x40 MLOAD DUP1 SWAP2 SUB SWAP1 RETURN JUMPDEST PUSH2 0x186 PUSH1 0x4 DUP1 CALLDATASIZE SUB DUP2 ADD SWAP1 PUSH2 0x181 SWAP2 SWAP1 PUSH2 0x1AD1 JUMP JUMPDEST PUSH2 0xB9E JUMP JUMPDEST PUSH1 0x40 MLOAD PUSH2 0x193 SWAP2 SWAP1 PUSH2 0x1B18 JUMP JUMPDEST PUSH1 0x40 MLOAD DUP1 SWAP2 SUB SWAP1 RETURN JUMPDEST PUSH2 0x1A4 PUSH2 0xC6C JUMP JUMPDEST PUSH1 0x40 MLOAD PUSH2 0x1B1 SWAP2 SWAP1 PUSH2 0x1B18 JUMP JUMPDEST PUSH1 0x40 MLOAD DUP1 SWAP2 SUB SWAP1 RETURN JUMPDEST PUSH2 0x1C2 PUSH2 0xCD3 JUMP JUMPDEST PUSH1 0x40 MLOAD PUSH2 0x1D0 SWAP3 SWAP2 SWAP1 PUSH2 0x1B31 JUMP JUMPDEST PUSH1 0x40 MLOAD DUP1 SWAP2 SUB SWAP1 RETURN JUMPDEST PUSH2 0x1F3 PUSH1 0x4 DUP1 CALLDATASIZE SUB DUP2 ADD SWAP1 PUSH2 0x1EE SWAP2 SWAP1 PUSH2 0x1B5F JUMP JUMPDEST PUSH2 0x1057 JUMP JUMPDEST STOP JUMPDEST PUSH2 0x1FD PUSH2 0x110E JUMP JUMPDEST PUSH1 0x40 MLOAD PUSH2 0x20A SWAP2 SWAP1 PUSH2 0x1C15 JUMP JUMPDEST PUSH1 0x40 MLOAD DUP1 SWAP2 SUB SWAP1 RETURN JUMPDEST PUSH2 0x21B PUSH2 0x1125 JUMP JUMPDEST PUSH1 0x40 MLOAD PUSH2 0x228 SWAP2 SWAP1 PUSH2 0x1985 JUMP JUMPDEST PUSH1 0x40 MLOAD DUP1 SWAP2 SUB SWAP1 RETURN JUMPDEST PUSH2 0x24B PUSH1 0x4 DUP1 CALLDATASIZE SUB DUP2 ADD SWAP1 PUSH2 0x246 SWAP2 SWAP1 PUSH2 0x1AD1 JUMP JUMPDEST PUSH2 0x1343 JUMP JUMPDEST PUSH1 0x40 MLOAD PUSH2 0x25C SWAP6 SWAP5 SWAP4 SWAP3 SWAP2 SWAP1 PUSH2 0x176C JUMP JUMPDEST PUSH1 0x40 MLOAD DUP1 SWAP2 SUB SWAP1 RETURN JUMPDEST PUSH2 0x26D PUSH2 0x1646 JUMP JUMPDEST PUSH1 0x40 MLOAD PUSH2 0x27A SWAP2 SWAP1 PUSH2 0x1B18 JUMP JUMPDEST PUSH1 0x40 MLOAD DUP1 SWAP2 SUB SWAP1 RETURN JUMPDEST PUSH0 DUP2 DUP2 SLOAD DUP2 LT PUSH2 0x291 JUMPI PUSH0 DUP1 REVERT JUMPDEST SWAP1 PUSH0 MSTORE PUSH1 0x20 PUSH0 KECCAK256 SWAP1 PUSH1 0x5 MUL ADD PUSH0 SWAP2 POP SWAP1 POP DUP1 PUSH0 ADD DUP1 SLOAD PUSH2 0x2B0 SWAP1 PUSH2 0x1C5B JUMP JUMPDEST DUP1 PUSH1 0x1F ADD PUSH1 0x20 DUP1 SWAP2 DIV MUL PUSH1 0x20 ADD PUSH1 0x40 MLOAD SWAP1 DUP2 ADD PUSH1 0x40 MSTORE DUP1 SWAP3 SWAP2 SWAP1 DUP2 DUP2 MSTORE PUSH1 0x20 ADD DUP3 DUP1 SLOAD PUSH2 0x2DC SWAP1 PUSH2 0x1C5B JUMP JUMPDEST DUP1 ISZERO PUSH2 0x327 JUMPI DUP1 PUSH1 0x1F LT PUSH2 0x2FE JUMPI PUSH2 0x100 DUP1 DUP4 SLOAD DIV MUL DUP4 MSTORE SWAP2 PUSH1 0x20 ADD SWAP2 PUSH2 0x327 JUMP JUMPDEST DUP3 ADD SWAP2 SWAP1 PUSH0 MSTORE PUSH1 0x20 PUSH0 KECCAK256 SWAP1 JUMPDEST DUP2 SLOAD DUP2 MSTORE SWAP1 PUSH1 0x1 ADD SWAP1 PUSH1 0x20 ADD DUP1 DUP4 GT PUSH2 0x30A JUMPI DUP3 SWAP1 SUB PUSH1 0x1F AND DUP3 ADD SWAP2 JUMPDEST POP POP POP POP POP SWAP1 DUP1 PUSH1 0x1 ADD SLOAD SWAP1 DUP1 PUSH1 0x2 ADD SLOAD SWAP1 DUP1 PUSH1 0x3 ADD DUP1 SLOAD PUSH2 0x348 SWAP1 PUSH2 0x1C5B JUMP JUMPDEST DUP1 PUSH1 0x1F ADD PUSH1 0x20 DUP1 SWAP2 DIV MUL PUSH1 0x20 ADD PUSH1 0x40 MLOAD SWAP1 DUP2 ADD PUSH1 0x40 MSTORE DUP1 SWAP3 SWAP2 SWAP1 DUP2 DUP2 MSTORE PUSH1 0x20 ADD DUP3 DUP1 SLOAD PUSH2 0x374 SWAP1 PUSH2 0x1C5B JUMP JUMPDEST DUP1 ISZERO PUSH2 0x3BF JUMPI DUP1 PUSH1 0x1F LT PUSH2 0x396 JUMPI PUSH2 0x100 DUP1 DUP4 SLOAD DIV MUL DUP4 MSTORE SWAP2 PUSH1 0x20 ADD SWAP2 PUSH2 0x3BF JUMP JUMPDEST DUP3 ADD SWAP2 SWAP1 PUSH0 MSTORE PUSH1 0x20 PUSH0 KECCAK256 SWAP1 JUMPDEST DUP2 SLOAD DUP2 MSTORE SWAP1 PUSH1 0x1 ADD SWAP1 PUSH1 0x20 ADD DUP1 DUP4 GT PUSH2 0x3A2 JUMPI DUP3 SWAP1 SUB PUSH1 0x1F AND DUP3 ADD SWAP2 JUMPDEST POP POP POP POP POP SWAP1 DUP1 PUSH1 0x4 ADD DUP1 SLOAD PUSH2 0x3D4 SWAP1 PUSH2 0x1C5B JUMP JUMPDEST DUP1 PUSH1 0x1F ADD PUSH1 0x20 DUP1 SWAP2 DIV MUL PUSH1 0x20 ADD PUSH1 0x40 MLOAD SWAP1 DUP2 ADD PUSH1 0x40 MSTORE DUP1 SWAP3 SWAP2 SWAP1 DUP2 DUP2 MSTORE PUSH1 0x20 ADD DUP3 DUP1 SLOAD PUSH2 0x400 SWAP1 PUSH2 0x1C5B JUMP JUMPDEST DUP1 ISZERO PUSH2 0x44B JUMPI DUP1 PUSH1 0x1F LT PUSH2 0x422 JUMPI PUSH2 0x100 DUP1 DUP4 SLOAD DIV MUL DUP4 MSTORE SWAP2 PUSH1 0x20 ADD SWAP2 PUSH2 0x44B JUMP JUMPDEST DUP3 ADD SWAP2 SWAP1 PUSH0 MSTORE PUSH1 0x20 PUSH0 KECCAK256 SWAP1 JUMPDEST DUP2 SLOAD DUP2 MSTORE SWAP1 PUSH1 0x1 ADD SWAP1 PUSH1 0x20 ADD DUP1 DUP4 GT PUSH2 0x42E JUMPI DUP3 SWAP1 SUB PUSH1 0x1F AND DUP3 ADD SWAP2 JUMPDEST POP POP POP POP POP SWAP1 POP DUP6 JUMP JUMPDEST PUSH1 0x60 PUSH1 0x5A DUP3 LT PUSH2 0x49C JUMPI PUSH1 0x40 MLOAD DUP1 PUSH1 0x40 ADD PUSH1 0x40 MSTORE DUP1 PUSH1 0x1 DUP2 MSTORE PUSH1 0x20 ADD PUSH32 0x4100000000000000000000000000000000000000000000000000000000000000 DUP2 MSTORE POP SWAP1 POP PUSH2 0x5A4 JUMP JUMPDEST PUSH1 0x50 DUP3 LT PUSH2 0x4E1 JUMPI PUSH1 0x40 MLOAD DUP1 PUSH1 0x40 ADD PUSH1 0x40 MSTORE DUP1 PUSH1 0x1 DUP2 MSTORE PUSH1 0x20 ADD PUSH32 0x4200000000000000000000000000000000000000000000000000000000000000 DUP2 MSTORE POP SWAP1 POP PUSH2 0x5A4 JUMP JUMPDEST PUSH1 0x46 DUP3 LT PUSH2 0x526 JUMPI PUSH1 0x40 MLOAD DUP1 PUSH1 0x40 ADD PUSH1 0x40 MSTORE DUP1 PUSH1 0x1 DUP2 MSTORE PUSH1 0x20 ADD PUSH32 0x4300000000000000000000000000000000000000000000000000000000000000 DUP2 MSTORE POP SWAP1 POP PUSH2 0x5A4 JUMP JUMPDEST PUSH1 0x3C DUP3 LT PUSH2 0x56B JUMPI PUSH1 0x40 MLOAD DUP1 PUSH1 0x40 ADD PUSH1 0x40 MSTORE DUP1 PUSH1 0x1 DUP2 MSTORE PUSH1 0x20 ADD PUSH32 0x4400000000000000000000000000000000000000000000000000000000000000 DUP2 MSTORE POP SWAP1 POP PUSH2 0x5A4 JUMP JUMPDEST PUSH1 0x40 MLOAD DUP1 PUSH1 0x40 ADD PUSH1 0x40 MSTORE DUP1 PUSH1 0x1 DUP2 MSTORE PUSH1 0x20 ADD PUSH32 0x4600000000000000000000000000000000000000000000000000000000000000 DUP2 MSTORE POP SWAP1 POP JUMPDEST SWAP2 SWAP1 POP JUMP JUMPDEST PUSH1 0x60 PUSH0 DUP1 DUP1 SLOAD DUP1 PUSH1 0x20 MUL PUSH1 0x20 ADD PUSH1 0x40 MLOAD SWAP1 DUP2 ADD PUSH1 0x40 MSTORE DUP1 SWAP3 SWAP2 SWAP1 DUP2 DUP2 MSTORE PUSH1 0x20 ADD PUSH0 SWAP1 JUMPDEST DUP3 DUP3 LT ISZERO PUSH2 0x7BF JUMPI DUP4 DUP3 SWAP1 PUSH0 MSTORE PUSH1 0x20 PUSH0 KECCAK256 SWAP1 PUSH1 0x5 MUL ADD PUSH1 0x40 MLOAD DUP1 PUSH1 0xA0 ADD PUSH1 0x40 MSTORE SWAP1 DUP2 PUSH0 DUP3 ADD DUP1 SLOAD PUSH2 0x5FC SWAP1 PUSH2 0x1C5B JUMP JUMPDEST DUP1 PUSH1 0x1F ADD PUSH1 0x20 DUP1 SWAP2 DIV MUL PUSH1 0x20 ADD PUSH1 0x40 MLOAD SWAP1 DUP2 ADD PUSH1 0x40 MSTORE DUP1 SWAP3 SWAP2 SWAP1 DUP2 DUP2 MSTORE PUSH1 0x20 ADD DUP3 DUP1 SLOAD PUSH2 0x628 SWAP1 PUSH2 0x1C5B JUMP JUMPDEST DUP1 ISZERO PUSH2 0x673 JUMPI DUP1 PUSH1 0x1F LT PUSH2 0x64A JUMPI PUSH2 0x100 DUP1 DUP4 SLOAD DIV MUL DUP4 MSTORE SWAP2 PUSH1 0x20 ADD SWAP2 PUSH2 0x673 JUMP JUMPDEST DUP3 ADD SWAP2 SWAP1 PUSH0 MSTORE PUSH1 0x20 PUSH0 KECCAK256 SWAP1 JUMPDEST DUP2 SLOAD DUP2 MSTORE SWAP1 PUSH1 0x1 ADD SWAP1 PUSH1 0x20 ADD DUP1 DUP4 GT PUSH2 0x656 JUMPI DUP3 SWAP1 SUB PUSH1 0x1F AND DUP3 ADD SWAP2 JUMPDEST POP POP POP POP POP DUP2 MSTORE PUSH1 0x20 ADD PUSH1 0x1 DUP3 ADD SLOAD DUP2 MSTORE PUSH1 0x20 ADD PUSH1 0x2 DUP3 ADD SLOAD DUP2 MSTORE PUSH1 0x20 ADD PUSH1 0x3 DUP3 ADD DUP1 SLOAD PUSH2 0x6A0 SWAP1 PUSH2 0x1C5B JUMP JUMPDEST DUP1 PUSH1 0x1F ADD PUSH1 0x20 DUP1 SWAP2 DIV MUL PUSH1 0x20 ADD PUSH1 0x40 MLOAD SWAP1 DUP2 ADD PUSH1 0x40 MSTORE DUP1 SWAP3 SWAP2 SWAP1 DUP2 DUP2 MSTORE PUSH1 0x20 ADD DUP3 DUP1 SLOAD PUSH2 0x6CC SWAP1 PUSH2 0x1C5B JUMP JUMPDEST DUP1 ISZERO PUSH2 0x717 JUMPI DUP1 PUSH1 0x1F LT PUSH2 0x6EE JUMPI PUSH2 0x100 DUP1 DUP4 SLOAD DIV MUL DUP4 MSTORE SWAP2 PUSH1 0x20 ADD SWAP2 PUSH2 0x717 JUMP JUMPDEST DUP3 ADD SWAP2 SWAP1 PUSH0 MSTORE PUSH1 0x20 PUSH0 KECCAK256 SWAP1 JUMPDEST DUP2 SLOAD DUP2 MSTORE SWAP1 PUSH1 0x1 ADD SWAP1 PUSH1 0x20 ADD DUP1 DUP4 GT PUSH2 0x6FA JUMPI DUP3 SWAP1 SUB PUSH1 0x1F AND DUP3 ADD SWAP2 JUMPDEST POP POP POP POP POP DUP2 MSTORE PUSH1 0x20 ADD PUSH1 0x4 DUP3 ADD DUP1 SLOAD PUSH2 0x730 SWAP1 PUSH2 0x1C5B JUMP JUMPDEST DUP1 PUSH1 0x1F ADD PUSH1 0x20 DUP1 SWAP2 DIV MUL PUSH1 0x20 ADD PUSH1 0x40 MLOAD SWAP1 DUP2 ADD PUSH1 0x40 MSTORE DUP1 SWAP3 SWAP2 SWAP1 DUP2 DUP2 MSTORE PUSH1 0x20 ADD DUP3 DUP1 SLOAD PUSH2 0x75C SWAP1 PUSH2 0x1C5B JUMP JUMPDEST DUP1 ISZERO PUSH2 0x7A7 JUMPI DUP1 PUSH1 0x1F LT PUSH2 0x77E JUMPI PUSH2 0x100 DUP1 DUP4 SLOAD DIV MUL DUP4 MSTORE SWAP2 PUSH1 0x20 ADD SWAP2 PUSH2 0x7A7 JUMP JUMPDEST DUP3 ADD SWAP2 SWAP1 PUSH0 MSTORE PUSH1 0x20 PUSH0 KECCAK256 SWAP1 JUMPDEST DUP2 SLOAD DUP2 MSTORE SWAP1 PUSH1 0x1 ADD SWAP1 PUSH1 0x20 ADD DUP1 DUP4 GT PUSH2 0x78A JUMPI DUP3 SWAP1 SUB PUSH1 0x1F AND DUP3 ADD SWAP2 JUMPDEST POP POP POP POP POP DUP2 MSTORE POP POP DUP2 MSTORE PUSH1 0x20 ADD SWAP1 PUSH1 0x1 ADD SWAP1 PUSH2 0x5CC JUMP JUMPDEST POP POP POP POP SWAP1 POP PUSH0 JUMPDEST DUP2 MLOAD DUP2 LT ISZERO PUSH2 0x8BC JUMPI PUSH0 PUSH1 0x1 DUP3 PUSH2 0x7DE SWAP2 SWAP1 PUSH2 0x1CB8 JUMP JUMPDEST SWAP1 POP JUMPDEST DUP3 MLOAD DUP2 LT ISZERO PUSH2 0x8AE JUMPI DUP3 DUP2 DUP2 MLOAD DUP2 LT PUSH2 0x7FD JUMPI PUSH2 0x7FC PUSH2 0x1CEB JUMP JUMPDEST JUMPDEST PUSH1 0x20 MUL PUSH1 0x20 ADD ADD MLOAD PUSH1 0x40 ADD MLOAD DUP4 DUP4 DUP2 MLOAD DUP2 LT PUSH2 0x81C JUMPI PUSH2 0x81B PUSH2 0x1CEB JUMP JUMPDEST JUMPDEST PUSH1 0x20 MUL PUSH1 0x20 ADD ADD MLOAD PUSH1 0x40 ADD MLOAD LT ISZERO PUSH2 0x8A1 JUMPI DUP3 DUP2 DUP2 MLOAD DUP2 LT PUSH2 0x841 JUMPI PUSH2 0x840 PUSH2 0x1CEB JUMP JUMPDEST JUMPDEST PUSH1 0x20 MUL PUSH1 0x20 ADD ADD MLOAD DUP4 DUP4 DUP2 MLOAD DUP2 LT PUSH2 0x85C JUMPI PUSH2 0x85B PUSH2 0x1CEB JUMP JUMPDEST JUMPDEST PUSH1 0x20 MUL PUSH1 0x20 ADD ADD MLOAD DUP5 DUP5 DUP2 MLOAD DUP2 LT PUSH2 0x877 JUMPI PUSH2 0x876 PUSH2 0x1CEB JUMP JUMPDEST JUMPDEST PUSH1 0x20 MUL PUSH1 0x20 ADD ADD DUP6 DUP5 DUP2 MLOAD DUP2 LT PUSH2 0x891 JUMPI PUSH2 0x890 PUSH2 0x1CEB JUMP JUMPDEST JUMPDEST PUSH1 0x20 MUL PUSH1 0x20 ADD ADD DUP3 SWAP1 MSTORE DUP3 SWAP1 MSTORE POP POP JUMPDEST DUP1 DUP1 PUSH1 0x1 ADD SWAP2 POP POP PUSH2 0x7E1 JUMP JUMPDEST POP DUP1 DUP1 PUSH1 0x1 ADD SWAP2 POP POP PUSH2 0x7C7 JUMP JUMPDEST POP PUSH0 PUSH1 0x4 PUSH8 0xFFFFFFFFFFFFFFFF DUP2 GT ISZERO PUSH2 0x8D9 JUMPI PUSH2 0x8D8 PUSH2 0x19AD JUMP JUMPDEST JUMPDEST PUSH1 0x40 MLOAD SWAP1 DUP1 DUP3 MSTORE DUP1 PUSH1 0x20 MUL PUSH1 0x20 ADD DUP3 ADD PUSH1 0x40 MSTORE DUP1 ISZERO PUSH2 0x912 JUMPI DUP2 PUSH1 0x20 ADD JUMPDEST PUSH2 0x8FF PUSH2 0x1651 JUMP JUMPDEST DUP2 MSTORE PUSH1 0x20 ADD SWAP1 PUSH1 0x1 SWAP1 SUB SWAP1 DUP2 PUSH2 0x8F7 JUMPI SWAP1 POP JUMPDEST POP SWAP1 POP PUSH0 JUMPDEST PUSH1 0x4 DUP2 LT ISZERO PUSH2 0x966 JUMPI DUP3 DUP2 DUP2 MLOAD DUP2 LT PUSH2 0x933 JUMPI PUSH2 0x932 PUSH2 0x1CEB JUMP JUMPDEST JUMPDEST PUSH1 0x20 MUL PUSH1 0x20 ADD ADD MLOAD DUP3 DUP3 DUP2 MLOAD DUP2 LT PUSH2 0x94E JUMPI PUSH2 0x94D PUSH2 0x1CEB JUMP JUMPDEST JUMPDEST PUSH1 0x20 MUL PUSH1 0x20 ADD ADD DUP2 SWAP1 MSTORE POP DUP1 DUP1 PUSH1 0x1 ADD SWAP2 POP POP PUSH2 0x917 JUMP JUMPDEST POP DUP1 SWAP3 POP POP POP SWAP1 JUMP JUMPDEST PUSH1 0x60 PUSH0 DUP1 PUSH1 0x60 DUP1 PUSH0 DUP1 PUSH1 0x1 DUP9 PUSH2 0x985 SWAP2 SWAP1 PUSH2 0x1D18 JUMP JUMPDEST DUP2 SLOAD DUP2 LT PUSH2 0x996 JUMPI PUSH2 0x995 PUSH2 0x1CEB JUMP JUMPDEST JUMPDEST SWAP1 PUSH0 MSTORE PUSH1 0x20 PUSH0 KECCAK256 SWAP1 PUSH1 0x5 MUL ADD PUSH1 0x40 MLOAD DUP1 PUSH1 0xA0 ADD PUSH1 0x40 MSTORE SWAP1 DUP2 PUSH0 DUP3 ADD DUP1 SLOAD PUSH2 0x9BC SWAP1 PUSH2 0x1C5B JUMP JUMPDEST DUP1 PUSH1 0x1F ADD PUSH1 0x20 DUP1 SWAP2 DIV MUL PUSH1 0x20 ADD PUSH1 0x40 MLOAD SWAP1 DUP2 ADD PUSH1 0x40 MSTORE DUP1 SWAP3 SWAP2 SWAP1 DUP2 DUP2 MSTORE PUSH1 0x20 ADD DUP3 DUP1 SLOAD PUSH2 0x9E8 SWAP1 PUSH2 0x1C5B JUMP JUMPDEST DUP1 ISZERO PUSH2 0xA33 JUMPI DUP1 PUSH1 0x1F LT PUSH2 0xA0A JUMPI PUSH2 0x100 DUP1 DUP4 SLOAD DIV MUL DUP4 MSTORE SWAP2 PUSH1 0x20 ADD SWAP2 PUSH2 0xA33 JUMP JUMPDEST DUP3 ADD SWAP2 SWAP1 PUSH0 MSTORE PUSH1 0x20 PUSH0 KECCAK256 SWAP1 JUMPDEST DUP2 SLOAD DUP2 MSTORE SWAP1 PUSH1 0x1 ADD SWAP1 PUSH1 0x20 ADD DUP1 DUP4 GT PUSH2 0xA16 JUMPI DUP3 SWAP1 SUB PUSH1 0x1F AND DUP3 ADD SWAP2 JUMPDEST POP POP POP POP POP DUP2 MSTORE PUSH1 0x20 ADD PUSH1 0x1 DUP3 ADD SLOAD DUP2 MSTORE PUSH1 0x20 ADD PUSH1 0x2 DUP3 ADD SLOAD DUP2 MSTORE PUSH1 0x20 ADD PUSH1 0x3 DUP3 ADD DUP1 SLOAD PUSH2 0xA60 SWAP1 PUSH2 0x1C5B JUMP JUMPDEST DUP1 PUSH1 0x1F ADD PUSH1 0x20 DUP1 SWAP2 DIV MUL PUSH1 0x20 ADD PUSH1 0x40 MLOAD SWAP1 DUP2 ADD PUSH1 0x40 MSTORE DUP1 SWAP3 SWAP2 SWAP1 DUP2 DUP2 MSTORE PUSH1 0x20 ADD DUP3 DUP1 SLOAD PUSH2 0xA8C SWAP1 PUSH2 0x1C5B JUMP JUMPDEST DUP1 ISZERO PUSH2 0xAD7 JUMPI DUP1 PUSH1 0x1F LT PUSH2 0xAAE JUMPI PUSH2 0x100 DUP1 DUP4 SLOAD DIV MUL DUP4 MSTORE SWAP2 PUSH1 0x20 ADD SWAP2 PUSH2 0xAD7 JUMP JUMPDEST DUP3 ADD SWAP2 SWAP1 PUSH0 MSTORE PUSH1 0x20 PUSH0 KECCAK256 SWAP1 JUMPDEST DUP2 SLOAD DUP2 MSTORE SWAP1 PUSH1 0x1 ADD SWAP1 PUSH1 0x20 ADD DUP1 DUP4 GT PUSH2 0xABA JUMPI DUP3 SWAP1 SUB PUSH1 0x1F AND DUP3 ADD SWAP2 JUMPDEST POP POP POP POP POP DUP2 MSTORE PUSH1 0x20 ADD PUSH1 0x4 DUP3 ADD DUP1 SLOAD PUSH2 0xAF0 SWAP1 PUSH2 0x1C5B JUMP JUMPDEST DUP1 PUSH1 0x1F ADD PUSH1 0x20 DUP1 SWAP2 DIV MUL PUSH1 0x20 ADD PUSH1 0x40 MLOAD SWAP1 DUP2 ADD PUSH1 0x40 MSTORE DUP1 SWAP3 SWAP2 SWAP1 DUP2 DUP2 MSTORE PUSH1 0x20 ADD DUP3 DUP1 SLOAD PUSH2 0xB1C SWAP1 PUSH2 0x1C5B JUMP JUMPDEST DUP1 ISZERO PUSH2 0xB67 JUMPI DUP1 PUSH1 0x1F LT PUSH2 0xB3E JUMPI PUSH2 0x100 DUP1 DUP4 SLOAD DIV MUL DUP4 MSTORE SWAP2 PUSH1 0x20 ADD SWAP2 PUSH2 0xB67 JUMP JUMPDEST DUP3 ADD SWAP2 SWAP1 PUSH0 MSTORE PUSH1 0x20 PUSH0 KECCAK256 SWAP1 JUMPDEST DUP2 SLOAD DUP2 MSTORE SWAP1 PUSH1 0x1 ADD SWAP1 PUSH1 0x20 ADD DUP1 DUP4 GT PUSH2 0xB4A JUMPI DUP3 SWAP1 SUB PUSH1 0x1F AND DUP3 ADD SWAP2 JUMPDEST POP POP POP POP POP DUP2 MSTORE POP POP SWAP1 POP DUP1 PUSH0 ADD MLOAD DUP2 PUSH1 0x20 ADD MLOAD DUP3 PUSH1 0x40 ADD MLOAD DUP4 PUSH1 0x60 ADD MLOAD DUP5 PUSH1 0x80 ADD MLOAD SWAP6 POP SWAP6 POP SWAP6 POP SWAP6 POP SWAP6 POP POP SWAP2 SWAP4 SWAP6 SWAP1 SWAP3 SWAP5 POP JUMP JUMPDEST PUSH0 DUP1 PUSH0 SWAP1 POP JUMPDEST PUSH0 DUP1 SLOAD SWAP1 POP DUP2 LT ISZERO PUSH2 0xC2B JUMPI DUP3 DUP1 MLOAD SWAP1 PUSH1 0x20 ADD KECCAK256 PUSH0 DUP3 DUP2 SLOAD DUP2 LT PUSH2 0xBCB JUMPI PUSH2 0xBCA PUSH2 0x1CEB JUMP JUMPDEST JUMPDEST SWAP1 PUSH0 MSTORE PUSH1 0x20 PUSH0 KECCAK256 SWAP1 PUSH1 0x5 MUL ADD PUSH0 ADD PUSH1 0x40 MLOAD PUSH2 0xBE6 SWAP2 SWAP1 PUSH2 0x1DE7 JUMP JUMPDEST PUSH1 0x40 MLOAD DUP1 SWAP2 SUB SWAP1 KECCAK256 SUB PUSH2 0xC1E JUMPI PUSH0 DUP2 DUP2 SLOAD DUP2 LT PUSH2 0xC06 JUMPI PUSH2 0xC05 PUSH2 0x1CEB JUMP JUMPDEST JUMPDEST SWAP1 PUSH0 MSTORE PUSH1 0x20 PUSH0 KECCAK256 SWAP1 PUSH1 0x5 MUL ADD PUSH1 0x2 ADD SLOAD SWAP2 POP POP PUSH2 0xC67 JUMP JUMPDEST DUP1 DUP1 PUSH1 0x1 ADD SWAP2 POP POP PUSH2 0xBA4 JUMP JUMPDEST POP PUSH1 0x40 MLOAD PUSH32 0x8C379A000000000000000000000000000000000000000000000000000000000 DUP2 MSTORE PUSH1 0x4 ADD PUSH2 0xC5E SWAP1 PUSH2 0x1E47 JUMP JUMPDEST PUSH1 0x40 MLOAD DUP1 SWAP2 SUB SWAP1 REVERT JUMPDEST SWAP2 SWAP1 POP JUMP JUMPDEST PUSH0 DUP1 PUSH0 SWAP1 POP PUSH0 JUMPDEST PUSH0 DUP1 SLOAD SWAP1 POP DUP2 LT ISZERO PUSH2 0xCBC JUMPI PUSH0 DUP2 DUP2 SLOAD DUP2 LT PUSH2 0xC92 JUMPI PUSH2 0xC91 PUSH2 0x1CEB JUMP JUMPDEST JUMPDEST SWAP1 PUSH0 MSTORE PUSH1 0x20 PUSH0 KECCAK256 SWAP1 PUSH1 0x5 MUL ADD PUSH1 0x2 ADD SLOAD DUP3 PUSH2 0xCAD SWAP2 SWAP1 PUSH2 0x1CB8 JUMP JUMPDEST SWAP2 POP DUP1 DUP1 PUSH1 0x1 ADD SWAP2 POP POP PUSH2 0xC73 JUMP JUMPDEST POP PUSH0 DUP1 SLOAD SWAP1 POP DUP2 PUSH2 0xCCD SWAP2 SWAP1 PUSH2 0x1E92 JUMP JUMPDEST SWAP2 POP POP SWAP1 JUMP JUMPDEST PUSH0 PUSH1 0x60 PUSH0 DUP1 JUMPDEST PUSH0 DUP1 SLOAD SWAP1 POP DUP2 LT ISZERO PUSH2 0xD5E JUMPI PUSH32 0xE61D9A3D3848FB2CDD9A2AB61E2F21A10EA431275AED628A0557F9DEE697C37A PUSH0 DUP3 DUP2 SLOAD DUP2 LT PUSH2 0xD19 JUMPI PUSH2 0xD18 PUSH2 0x1CEB JUMP JUMPDEST JUMPDEST SWAP1 PUSH0 MSTORE PUSH1 0x20 PUSH0 KECCAK256 SWAP1 PUSH1 0x5 MUL ADD PUSH1 0x3 ADD PUSH1 0x40 MLOAD PUSH2 0xD35 SWAP2 SWAP1 PUSH2 0x1DE7 JUMP JUMPDEST PUSH1 0x40 MLOAD DUP1 SWAP2 SUB SWAP1 KECCAK256 SUB PUSH2 0xD51 JUMPI DUP2 DUP1 PUSH2 0xD4D SWAP1 PUSH2 0x1EC2 JUMP JUMPDEST SWAP3 POP POP JUMPDEST DUP1 DUP1 PUSH1 0x1 ADD SWAP2 POP POP PUSH2 0xCD9 JUMP JUMPDEST POP PUSH0 DUP2 PUSH8 0xFFFFFFFFFFFFFFFF DUP2 GT ISZERO PUSH2 0xD7A JUMPI PUSH2 0xD79 PUSH2 0x19AD JUMP JUMPDEST JUMPDEST PUSH1 0x40 MLOAD SWAP1 DUP1 DUP3 MSTORE DUP1 PUSH1 0x20 MUL PUSH1 0x20 ADD DUP3 ADD PUSH1 0x40 MSTORE DUP1 ISZERO PUSH2 0xDB3 JUMPI DUP2 PUSH1 0x20 ADD JUMPDEST PUSH2 0xDA0 PUSH2 0x1651 JUMP JUMPDEST DUP2 MSTORE PUSH1 0x20 ADD SWAP1 PUSH1 0x1 SWAP1 SUB SWAP1 DUP2 PUSH2 0xD98 JUMPI SWAP1 POP JUMPDEST POP SWAP1 POP PUSH0 DUP1 JUMPDEST PUSH0 DUP1 SLOAD SWAP1 POP DUP2 LT ISZERO PUSH2 0x1049 JUMPI PUSH32 0xE61D9A3D3848FB2CDD9A2AB61E2F21A10EA431275AED628A0557F9DEE697C37A PUSH0 DUP3 DUP2 SLOAD DUP2 LT PUSH2 0xDF9 JUMPI PUSH2 0xDF8 PUSH2 0x1CEB JUMP JUMPDEST JUMPDEST SWAP1 PUSH0 MSTORE PUSH1 0x20 PUSH0 KECCAK256 SWAP1 PUSH1 0x5 MUL ADD PUSH1 0x3 ADD PUSH1 0x40 MLOAD PUSH2 0xE15 SWAP2 SWAP1 PUSH2 0x1DE7 JUMP JUMPDEST PUSH1 0x40 MLOAD DUP1 SWAP2 SUB SWAP1 KECCAK256 SUB PUSH2 0x103C JUMPI PUSH0 DUP2 DUP2 SLOAD DUP2 LT PUSH2 0xE35 JUMPI PUSH2 0xE34 PUSH2 0x1CEB JUMP JUMPDEST JUMPDEST SWAP1 PUSH0 MSTORE PUSH1 0x20 PUSH0 KECCAK256 SWAP1 PUSH1 0x5 MUL ADD PUSH1 0x40 MLOAD DUP1 PUSH1 0xA0 ADD PUSH1 0x40 MSTORE SWAP1 DUP2 PUSH0 DUP3 ADD DUP1 SLOAD PUSH2 0xE5B SWAP1 PUSH2 0x1C5B JUMP JUMPDEST DUP1 PUSH1 0x1F ADD PUSH1 0x20 DUP1 SWAP2 DIV MUL PUSH1 0x20 ADD PUSH1 0x40 MLOAD SWAP1 DUP2 ADD PUSH1 0x40 MSTORE DUP1 SWAP3 SWAP2 SWAP1 DUP2 DUP2 MSTORE PUSH1 0x20 ADD DUP3 DUP1 SLOAD PUSH2 0xE87 SWAP1 PUSH2 0x1C5B JUMP JUMPDEST DUP1 ISZERO PUSH2 0xED2 JUMPI DUP1 PUSH1 0x1F LT PUSH2 0xEA9 JUMPI PUSH2 0x100 DUP1 DUP4 SLOAD DIV MUL DUP4 MSTORE SWAP2 PUSH1 0x20 ADD SWAP2 PUSH2 0xED2 JUMP JUMPDEST DUP3 ADD SWAP2 SWAP1 PUSH0 MSTORE PUSH1 0x20 PUSH0 KECCAK256 SWAP1 JUMPDEST DUP2 SLOAD DUP2 MSTORE SWAP1 PUSH1 0x1 ADD SWAP1 PUSH1 0x20 ADD DUP1 DUP4 GT PUSH2 0xEB5 JUMPI DUP3 SWAP1 SUB PUSH1 0x1F AND DUP3 ADD SWAP2 JUMPDEST POP POP POP POP POP DUP2 MSTORE PUSH1 0x20 ADD PUSH1 0x1 DUP3 ADD SLOAD DUP2 MSTORE PUSH1 0x20 ADD PUSH1 0x2 DUP3 ADD SLOAD DUP2 MSTORE PUSH1 0x20 ADD PUSH1 0x3 DUP3 ADD DUP1 SLOAD PUSH2 0xEFF SWAP1 PUSH2 0x1C5B JUMP JUMPDEST DUP1 PUSH1 0x1F ADD PUSH1 0x20 DUP1 SWAP2 DIV MUL PUSH1 0x20 ADD PUSH1 0x40 MLOAD SWAP1 DUP2 ADD PUSH1 0x40 MSTORE DUP1 SWAP3 SWAP2 SWAP1 DUP2 DUP2 MSTORE PUSH1 0x20 ADD DUP3 DUP1 SLOAD PUSH2 0xF2B SWAP1 PUSH2 0x1C5B JUMP JUMPDEST DUP1 ISZERO PUSH2 0xF76 JUMPI DUP1 PUSH1 0x1F LT PUSH2 0xF4D JUMPI PUSH2 0x100 DUP1 DUP4 SLOAD DIV MUL DUP4 MSTORE SWAP2 PUSH1 0x20 ADD SWAP2 PUSH2 0xF76 JUMP JUMPDEST DUP3 ADD SWAP2 SWAP1 PUSH0 MSTORE PUSH1 0x20 PUSH0 KECCAK256 SWAP1 JUMPDEST DUP2 SLOAD DUP2 MSTORE SWAP1 PUSH1 0x1 ADD SWAP1 PUSH1 0x20 ADD DUP1 DUP4 GT PUSH2 0xF59 JUMPI DUP3 SWAP1 SUB PUSH1 0x1F AND DUP3 ADD SWAP2 JUMPDEST POP POP POP POP POP DUP2 MSTORE PUSH1 0x20 ADD PUSH1 0x4 DUP3 ADD DUP1 SLOAD PUSH2 0xF8F SWAP1 PUSH2 0x1C5B JUMP JUMPDEST DUP1 PUSH1 0x1F ADD PUSH1 0x20 DUP1 SWAP2 DIV MUL PUSH1 0x20 ADD PUSH1 0x40 MLOAD SWAP1 DUP2 ADD PUSH1 0x40 MSTORE DUP1 SWAP3 SWAP2 SWAP1 DUP2 DUP2 MSTORE PUSH1 0x20 ADD DUP3 DUP1 SLOAD PUSH2 0xFBB SWAP1 PUSH2 0x1C5B JUMP JUMPDEST DUP1 ISZERO PUSH2 0x1006 JUMPI DUP1 PUSH1 0x1F LT PUSH2 0xFDD JUMPI PUSH2 0x100 DUP1 DUP4 SLOAD DIV MUL DUP4 MSTORE SWAP2 PUSH1 0x20 ADD SWAP2 PUSH2 0x1006 JUMP JUMPDEST DUP3 ADD SWAP2 SWAP1 PUSH0 MSTORE PUSH1 0x20 PUSH0 KECCAK256 SWAP1 JUMPDEST DUP2 SLOAD DUP2 MSTORE SWAP1 PUSH1 0x1 ADD SWAP1 PUSH1 0x20 ADD DUP1 DUP4 GT PUSH2 0xFE9 JUMPI DUP3 SWAP1 SUB PUSH1 0x1F AND DUP3 ADD SWAP2 JUMPDEST POP POP POP POP POP DUP2 MSTORE POP POP DUP4 DUP4 DUP2 MLOAD DUP2 LT PUSH2 0x1022 JUMPI PUSH2 0x1021 PUSH2 0x1CEB JUMP JUMPDEST JUMPDEST PUSH1 0x20 MUL PUSH1 0x20 ADD ADD DUP2 SWAP1 MSTORE POP DUP2 DUP1 PUSH2 0x1038 SWAP1 PUSH2 0x1EC2 JUMP JUMPDEST SWAP3 POP POP JUMPDEST DUP1 DUP1 PUSH1 0x1 ADD SWAP2 POP POP PUSH2 0xDB9 JUMP JUMPDEST POP DUP3 DUP3 SWAP5 POP SWAP5 POP POP POP POP SWAP1 SWAP2 JUMP JUMPDEST PUSH0 PUSH2 0x1061 DUP4 PUSH2 0x455 JUMP JUMPDEST SWAP1 POP PUSH0 PUSH1 0x40 MLOAD DUP1 PUSH1 0xA0 ADD PUSH1 0x40 MSTORE DUP1 DUP8 DUP2 MSTORE PUSH1 0x20 ADD DUP7 DUP2 MSTORE PUSH1 0x20 ADD DUP6 DUP2 MSTORE PUSH1 0x20 ADD DUP4 DUP2 MSTORE PUSH1 0x20 ADD DUP5 DUP2 MSTORE POP SWAP1 DUP1 PUSH1 0x1 DUP2 SLOAD ADD DUP1 DUP3 SSTORE DUP1 SWAP2 POP POP PUSH1 0x1 SWAP1 SUB SWAP1 PUSH0 MSTORE PUSH1 0x20 PUSH0 KECCAK256 SWAP1 PUSH1 0x5 MUL ADD PUSH0 SWAP1 SWAP2 SWAP1 SWAP2 SWAP1 SWAP2 POP PUSH0 DUP3 ADD MLOAD DUP2 PUSH0 ADD SWAP1 DUP2 PUSH2 0x10C4 SWAP2 SWAP1 PUSH2 0x20A6 JUMP JUMPDEST POP PUSH1 0x20 DUP3 ADD MLOAD DUP2 PUSH1 0x1 ADD SSTORE PUSH1 0x40 DUP3 ADD MLOAD DUP2 PUSH1 0x2 ADD SSTORE PUSH1 0x60 DUP3 ADD MLOAD DUP2 PUSH1 0x3 ADD SWAP1 DUP2 PUSH2 0x10EE SWAP2 SWAP1 PUSH2 0x20A6 JUMP JUMPDEST POP PUSH1 0x80 DUP3 ADD MLOAD DUP2 PUSH1 0x4 ADD SWAP1 DUP2 PUSH2 0x1104 SWAP2 SWAP1 PUSH2 0x20A6 JUMP JUMPDEST POP POP POP POP POP POP POP POP JUMP JUMPDEST PUSH0 DUP1 PUSH2 0x1118 PUSH2 0xC6C JUMP JUMPDEST SWAP1 POP PUSH1 0x46 DUP2 LT ISZERO SWAP2 POP POP SWAP1 JUMP JUMPDEST PUSH1 0x60 PUSH0 DUP1 SLOAD DUP1 PUSH1 0x20 MUL PUSH1 0x20 ADD PUSH1 0x40 MLOAD SWAP1 DUP2 ADD PUSH1 0x40 MSTORE DUP1 SWAP3 SWAP2 SWAP1 DUP2 DUP2 MSTORE PUSH1 0x20 ADD PUSH0 SWAP1 JUMPDEST DUP3 DUP3 LT ISZERO PUSH2 0x133A JUMPI DUP4 DUP3 SWAP1 PUSH0 MSTORE PUSH1 0x20 PUSH0 KECCAK256 SWAP1 PUSH1 0x5 MUL ADD PUSH1 0x40 MLOAD DUP1 PUSH1 0xA0 ADD PUSH1 0x40 MSTORE SWAP1 DUP2 PUSH0 DUP3 ADD DUP1 SLOAD PUSH2 0x1177 SWAP1 PUSH2 0x1C5B JUMP JUMPDEST DUP1 PUSH1 0x1F ADD PUSH1 0x20 DUP1 SWAP2 DIV MUL PUSH1 0x20 ADD PUSH1 0x40 MLOAD SWAP1 DUP2 ADD PUSH1 0x40 MSTORE DUP1 SWAP3 SWAP2 SWAP1 DUP2 DUP2 MSTORE PUSH1 0x20 ADD DUP3 DUP1 SLOAD PUSH2 0x11A3 SWAP1 PUSH2 0x1C5B JUMP JUMPDEST DUP1 ISZERO PUSH2 0x11EE JUMPI DUP1 PUSH1 0x1F LT PUSH2 0x11C5 JUMPI PUSH2 0x100 DUP1 DUP4 SLOAD DIV MUL DUP4 MSTORE SWAP2 PUSH1 0x20 ADD SWAP2 PUSH2 0x11EE JUMP JUMPDEST DUP3 ADD SWAP2 SWAP1 PUSH0 MSTORE PUSH1 0x20 PUSH0 KECCAK256 SWAP1 JUMPDEST DUP2 SLOAD DUP2 MSTORE SWAP1 PUSH1 0x1 ADD SWAP1 PUSH1 0x20 ADD DUP1 DUP4 GT PUSH2 0x11D1 JUMPI DUP3 SWAP1 SUB PUSH1 0x1F AND DUP3 ADD SWAP2 JUMPDEST POP POP POP POP POP DUP2 MSTORE PUSH1 0x20 ADD PUSH1 0x1 DUP3 ADD SLOAD DUP2 MSTORE PUSH1 0x20 ADD PUSH1 0x2 DUP3 ADD SLOAD DUP2 MSTORE PUSH1 0x20 ADD PUSH1 0x3 DUP3 ADD DUP1 SLOAD PUSH2 0x121B SWAP1 PUSH2 0x1C5B JUMP JUMPDEST DUP1 PUSH1 0x1F ADD PUSH1 0x20 DUP1 SWAP2 DIV MUL PUSH1 0x20 ADD PUSH1 0x40 MLOAD SWAP1 DUP2 ADD PUSH1 0x40 MSTORE DUP1 SWAP3 SWAP2 SWAP1 DUP2 DUP2 MSTORE PUSH1 0x20 ADD DUP3 DUP1 SLOAD PUSH2 0x1247 SWAP1 PUSH2 0x1C5B JUMP JUMPDEST DUP1 ISZERO PUSH2 0x1292 JUMPI DUP1 PUSH1 0x1F LT PUSH2 0x1269 JUMPI PUSH2 0x100 DUP1 DUP4 SLOAD DIV MUL DUP4 MSTORE SWAP2 PUSH1 0x20 ADD SWAP2 PUSH2 0x1292 JUMP JUMPDEST DUP3 ADD SWAP2 SWAP1 PUSH0 MSTORE PUSH1 0x20 PUSH0 KECCAK256 SWAP1 JUMPDEST DUP2 SLOAD DUP2 MSTORE SWAP1 PUSH1 0x1 ADD SWAP1 PUSH1 0x20 ADD DUP1 DUP4 GT PUSH2 0x1275 JUMPI DUP3 SWAP1 SUB PUSH1 0x1F AND DUP3 ADD SWAP2 JUMPDEST POP POP POP POP POP DUP2 MSTORE PUSH1 0x20 ADD PUSH1 0x4 DUP3 ADD DUP1 SLOAD PUSH2 0x12AB SWAP1 PUSH2 0x1C5B JUMP JUMPDEST DUP1 PUSH1 0x1F ADD PUSH1 0x20 DUP1 SWAP2 DIV MUL PUSH1 0x20 ADD PUSH1 0x40 MLOAD SWAP1 DUP2 ADD PUSH1 0x40 MSTORE DUP1 SWAP3 SWAP2 SWAP1 DUP2 DUP2 MSTORE PUSH1 0x20 ADD DUP3 DUP1 SLOAD PUSH2 0x12D7 SWAP1 PUSH2 0x1C5B JUMP JUMPDEST DUP1 ISZERO PUSH2 0x1322 JUMPI DUP1 PUSH1 0x1F LT PUSH2 0x12F9 JUMPI PUSH2 0x100 DUP1 DUP4 SLOAD DIV MUL DUP4 MSTORE SWAP2 PUSH1 0x20 ADD SWAP2 PUSH2 0x1322 JUMP JUMPDEST DUP3 ADD SWAP2 SWAP1 PUSH0 MSTORE PUSH1 0x20 PUSH0 KECCAK256 SWAP1 JUMPDEST DUP2 SLOAD DUP2 MSTORE SWAP1 PUSH1 0x1 ADD SWAP1 PUSH1 0x20 ADD DUP1 DUP4 GT PUSH2 0x1305 JUMPI DUP3 SWAP1 SUB PUSH1 0x1F AND DUP3 ADD SWAP2 JUMPDEST POP POP POP POP POP DUP2 MSTORE POP POP DUP2 MSTORE PUSH1 0x20 ADD SWAP1 PUSH1 0x1 ADD SWAP1 PUSH2 0x1147 JUMP JUMPDEST POP POP POP POP SWAP1 POP SWAP1 JUMP JUMPDEST PUSH1 0x60 PUSH0 DUP1 PUSH1 0x60 DUP1 PUSH0 JUMPDEST PUSH0 DUP1 SLOAD SWAP1 POP DUP2 LT ISZERO PUSH2 0x1601 JUMPI DUP7 DUP1 MLOAD SWAP1 PUSH1 0x20 ADD KECCAK256 PUSH0 DUP3 DUP2 SLOAD DUP2 LT PUSH2 0x1373 JUMPI PUSH2 0x1372 PUSH2 0x1CEB JUMP JUMPDEST JUMPDEST SWAP1 PUSH0 MSTORE PUSH1 0x20 PUSH0 KECCAK256 SWAP1 PUSH1 0x5 MUL ADD PUSH0 ADD PUSH1 0x40 MLOAD PUSH2 0x138E SWAP2 SWAP1 PUSH2 0x1DE7 JUMP JUMPDEST PUSH1 0x40 MLOAD DUP1 SWAP2 SUB SWAP1 KECCAK256 SUB PUSH2 0x15F4 JUMPI PUSH0 DUP2 DUP2 SLOAD DUP2 LT PUSH2 0x13AE JUMPI PUSH2 0x13AD PUSH2 0x1CEB JUMP JUMPDEST JUMPDEST SWAP1 PUSH0 MSTORE PUSH1 0x20 PUSH0 KECCAK256 SWAP1 PUSH1 0x5 MUL ADD PUSH0 ADD PUSH0 DUP3 DUP2 SLOAD DUP2 LT PUSH2 0x13CF JUMPI PUSH2 0x13CE PUSH2 0x1CEB JUMP JUMPDEST JUMPDEST SWAP1 PUSH0 MSTORE PUSH1 0x20 PUSH0 KECCAK256 SWAP1 PUSH1 0x5 MUL ADD PUSH1 0x1 ADD SLOAD PUSH0 DUP4 DUP2 SLOAD DUP2 LT PUSH2 0x13F2 JUMPI PUSH2 0x13F1 PUSH2 0x1CEB JUMP JUMPDEST JUMPDEST SWAP1 PUSH0 MSTORE PUSH1 0x20 PUSH0 KECCAK256 SWAP1 PUSH1 0x5 MUL ADD PUSH1 0x2 ADD SLOAD PUSH0 DUP5 DUP2 SLOAD DUP2 LT PUSH2 0x1415 JUMPI PUSH2 0x1414 PUSH2 0x1CEB JUMP JUMPDEST JUMPDEST SWAP1 PUSH0 MSTORE PUSH1 0x20 PUSH0 KECCAK256 SWAP1 PUSH1 0x5 MUL ADD PUSH1 0x3 ADD PUSH0 DUP6 DUP2 SLOAD DUP2 LT PUSH2 0x1437 JUMPI PUSH2 0x1436 PUSH2 0x1CEB JUMP JUMPDEST JUMPDEST SWAP1 PUSH0 MSTORE PUSH1 0x20 PUSH0 KECCAK256 SWAP1 PUSH1 0x5 MUL ADD PUSH1 0x4 ADD DUP5 DUP1 SLOAD PUSH2 0x1452 SWAP1 PUSH2 0x1C5B JUMP JUMPDEST DUP1 PUSH1 0x1F ADD PUSH1 0x20 DUP1 SWAP2 DIV MUL PUSH1 0x20 ADD PUSH1 0x40 MLOAD SWAP1 DUP2 ADD PUSH1 0x40 MSTORE DUP1 SWAP3 SWAP2 SWAP1 DUP2 DUP2 MSTORE PUSH1 0x20 ADD DUP3 DUP1 SLOAD PUSH2 0x147E SWAP1 PUSH2 0x1C5B JUMP JUMPDEST DUP1 ISZERO PUSH2 0x14C9 JUMPI DUP1 PUSH1 0x1F LT PUSH2 0x14A0 JUMPI PUSH2 0x100 DUP1 DUP4 SLOAD DIV MUL DUP4 MSTORE SWAP2 PUSH1 0x20 ADD SWAP2 PUSH2 0x14C9 JUMP JUMPDEST DUP3 ADD SWAP2 SWAP1 PUSH0 MSTORE PUSH1 0x20 PUSH0 KECCAK256 SWAP1 JUMPDEST DUP2 SLOAD DUP2 MSTORE SWAP1 PUSH1 0x1 ADD SWAP1 PUSH1 0x20 ADD DUP1 DUP4 GT PUSH2 0x14AC JUMPI DUP3 SWAP1 SUB PUSH1 0x1F AND DUP3 ADD SWAP2 JUMPDEST POP POP POP POP POP SWAP5 POP DUP2 DUP1 SLOAD PUSH2 0x14DC SWAP1 PUSH2 0x1C5B JUMP JUMPDEST DUP1 PUSH1 0x1F ADD PUSH1 0x20 DUP1 SWAP2 DIV MUL PUSH1 0x20 ADD PUSH1 0x40 MLOAD SWAP1 DUP2 ADD PUSH1 0x40 MSTORE DUP1 SWAP3 SWAP2 SWAP1 DUP2 DUP2 MSTORE PUSH1 0x20 ADD DUP3 DUP1 SLOAD PUSH2 0x1508 SWAP1 PUSH2 0x1C5B JUMP JUMPDEST DUP1 ISZERO PUSH2 0x1553 JUMPI DUP1 PUSH1 0x1F LT PUSH2 0x152A JUMPI PUSH2 0x100 DUP1 DUP4 SLOAD DIV MUL DUP4 MSTORE SWAP2 PUSH1 0x20 ADD SWAP2 PUSH2 0x1553 JUMP JUMPDEST DUP3 ADD SWAP2 SWAP1 PUSH0 MSTORE PUSH1 0x20 PUSH0 KECCAK256 SWAP1 JUMPDEST DUP2 SLOAD DUP2 MSTORE SWAP1 PUSH1 0x1 ADD SWAP1 PUSH1 0x20 ADD DUP1 DUP4 GT PUSH2 0x1536 JUMPI DUP3 SWAP1 SUB PUSH1 0x1F AND DUP3 ADD SWAP2 JUMPDEST POP POP POP POP POP SWAP2 POP DUP1 DUP1 SLOAD PUSH2 0x1566 SWAP1 PUSH2 0x1C5B JUMP JUMPDEST DUP1 PUSH1 0x1F ADD PUSH1 0x20 DUP1 SWAP2 DIV MUL PUSH1 0x20 ADD PUSH1 0x40 MLOAD SWAP1 DUP2 ADD PUSH1 0x40 MSTORE DUP1 SWAP3 SWAP2 SWAP1 DUP2 DUP2 MSTORE PUSH1 0x20 ADD DUP3 DUP1 SLOAD PUSH2 0x1592 SWAP1 PUSH2 0x1C5B JUMP JUMPDEST DUP1 ISZERO PUSH2 0x15DD JUMPI DUP1 PUSH1 0x1F LT PUSH2 0x15B4 JUMPI PUSH2 0x100 DUP1 DUP4 SLOAD DIV MUL DUP4 MSTORE SWAP2 PUSH1 0x20 ADD SWAP2 PUSH2 0x15DD JUMP JUMPDEST DUP3 ADD SWAP2 SWAP1 PUSH0 MSTORE PUSH1 0x20 PUSH0 KECCAK256 SWAP1 JUMPDEST DUP2 SLOAD DUP2 MSTORE SWAP1 PUSH1 0x1 ADD SWAP1 PUSH1 0x20 ADD DUP1 DUP4 GT PUSH2 0x15C0 JUMPI DUP3 SWAP1 SUB PUSH1 0x1F AND DUP3 ADD SWAP2 JUMPDEST POP POP POP POP POP SWAP1 POP SWAP6 POP SWAP6 POP SWAP6 POP SWAP6 POP SWAP6 POP POP PUSH2 0x163D JUMP JUMPDEST DUP1 DUP1 PUSH1 0x1 ADD SWAP2 POP POP PUSH2 0x134C JUMP JUMPDEST POP PUSH1 0x40 MLOAD PUSH32 0x8C379A000000000000000000000000000000000000000000000000000000000 DUP2 MSTORE PUSH1 0x4 ADD PUSH2 0x1634 SWAP1 PUSH2 0x1E47 JUMP JUMPDEST PUSH1 0x40 MLOAD DUP1 SWAP2 SUB SWAP1 REVERT JUMPDEST SWAP2 SWAP4 SWAP6 SWAP1 SWAP3 SWAP5 POP JUMP JUMPDEST PUSH0 DUP1 DUP1 SLOAD SWAP1 POP SWAP1 POP SWAP1 JUMP JUMPDEST PUSH1 0x40 MLOAD DUP1 PUSH1 0xA0 ADD PUSH1 0x40 MSTORE DUP1 PUSH1 0x60 DUP2 MSTORE PUSH1 0x20 ADD PUSH0 DUP2 MSTORE PUSH1 0x20 ADD PUSH0 DUP2 MSTORE PUSH1 0x20 ADD PUSH1 0x60 DUP2 MSTORE PUSH1 0x20 ADD PUSH1 0x60 DUP2 MSTORE POP SWAP1 JUMP JUMPDEST PUSH0 PUSH1 0x40 MLOAD SWAP1 POP SWAP1 JUMP JUMPDEST PUSH0 DUP1 REVERT JUMPDEST PUSH0 DUP1 REVERT JUMPDEST PUSH0 DUP2 SWAP1 POP SWAP2 SWAP1 POP JUMP JUMPDEST PUSH2 0x16A1 DUP2 PUSH2 0x168F JUMP JUMPDEST DUP2 EQ PUSH2 0x16AB JUMPI PUSH0 DUP1 REVERT JUMPDEST POP JUMP JUMPDEST PUSH0 DUP2 CALLDATALOAD SWAP1 POP PUSH2 0x16BC DUP2 PUSH2 0x1698 JUMP JUMPDEST SWAP3 SWAP2 POP POP JUMP JUMPDEST PUSH0 PUSH1 0x20 DUP3 DUP5 SUB SLT ISZERO PUSH2 0x16D7 JUMPI PUSH2 0x16D6 PUSH2 0x1687 JUMP JUMPDEST JUMPDEST PUSH0 PUSH2 0x16E4 DUP5 DUP3 DUP6 ADD PUSH2 0x16AE JUMP JUMPDEST SWAP2 POP POP SWAP3 SWAP2 POP POP JUMP JUMPDEST PUSH0 DUP2 MLOAD SWAP1 POP SWAP2 SWAP1 POP JUMP JUMPDEST PUSH0 DUP3 DUP3 MSTORE PUSH1 0x20 DUP3 ADD SWAP1 POP SWAP3 SWAP2 POP POP JUMP JUMPDEST DUP3 DUP2 DUP4 MCOPY PUSH0 DUP4 DUP4 ADD MSTORE POP POP POP JUMP JUMPDEST PUSH0 PUSH1 0x1F NOT PUSH1 0x1F DUP4 ADD AND SWAP1 POP SWAP2 SWAP1 POP JUMP JUMPDEST PUSH0 PUSH2 0x172F DUP3 PUSH2 0x16ED JUMP JUMPDEST PUSH2 0x1739 DUP2 DUP6 PUSH2 0x16F7 JUMP JUMPDEST SWAP4 POP PUSH2 0x1749 DUP2 DUP6 PUSH1 0x20 DUP7 ADD PUSH2 0x1707 JUMP JUMPDEST PUSH2 0x1752 DUP2 PUSH2 0x1715 JUMP JUMPDEST DUP5 ADD SWAP2 POP POP SWAP3 SWAP2 POP POP JUMP JUMPDEST PUSH2 0x1766 DUP2 PUSH2 0x168F JUMP JUMPDEST DUP3 MSTORE POP POP JUMP JUMPDEST PUSH0 PUSH1 0xA0 DUP3 ADD SWAP1 POP DUP2 DUP2 SUB PUSH0 DUP4 ADD MSTORE PUSH2 0x1784 DUP2 DUP9 PUSH2 0x1725 JUMP JUMPDEST SWAP1 POP PUSH2 0x1793 PUSH1 0x20 DUP4 ADD DUP8 PUSH2 0x175D JUMP JUMPDEST PUSH2 0x17A0 PUSH1 0x40 DUP4 ADD DUP7 PUSH2 0x175D JUMP JUMPDEST DUP2 DUP2 SUB PUSH1 0x60 DUP4 ADD MSTORE PUSH2 0x17B2 DUP2 DUP6 PUSH2 0x1725 JUMP JUMPDEST SWAP1 POP DUP2 DUP2 SUB PUSH1 0x80 DUP4 ADD MSTORE PUSH2 0x17C6 DUP2 DUP5 PUSH2 0x1725 JUMP JUMPDEST SWAP1 POP SWAP7 SWAP6 POP POP POP POP POP POP JUMP JUMPDEST PUSH0 PUSH1 0x20 DUP3 ADD SWAP1 POP DUP2 DUP2 SUB PUSH0 DUP4 ADD MSTORE PUSH2 0x17EA DUP2 DUP5 PUSH2 0x1725 JUMP JUMPDEST SWAP1 POP SWAP3 SWAP2 POP POP JUMP JUMPDEST PUSH0 DUP2 MLOAD SWAP1 POP SWAP2 SWAP1 POP JUMP JUMPDEST PUSH0 DUP3 DUP3 MSTORE PUSH1 0x20 DUP3 ADD SWAP1 POP SWAP3 SWAP2 POP POP JUMP JUMPDEST PUSH0 DUP2 SWAP1 POP PUSH1 0x20 DUP3 ADD SWAP1 POP SWAP2 SWAP1 POP JUMP JUMPDEST PUSH0 DUP3 DUP3 MSTORE PUSH1 0x20 DUP3 ADD SWAP1 POP SWAP3 SWAP2 POP POP JUMP JUMPDEST PUSH0 PUSH2 0x1835 DUP3 PUSH2 0x16ED JUMP JUMPDEST PUSH2 0x183F DUP2 DUP6 PUSH2 0x181B JUMP JUMPDEST SWAP4 POP PUSH2 0x184F DUP2 DUP6 PUSH1 0x20 DUP7 ADD PUSH2 0x1707 JUMP JUMPDEST PUSH2 0x1858 DUP2 PUSH2 0x1715 JUMP JUMPDEST DUP5 ADD SWAP2 POP POP SWAP3 SWAP2 POP POP JUMP JUMPDEST PUSH2 0x186C DUP2 PUSH2 0x168F JUMP JUMPDEST DUP3 MSTORE POP POP JUMP JUMPDEST PUSH0 PUSH1 0xA0 DUP4 ADD PUSH0 DUP4 ADD MLOAD DUP5 DUP3 SUB PUSH0 DUP7 ADD MSTORE PUSH2 0x188C DUP3 DUP3 PUSH2 0x182B JUMP JUMPDEST SWAP2 POP POP PUSH1 0x20 DUP4 ADD MLOAD PUSH2 0x18A1 PUSH1 0x20 DUP7 ADD DUP3 PUSH2 0x1863 JUMP JUMPDEST POP PUSH1 0x40 DUP4 ADD MLOAD PUSH2 0x18B4 PUSH1 0x40 DUP7 ADD DUP3 PUSH2 0x1863 JUMP JUMPDEST POP PUSH1 0x60 DUP4 ADD MLOAD DUP5 DUP3 SUB PUSH1 0x60 DUP7 ADD MSTORE PUSH2 0x18CC DUP3 DUP3 PUSH2 0x182B JUMP JUMPDEST SWAP2 POP POP PUSH1 0x80 DUP4 ADD MLOAD DUP5 DUP3 SUB PUSH1 0x80 DUP7 ADD MSTORE PUSH2 0x18E6 DUP3 DUP3 PUSH2 0x182B JUMP JUMPDEST SWAP2 POP POP DUP1 SWAP2 POP POP SWAP3 SWAP2 POP POP JUMP JUMPDEST PUSH0 PUSH2 0x18FE DUP4 DUP4 PUSH2 0x1872 JUMP JUMPDEST SWAP1 POP SWAP3 SWAP2 POP POP JUMP JUMPDEST PUSH0 PUSH1 0x20 DUP3 ADD SWAP1 POP SWAP2 SWAP1 POP JUMP JUMPDEST PUSH0 PUSH2 0x191C DUP3 PUSH2 0x17F2 JUMP JUMPDEST PUSH2 0x1926 DUP2 DUP6 PUSH2 0x17FC JUMP JUMPDEST SWAP4 POP DUP4 PUSH1 0x20 DUP3 MUL DUP6 ADD PUSH2 0x1938 DUP6 PUSH2 0x180C JUMP JUMPDEST DUP1 PUSH0 JUMPDEST DUP6 DUP2 LT ISZERO PUSH2 0x1973 JUMPI DUP5 DUP5 SUB DUP10 MSTORE DUP2 MLOAD PUSH2 0x1954 DUP6 DUP3 PUSH2 0x18F3 JUMP JUMPDEST SWAP5 POP PUSH2 0x195F DUP4 PUSH2 0x1906 JUMP JUMPDEST SWAP3 POP PUSH1 0x20 DUP11 ADD SWAP10 POP POP PUSH1 0x1 DUP2 ADD SWAP1 POP PUSH2 0x193B JUMP JUMPDEST POP DUP3 SWAP8 POP DUP8 SWAP6 POP POP POP POP POP POP SWAP3 SWAP2 POP POP JUMP JUMPDEST PUSH0 PUSH1 0x20 DUP3 ADD SWAP1 POP DUP2 DUP2 SUB PUSH0 DUP4 ADD MSTORE PUSH2 0x199D DUP2 DUP5 PUSH2 0x1912 JUMP JUMPDEST SWAP1 POP SWAP3 SWAP2 POP POP JUMP JUMPDEST PUSH0 DUP1 REVERT JUMPDEST PUSH0 DUP1 REVERT JUMPDEST PUSH32 0x4E487B7100000000000000000000000000000000000000000000000000000000 PUSH0 MSTORE PUSH1 0x41 PUSH1 0x4 MSTORE PUSH1 0x24 PUSH0 REVERT JUMPDEST PUSH2 0x19E3 DUP3 PUSH2 0x1715 JUMP JUMPDEST DUP2 ADD DUP2 DUP2 LT PUSH8 0xFFFFFFFFFFFFFFFF DUP3 GT OR ISZERO PUSH2 0x1A02 JUMPI PUSH2 0x1A01 PUSH2 0x19AD JUMP JUMPDEST JUMPDEST DUP1 PUSH1 0x40 MSTORE POP POP POP JUMP JUMPDEST PUSH0 PUSH2 0x1A14 PUSH2 0x167E JUMP JUMPDEST SWAP1 POP PUSH2 0x1A20 DUP3 DUP3 PUSH2 0x19DA JUMP JUMPDEST SWAP2 SWAP1 POP JUMP JUMPDEST PUSH0 PUSH8 0xFFFFFFFFFFFFFFFF DUP3 GT ISZERO PUSH2 0x1A3F JUMPI PUSH2 0x1A3E PUSH2 0x19AD JUMP JUMPDEST JUMPDEST PUSH2 0x1A48 DUP3 PUSH2 0x1715 JUMP JUMPDEST SWAP1 POP PUSH1 0x20 DUP2 ADD SWAP1 POP SWAP2 SWAP1 POP JUMP JUMPDEST DUP3 DUP2 DUP4 CALLDATACOPY PUSH0 DUP4 DUP4 ADD MSTORE POP POP POP JUMP JUMPDEST PUSH0 PUSH2 0x1A75 PUSH2 0x1A70 DUP5 PUSH2 0x1A25 JUMP JUMPDEST PUSH2 0x1A0B JUMP JUMPDEST SWAP1 POP DUP3 DUP2 MSTORE PUSH1 0x20 DUP2 ADD DUP5 DUP5 DUP5 ADD GT ISZERO PUSH2 0x1A91 JUMPI PUSH2 0x1A90 PUSH2 0x19A9 JUMP JUMPDEST JUMPDEST PUSH2 0x1A9C DUP5 DUP3 DUP6 PUSH2 0x1A55 JUMP JUMPDEST POP SWAP4 SWAP3 POP POP POP JUMP JUMPDEST PUSH0 DUP3 PUSH1 0x1F DUP4 ADD SLT PUSH2 0x1AB8 JUMPI PUSH2 0x1AB7 PUSH2 0x19A5 JUMP JUMPDEST JUMPDEST DUP2 CALLDATALOAD PUSH2 0x1AC8 DUP5 DUP3 PUSH1 0x20 DUP7 ADD PUSH2 0x1A63 JUMP JUMPDEST SWAP2 POP POP SWAP3 SWAP2 POP POP JUMP JUMPDEST PUSH0 PUSH1 0x20 DUP3 DUP5 SUB SLT ISZERO PUSH2 0x1AE6 JUMPI PUSH2 0x1AE5 PUSH2 0x1687 JUMP JUMPDEST JUMPDEST PUSH0 DUP3 ADD CALLDATALOAD PUSH8 0xFFFFFFFFFFFFFFFF DUP2 GT ISZERO PUSH2 0x1B03 JUMPI PUSH2 0x1B02 PUSH2 0x168B JUMP JUMPDEST JUMPDEST PUSH2 0x1B0F DUP5 DUP3 DUP6 ADD PUSH2 0x1AA4 JUMP JUMPDEST SWAP2 POP POP SWAP3 SWAP2 POP POP JUMP JUMPDEST PUSH0 PUSH1 0x20 DUP3 ADD SWAP1 POP PUSH2 0x1B2B PUSH0 DUP4 ADD DUP5 PUSH2 0x175D JUMP JUMPDEST SWAP3 SWAP2 POP POP JUMP JUMPDEST PUSH0 PUSH1 0x40 DUP3 ADD SWAP1 POP PUSH2 0x1B44 PUSH0 DUP4 ADD DUP6 PUSH2 0x175D JUMP JUMPDEST DUP2 DUP2 SUB PUSH1 0x20 DUP4 ADD MSTORE PUSH2 0x1B56 DUP2 DUP5 PUSH2 0x1912 JUMP JUMPDEST SWAP1 POP SWAP4 SWAP3 POP POP POP JUMP JUMPDEST PUSH0 DUP1 PUSH0 DUP1 PUSH1 0x80 DUP6 DUP8 SUB SLT ISZERO PUSH2 0x1B77 JUMPI PUSH2 0x1B76 PUSH2 0x1687 JUMP JUMPDEST JUMPDEST PUSH0 DUP6 ADD CALLDATALOAD PUSH8 0xFFFFFFFFFFFFFFFF DUP2 GT ISZERO PUSH2 0x1B94 JUMPI PUSH2 0x1B93 PUSH2 0x168B JUMP JUMPDEST JUMPDEST PUSH2 0x1BA0 DUP8 DUP3 DUP9 ADD PUSH2 0x1AA4 JUMP JUMPDEST SWAP5 POP POP PUSH1 0x20 PUSH2 0x1BB1 DUP8 DUP3 DUP9 ADD PUSH2 0x16AE JUMP JUMPDEST SWAP4 POP POP PUSH1 0x40 PUSH2 0x1BC2 DUP8 DUP3 DUP9 ADD PUSH2 0x16AE JUMP JUMPDEST SWAP3 POP POP PUSH1 0x60 DUP6 ADD CALLDATALOAD PUSH8 0xFFFFFFFFFFFFFFFF DUP2 GT ISZERO PUSH2 0x1BE3 JUMPI PUSH2 0x1BE2 PUSH2 0x168B JUMP JUMPDEST JUMPDEST PUSH2 0x1BEF DUP8 DUP3 DUP9 ADD PUSH2 0x1AA4 JUMP JUMPDEST SWAP2 POP POP SWAP3 SWAP6 SWAP2 SWAP5 POP SWAP3 POP JUMP JUMPDEST PUSH0 DUP2 ISZERO ISZERO SWAP1 POP SWAP2 SWAP1 POP JUMP JUMPDEST PUSH2 0x1C0F DUP2 PUSH2 0x1BFB JUMP JUMPDEST DUP3 MSTORE POP POP JUMP JUMPDEST PUSH0 PUSH1 0x20 DUP3 ADD SWAP1 POP PUSH2 0x1C28 PUSH0 DUP4 ADD DUP5 PUSH2 0x1C06 JUMP JUMPDEST SWAP3 SWAP2 POP POP JUMP JUMPDEST PUSH32 0x4E487B7100000000000000000000000000000000000000000000000000000000 PUSH0 MSTORE PUSH1 0x22 PUSH1 0x4 MSTORE PUSH1 0x24 PUSH0 REVERT JUMPDEST PUSH0 PUSH1 0x2 DUP3 DIV SWAP1 POP PUSH1 0x1 DUP3 AND DUP1 PUSH2 0x1C72 JUMPI PUSH1 0x7F DUP3 AND SWAP2 POP JUMPDEST PUSH1 0x20 DUP3 LT DUP2 SUB PUSH2 0x1C85 JUMPI PUSH2 0x1C84 PUSH2 0x1C2E JUMP JUMPDEST JUMPDEST POP SWAP2 SWAP1 POP JUMP JUMPDEST PUSH32 0x4E487B7100000000000000000000000000000000000000000000000000000000 PUSH0 MSTORE PUSH1 0x11 PUSH1 0x4 MSTORE PUSH1 0x24 PUSH0 REVERT JUMPDEST PUSH0 PUSH2 0x1CC2 DUP3 PUSH2 0x168F JUMP JUMPDEST SWAP2 POP PUSH2 0x1CCD DUP4 PUSH2 0x168F JUMP JUMPDEST SWAP3 POP DUP3 DUP3 ADD SWAP1 POP DUP1 DUP3 GT ISZERO PUSH2 0x1CE5 JUMPI PUSH2 0x1CE4 PUSH2 0x1C8B JUMP JUMPDEST JUMPDEST SWAP3 SWAP2 POP POP JUMP JUMPDEST PUSH32 0x4E487B7100000000000000000000000000000000000000000000000000000000 PUSH0 MSTORE PUSH1 0x32 PUSH1 0x4 MSTORE PUSH1 0x24 PUSH0 REVERT JUMPDEST PUSH0 PUSH2 0x1D22 DUP3 PUSH2 0x168F JUMP JUMPDEST SWAP2 POP PUSH2 0x1D2D DUP4 PUSH2 0x168F JUMP JUMPDEST SWAP3 POP DUP3 DUP3 SUB SWAP1 POP DUP2 DUP2 GT ISZERO PUSH2 0x1D45 JUMPI PUSH2 0x1D44 PUSH2 0x1C8B JUMP JUMPDEST JUMPDEST SWAP3 SWAP2 POP POP JUMP JUMPDEST PUSH0 DUP2 SWAP1 POP SWAP3 SWAP2 POP POP JUMP JUMPDEST PUSH0 DUP2 SWAP1 POP DUP2 PUSH0 MSTORE PUSH1 0x20 PUSH0 KECCAK256 SWAP1 POP SWAP2 SWAP1 POP JUMP JUMPDEST PUSH0 DUP2 SLOAD PUSH2 0x1D73 DUP2 PUSH2 0x1C5B JUMP JUMPDEST PUSH2 0x1D7D DUP2 DUP7 PUSH2 0x1D4B JUMP JUMPDEST SWAP5 POP PUSH1 0x1 DUP3 AND PUSH0 DUP2 EQ PUSH2 0x1D97 JUMPI PUSH1 0x1 DUP2 EQ PUSH2 0x1DAC JUMPI PUSH2 0x1DDE JUMP JUMPDEST PUSH1 0xFF NOT DUP4 AND DUP7 MSTORE DUP2 ISZERO ISZERO DUP3 MUL DUP7 ADD SWAP4 POP PUSH2 0x1DDE JUMP JUMPDEST PUSH2 0x1DB5 DUP6 PUSH2 0x1D55 JUMP JUMPDEST PUSH0 JUMPDEST DUP4 DUP2 LT ISZERO PUSH2 0x1DD6 JUMPI DUP2 SLOAD DUP2 DUP10 ADD MSTORE PUSH1 0x1 DUP3 ADD SWAP2 POP PUSH1 0x20 DUP2 ADD SWAP1 POP PUSH2 0x1DB7 JUMP JUMPDEST DUP4 DUP9 ADD SWAP6 POP POP POP JUMPDEST POP POP POP SWAP3 SWAP2 POP POP JUMP JUMPDEST PUSH0 PUSH2 0x1DF2 DUP3 DUP5 PUSH2 0x1D67 JUMP JUMPDEST SWAP2 POP DUP2 SWAP1 POP SWAP3 SWAP2 POP POP JUMP JUMPDEST PUSH32 0x53747564656E74206E6F7420666F756E64000000000000000000000000000000 PUSH0 DUP3 ADD MSTORE POP JUMP JUMPDEST PUSH0 PUSH2 0x1E31 PUSH1 0x11 DUP4 PUSH2 0x16F7 JUMP JUMPDEST SWAP2 POP PUSH2 0x1E3C DUP3 PUSH2 0x1DFD JUMP JUMPDEST PUSH1 0x20 DUP3 ADD SWAP1 POP SWAP2 SWAP1 POP JUMP JUMPDEST PUSH0 PUSH1 0x20 DUP3 ADD SWAP1 POP DUP2 DUP2 SUB PUSH0 DUP4 ADD MSTORE PUSH2 0x1E5E DUP2 PUSH2 0x1E25 JUMP JUMPDEST SWAP1 POP SWAP2 SWAP1 POP JUMP JUMPDEST PUSH32 0x4E487B7100000000000000000000000000000000000000000000000000000000 PUSH0 MSTORE PUSH1 0x12 PUSH1 0x4 MSTORE PUSH1 0x24 PUSH0 REVERT JUMPDEST PUSH0 PUSH2 0x1E9C DUP3 PUSH2 0x168F JUMP JUMPDEST SWAP2 POP PUSH2 0x1EA7 DUP4 PUSH2 0x168F JUMP JUMPDEST SWAP3 POP DUP3 PUSH2 0x1EB7 JUMPI PUSH2 0x1EB6 PUSH2 0x1E65 JUMP JUMPDEST JUMPDEST DUP3 DUP3 DIV SWAP1 POP SWAP3 SWAP2 POP POP JUMP JUMPDEST PUSH0 PUSH2 0x1ECC DUP3 PUSH2 0x168F JUMP JUMPDEST SWAP2 POP PUSH32 0xFFFFFFFFFFFFFFFFFFFFFFFFFFFFFFFFFFFFFFFFFFFFFFFFFFFFFFFFFFFFFFFF DUP3 SUB PUSH2 0x1EFE JUMPI PUSH2 0x1EFD PUSH2 0x1C8B JUMP JUMPDEST JUMPDEST PUSH1 0x1 DUP3 ADD SWAP1 POP SWAP2 SWAP1 POP JUMP JUMPDEST PUSH0 DUP2 SWAP1 POP DUP2 PUSH0 MSTORE PUSH1 0x20 PUSH0 KECCAK256 SWAP1 POP SWAP2 SWAP1 POP JUMP JUMPDEST PUSH0 PUSH1 0x20 PUSH1 0x1F DUP4 ADD DIV SWAP1 POP SWAP2 SWAP1 POP JUMP JUMPDEST PUSH0 DUP3 DUP3 SHL SWAP1 POP SWAP3 SWAP2 POP POP JUMP JUMPDEST PUSH0 PUSH1 0x8 DUP4 MUL PUSH2 0x1F65 PUSH32 0xFFFFFFFFFFFFFFFFFFFFFFFFFFFFFFFFFFFFFFFFFFFFFFFFFFFFFFFFFFFFFFFF DUP3 PUSH2 0x1F2A JUMP JUMPDEST PUSH2 0x1F6F DUP7 DUP4 PUSH2 0x1F2A JUMP JUMPDEST SWAP6 POP DUP1 NOT DUP5 AND SWAP4 POP DUP1 DUP7 AND DUP5 OR SWAP3 POP POP POP SWAP4 SWAP3 POP POP POP JUMP JUMPDEST PUSH0 DUP2 SWAP1 POP SWAP2 SWAP1 POP JUMP JUMPDEST PUSH0 PUSH2 0x1FAA PUSH2 0x1FA5 PUSH2 0x1FA0 DUP5 PUSH2 0x168F JUMP JUMPDEST PUSH2 0x1F87 JUMP JUMPDEST PUSH2 0x168F JUMP JUMPDEST SWAP1 POP SWAP2 SWAP1 POP JUMP JUMPDEST PUSH0 DUP2 SWAP1 POP SWAP2 SWAP1 POP JUMP JUMPDEST PUSH2 0x1FC3 DUP4 PUSH2 0x1F90 JUMP JUMPDEST PUSH2 0x1FD7 PUSH2 0x1FCF DUP3 PUSH2 0x1FB1 JUMP JUMPDEST DUP5 DUP5 SLOAD PUSH2 0x1F36 JUMP JUMPDEST DUP3 SSTORE POP POP POP POP JUMP JUMPDEST PUSH0 SWAP1 JUMP JUMPDEST PUSH2 0x1FEB PUSH2 0x1FDF JUMP JUMPDEST PUSH2 0x1FF6 DUP2 DUP5 DUP5 PUSH2 0x1FBA JUMP JUMPDEST POP POP POP JUMP JUMPDEST JUMPDEST DUP2 DUP2 LT ISZERO PUSH2 0x2019 JUMPI PUSH2 0x200E PUSH0 DUP3 PUSH2 0x1FE3 JUMP JUMPDEST PUSH1 0x1 DUP2 ADD SWAP1 POP PUSH2 0x1FFC JUMP JUMPDEST POP POP JUMP JUMPDEST PUSH1 0x1F DUP3 GT ISZERO PUSH2 0x205E JUMPI PUSH2 0x202F DUP2 PUSH2 0x1F09 JUMP JUMPDEST PUSH2 0x2038 DUP5 PUSH2 0x1F1B JUMP JUMPDEST DUP2 ADD PUSH1 0x20 DUP6 LT ISZERO PUSH2 0x2047 JUMPI DUP2 SWAP1 POP JUMPDEST PUSH2 0x205B PUSH2 0x2053 DUP6 PUSH2 0x1F1B JUMP JUMPDEST DUP4 ADD DUP3 PUSH2 0x1FFB JUMP JUMPDEST POP POP JUMPDEST POP POP POP JUMP JUMPDEST PUSH0 DUP3 DUP3 SHR SWAP1 POP SWAP3 SWAP2 POP POP JUMP JUMPDEST PUSH0 PUSH2 0x207E PUSH0 NOT DUP5 PUSH1 0x8 MUL PUSH2 0x2063 JUMP JUMPDEST NOT DUP1 DUP4 AND SWAP2 POP POP SWAP3 SWAP2 POP POP JUMP JUMPDEST PUSH0 PUSH2 0x2096 DUP4 DUP4 PUSH2 0x206F JUMP JUMPDEST SWAP2 POP DUP3 PUSH1 0x2 MUL DUP3 OR SWAP1 POP SWAP3 SWAP2 POP POP JUMP JUMPDEST PUSH2 0x20AF DUP3 PUSH2 0x16ED JUMP JUMPDEST PUSH8 0xFFFFFFFFFFFFFFFF DUP2 GT ISZERO PUSH2 0x20C8 JUMPI PUSH2 0x20C7 PUSH2 0x19AD JUMP JUMPDEST JUMPDEST PUSH2 0x20D2 DUP3 SLOAD PUSH2 0x1C5B JUMP JUMPDEST PUSH2 0x20DD DUP3 DUP3 DUP6 PUSH2 0x201D JUMP JUMPDEST PUSH0 PUSH1 0x20 SWAP1 POP PUSH1 0x1F DUP4 GT PUSH1 0x1 DUP2 EQ PUSH2 0x210E JUMPI PUSH0 DUP5 ISZERO PUSH2 0x20FC JUMPI DUP3 DUP8 ADD MLOAD SWAP1 POP JUMPDEST PUSH2 0x2106 DUP6 DUP3 PUSH2 0x208B JUMP JUMPDEST DUP7 SSTORE POP PUSH2 0x216D JUMP JUMPDEST PUSH1 0x1F NOT DUP5 AND PUSH2 0x211C DUP7 PUSH2 0x1F09 JUMP JUMPDEST PUSH0 JUMPDEST DUP3 DUP2 LT ISZERO PUSH2 0x2143 JUMPI DUP5 DUP10 ADD MLOAD DUP3 SSTORE PUSH1 0x1 DUP3 ADD SWAP2 POP PUSH1 0x20 DUP6 ADD SWAP5 POP PUSH1 0x20 DUP2 ADD SWAP1 POP PUSH2 0x211E JUMP JUMPDEST DUP7 DUP4 LT ISZERO PUSH2 0x2160 JUMPI DUP5 DUP10 ADD MLOAD PUSH2 0x215C PUSH1 0x1F DUP10 AND DUP3 PUSH2 0x206F JUMP JUMPDEST DUP4 SSTORE POP JUMPDEST PUSH1 0x1 PUSH1 0x2 DUP9 MUL ADD DUP9 SSTORE POP POP POP JUMPDEST POP POP POP POP POP POP JUMP INVALID LOG2 PUSH5 0x6970667358 0x22 SLT KECCAK256 JUMPDEST 0xD1 GT 0xCF STOP PUSH13 0x6A0ECA999B0BEA4E36CED2C64E 0x23 0xD8 DELEGATECALL 0xBF SWAP6 SWAP3 PUSH27 0x3882FD2D6AA864736F6C634300081A003300000000000000000000 "
				},
				"gasEstimates": {
					"creation": {
						"codeDepositCost": "1723800",
						"executionCost": "1811",
						"totalCost": "1725611"
					},
					"external": {
						"QualifiedTeacher()": "infinite",
						"addStudent(string,uint256,uint256,string)": "infinite",
						"calculateAverage()": "infinite",
						"calculateGrade(uint256)": "infinite",
						"getAllStudents()": "infinite",
						"getFStudents()": "infinite",
						"getNumberStudents()": "2550",
						"getScoreName(string)": "infinite",
						"getStudentName(string)": "infinite",
						"getStudentNumber(uint256)": "infinite",
						"sClass()": "infinite",
						"students(uint256)": "infinite"
					}
				},
				"methodIdentifiers": {
					"QualifiedTeacher()": "c06a93d3",
					"addStudent(string,uint256,uint256,string)": "9ae52f0f",
					"calculateAverage()": "86be4114",
					"calculateGrade(uint256)": "3bf1a7d1",
					"getAllStudents()": "e9e30927",
					"getFStudents()": "98463c74",
					"getNumberStudents()": "fc9b4099",
					"getScoreName(string)": "7676688b",
					"getStudentName(string)": "f317d020",
					"getStudentNumber(uint256)": "6191f364",
					"sClass()": "4007924b",
					"students(uint256)": "06ead22e"
				}
			},
			"storageLayout": {
				"storage": [
					{
						"astId": 16,
						"contract": "cordingtest/cordingtest1.sol:Test1",
						"label": "students",
						"offset": 0,
						"slot": "0",
						"type": "t_array(t_struct(Student)12_storage)dyn_storage"
					}
				],
				"types": {
					"t_array(t_struct(Student)12_storage)dyn_storage": {
						"base": "t_struct(Student)12_storage",
						"encoding": "dynamic_array",
						"label": "struct Test1.Student[]",
						"numberOfBytes": "32"
					},
					"t_string_storage": {
						"encoding": "bytes",
						"label": "string",
						"numberOfBytes": "32"
					},
					"t_struct(Student)12_storage": {
						"encoding": "inplace",
						"label": "struct Test1.Student",
						"members": [
							{
								"astId": 3,
								"contract": "cordingtest/cordingtest1.sol:Test1",
								"label": "name",
								"offset": 0,
								"slot": "0",
								"type": "t_string_storage"
							},
							{
								"astId": 5,
								"contract": "cordingtest/cordingtest1.sol:Test1",
								"label": "number",
								"offset": 0,
								"slot": "1",
								"type": "t_uint256"
							},
							{
								"astId": 7,
								"contract": "cordingtest/cordingtest1.sol:Test1",
								"label": "score",
								"offset": 0,
								"slot": "2",
								"type": "t_uint256"
							},
							{
								"astId": 9,
								"contract": "cordingtest/cordingtest1.sol:Test1",
								"label": "grade",
								"offset": 0,
								"slot": "3",
								"type": "t_string_storage"
							},
							{
								"astId": 11,
								"contract": "cordingtest/cordingtest1.sol:Test1",
								"label": "class",
								"offset": 0,
								"slot": "4",
								"type": "t_string_storage"
							}
						],
						"numberOfBytes": "160"
					},
					"t_uint256": {
						"encoding": "inplace",
						"label": "uint256",
						"numberOfBytes": "32"
					}
				}
			},
			"userdoc": {
				"kind": "user",
				"methods": {},
				"version": 1
			}
		}
	}
}