{
	"cordingtest/cordingtest2.sol": {
		"Test1": {
			"abi": [
				{
					"inputs": [],
					"name": "QualifiedTeacher",
					"outputs": [
						{
							"internalType": "bool",
							"name": "",
							"type": "bool"
						}
					],
					"stateMutability": "view",
					"type": "function"
				},
				{
					"inputs": [
						{
							"internalType": "string",
							"name": "_name",
							"type": "string"
						},
						{
							"internalType": "uint256",
							"name": "_number",
							"type": "uint256"
						},
						{
							"internalType": "uint256",
							"name": "_score",
							"type": "uint256"
						},
						{
							"internalType": "string",
							"name": "_class",
							"type": "string"
						}
					],
					"name": "addStudent",
					"outputs": [],
					"stateMutability": "nonpayable",
					"type": "function"
				},
				{
					"inputs": [],
					"name": "calculateAverage",
					"outputs": [
						{
							"internalType": "uint256",
							"name": "",
							"type": "uint256"
						}
					],
					"stateMutability": "view",
					"type": "function"
				},
				{
					"inputs": [
						{
							"internalType": "uint256",
							"name": "_score",
							"type": "uint256"
						}
					],
					"name": "calculateGrade",
					"outputs": [
						{
							"internalType": "string",
							"name": "",
							"type": "string"
						}
					],
					"stateMutability": "pure",
					"type": "function"
				},
				{
					"inputs": [],
					"name": "getAllStudents",
					"outputs": [
						{
							"components": [
								{
									"internalType": "string",
									"name": "name",
									"type": "string"
								},
								{
									"internalType": "uint256",
									"name": "number",
									"type": "uint256"
								},
								{
									"internalType": "uint256",
									"name": "score",
									"type": "uint256"
								},
								{
									"internalType": "string",
									"name": "grade",
									"type": "string"
								},
								{
									"internalType": "string",
									"name": "class",
									"type": "string"
								}
							],
							"internalType": "struct Test1.Student[]",
							"name": "",
							"type": "tuple[]"
						}
					],
					"stateMutability": "view",
					"type": "function"
				},
				{
					"inputs": [],
					"name": "getFStudents",
					"outputs": [
						{
							"internalType": "uint256",
							"name": "",
							"type": "uint256"
						},
						{
							"components": [
								{
									"internalType": "string",
									"name": "name",
									"type": "string"
								},
								{
									"internalType": "uint256",
									"name": "number",
									"type": "uint256"
								},
								{
									"internalType": "uint256",
									"name": "score",
									"type": "uint256"
								},
								{
									"internalType": "string",
									"name": "grade",
									"type": "string"
								},
								{
									"internalType": "string",
									"name": "class",
									"type": "string"
								}
							],
							"internalType": "struct Test1.Student[]",
							"name": "",
							"type": "tuple[]"
						}
					],
					"stateMutability": "view",
					"type": "function"
				},
				{
					"inputs": [],
					"name": "getNumberStudents",
					"outputs": [
						{
							"internalType": "uint256",
							"name": "",
							"type": "uint256"
						}
					],
					"stateMutability": "view",
					"type": "function"
				},
				{
					"inputs": [
						{
							"internalType": "string",
							"name": "_name",
							"type": "string"
						}
					],
					"name": "getScoreName",
					"outputs": [
						{
							"internalType": "uint256",
							"name": "",
							"type": "uint256"
						}
					],
					"stateMutability": "view",
					"type": "function"
				},
				{
					"inputs": [
						{
							"internalType": "string",
							"name": "_name",
							"type": "string"
						}
					],
					"name": "getStudentName",
					"outputs": [
						{
							"internalType": "string",
							"name": "",
							"type": "string"
						},
						{
							"internalType": "uint256",
							"name": "",
							"type": "uint256"
						},
						{
							"internalType": "uint256",
							"name": "",
							"type": "uint256"
						},
						{
							"internalType": "string",
							"name": "",
							"type": "string"
						},
						{
							"internalType": "string",
							"name": "",
							"type": "string"
						}
					],
					"stateMutability": "view",
					"type": "function"
				},
				{
					"inputs": [
						{
							"internalType": "uint256",
							"name": "_number",
							"type": "uint256"
						}
					],
					"name": "getStudentNumber",
					"outputs": [
						{
							"internalType": "string",
							"name": "",
							"type": "string"
						},
						{
							"internalType": "uint256",
							"name": "",
							"type": "uint256"
						},
						{
							"internalType": "uint256",
							"name": "",
							"type": "uint256"
						},
						{
							"internalType": "string",
							"name": "",
							"type": "string"
						},
						{
							"internalType": "string",
							"name": "",
							"type": "string"
						}
					],
					"stateMutability": "view",
					"type": "function"
				},
				{
					"inputs": [
						{
							"internalType": "uint256",
							"name": "",
							"type": "uint256"
						}
					],
					"name": "students",
					"outputs": [
						{
							"internalType": "string",
							"name": "name",
							"type": "string"
						},
						{
							"internalType": "uint256",
							"name": "number",
							"type": "uint256"
						},
						{
							"internalType": "uint256",
							"name": "score",
							"type": "uint256"
						},
						{
							"internalType": "string",
							"name": "grade",
							"type": "string"
						},
						{
							"internalType": "string",
							"name": "class",
							"type": "string"
						}
					],
					"stateMutability": "view",
					"type": "function"
				}
			],
			"devdoc": {
				"kind": "dev",
				"methods": {},
				"version": 1
			},
			"evm": {
				"assembly": "    /* \"cordingtest/cordingtest2.sol\":72:5083  contract Test1 {... */\n  mstore(0x40, 0x80)\n  callvalue\n  dup1\n  iszero\n  tag_1\n  jumpi\n  0x00\n  dup1\n  revert\ntag_1:\n  pop\n  dataSize(sub_0)\n  dup1\n  dataOffset(sub_0)\n  0x00\n  codecopy\n  0x00\n  return\nstop\n\nsub_0: assembly {\n        /* \"cordingtest/cordingtest2.sol\":72:5083  contract Test1 {... */\n      mstore(0x40, 0x80)\n      callvalue\n      dup1\n      iszero\n      tag_1\n      jumpi\n      0x00\n      dup1\n      revert\n    tag_1:\n      pop\n      jumpi(tag_2, lt(calldatasize, 0x04))\n      shr(0xe0, calldataload(0x00))\n      dup1\n      0x98463c74\n      gt\n      tag_14\n      jumpi\n      dup1\n      0x98463c74\n      eq\n      tag_8\n      jumpi\n      dup1\n      0x9ae52f0f\n      eq\n      tag_9\n      jumpi\n      dup1\n      0xc06a93d3\n      eq\n      tag_10\n      jumpi\n      dup1\n      0xe9e30927\n      eq\n      tag_11\n      jumpi\n      dup1\n      0xf317d020\n      eq\n      tag_12\n      jumpi\n      dup1\n      0xfc9b4099\n      eq\n      tag_13\n      jumpi\n      jump(tag_2)\n    tag_14:\n      dup1\n      0x06ead22e\n      eq\n      tag_3\n      jumpi\n      dup1\n      0x3bf1a7d1\n      eq\n      tag_4\n      jumpi\n      dup1\n      0x6191f364\n      eq\n      tag_5\n      jumpi\n      dup1\n      0x7676688b\n      eq\n      tag_6\n      jumpi\n      dup1\n      0x86be4114\n      eq\n      tag_7\n      jumpi\n    tag_2:\n      0x00\n      dup1\n      revert\n        /* \"cordingtest/cordingtest2.sol\":2043:2068  Student[] public students */\n    tag_3:\n      tag_15\n      0x04\n      dup1\n      calldatasize\n      sub\n      dup2\n      add\n      swap1\n      tag_16\n      swap2\n      swap1\n      tag_17\n      jump\t// in\n    tag_16:\n      tag_18\n      jump\t// in\n    tag_15:\n      mload(0x40)\n      tag_19\n      swap6\n      swap5\n      swap4\n      swap3\n      swap2\n      swap1\n      tag_20\n      jump\t// in\n    tag_19:\n      mload(0x40)\n      dup1\n      swap2\n      sub\n      swap1\n      return\n        /* \"cordingtest/cordingtest2.sol\":2075:2435  function calculateGrade(uint _score) public pure returns (string memory) {... */\n    tag_4:\n      tag_21\n      0x04\n      dup1\n      calldatasize\n      sub\n      dup2\n      add\n      swap1\n      tag_22\n      swap2\n      swap1\n      tag_17\n      jump\t// in\n    tag_22:\n      tag_23\n      jump\t// in\n    tag_21:\n      mload(0x40)\n      tag_24\n      swap2\n      swap1\n      tag_25\n      jump\t// in\n    tag_24:\n      mload(0x40)\n      dup1\n      swap2\n      sub\n      swap1\n      return\n        /* \"cordingtest/cordingtest2.sol\":2678:3032  function getStudentNumber(uint _number) public view returns (string memory, uint, uint, string memory, string memory) {... */\n    tag_5:\n      tag_26\n      0x04\n      dup1\n      calldatasize\n      sub\n      dup2\n      add\n      swap1\n      tag_27\n      swap2\n      swap1\n      tag_17\n      jump\t// in\n    tag_27:\n      tag_28\n      jump\t// in\n    tag_26:\n      mload(0x40)\n      tag_29\n      swap6\n      swap5\n      swap4\n      swap3\n      swap2\n      swap1\n      tag_20\n      jump\t// in\n    tag_29:\n      mload(0x40)\n      dup1\n      swap2\n      sub\n      swap1\n      return\n        /* \"cordingtest/cordingtest2.sol\":3489:3803  function getScoreName(string memory _name) public view returns (uint) {... */\n    tag_6:\n      tag_30\n      0x04\n      dup1\n      calldatasize\n      sub\n      dup2\n      add\n      swap1\n      tag_31\n      swap2\n      swap1\n      tag_32\n      jump\t// in\n    tag_31:\n      tag_33\n      jump\t// in\n    tag_30:\n      mload(0x40)\n      tag_34\n      swap2\n      swap1\n      tag_35\n      jump\t// in\n    tag_34:\n      mload(0x40)\n      dup1\n      swap2\n      sub\n      swap1\n      return\n        /* \"cordingtest/cordingtest2.sol\":4013:4310  function calculateAverage() public view returns (uint) {... */\n    tag_7:\n      tag_36\n      tag_37\n      jump\t// in\n    tag_36:\n      mload(0x40)\n      tag_38\n      swap2\n      swap1\n      tag_35\n      jump\t// in\n    tag_38:\n      mload(0x40)\n      dup1\n      swap2\n      sub\n      swap1\n      return\n        /* \"cordingtest/cordingtest2.sol\":4467:5081  function getFStudents() public view returns (uint, Student[] memory) {... */\n    tag_8:\n      tag_39\n      tag_40\n      jump\t// in\n    tag_39:\n      mload(0x40)\n      tag_41\n      swap3\n      swap2\n      swap1\n      tag_42\n      jump\t// in\n    tag_41:\n      mload(0x40)\n      dup1\n      swap2\n      sub\n      swap1\n      return\n        /* \"cordingtest/cordingtest2.sol\":2441:2672  function addStudent(string memory _name, uint _number, uint _score, string memory _class) public {... */\n    tag_9:\n      tag_43\n      0x04\n      dup1\n      calldatasize\n      sub\n      dup2\n      add\n      swap1\n      tag_44\n      swap2\n      swap1\n      tag_45\n      jump\t// in\n    tag_44:\n      tag_46\n      jump\t// in\n    tag_43:\n      stop\n        /* \"cordingtest/cordingtest2.sol\":4316:4461  function QualifiedTeacher() public view returns (bool) {... */\n    tag_10:\n      tag_47\n      tag_48\n      jump\t// in\n    tag_47:\n      mload(0x40)\n      tag_49\n      swap2\n      swap1\n      tag_50\n      jump\t// in\n    tag_49:\n      mload(0x40)\n      dup1\n      swap2\n      sub\n      swap1\n      return\n        /* \"cordingtest/cordingtest2.sol\":3910:4007  function getAllStudents() public view returns (Student[] memory) {... */\n    tag_11:\n      tag_51\n      tag_52\n      jump\t// in\n    tag_51:\n      mload(0x40)\n      tag_53\n      swap2\n      swap1\n      tag_54\n      jump\t// in\n    tag_53:\n      mload(0x40)\n      dup1\n      swap2\n      sub\n      swap1\n      return\n        /* \"cordingtest/cordingtest2.sol\":3038:3483  function getStudentName(string memory _name) public view returns (string memory, uint, uint, string memory, string memory) {... */\n    tag_12:\n      tag_55\n      0x04\n      dup1\n      calldatasize\n      sub\n      dup2\n      add\n      swap1\n      tag_56\n      swap2\n      swap1\n      tag_32\n      jump\t// in\n    tag_56:\n      tag_57\n      jump\t// in\n    tag_55:\n      mload(0x40)\n      tag_58\n      swap6\n      swap5\n      swap4\n      swap3\n      swap2\n      swap1\n      tag_20\n      jump\t// in\n    tag_58:\n      mload(0x40)\n      dup1\n      swap2\n      sub\n      swap1\n      return\n        /* \"cordingtest/cordingtest2.sol\":3809:3904  function getNumberStudents() public view returns (uint) {... */\n    tag_13:\n      tag_59\n      tag_60\n      jump\t// in\n    tag_59:\n      mload(0x40)\n      tag_61\n      swap2\n      swap1\n      tag_35\n      jump\t// in\n    tag_61:\n      mload(0x40)\n      dup1\n      swap2\n      sub\n      swap1\n      return\n        /* \"cordingtest/cordingtest2.sol\":2043:2068  Student[] public students */\n    tag_18:\n      0x00\n      dup2\n      dup2\n      sload\n      dup2\n      lt\n      tag_62\n      jumpi\n      0x00\n      dup1\n      revert\n    tag_62:\n      swap1\n      0x00\n      mstore\n      keccak256(0x00, 0x20)\n      swap1\n      0x05\n      mul\n      add\n      0x00\n      swap2\n      pop\n      swap1\n      pop\n      dup1\n      0x00\n      add\n      dup1\n      sload\n      tag_64\n      swap1\n      tag_65\n      jump\t// in\n    tag_64:\n      dup1\n      0x1f\n      add\n      0x20\n      dup1\n      swap2\n      div\n      mul\n      0x20\n      add\n      mload(0x40)\n      swap1\n      dup2\n      add\n      0x40\n      mstore\n      dup1\n      swap3\n      swap2\n      swap1\n      dup2\n      dup2\n      mstore\n      0x20\n      add\n      dup3\n      dup1\n      sload\n      tag_66\n      swap1\n      tag_65\n      jump\t// in\n    tag_66:\n      dup1\n      iszero\n      tag_67\n      jumpi\n      dup1\n      0x1f\n      lt\n      tag_68\n      jumpi\n      0x0100\n      dup1\n      dup4\n      sload\n      div\n      mul\n      dup4\n      mstore\n      swap2\n      0x20\n      add\n      swap2\n      jump(tag_67)\n    tag_68:\n      dup3\n      add\n      swap2\n      swap1\n      0x00\n      mstore\n      keccak256(0x00, 0x20)\n      swap1\n    tag_69:\n      dup2\n      sload\n      dup2\n      mstore\n      swap1\n      0x01\n      add\n      swap1\n      0x20\n      add\n      dup1\n      dup4\n      gt\n      tag_69\n      jumpi\n      dup3\n      swap1\n      sub\n      0x1f\n      and\n      dup3\n      add\n      swap2\n    tag_67:\n      pop\n      pop\n      pop\n      pop\n      pop\n      swap1\n      dup1\n      0x01\n      add\n      sload\n      swap1\n      dup1\n      0x02\n      add\n      sload\n      swap1\n      dup1\n      0x03\n      add\n      dup1\n      sload\n      tag_70\n      swap1\n      tag_65\n      jump\t// in\n    tag_70:\n      dup1\n      0x1f\n      add\n      0x20\n      dup1\n      swap2\n      div\n      mul\n      0x20\n      add\n      mload(0x40)\n      swap1\n      dup2\n      add\n      0x40\n      mstore\n      dup1\n      swap3\n      swap2\n      swap1\n      dup2\n      dup2\n      mstore\n      0x20\n      add\n      dup3\n      dup1\n      sload\n      tag_71\n      swap1\n      tag_65\n      jump\t// in\n    tag_71:\n      dup1\n      iszero\n      tag_72\n      jumpi\n      dup1\n      0x1f\n      lt\n      tag_73\n      jumpi\n      0x0100\n      dup1\n      dup4\n      sload\n      div\n      mul\n      dup4\n      mstore\n      swap2\n      0x20\n      add\n      swap2\n      jump(tag_72)\n    tag_73:\n      dup3\n      add\n      swap2\n      swap1\n      0x00\n      mstore\n      keccak256(0x00, 0x20)\n      swap1\n    tag_74:\n      dup2\n      sload\n      dup2\n      mstore\n      swap1\n      0x01\n      add\n      swap1\n      0x20\n      add\n      dup1\n      dup4\n      gt\n      tag_74\n      jumpi\n      dup3\n      swap1\n      sub\n      0x1f\n      and\n      dup3\n      add\n      swap2\n    tag_72:\n      pop\n      pop\n      pop\n      pop\n      pop\n      swap1\n      dup1\n      0x04\n      add\n      dup1\n      sload\n      tag_75\n      swap1\n      tag_65\n      jump\t// in\n    tag_75:\n      dup1\n      0x1f\n      add\n      0x20\n      dup1\n      swap2\n      div\n      mul\n      0x20\n      add\n      mload(0x40)\n      swap1\n      dup2\n      add\n      0x40\n      mstore\n      dup1\n      swap3\n      swap2\n      swap1\n      dup2\n      dup2\n      mstore\n      0x20\n      add\n      dup3\n      dup1\n      sload\n      tag_76\n      swap1\n      tag_65\n      jump\t// in\n    tag_76:\n      dup1\n      iszero\n      tag_77\n      jumpi\n      dup1\n      0x1f\n      lt\n      tag_78\n      jumpi\n      0x0100\n      dup1\n      dup4\n      sload\n      div\n      mul\n      dup4\n      mstore\n      swap2\n      0x20\n      add\n      swap2\n      jump(tag_77)\n    tag_78:\n      dup3\n      add\n      swap2\n      swap1\n      0x00\n      mstore\n      keccak256(0x00, 0x20)\n      swap1\n    tag_79:\n      dup2\n      sload\n      dup2\n      mstore\n      swap1\n      0x01\n      add\n      swap1\n      0x20\n      add\n      dup1\n      dup4\n      gt\n      tag_79\n      jumpi\n      dup3\n      swap1\n      sub\n      0x1f\n      and\n      dup3\n      add\n      swap2\n    tag_77:\n      pop\n      pop\n      pop\n      pop\n      pop\n      swap1\n      pop\n      dup6\n      jump\t// out\n        /* \"cordingtest/cordingtest2.sol\":2075:2435  function calculateGrade(uint _score) public pure returns (string memory) {... */\n    tag_23:\n        /* \"cordingtest/cordingtest2.sol\":2133:2146  string memory */\n      0x60\n        /* \"cordingtest/cordingtest2.sol\":2172:2174  90 */\n      0x5a\n        /* \"cordingtest/cordingtest2.sol\":2162:2168  _score */\n      dup3\n        /* \"cordingtest/cordingtest2.sol\":2162:2174  _score >= 90 */\n      lt\n        /* \"cordingtest/cordingtest2.sol\":2158:2429  if (_score >= 90) {... */\n      tag_81\n      jumpi\n        /* \"cordingtest/cordingtest2.sol\":2190:2200  return \"A\" */\n      mload(0x40)\n      dup1\n      0x40\n      add\n      0x40\n      mstore\n      dup1\n      0x01\n      dup2\n      mstore\n      0x20\n      add\n      0x4100000000000000000000000000000000000000000000000000000000000000\n      dup2\n      mstore\n      pop\n      swap1\n      pop\n      jump(tag_80)\n        /* \"cordingtest/cordingtest2.sol\":2158:2429  if (_score >= 90) {... */\n    tag_81:\n        /* \"cordingtest/cordingtest2.sol\":2231:2233  80 */\n      0x50\n        /* \"cordingtest/cordingtest2.sol\":2221:2227  _score */\n      dup3\n        /* \"cordingtest/cordingtest2.sol\":2221:2233  _score >= 80 */\n      lt\n        /* \"cordingtest/cordingtest2.sol\":2217:2429  if (_score >= 80) {... */\n      tag_83\n      jumpi\n        /* \"cordingtest/cordingtest2.sol\":2249:2259  return \"B\" */\n      mload(0x40)\n      dup1\n      0x40\n      add\n      0x40\n      mstore\n      dup1\n      0x01\n      dup2\n      mstore\n      0x20\n      add\n      0x4200000000000000000000000000000000000000000000000000000000000000\n      dup2\n      mstore\n      pop\n      swap1\n      pop\n      jump(tag_80)\n        /* \"cordingtest/cordingtest2.sol\":2217:2429  if (_score >= 80) {... */\n    tag_83:\n        /* \"cordingtest/cordingtest2.sol\":2290:2292  70 */\n      0x46\n        /* \"cordingtest/cordingtest2.sol\":2280:2286  _score */\n      dup3\n        /* \"cordingtest/cordingtest2.sol\":2280:2292  _score >= 70 */\n      lt\n        /* \"cordingtest/cordingtest2.sol\":2276:2429  if (_score >= 70) {... */\n      tag_85\n      jumpi\n        /* \"cordingtest/cordingtest2.sol\":2308:2318  return \"C\" */\n      mload(0x40)\n      dup1\n      0x40\n      add\n      0x40\n      mstore\n      dup1\n      0x01\n      dup2\n      mstore\n      0x20\n      add\n      0x4300000000000000000000000000000000000000000000000000000000000000\n      dup2\n      mstore\n      pop\n      swap1\n      pop\n      jump(tag_80)\n        /* \"cordingtest/cordingtest2.sol\":2276:2429  if (_score >= 70) {... */\n    tag_85:\n        /* \"cordingtest/cordingtest2.sol\":2349:2351  60 */\n      0x3c\n        /* \"cordingtest/cordingtest2.sol\":2339:2345  _score */\n      dup3\n        /* \"cordingtest/cordingtest2.sol\":2339:2351  _score >= 60 */\n      lt\n        /* \"cordingtest/cordingtest2.sol\":2335:2429  if (_score >= 60) {... */\n      tag_87\n      jumpi\n        /* \"cordingtest/cordingtest2.sol\":2367:2377  return \"D\" */\n      mload(0x40)\n      dup1\n      0x40\n      add\n      0x40\n      mstore\n      dup1\n      0x01\n      dup2\n      mstore\n      0x20\n      add\n      0x4400000000000000000000000000000000000000000000000000000000000000\n      dup2\n      mstore\n      pop\n      swap1\n      pop\n      jump(tag_80)\n        /* \"cordingtest/cordingtest2.sol\":2335:2429  if (_score >= 60) {... */\n    tag_87:\n        /* \"cordingtest/cordingtest2.sol\":2408:2418  return \"F\" */\n      mload(0x40)\n      dup1\n      0x40\n      add\n      0x40\n      mstore\n      dup1\n      0x01\n      dup2\n      mstore\n      0x20\n      add\n      0x4600000000000000000000000000000000000000000000000000000000000000\n      dup2\n      mstore\n      pop\n      swap1\n      pop\n        /* \"cordingtest/cordingtest2.sol\":2075:2435  function calculateGrade(uint _score) public pure returns (string memory) {... */\n    tag_80:\n      swap2\n      swap1\n      pop\n      jump\t// out\n        /* \"cordingtest/cordingtest2.sol\":2678:3032  function getStudentNumber(uint _number) public view returns (string memory, uint, uint, string memory, string memory) {... */\n    tag_28:\n        /* \"cordingtest/cordingtest2.sol\":2739:2752  string memory */\n      0x60\n        /* \"cordingtest/cordingtest2.sol\":2754:2758  uint */\n      0x00\n        /* \"cordingtest/cordingtest2.sol\":2760:2764  uint */\n      dup1\n        /* \"cordingtest/cordingtest2.sol\":2766:2779  string memory */\n      0x60\n        /* \"cordingtest/cordingtest2.sol\":2781:2794  string memory */\n      dup1\n        /* \"cordingtest/cordingtest2.sol\":2824:2825  0 */\n      0x00\n        /* \"cordingtest/cordingtest2.sol\":2814:2821  _number */\n      dup7\n        /* \"cordingtest/cordingtest2.sol\":2814:2825  _number > 0 */\n      gt\n        /* \"cordingtest/cordingtest2.sol\":2814:2855  _number > 0 && _number <= students.length */\n      dup1\n      iszero\n      tag_90\n      jumpi\n      pop\n        /* \"cordingtest/cordingtest2.sol\":2840:2848  students */\n      0x00\n        /* \"cordingtest/cordingtest2.sol\":2840:2855  students.length */\n      dup1\n      sload\n      swap1\n      pop\n        /* \"cordingtest/cordingtest2.sol\":2829:2836  _number */\n      dup7\n        /* \"cordingtest/cordingtest2.sol\":2829:2855  _number <= students.length */\n      gt\n      iszero\n        /* \"cordingtest/cordingtest2.sol\":2814:2855  _number > 0 && _number <= students.length */\n    tag_90:\n        /* \"cordingtest/cordingtest2.sol\":2806:2877  require(_number > 0 && _number <= students.length, \"Student not found\") */\n      tag_91\n      jumpi\n      mload(0x40)\n      0x08c379a000000000000000000000000000000000000000000000000000000000\n      dup2\n      mstore\n      0x04\n      add\n      tag_92\n      swap1\n      tag_93\n      jump\t// in\n    tag_92:\n      mload(0x40)\n      dup1\n      swap2\n      sub\n      swap1\n      revert\n    tag_91:\n        /* \"cordingtest/cordingtest2.sol\":2887:2909  Student memory student */\n      0x00\n        /* \"cordingtest/cordingtest2.sol\":2912:2920  students */\n      dup1\n        /* \"cordingtest/cordingtest2.sol\":2931:2932  1 */\n      0x01\n        /* \"cordingtest/cordingtest2.sol\":2921:2928  _number */\n      dup9\n        /* \"cordingtest/cordingtest2.sol\":2921:2932  _number - 1 */\n      tag_94\n      swap2\n      swap1\n      tag_95\n      jump\t// in\n    tag_94:\n        /* \"cordingtest/cordingtest2.sol\":2912:2933  students[_number - 1] */\n      dup2\n      sload\n      dup2\n      lt\n      tag_96\n      jumpi\n      tag_97\n      tag_98\n      jump\t// in\n    tag_97:\n    tag_96:\n      swap1\n      0x00\n      mstore\n      keccak256(0x00, 0x20)\n      swap1\n      0x05\n      mul\n      add\n        /* \"cordingtest/cordingtest2.sol\":2887:2933  Student memory student = students[_number - 1] */\n      mload(0x40)\n      dup1\n      0xa0\n      add\n      0x40\n      mstore\n      swap1\n      dup2\n      0x00\n      dup3\n      add\n      dup1\n      sload\n      tag_100\n      swap1\n      tag_65\n      jump\t// in\n    tag_100:\n      dup1\n      0x1f\n      add\n      0x20\n      dup1\n      swap2\n      div\n      mul\n      0x20\n      add\n      mload(0x40)\n      swap1\n      dup2\n      add\n      0x40\n      mstore\n      dup1\n      swap3\n      swap2\n      swap1\n      dup2\n      dup2\n      mstore\n      0x20\n      add\n      dup3\n      dup1\n      sload\n      tag_101\n      swap1\n      tag_65\n      jump\t// in\n    tag_101:\n      dup1\n      iszero\n      tag_102\n      jumpi\n      dup1\n      0x1f\n      lt\n      tag_103\n      jumpi\n      0x0100\n      dup1\n      dup4\n      sload\n      div\n      mul\n      dup4\n      mstore\n      swap2\n      0x20\n      add\n      swap2\n      jump(tag_102)\n    tag_103:\n      dup3\n      add\n      swap2\n      swap1\n      0x00\n      mstore\n      keccak256(0x00, 0x20)\n      swap1\n    tag_104:\n      dup2\n      sload\n      dup2\n      mstore\n      swap1\n      0x01\n      add\n      swap1\n      0x20\n      add\n      dup1\n      dup4\n      gt\n      tag_104\n      jumpi\n      dup3\n      swap1\n      sub\n      0x1f\n      and\n      dup3\n      add\n      swap2\n    tag_102:\n      pop\n      pop\n      pop\n      pop\n      pop\n      dup2\n      mstore\n      0x20\n      add\n      0x01\n      dup3\n      add\n      sload\n      dup2\n      mstore\n      0x20\n      add\n      0x02\n      dup3\n      add\n      sload\n      dup2\n      mstore\n      0x20\n      add\n      0x03\n      dup3\n      add\n      dup1\n      sload\n      tag_105\n      swap1\n      tag_65\n      jump\t// in\n    tag_105:\n      dup1\n      0x1f\n      add\n      0x20\n      dup1\n      swap2\n      div\n      mul\n      0x20\n      add\n      mload(0x40)\n      swap1\n      dup2\n      add\n      0x40\n      mstore\n      dup1\n      swap3\n      swap2\n      swap1\n      dup2\n      dup2\n      mstore\n      0x20\n      add\n      dup3\n      dup1\n      sload\n      tag_106\n      swap1\n      tag_65\n      jump\t// in\n    tag_106:\n      dup1\n      iszero\n      tag_107\n      jumpi\n      dup1\n      0x1f\n      lt\n      tag_108\n      jumpi\n      0x0100\n      dup1\n      dup4\n      sload\n      div\n      mul\n      dup4\n      mstore\n      swap2\n      0x20\n      add\n      swap2\n      jump(tag_107)\n    tag_108:\n      dup3\n      add\n      swap2\n      swap1\n      0x00\n      mstore\n      keccak256(0x00, 0x20)\n      swap1\n    tag_109:\n      dup2\n      sload\n      dup2\n      mstore\n      swap1\n      0x01\n      add\n      swap1\n      0x20\n      add\n      dup1\n      dup4\n      gt\n      tag_109\n      jumpi\n      dup3\n      swap1\n      sub\n      0x1f\n      and\n      dup3\n      add\n      swap2\n    tag_107:\n      pop\n      pop\n      pop\n      pop\n      pop\n      dup2\n      mstore\n      0x20\n      add\n      0x04\n      dup3\n      add\n      dup1\n      sload\n      tag_110\n      swap1\n      tag_65\n      jump\t// in\n    tag_110:\n      dup1\n      0x1f\n      add\n      0x20\n      dup1\n      swap2\n      div\n      mul\n      0x20\n      add\n      mload(0x40)\n      swap1\n      dup2\n      add\n      0x40\n      mstore\n      dup1\n      swap3\n      swap2\n      swap1\n      dup2\n      dup2\n      mstore\n      0x20\n      add\n      dup3\n      dup1\n      sload\n      tag_111\n      swap1\n      tag_65\n      jump\t// in\n    tag_111:\n      dup1\n      iszero\n      tag_112\n      jumpi\n      dup1\n      0x1f\n      lt\n      tag_113\n      jumpi\n      0x0100\n      dup1\n      dup4\n      sload\n      div\n      mul\n      dup4\n      mstore\n      swap2\n      0x20\n      add\n      swap2\n      jump(tag_112)\n    tag_113:\n      dup3\n      add\n      swap2\n      swap1\n      0x00\n      mstore\n      keccak256(0x00, 0x20)\n      swap1\n    tag_114:\n      dup2\n      sload\n      dup2\n      mstore\n      swap1\n      0x01\n      add\n      swap1\n      0x20\n      add\n      dup1\n      dup4\n      gt\n      tag_114\n      jumpi\n      dup3\n      swap1\n      sub\n      0x1f\n      and\n      dup3\n      add\n      swap2\n    tag_112:\n      pop\n      pop\n      pop\n      pop\n      pop\n      dup2\n      mstore\n      pop\n      pop\n      swap1\n      pop\n        /* \"cordingtest/cordingtest2.sol\":2951:2958  student */\n      dup1\n        /* \"cordingtest/cordingtest2.sol\":2951:2963  student.name */\n      0x00\n      add\n      mload\n        /* \"cordingtest/cordingtest2.sol\":2965:2972  student */\n      dup2\n        /* \"cordingtest/cordingtest2.sol\":2965:2979  student.number */\n      0x20\n      add\n      mload\n        /* \"cordingtest/cordingtest2.sol\":2981:2988  student */\n      dup3\n        /* \"cordingtest/cordingtest2.sol\":2981:2994  student.score */\n      0x40\n      add\n      mload\n        /* \"cordingtest/cordingtest2.sol\":2996:3003  student */\n      dup4\n        /* \"cordingtest/cordingtest2.sol\":2996:3009  student.grade */\n      0x60\n      add\n      mload\n        /* \"cordingtest/cordingtest2.sol\":3011:3018  student */\n      dup5\n        /* \"cordingtest/cordingtest2.sol\":3011:3024  student.class */\n      0x80\n      add\n      mload\n        /* \"cordingtest/cordingtest2.sol\":2943:3025  return (student.name, student.number, student.score, student.grade, student.class) */\n      swap6\n      pop\n      swap6\n      pop\n      swap6\n      pop\n      swap6\n      pop\n      swap6\n      pop\n      pop\n        /* \"cordingtest/cordingtest2.sol\":2678:3032  function getStudentNumber(uint _number) public view returns (string memory, uint, uint, string memory, string memory) {... */\n      swap2\n      swap4\n      swap6\n      swap1\n      swap3\n      swap5\n      pop\n      jump\t// out\n        /* \"cordingtest/cordingtest2.sol\":3489:3803  function getScoreName(string memory _name) public view returns (uint) {... */\n    tag_33:\n        /* \"cordingtest/cordingtest2.sol\":3553:3557  uint */\n      0x00\n        /* \"cordingtest/cordingtest2.sol\":3574:3580  uint i */\n      dup1\n        /* \"cordingtest/cordingtest2.sol\":3583:3584  0 */\n      0x00\n        /* \"cordingtest/cordingtest2.sol\":3574:3584  uint i = 0 */\n      swap1\n      pop\n        /* \"cordingtest/cordingtest2.sol\":3569:3760  for (uint i = 0; i < students.length; i++) {... */\n    tag_116:\n        /* \"cordingtest/cordingtest2.sol\":3590:3598  students */\n      0x00\n        /* \"cordingtest/cordingtest2.sol\":3590:3605  students.length */\n      dup1\n      sload\n      swap1\n      pop\n        /* \"cordingtest/cordingtest2.sol\":3586:3587  i */\n      dup2\n        /* \"cordingtest/cordingtest2.sol\":3586:3605  i < students.length */\n      lt\n        /* \"cordingtest/cordingtest2.sol\":3569:3760  for (uint i = 0; i < students.length; i++) {... */\n      iszero\n      tag_117\n      jumpi\n        /* \"cordingtest/cordingtest2.sol\":3684:3689  _name */\n      dup3\n        /* \"cordingtest/cordingtest2.sol\":3668:3691  keccak256(bytes(_name)) */\n      dup1\n      mload\n      swap1\n      0x20\n      add\n      keccak256\n        /* \"cordingtest/cordingtest2.sol\":3646:3654  students */\n      0x00\n        /* \"cordingtest/cordingtest2.sol\":3655:3656  i */\n      dup3\n        /* \"cordingtest/cordingtest2.sol\":3646:3657  students[i] */\n      dup2\n      sload\n      dup2\n      lt\n      tag_119\n      jumpi\n      tag_120\n      tag_98\n      jump\t// in\n    tag_120:\n    tag_119:\n      swap1\n      0x00\n      mstore\n      keccak256(0x00, 0x20)\n      swap1\n      0x05\n      mul\n      add\n        /* \"cordingtest/cordingtest2.sol\":3646:3662  students[i].name */\n      0x00\n      add\n        /* \"cordingtest/cordingtest2.sol\":3630:3664  keccak256(bytes(students[i].name)) */\n      mload(0x40)\n      tag_122\n      swap2\n      swap1\n      tag_123\n      jump\t// in\n    tag_122:\n      mload(0x40)\n      dup1\n      swap2\n      sub\n      swap1\n      keccak256\n        /* \"cordingtest/cordingtest2.sol\":3630:3691  keccak256(bytes(students[i].name)) == keccak256(bytes(_name)) */\n      sub\n        /* \"cordingtest/cordingtest2.sol\":3626:3750  if (keccak256(bytes(students[i].name)) == keccak256(bytes(_name))) {... */\n      tag_124\n      jumpi\n        /* \"cordingtest/cordingtest2.sol\":3718:3726  students */\n      0x00\n        /* \"cordingtest/cordingtest2.sol\":3727:3728  i */\n      dup2\n        /* \"cordingtest/cordingtest2.sol\":3718:3729  students[i] */\n      dup2\n      sload\n      dup2\n      lt\n      tag_125\n      jumpi\n      tag_126\n      tag_98\n      jump\t// in\n    tag_126:\n    tag_125:\n      swap1\n      0x00\n      mstore\n      keccak256(0x00, 0x20)\n      swap1\n      0x05\n      mul\n      add\n        /* \"cordingtest/cordingtest2.sol\":3718:3735  students[i].score */\n      0x02\n      add\n      sload\n        /* \"cordingtest/cordingtest2.sol\":3711:3735  return students[i].score */\n      swap2\n      pop\n      pop\n      jump(tag_115)\n        /* \"cordingtest/cordingtest2.sol\":3626:3750  if (keccak256(bytes(students[i].name)) == keccak256(bytes(_name))) {... */\n    tag_124:\n        /* \"cordingtest/cordingtest2.sol\":3607:3610  i++ */\n      dup1\n      dup1\n      0x01\n      add\n      swap2\n      pop\n      pop\n        /* \"cordingtest/cordingtest2.sol\":3569:3760  for (uint i = 0; i < students.length; i++) {... */\n      jump(tag_116)\n    tag_117:\n      pop\n        /* \"cordingtest/cordingtest2.sol\":3769:3796  revert(\"Student not found\") */\n      mload(0x40)\n      0x08c379a000000000000000000000000000000000000000000000000000000000\n      dup2\n      mstore\n      0x04\n      add\n      tag_128\n      swap1\n      tag_93\n      jump\t// in\n    tag_128:\n      mload(0x40)\n      dup1\n      swap2\n      sub\n      swap1\n      revert\n        /* \"cordingtest/cordingtest2.sol\":3489:3803  function getScoreName(string memory _name) public view returns (uint) {... */\n    tag_115:\n      swap2\n      swap1\n      pop\n      jump\t// out\n        /* \"cordingtest/cordingtest2.sol\":4013:4310  function calculateAverage() public view returns (uint) {... */\n    tag_37:\n        /* \"cordingtest/cordingtest2.sol\":4062:4066  uint */\n      0x00\n        /* \"cordingtest/cordingtest2.sol\":4104:4105  0 */\n      dup1\n        /* \"cordingtest/cordingtest2.sol\":4086:4094  students */\n      0x00\n        /* \"cordingtest/cordingtest2.sol\":4086:4101  students.length */\n      dup1\n      sload\n      swap1\n      pop\n        /* \"cordingtest/cordingtest2.sol\":4086:4105  students.length > 0 */\n      gt\n        /* \"cordingtest/cordingtest2.sol\":4078:4121  require(students.length > 0, \"No students\") */\n      tag_130\n      jumpi\n      mload(0x40)\n      0x08c379a000000000000000000000000000000000000000000000000000000000\n      dup2\n      mstore\n      0x04\n      add\n      tag_131\n      swap1\n      tag_132\n      jump\t// in\n    tag_131:\n      mload(0x40)\n      dup1\n      swap2\n      sub\n      swap1\n      revert\n    tag_130:\n        /* \"cordingtest/cordingtest2.sol\":4131:4146  uint totalScore */\n      0x00\n        /* \"cordingtest/cordingtest2.sol\":4165:4171  uint i */\n      dup1\n        /* \"cordingtest/cordingtest2.sol\":4160:4259  for (uint i = 0; i < students.length; i++) {... */\n    tag_133:\n        /* \"cordingtest/cordingtest2.sol\":4181:4189  students */\n      0x00\n        /* \"cordingtest/cordingtest2.sol\":4181:4196  students.length */\n      dup1\n      sload\n      swap1\n      pop\n        /* \"cordingtest/cordingtest2.sol\":4177:4178  i */\n      dup2\n        /* \"cordingtest/cordingtest2.sol\":4177:4196  i < students.length */\n      lt\n        /* \"cordingtest/cordingtest2.sol\":4160:4259  for (uint i = 0; i < students.length; i++) {... */\n      iszero\n      tag_134\n      jumpi\n        /* \"cordingtest/cordingtest2.sol\":4231:4239  students */\n      0x00\n        /* \"cordingtest/cordingtest2.sol\":4240:4241  i */\n      dup2\n        /* \"cordingtest/cordingtest2.sol\":4231:4242  students[i] */\n      dup2\n      sload\n      dup2\n      lt\n      tag_136\n      jumpi\n      tag_137\n      tag_98\n      jump\t// in\n    tag_137:\n    tag_136:\n      swap1\n      0x00\n      mstore\n      keccak256(0x00, 0x20)\n      swap1\n      0x05\n      mul\n      add\n        /* \"cordingtest/cordingtest2.sol\":4231:4248  students[i].score */\n      0x02\n      add\n      sload\n        /* \"cordingtest/cordingtest2.sol\":4217:4248  totalScore += students[i].score */\n      dup3\n      tag_139\n      swap2\n      swap1\n      tag_140\n      jump\t// in\n    tag_139:\n      swap2\n      pop\n        /* \"cordingtest/cordingtest2.sol\":4198:4201  i++ */\n      dup1\n      dup1\n      0x01\n      add\n      swap2\n      pop\n      pop\n        /* \"cordingtest/cordingtest2.sol\":4160:4259  for (uint i = 0; i < students.length; i++) {... */\n      jump(tag_133)\n    tag_134:\n      pop\n        /* \"cordingtest/cordingtest2.sol\":4288:4296  students */\n      0x00\n        /* \"cordingtest/cordingtest2.sol\":4288:4303  students.length */\n      dup1\n      sload\n      swap1\n      pop\n        /* \"cordingtest/cordingtest2.sol\":4275:4285  totalScore */\n      dup2\n        /* \"cordingtest/cordingtest2.sol\":4275:4303  totalScore / students.length */\n      tag_141\n      swap2\n      swap1\n      tag_142\n      jump\t// in\n    tag_141:\n        /* \"cordingtest/cordingtest2.sol\":4268:4303  return totalScore / students.length */\n      swap2\n      pop\n      pop\n        /* \"cordingtest/cordingtest2.sol\":4013:4310  function calculateAverage() public view returns (uint) {... */\n      swap1\n      jump\t// out\n        /* \"cordingtest/cordingtest2.sol\":4467:5081  function getFStudents() public view returns (uint, Student[] memory) {... */\n    tag_40:\n        /* \"cordingtest/cordingtest2.sol\":4512:4516  uint */\n      0x00\n        /* \"cordingtest/cordingtest2.sol\":4518:4534  Student[] memory */\n      0x60\n        /* \"cordingtest/cordingtest2.sol\":4546:4556  uint count */\n      0x00\n        /* \"cordingtest/cordingtest2.sol\":4575:4581  uint i */\n      dup1\n        /* \"cordingtest/cordingtest2.sol\":4570:4736  for (uint i = 0; i < students.length; i++) {... */\n    tag_144:\n        /* \"cordingtest/cordingtest2.sol\":4591:4599  students */\n      0x00\n        /* \"cordingtest/cordingtest2.sol\":4591:4606  students.length */\n      dup1\n      sload\n      swap1\n      pop\n        /* \"cordingtest/cordingtest2.sol\":4587:4588  i */\n      dup2\n        /* \"cordingtest/cordingtest2.sol\":4587:4606  i < students.length */\n      lt\n        /* \"cordingtest/cordingtest2.sol\":4570:4736  for (uint i = 0; i < students.length; i++) {... */\n      iszero\n      tag_145\n      jumpi\n        /* \"cordingtest/cordingtest2.sol\":4670:4684  keccak256(\"F\") */\n      0xe61d9a3d3848fb2cdd9a2ab61e2f21a10ea431275aed628a0557f9dee697c37a\n        /* \"cordingtest/cordingtest2.sol\":4647:4655  students */\n      0x00\n        /* \"cordingtest/cordingtest2.sol\":4656:4657  i */\n      dup3\n        /* \"cordingtest/cordingtest2.sol\":4647:4658  students[i] */\n      dup2\n      sload\n      dup2\n      lt\n      tag_147\n      jumpi\n      tag_148\n      tag_98\n      jump\t// in\n    tag_148:\n    tag_147:\n      swap1\n      0x00\n      mstore\n      keccak256(0x00, 0x20)\n      swap1\n      0x05\n      mul\n      add\n        /* \"cordingtest/cordingtest2.sol\":4647:4664  students[i].grade */\n      0x03\n      add\n        /* \"cordingtest/cordingtest2.sol\":4631:4666  keccak256(bytes(students[i].grade)) */\n      mload(0x40)\n      tag_150\n      swap2\n      swap1\n      tag_123\n      jump\t// in\n    tag_150:\n      mload(0x40)\n      dup1\n      swap2\n      sub\n      swap1\n      keccak256\n        /* \"cordingtest/cordingtest2.sol\":4631:4684  keccak256(bytes(students[i].grade)) == keccak256(\"F\") */\n      sub\n        /* \"cordingtest/cordingtest2.sol\":4627:4726  if (keccak256(bytes(students[i].grade)) == keccak256(\"F\")) {... */\n      tag_151\n      jumpi\n        /* \"cordingtest/cordingtest2.sol\":4704:4711  count++ */\n      dup2\n      dup1\n      tag_152\n      swap1\n      tag_153\n      jump\t// in\n    tag_152:\n      swap3\n      pop\n      pop\n        /* \"cordingtest/cordingtest2.sol\":4627:4726  if (keccak256(bytes(students[i].grade)) == keccak256(\"F\")) {... */\n    tag_151:\n        /* \"cordingtest/cordingtest2.sol\":4608:4611  i++ */\n      dup1\n      dup1\n      0x01\n      add\n      swap2\n      pop\n      pop\n        /* \"cordingtest/cordingtest2.sol\":4570:4736  for (uint i = 0; i < students.length; i++) {... */\n      jump(tag_144)\n    tag_145:\n      pop\n        /* \"cordingtest/cordingtest2.sol\":4746:4772  Student[] memory FStudents */\n      0x00\n        /* \"cordingtest/cordingtest2.sol\":4789:4794  count */\n      dup2\n        /* \"cordingtest/cordingtest2.sol\":4775:4795  new Student[](count) */\n      0xffffffffffffffff\n      dup2\n      gt\n      iszero\n      tag_154\n      jumpi\n      tag_155\n      tag_156\n      jump\t// in\n    tag_155:\n    tag_154:\n      mload(0x40)\n      swap1\n      dup1\n      dup3\n      mstore\n      dup1\n      0x20\n      mul\n      0x20\n      add\n      dup3\n      add\n      0x40\n      mstore\n      dup1\n      iszero\n      tag_157\n      jumpi\n      dup2\n      0x20\n      add\n    tag_158:\n      tag_159\n      tag_160\n      jump\t// in\n    tag_159:\n      dup2\n      mstore\n      0x20\n      add\n      swap1\n      0x01\n      swap1\n      sub\n      swap1\n      dup2\n      tag_158\n      jumpi\n      swap1\n      pop\n    tag_157:\n      pop\n        /* \"cordingtest/cordingtest2.sol\":4746:4795  Student[] memory FStudents = new Student[](count) */\n      swap1\n      pop\n        /* \"cordingtest/cordingtest2.sol\":4805:4814  uint data */\n      0x00\n        /* \"cordingtest/cordingtest2.sol\":4833:4839  uint i */\n      dup1\n        /* \"cordingtest/cordingtest2.sol\":4828:5040  for (uint i = 0; i < students.length; i++) {... */\n    tag_161:\n        /* \"cordingtest/cordingtest2.sol\":4849:4857  students */\n      0x00\n        /* \"cordingtest/cordingtest2.sol\":4849:4864  students.length */\n      dup1\n      sload\n      swap1\n      pop\n        /* \"cordingtest/cordingtest2.sol\":4845:4846  i */\n      dup2\n        /* \"cordingtest/cordingtest2.sol\":4845:4864  i < students.length */\n      lt\n        /* \"cordingtest/cordingtest2.sol\":4828:5040  for (uint i = 0; i < students.length; i++) {... */\n      iszero\n      tag_162\n      jumpi\n        /* \"cordingtest/cordingtest2.sol\":4928:4942  keccak256(\"F\") */\n      0xe61d9a3d3848fb2cdd9a2ab61e2f21a10ea431275aed628a0557f9dee697c37a\n        /* \"cordingtest/cordingtest2.sol\":4905:4913  students */\n      0x00\n        /* \"cordingtest/cordingtest2.sol\":4914:4915  i */\n      dup3\n        /* \"cordingtest/cordingtest2.sol\":4905:4916  students[i] */\n      dup2\n      sload\n      dup2\n      lt\n      tag_164\n      jumpi\n      tag_165\n      tag_98\n      jump\t// in\n    tag_165:\n    tag_164:\n      swap1\n      0x00\n      mstore\n      keccak256(0x00, 0x20)\n      swap1\n      0x05\n      mul\n      add\n        /* \"cordingtest/cordingtest2.sol\":4905:4922  students[i].grade */\n      0x03\n      add\n        /* \"cordingtest/cordingtest2.sol\":4889:4924  keccak256(bytes(students[i].grade)) */\n      mload(0x40)\n      tag_167\n      swap2\n      swap1\n      tag_123\n      jump\t// in\n    tag_167:\n      mload(0x40)\n      dup1\n      swap2\n      sub\n      swap1\n      keccak256\n        /* \"cordingtest/cordingtest2.sol\":4889:4942  keccak256(bytes(students[i].grade)) == keccak256(\"F\") */\n      sub\n        /* \"cordingtest/cordingtest2.sol\":4885:5030  if (keccak256(bytes(students[i].grade)) == keccak256(\"F\")) {... */\n      tag_168\n      jumpi\n        /* \"cordingtest/cordingtest2.sol\":4980:4988  students */\n      0x00\n        /* \"cordingtest/cordingtest2.sol\":4989:4990  i */\n      dup2\n        /* \"cordingtest/cordingtest2.sol\":4980:4991  students[i] */\n      dup2\n      sload\n      dup2\n      lt\n      tag_169\n      jumpi\n      tag_170\n      tag_98\n      jump\t// in\n    tag_170:\n    tag_169:\n      swap1\n      0x00\n      mstore\n      keccak256(0x00, 0x20)\n      swap1\n      0x05\n      mul\n      add\n        /* \"cordingtest/cordingtest2.sol\":4962:4991  FStudents[data] = students[i] */\n      mload(0x40)\n      dup1\n      0xa0\n      add\n      0x40\n      mstore\n      swap1\n      dup2\n      0x00\n      dup3\n      add\n      dup1\n      sload\n      tag_172\n      swap1\n      tag_65\n      jump\t// in\n    tag_172:\n      dup1\n      0x1f\n      add\n      0x20\n      dup1\n      swap2\n      div\n      mul\n      0x20\n      add\n      mload(0x40)\n      swap1\n      dup2\n      add\n      0x40\n      mstore\n      dup1\n      swap3\n      swap2\n      swap1\n      dup2\n      dup2\n      mstore\n      0x20\n      add\n      dup3\n      dup1\n      sload\n      tag_173\n      swap1\n      tag_65\n      jump\t// in\n    tag_173:\n      dup1\n      iszero\n      tag_174\n      jumpi\n      dup1\n      0x1f\n      lt\n      tag_175\n      jumpi\n      0x0100\n      dup1\n      dup4\n      sload\n      div\n      mul\n      dup4\n      mstore\n      swap2\n      0x20\n      add\n      swap2\n      jump(tag_174)\n    tag_175:\n      dup3\n      add\n      swap2\n      swap1\n      0x00\n      mstore\n      keccak256(0x00, 0x20)\n      swap1\n    tag_176:\n      dup2\n      sload\n      dup2\n      mstore\n      swap1\n      0x01\n      add\n      swap1\n      0x20\n      add\n      dup1\n      dup4\n      gt\n      tag_176\n      jumpi\n      dup3\n      swap1\n      sub\n      0x1f\n      and\n      dup3\n      add\n      swap2\n    tag_174:\n      pop\n      pop\n      pop\n      pop\n      pop\n      dup2\n      mstore\n      0x20\n      add\n      0x01\n      dup3\n      add\n      sload\n      dup2\n      mstore\n      0x20\n      add\n      0x02\n      dup3\n      add\n      sload\n      dup2\n      mstore\n      0x20\n      add\n      0x03\n      dup3\n      add\n      dup1\n      sload\n      tag_177\n      swap1\n      tag_65\n      jump\t// in\n    tag_177:\n      dup1\n      0x1f\n      add\n      0x20\n      dup1\n      swap2\n      div\n      mul\n      0x20\n      add\n      mload(0x40)\n      swap1\n      dup2\n      add\n      0x40\n      mstore\n      dup1\n      swap3\n      swap2\n      swap1\n      dup2\n      dup2\n      mstore\n      0x20\n      add\n      dup3\n      dup1\n      sload\n      tag_178\n      swap1\n      tag_65\n      jump\t// in\n    tag_178:\n      dup1\n      iszero\n      tag_179\n      jumpi\n      dup1\n      0x1f\n      lt\n      tag_180\n      jumpi\n      0x0100\n      dup1\n      dup4\n      sload\n      div\n      mul\n      dup4\n      mstore\n      swap2\n      0x20\n      add\n      swap2\n      jump(tag_179)\n    tag_180:\n      dup3\n      add\n      swap2\n      swap1\n      0x00\n      mstore\n      keccak256(0x00, 0x20)\n      swap1\n    tag_181:\n      dup2\n      sload\n      dup2\n      mstore\n      swap1\n      0x01\n      add\n      swap1\n      0x20\n      add\n      dup1\n      dup4\n      gt\n      tag_181\n      jumpi\n      dup3\n      swap1\n      sub\n      0x1f\n      and\n      dup3\n      add\n      swap2\n    tag_179:\n      pop\n      pop\n      pop\n      pop\n      pop\n      dup2\n      mstore\n      0x20\n      add\n      0x04\n      dup3\n      add\n      dup1\n      sload\n      tag_182\n      swap1\n      tag_65\n      jump\t// in\n    tag_182:\n      dup1\n      0x1f\n      add\n      0x20\n      dup1\n      swap2\n      div\n      mul\n      0x20\n      add\n      mload(0x40)\n      swap1\n      dup2\n      add\n      0x40\n      mstore\n      dup1\n      swap3\n      swap2\n      swap1\n      dup2\n      dup2\n      mstore\n      0x20\n      add\n      dup3\n      dup1\n      sload\n      tag_183\n      swap1\n      tag_65\n      jump\t// in\n    tag_183:\n      dup1\n      iszero\n      tag_184\n      jumpi\n      dup1\n      0x1f\n      lt\n      tag_185\n      jumpi\n      0x0100\n      dup1\n      dup4\n      sload\n      div\n      mul\n      dup4\n      mstore\n      swap2\n      0x20\n      add\n      swap2\n      jump(tag_184)\n    tag_185:\n      dup3\n      add\n      swap2\n      swap1\n      0x00\n      mstore\n      keccak256(0x00, 0x20)\n      swap1\n    tag_186:\n      dup2\n      sload\n      dup2\n      mstore\n      swap1\n      0x01\n      add\n      swap1\n      0x20\n      add\n      dup1\n      dup4\n      gt\n      tag_186\n      jumpi\n      dup3\n      swap1\n      sub\n      0x1f\n      and\n      dup3\n      add\n      swap2\n    tag_184:\n      pop\n      pop\n      pop\n      pop\n      pop\n      dup2\n      mstore\n      pop\n      pop\n        /* \"cordingtest/cordingtest2.sol\":4962:4971  FStudents */\n      dup4\n        /* \"cordingtest/cordingtest2.sol\":4972:4976  data */\n      dup4\n        /* \"cordingtest/cordingtest2.sol\":4962:4977  FStudents[data] */\n      dup2\n      mload\n      dup2\n      lt\n      tag_187\n      jumpi\n      tag_188\n      tag_98\n      jump\t// in\n    tag_188:\n    tag_187:\n      0x20\n      mul\n      0x20\n      add\n      add\n        /* \"cordingtest/cordingtest2.sol\":4962:4991  FStudents[data] = students[i] */\n      dup2\n      swap1\n      mstore\n      pop\n        /* \"cordingtest/cordingtest2.sol\":5009:5015  data++ */\n      dup2\n      dup1\n      tag_189\n      swap1\n      tag_153\n      jump\t// in\n    tag_189:\n      swap3\n      pop\n      pop\n        /* \"cordingtest/cordingtest2.sol\":4885:5030  if (keccak256(bytes(students[i].grade)) == keccak256(\"F\")) {... */\n    tag_168:\n        /* \"cordingtest/cordingtest2.sol\":4866:4869  i++ */\n      dup1\n      dup1\n      0x01\n      add\n      swap2\n      pop\n      pop\n        /* \"cordingtest/cordingtest2.sol\":4828:5040  for (uint i = 0; i < students.length; i++) {... */\n      jump(tag_161)\n    tag_162:\n      pop\n        /* \"cordingtest/cordingtest2.sol\":5057:5062  count */\n      dup3\n        /* \"cordingtest/cordingtest2.sol\":5064:5073  FStudents */\n      dup3\n        /* \"cordingtest/cordingtest2.sol\":5049:5074  return (count, FStudents) */\n      swap5\n      pop\n      swap5\n      pop\n      pop\n      pop\n      pop\n        /* \"cordingtest/cordingtest2.sol\":4467:5081  function getFStudents() public view returns (uint, Student[] memory) {... */\n      swap1\n      swap2\n      jump\t// out\n        /* \"cordingtest/cordingtest2.sol\":2441:2672  function addStudent(string memory _name, uint _number, uint _score, string memory _class) public {... */\n    tag_46:\n        /* \"cordingtest/cordingtest2.sol\":2548:2568  string memory _grade */\n      0x00\n        /* \"cordingtest/cordingtest2.sol\":2571:2593  calculateGrade(_score) */\n      tag_191\n        /* \"cordingtest/cordingtest2.sol\":2586:2592  _score */\n      dup4\n        /* \"cordingtest/cordingtest2.sol\":2571:2585  calculateGrade */\n      tag_23\n        /* \"cordingtest/cordingtest2.sol\":2571:2593  calculateGrade(_score) */\n      jump\t// in\n    tag_191:\n        /* \"cordingtest/cordingtest2.sol\":2548:2593  string memory _grade = calculateGrade(_score) */\n      swap1\n      pop\n        /* \"cordingtest/cordingtest2.sol\":2603:2611  students */\n      0x00\n        /* \"cordingtest/cordingtest2.sol\":2617:2664  Student(_name, _number, _score, _grade, _class) */\n      mload(0x40)\n      dup1\n      0xa0\n      add\n      0x40\n      mstore\n      dup1\n        /* \"cordingtest/cordingtest2.sol\":2625:2630  _name */\n      dup8\n        /* \"cordingtest/cordingtest2.sol\":2617:2664  Student(_name, _number, _score, _grade, _class) */\n      dup2\n      mstore\n      0x20\n      add\n        /* \"cordingtest/cordingtest2.sol\":2632:2639  _number */\n      dup7\n        /* \"cordingtest/cordingtest2.sol\":2617:2664  Student(_name, _number, _score, _grade, _class) */\n      dup2\n      mstore\n      0x20\n      add\n        /* \"cordingtest/cordingtest2.sol\":2641:2647  _score */\n      dup6\n        /* \"cordingtest/cordingtest2.sol\":2617:2664  Student(_name, _number, _score, _grade, _class) */\n      dup2\n      mstore\n      0x20\n      add\n        /* \"cordingtest/cordingtest2.sol\":2649:2655  _grade */\n      dup4\n        /* \"cordingtest/cordingtest2.sol\":2617:2664  Student(_name, _number, _score, _grade, _class) */\n      dup2\n      mstore\n      0x20\n      add\n        /* \"cordingtest/cordingtest2.sol\":2657:2663  _class */\n      dup5\n        /* \"cordingtest/cordingtest2.sol\":2617:2664  Student(_name, _number, _score, _grade, _class) */\n      dup2\n      mstore\n      pop\n        /* \"cordingtest/cordingtest2.sol\":2603:2665  students.push(Student(_name, _number, _score, _grade, _class)) */\n      swap1\n      dup1\n      0x01\n      dup2\n      sload\n      add\n      dup1\n      dup3\n      sstore\n      dup1\n      swap2\n      pop\n      pop\n      0x01\n      swap1\n      sub\n      swap1\n      0x00\n      mstore\n      keccak256(0x00, 0x20)\n      swap1\n      0x05\n      mul\n      add\n      0x00\n      swap1\n      swap2\n      swap1\n      swap2\n      swap1\n      swap2\n      pop\n      0x00\n      dup3\n      add\n      mload\n      dup2\n      0x00\n      add\n      swap1\n      dup2\n      tag_193\n      swap2\n      swap1\n      tag_194\n      jump\t// in\n    tag_193:\n      pop\n      0x20\n      dup3\n      add\n      mload\n      dup2\n      0x01\n      add\n      sstore\n      0x40\n      dup3\n      add\n      mload\n      dup2\n      0x02\n      add\n      sstore\n      0x60\n      dup3\n      add\n      mload\n      dup2\n      0x03\n      add\n      swap1\n      dup2\n      tag_195\n      swap2\n      swap1\n      tag_194\n      jump\t// in\n    tag_195:\n      pop\n      0x80\n      dup3\n      add\n      mload\n      dup2\n      0x04\n      add\n      swap1\n      dup2\n      tag_196\n      swap2\n      swap1\n      tag_194\n      jump\t// in\n    tag_196:\n      pop\n      pop\n      pop\n        /* \"cordingtest/cordingtest2.sol\":2538:2672  {... */\n      pop\n        /* \"cordingtest/cordingtest2.sol\":2441:2672  function addStudent(string memory _name, uint _number, uint _score, string memory _class) public {... */\n      pop\n      pop\n      pop\n      pop\n      jump\t// out\n        /* \"cordingtest/cordingtest2.sol\":4316:4461  function QualifiedTeacher() public view returns (bool) {... */\n    tag_48:\n        /* \"cordingtest/cordingtest2.sol\":4365:4369  bool */\n      0x00\n        /* \"cordingtest/cordingtest2.sol\":4381:4398  uint averageScore */\n      dup1\n        /* \"cordingtest/cordingtest2.sol\":4401:4419  calculateAverage() */\n      tag_198\n        /* \"cordingtest/cordingtest2.sol\":4401:4417  calculateAverage */\n      tag_37\n        /* \"cordingtest/cordingtest2.sol\":4401:4419  calculateAverage() */\n      jump\t// in\n    tag_198:\n        /* \"cordingtest/cordingtest2.sol\":4381:4419  uint averageScore = calculateAverage() */\n      swap1\n      pop\n        /* \"cordingtest/cordingtest2.sol\":4452:4454  70 */\n      0x46\n        /* \"cordingtest/cordingtest2.sol\":4436:4448  averageScore */\n      dup2\n        /* \"cordingtest/cordingtest2.sol\":4436:4454  averageScore >= 70 */\n      lt\n      iszero\n        /* \"cordingtest/cordingtest2.sol\":4429:4454  return averageScore >= 70 */\n      swap2\n      pop\n      pop\n        /* \"cordingtest/cordingtest2.sol\":4316:4461  function QualifiedTeacher() public view returns (bool) {... */\n      swap1\n      jump\t// out\n        /* \"cordingtest/cordingtest2.sol\":3910:4007  function getAllStudents() public view returns (Student[] memory) {... */\n    tag_52:\n        /* \"cordingtest/cordingtest2.sol\":3957:3973  Student[] memory */\n      0x60\n        /* \"cordingtest/cordingtest2.sol\":3992:4000  students */\n      0x00\n        /* \"cordingtest/cordingtest2.sol\":3985:4000  return students */\n      dup1\n      sload\n      dup1\n      0x20\n      mul\n      0x20\n      add\n      mload(0x40)\n      swap1\n      dup2\n      add\n      0x40\n      mstore\n      dup1\n      swap3\n      swap2\n      swap1\n      dup2\n      dup2\n      mstore\n      0x20\n      add\n      0x00\n      swap1\n    tag_200:\n      dup3\n      dup3\n      lt\n      iszero\n      tag_201\n      jumpi\n      dup4\n      dup3\n      swap1\n      0x00\n      mstore\n      keccak256(0x00, 0x20)\n      swap1\n      0x05\n      mul\n      add\n      mload(0x40)\n      dup1\n      0xa0\n      add\n      0x40\n      mstore\n      swap1\n      dup2\n      0x00\n      dup3\n      add\n      dup1\n      sload\n      tag_203\n      swap1\n      tag_65\n      jump\t// in\n    tag_203:\n      dup1\n      0x1f\n      add\n      0x20\n      dup1\n      swap2\n      div\n      mul\n      0x20\n      add\n      mload(0x40)\n      swap1\n      dup2\n      add\n      0x40\n      mstore\n      dup1\n      swap3\n      swap2\n      swap1\n      dup2\n      dup2\n      mstore\n      0x20\n      add\n      dup3\n      dup1\n      sload\n      tag_204\n      swap1\n      tag_65\n      jump\t// in\n    tag_204:\n      dup1\n      iszero\n      tag_205\n      jumpi\n      dup1\n      0x1f\n      lt\n      tag_206\n      jumpi\n      0x0100\n      dup1\n      dup4\n      sload\n      div\n      mul\n      dup4\n      mstore\n      swap2\n      0x20\n      add\n      swap2\n      jump(tag_205)\n    tag_206:\n      dup3\n      add\n      swap2\n      swap1\n      0x00\n      mstore\n      keccak256(0x00, 0x20)\n      swap1\n    tag_207:\n      dup2\n      sload\n      dup2\n      mstore\n      swap1\n      0x01\n      add\n      swap1\n      0x20\n      add\n      dup1\n      dup4\n      gt\n      tag_207\n      jumpi\n      dup3\n      swap1\n      sub\n      0x1f\n      and\n      dup3\n      add\n      swap2\n    tag_205:\n      pop\n      pop\n      pop\n      pop\n      pop\n      dup2\n      mstore\n      0x20\n      add\n      0x01\n      dup3\n      add\n      sload\n      dup2\n      mstore\n      0x20\n      add\n      0x02\n      dup3\n      add\n      sload\n      dup2\n      mstore\n      0x20\n      add\n      0x03\n      dup3\n      add\n      dup1\n      sload\n      tag_208\n      swap1\n      tag_65\n      jump\t// in\n    tag_208:\n      dup1\n      0x1f\n      add\n      0x20\n      dup1\n      swap2\n      div\n      mul\n      0x20\n      add\n      mload(0x40)\n      swap1\n      dup2\n      add\n      0x40\n      mstore\n      dup1\n      swap3\n      swap2\n      swap1\n      dup2\n      dup2\n      mstore\n      0x20\n      add\n      dup3\n      dup1\n      sload\n      tag_209\n      swap1\n      tag_65\n      jump\t// in\n    tag_209:\n      dup1\n      iszero\n      tag_210\n      jumpi\n      dup1\n      0x1f\n      lt\n      tag_211\n      jumpi\n      0x0100\n      dup1\n      dup4\n      sload\n      div\n      mul\n      dup4\n      mstore\n      swap2\n      0x20\n      add\n      swap2\n      jump(tag_210)\n    tag_211:\n      dup3\n      add\n      swap2\n      swap1\n      0x00\n      mstore\n      keccak256(0x00, 0x20)\n      swap1\n    tag_212:\n      dup2\n      sload\n      dup2\n      mstore\n      swap1\n      0x01\n      add\n      swap1\n      0x20\n      add\n      dup1\n      dup4\n      gt\n      tag_212\n      jumpi\n      dup3\n      swap1\n      sub\n      0x1f\n      and\n      dup3\n      add\n      swap2\n    tag_210:\n      pop\n      pop\n      pop\n      pop\n      pop\n      dup2\n      mstore\n      0x20\n      add\n      0x04\n      dup3\n      add\n      dup1\n      sload\n      tag_213\n      swap1\n      tag_65\n      jump\t// in\n    tag_213:\n      dup1\n      0x1f\n      add\n      0x20\n      dup1\n      swap2\n      div\n      mul\n      0x20\n      add\n      mload(0x40)\n      swap1\n      dup2\n      add\n      0x40\n      mstore\n      dup1\n      swap3\n      swap2\n      swap1\n      dup2\n      dup2\n      mstore\n      0x20\n      add\n      dup3\n      dup1\n      sload\n      tag_214\n      swap1\n      tag_65\n      jump\t// in\n    tag_214:\n      dup1\n      iszero\n      tag_215\n      jumpi\n      dup1\n      0x1f\n      lt\n      tag_216\n      jumpi\n      0x0100\n      dup1\n      dup4\n      sload\n      div\n      mul\n      dup4\n      mstore\n      swap2\n      0x20\n      add\n      swap2\n      jump(tag_215)\n    tag_216:\n      dup3\n      add\n      swap2\n      swap1\n      0x00\n      mstore\n      keccak256(0x00, 0x20)\n      swap1\n    tag_217:\n      dup2\n      sload\n      dup2\n      mstore\n      swap1\n      0x01\n      add\n      swap1\n      0x20\n      add\n      dup1\n      dup4\n      gt\n      tag_217\n      jumpi\n      dup3\n      swap1\n      sub\n      0x1f\n      and\n      dup3\n      add\n      swap2\n    tag_215:\n      pop\n      pop\n      pop\n      pop\n      pop\n      dup2\n      mstore\n      pop\n      pop\n      dup2\n      mstore\n      0x20\n      add\n      swap1\n      0x01\n      add\n      swap1\n      jump(tag_200)\n    tag_201:\n      pop\n      pop\n      pop\n      pop\n      swap1\n      pop\n        /* \"cordingtest/cordingtest2.sol\":3910:4007  function getAllStudents() public view returns (Student[] memory) {... */\n      swap1\n      jump\t// out\n        /* \"cordingtest/cordingtest2.sol\":3038:3483  function getStudentName(string memory _name) public view returns (string memory, uint, uint, string memory, string memory) {... */\n    tag_57:\n        /* \"cordingtest/cordingtest2.sol\":3104:3117  string memory */\n      0x60\n        /* \"cordingtest/cordingtest2.sol\":3119:3123  uint */\n      0x00\n        /* \"cordingtest/cordingtest2.sol\":3125:3129  uint */\n      dup1\n        /* \"cordingtest/cordingtest2.sol\":3131:3144  string memory */\n      0x60\n        /* \"cordingtest/cordingtest2.sol\":3146:3159  string memory */\n      dup1\n        /* \"cordingtest/cordingtest2.sol\":3176:3182  uint i */\n      0x00\n        /* \"cordingtest/cordingtest2.sol\":3171:3440  for (uint i = 0; i < students.length; i++) {... */\n    tag_219:\n        /* \"cordingtest/cordingtest2.sol\":3192:3200  students */\n      0x00\n        /* \"cordingtest/cordingtest2.sol\":3192:3207  students.length */\n      dup1\n      sload\n      swap1\n      pop\n        /* \"cordingtest/cordingtest2.sol\":3188:3189  i */\n      dup2\n        /* \"cordingtest/cordingtest2.sol\":3188:3207  i < students.length */\n      lt\n        /* \"cordingtest/cordingtest2.sol\":3171:3440  for (uint i = 0; i < students.length; i++) {... */\n      iszero\n      tag_220\n      jumpi\n        /* \"cordingtest/cordingtest2.sol\":3286:3291  _name */\n      dup7\n        /* \"cordingtest/cordingtest2.sol\":3270:3293  keccak256(bytes(_name)) */\n      dup1\n      mload\n      swap1\n      0x20\n      add\n      keccak256\n        /* \"cordingtest/cordingtest2.sol\":3248:3256  students */\n      0x00\n        /* \"cordingtest/cordingtest2.sol\":3257:3258  i */\n      dup3\n        /* \"cordingtest/cordingtest2.sol\":3248:3259  students[i] */\n      dup2\n      sload\n      dup2\n      lt\n      tag_222\n      jumpi\n      tag_223\n      tag_98\n      jump\t// in\n    tag_223:\n    tag_222:\n      swap1\n      0x00\n      mstore\n      keccak256(0x00, 0x20)\n      swap1\n      0x05\n      mul\n      add\n        /* \"cordingtest/cordingtest2.sol\":3248:3264  students[i].name */\n      0x00\n      add\n        /* \"cordingtest/cordingtest2.sol\":3232:3266  keccak256(bytes(students[i].name)) */\n      mload(0x40)\n      tag_225\n      swap2\n      swap1\n      tag_123\n      jump\t// in\n    tag_225:\n      mload(0x40)\n      dup1\n      swap2\n      sub\n      swap1\n      keccak256\n        /* \"cordingtest/cordingtest2.sol\":3232:3293  keccak256(bytes(students[i].name)) == keccak256(bytes(_name)) */\n      sub\n        /* \"cordingtest/cordingtest2.sol\":3228:3430  if (keccak256(bytes(students[i].name)) == keccak256(bytes(_name))) {... */\n      tag_226\n      jumpi\n        /* \"cordingtest/cordingtest2.sol\":3321:3329  students */\n      0x00\n        /* \"cordingtest/cordingtest2.sol\":3330:3331  i */\n      dup2\n        /* \"cordingtest/cordingtest2.sol\":3321:3332  students[i] */\n      dup2\n      sload\n      dup2\n      lt\n      tag_227\n      jumpi\n      tag_228\n      tag_98\n      jump\t// in\n    tag_228:\n    tag_227:\n      swap1\n      0x00\n      mstore\n      keccak256(0x00, 0x20)\n      swap1\n      0x05\n      mul\n      add\n        /* \"cordingtest/cordingtest2.sol\":3321:3337  students[i].name */\n      0x00\n      add\n        /* \"cordingtest/cordingtest2.sol\":3339:3347  students */\n      0x00\n        /* \"cordingtest/cordingtest2.sol\":3348:3349  i */\n      dup3\n        /* \"cordingtest/cordingtest2.sol\":3339:3350  students[i] */\n      dup2\n      sload\n      dup2\n      lt\n      tag_230\n      jumpi\n      tag_231\n      tag_98\n      jump\t// in\n    tag_231:\n    tag_230:\n      swap1\n      0x00\n      mstore\n      keccak256(0x00, 0x20)\n      swap1\n      0x05\n      mul\n      add\n        /* \"cordingtest/cordingtest2.sol\":3339:3357  students[i].number */\n      0x01\n      add\n      sload\n        /* \"cordingtest/cordingtest2.sol\":3359:3367  students */\n      0x00\n        /* \"cordingtest/cordingtest2.sol\":3368:3369  i */\n      dup4\n        /* \"cordingtest/cordingtest2.sol\":3359:3370  students[i] */\n      dup2\n      sload\n      dup2\n      lt\n      tag_233\n      jumpi\n      tag_234\n      tag_98\n      jump\t// in\n    tag_234:\n    tag_233:\n      swap1\n      0x00\n      mstore\n      keccak256(0x00, 0x20)\n      swap1\n      0x05\n      mul\n      add\n        /* \"cordingtest/cordingtest2.sol\":3359:3376  students[i].score */\n      0x02\n      add\n      sload\n        /* \"cordingtest/cordingtest2.sol\":3378:3386  students */\n      0x00\n        /* \"cordingtest/cordingtest2.sol\":3387:3388  i */\n      dup5\n        /* \"cordingtest/cordingtest2.sol\":3378:3389  students[i] */\n      dup2\n      sload\n      dup2\n      lt\n      tag_236\n      jumpi\n      tag_237\n      tag_98\n      jump\t// in\n    tag_237:\n    tag_236:\n      swap1\n      0x00\n      mstore\n      keccak256(0x00, 0x20)\n      swap1\n      0x05\n      mul\n      add\n        /* \"cordingtest/cordingtest2.sol\":3378:3395  students[i].grade */\n      0x03\n      add\n        /* \"cordingtest/cordingtest2.sol\":3397:3405  students */\n      0x00\n        /* \"cordingtest/cordingtest2.sol\":3406:3407  i */\n      dup6\n        /* \"cordingtest/cordingtest2.sol\":3397:3408  students[i] */\n      dup2\n      sload\n      dup2\n      lt\n      tag_239\n      jumpi\n      tag_240\n      tag_98\n      jump\t// in\n    tag_240:\n    tag_239:\n      swap1\n      0x00\n      mstore\n      keccak256(0x00, 0x20)\n      swap1\n      0x05\n      mul\n      add\n        /* \"cordingtest/cordingtest2.sol\":3397:3414  students[i].class */\n      0x04\n      add\n        /* \"cordingtest/cordingtest2.sol\":3313:3415  return (students[i].name, students[i].number, students[i].score, students[i].grade, students[i].class) */\n      dup5\n      dup1\n      sload\n      tag_242\n      swap1\n      tag_65\n      jump\t// in\n    tag_242:\n      dup1\n      0x1f\n      add\n      0x20\n      dup1\n      swap2\n      div\n      mul\n      0x20\n      add\n      mload(0x40)\n      swap1\n      dup2\n      add\n      0x40\n      mstore\n      dup1\n      swap3\n      swap2\n      swap1\n      dup2\n      dup2\n      mstore\n      0x20\n      add\n      dup3\n      dup1\n      sload\n      tag_243\n      swap1\n      tag_65\n      jump\t// in\n    tag_243:\n      dup1\n      iszero\n      tag_244\n      jumpi\n      dup1\n      0x1f\n      lt\n      tag_245\n      jumpi\n      0x0100\n      dup1\n      dup4\n      sload\n      div\n      mul\n      dup4\n      mstore\n      swap2\n      0x20\n      add\n      swap2\n      jump(tag_244)\n    tag_245:\n      dup3\n      add\n      swap2\n      swap1\n      0x00\n      mstore\n      keccak256(0x00, 0x20)\n      swap1\n    tag_246:\n      dup2\n      sload\n      dup2\n      mstore\n      swap1\n      0x01\n      add\n      swap1\n      0x20\n      add\n      dup1\n      dup4\n      gt\n      tag_246\n      jumpi\n      dup3\n      swap1\n      sub\n      0x1f\n      and\n      dup3\n      add\n      swap2\n    tag_244:\n      pop\n      pop\n      pop\n      pop\n      pop\n      swap5\n      pop\n      dup2\n      dup1\n      sload\n      tag_247\n      swap1\n      tag_65\n      jump\t// in\n    tag_247:\n      dup1\n      0x1f\n      add\n      0x20\n      dup1\n      swap2\n      div\n      mul\n      0x20\n      add\n      mload(0x40)\n      swap1\n      dup2\n      add\n      0x40\n      mstore\n      dup1\n      swap3\n      swap2\n      swap1\n      dup2\n      dup2\n      mstore\n      0x20\n      add\n      dup3\n      dup1\n      sload\n      tag_248\n      swap1\n      tag_65\n      jump\t// in\n    tag_248:\n      dup1\n      iszero\n      tag_249\n      jumpi\n      dup1\n      0x1f\n      lt\n      tag_250\n      jumpi\n      0x0100\n      dup1\n      dup4\n      sload\n      div\n      mul\n      dup4\n      mstore\n      swap2\n      0x20\n      add\n      swap2\n      jump(tag_249)\n    tag_250:\n      dup3\n      add\n      swap2\n      swap1\n      0x00\n      mstore\n      keccak256(0x00, 0x20)\n      swap1\n    tag_251:\n      dup2\n      sload\n      dup2\n      mstore\n      swap1\n      0x01\n      add\n      swap1\n      0x20\n      add\n      dup1\n      dup4\n      gt\n      tag_251\n      jumpi\n      dup3\n      swap1\n      sub\n      0x1f\n      and\n      dup3\n      add\n      swap2\n    tag_249:\n      pop\n      pop\n      pop\n      pop\n      pop\n      swap2\n      pop\n      dup1\n      dup1\n      sload\n      tag_252\n      swap1\n      tag_65\n      jump\t// in\n    tag_252:\n      dup1\n      0x1f\n      add\n      0x20\n      dup1\n      swap2\n      div\n      mul\n      0x20\n      add\n      mload(0x40)\n      swap1\n      dup2\n      add\n      0x40\n      mstore\n      dup1\n      swap3\n      swap2\n      swap1\n      dup2\n      dup2\n      mstore\n      0x20\n      add\n      dup3\n      dup1\n      sload\n      tag_253\n      swap1\n      tag_65\n      jump\t// in\n    tag_253:\n      dup1\n      iszero\n      tag_254\n      jumpi\n      dup1\n      0x1f\n      lt\n      tag_255\n      jumpi\n      0x0100\n      dup1\n      dup4\n      sload\n      div\n      mul\n      dup4\n      mstore\n      swap2\n      0x20\n      add\n      swap2\n      jump(tag_254)\n    tag_255:\n      dup3\n      add\n      swap2\n      swap1\n      0x00\n      mstore\n      keccak256(0x00, 0x20)\n      swap1\n    tag_256:\n      dup2\n      sload\n      dup2\n      mstore\n      swap1\n      0x01\n      add\n      swap1\n      0x20\n      add\n      dup1\n      dup4\n      gt\n      tag_256\n      jumpi\n      dup3\n      swap1\n      sub\n      0x1f\n      and\n      dup3\n      add\n      swap2\n    tag_254:\n      pop\n      pop\n      pop\n      pop\n      pop\n      swap1\n      pop\n      swap6\n      pop\n      swap6\n      pop\n      swap6\n      pop\n      swap6\n      pop\n      swap6\n      pop\n      pop\n      jump(tag_218)\n        /* \"cordingtest/cordingtest2.sol\":3228:3430  if (keccak256(bytes(students[i].name)) == keccak256(bytes(_name))) {... */\n    tag_226:\n        /* \"cordingtest/cordingtest2.sol\":3209:3212  i++ */\n      dup1\n      dup1\n      0x01\n      add\n      swap2\n      pop\n      pop\n        /* \"cordingtest/cordingtest2.sol\":3171:3440  for (uint i = 0; i < students.length; i++) {... */\n      jump(tag_219)\n    tag_220:\n      pop\n        /* \"cordingtest/cordingtest2.sol\":3449:3476  revert(\"Student not found\") */\n      mload(0x40)\n      0x08c379a000000000000000000000000000000000000000000000000000000000\n      dup2\n      mstore\n      0x04\n      add\n      tag_257\n      swap1\n      tag_93\n      jump\t// in\n    tag_257:\n      mload(0x40)\n      dup1\n      swap2\n      sub\n      swap1\n      revert\n        /* \"cordingtest/cordingtest2.sol\":3038:3483  function getStudentName(string memory _name) public view returns (string memory, uint, uint, string memory, string memory) {... */\n    tag_218:\n      swap2\n      swap4\n      swap6\n      swap1\n      swap3\n      swap5\n      pop\n      jump\t// out\n        /* \"cordingtest/cordingtest2.sol\":3809:3904  function getNumberStudents() public view returns (uint) {... */\n    tag_60:\n        /* \"cordingtest/cordingtest2.sol\":3859:3863  uint */\n      0x00\n        /* \"cordingtest/cordingtest2.sol\":3882:3890  students */\n      dup1\n        /* \"cordingtest/cordingtest2.sol\":3882:3897  students.length */\n      dup1\n      sload\n      swap1\n      pop\n        /* \"cordingtest/cordingtest2.sol\":3875:3897  return students.length */\n      swap1\n      pop\n        /* \"cordingtest/cordingtest2.sol\":3809:3904  function getNumberStudents() public view returns (uint) {... */\n      swap1\n      jump\t// out\n    tag_160:\n      mload(0x40)\n      dup1\n      0xa0\n      add\n      0x40\n      mstore\n      dup1\n      0x60\n      dup2\n      mstore\n      0x20\n      add\n      0x00\n      dup2\n      mstore\n      0x20\n      add\n      0x00\n      dup2\n      mstore\n      0x20\n      add\n      0x60\n      dup2\n      mstore\n      0x20\n      add\n      0x60\n      dup2\n      mstore\n      pop\n      swap1\n      jump\t// out\n        /* \"#utility.yul\":7:82   */\n    tag_259:\n        /* \"#utility.yul\":40:46   */\n      0x00\n        /* \"#utility.yul\":73:75   */\n      0x40\n        /* \"#utility.yul\":67:76   */\n      mload\n        /* \"#utility.yul\":57:76   */\n      swap1\n      pop\n        /* \"#utility.yul\":7:82   */\n      swap1\n      jump\t// out\n        /* \"#utility.yul\":88:205   */\n    tag_260:\n        /* \"#utility.yul\":197:198   */\n      0x00\n        /* \"#utility.yul\":194:195   */\n      dup1\n        /* \"#utility.yul\":187:199   */\n      revert\n        /* \"#utility.yul\":211:328   */\n    tag_261:\n        /* \"#utility.yul\":320:321   */\n      0x00\n        /* \"#utility.yul\":317:318   */\n      dup1\n        /* \"#utility.yul\":310:322   */\n      revert\n        /* \"#utility.yul\":334:411   */\n    tag_262:\n        /* \"#utility.yul\":371:378   */\n      0x00\n        /* \"#utility.yul\":400:405   */\n      dup2\n        /* \"#utility.yul\":389:405   */\n      swap1\n      pop\n        /* \"#utility.yul\":334:411   */\n      swap2\n      swap1\n      pop\n      jump\t// out\n        /* \"#utility.yul\":417:539   */\n    tag_263:\n        /* \"#utility.yul\":490:514   */\n      tag_322\n        /* \"#utility.yul\":508:513   */\n      dup2\n        /* \"#utility.yul\":490:514   */\n      tag_262\n      jump\t// in\n    tag_322:\n        /* \"#utility.yul\":483:488   */\n      dup2\n        /* \"#utility.yul\":480:515   */\n      eq\n        /* \"#utility.yul\":470:533   */\n      tag_323\n      jumpi\n        /* \"#utility.yul\":529:530   */\n      0x00\n        /* \"#utility.yul\":526:527   */\n      dup1\n        /* \"#utility.yul\":519:531   */\n      revert\n        /* \"#utility.yul\":470:533   */\n    tag_323:\n        /* \"#utility.yul\":417:539   */\n      pop\n      jump\t// out\n        /* \"#utility.yul\":545:684   */\n    tag_264:\n        /* \"#utility.yul\":591:596   */\n      0x00\n        /* \"#utility.yul\":629:635   */\n      dup2\n        /* \"#utility.yul\":616:636   */\n      calldataload\n        /* \"#utility.yul\":607:636   */\n      swap1\n      pop\n        /* \"#utility.yul\":645:678   */\n      tag_325\n        /* \"#utility.yul\":672:677   */\n      dup2\n        /* \"#utility.yul\":645:678   */\n      tag_263\n      jump\t// in\n    tag_325:\n        /* \"#utility.yul\":545:684   */\n      swap3\n      swap2\n      pop\n      pop\n      jump\t// out\n        /* \"#utility.yul\":690:1019   */\n    tag_17:\n        /* \"#utility.yul\":749:755   */\n      0x00\n        /* \"#utility.yul\":798:800   */\n      0x20\n        /* \"#utility.yul\":786:795   */\n      dup3\n        /* \"#utility.yul\":777:784   */\n      dup5\n        /* \"#utility.yul\":773:796   */\n      sub\n        /* \"#utility.yul\":769:801   */\n      slt\n        /* \"#utility.yul\":766:885   */\n      iszero\n      tag_327\n      jumpi\n        /* \"#utility.yul\":804:883   */\n      tag_328\n      tag_260\n      jump\t// in\n    tag_328:\n        /* \"#utility.yul\":766:885   */\n    tag_327:\n        /* \"#utility.yul\":924:925   */\n      0x00\n        /* \"#utility.yul\":949:1002   */\n      tag_329\n        /* \"#utility.yul\":994:1001   */\n      dup5\n        /* \"#utility.yul\":985:991   */\n      dup3\n        /* \"#utility.yul\":974:983   */\n      dup6\n        /* \"#utility.yul\":970:992   */\n      add\n        /* \"#utility.yul\":949:1002   */\n      tag_264\n      jump\t// in\n    tag_329:\n        /* \"#utility.yul\":939:1002   */\n      swap2\n      pop\n        /* \"#utility.yul\":895:1012   */\n      pop\n        /* \"#utility.yul\":690:1019   */\n      swap3\n      swap2\n      pop\n      pop\n      jump\t// out\n        /* \"#utility.yul\":1025:1124   */\n    tag_265:\n        /* \"#utility.yul\":1077:1083   */\n      0x00\n        /* \"#utility.yul\":1111:1116   */\n      dup2\n        /* \"#utility.yul\":1105:1117   */\n      mload\n        /* \"#utility.yul\":1095:1117   */\n      swap1\n      pop\n        /* \"#utility.yul\":1025:1124   */\n      swap2\n      swap1\n      pop\n      jump\t// out\n        /* \"#utility.yul\":1130:1299   */\n    tag_266:\n        /* \"#utility.yul\":1214:1225   */\n      0x00\n        /* \"#utility.yul\":1248:1254   */\n      dup3\n        /* \"#utility.yul\":1243:1246   */\n      dup3\n        /* \"#utility.yul\":1236:1255   */\n      mstore\n        /* \"#utility.yul\":1288:1292   */\n      0x20\n        /* \"#utility.yul\":1283:1286   */\n      dup3\n        /* \"#utility.yul\":1279:1293   */\n      add\n        /* \"#utility.yul\":1264:1293   */\n      swap1\n      pop\n        /* \"#utility.yul\":1130:1299   */\n      swap3\n      swap2\n      pop\n      pop\n      jump\t// out\n        /* \"#utility.yul\":1305:1444   */\n    tag_267:\n        /* \"#utility.yul\":1394:1400   */\n      dup3\n        /* \"#utility.yul\":1389:1392   */\n      dup2\n        /* \"#utility.yul\":1384:1387   */\n      dup4\n        /* \"#utility.yul\":1378:1401   */\n      mcopy\n        /* \"#utility.yul\":1435:1436   */\n      0x00\n        /* \"#utility.yul\":1426:1432   */\n      dup4\n        /* \"#utility.yul\":1421:1424   */\n      dup4\n        /* \"#utility.yul\":1417:1433   */\n      add\n        /* \"#utility.yul\":1410:1437   */\n      mstore\n        /* \"#utility.yul\":1305:1444   */\n      pop\n      pop\n      pop\n      jump\t// out\n        /* \"#utility.yul\":1450:1552   */\n    tag_268:\n        /* \"#utility.yul\":1491:1497   */\n      0x00\n        /* \"#utility.yul\":1542:1544   */\n      0x1f\n        /* \"#utility.yul\":1538:1545   */\n      not\n        /* \"#utility.yul\":1533:1535   */\n      0x1f\n        /* \"#utility.yul\":1526:1531   */\n      dup4\n        /* \"#utility.yul\":1522:1536   */\n      add\n        /* \"#utility.yul\":1518:1546   */\n      and\n        /* \"#utility.yul\":1508:1546   */\n      swap1\n      pop\n        /* \"#utility.yul\":1450:1552   */\n      swap2\n      swap1\n      pop\n      jump\t// out\n        /* \"#utility.yul\":1558:1935   */\n    tag_269:\n        /* \"#utility.yul\":1646:1649   */\n      0x00\n        /* \"#utility.yul\":1674:1713   */\n      tag_335\n        /* \"#utility.yul\":1707:1712   */\n      dup3\n        /* \"#utility.yul\":1674:1713   */\n      tag_265\n      jump\t// in\n    tag_335:\n        /* \"#utility.yul\":1729:1800   */\n      tag_336\n        /* \"#utility.yul\":1793:1799   */\n      dup2\n        /* \"#utility.yul\":1788:1791   */\n      dup6\n        /* \"#utility.yul\":1729:1800   */\n      tag_266\n      jump\t// in\n    tag_336:\n        /* \"#utility.yul\":1722:1800   */\n      swap4\n      pop\n        /* \"#utility.yul\":1809:1874   */\n      tag_337\n        /* \"#utility.yul\":1867:1873   */\n      dup2\n        /* \"#utility.yul\":1862:1865   */\n      dup6\n        /* \"#utility.yul\":1855:1859   */\n      0x20\n        /* \"#utility.yul\":1848:1853   */\n      dup7\n        /* \"#utility.yul\":1844:1860   */\n      add\n        /* \"#utility.yul\":1809:1874   */\n      tag_267\n      jump\t// in\n    tag_337:\n        /* \"#utility.yul\":1899:1928   */\n      tag_338\n        /* \"#utility.yul\":1921:1927   */\n      dup2\n        /* \"#utility.yul\":1899:1928   */\n      tag_268\n      jump\t// in\n    tag_338:\n        /* \"#utility.yul\":1894:1897   */\n      dup5\n        /* \"#utility.yul\":1890:1929   */\n      add\n        /* \"#utility.yul\":1883:1929   */\n      swap2\n      pop\n        /* \"#utility.yul\":1650:1935   */\n      pop\n        /* \"#utility.yul\":1558:1935   */\n      swap3\n      swap2\n      pop\n      pop\n      jump\t// out\n        /* \"#utility.yul\":1941:2059   */\n    tag_270:\n        /* \"#utility.yul\":2028:2052   */\n      tag_340\n        /* \"#utility.yul\":2046:2051   */\n      dup2\n        /* \"#utility.yul\":2028:2052   */\n      tag_262\n      jump\t// in\n    tag_340:\n        /* \"#utility.yul\":2023:2026   */\n      dup3\n        /* \"#utility.yul\":2016:2053   */\n      mstore\n        /* \"#utility.yul\":1941:2059   */\n      pop\n      pop\n      jump\t// out\n        /* \"#utility.yul\":2065:3002   */\n    tag_20:\n        /* \"#utility.yul\":2330:2334   */\n      0x00\n        /* \"#utility.yul\":2368:2371   */\n      0xa0\n        /* \"#utility.yul\":2357:2366   */\n      dup3\n        /* \"#utility.yul\":2353:2372   */\n      add\n        /* \"#utility.yul\":2345:2372   */\n      swap1\n      pop\n        /* \"#utility.yul\":2418:2427   */\n      dup2\n        /* \"#utility.yul\":2412:2416   */\n      dup2\n        /* \"#utility.yul\":2408:2428   */\n      sub\n        /* \"#utility.yul\":2404:2405   */\n      0x00\n        /* \"#utility.yul\":2393:2402   */\n      dup4\n        /* \"#utility.yul\":2389:2406   */\n      add\n        /* \"#utility.yul\":2382:2429   */\n      mstore\n        /* \"#utility.yul\":2446:2524   */\n      tag_342\n        /* \"#utility.yul\":2519:2523   */\n      dup2\n        /* \"#utility.yul\":2510:2516   */\n      dup9\n        /* \"#utility.yul\":2446:2524   */\n      tag_269\n      jump\t// in\n    tag_342:\n        /* \"#utility.yul\":2438:2524   */\n      swap1\n      pop\n        /* \"#utility.yul\":2534:2606   */\n      tag_343\n        /* \"#utility.yul\":2602:2604   */\n      0x20\n        /* \"#utility.yul\":2591:2600   */\n      dup4\n        /* \"#utility.yul\":2587:2605   */\n      add\n        /* \"#utility.yul\":2578:2584   */\n      dup8\n        /* \"#utility.yul\":2534:2606   */\n      tag_270\n      jump\t// in\n    tag_343:\n        /* \"#utility.yul\":2616:2688   */\n      tag_344\n        /* \"#utility.yul\":2684:2686   */\n      0x40\n        /* \"#utility.yul\":2673:2682   */\n      dup4\n        /* \"#utility.yul\":2669:2687   */\n      add\n        /* \"#utility.yul\":2660:2666   */\n      dup7\n        /* \"#utility.yul\":2616:2688   */\n      tag_270\n      jump\t// in\n    tag_344:\n        /* \"#utility.yul\":2735:2744   */\n      dup2\n        /* \"#utility.yul\":2729:2733   */\n      dup2\n        /* \"#utility.yul\":2725:2745   */\n      sub\n        /* \"#utility.yul\":2720:2722   */\n      0x60\n        /* \"#utility.yul\":2709:2718   */\n      dup4\n        /* \"#utility.yul\":2705:2723   */\n      add\n        /* \"#utility.yul\":2698:2746   */\n      mstore\n        /* \"#utility.yul\":2763:2841   */\n      tag_345\n        /* \"#utility.yul\":2836:2840   */\n      dup2\n        /* \"#utility.yul\":2827:2833   */\n      dup6\n        /* \"#utility.yul\":2763:2841   */\n      tag_269\n      jump\t// in\n    tag_345:\n        /* \"#utility.yul\":2755:2841   */\n      swap1\n      pop\n        /* \"#utility.yul\":2889:2898   */\n      dup2\n        /* \"#utility.yul\":2883:2887   */\n      dup2\n        /* \"#utility.yul\":2879:2899   */\n      sub\n        /* \"#utility.yul\":2873:2876   */\n      0x80\n        /* \"#utility.yul\":2862:2871   */\n      dup4\n        /* \"#utility.yul\":2858:2877   */\n      add\n        /* \"#utility.yul\":2851:2900   */\n      mstore\n        /* \"#utility.yul\":2917:2995   */\n      tag_346\n        /* \"#utility.yul\":2990:2994   */\n      dup2\n        /* \"#utility.yul\":2981:2987   */\n      dup5\n        /* \"#utility.yul\":2917:2995   */\n      tag_269\n      jump\t// in\n    tag_346:\n        /* \"#utility.yul\":2909:2995   */\n      swap1\n      pop\n        /* \"#utility.yul\":2065:3002   */\n      swap7\n      swap6\n      pop\n      pop\n      pop\n      pop\n      pop\n      pop\n      jump\t// out\n        /* \"#utility.yul\":3008:3321   */\n    tag_25:\n        /* \"#utility.yul\":3121:3125   */\n      0x00\n        /* \"#utility.yul\":3159:3161   */\n      0x20\n        /* \"#utility.yul\":3148:3157   */\n      dup3\n        /* \"#utility.yul\":3144:3162   */\n      add\n        /* \"#utility.yul\":3136:3162   */\n      swap1\n      pop\n        /* \"#utility.yul\":3208:3217   */\n      dup2\n        /* \"#utility.yul\":3202:3206   */\n      dup2\n        /* \"#utility.yul\":3198:3218   */\n      sub\n        /* \"#utility.yul\":3194:3195   */\n      0x00\n        /* \"#utility.yul\":3183:3192   */\n      dup4\n        /* \"#utility.yul\":3179:3196   */\n      add\n        /* \"#utility.yul\":3172:3219   */\n      mstore\n        /* \"#utility.yul\":3236:3314   */\n      tag_348\n        /* \"#utility.yul\":3309:3313   */\n      dup2\n        /* \"#utility.yul\":3300:3306   */\n      dup5\n        /* \"#utility.yul\":3236:3314   */\n      tag_269\n      jump\t// in\n    tag_348:\n        /* \"#utility.yul\":3228:3314   */\n      swap1\n      pop\n        /* \"#utility.yul\":3008:3321   */\n      swap3\n      swap2\n      pop\n      pop\n      jump\t// out\n        /* \"#utility.yul\":3327:3444   */\n    tag_271:\n        /* \"#utility.yul\":3436:3437   */\n      0x00\n        /* \"#utility.yul\":3433:3434   */\n      dup1\n        /* \"#utility.yul\":3426:3438   */\n      revert\n        /* \"#utility.yul\":3450:3567   */\n    tag_272:\n        /* \"#utility.yul\":3559:3560   */\n      0x00\n        /* \"#utility.yul\":3556:3557   */\n      dup1\n        /* \"#utility.yul\":3549:3561   */\n      revert\n        /* \"#utility.yul\":3573:3753   */\n    tag_156:\n        /* \"#utility.yul\":3621:3698   */\n      0x4e487b7100000000000000000000000000000000000000000000000000000000\n        /* \"#utility.yul\":3618:3619   */\n      0x00\n        /* \"#utility.yul\":3611:3699   */\n      mstore\n        /* \"#utility.yul\":3718:3722   */\n      0x41\n        /* \"#utility.yul\":3715:3716   */\n      0x04\n        /* \"#utility.yul\":3708:3723   */\n      mstore\n        /* \"#utility.yul\":3742:3746   */\n      0x24\n        /* \"#utility.yul\":3739:3740   */\n      0x00\n        /* \"#utility.yul\":3732:3747   */\n      revert\n        /* \"#utility.yul\":3759:4040   */\n    tag_273:\n        /* \"#utility.yul\":3842:3869   */\n      tag_353\n        /* \"#utility.yul\":3864:3868   */\n      dup3\n        /* \"#utility.yul\":3842:3869   */\n      tag_268\n      jump\t// in\n    tag_353:\n        /* \"#utility.yul\":3834:3840   */\n      dup2\n        /* \"#utility.yul\":3830:3870   */\n      add\n        /* \"#utility.yul\":3972:3978   */\n      dup2\n        /* \"#utility.yul\":3960:3970   */\n      dup2\n        /* \"#utility.yul\":3957:3979   */\n      lt\n        /* \"#utility.yul\":3936:3954   */\n      0xffffffffffffffff\n        /* \"#utility.yul\":3924:3934   */\n      dup3\n        /* \"#utility.yul\":3921:3955   */\n      gt\n        /* \"#utility.yul\":3918:3980   */\n      or\n        /* \"#utility.yul\":3915:4003   */\n      iszero\n      tag_354\n      jumpi\n        /* \"#utility.yul\":3983:4001   */\n      tag_355\n      tag_156\n      jump\t// in\n    tag_355:\n        /* \"#utility.yul\":3915:4003   */\n    tag_354:\n        /* \"#utility.yul\":4023:4033   */\n      dup1\n        /* \"#utility.yul\":4019:4021   */\n      0x40\n        /* \"#utility.yul\":4012:4034   */\n      mstore\n        /* \"#utility.yul\":3802:4040   */\n      pop\n        /* \"#utility.yul\":3759:4040   */\n      pop\n      pop\n      jump\t// out\n        /* \"#utility.yul\":4046:4175   */\n    tag_274:\n        /* \"#utility.yul\":4080:4086   */\n      0x00\n        /* \"#utility.yul\":4107:4127   */\n      tag_357\n      tag_259\n      jump\t// in\n    tag_357:\n        /* \"#utility.yul\":4097:4127   */\n      swap1\n      pop\n        /* \"#utility.yul\":4136:4169   */\n      tag_358\n        /* \"#utility.yul\":4164:4168   */\n      dup3\n        /* \"#utility.yul\":4156:4162   */\n      dup3\n        /* \"#utility.yul\":4136:4169   */\n      tag_273\n      jump\t// in\n    tag_358:\n        /* \"#utility.yul\":4046:4175   */\n      swap2\n      swap1\n      pop\n      jump\t// out\n        /* \"#utility.yul\":4181:4489   */\n    tag_275:\n        /* \"#utility.yul\":4243:4247   */\n      0x00\n        /* \"#utility.yul\":4333:4351   */\n      0xffffffffffffffff\n        /* \"#utility.yul\":4325:4331   */\n      dup3\n        /* \"#utility.yul\":4322:4352   */\n      gt\n        /* \"#utility.yul\":4319:4375   */\n      iszero\n      tag_360\n      jumpi\n        /* \"#utility.yul\":4355:4373   */\n      tag_361\n      tag_156\n      jump\t// in\n    tag_361:\n        /* \"#utility.yul\":4319:4375   */\n    tag_360:\n        /* \"#utility.yul\":4393:4422   */\n      tag_362\n        /* \"#utility.yul\":4415:4421   */\n      dup3\n        /* \"#utility.yul\":4393:4422   */\n      tag_268\n      jump\t// in\n    tag_362:\n        /* \"#utility.yul\":4385:4422   */\n      swap1\n      pop\n        /* \"#utility.yul\":4477:4481   */\n      0x20\n        /* \"#utility.yul\":4471:4475   */\n      dup2\n        /* \"#utility.yul\":4467:4482   */\n      add\n        /* \"#utility.yul\":4459:4482   */\n      swap1\n      pop\n        /* \"#utility.yul\":4181:4489   */\n      swap2\n      swap1\n      pop\n      jump\t// out\n        /* \"#utility.yul\":4495:4643   */\n    tag_276:\n        /* \"#utility.yul\":4593:4599   */\n      dup3\n        /* \"#utility.yul\":4588:4591   */\n      dup2\n        /* \"#utility.yul\":4583:4586   */\n      dup4\n        /* \"#utility.yul\":4570:4600   */\n      calldatacopy\n        /* \"#utility.yul\":4634:4635   */\n      0x00\n        /* \"#utility.yul\":4625:4631   */\n      dup4\n        /* \"#utility.yul\":4620:4623   */\n      dup4\n        /* \"#utility.yul\":4616:4632   */\n      add\n        /* \"#utility.yul\":4609:4636   */\n      mstore\n        /* \"#utility.yul\":4495:4643   */\n      pop\n      pop\n      pop\n      jump\t// out\n        /* \"#utility.yul\":4649:5074   */\n    tag_277:\n        /* \"#utility.yul\":4727:4732   */\n      0x00\n        /* \"#utility.yul\":4752:4818   */\n      tag_365\n        /* \"#utility.yul\":4768:4817   */\n      tag_366\n        /* \"#utility.yul\":4810:4816   */\n      dup5\n        /* \"#utility.yul\":4768:4817   */\n      tag_275\n      jump\t// in\n    tag_366:\n        /* \"#utility.yul\":4752:4818   */\n      tag_274\n      jump\t// in\n    tag_365:\n        /* \"#utility.yul\":4743:4818   */\n      swap1\n      pop\n        /* \"#utility.yul\":4841:4847   */\n      dup3\n        /* \"#utility.yul\":4834:4839   */\n      dup2\n        /* \"#utility.yul\":4827:4848   */\n      mstore\n        /* \"#utility.yul\":4879:4883   */\n      0x20\n        /* \"#utility.yul\":4872:4877   */\n      dup2\n        /* \"#utility.yul\":4868:4884   */\n      add\n        /* \"#utility.yul\":4917:4920   */\n      dup5\n        /* \"#utility.yul\":4908:4914   */\n      dup5\n        /* \"#utility.yul\":4903:4906   */\n      dup5\n        /* \"#utility.yul\":4899:4915   */\n      add\n        /* \"#utility.yul\":4896:4921   */\n      gt\n        /* \"#utility.yul\":4893:5005   */\n      iszero\n      tag_367\n      jumpi\n        /* \"#utility.yul\":4924:5003   */\n      tag_368\n      tag_272\n      jump\t// in\n    tag_368:\n        /* \"#utility.yul\":4893:5005   */\n    tag_367:\n        /* \"#utility.yul\":5014:5068   */\n      tag_369\n        /* \"#utility.yul\":5061:5067   */\n      dup5\n        /* \"#utility.yul\":5056:5059   */\n      dup3\n        /* \"#utility.yul\":5051:5054   */\n      dup6\n        /* \"#utility.yul\":5014:5068   */\n      tag_276\n      jump\t// in\n    tag_369:\n        /* \"#utility.yul\":4733:5074   */\n      pop\n        /* \"#utility.yul\":4649:5074   */\n      swap4\n      swap3\n      pop\n      pop\n      pop\n      jump\t// out\n        /* \"#utility.yul\":5094:5434   */\n    tag_278:\n        /* \"#utility.yul\":5150:5155   */\n      0x00\n        /* \"#utility.yul\":5199:5202   */\n      dup3\n        /* \"#utility.yul\":5192:5196   */\n      0x1f\n        /* \"#utility.yul\":5184:5190   */\n      dup4\n        /* \"#utility.yul\":5180:5197   */\n      add\n        /* \"#utility.yul\":5176:5203   */\n      slt\n        /* \"#utility.yul\":5166:5288   */\n      tag_371\n      jumpi\n        /* \"#utility.yul\":5207:5286   */\n      tag_372\n      tag_271\n      jump\t// in\n    tag_372:\n        /* \"#utility.yul\":5166:5288   */\n    tag_371:\n        /* \"#utility.yul\":5324:5330   */\n      dup2\n        /* \"#utility.yul\":5311:5331   */\n      calldataload\n        /* \"#utility.yul\":5349:5428   */\n      tag_373\n        /* \"#utility.yul\":5424:5427   */\n      dup5\n        /* \"#utility.yul\":5416:5422   */\n      dup3\n        /* \"#utility.yul\":5409:5413   */\n      0x20\n        /* \"#utility.yul\":5401:5407   */\n      dup7\n        /* \"#utility.yul\":5397:5414   */\n      add\n        /* \"#utility.yul\":5349:5428   */\n      tag_277\n      jump\t// in\n    tag_373:\n        /* \"#utility.yul\":5340:5428   */\n      swap2\n      pop\n        /* \"#utility.yul\":5156:5434   */\n      pop\n        /* \"#utility.yul\":5094:5434   */\n      swap3\n      swap2\n      pop\n      pop\n      jump\t// out\n        /* \"#utility.yul\":5440:5949   */\n    tag_32:\n        /* \"#utility.yul\":5509:5515   */\n      0x00\n        /* \"#utility.yul\":5558:5560   */\n      0x20\n        /* \"#utility.yul\":5546:5555   */\n      dup3\n        /* \"#utility.yul\":5537:5544   */\n      dup5\n        /* \"#utility.yul\":5533:5556   */\n      sub\n        /* \"#utility.yul\":5529:5561   */\n      slt\n        /* \"#utility.yul\":5526:5645   */\n      iszero\n      tag_375\n      jumpi\n        /* \"#utility.yul\":5564:5643   */\n      tag_376\n      tag_260\n      jump\t// in\n    tag_376:\n        /* \"#utility.yul\":5526:5645   */\n    tag_375:\n        /* \"#utility.yul\":5712:5713   */\n      0x00\n        /* \"#utility.yul\":5701:5710   */\n      dup3\n        /* \"#utility.yul\":5697:5714   */\n      add\n        /* \"#utility.yul\":5684:5715   */\n      calldataload\n        /* \"#utility.yul\":5742:5760   */\n      0xffffffffffffffff\n        /* \"#utility.yul\":5734:5740   */\n      dup2\n        /* \"#utility.yul\":5731:5761   */\n      gt\n        /* \"#utility.yul\":5728:5845   */\n      iszero\n      tag_377\n      jumpi\n        /* \"#utility.yul\":5764:5843   */\n      tag_378\n      tag_261\n      jump\t// in\n    tag_378:\n        /* \"#utility.yul\":5728:5845   */\n    tag_377:\n        /* \"#utility.yul\":5869:5932   */\n      tag_379\n        /* \"#utility.yul\":5924:5931   */\n      dup5\n        /* \"#utility.yul\":5915:5921   */\n      dup3\n        /* \"#utility.yul\":5904:5913   */\n      dup6\n        /* \"#utility.yul\":5900:5922   */\n      add\n        /* \"#utility.yul\":5869:5932   */\n      tag_278\n      jump\t// in\n    tag_379:\n        /* \"#utility.yul\":5859:5932   */\n      swap2\n      pop\n        /* \"#utility.yul\":5655:5942   */\n      pop\n        /* \"#utility.yul\":5440:5949   */\n      swap3\n      swap2\n      pop\n      pop\n      jump\t// out\n        /* \"#utility.yul\":5955:6177   */\n    tag_35:\n        /* \"#utility.yul\":6048:6052   */\n      0x00\n        /* \"#utility.yul\":6086:6088   */\n      0x20\n        /* \"#utility.yul\":6075:6084   */\n      dup3\n        /* \"#utility.yul\":6071:6089   */\n      add\n        /* \"#utility.yul\":6063:6089   */\n      swap1\n      pop\n        /* \"#utility.yul\":6099:6170   */\n      tag_381\n        /* \"#utility.yul\":6167:6168   */\n      0x00\n        /* \"#utility.yul\":6156:6165   */\n      dup4\n        /* \"#utility.yul\":6152:6169   */\n      add\n        /* \"#utility.yul\":6143:6149   */\n      dup5\n        /* \"#utility.yul\":6099:6170   */\n      tag_270\n      jump\t// in\n    tag_381:\n        /* \"#utility.yul\":5955:6177   */\n      swap3\n      swap2\n      pop\n      pop\n      jump\t// out\n        /* \"#utility.yul\":6183:6320   */\n    tag_279:\n        /* \"#utility.yul\":6273:6279   */\n      0x00\n        /* \"#utility.yul\":6307:6312   */\n      dup2\n        /* \"#utility.yul\":6301:6313   */\n      mload\n        /* \"#utility.yul\":6291:6313   */\n      swap1\n      pop\n        /* \"#utility.yul\":6183:6320   */\n      swap2\n      swap1\n      pop\n      jump\t// out\n        /* \"#utility.yul\":6326:6533   */\n    tag_280:\n        /* \"#utility.yul\":6448:6459   */\n      0x00\n        /* \"#utility.yul\":6482:6488   */\n      dup3\n        /* \"#utility.yul\":6477:6480   */\n      dup3\n        /* \"#utility.yul\":6470:6489   */\n      mstore\n        /* \"#utility.yul\":6522:6526   */\n      0x20\n        /* \"#utility.yul\":6517:6520   */\n      dup3\n        /* \"#utility.yul\":6513:6527   */\n      add\n        /* \"#utility.yul\":6498:6527   */\n      swap1\n      pop\n        /* \"#utility.yul\":6326:6533   */\n      swap3\n      swap2\n      pop\n      pop\n      jump\t// out\n        /* \"#utility.yul\":6539:6694   */\n    tag_281:\n        /* \"#utility.yul\":6629:6633   */\n      0x00\n        /* \"#utility.yul\":6652:6655   */\n      dup2\n        /* \"#utility.yul\":6644:6655   */\n      swap1\n      pop\n        /* \"#utility.yul\":6682:6686   */\n      0x20\n        /* \"#utility.yul\":6677:6680   */\n      dup3\n        /* \"#utility.yul\":6673:6687   */\n      add\n        /* \"#utility.yul\":6665:6687   */\n      swap1\n      pop\n        /* \"#utility.yul\":6539:6694   */\n      swap2\n      swap1\n      pop\n      jump\t// out\n        /* \"#utility.yul\":6700:6859   */\n    tag_282:\n        /* \"#utility.yul\":6774:6785   */\n      0x00\n        /* \"#utility.yul\":6808:6814   */\n      dup3\n        /* \"#utility.yul\":6803:6806   */\n      dup3\n        /* \"#utility.yul\":6796:6815   */\n      mstore\n        /* \"#utility.yul\":6848:6852   */\n      0x20\n        /* \"#utility.yul\":6843:6846   */\n      dup3\n        /* \"#utility.yul\":6839:6853   */\n      add\n        /* \"#utility.yul\":6824:6853   */\n      swap1\n      pop\n        /* \"#utility.yul\":6700:6859   */\n      swap3\n      swap2\n      pop\n      pop\n      jump\t// out\n        /* \"#utility.yul\":6865:7222   */\n    tag_283:\n        /* \"#utility.yul\":6943:6946   */\n      0x00\n        /* \"#utility.yul\":6971:7010   */\n      tag_387\n        /* \"#utility.yul\":7004:7009   */\n      dup3\n        /* \"#utility.yul\":6971:7010   */\n      tag_265\n      jump\t// in\n    tag_387:\n        /* \"#utility.yul\":7026:7087   */\n      tag_388\n        /* \"#utility.yul\":7080:7086   */\n      dup2\n        /* \"#utility.yul\":7075:7078   */\n      dup6\n        /* \"#utility.yul\":7026:7087   */\n      tag_282\n      jump\t// in\n    tag_388:\n        /* \"#utility.yul\":7019:7087   */\n      swap4\n      pop\n        /* \"#utility.yul\":7096:7161   */\n      tag_389\n        /* \"#utility.yul\":7154:7160   */\n      dup2\n        /* \"#utility.yul\":7149:7152   */\n      dup6\n        /* \"#utility.yul\":7142:7146   */\n      0x20\n        /* \"#utility.yul\":7135:7140   */\n      dup7\n        /* \"#utility.yul\":7131:7147   */\n      add\n        /* \"#utility.yul\":7096:7161   */\n      tag_267\n      jump\t// in\n    tag_389:\n        /* \"#utility.yul\":7186:7215   */\n      tag_390\n        /* \"#utility.yul\":7208:7214   */\n      dup2\n        /* \"#utility.yul\":7186:7215   */\n      tag_268\n      jump\t// in\n    tag_390:\n        /* \"#utility.yul\":7181:7184   */\n      dup5\n        /* \"#utility.yul\":7177:7216   */\n      add\n        /* \"#utility.yul\":7170:7216   */\n      swap2\n      pop\n        /* \"#utility.yul\":6947:7222   */\n      pop\n        /* \"#utility.yul\":6865:7222   */\n      swap3\n      swap2\n      pop\n      pop\n      jump\t// out\n        /* \"#utility.yul\":7228:7336   */\n    tag_284:\n        /* \"#utility.yul\":7305:7329   */\n      tag_392\n        /* \"#utility.yul\":7323:7328   */\n      dup2\n        /* \"#utility.yul\":7305:7329   */\n      tag_262\n      jump\t// in\n    tag_392:\n        /* \"#utility.yul\":7300:7303   */\n      dup3\n        /* \"#utility.yul\":7293:7330   */\n      mstore\n        /* \"#utility.yul\":7228:7336   */\n      pop\n      pop\n      jump\t// out\n        /* \"#utility.yul\":7394:8655   */\n    tag_285:\n        /* \"#utility.yul\":7499:7502   */\n      0x00\n        /* \"#utility.yul\":7535:7539   */\n      0xa0\n        /* \"#utility.yul\":7530:7533   */\n      dup4\n        /* \"#utility.yul\":7526:7540   */\n      add\n        /* \"#utility.yul\":7622:7626   */\n      0x00\n        /* \"#utility.yul\":7615:7620   */\n      dup4\n        /* \"#utility.yul\":7611:7627   */\n      add\n        /* \"#utility.yul\":7605:7628   */\n      mload\n        /* \"#utility.yul\":7675:7678   */\n      dup5\n        /* \"#utility.yul\":7669:7673   */\n      dup3\n        /* \"#utility.yul\":7665:7679   */\n      sub\n        /* \"#utility.yul\":7658:7662   */\n      0x00\n        /* \"#utility.yul\":7653:7656   */\n      dup7\n        /* \"#utility.yul\":7649:7663   */\n      add\n        /* \"#utility.yul\":7642:7680   */\n      mstore\n        /* \"#utility.yul\":7701:7774   */\n      tag_394\n        /* \"#utility.yul\":7769:7773   */\n      dup3\n        /* \"#utility.yul\":7755:7767   */\n      dup3\n        /* \"#utility.yul\":7701:7774   */\n      tag_283\n      jump\t// in\n    tag_394:\n        /* \"#utility.yul\":7693:7774   */\n      swap2\n      pop\n        /* \"#utility.yul\":7550:7785   */\n      pop\n        /* \"#utility.yul\":7869:7873   */\n      0x20\n        /* \"#utility.yul\":7862:7867   */\n      dup4\n        /* \"#utility.yul\":7858:7874   */\n      add\n        /* \"#utility.yul\":7852:7875   */\n      mload\n        /* \"#utility.yul\":7888:7951   */\n      tag_395\n        /* \"#utility.yul\":7945:7949   */\n      0x20\n        /* \"#utility.yul\":7940:7943   */\n      dup7\n        /* \"#utility.yul\":7936:7950   */\n      add\n        /* \"#utility.yul\":7922:7934   */\n      dup3\n        /* \"#utility.yul\":7888:7951   */\n      tag_284\n      jump\t// in\n    tag_395:\n        /* \"#utility.yul\":7795:7961   */\n      pop\n        /* \"#utility.yul\":8044:8048   */\n      0x40\n        /* \"#utility.yul\":8037:8042   */\n      dup4\n        /* \"#utility.yul\":8033:8049   */\n      add\n        /* \"#utility.yul\":8027:8050   */\n      mload\n        /* \"#utility.yul\":8063:8126   */\n      tag_396\n        /* \"#utility.yul\":8120:8124   */\n      0x40\n        /* \"#utility.yul\":8115:8118   */\n      dup7\n        /* \"#utility.yul\":8111:8125   */\n      add\n        /* \"#utility.yul\":8097:8109   */\n      dup3\n        /* \"#utility.yul\":8063:8126   */\n      tag_284\n      jump\t// in\n    tag_396:\n        /* \"#utility.yul\":7971:8136   */\n      pop\n        /* \"#utility.yul\":8219:8223   */\n      0x60\n        /* \"#utility.yul\":8212:8217   */\n      dup4\n        /* \"#utility.yul\":8208:8224   */\n      add\n        /* \"#utility.yul\":8202:8225   */\n      mload\n        /* \"#utility.yul\":8272:8275   */\n      dup5\n        /* \"#utility.yul\":8266:8270   */\n      dup3\n        /* \"#utility.yul\":8262:8276   */\n      sub\n        /* \"#utility.yul\":8255:8259   */\n      0x60\n        /* \"#utility.yul\":8250:8253   */\n      dup7\n        /* \"#utility.yul\":8246:8260   */\n      add\n        /* \"#utility.yul\":8239:8277   */\n      mstore\n        /* \"#utility.yul\":8298:8371   */\n      tag_397\n        /* \"#utility.yul\":8366:8370   */\n      dup3\n        /* \"#utility.yul\":8352:8364   */\n      dup3\n        /* \"#utility.yul\":8298:8371   */\n      tag_283\n      jump\t// in\n    tag_397:\n        /* \"#utility.yul\":8290:8371   */\n      swap2\n      pop\n        /* \"#utility.yul\":8146:8382   */\n      pop\n        /* \"#utility.yul\":8465:8469   */\n      0x80\n        /* \"#utility.yul\":8458:8463   */\n      dup4\n        /* \"#utility.yul\":8454:8470   */\n      add\n        /* \"#utility.yul\":8448:8471   */\n      mload\n        /* \"#utility.yul\":8518:8521   */\n      dup5\n        /* \"#utility.yul\":8512:8516   */\n      dup3\n        /* \"#utility.yul\":8508:8522   */\n      sub\n        /* \"#utility.yul\":8501:8505   */\n      0x80\n        /* \"#utility.yul\":8496:8499   */\n      dup7\n        /* \"#utility.yul\":8492:8506   */\n      add\n        /* \"#utility.yul\":8485:8523   */\n      mstore\n        /* \"#utility.yul\":8544:8617   */\n      tag_398\n        /* \"#utility.yul\":8612:8616   */\n      dup3\n        /* \"#utility.yul\":8598:8610   */\n      dup3\n        /* \"#utility.yul\":8544:8617   */\n      tag_283\n      jump\t// in\n    tag_398:\n        /* \"#utility.yul\":8536:8617   */\n      swap2\n      pop\n        /* \"#utility.yul\":8392:8628   */\n      pop\n        /* \"#utility.yul\":8645:8649   */\n      dup1\n        /* \"#utility.yul\":8638:8649   */\n      swap2\n      pop\n        /* \"#utility.yul\":7504:8655   */\n      pop\n        /* \"#utility.yul\":7394:8655   */\n      swap3\n      swap2\n      pop\n      pop\n      jump\t// out\n        /* \"#utility.yul\":8661:8909   */\n    tag_286:\n        /* \"#utility.yul\":8776:8786   */\n      0x00\n        /* \"#utility.yul\":8811:8903   */\n      tag_400\n        /* \"#utility.yul\":8899:8902   */\n      dup4\n        /* \"#utility.yul\":8891:8897   */\n      dup4\n        /* \"#utility.yul\":8811:8903   */\n      tag_285\n      jump\t// in\n    tag_400:\n        /* \"#utility.yul\":8797:8903   */\n      swap1\n      pop\n        /* \"#utility.yul\":8661:8909   */\n      swap3\n      swap2\n      pop\n      pop\n      jump\t// out\n        /* \"#utility.yul\":8915:9051   */\n    tag_287:\n        /* \"#utility.yul\":9008:9012   */\n      0x00\n        /* \"#utility.yul\":9040:9044   */\n      0x20\n        /* \"#utility.yul\":9035:9038   */\n      dup3\n        /* \"#utility.yul\":9031:9045   */\n      add\n        /* \"#utility.yul\":9023:9045   */\n      swap1\n      pop\n        /* \"#utility.yul\":8915:9051   */\n      swap2\n      swap1\n      pop\n      jump\t// out\n        /* \"#utility.yul\":9113:10208   */\n    tag_288:\n        /* \"#utility.yul\":9278:9281   */\n      0x00\n        /* \"#utility.yul\":9307:9384   */\n      tag_403\n        /* \"#utility.yul\":9378:9383   */\n      dup3\n        /* \"#utility.yul\":9307:9384   */\n      tag_279\n      jump\t// in\n    tag_403:\n        /* \"#utility.yul\":9400:9509   */\n      tag_404\n        /* \"#utility.yul\":9502:9508   */\n      dup2\n        /* \"#utility.yul\":9497:9500   */\n      dup6\n        /* \"#utility.yul\":9400:9509   */\n      tag_280\n      jump\t// in\n    tag_404:\n        /* \"#utility.yul\":9393:9509   */\n      swap4\n      pop\n        /* \"#utility.yul\":9535:9538   */\n      dup4\n        /* \"#utility.yul\":9580:9584   */\n      0x20\n        /* \"#utility.yul\":9572:9578   */\n      dup3\n        /* \"#utility.yul\":9568:9585   */\n      mul\n        /* \"#utility.yul\":9563:9566   */\n      dup6\n        /* \"#utility.yul\":9559:9586   */\n      add\n        /* \"#utility.yul\":9610:9689   */\n      tag_405\n        /* \"#utility.yul\":9683:9688   */\n      dup6\n        /* \"#utility.yul\":9610:9689   */\n      tag_281\n      jump\t// in\n    tag_405:\n        /* \"#utility.yul\":9712:9719   */\n      dup1\n        /* \"#utility.yul\":9743:9744   */\n      0x00\n        /* \"#utility.yul\":9728:10163   */\n    tag_406:\n        /* \"#utility.yul\":9753:9759   */\n      dup6\n        /* \"#utility.yul\":9750:9751   */\n      dup2\n        /* \"#utility.yul\":9747:9760   */\n      lt\n        /* \"#utility.yul\":9728:10163   */\n      iszero\n      tag_408\n      jumpi\n        /* \"#utility.yul\":9824:9833   */\n      dup5\n        /* \"#utility.yul\":9818:9822   */\n      dup5\n        /* \"#utility.yul\":9814:9834   */\n      sub\n        /* \"#utility.yul\":9809:9812   */\n      dup10\n        /* \"#utility.yul\":9802:9835   */\n      mstore\n        /* \"#utility.yul\":9875:9881   */\n      dup2\n        /* \"#utility.yul\":9869:9882   */\n      mload\n        /* \"#utility.yul\":9903:10013   */\n      tag_409\n        /* \"#utility.yul\":10008:10012   */\n      dup6\n        /* \"#utility.yul\":9993:10006   */\n      dup3\n        /* \"#utility.yul\":9903:10013   */\n      tag_286\n      jump\t// in\n    tag_409:\n        /* \"#utility.yul\":9895:10013   */\n      swap5\n      pop\n        /* \"#utility.yul\":10036:10119   */\n      tag_410\n        /* \"#utility.yul\":10112:10118   */\n      dup4\n        /* \"#utility.yul\":10036:10119   */\n      tag_287\n      jump\t// in\n    tag_410:\n        /* \"#utility.yul\":10026:10119   */\n      swap3\n      pop\n        /* \"#utility.yul\":10148:10152   */\n      0x20\n        /* \"#utility.yul\":10143:10146   */\n      dup11\n        /* \"#utility.yul\":10139:10153   */\n      add\n        /* \"#utility.yul\":10132:10153   */\n      swap10\n      pop\n        /* \"#utility.yul\":9788:10163   */\n      pop\n        /* \"#utility.yul\":9775:9776   */\n      0x01\n        /* \"#utility.yul\":9772:9773   */\n      dup2\n        /* \"#utility.yul\":9768:9777   */\n      add\n        /* \"#utility.yul\":9763:9777   */\n      swap1\n      pop\n        /* \"#utility.yul\":9728:10163   */\n      jump(tag_406)\n    tag_408:\n        /* \"#utility.yul\":9732:9746   */\n      pop\n        /* \"#utility.yul\":10179:10183   */\n      dup3\n        /* \"#utility.yul\":10172:10183   */\n      swap8\n      pop\n        /* \"#utility.yul\":10199:10202   */\n      dup8\n        /* \"#utility.yul\":10192:10202   */\n      swap6\n      pop\n        /* \"#utility.yul\":9283:10208   */\n      pop\n      pop\n      pop\n      pop\n      pop\n        /* \"#utility.yul\":9113:10208   */\n      swap3\n      swap2\n      pop\n      pop\n      jump\t// out\n        /* \"#utility.yul\":10214:10789   */\n    tag_42:\n        /* \"#utility.yul\":10431:10435   */\n      0x00\n        /* \"#utility.yul\":10469:10471   */\n      0x40\n        /* \"#utility.yul\":10458:10467   */\n      dup3\n        /* \"#utility.yul\":10454:10472   */\n      add\n        /* \"#utility.yul\":10446:10472   */\n      swap1\n      pop\n        /* \"#utility.yul\":10482:10553   */\n      tag_412\n        /* \"#utility.yul\":10550:10551   */\n      0x00\n        /* \"#utility.yul\":10539:10548   */\n      dup4\n        /* \"#utility.yul\":10535:10552   */\n      add\n        /* \"#utility.yul\":10526:10532   */\n      dup6\n        /* \"#utility.yul\":10482:10553   */\n      tag_270\n      jump\t// in\n    tag_412:\n        /* \"#utility.yul\":10600:10609   */\n      dup2\n        /* \"#utility.yul\":10594:10598   */\n      dup2\n        /* \"#utility.yul\":10590:10610   */\n      sub\n        /* \"#utility.yul\":10585:10587   */\n      0x20\n        /* \"#utility.yul\":10574:10583   */\n      dup4\n        /* \"#utility.yul\":10570:10588   */\n      add\n        /* \"#utility.yul\":10563:10611   */\n      mstore\n        /* \"#utility.yul\":10628:10782   */\n      tag_413\n        /* \"#utility.yul\":10777:10781   */\n      dup2\n        /* \"#utility.yul\":10768:10774   */\n      dup5\n        /* \"#utility.yul\":10628:10782   */\n      tag_288\n      jump\t// in\n    tag_413:\n        /* \"#utility.yul\":10620:10782   */\n      swap1\n      pop\n        /* \"#utility.yul\":10214:10789   */\n      swap4\n      swap3\n      pop\n      pop\n      pop\n      jump\t// out\n        /* \"#utility.yul\":10795:11920   */\n    tag_45:\n        /* \"#utility.yul\":10901:10907   */\n      0x00\n        /* \"#utility.yul\":10909:10915   */\n      dup1\n        /* \"#utility.yul\":10917:10923   */\n      0x00\n        /* \"#utility.yul\":10925:10931   */\n      dup1\n        /* \"#utility.yul\":10974:10977   */\n      0x80\n        /* \"#utility.yul\":10962:10971   */\n      dup6\n        /* \"#utility.yul\":10953:10960   */\n      dup8\n        /* \"#utility.yul\":10949:10972   */\n      sub\n        /* \"#utility.yul\":10945:10978   */\n      slt\n        /* \"#utility.yul\":10942:11062   */\n      iszero\n      tag_415\n      jumpi\n        /* \"#utility.yul\":10981:11060   */\n      tag_416\n      tag_260\n      jump\t// in\n    tag_416:\n        /* \"#utility.yul\":10942:11062   */\n    tag_415:\n        /* \"#utility.yul\":11129:11130   */\n      0x00\n        /* \"#utility.yul\":11118:11127   */\n      dup6\n        /* \"#utility.yul\":11114:11131   */\n      add\n        /* \"#utility.yul\":11101:11132   */\n      calldataload\n        /* \"#utility.yul\":11159:11177   */\n      0xffffffffffffffff\n        /* \"#utility.yul\":11151:11157   */\n      dup2\n        /* \"#utility.yul\":11148:11178   */\n      gt\n        /* \"#utility.yul\":11145:11262   */\n      iszero\n      tag_417\n      jumpi\n        /* \"#utility.yul\":11181:11260   */\n      tag_418\n      tag_261\n      jump\t// in\n    tag_418:\n        /* \"#utility.yul\":11145:11262   */\n    tag_417:\n        /* \"#utility.yul\":11286:11349   */\n      tag_419\n        /* \"#utility.yul\":11341:11348   */\n      dup8\n        /* \"#utility.yul\":11332:11338   */\n      dup3\n        /* \"#utility.yul\":11321:11330   */\n      dup9\n        /* \"#utility.yul\":11317:11339   */\n      add\n        /* \"#utility.yul\":11286:11349   */\n      tag_278\n      jump\t// in\n    tag_419:\n        /* \"#utility.yul\":11276:11349   */\n      swap5\n      pop\n        /* \"#utility.yul\":11072:11359   */\n      pop\n        /* \"#utility.yul\":11398:11400   */\n      0x20\n        /* \"#utility.yul\":11424:11477   */\n      tag_420\n        /* \"#utility.yul\":11469:11476   */\n      dup8\n        /* \"#utility.yul\":11460:11466   */\n      dup3\n        /* \"#utility.yul\":11449:11458   */\n      dup9\n        /* \"#utility.yul\":11445:11467   */\n      add\n        /* \"#utility.yul\":11424:11477   */\n      tag_264\n      jump\t// in\n    tag_420:\n        /* \"#utility.yul\":11414:11477   */\n      swap4\n      pop\n        /* \"#utility.yul\":11369:11487   */\n      pop\n        /* \"#utility.yul\":11526:11528   */\n      0x40\n        /* \"#utility.yul\":11552:11605   */\n      tag_421\n        /* \"#utility.yul\":11597:11604   */\n      dup8\n        /* \"#utility.yul\":11588:11594   */\n      dup3\n        /* \"#utility.yul\":11577:11586   */\n      dup9\n        /* \"#utility.yul\":11573:11595   */\n      add\n        /* \"#utility.yul\":11552:11605   */\n      tag_264\n      jump\t// in\n    tag_421:\n        /* \"#utility.yul\":11542:11605   */\n      swap3\n      pop\n        /* \"#utility.yul\":11497:11615   */\n      pop\n        /* \"#utility.yul\":11682:11684   */\n      0x60\n        /* \"#utility.yul\":11671:11680   */\n      dup6\n        /* \"#utility.yul\":11667:11685   */\n      add\n        /* \"#utility.yul\":11654:11686   */\n      calldataload\n        /* \"#utility.yul\":11713:11731   */\n      0xffffffffffffffff\n        /* \"#utility.yul\":11705:11711   */\n      dup2\n        /* \"#utility.yul\":11702:11732   */\n      gt\n        /* \"#utility.yul\":11699:11816   */\n      iszero\n      tag_422\n      jumpi\n        /* \"#utility.yul\":11735:11814   */\n      tag_423\n      tag_261\n      jump\t// in\n    tag_423:\n        /* \"#utility.yul\":11699:11816   */\n    tag_422:\n        /* \"#utility.yul\":11840:11903   */\n      tag_424\n        /* \"#utility.yul\":11895:11902   */\n      dup8\n        /* \"#utility.yul\":11886:11892   */\n      dup3\n        /* \"#utility.yul\":11875:11884   */\n      dup9\n        /* \"#utility.yul\":11871:11893   */\n      add\n        /* \"#utility.yul\":11840:11903   */\n      tag_278\n      jump\t// in\n    tag_424:\n        /* \"#utility.yul\":11830:11903   */\n      swap2\n      pop\n        /* \"#utility.yul\":11625:11913   */\n      pop\n        /* \"#utility.yul\":10795:11920   */\n      swap3\n      swap6\n      swap2\n      swap5\n      pop\n      swap3\n      pop\n      jump\t// out\n        /* \"#utility.yul\":11926:12016   */\n    tag_289:\n        /* \"#utility.yul\":11960:11967   */\n      0x00\n        /* \"#utility.yul\":12003:12008   */\n      dup2\n        /* \"#utility.yul\":11996:12009   */\n      iszero\n        /* \"#utility.yul\":11989:12010   */\n      iszero\n        /* \"#utility.yul\":11978:12010   */\n      swap1\n      pop\n        /* \"#utility.yul\":11926:12016   */\n      swap2\n      swap1\n      pop\n      jump\t// out\n        /* \"#utility.yul\":12022:12131   */\n    tag_290:\n        /* \"#utility.yul\":12103:12124   */\n      tag_427\n        /* \"#utility.yul\":12118:12123   */\n      dup2\n        /* \"#utility.yul\":12103:12124   */\n      tag_289\n      jump\t// in\n    tag_427:\n        /* \"#utility.yul\":12098:12101   */\n      dup3\n        /* \"#utility.yul\":12091:12125   */\n      mstore\n        /* \"#utility.yul\":12022:12131   */\n      pop\n      pop\n      jump\t// out\n        /* \"#utility.yul\":12137:12347   */\n    tag_50:\n        /* \"#utility.yul\":12224:12228   */\n      0x00\n        /* \"#utility.yul\":12262:12264   */\n      0x20\n        /* \"#utility.yul\":12251:12260   */\n      dup3\n        /* \"#utility.yul\":12247:12265   */\n      add\n        /* \"#utility.yul\":12239:12265   */\n      swap1\n      pop\n        /* \"#utility.yul\":12275:12340   */\n      tag_429\n        /* \"#utility.yul\":12337:12338   */\n      0x00\n        /* \"#utility.yul\":12326:12335   */\n      dup4\n        /* \"#utility.yul\":12322:12339   */\n      add\n        /* \"#utility.yul\":12313:12319   */\n      dup5\n        /* \"#utility.yul\":12275:12340   */\n      tag_290\n      jump\t// in\n    tag_429:\n        /* \"#utility.yul\":12137:12347   */\n      swap3\n      swap2\n      pop\n      pop\n      jump\t// out\n        /* \"#utility.yul\":12353:12818   */\n    tag_54:\n        /* \"#utility.yul\":12542:12546   */\n      0x00\n        /* \"#utility.yul\":12580:12582   */\n      0x20\n        /* \"#utility.yul\":12569:12578   */\n      dup3\n        /* \"#utility.yul\":12565:12583   */\n      add\n        /* \"#utility.yul\":12557:12583   */\n      swap1\n      pop\n        /* \"#utility.yul\":12629:12638   */\n      dup2\n        /* \"#utility.yul\":12623:12627   */\n      dup2\n        /* \"#utility.yul\":12619:12639   */\n      sub\n        /* \"#utility.yul\":12615:12616   */\n      0x00\n        /* \"#utility.yul\":12604:12613   */\n      dup4\n        /* \"#utility.yul\":12600:12617   */\n      add\n        /* \"#utility.yul\":12593:12640   */\n      mstore\n        /* \"#utility.yul\":12657:12811   */\n      tag_431\n        /* \"#utility.yul\":12806:12810   */\n      dup2\n        /* \"#utility.yul\":12797:12803   */\n      dup5\n        /* \"#utility.yul\":12657:12811   */\n      tag_288\n      jump\t// in\n    tag_431:\n        /* \"#utility.yul\":12649:12811   */\n      swap1\n      pop\n        /* \"#utility.yul\":12353:12818   */\n      swap3\n      swap2\n      pop\n      pop\n      jump\t// out\n        /* \"#utility.yul\":12824:13004   */\n    tag_291:\n        /* \"#utility.yul\":12872:12949   */\n      0x4e487b7100000000000000000000000000000000000000000000000000000000\n        /* \"#utility.yul\":12869:12870   */\n      0x00\n        /* \"#utility.yul\":12862:12950   */\n      mstore\n        /* \"#utility.yul\":12969:12973   */\n      0x22\n        /* \"#utility.yul\":12966:12967   */\n      0x04\n        /* \"#utility.yul\":12959:12974   */\n      mstore\n        /* \"#utility.yul\":12993:12997   */\n      0x24\n        /* \"#utility.yul\":12990:12991   */\n      0x00\n        /* \"#utility.yul\":12983:12998   */\n      revert\n        /* \"#utility.yul\":13010:13330   */\n    tag_65:\n        /* \"#utility.yul\":13054:13060   */\n      0x00\n        /* \"#utility.yul\":13091:13092   */\n      0x02\n        /* \"#utility.yul\":13085:13089   */\n      dup3\n        /* \"#utility.yul\":13081:13093   */\n      div\n        /* \"#utility.yul\":13071:13093   */\n      swap1\n      pop\n        /* \"#utility.yul\":13138:13139   */\n      0x01\n        /* \"#utility.yul\":13132:13136   */\n      dup3\n        /* \"#utility.yul\":13128:13140   */\n      and\n        /* \"#utility.yul\":13159:13177   */\n      dup1\n        /* \"#utility.yul\":13149:13230   */\n      tag_434\n      jumpi\n        /* \"#utility.yul\":13215:13219   */\n      0x7f\n        /* \"#utility.yul\":13207:13213   */\n      dup3\n        /* \"#utility.yul\":13203:13220   */\n      and\n        /* \"#utility.yul\":13193:13220   */\n      swap2\n      pop\n        /* \"#utility.yul\":13149:13230   */\n    tag_434:\n        /* \"#utility.yul\":13277:13279   */\n      0x20\n        /* \"#utility.yul\":13269:13275   */\n      dup3\n        /* \"#utility.yul\":13266:13280   */\n      lt\n        /* \"#utility.yul\":13246:13264   */\n      dup2\n        /* \"#utility.yul\":13243:13281   */\n      sub\n        /* \"#utility.yul\":13240:13324   */\n      tag_435\n      jumpi\n        /* \"#utility.yul\":13296:13314   */\n      tag_436\n      tag_291\n      jump\t// in\n    tag_436:\n        /* \"#utility.yul\":13240:13324   */\n    tag_435:\n        /* \"#utility.yul\":13061:13330   */\n      pop\n        /* \"#utility.yul\":13010:13330   */\n      swap2\n      swap1\n      pop\n      jump\t// out\n        /* \"#utility.yul\":13336:13503   */\n    tag_292:\n        /* \"#utility.yul\":13476:13495   */\n      0x53747564656e74206e6f7420666f756e64000000000000000000000000000000\n        /* \"#utility.yul\":13472:13473   */\n      0x00\n        /* \"#utility.yul\":13464:13470   */\n      dup3\n        /* \"#utility.yul\":13460:13474   */\n      add\n        /* \"#utility.yul\":13453:13496   */\n      mstore\n        /* \"#utility.yul\":13336:13503   */\n      pop\n      jump\t// out\n        /* \"#utility.yul\":13509:13875   */\n    tag_293:\n        /* \"#utility.yul\":13651:13654   */\n      0x00\n        /* \"#utility.yul\":13672:13739   */\n      tag_439\n        /* \"#utility.yul\":13736:13738   */\n      0x11\n        /* \"#utility.yul\":13731:13734   */\n      dup4\n        /* \"#utility.yul\":13672:13739   */\n      tag_266\n      jump\t// in\n    tag_439:\n        /* \"#utility.yul\":13665:13739   */\n      swap2\n      pop\n        /* \"#utility.yul\":13748:13841   */\n      tag_440\n        /* \"#utility.yul\":13837:13840   */\n      dup3\n        /* \"#utility.yul\":13748:13841   */\n      tag_292\n      jump\t// in\n    tag_440:\n        /* \"#utility.yul\":13866:13868   */\n      0x20\n        /* \"#utility.yul\":13861:13864   */\n      dup3\n        /* \"#utility.yul\":13857:13869   */\n      add\n        /* \"#utility.yul\":13850:13869   */\n      swap1\n      pop\n        /* \"#utility.yul\":13509:13875   */\n      swap2\n      swap1\n      pop\n      jump\t// out\n        /* \"#utility.yul\":13881:14300   */\n    tag_93:\n        /* \"#utility.yul\":14047:14051   */\n      0x00\n        /* \"#utility.yul\":14085:14087   */\n      0x20\n        /* \"#utility.yul\":14074:14083   */\n      dup3\n        /* \"#utility.yul\":14070:14088   */\n      add\n        /* \"#utility.yul\":14062:14088   */\n      swap1\n      pop\n        /* \"#utility.yul\":14134:14143   */\n      dup2\n        /* \"#utility.yul\":14128:14132   */\n      dup2\n        /* \"#utility.yul\":14124:14144   */\n      sub\n        /* \"#utility.yul\":14120:14121   */\n      0x00\n        /* \"#utility.yul\":14109:14118   */\n      dup4\n        /* \"#utility.yul\":14105:14122   */\n      add\n        /* \"#utility.yul\":14098:14145   */\n      mstore\n        /* \"#utility.yul\":14162:14293   */\n      tag_442\n        /* \"#utility.yul\":14288:14292   */\n      dup2\n        /* \"#utility.yul\":14162:14293   */\n      tag_293\n      jump\t// in\n    tag_442:\n        /* \"#utility.yul\":14154:14293   */\n      swap1\n      pop\n        /* \"#utility.yul\":13881:14300   */\n      swap2\n      swap1\n      pop\n      jump\t// out\n        /* \"#utility.yul\":14306:14486   */\n    tag_294:\n        /* \"#utility.yul\":14354:14431   */\n      0x4e487b7100000000000000000000000000000000000000000000000000000000\n        /* \"#utility.yul\":14351:14352   */\n      0x00\n        /* \"#utility.yul\":14344:14432   */\n      mstore\n        /* \"#utility.yul\":14451:14455   */\n      0x11\n        /* \"#utility.yul\":14448:14449   */\n      0x04\n        /* \"#utility.yul\":14441:14456   */\n      mstore\n        /* \"#utility.yul\":14475:14479   */\n      0x24\n        /* \"#utility.yul\":14472:14473   */\n      0x00\n        /* \"#utility.yul\":14465:14480   */\n      revert\n        /* \"#utility.yul\":14492:14686   */\n    tag_95:\n        /* \"#utility.yul\":14532:14536   */\n      0x00\n        /* \"#utility.yul\":14552:14572   */\n      tag_445\n        /* \"#utility.yul\":14570:14571   */\n      dup3\n        /* \"#utility.yul\":14552:14572   */\n      tag_262\n      jump\t// in\n    tag_445:\n        /* \"#utility.yul\":14547:14572   */\n      swap2\n      pop\n        /* \"#utility.yul\":14586:14606   */\n      tag_446\n        /* \"#utility.yul\":14604:14605   */\n      dup4\n        /* \"#utility.yul\":14586:14606   */\n      tag_262\n      jump\t// in\n    tag_446:\n        /* \"#utility.yul\":14581:14606   */\n      swap3\n      pop\n        /* \"#utility.yul\":14630:14631   */\n      dup3\n        /* \"#utility.yul\":14627:14628   */\n      dup3\n        /* \"#utility.yul\":14623:14632   */\n      sub\n        /* \"#utility.yul\":14615:14632   */\n      swap1\n      pop\n        /* \"#utility.yul\":14654:14655   */\n      dup2\n        /* \"#utility.yul\":14648:14652   */\n      dup2\n        /* \"#utility.yul\":14645:14656   */\n      gt\n        /* \"#utility.yul\":14642:14679   */\n      iszero\n      tag_447\n      jumpi\n        /* \"#utility.yul\":14659:14677   */\n      tag_448\n      tag_294\n      jump\t// in\n    tag_448:\n        /* \"#utility.yul\":14642:14679   */\n    tag_447:\n        /* \"#utility.yul\":14492:14686   */\n      swap3\n      swap2\n      pop\n      pop\n      jump\t// out\n        /* \"#utility.yul\":14692:14872   */\n    tag_98:\n        /* \"#utility.yul\":14740:14817   */\n      0x4e487b7100000000000000000000000000000000000000000000000000000000\n        /* \"#utility.yul\":14737:14738   */\n      0x00\n        /* \"#utility.yul\":14730:14818   */\n      mstore\n        /* \"#utility.yul\":14837:14841   */\n      0x32\n        /* \"#utility.yul\":14834:14835   */\n      0x04\n        /* \"#utility.yul\":14827:14842   */\n      mstore\n        /* \"#utility.yul\":14861:14865   */\n      0x24\n        /* \"#utility.yul\":14858:14859   */\n      0x00\n        /* \"#utility.yul\":14851:14866   */\n      revert\n        /* \"#utility.yul\":14878:15025   */\n    tag_295:\n        /* \"#utility.yul\":14979:14990   */\n      0x00\n        /* \"#utility.yul\":15016:15019   */\n      dup2\n        /* \"#utility.yul\":15001:15019   */\n      swap1\n      pop\n        /* \"#utility.yul\":14878:15025   */\n      swap3\n      swap2\n      pop\n      pop\n      jump\t// out\n        /* \"#utility.yul\":15031:15175   */\n    tag_296:\n        /* \"#utility.yul\":15083:15087   */\n      0x00\n        /* \"#utility.yul\":15106:15109   */\n      dup2\n        /* \"#utility.yul\":15098:15109   */\n      swap1\n      pop\n        /* \"#utility.yul\":15129:15132   */\n      dup2\n        /* \"#utility.yul\":15126:15127   */\n      0x00\n        /* \"#utility.yul\":15119:15133   */\n      mstore\n        /* \"#utility.yul\":15163:15167   */\n      0x20\n        /* \"#utility.yul\":15160:15161   */\n      0x00\n        /* \"#utility.yul\":15150:15168   */\n      keccak256\n        /* \"#utility.yul\":15142:15168   */\n      swap1\n      pop\n        /* \"#utility.yul\":15031:15175   */\n      swap2\n      swap1\n      pop\n      jump\t// out\n        /* \"#utility.yul\":15203:16081   */\n    tag_297:\n        /* \"#utility.yul\":15308:15311   */\n      0x00\n        /* \"#utility.yul\":15345:15350   */\n      dup2\n        /* \"#utility.yul\":15339:15351   */\n      sload\n        /* \"#utility.yul\":15374:15410   */\n      tag_453\n        /* \"#utility.yul\":15400:15409   */\n      dup2\n        /* \"#utility.yul\":15374:15410   */\n      tag_65\n      jump\t// in\n    tag_453:\n        /* \"#utility.yul\":15426:15514   */\n      tag_454\n        /* \"#utility.yul\":15507:15513   */\n      dup2\n        /* \"#utility.yul\":15502:15505   */\n      dup7\n        /* \"#utility.yul\":15426:15514   */\n      tag_295\n      jump\t// in\n    tag_454:\n        /* \"#utility.yul\":15419:15514   */\n      swap5\n      pop\n        /* \"#utility.yul\":15545:15546   */\n      0x01\n        /* \"#utility.yul\":15534:15543   */\n      dup3\n        /* \"#utility.yul\":15530:15547   */\n      and\n        /* \"#utility.yul\":15561:15562   */\n      0x00\n        /* \"#utility.yul\":15556:15722   */\n      dup2\n      eq\n      tag_456\n      jumpi\n        /* \"#utility.yul\":15736:15737   */\n      0x01\n        /* \"#utility.yul\":15731:16075   */\n      dup2\n      eq\n      tag_457\n      jumpi\n        /* \"#utility.yul\":15523:16075   */\n      jump(tag_455)\n        /* \"#utility.yul\":15556:15722   */\n    tag_456:\n        /* \"#utility.yul\":15640:15644   */\n      0xff\n        /* \"#utility.yul\":15636:15645   */\n      not\n        /* \"#utility.yul\":15625:15634   */\n      dup4\n        /* \"#utility.yul\":15621:15646   */\n      and\n        /* \"#utility.yul\":15616:15619   */\n      dup7\n        /* \"#utility.yul\":15609:15647   */\n      mstore\n        /* \"#utility.yul\":15702:15708   */\n      dup2\n        /* \"#utility.yul\":15695:15709   */\n      iszero\n        /* \"#utility.yul\":15688:15710   */\n      iszero\n        /* \"#utility.yul\":15680:15686   */\n      dup3\n        /* \"#utility.yul\":15676:15711   */\n      mul\n        /* \"#utility.yul\":15671:15674   */\n      dup7\n        /* \"#utility.yul\":15667:15712   */\n      add\n        /* \"#utility.yul\":15660:15712   */\n      swap4\n      pop\n        /* \"#utility.yul\":15556:15722   */\n      jump(tag_455)\n        /* \"#utility.yul\":15731:16075   */\n    tag_457:\n        /* \"#utility.yul\":15798:15839   */\n      tag_458\n        /* \"#utility.yul\":15833:15838   */\n      dup6\n        /* \"#utility.yul\":15798:15839   */\n      tag_296\n      jump\t// in\n    tag_458:\n        /* \"#utility.yul\":15861:15862   */\n      0x00\n        /* \"#utility.yul\":15875:16029   */\n    tag_459:\n        /* \"#utility.yul\":15889:15895   */\n      dup4\n        /* \"#utility.yul\":15886:15887   */\n      dup2\n        /* \"#utility.yul\":15883:15896   */\n      lt\n        /* \"#utility.yul\":15875:16029   */\n      iszero\n      tag_461\n      jumpi\n        /* \"#utility.yul\":15963:15970   */\n      dup2\n        /* \"#utility.yul\":15957:15971   */\n      sload\n        /* \"#utility.yul\":15953:15954   */\n      dup2\n        /* \"#utility.yul\":15948:15951   */\n      dup10\n        /* \"#utility.yul\":15944:15955   */\n      add\n        /* \"#utility.yul\":15937:15972   */\n      mstore\n        /* \"#utility.yul\":16013:16014   */\n      0x01\n        /* \"#utility.yul\":16004:16011   */\n      dup3\n        /* \"#utility.yul\":16000:16015   */\n      add\n        /* \"#utility.yul\":15989:16015   */\n      swap2\n      pop\n        /* \"#utility.yul\":15911:15915   */\n      0x20\n        /* \"#utility.yul\":15908:15909   */\n      dup2\n        /* \"#utility.yul\":15904:15916   */\n      add\n        /* \"#utility.yul\":15899:15916   */\n      swap1\n      pop\n        /* \"#utility.yul\":15875:16029   */\n      jump(tag_459)\n    tag_461:\n        /* \"#utility.yul\":16058:16064   */\n      dup4\n        /* \"#utility.yul\":16053:16056   */\n      dup9\n        /* \"#utility.yul\":16049:16065   */\n      add\n        /* \"#utility.yul\":16042:16065   */\n      swap6\n      pop\n        /* \"#utility.yul\":15738:16075   */\n      pop\n      pop\n        /* \"#utility.yul\":15523:16075   */\n    tag_455:\n      pop\n        /* \"#utility.yul\":15312:16081   */\n      pop\n      pop\n        /* \"#utility.yul\":15203:16081   */\n      swap3\n      swap2\n      pop\n      pop\n      jump\t// out\n        /* \"#utility.yul\":16087:16360   */\n    tag_123:\n        /* \"#utility.yul\":16218:16221   */\n      0x00\n        /* \"#utility.yul\":16240:16334   */\n      tag_463\n        /* \"#utility.yul\":16330:16333   */\n      dup3\n        /* \"#utility.yul\":16321:16327   */\n      dup5\n        /* \"#utility.yul\":16240:16334   */\n      tag_297\n      jump\t// in\n    tag_463:\n        /* \"#utility.yul\":16233:16334   */\n      swap2\n      pop\n        /* \"#utility.yul\":16351:16354   */\n      dup2\n        /* \"#utility.yul\":16344:16354   */\n      swap1\n      pop\n        /* \"#utility.yul\":16087:16360   */\n      swap3\n      swap2\n      pop\n      pop\n      jump\t// out\n        /* \"#utility.yul\":16366:16527   */\n    tag_298:\n        /* \"#utility.yul\":16506:16519   */\n      0x4e6f2073747564656e7473000000000000000000000000000000000000000000\n        /* \"#utility.yul\":16502:16503   */\n      0x00\n        /* \"#utility.yul\":16494:16500   */\n      dup3\n        /* \"#utility.yul\":16490:16504   */\n      add\n        /* \"#utility.yul\":16483:16520   */\n      mstore\n        /* \"#utility.yul\":16366:16527   */\n      pop\n      jump\t// out\n        /* \"#utility.yul\":16533:16899   */\n    tag_299:\n        /* \"#utility.yul\":16675:16678   */\n      0x00\n        /* \"#utility.yul\":16696:16763   */\n      tag_466\n        /* \"#utility.yul\":16760:16762   */\n      0x0b\n        /* \"#utility.yul\":16755:16758   */\n      dup4\n        /* \"#utility.yul\":16696:16763   */\n      tag_266\n      jump\t// in\n    tag_466:\n        /* \"#utility.yul\":16689:16763   */\n      swap2\n      pop\n        /* \"#utility.yul\":16772:16865   */\n      tag_467\n        /* \"#utility.yul\":16861:16864   */\n      dup3\n        /* \"#utility.yul\":16772:16865   */\n      tag_298\n      jump\t// in\n    tag_467:\n        /* \"#utility.yul\":16890:16892   */\n      0x20\n        /* \"#utility.yul\":16885:16888   */\n      dup3\n        /* \"#utility.yul\":16881:16893   */\n      add\n        /* \"#utility.yul\":16874:16893   */\n      swap1\n      pop\n        /* \"#utility.yul\":16533:16899   */\n      swap2\n      swap1\n      pop\n      jump\t// out\n        /* \"#utility.yul\":16905:17324   */\n    tag_132:\n        /* \"#utility.yul\":17071:17075   */\n      0x00\n        /* \"#utility.yul\":17109:17111   */\n      0x20\n        /* \"#utility.yul\":17098:17107   */\n      dup3\n        /* \"#utility.yul\":17094:17112   */\n      add\n        /* \"#utility.yul\":17086:17112   */\n      swap1\n      pop\n        /* \"#utility.yul\":17158:17167   */\n      dup2\n        /* \"#utility.yul\":17152:17156   */\n      dup2\n        /* \"#utility.yul\":17148:17168   */\n      sub\n        /* \"#utility.yul\":17144:17145   */\n      0x00\n        /* \"#utility.yul\":17133:17142   */\n      dup4\n        /* \"#utility.yul\":17129:17146   */\n      add\n        /* \"#utility.yul\":17122:17169   */\n      mstore\n        /* \"#utility.yul\":17186:17317   */\n      tag_469\n        /* \"#utility.yul\":17312:17316   */\n      dup2\n        /* \"#utility.yul\":17186:17317   */\n      tag_299\n      jump\t// in\n    tag_469:\n        /* \"#utility.yul\":17178:17317   */\n      swap1\n      pop\n        /* \"#utility.yul\":16905:17324   */\n      swap2\n      swap1\n      pop\n      jump\t// out\n        /* \"#utility.yul\":17330:17521   */\n    tag_140:\n        /* \"#utility.yul\":17370:17373   */\n      0x00\n        /* \"#utility.yul\":17389:17409   */\n      tag_471\n        /* \"#utility.yul\":17407:17408   */\n      dup3\n        /* \"#utility.yul\":17389:17409   */\n      tag_262\n      jump\t// in\n    tag_471:\n        /* \"#utility.yul\":17384:17409   */\n      swap2\n      pop\n        /* \"#utility.yul\":17423:17443   */\n      tag_472\n        /* \"#utility.yul\":17441:17442   */\n      dup4\n        /* \"#utility.yul\":17423:17443   */\n      tag_262\n      jump\t// in\n    tag_472:\n        /* \"#utility.yul\":17418:17443   */\n      swap3\n      pop\n        /* \"#utility.yul\":17466:17467   */\n      dup3\n        /* \"#utility.yul\":17463:17464   */\n      dup3\n        /* \"#utility.yul\":17459:17468   */\n      add\n        /* \"#utility.yul\":17452:17468   */\n      swap1\n      pop\n        /* \"#utility.yul\":17487:17490   */\n      dup1\n        /* \"#utility.yul\":17484:17485   */\n      dup3\n        /* \"#utility.yul\":17481:17491   */\n      gt\n        /* \"#utility.yul\":17478:17514   */\n      iszero\n      tag_473\n      jumpi\n        /* \"#utility.yul\":17494:17512   */\n      tag_474\n      tag_294\n      jump\t// in\n    tag_474:\n        /* \"#utility.yul\":17478:17514   */\n    tag_473:\n        /* \"#utility.yul\":17330:17521   */\n      swap3\n      swap2\n      pop\n      pop\n      jump\t// out\n        /* \"#utility.yul\":17527:17707   */\n    tag_300:\n        /* \"#utility.yul\":17575:17652   */\n      0x4e487b7100000000000000000000000000000000000000000000000000000000\n        /* \"#utility.yul\":17572:17573   */\n      0x00\n        /* \"#utility.yul\":17565:17653   */\n      mstore\n        /* \"#utility.yul\":17672:17676   */\n      0x12\n        /* \"#utility.yul\":17669:17670   */\n      0x04\n        /* \"#utility.yul\":17662:17677   */\n      mstore\n        /* \"#utility.yul\":17696:17700   */\n      0x24\n        /* \"#utility.yul\":17693:17694   */\n      0x00\n        /* \"#utility.yul\":17686:17701   */\n      revert\n        /* \"#utility.yul\":17713:17898   */\n    tag_142:\n        /* \"#utility.yul\":17753:17754   */\n      0x00\n        /* \"#utility.yul\":17770:17790   */\n      tag_477\n        /* \"#utility.yul\":17788:17789   */\n      dup3\n        /* \"#utility.yul\":17770:17790   */\n      tag_262\n      jump\t// in\n    tag_477:\n        /* \"#utility.yul\":17765:17790   */\n      swap2\n      pop\n        /* \"#utility.yul\":17804:17824   */\n      tag_478\n        /* \"#utility.yul\":17822:17823   */\n      dup4\n        /* \"#utility.yul\":17804:17824   */\n      tag_262\n      jump\t// in\n    tag_478:\n        /* \"#utility.yul\":17799:17824   */\n      swap3\n      pop\n        /* \"#utility.yul\":17843:17844   */\n      dup3\n        /* \"#utility.yul\":17833:17868   */\n      tag_479\n      jumpi\n        /* \"#utility.yul\":17848:17866   */\n      tag_480\n      tag_300\n      jump\t// in\n    tag_480:\n        /* \"#utility.yul\":17833:17868   */\n    tag_479:\n        /* \"#utility.yul\":17890:17891   */\n      dup3\n        /* \"#utility.yul\":17887:17888   */\n      dup3\n        /* \"#utility.yul\":17883:17892   */\n      div\n        /* \"#utility.yul\":17878:17892   */\n      swap1\n      pop\n        /* \"#utility.yul\":17713:17898   */\n      swap3\n      swap2\n      pop\n      pop\n      jump\t// out\n        /* \"#utility.yul\":17904:18137   */\n    tag_153:\n        /* \"#utility.yul\":17943:17946   */\n      0x00\n        /* \"#utility.yul\":17966:17990   */\n      tag_482\n        /* \"#utility.yul\":17984:17989   */\n      dup3\n        /* \"#utility.yul\":17966:17990   */\n      tag_262\n      jump\t// in\n    tag_482:\n        /* \"#utility.yul\":17957:17990   */\n      swap2\n      pop\n        /* \"#utility.yul\":18012:18078   */\n      0xffffffffffffffffffffffffffffffffffffffffffffffffffffffffffffffff\n        /* \"#utility.yul\":18005:18010   */\n      dup3\n        /* \"#utility.yul\":18002:18079   */\n      sub\n        /* \"#utility.yul\":17999:18102   */\n      tag_483\n      jumpi\n        /* \"#utility.yul\":18082:18100   */\n      tag_484\n      tag_294\n      jump\t// in\n    tag_484:\n        /* \"#utility.yul\":17999:18102   */\n    tag_483:\n        /* \"#utility.yul\":18129:18130   */\n      0x01\n        /* \"#utility.yul\":18122:18127   */\n      dup3\n        /* \"#utility.yul\":18118:18131   */\n      add\n        /* \"#utility.yul\":18111:18131   */\n      swap1\n      pop\n        /* \"#utility.yul\":17904:18137   */\n      swap2\n      swap1\n      pop\n      jump\t// out\n        /* \"#utility.yul\":18143:18284   */\n    tag_301:\n        /* \"#utility.yul\":18192:18196   */\n      0x00\n        /* \"#utility.yul\":18215:18218   */\n      dup2\n        /* \"#utility.yul\":18207:18218   */\n      swap1\n      pop\n        /* \"#utility.yul\":18238:18241   */\n      dup2\n        /* \"#utility.yul\":18235:18236   */\n      0x00\n        /* \"#utility.yul\":18228:18242   */\n      mstore\n        /* \"#utility.yul\":18272:18276   */\n      0x20\n        /* \"#utility.yul\":18269:18270   */\n      0x00\n        /* \"#utility.yul\":18259:18277   */\n      keccak256\n        /* \"#utility.yul\":18251:18277   */\n      swap1\n      pop\n        /* \"#utility.yul\":18143:18284   */\n      swap2\n      swap1\n      pop\n      jump\t// out\n        /* \"#utility.yul\":18290:18383   */\n    tag_302:\n        /* \"#utility.yul\":18327:18333   */\n      0x00\n        /* \"#utility.yul\":18374:18376   */\n      0x20\n        /* \"#utility.yul\":18369:18371   */\n      0x1f\n        /* \"#utility.yul\":18362:18367   */\n      dup4\n        /* \"#utility.yul\":18358:18372   */\n      add\n        /* \"#utility.yul\":18354:18377   */\n      div\n        /* \"#utility.yul\":18344:18377   */\n      swap1\n      pop\n        /* \"#utility.yul\":18290:18383   */\n      swap2\n      swap1\n      pop\n      jump\t// out\n        /* \"#utility.yul\":18389:18496   */\n    tag_303:\n        /* \"#utility.yul\":18433:18441   */\n      0x00\n        /* \"#utility.yul\":18483:18488   */\n      dup3\n        /* \"#utility.yul\":18477:18481   */\n      dup3\n        /* \"#utility.yul\":18473:18489   */\n      shl\n        /* \"#utility.yul\":18452:18489   */\n      swap1\n      pop\n        /* \"#utility.yul\":18389:18496   */\n      swap3\n      swap2\n      pop\n      pop\n      jump\t// out\n        /* \"#utility.yul\":18502:18895   */\n    tag_304:\n        /* \"#utility.yul\":18571:18577   */\n      0x00\n        /* \"#utility.yul\":18621:18622   */\n      0x08\n        /* \"#utility.yul\":18609:18619   */\n      dup4\n        /* \"#utility.yul\":18605:18623   */\n      mul\n        /* \"#utility.yul\":18644:18741   */\n      tag_489\n        /* \"#utility.yul\":18674:18740   */\n      0xffffffffffffffffffffffffffffffffffffffffffffffffffffffffffffffff\n        /* \"#utility.yul\":18663:18672   */\n      dup3\n        /* \"#utility.yul\":18644:18741   */\n      tag_303\n      jump\t// in\n    tag_489:\n        /* \"#utility.yul\":18762:18801   */\n      tag_490\n        /* \"#utility.yul\":18792:18800   */\n      dup7\n        /* \"#utility.yul\":18781:18790   */\n      dup4\n        /* \"#utility.yul\":18762:18801   */\n      tag_303\n      jump\t// in\n    tag_490:\n        /* \"#utility.yul\":18750:18801   */\n      swap6\n      pop\n        /* \"#utility.yul\":18834:18838   */\n      dup1\n        /* \"#utility.yul\":18830:18839   */\n      not\n        /* \"#utility.yul\":18823:18828   */\n      dup5\n        /* \"#utility.yul\":18819:18840   */\n      and\n        /* \"#utility.yul\":18810:18840   */\n      swap4\n      pop\n        /* \"#utility.yul\":18883:18887   */\n      dup1\n        /* \"#utility.yul\":18873:18881   */\n      dup7\n        /* \"#utility.yul\":18869:18888   */\n      and\n        /* \"#utility.yul\":18862:18867   */\n      dup5\n        /* \"#utility.yul\":18859:18889   */\n      or\n        /* \"#utility.yul\":18849:18889   */\n      swap3\n      pop\n        /* \"#utility.yul\":18578:18895   */\n      pop\n      pop\n        /* \"#utility.yul\":18502:18895   */\n      swap4\n      swap3\n      pop\n      pop\n      pop\n      jump\t// out\n        /* \"#utility.yul\":18901:18961   */\n    tag_305:\n        /* \"#utility.yul\":18929:18932   */\n      0x00\n        /* \"#utility.yul\":18950:18955   */\n      dup2\n        /* \"#utility.yul\":18943:18955   */\n      swap1\n      pop\n        /* \"#utility.yul\":18901:18961   */\n      swap2\n      swap1\n      pop\n      jump\t// out\n        /* \"#utility.yul\":18967:19109   */\n    tag_306:\n        /* \"#utility.yul\":19017:19026   */\n      0x00\n        /* \"#utility.yul\":19050:19103   */\n      tag_493\n        /* \"#utility.yul\":19068:19102   */\n      tag_494\n        /* \"#utility.yul\":19077:19101   */\n      tag_495\n        /* \"#utility.yul\":19095:19100   */\n      dup5\n        /* \"#utility.yul\":19077:19101   */\n      tag_262\n      jump\t// in\n    tag_495:\n        /* \"#utility.yul\":19068:19102   */\n      tag_305\n      jump\t// in\n    tag_494:\n        /* \"#utility.yul\":19050:19103   */\n      tag_262\n      jump\t// in\n    tag_493:\n        /* \"#utility.yul\":19037:19103   */\n      swap1\n      pop\n        /* \"#utility.yul\":18967:19109   */\n      swap2\n      swap1\n      pop\n      jump\t// out\n        /* \"#utility.yul\":19115:19190   */\n    tag_307:\n        /* \"#utility.yul\":19158:19161   */\n      0x00\n        /* \"#utility.yul\":19179:19184   */\n      dup2\n        /* \"#utility.yul\":19172:19184   */\n      swap1\n      pop\n        /* \"#utility.yul\":19115:19190   */\n      swap2\n      swap1\n      pop\n      jump\t// out\n        /* \"#utility.yul\":19196:19465   */\n    tag_308:\n        /* \"#utility.yul\":19306:19345   */\n      tag_498\n        /* \"#utility.yul\":19337:19344   */\n      dup4\n        /* \"#utility.yul\":19306:19345   */\n      tag_306\n      jump\t// in\n    tag_498:\n        /* \"#utility.yul\":19367:19458   */\n      tag_499\n        /* \"#utility.yul\":19416:19457   */\n      tag_500\n        /* \"#utility.yul\":19440:19456   */\n      dup3\n        /* \"#utility.yul\":19416:19457   */\n      tag_307\n      jump\t// in\n    tag_500:\n        /* \"#utility.yul\":19408:19414   */\n      dup5\n        /* \"#utility.yul\":19401:19405   */\n      dup5\n        /* \"#utility.yul\":19395:19406   */\n      sload\n        /* \"#utility.yul\":19367:19458   */\n      tag_304\n      jump\t// in\n    tag_499:\n        /* \"#utility.yul\":19361:19365   */\n      dup3\n        /* \"#utility.yul\":19354:19459   */\n      sstore\n        /* \"#utility.yul\":19272:19465   */\n      pop\n        /* \"#utility.yul\":19196:19465   */\n      pop\n      pop\n      pop\n      jump\t// out\n        /* \"#utility.yul\":19471:19544   */\n    tag_309:\n        /* \"#utility.yul\":19516:19519   */\n      0x00\n        /* \"#utility.yul\":19471:19544   */\n      swap1\n      jump\t// out\n        /* \"#utility.yul\":19550:19739   */\n    tag_310:\n        /* \"#utility.yul\":19627:19659   */\n      tag_503\n      tag_309\n      jump\t// in\n    tag_503:\n        /* \"#utility.yul\":19668:19733   */\n      tag_504\n        /* \"#utility.yul\":19726:19732   */\n      dup2\n        /* \"#utility.yul\":19718:19724   */\n      dup5\n        /* \"#utility.yul\":19712:19716   */\n      dup5\n        /* \"#utility.yul\":19668:19733   */\n      tag_308\n      jump\t// in\n    tag_504:\n        /* \"#utility.yul\":19603:19739   */\n      pop\n        /* \"#utility.yul\":19550:19739   */\n      pop\n      pop\n      jump\t// out\n        /* \"#utility.yul\":19745:19931   */\n    tag_311:\n        /* \"#utility.yul\":19805:19925   */\n    tag_506:\n        /* \"#utility.yul\":19822:19825   */\n      dup2\n        /* \"#utility.yul\":19815:19820   */\n      dup2\n        /* \"#utility.yul\":19812:19826   */\n      lt\n        /* \"#utility.yul\":19805:19925   */\n      iszero\n      tag_508\n      jumpi\n        /* \"#utility.yul\":19876:19915   */\n      tag_509\n        /* \"#utility.yul\":19913:19914   */\n      0x00\n        /* \"#utility.yul\":19906:19911   */\n      dup3\n        /* \"#utility.yul\":19876:19915   */\n      tag_310\n      jump\t// in\n    tag_509:\n        /* \"#utility.yul\":19849:19850   */\n      0x01\n        /* \"#utility.yul\":19842:19847   */\n      dup2\n        /* \"#utility.yul\":19838:19851   */\n      add\n        /* \"#utility.yul\":19829:19851   */\n      swap1\n      pop\n        /* \"#utility.yul\":19805:19925   */\n      jump(tag_506)\n    tag_508:\n        /* \"#utility.yul\":19745:19931   */\n      pop\n      pop\n      jump\t// out\n        /* \"#utility.yul\":19937:20480   */\n    tag_312:\n        /* \"#utility.yul\":20038:20040   */\n      0x1f\n        /* \"#utility.yul\":20033:20036   */\n      dup3\n        /* \"#utility.yul\":20030:20041   */\n      gt\n        /* \"#utility.yul\":20027:20473   */\n      iszero\n      tag_511\n      jumpi\n        /* \"#utility.yul\":20072:20110   */\n      tag_512\n        /* \"#utility.yul\":20104:20109   */\n      dup2\n        /* \"#utility.yul\":20072:20110   */\n      tag_301\n      jump\t// in\n    tag_512:\n        /* \"#utility.yul\":20156:20185   */\n      tag_513\n        /* \"#utility.yul\":20174:20184   */\n      dup5\n        /* \"#utility.yul\":20156:20185   */\n      tag_302\n      jump\t// in\n    tag_513:\n        /* \"#utility.yul\":20146:20154   */\n      dup2\n        /* \"#utility.yul\":20142:20186   */\n      add\n        /* \"#utility.yul\":20339:20341   */\n      0x20\n        /* \"#utility.yul\":20327:20337   */\n      dup6\n        /* \"#utility.yul\":20324:20342   */\n      lt\n        /* \"#utility.yul\":20321:20370   */\n      iszero\n      tag_514\n      jumpi\n        /* \"#utility.yul\":20360:20368   */\n      dup2\n        /* \"#utility.yul\":20345:20368   */\n      swap1\n      pop\n        /* \"#utility.yul\":20321:20370   */\n    tag_514:\n        /* \"#utility.yul\":20383:20463   */\n      tag_515\n        /* \"#utility.yul\":20439:20461   */\n      tag_516\n        /* \"#utility.yul\":20457:20460   */\n      dup6\n        /* \"#utility.yul\":20439:20461   */\n      tag_302\n      jump\t// in\n    tag_516:\n        /* \"#utility.yul\":20429:20437   */\n      dup4\n        /* \"#utility.yul\":20425:20462   */\n      add\n        /* \"#utility.yul\":20412:20423   */\n      dup3\n        /* \"#utility.yul\":20383:20463   */\n      tag_311\n      jump\t// in\n    tag_515:\n        /* \"#utility.yul\":20042:20473   */\n      pop\n      pop\n        /* \"#utility.yul\":20027:20473   */\n    tag_511:\n        /* \"#utility.yul\":19937:20480   */\n      pop\n      pop\n      pop\n      jump\t// out\n        /* \"#utility.yul\":20486:20603   */\n    tag_313:\n        /* \"#utility.yul\":20540:20548   */\n      0x00\n        /* \"#utility.yul\":20590:20595   */\n      dup3\n        /* \"#utility.yul\":20584:20588   */\n      dup3\n        /* \"#utility.yul\":20580:20596   */\n      shr\n        /* \"#utility.yul\":20559:20596   */\n      swap1\n      pop\n        /* \"#utility.yul\":20486:20603   */\n      swap3\n      swap2\n      pop\n      pop\n      jump\t// out\n        /* \"#utility.yul\":20609:20778   */\n    tag_314:\n        /* \"#utility.yul\":20653:20659   */\n      0x00\n        /* \"#utility.yul\":20686:20737   */\n      tag_519\n        /* \"#utility.yul\":20734:20735   */\n      0x00\n        /* \"#utility.yul\":20730:20736   */\n      not\n        /* \"#utility.yul\":20722:20727   */\n      dup5\n        /* \"#utility.yul\":20719:20720   */\n      0x08\n        /* \"#utility.yul\":20715:20728   */\n      mul\n        /* \"#utility.yul\":20686:20737   */\n      tag_313\n      jump\t// in\n    tag_519:\n        /* \"#utility.yul\":20682:20738   */\n      not\n        /* \"#utility.yul\":20767:20771   */\n      dup1\n        /* \"#utility.yul\":20761:20765   */\n      dup4\n        /* \"#utility.yul\":20757:20772   */\n      and\n        /* \"#utility.yul\":20747:20772   */\n      swap2\n      pop\n        /* \"#utility.yul\":20660:20778   */\n      pop\n        /* \"#utility.yul\":20609:20778   */\n      swap3\n      swap2\n      pop\n      pop\n      jump\t// out\n        /* \"#utility.yul\":20783:21078   */\n    tag_315:\n        /* \"#utility.yul\":20859:20863   */\n      0x00\n        /* \"#utility.yul\":21005:21034   */\n      tag_521\n        /* \"#utility.yul\":21030:21033   */\n      dup4\n        /* \"#utility.yul\":21024:21028   */\n      dup4\n        /* \"#utility.yul\":21005:21034   */\n      tag_314\n      jump\t// in\n    tag_521:\n        /* \"#utility.yul\":20997:21034   */\n      swap2\n      pop\n        /* \"#utility.yul\":21067:21070   */\n      dup3\n        /* \"#utility.yul\":21064:21065   */\n      0x02\n        /* \"#utility.yul\":21060:21071   */\n      mul\n        /* \"#utility.yul\":21054:21058   */\n      dup3\n        /* \"#utility.yul\":21051:21072   */\n      or\n        /* \"#utility.yul\":21043:21072   */\n      swap1\n      pop\n        /* \"#utility.yul\":20783:21078   */\n      swap3\n      swap2\n      pop\n      pop\n      jump\t// out\n        /* \"#utility.yul\":21083:22478   */\n    tag_194:\n        /* \"#utility.yul\":21200:21237   */\n      tag_523\n        /* \"#utility.yul\":21233:21236   */\n      dup3\n        /* \"#utility.yul\":21200:21237   */\n      tag_265\n      jump\t// in\n    tag_523:\n        /* \"#utility.yul\":21302:21320   */\n      0xffffffffffffffff\n        /* \"#utility.yul\":21294:21300   */\n      dup2\n        /* \"#utility.yul\":21291:21321   */\n      gt\n        /* \"#utility.yul\":21288:21344   */\n      iszero\n      tag_524\n      jumpi\n        /* \"#utility.yul\":21324:21342   */\n      tag_525\n      tag_156\n      jump\t// in\n    tag_525:\n        /* \"#utility.yul\":21288:21344   */\n    tag_524:\n        /* \"#utility.yul\":21368:21406   */\n      tag_526\n        /* \"#utility.yul\":21400:21404   */\n      dup3\n        /* \"#utility.yul\":21394:21405   */\n      sload\n        /* \"#utility.yul\":21368:21406   */\n      tag_65\n      jump\t// in\n    tag_526:\n        /* \"#utility.yul\":21453:21520   */\n      tag_527\n        /* \"#utility.yul\":21513:21519   */\n      dup3\n        /* \"#utility.yul\":21505:21511   */\n      dup3\n        /* \"#utility.yul\":21499:21503   */\n      dup6\n        /* \"#utility.yul\":21453:21520   */\n      tag_312\n      jump\t// in\n    tag_527:\n        /* \"#utility.yul\":21547:21548   */\n      0x00\n        /* \"#utility.yul\":21571:21575   */\n      0x20\n        /* \"#utility.yul\":21558:21575   */\n      swap1\n      pop\n        /* \"#utility.yul\":21603:21605   */\n      0x1f\n        /* \"#utility.yul\":21595:21601   */\n      dup4\n        /* \"#utility.yul\":21592:21606   */\n      gt\n        /* \"#utility.yul\":21620:21621   */\n      0x01\n        /* \"#utility.yul\":21615:22233   */\n      dup2\n      eq\n      tag_529\n      jumpi\n        /* \"#utility.yul\":22277:22278   */\n      0x00\n        /* \"#utility.yul\":22294:22300   */\n      dup5\n        /* \"#utility.yul\":22291:22368   */\n      iszero\n      tag_530\n      jumpi\n        /* \"#utility.yul\":22343:22352   */\n      dup3\n        /* \"#utility.yul\":22338:22341   */\n      dup8\n        /* \"#utility.yul\":22334:22353   */\n      add\n        /* \"#utility.yul\":22328:22354   */\n      mload\n        /* \"#utility.yul\":22319:22354   */\n      swap1\n      pop\n        /* \"#utility.yul\":22291:22368   */\n    tag_530:\n        /* \"#utility.yul\":22394:22461   */\n      tag_531\n        /* \"#utility.yul\":22454:22460   */\n      dup6\n        /* \"#utility.yul\":22447:22452   */\n      dup3\n        /* \"#utility.yul\":22394:22461   */\n      tag_315\n      jump\t// in\n    tag_531:\n        /* \"#utility.yul\":22388:22392   */\n      dup7\n        /* \"#utility.yul\":22381:22462   */\n      sstore\n        /* \"#utility.yul\":22250:22472   */\n      pop\n        /* \"#utility.yul\":21585:22472   */\n      jump(tag_528)\n        /* \"#utility.yul\":21615:22233   */\n    tag_529:\n        /* \"#utility.yul\":21667:21671   */\n      0x1f\n        /* \"#utility.yul\":21663:21672   */\n      not\n        /* \"#utility.yul\":21655:21661   */\n      dup5\n        /* \"#utility.yul\":21651:21673   */\n      and\n        /* \"#utility.yul\":21701:21738   */\n      tag_532\n        /* \"#utility.yul\":21733:21737   */\n      dup7\n        /* \"#utility.yul\":21701:21738   */\n      tag_301\n      jump\t// in\n    tag_532:\n        /* \"#utility.yul\":21760:21761   */\n      0x00\n        /* \"#utility.yul\":21774:21982   */\n    tag_533:\n        /* \"#utility.yul\":21788:21795   */\n      dup3\n        /* \"#utility.yul\":21785:21786   */\n      dup2\n        /* \"#utility.yul\":21782:21796   */\n      lt\n        /* \"#utility.yul\":21774:21982   */\n      iszero\n      tag_535\n      jumpi\n        /* \"#utility.yul\":21867:21876   */\n      dup5\n        /* \"#utility.yul\":21862:21865   */\n      dup10\n        /* \"#utility.yul\":21858:21877   */\n      add\n        /* \"#utility.yul\":21852:21878   */\n      mload\n        /* \"#utility.yul\":21844:21850   */\n      dup3\n        /* \"#utility.yul\":21837:21879   */\n      sstore\n        /* \"#utility.yul\":21918:21919   */\n      0x01\n        /* \"#utility.yul\":21910:21916   */\n      dup3\n        /* \"#utility.yul\":21906:21920   */\n      add\n        /* \"#utility.yul\":21896:21920   */\n      swap2\n      pop\n        /* \"#utility.yul\":21965:21967   */\n      0x20\n        /* \"#utility.yul\":21954:21963   */\n      dup6\n        /* \"#utility.yul\":21950:21968   */\n      add\n        /* \"#utility.yul\":21937:21968   */\n      swap5\n      pop\n        /* \"#utility.yul\":21811:21815   */\n      0x20\n        /* \"#utility.yul\":21808:21809   */\n      dup2\n        /* \"#utility.yul\":21804:21816   */\n      add\n        /* \"#utility.yul\":21799:21816   */\n      swap1\n      pop\n        /* \"#utility.yul\":21774:21982   */\n      jump(tag_533)\n    tag_535:\n        /* \"#utility.yul\":22010:22016   */\n      dup7\n        /* \"#utility.yul\":22001:22008   */\n      dup4\n        /* \"#utility.yul\":21998:22017   */\n      lt\n        /* \"#utility.yul\":21995:22174   */\n      iszero\n      tag_536\n      jumpi\n        /* \"#utility.yul\":22068:22077   */\n      dup5\n        /* \"#utility.yul\":22063:22066   */\n      dup10\n        /* \"#utility.yul\":22059:22078   */\n      add\n        /* \"#utility.yul\":22053:22079   */\n      mload\n        /* \"#utility.yul\":22111:22159   */\n      tag_537\n        /* \"#utility.yul\":22153:22157   */\n      0x1f\n        /* \"#utility.yul\":22145:22151   */\n      dup10\n        /* \"#utility.yul\":22141:22158   */\n      and\n        /* \"#utility.yul\":22130:22139   */\n      dup3\n        /* \"#utility.yul\":22111:22159   */\n      tag_314\n      jump\t// in\n    tag_537:\n        /* \"#utility.yul\":22103:22109   */\n      dup4\n        /* \"#utility.yul\":22096:22160   */\n      sstore\n        /* \"#utility.yul\":22018:22174   */\n      pop\n        /* \"#utility.yul\":21995:22174   */\n    tag_536:\n        /* \"#utility.yul\":22220:22221   */\n      0x01\n        /* \"#utility.yul\":22216:22217   */\n      0x02\n        /* \"#utility.yul\":22208:22214   */\n      dup9\n        /* \"#utility.yul\":22204:22218   */\n      mul\n        /* \"#utility.yul\":22200:22222   */\n      add\n        /* \"#utility.yul\":22194:22198   */\n      dup9\n        /* \"#utility.yul\":22187:22223   */\n      sstore\n        /* \"#utility.yul\":21622:22233   */\n      pop\n      pop\n      pop\n        /* \"#utility.yul\":21585:22472   */\n    tag_528:\n      pop\n        /* \"#utility.yul\":21175:22478   */\n      pop\n      pop\n      pop\n        /* \"#utility.yul\":21083:22478   */\n      pop\n      pop\n      jump\t// out\n\n    auxdata: 0xa264697066735822122097a793cb87bf4b4ebed232b2166035bc3b74af9f0b91bd7e5e9d34362a5cacb764736f6c634300081a0033\n}\n",
				"bytecode": {
					"linkReferences": {},
					"object": "6080604052348015600e575f80fd5b50611eb98061001c5f395ff3fe608060405234801561000f575f80fd5b50600436106100a7575f3560e01c806398463c741161006f57806398463c74146101915780639ae52f0f146101b0578063c06a93d3146101cc578063e9e30927146101ea578063f317d02014610208578063fc9b40991461023c576100a7565b806306ead22e146100ab5780633bf1a7d1146100df5780636191f3641461010f5780637676688b1461014357806386be411414610173575b5f80fd5b6100c560048036038101906100c09190611368565b61025a565b6040516100d6959493929190611412565b60405180910390f35b6100f960048036038101906100f49190611368565b61042c565b6040516101069190611478565b60405180910390f35b61012960048036038101906101249190611368565b610580565b60405161013a959493929190611412565b60405180910390f35b61015d600480360381019061015891906115c4565b610801565b60405161016a919061160b565b60405180910390f35b61017b6108cf565b604051610188919061160b565b60405180910390f35b610199610979565b6040516101a79291906117b7565b60405180910390f35b6101ca60048036038101906101c591906117e5565b610cfd565b005b6101d4610db4565b6040516101e1919061189b565b60405180910390f35b6101f2610dcb565b6040516101ff91906118b4565b60405180910390f35b610222600480360381019061021d91906115c4565b610fe9565b604051610233959493929190611412565b60405180910390f35b6102446112ec565b604051610251919061160b565b60405180910390f35b5f8181548110610268575f80fd5b905f5260205f2090600502015f91509050805f01805461028790611901565b80601f01602080910402602001604051908101604052809291908181526020018280546102b390611901565b80156102fe5780601f106102d5576101008083540402835291602001916102fe565b820191905f5260205f20905b8154815290600101906020018083116102e157829003601f168201915b50505050509080600101549080600201549080600301805461031f90611901565b80601f016020809104026020016040519081016040528092919081815260200182805461034b90611901565b80156103965780601f1061036d57610100808354040283529160200191610396565b820191905f5260205f20905b81548152906001019060200180831161037957829003601f168201915b5050505050908060040180546103ab90611901565b80601f01602080910402602001604051908101604052809291908181526020018280546103d790611901565b80156104225780601f106103f957610100808354040283529160200191610422565b820191905f5260205f20905b81548152906001019060200180831161040557829003601f168201915b5050505050905085565b6060605a8210610473576040518060400160405280600181526020017f4100000000000000000000000000000000000000000000000000000000000000815250905061057b565b605082106104b8576040518060400160405280600181526020017f4200000000000000000000000000000000000000000000000000000000000000815250905061057b565b604682106104fd576040518060400160405280600181526020017f4300000000000000000000000000000000000000000000000000000000000000815250905061057b565b603c8210610542576040518060400160405280600181526020017f4400000000000000000000000000000000000000000000000000000000000000815250905061057b565b6040518060400160405280600181526020017f460000000000000000000000000000000000000000000000000000000000000081525090505b919050565b60605f806060805f8611801561059a57505f805490508611155b6105d9576040517f08c379a00000000000000000000000000000000000000000000000000000000081526004016105d09061197b565b60405180910390fd5b5f806001886105e891906119c6565b815481106105f9576105f86119f9565b5b905f5260205f2090600502016040518060a00160405290815f8201805461061f90611901565b80601f016020809104026020016040519081016040528092919081815260200182805461064b90611901565b80156106965780601f1061066d57610100808354040283529160200191610696565b820191905f5260205f20905b81548152906001019060200180831161067957829003601f168201915b5050505050815260200160018201548152602001600282015481526020016003820180546106c390611901565b80601f01602080910402602001604051908101604052809291908181526020018280546106ef90611901565b801561073a5780601f106107115761010080835404028352916020019161073a565b820191905f5260205f20905b81548152906001019060200180831161071d57829003601f168201915b5050505050815260200160048201805461075390611901565b80601f016020809104026020016040519081016040528092919081815260200182805461077f90611901565b80156107ca5780601f106107a1576101008083540402835291602001916107ca565b820191905f5260205f20905b8154815290600101906020018083116107ad57829003601f168201915b5050505050815250509050805f01518160200151826040015183606001518460800151955095509550955095505091939590929450565b5f805f90505b5f8054905081101561088e5782805190602001205f828154811061082e5761082d6119f9565b5b905f5260205f2090600502015f016040516108499190611ac2565b604051809103902003610881575f8181548110610869576108686119f9565b5b905f5260205f209060050201600201549150506108ca565b8080600101915050610807565b506040517f08c379a00000000000000000000000000000000000000000000000000000000081526004016108c19061197b565b60405180910390fd5b919050565b5f805f8054905011610916576040517f08c379a000000000000000000000000000000000000000000000000000000000815260040161090d90611b22565b60405180910390fd5b5f805b5f80549050811015610962575f8181548110610938576109376119f9565b5b905f5260205f20906005020160020154826109539190611b40565b91508080600101915050610919565b505f80549050816109739190611ba0565b91505090565b5f60605f805b5f80549050811015610a04577fe61d9a3d3848fb2cdd9a2ab61e2f21a10ea431275aed628a0557f9dee697c37a5f82815481106109bf576109be6119f9565b5b905f5260205f2090600502016003016040516109db9190611ac2565b6040518091039020036109f75781806109f390611bd0565b9250505b808060010191505061097f565b505f8167ffffffffffffffff811115610a2057610a1f6114a0565b5b604051908082528060200260200182016040528015610a5957816020015b610a466112f7565b815260200190600190039081610a3e5790505b5090505f805b5f80549050811015610cef577fe61d9a3d3848fb2cdd9a2ab61e2f21a10ea431275aed628a0557f9dee697c37a5f8281548110610a9f57610a9e6119f9565b5b905f5260205f209060050201600301604051610abb9190611ac2565b604051809103902003610ce2575f8181548110610adb57610ada6119f9565b5b905f5260205f2090600502016040518060a00160405290815f82018054610b0190611901565b80601f0160208091040260200160405190810160405280929190818152602001828054610b2d90611901565b8015610b785780601f10610b4f57610100808354040283529160200191610b78565b820191905f5260205f20905b815481529060010190602001808311610b5b57829003601f168201915b505050505081526020016001820154815260200160028201548152602001600382018054610ba590611901565b80601f0160208091040260200160405190810160405280929190818152602001828054610bd190611901565b8015610c1c5780601f10610bf357610100808354040283529160200191610c1c565b820191905f5260205f20905b815481529060010190602001808311610bff57829003601f168201915b50505050508152602001600482018054610c3590611901565b80601f0160208091040260200160405190810160405280929190818152602001828054610c6190611901565b8015610cac5780601f10610c8357610100808354040283529160200191610cac565b820191905f5260205f20905b815481529060010190602001808311610c8f57829003601f168201915b505050505081525050838381518110610cc857610cc76119f9565b5b60200260200101819052508180610cde90611bd0565b9250505b8080600101915050610a5f565b508282945094505050509091565b5f610d078361042c565b90505f6040518060a0016040528087815260200186815260200185815260200183815260200184815250908060018154018082558091505060019003905f5260205f2090600502015f909190919091505f820151815f019081610d6a9190611db4565b5060208201518160010155604082015181600201556060820151816003019081610d949190611db4565b506080820151816004019081610daa9190611db4565b5050505050505050565b5f80610dbe6108cf565b9050604681101591505090565b60605f805480602002602001604051908101604052809291908181526020015f905b82821015610fe0578382905f5260205f2090600502016040518060a00160405290815f82018054610e1d90611901565b80601f0160208091040260200160405190810160405280929190818152602001828054610e4990611901565b8015610e945780601f10610e6b57610100808354040283529160200191610e94565b820191905f5260205f20905b815481529060010190602001808311610e7757829003601f168201915b505050505081526020016001820154815260200160028201548152602001600382018054610ec190611901565b80601f0160208091040260200160405190810160405280929190818152602001828054610eed90611901565b8015610f385780601f10610f0f57610100808354040283529160200191610f38565b820191905f5260205f20905b815481529060010190602001808311610f1b57829003601f168201915b50505050508152602001600482018054610f5190611901565b80601f0160208091040260200160405190810160405280929190818152602001828054610f7d90611901565b8015610fc85780601f10610f9f57610100808354040283529160200191610fc8565b820191905f5260205f20905b815481529060010190602001808311610fab57829003601f168201915b50505050508152505081526020019060010190610ded565b50505050905090565b60605f806060805f5b5f805490508110156112a75786805190602001205f8281548110611019576110186119f9565b5b905f5260205f2090600502015f016040516110349190611ac2565b60405180910390200361129a575f8181548110611054576110536119f9565b5b905f5260205f2090600502015f015f8281548110611075576110746119f9565b5b905f5260205f209060050201600101545f8381548110611098576110976119f9565b5b905f5260205f209060050201600201545f84815481106110bb576110ba6119f9565b5b905f5260205f2090600502016003015f85815481106110dd576110dc6119f9565b5b905f5260205f2090600502016004018480546110f890611901565b80601f016020809104026020016040519081016040528092919081815260200182805461112490611901565b801561116f5780601f106111465761010080835404028352916020019161116f565b820191905f5260205f20905b81548152906001019060200180831161115257829003601f168201915b5050505050945081805461118290611901565b80601f01602080910402602001604051908101604052809291908181526020018280546111ae90611901565b80156111f95780601f106111d0576101008083540402835291602001916111f9565b820191905f5260205f20905b8154815290600101906020018083116111dc57829003601f168201915b5050505050915080805461120c90611901565b80601f016020809104026020016040519081016040528092919081815260200182805461123890611901565b80156112835780601f1061125a57610100808354040283529160200191611283565b820191905f5260205f20905b81548152906001019060200180831161126657829003601f168201915b5050505050905095509550955095509550506112e3565b8080600101915050610ff2565b506040517f08c379a00000000000000000000000000000000000000000000000000000000081526004016112da9061197b565b60405180910390fd5b91939590929450565b5f8080549050905090565b6040518060a00160405280606081526020015f81526020015f815260200160608152602001606081525090565b5f604051905090565b5f80fd5b5f80fd5b5f819050919050565b61134781611335565b8114611351575f80fd5b50565b5f813590506113628161133e565b92915050565b5f6020828403121561137d5761137c61132d565b5b5f61138a84828501611354565b91505092915050565b5f81519050919050565b5f82825260208201905092915050565b8281835e5f83830152505050565b5f601f19601f8301169050919050565b5f6113d582611393565b6113df818561139d565b93506113ef8185602086016113ad565b6113f8816113bb565b840191505092915050565b61140c81611335565b82525050565b5f60a0820190508181035f83015261142a81886113cb565b90506114396020830187611403565b6114466040830186611403565b818103606083015261145881856113cb565b9050818103608083015261146c81846113cb565b90509695505050505050565b5f6020820190508181035f83015261149081846113cb565b905092915050565b5f80fd5b5f80fd5b7f4e487b71000000000000000000000000000000000000000000000000000000005f52604160045260245ffd5b6114d6826113bb565b810181811067ffffffffffffffff821117156114f5576114f46114a0565b5b80604052505050565b5f611507611324565b905061151382826114cd565b919050565b5f67ffffffffffffffff821115611532576115316114a0565b5b61153b826113bb565b9050602081019050919050565b828183375f83830152505050565b5f61156861156384611518565b6114fe565b9050828152602081018484840111156115845761158361149c565b5b61158f848285611548565b509392505050565b5f82601f8301126115ab576115aa611498565b5b81356115bb848260208601611556565b91505092915050565b5f602082840312156115d9576115d861132d565b5b5f82013567ffffffffffffffff8111156115f6576115f5611331565b5b61160284828501611597565b91505092915050565b5f60208201905061161e5f830184611403565b92915050565b5f81519050919050565b5f82825260208201905092915050565b5f819050602082019050919050565b5f82825260208201905092915050565b5f61166782611393565b611671818561164d565b93506116818185602086016113ad565b61168a816113bb565b840191505092915050565b61169e81611335565b82525050565b5f60a083015f8301518482035f8601526116be828261165d565b91505060208301516116d36020860182611695565b5060408301516116e66040860182611695565b50606083015184820360608601526116fe828261165d565b91505060808301518482036080860152611718828261165d565b9150508091505092915050565b5f61173083836116a4565b905092915050565b5f602082019050919050565b5f61174e82611624565b611758818561162e565b93508360208202850161176a8561163e565b805f5b858110156117a557848403895281516117868582611725565b945061179183611738565b925060208a0199505060018101905061176d565b50829750879550505050505092915050565b5f6040820190506117ca5f830185611403565b81810360208301526117dc8184611744565b90509392505050565b5f805f80608085870312156117fd576117fc61132d565b5b5f85013567ffffffffffffffff81111561181a57611819611331565b5b61182687828801611597565b945050602061183787828801611354565b935050604061184887828801611354565b925050606085013567ffffffffffffffff81111561186957611868611331565b5b61187587828801611597565b91505092959194509250565b5f8115159050919050565b61189581611881565b82525050565b5f6020820190506118ae5f83018461188c565b92915050565b5f6020820190508181035f8301526118cc8184611744565b905092915050565b7f4e487b71000000000000000000000000000000000000000000000000000000005f52602260045260245ffd5b5f600282049050600182168061191857607f821691505b60208210810361192b5761192a6118d4565b5b50919050565b7f53747564656e74206e6f7420666f756e640000000000000000000000000000005f82015250565b5f61196560118361139d565b915061197082611931565b602082019050919050565b5f6020820190508181035f83015261199281611959565b9050919050565b7f4e487b71000000000000000000000000000000000000000000000000000000005f52601160045260245ffd5b5f6119d082611335565b91506119db83611335565b92508282039050818111156119f3576119f2611999565b5b92915050565b7f4e487b71000000000000000000000000000000000000000000000000000000005f52603260045260245ffd5b5f81905092915050565b5f819050815f5260205f209050919050565b5f8154611a4e81611901565b611a588186611a26565b9450600182165f8114611a725760018114611a8757611ab9565b60ff1983168652811515820286019350611ab9565b611a9085611a30565b5f5b83811015611ab157815481890152600182019150602081019050611a92565b838801955050505b50505092915050565b5f611acd8284611a42565b915081905092915050565b7f4e6f2073747564656e74730000000000000000000000000000000000000000005f82015250565b5f611b0c600b8361139d565b9150611b1782611ad8565b602082019050919050565b5f6020820190508181035f830152611b3981611b00565b9050919050565b5f611b4a82611335565b9150611b5583611335565b9250828201905080821115611b6d57611b6c611999565b5b92915050565b7f4e487b71000000000000000000000000000000000000000000000000000000005f52601260045260245ffd5b5f611baa82611335565b9150611bb583611335565b925082611bc557611bc4611b73565b5b828204905092915050565b5f611bda82611335565b91507fffffffffffffffffffffffffffffffffffffffffffffffffffffffffffffffff8203611c0c57611c0b611999565b5b600182019050919050565b5f819050815f5260205f209050919050565b5f6020601f8301049050919050565b5f82821b905092915050565b5f60088302611c737fffffffffffffffffffffffffffffffffffffffffffffffffffffffffffffffff82611c38565b611c7d8683611c38565b95508019841693508086168417925050509392505050565b5f819050919050565b5f611cb8611cb3611cae84611335565b611c95565b611335565b9050919050565b5f819050919050565b611cd183611c9e565b611ce5611cdd82611cbf565b848454611c44565b825550505050565b5f90565b611cf9611ced565b611d04818484611cc8565b505050565b5b81811015611d2757611d1c5f82611cf1565b600181019050611d0a565b5050565b601f821115611d6c57611d3d81611c17565b611d4684611c29565b81016020851015611d55578190505b611d69611d6185611c29565b830182611d09565b50505b505050565b5f82821c905092915050565b5f611d8c5f1984600802611d71565b1980831691505092915050565b5f611da48383611d7d565b9150826002028217905092915050565b611dbd82611393565b67ffffffffffffffff811115611dd657611dd56114a0565b5b611de08254611901565b611deb828285611d2b565b5f60209050601f831160018114611e1c575f8415611e0a578287015190505b611e148582611d99565b865550611e7b565b601f198416611e2a86611c17565b5f5b82811015611e5157848901518255600182019150602085019450602081019050611e2c565b86831015611e6e5784890151611e6a601f891682611d7d565b8355505b6001600288020188555050505b50505050505056fea264697066735822122097a793cb87bf4b4ebed232b2166035bc3b74af9f0b91bd7e5e9d34362a5cacb764736f6c634300081a0033",
					"opcodes": "PUSH1 0x80 PUSH1 0x40 MSTORE CALLVALUE DUP1 ISZERO PUSH1 0xE JUMPI PUSH0 DUP1 REVERT JUMPDEST POP PUSH2 0x1EB9 DUP1 PUSH2 0x1C PUSH0 CODECOPY PUSH0 RETURN INVALID PUSH1 0x80 PUSH1 0x40 MSTORE CALLVALUE DUP1 ISZERO PUSH2 0xF JUMPI PUSH0 DUP1 REVERT JUMPDEST POP PUSH1 0x4 CALLDATASIZE LT PUSH2 0xA7 JUMPI PUSH0 CALLDATALOAD PUSH1 0xE0 SHR DUP1 PUSH4 0x98463C74 GT PUSH2 0x6F JUMPI DUP1 PUSH4 0x98463C74 EQ PUSH2 0x191 JUMPI DUP1 PUSH4 0x9AE52F0F EQ PUSH2 0x1B0 JUMPI DUP1 PUSH4 0xC06A93D3 EQ PUSH2 0x1CC JUMPI DUP1 PUSH4 0xE9E30927 EQ PUSH2 0x1EA JUMPI DUP1 PUSH4 0xF317D020 EQ PUSH2 0x208 JUMPI DUP1 PUSH4 0xFC9B4099 EQ PUSH2 0x23C JUMPI PUSH2 0xA7 JUMP JUMPDEST DUP1 PUSH4 0x6EAD22E EQ PUSH2 0xAB JUMPI DUP1 PUSH4 0x3BF1A7D1 EQ PUSH2 0xDF JUMPI DUP1 PUSH4 0x6191F364 EQ PUSH2 0x10F JUMPI DUP1 PUSH4 0x7676688B EQ PUSH2 0x143 JUMPI DUP1 PUSH4 0x86BE4114 EQ PUSH2 0x173 JUMPI JUMPDEST PUSH0 DUP1 REVERT JUMPDEST PUSH2 0xC5 PUSH1 0x4 DUP1 CALLDATASIZE SUB DUP2 ADD SWAP1 PUSH2 0xC0 SWAP2 SWAP1 PUSH2 0x1368 JUMP JUMPDEST PUSH2 0x25A JUMP JUMPDEST PUSH1 0x40 MLOAD PUSH2 0xD6 SWAP6 SWAP5 SWAP4 SWAP3 SWAP2 SWAP1 PUSH2 0x1412 JUMP JUMPDEST PUSH1 0x40 MLOAD DUP1 SWAP2 SUB SWAP1 RETURN JUMPDEST PUSH2 0xF9 PUSH1 0x4 DUP1 CALLDATASIZE SUB DUP2 ADD SWAP1 PUSH2 0xF4 SWAP2 SWAP1 PUSH2 0x1368 JUMP JUMPDEST PUSH2 0x42C JUMP JUMPDEST PUSH1 0x40 MLOAD PUSH2 0x106 SWAP2 SWAP1 PUSH2 0x1478 JUMP JUMPDEST PUSH1 0x40 MLOAD DUP1 SWAP2 SUB SWAP1 RETURN JUMPDEST PUSH2 0x129 PUSH1 0x4 DUP1 CALLDATASIZE SUB DUP2 ADD SWAP1 PUSH2 0x124 SWAP2 SWAP1 PUSH2 0x1368 JUMP JUMPDEST PUSH2 0x580 JUMP JUMPDEST PUSH1 0x40 MLOAD PUSH2 0x13A SWAP6 SWAP5 SWAP4 SWAP3 SWAP2 SWAP1 PUSH2 0x1412 JUMP JUMPDEST PUSH1 0x40 MLOAD DUP1 SWAP2 SUB SWAP1 RETURN JUMPDEST PUSH2 0x15D PUSH1 0x4 DUP1 CALLDATASIZE SUB DUP2 ADD SWAP1 PUSH2 0x158 SWAP2 SWAP1 PUSH2 0x15C4 JUMP JUMPDEST PUSH2 0x801 JUMP JUMPDEST PUSH1 0x40 MLOAD PUSH2 0x16A SWAP2 SWAP1 PUSH2 0x160B JUMP JUMPDEST PUSH1 0x40 MLOAD DUP1 SWAP2 SUB SWAP1 RETURN JUMPDEST PUSH2 0x17B PUSH2 0x8CF JUMP JUMPDEST PUSH1 0x40 MLOAD PUSH2 0x188 SWAP2 SWAP1 PUSH2 0x160B JUMP JUMPDEST PUSH1 0x40 MLOAD DUP1 SWAP2 SUB SWAP1 RETURN JUMPDEST PUSH2 0x199 PUSH2 0x979 JUMP JUMPDEST PUSH1 0x40 MLOAD PUSH2 0x1A7 SWAP3 SWAP2 SWAP1 PUSH2 0x17B7 JUMP JUMPDEST PUSH1 0x40 MLOAD DUP1 SWAP2 SUB SWAP1 RETURN JUMPDEST PUSH2 0x1CA PUSH1 0x4 DUP1 CALLDATASIZE SUB DUP2 ADD SWAP1 PUSH2 0x1C5 SWAP2 SWAP1 PUSH2 0x17E5 JUMP JUMPDEST PUSH2 0xCFD JUMP JUMPDEST STOP JUMPDEST PUSH2 0x1D4 PUSH2 0xDB4 JUMP JUMPDEST PUSH1 0x40 MLOAD PUSH2 0x1E1 SWAP2 SWAP1 PUSH2 0x189B JUMP JUMPDEST PUSH1 0x40 MLOAD DUP1 SWAP2 SUB SWAP1 RETURN JUMPDEST PUSH2 0x1F2 PUSH2 0xDCB JUMP JUMPDEST PUSH1 0x40 MLOAD PUSH2 0x1FF SWAP2 SWAP1 PUSH2 0x18B4 JUMP JUMPDEST PUSH1 0x40 MLOAD DUP1 SWAP2 SUB SWAP1 RETURN JUMPDEST PUSH2 0x222 PUSH1 0x4 DUP1 CALLDATASIZE SUB DUP2 ADD SWAP1 PUSH2 0x21D SWAP2 SWAP1 PUSH2 0x15C4 JUMP JUMPDEST PUSH2 0xFE9 JUMP JUMPDEST PUSH1 0x40 MLOAD PUSH2 0x233 SWAP6 SWAP5 SWAP4 SWAP3 SWAP2 SWAP1 PUSH2 0x1412 JUMP JUMPDEST PUSH1 0x40 MLOAD DUP1 SWAP2 SUB SWAP1 RETURN JUMPDEST PUSH2 0x244 PUSH2 0x12EC JUMP JUMPDEST PUSH1 0x40 MLOAD PUSH2 0x251 SWAP2 SWAP1 PUSH2 0x160B JUMP JUMPDEST PUSH1 0x40 MLOAD DUP1 SWAP2 SUB SWAP1 RETURN JUMPDEST PUSH0 DUP2 DUP2 SLOAD DUP2 LT PUSH2 0x268 JUMPI PUSH0 DUP1 REVERT JUMPDEST SWAP1 PUSH0 MSTORE PUSH1 0x20 PUSH0 KECCAK256 SWAP1 PUSH1 0x5 MUL ADD PUSH0 SWAP2 POP SWAP1 POP DUP1 PUSH0 ADD DUP1 SLOAD PUSH2 0x287 SWAP1 PUSH2 0x1901 JUMP JUMPDEST DUP1 PUSH1 0x1F ADD PUSH1 0x20 DUP1 SWAP2 DIV MUL PUSH1 0x20 ADD PUSH1 0x40 MLOAD SWAP1 DUP2 ADD PUSH1 0x40 MSTORE DUP1 SWAP3 SWAP2 SWAP1 DUP2 DUP2 MSTORE PUSH1 0x20 ADD DUP3 DUP1 SLOAD PUSH2 0x2B3 SWAP1 PUSH2 0x1901 JUMP JUMPDEST DUP1 ISZERO PUSH2 0x2FE JUMPI DUP1 PUSH1 0x1F LT PUSH2 0x2D5 JUMPI PUSH2 0x100 DUP1 DUP4 SLOAD DIV MUL DUP4 MSTORE SWAP2 PUSH1 0x20 ADD SWAP2 PUSH2 0x2FE JUMP JUMPDEST DUP3 ADD SWAP2 SWAP1 PUSH0 MSTORE PUSH1 0x20 PUSH0 KECCAK256 SWAP1 JUMPDEST DUP2 SLOAD DUP2 MSTORE SWAP1 PUSH1 0x1 ADD SWAP1 PUSH1 0x20 ADD DUP1 DUP4 GT PUSH2 0x2E1 JUMPI DUP3 SWAP1 SUB PUSH1 0x1F AND DUP3 ADD SWAP2 JUMPDEST POP POP POP POP POP SWAP1 DUP1 PUSH1 0x1 ADD SLOAD SWAP1 DUP1 PUSH1 0x2 ADD SLOAD SWAP1 DUP1 PUSH1 0x3 ADD DUP1 SLOAD PUSH2 0x31F SWAP1 PUSH2 0x1901 JUMP JUMPDEST DUP1 PUSH1 0x1F ADD PUSH1 0x20 DUP1 SWAP2 DIV MUL PUSH1 0x20 ADD PUSH1 0x40 MLOAD SWAP1 DUP2 ADD PUSH1 0x40 MSTORE DUP1 SWAP3 SWAP2 SWAP1 DUP2 DUP2 MSTORE PUSH1 0x20 ADD DUP3 DUP1 SLOAD PUSH2 0x34B SWAP1 PUSH2 0x1901 JUMP JUMPDEST DUP1 ISZERO PUSH2 0x396 JUMPI DUP1 PUSH1 0x1F LT PUSH2 0x36D JUMPI PUSH2 0x100 DUP1 DUP4 SLOAD DIV MUL DUP4 MSTORE SWAP2 PUSH1 0x20 ADD SWAP2 PUSH2 0x396 JUMP JUMPDEST DUP3 ADD SWAP2 SWAP1 PUSH0 MSTORE PUSH1 0x20 PUSH0 KECCAK256 SWAP1 JUMPDEST DUP2 SLOAD DUP2 MSTORE SWAP1 PUSH1 0x1 ADD SWAP1 PUSH1 0x20 ADD DUP1 DUP4 GT PUSH2 0x379 JUMPI DUP3 SWAP1 SUB PUSH1 0x1F AND DUP3 ADD SWAP2 JUMPDEST POP POP POP POP POP SWAP1 DUP1 PUSH1 0x4 ADD DUP1 SLOAD PUSH2 0x3AB SWAP1 PUSH2 0x1901 JUMP JUMPDEST DUP1 PUSH1 0x1F ADD PUSH1 0x20 DUP1 SWAP2 DIV MUL PUSH1 0x20 ADD PUSH1 0x40 MLOAD SWAP1 DUP2 ADD PUSH1 0x40 MSTORE DUP1 SWAP3 SWAP2 SWAP1 DUP2 DUP2 MSTORE PUSH1 0x20 ADD DUP3 DUP1 SLOAD PUSH2 0x3D7 SWAP1 PUSH2 0x1901 JUMP JUMPDEST DUP1 ISZERO PUSH2 0x422 JUMPI DUP1 PUSH1 0x1F LT PUSH2 0x3F9 JUMPI PUSH2 0x100 DUP1 DUP4 SLOAD DIV MUL DUP4 MSTORE SWAP2 PUSH1 0x20 ADD SWAP2 PUSH2 0x422 JUMP JUMPDEST DUP3 ADD SWAP2 SWAP1 PUSH0 MSTORE PUSH1 0x20 PUSH0 KECCAK256 SWAP1 JUMPDEST DUP2 SLOAD DUP2 MSTORE SWAP1 PUSH1 0x1 ADD SWAP1 PUSH1 0x20 ADD DUP1 DUP4 GT PUSH2 0x405 JUMPI DUP3 SWAP1 SUB PUSH1 0x1F AND DUP3 ADD SWAP2 JUMPDEST POP POP POP POP POP SWAP1 POP DUP6 JUMP JUMPDEST PUSH1 0x60 PUSH1 0x5A DUP3 LT PUSH2 0x473 JUMPI PUSH1 0x40 MLOAD DUP1 PUSH1 0x40 ADD PUSH1 0x40 MSTORE DUP1 PUSH1 0x1 DUP2 MSTORE PUSH1 0x20 ADD PUSH32 0x4100000000000000000000000000000000000000000000000000000000000000 DUP2 MSTORE POP SWAP1 POP PUSH2 0x57B JUMP JUMPDEST PUSH1 0x50 DUP3 LT PUSH2 0x4B8 JUMPI PUSH1 0x40 MLOAD DUP1 PUSH1 0x40 ADD PUSH1 0x40 MSTORE DUP1 PUSH1 0x1 DUP2 MSTORE PUSH1 0x20 ADD PUSH32 0x4200000000000000000000000000000000000000000000000000000000000000 DUP2 MSTORE POP SWAP1 POP PUSH2 0x57B JUMP JUMPDEST PUSH1 0x46 DUP3 LT PUSH2 0x4FD JUMPI PUSH1 0x40 MLOAD DUP1 PUSH1 0x40 ADD PUSH1 0x40 MSTORE DUP1 PUSH1 0x1 DUP2 MSTORE PUSH1 0x20 ADD PUSH32 0x4300000000000000000000000000000000000000000000000000000000000000 DUP2 MSTORE POP SWAP1 POP PUSH2 0x57B JUMP JUMPDEST PUSH1 0x3C DUP3 LT PUSH2 0x542 JUMPI PUSH1 0x40 MLOAD DUP1 PUSH1 0x40 ADD PUSH1 0x40 MSTORE DUP1 PUSH1 0x1 DUP2 MSTORE PUSH1 0x20 ADD PUSH32 0x4400000000000000000000000000000000000000000000000000000000000000 DUP2 MSTORE POP SWAP1 POP PUSH2 0x57B JUMP JUMPDEST PUSH1 0x40 MLOAD DUP1 PUSH1 0x40 ADD PUSH1 0x40 MSTORE DUP1 PUSH1 0x1 DUP2 MSTORE PUSH1 0x20 ADD PUSH32 0x4600000000000000000000000000000000000000000000000000000000000000 DUP2 MSTORE POP SWAP1 POP JUMPDEST SWAP2 SWAP1 POP JUMP JUMPDEST PUSH1 0x60 PUSH0 DUP1 PUSH1 0x60 DUP1 PUSH0 DUP7 GT DUP1 ISZERO PUSH2 0x59A JUMPI POP PUSH0 DUP1 SLOAD SWAP1 POP DUP7 GT ISZERO JUMPDEST PUSH2 0x5D9 JUMPI PUSH1 0x40 MLOAD PUSH32 0x8C379A000000000000000000000000000000000000000000000000000000000 DUP2 MSTORE PUSH1 0x4 ADD PUSH2 0x5D0 SWAP1 PUSH2 0x197B JUMP JUMPDEST PUSH1 0x40 MLOAD DUP1 SWAP2 SUB SWAP1 REVERT JUMPDEST PUSH0 DUP1 PUSH1 0x1 DUP9 PUSH2 0x5E8 SWAP2 SWAP1 PUSH2 0x19C6 JUMP JUMPDEST DUP2 SLOAD DUP2 LT PUSH2 0x5F9 JUMPI PUSH2 0x5F8 PUSH2 0x19F9 JUMP JUMPDEST JUMPDEST SWAP1 PUSH0 MSTORE PUSH1 0x20 PUSH0 KECCAK256 SWAP1 PUSH1 0x5 MUL ADD PUSH1 0x40 MLOAD DUP1 PUSH1 0xA0 ADD PUSH1 0x40 MSTORE SWAP1 DUP2 PUSH0 DUP3 ADD DUP1 SLOAD PUSH2 0x61F SWAP1 PUSH2 0x1901 JUMP JUMPDEST DUP1 PUSH1 0x1F ADD PUSH1 0x20 DUP1 SWAP2 DIV MUL PUSH1 0x20 ADD PUSH1 0x40 MLOAD SWAP1 DUP2 ADD PUSH1 0x40 MSTORE DUP1 SWAP3 SWAP2 SWAP1 DUP2 DUP2 MSTORE PUSH1 0x20 ADD DUP3 DUP1 SLOAD PUSH2 0x64B SWAP1 PUSH2 0x1901 JUMP JUMPDEST DUP1 ISZERO PUSH2 0x696 JUMPI DUP1 PUSH1 0x1F LT PUSH2 0x66D JUMPI PUSH2 0x100 DUP1 DUP4 SLOAD DIV MUL DUP4 MSTORE SWAP2 PUSH1 0x20 ADD SWAP2 PUSH2 0x696 JUMP JUMPDEST DUP3 ADD SWAP2 SWAP1 PUSH0 MSTORE PUSH1 0x20 PUSH0 KECCAK256 SWAP1 JUMPDEST DUP2 SLOAD DUP2 MSTORE SWAP1 PUSH1 0x1 ADD SWAP1 PUSH1 0x20 ADD DUP1 DUP4 GT PUSH2 0x679 JUMPI DUP3 SWAP1 SUB PUSH1 0x1F AND DUP3 ADD SWAP2 JUMPDEST POP POP POP POP POP DUP2 MSTORE PUSH1 0x20 ADD PUSH1 0x1 DUP3 ADD SLOAD DUP2 MSTORE PUSH1 0x20 ADD PUSH1 0x2 DUP3 ADD SLOAD DUP2 MSTORE PUSH1 0x20 ADD PUSH1 0x3 DUP3 ADD DUP1 SLOAD PUSH2 0x6C3 SWAP1 PUSH2 0x1901 JUMP JUMPDEST DUP1 PUSH1 0x1F ADD PUSH1 0x20 DUP1 SWAP2 DIV MUL PUSH1 0x20 ADD PUSH1 0x40 MLOAD SWAP1 DUP2 ADD PUSH1 0x40 MSTORE DUP1 SWAP3 SWAP2 SWAP1 DUP2 DUP2 MSTORE PUSH1 0x20 ADD DUP3 DUP1 SLOAD PUSH2 0x6EF SWAP1 PUSH2 0x1901 JUMP JUMPDEST DUP1 ISZERO PUSH2 0x73A JUMPI DUP1 PUSH1 0x1F LT PUSH2 0x711 JUMPI PUSH2 0x100 DUP1 DUP4 SLOAD DIV MUL DUP4 MSTORE SWAP2 PUSH1 0x20 ADD SWAP2 PUSH2 0x73A JUMP JUMPDEST DUP3 ADD SWAP2 SWAP1 PUSH0 MSTORE PUSH1 0x20 PUSH0 KECCAK256 SWAP1 JUMPDEST DUP2 SLOAD DUP2 MSTORE SWAP1 PUSH1 0x1 ADD SWAP1 PUSH1 0x20 ADD DUP1 DUP4 GT PUSH2 0x71D JUMPI DUP3 SWAP1 SUB PUSH1 0x1F AND DUP3 ADD SWAP2 JUMPDEST POP POP POP POP POP DUP2 MSTORE PUSH1 0x20 ADD PUSH1 0x4 DUP3 ADD DUP1 SLOAD PUSH2 0x753 SWAP1 PUSH2 0x1901 JUMP JUMPDEST DUP1 PUSH1 0x1F ADD PUSH1 0x20 DUP1 SWAP2 DIV MUL PUSH1 0x20 ADD PUSH1 0x40 MLOAD SWAP1 DUP2 ADD PUSH1 0x40 MSTORE DUP1 SWAP3 SWAP2 SWAP1 DUP2 DUP2 MSTORE PUSH1 0x20 ADD DUP3 DUP1 SLOAD PUSH2 0x77F SWAP1 PUSH2 0x1901 JUMP JUMPDEST DUP1 ISZERO PUSH2 0x7CA JUMPI DUP1 PUSH1 0x1F LT PUSH2 0x7A1 JUMPI PUSH2 0x100 DUP1 DUP4 SLOAD DIV MUL DUP4 MSTORE SWAP2 PUSH1 0x20 ADD SWAP2 PUSH2 0x7CA JUMP JUMPDEST DUP3 ADD SWAP2 SWAP1 PUSH0 MSTORE PUSH1 0x20 PUSH0 KECCAK256 SWAP1 JUMPDEST DUP2 SLOAD DUP2 MSTORE SWAP1 PUSH1 0x1 ADD SWAP1 PUSH1 0x20 ADD DUP1 DUP4 GT PUSH2 0x7AD JUMPI DUP3 SWAP1 SUB PUSH1 0x1F AND DUP3 ADD SWAP2 JUMPDEST POP POP POP POP POP DUP2 MSTORE POP POP SWAP1 POP DUP1 PUSH0 ADD MLOAD DUP2 PUSH1 0x20 ADD MLOAD DUP3 PUSH1 0x40 ADD MLOAD DUP4 PUSH1 0x60 ADD MLOAD DUP5 PUSH1 0x80 ADD MLOAD SWAP6 POP SWAP6 POP SWAP6 POP SWAP6 POP SWAP6 POP POP SWAP2 SWAP4 SWAP6 SWAP1 SWAP3 SWAP5 POP JUMP JUMPDEST PUSH0 DUP1 PUSH0 SWAP1 POP JUMPDEST PUSH0 DUP1 SLOAD SWAP1 POP DUP2 LT ISZERO PUSH2 0x88E JUMPI DUP3 DUP1 MLOAD SWAP1 PUSH1 0x20 ADD KECCAK256 PUSH0 DUP3 DUP2 SLOAD DUP2 LT PUSH2 0x82E JUMPI PUSH2 0x82D PUSH2 0x19F9 JUMP JUMPDEST JUMPDEST SWAP1 PUSH0 MSTORE PUSH1 0x20 PUSH0 KECCAK256 SWAP1 PUSH1 0x5 MUL ADD PUSH0 ADD PUSH1 0x40 MLOAD PUSH2 0x849 SWAP2 SWAP1 PUSH2 0x1AC2 JUMP JUMPDEST PUSH1 0x40 MLOAD DUP1 SWAP2 SUB SWAP1 KECCAK256 SUB PUSH2 0x881 JUMPI PUSH0 DUP2 DUP2 SLOAD DUP2 LT PUSH2 0x869 JUMPI PUSH2 0x868 PUSH2 0x19F9 JUMP JUMPDEST JUMPDEST SWAP1 PUSH0 MSTORE PUSH1 0x20 PUSH0 KECCAK256 SWAP1 PUSH1 0x5 MUL ADD PUSH1 0x2 ADD SLOAD SWAP2 POP POP PUSH2 0x8CA JUMP JUMPDEST DUP1 DUP1 PUSH1 0x1 ADD SWAP2 POP POP PUSH2 0x807 JUMP JUMPDEST POP PUSH1 0x40 MLOAD PUSH32 0x8C379A000000000000000000000000000000000000000000000000000000000 DUP2 MSTORE PUSH1 0x4 ADD PUSH2 0x8C1 SWAP1 PUSH2 0x197B JUMP JUMPDEST PUSH1 0x40 MLOAD DUP1 SWAP2 SUB SWAP1 REVERT JUMPDEST SWAP2 SWAP1 POP JUMP JUMPDEST PUSH0 DUP1 PUSH0 DUP1 SLOAD SWAP1 POP GT PUSH2 0x916 JUMPI PUSH1 0x40 MLOAD PUSH32 0x8C379A000000000000000000000000000000000000000000000000000000000 DUP2 MSTORE PUSH1 0x4 ADD PUSH2 0x90D SWAP1 PUSH2 0x1B22 JUMP JUMPDEST PUSH1 0x40 MLOAD DUP1 SWAP2 SUB SWAP1 REVERT JUMPDEST PUSH0 DUP1 JUMPDEST PUSH0 DUP1 SLOAD SWAP1 POP DUP2 LT ISZERO PUSH2 0x962 JUMPI PUSH0 DUP2 DUP2 SLOAD DUP2 LT PUSH2 0x938 JUMPI PUSH2 0x937 PUSH2 0x19F9 JUMP JUMPDEST JUMPDEST SWAP1 PUSH0 MSTORE PUSH1 0x20 PUSH0 KECCAK256 SWAP1 PUSH1 0x5 MUL ADD PUSH1 0x2 ADD SLOAD DUP3 PUSH2 0x953 SWAP2 SWAP1 PUSH2 0x1B40 JUMP JUMPDEST SWAP2 POP DUP1 DUP1 PUSH1 0x1 ADD SWAP2 POP POP PUSH2 0x919 JUMP JUMPDEST POP PUSH0 DUP1 SLOAD SWAP1 POP DUP2 PUSH2 0x973 SWAP2 SWAP1 PUSH2 0x1BA0 JUMP JUMPDEST SWAP2 POP POP SWAP1 JUMP JUMPDEST PUSH0 PUSH1 0x60 PUSH0 DUP1 JUMPDEST PUSH0 DUP1 SLOAD SWAP1 POP DUP2 LT ISZERO PUSH2 0xA04 JUMPI PUSH32 0xE61D9A3D3848FB2CDD9A2AB61E2F21A10EA431275AED628A0557F9DEE697C37A PUSH0 DUP3 DUP2 SLOAD DUP2 LT PUSH2 0x9BF JUMPI PUSH2 0x9BE PUSH2 0x19F9 JUMP JUMPDEST JUMPDEST SWAP1 PUSH0 MSTORE PUSH1 0x20 PUSH0 KECCAK256 SWAP1 PUSH1 0x5 MUL ADD PUSH1 0x3 ADD PUSH1 0x40 MLOAD PUSH2 0x9DB SWAP2 SWAP1 PUSH2 0x1AC2 JUMP JUMPDEST PUSH1 0x40 MLOAD DUP1 SWAP2 SUB SWAP1 KECCAK256 SUB PUSH2 0x9F7 JUMPI DUP2 DUP1 PUSH2 0x9F3 SWAP1 PUSH2 0x1BD0 JUMP JUMPDEST SWAP3 POP POP JUMPDEST DUP1 DUP1 PUSH1 0x1 ADD SWAP2 POP POP PUSH2 0x97F JUMP JUMPDEST POP PUSH0 DUP2 PUSH8 0xFFFFFFFFFFFFFFFF DUP2 GT ISZERO PUSH2 0xA20 JUMPI PUSH2 0xA1F PUSH2 0x14A0 JUMP JUMPDEST JUMPDEST PUSH1 0x40 MLOAD SWAP1 DUP1 DUP3 MSTORE DUP1 PUSH1 0x20 MUL PUSH1 0x20 ADD DUP3 ADD PUSH1 0x40 MSTORE DUP1 ISZERO PUSH2 0xA59 JUMPI DUP2 PUSH1 0x20 ADD JUMPDEST PUSH2 0xA46 PUSH2 0x12F7 JUMP JUMPDEST DUP2 MSTORE PUSH1 0x20 ADD SWAP1 PUSH1 0x1 SWAP1 SUB SWAP1 DUP2 PUSH2 0xA3E JUMPI SWAP1 POP JUMPDEST POP SWAP1 POP PUSH0 DUP1 JUMPDEST PUSH0 DUP1 SLOAD SWAP1 POP DUP2 LT ISZERO PUSH2 0xCEF JUMPI PUSH32 0xE61D9A3D3848FB2CDD9A2AB61E2F21A10EA431275AED628A0557F9DEE697C37A PUSH0 DUP3 DUP2 SLOAD DUP2 LT PUSH2 0xA9F JUMPI PUSH2 0xA9E PUSH2 0x19F9 JUMP JUMPDEST JUMPDEST SWAP1 PUSH0 MSTORE PUSH1 0x20 PUSH0 KECCAK256 SWAP1 PUSH1 0x5 MUL ADD PUSH1 0x3 ADD PUSH1 0x40 MLOAD PUSH2 0xABB SWAP2 SWAP1 PUSH2 0x1AC2 JUMP JUMPDEST PUSH1 0x40 MLOAD DUP1 SWAP2 SUB SWAP1 KECCAK256 SUB PUSH2 0xCE2 JUMPI PUSH0 DUP2 DUP2 SLOAD DUP2 LT PUSH2 0xADB JUMPI PUSH2 0xADA PUSH2 0x19F9 JUMP JUMPDEST JUMPDEST SWAP1 PUSH0 MSTORE PUSH1 0x20 PUSH0 KECCAK256 SWAP1 PUSH1 0x5 MUL ADD PUSH1 0x40 MLOAD DUP1 PUSH1 0xA0 ADD PUSH1 0x40 MSTORE SWAP1 DUP2 PUSH0 DUP3 ADD DUP1 SLOAD PUSH2 0xB01 SWAP1 PUSH2 0x1901 JUMP JUMPDEST DUP1 PUSH1 0x1F ADD PUSH1 0x20 DUP1 SWAP2 DIV MUL PUSH1 0x20 ADD PUSH1 0x40 MLOAD SWAP1 DUP2 ADD PUSH1 0x40 MSTORE DUP1 SWAP3 SWAP2 SWAP1 DUP2 DUP2 MSTORE PUSH1 0x20 ADD DUP3 DUP1 SLOAD PUSH2 0xB2D SWAP1 PUSH2 0x1901 JUMP JUMPDEST DUP1 ISZERO PUSH2 0xB78 JUMPI DUP1 PUSH1 0x1F LT PUSH2 0xB4F JUMPI PUSH2 0x100 DUP1 DUP4 SLOAD DIV MUL DUP4 MSTORE SWAP2 PUSH1 0x20 ADD SWAP2 PUSH2 0xB78 JUMP JUMPDEST DUP3 ADD SWAP2 SWAP1 PUSH0 MSTORE PUSH1 0x20 PUSH0 KECCAK256 SWAP1 JUMPDEST DUP2 SLOAD DUP2 MSTORE SWAP1 PUSH1 0x1 ADD SWAP1 PUSH1 0x20 ADD DUP1 DUP4 GT PUSH2 0xB5B JUMPI DUP3 SWAP1 SUB PUSH1 0x1F AND DUP3 ADD SWAP2 JUMPDEST POP POP POP POP POP DUP2 MSTORE PUSH1 0x20 ADD PUSH1 0x1 DUP3 ADD SLOAD DUP2 MSTORE PUSH1 0x20 ADD PUSH1 0x2 DUP3 ADD SLOAD DUP2 MSTORE PUSH1 0x20 ADD PUSH1 0x3 DUP3 ADD DUP1 SLOAD PUSH2 0xBA5 SWAP1 PUSH2 0x1901 JUMP JUMPDEST DUP1 PUSH1 0x1F ADD PUSH1 0x20 DUP1 SWAP2 DIV MUL PUSH1 0x20 ADD PUSH1 0x40 MLOAD SWAP1 DUP2 ADD PUSH1 0x40 MSTORE DUP1 SWAP3 SWAP2 SWAP1 DUP2 DUP2 MSTORE PUSH1 0x20 ADD DUP3 DUP1 SLOAD PUSH2 0xBD1 SWAP1 PUSH2 0x1901 JUMP JUMPDEST DUP1 ISZERO PUSH2 0xC1C JUMPI DUP1 PUSH1 0x1F LT PUSH2 0xBF3 JUMPI PUSH2 0x100 DUP1 DUP4 SLOAD DIV MUL DUP4 MSTORE SWAP2 PUSH1 0x20 ADD SWAP2 PUSH2 0xC1C JUMP JUMPDEST DUP3 ADD SWAP2 SWAP1 PUSH0 MSTORE PUSH1 0x20 PUSH0 KECCAK256 SWAP1 JUMPDEST DUP2 SLOAD DUP2 MSTORE SWAP1 PUSH1 0x1 ADD SWAP1 PUSH1 0x20 ADD DUP1 DUP4 GT PUSH2 0xBFF JUMPI DUP3 SWAP1 SUB PUSH1 0x1F AND DUP3 ADD SWAP2 JUMPDEST POP POP POP POP POP DUP2 MSTORE PUSH1 0x20 ADD PUSH1 0x4 DUP3 ADD DUP1 SLOAD PUSH2 0xC35 SWAP1 PUSH2 0x1901 JUMP JUMPDEST DUP1 PUSH1 0x1F ADD PUSH1 0x20 DUP1 SWAP2 DIV MUL PUSH1 0x20 ADD PUSH1 0x40 MLOAD SWAP1 DUP2 ADD PUSH1 0x40 MSTORE DUP1 SWAP3 SWAP2 SWAP1 DUP2 DUP2 MSTORE PUSH1 0x20 ADD DUP3 DUP1 SLOAD PUSH2 0xC61 SWAP1 PUSH2 0x1901 JUMP JUMPDEST DUP1 ISZERO PUSH2 0xCAC JUMPI DUP1 PUSH1 0x1F LT PUSH2 0xC83 JUMPI PUSH2 0x100 DUP1 DUP4 SLOAD DIV MUL DUP4 MSTORE SWAP2 PUSH1 0x20 ADD SWAP2 PUSH2 0xCAC JUMP JUMPDEST DUP3 ADD SWAP2 SWAP1 PUSH0 MSTORE PUSH1 0x20 PUSH0 KECCAK256 SWAP1 JUMPDEST DUP2 SLOAD DUP2 MSTORE SWAP1 PUSH1 0x1 ADD SWAP1 PUSH1 0x20 ADD DUP1 DUP4 GT PUSH2 0xC8F JUMPI DUP3 SWAP1 SUB PUSH1 0x1F AND DUP3 ADD SWAP2 JUMPDEST POP POP POP POP POP DUP2 MSTORE POP POP DUP4 DUP4 DUP2 MLOAD DUP2 LT PUSH2 0xCC8 JUMPI PUSH2 0xCC7 PUSH2 0x19F9 JUMP JUMPDEST JUMPDEST PUSH1 0x20 MUL PUSH1 0x20 ADD ADD DUP2 SWAP1 MSTORE POP DUP2 DUP1 PUSH2 0xCDE SWAP1 PUSH2 0x1BD0 JUMP JUMPDEST SWAP3 POP POP JUMPDEST DUP1 DUP1 PUSH1 0x1 ADD SWAP2 POP POP PUSH2 0xA5F JUMP JUMPDEST POP DUP3 DUP3 SWAP5 POP SWAP5 POP POP POP POP SWAP1 SWAP2 JUMP JUMPDEST PUSH0 PUSH2 0xD07 DUP4 PUSH2 0x42C JUMP JUMPDEST SWAP1 POP PUSH0 PUSH1 0x40 MLOAD DUP1 PUSH1 0xA0 ADD PUSH1 0x40 MSTORE DUP1 DUP8 DUP2 MSTORE PUSH1 0x20 ADD DUP7 DUP2 MSTORE PUSH1 0x20 ADD DUP6 DUP2 MSTORE PUSH1 0x20 ADD DUP4 DUP2 MSTORE PUSH1 0x20 ADD DUP5 DUP2 MSTORE POP SWAP1 DUP1 PUSH1 0x1 DUP2 SLOAD ADD DUP1 DUP3 SSTORE DUP1 SWAP2 POP POP PUSH1 0x1 SWAP1 SUB SWAP1 PUSH0 MSTORE PUSH1 0x20 PUSH0 KECCAK256 SWAP1 PUSH1 0x5 MUL ADD PUSH0 SWAP1 SWAP2 SWAP1 SWAP2 SWAP1 SWAP2 POP PUSH0 DUP3 ADD MLOAD DUP2 PUSH0 ADD SWAP1 DUP2 PUSH2 0xD6A SWAP2 SWAP1 PUSH2 0x1DB4 JUMP JUMPDEST POP PUSH1 0x20 DUP3 ADD MLOAD DUP2 PUSH1 0x1 ADD SSTORE PUSH1 0x40 DUP3 ADD MLOAD DUP2 PUSH1 0x2 ADD SSTORE PUSH1 0x60 DUP3 ADD MLOAD DUP2 PUSH1 0x3 ADD SWAP1 DUP2 PUSH2 0xD94 SWAP2 SWAP1 PUSH2 0x1DB4 JUMP JUMPDEST POP PUSH1 0x80 DUP3 ADD MLOAD DUP2 PUSH1 0x4 ADD SWAP1 DUP2 PUSH2 0xDAA SWAP2 SWAP1 PUSH2 0x1DB4 JUMP JUMPDEST POP POP POP POP POP POP POP POP JUMP JUMPDEST PUSH0 DUP1 PUSH2 0xDBE PUSH2 0x8CF JUMP JUMPDEST SWAP1 POP PUSH1 0x46 DUP2 LT ISZERO SWAP2 POP POP SWAP1 JUMP JUMPDEST PUSH1 0x60 PUSH0 DUP1 SLOAD DUP1 PUSH1 0x20 MUL PUSH1 0x20 ADD PUSH1 0x40 MLOAD SWAP1 DUP2 ADD PUSH1 0x40 MSTORE DUP1 SWAP3 SWAP2 SWAP1 DUP2 DUP2 MSTORE PUSH1 0x20 ADD PUSH0 SWAP1 JUMPDEST DUP3 DUP3 LT ISZERO PUSH2 0xFE0 JUMPI DUP4 DUP3 SWAP1 PUSH0 MSTORE PUSH1 0x20 PUSH0 KECCAK256 SWAP1 PUSH1 0x5 MUL ADD PUSH1 0x40 MLOAD DUP1 PUSH1 0xA0 ADD PUSH1 0x40 MSTORE SWAP1 DUP2 PUSH0 DUP3 ADD DUP1 SLOAD PUSH2 0xE1D SWAP1 PUSH2 0x1901 JUMP JUMPDEST DUP1 PUSH1 0x1F ADD PUSH1 0x20 DUP1 SWAP2 DIV MUL PUSH1 0x20 ADD PUSH1 0x40 MLOAD SWAP1 DUP2 ADD PUSH1 0x40 MSTORE DUP1 SWAP3 SWAP2 SWAP1 DUP2 DUP2 MSTORE PUSH1 0x20 ADD DUP3 DUP1 SLOAD PUSH2 0xE49 SWAP1 PUSH2 0x1901 JUMP JUMPDEST DUP1 ISZERO PUSH2 0xE94 JUMPI DUP1 PUSH1 0x1F LT PUSH2 0xE6B JUMPI PUSH2 0x100 DUP1 DUP4 SLOAD DIV MUL DUP4 MSTORE SWAP2 PUSH1 0x20 ADD SWAP2 PUSH2 0xE94 JUMP JUMPDEST DUP3 ADD SWAP2 SWAP1 PUSH0 MSTORE PUSH1 0x20 PUSH0 KECCAK256 SWAP1 JUMPDEST DUP2 SLOAD DUP2 MSTORE SWAP1 PUSH1 0x1 ADD SWAP1 PUSH1 0x20 ADD DUP1 DUP4 GT PUSH2 0xE77 JUMPI DUP3 SWAP1 SUB PUSH1 0x1F AND DUP3 ADD SWAP2 JUMPDEST POP POP POP POP POP DUP2 MSTORE PUSH1 0x20 ADD PUSH1 0x1 DUP3 ADD SLOAD DUP2 MSTORE PUSH1 0x20 ADD PUSH1 0x2 DUP3 ADD SLOAD DUP2 MSTORE PUSH1 0x20 ADD PUSH1 0x3 DUP3 ADD DUP1 SLOAD PUSH2 0xEC1 SWAP1 PUSH2 0x1901 JUMP JUMPDEST DUP1 PUSH1 0x1F ADD PUSH1 0x20 DUP1 SWAP2 DIV MUL PUSH1 0x20 ADD PUSH1 0x40 MLOAD SWAP1 DUP2 ADD PUSH1 0x40 MSTORE DUP1 SWAP3 SWAP2 SWAP1 DUP2 DUP2 MSTORE PUSH1 0x20 ADD DUP3 DUP1 SLOAD PUSH2 0xEED SWAP1 PUSH2 0x1901 JUMP JUMPDEST DUP1 ISZERO PUSH2 0xF38 JUMPI DUP1 PUSH1 0x1F LT PUSH2 0xF0F JUMPI PUSH2 0x100 DUP1 DUP4 SLOAD DIV MUL DUP4 MSTORE SWAP2 PUSH1 0x20 ADD SWAP2 PUSH2 0xF38 JUMP JUMPDEST DUP3 ADD SWAP2 SWAP1 PUSH0 MSTORE PUSH1 0x20 PUSH0 KECCAK256 SWAP1 JUMPDEST DUP2 SLOAD DUP2 MSTORE SWAP1 PUSH1 0x1 ADD SWAP1 PUSH1 0x20 ADD DUP1 DUP4 GT PUSH2 0xF1B JUMPI DUP3 SWAP1 SUB PUSH1 0x1F AND DUP3 ADD SWAP2 JUMPDEST POP POP POP POP POP DUP2 MSTORE PUSH1 0x20 ADD PUSH1 0x4 DUP3 ADD DUP1 SLOAD PUSH2 0xF51 SWAP1 PUSH2 0x1901 JUMP JUMPDEST DUP1 PUSH1 0x1F ADD PUSH1 0x20 DUP1 SWAP2 DIV MUL PUSH1 0x20 ADD PUSH1 0x40 MLOAD SWAP1 DUP2 ADD PUSH1 0x40 MSTORE DUP1 SWAP3 SWAP2 SWAP1 DUP2 DUP2 MSTORE PUSH1 0x20 ADD DUP3 DUP1 SLOAD PUSH2 0xF7D SWAP1 PUSH2 0x1901 JUMP JUMPDEST DUP1 ISZERO PUSH2 0xFC8 JUMPI DUP1 PUSH1 0x1F LT PUSH2 0xF9F JUMPI PUSH2 0x100 DUP1 DUP4 SLOAD DIV MUL DUP4 MSTORE SWAP2 PUSH1 0x20 ADD SWAP2 PUSH2 0xFC8 JUMP JUMPDEST DUP3 ADD SWAP2 SWAP1 PUSH0 MSTORE PUSH1 0x20 PUSH0 KECCAK256 SWAP1 JUMPDEST DUP2 SLOAD DUP2 MSTORE SWAP1 PUSH1 0x1 ADD SWAP1 PUSH1 0x20 ADD DUP1 DUP4 GT PUSH2 0xFAB JUMPI DUP3 SWAP1 SUB PUSH1 0x1F AND DUP3 ADD SWAP2 JUMPDEST POP POP POP POP POP DUP2 MSTORE POP POP DUP2 MSTORE PUSH1 0x20 ADD SWAP1 PUSH1 0x1 ADD SWAP1 PUSH2 0xDED JUMP JUMPDEST POP POP POP POP SWAP1 POP SWAP1 JUMP JUMPDEST PUSH1 0x60 PUSH0 DUP1 PUSH1 0x60 DUP1 PUSH0 JUMPDEST PUSH0 DUP1 SLOAD SWAP1 POP DUP2 LT ISZERO PUSH2 0x12A7 JUMPI DUP7 DUP1 MLOAD SWAP1 PUSH1 0x20 ADD KECCAK256 PUSH0 DUP3 DUP2 SLOAD DUP2 LT PUSH2 0x1019 JUMPI PUSH2 0x1018 PUSH2 0x19F9 JUMP JUMPDEST JUMPDEST SWAP1 PUSH0 MSTORE PUSH1 0x20 PUSH0 KECCAK256 SWAP1 PUSH1 0x5 MUL ADD PUSH0 ADD PUSH1 0x40 MLOAD PUSH2 0x1034 SWAP2 SWAP1 PUSH2 0x1AC2 JUMP JUMPDEST PUSH1 0x40 MLOAD DUP1 SWAP2 SUB SWAP1 KECCAK256 SUB PUSH2 0x129A JUMPI PUSH0 DUP2 DUP2 SLOAD DUP2 LT PUSH2 0x1054 JUMPI PUSH2 0x1053 PUSH2 0x19F9 JUMP JUMPDEST JUMPDEST SWAP1 PUSH0 MSTORE PUSH1 0x20 PUSH0 KECCAK256 SWAP1 PUSH1 0x5 MUL ADD PUSH0 ADD PUSH0 DUP3 DUP2 SLOAD DUP2 LT PUSH2 0x1075 JUMPI PUSH2 0x1074 PUSH2 0x19F9 JUMP JUMPDEST JUMPDEST SWAP1 PUSH0 MSTORE PUSH1 0x20 PUSH0 KECCAK256 SWAP1 PUSH1 0x5 MUL ADD PUSH1 0x1 ADD SLOAD PUSH0 DUP4 DUP2 SLOAD DUP2 LT PUSH2 0x1098 JUMPI PUSH2 0x1097 PUSH2 0x19F9 JUMP JUMPDEST JUMPDEST SWAP1 PUSH0 MSTORE PUSH1 0x20 PUSH0 KECCAK256 SWAP1 PUSH1 0x5 MUL ADD PUSH1 0x2 ADD SLOAD PUSH0 DUP5 DUP2 SLOAD DUP2 LT PUSH2 0x10BB JUMPI PUSH2 0x10BA PUSH2 0x19F9 JUMP JUMPDEST JUMPDEST SWAP1 PUSH0 MSTORE PUSH1 0x20 PUSH0 KECCAK256 SWAP1 PUSH1 0x5 MUL ADD PUSH1 0x3 ADD PUSH0 DUP6 DUP2 SLOAD DUP2 LT PUSH2 0x10DD JUMPI PUSH2 0x10DC PUSH2 0x19F9 JUMP JUMPDEST JUMPDEST SWAP1 PUSH0 MSTORE PUSH1 0x20 PUSH0 KECCAK256 SWAP1 PUSH1 0x5 MUL ADD PUSH1 0x4 ADD DUP5 DUP1 SLOAD PUSH2 0x10F8 SWAP1 PUSH2 0x1901 JUMP JUMPDEST DUP1 PUSH1 0x1F ADD PUSH1 0x20 DUP1 SWAP2 DIV MUL PUSH1 0x20 ADD PUSH1 0x40 MLOAD SWAP1 DUP2 ADD PUSH1 0x40 MSTORE DUP1 SWAP3 SWAP2 SWAP1 DUP2 DUP2 MSTORE PUSH1 0x20 ADD DUP3 DUP1 SLOAD PUSH2 0x1124 SWAP1 PUSH2 0x1901 JUMP JUMPDEST DUP1 ISZERO PUSH2 0x116F JUMPI DUP1 PUSH1 0x1F LT PUSH2 0x1146 JUMPI PUSH2 0x100 DUP1 DUP4 SLOAD DIV MUL DUP4 MSTORE SWAP2 PUSH1 0x20 ADD SWAP2 PUSH2 0x116F JUMP JUMPDEST DUP3 ADD SWAP2 SWAP1 PUSH0 MSTORE PUSH1 0x20 PUSH0 KECCAK256 SWAP1 JUMPDEST DUP2 SLOAD DUP2 MSTORE SWAP1 PUSH1 0x1 ADD SWAP1 PUSH1 0x20 ADD DUP1 DUP4 GT PUSH2 0x1152 JUMPI DUP3 SWAP1 SUB PUSH1 0x1F AND DUP3 ADD SWAP2 JUMPDEST POP POP POP POP POP SWAP5 POP DUP2 DUP1 SLOAD PUSH2 0x1182 SWAP1 PUSH2 0x1901 JUMP JUMPDEST DUP1 PUSH1 0x1F ADD PUSH1 0x20 DUP1 SWAP2 DIV MUL PUSH1 0x20 ADD PUSH1 0x40 MLOAD SWAP1 DUP2 ADD PUSH1 0x40 MSTORE DUP1 SWAP3 SWAP2 SWAP1 DUP2 DUP2 MSTORE PUSH1 0x20 ADD DUP3 DUP1 SLOAD PUSH2 0x11AE SWAP1 PUSH2 0x1901 JUMP JUMPDEST DUP1 ISZERO PUSH2 0x11F9 JUMPI DUP1 PUSH1 0x1F LT PUSH2 0x11D0 JUMPI PUSH2 0x100 DUP1 DUP4 SLOAD DIV MUL DUP4 MSTORE SWAP2 PUSH1 0x20 ADD SWAP2 PUSH2 0x11F9 JUMP JUMPDEST DUP3 ADD SWAP2 SWAP1 PUSH0 MSTORE PUSH1 0x20 PUSH0 KECCAK256 SWAP1 JUMPDEST DUP2 SLOAD DUP2 MSTORE SWAP1 PUSH1 0x1 ADD SWAP1 PUSH1 0x20 ADD DUP1 DUP4 GT PUSH2 0x11DC JUMPI DUP3 SWAP1 SUB PUSH1 0x1F AND DUP3 ADD SWAP2 JUMPDEST POP POP POP POP POP SWAP2 POP DUP1 DUP1 SLOAD PUSH2 0x120C SWAP1 PUSH2 0x1901 JUMP JUMPDEST DUP1 PUSH1 0x1F ADD PUSH1 0x20 DUP1 SWAP2 DIV MUL PUSH1 0x20 ADD PUSH1 0x40 MLOAD SWAP1 DUP2 ADD PUSH1 0x40 MSTORE DUP1 SWAP3 SWAP2 SWAP1 DUP2 DUP2 MSTORE PUSH1 0x20 ADD DUP3 DUP1 SLOAD PUSH2 0x1238 SWAP1 PUSH2 0x1901 JUMP JUMPDEST DUP1 ISZERO PUSH2 0x1283 JUMPI DUP1 PUSH1 0x1F LT PUSH2 0x125A JUMPI PUSH2 0x100 DUP1 DUP4 SLOAD DIV MUL DUP4 MSTORE SWAP2 PUSH1 0x20 ADD SWAP2 PUSH2 0x1283 JUMP JUMPDEST DUP3 ADD SWAP2 SWAP1 PUSH0 MSTORE PUSH1 0x20 PUSH0 KECCAK256 SWAP1 JUMPDEST DUP2 SLOAD DUP2 MSTORE SWAP1 PUSH1 0x1 ADD SWAP1 PUSH1 0x20 ADD DUP1 DUP4 GT PUSH2 0x1266 JUMPI DUP3 SWAP1 SUB PUSH1 0x1F AND DUP3 ADD SWAP2 JUMPDEST POP POP POP POP POP SWAP1 POP SWAP6 POP SWAP6 POP SWAP6 POP SWAP6 POP SWAP6 POP POP PUSH2 0x12E3 JUMP JUMPDEST DUP1 DUP1 PUSH1 0x1 ADD SWAP2 POP POP PUSH2 0xFF2 JUMP JUMPDEST POP PUSH1 0x40 MLOAD PUSH32 0x8C379A000000000000000000000000000000000000000000000000000000000 DUP2 MSTORE PUSH1 0x4 ADD PUSH2 0x12DA SWAP1 PUSH2 0x197B JUMP JUMPDEST PUSH1 0x40 MLOAD DUP1 SWAP2 SUB SWAP1 REVERT JUMPDEST SWAP2 SWAP4 SWAP6 SWAP1 SWAP3 SWAP5 POP JUMP JUMPDEST PUSH0 DUP1 DUP1 SLOAD SWAP1 POP SWAP1 POP SWAP1 JUMP JUMPDEST PUSH1 0x40 MLOAD DUP1 PUSH1 0xA0 ADD PUSH1 0x40 MSTORE DUP1 PUSH1 0x60 DUP2 MSTORE PUSH1 0x20 ADD PUSH0 DUP2 MSTORE PUSH1 0x20 ADD PUSH0 DUP2 MSTORE PUSH1 0x20 ADD PUSH1 0x60 DUP2 MSTORE PUSH1 0x20 ADD PUSH1 0x60 DUP2 MSTORE POP SWAP1 JUMP JUMPDEST PUSH0 PUSH1 0x40 MLOAD SWAP1 POP SWAP1 JUMP JUMPDEST PUSH0 DUP1 REVERT JUMPDEST PUSH0 DUP1 REVERT JUMPDEST PUSH0 DUP2 SWAP1 POP SWAP2 SWAP1 POP JUMP JUMPDEST PUSH2 0x1347 DUP2 PUSH2 0x1335 JUMP JUMPDEST DUP2 EQ PUSH2 0x1351 JUMPI PUSH0 DUP1 REVERT JUMPDEST POP JUMP JUMPDEST PUSH0 DUP2 CALLDATALOAD SWAP1 POP PUSH2 0x1362 DUP2 PUSH2 0x133E JUMP JUMPDEST SWAP3 SWAP2 POP POP JUMP JUMPDEST PUSH0 PUSH1 0x20 DUP3 DUP5 SUB SLT ISZERO PUSH2 0x137D JUMPI PUSH2 0x137C PUSH2 0x132D JUMP JUMPDEST JUMPDEST PUSH0 PUSH2 0x138A DUP5 DUP3 DUP6 ADD PUSH2 0x1354 JUMP JUMPDEST SWAP2 POP POP SWAP3 SWAP2 POP POP JUMP JUMPDEST PUSH0 DUP2 MLOAD SWAP1 POP SWAP2 SWAP1 POP JUMP JUMPDEST PUSH0 DUP3 DUP3 MSTORE PUSH1 0x20 DUP3 ADD SWAP1 POP SWAP3 SWAP2 POP POP JUMP JUMPDEST DUP3 DUP2 DUP4 MCOPY PUSH0 DUP4 DUP4 ADD MSTORE POP POP POP JUMP JUMPDEST PUSH0 PUSH1 0x1F NOT PUSH1 0x1F DUP4 ADD AND SWAP1 POP SWAP2 SWAP1 POP JUMP JUMPDEST PUSH0 PUSH2 0x13D5 DUP3 PUSH2 0x1393 JUMP JUMPDEST PUSH2 0x13DF DUP2 DUP6 PUSH2 0x139D JUMP JUMPDEST SWAP4 POP PUSH2 0x13EF DUP2 DUP6 PUSH1 0x20 DUP7 ADD PUSH2 0x13AD JUMP JUMPDEST PUSH2 0x13F8 DUP2 PUSH2 0x13BB JUMP JUMPDEST DUP5 ADD SWAP2 POP POP SWAP3 SWAP2 POP POP JUMP JUMPDEST PUSH2 0x140C DUP2 PUSH2 0x1335 JUMP JUMPDEST DUP3 MSTORE POP POP JUMP JUMPDEST PUSH0 PUSH1 0xA0 DUP3 ADD SWAP1 POP DUP2 DUP2 SUB PUSH0 DUP4 ADD MSTORE PUSH2 0x142A DUP2 DUP9 PUSH2 0x13CB JUMP JUMPDEST SWAP1 POP PUSH2 0x1439 PUSH1 0x20 DUP4 ADD DUP8 PUSH2 0x1403 JUMP JUMPDEST PUSH2 0x1446 PUSH1 0x40 DUP4 ADD DUP7 PUSH2 0x1403 JUMP JUMPDEST DUP2 DUP2 SUB PUSH1 0x60 DUP4 ADD MSTORE PUSH2 0x1458 DUP2 DUP6 PUSH2 0x13CB JUMP JUMPDEST SWAP1 POP DUP2 DUP2 SUB PUSH1 0x80 DUP4 ADD MSTORE PUSH2 0x146C DUP2 DUP5 PUSH2 0x13CB JUMP JUMPDEST SWAP1 POP SWAP7 SWAP6 POP POP POP POP POP POP JUMP JUMPDEST PUSH0 PUSH1 0x20 DUP3 ADD SWAP1 POP DUP2 DUP2 SUB PUSH0 DUP4 ADD MSTORE PUSH2 0x1490 DUP2 DUP5 PUSH2 0x13CB JUMP JUMPDEST SWAP1 POP SWAP3 SWAP2 POP POP JUMP JUMPDEST PUSH0 DUP1 REVERT JUMPDEST PUSH0 DUP1 REVERT JUMPDEST PUSH32 0x4E487B7100000000000000000000000000000000000000000000000000000000 PUSH0 MSTORE PUSH1 0x41 PUSH1 0x4 MSTORE PUSH1 0x24 PUSH0 REVERT JUMPDEST PUSH2 0x14D6 DUP3 PUSH2 0x13BB JUMP JUMPDEST DUP2 ADD DUP2 DUP2 LT PUSH8 0xFFFFFFFFFFFFFFFF DUP3 GT OR ISZERO PUSH2 0x14F5 JUMPI PUSH2 0x14F4 PUSH2 0x14A0 JUMP JUMPDEST JUMPDEST DUP1 PUSH1 0x40 MSTORE POP POP POP JUMP JUMPDEST PUSH0 PUSH2 0x1507 PUSH2 0x1324 JUMP JUMPDEST SWAP1 POP PUSH2 0x1513 DUP3 DUP3 PUSH2 0x14CD JUMP JUMPDEST SWAP2 SWAP1 POP JUMP JUMPDEST PUSH0 PUSH8 0xFFFFFFFFFFFFFFFF DUP3 GT ISZERO PUSH2 0x1532 JUMPI PUSH2 0x1531 PUSH2 0x14A0 JUMP JUMPDEST JUMPDEST PUSH2 0x153B DUP3 PUSH2 0x13BB JUMP JUMPDEST SWAP1 POP PUSH1 0x20 DUP2 ADD SWAP1 POP SWAP2 SWAP1 POP JUMP JUMPDEST DUP3 DUP2 DUP4 CALLDATACOPY PUSH0 DUP4 DUP4 ADD MSTORE POP POP POP JUMP JUMPDEST PUSH0 PUSH2 0x1568 PUSH2 0x1563 DUP5 PUSH2 0x1518 JUMP JUMPDEST PUSH2 0x14FE JUMP JUMPDEST SWAP1 POP DUP3 DUP2 MSTORE PUSH1 0x20 DUP2 ADD DUP5 DUP5 DUP5 ADD GT ISZERO PUSH2 0x1584 JUMPI PUSH2 0x1583 PUSH2 0x149C JUMP JUMPDEST JUMPDEST PUSH2 0x158F DUP5 DUP3 DUP6 PUSH2 0x1548 JUMP JUMPDEST POP SWAP4 SWAP3 POP POP POP JUMP JUMPDEST PUSH0 DUP3 PUSH1 0x1F DUP4 ADD SLT PUSH2 0x15AB JUMPI PUSH2 0x15AA PUSH2 0x1498 JUMP JUMPDEST JUMPDEST DUP2 CALLDATALOAD PUSH2 0x15BB DUP5 DUP3 PUSH1 0x20 DUP7 ADD PUSH2 0x1556 JUMP JUMPDEST SWAP2 POP POP SWAP3 SWAP2 POP POP JUMP JUMPDEST PUSH0 PUSH1 0x20 DUP3 DUP5 SUB SLT ISZERO PUSH2 0x15D9 JUMPI PUSH2 0x15D8 PUSH2 0x132D JUMP JUMPDEST JUMPDEST PUSH0 DUP3 ADD CALLDATALOAD PUSH8 0xFFFFFFFFFFFFFFFF DUP2 GT ISZERO PUSH2 0x15F6 JUMPI PUSH2 0x15F5 PUSH2 0x1331 JUMP JUMPDEST JUMPDEST PUSH2 0x1602 DUP5 DUP3 DUP6 ADD PUSH2 0x1597 JUMP JUMPDEST SWAP2 POP POP SWAP3 SWAP2 POP POP JUMP JUMPDEST PUSH0 PUSH1 0x20 DUP3 ADD SWAP1 POP PUSH2 0x161E PUSH0 DUP4 ADD DUP5 PUSH2 0x1403 JUMP JUMPDEST SWAP3 SWAP2 POP POP JUMP JUMPDEST PUSH0 DUP2 MLOAD SWAP1 POP SWAP2 SWAP1 POP JUMP JUMPDEST PUSH0 DUP3 DUP3 MSTORE PUSH1 0x20 DUP3 ADD SWAP1 POP SWAP3 SWAP2 POP POP JUMP JUMPDEST PUSH0 DUP2 SWAP1 POP PUSH1 0x20 DUP3 ADD SWAP1 POP SWAP2 SWAP1 POP JUMP JUMPDEST PUSH0 DUP3 DUP3 MSTORE PUSH1 0x20 DUP3 ADD SWAP1 POP SWAP3 SWAP2 POP POP JUMP JUMPDEST PUSH0 PUSH2 0x1667 DUP3 PUSH2 0x1393 JUMP JUMPDEST PUSH2 0x1671 DUP2 DUP6 PUSH2 0x164D JUMP JUMPDEST SWAP4 POP PUSH2 0x1681 DUP2 DUP6 PUSH1 0x20 DUP7 ADD PUSH2 0x13AD JUMP JUMPDEST PUSH2 0x168A DUP2 PUSH2 0x13BB JUMP JUMPDEST DUP5 ADD SWAP2 POP POP SWAP3 SWAP2 POP POP JUMP JUMPDEST PUSH2 0x169E DUP2 PUSH2 0x1335 JUMP JUMPDEST DUP3 MSTORE POP POP JUMP JUMPDEST PUSH0 PUSH1 0xA0 DUP4 ADD PUSH0 DUP4 ADD MLOAD DUP5 DUP3 SUB PUSH0 DUP7 ADD MSTORE PUSH2 0x16BE DUP3 DUP3 PUSH2 0x165D JUMP JUMPDEST SWAP2 POP POP PUSH1 0x20 DUP4 ADD MLOAD PUSH2 0x16D3 PUSH1 0x20 DUP7 ADD DUP3 PUSH2 0x1695 JUMP JUMPDEST POP PUSH1 0x40 DUP4 ADD MLOAD PUSH2 0x16E6 PUSH1 0x40 DUP7 ADD DUP3 PUSH2 0x1695 JUMP JUMPDEST POP PUSH1 0x60 DUP4 ADD MLOAD DUP5 DUP3 SUB PUSH1 0x60 DUP7 ADD MSTORE PUSH2 0x16FE DUP3 DUP3 PUSH2 0x165D JUMP JUMPDEST SWAP2 POP POP PUSH1 0x80 DUP4 ADD MLOAD DUP5 DUP3 SUB PUSH1 0x80 DUP7 ADD MSTORE PUSH2 0x1718 DUP3 DUP3 PUSH2 0x165D JUMP JUMPDEST SWAP2 POP POP DUP1 SWAP2 POP POP SWAP3 SWAP2 POP POP JUMP JUMPDEST PUSH0 PUSH2 0x1730 DUP4 DUP4 PUSH2 0x16A4 JUMP JUMPDEST SWAP1 POP SWAP3 SWAP2 POP POP JUMP JUMPDEST PUSH0 PUSH1 0x20 DUP3 ADD SWAP1 POP SWAP2 SWAP1 POP JUMP JUMPDEST PUSH0 PUSH2 0x174E DUP3 PUSH2 0x1624 JUMP JUMPDEST PUSH2 0x1758 DUP2 DUP6 PUSH2 0x162E JUMP JUMPDEST SWAP4 POP DUP4 PUSH1 0x20 DUP3 MUL DUP6 ADD PUSH2 0x176A DUP6 PUSH2 0x163E JUMP JUMPDEST DUP1 PUSH0 JUMPDEST DUP6 DUP2 LT ISZERO PUSH2 0x17A5 JUMPI DUP5 DUP5 SUB DUP10 MSTORE DUP2 MLOAD PUSH2 0x1786 DUP6 DUP3 PUSH2 0x1725 JUMP JUMPDEST SWAP5 POP PUSH2 0x1791 DUP4 PUSH2 0x1738 JUMP JUMPDEST SWAP3 POP PUSH1 0x20 DUP11 ADD SWAP10 POP POP PUSH1 0x1 DUP2 ADD SWAP1 POP PUSH2 0x176D JUMP JUMPDEST POP DUP3 SWAP8 POP DUP8 SWAP6 POP POP POP POP POP POP SWAP3 SWAP2 POP POP JUMP JUMPDEST PUSH0 PUSH1 0x40 DUP3 ADD SWAP1 POP PUSH2 0x17CA PUSH0 DUP4 ADD DUP6 PUSH2 0x1403 JUMP JUMPDEST DUP2 DUP2 SUB PUSH1 0x20 DUP4 ADD MSTORE PUSH2 0x17DC DUP2 DUP5 PUSH2 0x1744 JUMP JUMPDEST SWAP1 POP SWAP4 SWAP3 POP POP POP JUMP JUMPDEST PUSH0 DUP1 PUSH0 DUP1 PUSH1 0x80 DUP6 DUP8 SUB SLT ISZERO PUSH2 0x17FD JUMPI PUSH2 0x17FC PUSH2 0x132D JUMP JUMPDEST JUMPDEST PUSH0 DUP6 ADD CALLDATALOAD PUSH8 0xFFFFFFFFFFFFFFFF DUP2 GT ISZERO PUSH2 0x181A JUMPI PUSH2 0x1819 PUSH2 0x1331 JUMP JUMPDEST JUMPDEST PUSH2 0x1826 DUP8 DUP3 DUP9 ADD PUSH2 0x1597 JUMP JUMPDEST SWAP5 POP POP PUSH1 0x20 PUSH2 0x1837 DUP8 DUP3 DUP9 ADD PUSH2 0x1354 JUMP JUMPDEST SWAP4 POP POP PUSH1 0x40 PUSH2 0x1848 DUP8 DUP3 DUP9 ADD PUSH2 0x1354 JUMP JUMPDEST SWAP3 POP POP PUSH1 0x60 DUP6 ADD CALLDATALOAD PUSH8 0xFFFFFFFFFFFFFFFF DUP2 GT ISZERO PUSH2 0x1869 JUMPI PUSH2 0x1868 PUSH2 0x1331 JUMP JUMPDEST JUMPDEST PUSH2 0x1875 DUP8 DUP3 DUP9 ADD PUSH2 0x1597 JUMP JUMPDEST SWAP2 POP POP SWAP3 SWAP6 SWAP2 SWAP5 POP SWAP3 POP JUMP JUMPDEST PUSH0 DUP2 ISZERO ISZERO SWAP1 POP SWAP2 SWAP1 POP JUMP JUMPDEST PUSH2 0x1895 DUP2 PUSH2 0x1881 JUMP JUMPDEST DUP3 MSTORE POP POP JUMP JUMPDEST PUSH0 PUSH1 0x20 DUP3 ADD SWAP1 POP PUSH2 0x18AE PUSH0 DUP4 ADD DUP5 PUSH2 0x188C JUMP JUMPDEST SWAP3 SWAP2 POP POP JUMP JUMPDEST PUSH0 PUSH1 0x20 DUP3 ADD SWAP1 POP DUP2 DUP2 SUB PUSH0 DUP4 ADD MSTORE PUSH2 0x18CC DUP2 DUP5 PUSH2 0x1744 JUMP JUMPDEST SWAP1 POP SWAP3 SWAP2 POP POP JUMP JUMPDEST PUSH32 0x4E487B7100000000000000000000000000000000000000000000000000000000 PUSH0 MSTORE PUSH1 0x22 PUSH1 0x4 MSTORE PUSH1 0x24 PUSH0 REVERT JUMPDEST PUSH0 PUSH1 0x2 DUP3 DIV SWAP1 POP PUSH1 0x1 DUP3 AND DUP1 PUSH2 0x1918 JUMPI PUSH1 0x7F DUP3 AND SWAP2 POP JUMPDEST PUSH1 0x20 DUP3 LT DUP2 SUB PUSH2 0x192B JUMPI PUSH2 0x192A PUSH2 0x18D4 JUMP JUMPDEST JUMPDEST POP SWAP2 SWAP1 POP JUMP JUMPDEST PUSH32 0x53747564656E74206E6F7420666F756E64000000000000000000000000000000 PUSH0 DUP3 ADD MSTORE POP JUMP JUMPDEST PUSH0 PUSH2 0x1965 PUSH1 0x11 DUP4 PUSH2 0x139D JUMP JUMPDEST SWAP2 POP PUSH2 0x1970 DUP3 PUSH2 0x1931 JUMP JUMPDEST PUSH1 0x20 DUP3 ADD SWAP1 POP SWAP2 SWAP1 POP JUMP JUMPDEST PUSH0 PUSH1 0x20 DUP3 ADD SWAP1 POP DUP2 DUP2 SUB PUSH0 DUP4 ADD MSTORE PUSH2 0x1992 DUP2 PUSH2 0x1959 JUMP JUMPDEST SWAP1 POP SWAP2 SWAP1 POP JUMP JUMPDEST PUSH32 0x4E487B7100000000000000000000000000000000000000000000000000000000 PUSH0 MSTORE PUSH1 0x11 PUSH1 0x4 MSTORE PUSH1 0x24 PUSH0 REVERT JUMPDEST PUSH0 PUSH2 0x19D0 DUP3 PUSH2 0x1335 JUMP JUMPDEST SWAP2 POP PUSH2 0x19DB DUP4 PUSH2 0x1335 JUMP JUMPDEST SWAP3 POP DUP3 DUP3 SUB SWAP1 POP DUP2 DUP2 GT ISZERO PUSH2 0x19F3 JUMPI PUSH2 0x19F2 PUSH2 0x1999 JUMP JUMPDEST JUMPDEST SWAP3 SWAP2 POP POP JUMP JUMPDEST PUSH32 0x4E487B7100000000000000000000000000000000000000000000000000000000 PUSH0 MSTORE PUSH1 0x32 PUSH1 0x4 MSTORE PUSH1 0x24 PUSH0 REVERT JUMPDEST PUSH0 DUP2 SWAP1 POP SWAP3 SWAP2 POP POP JUMP JUMPDEST PUSH0 DUP2 SWAP1 POP DUP2 PUSH0 MSTORE PUSH1 0x20 PUSH0 KECCAK256 SWAP1 POP SWAP2 SWAP1 POP JUMP JUMPDEST PUSH0 DUP2 SLOAD PUSH2 0x1A4E DUP2 PUSH2 0x1901 JUMP JUMPDEST PUSH2 0x1A58 DUP2 DUP7 PUSH2 0x1A26 JUMP JUMPDEST SWAP5 POP PUSH1 0x1 DUP3 AND PUSH0 DUP2 EQ PUSH2 0x1A72 JUMPI PUSH1 0x1 DUP2 EQ PUSH2 0x1A87 JUMPI PUSH2 0x1AB9 JUMP JUMPDEST PUSH1 0xFF NOT DUP4 AND DUP7 MSTORE DUP2 ISZERO ISZERO DUP3 MUL DUP7 ADD SWAP4 POP PUSH2 0x1AB9 JUMP JUMPDEST PUSH2 0x1A90 DUP6 PUSH2 0x1A30 JUMP JUMPDEST PUSH0 JUMPDEST DUP4 DUP2 LT ISZERO PUSH2 0x1AB1 JUMPI DUP2 SLOAD DUP2 DUP10 ADD MSTORE PUSH1 0x1 DUP3 ADD SWAP2 POP PUSH1 0x20 DUP2 ADD SWAP1 POP PUSH2 0x1A92 JUMP JUMPDEST DUP4 DUP9 ADD SWAP6 POP POP POP JUMPDEST POP POP POP SWAP3 SWAP2 POP POP JUMP JUMPDEST PUSH0 PUSH2 0x1ACD DUP3 DUP5 PUSH2 0x1A42 JUMP JUMPDEST SWAP2 POP DUP2 SWAP1 POP SWAP3 SWAP2 POP POP JUMP JUMPDEST PUSH32 0x4E6F2073747564656E7473000000000000000000000000000000000000000000 PUSH0 DUP3 ADD MSTORE POP JUMP JUMPDEST PUSH0 PUSH2 0x1B0C PUSH1 0xB DUP4 PUSH2 0x139D JUMP JUMPDEST SWAP2 POP PUSH2 0x1B17 DUP3 PUSH2 0x1AD8 JUMP JUMPDEST PUSH1 0x20 DUP3 ADD SWAP1 POP SWAP2 SWAP1 POP JUMP JUMPDEST PUSH0 PUSH1 0x20 DUP3 ADD SWAP1 POP DUP2 DUP2 SUB PUSH0 DUP4 ADD MSTORE PUSH2 0x1B39 DUP2 PUSH2 0x1B00 JUMP JUMPDEST SWAP1 POP SWAP2 SWAP1 POP JUMP JUMPDEST PUSH0 PUSH2 0x1B4A DUP3 PUSH2 0x1335 JUMP JUMPDEST SWAP2 POP PUSH2 0x1B55 DUP4 PUSH2 0x1335 JUMP JUMPDEST SWAP3 POP DUP3 DUP3 ADD SWAP1 POP DUP1 DUP3 GT ISZERO PUSH2 0x1B6D JUMPI PUSH2 0x1B6C PUSH2 0x1999 JUMP JUMPDEST JUMPDEST SWAP3 SWAP2 POP POP JUMP JUMPDEST PUSH32 0x4E487B7100000000000000000000000000000000000000000000000000000000 PUSH0 MSTORE PUSH1 0x12 PUSH1 0x4 MSTORE PUSH1 0x24 PUSH0 REVERT JUMPDEST PUSH0 PUSH2 0x1BAA DUP3 PUSH2 0x1335 JUMP JUMPDEST SWAP2 POP PUSH2 0x1BB5 DUP4 PUSH2 0x1335 JUMP JUMPDEST SWAP3 POP DUP3 PUSH2 0x1BC5 JUMPI PUSH2 0x1BC4 PUSH2 0x1B73 JUMP JUMPDEST JUMPDEST DUP3 DUP3 DIV SWAP1 POP SWAP3 SWAP2 POP POP JUMP JUMPDEST PUSH0 PUSH2 0x1BDA DUP3 PUSH2 0x1335 JUMP JUMPDEST SWAP2 POP PUSH32 0xFFFFFFFFFFFFFFFFFFFFFFFFFFFFFFFFFFFFFFFFFFFFFFFFFFFFFFFFFFFFFFFF DUP3 SUB PUSH2 0x1C0C JUMPI PUSH2 0x1C0B PUSH2 0x1999 JUMP JUMPDEST JUMPDEST PUSH1 0x1 DUP3 ADD SWAP1 POP SWAP2 SWAP1 POP JUMP JUMPDEST PUSH0 DUP2 SWAP1 POP DUP2 PUSH0 MSTORE PUSH1 0x20 PUSH0 KECCAK256 SWAP1 POP SWAP2 SWAP1 POP JUMP JUMPDEST PUSH0 PUSH1 0x20 PUSH1 0x1F DUP4 ADD DIV SWAP1 POP SWAP2 SWAP1 POP JUMP JUMPDEST PUSH0 DUP3 DUP3 SHL SWAP1 POP SWAP3 SWAP2 POP POP JUMP JUMPDEST PUSH0 PUSH1 0x8 DUP4 MUL PUSH2 0x1C73 PUSH32 0xFFFFFFFFFFFFFFFFFFFFFFFFFFFFFFFFFFFFFFFFFFFFFFFFFFFFFFFFFFFFFFFF DUP3 PUSH2 0x1C38 JUMP JUMPDEST PUSH2 0x1C7D DUP7 DUP4 PUSH2 0x1C38 JUMP JUMPDEST SWAP6 POP DUP1 NOT DUP5 AND SWAP4 POP DUP1 DUP7 AND DUP5 OR SWAP3 POP POP POP SWAP4 SWAP3 POP POP POP JUMP JUMPDEST PUSH0 DUP2 SWAP1 POP SWAP2 SWAP1 POP JUMP JUMPDEST PUSH0 PUSH2 0x1CB8 PUSH2 0x1CB3 PUSH2 0x1CAE DUP5 PUSH2 0x1335 JUMP JUMPDEST PUSH2 0x1C95 JUMP JUMPDEST PUSH2 0x1335 JUMP JUMPDEST SWAP1 POP SWAP2 SWAP1 POP JUMP JUMPDEST PUSH0 DUP2 SWAP1 POP SWAP2 SWAP1 POP JUMP JUMPDEST PUSH2 0x1CD1 DUP4 PUSH2 0x1C9E JUMP JUMPDEST PUSH2 0x1CE5 PUSH2 0x1CDD DUP3 PUSH2 0x1CBF JUMP JUMPDEST DUP5 DUP5 SLOAD PUSH2 0x1C44 JUMP JUMPDEST DUP3 SSTORE POP POP POP POP JUMP JUMPDEST PUSH0 SWAP1 JUMP JUMPDEST PUSH2 0x1CF9 PUSH2 0x1CED JUMP JUMPDEST PUSH2 0x1D04 DUP2 DUP5 DUP5 PUSH2 0x1CC8 JUMP JUMPDEST POP POP POP JUMP JUMPDEST JUMPDEST DUP2 DUP2 LT ISZERO PUSH2 0x1D27 JUMPI PUSH2 0x1D1C PUSH0 DUP3 PUSH2 0x1CF1 JUMP JUMPDEST PUSH1 0x1 DUP2 ADD SWAP1 POP PUSH2 0x1D0A JUMP JUMPDEST POP POP JUMP JUMPDEST PUSH1 0x1F DUP3 GT ISZERO PUSH2 0x1D6C JUMPI PUSH2 0x1D3D DUP2 PUSH2 0x1C17 JUMP JUMPDEST PUSH2 0x1D46 DUP5 PUSH2 0x1C29 JUMP JUMPDEST DUP2 ADD PUSH1 0x20 DUP6 LT ISZERO PUSH2 0x1D55 JUMPI DUP2 SWAP1 POP JUMPDEST PUSH2 0x1D69 PUSH2 0x1D61 DUP6 PUSH2 0x1C29 JUMP JUMPDEST DUP4 ADD DUP3 PUSH2 0x1D09 JUMP JUMPDEST POP POP JUMPDEST POP POP POP JUMP JUMPDEST PUSH0 DUP3 DUP3 SHR SWAP1 POP SWAP3 SWAP2 POP POP JUMP JUMPDEST PUSH0 PUSH2 0x1D8C PUSH0 NOT DUP5 PUSH1 0x8 MUL PUSH2 0x1D71 JUMP JUMPDEST NOT DUP1 DUP4 AND SWAP2 POP POP SWAP3 SWAP2 POP POP JUMP JUMPDEST PUSH0 PUSH2 0x1DA4 DUP4 DUP4 PUSH2 0x1D7D JUMP JUMPDEST SWAP2 POP DUP3 PUSH1 0x2 MUL DUP3 OR SWAP1 POP SWAP3 SWAP2 POP POP JUMP JUMPDEST PUSH2 0x1DBD DUP3 PUSH2 0x1393 JUMP JUMPDEST PUSH8 0xFFFFFFFFFFFFFFFF DUP2 GT ISZERO PUSH2 0x1DD6 JUMPI PUSH2 0x1DD5 PUSH2 0x14A0 JUMP JUMPDEST JUMPDEST PUSH2 0x1DE0 DUP3 SLOAD PUSH2 0x1901 JUMP JUMPDEST PUSH2 0x1DEB DUP3 DUP3 DUP6 PUSH2 0x1D2B JUMP JUMPDEST PUSH0 PUSH1 0x20 SWAP1 POP PUSH1 0x1F DUP4 GT PUSH1 0x1 DUP2 EQ PUSH2 0x1E1C JUMPI PUSH0 DUP5 ISZERO PUSH2 0x1E0A JUMPI DUP3 DUP8 ADD MLOAD SWAP1 POP JUMPDEST PUSH2 0x1E14 DUP6 DUP3 PUSH2 0x1D99 JUMP JUMPDEST DUP7 SSTORE POP PUSH2 0x1E7B JUMP JUMPDEST PUSH1 0x1F NOT DUP5 AND PUSH2 0x1E2A DUP7 PUSH2 0x1C17 JUMP JUMPDEST PUSH0 JUMPDEST DUP3 DUP2 LT ISZERO PUSH2 0x1E51 JUMPI DUP5 DUP10 ADD MLOAD DUP3 SSTORE PUSH1 0x1 DUP3 ADD SWAP2 POP PUSH1 0x20 DUP6 ADD SWAP5 POP PUSH1 0x20 DUP2 ADD SWAP1 POP PUSH2 0x1E2C JUMP JUMPDEST DUP7 DUP4 LT ISZERO PUSH2 0x1E6E JUMPI DUP5 DUP10 ADD MLOAD PUSH2 0x1E6A PUSH1 0x1F DUP10 AND DUP3 PUSH2 0x1D7D JUMP JUMPDEST DUP4 SSTORE POP JUMPDEST PUSH1 0x1 PUSH1 0x2 DUP9 MUL ADD DUP9 SSTORE POP POP POP JUMPDEST POP POP POP POP POP POP JUMP INVALID LOG2 PUSH5 0x6970667358 0x22 SLT KECCAK256 SWAP8 0xA7 SWAP4 0xCB DUP8 0xBF 0x4B 0x4E 0xBE 0xD2 ORIGIN 0xB2 AND PUSH1 0x35 0xBC EXTCODESIZE PUSH21 0xAF9F0B91BD7E5E9D34362A5CACB764736F6C634300 ADDMOD BYTE STOP CALLER "
				},
				"gasEstimates": {
					"creation": {
						"codeDepositCost": "1573000",
						"executionCost": "1643",
						"totalCost": "1574643"
					},
					"external": {
						"QualifiedTeacher()": "infinite",
						"addStudent(string,uint256,uint256,string)": "infinite",
						"calculateAverage()": "infinite",
						"calculateGrade(uint256)": "infinite",
						"getAllStudents()": "infinite",
						"getFStudents()": "infinite",
						"getNumberStudents()": "2550",
						"getScoreName(string)": "infinite",
						"getStudentName(string)": "infinite",
						"getStudentNumber(uint256)": "infinite",
						"students(uint256)": "infinite"
					}
				},
				"methodIdentifiers": {
					"QualifiedTeacher()": "c06a93d3",
					"addStudent(string,uint256,uint256,string)": "9ae52f0f",
					"calculateAverage()": "86be4114",
					"calculateGrade(uint256)": "3bf1a7d1",
					"getAllStudents()": "e9e30927",
					"getFStudents()": "98463c74",
					"getNumberStudents()": "fc9b4099",
					"getScoreName(string)": "7676688b",
					"getStudentName(string)": "f317d020",
					"getStudentNumber(uint256)": "6191f364",
					"students(uint256)": "06ead22e"
				}
			},
			"storageLayout": {
				"storage": [
					{
						"astId": 16,
						"contract": "cordingtest/cordingtest2.sol:Test1",
						"label": "students",
						"offset": 0,
						"slot": "0",
						"type": "t_array(t_struct(Student)12_storage)dyn_storage"
					}
				],
				"types": {
					"t_array(t_struct(Student)12_storage)dyn_storage": {
						"base": "t_struct(Student)12_storage",
						"encoding": "dynamic_array",
						"label": "struct Test1.Student[]",
						"numberOfBytes": "32"
					},
					"t_string_storage": {
						"encoding": "bytes",
						"label": "string",
						"numberOfBytes": "32"
					},
					"t_struct(Student)12_storage": {
						"encoding": "inplace",
						"label": "struct Test1.Student",
						"members": [
							{
								"astId": 3,
								"contract": "cordingtest/cordingtest2.sol:Test1",
								"label": "name",
								"offset": 0,
								"slot": "0",
								"type": "t_string_storage"
							},
							{
								"astId": 5,
								"contract": "cordingtest/cordingtest2.sol:Test1",
								"label": "number",
								"offset": 0,
								"slot": "1",
								"type": "t_uint256"
							},
							{
								"astId": 7,
								"contract": "cordingtest/cordingtest2.sol:Test1",
								"label": "score",
								"offset": 0,
								"slot": "2",
								"type": "t_uint256"
							},
							{
								"astId": 9,
								"contract": "cordingtest/cordingtest2.sol:Test1",
								"label": "grade",
								"offset": 0,
								"slot": "3",
								"type": "t_string_storage"
							},
							{
								"astId": 11,
								"contract": "cordingtest/cordingtest2.sol:Test1",
								"label": "class",
								"offset": 0,
								"slot": "4",
								"type": "t_string_storage"
							}
						],
						"numberOfBytes": "160"
					},
					"t_uint256": {
						"encoding": "inplace",
						"label": "uint256",
						"numberOfBytes": "32"
					}
				}
			},
			"userdoc": {
				"kind": "user",
				"methods": {},
				"version": 1
			}
		}
	}
}