{
	"cordingtest/cordingtest11.sol": {
		"Test11": {
			"abi": [
				{
					"inputs": [],
					"stateMutability": "nonpayable",
					"type": "constructor"
				},
				{
					"anonymous": false,
					"inputs": [
						{
							"indexed": true,
							"internalType": "address",
							"name": "participant",
							"type": "address"
						},
						{
							"indexed": false,
							"internalType": "uint8[4]",
							"name": "numbers",
							"type": "uint8[4]"
						},
						{
							"indexed": false,
							"internalType": "string[2]",
							"name": "letters",
							"type": "string[2]"
						}
					],
					"name": "EntrySubmitted",
					"type": "event"
				},
				{
					"anonymous": false,
					"inputs": [
						{
							"indexed": true,
							"internalType": "address",
							"name": "sender",
							"type": "address"
						},
						{
							"indexed": false,
							"internalType": "uint256",
							"name": "amount",
							"type": "uint256"
						}
					],
					"name": "FundsDeposited",
					"type": "event"
				},
				{
					"anonymous": false,
					"inputs": [
						{
							"indexed": true,
							"internalType": "address",
							"name": "participant",
							"type": "address"
						},
						{
							"indexed": false,
							"internalType": "uint256",
							"name": "prize",
							"type": "uint256"
						}
					],
					"name": "PrizeDistributed",
					"type": "event"
				},
				{
					"anonymous": false,
					"inputs": [
						{
							"indexed": false,
							"internalType": "uint8[4]",
							"name": "numbers",
							"type": "uint8[4]"
						},
						{
							"indexed": false,
							"internalType": "string[2]",
							"name": "letters",
							"type": "string[2]"
						}
					],
					"name": "WinningNumbersSet",
					"type": "event"
				},
				{
					"stateMutability": "payable",
					"type": "fallback"
				},
				{
					"inputs": [],
					"name": "depositFunds",
					"outputs": [],
					"stateMutability": "payable",
					"type": "function"
				},
				{
					"inputs": [],
					"name": "distributePrizes",
					"outputs": [],
					"stateMutability": "nonpayable",
					"type": "function"
				},
				{
					"inputs": [
						{
							"internalType": "uint256",
							"name": "",
							"type": "uint256"
						}
					],
					"name": "entries",
					"outputs": [
						{
							"internalType": "address",
							"name": "participant",
							"type": "address"
						}
					],
					"stateMutability": "view",
					"type": "function"
				},
				{
					"inputs": [],
					"name": "getEntriesCount",
					"outputs": [
						{
							"internalType": "uint256",
							"name": "",
							"type": "uint256"
						}
					],
					"stateMutability": "view",
					"type": "function"
				},
				{
					"inputs": [
						{
							"internalType": "uint256",
							"name": "index",
							"type": "uint256"
						}
					],
					"name": "getEntry",
					"outputs": [
						{
							"internalType": "uint8[4]",
							"name": "",
							"type": "uint8[4]"
						},
						{
							"internalType": "string[2]",
							"name": "",
							"type": "string[2]"
						},
						{
							"internalType": "address",
							"name": "",
							"type": "address"
						}
					],
					"stateMutability": "view",
					"type": "function"
				},
				{
					"inputs": [],
					"name": "owner",
					"outputs": [
						{
							"internalType": "address",
							"name": "",
							"type": "address"
						}
					],
					"stateMutability": "view",
					"type": "function"
				},
				{
					"inputs": [
						{
							"internalType": "uint8[4]",
							"name": "numbers",
							"type": "uint8[4]"
						},
						{
							"internalType": "string[2]",
							"name": "letters",
							"type": "string[2]"
						}
					],
					"name": "setWinningNumbers",
					"outputs": [],
					"stateMutability": "nonpayable",
					"type": "function"
				},
				{
					"inputs": [
						{
							"internalType": "uint8[4]",
							"name": "numbers",
							"type": "uint8[4]"
						},
						{
							"internalType": "string[2]",
							"name": "letters",
							"type": "string[2]"
						}
					],
					"name": "submitEntry",
					"outputs": [],
					"stateMutability": "payable",
					"type": "function"
				},
				{
					"inputs": [],
					"name": "ticketPrice",
					"outputs": [
						{
							"internalType": "uint256",
							"name": "",
							"type": "uint256"
						}
					],
					"stateMutability": "view",
					"type": "function"
				},
				{
					"inputs": [
						{
							"internalType": "uint256",
							"name": "",
							"type": "uint256"
						}
					],
					"name": "winningLetters",
					"outputs": [
						{
							"internalType": "string",
							"name": "",
							"type": "string"
						}
					],
					"stateMutability": "view",
					"type": "function"
				},
				{
					"inputs": [
						{
							"internalType": "uint256",
							"name": "",
							"type": "uint256"
						}
					],
					"name": "winningNumbers",
					"outputs": [
						{
							"internalType": "uint8",
							"name": "",
							"type": "uint8"
						}
					],
					"stateMutability": "view",
					"type": "function"
				},
				{
					"stateMutability": "payable",
					"type": "receive"
				}
			],
			"devdoc": {
				"kind": "dev",
				"methods": {},
				"version": 1
			},
			"evm": {
				"assembly": "    /* \"cordingtest/cordingtest11.sol\":418:3843  contract Test11 {... */\n  mstore(0x40, 0x80)\n    /* \"cordingtest/cordingtest11.sol\":704:714  0.05 ether */\n  0xb1a2bc2ec50000\n    /* \"cordingtest/cordingtest11.sol\":675:714  uint256 public ticketPrice = 0.05 ether */\n  0x05\n  sstore\n    /* \"cordingtest/cordingtest11.sol\":1138:1187  constructor() {... */\n  callvalue\n  dup1\n  iszero\n  tag_1\n  jumpi\n  0x00\n  dup1\n  revert\ntag_1:\n  pop\n    /* \"cordingtest/cordingtest11.sol\":1170:1180  msg.sender */\n  caller\n    /* \"cordingtest/cordingtest11.sol\":1162:1167  owner */\n  0x04\n  0x00\n    /* \"cordingtest/cordingtest11.sol\":1162:1180  owner = msg.sender */\n  0x0100\n  exp\n  dup2\n  sload\n  dup2\n  0xffffffffffffffffffffffffffffffffffffffff\n  mul\n  not\n  and\n  swap1\n  dup4\n  0xffffffffffffffffffffffffffffffffffffffff\n  and\n  mul\n  or\n  swap1\n  sstore\n  pop\n    /* \"cordingtest/cordingtest11.sol\":418:3843  contract Test11 {... */\n  dataSize(sub_0)\n  dup1\n  dataOffset(sub_0)\n  0x00\n  codecopy\n  0x00\n  return\nstop\n\nsub_0: assembly {\n        /* \"cordingtest/cordingtest11.sol\":418:3843  contract Test11 {... */\n      mstore(0x40, 0x80)\n      jumpi(tag_1, lt(calldatasize, 0x04))\n      shr(0xe0, calldataload(0x00))\n      dup1\n      0x8da5cb5b\n      gt\n      tag_14\n      jumpi\n      dup1\n      0x8da5cb5b\n      eq\n      tag_8\n      jumpi\n      dup1\n      0xb30906d4\n      eq\n      tag_9\n      jumpi\n      dup1\n      0xbae78d7b\n      eq\n      tag_10\n      jumpi\n      dup1\n      0xc1099656\n      eq\n      tag_11\n      jumpi\n      dup1\n      0xd09685b0\n      eq\n      tag_12\n      jumpi\n      dup1\n      0xe2c41dbc\n      eq\n      tag_13\n      jumpi\n      jump(tag_2)\n    tag_14:\n      dup1\n      0x10b6e482\n      eq\n      tag_3\n      jumpi\n      dup1\n      0x1209b1f6\n      eq\n      tag_4\n      jumpi\n      dup1\n      0x4e45f095\n      eq\n      tag_5\n      jumpi\n      dup1\n      0x7ce52eb6\n      eq\n      tag_6\n      jumpi\n      dup1\n      0x8baae14c\n      eq\n      tag_7\n      jumpi\n      jump(tag_2)\n    tag_1:\n      jumpi(tag_2, calldatasize)\n      stop\n    tag_2:\n      stop\n        /* \"cordingtest/cordingtest11.sol\":1480:1700  function setWinningNumbers(uint8[4] memory numbers, string[2] memory letters) public onlyOwner {... */\n    tag_3:\n      callvalue\n      dup1\n      iszero\n      tag_19\n      jumpi\n      0x00\n      dup1\n      revert\n    tag_19:\n      pop\n      tag_20\n      0x04\n      dup1\n      calldatasize\n      sub\n      dup2\n      add\n      swap1\n      tag_21\n      swap2\n      swap1\n      tag_22\n      jump\t// in\n    tag_21:\n      tag_23\n      jump\t// in\n    tag_20:\n      stop\n        /* \"cordingtest/cordingtest11.sol\":675:714  uint256 public ticketPrice = 0.05 ether */\n    tag_4:\n      callvalue\n      dup1\n      iszero\n      tag_24\n      jumpi\n      0x00\n      dup1\n      revert\n    tag_24:\n      pop\n      tag_25\n      tag_26\n      jump\t// in\n    tag_25:\n      mload(0x40)\n      tag_27\n      swap2\n      swap1\n      tag_28\n      jump\t// in\n    tag_27:\n      mload(0x40)\n      dup1\n      swap2\n      sub\n      swap1\n      return\n        /* \"cordingtest/cordingtest11.sol\":576:606  uint8[4] public winningNumbers */\n    tag_5:\n      callvalue\n      dup1\n      iszero\n      tag_29\n      jumpi\n      0x00\n      dup1\n      revert\n    tag_29:\n      pop\n      tag_30\n      0x04\n      dup1\n      calldatasize\n      sub\n      dup2\n      add\n      swap1\n      tag_31\n      swap2\n      swap1\n      tag_32\n      jump\t// in\n    tag_31:\n      tag_33\n      jump\t// in\n    tag_30:\n      mload(0x40)\n      tag_34\n      swap2\n      swap1\n      tag_35\n      jump\t// in\n    tag_34:\n      mload(0x40)\n      dup1\n      swap2\n      sub\n      swap1\n      return\n        /* \"cordingtest/cordingtest11.sol\":2393:3331  function distributePrizes() public onlyOwner {... */\n    tag_6:\n      callvalue\n      dup1\n      iszero\n      tag_36\n      jumpi\n      0x00\n      dup1\n      revert\n    tag_36:\n      pop\n      tag_37\n      tag_38\n      jump\t// in\n    tag_37:\n      stop\n        /* \"cordingtest/cordingtest11.sol\":1193:1474  function submitEntry(uint8[4] memory numbers, string[2] memory letters) public payable {... */\n    tag_7:\n      tag_39\n      0x04\n      dup1\n      calldatasize\n      sub\n      dup2\n      add\n      swap1\n      tag_40\n      swap2\n      swap1\n      tag_22\n      jump\t// in\n    tag_40:\n      tag_41\n      jump\t// in\n    tag_39:\n      stop\n        /* \"cordingtest/cordingtest11.sol\":649:669  address public owner */\n    tag_8:\n      callvalue\n      dup1\n      iszero\n      tag_42\n      jumpi\n      0x00\n      dup1\n      revert\n    tag_42:\n      pop\n      tag_43\n      tag_44\n      jump\t// in\n    tag_43:\n      mload(0x40)\n      tag_45\n      swap2\n      swap1\n      tag_46\n      jump\t// in\n    tag_45:\n      mload(0x40)\n      dup1\n      swap2\n      sub\n      swap1\n      return\n        /* \"cordingtest/cordingtest11.sol\":548:570  Entry[] public entries */\n    tag_9:\n      callvalue\n      dup1\n      iszero\n      tag_47\n      jumpi\n      0x00\n      dup1\n      revert\n    tag_47:\n      pop\n      tag_48\n      0x04\n      dup1\n      calldatasize\n      sub\n      dup2\n      add\n      swap1\n      tag_49\n      swap2\n      swap1\n      tag_32\n      jump\t// in\n    tag_49:\n      tag_50\n      jump\t// in\n    tag_48:\n      mload(0x40)\n      tag_51\n      swap2\n      swap1\n      tag_46\n      jump\t// in\n    tag_51:\n      mload(0x40)\n      dup1\n      swap2\n      sub\n      swap1\n      return\n        /* \"cordingtest/cordingtest11.sol\":3552:3769  function getEntry(uint256 index) public view returns (uint8[4] memory, string[2] memory, address) {... */\n    tag_10:\n      callvalue\n      dup1\n      iszero\n      tag_52\n      jumpi\n      0x00\n      dup1\n      revert\n    tag_52:\n      pop\n      tag_53\n      0x04\n      dup1\n      calldatasize\n      sub\n      dup2\n      add\n      swap1\n      tag_54\n      swap2\n      swap1\n      tag_32\n      jump\t// in\n    tag_54:\n      tag_55\n      jump\t// in\n    tag_53:\n      mload(0x40)\n      tag_56\n      swap4\n      swap3\n      swap2\n      swap1\n      tag_57\n      jump\t// in\n    tag_56:\n      mload(0x40)\n      dup1\n      swap2\n      sub\n      swap1\n      return\n        /* \"cordingtest/cordingtest11.sol\":612:643  string[2] public winningLetters */\n    tag_11:\n      callvalue\n      dup1\n      iszero\n      tag_58\n      jumpi\n      0x00\n      dup1\n      revert\n    tag_58:\n      pop\n      tag_59\n      0x04\n      dup1\n      calldatasize\n      sub\n      dup2\n      add\n      swap1\n      tag_60\n      swap2\n      swap1\n      tag_32\n      jump\t// in\n    tag_60:\n      tag_61\n      jump\t// in\n    tag_59:\n      mload(0x40)\n      tag_62\n      swap2\n      swap1\n      tag_63\n      jump\t// in\n    tag_62:\n      mload(0x40)\n      dup1\n      swap2\n      sub\n      swap1\n      return\n        /* \"cordingtest/cordingtest11.sol\":3451:3546  function getEntriesCount() public view returns (uint256) {... */\n    tag_12:\n      callvalue\n      dup1\n      iszero\n      tag_64\n      jumpi\n      0x00\n      dup1\n      revert\n    tag_64:\n      pop\n      tag_65\n      tag_66\n      jump\t// in\n    tag_65:\n      mload(0x40)\n      tag_67\n      swap2\n      swap1\n      tag_28\n      jump\t// in\n    tag_67:\n      mload(0x40)\n      dup1\n      swap2\n      sub\n      swap1\n      return\n        /* \"cordingtest/cordingtest11.sol\":3337:3445  function depositFunds() public payable onlyOwner {... */\n    tag_13:\n      tag_68\n      tag_69\n      jump\t// in\n    tag_68:\n      stop\n        /* \"cordingtest/cordingtest11.sol\":1480:1700  function setWinningNumbers(uint8[4] memory numbers, string[2] memory letters) public onlyOwner {... */\n    tag_23:\n        /* \"cordingtest/cordingtest11.sol\":1071:1076  owner */\n      0x04\n      0x00\n      swap1\n      sload\n      swap1\n      0x0100\n      exp\n      swap1\n      div\n      0xffffffffffffffffffffffffffffffffffffffff\n      and\n        /* \"cordingtest/cordingtest11.sol\":1057:1076  msg.sender == owner */\n      0xffffffffffffffffffffffffffffffffffffffff\n      and\n        /* \"cordingtest/cordingtest11.sol\":1057:1067  msg.sender */\n      caller\n        /* \"cordingtest/cordingtest11.sol\":1057:1076  msg.sender == owner */\n      0xffffffffffffffffffffffffffffffffffffffff\n      and\n      eq\n        /* \"cordingtest/cordingtest11.sol\":1049:1114  require(msg.sender == owner, \"Only owner can call this function\") */\n      tag_71\n      jumpi\n      mload(0x40)\n      0x08c379a000000000000000000000000000000000000000000000000000000000\n      dup2\n      mstore\n      0x04\n      add\n      tag_72\n      swap1\n      tag_73\n      jump\t// in\n    tag_72:\n      mload(0x40)\n      dup1\n      swap2\n      sub\n      swap1\n      revert\n    tag_71:\n        /* \"cordingtest/cordingtest11.sol\":1602:1609  numbers */\n      dup2\n        /* \"cordingtest/cordingtest11.sol\":1585:1599  winningNumbers */\n      0x01\n        /* \"cordingtest/cordingtest11.sol\":1585:1609  winningNumbers = numbers */\n      swap1\n      0x04\n      tag_75\n      swap3\n      swap2\n      swap1\n      tag_76\n      jump\t// in\n    tag_75:\n      pop\n        /* \"cordingtest/cordingtest11.sol\":1636:1643  letters */\n      dup1\n        /* \"cordingtest/cordingtest11.sol\":1619:1633  winningLetters */\n      0x02\n        /* \"cordingtest/cordingtest11.sol\":1619:1643  winningLetters = letters */\n      swap1\n      0x02\n      tag_77\n      swap3\n      swap2\n      swap1\n      tag_78\n      jump\t// in\n    tag_77:\n      pop\n        /* \"cordingtest/cordingtest11.sol\":1658:1693  WinningNumbersSet(numbers, letters) */\n      0x036eaf57b62a30fce504114c11bf31c26f49bb0842743f4e796177f4bb6bb8fb\n        /* \"cordingtest/cordingtest11.sol\":1676:1683  numbers */\n      dup3\n        /* \"cordingtest/cordingtest11.sol\":1685:1692  letters */\n      dup3\n        /* \"cordingtest/cordingtest11.sol\":1658:1693  WinningNumbersSet(numbers, letters) */\n      mload(0x40)\n      tag_79\n      swap3\n      swap2\n      swap1\n      tag_80\n      jump\t// in\n    tag_79:\n      mload(0x40)\n      dup1\n      swap2\n      sub\n      swap1\n      log1\n        /* \"cordingtest/cordingtest11.sol\":1480:1700  function setWinningNumbers(uint8[4] memory numbers, string[2] memory letters) public onlyOwner {... */\n      pop\n      pop\n      jump\t// out\n        /* \"cordingtest/cordingtest11.sol\":675:714  uint256 public ticketPrice = 0.05 ether */\n    tag_26:\n      sload(0x05)\n      dup2\n      jump\t// out\n        /* \"cordingtest/cordingtest11.sol\":576:606  uint8[4] public winningNumbers */\n    tag_33:\n      0x01\n      dup2\n      0x04\n      dup2\n      lt\n      tag_81\n      jumpi\n      0x00\n      dup1\n      revert\n    tag_81:\n      0x20\n      swap2\n      dup3\n      dup3\n      div\n      add\n      swap2\n      swap1\n      mod\n      swap2\n      pop\n      sload\n      swap1\n      0x0100\n      exp\n      swap1\n      div\n      0xff\n      and\n      dup2\n      jump\t// out\n        /* \"cordingtest/cordingtest11.sol\":2393:3331  function distributePrizes() public onlyOwner {... */\n    tag_38:\n        /* \"cordingtest/cordingtest11.sol\":1071:1076  owner */\n      0x04\n      0x00\n      swap1\n      sload\n      swap1\n      0x0100\n      exp\n      swap1\n      div\n      0xffffffffffffffffffffffffffffffffffffffff\n      and\n        /* \"cordingtest/cordingtest11.sol\":1057:1076  msg.sender == owner */\n      0xffffffffffffffffffffffffffffffffffffffff\n      and\n        /* \"cordingtest/cordingtest11.sol\":1057:1067  msg.sender */\n      caller\n        /* \"cordingtest/cordingtest11.sol\":1057:1076  msg.sender == owner */\n      0xffffffffffffffffffffffffffffffffffffffff\n      and\n      eq\n        /* \"cordingtest/cordingtest11.sol\":1049:1114  require(msg.sender == owner, \"Only owner can call this function\") */\n      tag_84\n      jumpi\n      mload(0x40)\n      0x08c379a000000000000000000000000000000000000000000000000000000000\n      dup2\n      mstore\n      0x04\n      add\n      tag_85\n      swap1\n      tag_73\n      jump\t// in\n    tag_85:\n      mload(0x40)\n      dup1\n      swap2\n      sub\n      swap1\n      revert\n    tag_84:\n        /* \"cordingtest/cordingtest11.sol\":2448:2471  uint256 contractBalance */\n      0x00\n        /* \"cordingtest/cordingtest11.sol\":2474:2495  address(this).balance */\n      selfbalance\n        /* \"cordingtest/cordingtest11.sol\":2448:2495  uint256 contractBalance = address(this).balance */\n      swap1\n      pop\n        /* \"cordingtest/cordingtest11.sol\":2531:2532  0 */\n      0x00\n        /* \"cordingtest/cordingtest11.sol\":2513:2528  contractBalance */\n      dup2\n        /* \"cordingtest/cordingtest11.sol\":2513:2532  contractBalance > 0 */\n      gt\n        /* \"cordingtest/cordingtest11.sol\":2505:2567  require(contractBalance > 0, \"Insufficient funds in contract\") */\n      tag_87\n      jumpi\n      mload(0x40)\n      0x08c379a000000000000000000000000000000000000000000000000000000000\n      dup2\n      mstore\n      0x04\n      add\n      tag_88\n      swap1\n      tag_89\n      jump\t// in\n    tag_88:\n      mload(0x40)\n      dup1\n      swap2\n      sub\n      swap1\n      revert\n    tag_87:\n        /* \"cordingtest/cordingtest11.sol\":2583:2592  uint256 i */\n      0x00\n        /* \"cordingtest/cordingtest11.sol\":2578:3298  for (uint256 i = 0; i < entries.length; i++) {... */\n    tag_90:\n        /* \"cordingtest/cordingtest11.sol\":2602:2609  entries */\n      0x00\n        /* \"cordingtest/cordingtest11.sol\":2602:2616  entries.length */\n      dup1\n      sload\n      swap1\n      pop\n        /* \"cordingtest/cordingtest11.sol\":2598:2599  i */\n      dup2\n        /* \"cordingtest/cordingtest11.sol\":2598:2616  i < entries.length */\n      lt\n        /* \"cordingtest/cordingtest11.sol\":2578:3298  for (uint256 i = 0; i < entries.length; i++) {... */\n      iszero\n      tag_91\n      jumpi\n        /* \"cordingtest/cordingtest11.sol\":2637:2650  uint8 matches */\n      0x00\n        /* \"cordingtest/cordingtest11.sol\":2653:2677  checkMatches(entries[i]) */\n      tag_93\n        /* \"cordingtest/cordingtest11.sol\":2666:2673  entries */\n      0x00\n        /* \"cordingtest/cordingtest11.sol\":2674:2675  i */\n      dup4\n        /* \"cordingtest/cordingtest11.sol\":2666:2676  entries[i] */\n      dup2\n      sload\n      dup2\n      lt\n      tag_94\n      jumpi\n      tag_95\n      tag_96\n      jump\t// in\n    tag_95:\n    tag_94:\n      swap1\n      0x00\n      mstore\n      keccak256(0x00, 0x20)\n      swap1\n      0x04\n      mul\n      add\n        /* \"cordingtest/cordingtest11.sol\":2653:2677  checkMatches(entries[i]) */\n      mload(0x40)\n      dup1\n      0x60\n      add\n      0x40\n      mstore\n      swap1\n      dup2\n      0x00\n      dup3\n      add\n      0x04\n      dup1\n      0x20\n      mul\n      mload(0x40)\n      swap1\n      dup2\n      add\n      0x40\n      mstore\n      dup1\n      swap3\n      swap2\n      swap1\n      dup3\n      0x04\n      dup1\n      iszero\n      tag_98\n      jumpi\n      0x20\n      mul\n      dup3\n      add\n      swap2\n      0x00\n      swap1\n    tag_99:\n      dup3\n      dup3\n      swap1\n      sload\n      swap1\n      0x0100\n      exp\n      swap1\n      div\n      0xff\n      and\n      0xff\n      and\n      dup2\n      mstore\n      0x20\n      add\n      swap1\n      0x01\n      add\n      swap1\n      0x20\n      dup3\n      0x00\n      add\n      div\n      swap3\n      dup4\n      add\n      swap3\n      0x01\n      sub\n      dup3\n      mul\n      swap2\n      pop\n      dup1\n      dup5\n      gt\n      tag_99\n      jumpi\n      swap1\n      pop\n    tag_98:\n      pop\n      pop\n      pop\n      pop\n      pop\n      dup2\n      mstore\n      0x20\n      add\n      0x01\n      dup3\n      add\n      0x02\n      dup1\n      0x20\n      mul\n      mload(0x40)\n      swap1\n      dup2\n      add\n      0x40\n      mstore\n      dup1\n      swap3\n      swap2\n      swap1\n      0x00\n      swap1\n    tag_100:\n      dup3\n      dup3\n      lt\n      iszero\n      tag_101\n      jumpi\n      dup4\n      dup3\n      add\n      dup1\n      sload\n      tag_103\n      swap1\n      tag_104\n      jump\t// in\n    tag_103:\n      dup1\n      0x1f\n      add\n      0x20\n      dup1\n      swap2\n      div\n      mul\n      0x20\n      add\n      mload(0x40)\n      swap1\n      dup2\n      add\n      0x40\n      mstore\n      dup1\n      swap3\n      swap2\n      swap1\n      dup2\n      dup2\n      mstore\n      0x20\n      add\n      dup3\n      dup1\n      sload\n      tag_105\n      swap1\n      tag_104\n      jump\t// in\n    tag_105:\n      dup1\n      iszero\n      tag_106\n      jumpi\n      dup1\n      0x1f\n      lt\n      tag_107\n      jumpi\n      0x0100\n      dup1\n      dup4\n      sload\n      div\n      mul\n      dup4\n      mstore\n      swap2\n      0x20\n      add\n      swap2\n      jump(tag_106)\n    tag_107:\n      dup3\n      add\n      swap2\n      swap1\n      0x00\n      mstore\n      keccak256(0x00, 0x20)\n      swap1\n    tag_108:\n      dup2\n      sload\n      dup2\n      mstore\n      swap1\n      0x01\n      add\n      swap1\n      0x20\n      add\n      dup1\n      dup4\n      gt\n      tag_108\n      jumpi\n      dup3\n      swap1\n      sub\n      0x1f\n      and\n      dup3\n      add\n      swap2\n    tag_106:\n      pop\n      pop\n      pop\n      pop\n      pop\n      dup2\n      mstore\n      0x20\n      add\n      swap1\n      0x01\n      add\n      swap1\n      jump(tag_100)\n    tag_101:\n      pop\n      pop\n      pop\n      pop\n      dup2\n      mstore\n      0x20\n      add\n      0x03\n      dup3\n      add\n      0x00\n      swap1\n      sload\n      swap1\n      0x0100\n      exp\n      swap1\n      div\n      0xffffffffffffffffffffffffffffffffffffffff\n      and\n      0xffffffffffffffffffffffffffffffffffffffff\n      and\n      0xffffffffffffffffffffffffffffffffffffffff\n      and\n      dup2\n      mstore\n      pop\n      pop\n        /* \"cordingtest/cordingtest11.sol\":2653:2665  checkMatches */\n      tag_109\n        /* \"cordingtest/cordingtest11.sol\":2653:2677  checkMatches(entries[i]) */\n      jump\t// in\n    tag_93:\n        /* \"cordingtest/cordingtest11.sol\":2637:2677  uint8 matches = checkMatches(entries[i]) */\n      swap1\n      pop\n        /* \"cordingtest/cordingtest11.sol\":2691:2704  uint256 prize */\n      0x00\n        /* \"cordingtest/cordingtest11.sol\":2738:2739  6 */\n      0x06\n        /* \"cordingtest/cordingtest11.sol\":2727:2734  matches */\n      dup3\n        /* \"cordingtest/cordingtest11.sol\":2727:2739  matches == 6 */\n      0xff\n      and\n      sub\n        /* \"cordingtest/cordingtest11.sol\":2723:3013  if (matches == 6) {... */\n      tag_110\n      jumpi\n        /* \"cordingtest/cordingtest11.sol\":2767:2774  1 ether */\n      0x0de0b6b3a7640000\n        /* \"cordingtest/cordingtest11.sol\":2759:2774  prize = 1 ether */\n      swap1\n      pop\n        /* \"cordingtest/cordingtest11.sol\":2723:3013  if (matches == 6) {... */\n      jump(tag_111)\n    tag_110:\n        /* \"cordingtest/cordingtest11.sol\":2810:2811  5 */\n      0x05\n        /* \"cordingtest/cordingtest11.sol\":2799:2806  matches */\n      dup3\n        /* \"cordingtest/cordingtest11.sol\":2799:2811  matches == 5 */\n      0xff\n      and\n      sub\n        /* \"cordingtest/cordingtest11.sol\":2795:3013  if (matches == 5) {... */\n      tag_112\n      jumpi\n        /* \"cordingtest/cordingtest11.sol\":2839:2849  0.75 ether */\n      0x0a688906bd8b0000\n        /* \"cordingtest/cordingtest11.sol\":2831:2849  prize = 0.75 ether */\n      swap1\n      pop\n        /* \"cordingtest/cordingtest11.sol\":2795:3013  if (matches == 5) {... */\n      jump(tag_113)\n    tag_112:\n        /* \"cordingtest/cordingtest11.sol\":2885:2886  4 */\n      0x04\n        /* \"cordingtest/cordingtest11.sol\":2874:2881  matches */\n      dup3\n        /* \"cordingtest/cordingtest11.sol\":2874:2886  matches == 4 */\n      0xff\n      and\n      sub\n        /* \"cordingtest/cordingtest11.sol\":2870:3013  if (matches == 4) {... */\n      tag_114\n      jumpi\n        /* \"cordingtest/cordingtest11.sol\":2914:2924  0.25 ether */\n      0x03782dace9d90000\n        /* \"cordingtest/cordingtest11.sol\":2906:2924  prize = 0.25 ether */\n      swap1\n      pop\n        /* \"cordingtest/cordingtest11.sol\":2870:3013  if (matches == 4) {... */\n      jump(tag_115)\n    tag_114:\n        /* \"cordingtest/cordingtest11.sol\":2960:2961  3 */\n      0x03\n        /* \"cordingtest/cordingtest11.sol\":2949:2956  matches */\n      dup3\n        /* \"cordingtest/cordingtest11.sol\":2949:2961  matches == 3 */\n      0xff\n      and\n      sub\n        /* \"cordingtest/cordingtest11.sol\":2945:3013  if (matches == 3) {... */\n      tag_116\n      jumpi\n        /* \"cordingtest/cordingtest11.sol\":2989:2998  0.1 ether */\n      0x016345785d8a0000\n        /* \"cordingtest/cordingtest11.sol\":2981:2998  prize = 0.1 ether */\n      swap1\n      pop\n        /* \"cordingtest/cordingtest11.sol\":2945:3013  if (matches == 3) {... */\n    tag_116:\n        /* \"cordingtest/cordingtest11.sol\":2870:3013  if (matches == 4) {... */\n    tag_115:\n        /* \"cordingtest/cordingtest11.sol\":2795:3013  if (matches == 5) {... */\n    tag_113:\n        /* \"cordingtest/cordingtest11.sol\":2723:3013  if (matches == 6) {... */\n    tag_111:\n        /* \"cordingtest/cordingtest11.sol\":3039:3040  0 */\n      0x00\n        /* \"cordingtest/cordingtest11.sol\":3031:3036  prize */\n      dup2\n        /* \"cordingtest/cordingtest11.sol\":3031:3040  prize > 0 */\n      gt\n        /* \"cordingtest/cordingtest11.sol\":3027:3288  if (prize > 0) {... */\n      iszero\n      tag_117\n      jumpi\n        /* \"cordingtest/cordingtest11.sol\":3087:3092  prize */\n      dup1\n        /* \"cordingtest/cordingtest11.sol\":3068:3083  contractBalance */\n      dup5\n        /* \"cordingtest/cordingtest11.sol\":3068:3092  contractBalance >= prize */\n      lt\n      iszero\n        /* \"cordingtest/cordingtest11.sol\":3060:3138  require(contractBalance >= prize, \"Insufficient funds for prize distribution\") */\n      tag_118\n      jumpi\n      mload(0x40)\n      0x08c379a000000000000000000000000000000000000000000000000000000000\n      dup2\n      mstore\n      0x04\n      add\n      tag_119\n      swap1\n      tag_120\n      jump\t// in\n    tag_119:\n      mload(0x40)\n      dup1\n      swap2\n      sub\n      swap1\n      revert\n    tag_118:\n        /* \"cordingtest/cordingtest11.sol\":3164:3171  entries */\n      0x00\n        /* \"cordingtest/cordingtest11.sol\":3172:3173  i */\n      dup4\n        /* \"cordingtest/cordingtest11.sol\":3164:3174  entries[i] */\n      dup2\n      sload\n      dup2\n      lt\n      tag_121\n      jumpi\n      tag_122\n      tag_96\n      jump\t// in\n    tag_122:\n    tag_121:\n      swap1\n      0x00\n      mstore\n      keccak256(0x00, 0x20)\n      swap1\n      0x04\n      mul\n      add\n        /* \"cordingtest/cordingtest11.sol\":3164:3186  entries[i].participant */\n      0x03\n      add\n      0x00\n      swap1\n      sload\n      swap1\n      0x0100\n      exp\n      swap1\n      div\n      0xffffffffffffffffffffffffffffffffffffffff\n      and\n        /* \"cordingtest/cordingtest11.sol\":3156:3196  payable(entries[i].participant).transfer */\n      0xffffffffffffffffffffffffffffffffffffffff\n      and\n        /* \"cordingtest/cordingtest11.sol\":3156:3203  payable(entries[i].participant).transfer(prize) */\n      0x08fc\n        /* \"cordingtest/cordingtest11.sol\":3197:3202  prize */\n      dup3\n        /* \"cordingtest/cordingtest11.sol\":3156:3203  payable(entries[i].participant).transfer(prize) */\n      swap1\n      dup2\n      iszero\n      mul\n      swap1\n      mload(0x40)\n      0x00\n      mload(0x40)\n      dup1\n      dup4\n      sub\n      dup2\n      dup6\n      dup9\n      dup9\n      call\n      swap4\n      pop\n      pop\n      pop\n      pop\n      iszero\n      dup1\n      iszero\n      tag_125\n      jumpi\n      returndatasize\n      0x00\n      dup1\n      returndatacopy\n      revert(0x00, returndatasize)\n    tag_125:\n      pop\n        /* \"cordingtest/cordingtest11.sol\":3243:3250  entries */\n      0x00\n        /* \"cordingtest/cordingtest11.sol\":3251:3252  i */\n      dup4\n        /* \"cordingtest/cordingtest11.sol\":3243:3253  entries[i] */\n      dup2\n      sload\n      dup2\n      lt\n      tag_126\n      jumpi\n      tag_127\n      tag_96\n      jump\t// in\n    tag_127:\n    tag_126:\n      swap1\n      0x00\n      mstore\n      keccak256(0x00, 0x20)\n      swap1\n      0x04\n      mul\n      add\n        /* \"cordingtest/cordingtest11.sol\":3243:3265  entries[i].participant */\n      0x03\n      add\n      0x00\n      swap1\n      sload\n      swap1\n      0x0100\n      exp\n      swap1\n      div\n      0xffffffffffffffffffffffffffffffffffffffff\n      and\n        /* \"cordingtest/cordingtest11.sol\":3226:3273  PrizeDistributed(entries[i].participant, prize) */\n      0xffffffffffffffffffffffffffffffffffffffff\n      and\n      0xb8e091d87f82e56d22276c9a0088ea5d6068e355383dc08b2721b7b6cb10e845\n        /* \"cordingtest/cordingtest11.sol\":3267:3272  prize */\n      dup3\n        /* \"cordingtest/cordingtest11.sol\":3226:3273  PrizeDistributed(entries[i].participant, prize) */\n      mload(0x40)\n      tag_129\n      swap2\n      swap1\n      tag_28\n      jump\t// in\n    tag_129:\n      mload(0x40)\n      dup1\n      swap2\n      sub\n      swap1\n      log2\n        /* \"cordingtest/cordingtest11.sol\":3027:3288  if (prize > 0) {... */\n    tag_117:\n        /* \"cordingtest/cordingtest11.sol\":2623:3298  {... */\n      pop\n      pop\n        /* \"cordingtest/cordingtest11.sol\":2618:2621  i++ */\n      dup1\n      dup1\n      0x01\n      add\n      swap2\n      pop\n      pop\n        /* \"cordingtest/cordingtest11.sol\":2578:3298  for (uint256 i = 0; i < entries.length; i++) {... */\n      jump(tag_90)\n    tag_91:\n      pop\n        /* \"cordingtest/cordingtest11.sol\":3317:3324  entries */\n      0x00\n      dup1\n        /* \"cordingtest/cordingtest11.sol\":3310:3324  delete entries */\n      tag_130\n      swap2\n      swap1\n      tag_131\n      jump\t// in\n    tag_130:\n        /* \"cordingtest/cordingtest11.sol\":2438:3331  {... */\n      pop\n        /* \"cordingtest/cordingtest11.sol\":2393:3331  function distributePrizes() public onlyOwner {... */\n      jump\t// out\n        /* \"cordingtest/cordingtest11.sol\":1193:1474  function submitEntry(uint8[4] memory numbers, string[2] memory letters) public payable {... */\n    tag_41:\n        /* \"cordingtest/cordingtest11.sol\":1311:1322  ticketPrice */\n      sload(0x05)\n        /* \"cordingtest/cordingtest11.sol\":1298:1307  msg.value */\n      callvalue\n        /* \"cordingtest/cordingtest11.sol\":1298:1322  msg.value == ticketPrice */\n      eq\n        /* \"cordingtest/cordingtest11.sol\":1290:1349  require(msg.value == ticketPrice, \"Incorrect ticket price\") */\n      tag_133\n      jumpi\n      mload(0x40)\n      0x08c379a000000000000000000000000000000000000000000000000000000000\n      dup2\n      mstore\n      0x04\n      add\n      tag_134\n      swap1\n      tag_135\n      jump\t// in\n    tag_134:\n      mload(0x40)\n      dup1\n      swap2\n      sub\n      swap1\n      revert\n    tag_133:\n        /* \"cordingtest/cordingtest11.sol\":1359:1366  entries */\n      0x00\n        /* \"cordingtest/cordingtest11.sol\":1372:1407  Entry(numbers, letters, msg.sender) */\n      mload(0x40)\n      dup1\n      0x60\n      add\n      0x40\n      mstore\n      dup1\n        /* \"cordingtest/cordingtest11.sol\":1378:1385  numbers */\n      dup5\n        /* \"cordingtest/cordingtest11.sol\":1372:1407  Entry(numbers, letters, msg.sender) */\n      dup2\n      mstore\n      0x20\n      add\n        /* \"cordingtest/cordingtest11.sol\":1387:1394  letters */\n      dup4\n        /* \"cordingtest/cordingtest11.sol\":1372:1407  Entry(numbers, letters, msg.sender) */\n      dup2\n      mstore\n      0x20\n      add\n        /* \"cordingtest/cordingtest11.sol\":1396:1406  msg.sender */\n      caller\n        /* \"cordingtest/cordingtest11.sol\":1372:1407  Entry(numbers, letters, msg.sender) */\n      0xffffffffffffffffffffffffffffffffffffffff\n      and\n      dup2\n      mstore\n      pop\n        /* \"cordingtest/cordingtest11.sol\":1359:1408  entries.push(Entry(numbers, letters, msg.sender)) */\n      swap1\n      dup1\n      0x01\n      dup2\n      sload\n      add\n      dup1\n      dup3\n      sstore\n      dup1\n      swap2\n      pop\n      pop\n      0x01\n      swap1\n      sub\n      swap1\n      0x00\n      mstore\n      keccak256(0x00, 0x20)\n      swap1\n      0x04\n      mul\n      add\n      0x00\n      swap1\n      swap2\n      swap1\n      swap2\n      swap1\n      swap2\n      pop\n      0x00\n      dup3\n      add\n      mload\n      dup2\n      0x00\n      add\n      swap1\n      0x04\n      tag_137\n      swap3\n      swap2\n      swap1\n      tag_76\n      jump\t// in\n    tag_137:\n      pop\n      0x20\n      dup3\n      add\n      mload\n      dup2\n      0x01\n      add\n      swap1\n      0x02\n      tag_138\n      swap3\n      swap2\n      swap1\n      tag_78\n      jump\t// in\n    tag_138:\n      pop\n      0x40\n      dup3\n      add\n      mload\n      dup2\n      0x03\n      add\n      exp(0x0100, 0x00)\n      dup2\n      sload\n      dup2\n      0xffffffffffffffffffffffffffffffffffffffff\n      mul\n      not\n      and\n      swap1\n      dup4\n      0xffffffffffffffffffffffffffffffffffffffff\n      and\n      mul\n      or\n      swap1\n      sstore\n      pop\n      pop\n      pop\n        /* \"cordingtest/cordingtest11.sol\":1438:1448  msg.sender */\n      caller\n        /* \"cordingtest/cordingtest11.sol\":1423:1467  EntrySubmitted(msg.sender, numbers, letters) */\n      0xffffffffffffffffffffffffffffffffffffffff\n      and\n      0x94243a7065b4400927d1b5240ca7db2a443565e4bddef8e585541ea25b644ed6\n        /* \"cordingtest/cordingtest11.sol\":1450:1457  numbers */\n      dup4\n        /* \"cordingtest/cordingtest11.sol\":1459:1466  letters */\n      dup4\n        /* \"cordingtest/cordingtest11.sol\":1423:1467  EntrySubmitted(msg.sender, numbers, letters) */\n      mload(0x40)\n      tag_139\n      swap3\n      swap2\n      swap1\n      tag_80\n      jump\t// in\n    tag_139:\n      mload(0x40)\n      dup1\n      swap2\n      sub\n      swap1\n      log2\n        /* \"cordingtest/cordingtest11.sol\":1193:1474  function submitEntry(uint8[4] memory numbers, string[2] memory letters) public payable {... */\n      pop\n      pop\n      jump\t// out\n        /* \"cordingtest/cordingtest11.sol\":649:669  address public owner */\n    tag_44:\n      0x04\n      0x00\n      swap1\n      sload\n      swap1\n      0x0100\n      exp\n      swap1\n      div\n      0xffffffffffffffffffffffffffffffffffffffff\n      and\n      dup2\n      jump\t// out\n        /* \"cordingtest/cordingtest11.sol\":548:570  Entry[] public entries */\n    tag_50:\n      0x00\n      dup2\n      dup2\n      sload\n      dup2\n      lt\n      tag_140\n      jumpi\n      0x00\n      dup1\n      revert\n    tag_140:\n      swap1\n      0x00\n      mstore\n      keccak256(0x00, 0x20)\n      swap1\n      0x04\n      mul\n      add\n      0x00\n      swap2\n      pop\n      swap1\n      pop\n      dup1\n      0x03\n      add\n      0x00\n      swap1\n      sload\n      swap1\n      0x0100\n      exp\n      swap1\n      div\n      0xffffffffffffffffffffffffffffffffffffffff\n      and\n      swap1\n      pop\n      dup2\n      jump\t// out\n        /* \"cordingtest/cordingtest11.sol\":3552:3769  function getEntry(uint256 index) public view returns (uint8[4] memory, string[2] memory, address) {... */\n    tag_55:\n        /* \"cordingtest/cordingtest11.sol\":3606:3621  uint8[4] memory */\n      tag_142\n      tag_143\n      jump\t// in\n    tag_142:\n        /* \"cordingtest/cordingtest11.sol\":3623:3639  string[2] memory */\n      tag_144\n      tag_145\n      jump\t// in\n    tag_144:\n        /* \"cordingtest/cordingtest11.sol\":3641:3648  address */\n      0x00\n        /* \"cordingtest/cordingtest11.sol\":3660:3679  Entry storage entry */\n      dup1\n        /* \"cordingtest/cordingtest11.sol\":3682:3689  entries */\n      0x00\n        /* \"cordingtest/cordingtest11.sol\":3690:3695  index */\n      dup6\n        /* \"cordingtest/cordingtest11.sol\":3682:3696  entries[index] */\n      dup2\n      sload\n      dup2\n      lt\n      tag_147\n      jumpi\n      tag_148\n      tag_96\n      jump\t// in\n    tag_148:\n    tag_147:\n      swap1\n      0x00\n      mstore\n      keccak256(0x00, 0x20)\n      swap1\n      0x04\n      mul\n      add\n        /* \"cordingtest/cordingtest11.sol\":3660:3696  Entry storage entry = entries[index] */\n      swap1\n      pop\n        /* \"cordingtest/cordingtest11.sol\":3714:3719  entry */\n      dup1\n        /* \"cordingtest/cordingtest11.sol\":3714:3727  entry.numbers */\n      0x00\n      add\n        /* \"cordingtest/cordingtest11.sol\":3729:3734  entry */\n      dup2\n        /* \"cordingtest/cordingtest11.sol\":3729:3742  entry.letters */\n      0x01\n      add\n        /* \"cordingtest/cordingtest11.sol\":3744:3749  entry */\n      dup3\n        /* \"cordingtest/cordingtest11.sol\":3744:3761  entry.participant */\n      0x03\n      add\n      0x00\n      swap1\n      sload\n      swap1\n      0x0100\n      exp\n      swap1\n      div\n      0xffffffffffffffffffffffffffffffffffffffff\n      and\n        /* \"cordingtest/cordingtest11.sol\":3706:3762  return (entry.numbers, entry.letters, entry.participant) */\n      dup3\n      0x04\n      dup1\n      0x20\n      mul\n      mload(0x40)\n      swap1\n      dup2\n      add\n      0x40\n      mstore\n      dup1\n      swap3\n      swap2\n      swap1\n      dup3\n      0x04\n      dup1\n      iszero\n      tag_150\n      jumpi\n      0x20\n      mul\n      dup3\n      add\n      swap2\n      0x00\n      swap1\n    tag_151:\n      dup3\n      dup3\n      swap1\n      sload\n      swap1\n      0x0100\n      exp\n      swap1\n      div\n      0xff\n      and\n      0xff\n      and\n      dup2\n      mstore\n      0x20\n      add\n      swap1\n      0x01\n      add\n      swap1\n      0x20\n      dup3\n      0x00\n      add\n      div\n      swap3\n      dup4\n      add\n      swap3\n      0x01\n      sub\n      dup3\n      mul\n      swap2\n      pop\n      dup1\n      dup5\n      gt\n      tag_151\n      jumpi\n      swap1\n      pop\n    tag_150:\n      pop\n      pop\n      pop\n      pop\n      pop\n      swap3\n      pop\n      dup2\n      0x02\n      dup1\n      0x20\n      mul\n      mload(0x40)\n      swap1\n      dup2\n      add\n      0x40\n      mstore\n      dup1\n      swap3\n      swap2\n      swap1\n      0x00\n      swap1\n    tag_152:\n      dup3\n      dup3\n      lt\n      iszero\n      tag_153\n      jumpi\n      dup4\n      dup3\n      add\n      dup1\n      sload\n      tag_155\n      swap1\n      tag_104\n      jump\t// in\n    tag_155:\n      dup1\n      0x1f\n      add\n      0x20\n      dup1\n      swap2\n      div\n      mul\n      0x20\n      add\n      mload(0x40)\n      swap1\n      dup2\n      add\n      0x40\n      mstore\n      dup1\n      swap3\n      swap2\n      swap1\n      dup2\n      dup2\n      mstore\n      0x20\n      add\n      dup3\n      dup1\n      sload\n      tag_156\n      swap1\n      tag_104\n      jump\t// in\n    tag_156:\n      dup1\n      iszero\n      tag_157\n      jumpi\n      dup1\n      0x1f\n      lt\n      tag_158\n      jumpi\n      0x0100\n      dup1\n      dup4\n      sload\n      div\n      mul\n      dup4\n      mstore\n      swap2\n      0x20\n      add\n      swap2\n      jump(tag_157)\n    tag_158:\n      dup3\n      add\n      swap2\n      swap1\n      0x00\n      mstore\n      keccak256(0x00, 0x20)\n      swap1\n    tag_159:\n      dup2\n      sload\n      dup2\n      mstore\n      swap1\n      0x01\n      add\n      swap1\n      0x20\n      add\n      dup1\n      dup4\n      gt\n      tag_159\n      jumpi\n      dup3\n      swap1\n      sub\n      0x1f\n      and\n      dup3\n      add\n      swap2\n    tag_157:\n      pop\n      pop\n      pop\n      pop\n      pop\n      dup2\n      mstore\n      0x20\n      add\n      swap1\n      0x01\n      add\n      swap1\n      jump(tag_152)\n    tag_153:\n      pop\n      pop\n      pop\n      pop\n      swap2\n      pop\n      swap4\n      pop\n      swap4\n      pop\n      swap4\n      pop\n      pop\n        /* \"cordingtest/cordingtest11.sol\":3552:3769  function getEntry(uint256 index) public view returns (uint8[4] memory, string[2] memory, address) {... */\n      swap2\n      swap4\n      swap1\n      swap3\n      pop\n      jump\t// out\n        /* \"cordingtest/cordingtest11.sol\":612:643  string[2] public winningLetters */\n    tag_61:\n      0x02\n      dup2\n      0x02\n      dup2\n      lt\n      tag_160\n      jumpi\n      0x00\n      dup1\n      revert\n    tag_160:\n      add\n      0x00\n      swap2\n      pop\n      swap1\n      pop\n      dup1\n      sload\n      tag_162\n      swap1\n      tag_104\n      jump\t// in\n    tag_162:\n      dup1\n      0x1f\n      add\n      0x20\n      dup1\n      swap2\n      div\n      mul\n      0x20\n      add\n      mload(0x40)\n      swap1\n      dup2\n      add\n      0x40\n      mstore\n      dup1\n      swap3\n      swap2\n      swap1\n      dup2\n      dup2\n      mstore\n      0x20\n      add\n      dup3\n      dup1\n      sload\n      tag_163\n      swap1\n      tag_104\n      jump\t// in\n    tag_163:\n      dup1\n      iszero\n      tag_164\n      jumpi\n      dup1\n      0x1f\n      lt\n      tag_165\n      jumpi\n      0x0100\n      dup1\n      dup4\n      sload\n      div\n      mul\n      dup4\n      mstore\n      swap2\n      0x20\n      add\n      swap2\n      jump(tag_164)\n    tag_165:\n      dup3\n      add\n      swap2\n      swap1\n      0x00\n      mstore\n      keccak256(0x00, 0x20)\n      swap1\n    tag_166:\n      dup2\n      sload\n      dup2\n      mstore\n      swap1\n      0x01\n      add\n      swap1\n      0x20\n      add\n      dup1\n      dup4\n      gt\n      tag_166\n      jumpi\n      dup3\n      swap1\n      sub\n      0x1f\n      and\n      dup3\n      add\n      swap2\n    tag_164:\n      pop\n      pop\n      pop\n      pop\n      pop\n      dup2\n      jump\t// out\n        /* \"cordingtest/cordingtest11.sol\":3451:3546  function getEntriesCount() public view returns (uint256) {... */\n    tag_66:\n        /* \"cordingtest/cordingtest11.sol\":3499:3506  uint256 */\n      0x00\n        /* \"cordingtest/cordingtest11.sol\":3525:3532  entries */\n      dup1\n        /* \"cordingtest/cordingtest11.sol\":3525:3539  entries.length */\n      dup1\n      sload\n      swap1\n      pop\n        /* \"cordingtest/cordingtest11.sol\":3518:3539  return entries.length */\n      swap1\n      pop\n        /* \"cordingtest/cordingtest11.sol\":3451:3546  function getEntriesCount() public view returns (uint256) {... */\n      swap1\n      jump\t// out\n        /* \"cordingtest/cordingtest11.sol\":3337:3445  function depositFunds() public payable onlyOwner {... */\n    tag_69:\n        /* \"cordingtest/cordingtest11.sol\":1071:1076  owner */\n      0x04\n      0x00\n      swap1\n      sload\n      swap1\n      0x0100\n      exp\n      swap1\n      div\n      0xffffffffffffffffffffffffffffffffffffffff\n      and\n        /* \"cordingtest/cordingtest11.sol\":1057:1076  msg.sender == owner */\n      0xffffffffffffffffffffffffffffffffffffffff\n      and\n        /* \"cordingtest/cordingtest11.sol\":1057:1067  msg.sender */\n      caller\n        /* \"cordingtest/cordingtest11.sol\":1057:1076  msg.sender == owner */\n      0xffffffffffffffffffffffffffffffffffffffff\n      and\n      eq\n        /* \"cordingtest/cordingtest11.sol\":1049:1114  require(msg.sender == owner, \"Only owner can call this function\") */\n      tag_169\n      jumpi\n      mload(0x40)\n      0x08c379a000000000000000000000000000000000000000000000000000000000\n      dup2\n      mstore\n      0x04\n      add\n      tag_170\n      swap1\n      tag_73\n      jump\t// in\n    tag_170:\n      mload(0x40)\n      dup1\n      swap2\n      sub\n      swap1\n      revert\n    tag_169:\n        /* \"cordingtest/cordingtest11.sol\":3416:3426  msg.sender */\n      caller\n        /* \"cordingtest/cordingtest11.sol\":3401:3438  FundsDeposited(msg.sender, msg.value) */\n      0xffffffffffffffffffffffffffffffffffffffff\n      and\n      0x543ba50a5eec5e6178218e364b1d0f396157b3c8fa278522c2cb7fd99407d474\n        /* \"cordingtest/cordingtest11.sol\":3428:3437  msg.value */\n      callvalue\n        /* \"cordingtest/cordingtest11.sol\":3401:3438  FundsDeposited(msg.sender, msg.value) */\n      mload(0x40)\n      tag_172\n      swap2\n      swap1\n      tag_28\n      jump\t// in\n    tag_172:\n      mload(0x40)\n      dup1\n      swap2\n      sub\n      swap1\n      log2\n        /* \"cordingtest/cordingtest11.sol\":3337:3445  function depositFunds() public payable onlyOwner {... */\n      jump\t// out\n        /* \"cordingtest/cordingtest11.sol\":1706:2387  function checkMatches(Entry memory entry) internal view returns (uint8) {... */\n    tag_109:\n        /* \"cordingtest/cordingtest11.sol\":1771:1776  uint8 */\n      0x00\n        /* \"cordingtest/cordingtest11.sol\":1788:1801  uint8 matches */\n      dup1\n        /* \"cordingtest/cordingtest11.sol\":1804:1805  0 */\n      0x00\n        /* \"cordingtest/cordingtest11.sol\":1788:1805  uint8 matches = 0 */\n      swap1\n      pop\n        /* \"cordingtest/cordingtest11.sol\":1821:1828  uint8 i */\n      0x00\n        /* \"cordingtest/cordingtest11.sol\":1816:2052  for (uint8 i = 0; i < 4; i++) {... */\n    tag_174:\n        /* \"cordingtest/cordingtest11.sol\":1838:1839  4 */\n      0x04\n        /* \"cordingtest/cordingtest11.sol\":1834:1835  i */\n      dup2\n        /* \"cordingtest/cordingtest11.sol\":1834:1839  i < 4 */\n      0xff\n      and\n      lt\n        /* \"cordingtest/cordingtest11.sol\":1816:2052  for (uint8 i = 0; i < 4; i++) {... */\n      iszero\n      tag_175\n      jumpi\n        /* \"cordingtest/cordingtest11.sol\":1865:1872  uint8 j */\n      0x00\n        /* \"cordingtest/cordingtest11.sol\":1860:2042  for (uint8 j = 0; j < 4; j++) {... */\n    tag_177:\n        /* \"cordingtest/cordingtest11.sol\":1882:1883  4 */\n      0x04\n        /* \"cordingtest/cordingtest11.sol\":1878:1879  j */\n      dup2\n        /* \"cordingtest/cordingtest11.sol\":1878:1883  j < 4 */\n      0xff\n      and\n      lt\n        /* \"cordingtest/cordingtest11.sol\":1860:2042  for (uint8 j = 0; j < 4; j++) {... */\n      iszero\n      tag_178\n      jumpi\n        /* \"cordingtest/cordingtest11.sol\":1932:1946  winningNumbers */\n      0x01\n        /* \"cordingtest/cordingtest11.sol\":1947:1948  j */\n      dup2\n        /* \"cordingtest/cordingtest11.sol\":1932:1949  winningNumbers[j] */\n      0xff\n      and\n      0x04\n      dup2\n      lt\n      tag_180\n      jumpi\n      tag_181\n      tag_96\n      jump\t// in\n    tag_181:\n    tag_180:\n      0x20\n      swap2\n      dup3\n      dup3\n      div\n      add\n      swap2\n      swap1\n      mod\n      swap1\n      sload\n      swap1\n      0x0100\n      exp\n      swap1\n      div\n      0xff\n      and\n        /* \"cordingtest/cordingtest11.sol\":1912:1949  entry.numbers[i] == winningNumbers[j] */\n      0xff\n      and\n        /* \"cordingtest/cordingtest11.sol\":1912:1917  entry */\n      dup6\n        /* \"cordingtest/cordingtest11.sol\":1912:1925  entry.numbers */\n      0x00\n      add\n      mload\n        /* \"cordingtest/cordingtest11.sol\":1926:1927  i */\n      dup4\n        /* \"cordingtest/cordingtest11.sol\":1912:1928  entry.numbers[i] */\n      0xff\n      and\n      0x04\n      dup2\n      lt\n      tag_183\n      jumpi\n      tag_184\n      tag_96\n      jump\t// in\n    tag_184:\n    tag_183:\n      0x20\n      mul\n      add\n      mload\n        /* \"cordingtest/cordingtest11.sol\":1912:1949  entry.numbers[i] == winningNumbers[j] */\n      0xff\n      and\n      sub\n        /* \"cordingtest/cordingtest11.sol\":1908:2028  if (entry.numbers[i] == winningNumbers[j]) {... */\n      tag_185\n      jumpi\n        /* \"cordingtest/cordingtest11.sol\":1973:1982  matches++ */\n      dup3\n      dup1\n      tag_186\n      swap1\n      tag_187\n      jump\t// in\n    tag_186:\n      swap4\n      pop\n      pop\n        /* \"cordingtest/cordingtest11.sol\":2004:2009  break */\n      jump(tag_178)\n        /* \"cordingtest/cordingtest11.sol\":1908:2028  if (entry.numbers[i] == winningNumbers[j]) {... */\n    tag_185:\n        /* \"cordingtest/cordingtest11.sol\":1885:1888  j++ */\n      dup1\n      dup1\n      0x01\n      add\n      swap2\n      pop\n      pop\n        /* \"cordingtest/cordingtest11.sol\":1860:2042  for (uint8 j = 0; j < 4; j++) {... */\n      jump(tag_177)\n    tag_178:\n      pop\n        /* \"cordingtest/cordingtest11.sol\":1841:1844  i++ */\n      dup1\n      dup1\n      0x01\n      add\n      swap2\n      pop\n      pop\n        /* \"cordingtest/cordingtest11.sol\":1816:2052  for (uint8 i = 0; i < 4; i++) {... */\n      jump(tag_174)\n    tag_175:\n      pop\n        /* \"cordingtest/cordingtest11.sol\":2067:2074  uint8 i */\n      0x00\n        /* \"cordingtest/cordingtest11.sol\":2062:2356  for (uint8 i = 0; i < 2; i++) {... */\n    tag_188:\n        /* \"cordingtest/cordingtest11.sol\":2084:2085  2 */\n      0x02\n        /* \"cordingtest/cordingtest11.sol\":2080:2081  i */\n      dup2\n        /* \"cordingtest/cordingtest11.sol\":2080:2085  i < 2 */\n      0xff\n      and\n      lt\n        /* \"cordingtest/cordingtest11.sol\":2062:2356  for (uint8 i = 0; i < 2; i++) {... */\n      iszero\n      tag_189\n      jumpi\n        /* \"cordingtest/cordingtest11.sol\":2111:2118  uint8 j */\n      0x00\n        /* \"cordingtest/cordingtest11.sol\":2106:2346  for (uint8 j = 0; j < 2; j++) {... */\n    tag_191:\n        /* \"cordingtest/cordingtest11.sol\":2128:2129  2 */\n      0x02\n        /* \"cordingtest/cordingtest11.sol\":2124:2125  j */\n      dup2\n        /* \"cordingtest/cordingtest11.sol\":2124:2129  j < 2 */\n      0xff\n      and\n      lt\n        /* \"cordingtest/cordingtest11.sol\":2106:2346  for (uint8 j = 0; j < 2; j++) {... */\n      iszero\n      tag_192\n      jumpi\n        /* \"cordingtest/cordingtest11.sol\":2234:2248  winningLetters */\n      0x02\n        /* \"cordingtest/cordingtest11.sol\":2249:2250  j */\n      dup2\n        /* \"cordingtest/cordingtest11.sol\":2234:2251  winningLetters[j] */\n      0xff\n      and\n      0x02\n      dup2\n      lt\n      tag_194\n      jumpi\n      tag_195\n      tag_96\n      jump\t// in\n    tag_195:\n    tag_194:\n      add\n        /* \"cordingtest/cordingtest11.sol\":2217:2252  abi.encodePacked(winningLetters[j]) */\n      add(0x20, mload(0x40))\n      tag_197\n      swap2\n      swap1\n      tag_198\n      jump\t// in\n    tag_197:\n      mload(0x40)\n      0x20\n      dup2\n      dup4\n      sub\n      sub\n      dup2\n      mstore\n      swap1\n      0x40\n      mstore\n        /* \"cordingtest/cordingtest11.sol\":2207:2253  keccak256(abi.encodePacked(winningLetters[j])) */\n      dup1\n      mload\n      swap1\n      0x20\n      add\n      keccak256\n        /* \"cordingtest/cordingtest11.sol\":2185:2190  entry */\n      dup6\n        /* \"cordingtest/cordingtest11.sol\":2185:2198  entry.letters */\n      0x20\n      add\n      mload\n        /* \"cordingtest/cordingtest11.sol\":2199:2200  i */\n      dup4\n        /* \"cordingtest/cordingtest11.sol\":2185:2201  entry.letters[i] */\n      0xff\n      and\n      0x02\n      dup2\n      lt\n      tag_199\n      jumpi\n      tag_200\n      tag_96\n      jump\t// in\n    tag_200:\n    tag_199:\n      0x20\n      mul\n      add\n      mload\n        /* \"cordingtest/cordingtest11.sol\":2168:2202  abi.encodePacked(entry.letters[i]) */\n      add(0x20, mload(0x40))\n      tag_201\n      swap2\n      swap1\n      tag_202\n      jump\t// in\n    tag_201:\n      mload(0x40)\n      0x20\n      dup2\n      dup4\n      sub\n      sub\n      dup2\n      mstore\n      swap1\n      0x40\n      mstore\n        /* \"cordingtest/cordingtest11.sol\":2158:2203  keccak256(abi.encodePacked(entry.letters[i])) */\n      dup1\n      mload\n      swap1\n      0x20\n      add\n      keccak256\n        /* \"cordingtest/cordingtest11.sol\":2158:2253  keccak256(abi.encodePacked(entry.letters[i])) == keccak256(abi.encodePacked(winningLetters[j])) */\n      sub\n        /* \"cordingtest/cordingtest11.sol\":2154:2332  if (keccak256(abi.encodePacked(entry.letters[i])) == keccak256(abi.encodePacked(winningLetters[j]))) {... */\n      tag_203\n      jumpi\n        /* \"cordingtest/cordingtest11.sol\":2277:2286  matches++ */\n      dup3\n      dup1\n      tag_204\n      swap1\n      tag_187\n      jump\t// in\n    tag_204:\n      swap4\n      pop\n      pop\n        /* \"cordingtest/cordingtest11.sol\":2308:2313  break */\n      jump(tag_192)\n        /* \"cordingtest/cordingtest11.sol\":2154:2332  if (keccak256(abi.encodePacked(entry.letters[i])) == keccak256(abi.encodePacked(winningLetters[j]))) {... */\n    tag_203:\n        /* \"cordingtest/cordingtest11.sol\":2131:2134  j++ */\n      dup1\n      dup1\n      0x01\n      add\n      swap2\n      pop\n      pop\n        /* \"cordingtest/cordingtest11.sol\":2106:2346  for (uint8 j = 0; j < 2; j++) {... */\n      jump(tag_191)\n    tag_192:\n      pop\n        /* \"cordingtest/cordingtest11.sol\":2087:2090  i++ */\n      dup1\n      dup1\n      0x01\n      add\n      swap2\n      pop\n      pop\n        /* \"cordingtest/cordingtest11.sol\":2062:2356  for (uint8 i = 0; i < 2; i++) {... */\n      jump(tag_188)\n    tag_189:\n      pop\n        /* \"cordingtest/cordingtest11.sol\":2373:2380  matches */\n      dup1\n        /* \"cordingtest/cordingtest11.sol\":2366:2380  return matches */\n      swap2\n      pop\n      pop\n        /* \"cordingtest/cordingtest11.sol\":1706:2387  function checkMatches(Entry memory entry) internal view returns (uint8) {... */\n      swap2\n      swap1\n      pop\n      jump\t// out\n    tag_76:\n      dup3\n      add(0x1f, 0x04)\n      0x20\n      swap1\n      div\n      dup2\n      add\n      swap3\n      dup3\n      iszero\n      tag_205\n      jumpi\n      swap2\n      0x20\n      mul\n      dup3\n      add\n      0x00\n    tag_206:\n      dup4\n      dup3\n      gt\n      iszero\n      tag_207\n      jumpi\n      dup4\n      mload\n      dup4\n      dup3\n      0x0100\n      exp\n      dup2\n      sload\n      dup2\n      0xff\n      mul\n      not\n      and\n      swap1\n      dup4\n      0xff\n      and\n      mul\n      or\n      swap1\n      sstore\n      pop\n      swap3\n      0x20\n      add\n      swap3\n      0x01\n      add\n      0x20\n      dup2\n      0x00\n      add\n      div\n      swap3\n      dup4\n      add\n      swap3\n      0x01\n      sub\n      mul\n      jump(tag_206)\n    tag_207:\n      dup1\n      iszero\n      tag_208\n      jumpi\n      dup3\n      dup2\n      0x0100\n      exp\n      dup2\n      sload\n      swap1\n      0xff\n      mul\n      not\n      and\n      swap1\n      sstore\n      0x01\n      add\n      0x20\n      dup2\n      0x00\n      add\n      div\n      swap3\n      dup4\n      add\n      swap3\n      0x01\n      sub\n      mul\n      jump(tag_207)\n    tag_208:\n      pop\n    tag_205:\n      pop\n      swap1\n      pop\n      tag_209\n      swap2\n      swap1\n      tag_210\n      jump\t// in\n    tag_209:\n      pop\n      swap1\n      jump\t// out\n    tag_78:\n      dup3\n      0x02\n      dup2\n      add\n      swap3\n      dup3\n      iszero\n      tag_211\n      jumpi\n      swap2\n      0x20\n      mul\n      dup3\n      add\n    tag_212:\n      dup3\n      dup2\n      gt\n      iszero\n      tag_213\n      jumpi\n      dup3\n      mload\n      dup3\n      swap1\n      dup2\n      tag_214\n      swap2\n      swap1\n      tag_215\n      jump\t// in\n    tag_214:\n      pop\n      swap2\n      0x20\n      add\n      swap2\n      swap1\n      0x01\n      add\n      swap1\n      jump(tag_212)\n    tag_213:\n    tag_211:\n      pop\n      swap1\n      pop\n      tag_216\n      swap2\n      swap1\n      tag_217\n      jump\t// in\n    tag_216:\n      pop\n      swap1\n      jump\t// out\n    tag_131:\n      pop\n      dup1\n      sload\n      0x00\n      dup3\n      sstore\n      0x04\n      mul\n      swap1\n      0x00\n      mstore\n      keccak256(0x00, 0x20)\n      swap1\n      dup2\n      add\n      swap1\n      tag_219\n      swap2\n      swap1\n      tag_220\n      jump\t// in\n    tag_219:\n      pop\n      jump\t// out\n    tag_143:\n      mload(0x40)\n      dup1\n      0x80\n      add\n      0x40\n      mstore\n      dup1\n      0x04\n      swap1\n      0x20\n      dup3\n      mul\n      dup1\n      calldatasize\n      dup4\n      calldatacopy\n      dup1\n      dup3\n      add\n      swap2\n      pop\n      pop\n      swap1\n      pop\n      pop\n      swap1\n      jump\t// out\n    tag_145:\n      mload(0x40)\n      dup1\n      0x40\n      add\n      0x40\n      mstore\n      dup1\n      0x02\n      swap1\n    tag_221:\n      0x60\n      dup2\n      mstore\n      0x20\n      add\n      swap1\n      0x01\n      swap1\n      sub\n      swap1\n      dup2\n      tag_221\n      jumpi\n      swap1\n      pop\n      pop\n      swap1\n      jump\t// out\n    tag_210:\n    tag_222:\n      dup1\n      dup3\n      gt\n      iszero\n      tag_223\n      jumpi\n      0x00\n      dup2\n      0x00\n      swap1\n      sstore\n      pop\n      0x01\n      add\n      jump(tag_222)\n    tag_223:\n      pop\n      swap1\n      jump\t// out\n    tag_217:\n    tag_224:\n      dup1\n      dup3\n      gt\n      iszero\n      tag_225\n      jumpi\n      0x00\n      dup2\n      dup2\n      tag_226\n      swap2\n      swap1\n      tag_227\n      jump\t// in\n    tag_226:\n      pop\n      0x01\n      add\n      jump(tag_224)\n    tag_225:\n      pop\n      swap1\n      jump\t// out\n    tag_220:\n    tag_228:\n      dup1\n      dup3\n      gt\n      iszero\n      tag_229\n      jumpi\n      0x00\n      dup1\n      dup3\n      add\n      0x00\n      tag_230\n      swap2\n      swap1\n      tag_231\n      jump\t// in\n    tag_230:\n      0x01\n      dup3\n      add\n      0x00\n      tag_232\n      swap2\n      swap1\n      tag_233\n      jump\t// in\n    tag_232:\n      0x03\n      dup3\n      add\n      exp(0x0100, 0x00)\n      dup2\n      sload\n      swap1\n      0xffffffffffffffffffffffffffffffffffffffff\n      mul\n      not\n      and\n      swap1\n      sstore\n      pop\n      0x04\n      add\n      jump(tag_228)\n    tag_229:\n      pop\n      swap1\n      jump\t// out\n    tag_227:\n      pop\n      dup1\n      sload\n      tag_234\n      swap1\n      tag_104\n      jump\t// in\n    tag_234:\n      0x00\n      dup3\n      sstore\n      dup1\n      0x1f\n      lt\n      tag_236\n      jumpi\n      pop\n      jump(tag_235)\n    tag_236:\n      0x1f\n      add\n      0x20\n      swap1\n      div\n      swap1\n      0x00\n      mstore\n      keccak256(0x00, 0x20)\n      swap1\n      dup2\n      add\n      swap1\n      tag_237\n      swap2\n      swap1\n      tag_210\n      jump\t// in\n    tag_237:\n    tag_235:\n      pop\n      jump\t// out\n    tag_231:\n      pop\n      0x00\n      swap1\n      sstore\n      jump\t// out\n    tag_233:\n      pop\n      0x00\n      dup2\n      dup2\n      tag_238\n      swap2\n      swap1\n      tag_227\n      jump\t// in\n    tag_238:\n      pop\n      0x01\n      add\n      0x00\n      tag_239\n      swap2\n      swap1\n      tag_227\n      jump\t// in\n    tag_239:\n      jump\t// out\n        /* \"#utility.yul\":7:82   */\n    tag_240:\n        /* \"#utility.yul\":40:46   */\n      0x00\n        /* \"#utility.yul\":73:75   */\n      0x40\n        /* \"#utility.yul\":67:76   */\n      mload\n        /* \"#utility.yul\":57:76   */\n      swap1\n      pop\n        /* \"#utility.yul\":7:82   */\n      swap1\n      jump\t// out\n        /* \"#utility.yul\":88:205   */\n    tag_241:\n        /* \"#utility.yul\":197:198   */\n      0x00\n        /* \"#utility.yul\":194:195   */\n      dup1\n        /* \"#utility.yul\":187:199   */\n      revert\n        /* \"#utility.yul\":211:328   */\n    tag_242:\n        /* \"#utility.yul\":320:321   */\n      0x00\n        /* \"#utility.yul\":317:318   */\n      dup1\n        /* \"#utility.yul\":310:322   */\n      revert\n        /* \"#utility.yul\":334:451   */\n    tag_243:\n        /* \"#utility.yul\":443:444   */\n      0x00\n        /* \"#utility.yul\":440:441   */\n      dup1\n        /* \"#utility.yul\":433:445   */\n      revert\n        /* \"#utility.yul\":457:559   */\n    tag_244:\n        /* \"#utility.yul\":498:504   */\n      0x00\n        /* \"#utility.yul\":549:551   */\n      0x1f\n        /* \"#utility.yul\":545:552   */\n      not\n        /* \"#utility.yul\":540:542   */\n      0x1f\n        /* \"#utility.yul\":533:538   */\n      dup4\n        /* \"#utility.yul\":529:543   */\n      add\n        /* \"#utility.yul\":525:553   */\n      and\n        /* \"#utility.yul\":515:553   */\n      swap1\n      pop\n        /* \"#utility.yul\":457:559   */\n      swap2\n      swap1\n      pop\n      jump\t// out\n        /* \"#utility.yul\":565:745   */\n    tag_245:\n        /* \"#utility.yul\":613:690   */\n      0x4e487b7100000000000000000000000000000000000000000000000000000000\n        /* \"#utility.yul\":610:611   */\n      0x00\n        /* \"#utility.yul\":603:691   */\n      mstore\n        /* \"#utility.yul\":710:714   */\n      0x41\n        /* \"#utility.yul\":707:708   */\n      0x04\n        /* \"#utility.yul\":700:715   */\n      mstore\n        /* \"#utility.yul\":734:738   */\n      0x24\n        /* \"#utility.yul\":731:732   */\n      0x00\n        /* \"#utility.yul\":724:739   */\n      revert\n        /* \"#utility.yul\":751:1032   */\n    tag_246:\n        /* \"#utility.yul\":834:861   */\n      tag_326\n        /* \"#utility.yul\":856:860   */\n      dup3\n        /* \"#utility.yul\":834:861   */\n      tag_244\n      jump\t// in\n    tag_326:\n        /* \"#utility.yul\":826:832   */\n      dup2\n        /* \"#utility.yul\":822:862   */\n      add\n        /* \"#utility.yul\":964:970   */\n      dup2\n        /* \"#utility.yul\":952:962   */\n      dup2\n        /* \"#utility.yul\":949:971   */\n      lt\n        /* \"#utility.yul\":928:946   */\n      0xffffffffffffffff\n        /* \"#utility.yul\":916:926   */\n      dup3\n        /* \"#utility.yul\":913:947   */\n      gt\n        /* \"#utility.yul\":910:972   */\n      or\n        /* \"#utility.yul\":907:995   */\n      iszero\n      tag_327\n      jumpi\n        /* \"#utility.yul\":975:993   */\n      tag_328\n      tag_245\n      jump\t// in\n    tag_328:\n        /* \"#utility.yul\":907:995   */\n    tag_327:\n        /* \"#utility.yul\":1015:1025   */\n      dup1\n        /* \"#utility.yul\":1011:1013   */\n      0x40\n        /* \"#utility.yul\":1004:1026   */\n      mstore\n        /* \"#utility.yul\":794:1032   */\n      pop\n        /* \"#utility.yul\":751:1032   */\n      pop\n      pop\n      jump\t// out\n        /* \"#utility.yul\":1038:1167   */\n    tag_247:\n        /* \"#utility.yul\":1072:1078   */\n      0x00\n        /* \"#utility.yul\":1099:1119   */\n      tag_330\n      tag_240\n      jump\t// in\n    tag_330:\n        /* \"#utility.yul\":1089:1119   */\n      swap1\n      pop\n        /* \"#utility.yul\":1128:1161   */\n      tag_331\n        /* \"#utility.yul\":1156:1160   */\n      dup3\n        /* \"#utility.yul\":1148:1154   */\n      dup3\n        /* \"#utility.yul\":1128:1161   */\n      tag_246\n      jump\t// in\n    tag_331:\n        /* \"#utility.yul\":1038:1167   */\n      swap2\n      swap1\n      pop\n      jump\t// out\n        /* \"#utility.yul\":1173:1420   */\n    tag_248:\n        /* \"#utility.yul\":1246:1250   */\n      0x00\n        /* \"#utility.yul\":1336:1354   */\n      0xffffffffffffffff\n        /* \"#utility.yul\":1328:1334   */\n      dup3\n        /* \"#utility.yul\":1325:1355   */\n      gt\n        /* \"#utility.yul\":1322:1378   */\n      iszero\n      tag_333\n      jumpi\n        /* \"#utility.yul\":1358:1376   */\n      tag_334\n      tag_245\n      jump\t// in\n    tag_334:\n        /* \"#utility.yul\":1322:1378   */\n    tag_333:\n        /* \"#utility.yul\":1408:1412   */\n      0x20\n        /* \"#utility.yul\":1400:1406   */\n      dup3\n        /* \"#utility.yul\":1396:1413   */\n      mul\n        /* \"#utility.yul\":1388:1413   */\n      swap1\n      pop\n        /* \"#utility.yul\":1173:1420   */\n      swap2\n      swap1\n      pop\n      jump\t// out\n        /* \"#utility.yul\":1426:1543   */\n    tag_249:\n        /* \"#utility.yul\":1535:1536   */\n      0x00\n        /* \"#utility.yul\":1532:1533   */\n      dup1\n        /* \"#utility.yul\":1525:1537   */\n      revert\n        /* \"#utility.yul\":1549:1635   */\n    tag_250:\n        /* \"#utility.yul\":1584:1591   */\n      0x00\n        /* \"#utility.yul\":1624:1628   */\n      0xff\n        /* \"#utility.yul\":1617:1622   */\n      dup3\n        /* \"#utility.yul\":1613:1629   */\n      and\n        /* \"#utility.yul\":1602:1629   */\n      swap1\n      pop\n        /* \"#utility.yul\":1549:1635   */\n      swap2\n      swap1\n      pop\n      jump\t// out\n        /* \"#utility.yul\":1641:1759   */\n    tag_251:\n        /* \"#utility.yul\":1712:1734   */\n      tag_338\n        /* \"#utility.yul\":1728:1733   */\n      dup2\n        /* \"#utility.yul\":1712:1734   */\n      tag_250\n      jump\t// in\n    tag_338:\n        /* \"#utility.yul\":1705:1710   */\n      dup2\n        /* \"#utility.yul\":1702:1735   */\n      eq\n        /* \"#utility.yul\":1692:1753   */\n      tag_339\n      jumpi\n        /* \"#utility.yul\":1749:1750   */\n      0x00\n        /* \"#utility.yul\":1746:1747   */\n      dup1\n        /* \"#utility.yul\":1739:1751   */\n      revert\n        /* \"#utility.yul\":1692:1753   */\n    tag_339:\n        /* \"#utility.yul\":1641:1759   */\n      pop\n      jump\t// out\n        /* \"#utility.yul\":1765:1900   */\n    tag_252:\n        /* \"#utility.yul\":1809:1814   */\n      0x00\n        /* \"#utility.yul\":1847:1853   */\n      dup2\n        /* \"#utility.yul\":1834:1854   */\n      calldataload\n        /* \"#utility.yul\":1825:1854   */\n      swap1\n      pop\n        /* \"#utility.yul\":1863:1894   */\n      tag_341\n        /* \"#utility.yul\":1888:1893   */\n      dup2\n        /* \"#utility.yul\":1863:1894   */\n      tag_251\n      jump\t// in\n    tag_341:\n        /* \"#utility.yul\":1765:1900   */\n      swap3\n      swap2\n      pop\n      pop\n      jump\t// out\n        /* \"#utility.yul\":1922:2559   */\n    tag_253:\n        /* \"#utility.yul\":2014:2019   */\n      0x00\n        /* \"#utility.yul\":2039:2116   */\n      tag_343\n        /* \"#utility.yul\":2055:2115   */\n      tag_344\n        /* \"#utility.yul\":2108:2114   */\n      dup5\n        /* \"#utility.yul\":2055:2115   */\n      tag_248\n      jump\t// in\n    tag_344:\n        /* \"#utility.yul\":2039:2116   */\n      tag_247\n      jump\t// in\n    tag_343:\n        /* \"#utility.yul\":2030:2116   */\n      swap1\n      pop\n        /* \"#utility.yul\":2136:2141   */\n      dup1\n        /* \"#utility.yul\":2189:2193   */\n      0x20\n        /* \"#utility.yul\":2181:2187   */\n      dup5\n        /* \"#utility.yul\":2177:2194   */\n      mul\n        /* \"#utility.yul\":2169:2175   */\n      dup4\n        /* \"#utility.yul\":2165:2195   */\n      add\n        /* \"#utility.yul\":2218:2221   */\n      dup6\n        /* \"#utility.yul\":2210:2216   */\n      dup2\n        /* \"#utility.yul\":2207:2222   */\n      gt\n        /* \"#utility.yul\":2204:2326   */\n      iszero\n      tag_345\n      jumpi\n        /* \"#utility.yul\":2237:2316   */\n      tag_346\n      tag_249\n      jump\t// in\n    tag_346:\n        /* \"#utility.yul\":2204:2326   */\n    tag_345:\n        /* \"#utility.yul\":2352:2358   */\n      dup4\n        /* \"#utility.yul\":2335:2553   */\n    tag_347:\n        /* \"#utility.yul\":2369:2375   */\n      dup2\n        /* \"#utility.yul\":2364:2367   */\n      dup2\n        /* \"#utility.yul\":2361:2376   */\n      lt\n        /* \"#utility.yul\":2335:2553   */\n      iszero\n      tag_349\n      jumpi\n        /* \"#utility.yul\":2444:2447   */\n      dup1\n        /* \"#utility.yul\":2473:2508   */\n      tag_350\n        /* \"#utility.yul\":2504:2507   */\n      dup9\n        /* \"#utility.yul\":2492:2502   */\n      dup3\n        /* \"#utility.yul\":2473:2508   */\n      tag_252\n      jump\t// in\n    tag_350:\n        /* \"#utility.yul\":2468:2471   */\n      dup5\n        /* \"#utility.yul\":2461:2509   */\n      mstore\n        /* \"#utility.yul\":2538:2542   */\n      0x20\n        /* \"#utility.yul\":2533:2536   */\n      dup5\n        /* \"#utility.yul\":2529:2543   */\n      add\n        /* \"#utility.yul\":2522:2543   */\n      swap4\n      pop\n        /* \"#utility.yul\":2411:2553   */\n      pop\n        /* \"#utility.yul\":2395:2399   */\n      0x20\n        /* \"#utility.yul\":2390:2393   */\n      dup2\n        /* \"#utility.yul\":2386:2400   */\n      add\n        /* \"#utility.yul\":2379:2400   */\n      swap1\n      pop\n        /* \"#utility.yul\":2335:2553   */\n      jump(tag_347)\n    tag_349:\n        /* \"#utility.yul\":2339:2360   */\n      pop\n        /* \"#utility.yul\":2020:2559   */\n      pop\n      pop\n        /* \"#utility.yul\":1922:2559   */\n      swap4\n      swap3\n      pop\n      pop\n      pop\n      jump\t// out\n        /* \"#utility.yul\":2581:2916   */\n    tag_254:\n        /* \"#utility.yul\":2648:2653   */\n      0x00\n        /* \"#utility.yul\":2697:2700   */\n      dup3\n        /* \"#utility.yul\":2690:2694   */\n      0x1f\n        /* \"#utility.yul\":2682:2688   */\n      dup4\n        /* \"#utility.yul\":2678:2695   */\n      add\n        /* \"#utility.yul\":2674:2701   */\n      slt\n        /* \"#utility.yul\":2664:2786   */\n      tag_352\n      jumpi\n        /* \"#utility.yul\":2705:2784   */\n      tag_353\n      tag_243\n      jump\t// in\n    tag_353:\n        /* \"#utility.yul\":2664:2786   */\n    tag_352:\n        /* \"#utility.yul\":2809:2813   */\n      0x04\n        /* \"#utility.yul\":2831:2910   */\n      tag_354\n        /* \"#utility.yul\":2906:2909   */\n      dup5\n        /* \"#utility.yul\":2898:2904   */\n      dup3\n        /* \"#utility.yul\":2890:2896   */\n      dup6\n        /* \"#utility.yul\":2831:2910   */\n      tag_253\n      jump\t// in\n    tag_354:\n        /* \"#utility.yul\":2822:2910   */\n      swap2\n      pop\n        /* \"#utility.yul\":2654:2916   */\n      pop\n        /* \"#utility.yul\":2581:2916   */\n      swap3\n      swap2\n      pop\n      pop\n      jump\t// out\n        /* \"#utility.yul\":2922:3181   */\n    tag_255:\n        /* \"#utility.yul\":3007:3011   */\n      0x00\n        /* \"#utility.yul\":3097:3115   */\n      0xffffffffffffffff\n        /* \"#utility.yul\":3089:3095   */\n      dup3\n        /* \"#utility.yul\":3086:3116   */\n      gt\n        /* \"#utility.yul\":3083:3139   */\n      iszero\n      tag_356\n      jumpi\n        /* \"#utility.yul\":3119:3137   */\n      tag_357\n      tag_245\n      jump\t// in\n    tag_357:\n        /* \"#utility.yul\":3083:3139   */\n    tag_356:\n        /* \"#utility.yul\":3169:3173   */\n      0x20\n        /* \"#utility.yul\":3161:3167   */\n      dup3\n        /* \"#utility.yul\":3157:3174   */\n      mul\n        /* \"#utility.yul\":3149:3174   */\n      swap1\n      pop\n        /* \"#utility.yul\":2922:3181   */\n      swap2\n      swap1\n      pop\n      jump\t// out\n        /* \"#utility.yul\":3187:3304   */\n    tag_256:\n        /* \"#utility.yul\":3296:3297   */\n      0x00\n        /* \"#utility.yul\":3293:3294   */\n      dup1\n        /* \"#utility.yul\":3286:3298   */\n      revert\n        /* \"#utility.yul\":3310:3618   */\n    tag_257:\n        /* \"#utility.yul\":3372:3376   */\n      0x00\n        /* \"#utility.yul\":3462:3480   */\n      0xffffffffffffffff\n        /* \"#utility.yul\":3454:3460   */\n      dup3\n        /* \"#utility.yul\":3451:3481   */\n      gt\n        /* \"#utility.yul\":3448:3504   */\n      iszero\n      tag_360\n      jumpi\n        /* \"#utility.yul\":3484:3502   */\n      tag_361\n      tag_245\n      jump\t// in\n    tag_361:\n        /* \"#utility.yul\":3448:3504   */\n    tag_360:\n        /* \"#utility.yul\":3522:3551   */\n      tag_362\n        /* \"#utility.yul\":3544:3550   */\n      dup3\n        /* \"#utility.yul\":3522:3551   */\n      tag_244\n      jump\t// in\n    tag_362:\n        /* \"#utility.yul\":3514:3551   */\n      swap1\n      pop\n        /* \"#utility.yul\":3606:3610   */\n      0x20\n        /* \"#utility.yul\":3600:3604   */\n      dup2\n        /* \"#utility.yul\":3596:3611   */\n      add\n        /* \"#utility.yul\":3588:3611   */\n      swap1\n      pop\n        /* \"#utility.yul\":3310:3618   */\n      swap2\n      swap1\n      pop\n      jump\t// out\n        /* \"#utility.yul\":3624:3772   */\n    tag_258:\n        /* \"#utility.yul\":3722:3728   */\n      dup3\n        /* \"#utility.yul\":3717:3720   */\n      dup2\n        /* \"#utility.yul\":3712:3715   */\n      dup4\n        /* \"#utility.yul\":3699:3729   */\n      calldatacopy\n        /* \"#utility.yul\":3763:3764   */\n      0x00\n        /* \"#utility.yul\":3754:3760   */\n      dup4\n        /* \"#utility.yul\":3749:3752   */\n      dup4\n        /* \"#utility.yul\":3745:3761   */\n      add\n        /* \"#utility.yul\":3738:3765   */\n      mstore\n        /* \"#utility.yul\":3624:3772   */\n      pop\n      pop\n      pop\n      jump\t// out\n        /* \"#utility.yul\":3778:4203   */\n    tag_259:\n        /* \"#utility.yul\":3856:3861   */\n      0x00\n        /* \"#utility.yul\":3881:3947   */\n      tag_365\n        /* \"#utility.yul\":3897:3946   */\n      tag_366\n        /* \"#utility.yul\":3939:3945   */\n      dup5\n        /* \"#utility.yul\":3897:3946   */\n      tag_257\n      jump\t// in\n    tag_366:\n        /* \"#utility.yul\":3881:3947   */\n      tag_247\n      jump\t// in\n    tag_365:\n        /* \"#utility.yul\":3872:3947   */\n      swap1\n      pop\n        /* \"#utility.yul\":3970:3976   */\n      dup3\n        /* \"#utility.yul\":3963:3968   */\n      dup2\n        /* \"#utility.yul\":3956:3977   */\n      mstore\n        /* \"#utility.yul\":4008:4012   */\n      0x20\n        /* \"#utility.yul\":4001:4006   */\n      dup2\n        /* \"#utility.yul\":3997:4013   */\n      add\n        /* \"#utility.yul\":4046:4049   */\n      dup5\n        /* \"#utility.yul\":4037:4043   */\n      dup5\n        /* \"#utility.yul\":4032:4035   */\n      dup5\n        /* \"#utility.yul\":4028:4044   */\n      add\n        /* \"#utility.yul\":4025:4050   */\n      gt\n        /* \"#utility.yul\":4022:4134   */\n      iszero\n      tag_367\n      jumpi\n        /* \"#utility.yul\":4053:4132   */\n      tag_368\n      tag_256\n      jump\t// in\n    tag_368:\n        /* \"#utility.yul\":4022:4134   */\n    tag_367:\n        /* \"#utility.yul\":4143:4197   */\n      tag_369\n        /* \"#utility.yul\":4190:4196   */\n      dup5\n        /* \"#utility.yul\":4185:4188   */\n      dup3\n        /* \"#utility.yul\":4180:4183   */\n      dup6\n        /* \"#utility.yul\":4143:4197   */\n      tag_258\n      jump\t// in\n    tag_369:\n        /* \"#utility.yul\":3862:4203   */\n      pop\n        /* \"#utility.yul\":3778:4203   */\n      swap4\n      swap3\n      pop\n      pop\n      pop\n      jump\t// out\n        /* \"#utility.yul\":4223:4563   */\n    tag_260:\n        /* \"#utility.yul\":4279:4284   */\n      0x00\n        /* \"#utility.yul\":4328:4331   */\n      dup3\n        /* \"#utility.yul\":4321:4325   */\n      0x1f\n        /* \"#utility.yul\":4313:4319   */\n      dup4\n        /* \"#utility.yul\":4309:4326   */\n      add\n        /* \"#utility.yul\":4305:4332   */\n      slt\n        /* \"#utility.yul\":4295:4417   */\n      tag_371\n      jumpi\n        /* \"#utility.yul\":4336:4415   */\n      tag_372\n      tag_243\n      jump\t// in\n    tag_372:\n        /* \"#utility.yul\":4295:4417   */\n    tag_371:\n        /* \"#utility.yul\":4453:4459   */\n      dup2\n        /* \"#utility.yul\":4440:4460   */\n      calldataload\n        /* \"#utility.yul\":4478:4557   */\n      tag_373\n        /* \"#utility.yul\":4553:4556   */\n      dup5\n        /* \"#utility.yul\":4545:4551   */\n      dup3\n        /* \"#utility.yul\":4538:4542   */\n      0x20\n        /* \"#utility.yul\":4530:4536   */\n      dup7\n        /* \"#utility.yul\":4526:4543   */\n      add\n        /* \"#utility.yul\":4478:4557   */\n      tag_259\n      jump\t// in\n    tag_373:\n        /* \"#utility.yul\":4469:4557   */\n      swap2\n      pop\n        /* \"#utility.yul\":4285:4563   */\n      pop\n        /* \"#utility.yul\":4223:4563   */\n      swap3\n      swap2\n      pop\n      pop\n      jump\t// out\n        /* \"#utility.yul\":4586:5464   */\n    tag_261:\n        /* \"#utility.yul\":4690:4695   */\n      0x00\n        /* \"#utility.yul\":4715:4804   */\n      tag_375\n        /* \"#utility.yul\":4731:4803   */\n      tag_376\n        /* \"#utility.yul\":4796:4802   */\n      dup5\n        /* \"#utility.yul\":4731:4803   */\n      tag_255\n      jump\t// in\n    tag_376:\n        /* \"#utility.yul\":4715:4804   */\n      tag_247\n      jump\t// in\n    tag_375:\n        /* \"#utility.yul\":4706:4804   */\n      swap1\n      pop\n        /* \"#utility.yul\":4824:4829   */\n      dup1\n        /* \"#utility.yul\":4877:4881   */\n      0x20\n        /* \"#utility.yul\":4869:4875   */\n      dup5\n        /* \"#utility.yul\":4865:4882   */\n      mul\n        /* \"#utility.yul\":4857:4863   */\n      dup4\n        /* \"#utility.yul\":4853:4883   */\n      add\n        /* \"#utility.yul\":4906:4909   */\n      dup6\n        /* \"#utility.yul\":4898:4904   */\n      dup2\n        /* \"#utility.yul\":4895:4910   */\n      gt\n        /* \"#utility.yul\":4892:5014   */\n      iszero\n      tag_377\n      jumpi\n        /* \"#utility.yul\":4925:5004   */\n      tag_378\n      tag_249\n      jump\t// in\n    tag_378:\n        /* \"#utility.yul\":4892:5014   */\n    tag_377:\n        /* \"#utility.yul\":5040:5046   */\n      dup4\n        /* \"#utility.yul\":5023:5458   */\n    tag_379:\n        /* \"#utility.yul\":5057:5063   */\n      dup2\n        /* \"#utility.yul\":5052:5055   */\n      dup2\n        /* \"#utility.yul\":5049:5064   */\n      lt\n        /* \"#utility.yul\":5023:5458   */\n      iszero\n      tag_381\n      jumpi\n        /* \"#utility.yul\":5146:5149   */\n      dup1\n        /* \"#utility.yul\":5133:5150   */\n      calldataload\n        /* \"#utility.yul\":5182:5200   */\n      0xffffffffffffffff\n        /* \"#utility.yul\":5169:5180   */\n      dup2\n        /* \"#utility.yul\":5166:5201   */\n      gt\n        /* \"#utility.yul\":5163:5285   */\n      iszero\n      tag_382\n      jumpi\n        /* \"#utility.yul\":5204:5283   */\n      tag_383\n      tag_243\n      jump\t// in\n    tag_383:\n        /* \"#utility.yul\":5163:5285   */\n    tag_382:\n        /* \"#utility.yul\":5328:5339   */\n      dup1\n        /* \"#utility.yul\":5320:5326   */\n      dup7\n        /* \"#utility.yul\":5316:5340   */\n      add\n        /* \"#utility.yul\":5366:5413   */\n      tag_384\n        /* \"#utility.yul\":5409:5412   */\n      dup10\n        /* \"#utility.yul\":5397:5407   */\n      dup3\n        /* \"#utility.yul\":5366:5413   */\n      tag_260\n      jump\t// in\n    tag_384:\n        /* \"#utility.yul\":5361:5364   */\n      dup6\n        /* \"#utility.yul\":5354:5414   */\n      mstore\n        /* \"#utility.yul\":5443:5447   */\n      0x20\n        /* \"#utility.yul\":5438:5441   */\n      dup6\n        /* \"#utility.yul\":5434:5448   */\n      add\n        /* \"#utility.yul\":5427:5448   */\n      swap5\n      pop\n        /* \"#utility.yul\":5099:5458   */\n      pop\n      pop\n        /* \"#utility.yul\":5083:5087   */\n      0x20\n        /* \"#utility.yul\":5078:5081   */\n      dup2\n        /* \"#utility.yul\":5074:5088   */\n      add\n        /* \"#utility.yul\":5067:5088   */\n      swap1\n      pop\n        /* \"#utility.yul\":5023:5458   */\n      jump(tag_379)\n    tag_381:\n        /* \"#utility.yul\":5027:5048   */\n      pop\n        /* \"#utility.yul\":4696:5464   */\n      pop\n      pop\n        /* \"#utility.yul\":4586:5464   */\n      swap4\n      swap3\n      pop\n      pop\n      pop\n      jump\t// out\n        /* \"#utility.yul\":5487:5846   */\n    tag_262:\n        /* \"#utility.yul\":5566:5571   */\n      0x00\n        /* \"#utility.yul\":5615:5618   */\n      dup3\n        /* \"#utility.yul\":5608:5612   */\n      0x1f\n        /* \"#utility.yul\":5600:5606   */\n      dup4\n        /* \"#utility.yul\":5596:5613   */\n      add\n        /* \"#utility.yul\":5592:5619   */\n      slt\n        /* \"#utility.yul\":5582:5704   */\n      tag_386\n      jumpi\n        /* \"#utility.yul\":5623:5702   */\n      tag_387\n      tag_243\n      jump\t// in\n    tag_387:\n        /* \"#utility.yul\":5582:5704   */\n    tag_386:\n        /* \"#utility.yul\":5727:5731   */\n      0x02\n        /* \"#utility.yul\":5749:5840   */\n      tag_388\n        /* \"#utility.yul\":5836:5839   */\n      dup5\n        /* \"#utility.yul\":5828:5834   */\n      dup3\n        /* \"#utility.yul\":5820:5826   */\n      dup6\n        /* \"#utility.yul\":5749:5840   */\n      tag_261\n      jump\t// in\n    tag_388:\n        /* \"#utility.yul\":5740:5840   */\n      swap2\n      pop\n        /* \"#utility.yul\":5572:5846   */\n      pop\n        /* \"#utility.yul\":5487:5846   */\n      swap3\n      swap2\n      pop\n      pop\n      jump\t// out\n        /* \"#utility.yul\":5852:6596   */\n    tag_22:\n        /* \"#utility.yul\":5974:5980   */\n      0x00\n        /* \"#utility.yul\":5982:5988   */\n      dup1\n        /* \"#utility.yul\":6031:6034   */\n      0xa0\n        /* \"#utility.yul\":6019:6028   */\n      dup4\n        /* \"#utility.yul\":6010:6017   */\n      dup6\n        /* \"#utility.yul\":6006:6029   */\n      sub\n        /* \"#utility.yul\":6002:6035   */\n      slt\n        /* \"#utility.yul\":5999:6119   */\n      iszero\n      tag_390\n      jumpi\n        /* \"#utility.yul\":6038:6117   */\n      tag_391\n      tag_241\n      jump\t// in\n    tag_391:\n        /* \"#utility.yul\":5999:6119   */\n    tag_390:\n        /* \"#utility.yul\":6158:6159   */\n      0x00\n        /* \"#utility.yul\":6183:6257   */\n      tag_392\n        /* \"#utility.yul\":6249:6256   */\n      dup6\n        /* \"#utility.yul\":6240:6246   */\n      dup3\n        /* \"#utility.yul\":6229:6238   */\n      dup7\n        /* \"#utility.yul\":6225:6247   */\n      add\n        /* \"#utility.yul\":6183:6257   */\n      tag_254\n      jump\t// in\n    tag_392:\n        /* \"#utility.yul\":6173:6257   */\n      swap3\n      pop\n        /* \"#utility.yul\":6129:6267   */\n      pop\n        /* \"#utility.yul\":6334:6337   */\n      0x80\n        /* \"#utility.yul\":6323:6332   */\n      dup4\n        /* \"#utility.yul\":6319:6338   */\n      add\n        /* \"#utility.yul\":6306:6339   */\n      calldataload\n        /* \"#utility.yul\":6366:6384   */\n      0xffffffffffffffff\n        /* \"#utility.yul\":6358:6364   */\n      dup2\n        /* \"#utility.yul\":6355:6385   */\n      gt\n        /* \"#utility.yul\":6352:6469   */\n      iszero\n      tag_393\n      jumpi\n        /* \"#utility.yul\":6388:6467   */\n      tag_394\n      tag_242\n      jump\t// in\n    tag_394:\n        /* \"#utility.yul\":6352:6469   */\n    tag_393:\n        /* \"#utility.yul\":6493:6579   */\n      tag_395\n        /* \"#utility.yul\":6571:6578   */\n      dup6\n        /* \"#utility.yul\":6562:6568   */\n      dup3\n        /* \"#utility.yul\":6551:6560   */\n      dup7\n        /* \"#utility.yul\":6547:6569   */\n      add\n        /* \"#utility.yul\":6493:6579   */\n      tag_262\n      jump\t// in\n    tag_395:\n        /* \"#utility.yul\":6483:6579   */\n      swap2\n      pop\n        /* \"#utility.yul\":6277:6589   */\n      pop\n        /* \"#utility.yul\":5852:6596   */\n      swap3\n      pop\n      swap3\n      swap1\n      pop\n      jump\t// out\n        /* \"#utility.yul\":6602:6679   */\n    tag_263:\n        /* \"#utility.yul\":6639:6646   */\n      0x00\n        /* \"#utility.yul\":6668:6673   */\n      dup2\n        /* \"#utility.yul\":6657:6673   */\n      swap1\n      pop\n        /* \"#utility.yul\":6602:6679   */\n      swap2\n      swap1\n      pop\n      jump\t// out\n        /* \"#utility.yul\":6685:6803   */\n    tag_264:\n        /* \"#utility.yul\":6772:6796   */\n      tag_398\n        /* \"#utility.yul\":6790:6795   */\n      dup2\n        /* \"#utility.yul\":6772:6796   */\n      tag_263\n      jump\t// in\n    tag_398:\n        /* \"#utility.yul\":6767:6770   */\n      dup3\n        /* \"#utility.yul\":6760:6797   */\n      mstore\n        /* \"#utility.yul\":6685:6803   */\n      pop\n      pop\n      jump\t// out\n        /* \"#utility.yul\":6809:7031   */\n    tag_28:\n        /* \"#utility.yul\":6902:6906   */\n      0x00\n        /* \"#utility.yul\":6940:6942   */\n      0x20\n        /* \"#utility.yul\":6929:6938   */\n      dup3\n        /* \"#utility.yul\":6925:6943   */\n      add\n        /* \"#utility.yul\":6917:6943   */\n      swap1\n      pop\n        /* \"#utility.yul\":6953:7024   */\n      tag_400\n        /* \"#utility.yul\":7021:7022   */\n      0x00\n        /* \"#utility.yul\":7010:7019   */\n      dup4\n        /* \"#utility.yul\":7006:7023   */\n      add\n        /* \"#utility.yul\":6997:7003   */\n      dup5\n        /* \"#utility.yul\":6953:7024   */\n      tag_264\n      jump\t// in\n    tag_400:\n        /* \"#utility.yul\":6809:7031   */\n      swap3\n      swap2\n      pop\n      pop\n      jump\t// out\n        /* \"#utility.yul\":7037:7159   */\n    tag_265:\n        /* \"#utility.yul\":7110:7134   */\n      tag_402\n        /* \"#utility.yul\":7128:7133   */\n      dup2\n        /* \"#utility.yul\":7110:7134   */\n      tag_263\n      jump\t// in\n    tag_402:\n        /* \"#utility.yul\":7103:7108   */\n      dup2\n        /* \"#utility.yul\":7100:7135   */\n      eq\n        /* \"#utility.yul\":7090:7153   */\n      tag_403\n      jumpi\n        /* \"#utility.yul\":7149:7150   */\n      0x00\n        /* \"#utility.yul\":7146:7147   */\n      dup1\n        /* \"#utility.yul\":7139:7151   */\n      revert\n        /* \"#utility.yul\":7090:7153   */\n    tag_403:\n        /* \"#utility.yul\":7037:7159   */\n      pop\n      jump\t// out\n        /* \"#utility.yul\":7165:7304   */\n    tag_266:\n        /* \"#utility.yul\":7211:7216   */\n      0x00\n        /* \"#utility.yul\":7249:7255   */\n      dup2\n        /* \"#utility.yul\":7236:7256   */\n      calldataload\n        /* \"#utility.yul\":7227:7256   */\n      swap1\n      pop\n        /* \"#utility.yul\":7265:7298   */\n      tag_405\n        /* \"#utility.yul\":7292:7297   */\n      dup2\n        /* \"#utility.yul\":7265:7298   */\n      tag_265\n      jump\t// in\n    tag_405:\n        /* \"#utility.yul\":7165:7304   */\n      swap3\n      swap2\n      pop\n      pop\n      jump\t// out\n        /* \"#utility.yul\":7310:7639   */\n    tag_32:\n        /* \"#utility.yul\":7369:7375   */\n      0x00\n        /* \"#utility.yul\":7418:7420   */\n      0x20\n        /* \"#utility.yul\":7406:7415   */\n      dup3\n        /* \"#utility.yul\":7397:7404   */\n      dup5\n        /* \"#utility.yul\":7393:7416   */\n      sub\n        /* \"#utility.yul\":7389:7421   */\n      slt\n        /* \"#utility.yul\":7386:7505   */\n      iszero\n      tag_407\n      jumpi\n        /* \"#utility.yul\":7424:7503   */\n      tag_408\n      tag_241\n      jump\t// in\n    tag_408:\n        /* \"#utility.yul\":7386:7505   */\n    tag_407:\n        /* \"#utility.yul\":7544:7545   */\n      0x00\n        /* \"#utility.yul\":7569:7622   */\n      tag_409\n        /* \"#utility.yul\":7614:7621   */\n      dup5\n        /* \"#utility.yul\":7605:7611   */\n      dup3\n        /* \"#utility.yul\":7594:7603   */\n      dup6\n        /* \"#utility.yul\":7590:7612   */\n      add\n        /* \"#utility.yul\":7569:7622   */\n      tag_266\n      jump\t// in\n    tag_409:\n        /* \"#utility.yul\":7559:7622   */\n      swap2\n      pop\n        /* \"#utility.yul\":7515:7632   */\n      pop\n        /* \"#utility.yul\":7310:7639   */\n      swap3\n      swap2\n      pop\n      pop\n      jump\t// out\n        /* \"#utility.yul\":7645:7757   */\n    tag_267:\n        /* \"#utility.yul\":7728:7750   */\n      tag_411\n        /* \"#utility.yul\":7744:7749   */\n      dup2\n        /* \"#utility.yul\":7728:7750   */\n      tag_250\n      jump\t// in\n    tag_411:\n        /* \"#utility.yul\":7723:7726   */\n      dup3\n        /* \"#utility.yul\":7716:7751   */\n      mstore\n        /* \"#utility.yul\":7645:7757   */\n      pop\n      pop\n      jump\t// out\n        /* \"#utility.yul\":7763:7977   */\n    tag_35:\n        /* \"#utility.yul\":7852:7856   */\n      0x00\n        /* \"#utility.yul\":7890:7892   */\n      0x20\n        /* \"#utility.yul\":7879:7888   */\n      dup3\n        /* \"#utility.yul\":7875:7893   */\n      add\n        /* \"#utility.yul\":7867:7893   */\n      swap1\n      pop\n        /* \"#utility.yul\":7903:7970   */\n      tag_413\n        /* \"#utility.yul\":7967:7968   */\n      0x00\n        /* \"#utility.yul\":7956:7965   */\n      dup4\n        /* \"#utility.yul\":7952:7969   */\n      add\n        /* \"#utility.yul\":7943:7949   */\n      dup5\n        /* \"#utility.yul\":7903:7970   */\n      tag_267\n      jump\t// in\n    tag_413:\n        /* \"#utility.yul\":7763:7977   */\n      swap3\n      swap2\n      pop\n      pop\n      jump\t// out\n        /* \"#utility.yul\":7983:8109   */\n    tag_268:\n        /* \"#utility.yul\":8020:8027   */\n      0x00\n        /* \"#utility.yul\":8060:8102   */\n      0xffffffffffffffffffffffffffffffffffffffff\n        /* \"#utility.yul\":8053:8058   */\n      dup3\n        /* \"#utility.yul\":8049:8103   */\n      and\n        /* \"#utility.yul\":8038:8103   */\n      swap1\n      pop\n        /* \"#utility.yul\":7983:8109   */\n      swap2\n      swap1\n      pop\n      jump\t// out\n        /* \"#utility.yul\":8115:8211   */\n    tag_269:\n        /* \"#utility.yul\":8152:8159   */\n      0x00\n        /* \"#utility.yul\":8181:8205   */\n      tag_416\n        /* \"#utility.yul\":8199:8204   */\n      dup3\n        /* \"#utility.yul\":8181:8205   */\n      tag_268\n      jump\t// in\n    tag_416:\n        /* \"#utility.yul\":8170:8205   */\n      swap1\n      pop\n        /* \"#utility.yul\":8115:8211   */\n      swap2\n      swap1\n      pop\n      jump\t// out\n        /* \"#utility.yul\":8217:8335   */\n    tag_270:\n        /* \"#utility.yul\":8304:8328   */\n      tag_418\n        /* \"#utility.yul\":8322:8327   */\n      dup2\n        /* \"#utility.yul\":8304:8328   */\n      tag_269\n      jump\t// in\n    tag_418:\n        /* \"#utility.yul\":8299:8302   */\n      dup3\n        /* \"#utility.yul\":8292:8329   */\n      mstore\n        /* \"#utility.yul\":8217:8335   */\n      pop\n      pop\n      jump\t// out\n        /* \"#utility.yul\":8341:8563   */\n    tag_46:\n        /* \"#utility.yul\":8434:8438   */\n      0x00\n        /* \"#utility.yul\":8472:8474   */\n      0x20\n        /* \"#utility.yul\":8461:8470   */\n      dup3\n        /* \"#utility.yul\":8457:8475   */\n      add\n        /* \"#utility.yul\":8449:8475   */\n      swap1\n      pop\n        /* \"#utility.yul\":8485:8556   */\n      tag_420\n        /* \"#utility.yul\":8553:8554   */\n      0x00\n        /* \"#utility.yul\":8542:8551   */\n      dup4\n        /* \"#utility.yul\":8538:8555   */\n      add\n        /* \"#utility.yul\":8529:8535   */\n      dup5\n        /* \"#utility.yul\":8485:8556   */\n      tag_270\n      jump\t// in\n    tag_420:\n        /* \"#utility.yul\":8341:8563   */\n      swap3\n      swap2\n      pop\n      pop\n      jump\t// out\n        /* \"#utility.yul\":8569:8671   */\n    tag_271:\n        /* \"#utility.yul\":8632:8638   */\n      0x00\n        /* \"#utility.yul\":8660:8664   */\n      0x04\n        /* \"#utility.yul\":8650:8664   */\n      swap1\n      pop\n        /* \"#utility.yul\":8569:8671   */\n      swap2\n      swap1\n      pop\n      jump\t// out\n        /* \"#utility.yul\":8677:8818   */\n    tag_272:\n        /* \"#utility.yul\":8772:8783   */\n      0x00\n        /* \"#utility.yul\":8809:8812   */\n      dup2\n        /* \"#utility.yul\":8794:8812   */\n      swap1\n      pop\n        /* \"#utility.yul\":8677:8818   */\n      swap3\n      swap2\n      pop\n      pop\n      jump\t// out\n        /* \"#utility.yul\":8824:8920   */\n    tag_273:\n        /* \"#utility.yul\":8887:8891   */\n      0x00\n        /* \"#utility.yul\":8910:8913   */\n      dup2\n        /* \"#utility.yul\":8902:8913   */\n      swap1\n      pop\n        /* \"#utility.yul\":8824:8920   */\n      swap2\n      swap1\n      pop\n      jump\t// out\n        /* \"#utility.yul\":8926:9028   */\n    tag_274:\n        /* \"#utility.yul\":8999:9021   */\n      tag_425\n        /* \"#utility.yul\":9015:9020   */\n      dup2\n        /* \"#utility.yul\":8999:9021   */\n      tag_250\n      jump\t// in\n    tag_425:\n        /* \"#utility.yul\":8994:8997   */\n      dup3\n        /* \"#utility.yul\":8987:9022   */\n      mstore\n        /* \"#utility.yul\":8926:9028   */\n      pop\n      pop\n      jump\t// out\n        /* \"#utility.yul\":9034:9205   */\n    tag_275:\n        /* \"#utility.yul\":9099:9109   */\n      0x00\n        /* \"#utility.yul\":9120:9162   */\n      tag_427\n        /* \"#utility.yul\":9158:9161   */\n      dup4\n        /* \"#utility.yul\":9150:9156   */\n      dup4\n        /* \"#utility.yul\":9120:9162   */\n      tag_274\n      jump\t// in\n    tag_427:\n        /* \"#utility.yul\":9194:9198   */\n      0x20\n        /* \"#utility.yul\":9189:9192   */\n      dup4\n        /* \"#utility.yul\":9185:9199   */\n      add\n        /* \"#utility.yul\":9171:9199   */\n      swap1\n      pop\n        /* \"#utility.yul\":9034:9205   */\n      swap3\n      swap2\n      pop\n      pop\n      jump\t// out\n        /* \"#utility.yul\":9211:9320   */\n    tag_276:\n        /* \"#utility.yul\":9277:9281   */\n      0x00\n        /* \"#utility.yul\":9309:9313   */\n      0x20\n        /* \"#utility.yul\":9304:9307   */\n      dup3\n        /* \"#utility.yul\":9300:9314   */\n      add\n        /* \"#utility.yul\":9292:9314   */\n      swap1\n      pop\n        /* \"#utility.yul\":9211:9320   */\n      swap2\n      swap1\n      pop\n      jump\t// out\n        /* \"#utility.yul\":9354:10032   */\n    tag_277:\n        /* \"#utility.yul\":9486:9536   */\n      tag_430\n        /* \"#utility.yul\":9530:9535   */\n      dup2\n        /* \"#utility.yul\":9486:9536   */\n      tag_271\n      jump\t// in\n    tag_430:\n        /* \"#utility.yul\":9552:9634   */\n      tag_431\n        /* \"#utility.yul\":9627:9633   */\n      dup2\n        /* \"#utility.yul\":9622:9625   */\n      dup5\n        /* \"#utility.yul\":9552:9634   */\n      tag_272\n      jump\t// in\n    tag_431:\n        /* \"#utility.yul\":9545:9634   */\n      swap3\n      pop\n        /* \"#utility.yul\":9658:9710   */\n      tag_432\n        /* \"#utility.yul\":9704:9709   */\n      dup3\n        /* \"#utility.yul\":9658:9710   */\n      tag_273\n      jump\t// in\n    tag_432:\n        /* \"#utility.yul\":9733:9740   */\n      dup1\n        /* \"#utility.yul\":9764:9765   */\n      0x00\n        /* \"#utility.yul\":9749:10025   */\n    tag_433:\n        /* \"#utility.yul\":9774:9780   */\n      dup4\n        /* \"#utility.yul\":9771:9772   */\n      dup2\n        /* \"#utility.yul\":9768:9781   */\n      lt\n        /* \"#utility.yul\":9749:10025   */\n      iszero\n      tag_435\n      jumpi\n        /* \"#utility.yul\":9850:9856   */\n      dup2\n        /* \"#utility.yul\":9844:9857   */\n      mload\n        /* \"#utility.yul\":9877:9936   */\n      tag_436\n        /* \"#utility.yul\":9932:9935   */\n      dup8\n        /* \"#utility.yul\":9917:9930   */\n      dup3\n        /* \"#utility.yul\":9877:9936   */\n      tag_275\n      jump\t// in\n    tag_436:\n        /* \"#utility.yul\":9870:9936   */\n      swap7\n      pop\n        /* \"#utility.yul\":9959:10015   */\n      tag_437\n        /* \"#utility.yul\":10008:10014   */\n      dup4\n        /* \"#utility.yul\":9959:10015   */\n      tag_276\n      jump\t// in\n    tag_437:\n        /* \"#utility.yul\":9949:10015   */\n      swap3\n      pop\n        /* \"#utility.yul\":9809:10025   */\n      pop\n        /* \"#utility.yul\":9796:9797   */\n      0x01\n        /* \"#utility.yul\":9793:9794   */\n      dup2\n        /* \"#utility.yul\":9789:9798   */\n      add\n        /* \"#utility.yul\":9784:9798   */\n      swap1\n      pop\n        /* \"#utility.yul\":9749:10025   */\n      jump(tag_433)\n    tag_435:\n        /* \"#utility.yul\":9753:9767   */\n      pop\n        /* \"#utility.yul\":9462:10032   */\n      pop\n      pop\n      pop\n        /* \"#utility.yul\":9354:10032   */\n      pop\n      pop\n      jump\t// out\n        /* \"#utility.yul\":10038:10152   */\n    tag_278:\n        /* \"#utility.yul\":10113:10119   */\n      0x00\n        /* \"#utility.yul\":10141:10145   */\n      0x02\n        /* \"#utility.yul\":10131:10145   */\n      swap1\n      pop\n        /* \"#utility.yul\":10038:10152   */\n      swap2\n      swap1\n      pop\n      jump\t// out\n        /* \"#utility.yul\":10158:10311   */\n    tag_279:\n        /* \"#utility.yul\":10265:10276   */\n      0x00\n        /* \"#utility.yul\":10302:10305   */\n      dup2\n        /* \"#utility.yul\":10287:10305   */\n      swap1\n      pop\n        /* \"#utility.yul\":10158:10311   */\n      swap3\n      swap2\n      pop\n      pop\n      jump\t// out\n        /* \"#utility.yul\":10317:10425   */\n    tag_280:\n        /* \"#utility.yul\":10392:10396   */\n      0x00\n        /* \"#utility.yul\":10415:10418   */\n      dup2\n        /* \"#utility.yul\":10407:10418   */\n      swap1\n      pop\n        /* \"#utility.yul\":10317:10425   */\n      swap2\n      swap1\n      pop\n      jump\t// out\n        /* \"#utility.yul\":10431:10530   */\n    tag_281:\n        /* \"#utility.yul\":10483:10489   */\n      0x00\n        /* \"#utility.yul\":10517:10522   */\n      dup2\n        /* \"#utility.yul\":10511:10523   */\n      mload\n        /* \"#utility.yul\":10501:10523   */\n      swap1\n      pop\n        /* \"#utility.yul\":10431:10530   */\n      swap2\n      swap1\n      pop\n      jump\t// out\n        /* \"#utility.yul\":10536:10695   */\n    tag_282:\n        /* \"#utility.yul\":10610:10621   */\n      0x00\n        /* \"#utility.yul\":10644:10650   */\n      dup3\n        /* \"#utility.yul\":10639:10642   */\n      dup3\n        /* \"#utility.yul\":10632:10651   */\n      mstore\n        /* \"#utility.yul\":10684:10688   */\n      0x20\n        /* \"#utility.yul\":10679:10682   */\n      dup3\n        /* \"#utility.yul\":10675:10689   */\n      add\n        /* \"#utility.yul\":10660:10689   */\n      swap1\n      pop\n        /* \"#utility.yul\":10536:10695   */\n      swap3\n      swap2\n      pop\n      pop\n      jump\t// out\n        /* \"#utility.yul\":10701:10840   */\n    tag_283:\n        /* \"#utility.yul\":10790:10796   */\n      dup3\n        /* \"#utility.yul\":10785:10788   */\n      dup2\n        /* \"#utility.yul\":10780:10783   */\n      dup4\n        /* \"#utility.yul\":10774:10797   */\n      mcopy\n        /* \"#utility.yul\":10831:10832   */\n      0x00\n        /* \"#utility.yul\":10822:10828   */\n      dup4\n        /* \"#utility.yul\":10817:10820   */\n      dup4\n        /* \"#utility.yul\":10813:10829   */\n      add\n        /* \"#utility.yul\":10806:10833   */\n      mstore\n        /* \"#utility.yul\":10701:10840   */\n      pop\n      pop\n      pop\n      jump\t// out\n        /* \"#utility.yul\":10846:11203   */\n    tag_284:\n        /* \"#utility.yul\":10924:10927   */\n      0x00\n        /* \"#utility.yul\":10952:10991   */\n      tag_445\n        /* \"#utility.yul\":10985:10990   */\n      dup3\n        /* \"#utility.yul\":10952:10991   */\n      tag_281\n      jump\t// in\n    tag_445:\n        /* \"#utility.yul\":11007:11068   */\n      tag_446\n        /* \"#utility.yul\":11061:11067   */\n      dup2\n        /* \"#utility.yul\":11056:11059   */\n      dup6\n        /* \"#utility.yul\":11007:11068   */\n      tag_282\n      jump\t// in\n    tag_446:\n        /* \"#utility.yul\":11000:11068   */\n      swap4\n      pop\n        /* \"#utility.yul\":11077:11142   */\n      tag_447\n        /* \"#utility.yul\":11135:11141   */\n      dup2\n        /* \"#utility.yul\":11130:11133   */\n      dup6\n        /* \"#utility.yul\":11123:11127   */\n      0x20\n        /* \"#utility.yul\":11116:11121   */\n      dup7\n        /* \"#utility.yul\":11112:11128   */\n      add\n        /* \"#utility.yul\":11077:11142   */\n      tag_283\n      jump\t// in\n    tag_447:\n        /* \"#utility.yul\":11167:11196   */\n      tag_448\n        /* \"#utility.yul\":11189:11195   */\n      dup2\n        /* \"#utility.yul\":11167:11196   */\n      tag_244\n      jump\t// in\n    tag_448:\n        /* \"#utility.yul\":11162:11165   */\n      dup5\n        /* \"#utility.yul\":11158:11197   */\n      add\n        /* \"#utility.yul\":11151:11197   */\n      swap2\n      pop\n        /* \"#utility.yul\":10928:11203   */\n      pop\n        /* \"#utility.yul\":10846:11203   */\n      swap3\n      swap2\n      pop\n      pop\n      jump\t// out\n        /* \"#utility.yul\":11209:11405   */\n    tag_285:\n        /* \"#utility.yul\":11298:11308   */\n      0x00\n        /* \"#utility.yul\":11333:11399   */\n      tag_450\n        /* \"#utility.yul\":11395:11398   */\n      dup4\n        /* \"#utility.yul\":11387:11393   */\n      dup4\n        /* \"#utility.yul\":11333:11399   */\n      tag_284\n      jump\t// in\n    tag_450:\n        /* \"#utility.yul\":11319:11399   */\n      swap1\n      pop\n        /* \"#utility.yul\":11209:11405   */\n      swap3\n      swap2\n      pop\n      pop\n      jump\t// out\n        /* \"#utility.yul\":11411:11532   */\n    tag_286:\n        /* \"#utility.yul\":11489:11493   */\n      0x00\n        /* \"#utility.yul\":11521:11525   */\n      0x20\n        /* \"#utility.yul\":11516:11519   */\n      dup3\n        /* \"#utility.yul\":11512:11526   */\n      add\n        /* \"#utility.yul\":11504:11526   */\n      swap1\n      pop\n        /* \"#utility.yul\":11411:11532   */\n      swap2\n      swap1\n      pop\n      jump\t// out\n        /* \"#utility.yul\":11568:12547   */\n    tag_287:\n        /* \"#utility.yul\":11703:11706   */\n      0x00\n        /* \"#utility.yul\":11732:11794   */\n      tag_453\n        /* \"#utility.yul\":11788:11793   */\n      dup3\n        /* \"#utility.yul\":11732:11794   */\n      tag_278\n      jump\t// in\n    tag_453:\n        /* \"#utility.yul\":11810:11904   */\n      tag_454\n        /* \"#utility.yul\":11897:11903   */\n      dup2\n        /* \"#utility.yul\":11892:11895   */\n      dup6\n        /* \"#utility.yul\":11810:11904   */\n      tag_279\n      jump\t// in\n    tag_454:\n        /* \"#utility.yul\":11803:11904   */\n      swap4\n      pop\n        /* \"#utility.yul\":11930:11933   */\n      dup4\n        /* \"#utility.yul\":11975:11979   */\n      0x20\n        /* \"#utility.yul\":11967:11973   */\n      dup3\n        /* \"#utility.yul\":11963:11980   */\n      mul\n        /* \"#utility.yul\":11958:11961   */\n      dup6\n        /* \"#utility.yul\":11954:11981   */\n      add\n        /* \"#utility.yul\":12005:12069   */\n      tag_455\n        /* \"#utility.yul\":12063:12068   */\n      dup6\n        /* \"#utility.yul\":12005:12069   */\n      tag_280\n      jump\t// in\n    tag_455:\n        /* \"#utility.yul\":12092:12099   */\n      dup1\n        /* \"#utility.yul\":12123:12124   */\n      0x00\n        /* \"#utility.yul\":12108:12502   */\n    tag_456:\n        /* \"#utility.yul\":12133:12139   */\n      dup6\n        /* \"#utility.yul\":12130:12131   */\n      dup2\n        /* \"#utility.yul\":12127:12140   */\n      lt\n        /* \"#utility.yul\":12108:12502   */\n      iszero\n      tag_458\n      jumpi\n        /* \"#utility.yul\":12204:12213   */\n      dup5\n        /* \"#utility.yul\":12198:12202   */\n      dup5\n        /* \"#utility.yul\":12194:12214   */\n      sub\n        /* \"#utility.yul\":12189:12192   */\n      dup10\n        /* \"#utility.yul\":12182:12215   */\n      mstore\n        /* \"#utility.yul\":12255:12261   */\n      dup2\n        /* \"#utility.yul\":12249:12262   */\n      mload\n        /* \"#utility.yul\":12283:12367   */\n      tag_459\n        /* \"#utility.yul\":12362:12366   */\n      dup6\n        /* \"#utility.yul\":12347:12360   */\n      dup3\n        /* \"#utility.yul\":12283:12367   */\n      tag_285\n      jump\t// in\n    tag_459:\n        /* \"#utility.yul\":12275:12367   */\n      swap5\n      pop\n        /* \"#utility.yul\":12390:12458   */\n      tag_460\n        /* \"#utility.yul\":12451:12457   */\n      dup4\n        /* \"#utility.yul\":12390:12458   */\n      tag_286\n      jump\t// in\n    tag_460:\n        /* \"#utility.yul\":12380:12458   */\n      swap3\n      pop\n        /* \"#utility.yul\":12487:12491   */\n      0x20\n        /* \"#utility.yul\":12482:12485   */\n      dup11\n        /* \"#utility.yul\":12478:12492   */\n      add\n        /* \"#utility.yul\":12471:12492   */\n      swap10\n      pop\n        /* \"#utility.yul\":12168:12502   */\n      pop\n        /* \"#utility.yul\":12155:12156   */\n      0x01\n        /* \"#utility.yul\":12152:12153   */\n      dup2\n        /* \"#utility.yul\":12148:12157   */\n      add\n        /* \"#utility.yul\":12143:12157   */\n      swap1\n      pop\n        /* \"#utility.yul\":12108:12502   */\n      jump(tag_456)\n    tag_458:\n        /* \"#utility.yul\":12112:12126   */\n      pop\n        /* \"#utility.yul\":12518:12522   */\n      dup3\n        /* \"#utility.yul\":12511:12522   */\n      swap8\n      pop\n        /* \"#utility.yul\":12538:12541   */\n      dup8\n        /* \"#utility.yul\":12531:12541   */\n      swap6\n      pop\n        /* \"#utility.yul\":11708:12547   */\n      pop\n      pop\n      pop\n      pop\n      pop\n        /* \"#utility.yul\":11568:12547   */\n      swap3\n      swap2\n      pop\n      pop\n      jump\t// out\n        /* \"#utility.yul\":12553:13265   */\n    tag_57:\n        /* \"#utility.yul\":12810:12814   */\n      0x00\n        /* \"#utility.yul\":12848:12851   */\n      0xc0\n        /* \"#utility.yul\":12837:12846   */\n      dup3\n        /* \"#utility.yul\":12833:12852   */\n      add\n        /* \"#utility.yul\":12825:12852   */\n      swap1\n      pop\n        /* \"#utility.yul\":12862:12975   */\n      tag_462\n        /* \"#utility.yul\":12972:12973   */\n      0x00\n        /* \"#utility.yul\":12961:12970   */\n      dup4\n        /* \"#utility.yul\":12957:12974   */\n      add\n        /* \"#utility.yul\":12948:12954   */\n      dup7\n        /* \"#utility.yul\":12862:12975   */\n      tag_277\n      jump\t// in\n    tag_462:\n        /* \"#utility.yul\":13023:13032   */\n      dup2\n        /* \"#utility.yul\":13017:13021   */\n      dup2\n        /* \"#utility.yul\":13013:13033   */\n      sub\n        /* \"#utility.yul\":13007:13010   */\n      0x80\n        /* \"#utility.yul\":12996:13005   */\n      dup4\n        /* \"#utility.yul\":12992:13011   */\n      add\n        /* \"#utility.yul\":12985:13034   */\n      mstore\n        /* \"#utility.yul\":13051:13175   */\n      tag_463\n        /* \"#utility.yul\":13170:13174   */\n      dup2\n        /* \"#utility.yul\":13161:13167   */\n      dup6\n        /* \"#utility.yul\":13051:13175   */\n      tag_287\n      jump\t// in\n    tag_463:\n        /* \"#utility.yul\":13043:13175   */\n      swap1\n      pop\n        /* \"#utility.yul\":13185:13258   */\n      tag_464\n        /* \"#utility.yul\":13253:13256   */\n      0xa0\n        /* \"#utility.yul\":13242:13251   */\n      dup4\n        /* \"#utility.yul\":13238:13257   */\n      add\n        /* \"#utility.yul\":13229:13235   */\n      dup5\n        /* \"#utility.yul\":13185:13258   */\n      tag_270\n      jump\t// in\n    tag_464:\n        /* \"#utility.yul\":12553:13265   */\n      swap5\n      swap4\n      pop\n      pop\n      pop\n      pop\n      jump\t// out\n        /* \"#utility.yul\":13271:13440   */\n    tag_288:\n        /* \"#utility.yul\":13355:13366   */\n      0x00\n        /* \"#utility.yul\":13389:13395   */\n      dup3\n        /* \"#utility.yul\":13384:13387   */\n      dup3\n        /* \"#utility.yul\":13377:13396   */\n      mstore\n        /* \"#utility.yul\":13429:13433   */\n      0x20\n        /* \"#utility.yul\":13424:13427   */\n      dup3\n        /* \"#utility.yul\":13420:13434   */\n      add\n        /* \"#utility.yul\":13405:13434   */\n      swap1\n      pop\n        /* \"#utility.yul\":13271:13440   */\n      swap3\n      swap2\n      pop\n      pop\n      jump\t// out\n        /* \"#utility.yul\":13446:13823   */\n    tag_289:\n        /* \"#utility.yul\":13534:13537   */\n      0x00\n        /* \"#utility.yul\":13562:13601   */\n      tag_467\n        /* \"#utility.yul\":13595:13600   */\n      dup3\n        /* \"#utility.yul\":13562:13601   */\n      tag_281\n      jump\t// in\n    tag_467:\n        /* \"#utility.yul\":13617:13688   */\n      tag_468\n        /* \"#utility.yul\":13681:13687   */\n      dup2\n        /* \"#utility.yul\":13676:13679   */\n      dup6\n        /* \"#utility.yul\":13617:13688   */\n      tag_288\n      jump\t// in\n    tag_468:\n        /* \"#utility.yul\":13610:13688   */\n      swap4\n      pop\n        /* \"#utility.yul\":13697:13762   */\n      tag_469\n        /* \"#utility.yul\":13755:13761   */\n      dup2\n        /* \"#utility.yul\":13750:13753   */\n      dup6\n        /* \"#utility.yul\":13743:13747   */\n      0x20\n        /* \"#utility.yul\":13736:13741   */\n      dup7\n        /* \"#utility.yul\":13732:13748   */\n      add\n        /* \"#utility.yul\":13697:13762   */\n      tag_283\n      jump\t// in\n    tag_469:\n        /* \"#utility.yul\":13787:13816   */\n      tag_470\n        /* \"#utility.yul\":13809:13815   */\n      dup2\n        /* \"#utility.yul\":13787:13816   */\n      tag_244\n      jump\t// in\n    tag_470:\n        /* \"#utility.yul\":13782:13785   */\n      dup5\n        /* \"#utility.yul\":13778:13817   */\n      add\n        /* \"#utility.yul\":13771:13817   */\n      swap2\n      pop\n        /* \"#utility.yul\":13538:13823   */\n      pop\n        /* \"#utility.yul\":13446:13823   */\n      swap3\n      swap2\n      pop\n      pop\n      jump\t// out\n        /* \"#utility.yul\":13829:14142   */\n    tag_63:\n        /* \"#utility.yul\":13942:13946   */\n      0x00\n        /* \"#utility.yul\":13980:13982   */\n      0x20\n        /* \"#utility.yul\":13969:13978   */\n      dup3\n        /* \"#utility.yul\":13965:13983   */\n      add\n        /* \"#utility.yul\":13957:13983   */\n      swap1\n      pop\n        /* \"#utility.yul\":14029:14038   */\n      dup2\n        /* \"#utility.yul\":14023:14027   */\n      dup2\n        /* \"#utility.yul\":14019:14039   */\n      sub\n        /* \"#utility.yul\":14015:14016   */\n      0x00\n        /* \"#utility.yul\":14004:14013   */\n      dup4\n        /* \"#utility.yul\":14000:14017   */\n      add\n        /* \"#utility.yul\":13993:14040   */\n      mstore\n        /* \"#utility.yul\":14057:14135   */\n      tag_472\n        /* \"#utility.yul\":14130:14134   */\n      dup2\n        /* \"#utility.yul\":14121:14127   */\n      dup5\n        /* \"#utility.yul\":14057:14135   */\n      tag_289\n      jump\t// in\n    tag_472:\n        /* \"#utility.yul\":14049:14135   */\n      swap1\n      pop\n        /* \"#utility.yul\":13829:14142   */\n      swap3\n      swap2\n      pop\n      pop\n      jump\t// out\n        /* \"#utility.yul\":14148:14368   */\n    tag_290:\n        /* \"#utility.yul\":14288:14322   */\n      0x4f6e6c79206f776e65722063616e2063616c6c20746869732066756e6374696f\n        /* \"#utility.yul\":14284:14285   */\n      0x00\n        /* \"#utility.yul\":14276:14282   */\n      dup3\n        /* \"#utility.yul\":14272:14286   */\n      add\n        /* \"#utility.yul\":14265:14323   */\n      mstore\n        /* \"#utility.yul\":14357:14360   */\n      0x6e00000000000000000000000000000000000000000000000000000000000000\n        /* \"#utility.yul\":14352:14354   */\n      0x20\n        /* \"#utility.yul\":14344:14350   */\n      dup3\n        /* \"#utility.yul\":14340:14355   */\n      add\n        /* \"#utility.yul\":14333:14361   */\n      mstore\n        /* \"#utility.yul\":14148:14368   */\n      pop\n      jump\t// out\n        /* \"#utility.yul\":14374:14740   */\n    tag_291:\n        /* \"#utility.yul\":14516:14519   */\n      0x00\n        /* \"#utility.yul\":14537:14604   */\n      tag_475\n        /* \"#utility.yul\":14601:14603   */\n      0x21\n        /* \"#utility.yul\":14596:14599   */\n      dup4\n        /* \"#utility.yul\":14537:14604   */\n      tag_288\n      jump\t// in\n    tag_475:\n        /* \"#utility.yul\":14530:14604   */\n      swap2\n      pop\n        /* \"#utility.yul\":14613:14706   */\n      tag_476\n        /* \"#utility.yul\":14702:14705   */\n      dup3\n        /* \"#utility.yul\":14613:14706   */\n      tag_290\n      jump\t// in\n    tag_476:\n        /* \"#utility.yul\":14731:14733   */\n      0x40\n        /* \"#utility.yul\":14726:14729   */\n      dup3\n        /* \"#utility.yul\":14722:14734   */\n      add\n        /* \"#utility.yul\":14715:14734   */\n      swap1\n      pop\n        /* \"#utility.yul\":14374:14740   */\n      swap2\n      swap1\n      pop\n      jump\t// out\n        /* \"#utility.yul\":14746:15165   */\n    tag_73:\n        /* \"#utility.yul\":14912:14916   */\n      0x00\n        /* \"#utility.yul\":14950:14952   */\n      0x20\n        /* \"#utility.yul\":14939:14948   */\n      dup3\n        /* \"#utility.yul\":14935:14953   */\n      add\n        /* \"#utility.yul\":14927:14953   */\n      swap1\n      pop\n        /* \"#utility.yul\":14999:15008   */\n      dup2\n        /* \"#utility.yul\":14993:14997   */\n      dup2\n        /* \"#utility.yul\":14989:15009   */\n      sub\n        /* \"#utility.yul\":14985:14986   */\n      0x00\n        /* \"#utility.yul\":14974:14983   */\n      dup4\n        /* \"#utility.yul\":14970:14987   */\n      add\n        /* \"#utility.yul\":14963:15010   */\n      mstore\n        /* \"#utility.yul\":15027:15158   */\n      tag_478\n        /* \"#utility.yul\":15153:15157   */\n      dup2\n        /* \"#utility.yul\":15027:15158   */\n      tag_291\n      jump\t// in\n    tag_478:\n        /* \"#utility.yul\":15019:15158   */\n      swap1\n      pop\n        /* \"#utility.yul\":14746:15165   */\n      swap2\n      swap1\n      pop\n      jump\t// out\n        /* \"#utility.yul\":15171:15772   */\n    tag_80:\n        /* \"#utility.yul\":15400:15404   */\n      0x00\n        /* \"#utility.yul\":15438:15441   */\n      0xa0\n        /* \"#utility.yul\":15427:15436   */\n      dup3\n        /* \"#utility.yul\":15423:15442   */\n      add\n        /* \"#utility.yul\":15415:15442   */\n      swap1\n      pop\n        /* \"#utility.yul\":15452:15565   */\n      tag_480\n        /* \"#utility.yul\":15562:15563   */\n      0x00\n        /* \"#utility.yul\":15551:15560   */\n      dup4\n        /* \"#utility.yul\":15547:15564   */\n      add\n        /* \"#utility.yul\":15538:15544   */\n      dup6\n        /* \"#utility.yul\":15452:15565   */\n      tag_277\n      jump\t// in\n    tag_480:\n        /* \"#utility.yul\":15613:15622   */\n      dup2\n        /* \"#utility.yul\":15607:15611   */\n      dup2\n        /* \"#utility.yul\":15603:15623   */\n      sub\n        /* \"#utility.yul\":15597:15600   */\n      0x80\n        /* \"#utility.yul\":15586:15595   */\n      dup4\n        /* \"#utility.yul\":15582:15601   */\n      add\n        /* \"#utility.yul\":15575:15624   */\n      mstore\n        /* \"#utility.yul\":15641:15765   */\n      tag_481\n        /* \"#utility.yul\":15760:15764   */\n      dup2\n        /* \"#utility.yul\":15751:15757   */\n      dup5\n        /* \"#utility.yul\":15641:15765   */\n      tag_287\n      jump\t// in\n    tag_481:\n        /* \"#utility.yul\":15633:15765   */\n      swap1\n      pop\n        /* \"#utility.yul\":15171:15772   */\n      swap4\n      swap3\n      pop\n      pop\n      pop\n      jump\t// out\n        /* \"#utility.yul\":15778:15958   */\n    tag_292:\n        /* \"#utility.yul\":15918:15950   */\n      0x496e73756666696369656e742066756e647320696e20636f6e74726163740000\n        /* \"#utility.yul\":15914:15915   */\n      0x00\n        /* \"#utility.yul\":15906:15912   */\n      dup3\n        /* \"#utility.yul\":15902:15916   */\n      add\n        /* \"#utility.yul\":15895:15951   */\n      mstore\n        /* \"#utility.yul\":15778:15958   */\n      pop\n      jump\t// out\n        /* \"#utility.yul\":15964:16330   */\n    tag_293:\n        /* \"#utility.yul\":16106:16109   */\n      0x00\n        /* \"#utility.yul\":16127:16194   */\n      tag_484\n        /* \"#utility.yul\":16191:16193   */\n      0x1e\n        /* \"#utility.yul\":16186:16189   */\n      dup4\n        /* \"#utility.yul\":16127:16194   */\n      tag_288\n      jump\t// in\n    tag_484:\n        /* \"#utility.yul\":16120:16194   */\n      swap2\n      pop\n        /* \"#utility.yul\":16203:16296   */\n      tag_485\n        /* \"#utility.yul\":16292:16295   */\n      dup3\n        /* \"#utility.yul\":16203:16296   */\n      tag_292\n      jump\t// in\n    tag_485:\n        /* \"#utility.yul\":16321:16323   */\n      0x20\n        /* \"#utility.yul\":16316:16319   */\n      dup3\n        /* \"#utility.yul\":16312:16324   */\n      add\n        /* \"#utility.yul\":16305:16324   */\n      swap1\n      pop\n        /* \"#utility.yul\":15964:16330   */\n      swap2\n      swap1\n      pop\n      jump\t// out\n        /* \"#utility.yul\":16336:16755   */\n    tag_89:\n        /* \"#utility.yul\":16502:16506   */\n      0x00\n        /* \"#utility.yul\":16540:16542   */\n      0x20\n        /* \"#utility.yul\":16529:16538   */\n      dup3\n        /* \"#utility.yul\":16525:16543   */\n      add\n        /* \"#utility.yul\":16517:16543   */\n      swap1\n      pop\n        /* \"#utility.yul\":16589:16598   */\n      dup2\n        /* \"#utility.yul\":16583:16587   */\n      dup2\n        /* \"#utility.yul\":16579:16599   */\n      sub\n        /* \"#utility.yul\":16575:16576   */\n      0x00\n        /* \"#utility.yul\":16564:16573   */\n      dup4\n        /* \"#utility.yul\":16560:16577   */\n      add\n        /* \"#utility.yul\":16553:16600   */\n      mstore\n        /* \"#utility.yul\":16617:16748   */\n      tag_487\n        /* \"#utility.yul\":16743:16747   */\n      dup2\n        /* \"#utility.yul\":16617:16748   */\n      tag_293\n      jump\t// in\n    tag_487:\n        /* \"#utility.yul\":16609:16748   */\n      swap1\n      pop\n        /* \"#utility.yul\":16336:16755   */\n      swap2\n      swap1\n      pop\n      jump\t// out\n        /* \"#utility.yul\":16761:16941   */\n    tag_96:\n        /* \"#utility.yul\":16809:16886   */\n      0x4e487b7100000000000000000000000000000000000000000000000000000000\n        /* \"#utility.yul\":16806:16807   */\n      0x00\n        /* \"#utility.yul\":16799:16887   */\n      mstore\n        /* \"#utility.yul\":16906:16910   */\n      0x32\n        /* \"#utility.yul\":16903:16904   */\n      0x04\n        /* \"#utility.yul\":16896:16911   */\n      mstore\n        /* \"#utility.yul\":16930:16934   */\n      0x24\n        /* \"#utility.yul\":16927:16928   */\n      0x00\n        /* \"#utility.yul\":16920:16935   */\n      revert\n        /* \"#utility.yul\":16947:17127   */\n    tag_294:\n        /* \"#utility.yul\":16995:17072   */\n      0x4e487b7100000000000000000000000000000000000000000000000000000000\n        /* \"#utility.yul\":16992:16993   */\n      0x00\n        /* \"#utility.yul\":16985:17073   */\n      mstore\n        /* \"#utility.yul\":17092:17096   */\n      0x22\n        /* \"#utility.yul\":17089:17090   */\n      0x04\n        /* \"#utility.yul\":17082:17097   */\n      mstore\n        /* \"#utility.yul\":17116:17120   */\n      0x24\n        /* \"#utility.yul\":17113:17114   */\n      0x00\n        /* \"#utility.yul\":17106:17121   */\n      revert\n        /* \"#utility.yul\":17133:17453   */\n    tag_104:\n        /* \"#utility.yul\":17177:17183   */\n      0x00\n        /* \"#utility.yul\":17214:17215   */\n      0x02\n        /* \"#utility.yul\":17208:17212   */\n      dup3\n        /* \"#utility.yul\":17204:17216   */\n      div\n        /* \"#utility.yul\":17194:17216   */\n      swap1\n      pop\n        /* \"#utility.yul\":17261:17262   */\n      0x01\n        /* \"#utility.yul\":17255:17259   */\n      dup3\n        /* \"#utility.yul\":17251:17263   */\n      and\n        /* \"#utility.yul\":17282:17300   */\n      dup1\n        /* \"#utility.yul\":17272:17353   */\n      tag_491\n      jumpi\n        /* \"#utility.yul\":17338:17342   */\n      0x7f\n        /* \"#utility.yul\":17330:17336   */\n      dup3\n        /* \"#utility.yul\":17326:17343   */\n      and\n        /* \"#utility.yul\":17316:17343   */\n      swap2\n      pop\n        /* \"#utility.yul\":17272:17353   */\n    tag_491:\n        /* \"#utility.yul\":17400:17402   */\n      0x20\n        /* \"#utility.yul\":17392:17398   */\n      dup3\n        /* \"#utility.yul\":17389:17403   */\n      lt\n        /* \"#utility.yul\":17369:17387   */\n      dup2\n        /* \"#utility.yul\":17366:17404   */\n      sub\n        /* \"#utility.yul\":17363:17447   */\n      tag_492\n      jumpi\n        /* \"#utility.yul\":17419:17437   */\n      tag_493\n      tag_294\n      jump\t// in\n    tag_493:\n        /* \"#utility.yul\":17363:17447   */\n    tag_492:\n        /* \"#utility.yul\":17184:17453   */\n      pop\n        /* \"#utility.yul\":17133:17453   */\n      swap2\n      swap1\n      pop\n      jump\t// out\n        /* \"#utility.yul\":17459:17687   */\n    tag_295:\n        /* \"#utility.yul\":17599:17633   */\n      0x496e73756666696369656e742066756e647320666f72207072697a6520646973\n        /* \"#utility.yul\":17595:17596   */\n      0x00\n        /* \"#utility.yul\":17587:17593   */\n      dup3\n        /* \"#utility.yul\":17583:17597   */\n      add\n        /* \"#utility.yul\":17576:17634   */\n      mstore\n        /* \"#utility.yul\":17668:17679   */\n      0x747269627574696f6e0000000000000000000000000000000000000000000000\n        /* \"#utility.yul\":17663:17665   */\n      0x20\n        /* \"#utility.yul\":17655:17661   */\n      dup3\n        /* \"#utility.yul\":17651:17666   */\n      add\n        /* \"#utility.yul\":17644:17680   */\n      mstore\n        /* \"#utility.yul\":17459:17687   */\n      pop\n      jump\t// out\n        /* \"#utility.yul\":17693:18059   */\n    tag_296:\n        /* \"#utility.yul\":17835:17838   */\n      0x00\n        /* \"#utility.yul\":17856:17923   */\n      tag_496\n        /* \"#utility.yul\":17920:17922   */\n      0x29\n        /* \"#utility.yul\":17915:17918   */\n      dup4\n        /* \"#utility.yul\":17856:17923   */\n      tag_288\n      jump\t// in\n    tag_496:\n        /* \"#utility.yul\":17849:17923   */\n      swap2\n      pop\n        /* \"#utility.yul\":17932:18025   */\n      tag_497\n        /* \"#utility.yul\":18021:18024   */\n      dup3\n        /* \"#utility.yul\":17932:18025   */\n      tag_295\n      jump\t// in\n    tag_497:\n        /* \"#utility.yul\":18050:18052   */\n      0x40\n        /* \"#utility.yul\":18045:18048   */\n      dup3\n        /* \"#utility.yul\":18041:18053   */\n      add\n        /* \"#utility.yul\":18034:18053   */\n      swap1\n      pop\n        /* \"#utility.yul\":17693:18059   */\n      swap2\n      swap1\n      pop\n      jump\t// out\n        /* \"#utility.yul\":18065:18484   */\n    tag_120:\n        /* \"#utility.yul\":18231:18235   */\n      0x00\n        /* \"#utility.yul\":18269:18271   */\n      0x20\n        /* \"#utility.yul\":18258:18267   */\n      dup3\n        /* \"#utility.yul\":18254:18272   */\n      add\n        /* \"#utility.yul\":18246:18272   */\n      swap1\n      pop\n        /* \"#utility.yul\":18318:18327   */\n      dup2\n        /* \"#utility.yul\":18312:18316   */\n      dup2\n        /* \"#utility.yul\":18308:18328   */\n      sub\n        /* \"#utility.yul\":18304:18305   */\n      0x00\n        /* \"#utility.yul\":18293:18302   */\n      dup4\n        /* \"#utility.yul\":18289:18306   */\n      add\n        /* \"#utility.yul\":18282:18329   */\n      mstore\n        /* \"#utility.yul\":18346:18477   */\n      tag_499\n        /* \"#utility.yul\":18472:18476   */\n      dup2\n        /* \"#utility.yul\":18346:18477   */\n      tag_296\n      jump\t// in\n    tag_499:\n        /* \"#utility.yul\":18338:18477   */\n      swap1\n      pop\n        /* \"#utility.yul\":18065:18484   */\n      swap2\n      swap1\n      pop\n      jump\t// out\n        /* \"#utility.yul\":18490:18662   */\n    tag_297:\n        /* \"#utility.yul\":18630:18654   */\n      0x496e636f7272656374207469636b657420707269636500000000000000000000\n        /* \"#utility.yul\":18626:18627   */\n      0x00\n        /* \"#utility.yul\":18618:18624   */\n      dup3\n        /* \"#utility.yul\":18614:18628   */\n      add\n        /* \"#utility.yul\":18607:18655   */\n      mstore\n        /* \"#utility.yul\":18490:18662   */\n      pop\n      jump\t// out\n        /* \"#utility.yul\":18668:19034   */\n    tag_298:\n        /* \"#utility.yul\":18810:18813   */\n      0x00\n        /* \"#utility.yul\":18831:18898   */\n      tag_502\n        /* \"#utility.yul\":18895:18897   */\n      0x16\n        /* \"#utility.yul\":18890:18893   */\n      dup4\n        /* \"#utility.yul\":18831:18898   */\n      tag_288\n      jump\t// in\n    tag_502:\n        /* \"#utility.yul\":18824:18898   */\n      swap2\n      pop\n        /* \"#utility.yul\":18907:19000   */\n      tag_503\n        /* \"#utility.yul\":18996:18999   */\n      dup3\n        /* \"#utility.yul\":18907:19000   */\n      tag_297\n      jump\t// in\n    tag_503:\n        /* \"#utility.yul\":19025:19027   */\n      0x20\n        /* \"#utility.yul\":19020:19023   */\n      dup3\n        /* \"#utility.yul\":19016:19028   */\n      add\n        /* \"#utility.yul\":19009:19028   */\n      swap1\n      pop\n        /* \"#utility.yul\":18668:19034   */\n      swap2\n      swap1\n      pop\n      jump\t// out\n        /* \"#utility.yul\":19040:19459   */\n    tag_135:\n        /* \"#utility.yul\":19206:19210   */\n      0x00\n        /* \"#utility.yul\":19244:19246   */\n      0x20\n        /* \"#utility.yul\":19233:19242   */\n      dup3\n        /* \"#utility.yul\":19229:19247   */\n      add\n        /* \"#utility.yul\":19221:19247   */\n      swap1\n      pop\n        /* \"#utility.yul\":19293:19302   */\n      dup2\n        /* \"#utility.yul\":19287:19291   */\n      dup2\n        /* \"#utility.yul\":19283:19303   */\n      sub\n        /* \"#utility.yul\":19279:19280   */\n      0x00\n        /* \"#utility.yul\":19268:19277   */\n      dup4\n        /* \"#utility.yul\":19264:19281   */\n      add\n        /* \"#utility.yul\":19257:19304   */\n      mstore\n        /* \"#utility.yul\":19321:19452   */\n      tag_505\n        /* \"#utility.yul\":19447:19451   */\n      dup2\n        /* \"#utility.yul\":19321:19452   */\n      tag_298\n      jump\t// in\n    tag_505:\n        /* \"#utility.yul\":19313:19452   */\n      swap1\n      pop\n        /* \"#utility.yul\":19040:19459   */\n      swap2\n      swap1\n      pop\n      jump\t// out\n        /* \"#utility.yul\":19465:19645   */\n    tag_299:\n        /* \"#utility.yul\":19513:19590   */\n      0x4e487b7100000000000000000000000000000000000000000000000000000000\n        /* \"#utility.yul\":19510:19511   */\n      0x00\n        /* \"#utility.yul\":19503:19591   */\n      mstore\n        /* \"#utility.yul\":19610:19614   */\n      0x11\n        /* \"#utility.yul\":19607:19608   */\n      0x04\n        /* \"#utility.yul\":19600:19615   */\n      mstore\n        /* \"#utility.yul\":19634:19638   */\n      0x24\n        /* \"#utility.yul\":19631:19632   */\n      0x00\n        /* \"#utility.yul\":19624:19639   */\n      revert\n        /* \"#utility.yul\":19651:19818   */\n    tag_187:\n        /* \"#utility.yul\":19688:19691   */\n      0x00\n        /* \"#utility.yul\":19711:19733   */\n      tag_508\n        /* \"#utility.yul\":19727:19732   */\n      dup3\n        /* \"#utility.yul\":19711:19733   */\n      tag_250\n      jump\t// in\n    tag_508:\n        /* \"#utility.yul\":19702:19733   */\n      swap2\n      pop\n        /* \"#utility.yul\":19755:19759   */\n      0xff\n        /* \"#utility.yul\":19748:19753   */\n      dup3\n        /* \"#utility.yul\":19745:19760   */\n      sub\n        /* \"#utility.yul\":19742:19783   */\n      tag_509\n      jumpi\n        /* \"#utility.yul\":19763:19781   */\n      tag_510\n      tag_299\n      jump\t// in\n    tag_510:\n        /* \"#utility.yul\":19742:19783   */\n    tag_509:\n        /* \"#utility.yul\":19810:19811   */\n      0x01\n        /* \"#utility.yul\":19803:19808   */\n      dup3\n        /* \"#utility.yul\":19799:19812   */\n      add\n        /* \"#utility.yul\":19792:19812   */\n      swap1\n      pop\n        /* \"#utility.yul\":19651:19818   */\n      swap2\n      swap1\n      pop\n      jump\t// out\n        /* \"#utility.yul\":19824:19972   */\n    tag_300:\n        /* \"#utility.yul\":19926:19937   */\n      0x00\n        /* \"#utility.yul\":19963:19966   */\n      dup2\n        /* \"#utility.yul\":19948:19966   */\n      swap1\n      pop\n        /* \"#utility.yul\":19824:19972   */\n      swap3\n      swap2\n      pop\n      pop\n      jump\t// out\n        /* \"#utility.yul\":19978:20119   */\n    tag_301:\n        /* \"#utility.yul\":20027:20031   */\n      0x00\n        /* \"#utility.yul\":20050:20053   */\n      dup2\n        /* \"#utility.yul\":20042:20053   */\n      swap1\n      pop\n        /* \"#utility.yul\":20073:20076   */\n      dup2\n        /* \"#utility.yul\":20070:20071   */\n      0x00\n        /* \"#utility.yul\":20063:20077   */\n      mstore\n        /* \"#utility.yul\":20107:20111   */\n      0x20\n        /* \"#utility.yul\":20104:20105   */\n      0x00\n        /* \"#utility.yul\":20094:20112   */\n      keccak256\n        /* \"#utility.yul\":20086:20112   */\n      swap1\n      pop\n        /* \"#utility.yul\":19978:20119   */\n      swap2\n      swap1\n      pop\n      jump\t// out\n        /* \"#utility.yul\":20149:21023   */\n    tag_302:\n        /* \"#utility.yul\":20252:20255   */\n      0x00\n        /* \"#utility.yul\":20289:20294   */\n      dup2\n        /* \"#utility.yul\":20283:20295   */\n      sload\n        /* \"#utility.yul\":20318:20354   */\n      tag_514\n        /* \"#utility.yul\":20344:20353   */\n      dup2\n        /* \"#utility.yul\":20318:20354   */\n      tag_104\n      jump\t// in\n    tag_514:\n        /* \"#utility.yul\":20370:20459   */\n      tag_515\n        /* \"#utility.yul\":20452:20458   */\n      dup2\n        /* \"#utility.yul\":20447:20450   */\n      dup7\n        /* \"#utility.yul\":20370:20459   */\n      tag_300\n      jump\t// in\n    tag_515:\n        /* \"#utility.yul\":20363:20459   */\n      swap5\n      pop\n        /* \"#utility.yul\":20490:20491   */\n      0x01\n        /* \"#utility.yul\":20479:20488   */\n      dup3\n        /* \"#utility.yul\":20475:20492   */\n      and\n        /* \"#utility.yul\":20506:20507   */\n      0x00\n        /* \"#utility.yul\":20501:20667   */\n      dup2\n      eq\n      tag_517\n      jumpi\n        /* \"#utility.yul\":20681:20682   */\n      0x01\n        /* \"#utility.yul\":20676:21017   */\n      dup2\n      eq\n      tag_518\n      jumpi\n        /* \"#utility.yul\":20468:21017   */\n      jump(tag_516)\n        /* \"#utility.yul\":20501:20667   */\n    tag_517:\n        /* \"#utility.yul\":20585:20589   */\n      0xff\n        /* \"#utility.yul\":20581:20590   */\n      not\n        /* \"#utility.yul\":20570:20579   */\n      dup4\n        /* \"#utility.yul\":20566:20591   */\n      and\n        /* \"#utility.yul\":20561:20564   */\n      dup7\n        /* \"#utility.yul\":20554:20592   */\n      mstore\n        /* \"#utility.yul\":20647:20653   */\n      dup2\n        /* \"#utility.yul\":20640:20654   */\n      iszero\n        /* \"#utility.yul\":20633:20655   */\n      iszero\n        /* \"#utility.yul\":20625:20631   */\n      dup3\n        /* \"#utility.yul\":20621:20656   */\n      mul\n        /* \"#utility.yul\":20616:20619   */\n      dup7\n        /* \"#utility.yul\":20612:20657   */\n      add\n        /* \"#utility.yul\":20605:20657   */\n      swap4\n      pop\n        /* \"#utility.yul\":20501:20667   */\n      jump(tag_516)\n        /* \"#utility.yul\":20676:21017   */\n    tag_518:\n        /* \"#utility.yul\":20743:20781   */\n      tag_519\n        /* \"#utility.yul\":20775:20780   */\n      dup6\n        /* \"#utility.yul\":20743:20781   */\n      tag_301\n      jump\t// in\n    tag_519:\n        /* \"#utility.yul\":20803:20804   */\n      0x00\n        /* \"#utility.yul\":20817:20971   */\n    tag_520:\n        /* \"#utility.yul\":20831:20837   */\n      dup4\n        /* \"#utility.yul\":20828:20829   */\n      dup2\n        /* \"#utility.yul\":20825:20838   */\n      lt\n        /* \"#utility.yul\":20817:20971   */\n      iszero\n      tag_522\n      jumpi\n        /* \"#utility.yul\":20905:20912   */\n      dup2\n        /* \"#utility.yul\":20899:20913   */\n      sload\n        /* \"#utility.yul\":20895:20896   */\n      dup2\n        /* \"#utility.yul\":20890:20893   */\n      dup10\n        /* \"#utility.yul\":20886:20897   */\n      add\n        /* \"#utility.yul\":20879:20914   */\n      mstore\n        /* \"#utility.yul\":20955:20956   */\n      0x01\n        /* \"#utility.yul\":20946:20953   */\n      dup3\n        /* \"#utility.yul\":20942:20957   */\n      add\n        /* \"#utility.yul\":20931:20957   */\n      swap2\n      pop\n        /* \"#utility.yul\":20853:20857   */\n      0x20\n        /* \"#utility.yul\":20850:20851   */\n      dup2\n        /* \"#utility.yul\":20846:20858   */\n      add\n        /* \"#utility.yul\":20841:20858   */\n      swap1\n      pop\n        /* \"#utility.yul\":20817:20971   */\n      jump(tag_520)\n    tag_522:\n        /* \"#utility.yul\":21000:21006   */\n      dup4\n        /* \"#utility.yul\":20995:20998   */\n      dup9\n        /* \"#utility.yul\":20991:21007   */\n      add\n        /* \"#utility.yul\":20984:21007   */\n      swap6\n      pop\n        /* \"#utility.yul\":20683:21017   */\n      pop\n      pop\n        /* \"#utility.yul\":20468:21017   */\n    tag_516:\n      pop\n        /* \"#utility.yul\":20256:21023   */\n      pop\n      pop\n        /* \"#utility.yul\":20149:21023   */\n      swap3\n      swap2\n      pop\n      pop\n      jump\t// out\n        /* \"#utility.yul\":21029:21298   */\n    tag_198:\n        /* \"#utility.yul\":21158:21161   */\n      0x00\n        /* \"#utility.yul\":21180:21272   */\n      tag_524\n        /* \"#utility.yul\":21268:21271   */\n      dup3\n        /* \"#utility.yul\":21259:21265   */\n      dup5\n        /* \"#utility.yul\":21180:21272   */\n      tag_302\n      jump\t// in\n    tag_524:\n        /* \"#utility.yul\":21173:21272   */\n      swap2\n      pop\n        /* \"#utility.yul\":21289:21292   */\n      dup2\n        /* \"#utility.yul\":21282:21292   */\n      swap1\n      pop\n        /* \"#utility.yul\":21029:21298   */\n      swap3\n      swap2\n      pop\n      pop\n      jump\t// out\n        /* \"#utility.yul\":21304:21694   */\n    tag_303:\n        /* \"#utility.yul\":21410:21413   */\n      0x00\n        /* \"#utility.yul\":21438:21477   */\n      tag_526\n        /* \"#utility.yul\":21471:21476   */\n      dup3\n        /* \"#utility.yul\":21438:21477   */\n      tag_281\n      jump\t// in\n    tag_526:\n        /* \"#utility.yul\":21493:21582   */\n      tag_527\n        /* \"#utility.yul\":21575:21581   */\n      dup2\n        /* \"#utility.yul\":21570:21573   */\n      dup6\n        /* \"#utility.yul\":21493:21582   */\n      tag_300\n      jump\t// in\n    tag_527:\n        /* \"#utility.yul\":21486:21582   */\n      swap4\n      pop\n        /* \"#utility.yul\":21591:21656   */\n      tag_528\n        /* \"#utility.yul\":21649:21655   */\n      dup2\n        /* \"#utility.yul\":21644:21647   */\n      dup6\n        /* \"#utility.yul\":21637:21641   */\n      0x20\n        /* \"#utility.yul\":21630:21635   */\n      dup7\n        /* \"#utility.yul\":21626:21642   */\n      add\n        /* \"#utility.yul\":21591:21656   */\n      tag_283\n      jump\t// in\n    tag_528:\n        /* \"#utility.yul\":21681:21687   */\n      dup1\n        /* \"#utility.yul\":21676:21679   */\n      dup5\n        /* \"#utility.yul\":21672:21688   */\n      add\n        /* \"#utility.yul\":21665:21688   */\n      swap2\n      pop\n        /* \"#utility.yul\":21414:21694   */\n      pop\n        /* \"#utility.yul\":21304:21694   */\n      swap3\n      swap2\n      pop\n      pop\n      jump\t// out\n        /* \"#utility.yul\":21700:21975   */\n    tag_202:\n        /* \"#utility.yul\":21832:21835   */\n      0x00\n        /* \"#utility.yul\":21854:21949   */\n      tag_530\n        /* \"#utility.yul\":21945:21948   */\n      dup3\n        /* \"#utility.yul\":21936:21942   */\n      dup5\n        /* \"#utility.yul\":21854:21949   */\n      tag_303\n      jump\t// in\n    tag_530:\n        /* \"#utility.yul\":21847:21949   */\n      swap2\n      pop\n        /* \"#utility.yul\":21966:21969   */\n      dup2\n        /* \"#utility.yul\":21959:21969   */\n      swap1\n      pop\n        /* \"#utility.yul\":21700:21975   */\n      swap3\n      swap2\n      pop\n      pop\n      jump\t// out\n        /* \"#utility.yul\":21981:22074   */\n    tag_304:\n        /* \"#utility.yul\":22018:22024   */\n      0x00\n        /* \"#utility.yul\":22065:22067   */\n      0x20\n        /* \"#utility.yul\":22060:22062   */\n      0x1f\n        /* \"#utility.yul\":22053:22058   */\n      dup4\n        /* \"#utility.yul\":22049:22063   */\n      add\n        /* \"#utility.yul\":22045:22068   */\n      div\n        /* \"#utility.yul\":22035:22068   */\n      swap1\n      pop\n        /* \"#utility.yul\":21981:22074   */\n      swap2\n      swap1\n      pop\n      jump\t// out\n        /* \"#utility.yul\":22080:22187   */\n    tag_305:\n        /* \"#utility.yul\":22124:22132   */\n      0x00\n        /* \"#utility.yul\":22174:22179   */\n      dup3\n        /* \"#utility.yul\":22168:22172   */\n      dup3\n        /* \"#utility.yul\":22164:22180   */\n      shl\n        /* \"#utility.yul\":22143:22180   */\n      swap1\n      pop\n        /* \"#utility.yul\":22080:22187   */\n      swap3\n      swap2\n      pop\n      pop\n      jump\t// out\n        /* \"#utility.yul\":22193:22586   */\n    tag_306:\n        /* \"#utility.yul\":22262:22268   */\n      0x00\n        /* \"#utility.yul\":22312:22313   */\n      0x08\n        /* \"#utility.yul\":22300:22310   */\n      dup4\n        /* \"#utility.yul\":22296:22314   */\n      mul\n        /* \"#utility.yul\":22335:22432   */\n      tag_534\n        /* \"#utility.yul\":22365:22431   */\n      0xffffffffffffffffffffffffffffffffffffffffffffffffffffffffffffffff\n        /* \"#utility.yul\":22354:22363   */\n      dup3\n        /* \"#utility.yul\":22335:22432   */\n      tag_305\n      jump\t// in\n    tag_534:\n        /* \"#utility.yul\":22453:22492   */\n      tag_535\n        /* \"#utility.yul\":22483:22491   */\n      dup7\n        /* \"#utility.yul\":22472:22481   */\n      dup4\n        /* \"#utility.yul\":22453:22492   */\n      tag_305\n      jump\t// in\n    tag_535:\n        /* \"#utility.yul\":22441:22492   */\n      swap6\n      pop\n        /* \"#utility.yul\":22525:22529   */\n      dup1\n        /* \"#utility.yul\":22521:22530   */\n      not\n        /* \"#utility.yul\":22514:22519   */\n      dup5\n        /* \"#utility.yul\":22510:22531   */\n      and\n        /* \"#utility.yul\":22501:22531   */\n      swap4\n      pop\n        /* \"#utility.yul\":22574:22578   */\n      dup1\n        /* \"#utility.yul\":22564:22572   */\n      dup7\n        /* \"#utility.yul\":22560:22579   */\n      and\n        /* \"#utility.yul\":22553:22558   */\n      dup5\n        /* \"#utility.yul\":22550:22580   */\n      or\n        /* \"#utility.yul\":22540:22580   */\n      swap3\n      pop\n        /* \"#utility.yul\":22269:22586   */\n      pop\n      pop\n        /* \"#utility.yul\":22193:22586   */\n      swap4\n      swap3\n      pop\n      pop\n      pop\n      jump\t// out\n        /* \"#utility.yul\":22592:22652   */\n    tag_307:\n        /* \"#utility.yul\":22620:22623   */\n      0x00\n        /* \"#utility.yul\":22641:22646   */\n      dup2\n        /* \"#utility.yul\":22634:22646   */\n      swap1\n      pop\n        /* \"#utility.yul\":22592:22652   */\n      swap2\n      swap1\n      pop\n      jump\t// out\n        /* \"#utility.yul\":22658:22800   */\n    tag_308:\n        /* \"#utility.yul\":22708:22717   */\n      0x00\n        /* \"#utility.yul\":22741:22794   */\n      tag_538\n        /* \"#utility.yul\":22759:22793   */\n      tag_539\n        /* \"#utility.yul\":22768:22792   */\n      tag_540\n        /* \"#utility.yul\":22786:22791   */\n      dup5\n        /* \"#utility.yul\":22768:22792   */\n      tag_263\n      jump\t// in\n    tag_540:\n        /* \"#utility.yul\":22759:22793   */\n      tag_307\n      jump\t// in\n    tag_539:\n        /* \"#utility.yul\":22741:22794   */\n      tag_263\n      jump\t// in\n    tag_538:\n        /* \"#utility.yul\":22728:22794   */\n      swap1\n      pop\n        /* \"#utility.yul\":22658:22800   */\n      swap2\n      swap1\n      pop\n      jump\t// out\n        /* \"#utility.yul\":22806:22881   */\n    tag_309:\n        /* \"#utility.yul\":22849:22852   */\n      0x00\n        /* \"#utility.yul\":22870:22875   */\n      dup2\n        /* \"#utility.yul\":22863:22875   */\n      swap1\n      pop\n        /* \"#utility.yul\":22806:22881   */\n      swap2\n      swap1\n      pop\n      jump\t// out\n        /* \"#utility.yul\":22887:23156   */\n    tag_310:\n        /* \"#utility.yul\":22997:23036   */\n      tag_543\n        /* \"#utility.yul\":23028:23035   */\n      dup4\n        /* \"#utility.yul\":22997:23036   */\n      tag_308\n      jump\t// in\n    tag_543:\n        /* \"#utility.yul\":23058:23149   */\n      tag_544\n        /* \"#utility.yul\":23107:23148   */\n      tag_545\n        /* \"#utility.yul\":23131:23147   */\n      dup3\n        /* \"#utility.yul\":23107:23148   */\n      tag_309\n      jump\t// in\n    tag_545:\n        /* \"#utility.yul\":23099:23105   */\n      dup5\n        /* \"#utility.yul\":23092:23096   */\n      dup5\n        /* \"#utility.yul\":23086:23097   */\n      sload\n        /* \"#utility.yul\":23058:23149   */\n      tag_306\n      jump\t// in\n    tag_544:\n        /* \"#utility.yul\":23052:23056   */\n      dup3\n        /* \"#utility.yul\":23045:23150   */\n      sstore\n        /* \"#utility.yul\":22963:23156   */\n      pop\n        /* \"#utility.yul\":22887:23156   */\n      pop\n      pop\n      pop\n      jump\t// out\n        /* \"#utility.yul\":23162:23235   */\n    tag_311:\n        /* \"#utility.yul\":23207:23210   */\n      0x00\n        /* \"#utility.yul\":23162:23235   */\n      swap1\n      jump\t// out\n        /* \"#utility.yul\":23241:23430   */\n    tag_312:\n        /* \"#utility.yul\":23318:23350   */\n      tag_548\n      tag_311\n      jump\t// in\n    tag_548:\n        /* \"#utility.yul\":23359:23424   */\n      tag_549\n        /* \"#utility.yul\":23417:23423   */\n      dup2\n        /* \"#utility.yul\":23409:23415   */\n      dup5\n        /* \"#utility.yul\":23403:23407   */\n      dup5\n        /* \"#utility.yul\":23359:23424   */\n      tag_310\n      jump\t// in\n    tag_549:\n        /* \"#utility.yul\":23294:23430   */\n      pop\n        /* \"#utility.yul\":23241:23430   */\n      pop\n      pop\n      jump\t// out\n        /* \"#utility.yul\":23436:23622   */\n    tag_313:\n        /* \"#utility.yul\":23496:23616   */\n    tag_551:\n        /* \"#utility.yul\":23513:23516   */\n      dup2\n        /* \"#utility.yul\":23506:23511   */\n      dup2\n        /* \"#utility.yul\":23503:23517   */\n      lt\n        /* \"#utility.yul\":23496:23616   */\n      iszero\n      tag_553\n      jumpi\n        /* \"#utility.yul\":23567:23606   */\n      tag_554\n        /* \"#utility.yul\":23604:23605   */\n      0x00\n        /* \"#utility.yul\":23597:23602   */\n      dup3\n        /* \"#utility.yul\":23567:23606   */\n      tag_312\n      jump\t// in\n    tag_554:\n        /* \"#utility.yul\":23540:23541   */\n      0x01\n        /* \"#utility.yul\":23533:23538   */\n      dup2\n        /* \"#utility.yul\":23529:23542   */\n      add\n        /* \"#utility.yul\":23520:23542   */\n      swap1\n      pop\n        /* \"#utility.yul\":23496:23616   */\n      jump(tag_551)\n    tag_553:\n        /* \"#utility.yul\":23436:23622   */\n      pop\n      pop\n      jump\t// out\n        /* \"#utility.yul\":23628:24171   */\n    tag_314:\n        /* \"#utility.yul\":23729:23731   */\n      0x1f\n        /* \"#utility.yul\":23724:23727   */\n      dup3\n        /* \"#utility.yul\":23721:23732   */\n      gt\n        /* \"#utility.yul\":23718:24164   */\n      iszero\n      tag_556\n      jumpi\n        /* \"#utility.yul\":23763:23801   */\n      tag_557\n        /* \"#utility.yul\":23795:23800   */\n      dup2\n        /* \"#utility.yul\":23763:23801   */\n      tag_301\n      jump\t// in\n    tag_557:\n        /* \"#utility.yul\":23847:23876   */\n      tag_558\n        /* \"#utility.yul\":23865:23875   */\n      dup5\n        /* \"#utility.yul\":23847:23876   */\n      tag_304\n      jump\t// in\n    tag_558:\n        /* \"#utility.yul\":23837:23845   */\n      dup2\n        /* \"#utility.yul\":23833:23877   */\n      add\n        /* \"#utility.yul\":24030:24032   */\n      0x20\n        /* \"#utility.yul\":24018:24028   */\n      dup6\n        /* \"#utility.yul\":24015:24033   */\n      lt\n        /* \"#utility.yul\":24012:24061   */\n      iszero\n      tag_559\n      jumpi\n        /* \"#utility.yul\":24051:24059   */\n      dup2\n        /* \"#utility.yul\":24036:24059   */\n      swap1\n      pop\n        /* \"#utility.yul\":24012:24061   */\n    tag_559:\n        /* \"#utility.yul\":24074:24154   */\n      tag_560\n        /* \"#utility.yul\":24130:24152   */\n      tag_561\n        /* \"#utility.yul\":24148:24151   */\n      dup6\n        /* \"#utility.yul\":24130:24152   */\n      tag_304\n      jump\t// in\n    tag_561:\n        /* \"#utility.yul\":24120:24128   */\n      dup4\n        /* \"#utility.yul\":24116:24153   */\n      add\n        /* \"#utility.yul\":24103:24114   */\n      dup3\n        /* \"#utility.yul\":24074:24154   */\n      tag_313\n      jump\t// in\n    tag_560:\n        /* \"#utility.yul\":23733:24164   */\n      pop\n      pop\n        /* \"#utility.yul\":23718:24164   */\n    tag_556:\n        /* \"#utility.yul\":23628:24171   */\n      pop\n      pop\n      pop\n      jump\t// out\n        /* \"#utility.yul\":24177:24294   */\n    tag_315:\n        /* \"#utility.yul\":24231:24239   */\n      0x00\n        /* \"#utility.yul\":24281:24286   */\n      dup3\n        /* \"#utility.yul\":24275:24279   */\n      dup3\n        /* \"#utility.yul\":24271:24287   */\n      shr\n        /* \"#utility.yul\":24250:24287   */\n      swap1\n      pop\n        /* \"#utility.yul\":24177:24294   */\n      swap3\n      swap2\n      pop\n      pop\n      jump\t// out\n        /* \"#utility.yul\":24300:24469   */\n    tag_316:\n        /* \"#utility.yul\":24344:24350   */\n      0x00\n        /* \"#utility.yul\":24377:24428   */\n      tag_564\n        /* \"#utility.yul\":24425:24426   */\n      0x00\n        /* \"#utility.yul\":24421:24427   */\n      not\n        /* \"#utility.yul\":24413:24418   */\n      dup5\n        /* \"#utility.yul\":24410:24411   */\n      0x08\n        /* \"#utility.yul\":24406:24419   */\n      mul\n        /* \"#utility.yul\":24377:24428   */\n      tag_315\n      jump\t// in\n    tag_564:\n        /* \"#utility.yul\":24373:24429   */\n      not\n        /* \"#utility.yul\":24458:24462   */\n      dup1\n        /* \"#utility.yul\":24452:24456   */\n      dup4\n        /* \"#utility.yul\":24448:24463   */\n      and\n        /* \"#utility.yul\":24438:24463   */\n      swap2\n      pop\n        /* \"#utility.yul\":24351:24469   */\n      pop\n        /* \"#utility.yul\":24300:24469   */\n      swap3\n      swap2\n      pop\n      pop\n      jump\t// out\n        /* \"#utility.yul\":24474:24769   */\n    tag_317:\n        /* \"#utility.yul\":24550:24554   */\n      0x00\n        /* \"#utility.yul\":24696:24725   */\n      tag_566\n        /* \"#utility.yul\":24721:24724   */\n      dup4\n        /* \"#utility.yul\":24715:24719   */\n      dup4\n        /* \"#utility.yul\":24696:24725   */\n      tag_316\n      jump\t// in\n    tag_566:\n        /* \"#utility.yul\":24688:24725   */\n      swap2\n      pop\n        /* \"#utility.yul\":24758:24761   */\n      dup3\n        /* \"#utility.yul\":24755:24756   */\n      0x02\n        /* \"#utility.yul\":24751:24762   */\n      mul\n        /* \"#utility.yul\":24745:24749   */\n      dup3\n        /* \"#utility.yul\":24742:24763   */\n      or\n        /* \"#utility.yul\":24734:24763   */\n      swap1\n      pop\n        /* \"#utility.yul\":24474:24769   */\n      swap3\n      swap2\n      pop\n      pop\n      jump\t// out\n        /* \"#utility.yul\":24774:26169   */\n    tag_215:\n        /* \"#utility.yul\":24891:24928   */\n      tag_568\n        /* \"#utility.yul\":24924:24927   */\n      dup3\n        /* \"#utility.yul\":24891:24928   */\n      tag_281\n      jump\t// in\n    tag_568:\n        /* \"#utility.yul\":24993:25011   */\n      0xffffffffffffffff\n        /* \"#utility.yul\":24985:24991   */\n      dup2\n        /* \"#utility.yul\":24982:25012   */\n      gt\n        /* \"#utility.yul\":24979:25035   */\n      iszero\n      tag_569\n      jumpi\n        /* \"#utility.yul\":25015:25033   */\n      tag_570\n      tag_245\n      jump\t// in\n    tag_570:\n        /* \"#utility.yul\":24979:25035   */\n    tag_569:\n        /* \"#utility.yul\":25059:25097   */\n      tag_571\n        /* \"#utility.yul\":25091:25095   */\n      dup3\n        /* \"#utility.yul\":25085:25096   */\n      sload\n        /* \"#utility.yul\":25059:25097   */\n      tag_104\n      jump\t// in\n    tag_571:\n        /* \"#utility.yul\":25144:25211   */\n      tag_572\n        /* \"#utility.yul\":25204:25210   */\n      dup3\n        /* \"#utility.yul\":25196:25202   */\n      dup3\n        /* \"#utility.yul\":25190:25194   */\n      dup6\n        /* \"#utility.yul\":25144:25211   */\n      tag_314\n      jump\t// in\n    tag_572:\n        /* \"#utility.yul\":25238:25239   */\n      0x00\n        /* \"#utility.yul\":25262:25266   */\n      0x20\n        /* \"#utility.yul\":25249:25266   */\n      swap1\n      pop\n        /* \"#utility.yul\":25294:25296   */\n      0x1f\n        /* \"#utility.yul\":25286:25292   */\n      dup4\n        /* \"#utility.yul\":25283:25297   */\n      gt\n        /* \"#utility.yul\":25311:25312   */\n      0x01\n        /* \"#utility.yul\":25306:25924   */\n      dup2\n      eq\n      tag_574\n      jumpi\n        /* \"#utility.yul\":25968:25969   */\n      0x00\n        /* \"#utility.yul\":25985:25991   */\n      dup5\n        /* \"#utility.yul\":25982:26059   */\n      iszero\n      tag_575\n      jumpi\n        /* \"#utility.yul\":26034:26043   */\n      dup3\n        /* \"#utility.yul\":26029:26032   */\n      dup8\n        /* \"#utility.yul\":26025:26044   */\n      add\n        /* \"#utility.yul\":26019:26045   */\n      mload\n        /* \"#utility.yul\":26010:26045   */\n      swap1\n      pop\n        /* \"#utility.yul\":25982:26059   */\n    tag_575:\n        /* \"#utility.yul\":26085:26152   */\n      tag_576\n        /* \"#utility.yul\":26145:26151   */\n      dup6\n        /* \"#utility.yul\":26138:26143   */\n      dup3\n        /* \"#utility.yul\":26085:26152   */\n      tag_317\n      jump\t// in\n    tag_576:\n        /* \"#utility.yul\":26079:26083   */\n      dup7\n        /* \"#utility.yul\":26072:26153   */\n      sstore\n        /* \"#utility.yul\":25941:26163   */\n      pop\n        /* \"#utility.yul\":25276:26163   */\n      jump(tag_573)\n        /* \"#utility.yul\":25306:25924   */\n    tag_574:\n        /* \"#utility.yul\":25358:25362   */\n      0x1f\n        /* \"#utility.yul\":25354:25363   */\n      not\n        /* \"#utility.yul\":25346:25352   */\n      dup5\n        /* \"#utility.yul\":25342:25364   */\n      and\n        /* \"#utility.yul\":25392:25429   */\n      tag_577\n        /* \"#utility.yul\":25424:25428   */\n      dup7\n        /* \"#utility.yul\":25392:25429   */\n      tag_301\n      jump\t// in\n    tag_577:\n        /* \"#utility.yul\":25451:25452   */\n      0x00\n        /* \"#utility.yul\":25465:25673   */\n    tag_578:\n        /* \"#utility.yul\":25479:25486   */\n      dup3\n        /* \"#utility.yul\":25476:25477   */\n      dup2\n        /* \"#utility.yul\":25473:25487   */\n      lt\n        /* \"#utility.yul\":25465:25673   */\n      iszero\n      tag_580\n      jumpi\n        /* \"#utility.yul\":25558:25567   */\n      dup5\n        /* \"#utility.yul\":25553:25556   */\n      dup10\n        /* \"#utility.yul\":25549:25568   */\n      add\n        /* \"#utility.yul\":25543:25569   */\n      mload\n        /* \"#utility.yul\":25535:25541   */\n      dup3\n        /* \"#utility.yul\":25528:25570   */\n      sstore\n        /* \"#utility.yul\":25609:25610   */\n      0x01\n        /* \"#utility.yul\":25601:25607   */\n      dup3\n        /* \"#utility.yul\":25597:25611   */\n      add\n        /* \"#utility.yul\":25587:25611   */\n      swap2\n      pop\n        /* \"#utility.yul\":25656:25658   */\n      0x20\n        /* \"#utility.yul\":25645:25654   */\n      dup6\n        /* \"#utility.yul\":25641:25659   */\n      add\n        /* \"#utility.yul\":25628:25659   */\n      swap5\n      pop\n        /* \"#utility.yul\":25502:25506   */\n      0x20\n        /* \"#utility.yul\":25499:25500   */\n      dup2\n        /* \"#utility.yul\":25495:25507   */\n      add\n        /* \"#utility.yul\":25490:25507   */\n      swap1\n      pop\n        /* \"#utility.yul\":25465:25673   */\n      jump(tag_578)\n    tag_580:\n        /* \"#utility.yul\":25701:25707   */\n      dup7\n        /* \"#utility.yul\":25692:25699   */\n      dup4\n        /* \"#utility.yul\":25689:25708   */\n      lt\n        /* \"#utility.yul\":25686:25865   */\n      iszero\n      tag_581\n      jumpi\n        /* \"#utility.yul\":25759:25768   */\n      dup5\n        /* \"#utility.yul\":25754:25757   */\n      dup10\n        /* \"#utility.yul\":25750:25769   */\n      add\n        /* \"#utility.yul\":25744:25770   */\n      mload\n        /* \"#utility.yul\":25802:25850   */\n      tag_582\n        /* \"#utility.yul\":25844:25848   */\n      0x1f\n        /* \"#utility.yul\":25836:25842   */\n      dup10\n        /* \"#utility.yul\":25832:25849   */\n      and\n        /* \"#utility.yul\":25821:25830   */\n      dup3\n        /* \"#utility.yul\":25802:25850   */\n      tag_316\n      jump\t// in\n    tag_582:\n        /* \"#utility.yul\":25794:25800   */\n      dup4\n        /* \"#utility.yul\":25787:25851   */\n      sstore\n        /* \"#utility.yul\":25709:25865   */\n      pop\n        /* \"#utility.yul\":25686:25865   */\n    tag_581:\n        /* \"#utility.yul\":25911:25912   */\n      0x01\n        /* \"#utility.yul\":25907:25908   */\n      0x02\n        /* \"#utility.yul\":25899:25905   */\n      dup9\n        /* \"#utility.yul\":25895:25909   */\n      mul\n        /* \"#utility.yul\":25891:25913   */\n      add\n        /* \"#utility.yul\":25885:25889   */\n      dup9\n        /* \"#utility.yul\":25878:25914   */\n      sstore\n        /* \"#utility.yul\":25313:25924   */\n      pop\n      pop\n      pop\n        /* \"#utility.yul\":25276:26163   */\n    tag_573:\n      pop\n        /* \"#utility.yul\":24866:26169   */\n      pop\n      pop\n      pop\n        /* \"#utility.yul\":24774:26169   */\n      pop\n      pop\n      jump\t// out\n\n    auxdata: 0xa264697066735822122008c73bacd535f25202ad86090b8b3ba4a58492fcbdcf46351caba13c98d2c4e464736f6c634300081a0033\n}\n",
				"bytecode": {
					"linkReferences": {},
					"object": "608060405266b1a2bc2ec500006005553480156019575f80fd5b503360045f6101000a81548173ffffffffffffffffffffffffffffffffffffffff021916908373ffffffffffffffffffffffffffffffffffffffff160217905550611e0b806100675f395ff3fe60806040526004361061009f575f3560e01c80638da5cb5b116100635780638da5cb5b14610168578063b30906d414610192578063bae78d7b146101ce578063c10996561461020c578063d09685b014610248578063e2c41dbc14610272576100a6565b806310b6e482146100a85780631209b1f6146100d05780634e45f095146100fa5780637ce52eb6146101365780638baae14c1461014c576100a6565b366100a657005b005b3480156100b3575f80fd5b506100ce60048036038101906100c991906113d2565b61027c565b005b3480156100db575f80fd5b506100e461036c565b6040516100f19190611444565b60405180910390f35b348015610105575f80fd5b50610120600480360381019061011b9190611487565b610372565b60405161012d91906114c1565b60405180910390f35b348015610141575f80fd5b5061014a61039b565b005b610166600480360381019061016191906113d2565b61081f565b005b348015610173575f80fd5b5061017c610985565b6040516101899190611519565b60405180910390f35b34801561019d575f80fd5b506101b860048036038101906101b39190611487565b6109aa565b6040516101c59190611519565b60405180910390f35b3480156101d9575f80fd5b506101f460048036038101906101ef9190611487565b6109f2565b604051610203939291906116e6565b60405180910390f35b348015610217575f80fd5b50610232600480360381019061022d9190611487565b610b7f565b60405161023f919061176a565b60405180910390f35b348015610253575f80fd5b5061025c610c1e565b6040516102699190611444565b60405180910390f35b61027a610c29565b005b60045f9054906101000a900473ffffffffffffffffffffffffffffffffffffffff1673ffffffffffffffffffffffffffffffffffffffff163373ffffffffffffffffffffffffffffffffffffffff161461030b576040517f08c379a0000000000000000000000000000000000000000000000000000000008152600401610302906117fa565b60405180910390fd5b81600190600461031c929190610e8a565b5080600290600261032e929190610f21565b507f036eaf57b62a30fce504114c11bf31c26f49bb0842743f4e796177f4bb6bb8fb8282604051610360929190611818565b60405180910390a15050565b60055481565b60018160048110610381575f80fd5b60209182820401919006915054906101000a900460ff1681565b60045f9054906101000a900473ffffffffffffffffffffffffffffffffffffffff1673ffffffffffffffffffffffffffffffffffffffff163373ffffffffffffffffffffffffffffffffffffffff161461042a576040517f08c379a0000000000000000000000000000000000000000000000000000000008152600401610421906117fa565b60405180910390fd5b5f4790505f8111610470576040517f08c379a000000000000000000000000000000000000000000000000000000000815260040161046790611890565b60405180910390fd5b5f5b5f8054905081101561080f575f6106325f8381548110610495576104946118ae565b5b905f5260205f2090600402016040518060600160405290815f820160048060200260405190810160405280929190826004801561050b576020028201915f905b82829054906101000a900460ff1660ff16815260200190600101906020825f010492830192600103820291508084116104d55790505b5050505050815260200160018201600280602002604051908101604052809291905f905b828210156105d057838201805461054590611908565b80601f016020809104026020016040519081016040528092919081815260200182805461057190611908565b80156105bc5780601f10610593576101008083540402835291602001916105bc565b820191905f5260205f20905b81548152906001019060200180831161059f57829003601f168201915b50505050508152602001906001019061052f565b505050508152602001600382015f9054906101000a900473ffffffffffffffffffffffffffffffffffffffff1673ffffffffffffffffffffffffffffffffffffffff1673ffffffffffffffffffffffffffffffffffffffff1681525050610d08565b90505f60068260ff160361065057670de0b6b3a764000090506106a0565b60058260ff160361066b57670a688906bd8b0000905061069f565b60048260ff1603610686576703782dace9d90000905061069e565b60038260ff160361069d5767016345785d8a000090505b5b5b5b5f81111561080057808410156106eb576040517f08c379a00000000000000000000000000000000000000000000000000000000081526004016106e2906119a8565b60405180910390fd5b5f83815481106106fe576106fd6118ae565b5b905f5260205f2090600402016003015f9054906101000a900473ffffffffffffffffffffffffffffffffffffffff1673ffffffffffffffffffffffffffffffffffffffff166108fc8290811502906040515f60405180830381858888f1935050505015801561076f573d5f803e3d5ffd5b505f8381548110610783576107826118ae565b5b905f5260205f2090600402016003015f9054906101000a900473ffffffffffffffffffffffffffffffffffffffff1673ffffffffffffffffffffffffffffffffffffffff167fb8e091d87f82e56d22276c9a0088ea5d6068e355383dc08b2721b7b6cb10e845826040516107f79190611444565b60405180910390a25b50508080600101915050610472565b505f8061081c9190610f6d565b50565b6005543414610863576040517f08c379a000000000000000000000000000000000000000000000000000000000815260040161085a90611a10565b60405180910390fd5b5f60405180606001604052808481526020018381526020013373ffffffffffffffffffffffffffffffffffffffff16815250908060018154018082558091505060019003905f5260205f2090600402015f909190919091505f820151815f019060046108d0929190610e8a565b506020820151816001019060026108e8929190610f21565b506040820151816003015f6101000a81548173ffffffffffffffffffffffffffffffffffffffff021916908373ffffffffffffffffffffffffffffffffffffffff16021790555050503373ffffffffffffffffffffffffffffffffffffffff167f94243a7065b4400927d1b5240ca7db2a443565e4bddef8e585541ea25b644ed68383604051610979929190611818565b60405180910390a25050565b60045f9054906101000a900473ffffffffffffffffffffffffffffffffffffffff1681565b5f81815481106109b8575f80fd5b905f5260205f2090600402015f91509050806003015f9054906101000a900473ffffffffffffffffffffffffffffffffffffffff16905081565b6109fa610f8e565b610a02610fb0565b5f805f8581548110610a1757610a166118ae565b5b905f5260205f2090600402019050805f0181600101826003015f9054906101000a900473ffffffffffffffffffffffffffffffffffffffff1682600480602002604051908101604052809291908260048015610aac576020028201915f905b82829054906101000a900460ff1660ff16815260200190600101906020825f01049283019260010382029150808411610a765790505b5050505050925081600280602002604051908101604052809291905f905b82821015610b6b578382018054610ae090611908565b80601f0160208091040260200160405190810160405280929190818152602001828054610b0c90611908565b8015610b575780601f10610b2e57610100808354040283529160200191610b57565b820191905f5260205f20905b815481529060010190602001808311610b3a57829003601f168201915b505050505081526020019060010190610aca565b505050509150935093509350509193909250565b60028160028110610b8e575f80fd5b015f915090508054610b9f90611908565b80601f0160208091040260200160405190810160405280929190818152602001828054610bcb90611908565b8015610c165780601f10610bed57610100808354040283529160200191610c16565b820191905f5260205f20905b815481529060010190602001808311610bf957829003601f168201915b505050505081565b5f8080549050905090565b60045f9054906101000a900473ffffffffffffffffffffffffffffffffffffffff1673ffffffffffffffffffffffffffffffffffffffff163373ffffffffffffffffffffffffffffffffffffffff1614610cb8576040517f08c379a0000000000000000000000000000000000000000000000000000000008152600401610caf906117fa565b60405180910390fd5b3373ffffffffffffffffffffffffffffffffffffffff167f543ba50a5eec5e6178218e364b1d0f396157b3c8fa278522c2cb7fd99407d47434604051610cfe9190611444565b60405180910390a2565b5f805f90505f5b60048160ff161015610dad575f5b60048160ff161015610d9f5760018160ff1660048110610d4057610d3f6118ae565b5b602091828204019190069054906101000a900460ff1660ff16855f01518360ff1660048110610d7257610d716118ae565b5b602002015160ff1603610d92578280610d8a90611a5b565b935050610d9f565b8080600101915050610d1d565b508080600101915050610d0f565b505f5b60028160ff161015610e80575f5b60028160ff161015610e725760028160ff1660028110610de157610de06118ae565b5b01604051602001610df29190611b1f565b6040516020818303038152906040528051906020012085602001518360ff1660028110610e2257610e216118ae565b5b6020020151604051602001610e379190611b65565b6040516020818303038152906040528051906020012003610e65578280610e5d90611a5b565b935050610e72565b8080600101915050610dbe565b508080600101915050610db0565b5080915050919050565b826004601f01602090048101928215610f10579160200282015f5b83821115610ee257835183826101000a81548160ff021916908360ff16021790555092602001926001016020815f01049283019260010302610ea5565b8015610f0e5782816101000a81549060ff02191690556001016020815f01049283019260010302610ee2565b505b509050610f1d9190610fd7565b5090565b8260028101928215610f5c579160200282015b82811115610f5b578251829081610f4b9190611d06565b5091602001919060010190610f34565b5b509050610f699190610ff2565b5090565b5080545f8255600402905f5260205f2090810190610f8b9190611015565b50565b6040518060800160405280600490602082028036833780820191505090505090565b60405180604001604052806002905b6060815260200190600190039081610fbf5790505090565b5b80821115610fee575f815f905550600101610fd8565b5090565b5b80821115611011575f8181611008919061106f565b50600101610ff3565b5090565b5b8082111561106b575f8082015f61102d91906110ac565b600182015f61103c91906110b2565b600382015f6101000a81549073ffffffffffffffffffffffffffffffffffffffff021916905550600401611016565b5090565b50805461107b90611908565b5f825580601f1061108c57506110a9565b601f0160209004905f5260205f20908101906110a89190610fd7565b5b50565b505f9055565b505f81816110c0919061106f565b506001015f6110cf919061106f565b565b5f604051905090565b5f80fd5b5f80fd5b5f80fd5b5f601f19601f8301169050919050565b7f4e487b71000000000000000000000000000000000000000000000000000000005f52604160045260245ffd5b61112c826110e6565b810181811067ffffffffffffffff8211171561114b5761114a6110f6565b5b80604052505050565b5f61115d6110d1565b90506111698282611123565b919050565b5f67ffffffffffffffff821115611188576111876110f6565b5b602082029050919050565b5f80fd5b5f60ff82169050919050565b6111ac81611197565b81146111b6575f80fd5b50565b5f813590506111c7816111a3565b92915050565b5f6111df6111da8461116e565b611154565b905080602084028301858111156111f9576111f8611193565b5b835b81811015611222578061120e88826111b9565b8452602084019350506020810190506111fb565b5050509392505050565b5f82601f8301126112405761123f6110e2565b5b600461124d8482856111cd565b91505092915050565b5f67ffffffffffffffff8211156112705761126f6110f6565b5b602082029050919050565b5f80fd5b5f67ffffffffffffffff821115611299576112986110f6565b5b6112a2826110e6565b9050602081019050919050565b828183375f83830152505050565b5f6112cf6112ca8461127f565b611154565b9050828152602081018484840111156112eb576112ea61127b565b5b6112f68482856112af565b509392505050565b5f82601f830112611312576113116110e2565b5b81356113228482602086016112bd565b91505092915050565b5f61133d61133884611256565b611154565b9050806020840283018581111561135757611356611193565b5b835b8181101561139e57803567ffffffffffffffff81111561137c5761137b6110e2565b5b80860161138989826112fe565b85526020850194505050602081019050611359565b5050509392505050565b5f82601f8301126113bc576113bb6110e2565b5b60026113c984828561132b565b91505092915050565b5f8060a083850312156113e8576113e76110da565b5b5f6113f58582860161122c565b925050608083013567ffffffffffffffff811115611416576114156110de565b5b611422858286016113a8565b9150509250929050565b5f819050919050565b61143e8161142c565b82525050565b5f6020820190506114575f830184611435565b92915050565b6114668161142c565b8114611470575f80fd5b50565b5f813590506114818161145d565b92915050565b5f6020828403121561149c5761149b6110da565b5b5f6114a984828501611473565b91505092915050565b6114bb81611197565b82525050565b5f6020820190506114d45f8301846114b2565b92915050565b5f73ffffffffffffffffffffffffffffffffffffffff82169050919050565b5f611503826114da565b9050919050565b611513816114f9565b82525050565b5f60208201905061152c5f83018461150a565b92915050565b5f60049050919050565b5f81905092915050565b5f819050919050565b61155881611197565b82525050565b5f611569838361154f565b60208301905092915050565b5f602082019050919050565b61158a81611532565b611594818461153c565b925061159f82611546565b805f5b838110156115cf5781516115b6878261155e565b96506115c183611575565b9250506001810190506115a2565b505050505050565b5f60029050919050565b5f81905092915050565b5f819050919050565b5f81519050919050565b5f82825260208201905092915050565b8281835e5f83830152505050565b5f611626826115f4565b61163081856115fe565b935061164081856020860161160e565b611649816110e6565b840191505092915050565b5f61165f838361161c565b905092915050565b5f602082019050919050565b5f61167d826115d7565b61168781856115e1565b935083602082028501611699856115eb565b805f5b858110156116d457848403895281516116b58582611654565b94506116c083611667565b925060208a0199505060018101905061169c565b50829750879550505050505092915050565b5f60c0820190506116f95f830186611581565b818103608083015261170b8185611673565b905061171a60a083018461150a565b949350505050565b5f82825260208201905092915050565b5f61173c826115f4565b6117468185611722565b935061175681856020860161160e565b61175f816110e6565b840191505092915050565b5f6020820190508181035f8301526117828184611732565b905092915050565b7f4f6e6c79206f776e65722063616e2063616c6c20746869732066756e6374696f5f8201527f6e00000000000000000000000000000000000000000000000000000000000000602082015250565b5f6117e4602183611722565b91506117ef8261178a565b604082019050919050565b5f6020820190508181035f830152611811816117d8565b9050919050565b5f60a08201905061182b5f830185611581565b818103608083015261183d8184611673565b90509392505050565b7f496e73756666696369656e742066756e647320696e20636f6e747261637400005f82015250565b5f61187a601e83611722565b915061188582611846565b602082019050919050565b5f6020820190508181035f8301526118a78161186e565b9050919050565b7f4e487b71000000000000000000000000000000000000000000000000000000005f52603260045260245ffd5b7f4e487b71000000000000000000000000000000000000000000000000000000005f52602260045260245ffd5b5f600282049050600182168061191f57607f821691505b602082108103611932576119316118db565b5b50919050565b7f496e73756666696369656e742066756e647320666f72207072697a65206469735f8201527f747269627574696f6e0000000000000000000000000000000000000000000000602082015250565b5f611992602983611722565b915061199d82611938565b604082019050919050565b5f6020820190508181035f8301526119bf81611986565b9050919050565b7f496e636f7272656374207469636b6574207072696365000000000000000000005f82015250565b5f6119fa601683611722565b9150611a05826119c6565b602082019050919050565b5f6020820190508181035f830152611a27816119ee565b9050919050565b7f4e487b71000000000000000000000000000000000000000000000000000000005f52601160045260245ffd5b5f611a6582611197565b915060ff8203611a7857611a77611a2e565b5b600182019050919050565b5f81905092915050565b5f819050815f5260205f209050919050565b5f8154611aab81611908565b611ab58186611a83565b9450600182165f8114611acf5760018114611ae457611b16565b60ff1983168652811515820286019350611b16565b611aed85611a8d565b5f5b83811015611b0e57815481890152600182019150602081019050611aef565b838801955050505b50505092915050565b5f611b2a8284611a9f565b915081905092915050565b5f611b3f826115f4565b611b498185611a83565b9350611b5981856020860161160e565b80840191505092915050565b5f611b708284611b35565b915081905092915050565b5f6020601f8301049050919050565b5f82821b905092915050565b5f60088302611bc57fffffffffffffffffffffffffffffffffffffffffffffffffffffffffffffffff82611b8a565b611bcf8683611b8a565b95508019841693508086168417925050509392505050565b5f819050919050565b5f611c0a611c05611c008461142c565b611be7565b61142c565b9050919050565b5f819050919050565b611c2383611bf0565b611c37611c2f82611c11565b848454611b96565b825550505050565b5f90565b611c4b611c3f565b611c56818484611c1a565b505050565b5b81811015611c7957611c6e5f82611c43565b600181019050611c5c565b5050565b601f821115611cbe57611c8f81611a8d565b611c9884611b7b565b81016020851015611ca7578190505b611cbb611cb385611b7b565b830182611c5b565b50505b505050565b5f82821c905092915050565b5f611cde5f1984600802611cc3565b1980831691505092915050565b5f611cf68383611ccf565b9150826002028217905092915050565b611d0f826115f4565b67ffffffffffffffff811115611d2857611d276110f6565b5b611d328254611908565b611d3d828285611c7d565b5f60209050601f831160018114611d6e575f8415611d5c578287015190505b611d668582611ceb565b865550611dcd565b601f198416611d7c86611a8d565b5f5b82811015611da357848901518255600182019150602085019450602081019050611d7e565b86831015611dc05784890151611dbc601f891682611ccf565b8355505b6001600288020188555050505b50505050505056fea264697066735822122008c73bacd535f25202ad86090b8b3ba4a58492fcbdcf46351caba13c98d2c4e464736f6c634300081a0033",
					"opcodes": "PUSH1 0x80 PUSH1 0x40 MSTORE PUSH7 0xB1A2BC2EC50000 PUSH1 0x5 SSTORE CALLVALUE DUP1 ISZERO PUSH1 0x19 JUMPI PUSH0 DUP1 REVERT JUMPDEST POP CALLER PUSH1 0x4 PUSH0 PUSH2 0x100 EXP DUP2 SLOAD DUP2 PUSH20 0xFFFFFFFFFFFFFFFFFFFFFFFFFFFFFFFFFFFFFFFF MUL NOT AND SWAP1 DUP4 PUSH20 0xFFFFFFFFFFFFFFFFFFFFFFFFFFFFFFFFFFFFFFFF AND MUL OR SWAP1 SSTORE POP PUSH2 0x1E0B DUP1 PUSH2 0x67 PUSH0 CODECOPY PUSH0 RETURN INVALID PUSH1 0x80 PUSH1 0x40 MSTORE PUSH1 0x4 CALLDATASIZE LT PUSH2 0x9F JUMPI PUSH0 CALLDATALOAD PUSH1 0xE0 SHR DUP1 PUSH4 0x8DA5CB5B GT PUSH2 0x63 JUMPI DUP1 PUSH4 0x8DA5CB5B EQ PUSH2 0x168 JUMPI DUP1 PUSH4 0xB30906D4 EQ PUSH2 0x192 JUMPI DUP1 PUSH4 0xBAE78D7B EQ PUSH2 0x1CE JUMPI DUP1 PUSH4 0xC1099656 EQ PUSH2 0x20C JUMPI DUP1 PUSH4 0xD09685B0 EQ PUSH2 0x248 JUMPI DUP1 PUSH4 0xE2C41DBC EQ PUSH2 0x272 JUMPI PUSH2 0xA6 JUMP JUMPDEST DUP1 PUSH4 0x10B6E482 EQ PUSH2 0xA8 JUMPI DUP1 PUSH4 0x1209B1F6 EQ PUSH2 0xD0 JUMPI DUP1 PUSH4 0x4E45F095 EQ PUSH2 0xFA JUMPI DUP1 PUSH4 0x7CE52EB6 EQ PUSH2 0x136 JUMPI DUP1 PUSH4 0x8BAAE14C EQ PUSH2 0x14C JUMPI PUSH2 0xA6 JUMP JUMPDEST CALLDATASIZE PUSH2 0xA6 JUMPI STOP JUMPDEST STOP JUMPDEST CALLVALUE DUP1 ISZERO PUSH2 0xB3 JUMPI PUSH0 DUP1 REVERT JUMPDEST POP PUSH2 0xCE PUSH1 0x4 DUP1 CALLDATASIZE SUB DUP2 ADD SWAP1 PUSH2 0xC9 SWAP2 SWAP1 PUSH2 0x13D2 JUMP JUMPDEST PUSH2 0x27C JUMP JUMPDEST STOP JUMPDEST CALLVALUE DUP1 ISZERO PUSH2 0xDB JUMPI PUSH0 DUP1 REVERT JUMPDEST POP PUSH2 0xE4 PUSH2 0x36C JUMP JUMPDEST PUSH1 0x40 MLOAD PUSH2 0xF1 SWAP2 SWAP1 PUSH2 0x1444 JUMP JUMPDEST PUSH1 0x40 MLOAD DUP1 SWAP2 SUB SWAP1 RETURN JUMPDEST CALLVALUE DUP1 ISZERO PUSH2 0x105 JUMPI PUSH0 DUP1 REVERT JUMPDEST POP PUSH2 0x120 PUSH1 0x4 DUP1 CALLDATASIZE SUB DUP2 ADD SWAP1 PUSH2 0x11B SWAP2 SWAP1 PUSH2 0x1487 JUMP JUMPDEST PUSH2 0x372 JUMP JUMPDEST PUSH1 0x40 MLOAD PUSH2 0x12D SWAP2 SWAP1 PUSH2 0x14C1 JUMP JUMPDEST PUSH1 0x40 MLOAD DUP1 SWAP2 SUB SWAP1 RETURN JUMPDEST CALLVALUE DUP1 ISZERO PUSH2 0x141 JUMPI PUSH0 DUP1 REVERT JUMPDEST POP PUSH2 0x14A PUSH2 0x39B JUMP JUMPDEST STOP JUMPDEST PUSH2 0x166 PUSH1 0x4 DUP1 CALLDATASIZE SUB DUP2 ADD SWAP1 PUSH2 0x161 SWAP2 SWAP1 PUSH2 0x13D2 JUMP JUMPDEST PUSH2 0x81F JUMP JUMPDEST STOP JUMPDEST CALLVALUE DUP1 ISZERO PUSH2 0x173 JUMPI PUSH0 DUP1 REVERT JUMPDEST POP PUSH2 0x17C PUSH2 0x985 JUMP JUMPDEST PUSH1 0x40 MLOAD PUSH2 0x189 SWAP2 SWAP1 PUSH2 0x1519 JUMP JUMPDEST PUSH1 0x40 MLOAD DUP1 SWAP2 SUB SWAP1 RETURN JUMPDEST CALLVALUE DUP1 ISZERO PUSH2 0x19D JUMPI PUSH0 DUP1 REVERT JUMPDEST POP PUSH2 0x1B8 PUSH1 0x4 DUP1 CALLDATASIZE SUB DUP2 ADD SWAP1 PUSH2 0x1B3 SWAP2 SWAP1 PUSH2 0x1487 JUMP JUMPDEST PUSH2 0x9AA JUMP JUMPDEST PUSH1 0x40 MLOAD PUSH2 0x1C5 SWAP2 SWAP1 PUSH2 0x1519 JUMP JUMPDEST PUSH1 0x40 MLOAD DUP1 SWAP2 SUB SWAP1 RETURN JUMPDEST CALLVALUE DUP1 ISZERO PUSH2 0x1D9 JUMPI PUSH0 DUP1 REVERT JUMPDEST POP PUSH2 0x1F4 PUSH1 0x4 DUP1 CALLDATASIZE SUB DUP2 ADD SWAP1 PUSH2 0x1EF SWAP2 SWAP1 PUSH2 0x1487 JUMP JUMPDEST PUSH2 0x9F2 JUMP JUMPDEST PUSH1 0x40 MLOAD PUSH2 0x203 SWAP4 SWAP3 SWAP2 SWAP1 PUSH2 0x16E6 JUMP JUMPDEST PUSH1 0x40 MLOAD DUP1 SWAP2 SUB SWAP1 RETURN JUMPDEST CALLVALUE DUP1 ISZERO PUSH2 0x217 JUMPI PUSH0 DUP1 REVERT JUMPDEST POP PUSH2 0x232 PUSH1 0x4 DUP1 CALLDATASIZE SUB DUP2 ADD SWAP1 PUSH2 0x22D SWAP2 SWAP1 PUSH2 0x1487 JUMP JUMPDEST PUSH2 0xB7F JUMP JUMPDEST PUSH1 0x40 MLOAD PUSH2 0x23F SWAP2 SWAP1 PUSH2 0x176A JUMP JUMPDEST PUSH1 0x40 MLOAD DUP1 SWAP2 SUB SWAP1 RETURN JUMPDEST CALLVALUE DUP1 ISZERO PUSH2 0x253 JUMPI PUSH0 DUP1 REVERT JUMPDEST POP PUSH2 0x25C PUSH2 0xC1E JUMP JUMPDEST PUSH1 0x40 MLOAD PUSH2 0x269 SWAP2 SWAP1 PUSH2 0x1444 JUMP JUMPDEST PUSH1 0x40 MLOAD DUP1 SWAP2 SUB SWAP1 RETURN JUMPDEST PUSH2 0x27A PUSH2 0xC29 JUMP JUMPDEST STOP JUMPDEST PUSH1 0x4 PUSH0 SWAP1 SLOAD SWAP1 PUSH2 0x100 EXP SWAP1 DIV PUSH20 0xFFFFFFFFFFFFFFFFFFFFFFFFFFFFFFFFFFFFFFFF AND PUSH20 0xFFFFFFFFFFFFFFFFFFFFFFFFFFFFFFFFFFFFFFFF AND CALLER PUSH20 0xFFFFFFFFFFFFFFFFFFFFFFFFFFFFFFFFFFFFFFFF AND EQ PUSH2 0x30B JUMPI PUSH1 0x40 MLOAD PUSH32 0x8C379A000000000000000000000000000000000000000000000000000000000 DUP2 MSTORE PUSH1 0x4 ADD PUSH2 0x302 SWAP1 PUSH2 0x17FA JUMP JUMPDEST PUSH1 0x40 MLOAD DUP1 SWAP2 SUB SWAP1 REVERT JUMPDEST DUP2 PUSH1 0x1 SWAP1 PUSH1 0x4 PUSH2 0x31C SWAP3 SWAP2 SWAP1 PUSH2 0xE8A JUMP JUMPDEST POP DUP1 PUSH1 0x2 SWAP1 PUSH1 0x2 PUSH2 0x32E SWAP3 SWAP2 SWAP1 PUSH2 0xF21 JUMP JUMPDEST POP PUSH32 0x36EAF57B62A30FCE504114C11BF31C26F49BB0842743F4E796177F4BB6BB8FB DUP3 DUP3 PUSH1 0x40 MLOAD PUSH2 0x360 SWAP3 SWAP2 SWAP1 PUSH2 0x1818 JUMP JUMPDEST PUSH1 0x40 MLOAD DUP1 SWAP2 SUB SWAP1 LOG1 POP POP JUMP JUMPDEST PUSH1 0x5 SLOAD DUP2 JUMP JUMPDEST PUSH1 0x1 DUP2 PUSH1 0x4 DUP2 LT PUSH2 0x381 JUMPI PUSH0 DUP1 REVERT JUMPDEST PUSH1 0x20 SWAP2 DUP3 DUP3 DIV ADD SWAP2 SWAP1 MOD SWAP2 POP SLOAD SWAP1 PUSH2 0x100 EXP SWAP1 DIV PUSH1 0xFF AND DUP2 JUMP JUMPDEST PUSH1 0x4 PUSH0 SWAP1 SLOAD SWAP1 PUSH2 0x100 EXP SWAP1 DIV PUSH20 0xFFFFFFFFFFFFFFFFFFFFFFFFFFFFFFFFFFFFFFFF AND PUSH20 0xFFFFFFFFFFFFFFFFFFFFFFFFFFFFFFFFFFFFFFFF AND CALLER PUSH20 0xFFFFFFFFFFFFFFFFFFFFFFFFFFFFFFFFFFFFFFFF AND EQ PUSH2 0x42A JUMPI PUSH1 0x40 MLOAD PUSH32 0x8C379A000000000000000000000000000000000000000000000000000000000 DUP2 MSTORE PUSH1 0x4 ADD PUSH2 0x421 SWAP1 PUSH2 0x17FA JUMP JUMPDEST PUSH1 0x40 MLOAD DUP1 SWAP2 SUB SWAP1 REVERT JUMPDEST PUSH0 SELFBALANCE SWAP1 POP PUSH0 DUP2 GT PUSH2 0x470 JUMPI PUSH1 0x40 MLOAD PUSH32 0x8C379A000000000000000000000000000000000000000000000000000000000 DUP2 MSTORE PUSH1 0x4 ADD PUSH2 0x467 SWAP1 PUSH2 0x1890 JUMP JUMPDEST PUSH1 0x40 MLOAD DUP1 SWAP2 SUB SWAP1 REVERT JUMPDEST PUSH0 JUMPDEST PUSH0 DUP1 SLOAD SWAP1 POP DUP2 LT ISZERO PUSH2 0x80F JUMPI PUSH0 PUSH2 0x632 PUSH0 DUP4 DUP2 SLOAD DUP2 LT PUSH2 0x495 JUMPI PUSH2 0x494 PUSH2 0x18AE JUMP JUMPDEST JUMPDEST SWAP1 PUSH0 MSTORE PUSH1 0x20 PUSH0 KECCAK256 SWAP1 PUSH1 0x4 MUL ADD PUSH1 0x40 MLOAD DUP1 PUSH1 0x60 ADD PUSH1 0x40 MSTORE SWAP1 DUP2 PUSH0 DUP3 ADD PUSH1 0x4 DUP1 PUSH1 0x20 MUL PUSH1 0x40 MLOAD SWAP1 DUP2 ADD PUSH1 0x40 MSTORE DUP1 SWAP3 SWAP2 SWAP1 DUP3 PUSH1 0x4 DUP1 ISZERO PUSH2 0x50B JUMPI PUSH1 0x20 MUL DUP3 ADD SWAP2 PUSH0 SWAP1 JUMPDEST DUP3 DUP3 SWAP1 SLOAD SWAP1 PUSH2 0x100 EXP SWAP1 DIV PUSH1 0xFF AND PUSH1 0xFF AND DUP2 MSTORE PUSH1 0x20 ADD SWAP1 PUSH1 0x1 ADD SWAP1 PUSH1 0x20 DUP3 PUSH0 ADD DIV SWAP3 DUP4 ADD SWAP3 PUSH1 0x1 SUB DUP3 MUL SWAP2 POP DUP1 DUP5 GT PUSH2 0x4D5 JUMPI SWAP1 POP JUMPDEST POP POP POP POP POP DUP2 MSTORE PUSH1 0x20 ADD PUSH1 0x1 DUP3 ADD PUSH1 0x2 DUP1 PUSH1 0x20 MUL PUSH1 0x40 MLOAD SWAP1 DUP2 ADD PUSH1 0x40 MSTORE DUP1 SWAP3 SWAP2 SWAP1 PUSH0 SWAP1 JUMPDEST DUP3 DUP3 LT ISZERO PUSH2 0x5D0 JUMPI DUP4 DUP3 ADD DUP1 SLOAD PUSH2 0x545 SWAP1 PUSH2 0x1908 JUMP JUMPDEST DUP1 PUSH1 0x1F ADD PUSH1 0x20 DUP1 SWAP2 DIV MUL PUSH1 0x20 ADD PUSH1 0x40 MLOAD SWAP1 DUP2 ADD PUSH1 0x40 MSTORE DUP1 SWAP3 SWAP2 SWAP1 DUP2 DUP2 MSTORE PUSH1 0x20 ADD DUP3 DUP1 SLOAD PUSH2 0x571 SWAP1 PUSH2 0x1908 JUMP JUMPDEST DUP1 ISZERO PUSH2 0x5BC JUMPI DUP1 PUSH1 0x1F LT PUSH2 0x593 JUMPI PUSH2 0x100 DUP1 DUP4 SLOAD DIV MUL DUP4 MSTORE SWAP2 PUSH1 0x20 ADD SWAP2 PUSH2 0x5BC JUMP JUMPDEST DUP3 ADD SWAP2 SWAP1 PUSH0 MSTORE PUSH1 0x20 PUSH0 KECCAK256 SWAP1 JUMPDEST DUP2 SLOAD DUP2 MSTORE SWAP1 PUSH1 0x1 ADD SWAP1 PUSH1 0x20 ADD DUP1 DUP4 GT PUSH2 0x59F JUMPI DUP3 SWAP1 SUB PUSH1 0x1F AND DUP3 ADD SWAP2 JUMPDEST POP POP POP POP POP DUP2 MSTORE PUSH1 0x20 ADD SWAP1 PUSH1 0x1 ADD SWAP1 PUSH2 0x52F JUMP JUMPDEST POP POP POP POP DUP2 MSTORE PUSH1 0x20 ADD PUSH1 0x3 DUP3 ADD PUSH0 SWAP1 SLOAD SWAP1 PUSH2 0x100 EXP SWAP1 DIV PUSH20 0xFFFFFFFFFFFFFFFFFFFFFFFFFFFFFFFFFFFFFFFF AND PUSH20 0xFFFFFFFFFFFFFFFFFFFFFFFFFFFFFFFFFFFFFFFF AND PUSH20 0xFFFFFFFFFFFFFFFFFFFFFFFFFFFFFFFFFFFFFFFF AND DUP2 MSTORE POP POP PUSH2 0xD08 JUMP JUMPDEST SWAP1 POP PUSH0 PUSH1 0x6 DUP3 PUSH1 0xFF AND SUB PUSH2 0x650 JUMPI PUSH8 0xDE0B6B3A7640000 SWAP1 POP PUSH2 0x6A0 JUMP JUMPDEST PUSH1 0x5 DUP3 PUSH1 0xFF AND SUB PUSH2 0x66B JUMPI PUSH8 0xA688906BD8B0000 SWAP1 POP PUSH2 0x69F JUMP JUMPDEST PUSH1 0x4 DUP3 PUSH1 0xFF AND SUB PUSH2 0x686 JUMPI PUSH8 0x3782DACE9D90000 SWAP1 POP PUSH2 0x69E JUMP JUMPDEST PUSH1 0x3 DUP3 PUSH1 0xFF AND SUB PUSH2 0x69D JUMPI PUSH8 0x16345785D8A0000 SWAP1 POP JUMPDEST JUMPDEST JUMPDEST JUMPDEST PUSH0 DUP2 GT ISZERO PUSH2 0x800 JUMPI DUP1 DUP5 LT ISZERO PUSH2 0x6EB JUMPI PUSH1 0x40 MLOAD PUSH32 0x8C379A000000000000000000000000000000000000000000000000000000000 DUP2 MSTORE PUSH1 0x4 ADD PUSH2 0x6E2 SWAP1 PUSH2 0x19A8 JUMP JUMPDEST PUSH1 0x40 MLOAD DUP1 SWAP2 SUB SWAP1 REVERT JUMPDEST PUSH0 DUP4 DUP2 SLOAD DUP2 LT PUSH2 0x6FE JUMPI PUSH2 0x6FD PUSH2 0x18AE JUMP JUMPDEST JUMPDEST SWAP1 PUSH0 MSTORE PUSH1 0x20 PUSH0 KECCAK256 SWAP1 PUSH1 0x4 MUL ADD PUSH1 0x3 ADD PUSH0 SWAP1 SLOAD SWAP1 PUSH2 0x100 EXP SWAP1 DIV PUSH20 0xFFFFFFFFFFFFFFFFFFFFFFFFFFFFFFFFFFFFFFFF AND PUSH20 0xFFFFFFFFFFFFFFFFFFFFFFFFFFFFFFFFFFFFFFFF AND PUSH2 0x8FC DUP3 SWAP1 DUP2 ISZERO MUL SWAP1 PUSH1 0x40 MLOAD PUSH0 PUSH1 0x40 MLOAD DUP1 DUP4 SUB DUP2 DUP6 DUP9 DUP9 CALL SWAP4 POP POP POP POP ISZERO DUP1 ISZERO PUSH2 0x76F JUMPI RETURNDATASIZE PUSH0 DUP1 RETURNDATACOPY RETURNDATASIZE PUSH0 REVERT JUMPDEST POP PUSH0 DUP4 DUP2 SLOAD DUP2 LT PUSH2 0x783 JUMPI PUSH2 0x782 PUSH2 0x18AE JUMP JUMPDEST JUMPDEST SWAP1 PUSH0 MSTORE PUSH1 0x20 PUSH0 KECCAK256 SWAP1 PUSH1 0x4 MUL ADD PUSH1 0x3 ADD PUSH0 SWAP1 SLOAD SWAP1 PUSH2 0x100 EXP SWAP1 DIV PUSH20 0xFFFFFFFFFFFFFFFFFFFFFFFFFFFFFFFFFFFFFFFF AND PUSH20 0xFFFFFFFFFFFFFFFFFFFFFFFFFFFFFFFFFFFFFFFF AND PUSH32 0xB8E091D87F82E56D22276C9A0088EA5D6068E355383DC08B2721B7B6CB10E845 DUP3 PUSH1 0x40 MLOAD PUSH2 0x7F7 SWAP2 SWAP1 PUSH2 0x1444 JUMP JUMPDEST PUSH1 0x40 MLOAD DUP1 SWAP2 SUB SWAP1 LOG2 JUMPDEST POP POP DUP1 DUP1 PUSH1 0x1 ADD SWAP2 POP POP PUSH2 0x472 JUMP JUMPDEST POP PUSH0 DUP1 PUSH2 0x81C SWAP2 SWAP1 PUSH2 0xF6D JUMP JUMPDEST POP JUMP JUMPDEST PUSH1 0x5 SLOAD CALLVALUE EQ PUSH2 0x863 JUMPI PUSH1 0x40 MLOAD PUSH32 0x8C379A000000000000000000000000000000000000000000000000000000000 DUP2 MSTORE PUSH1 0x4 ADD PUSH2 0x85A SWAP1 PUSH2 0x1A10 JUMP JUMPDEST PUSH1 0x40 MLOAD DUP1 SWAP2 SUB SWAP1 REVERT JUMPDEST PUSH0 PUSH1 0x40 MLOAD DUP1 PUSH1 0x60 ADD PUSH1 0x40 MSTORE DUP1 DUP5 DUP2 MSTORE PUSH1 0x20 ADD DUP4 DUP2 MSTORE PUSH1 0x20 ADD CALLER PUSH20 0xFFFFFFFFFFFFFFFFFFFFFFFFFFFFFFFFFFFFFFFF AND DUP2 MSTORE POP SWAP1 DUP1 PUSH1 0x1 DUP2 SLOAD ADD DUP1 DUP3 SSTORE DUP1 SWAP2 POP POP PUSH1 0x1 SWAP1 SUB SWAP1 PUSH0 MSTORE PUSH1 0x20 PUSH0 KECCAK256 SWAP1 PUSH1 0x4 MUL ADD PUSH0 SWAP1 SWAP2 SWAP1 SWAP2 SWAP1 SWAP2 POP PUSH0 DUP3 ADD MLOAD DUP2 PUSH0 ADD SWAP1 PUSH1 0x4 PUSH2 0x8D0 SWAP3 SWAP2 SWAP1 PUSH2 0xE8A JUMP JUMPDEST POP PUSH1 0x20 DUP3 ADD MLOAD DUP2 PUSH1 0x1 ADD SWAP1 PUSH1 0x2 PUSH2 0x8E8 SWAP3 SWAP2 SWAP1 PUSH2 0xF21 JUMP JUMPDEST POP PUSH1 0x40 DUP3 ADD MLOAD DUP2 PUSH1 0x3 ADD PUSH0 PUSH2 0x100 EXP DUP2 SLOAD DUP2 PUSH20 0xFFFFFFFFFFFFFFFFFFFFFFFFFFFFFFFFFFFFFFFF MUL NOT AND SWAP1 DUP4 PUSH20 0xFFFFFFFFFFFFFFFFFFFFFFFFFFFFFFFFFFFFFFFF AND MUL OR SWAP1 SSTORE POP POP POP CALLER PUSH20 0xFFFFFFFFFFFFFFFFFFFFFFFFFFFFFFFFFFFFFFFF AND PUSH32 0x94243A7065B4400927D1B5240CA7DB2A443565E4BDDEF8E585541EA25B644ED6 DUP4 DUP4 PUSH1 0x40 MLOAD PUSH2 0x979 SWAP3 SWAP2 SWAP1 PUSH2 0x1818 JUMP JUMPDEST PUSH1 0x40 MLOAD DUP1 SWAP2 SUB SWAP1 LOG2 POP POP JUMP JUMPDEST PUSH1 0x4 PUSH0 SWAP1 SLOAD SWAP1 PUSH2 0x100 EXP SWAP1 DIV PUSH20 0xFFFFFFFFFFFFFFFFFFFFFFFFFFFFFFFFFFFFFFFF AND DUP2 JUMP JUMPDEST PUSH0 DUP2 DUP2 SLOAD DUP2 LT PUSH2 0x9B8 JUMPI PUSH0 DUP1 REVERT JUMPDEST SWAP1 PUSH0 MSTORE PUSH1 0x20 PUSH0 KECCAK256 SWAP1 PUSH1 0x4 MUL ADD PUSH0 SWAP2 POP SWAP1 POP DUP1 PUSH1 0x3 ADD PUSH0 SWAP1 SLOAD SWAP1 PUSH2 0x100 EXP SWAP1 DIV PUSH20 0xFFFFFFFFFFFFFFFFFFFFFFFFFFFFFFFFFFFFFFFF AND SWAP1 POP DUP2 JUMP JUMPDEST PUSH2 0x9FA PUSH2 0xF8E JUMP JUMPDEST PUSH2 0xA02 PUSH2 0xFB0 JUMP JUMPDEST PUSH0 DUP1 PUSH0 DUP6 DUP2 SLOAD DUP2 LT PUSH2 0xA17 JUMPI PUSH2 0xA16 PUSH2 0x18AE JUMP JUMPDEST JUMPDEST SWAP1 PUSH0 MSTORE PUSH1 0x20 PUSH0 KECCAK256 SWAP1 PUSH1 0x4 MUL ADD SWAP1 POP DUP1 PUSH0 ADD DUP2 PUSH1 0x1 ADD DUP3 PUSH1 0x3 ADD PUSH0 SWAP1 SLOAD SWAP1 PUSH2 0x100 EXP SWAP1 DIV PUSH20 0xFFFFFFFFFFFFFFFFFFFFFFFFFFFFFFFFFFFFFFFF AND DUP3 PUSH1 0x4 DUP1 PUSH1 0x20 MUL PUSH1 0x40 MLOAD SWAP1 DUP2 ADD PUSH1 0x40 MSTORE DUP1 SWAP3 SWAP2 SWAP1 DUP3 PUSH1 0x4 DUP1 ISZERO PUSH2 0xAAC JUMPI PUSH1 0x20 MUL DUP3 ADD SWAP2 PUSH0 SWAP1 JUMPDEST DUP3 DUP3 SWAP1 SLOAD SWAP1 PUSH2 0x100 EXP SWAP1 DIV PUSH1 0xFF AND PUSH1 0xFF AND DUP2 MSTORE PUSH1 0x20 ADD SWAP1 PUSH1 0x1 ADD SWAP1 PUSH1 0x20 DUP3 PUSH0 ADD DIV SWAP3 DUP4 ADD SWAP3 PUSH1 0x1 SUB DUP3 MUL SWAP2 POP DUP1 DUP5 GT PUSH2 0xA76 JUMPI SWAP1 POP JUMPDEST POP POP POP POP POP SWAP3 POP DUP2 PUSH1 0x2 DUP1 PUSH1 0x20 MUL PUSH1 0x40 MLOAD SWAP1 DUP2 ADD PUSH1 0x40 MSTORE DUP1 SWAP3 SWAP2 SWAP1 PUSH0 SWAP1 JUMPDEST DUP3 DUP3 LT ISZERO PUSH2 0xB6B JUMPI DUP4 DUP3 ADD DUP1 SLOAD PUSH2 0xAE0 SWAP1 PUSH2 0x1908 JUMP JUMPDEST DUP1 PUSH1 0x1F ADD PUSH1 0x20 DUP1 SWAP2 DIV MUL PUSH1 0x20 ADD PUSH1 0x40 MLOAD SWAP1 DUP2 ADD PUSH1 0x40 MSTORE DUP1 SWAP3 SWAP2 SWAP1 DUP2 DUP2 MSTORE PUSH1 0x20 ADD DUP3 DUP1 SLOAD PUSH2 0xB0C SWAP1 PUSH2 0x1908 JUMP JUMPDEST DUP1 ISZERO PUSH2 0xB57 JUMPI DUP1 PUSH1 0x1F LT PUSH2 0xB2E JUMPI PUSH2 0x100 DUP1 DUP4 SLOAD DIV MUL DUP4 MSTORE SWAP2 PUSH1 0x20 ADD SWAP2 PUSH2 0xB57 JUMP JUMPDEST DUP3 ADD SWAP2 SWAP1 PUSH0 MSTORE PUSH1 0x20 PUSH0 KECCAK256 SWAP1 JUMPDEST DUP2 SLOAD DUP2 MSTORE SWAP1 PUSH1 0x1 ADD SWAP1 PUSH1 0x20 ADD DUP1 DUP4 GT PUSH2 0xB3A JUMPI DUP3 SWAP1 SUB PUSH1 0x1F AND DUP3 ADD SWAP2 JUMPDEST POP POP POP POP POP DUP2 MSTORE PUSH1 0x20 ADD SWAP1 PUSH1 0x1 ADD SWAP1 PUSH2 0xACA JUMP JUMPDEST POP POP POP POP SWAP2 POP SWAP4 POP SWAP4 POP SWAP4 POP POP SWAP2 SWAP4 SWAP1 SWAP3 POP JUMP JUMPDEST PUSH1 0x2 DUP2 PUSH1 0x2 DUP2 LT PUSH2 0xB8E JUMPI PUSH0 DUP1 REVERT JUMPDEST ADD PUSH0 SWAP2 POP SWAP1 POP DUP1 SLOAD PUSH2 0xB9F SWAP1 PUSH2 0x1908 JUMP JUMPDEST DUP1 PUSH1 0x1F ADD PUSH1 0x20 DUP1 SWAP2 DIV MUL PUSH1 0x20 ADD PUSH1 0x40 MLOAD SWAP1 DUP2 ADD PUSH1 0x40 MSTORE DUP1 SWAP3 SWAP2 SWAP1 DUP2 DUP2 MSTORE PUSH1 0x20 ADD DUP3 DUP1 SLOAD PUSH2 0xBCB SWAP1 PUSH2 0x1908 JUMP JUMPDEST DUP1 ISZERO PUSH2 0xC16 JUMPI DUP1 PUSH1 0x1F LT PUSH2 0xBED JUMPI PUSH2 0x100 DUP1 DUP4 SLOAD DIV MUL DUP4 MSTORE SWAP2 PUSH1 0x20 ADD SWAP2 PUSH2 0xC16 JUMP JUMPDEST DUP3 ADD SWAP2 SWAP1 PUSH0 MSTORE PUSH1 0x20 PUSH0 KECCAK256 SWAP1 JUMPDEST DUP2 SLOAD DUP2 MSTORE SWAP1 PUSH1 0x1 ADD SWAP1 PUSH1 0x20 ADD DUP1 DUP4 GT PUSH2 0xBF9 JUMPI DUP3 SWAP1 SUB PUSH1 0x1F AND DUP3 ADD SWAP2 JUMPDEST POP POP POP POP POP DUP2 JUMP JUMPDEST PUSH0 DUP1 DUP1 SLOAD SWAP1 POP SWAP1 POP SWAP1 JUMP JUMPDEST PUSH1 0x4 PUSH0 SWAP1 SLOAD SWAP1 PUSH2 0x100 EXP SWAP1 DIV PUSH20 0xFFFFFFFFFFFFFFFFFFFFFFFFFFFFFFFFFFFFFFFF AND PUSH20 0xFFFFFFFFFFFFFFFFFFFFFFFFFFFFFFFFFFFFFFFF AND CALLER PUSH20 0xFFFFFFFFFFFFFFFFFFFFFFFFFFFFFFFFFFFFFFFF AND EQ PUSH2 0xCB8 JUMPI PUSH1 0x40 MLOAD PUSH32 0x8C379A000000000000000000000000000000000000000000000000000000000 DUP2 MSTORE PUSH1 0x4 ADD PUSH2 0xCAF SWAP1 PUSH2 0x17FA JUMP JUMPDEST PUSH1 0x40 MLOAD DUP1 SWAP2 SUB SWAP1 REVERT JUMPDEST CALLER PUSH20 0xFFFFFFFFFFFFFFFFFFFFFFFFFFFFFFFFFFFFFFFF AND PUSH32 0x543BA50A5EEC5E6178218E364B1D0F396157B3C8FA278522C2CB7FD99407D474 CALLVALUE PUSH1 0x40 MLOAD PUSH2 0xCFE SWAP2 SWAP1 PUSH2 0x1444 JUMP JUMPDEST PUSH1 0x40 MLOAD DUP1 SWAP2 SUB SWAP1 LOG2 JUMP JUMPDEST PUSH0 DUP1 PUSH0 SWAP1 POP PUSH0 JUMPDEST PUSH1 0x4 DUP2 PUSH1 0xFF AND LT ISZERO PUSH2 0xDAD JUMPI PUSH0 JUMPDEST PUSH1 0x4 DUP2 PUSH1 0xFF AND LT ISZERO PUSH2 0xD9F JUMPI PUSH1 0x1 DUP2 PUSH1 0xFF AND PUSH1 0x4 DUP2 LT PUSH2 0xD40 JUMPI PUSH2 0xD3F PUSH2 0x18AE JUMP JUMPDEST JUMPDEST PUSH1 0x20 SWAP2 DUP3 DUP3 DIV ADD SWAP2 SWAP1 MOD SWAP1 SLOAD SWAP1 PUSH2 0x100 EXP SWAP1 DIV PUSH1 0xFF AND PUSH1 0xFF AND DUP6 PUSH0 ADD MLOAD DUP4 PUSH1 0xFF AND PUSH1 0x4 DUP2 LT PUSH2 0xD72 JUMPI PUSH2 0xD71 PUSH2 0x18AE JUMP JUMPDEST JUMPDEST PUSH1 0x20 MUL ADD MLOAD PUSH1 0xFF AND SUB PUSH2 0xD92 JUMPI DUP3 DUP1 PUSH2 0xD8A SWAP1 PUSH2 0x1A5B JUMP JUMPDEST SWAP4 POP POP PUSH2 0xD9F JUMP JUMPDEST DUP1 DUP1 PUSH1 0x1 ADD SWAP2 POP POP PUSH2 0xD1D JUMP JUMPDEST POP DUP1 DUP1 PUSH1 0x1 ADD SWAP2 POP POP PUSH2 0xD0F JUMP JUMPDEST POP PUSH0 JUMPDEST PUSH1 0x2 DUP2 PUSH1 0xFF AND LT ISZERO PUSH2 0xE80 JUMPI PUSH0 JUMPDEST PUSH1 0x2 DUP2 PUSH1 0xFF AND LT ISZERO PUSH2 0xE72 JUMPI PUSH1 0x2 DUP2 PUSH1 0xFF AND PUSH1 0x2 DUP2 LT PUSH2 0xDE1 JUMPI PUSH2 0xDE0 PUSH2 0x18AE JUMP JUMPDEST JUMPDEST ADD PUSH1 0x40 MLOAD PUSH1 0x20 ADD PUSH2 0xDF2 SWAP2 SWAP1 PUSH2 0x1B1F JUMP JUMPDEST PUSH1 0x40 MLOAD PUSH1 0x20 DUP2 DUP4 SUB SUB DUP2 MSTORE SWAP1 PUSH1 0x40 MSTORE DUP1 MLOAD SWAP1 PUSH1 0x20 ADD KECCAK256 DUP6 PUSH1 0x20 ADD MLOAD DUP4 PUSH1 0xFF AND PUSH1 0x2 DUP2 LT PUSH2 0xE22 JUMPI PUSH2 0xE21 PUSH2 0x18AE JUMP JUMPDEST JUMPDEST PUSH1 0x20 MUL ADD MLOAD PUSH1 0x40 MLOAD PUSH1 0x20 ADD PUSH2 0xE37 SWAP2 SWAP1 PUSH2 0x1B65 JUMP JUMPDEST PUSH1 0x40 MLOAD PUSH1 0x20 DUP2 DUP4 SUB SUB DUP2 MSTORE SWAP1 PUSH1 0x40 MSTORE DUP1 MLOAD SWAP1 PUSH1 0x20 ADD KECCAK256 SUB PUSH2 0xE65 JUMPI DUP3 DUP1 PUSH2 0xE5D SWAP1 PUSH2 0x1A5B JUMP JUMPDEST SWAP4 POP POP PUSH2 0xE72 JUMP JUMPDEST DUP1 DUP1 PUSH1 0x1 ADD SWAP2 POP POP PUSH2 0xDBE JUMP JUMPDEST POP DUP1 DUP1 PUSH1 0x1 ADD SWAP2 POP POP PUSH2 0xDB0 JUMP JUMPDEST POP DUP1 SWAP2 POP POP SWAP2 SWAP1 POP JUMP JUMPDEST DUP3 PUSH1 0x4 PUSH1 0x1F ADD PUSH1 0x20 SWAP1 DIV DUP2 ADD SWAP3 DUP3 ISZERO PUSH2 0xF10 JUMPI SWAP2 PUSH1 0x20 MUL DUP3 ADD PUSH0 JUMPDEST DUP4 DUP3 GT ISZERO PUSH2 0xEE2 JUMPI DUP4 MLOAD DUP4 DUP3 PUSH2 0x100 EXP DUP2 SLOAD DUP2 PUSH1 0xFF MUL NOT AND SWAP1 DUP4 PUSH1 0xFF AND MUL OR SWAP1 SSTORE POP SWAP3 PUSH1 0x20 ADD SWAP3 PUSH1 0x1 ADD PUSH1 0x20 DUP2 PUSH0 ADD DIV SWAP3 DUP4 ADD SWAP3 PUSH1 0x1 SUB MUL PUSH2 0xEA5 JUMP JUMPDEST DUP1 ISZERO PUSH2 0xF0E JUMPI DUP3 DUP2 PUSH2 0x100 EXP DUP2 SLOAD SWAP1 PUSH1 0xFF MUL NOT AND SWAP1 SSTORE PUSH1 0x1 ADD PUSH1 0x20 DUP2 PUSH0 ADD DIV SWAP3 DUP4 ADD SWAP3 PUSH1 0x1 SUB MUL PUSH2 0xEE2 JUMP JUMPDEST POP JUMPDEST POP SWAP1 POP PUSH2 0xF1D SWAP2 SWAP1 PUSH2 0xFD7 JUMP JUMPDEST POP SWAP1 JUMP JUMPDEST DUP3 PUSH1 0x2 DUP2 ADD SWAP3 DUP3 ISZERO PUSH2 0xF5C JUMPI SWAP2 PUSH1 0x20 MUL DUP3 ADD JUMPDEST DUP3 DUP2 GT ISZERO PUSH2 0xF5B JUMPI DUP3 MLOAD DUP3 SWAP1 DUP2 PUSH2 0xF4B SWAP2 SWAP1 PUSH2 0x1D06 JUMP JUMPDEST POP SWAP2 PUSH1 0x20 ADD SWAP2 SWAP1 PUSH1 0x1 ADD SWAP1 PUSH2 0xF34 JUMP JUMPDEST JUMPDEST POP SWAP1 POP PUSH2 0xF69 SWAP2 SWAP1 PUSH2 0xFF2 JUMP JUMPDEST POP SWAP1 JUMP JUMPDEST POP DUP1 SLOAD PUSH0 DUP3 SSTORE PUSH1 0x4 MUL SWAP1 PUSH0 MSTORE PUSH1 0x20 PUSH0 KECCAK256 SWAP1 DUP2 ADD SWAP1 PUSH2 0xF8B SWAP2 SWAP1 PUSH2 0x1015 JUMP JUMPDEST POP JUMP JUMPDEST PUSH1 0x40 MLOAD DUP1 PUSH1 0x80 ADD PUSH1 0x40 MSTORE DUP1 PUSH1 0x4 SWAP1 PUSH1 0x20 DUP3 MUL DUP1 CALLDATASIZE DUP4 CALLDATACOPY DUP1 DUP3 ADD SWAP2 POP POP SWAP1 POP POP SWAP1 JUMP JUMPDEST PUSH1 0x40 MLOAD DUP1 PUSH1 0x40 ADD PUSH1 0x40 MSTORE DUP1 PUSH1 0x2 SWAP1 JUMPDEST PUSH1 0x60 DUP2 MSTORE PUSH1 0x20 ADD SWAP1 PUSH1 0x1 SWAP1 SUB SWAP1 DUP2 PUSH2 0xFBF JUMPI SWAP1 POP POP SWAP1 JUMP JUMPDEST JUMPDEST DUP1 DUP3 GT ISZERO PUSH2 0xFEE JUMPI PUSH0 DUP2 PUSH0 SWAP1 SSTORE POP PUSH1 0x1 ADD PUSH2 0xFD8 JUMP JUMPDEST POP SWAP1 JUMP JUMPDEST JUMPDEST DUP1 DUP3 GT ISZERO PUSH2 0x1011 JUMPI PUSH0 DUP2 DUP2 PUSH2 0x1008 SWAP2 SWAP1 PUSH2 0x106F JUMP JUMPDEST POP PUSH1 0x1 ADD PUSH2 0xFF3 JUMP JUMPDEST POP SWAP1 JUMP JUMPDEST JUMPDEST DUP1 DUP3 GT ISZERO PUSH2 0x106B JUMPI PUSH0 DUP1 DUP3 ADD PUSH0 PUSH2 0x102D SWAP2 SWAP1 PUSH2 0x10AC JUMP JUMPDEST PUSH1 0x1 DUP3 ADD PUSH0 PUSH2 0x103C SWAP2 SWAP1 PUSH2 0x10B2 JUMP JUMPDEST PUSH1 0x3 DUP3 ADD PUSH0 PUSH2 0x100 EXP DUP2 SLOAD SWAP1 PUSH20 0xFFFFFFFFFFFFFFFFFFFFFFFFFFFFFFFFFFFFFFFF MUL NOT AND SWAP1 SSTORE POP PUSH1 0x4 ADD PUSH2 0x1016 JUMP JUMPDEST POP SWAP1 JUMP JUMPDEST POP DUP1 SLOAD PUSH2 0x107B SWAP1 PUSH2 0x1908 JUMP JUMPDEST PUSH0 DUP3 SSTORE DUP1 PUSH1 0x1F LT PUSH2 0x108C JUMPI POP PUSH2 0x10A9 JUMP JUMPDEST PUSH1 0x1F ADD PUSH1 0x20 SWAP1 DIV SWAP1 PUSH0 MSTORE PUSH1 0x20 PUSH0 KECCAK256 SWAP1 DUP2 ADD SWAP1 PUSH2 0x10A8 SWAP2 SWAP1 PUSH2 0xFD7 JUMP JUMPDEST JUMPDEST POP JUMP JUMPDEST POP PUSH0 SWAP1 SSTORE JUMP JUMPDEST POP PUSH0 DUP2 DUP2 PUSH2 0x10C0 SWAP2 SWAP1 PUSH2 0x106F JUMP JUMPDEST POP PUSH1 0x1 ADD PUSH0 PUSH2 0x10CF SWAP2 SWAP1 PUSH2 0x106F JUMP JUMPDEST JUMP JUMPDEST PUSH0 PUSH1 0x40 MLOAD SWAP1 POP SWAP1 JUMP JUMPDEST PUSH0 DUP1 REVERT JUMPDEST PUSH0 DUP1 REVERT JUMPDEST PUSH0 DUP1 REVERT JUMPDEST PUSH0 PUSH1 0x1F NOT PUSH1 0x1F DUP4 ADD AND SWAP1 POP SWAP2 SWAP1 POP JUMP JUMPDEST PUSH32 0x4E487B7100000000000000000000000000000000000000000000000000000000 PUSH0 MSTORE PUSH1 0x41 PUSH1 0x4 MSTORE PUSH1 0x24 PUSH0 REVERT JUMPDEST PUSH2 0x112C DUP3 PUSH2 0x10E6 JUMP JUMPDEST DUP2 ADD DUP2 DUP2 LT PUSH8 0xFFFFFFFFFFFFFFFF DUP3 GT OR ISZERO PUSH2 0x114B JUMPI PUSH2 0x114A PUSH2 0x10F6 JUMP JUMPDEST JUMPDEST DUP1 PUSH1 0x40 MSTORE POP POP POP JUMP JUMPDEST PUSH0 PUSH2 0x115D PUSH2 0x10D1 JUMP JUMPDEST SWAP1 POP PUSH2 0x1169 DUP3 DUP3 PUSH2 0x1123 JUMP JUMPDEST SWAP2 SWAP1 POP JUMP JUMPDEST PUSH0 PUSH8 0xFFFFFFFFFFFFFFFF DUP3 GT ISZERO PUSH2 0x1188 JUMPI PUSH2 0x1187 PUSH2 0x10F6 JUMP JUMPDEST JUMPDEST PUSH1 0x20 DUP3 MUL SWAP1 POP SWAP2 SWAP1 POP JUMP JUMPDEST PUSH0 DUP1 REVERT JUMPDEST PUSH0 PUSH1 0xFF DUP3 AND SWAP1 POP SWAP2 SWAP1 POP JUMP JUMPDEST PUSH2 0x11AC DUP2 PUSH2 0x1197 JUMP JUMPDEST DUP2 EQ PUSH2 0x11B6 JUMPI PUSH0 DUP1 REVERT JUMPDEST POP JUMP JUMPDEST PUSH0 DUP2 CALLDATALOAD SWAP1 POP PUSH2 0x11C7 DUP2 PUSH2 0x11A3 JUMP JUMPDEST SWAP3 SWAP2 POP POP JUMP JUMPDEST PUSH0 PUSH2 0x11DF PUSH2 0x11DA DUP5 PUSH2 0x116E JUMP JUMPDEST PUSH2 0x1154 JUMP JUMPDEST SWAP1 POP DUP1 PUSH1 0x20 DUP5 MUL DUP4 ADD DUP6 DUP2 GT ISZERO PUSH2 0x11F9 JUMPI PUSH2 0x11F8 PUSH2 0x1193 JUMP JUMPDEST JUMPDEST DUP4 JUMPDEST DUP2 DUP2 LT ISZERO PUSH2 0x1222 JUMPI DUP1 PUSH2 0x120E DUP9 DUP3 PUSH2 0x11B9 JUMP JUMPDEST DUP5 MSTORE PUSH1 0x20 DUP5 ADD SWAP4 POP POP PUSH1 0x20 DUP2 ADD SWAP1 POP PUSH2 0x11FB JUMP JUMPDEST POP POP POP SWAP4 SWAP3 POP POP POP JUMP JUMPDEST PUSH0 DUP3 PUSH1 0x1F DUP4 ADD SLT PUSH2 0x1240 JUMPI PUSH2 0x123F PUSH2 0x10E2 JUMP JUMPDEST JUMPDEST PUSH1 0x4 PUSH2 0x124D DUP5 DUP3 DUP6 PUSH2 0x11CD JUMP JUMPDEST SWAP2 POP POP SWAP3 SWAP2 POP POP JUMP JUMPDEST PUSH0 PUSH8 0xFFFFFFFFFFFFFFFF DUP3 GT ISZERO PUSH2 0x1270 JUMPI PUSH2 0x126F PUSH2 0x10F6 JUMP JUMPDEST JUMPDEST PUSH1 0x20 DUP3 MUL SWAP1 POP SWAP2 SWAP1 POP JUMP JUMPDEST PUSH0 DUP1 REVERT JUMPDEST PUSH0 PUSH8 0xFFFFFFFFFFFFFFFF DUP3 GT ISZERO PUSH2 0x1299 JUMPI PUSH2 0x1298 PUSH2 0x10F6 JUMP JUMPDEST JUMPDEST PUSH2 0x12A2 DUP3 PUSH2 0x10E6 JUMP JUMPDEST SWAP1 POP PUSH1 0x20 DUP2 ADD SWAP1 POP SWAP2 SWAP1 POP JUMP JUMPDEST DUP3 DUP2 DUP4 CALLDATACOPY PUSH0 DUP4 DUP4 ADD MSTORE POP POP POP JUMP JUMPDEST PUSH0 PUSH2 0x12CF PUSH2 0x12CA DUP5 PUSH2 0x127F JUMP JUMPDEST PUSH2 0x1154 JUMP JUMPDEST SWAP1 POP DUP3 DUP2 MSTORE PUSH1 0x20 DUP2 ADD DUP5 DUP5 DUP5 ADD GT ISZERO PUSH2 0x12EB JUMPI PUSH2 0x12EA PUSH2 0x127B JUMP JUMPDEST JUMPDEST PUSH2 0x12F6 DUP5 DUP3 DUP6 PUSH2 0x12AF JUMP JUMPDEST POP SWAP4 SWAP3 POP POP POP JUMP JUMPDEST PUSH0 DUP3 PUSH1 0x1F DUP4 ADD SLT PUSH2 0x1312 JUMPI PUSH2 0x1311 PUSH2 0x10E2 JUMP JUMPDEST JUMPDEST DUP2 CALLDATALOAD PUSH2 0x1322 DUP5 DUP3 PUSH1 0x20 DUP7 ADD PUSH2 0x12BD JUMP JUMPDEST SWAP2 POP POP SWAP3 SWAP2 POP POP JUMP JUMPDEST PUSH0 PUSH2 0x133D PUSH2 0x1338 DUP5 PUSH2 0x1256 JUMP JUMPDEST PUSH2 0x1154 JUMP JUMPDEST SWAP1 POP DUP1 PUSH1 0x20 DUP5 MUL DUP4 ADD DUP6 DUP2 GT ISZERO PUSH2 0x1357 JUMPI PUSH2 0x1356 PUSH2 0x1193 JUMP JUMPDEST JUMPDEST DUP4 JUMPDEST DUP2 DUP2 LT ISZERO PUSH2 0x139E JUMPI DUP1 CALLDATALOAD PUSH8 0xFFFFFFFFFFFFFFFF DUP2 GT ISZERO PUSH2 0x137C JUMPI PUSH2 0x137B PUSH2 0x10E2 JUMP JUMPDEST JUMPDEST DUP1 DUP7 ADD PUSH2 0x1389 DUP10 DUP3 PUSH2 0x12FE JUMP JUMPDEST DUP6 MSTORE PUSH1 0x20 DUP6 ADD SWAP5 POP POP POP PUSH1 0x20 DUP2 ADD SWAP1 POP PUSH2 0x1359 JUMP JUMPDEST POP POP POP SWAP4 SWAP3 POP POP POP JUMP JUMPDEST PUSH0 DUP3 PUSH1 0x1F DUP4 ADD SLT PUSH2 0x13BC JUMPI PUSH2 0x13BB PUSH2 0x10E2 JUMP JUMPDEST JUMPDEST PUSH1 0x2 PUSH2 0x13C9 DUP5 DUP3 DUP6 PUSH2 0x132B JUMP JUMPDEST SWAP2 POP POP SWAP3 SWAP2 POP POP JUMP JUMPDEST PUSH0 DUP1 PUSH1 0xA0 DUP4 DUP6 SUB SLT ISZERO PUSH2 0x13E8 JUMPI PUSH2 0x13E7 PUSH2 0x10DA JUMP JUMPDEST JUMPDEST PUSH0 PUSH2 0x13F5 DUP6 DUP3 DUP7 ADD PUSH2 0x122C JUMP JUMPDEST SWAP3 POP POP PUSH1 0x80 DUP4 ADD CALLDATALOAD PUSH8 0xFFFFFFFFFFFFFFFF DUP2 GT ISZERO PUSH2 0x1416 JUMPI PUSH2 0x1415 PUSH2 0x10DE JUMP JUMPDEST JUMPDEST PUSH2 0x1422 DUP6 DUP3 DUP7 ADD PUSH2 0x13A8 JUMP JUMPDEST SWAP2 POP POP SWAP3 POP SWAP3 SWAP1 POP JUMP JUMPDEST PUSH0 DUP2 SWAP1 POP SWAP2 SWAP1 POP JUMP JUMPDEST PUSH2 0x143E DUP2 PUSH2 0x142C JUMP JUMPDEST DUP3 MSTORE POP POP JUMP JUMPDEST PUSH0 PUSH1 0x20 DUP3 ADD SWAP1 POP PUSH2 0x1457 PUSH0 DUP4 ADD DUP5 PUSH2 0x1435 JUMP JUMPDEST SWAP3 SWAP2 POP POP JUMP JUMPDEST PUSH2 0x1466 DUP2 PUSH2 0x142C JUMP JUMPDEST DUP2 EQ PUSH2 0x1470 JUMPI PUSH0 DUP1 REVERT JUMPDEST POP JUMP JUMPDEST PUSH0 DUP2 CALLDATALOAD SWAP1 POP PUSH2 0x1481 DUP2 PUSH2 0x145D JUMP JUMPDEST SWAP3 SWAP2 POP POP JUMP JUMPDEST PUSH0 PUSH1 0x20 DUP3 DUP5 SUB SLT ISZERO PUSH2 0x149C JUMPI PUSH2 0x149B PUSH2 0x10DA JUMP JUMPDEST JUMPDEST PUSH0 PUSH2 0x14A9 DUP5 DUP3 DUP6 ADD PUSH2 0x1473 JUMP JUMPDEST SWAP2 POP POP SWAP3 SWAP2 POP POP JUMP JUMPDEST PUSH2 0x14BB DUP2 PUSH2 0x1197 JUMP JUMPDEST DUP3 MSTORE POP POP JUMP JUMPDEST PUSH0 PUSH1 0x20 DUP3 ADD SWAP1 POP PUSH2 0x14D4 PUSH0 DUP4 ADD DUP5 PUSH2 0x14B2 JUMP JUMPDEST SWAP3 SWAP2 POP POP JUMP JUMPDEST PUSH0 PUSH20 0xFFFFFFFFFFFFFFFFFFFFFFFFFFFFFFFFFFFFFFFF DUP3 AND SWAP1 POP SWAP2 SWAP1 POP JUMP JUMPDEST PUSH0 PUSH2 0x1503 DUP3 PUSH2 0x14DA JUMP JUMPDEST SWAP1 POP SWAP2 SWAP1 POP JUMP JUMPDEST PUSH2 0x1513 DUP2 PUSH2 0x14F9 JUMP JUMPDEST DUP3 MSTORE POP POP JUMP JUMPDEST PUSH0 PUSH1 0x20 DUP3 ADD SWAP1 POP PUSH2 0x152C PUSH0 DUP4 ADD DUP5 PUSH2 0x150A JUMP JUMPDEST SWAP3 SWAP2 POP POP JUMP JUMPDEST PUSH0 PUSH1 0x4 SWAP1 POP SWAP2 SWAP1 POP JUMP JUMPDEST PUSH0 DUP2 SWAP1 POP SWAP3 SWAP2 POP POP JUMP JUMPDEST PUSH0 DUP2 SWAP1 POP SWAP2 SWAP1 POP JUMP JUMPDEST PUSH2 0x1558 DUP2 PUSH2 0x1197 JUMP JUMPDEST DUP3 MSTORE POP POP JUMP JUMPDEST PUSH0 PUSH2 0x1569 DUP4 DUP4 PUSH2 0x154F JUMP JUMPDEST PUSH1 0x20 DUP4 ADD SWAP1 POP SWAP3 SWAP2 POP POP JUMP JUMPDEST PUSH0 PUSH1 0x20 DUP3 ADD SWAP1 POP SWAP2 SWAP1 POP JUMP JUMPDEST PUSH2 0x158A DUP2 PUSH2 0x1532 JUMP JUMPDEST PUSH2 0x1594 DUP2 DUP5 PUSH2 0x153C JUMP JUMPDEST SWAP3 POP PUSH2 0x159F DUP3 PUSH2 0x1546 JUMP JUMPDEST DUP1 PUSH0 JUMPDEST DUP4 DUP2 LT ISZERO PUSH2 0x15CF JUMPI DUP2 MLOAD PUSH2 0x15B6 DUP8 DUP3 PUSH2 0x155E JUMP JUMPDEST SWAP7 POP PUSH2 0x15C1 DUP4 PUSH2 0x1575 JUMP JUMPDEST SWAP3 POP POP PUSH1 0x1 DUP2 ADD SWAP1 POP PUSH2 0x15A2 JUMP JUMPDEST POP POP POP POP POP POP JUMP JUMPDEST PUSH0 PUSH1 0x2 SWAP1 POP SWAP2 SWAP1 POP JUMP JUMPDEST PUSH0 DUP2 SWAP1 POP SWAP3 SWAP2 POP POP JUMP JUMPDEST PUSH0 DUP2 SWAP1 POP SWAP2 SWAP1 POP JUMP JUMPDEST PUSH0 DUP2 MLOAD SWAP1 POP SWAP2 SWAP1 POP JUMP JUMPDEST PUSH0 DUP3 DUP3 MSTORE PUSH1 0x20 DUP3 ADD SWAP1 POP SWAP3 SWAP2 POP POP JUMP JUMPDEST DUP3 DUP2 DUP4 MCOPY PUSH0 DUP4 DUP4 ADD MSTORE POP POP POP JUMP JUMPDEST PUSH0 PUSH2 0x1626 DUP3 PUSH2 0x15F4 JUMP JUMPDEST PUSH2 0x1630 DUP2 DUP6 PUSH2 0x15FE JUMP JUMPDEST SWAP4 POP PUSH2 0x1640 DUP2 DUP6 PUSH1 0x20 DUP7 ADD PUSH2 0x160E JUMP JUMPDEST PUSH2 0x1649 DUP2 PUSH2 0x10E6 JUMP JUMPDEST DUP5 ADD SWAP2 POP POP SWAP3 SWAP2 POP POP JUMP JUMPDEST PUSH0 PUSH2 0x165F DUP4 DUP4 PUSH2 0x161C JUMP JUMPDEST SWAP1 POP SWAP3 SWAP2 POP POP JUMP JUMPDEST PUSH0 PUSH1 0x20 DUP3 ADD SWAP1 POP SWAP2 SWAP1 POP JUMP JUMPDEST PUSH0 PUSH2 0x167D DUP3 PUSH2 0x15D7 JUMP JUMPDEST PUSH2 0x1687 DUP2 DUP6 PUSH2 0x15E1 JUMP JUMPDEST SWAP4 POP DUP4 PUSH1 0x20 DUP3 MUL DUP6 ADD PUSH2 0x1699 DUP6 PUSH2 0x15EB JUMP JUMPDEST DUP1 PUSH0 JUMPDEST DUP6 DUP2 LT ISZERO PUSH2 0x16D4 JUMPI DUP5 DUP5 SUB DUP10 MSTORE DUP2 MLOAD PUSH2 0x16B5 DUP6 DUP3 PUSH2 0x1654 JUMP JUMPDEST SWAP5 POP PUSH2 0x16C0 DUP4 PUSH2 0x1667 JUMP JUMPDEST SWAP3 POP PUSH1 0x20 DUP11 ADD SWAP10 POP POP PUSH1 0x1 DUP2 ADD SWAP1 POP PUSH2 0x169C JUMP JUMPDEST POP DUP3 SWAP8 POP DUP8 SWAP6 POP POP POP POP POP POP SWAP3 SWAP2 POP POP JUMP JUMPDEST PUSH0 PUSH1 0xC0 DUP3 ADD SWAP1 POP PUSH2 0x16F9 PUSH0 DUP4 ADD DUP7 PUSH2 0x1581 JUMP JUMPDEST DUP2 DUP2 SUB PUSH1 0x80 DUP4 ADD MSTORE PUSH2 0x170B DUP2 DUP6 PUSH2 0x1673 JUMP JUMPDEST SWAP1 POP PUSH2 0x171A PUSH1 0xA0 DUP4 ADD DUP5 PUSH2 0x150A JUMP JUMPDEST SWAP5 SWAP4 POP POP POP POP JUMP JUMPDEST PUSH0 DUP3 DUP3 MSTORE PUSH1 0x20 DUP3 ADD SWAP1 POP SWAP3 SWAP2 POP POP JUMP JUMPDEST PUSH0 PUSH2 0x173C DUP3 PUSH2 0x15F4 JUMP JUMPDEST PUSH2 0x1746 DUP2 DUP6 PUSH2 0x1722 JUMP JUMPDEST SWAP4 POP PUSH2 0x1756 DUP2 DUP6 PUSH1 0x20 DUP7 ADD PUSH2 0x160E JUMP JUMPDEST PUSH2 0x175F DUP2 PUSH2 0x10E6 JUMP JUMPDEST DUP5 ADD SWAP2 POP POP SWAP3 SWAP2 POP POP JUMP JUMPDEST PUSH0 PUSH1 0x20 DUP3 ADD SWAP1 POP DUP2 DUP2 SUB PUSH0 DUP4 ADD MSTORE PUSH2 0x1782 DUP2 DUP5 PUSH2 0x1732 JUMP JUMPDEST SWAP1 POP SWAP3 SWAP2 POP POP JUMP JUMPDEST PUSH32 0x4F6E6C79206F776E65722063616E2063616C6C20746869732066756E6374696F PUSH0 DUP3 ADD MSTORE PUSH32 0x6E00000000000000000000000000000000000000000000000000000000000000 PUSH1 0x20 DUP3 ADD MSTORE POP JUMP JUMPDEST PUSH0 PUSH2 0x17E4 PUSH1 0x21 DUP4 PUSH2 0x1722 JUMP JUMPDEST SWAP2 POP PUSH2 0x17EF DUP3 PUSH2 0x178A JUMP JUMPDEST PUSH1 0x40 DUP3 ADD SWAP1 POP SWAP2 SWAP1 POP JUMP JUMPDEST PUSH0 PUSH1 0x20 DUP3 ADD SWAP1 POP DUP2 DUP2 SUB PUSH0 DUP4 ADD MSTORE PUSH2 0x1811 DUP2 PUSH2 0x17D8 JUMP JUMPDEST SWAP1 POP SWAP2 SWAP1 POP JUMP JUMPDEST PUSH0 PUSH1 0xA0 DUP3 ADD SWAP1 POP PUSH2 0x182B PUSH0 DUP4 ADD DUP6 PUSH2 0x1581 JUMP JUMPDEST DUP2 DUP2 SUB PUSH1 0x80 DUP4 ADD MSTORE PUSH2 0x183D DUP2 DUP5 PUSH2 0x1673 JUMP JUMPDEST SWAP1 POP SWAP4 SWAP3 POP POP POP JUMP JUMPDEST PUSH32 0x496E73756666696369656E742066756E647320696E20636F6E74726163740000 PUSH0 DUP3 ADD MSTORE POP JUMP JUMPDEST PUSH0 PUSH2 0x187A PUSH1 0x1E DUP4 PUSH2 0x1722 JUMP JUMPDEST SWAP2 POP PUSH2 0x1885 DUP3 PUSH2 0x1846 JUMP JUMPDEST PUSH1 0x20 DUP3 ADD SWAP1 POP SWAP2 SWAP1 POP JUMP JUMPDEST PUSH0 PUSH1 0x20 DUP3 ADD SWAP1 POP DUP2 DUP2 SUB PUSH0 DUP4 ADD MSTORE PUSH2 0x18A7 DUP2 PUSH2 0x186E JUMP JUMPDEST SWAP1 POP SWAP2 SWAP1 POP JUMP JUMPDEST PUSH32 0x4E487B7100000000000000000000000000000000000000000000000000000000 PUSH0 MSTORE PUSH1 0x32 PUSH1 0x4 MSTORE PUSH1 0x24 PUSH0 REVERT JUMPDEST PUSH32 0x4E487B7100000000000000000000000000000000000000000000000000000000 PUSH0 MSTORE PUSH1 0x22 PUSH1 0x4 MSTORE PUSH1 0x24 PUSH0 REVERT JUMPDEST PUSH0 PUSH1 0x2 DUP3 DIV SWAP1 POP PUSH1 0x1 DUP3 AND DUP1 PUSH2 0x191F JUMPI PUSH1 0x7F DUP3 AND SWAP2 POP JUMPDEST PUSH1 0x20 DUP3 LT DUP2 SUB PUSH2 0x1932 JUMPI PUSH2 0x1931 PUSH2 0x18DB JUMP JUMPDEST JUMPDEST POP SWAP2 SWAP1 POP JUMP JUMPDEST PUSH32 0x496E73756666696369656E742066756E647320666F72207072697A6520646973 PUSH0 DUP3 ADD MSTORE PUSH32 0x747269627574696F6E0000000000000000000000000000000000000000000000 PUSH1 0x20 DUP3 ADD MSTORE POP JUMP JUMPDEST PUSH0 PUSH2 0x1992 PUSH1 0x29 DUP4 PUSH2 0x1722 JUMP JUMPDEST SWAP2 POP PUSH2 0x199D DUP3 PUSH2 0x1938 JUMP JUMPDEST PUSH1 0x40 DUP3 ADD SWAP1 POP SWAP2 SWAP1 POP JUMP JUMPDEST PUSH0 PUSH1 0x20 DUP3 ADD SWAP1 POP DUP2 DUP2 SUB PUSH0 DUP4 ADD MSTORE PUSH2 0x19BF DUP2 PUSH2 0x1986 JUMP JUMPDEST SWAP1 POP SWAP2 SWAP1 POP JUMP JUMPDEST PUSH32 0x496E636F7272656374207469636B657420707269636500000000000000000000 PUSH0 DUP3 ADD MSTORE POP JUMP JUMPDEST PUSH0 PUSH2 0x19FA PUSH1 0x16 DUP4 PUSH2 0x1722 JUMP JUMPDEST SWAP2 POP PUSH2 0x1A05 DUP3 PUSH2 0x19C6 JUMP JUMPDEST PUSH1 0x20 DUP3 ADD SWAP1 POP SWAP2 SWAP1 POP JUMP JUMPDEST PUSH0 PUSH1 0x20 DUP3 ADD SWAP1 POP DUP2 DUP2 SUB PUSH0 DUP4 ADD MSTORE PUSH2 0x1A27 DUP2 PUSH2 0x19EE JUMP JUMPDEST SWAP1 POP SWAP2 SWAP1 POP JUMP JUMPDEST PUSH32 0x4E487B7100000000000000000000000000000000000000000000000000000000 PUSH0 MSTORE PUSH1 0x11 PUSH1 0x4 MSTORE PUSH1 0x24 PUSH0 REVERT JUMPDEST PUSH0 PUSH2 0x1A65 DUP3 PUSH2 0x1197 JUMP JUMPDEST SWAP2 POP PUSH1 0xFF DUP3 SUB PUSH2 0x1A78 JUMPI PUSH2 0x1A77 PUSH2 0x1A2E JUMP JUMPDEST JUMPDEST PUSH1 0x1 DUP3 ADD SWAP1 POP SWAP2 SWAP1 POP JUMP JUMPDEST PUSH0 DUP2 SWAP1 POP SWAP3 SWAP2 POP POP JUMP JUMPDEST PUSH0 DUP2 SWAP1 POP DUP2 PUSH0 MSTORE PUSH1 0x20 PUSH0 KECCAK256 SWAP1 POP SWAP2 SWAP1 POP JUMP JUMPDEST PUSH0 DUP2 SLOAD PUSH2 0x1AAB DUP2 PUSH2 0x1908 JUMP JUMPDEST PUSH2 0x1AB5 DUP2 DUP7 PUSH2 0x1A83 JUMP JUMPDEST SWAP5 POP PUSH1 0x1 DUP3 AND PUSH0 DUP2 EQ PUSH2 0x1ACF JUMPI PUSH1 0x1 DUP2 EQ PUSH2 0x1AE4 JUMPI PUSH2 0x1B16 JUMP JUMPDEST PUSH1 0xFF NOT DUP4 AND DUP7 MSTORE DUP2 ISZERO ISZERO DUP3 MUL DUP7 ADD SWAP4 POP PUSH2 0x1B16 JUMP JUMPDEST PUSH2 0x1AED DUP6 PUSH2 0x1A8D JUMP JUMPDEST PUSH0 JUMPDEST DUP4 DUP2 LT ISZERO PUSH2 0x1B0E JUMPI DUP2 SLOAD DUP2 DUP10 ADD MSTORE PUSH1 0x1 DUP3 ADD SWAP2 POP PUSH1 0x20 DUP2 ADD SWAP1 POP PUSH2 0x1AEF JUMP JUMPDEST DUP4 DUP9 ADD SWAP6 POP POP POP JUMPDEST POP POP POP SWAP3 SWAP2 POP POP JUMP JUMPDEST PUSH0 PUSH2 0x1B2A DUP3 DUP5 PUSH2 0x1A9F JUMP JUMPDEST SWAP2 POP DUP2 SWAP1 POP SWAP3 SWAP2 POP POP JUMP JUMPDEST PUSH0 PUSH2 0x1B3F DUP3 PUSH2 0x15F4 JUMP JUMPDEST PUSH2 0x1B49 DUP2 DUP6 PUSH2 0x1A83 JUMP JUMPDEST SWAP4 POP PUSH2 0x1B59 DUP2 DUP6 PUSH1 0x20 DUP7 ADD PUSH2 0x160E JUMP JUMPDEST DUP1 DUP5 ADD SWAP2 POP POP SWAP3 SWAP2 POP POP JUMP JUMPDEST PUSH0 PUSH2 0x1B70 DUP3 DUP5 PUSH2 0x1B35 JUMP JUMPDEST SWAP2 POP DUP2 SWAP1 POP SWAP3 SWAP2 POP POP JUMP JUMPDEST PUSH0 PUSH1 0x20 PUSH1 0x1F DUP4 ADD DIV SWAP1 POP SWAP2 SWAP1 POP JUMP JUMPDEST PUSH0 DUP3 DUP3 SHL SWAP1 POP SWAP3 SWAP2 POP POP JUMP JUMPDEST PUSH0 PUSH1 0x8 DUP4 MUL PUSH2 0x1BC5 PUSH32 0xFFFFFFFFFFFFFFFFFFFFFFFFFFFFFFFFFFFFFFFFFFFFFFFFFFFFFFFFFFFFFFFF DUP3 PUSH2 0x1B8A JUMP JUMPDEST PUSH2 0x1BCF DUP7 DUP4 PUSH2 0x1B8A JUMP JUMPDEST SWAP6 POP DUP1 NOT DUP5 AND SWAP4 POP DUP1 DUP7 AND DUP5 OR SWAP3 POP POP POP SWAP4 SWAP3 POP POP POP JUMP JUMPDEST PUSH0 DUP2 SWAP1 POP SWAP2 SWAP1 POP JUMP JUMPDEST PUSH0 PUSH2 0x1C0A PUSH2 0x1C05 PUSH2 0x1C00 DUP5 PUSH2 0x142C JUMP JUMPDEST PUSH2 0x1BE7 JUMP JUMPDEST PUSH2 0x142C JUMP JUMPDEST SWAP1 POP SWAP2 SWAP1 POP JUMP JUMPDEST PUSH0 DUP2 SWAP1 POP SWAP2 SWAP1 POP JUMP JUMPDEST PUSH2 0x1C23 DUP4 PUSH2 0x1BF0 JUMP JUMPDEST PUSH2 0x1C37 PUSH2 0x1C2F DUP3 PUSH2 0x1C11 JUMP JUMPDEST DUP5 DUP5 SLOAD PUSH2 0x1B96 JUMP JUMPDEST DUP3 SSTORE POP POP POP POP JUMP JUMPDEST PUSH0 SWAP1 JUMP JUMPDEST PUSH2 0x1C4B PUSH2 0x1C3F JUMP JUMPDEST PUSH2 0x1C56 DUP2 DUP5 DUP5 PUSH2 0x1C1A JUMP JUMPDEST POP POP POP JUMP JUMPDEST JUMPDEST DUP2 DUP2 LT ISZERO PUSH2 0x1C79 JUMPI PUSH2 0x1C6E PUSH0 DUP3 PUSH2 0x1C43 JUMP JUMPDEST PUSH1 0x1 DUP2 ADD SWAP1 POP PUSH2 0x1C5C JUMP JUMPDEST POP POP JUMP JUMPDEST PUSH1 0x1F DUP3 GT ISZERO PUSH2 0x1CBE JUMPI PUSH2 0x1C8F DUP2 PUSH2 0x1A8D JUMP JUMPDEST PUSH2 0x1C98 DUP5 PUSH2 0x1B7B JUMP JUMPDEST DUP2 ADD PUSH1 0x20 DUP6 LT ISZERO PUSH2 0x1CA7 JUMPI DUP2 SWAP1 POP JUMPDEST PUSH2 0x1CBB PUSH2 0x1CB3 DUP6 PUSH2 0x1B7B JUMP JUMPDEST DUP4 ADD DUP3 PUSH2 0x1C5B JUMP JUMPDEST POP POP JUMPDEST POP POP POP JUMP JUMPDEST PUSH0 DUP3 DUP3 SHR SWAP1 POP SWAP3 SWAP2 POP POP JUMP JUMPDEST PUSH0 PUSH2 0x1CDE PUSH0 NOT DUP5 PUSH1 0x8 MUL PUSH2 0x1CC3 JUMP JUMPDEST NOT DUP1 DUP4 AND SWAP2 POP POP SWAP3 SWAP2 POP POP JUMP JUMPDEST PUSH0 PUSH2 0x1CF6 DUP4 DUP4 PUSH2 0x1CCF JUMP JUMPDEST SWAP2 POP DUP3 PUSH1 0x2 MUL DUP3 OR SWAP1 POP SWAP3 SWAP2 POP POP JUMP JUMPDEST PUSH2 0x1D0F DUP3 PUSH2 0x15F4 JUMP JUMPDEST PUSH8 0xFFFFFFFFFFFFFFFF DUP2 GT ISZERO PUSH2 0x1D28 JUMPI PUSH2 0x1D27 PUSH2 0x10F6 JUMP JUMPDEST JUMPDEST PUSH2 0x1D32 DUP3 SLOAD PUSH2 0x1908 JUMP JUMPDEST PUSH2 0x1D3D DUP3 DUP3 DUP6 PUSH2 0x1C7D JUMP JUMPDEST PUSH0 PUSH1 0x20 SWAP1 POP PUSH1 0x1F DUP4 GT PUSH1 0x1 DUP2 EQ PUSH2 0x1D6E JUMPI PUSH0 DUP5 ISZERO PUSH2 0x1D5C JUMPI DUP3 DUP8 ADD MLOAD SWAP1 POP JUMPDEST PUSH2 0x1D66 DUP6 DUP3 PUSH2 0x1CEB JUMP JUMPDEST DUP7 SSTORE POP PUSH2 0x1DCD JUMP JUMPDEST PUSH1 0x1F NOT DUP5 AND PUSH2 0x1D7C DUP7 PUSH2 0x1A8D JUMP JUMPDEST PUSH0 JUMPDEST DUP3 DUP2 LT ISZERO PUSH2 0x1DA3 JUMPI DUP5 DUP10 ADD MLOAD DUP3 SSTORE PUSH1 0x1 DUP3 ADD SWAP2 POP PUSH1 0x20 DUP6 ADD SWAP5 POP PUSH1 0x20 DUP2 ADD SWAP1 POP PUSH2 0x1D7E JUMP JUMPDEST DUP7 DUP4 LT ISZERO PUSH2 0x1DC0 JUMPI DUP5 DUP10 ADD MLOAD PUSH2 0x1DBC PUSH1 0x1F DUP10 AND DUP3 PUSH2 0x1CCF JUMP JUMPDEST DUP4 SSTORE POP JUMPDEST PUSH1 0x1 PUSH1 0x2 DUP9 MUL ADD DUP9 SSTORE POP POP POP JUMPDEST POP POP POP POP POP POP JUMP INVALID LOG2 PUSH5 0x6970667358 0x22 SLT KECCAK256 ADDMOD 0xC7 EXTCODESIZE 0xAC 0xD5 CALLDATALOAD CALLCODE MSTORE MUL 0xAD DUP7 MULMOD SIGNEXTEND DUP12 EXTCODESIZE LOG4 0xA5 DUP5 SWAP3 0xFC 0xBD 0xCF CHAINID CALLDATALOAD SHR 0xAB LOG1 EXTCODECOPY SWAP9 0xD2 0xC4 0xE4 PUSH5 0x736F6C6343 STOP ADDMOD BYTE STOP CALLER "
				},
				"gasEstimates": {
					"creation": {
						"codeDepositCost": "1538200",
						"executionCost": "47979",
						"totalCost": "1586179"
					},
					"external": {
						"": "195",
						"depositFunds()": "3968",
						"distributePrizes()": "infinite",
						"entries(uint256)": "5000",
						"getEntriesCount()": "2528",
						"getEntry(uint256)": "infinite",
						"owner()": "2508",
						"setWinningNumbers(uint8[4],string[2])": "infinite",
						"submitEntry(uint8[4],string[2])": "infinite",
						"ticketPrice()": "2448",
						"winningLetters(uint256)": "infinite",
						"winningNumbers(uint256)": "4424"
					},
					"internal": {
						"checkMatches(struct Test11.Entry memory)": "infinite"
					}
				},
				"methodIdentifiers": {
					"depositFunds()": "e2c41dbc",
					"distributePrizes()": "7ce52eb6",
					"entries(uint256)": "b30906d4",
					"getEntriesCount()": "d09685b0",
					"getEntry(uint256)": "bae78d7b",
					"owner()": "8da5cb5b",
					"setWinningNumbers(uint8[4],string[2])": "10b6e482",
					"submitEntry(uint8[4],string[2])": "8baae14c",
					"ticketPrice()": "1209b1f6",
					"winningLetters(uint256)": "c1099656",
					"winningNumbers(uint256)": "4e45f095"
				}
			},
			"storageLayout": {
				"storage": [
					{
						"astId": 16,
						"contract": "cordingtest/cordingtest11.sol:Test11",
						"label": "entries",
						"offset": 0,
						"slot": "0",
						"type": "t_array(t_struct(Entry)12_storage)dyn_storage"
					},
					{
						"astId": 20,
						"contract": "cordingtest/cordingtest11.sol:Test11",
						"label": "winningNumbers",
						"offset": 0,
						"slot": "1",
						"type": "t_array(t_uint8)4_storage"
					},
					{
						"astId": 24,
						"contract": "cordingtest/cordingtest11.sol:Test11",
						"label": "winningLetters",
						"offset": 0,
						"slot": "2",
						"type": "t_array(t_string_storage)2_storage"
					},
					{
						"astId": 26,
						"contract": "cordingtest/cordingtest11.sol:Test11",
						"label": "owner",
						"offset": 0,
						"slot": "4",
						"type": "t_address"
					},
					{
						"astId": 29,
						"contract": "cordingtest/cordingtest11.sol:Test11",
						"label": "ticketPrice",
						"offset": 0,
						"slot": "5",
						"type": "t_uint256"
					}
				],
				"types": {
					"t_address": {
						"encoding": "inplace",
						"label": "address",
						"numberOfBytes": "20"
					},
					"t_array(t_string_storage)2_storage": {
						"base": "t_string_storage",
						"encoding": "inplace",
						"label": "string[2]",
						"numberOfBytes": "64"
					},
					"t_array(t_struct(Entry)12_storage)dyn_storage": {
						"base": "t_struct(Entry)12_storage",
						"encoding": "dynamic_array",
						"label": "struct Test11.Entry[]",
						"numberOfBytes": "32"
					},
					"t_array(t_uint8)4_storage": {
						"base": "t_uint8",
						"encoding": "inplace",
						"label": "uint8[4]",
						"numberOfBytes": "32"
					},
					"t_string_storage": {
						"encoding": "bytes",
						"label": "string",
						"numberOfBytes": "32"
					},
					"t_struct(Entry)12_storage": {
						"encoding": "inplace",
						"label": "struct Test11.Entry",
						"members": [
							{
								"astId": 5,
								"contract": "cordingtest/cordingtest11.sol:Test11",
								"label": "numbers",
								"offset": 0,
								"slot": "0",
								"type": "t_array(t_uint8)4_storage"
							},
							{
								"astId": 9,
								"contract": "cordingtest/cordingtest11.sol:Test11",
								"label": "letters",
								"offset": 0,
								"slot": "1",
								"type": "t_array(t_string_storage)2_storage"
							},
							{
								"astId": 11,
								"contract": "cordingtest/cordingtest11.sol:Test11",
								"label": "participant",
								"offset": 0,
								"slot": "3",
								"type": "t_address"
							}
						],
						"numberOfBytes": "128"
					},
					"t_uint256": {
						"encoding": "inplace",
						"label": "uint256",
						"numberOfBytes": "32"
					},
					"t_uint8": {
						"encoding": "inplace",
						"label": "uint8",
						"numberOfBytes": "1"
					}
				}
			},
			"userdoc": {
				"kind": "user",
				"methods": {},
				"version": 1
			}
		}
	}
}