{
	"cordingtest/cordingtest2.sol": {
		"Test2": {
			"abi": [
				{
					"inputs": [
						{
							"internalType": "uint256",
							"name": "_number",
							"type": "uint256"
						},
						{
							"internalType": "string",
							"name": "_name",
							"type": "string"
						},
						{
							"internalType": "uint256",
							"name": "_score",
							"type": "uint256"
						}
					],
					"name": "addStudent",
					"outputs": [],
					"stateMutability": "nonpayable",
					"type": "function"
				},
				{
					"inputs": [],
					"name": "getAllStudents",
					"outputs": [
						{
							"components": [
								{
									"internalType": "uint256",
									"name": "number",
									"type": "uint256"
								},
								{
									"internalType": "string",
									"name": "name",
									"type": "string"
								},
								{
									"internalType": "uint256",
									"name": "score",
									"type": "uint256"
								}
							],
							"internalType": "struct Test2.Student[]",
							"name": "",
							"type": "tuple[]"
						}
					],
					"stateMutability": "view",
					"type": "function"
				},
				{
					"inputs": [],
					"name": "getAverage",
					"outputs": [
						{
							"internalType": "uint256",
							"name": "",
							"type": "uint256"
						}
					],
					"stateMutability": "view",
					"type": "function"
				},
				{
					"inputs": [],
					"name": "getLowScore",
					"outputs": [
						{
							"internalType": "uint256",
							"name": "",
							"type": "uint256"
						},
						{
							"internalType": "string",
							"name": "",
							"type": "string"
						},
						{
							"internalType": "uint256",
							"name": "",
							"type": "uint256"
						}
					],
					"stateMutability": "view",
					"type": "function"
				},
				{
					"inputs": [],
					"name": "getScoreSum",
					"outputs": [
						{
							"internalType": "uint256",
							"name": "",
							"type": "uint256"
						}
					],
					"stateMutability": "view",
					"type": "function"
				},
				{
					"inputs": [
						{
							"internalType": "uint256",
							"name": "_n",
							"type": "uint256"
						}
					],
					"name": "getStudent",
					"outputs": [
						{
							"components": [
								{
									"internalType": "uint256",
									"name": "number",
									"type": "uint256"
								},
								{
									"internalType": "string",
									"name": "name",
									"type": "string"
								},
								{
									"internalType": "uint256",
									"name": "score",
									"type": "uint256"
								}
							],
							"internalType": "struct Test2.Student",
							"name": "",
							"type": "tuple"
						}
					],
					"stateMutability": "view",
					"type": "function"
				}
			],
			"devdoc": {
				"kind": "dev",
				"methods": {},
				"version": 1
			},
			"evm": {
				"assembly": "    /* \"cordingtest/cordingtest2.sol\":72:1946  contract Test2 {... */\n  mstore(0x40, 0x80)\n  callvalue\n  dup1\n  iszero\n  tag_1\n  jumpi\n  0x00\n  dup1\n  revert\ntag_1:\n  pop\n  dataSize(sub_0)\n  dup1\n  dataOffset(sub_0)\n  0x00\n  codecopy\n  0x00\n  return\nstop\n\nsub_0: assembly {\n        /* \"cordingtest/cordingtest2.sol\":72:1946  contract Test2 {... */\n      mstore(0x40, 0x80)\n      callvalue\n      dup1\n      iszero\n      tag_1\n      jumpi\n      0x00\n      dup1\n      revert\n    tag_1:\n      pop\n      jumpi(tag_2, lt(calldatasize, 0x04))\n      shr(0xe0, calldataload(0x00))\n      dup1\n      0x21055acb\n      eq\n      tag_3\n      jumpi\n      dup1\n      0x642f9163\n      eq\n      tag_4\n      jumpi\n      dup1\n      0x85b52395\n      eq\n      tag_5\n      jumpi\n      dup1\n      0xb8ca2d19\n      eq\n      tag_6\n      jumpi\n      dup1\n      0xc1bea1db\n      eq\n      tag_7\n      jumpi\n      dup1\n      0xe9e30927\n      eq\n      tag_8\n      jumpi\n    tag_2:\n      0x00\n      dup1\n      revert\n        /* \"cordingtest/cordingtest2.sol\":1591:1731  function getAverage() public view returns (uint) {... */\n    tag_3:\n      tag_9\n      tag_10\n      jump\t// in\n    tag_9:\n      mload(0x40)\n      tag_11\n      swap2\n      swap1\n      tag_12\n      jump\t// in\n    tag_11:\n      mload(0x40)\n      dup1\n      swap2\n      sub\n      swap1\n      return\n        /* \"cordingtest/cordingtest2.sol\":1737:1841  function getStudent(uint _n) public view returns (Student memory) {... */\n    tag_4:\n      tag_13\n      0x04\n      dup1\n      calldatasize\n      sub\n      dup2\n      add\n      swap1\n      tag_14\n      swap2\n      swap1\n      tag_15\n      jump\t// in\n    tag_14:\n      tag_16\n      jump\t// in\n    tag_13:\n      mload(0x40)\n      tag_17\n      swap2\n      swap1\n      tag_18\n      jump\t// in\n    tag_17:\n      mload(0x40)\n      dup1\n      swap2\n      sub\n      swap1\n      return\n        /* \"cordingtest/cordingtest2.sol\":1385:1585  function getScoreSum() public view returns (uint) {... */\n    tag_5:\n      tag_19\n      tag_20\n      jump\t// in\n    tag_19:\n      mload(0x40)\n      tag_21\n      swap2\n      swap1\n      tag_12\n      jump\t// in\n    tag_21:\n      mload(0x40)\n      dup1\n      swap2\n      sub\n      swap1\n      return\n        /* \"cordingtest/cordingtest2.sol\":889:1379  function getLowScore() public view returns (uint, string memory, uint) {... */\n    tag_6:\n      tag_22\n      tag_23\n      jump\t// in\n    tag_22:\n      mload(0x40)\n      tag_24\n      swap4\n      swap3\n      swap2\n      swap1\n      tag_25\n      jump\t// in\n    tag_24:\n      mload(0x40)\n      dup1\n      swap2\n      sub\n      swap1\n      return\n        /* \"cordingtest/cordingtest2.sol\":741:879  function addStudent(uint _number, string memory _name, uint _score) public {... */\n    tag_7:\n      tag_26\n      0x04\n      dup1\n      calldatasize\n      sub\n      dup2\n      add\n      swap1\n      tag_27\n      swap2\n      swap1\n      tag_28\n      jump\t// in\n    tag_27:\n      tag_29\n      jump\t// in\n    tag_26:\n      stop\n        /* \"cordingtest/cordingtest2.sol\":1847:1944  function getAllStudents() public view returns (Student[] memory) {... */\n    tag_8:\n      tag_30\n      tag_31\n      jump\t// in\n    tag_30:\n      mload(0x40)\n      tag_32\n      swap2\n      swap1\n      tag_33\n      jump\t// in\n    tag_32:\n      mload(0x40)\n      dup1\n      swap2\n      sub\n      swap1\n      return\n        /* \"cordingtest/cordingtest2.sol\":1591:1731  function getAverage() public view returns (uint) {... */\n    tag_10:\n        /* \"cordingtest/cordingtest2.sol\":1634:1638  uint */\n      0x00\n        /* \"cordingtest/cordingtest2.sol\":1651:1664  uint totalSum */\n      dup1\n        /* \"cordingtest/cordingtest2.sol\":1667:1680  getScoreSum() */\n      tag_35\n        /* \"cordingtest/cordingtest2.sol\":1667:1678  getScoreSum */\n      tag_20\n        /* \"cordingtest/cordingtest2.sol\":1667:1680  getScoreSum() */\n      jump\t// in\n    tag_35:\n        /* \"cordingtest/cordingtest2.sol\":1651:1680  uint totalSum = getScoreSum() */\n      swap1\n      pop\n        /* \"cordingtest/cordingtest2.sol\":1709:1717  students */\n      0x00\n        /* \"cordingtest/cordingtest2.sol\":1709:1724  students.length */\n      dup1\n      sload\n      swap1\n      pop\n        /* \"cordingtest/cordingtest2.sol\":1698:1706  totalSum */\n      dup2\n        /* \"cordingtest/cordingtest2.sol\":1698:1724  totalSum / students.length */\n      tag_36\n      swap2\n      swap1\n      tag_37\n      jump\t// in\n    tag_36:\n        /* \"cordingtest/cordingtest2.sol\":1691:1724  return totalSum / students.length */\n      swap2\n      pop\n      pop\n        /* \"cordingtest/cordingtest2.sol\":1591:1731  function getAverage() public view returns (uint) {... */\n      swap1\n      jump\t// out\n        /* \"cordingtest/cordingtest2.sol\":1737:1841  function getStudent(uint _n) public view returns (Student memory) {... */\n    tag_16:\n        /* \"cordingtest/cordingtest2.sol\":1787:1801  Student memory */\n      tag_38\n      tag_39\n      jump\t// in\n    tag_38:\n        /* \"cordingtest/cordingtest2.sol\":1820:1828  students */\n      0x00\n        /* \"cordingtest/cordingtest2.sol\":1832:1833  1 */\n      0x01\n        /* \"cordingtest/cordingtest2.sol\":1829:1831  _n */\n      dup4\n        /* \"cordingtest/cordingtest2.sol\":1829:1833  _n-1 */\n      tag_41\n      swap2\n      swap1\n      tag_42\n      jump\t// in\n    tag_41:\n        /* \"cordingtest/cordingtest2.sol\":1820:1834  students[_n-1] */\n      dup2\n      sload\n      dup2\n      lt\n      tag_43\n      jumpi\n      tag_44\n      tag_45\n      jump\t// in\n    tag_44:\n    tag_43:\n      swap1\n      0x00\n      mstore\n      keccak256(0x00, 0x20)\n      swap1\n      0x03\n      mul\n      add\n        /* \"cordingtest/cordingtest2.sol\":1813:1834  return students[_n-1] */\n      mload(0x40)\n      dup1\n      0x60\n      add\n      0x40\n      mstore\n      swap1\n      dup2\n      0x00\n      dup3\n      add\n      sload\n      dup2\n      mstore\n      0x20\n      add\n      0x01\n      dup3\n      add\n      dup1\n      sload\n      tag_47\n      swap1\n      tag_48\n      jump\t// in\n    tag_47:\n      dup1\n      0x1f\n      add\n      0x20\n      dup1\n      swap2\n      div\n      mul\n      0x20\n      add\n      mload(0x40)\n      swap1\n      dup2\n      add\n      0x40\n      mstore\n      dup1\n      swap3\n      swap2\n      swap1\n      dup2\n      dup2\n      mstore\n      0x20\n      add\n      dup3\n      dup1\n      sload\n      tag_49\n      swap1\n      tag_48\n      jump\t// in\n    tag_49:\n      dup1\n      iszero\n      tag_50\n      jumpi\n      dup1\n      0x1f\n      lt\n      tag_51\n      jumpi\n      0x0100\n      dup1\n      dup4\n      sload\n      div\n      mul\n      dup4\n      mstore\n      swap2\n      0x20\n      add\n      swap2\n      jump(tag_50)\n    tag_51:\n      dup3\n      add\n      swap2\n      swap1\n      0x00\n      mstore\n      keccak256(0x00, 0x20)\n      swap1\n    tag_52:\n      dup2\n      sload\n      dup2\n      mstore\n      swap1\n      0x01\n      add\n      swap1\n      0x20\n      add\n      dup1\n      dup4\n      gt\n      tag_52\n      jumpi\n      dup3\n      swap1\n      sub\n      0x1f\n      and\n      dup3\n      add\n      swap2\n    tag_50:\n      pop\n      pop\n      pop\n      pop\n      pop\n      dup2\n      mstore\n      0x20\n      add\n      0x02\n      dup3\n      add\n      sload\n      dup2\n      mstore\n      pop\n      pop\n      swap1\n      pop\n        /* \"cordingtest/cordingtest2.sol\":1737:1841  function getStudent(uint _n) public view returns (Student memory) {... */\n      swap2\n      swap1\n      pop\n      jump\t// out\n        /* \"cordingtest/cordingtest2.sol\":1385:1585  function getScoreSum() public view returns (uint) {... */\n    tag_20:\n        /* \"cordingtest/cordingtest2.sol\":1429:1433  uint */\n      0x00\n        /* \"cordingtest/cordingtest2.sol\":1445:1453  uint sum */\n      dup1\n        /* \"cordingtest/cordingtest2.sol\":1456:1457  0 */\n      0x00\n        /* \"cordingtest/cordingtest2.sol\":1445:1457  uint sum = 0 */\n      swap1\n      pop\n        /* \"cordingtest/cordingtest2.sol\":1472:1478  uint i */\n      0x00\n        /* \"cordingtest/cordingtest2.sol\":1467:1559  for (uint i = 0; i < students.length; i++) {... */\n    tag_54:\n        /* \"cordingtest/cordingtest2.sol\":1488:1496  students */\n      0x00\n        /* \"cordingtest/cordingtest2.sol\":1488:1503  students.length */\n      dup1\n      sload\n      swap1\n      pop\n        /* \"cordingtest/cordingtest2.sol\":1484:1485  i */\n      dup2\n        /* \"cordingtest/cordingtest2.sol\":1484:1503  i < students.length */\n      lt\n        /* \"cordingtest/cordingtest2.sol\":1467:1559  for (uint i = 0; i < students.length; i++) {... */\n      iszero\n      tag_55\n      jumpi\n        /* \"cordingtest/cordingtest2.sol\":1531:1539  students */\n      0x00\n        /* \"cordingtest/cordingtest2.sol\":1540:1541  i */\n      dup2\n        /* \"cordingtest/cordingtest2.sol\":1531:1542  students[i] */\n      dup2\n      sload\n      dup2\n      lt\n      tag_57\n      jumpi\n      tag_58\n      tag_45\n      jump\t// in\n    tag_58:\n    tag_57:\n      swap1\n      0x00\n      mstore\n      keccak256(0x00, 0x20)\n      swap1\n      0x03\n      mul\n      add\n        /* \"cordingtest/cordingtest2.sol\":1531:1548  students[i].score */\n      0x02\n      add\n      sload\n        /* \"cordingtest/cordingtest2.sol\":1524:1548  sum += students[i].score */\n      dup3\n      tag_60\n      swap2\n      swap1\n      tag_61\n      jump\t// in\n    tag_60:\n      swap2\n      pop\n        /* \"cordingtest/cordingtest2.sol\":1505:1508  i++ */\n      dup1\n      dup1\n      0x01\n      add\n      swap2\n      pop\n      pop\n        /* \"cordingtest/cordingtest2.sol\":1467:1559  for (uint i = 0; i < students.length; i++) {... */\n      jump(tag_54)\n    tag_55:\n      pop\n        /* \"cordingtest/cordingtest2.sol\":1575:1578  sum */\n      dup1\n        /* \"cordingtest/cordingtest2.sol\":1568:1578  return sum */\n      swap2\n      pop\n      pop\n        /* \"cordingtest/cordingtest2.sol\":1385:1585  function getScoreSum() public view returns (uint) {... */\n      swap1\n      jump\t// out\n        /* \"cordingtest/cordingtest2.sol\":889:1379  function getLowScore() public view returns (uint, string memory, uint) {... */\n    tag_23:\n        /* \"cordingtest/cordingtest2.sol\":933:937  uint */\n      0x00\n        /* \"cordingtest/cordingtest2.sol\":939:952  string memory */\n      0x60\n        /* \"cordingtest/cordingtest2.sol\":954:958  uint */\n      0x00\n        /* \"cordingtest/cordingtest2.sol\":979:995  uint lowestScore */\n      dup1\n        /* \"cordingtest/cordingtest2.sol\":998:1006  students */\n      0x00\n        /* \"cordingtest/cordingtest2.sol\":1007:1008  0 */\n      dup1\n        /* \"cordingtest/cordingtest2.sol\":998:1009  students[0] */\n      dup2\n      sload\n      dup2\n      lt\n      tag_63\n      jumpi\n      tag_64\n      tag_45\n      jump\t// in\n    tag_64:\n    tag_63:\n      swap1\n      0x00\n      mstore\n      keccak256(0x00, 0x20)\n      swap1\n      0x03\n      mul\n      add\n        /* \"cordingtest/cordingtest2.sol\":998:1015  students[0].score */\n      0x02\n      add\n      sload\n        /* \"cordingtest/cordingtest2.sol\":979:1015  uint lowestScore = students[0].score */\n      swap1\n      pop\n        /* \"cordingtest/cordingtest2.sol\":1025:1040  uint lowestData */\n      0x00\n        /* \"cordingtest/cordingtest2.sol\":1068:1074  uint i */\n      dup1\n        /* \"cordingtest/cordingtest2.sol\":1077:1078  1 */\n      0x01\n        /* \"cordingtest/cordingtest2.sol\":1068:1078  uint i = 1 */\n      swap1\n      pop\n        /* \"cordingtest/cordingtest2.sol\":1063:1263  for (uint i = 1; i < students.length; i++) {... */\n    tag_66:\n        /* \"cordingtest/cordingtest2.sol\":1084:1092  students */\n      0x00\n        /* \"cordingtest/cordingtest2.sol\":1084:1099  students.length */\n      dup1\n      sload\n      swap1\n      pop\n        /* \"cordingtest/cordingtest2.sol\":1080:1081  i */\n      dup2\n        /* \"cordingtest/cordingtest2.sol\":1080:1099  i < students.length */\n      lt\n        /* \"cordingtest/cordingtest2.sol\":1063:1263  for (uint i = 1; i < students.length; i++) {... */\n      iszero\n      tag_67\n      jumpi\n        /* \"cordingtest/cordingtest2.sol\":1144:1155  lowestScore */\n      dup3\n        /* \"cordingtest/cordingtest2.sol\":1124:1132  students */\n      0x00\n        /* \"cordingtest/cordingtest2.sol\":1133:1134  i */\n      dup3\n        /* \"cordingtest/cordingtest2.sol\":1124:1135  students[i] */\n      dup2\n      sload\n      dup2\n      lt\n      tag_69\n      jumpi\n      tag_70\n      tag_45\n      jump\t// in\n    tag_70:\n    tag_69:\n      swap1\n      0x00\n      mstore\n      keccak256(0x00, 0x20)\n      swap1\n      0x03\n      mul\n      add\n        /* \"cordingtest/cordingtest2.sol\":1124:1141  students[i].score */\n      0x02\n      add\n      sload\n        /* \"cordingtest/cordingtest2.sol\":1124:1155  students[i].score < lowestScore */\n      lt\n        /* \"cordingtest/cordingtest2.sol\":1120:1253  if (students[i].score < lowestScore) {... */\n      iszero\n      tag_72\n      jumpi\n        /* \"cordingtest/cordingtest2.sol\":1189:1197  students */\n      0x00\n        /* \"cordingtest/cordingtest2.sol\":1198:1199  i */\n      dup2\n        /* \"cordingtest/cordingtest2.sol\":1189:1200  students[i] */\n      dup2\n      sload\n      dup2\n      lt\n      tag_73\n      jumpi\n      tag_74\n      tag_45\n      jump\t// in\n    tag_74:\n    tag_73:\n      swap1\n      0x00\n      mstore\n      keccak256(0x00, 0x20)\n      swap1\n      0x03\n      mul\n      add\n        /* \"cordingtest/cordingtest2.sol\":1189:1206  students[i].score */\n      0x02\n      add\n      sload\n        /* \"cordingtest/cordingtest2.sol\":1175:1206  lowestScore = students[i].score */\n      swap3\n      pop\n        /* \"cordingtest/cordingtest2.sol\":1237:1238  i */\n      dup1\n        /* \"cordingtest/cordingtest2.sol\":1224:1238  lowestData = i */\n      swap2\n      pop\n        /* \"cordingtest/cordingtest2.sol\":1120:1253  if (students[i].score < lowestScore) {... */\n    tag_72:\n        /* \"cordingtest/cordingtest2.sol\":1101:1104  i++ */\n      dup1\n      dup1\n      0x01\n      add\n      swap2\n      pop\n      pop\n        /* \"cordingtest/cordingtest2.sol\":1063:1263  for (uint i = 1; i < students.length; i++) {... */\n      jump(tag_66)\n    tag_67:\n      pop\n        /* \"cordingtest/cordingtest2.sol\":1289:1297  students */\n      0x00\n        /* \"cordingtest/cordingtest2.sol\":1298:1308  lowestData */\n      dup2\n        /* \"cordingtest/cordingtest2.sol\":1289:1309  students[lowestData] */\n      dup2\n      sload\n      dup2\n      lt\n      tag_76\n      jumpi\n      tag_77\n      tag_45\n      jump\t// in\n    tag_77:\n    tag_76:\n      swap1\n      0x00\n      mstore\n      keccak256(0x00, 0x20)\n      swap1\n      0x03\n      mul\n      add\n        /* \"cordingtest/cordingtest2.sol\":1289:1316  students[lowestData].number */\n      0x00\n      add\n      sload\n        /* \"cordingtest/cordingtest2.sol\":1318:1326  students */\n      0x00\n        /* \"cordingtest/cordingtest2.sol\":1327:1337  lowestData */\n      dup3\n        /* \"cordingtest/cordingtest2.sol\":1318:1338  students[lowestData] */\n      dup2\n      sload\n      dup2\n      lt\n      tag_79\n      jumpi\n      tag_80\n      tag_45\n      jump\t// in\n    tag_80:\n    tag_79:\n      swap1\n      0x00\n      mstore\n      keccak256(0x00, 0x20)\n      swap1\n      0x03\n      mul\n      add\n        /* \"cordingtest/cordingtest2.sol\":1318:1343  students[lowestData].name */\n      0x01\n      add\n        /* \"cordingtest/cordingtest2.sol\":1345:1353  students */\n      0x00\n        /* \"cordingtest/cordingtest2.sol\":1354:1364  lowestData */\n      dup4\n        /* \"cordingtest/cordingtest2.sol\":1345:1365  students[lowestData] */\n      dup2\n      sload\n      dup2\n      lt\n      tag_82\n      jumpi\n      tag_83\n      tag_45\n      jump\t// in\n    tag_83:\n    tag_82:\n      swap1\n      0x00\n      mstore\n      keccak256(0x00, 0x20)\n      swap1\n      0x03\n      mul\n      add\n        /* \"cordingtest/cordingtest2.sol\":1345:1371  students[lowestData].score */\n      0x02\n      add\n      sload\n        /* \"cordingtest/cordingtest2.sol\":1281:1372  return (students[lowestData].number, students[lowestData].name, students[lowestData].score) */\n      dup2\n      dup1\n      sload\n      tag_85\n      swap1\n      tag_48\n      jump\t// in\n    tag_85:\n      dup1\n      0x1f\n      add\n      0x20\n      dup1\n      swap2\n      div\n      mul\n      0x20\n      add\n      mload(0x40)\n      swap1\n      dup2\n      add\n      0x40\n      mstore\n      dup1\n      swap3\n      swap2\n      swap1\n      dup2\n      dup2\n      mstore\n      0x20\n      add\n      dup3\n      dup1\n      sload\n      tag_86\n      swap1\n      tag_48\n      jump\t// in\n    tag_86:\n      dup1\n      iszero\n      tag_87\n      jumpi\n      dup1\n      0x1f\n      lt\n      tag_88\n      jumpi\n      0x0100\n      dup1\n      dup4\n      sload\n      div\n      mul\n      dup4\n      mstore\n      swap2\n      0x20\n      add\n      swap2\n      jump(tag_87)\n    tag_88:\n      dup3\n      add\n      swap2\n      swap1\n      0x00\n      mstore\n      keccak256(0x00, 0x20)\n      swap1\n    tag_89:\n      dup2\n      sload\n      dup2\n      mstore\n      swap1\n      0x01\n      add\n      swap1\n      0x20\n      add\n      dup1\n      dup4\n      gt\n      tag_89\n      jumpi\n      dup3\n      swap1\n      sub\n      0x1f\n      and\n      dup3\n      add\n      swap2\n    tag_87:\n      pop\n      pop\n      pop\n      pop\n      pop\n      swap2\n      pop\n      swap5\n      pop\n      swap5\n      pop\n      swap5\n      pop\n      pop\n      pop\n        /* \"cordingtest/cordingtest2.sol\":889:1379  function getLowScore() public view returns (uint, string memory, uint) {... */\n      swap1\n      swap2\n      swap3\n      jump\t// out\n        /* \"cordingtest/cordingtest2.sol\":741:879  function addStudent(uint _number, string memory _name, uint _score) public {... */\n    tag_29:\n        /* \"cordingtest/cordingtest2.sol\":826:834  students */\n      0x00\n        /* \"cordingtest/cordingtest2.sol\":840:871  Student(_number, _name, _score) */\n      mload(0x40)\n      dup1\n      0x60\n      add\n      0x40\n      mstore\n      dup1\n        /* \"cordingtest/cordingtest2.sol\":848:855  _number */\n      dup6\n        /* \"cordingtest/cordingtest2.sol\":840:871  Student(_number, _name, _score) */\n      dup2\n      mstore\n      0x20\n      add\n        /* \"cordingtest/cordingtest2.sol\":857:862  _name */\n      dup5\n        /* \"cordingtest/cordingtest2.sol\":840:871  Student(_number, _name, _score) */\n      dup2\n      mstore\n      0x20\n      add\n        /* \"cordingtest/cordingtest2.sol\":864:870  _score */\n      dup4\n        /* \"cordingtest/cordingtest2.sol\":840:871  Student(_number, _name, _score) */\n      dup2\n      mstore\n      pop\n        /* \"cordingtest/cordingtest2.sol\":826:872  students.push(Student(_number, _name, _score)) */\n      swap1\n      dup1\n      0x01\n      dup2\n      sload\n      add\n      dup1\n      dup3\n      sstore\n      dup1\n      swap2\n      pop\n      pop\n      0x01\n      swap1\n      sub\n      swap1\n      0x00\n      mstore\n      keccak256(0x00, 0x20)\n      swap1\n      0x03\n      mul\n      add\n      0x00\n      swap1\n      swap2\n      swap1\n      swap2\n      swap1\n      swap2\n      pop\n      0x00\n      dup3\n      add\n      mload\n      dup2\n      0x00\n      add\n      sstore\n      0x20\n      dup3\n      add\n      mload\n      dup2\n      0x01\n      add\n      swap1\n      dup2\n      tag_92\n      swap2\n      swap1\n      tag_93\n      jump\t// in\n    tag_92:\n      pop\n      0x40\n      dup3\n      add\n      mload\n      dup2\n      0x02\n      add\n      sstore\n      pop\n      pop\n        /* \"cordingtest/cordingtest2.sol\":741:879  function addStudent(uint _number, string memory _name, uint _score) public {... */\n      pop\n      pop\n      pop\n      jump\t// out\n        /* \"cordingtest/cordingtest2.sol\":1847:1944  function getAllStudents() public view returns (Student[] memory) {... */\n    tag_31:\n        /* \"cordingtest/cordingtest2.sol\":1894:1910  Student[] memory */\n      0x60\n        /* \"cordingtest/cordingtest2.sol\":1929:1937  students */\n      0x00\n        /* \"cordingtest/cordingtest2.sol\":1922:1937  return students */\n      dup1\n      sload\n      dup1\n      0x20\n      mul\n      0x20\n      add\n      mload(0x40)\n      swap1\n      dup2\n      add\n      0x40\n      mstore\n      dup1\n      swap3\n      swap2\n      swap1\n      dup2\n      dup2\n      mstore\n      0x20\n      add\n      0x00\n      swap1\n    tag_95:\n      dup3\n      dup3\n      lt\n      iszero\n      tag_96\n      jumpi\n      dup4\n      dup3\n      swap1\n      0x00\n      mstore\n      keccak256(0x00, 0x20)\n      swap1\n      0x03\n      mul\n      add\n      mload(0x40)\n      dup1\n      0x60\n      add\n      0x40\n      mstore\n      swap1\n      dup2\n      0x00\n      dup3\n      add\n      sload\n      dup2\n      mstore\n      0x20\n      add\n      0x01\n      dup3\n      add\n      dup1\n      sload\n      tag_98\n      swap1\n      tag_48\n      jump\t// in\n    tag_98:\n      dup1\n      0x1f\n      add\n      0x20\n      dup1\n      swap2\n      div\n      mul\n      0x20\n      add\n      mload(0x40)\n      swap1\n      dup2\n      add\n      0x40\n      mstore\n      dup1\n      swap3\n      swap2\n      swap1\n      dup2\n      dup2\n      mstore\n      0x20\n      add\n      dup3\n      dup1\n      sload\n      tag_99\n      swap1\n      tag_48\n      jump\t// in\n    tag_99:\n      dup1\n      iszero\n      tag_100\n      jumpi\n      dup1\n      0x1f\n      lt\n      tag_101\n      jumpi\n      0x0100\n      dup1\n      dup4\n      sload\n      div\n      mul\n      dup4\n      mstore\n      swap2\n      0x20\n      add\n      swap2\n      jump(tag_100)\n    tag_101:\n      dup3\n      add\n      swap2\n      swap1\n      0x00\n      mstore\n      keccak256(0x00, 0x20)\n      swap1\n    tag_102:\n      dup2\n      sload\n      dup2\n      mstore\n      swap1\n      0x01\n      add\n      swap1\n      0x20\n      add\n      dup1\n      dup4\n      gt\n      tag_102\n      jumpi\n      dup3\n      swap1\n      sub\n      0x1f\n      and\n      dup3\n      add\n      swap2\n    tag_100:\n      pop\n      pop\n      pop\n      pop\n      pop\n      dup2\n      mstore\n      0x20\n      add\n      0x02\n      dup3\n      add\n      sload\n      dup2\n      mstore\n      pop\n      pop\n      dup2\n      mstore\n      0x20\n      add\n      swap1\n      0x01\n      add\n      swap1\n      jump(tag_95)\n    tag_96:\n      pop\n      pop\n      pop\n      pop\n      swap1\n      pop\n        /* \"cordingtest/cordingtest2.sol\":1847:1944  function getAllStudents() public view returns (Student[] memory) {... */\n      swap1\n      jump\t// out\n    tag_39:\n      mload(0x40)\n      dup1\n      0x60\n      add\n      0x40\n      mstore\n      dup1\n      0x00\n      dup2\n      mstore\n      0x20\n      add\n      0x60\n      dup2\n      mstore\n      0x20\n      add\n      0x00\n      dup2\n      mstore\n      pop\n      swap1\n      jump\t// out\n        /* \"#utility.yul\":7:84   */\n    tag_103:\n        /* \"#utility.yul\":44:51   */\n      0x00\n        /* \"#utility.yul\":73:78   */\n      dup2\n        /* \"#utility.yul\":62:78   */\n      swap1\n      pop\n        /* \"#utility.yul\":7:84   */\n      swap2\n      swap1\n      pop\n      jump\t// out\n        /* \"#utility.yul\":90:208   */\n    tag_104:\n        /* \"#utility.yul\":177:201   */\n      tag_156\n        /* \"#utility.yul\":195:200   */\n      dup2\n        /* \"#utility.yul\":177:201   */\n      tag_103\n      jump\t// in\n    tag_156:\n        /* \"#utility.yul\":172:175   */\n      dup3\n        /* \"#utility.yul\":165:202   */\n      mstore\n        /* \"#utility.yul\":90:208   */\n      pop\n      pop\n      jump\t// out\n        /* \"#utility.yul\":214:436   */\n    tag_12:\n        /* \"#utility.yul\":307:311   */\n      0x00\n        /* \"#utility.yul\":345:347   */\n      0x20\n        /* \"#utility.yul\":334:343   */\n      dup3\n        /* \"#utility.yul\":330:348   */\n      add\n        /* \"#utility.yul\":322:348   */\n      swap1\n      pop\n        /* \"#utility.yul\":358:429   */\n      tag_158\n        /* \"#utility.yul\":426:427   */\n      0x00\n        /* \"#utility.yul\":415:424   */\n      dup4\n        /* \"#utility.yul\":411:428   */\n      add\n        /* \"#utility.yul\":402:408   */\n      dup5\n        /* \"#utility.yul\":358:429   */\n      tag_104\n      jump\t// in\n    tag_158:\n        /* \"#utility.yul\":214:436   */\n      swap3\n      swap2\n      pop\n      pop\n      jump\t// out\n        /* \"#utility.yul\":442:517   */\n    tag_105:\n        /* \"#utility.yul\":475:481   */\n      0x00\n        /* \"#utility.yul\":508:510   */\n      0x40\n        /* \"#utility.yul\":502:511   */\n      mload\n        /* \"#utility.yul\":492:511   */\n      swap1\n      pop\n        /* \"#utility.yul\":442:517   */\n      swap1\n      jump\t// out\n        /* \"#utility.yul\":523:640   */\n    tag_106:\n        /* \"#utility.yul\":632:633   */\n      0x00\n        /* \"#utility.yul\":629:630   */\n      dup1\n        /* \"#utility.yul\":622:634   */\n      revert\n        /* \"#utility.yul\":646:763   */\n    tag_107:\n        /* \"#utility.yul\":755:756   */\n      0x00\n        /* \"#utility.yul\":752:753   */\n      dup1\n        /* \"#utility.yul\":745:757   */\n      revert\n        /* \"#utility.yul\":769:891   */\n    tag_108:\n        /* \"#utility.yul\":842:866   */\n      tag_163\n        /* \"#utility.yul\":860:865   */\n      dup2\n        /* \"#utility.yul\":842:866   */\n      tag_103\n      jump\t// in\n    tag_163:\n        /* \"#utility.yul\":835:840   */\n      dup2\n        /* \"#utility.yul\":832:867   */\n      eq\n        /* \"#utility.yul\":822:885   */\n      tag_164\n      jumpi\n        /* \"#utility.yul\":881:882   */\n      0x00\n        /* \"#utility.yul\":878:879   */\n      dup1\n        /* \"#utility.yul\":871:883   */\n      revert\n        /* \"#utility.yul\":822:885   */\n    tag_164:\n        /* \"#utility.yul\":769:891   */\n      pop\n      jump\t// out\n        /* \"#utility.yul\":897:1036   */\n    tag_109:\n        /* \"#utility.yul\":943:948   */\n      0x00\n        /* \"#utility.yul\":981:987   */\n      dup2\n        /* \"#utility.yul\":968:988   */\n      calldataload\n        /* \"#utility.yul\":959:988   */\n      swap1\n      pop\n        /* \"#utility.yul\":997:1030   */\n      tag_166\n        /* \"#utility.yul\":1024:1029   */\n      dup2\n        /* \"#utility.yul\":997:1030   */\n      tag_108\n      jump\t// in\n    tag_166:\n        /* \"#utility.yul\":897:1036   */\n      swap3\n      swap2\n      pop\n      pop\n      jump\t// out\n        /* \"#utility.yul\":1042:1371   */\n    tag_15:\n        /* \"#utility.yul\":1101:1107   */\n      0x00\n        /* \"#utility.yul\":1150:1152   */\n      0x20\n        /* \"#utility.yul\":1138:1147   */\n      dup3\n        /* \"#utility.yul\":1129:1136   */\n      dup5\n        /* \"#utility.yul\":1125:1148   */\n      sub\n        /* \"#utility.yul\":1121:1153   */\n      slt\n        /* \"#utility.yul\":1118:1237   */\n      iszero\n      tag_168\n      jumpi\n        /* \"#utility.yul\":1156:1235   */\n      tag_169\n      tag_106\n      jump\t// in\n    tag_169:\n        /* \"#utility.yul\":1118:1237   */\n    tag_168:\n        /* \"#utility.yul\":1276:1277   */\n      0x00\n        /* \"#utility.yul\":1301:1354   */\n      tag_170\n        /* \"#utility.yul\":1346:1353   */\n      dup5\n        /* \"#utility.yul\":1337:1343   */\n      dup3\n        /* \"#utility.yul\":1326:1335   */\n      dup6\n        /* \"#utility.yul\":1322:1344   */\n      add\n        /* \"#utility.yul\":1301:1354   */\n      tag_109\n      jump\t// in\n    tag_170:\n        /* \"#utility.yul\":1291:1354   */\n      swap2\n      pop\n        /* \"#utility.yul\":1247:1364   */\n      pop\n        /* \"#utility.yul\":1042:1371   */\n      swap3\n      swap2\n      pop\n      pop\n      jump\t// out\n        /* \"#utility.yul\":1377:1485   */\n    tag_110:\n        /* \"#utility.yul\":1454:1478   */\n      tag_172\n        /* \"#utility.yul\":1472:1477   */\n      dup2\n        /* \"#utility.yul\":1454:1478   */\n      tag_103\n      jump\t// in\n    tag_172:\n        /* \"#utility.yul\":1449:1452   */\n      dup3\n        /* \"#utility.yul\":1442:1479   */\n      mstore\n        /* \"#utility.yul\":1377:1485   */\n      pop\n      pop\n      jump\t// out\n        /* \"#utility.yul\":1491:1590   */\n    tag_111:\n        /* \"#utility.yul\":1543:1549   */\n      0x00\n        /* \"#utility.yul\":1577:1582   */\n      dup2\n        /* \"#utility.yul\":1571:1583   */\n      mload\n        /* \"#utility.yul\":1561:1583   */\n      swap1\n      pop\n        /* \"#utility.yul\":1491:1590   */\n      swap2\n      swap1\n      pop\n      jump\t// out\n        /* \"#utility.yul\":1596:1755   */\n    tag_112:\n        /* \"#utility.yul\":1670:1681   */\n      0x00\n        /* \"#utility.yul\":1704:1710   */\n      dup3\n        /* \"#utility.yul\":1699:1702   */\n      dup3\n        /* \"#utility.yul\":1692:1711   */\n      mstore\n        /* \"#utility.yul\":1744:1748   */\n      0x20\n        /* \"#utility.yul\":1739:1742   */\n      dup3\n        /* \"#utility.yul\":1735:1749   */\n      add\n        /* \"#utility.yul\":1720:1749   */\n      swap1\n      pop\n        /* \"#utility.yul\":1596:1755   */\n      swap3\n      swap2\n      pop\n      pop\n      jump\t// out\n        /* \"#utility.yul\":1761:1900   */\n    tag_113:\n        /* \"#utility.yul\":1850:1856   */\n      dup3\n        /* \"#utility.yul\":1845:1848   */\n      dup2\n        /* \"#utility.yul\":1840:1843   */\n      dup4\n        /* \"#utility.yul\":1834:1857   */\n      mcopy\n        /* \"#utility.yul\":1891:1892   */\n      0x00\n        /* \"#utility.yul\":1882:1888   */\n      dup4\n        /* \"#utility.yul\":1877:1880   */\n      dup4\n        /* \"#utility.yul\":1873:1889   */\n      add\n        /* \"#utility.yul\":1866:1893   */\n      mstore\n        /* \"#utility.yul\":1761:1900   */\n      pop\n      pop\n      pop\n      jump\t// out\n        /* \"#utility.yul\":1906:2008   */\n    tag_114:\n        /* \"#utility.yul\":1947:1953   */\n      0x00\n        /* \"#utility.yul\":1998:2000   */\n      0x1f\n        /* \"#utility.yul\":1994:2001   */\n      not\n        /* \"#utility.yul\":1989:1991   */\n      0x1f\n        /* \"#utility.yul\":1982:1987   */\n      dup4\n        /* \"#utility.yul\":1978:1992   */\n      add\n        /* \"#utility.yul\":1974:2002   */\n      and\n        /* \"#utility.yul\":1964:2002   */\n      swap1\n      pop\n        /* \"#utility.yul\":1906:2008   */\n      swap2\n      swap1\n      pop\n      jump\t// out\n        /* \"#utility.yul\":2014:2371   */\n    tag_115:\n        /* \"#utility.yul\":2092:2095   */\n      0x00\n        /* \"#utility.yul\":2120:2159   */\n      tag_178\n        /* \"#utility.yul\":2153:2158   */\n      dup3\n        /* \"#utility.yul\":2120:2159   */\n      tag_111\n      jump\t// in\n    tag_178:\n        /* \"#utility.yul\":2175:2236   */\n      tag_179\n        /* \"#utility.yul\":2229:2235   */\n      dup2\n        /* \"#utility.yul\":2224:2227   */\n      dup6\n        /* \"#utility.yul\":2175:2236   */\n      tag_112\n      jump\t// in\n    tag_179:\n        /* \"#utility.yul\":2168:2236   */\n      swap4\n      pop\n        /* \"#utility.yul\":2245:2310   */\n      tag_180\n        /* \"#utility.yul\":2303:2309   */\n      dup2\n        /* \"#utility.yul\":2298:2301   */\n      dup6\n        /* \"#utility.yul\":2291:2295   */\n      0x20\n        /* \"#utility.yul\":2284:2289   */\n      dup7\n        /* \"#utility.yul\":2280:2296   */\n      add\n        /* \"#utility.yul\":2245:2310   */\n      tag_113\n      jump\t// in\n    tag_180:\n        /* \"#utility.yul\":2335:2364   */\n      tag_181\n        /* \"#utility.yul\":2357:2363   */\n      dup2\n        /* \"#utility.yul\":2335:2364   */\n      tag_114\n      jump\t// in\n    tag_181:\n        /* \"#utility.yul\":2330:2333   */\n      dup5\n        /* \"#utility.yul\":2326:2365   */\n      add\n        /* \"#utility.yul\":2319:2365   */\n      swap2\n      pop\n        /* \"#utility.yul\":2096:2371   */\n      pop\n        /* \"#utility.yul\":2014:2371   */\n      swap3\n      swap2\n      pop\n      pop\n      jump\t// out\n        /* \"#utility.yul\":2429:3206   */\n    tag_116:\n        /* \"#utility.yul\":2542:2545   */\n      0x00\n        /* \"#utility.yul\":2578:2582   */\n      0x60\n        /* \"#utility.yul\":2573:2576   */\n      dup4\n        /* \"#utility.yul\":2569:2583   */\n      add\n        /* \"#utility.yul\":2667:2671   */\n      0x00\n        /* \"#utility.yul\":2660:2665   */\n      dup4\n        /* \"#utility.yul\":2656:2672   */\n      add\n        /* \"#utility.yul\":2650:2673   */\n      mload\n        /* \"#utility.yul\":2686:2749   */\n      tag_183\n        /* \"#utility.yul\":2743:2747   */\n      0x00\n        /* \"#utility.yul\":2738:2741   */\n      dup7\n        /* \"#utility.yul\":2734:2748   */\n      add\n        /* \"#utility.yul\":2720:2732   */\n      dup3\n        /* \"#utility.yul\":2686:2749   */\n      tag_110\n      jump\t// in\n    tag_183:\n        /* \"#utility.yul\":2593:2759   */\n      pop\n        /* \"#utility.yul\":2841:2845   */\n      0x20\n        /* \"#utility.yul\":2834:2839   */\n      dup4\n        /* \"#utility.yul\":2830:2846   */\n      add\n        /* \"#utility.yul\":2824:2847   */\n      mload\n        /* \"#utility.yul\":2894:2897   */\n      dup5\n        /* \"#utility.yul\":2888:2892   */\n      dup3\n        /* \"#utility.yul\":2884:2898   */\n      sub\n        /* \"#utility.yul\":2877:2881   */\n      0x20\n        /* \"#utility.yul\":2872:2875   */\n      dup7\n        /* \"#utility.yul\":2868:2882   */\n      add\n        /* \"#utility.yul\":2861:2899   */\n      mstore\n        /* \"#utility.yul\":2920:2993   */\n      tag_184\n        /* \"#utility.yul\":2988:2992   */\n      dup3\n        /* \"#utility.yul\":2974:2986   */\n      dup3\n        /* \"#utility.yul\":2920:2993   */\n      tag_115\n      jump\t// in\n    tag_184:\n        /* \"#utility.yul\":2912:2993   */\n      swap2\n      pop\n        /* \"#utility.yul\":2769:3004   */\n      pop\n        /* \"#utility.yul\":3087:3091   */\n      0x40\n        /* \"#utility.yul\":3080:3085   */\n      dup4\n        /* \"#utility.yul\":3076:3092   */\n      add\n        /* \"#utility.yul\":3070:3093   */\n      mload\n        /* \"#utility.yul\":3106:3169   */\n      tag_185\n        /* \"#utility.yul\":3163:3167   */\n      0x40\n        /* \"#utility.yul\":3158:3161   */\n      dup7\n        /* \"#utility.yul\":3154:3168   */\n      add\n        /* \"#utility.yul\":3140:3152   */\n      dup3\n        /* \"#utility.yul\":3106:3169   */\n      tag_110\n      jump\t// in\n    tag_185:\n        /* \"#utility.yul\":3014:3179   */\n      pop\n        /* \"#utility.yul\":3196:3200   */\n      dup1\n        /* \"#utility.yul\":3189:3200   */\n      swap2\n      pop\n        /* \"#utility.yul\":2547:3206   */\n      pop\n        /* \"#utility.yul\":2429:3206   */\n      swap3\n      swap2\n      pop\n      pop\n      jump\t// out\n        /* \"#utility.yul\":3212:3573   */\n    tag_18:\n        /* \"#utility.yul\":3349:3353   */\n      0x00\n        /* \"#utility.yul\":3387:3389   */\n      0x20\n        /* \"#utility.yul\":3376:3385   */\n      dup3\n        /* \"#utility.yul\":3372:3390   */\n      add\n        /* \"#utility.yul\":3364:3390   */\n      swap1\n      pop\n        /* \"#utility.yul\":3436:3445   */\n      dup2\n        /* \"#utility.yul\":3430:3434   */\n      dup2\n        /* \"#utility.yul\":3426:3446   */\n      sub\n        /* \"#utility.yul\":3422:3423   */\n      0x00\n        /* \"#utility.yul\":3411:3420   */\n      dup4\n        /* \"#utility.yul\":3407:3424   */\n      add\n        /* \"#utility.yul\":3400:3447   */\n      mstore\n        /* \"#utility.yul\":3464:3566   */\n      tag_187\n        /* \"#utility.yul\":3561:3565   */\n      dup2\n        /* \"#utility.yul\":3552:3558   */\n      dup5\n        /* \"#utility.yul\":3464:3566   */\n      tag_116\n      jump\t// in\n    tag_187:\n        /* \"#utility.yul\":3456:3566   */\n      swap1\n      pop\n        /* \"#utility.yul\":3212:3573   */\n      swap3\n      swap2\n      pop\n      pop\n      jump\t// out\n        /* \"#utility.yul\":3579:3748   */\n    tag_117:\n        /* \"#utility.yul\":3663:3674   */\n      0x00\n        /* \"#utility.yul\":3697:3703   */\n      dup3\n        /* \"#utility.yul\":3692:3695   */\n      dup3\n        /* \"#utility.yul\":3685:3704   */\n      mstore\n        /* \"#utility.yul\":3737:3741   */\n      0x20\n        /* \"#utility.yul\":3732:3735   */\n      dup3\n        /* \"#utility.yul\":3728:3742   */\n      add\n        /* \"#utility.yul\":3713:3742   */\n      swap1\n      pop\n        /* \"#utility.yul\":3579:3748   */\n      swap3\n      swap2\n      pop\n      pop\n      jump\t// out\n        /* \"#utility.yul\":3754:4131   */\n    tag_118:\n        /* \"#utility.yul\":3842:3845   */\n      0x00\n        /* \"#utility.yul\":3870:3909   */\n      tag_190\n        /* \"#utility.yul\":3903:3908   */\n      dup3\n        /* \"#utility.yul\":3870:3909   */\n      tag_111\n      jump\t// in\n    tag_190:\n        /* \"#utility.yul\":3925:3996   */\n      tag_191\n        /* \"#utility.yul\":3989:3995   */\n      dup2\n        /* \"#utility.yul\":3984:3987   */\n      dup6\n        /* \"#utility.yul\":3925:3996   */\n      tag_117\n      jump\t// in\n    tag_191:\n        /* \"#utility.yul\":3918:3996   */\n      swap4\n      pop\n        /* \"#utility.yul\":4005:4070   */\n      tag_192\n        /* \"#utility.yul\":4063:4069   */\n      dup2\n        /* \"#utility.yul\":4058:4061   */\n      dup6\n        /* \"#utility.yul\":4051:4055   */\n      0x20\n        /* \"#utility.yul\":4044:4049   */\n      dup7\n        /* \"#utility.yul\":4040:4056   */\n      add\n        /* \"#utility.yul\":4005:4070   */\n      tag_113\n      jump\t// in\n    tag_192:\n        /* \"#utility.yul\":4095:4124   */\n      tag_193\n        /* \"#utility.yul\":4117:4123   */\n      dup2\n        /* \"#utility.yul\":4095:4124   */\n      tag_114\n      jump\t// in\n    tag_193:\n        /* \"#utility.yul\":4090:4093   */\n      dup5\n        /* \"#utility.yul\":4086:4125   */\n      add\n        /* \"#utility.yul\":4079:4125   */\n      swap2\n      pop\n        /* \"#utility.yul\":3846:4131   */\n      pop\n        /* \"#utility.yul\":3754:4131   */\n      swap3\n      swap2\n      pop\n      pop\n      jump\t// out\n        /* \"#utility.yul\":4137:4670   */\n    tag_25:\n        /* \"#utility.yul\":4306:4310   */\n      0x00\n        /* \"#utility.yul\":4344:4346   */\n      0x60\n        /* \"#utility.yul\":4333:4342   */\n      dup3\n        /* \"#utility.yul\":4329:4347   */\n      add\n        /* \"#utility.yul\":4321:4347   */\n      swap1\n      pop\n        /* \"#utility.yul\":4357:4428   */\n      tag_195\n        /* \"#utility.yul\":4425:4426   */\n      0x00\n        /* \"#utility.yul\":4414:4423   */\n      dup4\n        /* \"#utility.yul\":4410:4427   */\n      add\n        /* \"#utility.yul\":4401:4407   */\n      dup7\n        /* \"#utility.yul\":4357:4428   */\n      tag_104\n      jump\t// in\n    tag_195:\n        /* \"#utility.yul\":4475:4484   */\n      dup2\n        /* \"#utility.yul\":4469:4473   */\n      dup2\n        /* \"#utility.yul\":4465:4485   */\n      sub\n        /* \"#utility.yul\":4460:4462   */\n      0x20\n        /* \"#utility.yul\":4449:4458   */\n      dup4\n        /* \"#utility.yul\":4445:4463   */\n      add\n        /* \"#utility.yul\":4438:4486   */\n      mstore\n        /* \"#utility.yul\":4503:4581   */\n      tag_196\n        /* \"#utility.yul\":4576:4580   */\n      dup2\n        /* \"#utility.yul\":4567:4573   */\n      dup6\n        /* \"#utility.yul\":4503:4581   */\n      tag_118\n      jump\t// in\n    tag_196:\n        /* \"#utility.yul\":4495:4581   */\n      swap1\n      pop\n        /* \"#utility.yul\":4591:4663   */\n      tag_197\n        /* \"#utility.yul\":4659:4661   */\n      0x40\n        /* \"#utility.yul\":4648:4657   */\n      dup4\n        /* \"#utility.yul\":4644:4662   */\n      add\n        /* \"#utility.yul\":4635:4641   */\n      dup5\n        /* \"#utility.yul\":4591:4663   */\n      tag_104\n      jump\t// in\n    tag_197:\n        /* \"#utility.yul\":4137:4670   */\n      swap5\n      swap4\n      pop\n      pop\n      pop\n      pop\n      jump\t// out\n        /* \"#utility.yul\":4676:4793   */\n    tag_119:\n        /* \"#utility.yul\":4785:4786   */\n      0x00\n        /* \"#utility.yul\":4782:4783   */\n      dup1\n        /* \"#utility.yul\":4775:4787   */\n      revert\n        /* \"#utility.yul\":4799:4916   */\n    tag_120:\n        /* \"#utility.yul\":4908:4909   */\n      0x00\n        /* \"#utility.yul\":4905:4906   */\n      dup1\n        /* \"#utility.yul\":4898:4910   */\n      revert\n        /* \"#utility.yul\":4922:5102   */\n    tag_121:\n        /* \"#utility.yul\":4970:5047   */\n      0x4e487b7100000000000000000000000000000000000000000000000000000000\n        /* \"#utility.yul\":4967:4968   */\n      0x00\n        /* \"#utility.yul\":4960:5048   */\n      mstore\n        /* \"#utility.yul\":5067:5071   */\n      0x41\n        /* \"#utility.yul\":5064:5065   */\n      0x04\n        /* \"#utility.yul\":5057:5072   */\n      mstore\n        /* \"#utility.yul\":5091:5095   */\n      0x24\n        /* \"#utility.yul\":5088:5089   */\n      0x00\n        /* \"#utility.yul\":5081:5096   */\n      revert\n        /* \"#utility.yul\":5108:5389   */\n    tag_122:\n        /* \"#utility.yul\":5191:5218   */\n      tag_202\n        /* \"#utility.yul\":5213:5217   */\n      dup3\n        /* \"#utility.yul\":5191:5218   */\n      tag_114\n      jump\t// in\n    tag_202:\n        /* \"#utility.yul\":5183:5189   */\n      dup2\n        /* \"#utility.yul\":5179:5219   */\n      add\n        /* \"#utility.yul\":5321:5327   */\n      dup2\n        /* \"#utility.yul\":5309:5319   */\n      dup2\n        /* \"#utility.yul\":5306:5328   */\n      lt\n        /* \"#utility.yul\":5285:5303   */\n      0xffffffffffffffff\n        /* \"#utility.yul\":5273:5283   */\n      dup3\n        /* \"#utility.yul\":5270:5304   */\n      gt\n        /* \"#utility.yul\":5267:5329   */\n      or\n        /* \"#utility.yul\":5264:5352   */\n      iszero\n      tag_203\n      jumpi\n        /* \"#utility.yul\":5332:5350   */\n      tag_204\n      tag_121\n      jump\t// in\n    tag_204:\n        /* \"#utility.yul\":5264:5352   */\n    tag_203:\n        /* \"#utility.yul\":5372:5382   */\n      dup1\n        /* \"#utility.yul\":5368:5370   */\n      0x40\n        /* \"#utility.yul\":5361:5383   */\n      mstore\n        /* \"#utility.yul\":5151:5389   */\n      pop\n        /* \"#utility.yul\":5108:5389   */\n      pop\n      pop\n      jump\t// out\n        /* \"#utility.yul\":5395:5524   */\n    tag_123:\n        /* \"#utility.yul\":5429:5435   */\n      0x00\n        /* \"#utility.yul\":5456:5476   */\n      tag_206\n      tag_105\n      jump\t// in\n    tag_206:\n        /* \"#utility.yul\":5446:5476   */\n      swap1\n      pop\n        /* \"#utility.yul\":5485:5518   */\n      tag_207\n        /* \"#utility.yul\":5513:5517   */\n      dup3\n        /* \"#utility.yul\":5505:5511   */\n      dup3\n        /* \"#utility.yul\":5485:5518   */\n      tag_122\n      jump\t// in\n    tag_207:\n        /* \"#utility.yul\":5395:5524   */\n      swap2\n      swap1\n      pop\n      jump\t// out\n        /* \"#utility.yul\":5530:5838   */\n    tag_124:\n        /* \"#utility.yul\":5592:5596   */\n      0x00\n        /* \"#utility.yul\":5682:5700   */\n      0xffffffffffffffff\n        /* \"#utility.yul\":5674:5680   */\n      dup3\n        /* \"#utility.yul\":5671:5701   */\n      gt\n        /* \"#utility.yul\":5668:5724   */\n      iszero\n      tag_209\n      jumpi\n        /* \"#utility.yul\":5704:5722   */\n      tag_210\n      tag_121\n      jump\t// in\n    tag_210:\n        /* \"#utility.yul\":5668:5724   */\n    tag_209:\n        /* \"#utility.yul\":5742:5771   */\n      tag_211\n        /* \"#utility.yul\":5764:5770   */\n      dup3\n        /* \"#utility.yul\":5742:5771   */\n      tag_114\n      jump\t// in\n    tag_211:\n        /* \"#utility.yul\":5734:5771   */\n      swap1\n      pop\n        /* \"#utility.yul\":5826:5830   */\n      0x20\n        /* \"#utility.yul\":5820:5824   */\n      dup2\n        /* \"#utility.yul\":5816:5831   */\n      add\n        /* \"#utility.yul\":5808:5831   */\n      swap1\n      pop\n        /* \"#utility.yul\":5530:5838   */\n      swap2\n      swap1\n      pop\n      jump\t// out\n        /* \"#utility.yul\":5844:5992   */\n    tag_125:\n        /* \"#utility.yul\":5942:5948   */\n      dup3\n        /* \"#utility.yul\":5937:5940   */\n      dup2\n        /* \"#utility.yul\":5932:5935   */\n      dup4\n        /* \"#utility.yul\":5919:5949   */\n      calldatacopy\n        /* \"#utility.yul\":5983:5984   */\n      0x00\n        /* \"#utility.yul\":5974:5980   */\n      dup4\n        /* \"#utility.yul\":5969:5972   */\n      dup4\n        /* \"#utility.yul\":5965:5981   */\n      add\n        /* \"#utility.yul\":5958:5985   */\n      mstore\n        /* \"#utility.yul\":5844:5992   */\n      pop\n      pop\n      pop\n      jump\t// out\n        /* \"#utility.yul\":5998:6423   */\n    tag_126:\n        /* \"#utility.yul\":6076:6081   */\n      0x00\n        /* \"#utility.yul\":6101:6167   */\n      tag_214\n        /* \"#utility.yul\":6117:6166   */\n      tag_215\n        /* \"#utility.yul\":6159:6165   */\n      dup5\n        /* \"#utility.yul\":6117:6166   */\n      tag_124\n      jump\t// in\n    tag_215:\n        /* \"#utility.yul\":6101:6167   */\n      tag_123\n      jump\t// in\n    tag_214:\n        /* \"#utility.yul\":6092:6167   */\n      swap1\n      pop\n        /* \"#utility.yul\":6190:6196   */\n      dup3\n        /* \"#utility.yul\":6183:6188   */\n      dup2\n        /* \"#utility.yul\":6176:6197   */\n      mstore\n        /* \"#utility.yul\":6228:6232   */\n      0x20\n        /* \"#utility.yul\":6221:6226   */\n      dup2\n        /* \"#utility.yul\":6217:6233   */\n      add\n        /* \"#utility.yul\":6266:6269   */\n      dup5\n        /* \"#utility.yul\":6257:6263   */\n      dup5\n        /* \"#utility.yul\":6252:6255   */\n      dup5\n        /* \"#utility.yul\":6248:6264   */\n      add\n        /* \"#utility.yul\":6245:6270   */\n      gt\n        /* \"#utility.yul\":6242:6354   */\n      iszero\n      tag_216\n      jumpi\n        /* \"#utility.yul\":6273:6352   */\n      tag_217\n      tag_120\n      jump\t// in\n    tag_217:\n        /* \"#utility.yul\":6242:6354   */\n    tag_216:\n        /* \"#utility.yul\":6363:6417   */\n      tag_218\n        /* \"#utility.yul\":6410:6416   */\n      dup5\n        /* \"#utility.yul\":6405:6408   */\n      dup3\n        /* \"#utility.yul\":6400:6403   */\n      dup6\n        /* \"#utility.yul\":6363:6417   */\n      tag_125\n      jump\t// in\n    tag_218:\n        /* \"#utility.yul\":6082:6423   */\n      pop\n        /* \"#utility.yul\":5998:6423   */\n      swap4\n      swap3\n      pop\n      pop\n      pop\n      jump\t// out\n        /* \"#utility.yul\":6443:6783   */\n    tag_127:\n        /* \"#utility.yul\":6499:6504   */\n      0x00\n        /* \"#utility.yul\":6548:6551   */\n      dup3\n        /* \"#utility.yul\":6541:6545   */\n      0x1f\n        /* \"#utility.yul\":6533:6539   */\n      dup4\n        /* \"#utility.yul\":6529:6546   */\n      add\n        /* \"#utility.yul\":6525:6552   */\n      slt\n        /* \"#utility.yul\":6515:6637   */\n      tag_220\n      jumpi\n        /* \"#utility.yul\":6556:6635   */\n      tag_221\n      tag_119\n      jump\t// in\n    tag_221:\n        /* \"#utility.yul\":6515:6637   */\n    tag_220:\n        /* \"#utility.yul\":6673:6679   */\n      dup2\n        /* \"#utility.yul\":6660:6680   */\n      calldataload\n        /* \"#utility.yul\":6698:6777   */\n      tag_222\n        /* \"#utility.yul\":6773:6776   */\n      dup5\n        /* \"#utility.yul\":6765:6771   */\n      dup3\n        /* \"#utility.yul\":6758:6762   */\n      0x20\n        /* \"#utility.yul\":6750:6756   */\n      dup7\n        /* \"#utility.yul\":6746:6763   */\n      add\n        /* \"#utility.yul\":6698:6777   */\n      tag_126\n      jump\t// in\n    tag_222:\n        /* \"#utility.yul\":6689:6777   */\n      swap2\n      pop\n        /* \"#utility.yul\":6505:6783   */\n      pop\n        /* \"#utility.yul\":6443:6783   */\n      swap3\n      swap2\n      pop\n      pop\n      jump\t// out\n        /* \"#utility.yul\":6789:7588   */\n    tag_28:\n        /* \"#utility.yul\":6876:6882   */\n      0x00\n        /* \"#utility.yul\":6884:6890   */\n      dup1\n        /* \"#utility.yul\":6892:6898   */\n      0x00\n        /* \"#utility.yul\":6941:6943   */\n      0x60\n        /* \"#utility.yul\":6929:6938   */\n      dup5\n        /* \"#utility.yul\":6920:6927   */\n      dup7\n        /* \"#utility.yul\":6916:6939   */\n      sub\n        /* \"#utility.yul\":6912:6944   */\n      slt\n        /* \"#utility.yul\":6909:7028   */\n      iszero\n      tag_224\n      jumpi\n        /* \"#utility.yul\":6947:7026   */\n      tag_225\n      tag_106\n      jump\t// in\n    tag_225:\n        /* \"#utility.yul\":6909:7028   */\n    tag_224:\n        /* \"#utility.yul\":7067:7068   */\n      0x00\n        /* \"#utility.yul\":7092:7145   */\n      tag_226\n        /* \"#utility.yul\":7137:7144   */\n      dup7\n        /* \"#utility.yul\":7128:7134   */\n      dup3\n        /* \"#utility.yul\":7117:7126   */\n      dup8\n        /* \"#utility.yul\":7113:7135   */\n      add\n        /* \"#utility.yul\":7092:7145   */\n      tag_109\n      jump\t// in\n    tag_226:\n        /* \"#utility.yul\":7082:7145   */\n      swap4\n      pop\n        /* \"#utility.yul\":7038:7155   */\n      pop\n        /* \"#utility.yul\":7222:7224   */\n      0x20\n        /* \"#utility.yul\":7211:7220   */\n      dup5\n        /* \"#utility.yul\":7207:7225   */\n      add\n        /* \"#utility.yul\":7194:7226   */\n      calldataload\n        /* \"#utility.yul\":7253:7271   */\n      0xffffffffffffffff\n        /* \"#utility.yul\":7245:7251   */\n      dup2\n        /* \"#utility.yul\":7242:7272   */\n      gt\n        /* \"#utility.yul\":7239:7356   */\n      iszero\n      tag_227\n      jumpi\n        /* \"#utility.yul\":7275:7354   */\n      tag_228\n      tag_107\n      jump\t// in\n    tag_228:\n        /* \"#utility.yul\":7239:7356   */\n    tag_227:\n        /* \"#utility.yul\":7380:7443   */\n      tag_229\n        /* \"#utility.yul\":7435:7442   */\n      dup7\n        /* \"#utility.yul\":7426:7432   */\n      dup3\n        /* \"#utility.yul\":7415:7424   */\n      dup8\n        /* \"#utility.yul\":7411:7433   */\n      add\n        /* \"#utility.yul\":7380:7443   */\n      tag_127\n      jump\t// in\n    tag_229:\n        /* \"#utility.yul\":7370:7443   */\n      swap3\n      pop\n        /* \"#utility.yul\":7165:7453   */\n      pop\n        /* \"#utility.yul\":7492:7494   */\n      0x40\n        /* \"#utility.yul\":7518:7571   */\n      tag_230\n        /* \"#utility.yul\":7563:7570   */\n      dup7\n        /* \"#utility.yul\":7554:7560   */\n      dup3\n        /* \"#utility.yul\":7543:7552   */\n      dup8\n        /* \"#utility.yul\":7539:7561   */\n      add\n        /* \"#utility.yul\":7518:7571   */\n      tag_109\n      jump\t// in\n    tag_230:\n        /* \"#utility.yul\":7508:7571   */\n      swap2\n      pop\n        /* \"#utility.yul\":7463:7581   */\n      pop\n        /* \"#utility.yul\":6789:7588   */\n      swap3\n      pop\n      swap3\n      pop\n      swap3\n      jump\t// out\n        /* \"#utility.yul\":7594:7730   */\n    tag_128:\n        /* \"#utility.yul\":7683:7689   */\n      0x00\n        /* \"#utility.yul\":7717:7722   */\n      dup2\n        /* \"#utility.yul\":7711:7723   */\n      mload\n        /* \"#utility.yul\":7701:7723   */\n      swap1\n      pop\n        /* \"#utility.yul\":7594:7730   */\n      swap2\n      swap1\n      pop\n      jump\t// out\n        /* \"#utility.yul\":7736:7942   */\n    tag_129:\n        /* \"#utility.yul\":7857:7868   */\n      0x00\n        /* \"#utility.yul\":7891:7897   */\n      dup3\n        /* \"#utility.yul\":7886:7889   */\n      dup3\n        /* \"#utility.yul\":7879:7898   */\n      mstore\n        /* \"#utility.yul\":7931:7935   */\n      0x20\n        /* \"#utility.yul\":7926:7929   */\n      dup3\n        /* \"#utility.yul\":7922:7936   */\n      add\n        /* \"#utility.yul\":7907:7936   */\n      swap1\n      pop\n        /* \"#utility.yul\":7736:7942   */\n      swap3\n      swap2\n      pop\n      pop\n      jump\t// out\n        /* \"#utility.yul\":7948:8102   */\n    tag_130:\n        /* \"#utility.yul\":8037:8041   */\n      0x00\n        /* \"#utility.yul\":8060:8063   */\n      dup2\n        /* \"#utility.yul\":8052:8063   */\n      swap1\n      pop\n        /* \"#utility.yul\":8090:8094   */\n      0x20\n        /* \"#utility.yul\":8085:8088   */\n      dup3\n        /* \"#utility.yul\":8081:8095   */\n      add\n        /* \"#utility.yul\":8073:8095   */\n      swap1\n      pop\n        /* \"#utility.yul\":7948:8102   */\n      swap2\n      swap1\n      pop\n      jump\t// out\n        /* \"#utility.yul\":8160:8927   */\n    tag_131:\n        /* \"#utility.yul\":8263:8266   */\n      0x00\n        /* \"#utility.yul\":8299:8303   */\n      0x60\n        /* \"#utility.yul\":8294:8297   */\n      dup4\n        /* \"#utility.yul\":8290:8304   */\n      add\n        /* \"#utility.yul\":8388:8392   */\n      0x00\n        /* \"#utility.yul\":8381:8386   */\n      dup4\n        /* \"#utility.yul\":8377:8393   */\n      add\n        /* \"#utility.yul\":8371:8394   */\n      mload\n        /* \"#utility.yul\":8407:8470   */\n      tag_235\n        /* \"#utility.yul\":8464:8468   */\n      0x00\n        /* \"#utility.yul\":8459:8462   */\n      dup7\n        /* \"#utility.yul\":8455:8469   */\n      add\n        /* \"#utility.yul\":8441:8453   */\n      dup3\n        /* \"#utility.yul\":8407:8470   */\n      tag_110\n      jump\t// in\n    tag_235:\n        /* \"#utility.yul\":8314:8480   */\n      pop\n        /* \"#utility.yul\":8562:8566   */\n      0x20\n        /* \"#utility.yul\":8555:8560   */\n      dup4\n        /* \"#utility.yul\":8551:8567   */\n      add\n        /* \"#utility.yul\":8545:8568   */\n      mload\n        /* \"#utility.yul\":8615:8618   */\n      dup5\n        /* \"#utility.yul\":8609:8613   */\n      dup3\n        /* \"#utility.yul\":8605:8619   */\n      sub\n        /* \"#utility.yul\":8598:8602   */\n      0x20\n        /* \"#utility.yul\":8593:8596   */\n      dup7\n        /* \"#utility.yul\":8589:8603   */\n      add\n        /* \"#utility.yul\":8582:8620   */\n      mstore\n        /* \"#utility.yul\":8641:8714   */\n      tag_236\n        /* \"#utility.yul\":8709:8713   */\n      dup3\n        /* \"#utility.yul\":8695:8707   */\n      dup3\n        /* \"#utility.yul\":8641:8714   */\n      tag_115\n      jump\t// in\n    tag_236:\n        /* \"#utility.yul\":8633:8714   */\n      swap2\n      pop\n        /* \"#utility.yul\":8490:8725   */\n      pop\n        /* \"#utility.yul\":8808:8812   */\n      0x40\n        /* \"#utility.yul\":8801:8806   */\n      dup4\n        /* \"#utility.yul\":8797:8813   */\n      add\n        /* \"#utility.yul\":8791:8814   */\n      mload\n        /* \"#utility.yul\":8827:8890   */\n      tag_237\n        /* \"#utility.yul\":8884:8888   */\n      0x40\n        /* \"#utility.yul\":8879:8882   */\n      dup7\n        /* \"#utility.yul\":8875:8889   */\n      add\n        /* \"#utility.yul\":8861:8873   */\n      dup3\n        /* \"#utility.yul\":8827:8890   */\n      tag_110\n      jump\t// in\n    tag_237:\n        /* \"#utility.yul\":8735:8900   */\n      pop\n        /* \"#utility.yul\":8917:8921   */\n      dup1\n        /* \"#utility.yul\":8910:8921   */\n      swap2\n      pop\n        /* \"#utility.yul\":8268:8927   */\n      pop\n        /* \"#utility.yul\":8160:8927   */\n      swap3\n      swap2\n      pop\n      pop\n      jump\t// out\n        /* \"#utility.yul\":8933:9177   */\n    tag_132:\n        /* \"#utility.yul\":9046:9056   */\n      0x00\n        /* \"#utility.yul\":9081:9171   */\n      tag_239\n        /* \"#utility.yul\":9167:9170   */\n      dup4\n        /* \"#utility.yul\":9159:9165   */\n      dup4\n        /* \"#utility.yul\":9081:9171   */\n      tag_131\n      jump\t// in\n    tag_239:\n        /* \"#utility.yul\":9067:9171   */\n      swap1\n      pop\n        /* \"#utility.yul\":8933:9177   */\n      swap3\n      swap2\n      pop\n      pop\n      jump\t// out\n        /* \"#utility.yul\":9183:9318   */\n    tag_133:\n        /* \"#utility.yul\":9275:9279   */\n      0x00\n        /* \"#utility.yul\":9307:9311   */\n      0x20\n        /* \"#utility.yul\":9302:9305   */\n      dup3\n        /* \"#utility.yul\":9298:9312   */\n      add\n        /* \"#utility.yul\":9290:9312   */\n      swap1\n      pop\n        /* \"#utility.yul\":9183:9318   */\n      swap2\n      swap1\n      pop\n      jump\t// out\n        /* \"#utility.yul\":9380:10467   */\n    tag_134:\n        /* \"#utility.yul\":9543:9546   */\n      0x00\n        /* \"#utility.yul\":9572:9648   */\n      tag_242\n        /* \"#utility.yul\":9642:9647   */\n      dup3\n        /* \"#utility.yul\":9572:9648   */\n      tag_128\n      jump\t// in\n    tag_242:\n        /* \"#utility.yul\":9664:9772   */\n      tag_243\n        /* \"#utility.yul\":9765:9771   */\n      dup2\n        /* \"#utility.yul\":9760:9763   */\n      dup6\n        /* \"#utility.yul\":9664:9772   */\n      tag_129\n      jump\t// in\n    tag_243:\n        /* \"#utility.yul\":9657:9772   */\n      swap4\n      pop\n        /* \"#utility.yul\":9798:9801   */\n      dup4\n        /* \"#utility.yul\":9843:9847   */\n      0x20\n        /* \"#utility.yul\":9835:9841   */\n      dup3\n        /* \"#utility.yul\":9831:9848   */\n      mul\n        /* \"#utility.yul\":9826:9829   */\n      dup6\n        /* \"#utility.yul\":9822:9849   */\n      add\n        /* \"#utility.yul\":9873:9951   */\n      tag_244\n        /* \"#utility.yul\":9945:9950   */\n      dup6\n        /* \"#utility.yul\":9873:9951   */\n      tag_130\n      jump\t// in\n    tag_244:\n        /* \"#utility.yul\":9974:9981   */\n      dup1\n        /* \"#utility.yul\":10005:10006   */\n      0x00\n        /* \"#utility.yul\":9990:10422   */\n    tag_245:\n        /* \"#utility.yul\":10015:10021   */\n      dup6\n        /* \"#utility.yul\":10012:10013   */\n      dup2\n        /* \"#utility.yul\":10009:10022   */\n      lt\n        /* \"#utility.yul\":9990:10422   */\n      iszero\n      tag_247\n      jumpi\n        /* \"#utility.yul\":10086:10095   */\n      dup5\n        /* \"#utility.yul\":10080:10084   */\n      dup5\n        /* \"#utility.yul\":10076:10096   */\n      sub\n        /* \"#utility.yul\":10071:10074   */\n      dup10\n        /* \"#utility.yul\":10064:10097   */\n      mstore\n        /* \"#utility.yul\":10137:10143   */\n      dup2\n        /* \"#utility.yul\":10131:10144   */\n      mload\n        /* \"#utility.yul\":10165:10273   */\n      tag_248\n        /* \"#utility.yul\":10268:10272   */\n      dup6\n        /* \"#utility.yul\":10253:10266   */\n      dup3\n        /* \"#utility.yul\":10165:10273   */\n      tag_132\n      jump\t// in\n    tag_248:\n        /* \"#utility.yul\":10157:10273   */\n      swap5\n      pop\n        /* \"#utility.yul\":10296:10378   */\n      tag_249\n        /* \"#utility.yul\":10371:10377   */\n      dup4\n        /* \"#utility.yul\":10296:10378   */\n      tag_133\n      jump\t// in\n    tag_249:\n        /* \"#utility.yul\":10286:10378   */\n      swap3\n      pop\n        /* \"#utility.yul\":10407:10411   */\n      0x20\n        /* \"#utility.yul\":10402:10405   */\n      dup11\n        /* \"#utility.yul\":10398:10412   */\n      add\n        /* \"#utility.yul\":10391:10412   */\n      swap10\n      pop\n        /* \"#utility.yul\":10050:10422   */\n      pop\n        /* \"#utility.yul\":10037:10038   */\n      0x01\n        /* \"#utility.yul\":10034:10035   */\n      dup2\n        /* \"#utility.yul\":10030:10039   */\n      add\n        /* \"#utility.yul\":10025:10039   */\n      swap1\n      pop\n        /* \"#utility.yul\":9990:10422   */\n      jump(tag_245)\n    tag_247:\n        /* \"#utility.yul\":9994:10008   */\n      pop\n        /* \"#utility.yul\":10438:10442   */\n      dup3\n        /* \"#utility.yul\":10431:10442   */\n      swap8\n      pop\n        /* \"#utility.yul\":10458:10461   */\n      dup8\n        /* \"#utility.yul\":10451:10461   */\n      swap6\n      pop\n        /* \"#utility.yul\":9548:10467   */\n      pop\n      pop\n      pop\n      pop\n      pop\n        /* \"#utility.yul\":9380:10467   */\n      swap3\n      swap2\n      pop\n      pop\n      jump\t// out\n        /* \"#utility.yul\":10473:10934   */\n    tag_33:\n        /* \"#utility.yul\":10660:10664   */\n      0x00\n        /* \"#utility.yul\":10698:10700   */\n      0x20\n        /* \"#utility.yul\":10687:10696   */\n      dup3\n        /* \"#utility.yul\":10683:10701   */\n      add\n        /* \"#utility.yul\":10675:10701   */\n      swap1\n      pop\n        /* \"#utility.yul\":10747:10756   */\n      dup2\n        /* \"#utility.yul\":10741:10745   */\n      dup2\n        /* \"#utility.yul\":10737:10757   */\n      sub\n        /* \"#utility.yul\":10733:10734   */\n      0x00\n        /* \"#utility.yul\":10722:10731   */\n      dup4\n        /* \"#utility.yul\":10718:10735   */\n      add\n        /* \"#utility.yul\":10711:10758   */\n      mstore\n        /* \"#utility.yul\":10775:10927   */\n      tag_251\n        /* \"#utility.yul\":10922:10926   */\n      dup2\n        /* \"#utility.yul\":10913:10919   */\n      dup5\n        /* \"#utility.yul\":10775:10927   */\n      tag_134\n      jump\t// in\n    tag_251:\n        /* \"#utility.yul\":10767:10927   */\n      swap1\n      pop\n        /* \"#utility.yul\":10473:10934   */\n      swap3\n      swap2\n      pop\n      pop\n      jump\t// out\n        /* \"#utility.yul\":10940:11120   */\n    tag_135:\n        /* \"#utility.yul\":10988:11065   */\n      0x4e487b7100000000000000000000000000000000000000000000000000000000\n        /* \"#utility.yul\":10985:10986   */\n      0x00\n        /* \"#utility.yul\":10978:11066   */\n      mstore\n        /* \"#utility.yul\":11085:11089   */\n      0x12\n        /* \"#utility.yul\":11082:11083   */\n      0x04\n        /* \"#utility.yul\":11075:11090   */\n      mstore\n        /* \"#utility.yul\":11109:11113   */\n      0x24\n        /* \"#utility.yul\":11106:11107   */\n      0x00\n        /* \"#utility.yul\":11099:11114   */\n      revert\n        /* \"#utility.yul\":11126:11306   */\n    tag_136:\n        /* \"#utility.yul\":11174:11251   */\n      0x4e487b7100000000000000000000000000000000000000000000000000000000\n        /* \"#utility.yul\":11171:11172   */\n      0x00\n        /* \"#utility.yul\":11164:11252   */\n      mstore\n        /* \"#utility.yul\":11271:11275   */\n      0x11\n        /* \"#utility.yul\":11268:11269   */\n      0x04\n        /* \"#utility.yul\":11261:11276   */\n      mstore\n        /* \"#utility.yul\":11295:11299   */\n      0x24\n        /* \"#utility.yul\":11292:11293   */\n      0x00\n        /* \"#utility.yul\":11285:11300   */\n      revert\n        /* \"#utility.yul\":11312:11497   */\n    tag_37:\n        /* \"#utility.yul\":11352:11353   */\n      0x00\n        /* \"#utility.yul\":11369:11389   */\n      tag_255\n        /* \"#utility.yul\":11387:11388   */\n      dup3\n        /* \"#utility.yul\":11369:11389   */\n      tag_103\n      jump\t// in\n    tag_255:\n        /* \"#utility.yul\":11364:11389   */\n      swap2\n      pop\n        /* \"#utility.yul\":11403:11423   */\n      tag_256\n        /* \"#utility.yul\":11421:11422   */\n      dup4\n        /* \"#utility.yul\":11403:11423   */\n      tag_103\n      jump\t// in\n    tag_256:\n        /* \"#utility.yul\":11398:11423   */\n      swap3\n      pop\n        /* \"#utility.yul\":11442:11443   */\n      dup3\n        /* \"#utility.yul\":11432:11467   */\n      tag_257\n      jumpi\n        /* \"#utility.yul\":11447:11465   */\n      tag_258\n      tag_135\n      jump\t// in\n    tag_258:\n        /* \"#utility.yul\":11432:11467   */\n    tag_257:\n        /* \"#utility.yul\":11489:11490   */\n      dup3\n        /* \"#utility.yul\":11486:11487   */\n      dup3\n        /* \"#utility.yul\":11482:11491   */\n      div\n        /* \"#utility.yul\":11477:11491   */\n      swap1\n      pop\n        /* \"#utility.yul\":11312:11497   */\n      swap3\n      swap2\n      pop\n      pop\n      jump\t// out\n        /* \"#utility.yul\":11503:11697   */\n    tag_42:\n        /* \"#utility.yul\":11543:11547   */\n      0x00\n        /* \"#utility.yul\":11563:11583   */\n      tag_260\n        /* \"#utility.yul\":11581:11582   */\n      dup3\n        /* \"#utility.yul\":11563:11583   */\n      tag_103\n      jump\t// in\n    tag_260:\n        /* \"#utility.yul\":11558:11583   */\n      swap2\n      pop\n        /* \"#utility.yul\":11597:11617   */\n      tag_261\n        /* \"#utility.yul\":11615:11616   */\n      dup4\n        /* \"#utility.yul\":11597:11617   */\n      tag_103\n      jump\t// in\n    tag_261:\n        /* \"#utility.yul\":11592:11617   */\n      swap3\n      pop\n        /* \"#utility.yul\":11641:11642   */\n      dup3\n        /* \"#utility.yul\":11638:11639   */\n      dup3\n        /* \"#utility.yul\":11634:11643   */\n      sub\n        /* \"#utility.yul\":11626:11643   */\n      swap1\n      pop\n        /* \"#utility.yul\":11665:11666   */\n      dup2\n        /* \"#utility.yul\":11659:11663   */\n      dup2\n        /* \"#utility.yul\":11656:11667   */\n      gt\n        /* \"#utility.yul\":11653:11690   */\n      iszero\n      tag_262\n      jumpi\n        /* \"#utility.yul\":11670:11688   */\n      tag_263\n      tag_136\n      jump\t// in\n    tag_263:\n        /* \"#utility.yul\":11653:11690   */\n    tag_262:\n        /* \"#utility.yul\":11503:11697   */\n      swap3\n      swap2\n      pop\n      pop\n      jump\t// out\n        /* \"#utility.yul\":11703:11883   */\n    tag_45:\n        /* \"#utility.yul\":11751:11828   */\n      0x4e487b7100000000000000000000000000000000000000000000000000000000\n        /* \"#utility.yul\":11748:11749   */\n      0x00\n        /* \"#utility.yul\":11741:11829   */\n      mstore\n        /* \"#utility.yul\":11848:11852   */\n      0x32\n        /* \"#utility.yul\":11845:11846   */\n      0x04\n        /* \"#utility.yul\":11838:11853   */\n      mstore\n        /* \"#utility.yul\":11872:11876   */\n      0x24\n        /* \"#utility.yul\":11869:11870   */\n      0x00\n        /* \"#utility.yul\":11862:11877   */\n      revert\n        /* \"#utility.yul\":11889:12069   */\n    tag_137:\n        /* \"#utility.yul\":11937:12014   */\n      0x4e487b7100000000000000000000000000000000000000000000000000000000\n        /* \"#utility.yul\":11934:11935   */\n      0x00\n        /* \"#utility.yul\":11927:12015   */\n      mstore\n        /* \"#utility.yul\":12034:12038   */\n      0x22\n        /* \"#utility.yul\":12031:12032   */\n      0x04\n        /* \"#utility.yul\":12024:12039   */\n      mstore\n        /* \"#utility.yul\":12058:12062   */\n      0x24\n        /* \"#utility.yul\":12055:12056   */\n      0x00\n        /* \"#utility.yul\":12048:12063   */\n      revert\n        /* \"#utility.yul\":12075:12395   */\n    tag_48:\n        /* \"#utility.yul\":12119:12125   */\n      0x00\n        /* \"#utility.yul\":12156:12157   */\n      0x02\n        /* \"#utility.yul\":12150:12154   */\n      dup3\n        /* \"#utility.yul\":12146:12158   */\n      div\n        /* \"#utility.yul\":12136:12158   */\n      swap1\n      pop\n        /* \"#utility.yul\":12203:12204   */\n      0x01\n        /* \"#utility.yul\":12197:12201   */\n      dup3\n        /* \"#utility.yul\":12193:12205   */\n      and\n        /* \"#utility.yul\":12224:12242   */\n      dup1\n        /* \"#utility.yul\":12214:12295   */\n      tag_267\n      jumpi\n        /* \"#utility.yul\":12280:12284   */\n      0x7f\n        /* \"#utility.yul\":12272:12278   */\n      dup3\n        /* \"#utility.yul\":12268:12285   */\n      and\n        /* \"#utility.yul\":12258:12285   */\n      swap2\n      pop\n        /* \"#utility.yul\":12214:12295   */\n    tag_267:\n        /* \"#utility.yul\":12342:12344   */\n      0x20\n        /* \"#utility.yul\":12334:12340   */\n      dup3\n        /* \"#utility.yul\":12331:12345   */\n      lt\n        /* \"#utility.yul\":12311:12329   */\n      dup2\n        /* \"#utility.yul\":12308:12346   */\n      sub\n        /* \"#utility.yul\":12305:12389   */\n      tag_268\n      jumpi\n        /* \"#utility.yul\":12361:12379   */\n      tag_269\n      tag_137\n      jump\t// in\n    tag_269:\n        /* \"#utility.yul\":12305:12389   */\n    tag_268:\n        /* \"#utility.yul\":12126:12395   */\n      pop\n        /* \"#utility.yul\":12075:12395   */\n      swap2\n      swap1\n      pop\n      jump\t// out\n        /* \"#utility.yul\":12401:12592   */\n    tag_61:\n        /* \"#utility.yul\":12441:12444   */\n      0x00\n        /* \"#utility.yul\":12460:12480   */\n      tag_271\n        /* \"#utility.yul\":12478:12479   */\n      dup3\n        /* \"#utility.yul\":12460:12480   */\n      tag_103\n      jump\t// in\n    tag_271:\n        /* \"#utility.yul\":12455:12480   */\n      swap2\n      pop\n        /* \"#utility.yul\":12494:12514   */\n      tag_272\n        /* \"#utility.yul\":12512:12513   */\n      dup4\n        /* \"#utility.yul\":12494:12514   */\n      tag_103\n      jump\t// in\n    tag_272:\n        /* \"#utility.yul\":12489:12514   */\n      swap3\n      pop\n        /* \"#utility.yul\":12537:12538   */\n      dup3\n        /* \"#utility.yul\":12534:12535   */\n      dup3\n        /* \"#utility.yul\":12530:12539   */\n      add\n        /* \"#utility.yul\":12523:12539   */\n      swap1\n      pop\n        /* \"#utility.yul\":12558:12561   */\n      dup1\n        /* \"#utility.yul\":12555:12556   */\n      dup3\n        /* \"#utility.yul\":12552:12562   */\n      gt\n        /* \"#utility.yul\":12549:12585   */\n      iszero\n      tag_273\n      jumpi\n        /* \"#utility.yul\":12565:12583   */\n      tag_274\n      tag_136\n      jump\t// in\n    tag_274:\n        /* \"#utility.yul\":12549:12585   */\n    tag_273:\n        /* \"#utility.yul\":12401:12592   */\n      swap3\n      swap2\n      pop\n      pop\n      jump\t// out\n        /* \"#utility.yul\":12598:12739   */\n    tag_138:\n        /* \"#utility.yul\":12647:12651   */\n      0x00\n        /* \"#utility.yul\":12670:12673   */\n      dup2\n        /* \"#utility.yul\":12662:12673   */\n      swap1\n      pop\n        /* \"#utility.yul\":12693:12696   */\n      dup2\n        /* \"#utility.yul\":12690:12691   */\n      0x00\n        /* \"#utility.yul\":12683:12697   */\n      mstore\n        /* \"#utility.yul\":12727:12731   */\n      0x20\n        /* \"#utility.yul\":12724:12725   */\n      0x00\n        /* \"#utility.yul\":12714:12732   */\n      keccak256\n        /* \"#utility.yul\":12706:12732   */\n      swap1\n      pop\n        /* \"#utility.yul\":12598:12739   */\n      swap2\n      swap1\n      pop\n      jump\t// out\n        /* \"#utility.yul\":12745:12838   */\n    tag_139:\n        /* \"#utility.yul\":12782:12788   */\n      0x00\n        /* \"#utility.yul\":12829:12831   */\n      0x20\n        /* \"#utility.yul\":12824:12826   */\n      0x1f\n        /* \"#utility.yul\":12817:12822   */\n      dup4\n        /* \"#utility.yul\":12813:12827   */\n      add\n        /* \"#utility.yul\":12809:12832   */\n      div\n        /* \"#utility.yul\":12799:12832   */\n      swap1\n      pop\n        /* \"#utility.yul\":12745:12838   */\n      swap2\n      swap1\n      pop\n      jump\t// out\n        /* \"#utility.yul\":12844:12951   */\n    tag_140:\n        /* \"#utility.yul\":12888:12896   */\n      0x00\n        /* \"#utility.yul\":12938:12943   */\n      dup3\n        /* \"#utility.yul\":12932:12936   */\n      dup3\n        /* \"#utility.yul\":12928:12944   */\n      shl\n        /* \"#utility.yul\":12907:12944   */\n      swap1\n      pop\n        /* \"#utility.yul\":12844:12951   */\n      swap3\n      swap2\n      pop\n      pop\n      jump\t// out\n        /* \"#utility.yul\":12957:13350   */\n    tag_141:\n        /* \"#utility.yul\":13026:13032   */\n      0x00\n        /* \"#utility.yul\":13076:13077   */\n      0x08\n        /* \"#utility.yul\":13064:13074   */\n      dup4\n        /* \"#utility.yul\":13060:13078   */\n      mul\n        /* \"#utility.yul\":13099:13196   */\n      tag_279\n        /* \"#utility.yul\":13129:13195   */\n      0xffffffffffffffffffffffffffffffffffffffffffffffffffffffffffffffff\n        /* \"#utility.yul\":13118:13127   */\n      dup3\n        /* \"#utility.yul\":13099:13196   */\n      tag_140\n      jump\t// in\n    tag_279:\n        /* \"#utility.yul\":13217:13256   */\n      tag_280\n        /* \"#utility.yul\":13247:13255   */\n      dup7\n        /* \"#utility.yul\":13236:13245   */\n      dup4\n        /* \"#utility.yul\":13217:13256   */\n      tag_140\n      jump\t// in\n    tag_280:\n        /* \"#utility.yul\":13205:13256   */\n      swap6\n      pop\n        /* \"#utility.yul\":13289:13293   */\n      dup1\n        /* \"#utility.yul\":13285:13294   */\n      not\n        /* \"#utility.yul\":13278:13283   */\n      dup5\n        /* \"#utility.yul\":13274:13295   */\n      and\n        /* \"#utility.yul\":13265:13295   */\n      swap4\n      pop\n        /* \"#utility.yul\":13338:13342   */\n      dup1\n        /* \"#utility.yul\":13328:13336   */\n      dup7\n        /* \"#utility.yul\":13324:13343   */\n      and\n        /* \"#utility.yul\":13317:13322   */\n      dup5\n        /* \"#utility.yul\":13314:13344   */\n      or\n        /* \"#utility.yul\":13304:13344   */\n      swap3\n      pop\n        /* \"#utility.yul\":13033:13350   */\n      pop\n      pop\n        /* \"#utility.yul\":12957:13350   */\n      swap4\n      swap3\n      pop\n      pop\n      pop\n      jump\t// out\n        /* \"#utility.yul\":13356:13416   */\n    tag_142:\n        /* \"#utility.yul\":13384:13387   */\n      0x00\n        /* \"#utility.yul\":13405:13410   */\n      dup2\n        /* \"#utility.yul\":13398:13410   */\n      swap1\n      pop\n        /* \"#utility.yul\":13356:13416   */\n      swap2\n      swap1\n      pop\n      jump\t// out\n        /* \"#utility.yul\":13422:13564   */\n    tag_143:\n        /* \"#utility.yul\":13472:13481   */\n      0x00\n        /* \"#utility.yul\":13505:13558   */\n      tag_283\n        /* \"#utility.yul\":13523:13557   */\n      tag_284\n        /* \"#utility.yul\":13532:13556   */\n      tag_285\n        /* \"#utility.yul\":13550:13555   */\n      dup5\n        /* \"#utility.yul\":13532:13556   */\n      tag_103\n      jump\t// in\n    tag_285:\n        /* \"#utility.yul\":13523:13557   */\n      tag_142\n      jump\t// in\n    tag_284:\n        /* \"#utility.yul\":13505:13558   */\n      tag_103\n      jump\t// in\n    tag_283:\n        /* \"#utility.yul\":13492:13558   */\n      swap1\n      pop\n        /* \"#utility.yul\":13422:13564   */\n      swap2\n      swap1\n      pop\n      jump\t// out\n        /* \"#utility.yul\":13570:13645   */\n    tag_144:\n        /* \"#utility.yul\":13613:13616   */\n      0x00\n        /* \"#utility.yul\":13634:13639   */\n      dup2\n        /* \"#utility.yul\":13627:13639   */\n      swap1\n      pop\n        /* \"#utility.yul\":13570:13645   */\n      swap2\n      swap1\n      pop\n      jump\t// out\n        /* \"#utility.yul\":13651:13920   */\n    tag_145:\n        /* \"#utility.yul\":13761:13800   */\n      tag_288\n        /* \"#utility.yul\":13792:13799   */\n      dup4\n        /* \"#utility.yul\":13761:13800   */\n      tag_143\n      jump\t// in\n    tag_288:\n        /* \"#utility.yul\":13822:13913   */\n      tag_289\n        /* \"#utility.yul\":13871:13912   */\n      tag_290\n        /* \"#utility.yul\":13895:13911   */\n      dup3\n        /* \"#utility.yul\":13871:13912   */\n      tag_144\n      jump\t// in\n    tag_290:\n        /* \"#utility.yul\":13863:13869   */\n      dup5\n        /* \"#utility.yul\":13856:13860   */\n      dup5\n        /* \"#utility.yul\":13850:13861   */\n      sload\n        /* \"#utility.yul\":13822:13913   */\n      tag_141\n      jump\t// in\n    tag_289:\n        /* \"#utility.yul\":13816:13820   */\n      dup3\n        /* \"#utility.yul\":13809:13914   */\n      sstore\n        /* \"#utility.yul\":13727:13920   */\n      pop\n        /* \"#utility.yul\":13651:13920   */\n      pop\n      pop\n      pop\n      jump\t// out\n        /* \"#utility.yul\":13926:13999   */\n    tag_146:\n        /* \"#utility.yul\":13971:13974   */\n      0x00\n        /* \"#utility.yul\":13926:13999   */\n      swap1\n      jump\t// out\n        /* \"#utility.yul\":14005:14194   */\n    tag_147:\n        /* \"#utility.yul\":14082:14114   */\n      tag_293\n      tag_146\n      jump\t// in\n    tag_293:\n        /* \"#utility.yul\":14123:14188   */\n      tag_294\n        /* \"#utility.yul\":14181:14187   */\n      dup2\n        /* \"#utility.yul\":14173:14179   */\n      dup5\n        /* \"#utility.yul\":14167:14171   */\n      dup5\n        /* \"#utility.yul\":14123:14188   */\n      tag_145\n      jump\t// in\n    tag_294:\n        /* \"#utility.yul\":14058:14194   */\n      pop\n        /* \"#utility.yul\":14005:14194   */\n      pop\n      pop\n      jump\t// out\n        /* \"#utility.yul\":14200:14386   */\n    tag_148:\n        /* \"#utility.yul\":14260:14380   */\n    tag_296:\n        /* \"#utility.yul\":14277:14280   */\n      dup2\n        /* \"#utility.yul\":14270:14275   */\n      dup2\n        /* \"#utility.yul\":14267:14281   */\n      lt\n        /* \"#utility.yul\":14260:14380   */\n      iszero\n      tag_298\n      jumpi\n        /* \"#utility.yul\":14331:14370   */\n      tag_299\n        /* \"#utility.yul\":14368:14369   */\n      0x00\n        /* \"#utility.yul\":14361:14366   */\n      dup3\n        /* \"#utility.yul\":14331:14370   */\n      tag_147\n      jump\t// in\n    tag_299:\n        /* \"#utility.yul\":14304:14305   */\n      0x01\n        /* \"#utility.yul\":14297:14302   */\n      dup2\n        /* \"#utility.yul\":14293:14306   */\n      add\n        /* \"#utility.yul\":14284:14306   */\n      swap1\n      pop\n        /* \"#utility.yul\":14260:14380   */\n      jump(tag_296)\n    tag_298:\n        /* \"#utility.yul\":14200:14386   */\n      pop\n      pop\n      jump\t// out\n        /* \"#utility.yul\":14392:14935   */\n    tag_149:\n        /* \"#utility.yul\":14493:14495   */\n      0x1f\n        /* \"#utility.yul\":14488:14491   */\n      dup3\n        /* \"#utility.yul\":14485:14496   */\n      gt\n        /* \"#utility.yul\":14482:14928   */\n      iszero\n      tag_301\n      jumpi\n        /* \"#utility.yul\":14527:14565   */\n      tag_302\n        /* \"#utility.yul\":14559:14564   */\n      dup2\n        /* \"#utility.yul\":14527:14565   */\n      tag_138\n      jump\t// in\n    tag_302:\n        /* \"#utility.yul\":14611:14640   */\n      tag_303\n        /* \"#utility.yul\":14629:14639   */\n      dup5\n        /* \"#utility.yul\":14611:14640   */\n      tag_139\n      jump\t// in\n    tag_303:\n        /* \"#utility.yul\":14601:14609   */\n      dup2\n        /* \"#utility.yul\":14597:14641   */\n      add\n        /* \"#utility.yul\":14794:14796   */\n      0x20\n        /* \"#utility.yul\":14782:14792   */\n      dup6\n        /* \"#utility.yul\":14779:14797   */\n      lt\n        /* \"#utility.yul\":14776:14825   */\n      iszero\n      tag_304\n      jumpi\n        /* \"#utility.yul\":14815:14823   */\n      dup2\n        /* \"#utility.yul\":14800:14823   */\n      swap1\n      pop\n        /* \"#utility.yul\":14776:14825   */\n    tag_304:\n        /* \"#utility.yul\":14838:14918   */\n      tag_305\n        /* \"#utility.yul\":14894:14916   */\n      tag_306\n        /* \"#utility.yul\":14912:14915   */\n      dup6\n        /* \"#utility.yul\":14894:14916   */\n      tag_139\n      jump\t// in\n    tag_306:\n        /* \"#utility.yul\":14884:14892   */\n      dup4\n        /* \"#utility.yul\":14880:14917   */\n      add\n        /* \"#utility.yul\":14867:14878   */\n      dup3\n        /* \"#utility.yul\":14838:14918   */\n      tag_148\n      jump\t// in\n    tag_305:\n        /* \"#utility.yul\":14497:14928   */\n      pop\n      pop\n        /* \"#utility.yul\":14482:14928   */\n    tag_301:\n        /* \"#utility.yul\":14392:14935   */\n      pop\n      pop\n      pop\n      jump\t// out\n        /* \"#utility.yul\":14941:15058   */\n    tag_150:\n        /* \"#utility.yul\":14995:15003   */\n      0x00\n        /* \"#utility.yul\":15045:15050   */\n      dup3\n        /* \"#utility.yul\":15039:15043   */\n      dup3\n        /* \"#utility.yul\":15035:15051   */\n      shr\n        /* \"#utility.yul\":15014:15051   */\n      swap1\n      pop\n        /* \"#utility.yul\":14941:15058   */\n      swap3\n      swap2\n      pop\n      pop\n      jump\t// out\n        /* \"#utility.yul\":15064:15233   */\n    tag_151:\n        /* \"#utility.yul\":15108:15114   */\n      0x00\n        /* \"#utility.yul\":15141:15192   */\n      tag_309\n        /* \"#utility.yul\":15189:15190   */\n      0x00\n        /* \"#utility.yul\":15185:15191   */\n      not\n        /* \"#utility.yul\":15177:15182   */\n      dup5\n        /* \"#utility.yul\":15174:15175   */\n      0x08\n        /* \"#utility.yul\":15170:15183   */\n      mul\n        /* \"#utility.yul\":15141:15192   */\n      tag_150\n      jump\t// in\n    tag_309:\n        /* \"#utility.yul\":15137:15193   */\n      not\n        /* \"#utility.yul\":15222:15226   */\n      dup1\n        /* \"#utility.yul\":15216:15220   */\n      dup4\n        /* \"#utility.yul\":15212:15227   */\n      and\n        /* \"#utility.yul\":15202:15227   */\n      swap2\n      pop\n        /* \"#utility.yul\":15115:15233   */\n      pop\n        /* \"#utility.yul\":15064:15233   */\n      swap3\n      swap2\n      pop\n      pop\n      jump\t// out\n        /* \"#utility.yul\":15238:15533   */\n    tag_152:\n        /* \"#utility.yul\":15314:15318   */\n      0x00\n        /* \"#utility.yul\":15460:15489   */\n      tag_311\n        /* \"#utility.yul\":15485:15488   */\n      dup4\n        /* \"#utility.yul\":15479:15483   */\n      dup4\n        /* \"#utility.yul\":15460:15489   */\n      tag_151\n      jump\t// in\n    tag_311:\n        /* \"#utility.yul\":15452:15489   */\n      swap2\n      pop\n        /* \"#utility.yul\":15522:15525   */\n      dup3\n        /* \"#utility.yul\":15519:15520   */\n      0x02\n        /* \"#utility.yul\":15515:15526   */\n      mul\n        /* \"#utility.yul\":15509:15513   */\n      dup3\n        /* \"#utility.yul\":15506:15527   */\n      or\n        /* \"#utility.yul\":15498:15527   */\n      swap1\n      pop\n        /* \"#utility.yul\":15238:15533   */\n      swap3\n      swap2\n      pop\n      pop\n      jump\t// out\n        /* \"#utility.yul\":15538:16933   */\n    tag_93:\n        /* \"#utility.yul\":15655:15692   */\n      tag_313\n        /* \"#utility.yul\":15688:15691   */\n      dup3\n        /* \"#utility.yul\":15655:15692   */\n      tag_111\n      jump\t// in\n    tag_313:\n        /* \"#utility.yul\":15757:15775   */\n      0xffffffffffffffff\n        /* \"#utility.yul\":15749:15755   */\n      dup2\n        /* \"#utility.yul\":15746:15776   */\n      gt\n        /* \"#utility.yul\":15743:15799   */\n      iszero\n      tag_314\n      jumpi\n        /* \"#utility.yul\":15779:15797   */\n      tag_315\n      tag_121\n      jump\t// in\n    tag_315:\n        /* \"#utility.yul\":15743:15799   */\n    tag_314:\n        /* \"#utility.yul\":15823:15861   */\n      tag_316\n        /* \"#utility.yul\":15855:15859   */\n      dup3\n        /* \"#utility.yul\":15849:15860   */\n      sload\n        /* \"#utility.yul\":15823:15861   */\n      tag_48\n      jump\t// in\n    tag_316:\n        /* \"#utility.yul\":15908:15975   */\n      tag_317\n        /* \"#utility.yul\":15968:15974   */\n      dup3\n        /* \"#utility.yul\":15960:15966   */\n      dup3\n        /* \"#utility.yul\":15954:15958   */\n      dup6\n        /* \"#utility.yul\":15908:15975   */\n      tag_149\n      jump\t// in\n    tag_317:\n        /* \"#utility.yul\":16002:16003   */\n      0x00\n        /* \"#utility.yul\":16026:16030   */\n      0x20\n        /* \"#utility.yul\":16013:16030   */\n      swap1\n      pop\n        /* \"#utility.yul\":16058:16060   */\n      0x1f\n        /* \"#utility.yul\":16050:16056   */\n      dup4\n        /* \"#utility.yul\":16047:16061   */\n      gt\n        /* \"#utility.yul\":16075:16076   */\n      0x01\n        /* \"#utility.yul\":16070:16688   */\n      dup2\n      eq\n      tag_319\n      jumpi\n        /* \"#utility.yul\":16732:16733   */\n      0x00\n        /* \"#utility.yul\":16749:16755   */\n      dup5\n        /* \"#utility.yul\":16746:16823   */\n      iszero\n      tag_320\n      jumpi\n        /* \"#utility.yul\":16798:16807   */\n      dup3\n        /* \"#utility.yul\":16793:16796   */\n      dup8\n        /* \"#utility.yul\":16789:16808   */\n      add\n        /* \"#utility.yul\":16783:16809   */\n      mload\n        /* \"#utility.yul\":16774:16809   */\n      swap1\n      pop\n        /* \"#utility.yul\":16746:16823   */\n    tag_320:\n        /* \"#utility.yul\":16849:16916   */\n      tag_321\n        /* \"#utility.yul\":16909:16915   */\n      dup6\n        /* \"#utility.yul\":16902:16907   */\n      dup3\n        /* \"#utility.yul\":16849:16916   */\n      tag_152\n      jump\t// in\n    tag_321:\n        /* \"#utility.yul\":16843:16847   */\n      dup7\n        /* \"#utility.yul\":16836:16917   */\n      sstore\n        /* \"#utility.yul\":16705:16927   */\n      pop\n        /* \"#utility.yul\":16040:16927   */\n      jump(tag_318)\n        /* \"#utility.yul\":16070:16688   */\n    tag_319:\n        /* \"#utility.yul\":16122:16126   */\n      0x1f\n        /* \"#utility.yul\":16118:16127   */\n      not\n        /* \"#utility.yul\":16110:16116   */\n      dup5\n        /* \"#utility.yul\":16106:16128   */\n      and\n        /* \"#utility.yul\":16156:16193   */\n      tag_322\n        /* \"#utility.yul\":16188:16192   */\n      dup7\n        /* \"#utility.yul\":16156:16193   */\n      tag_138\n      jump\t// in\n    tag_322:\n        /* \"#utility.yul\":16215:16216   */\n      0x00\n        /* \"#utility.yul\":16229:16437   */\n    tag_323:\n        /* \"#utility.yul\":16243:16250   */\n      dup3\n        /* \"#utility.yul\":16240:16241   */\n      dup2\n        /* \"#utility.yul\":16237:16251   */\n      lt\n        /* \"#utility.yul\":16229:16437   */\n      iszero\n      tag_325\n      jumpi\n        /* \"#utility.yul\":16322:16331   */\n      dup5\n        /* \"#utility.yul\":16317:16320   */\n      dup10\n        /* \"#utility.yul\":16313:16332   */\n      add\n        /* \"#utility.yul\":16307:16333   */\n      mload\n        /* \"#utility.yul\":16299:16305   */\n      dup3\n        /* \"#utility.yul\":16292:16334   */\n      sstore\n        /* \"#utility.yul\":16373:16374   */\n      0x01\n        /* \"#utility.yul\":16365:16371   */\n      dup3\n        /* \"#utility.yul\":16361:16375   */\n      add\n        /* \"#utility.yul\":16351:16375   */\n      swap2\n      pop\n        /* \"#utility.yul\":16420:16422   */\n      0x20\n        /* \"#utility.yul\":16409:16418   */\n      dup6\n        /* \"#utility.yul\":16405:16423   */\n      add\n        /* \"#utility.yul\":16392:16423   */\n      swap5\n      pop\n        /* \"#utility.yul\":16266:16270   */\n      0x20\n        /* \"#utility.yul\":16263:16264   */\n      dup2\n        /* \"#utility.yul\":16259:16271   */\n      add\n        /* \"#utility.yul\":16254:16271   */\n      swap1\n      pop\n        /* \"#utility.yul\":16229:16437   */\n      jump(tag_323)\n    tag_325:\n        /* \"#utility.yul\":16465:16471   */\n      dup7\n        /* \"#utility.yul\":16456:16463   */\n      dup4\n        /* \"#utility.yul\":16453:16472   */\n      lt\n        /* \"#utility.yul\":16450:16629   */\n      iszero\n      tag_326\n      jumpi\n        /* \"#utility.yul\":16523:16532   */\n      dup5\n        /* \"#utility.yul\":16518:16521   */\n      dup10\n        /* \"#utility.yul\":16514:16533   */\n      add\n        /* \"#utility.yul\":16508:16534   */\n      mload\n        /* \"#utility.yul\":16566:16614   */\n      tag_327\n        /* \"#utility.yul\":16608:16612   */\n      0x1f\n        /* \"#utility.yul\":16600:16606   */\n      dup10\n        /* \"#utility.yul\":16596:16613   */\n      and\n        /* \"#utility.yul\":16585:16594   */\n      dup3\n        /* \"#utility.yul\":16566:16614   */\n      tag_151\n      jump\t// in\n    tag_327:\n        /* \"#utility.yul\":16558:16564   */\n      dup4\n        /* \"#utility.yul\":16551:16615   */\n      sstore\n        /* \"#utility.yul\":16473:16629   */\n      pop\n        /* \"#utility.yul\":16450:16629   */\n    tag_326:\n        /* \"#utility.yul\":16675:16676   */\n      0x01\n        /* \"#utility.yul\":16671:16672   */\n      0x02\n        /* \"#utility.yul\":16663:16669   */\n      dup9\n        /* \"#utility.yul\":16659:16673   */\n      mul\n        /* \"#utility.yul\":16655:16677   */\n      add\n        /* \"#utility.yul\":16649:16653   */\n      dup9\n        /* \"#utility.yul\":16642:16678   */\n      sstore\n        /* \"#utility.yul\":16077:16688   */\n      pop\n      pop\n      pop\n        /* \"#utility.yul\":16040:16927   */\n    tag_318:\n      pop\n        /* \"#utility.yul\":15630:16933   */\n      pop\n      pop\n      pop\n        /* \"#utility.yul\":15538:16933   */\n      pop\n      pop\n      jump\t// out\n\n    auxdata: 0xa2646970667358221220de8c9ba1eb48db87807c30269318276f0ae14da594ebc76a6fda5cf9e01ddda164736f6c634300081a0033\n}\n",
				"bytecode": {
					"linkReferences": {},
					"object": "6080604052348015600e575f80fd5b50610e998061001c5f395ff3fe608060405234801561000f575f80fd5b5060043610610060575f3560e01c806321055acb14610064578063642f91631461008257806385b52395146100b2578063b8ca2d19146100d0578063c1bea1db146100f0578063e9e309271461010c575b5f80fd5b61006c61012a565b60405161007991906105ce565b60405180910390f35b61009c60048036038101906100979190610622565b61014c565b6040516100a99190610719565b60405180910390f35b6100ba610234565b6040516100c791906105ce565b60405180910390f35b6100d861028c565b6040516100e793929190610781565b60405180910390f35b61010a600480360381019061010591906108e9565b610428565b005b610114610499565b6040516101219190610a5d565b60405180910390f35b5f80610134610234565b90505f80549050816101469190610ad7565b91505090565b610154610597565b5f6001836101629190610b07565b8154811061017357610172610b3a565b5b905f5260205f2090600302016040518060600160405290815f82015481526020016001820180546101a390610b94565b80601f01602080910402602001604051908101604052809291908181526020018280546101cf90610b94565b801561021a5780601f106101f15761010080835404028352916020019161021a565b820191905f5260205f20905b8154815290600101906020018083116101fd57829003601f168201915b505050505081526020016002820154815250509050919050565b5f805f90505f5b5f80549050811015610284575f818154811061025a57610259610b3a565b5b905f5260205f20906003020160020154826102759190610bc4565b9150808060010191505061023b565b508091505090565b5f60605f805f80815481106102a4576102a3610b3a565b5b905f5260205f2090600302016002015490505f80600190505b5f8054905081101561032957825f82815481106102dd576102dc610b3a565b5b905f5260205f20906003020160020154101561031c575f818154811061030657610305610b3a565b5b905f5260205f2090600302016002015492508091505b80806001019150506102bd565b505f818154811061033d5761033c610b3a565b5b905f5260205f2090600302015f01545f828154811061035f5761035e610b3a565b5b905f5260205f2090600302016001015f838154811061038157610380610b3a565b5b905f5260205f2090600302016002015481805461039d90610b94565b80601f01602080910402602001604051908101604052809291908181526020018280546103c990610b94565b80156104145780601f106103eb57610100808354040283529160200191610414565b820191905f5260205f20905b8154815290600101906020018083116103f757829003601f168201915b505050505091509450945094505050909192565b5f604051806060016040528085815260200184815260200183815250908060018154018082558091505060019003905f5260205f2090600302015f909190919091505f820151815f015560208201518160010190816104879190610d94565b50604082015181600201555050505050565b60605f805480602002602001604051908101604052809291908181526020015f905b8282101561058e578382905f5260205f2090600302016040518060600160405290815f82015481526020016001820180546104f590610b94565b80601f016020809104026020016040519081016040528092919081815260200182805461052190610b94565b801561056c5780601f106105435761010080835404028352916020019161056c565b820191905f5260205f20905b81548152906001019060200180831161054f57829003601f168201915b50505050508152602001600282015481525050815260200190600101906104bb565b50505050905090565b60405180606001604052805f8152602001606081526020015f81525090565b5f819050919050565b6105c8816105b6565b82525050565b5f6020820190506105e15f8301846105bf565b92915050565b5f604051905090565b5f80fd5b5f80fd5b610601816105b6565b811461060b575f80fd5b50565b5f8135905061061c816105f8565b92915050565b5f60208284031215610637576106366105f0565b5b5f6106448482850161060e565b91505092915050565b610656816105b6565b82525050565b5f81519050919050565b5f82825260208201905092915050565b8281835e5f83830152505050565b5f601f19601f8301169050919050565b5f61069e8261065c565b6106a88185610666565b93506106b8818560208601610676565b6106c181610684565b840191505092915050565b5f606083015f8301516106e15f86018261064d565b50602083015184820360208601526106f98282610694565b915050604083015161070e604086018261064d565b508091505092915050565b5f6020820190508181035f83015261073181846106cc565b905092915050565b5f82825260208201905092915050565b5f6107538261065c565b61075d8185610739565b935061076d818560208601610676565b61077681610684565b840191505092915050565b5f6060820190506107945f8301866105bf565b81810360208301526107a68185610749565b90506107b560408301846105bf565b949350505050565b5f80fd5b5f80fd5b7f4e487b71000000000000000000000000000000000000000000000000000000005f52604160045260245ffd5b6107fb82610684565b810181811067ffffffffffffffff8211171561081a576108196107c5565b5b80604052505050565b5f61082c6105e7565b905061083882826107f2565b919050565b5f67ffffffffffffffff821115610857576108566107c5565b5b61086082610684565b9050602081019050919050565b828183375f83830152505050565b5f61088d6108888461083d565b610823565b9050828152602081018484840111156108a9576108a86107c1565b5b6108b484828561086d565b509392505050565b5f82601f8301126108d0576108cf6107bd565b5b81356108e084826020860161087b565b91505092915050565b5f805f60608486031215610900576108ff6105f0565b5b5f61090d8682870161060e565b935050602084013567ffffffffffffffff81111561092e5761092d6105f4565b5b61093a868287016108bc565b925050604061094b8682870161060e565b9150509250925092565b5f81519050919050565b5f82825260208201905092915050565b5f819050602082019050919050565b5f606083015f8301516109935f86018261064d565b50602083015184820360208601526109ab8282610694565b91505060408301516109c0604086018261064d565b508091505092915050565b5f6109d6838361097e565b905092915050565b5f602082019050919050565b5f6109f482610955565b6109fe818561095f565b935083602082028501610a108561096f565b805f5b85811015610a4b5784840389528151610a2c85826109cb565b9450610a37836109de565b925060208a01995050600181019050610a13565b50829750879550505050505092915050565b5f6020820190508181035f830152610a7581846109ea565b905092915050565b7f4e487b71000000000000000000000000000000000000000000000000000000005f52601260045260245ffd5b7f4e487b71000000000000000000000000000000000000000000000000000000005f52601160045260245ffd5b5f610ae1826105b6565b9150610aec836105b6565b925082610afc57610afb610a7d565b5b828204905092915050565b5f610b11826105b6565b9150610b1c836105b6565b9250828203905081811115610b3457610b33610aaa565b5b92915050565b7f4e487b71000000000000000000000000000000000000000000000000000000005f52603260045260245ffd5b7f4e487b71000000000000000000000000000000000000000000000000000000005f52602260045260245ffd5b5f6002820490506001821680610bab57607f821691505b602082108103610bbe57610bbd610b67565b5b50919050565b5f610bce826105b6565b9150610bd9836105b6565b9250828201905080821115610bf157610bf0610aaa565b5b92915050565b5f819050815f5260205f209050919050565b5f6020601f8301049050919050565b5f82821b905092915050565b5f60088302610c537fffffffffffffffffffffffffffffffffffffffffffffffffffffffffffffffff82610c18565b610c5d8683610c18565b95508019841693508086168417925050509392505050565b5f819050919050565b5f610c98610c93610c8e846105b6565b610c75565b6105b6565b9050919050565b5f819050919050565b610cb183610c7e565b610cc5610cbd82610c9f565b848454610c24565b825550505050565b5f90565b610cd9610ccd565b610ce4818484610ca8565b505050565b5b81811015610d0757610cfc5f82610cd1565b600181019050610cea565b5050565b601f821115610d4c57610d1d81610bf7565b610d2684610c09565b81016020851015610d35578190505b610d49610d4185610c09565b830182610ce9565b50505b505050565b5f82821c905092915050565b5f610d6c5f1984600802610d51565b1980831691505092915050565b5f610d848383610d5d565b9150826002028217905092915050565b610d9d8261065c565b67ffffffffffffffff811115610db657610db56107c5565b5b610dc08254610b94565b610dcb828285610d0b565b5f60209050601f831160018114610dfc575f8415610dea578287015190505b610df48582610d79565b865550610e5b565b601f198416610e0a86610bf7565b5f5b82811015610e3157848901518255600182019150602085019450602081019050610e0c565b86831015610e4e5784890151610e4a601f891682610d5d565b8355505b6001600288020188555050505b50505050505056fea2646970667358221220de8c9ba1eb48db87807c30269318276f0ae14da594ebc76a6fda5cf9e01ddda164736f6c634300081a0033",
					"opcodes": "PUSH1 0x80 PUSH1 0x40 MSTORE CALLVALUE DUP1 ISZERO PUSH1 0xE JUMPI PUSH0 DUP1 REVERT JUMPDEST POP PUSH2 0xE99 DUP1 PUSH2 0x1C PUSH0 CODECOPY PUSH0 RETURN INVALID PUSH1 0x80 PUSH1 0x40 MSTORE CALLVALUE DUP1 ISZERO PUSH2 0xF JUMPI PUSH0 DUP1 REVERT JUMPDEST POP PUSH1 0x4 CALLDATASIZE LT PUSH2 0x60 JUMPI PUSH0 CALLDATALOAD PUSH1 0xE0 SHR DUP1 PUSH4 0x21055ACB EQ PUSH2 0x64 JUMPI DUP1 PUSH4 0x642F9163 EQ PUSH2 0x82 JUMPI DUP1 PUSH4 0x85B52395 EQ PUSH2 0xB2 JUMPI DUP1 PUSH4 0xB8CA2D19 EQ PUSH2 0xD0 JUMPI DUP1 PUSH4 0xC1BEA1DB EQ PUSH2 0xF0 JUMPI DUP1 PUSH4 0xE9E30927 EQ PUSH2 0x10C JUMPI JUMPDEST PUSH0 DUP1 REVERT JUMPDEST PUSH2 0x6C PUSH2 0x12A JUMP JUMPDEST PUSH1 0x40 MLOAD PUSH2 0x79 SWAP2 SWAP1 PUSH2 0x5CE JUMP JUMPDEST PUSH1 0x40 MLOAD DUP1 SWAP2 SUB SWAP1 RETURN JUMPDEST PUSH2 0x9C PUSH1 0x4 DUP1 CALLDATASIZE SUB DUP2 ADD SWAP1 PUSH2 0x97 SWAP2 SWAP1 PUSH2 0x622 JUMP JUMPDEST PUSH2 0x14C JUMP JUMPDEST PUSH1 0x40 MLOAD PUSH2 0xA9 SWAP2 SWAP1 PUSH2 0x719 JUMP JUMPDEST PUSH1 0x40 MLOAD DUP1 SWAP2 SUB SWAP1 RETURN JUMPDEST PUSH2 0xBA PUSH2 0x234 JUMP JUMPDEST PUSH1 0x40 MLOAD PUSH2 0xC7 SWAP2 SWAP1 PUSH2 0x5CE JUMP JUMPDEST PUSH1 0x40 MLOAD DUP1 SWAP2 SUB SWAP1 RETURN JUMPDEST PUSH2 0xD8 PUSH2 0x28C JUMP JUMPDEST PUSH1 0x40 MLOAD PUSH2 0xE7 SWAP4 SWAP3 SWAP2 SWAP1 PUSH2 0x781 JUMP JUMPDEST PUSH1 0x40 MLOAD DUP1 SWAP2 SUB SWAP1 RETURN JUMPDEST PUSH2 0x10A PUSH1 0x4 DUP1 CALLDATASIZE SUB DUP2 ADD SWAP1 PUSH2 0x105 SWAP2 SWAP1 PUSH2 0x8E9 JUMP JUMPDEST PUSH2 0x428 JUMP JUMPDEST STOP JUMPDEST PUSH2 0x114 PUSH2 0x499 JUMP JUMPDEST PUSH1 0x40 MLOAD PUSH2 0x121 SWAP2 SWAP1 PUSH2 0xA5D JUMP JUMPDEST PUSH1 0x40 MLOAD DUP1 SWAP2 SUB SWAP1 RETURN JUMPDEST PUSH0 DUP1 PUSH2 0x134 PUSH2 0x234 JUMP JUMPDEST SWAP1 POP PUSH0 DUP1 SLOAD SWAP1 POP DUP2 PUSH2 0x146 SWAP2 SWAP1 PUSH2 0xAD7 JUMP JUMPDEST SWAP2 POP POP SWAP1 JUMP JUMPDEST PUSH2 0x154 PUSH2 0x597 JUMP JUMPDEST PUSH0 PUSH1 0x1 DUP4 PUSH2 0x162 SWAP2 SWAP1 PUSH2 0xB07 JUMP JUMPDEST DUP2 SLOAD DUP2 LT PUSH2 0x173 JUMPI PUSH2 0x172 PUSH2 0xB3A JUMP JUMPDEST JUMPDEST SWAP1 PUSH0 MSTORE PUSH1 0x20 PUSH0 KECCAK256 SWAP1 PUSH1 0x3 MUL ADD PUSH1 0x40 MLOAD DUP1 PUSH1 0x60 ADD PUSH1 0x40 MSTORE SWAP1 DUP2 PUSH0 DUP3 ADD SLOAD DUP2 MSTORE PUSH1 0x20 ADD PUSH1 0x1 DUP3 ADD DUP1 SLOAD PUSH2 0x1A3 SWAP1 PUSH2 0xB94 JUMP JUMPDEST DUP1 PUSH1 0x1F ADD PUSH1 0x20 DUP1 SWAP2 DIV MUL PUSH1 0x20 ADD PUSH1 0x40 MLOAD SWAP1 DUP2 ADD PUSH1 0x40 MSTORE DUP1 SWAP3 SWAP2 SWAP1 DUP2 DUP2 MSTORE PUSH1 0x20 ADD DUP3 DUP1 SLOAD PUSH2 0x1CF SWAP1 PUSH2 0xB94 JUMP JUMPDEST DUP1 ISZERO PUSH2 0x21A JUMPI DUP1 PUSH1 0x1F LT PUSH2 0x1F1 JUMPI PUSH2 0x100 DUP1 DUP4 SLOAD DIV MUL DUP4 MSTORE SWAP2 PUSH1 0x20 ADD SWAP2 PUSH2 0x21A JUMP JUMPDEST DUP3 ADD SWAP2 SWAP1 PUSH0 MSTORE PUSH1 0x20 PUSH0 KECCAK256 SWAP1 JUMPDEST DUP2 SLOAD DUP2 MSTORE SWAP1 PUSH1 0x1 ADD SWAP1 PUSH1 0x20 ADD DUP1 DUP4 GT PUSH2 0x1FD JUMPI DUP3 SWAP1 SUB PUSH1 0x1F AND DUP3 ADD SWAP2 JUMPDEST POP POP POP POP POP DUP2 MSTORE PUSH1 0x20 ADD PUSH1 0x2 DUP3 ADD SLOAD DUP2 MSTORE POP POP SWAP1 POP SWAP2 SWAP1 POP JUMP JUMPDEST PUSH0 DUP1 PUSH0 SWAP1 POP PUSH0 JUMPDEST PUSH0 DUP1 SLOAD SWAP1 POP DUP2 LT ISZERO PUSH2 0x284 JUMPI PUSH0 DUP2 DUP2 SLOAD DUP2 LT PUSH2 0x25A JUMPI PUSH2 0x259 PUSH2 0xB3A JUMP JUMPDEST JUMPDEST SWAP1 PUSH0 MSTORE PUSH1 0x20 PUSH0 KECCAK256 SWAP1 PUSH1 0x3 MUL ADD PUSH1 0x2 ADD SLOAD DUP3 PUSH2 0x275 SWAP2 SWAP1 PUSH2 0xBC4 JUMP JUMPDEST SWAP2 POP DUP1 DUP1 PUSH1 0x1 ADD SWAP2 POP POP PUSH2 0x23B JUMP JUMPDEST POP DUP1 SWAP2 POP POP SWAP1 JUMP JUMPDEST PUSH0 PUSH1 0x60 PUSH0 DUP1 PUSH0 DUP1 DUP2 SLOAD DUP2 LT PUSH2 0x2A4 JUMPI PUSH2 0x2A3 PUSH2 0xB3A JUMP JUMPDEST JUMPDEST SWAP1 PUSH0 MSTORE PUSH1 0x20 PUSH0 KECCAK256 SWAP1 PUSH1 0x3 MUL ADD PUSH1 0x2 ADD SLOAD SWAP1 POP PUSH0 DUP1 PUSH1 0x1 SWAP1 POP JUMPDEST PUSH0 DUP1 SLOAD SWAP1 POP DUP2 LT ISZERO PUSH2 0x329 JUMPI DUP3 PUSH0 DUP3 DUP2 SLOAD DUP2 LT PUSH2 0x2DD JUMPI PUSH2 0x2DC PUSH2 0xB3A JUMP JUMPDEST JUMPDEST SWAP1 PUSH0 MSTORE PUSH1 0x20 PUSH0 KECCAK256 SWAP1 PUSH1 0x3 MUL ADD PUSH1 0x2 ADD SLOAD LT ISZERO PUSH2 0x31C JUMPI PUSH0 DUP2 DUP2 SLOAD DUP2 LT PUSH2 0x306 JUMPI PUSH2 0x305 PUSH2 0xB3A JUMP JUMPDEST JUMPDEST SWAP1 PUSH0 MSTORE PUSH1 0x20 PUSH0 KECCAK256 SWAP1 PUSH1 0x3 MUL ADD PUSH1 0x2 ADD SLOAD SWAP3 POP DUP1 SWAP2 POP JUMPDEST DUP1 DUP1 PUSH1 0x1 ADD SWAP2 POP POP PUSH2 0x2BD JUMP JUMPDEST POP PUSH0 DUP2 DUP2 SLOAD DUP2 LT PUSH2 0x33D JUMPI PUSH2 0x33C PUSH2 0xB3A JUMP JUMPDEST JUMPDEST SWAP1 PUSH0 MSTORE PUSH1 0x20 PUSH0 KECCAK256 SWAP1 PUSH1 0x3 MUL ADD PUSH0 ADD SLOAD PUSH0 DUP3 DUP2 SLOAD DUP2 LT PUSH2 0x35F JUMPI PUSH2 0x35E PUSH2 0xB3A JUMP JUMPDEST JUMPDEST SWAP1 PUSH0 MSTORE PUSH1 0x20 PUSH0 KECCAK256 SWAP1 PUSH1 0x3 MUL ADD PUSH1 0x1 ADD PUSH0 DUP4 DUP2 SLOAD DUP2 LT PUSH2 0x381 JUMPI PUSH2 0x380 PUSH2 0xB3A JUMP JUMPDEST JUMPDEST SWAP1 PUSH0 MSTORE PUSH1 0x20 PUSH0 KECCAK256 SWAP1 PUSH1 0x3 MUL ADD PUSH1 0x2 ADD SLOAD DUP2 DUP1 SLOAD PUSH2 0x39D SWAP1 PUSH2 0xB94 JUMP JUMPDEST DUP1 PUSH1 0x1F ADD PUSH1 0x20 DUP1 SWAP2 DIV MUL PUSH1 0x20 ADD PUSH1 0x40 MLOAD SWAP1 DUP2 ADD PUSH1 0x40 MSTORE DUP1 SWAP3 SWAP2 SWAP1 DUP2 DUP2 MSTORE PUSH1 0x20 ADD DUP3 DUP1 SLOAD PUSH2 0x3C9 SWAP1 PUSH2 0xB94 JUMP JUMPDEST DUP1 ISZERO PUSH2 0x414 JUMPI DUP1 PUSH1 0x1F LT PUSH2 0x3EB JUMPI PUSH2 0x100 DUP1 DUP4 SLOAD DIV MUL DUP4 MSTORE SWAP2 PUSH1 0x20 ADD SWAP2 PUSH2 0x414 JUMP JUMPDEST DUP3 ADD SWAP2 SWAP1 PUSH0 MSTORE PUSH1 0x20 PUSH0 KECCAK256 SWAP1 JUMPDEST DUP2 SLOAD DUP2 MSTORE SWAP1 PUSH1 0x1 ADD SWAP1 PUSH1 0x20 ADD DUP1 DUP4 GT PUSH2 0x3F7 JUMPI DUP3 SWAP1 SUB PUSH1 0x1F AND DUP3 ADD SWAP2 JUMPDEST POP POP POP POP POP SWAP2 POP SWAP5 POP SWAP5 POP SWAP5 POP POP POP SWAP1 SWAP2 SWAP3 JUMP JUMPDEST PUSH0 PUSH1 0x40 MLOAD DUP1 PUSH1 0x60 ADD PUSH1 0x40 MSTORE DUP1 DUP6 DUP2 MSTORE PUSH1 0x20 ADD DUP5 DUP2 MSTORE PUSH1 0x20 ADD DUP4 DUP2 MSTORE POP SWAP1 DUP1 PUSH1 0x1 DUP2 SLOAD ADD DUP1 DUP3 SSTORE DUP1 SWAP2 POP POP PUSH1 0x1 SWAP1 SUB SWAP1 PUSH0 MSTORE PUSH1 0x20 PUSH0 KECCAK256 SWAP1 PUSH1 0x3 MUL ADD PUSH0 SWAP1 SWAP2 SWAP1 SWAP2 SWAP1 SWAP2 POP PUSH0 DUP3 ADD MLOAD DUP2 PUSH0 ADD SSTORE PUSH1 0x20 DUP3 ADD MLOAD DUP2 PUSH1 0x1 ADD SWAP1 DUP2 PUSH2 0x487 SWAP2 SWAP1 PUSH2 0xD94 JUMP JUMPDEST POP PUSH1 0x40 DUP3 ADD MLOAD DUP2 PUSH1 0x2 ADD SSTORE POP POP POP POP POP JUMP JUMPDEST PUSH1 0x60 PUSH0 DUP1 SLOAD DUP1 PUSH1 0x20 MUL PUSH1 0x20 ADD PUSH1 0x40 MLOAD SWAP1 DUP2 ADD PUSH1 0x40 MSTORE DUP1 SWAP3 SWAP2 SWAP1 DUP2 DUP2 MSTORE PUSH1 0x20 ADD PUSH0 SWAP1 JUMPDEST DUP3 DUP3 LT ISZERO PUSH2 0x58E JUMPI DUP4 DUP3 SWAP1 PUSH0 MSTORE PUSH1 0x20 PUSH0 KECCAK256 SWAP1 PUSH1 0x3 MUL ADD PUSH1 0x40 MLOAD DUP1 PUSH1 0x60 ADD PUSH1 0x40 MSTORE SWAP1 DUP2 PUSH0 DUP3 ADD SLOAD DUP2 MSTORE PUSH1 0x20 ADD PUSH1 0x1 DUP3 ADD DUP1 SLOAD PUSH2 0x4F5 SWAP1 PUSH2 0xB94 JUMP JUMPDEST DUP1 PUSH1 0x1F ADD PUSH1 0x20 DUP1 SWAP2 DIV MUL PUSH1 0x20 ADD PUSH1 0x40 MLOAD SWAP1 DUP2 ADD PUSH1 0x40 MSTORE DUP1 SWAP3 SWAP2 SWAP1 DUP2 DUP2 MSTORE PUSH1 0x20 ADD DUP3 DUP1 SLOAD PUSH2 0x521 SWAP1 PUSH2 0xB94 JUMP JUMPDEST DUP1 ISZERO PUSH2 0x56C JUMPI DUP1 PUSH1 0x1F LT PUSH2 0x543 JUMPI PUSH2 0x100 DUP1 DUP4 SLOAD DIV MUL DUP4 MSTORE SWAP2 PUSH1 0x20 ADD SWAP2 PUSH2 0x56C JUMP JUMPDEST DUP3 ADD SWAP2 SWAP1 PUSH0 MSTORE PUSH1 0x20 PUSH0 KECCAK256 SWAP1 JUMPDEST DUP2 SLOAD DUP2 MSTORE SWAP1 PUSH1 0x1 ADD SWAP1 PUSH1 0x20 ADD DUP1 DUP4 GT PUSH2 0x54F JUMPI DUP3 SWAP1 SUB PUSH1 0x1F AND DUP3 ADD SWAP2 JUMPDEST POP POP POP POP POP DUP2 MSTORE PUSH1 0x20 ADD PUSH1 0x2 DUP3 ADD SLOAD DUP2 MSTORE POP POP DUP2 MSTORE PUSH1 0x20 ADD SWAP1 PUSH1 0x1 ADD SWAP1 PUSH2 0x4BB JUMP JUMPDEST POP POP POP POP SWAP1 POP SWAP1 JUMP JUMPDEST PUSH1 0x40 MLOAD DUP1 PUSH1 0x60 ADD PUSH1 0x40 MSTORE DUP1 PUSH0 DUP2 MSTORE PUSH1 0x20 ADD PUSH1 0x60 DUP2 MSTORE PUSH1 0x20 ADD PUSH0 DUP2 MSTORE POP SWAP1 JUMP JUMPDEST PUSH0 DUP2 SWAP1 POP SWAP2 SWAP1 POP JUMP JUMPDEST PUSH2 0x5C8 DUP2 PUSH2 0x5B6 JUMP JUMPDEST DUP3 MSTORE POP POP JUMP JUMPDEST PUSH0 PUSH1 0x20 DUP3 ADD SWAP1 POP PUSH2 0x5E1 PUSH0 DUP4 ADD DUP5 PUSH2 0x5BF JUMP JUMPDEST SWAP3 SWAP2 POP POP JUMP JUMPDEST PUSH0 PUSH1 0x40 MLOAD SWAP1 POP SWAP1 JUMP JUMPDEST PUSH0 DUP1 REVERT JUMPDEST PUSH0 DUP1 REVERT JUMPDEST PUSH2 0x601 DUP2 PUSH2 0x5B6 JUMP JUMPDEST DUP2 EQ PUSH2 0x60B JUMPI PUSH0 DUP1 REVERT JUMPDEST POP JUMP JUMPDEST PUSH0 DUP2 CALLDATALOAD SWAP1 POP PUSH2 0x61C DUP2 PUSH2 0x5F8 JUMP JUMPDEST SWAP3 SWAP2 POP POP JUMP JUMPDEST PUSH0 PUSH1 0x20 DUP3 DUP5 SUB SLT ISZERO PUSH2 0x637 JUMPI PUSH2 0x636 PUSH2 0x5F0 JUMP JUMPDEST JUMPDEST PUSH0 PUSH2 0x644 DUP5 DUP3 DUP6 ADD PUSH2 0x60E JUMP JUMPDEST SWAP2 POP POP SWAP3 SWAP2 POP POP JUMP JUMPDEST PUSH2 0x656 DUP2 PUSH2 0x5B6 JUMP JUMPDEST DUP3 MSTORE POP POP JUMP JUMPDEST PUSH0 DUP2 MLOAD SWAP1 POP SWAP2 SWAP1 POP JUMP JUMPDEST PUSH0 DUP3 DUP3 MSTORE PUSH1 0x20 DUP3 ADD SWAP1 POP SWAP3 SWAP2 POP POP JUMP JUMPDEST DUP3 DUP2 DUP4 MCOPY PUSH0 DUP4 DUP4 ADD MSTORE POP POP POP JUMP JUMPDEST PUSH0 PUSH1 0x1F NOT PUSH1 0x1F DUP4 ADD AND SWAP1 POP SWAP2 SWAP1 POP JUMP JUMPDEST PUSH0 PUSH2 0x69E DUP3 PUSH2 0x65C JUMP JUMPDEST PUSH2 0x6A8 DUP2 DUP6 PUSH2 0x666 JUMP JUMPDEST SWAP4 POP PUSH2 0x6B8 DUP2 DUP6 PUSH1 0x20 DUP7 ADD PUSH2 0x676 JUMP JUMPDEST PUSH2 0x6C1 DUP2 PUSH2 0x684 JUMP JUMPDEST DUP5 ADD SWAP2 POP POP SWAP3 SWAP2 POP POP JUMP JUMPDEST PUSH0 PUSH1 0x60 DUP4 ADD PUSH0 DUP4 ADD MLOAD PUSH2 0x6E1 PUSH0 DUP7 ADD DUP3 PUSH2 0x64D JUMP JUMPDEST POP PUSH1 0x20 DUP4 ADD MLOAD DUP5 DUP3 SUB PUSH1 0x20 DUP7 ADD MSTORE PUSH2 0x6F9 DUP3 DUP3 PUSH2 0x694 JUMP JUMPDEST SWAP2 POP POP PUSH1 0x40 DUP4 ADD MLOAD PUSH2 0x70E PUSH1 0x40 DUP7 ADD DUP3 PUSH2 0x64D JUMP JUMPDEST POP DUP1 SWAP2 POP POP SWAP3 SWAP2 POP POP JUMP JUMPDEST PUSH0 PUSH1 0x20 DUP3 ADD SWAP1 POP DUP2 DUP2 SUB PUSH0 DUP4 ADD MSTORE PUSH2 0x731 DUP2 DUP5 PUSH2 0x6CC JUMP JUMPDEST SWAP1 POP SWAP3 SWAP2 POP POP JUMP JUMPDEST PUSH0 DUP3 DUP3 MSTORE PUSH1 0x20 DUP3 ADD SWAP1 POP SWAP3 SWAP2 POP POP JUMP JUMPDEST PUSH0 PUSH2 0x753 DUP3 PUSH2 0x65C JUMP JUMPDEST PUSH2 0x75D DUP2 DUP6 PUSH2 0x739 JUMP JUMPDEST SWAP4 POP PUSH2 0x76D DUP2 DUP6 PUSH1 0x20 DUP7 ADD PUSH2 0x676 JUMP JUMPDEST PUSH2 0x776 DUP2 PUSH2 0x684 JUMP JUMPDEST DUP5 ADD SWAP2 POP POP SWAP3 SWAP2 POP POP JUMP JUMPDEST PUSH0 PUSH1 0x60 DUP3 ADD SWAP1 POP PUSH2 0x794 PUSH0 DUP4 ADD DUP7 PUSH2 0x5BF JUMP JUMPDEST DUP2 DUP2 SUB PUSH1 0x20 DUP4 ADD MSTORE PUSH2 0x7A6 DUP2 DUP6 PUSH2 0x749 JUMP JUMPDEST SWAP1 POP PUSH2 0x7B5 PUSH1 0x40 DUP4 ADD DUP5 PUSH2 0x5BF JUMP JUMPDEST SWAP5 SWAP4 POP POP POP POP JUMP JUMPDEST PUSH0 DUP1 REVERT JUMPDEST PUSH0 DUP1 REVERT JUMPDEST PUSH32 0x4E487B7100000000000000000000000000000000000000000000000000000000 PUSH0 MSTORE PUSH1 0x41 PUSH1 0x4 MSTORE PUSH1 0x24 PUSH0 REVERT JUMPDEST PUSH2 0x7FB DUP3 PUSH2 0x684 JUMP JUMPDEST DUP2 ADD DUP2 DUP2 LT PUSH8 0xFFFFFFFFFFFFFFFF DUP3 GT OR ISZERO PUSH2 0x81A JUMPI PUSH2 0x819 PUSH2 0x7C5 JUMP JUMPDEST JUMPDEST DUP1 PUSH1 0x40 MSTORE POP POP POP JUMP JUMPDEST PUSH0 PUSH2 0x82C PUSH2 0x5E7 JUMP JUMPDEST SWAP1 POP PUSH2 0x838 DUP3 DUP3 PUSH2 0x7F2 JUMP JUMPDEST SWAP2 SWAP1 POP JUMP JUMPDEST PUSH0 PUSH8 0xFFFFFFFFFFFFFFFF DUP3 GT ISZERO PUSH2 0x857 JUMPI PUSH2 0x856 PUSH2 0x7C5 JUMP JUMPDEST JUMPDEST PUSH2 0x860 DUP3 PUSH2 0x684 JUMP JUMPDEST SWAP1 POP PUSH1 0x20 DUP2 ADD SWAP1 POP SWAP2 SWAP1 POP JUMP JUMPDEST DUP3 DUP2 DUP4 CALLDATACOPY PUSH0 DUP4 DUP4 ADD MSTORE POP POP POP JUMP JUMPDEST PUSH0 PUSH2 0x88D PUSH2 0x888 DUP5 PUSH2 0x83D JUMP JUMPDEST PUSH2 0x823 JUMP JUMPDEST SWAP1 POP DUP3 DUP2 MSTORE PUSH1 0x20 DUP2 ADD DUP5 DUP5 DUP5 ADD GT ISZERO PUSH2 0x8A9 JUMPI PUSH2 0x8A8 PUSH2 0x7C1 JUMP JUMPDEST JUMPDEST PUSH2 0x8B4 DUP5 DUP3 DUP6 PUSH2 0x86D JUMP JUMPDEST POP SWAP4 SWAP3 POP POP POP JUMP JUMPDEST PUSH0 DUP3 PUSH1 0x1F DUP4 ADD SLT PUSH2 0x8D0 JUMPI PUSH2 0x8CF PUSH2 0x7BD JUMP JUMPDEST JUMPDEST DUP2 CALLDATALOAD PUSH2 0x8E0 DUP5 DUP3 PUSH1 0x20 DUP7 ADD PUSH2 0x87B JUMP JUMPDEST SWAP2 POP POP SWAP3 SWAP2 POP POP JUMP JUMPDEST PUSH0 DUP1 PUSH0 PUSH1 0x60 DUP5 DUP7 SUB SLT ISZERO PUSH2 0x900 JUMPI PUSH2 0x8FF PUSH2 0x5F0 JUMP JUMPDEST JUMPDEST PUSH0 PUSH2 0x90D DUP7 DUP3 DUP8 ADD PUSH2 0x60E JUMP JUMPDEST SWAP4 POP POP PUSH1 0x20 DUP5 ADD CALLDATALOAD PUSH8 0xFFFFFFFFFFFFFFFF DUP2 GT ISZERO PUSH2 0x92E JUMPI PUSH2 0x92D PUSH2 0x5F4 JUMP JUMPDEST JUMPDEST PUSH2 0x93A DUP7 DUP3 DUP8 ADD PUSH2 0x8BC JUMP JUMPDEST SWAP3 POP POP PUSH1 0x40 PUSH2 0x94B DUP7 DUP3 DUP8 ADD PUSH2 0x60E JUMP JUMPDEST SWAP2 POP POP SWAP3 POP SWAP3 POP SWAP3 JUMP JUMPDEST PUSH0 DUP2 MLOAD SWAP1 POP SWAP2 SWAP1 POP JUMP JUMPDEST PUSH0 DUP3 DUP3 MSTORE PUSH1 0x20 DUP3 ADD SWAP1 POP SWAP3 SWAP2 POP POP JUMP JUMPDEST PUSH0 DUP2 SWAP1 POP PUSH1 0x20 DUP3 ADD SWAP1 POP SWAP2 SWAP1 POP JUMP JUMPDEST PUSH0 PUSH1 0x60 DUP4 ADD PUSH0 DUP4 ADD MLOAD PUSH2 0x993 PUSH0 DUP7 ADD DUP3 PUSH2 0x64D JUMP JUMPDEST POP PUSH1 0x20 DUP4 ADD MLOAD DUP5 DUP3 SUB PUSH1 0x20 DUP7 ADD MSTORE PUSH2 0x9AB DUP3 DUP3 PUSH2 0x694 JUMP JUMPDEST SWAP2 POP POP PUSH1 0x40 DUP4 ADD MLOAD PUSH2 0x9C0 PUSH1 0x40 DUP7 ADD DUP3 PUSH2 0x64D JUMP JUMPDEST POP DUP1 SWAP2 POP POP SWAP3 SWAP2 POP POP JUMP JUMPDEST PUSH0 PUSH2 0x9D6 DUP4 DUP4 PUSH2 0x97E JUMP JUMPDEST SWAP1 POP SWAP3 SWAP2 POP POP JUMP JUMPDEST PUSH0 PUSH1 0x20 DUP3 ADD SWAP1 POP SWAP2 SWAP1 POP JUMP JUMPDEST PUSH0 PUSH2 0x9F4 DUP3 PUSH2 0x955 JUMP JUMPDEST PUSH2 0x9FE DUP2 DUP6 PUSH2 0x95F JUMP JUMPDEST SWAP4 POP DUP4 PUSH1 0x20 DUP3 MUL DUP6 ADD PUSH2 0xA10 DUP6 PUSH2 0x96F JUMP JUMPDEST DUP1 PUSH0 JUMPDEST DUP6 DUP2 LT ISZERO PUSH2 0xA4B JUMPI DUP5 DUP5 SUB DUP10 MSTORE DUP2 MLOAD PUSH2 0xA2C DUP6 DUP3 PUSH2 0x9CB JUMP JUMPDEST SWAP5 POP PUSH2 0xA37 DUP4 PUSH2 0x9DE JUMP JUMPDEST SWAP3 POP PUSH1 0x20 DUP11 ADD SWAP10 POP POP PUSH1 0x1 DUP2 ADD SWAP1 POP PUSH2 0xA13 JUMP JUMPDEST POP DUP3 SWAP8 POP DUP8 SWAP6 POP POP POP POP POP POP SWAP3 SWAP2 POP POP JUMP JUMPDEST PUSH0 PUSH1 0x20 DUP3 ADD SWAP1 POP DUP2 DUP2 SUB PUSH0 DUP4 ADD MSTORE PUSH2 0xA75 DUP2 DUP5 PUSH2 0x9EA JUMP JUMPDEST SWAP1 POP SWAP3 SWAP2 POP POP JUMP JUMPDEST PUSH32 0x4E487B7100000000000000000000000000000000000000000000000000000000 PUSH0 MSTORE PUSH1 0x12 PUSH1 0x4 MSTORE PUSH1 0x24 PUSH0 REVERT JUMPDEST PUSH32 0x4E487B7100000000000000000000000000000000000000000000000000000000 PUSH0 MSTORE PUSH1 0x11 PUSH1 0x4 MSTORE PUSH1 0x24 PUSH0 REVERT JUMPDEST PUSH0 PUSH2 0xAE1 DUP3 PUSH2 0x5B6 JUMP JUMPDEST SWAP2 POP PUSH2 0xAEC DUP4 PUSH2 0x5B6 JUMP JUMPDEST SWAP3 POP DUP3 PUSH2 0xAFC JUMPI PUSH2 0xAFB PUSH2 0xA7D JUMP JUMPDEST JUMPDEST DUP3 DUP3 DIV SWAP1 POP SWAP3 SWAP2 POP POP JUMP JUMPDEST PUSH0 PUSH2 0xB11 DUP3 PUSH2 0x5B6 JUMP JUMPDEST SWAP2 POP PUSH2 0xB1C DUP4 PUSH2 0x5B6 JUMP JUMPDEST SWAP3 POP DUP3 DUP3 SUB SWAP1 POP DUP2 DUP2 GT ISZERO PUSH2 0xB34 JUMPI PUSH2 0xB33 PUSH2 0xAAA JUMP JUMPDEST JUMPDEST SWAP3 SWAP2 POP POP JUMP JUMPDEST PUSH32 0x4E487B7100000000000000000000000000000000000000000000000000000000 PUSH0 MSTORE PUSH1 0x32 PUSH1 0x4 MSTORE PUSH1 0x24 PUSH0 REVERT JUMPDEST PUSH32 0x4E487B7100000000000000000000000000000000000000000000000000000000 PUSH0 MSTORE PUSH1 0x22 PUSH1 0x4 MSTORE PUSH1 0x24 PUSH0 REVERT JUMPDEST PUSH0 PUSH1 0x2 DUP3 DIV SWAP1 POP PUSH1 0x1 DUP3 AND DUP1 PUSH2 0xBAB JUMPI PUSH1 0x7F DUP3 AND SWAP2 POP JUMPDEST PUSH1 0x20 DUP3 LT DUP2 SUB PUSH2 0xBBE JUMPI PUSH2 0xBBD PUSH2 0xB67 JUMP JUMPDEST JUMPDEST POP SWAP2 SWAP1 POP JUMP JUMPDEST PUSH0 PUSH2 0xBCE DUP3 PUSH2 0x5B6 JUMP JUMPDEST SWAP2 POP PUSH2 0xBD9 DUP4 PUSH2 0x5B6 JUMP JUMPDEST SWAP3 POP DUP3 DUP3 ADD SWAP1 POP DUP1 DUP3 GT ISZERO PUSH2 0xBF1 JUMPI PUSH2 0xBF0 PUSH2 0xAAA JUMP JUMPDEST JUMPDEST SWAP3 SWAP2 POP POP JUMP JUMPDEST PUSH0 DUP2 SWAP1 POP DUP2 PUSH0 MSTORE PUSH1 0x20 PUSH0 KECCAK256 SWAP1 POP SWAP2 SWAP1 POP JUMP JUMPDEST PUSH0 PUSH1 0x20 PUSH1 0x1F DUP4 ADD DIV SWAP1 POP SWAP2 SWAP1 POP JUMP JUMPDEST PUSH0 DUP3 DUP3 SHL SWAP1 POP SWAP3 SWAP2 POP POP JUMP JUMPDEST PUSH0 PUSH1 0x8 DUP4 MUL PUSH2 0xC53 PUSH32 0xFFFFFFFFFFFFFFFFFFFFFFFFFFFFFFFFFFFFFFFFFFFFFFFFFFFFFFFFFFFFFFFF DUP3 PUSH2 0xC18 JUMP JUMPDEST PUSH2 0xC5D DUP7 DUP4 PUSH2 0xC18 JUMP JUMPDEST SWAP6 POP DUP1 NOT DUP5 AND SWAP4 POP DUP1 DUP7 AND DUP5 OR SWAP3 POP POP POP SWAP4 SWAP3 POP POP POP JUMP JUMPDEST PUSH0 DUP2 SWAP1 POP SWAP2 SWAP1 POP JUMP JUMPDEST PUSH0 PUSH2 0xC98 PUSH2 0xC93 PUSH2 0xC8E DUP5 PUSH2 0x5B6 JUMP JUMPDEST PUSH2 0xC75 JUMP JUMPDEST PUSH2 0x5B6 JUMP JUMPDEST SWAP1 POP SWAP2 SWAP1 POP JUMP JUMPDEST PUSH0 DUP2 SWAP1 POP SWAP2 SWAP1 POP JUMP JUMPDEST PUSH2 0xCB1 DUP4 PUSH2 0xC7E JUMP JUMPDEST PUSH2 0xCC5 PUSH2 0xCBD DUP3 PUSH2 0xC9F JUMP JUMPDEST DUP5 DUP5 SLOAD PUSH2 0xC24 JUMP JUMPDEST DUP3 SSTORE POP POP POP POP JUMP JUMPDEST PUSH0 SWAP1 JUMP JUMPDEST PUSH2 0xCD9 PUSH2 0xCCD JUMP JUMPDEST PUSH2 0xCE4 DUP2 DUP5 DUP5 PUSH2 0xCA8 JUMP JUMPDEST POP POP POP JUMP JUMPDEST JUMPDEST DUP2 DUP2 LT ISZERO PUSH2 0xD07 JUMPI PUSH2 0xCFC PUSH0 DUP3 PUSH2 0xCD1 JUMP JUMPDEST PUSH1 0x1 DUP2 ADD SWAP1 POP PUSH2 0xCEA JUMP JUMPDEST POP POP JUMP JUMPDEST PUSH1 0x1F DUP3 GT ISZERO PUSH2 0xD4C JUMPI PUSH2 0xD1D DUP2 PUSH2 0xBF7 JUMP JUMPDEST PUSH2 0xD26 DUP5 PUSH2 0xC09 JUMP JUMPDEST DUP2 ADD PUSH1 0x20 DUP6 LT ISZERO PUSH2 0xD35 JUMPI DUP2 SWAP1 POP JUMPDEST PUSH2 0xD49 PUSH2 0xD41 DUP6 PUSH2 0xC09 JUMP JUMPDEST DUP4 ADD DUP3 PUSH2 0xCE9 JUMP JUMPDEST POP POP JUMPDEST POP POP POP JUMP JUMPDEST PUSH0 DUP3 DUP3 SHR SWAP1 POP SWAP3 SWAP2 POP POP JUMP JUMPDEST PUSH0 PUSH2 0xD6C PUSH0 NOT DUP5 PUSH1 0x8 MUL PUSH2 0xD51 JUMP JUMPDEST NOT DUP1 DUP4 AND SWAP2 POP POP SWAP3 SWAP2 POP POP JUMP JUMPDEST PUSH0 PUSH2 0xD84 DUP4 DUP4 PUSH2 0xD5D JUMP JUMPDEST SWAP2 POP DUP3 PUSH1 0x2 MUL DUP3 OR SWAP1 POP SWAP3 SWAP2 POP POP JUMP JUMPDEST PUSH2 0xD9D DUP3 PUSH2 0x65C JUMP JUMPDEST PUSH8 0xFFFFFFFFFFFFFFFF DUP2 GT ISZERO PUSH2 0xDB6 JUMPI PUSH2 0xDB5 PUSH2 0x7C5 JUMP JUMPDEST JUMPDEST PUSH2 0xDC0 DUP3 SLOAD PUSH2 0xB94 JUMP JUMPDEST PUSH2 0xDCB DUP3 DUP3 DUP6 PUSH2 0xD0B JUMP JUMPDEST PUSH0 PUSH1 0x20 SWAP1 POP PUSH1 0x1F DUP4 GT PUSH1 0x1 DUP2 EQ PUSH2 0xDFC JUMPI PUSH0 DUP5 ISZERO PUSH2 0xDEA JUMPI DUP3 DUP8 ADD MLOAD SWAP1 POP JUMPDEST PUSH2 0xDF4 DUP6 DUP3 PUSH2 0xD79 JUMP JUMPDEST DUP7 SSTORE POP PUSH2 0xE5B JUMP JUMPDEST PUSH1 0x1F NOT DUP5 AND PUSH2 0xE0A DUP7 PUSH2 0xBF7 JUMP JUMPDEST PUSH0 JUMPDEST DUP3 DUP2 LT ISZERO PUSH2 0xE31 JUMPI DUP5 DUP10 ADD MLOAD DUP3 SSTORE PUSH1 0x1 DUP3 ADD SWAP2 POP PUSH1 0x20 DUP6 ADD SWAP5 POP PUSH1 0x20 DUP2 ADD SWAP1 POP PUSH2 0xE0C JUMP JUMPDEST DUP7 DUP4 LT ISZERO PUSH2 0xE4E JUMPI DUP5 DUP10 ADD MLOAD PUSH2 0xE4A PUSH1 0x1F DUP10 AND DUP3 PUSH2 0xD5D JUMP JUMPDEST DUP4 SSTORE POP JUMPDEST PUSH1 0x1 PUSH1 0x2 DUP9 MUL ADD DUP9 SSTORE POP POP POP JUMPDEST POP POP POP POP POP POP JUMP INVALID LOG2 PUSH5 0x6970667358 0x22 SLT KECCAK256 0xDE DUP13 SWAP12 LOG1 0xEB BASEFEE 0xDB DUP8 DUP1 PUSH29 0x30269318276F0AE14DA594EBC76A6FDA5CF9E01DDDA164736F6C634300 ADDMOD BYTE STOP CALLER "
				},
				"gasEstimates": {
					"creation": {
						"codeDepositCost": "747400",
						"executionCost": "777",
						"totalCost": "748177"
					},
					"external": {
						"addStudent(uint256,string,uint256)": "infinite",
						"getAllStudents()": "infinite",
						"getAverage()": "infinite",
						"getLowScore()": "infinite",
						"getScoreSum()": "infinite",
						"getStudent(uint256)": "infinite"
					}
				},
				"methodIdentifiers": {
					"addStudent(uint256,string,uint256)": "c1bea1db",
					"getAllStudents()": "e9e30927",
					"getAverage()": "21055acb",
					"getLowScore()": "b8ca2d19",
					"getScoreSum()": "85b52395",
					"getStudent(uint256)": "642f9163"
				}
			},
			"storageLayout": {
				"storage": [
					{
						"astId": 12,
						"contract": "cordingtest/cordingtest2.sol:Test2",
						"label": "students",
						"offset": 0,
						"slot": "0",
						"type": "t_array(t_struct(Student)8_storage)dyn_storage"
					}
				],
				"types": {
					"t_array(t_struct(Student)8_storage)dyn_storage": {
						"base": "t_struct(Student)8_storage",
						"encoding": "dynamic_array",
						"label": "struct Test2.Student[]",
						"numberOfBytes": "32"
					},
					"t_string_storage": {
						"encoding": "bytes",
						"label": "string",
						"numberOfBytes": "32"
					},
					"t_struct(Student)8_storage": {
						"encoding": "inplace",
						"label": "struct Test2.Student",
						"members": [
							{
								"astId": 3,
								"contract": "cordingtest/cordingtest2.sol:Test2",
								"label": "number",
								"offset": 0,
								"slot": "0",
								"type": "t_uint256"
							},
							{
								"astId": 5,
								"contract": "cordingtest/cordingtest2.sol:Test2",
								"label": "name",
								"offset": 0,
								"slot": "1",
								"type": "t_string_storage"
							},
							{
								"astId": 7,
								"contract": "cordingtest/cordingtest2.sol:Test2",
								"label": "score",
								"offset": 0,
								"slot": "2",
								"type": "t_uint256"
							}
						],
						"numberOfBytes": "96"
					},
					"t_uint256": {
						"encoding": "inplace",
						"label": "uint256",
						"numberOfBytes": "32"
					}
				}
			},
			"userdoc": {
				"kind": "user",
				"methods": {},
				"version": 1
			}
		}
	}
}