{
	"cordingtest/cordingtest1.sol": {
		"Test1": {
			"abi": [
				{
					"inputs": [],
					"name": "QualifiedTeacher",
					"outputs": [
						{
							"internalType": "bool",
							"name": "",
							"type": "bool"
						}
					],
					"stateMutability": "view",
					"type": "function"
				},
				{
					"inputs": [
						{
							"internalType": "string",
							"name": "_name",
							"type": "string"
						},
						{
							"internalType": "uint256",
							"name": "_number",
							"type": "uint256"
						},
						{
							"internalType": "uint256",
							"name": "_score",
							"type": "uint256"
						},
						{
							"internalType": "string",
							"name": "_class",
							"type": "string"
						}
					],
					"name": "addStudent",
					"outputs": [],
					"stateMutability": "nonpayable",
					"type": "function"
				},
				{
					"inputs": [],
					"name": "calculateAverage",
					"outputs": [
						{
							"internalType": "uint256",
							"name": "",
							"type": "uint256"
						}
					],
					"stateMutability": "view",
					"type": "function"
				},
				{
					"inputs": [
						{
							"internalType": "uint256",
							"name": "_score",
							"type": "uint256"
						}
					],
					"name": "calculateGrade",
					"outputs": [
						{
							"internalType": "string",
							"name": "",
							"type": "string"
						}
					],
					"stateMutability": "pure",
					"type": "function"
				},
				{
					"inputs": [],
					"name": "getAllStudents",
					"outputs": [
						{
							"components": [
								{
									"internalType": "string",
									"name": "name",
									"type": "string"
								},
								{
									"internalType": "uint256",
									"name": "number",
									"type": "uint256"
								},
								{
									"internalType": "uint256",
									"name": "score",
									"type": "uint256"
								},
								{
									"internalType": "string",
									"name": "grade",
									"type": "string"
								},
								{
									"internalType": "string",
									"name": "class",
									"type": "string"
								}
							],
							"internalType": "struct Test1.Student[]",
							"name": "",
							"type": "tuple[]"
						}
					],
					"stateMutability": "view",
					"type": "function"
				},
				{
					"inputs": [],
					"name": "getFStudents",
					"outputs": [
						{
							"internalType": "uint256",
							"name": "",
							"type": "uint256"
						},
						{
							"components": [
								{
									"internalType": "string",
									"name": "name",
									"type": "string"
								},
								{
									"internalType": "uint256",
									"name": "number",
									"type": "uint256"
								},
								{
									"internalType": "uint256",
									"name": "score",
									"type": "uint256"
								},
								{
									"internalType": "string",
									"name": "grade",
									"type": "string"
								},
								{
									"internalType": "string",
									"name": "class",
									"type": "string"
								}
							],
							"internalType": "struct Test1.Student[]",
							"name": "",
							"type": "tuple[]"
						}
					],
					"stateMutability": "view",
					"type": "function"
				},
				{
					"inputs": [],
					"name": "getNumberStudents",
					"outputs": [
						{
							"internalType": "uint256",
							"name": "",
							"type": "uint256"
						}
					],
					"stateMutability": "view",
					"type": "function"
				},
				{
					"inputs": [
						{
							"internalType": "string",
							"name": "_name",
							"type": "string"
						}
					],
					"name": "getScoreName",
					"outputs": [
						{
							"internalType": "uint256",
							"name": "",
							"type": "uint256"
						}
					],
					"stateMutability": "view",
					"type": "function"
				},
				{
					"inputs": [
						{
							"internalType": "string",
							"name": "_name",
							"type": "string"
						}
					],
					"name": "getStudentName",
					"outputs": [
						{
							"internalType": "string",
							"name": "",
							"type": "string"
						},
						{
							"internalType": "uint256",
							"name": "",
							"type": "uint256"
						},
						{
							"internalType": "uint256",
							"name": "",
							"type": "uint256"
						},
						{
							"internalType": "string",
							"name": "",
							"type": "string"
						},
						{
							"internalType": "string",
							"name": "",
							"type": "string"
						}
					],
					"stateMutability": "view",
					"type": "function"
				},
				{
					"inputs": [
						{
							"internalType": "uint256",
							"name": "_number",
							"type": "uint256"
						}
					],
					"name": "getStudentNumber",
					"outputs": [
						{
							"internalType": "string",
							"name": "",
							"type": "string"
						},
						{
							"internalType": "uint256",
							"name": "",
							"type": "uint256"
						},
						{
							"internalType": "uint256",
							"name": "",
							"type": "uint256"
						},
						{
							"internalType": "string",
							"name": "",
							"type": "string"
						},
						{
							"internalType": "string",
							"name": "",
							"type": "string"
						}
					],
					"stateMutability": "view",
					"type": "function"
				},
				{
					"inputs": [
						{
							"internalType": "uint256",
							"name": "",
							"type": "uint256"
						}
					],
					"name": "students",
					"outputs": [
						{
							"internalType": "string",
							"name": "name",
							"type": "string"
						},
						{
							"internalType": "uint256",
							"name": "number",
							"type": "uint256"
						},
						{
							"internalType": "uint256",
							"name": "score",
							"type": "uint256"
						},
						{
							"internalType": "string",
							"name": "grade",
							"type": "string"
						},
						{
							"internalType": "string",
							"name": "class",
							"type": "string"
						}
					],
					"stateMutability": "view",
					"type": "function"
				}
			],
			"devdoc": {
				"kind": "dev",
				"methods": {},
				"version": 1
			},
			"evm": {
				"assembly": "    /* \"cordingtest/cordingtest1.sol\":72:4949  contract Test1 {... */\n  mstore(0x40, 0x80)\n  callvalue\n  dup1\n  iszero\n  tag_1\n  jumpi\n  0x00\n  dup1\n  revert\ntag_1:\n  pop\n  dataSize(sub_0)\n  dup1\n  dataOffset(sub_0)\n  0x00\n  codecopy\n  0x00\n  return\nstop\n\nsub_0: assembly {\n        /* \"cordingtest/cordingtest1.sol\":72:4949  contract Test1 {... */\n      mstore(0x40, 0x80)\n      callvalue\n      dup1\n      iszero\n      tag_1\n      jumpi\n      0x00\n      dup1\n      revert\n    tag_1:\n      pop\n      jumpi(tag_2, lt(calldatasize, 0x04))\n      shr(0xe0, calldataload(0x00))\n      dup1\n      0x98463c74\n      gt\n      tag_14\n      jumpi\n      dup1\n      0x98463c74\n      eq\n      tag_8\n      jumpi\n      dup1\n      0x9ae52f0f\n      eq\n      tag_9\n      jumpi\n      dup1\n      0xc06a93d3\n      eq\n      tag_10\n      jumpi\n      dup1\n      0xe9e30927\n      eq\n      tag_11\n      jumpi\n      dup1\n      0xf317d020\n      eq\n      tag_12\n      jumpi\n      dup1\n      0xfc9b4099\n      eq\n      tag_13\n      jumpi\n      jump(tag_2)\n    tag_14:\n      dup1\n      0x06ead22e\n      eq\n      tag_3\n      jumpi\n      dup1\n      0x3bf1a7d1\n      eq\n      tag_4\n      jumpi\n      dup1\n      0x6191f364\n      eq\n      tag_5\n      jumpi\n      dup1\n      0x7676688b\n      eq\n      tag_6\n      jumpi\n      dup1\n      0x86be4114\n      eq\n      tag_7\n      jumpi\n    tag_2:\n      0x00\n      dup1\n      revert\n        /* \"cordingtest/cordingtest1.sol\":2043:2068  Student[] public students */\n    tag_3:\n      tag_15\n      0x04\n      dup1\n      calldatasize\n      sub\n      dup2\n      add\n      swap1\n      tag_16\n      swap2\n      swap1\n      tag_17\n      jump\t// in\n    tag_16:\n      tag_18\n      jump\t// in\n    tag_15:\n      mload(0x40)\n      tag_19\n      swap6\n      swap5\n      swap4\n      swap3\n      swap2\n      swap1\n      tag_20\n      jump\t// in\n    tag_19:\n      mload(0x40)\n      dup1\n      swap2\n      sub\n      swap1\n      return\n        /* \"cordingtest/cordingtest1.sol\":2075:2435  function calculateGrade(uint _score) public pure returns (string memory) {... */\n    tag_4:\n      tag_21\n      0x04\n      dup1\n      calldatasize\n      sub\n      dup2\n      add\n      swap1\n      tag_22\n      swap2\n      swap1\n      tag_17\n      jump\t// in\n    tag_22:\n      tag_23\n      jump\t// in\n    tag_21:\n      mload(0x40)\n      tag_24\n      swap2\n      swap1\n      tag_25\n      jump\t// in\n    tag_24:\n      mload(0x40)\n      dup1\n      swap2\n      sub\n      swap1\n      return\n        /* \"cordingtest/cordingtest1.sol\":2678:2951  function getStudentNumber(uint _number) public view returns (string memory, uint, uint, string memory, string memory) {... */\n    tag_5:\n      tag_26\n      0x04\n      dup1\n      calldatasize\n      sub\n      dup2\n      add\n      swap1\n      tag_27\n      swap2\n      swap1\n      tag_17\n      jump\t// in\n    tag_27:\n      tag_28\n      jump\t// in\n    tag_26:\n      mload(0x40)\n      tag_29\n      swap6\n      swap5\n      swap4\n      swap3\n      swap2\n      swap1\n      tag_20\n      jump\t// in\n    tag_29:\n      mload(0x40)\n      dup1\n      swap2\n      sub\n      swap1\n      return\n        /* \"cordingtest/cordingtest1.sol\":3408:3722  function getScoreName(string memory _name) public view returns (uint) {... */\n    tag_6:\n      tag_30\n      0x04\n      dup1\n      calldatasize\n      sub\n      dup2\n      add\n      swap1\n      tag_31\n      swap2\n      swap1\n      tag_32\n      jump\t// in\n    tag_31:\n      tag_33\n      jump\t// in\n    tag_30:\n      mload(0x40)\n      tag_34\n      swap2\n      swap1\n      tag_35\n      jump\t// in\n    tag_34:\n      mload(0x40)\n      dup1\n      swap2\n      sub\n      swap1\n      return\n        /* \"cordingtest/cordingtest1.sol\":3932:4176  function calculateAverage() public view returns (uint) {... */\n    tag_7:\n      tag_36\n      tag_37\n      jump\t// in\n    tag_36:\n      mload(0x40)\n      tag_38\n      swap2\n      swap1\n      tag_35\n      jump\t// in\n    tag_38:\n      mload(0x40)\n      dup1\n      swap2\n      sub\n      swap1\n      return\n        /* \"cordingtest/cordingtest1.sol\":4333:4947  function getFStudents() public view returns (uint, Student[] memory) {... */\n    tag_8:\n      tag_39\n      tag_40\n      jump\t// in\n    tag_39:\n      mload(0x40)\n      tag_41\n      swap3\n      swap2\n      swap1\n      tag_42\n      jump\t// in\n    tag_41:\n      mload(0x40)\n      dup1\n      swap2\n      sub\n      swap1\n      return\n        /* \"cordingtest/cordingtest1.sol\":2441:2672  function addStudent(string memory _name, uint _number, uint _score, string memory _class) public {... */\n    tag_9:\n      tag_43\n      0x04\n      dup1\n      calldatasize\n      sub\n      dup2\n      add\n      swap1\n      tag_44\n      swap2\n      swap1\n      tag_45\n      jump\t// in\n    tag_44:\n      tag_46\n      jump\t// in\n    tag_43:\n      stop\n        /* \"cordingtest/cordingtest1.sol\":4182:4327  function QualifiedTeacher() public view returns (bool) {... */\n    tag_10:\n      tag_47\n      tag_48\n      jump\t// in\n    tag_47:\n      mload(0x40)\n      tag_49\n      swap2\n      swap1\n      tag_50\n      jump\t// in\n    tag_49:\n      mload(0x40)\n      dup1\n      swap2\n      sub\n      swap1\n      return\n        /* \"cordingtest/cordingtest1.sol\":3829:3926  function getAllStudents() public view returns (Student[] memory) {... */\n    tag_11:\n      tag_51\n      tag_52\n      jump\t// in\n    tag_51:\n      mload(0x40)\n      tag_53\n      swap2\n      swap1\n      tag_54\n      jump\t// in\n    tag_53:\n      mload(0x40)\n      dup1\n      swap2\n      sub\n      swap1\n      return\n        /* \"cordingtest/cordingtest1.sol\":2957:3402  function getStudentName(string memory _name) public view returns (string memory, uint, uint, string memory, string memory) {... */\n    tag_12:\n      tag_55\n      0x04\n      dup1\n      calldatasize\n      sub\n      dup2\n      add\n      swap1\n      tag_56\n      swap2\n      swap1\n      tag_32\n      jump\t// in\n    tag_56:\n      tag_57\n      jump\t// in\n    tag_55:\n      mload(0x40)\n      tag_58\n      swap6\n      swap5\n      swap4\n      swap3\n      swap2\n      swap1\n      tag_20\n      jump\t// in\n    tag_58:\n      mload(0x40)\n      dup1\n      swap2\n      sub\n      swap1\n      return\n        /* \"cordingtest/cordingtest1.sol\":3728:3823  function getNumberStudents() public view returns (uint) {... */\n    tag_13:\n      tag_59\n      tag_60\n      jump\t// in\n    tag_59:\n      mload(0x40)\n      tag_61\n      swap2\n      swap1\n      tag_35\n      jump\t// in\n    tag_61:\n      mload(0x40)\n      dup1\n      swap2\n      sub\n      swap1\n      return\n        /* \"cordingtest/cordingtest1.sol\":2043:2068  Student[] public students */\n    tag_18:\n      0x00\n      dup2\n      dup2\n      sload\n      dup2\n      lt\n      tag_62\n      jumpi\n      0x00\n      dup1\n      revert\n    tag_62:\n      swap1\n      0x00\n      mstore\n      keccak256(0x00, 0x20)\n      swap1\n      0x05\n      mul\n      add\n      0x00\n      swap2\n      pop\n      swap1\n      pop\n      dup1\n      0x00\n      add\n      dup1\n      sload\n      tag_64\n      swap1\n      tag_65\n      jump\t// in\n    tag_64:\n      dup1\n      0x1f\n      add\n      0x20\n      dup1\n      swap2\n      div\n      mul\n      0x20\n      add\n      mload(0x40)\n      swap1\n      dup2\n      add\n      0x40\n      mstore\n      dup1\n      swap3\n      swap2\n      swap1\n      dup2\n      dup2\n      mstore\n      0x20\n      add\n      dup3\n      dup1\n      sload\n      tag_66\n      swap1\n      tag_65\n      jump\t// in\n    tag_66:\n      dup1\n      iszero\n      tag_67\n      jumpi\n      dup1\n      0x1f\n      lt\n      tag_68\n      jumpi\n      0x0100\n      dup1\n      dup4\n      sload\n      div\n      mul\n      dup4\n      mstore\n      swap2\n      0x20\n      add\n      swap2\n      jump(tag_67)\n    tag_68:\n      dup3\n      add\n      swap2\n      swap1\n      0x00\n      mstore\n      keccak256(0x00, 0x20)\n      swap1\n    tag_69:\n      dup2\n      sload\n      dup2\n      mstore\n      swap1\n      0x01\n      add\n      swap1\n      0x20\n      add\n      dup1\n      dup4\n      gt\n      tag_69\n      jumpi\n      dup3\n      swap1\n      sub\n      0x1f\n      and\n      dup3\n      add\n      swap2\n    tag_67:\n      pop\n      pop\n      pop\n      pop\n      pop\n      swap1\n      dup1\n      0x01\n      add\n      sload\n      swap1\n      dup1\n      0x02\n      add\n      sload\n      swap1\n      dup1\n      0x03\n      add\n      dup1\n      sload\n      tag_70\n      swap1\n      tag_65\n      jump\t// in\n    tag_70:\n      dup1\n      0x1f\n      add\n      0x20\n      dup1\n      swap2\n      div\n      mul\n      0x20\n      add\n      mload(0x40)\n      swap1\n      dup2\n      add\n      0x40\n      mstore\n      dup1\n      swap3\n      swap2\n      swap1\n      dup2\n      dup2\n      mstore\n      0x20\n      add\n      dup3\n      dup1\n      sload\n      tag_71\n      swap1\n      tag_65\n      jump\t// in\n    tag_71:\n      dup1\n      iszero\n      tag_72\n      jumpi\n      dup1\n      0x1f\n      lt\n      tag_73\n      jumpi\n      0x0100\n      dup1\n      dup4\n      sload\n      div\n      mul\n      dup4\n      mstore\n      swap2\n      0x20\n      add\n      swap2\n      jump(tag_72)\n    tag_73:\n      dup3\n      add\n      swap2\n      swap1\n      0x00\n      mstore\n      keccak256(0x00, 0x20)\n      swap1\n    tag_74:\n      dup2\n      sload\n      dup2\n      mstore\n      swap1\n      0x01\n      add\n      swap1\n      0x20\n      add\n      dup1\n      dup4\n      gt\n      tag_74\n      jumpi\n      dup3\n      swap1\n      sub\n      0x1f\n      and\n      dup3\n      add\n      swap2\n    tag_72:\n      pop\n      pop\n      pop\n      pop\n      pop\n      swap1\n      dup1\n      0x04\n      add\n      dup1\n      sload\n      tag_75\n      swap1\n      tag_65\n      jump\t// in\n    tag_75:\n      dup1\n      0x1f\n      add\n      0x20\n      dup1\n      swap2\n      div\n      mul\n      0x20\n      add\n      mload(0x40)\n      swap1\n      dup2\n      add\n      0x40\n      mstore\n      dup1\n      swap3\n      swap2\n      swap1\n      dup2\n      dup2\n      mstore\n      0x20\n      add\n      dup3\n      dup1\n      sload\n      tag_76\n      swap1\n      tag_65\n      jump\t// in\n    tag_76:\n      dup1\n      iszero\n      tag_77\n      jumpi\n      dup1\n      0x1f\n      lt\n      tag_78\n      jumpi\n      0x0100\n      dup1\n      dup4\n      sload\n      div\n      mul\n      dup4\n      mstore\n      swap2\n      0x20\n      add\n      swap2\n      jump(tag_77)\n    tag_78:\n      dup3\n      add\n      swap2\n      swap1\n      0x00\n      mstore\n      keccak256(0x00, 0x20)\n      swap1\n    tag_79:\n      dup2\n      sload\n      dup2\n      mstore\n      swap1\n      0x01\n      add\n      swap1\n      0x20\n      add\n      dup1\n      dup4\n      gt\n      tag_79\n      jumpi\n      dup3\n      swap1\n      sub\n      0x1f\n      and\n      dup3\n      add\n      swap2\n    tag_77:\n      pop\n      pop\n      pop\n      pop\n      pop\n      swap1\n      pop\n      dup6\n      jump\t// out\n        /* \"cordingtest/cordingtest1.sol\":2075:2435  function calculateGrade(uint _score) public pure returns (string memory) {... */\n    tag_23:\n        /* \"cordingtest/cordingtest1.sol\":2133:2146  string memory */\n      0x60\n        /* \"cordingtest/cordingtest1.sol\":2172:2174  90 */\n      0x5a\n        /* \"cordingtest/cordingtest1.sol\":2162:2168  _score */\n      dup3\n        /* \"cordingtest/cordingtest1.sol\":2162:2174  _score >= 90 */\n      lt\n        /* \"cordingtest/cordingtest1.sol\":2158:2429  if (_score >= 90) {... */\n      tag_81\n      jumpi\n        /* \"cordingtest/cordingtest1.sol\":2190:2200  return \"A\" */\n      mload(0x40)\n      dup1\n      0x40\n      add\n      0x40\n      mstore\n      dup1\n      0x01\n      dup2\n      mstore\n      0x20\n      add\n      0x4100000000000000000000000000000000000000000000000000000000000000\n      dup2\n      mstore\n      pop\n      swap1\n      pop\n      jump(tag_80)\n        /* \"cordingtest/cordingtest1.sol\":2158:2429  if (_score >= 90) {... */\n    tag_81:\n        /* \"cordingtest/cordingtest1.sol\":2231:2233  80 */\n      0x50\n        /* \"cordingtest/cordingtest1.sol\":2221:2227  _score */\n      dup3\n        /* \"cordingtest/cordingtest1.sol\":2221:2233  _score >= 80 */\n      lt\n        /* \"cordingtest/cordingtest1.sol\":2217:2429  if (_score >= 80) {... */\n      tag_83\n      jumpi\n        /* \"cordingtest/cordingtest1.sol\":2249:2259  return \"B\" */\n      mload(0x40)\n      dup1\n      0x40\n      add\n      0x40\n      mstore\n      dup1\n      0x01\n      dup2\n      mstore\n      0x20\n      add\n      0x4200000000000000000000000000000000000000000000000000000000000000\n      dup2\n      mstore\n      pop\n      swap1\n      pop\n      jump(tag_80)\n        /* \"cordingtest/cordingtest1.sol\":2217:2429  if (_score >= 80) {... */\n    tag_83:\n        /* \"cordingtest/cordingtest1.sol\":2290:2292  70 */\n      0x46\n        /* \"cordingtest/cordingtest1.sol\":2280:2286  _score */\n      dup3\n        /* \"cordingtest/cordingtest1.sol\":2280:2292  _score >= 70 */\n      lt\n        /* \"cordingtest/cordingtest1.sol\":2276:2429  if (_score >= 70) {... */\n      tag_85\n      jumpi\n        /* \"cordingtest/cordingtest1.sol\":2308:2318  return \"C\" */\n      mload(0x40)\n      dup1\n      0x40\n      add\n      0x40\n      mstore\n      dup1\n      0x01\n      dup2\n      mstore\n      0x20\n      add\n      0x4300000000000000000000000000000000000000000000000000000000000000\n      dup2\n      mstore\n      pop\n      swap1\n      pop\n      jump(tag_80)\n        /* \"cordingtest/cordingtest1.sol\":2276:2429  if (_score >= 70) {... */\n    tag_85:\n        /* \"cordingtest/cordingtest1.sol\":2349:2351  60 */\n      0x3c\n        /* \"cordingtest/cordingtest1.sol\":2339:2345  _score */\n      dup3\n        /* \"cordingtest/cordingtest1.sol\":2339:2351  _score >= 60 */\n      lt\n        /* \"cordingtest/cordingtest1.sol\":2335:2429  if (_score >= 60) {... */\n      tag_87\n      jumpi\n        /* \"cordingtest/cordingtest1.sol\":2367:2377  return \"D\" */\n      mload(0x40)\n      dup1\n      0x40\n      add\n      0x40\n      mstore\n      dup1\n      0x01\n      dup2\n      mstore\n      0x20\n      add\n      0x4400000000000000000000000000000000000000000000000000000000000000\n      dup2\n      mstore\n      pop\n      swap1\n      pop\n      jump(tag_80)\n        /* \"cordingtest/cordingtest1.sol\":2335:2429  if (_score >= 60) {... */\n    tag_87:\n        /* \"cordingtest/cordingtest1.sol\":2408:2418  return \"F\" */\n      mload(0x40)\n      dup1\n      0x40\n      add\n      0x40\n      mstore\n      dup1\n      0x01\n      dup2\n      mstore\n      0x20\n      add\n      0x4600000000000000000000000000000000000000000000000000000000000000\n      dup2\n      mstore\n      pop\n      swap1\n      pop\n        /* \"cordingtest/cordingtest1.sol\":2075:2435  function calculateGrade(uint _score) public pure returns (string memory) {... */\n    tag_80:\n      swap2\n      swap1\n      pop\n      jump\t// out\n        /* \"cordingtest/cordingtest1.sol\":2678:2951  function getStudentNumber(uint _number) public view returns (string memory, uint, uint, string memory, string memory) {... */\n    tag_28:\n        /* \"cordingtest/cordingtest1.sol\":2739:2752  string memory */\n      0x60\n        /* \"cordingtest/cordingtest1.sol\":2754:2758  uint */\n      0x00\n        /* \"cordingtest/cordingtest1.sol\":2760:2764  uint */\n      dup1\n        /* \"cordingtest/cordingtest1.sol\":2766:2779  string memory */\n      0x60\n        /* \"cordingtest/cordingtest1.sol\":2781:2794  string memory */\n      dup1\n        /* \"cordingtest/cordingtest1.sol\":2806:2828  Student memory student */\n      0x00\n        /* \"cordingtest/cordingtest1.sol\":2831:2839  students */\n      dup1\n        /* \"cordingtest/cordingtest1.sol\":2850:2851  1 */\n      0x01\n        /* \"cordingtest/cordingtest1.sol\":2840:2847  _number */\n      dup9\n        /* \"cordingtest/cordingtest1.sol\":2840:2851  _number - 1 */\n      tag_90\n      swap2\n      swap1\n      tag_91\n      jump\t// in\n    tag_90:\n        /* \"cordingtest/cordingtest1.sol\":2831:2852  students[_number - 1] */\n      dup2\n      sload\n      dup2\n      lt\n      tag_92\n      jumpi\n      tag_93\n      tag_94\n      jump\t// in\n    tag_93:\n    tag_92:\n      swap1\n      0x00\n      mstore\n      keccak256(0x00, 0x20)\n      swap1\n      0x05\n      mul\n      add\n        /* \"cordingtest/cordingtest1.sol\":2806:2852  Student memory student = students[_number - 1] */\n      mload(0x40)\n      dup1\n      0xa0\n      add\n      0x40\n      mstore\n      swap1\n      dup2\n      0x00\n      dup3\n      add\n      dup1\n      sload\n      tag_96\n      swap1\n      tag_65\n      jump\t// in\n    tag_96:\n      dup1\n      0x1f\n      add\n      0x20\n      dup1\n      swap2\n      div\n      mul\n      0x20\n      add\n      mload(0x40)\n      swap1\n      dup2\n      add\n      0x40\n      mstore\n      dup1\n      swap3\n      swap2\n      swap1\n      dup2\n      dup2\n      mstore\n      0x20\n      add\n      dup3\n      dup1\n      sload\n      tag_97\n      swap1\n      tag_65\n      jump\t// in\n    tag_97:\n      dup1\n      iszero\n      tag_98\n      jumpi\n      dup1\n      0x1f\n      lt\n      tag_99\n      jumpi\n      0x0100\n      dup1\n      dup4\n      sload\n      div\n      mul\n      dup4\n      mstore\n      swap2\n      0x20\n      add\n      swap2\n      jump(tag_98)\n    tag_99:\n      dup3\n      add\n      swap2\n      swap1\n      0x00\n      mstore\n      keccak256(0x00, 0x20)\n      swap1\n    tag_100:\n      dup2\n      sload\n      dup2\n      mstore\n      swap1\n      0x01\n      add\n      swap1\n      0x20\n      add\n      dup1\n      dup4\n      gt\n      tag_100\n      jumpi\n      dup3\n      swap1\n      sub\n      0x1f\n      and\n      dup3\n      add\n      swap2\n    tag_98:\n      pop\n      pop\n      pop\n      pop\n      pop\n      dup2\n      mstore\n      0x20\n      add\n      0x01\n      dup3\n      add\n      sload\n      dup2\n      mstore\n      0x20\n      add\n      0x02\n      dup3\n      add\n      sload\n      dup2\n      mstore\n      0x20\n      add\n      0x03\n      dup3\n      add\n      dup1\n      sload\n      tag_101\n      swap1\n      tag_65\n      jump\t// in\n    tag_101:\n      dup1\n      0x1f\n      add\n      0x20\n      dup1\n      swap2\n      div\n      mul\n      0x20\n      add\n      mload(0x40)\n      swap1\n      dup2\n      add\n      0x40\n      mstore\n      dup1\n      swap3\n      swap2\n      swap1\n      dup2\n      dup2\n      mstore\n      0x20\n      add\n      dup3\n      dup1\n      sload\n      tag_102\n      swap1\n      tag_65\n      jump\t// in\n    tag_102:\n      dup1\n      iszero\n      tag_103\n      jumpi\n      dup1\n      0x1f\n      lt\n      tag_104\n      jumpi\n      0x0100\n      dup1\n      dup4\n      sload\n      div\n      mul\n      dup4\n      mstore\n      swap2\n      0x20\n      add\n      swap2\n      jump(tag_103)\n    tag_104:\n      dup3\n      add\n      swap2\n      swap1\n      0x00\n      mstore\n      keccak256(0x00, 0x20)\n      swap1\n    tag_105:\n      dup2\n      sload\n      dup2\n      mstore\n      swap1\n      0x01\n      add\n      swap1\n      0x20\n      add\n      dup1\n      dup4\n      gt\n      tag_105\n      jumpi\n      dup3\n      swap1\n      sub\n      0x1f\n      and\n      dup3\n      add\n      swap2\n    tag_103:\n      pop\n      pop\n      pop\n      pop\n      pop\n      dup2\n      mstore\n      0x20\n      add\n      0x04\n      dup3\n      add\n      dup1\n      sload\n      tag_106\n      swap1\n      tag_65\n      jump\t// in\n    tag_106:\n      dup1\n      0x1f\n      add\n      0x20\n      dup1\n      swap2\n      div\n      mul\n      0x20\n      add\n      mload(0x40)\n      swap1\n      dup2\n      add\n      0x40\n      mstore\n      dup1\n      swap3\n      swap2\n      swap1\n      dup2\n      dup2\n      mstore\n      0x20\n      add\n      dup3\n      dup1\n      sload\n      tag_107\n      swap1\n      tag_65\n      jump\t// in\n    tag_107:\n      dup1\n      iszero\n      tag_108\n      jumpi\n      dup1\n      0x1f\n      lt\n      tag_109\n      jumpi\n      0x0100\n      dup1\n      dup4\n      sload\n      div\n      mul\n      dup4\n      mstore\n      swap2\n      0x20\n      add\n      swap2\n      jump(tag_108)\n    tag_109:\n      dup3\n      add\n      swap2\n      swap1\n      0x00\n      mstore\n      keccak256(0x00, 0x20)\n      swap1\n    tag_110:\n      dup2\n      sload\n      dup2\n      mstore\n      swap1\n      0x01\n      add\n      swap1\n      0x20\n      add\n      dup1\n      dup4\n      gt\n      tag_110\n      jumpi\n      dup3\n      swap1\n      sub\n      0x1f\n      and\n      dup3\n      add\n      swap2\n    tag_108:\n      pop\n      pop\n      pop\n      pop\n      pop\n      dup2\n      mstore\n      pop\n      pop\n      swap1\n      pop\n        /* \"cordingtest/cordingtest1.sol\":2870:2877  student */\n      dup1\n        /* \"cordingtest/cordingtest1.sol\":2870:2882  student.name */\n      0x00\n      add\n      mload\n        /* \"cordingtest/cordingtest1.sol\":2884:2891  student */\n      dup2\n        /* \"cordingtest/cordingtest1.sol\":2884:2898  student.number */\n      0x20\n      add\n      mload\n        /* \"cordingtest/cordingtest1.sol\":2900:2907  student */\n      dup3\n        /* \"cordingtest/cordingtest1.sol\":2900:2913  student.score */\n      0x40\n      add\n      mload\n        /* \"cordingtest/cordingtest1.sol\":2915:2922  student */\n      dup4\n        /* \"cordingtest/cordingtest1.sol\":2915:2928  student.grade */\n      0x60\n      add\n      mload\n        /* \"cordingtest/cordingtest1.sol\":2930:2937  student */\n      dup5\n        /* \"cordingtest/cordingtest1.sol\":2930:2943  student.class */\n      0x80\n      add\n      mload\n        /* \"cordingtest/cordingtest1.sol\":2862:2944  return (student.name, student.number, student.score, student.grade, student.class) */\n      swap6\n      pop\n      swap6\n      pop\n      swap6\n      pop\n      swap6\n      pop\n      swap6\n      pop\n      pop\n        /* \"cordingtest/cordingtest1.sol\":2678:2951  function getStudentNumber(uint _number) public view returns (string memory, uint, uint, string memory, string memory) {... */\n      swap2\n      swap4\n      swap6\n      swap1\n      swap3\n      swap5\n      pop\n      jump\t// out\n        /* \"cordingtest/cordingtest1.sol\":3408:3722  function getScoreName(string memory _name) public view returns (uint) {... */\n    tag_33:\n        /* \"cordingtest/cordingtest1.sol\":3472:3476  uint */\n      0x00\n        /* \"cordingtest/cordingtest1.sol\":3493:3499  uint i */\n      dup1\n        /* \"cordingtest/cordingtest1.sol\":3502:3503  0 */\n      0x00\n        /* \"cordingtest/cordingtest1.sol\":3493:3503  uint i = 0 */\n      swap1\n      pop\n        /* \"cordingtest/cordingtest1.sol\":3488:3679  for (uint i = 0; i < students.length; i++) {... */\n    tag_112:\n        /* \"cordingtest/cordingtest1.sol\":3509:3517  students */\n      0x00\n        /* \"cordingtest/cordingtest1.sol\":3509:3524  students.length */\n      dup1\n      sload\n      swap1\n      pop\n        /* \"cordingtest/cordingtest1.sol\":3505:3506  i */\n      dup2\n        /* \"cordingtest/cordingtest1.sol\":3505:3524  i < students.length */\n      lt\n        /* \"cordingtest/cordingtest1.sol\":3488:3679  for (uint i = 0; i < students.length; i++) {... */\n      iszero\n      tag_113\n      jumpi\n        /* \"cordingtest/cordingtest1.sol\":3603:3608  _name */\n      dup3\n        /* \"cordingtest/cordingtest1.sol\":3587:3610  keccak256(bytes(_name)) */\n      dup1\n      mload\n      swap1\n      0x20\n      add\n      keccak256\n        /* \"cordingtest/cordingtest1.sol\":3565:3573  students */\n      0x00\n        /* \"cordingtest/cordingtest1.sol\":3574:3575  i */\n      dup3\n        /* \"cordingtest/cordingtest1.sol\":3565:3576  students[i] */\n      dup2\n      sload\n      dup2\n      lt\n      tag_115\n      jumpi\n      tag_116\n      tag_94\n      jump\t// in\n    tag_116:\n    tag_115:\n      swap1\n      0x00\n      mstore\n      keccak256(0x00, 0x20)\n      swap1\n      0x05\n      mul\n      add\n        /* \"cordingtest/cordingtest1.sol\":3565:3581  students[i].name */\n      0x00\n      add\n        /* \"cordingtest/cordingtest1.sol\":3549:3583  keccak256(bytes(students[i].name)) */\n      mload(0x40)\n      tag_118\n      swap2\n      swap1\n      tag_119\n      jump\t// in\n    tag_118:\n      mload(0x40)\n      dup1\n      swap2\n      sub\n      swap1\n      keccak256\n        /* \"cordingtest/cordingtest1.sol\":3549:3610  keccak256(bytes(students[i].name)) == keccak256(bytes(_name)) */\n      sub\n        /* \"cordingtest/cordingtest1.sol\":3545:3669  if (keccak256(bytes(students[i].name)) == keccak256(bytes(_name))) {... */\n      tag_120\n      jumpi\n        /* \"cordingtest/cordingtest1.sol\":3637:3645  students */\n      0x00\n        /* \"cordingtest/cordingtest1.sol\":3646:3647  i */\n      dup2\n        /* \"cordingtest/cordingtest1.sol\":3637:3648  students[i] */\n      dup2\n      sload\n      dup2\n      lt\n      tag_121\n      jumpi\n      tag_122\n      tag_94\n      jump\t// in\n    tag_122:\n    tag_121:\n      swap1\n      0x00\n      mstore\n      keccak256(0x00, 0x20)\n      swap1\n      0x05\n      mul\n      add\n        /* \"cordingtest/cordingtest1.sol\":3637:3654  students[i].score */\n      0x02\n      add\n      sload\n        /* \"cordingtest/cordingtest1.sol\":3630:3654  return students[i].score */\n      swap2\n      pop\n      pop\n      jump(tag_111)\n        /* \"cordingtest/cordingtest1.sol\":3545:3669  if (keccak256(bytes(students[i].name)) == keccak256(bytes(_name))) {... */\n    tag_120:\n        /* \"cordingtest/cordingtest1.sol\":3526:3529  i++ */\n      dup1\n      dup1\n      0x01\n      add\n      swap2\n      pop\n      pop\n        /* \"cordingtest/cordingtest1.sol\":3488:3679  for (uint i = 0; i < students.length; i++) {... */\n      jump(tag_112)\n    tag_113:\n      pop\n        /* \"cordingtest/cordingtest1.sol\":3688:3715  revert(\"Student not found\") */\n      mload(0x40)\n      0x08c379a000000000000000000000000000000000000000000000000000000000\n      dup2\n      mstore\n      0x04\n      add\n      tag_124\n      swap1\n      tag_125\n      jump\t// in\n    tag_124:\n      mload(0x40)\n      dup1\n      swap2\n      sub\n      swap1\n      revert\n        /* \"cordingtest/cordingtest1.sol\":3408:3722  function getScoreName(string memory _name) public view returns (uint) {... */\n    tag_111:\n      swap2\n      swap1\n      pop\n      jump\t// out\n        /* \"cordingtest/cordingtest1.sol\":3932:4176  function calculateAverage() public view returns (uint) {... */\n    tag_37:\n        /* \"cordingtest/cordingtest1.sol\":3981:3985  uint */\n      0x00\n        /* \"cordingtest/cordingtest1.sol\":3997:4012  uint totalScore */\n      dup1\n        /* \"cordingtest/cordingtest1.sol\":4015:4016  0 */\n      0x00\n        /* \"cordingtest/cordingtest1.sol\":3997:4016  uint totalScore = 0 */\n      swap1\n      pop\n        /* \"cordingtest/cordingtest1.sol\":4031:4037  uint i */\n      0x00\n        /* \"cordingtest/cordingtest1.sol\":4026:4125  for (uint i = 0; i < students.length; i++) {... */\n    tag_127:\n        /* \"cordingtest/cordingtest1.sol\":4047:4055  students */\n      0x00\n        /* \"cordingtest/cordingtest1.sol\":4047:4062  students.length */\n      dup1\n      sload\n      swap1\n      pop\n        /* \"cordingtest/cordingtest1.sol\":4043:4044  i */\n      dup2\n        /* \"cordingtest/cordingtest1.sol\":4043:4062  i < students.length */\n      lt\n        /* \"cordingtest/cordingtest1.sol\":4026:4125  for (uint i = 0; i < students.length; i++) {... */\n      iszero\n      tag_128\n      jumpi\n        /* \"cordingtest/cordingtest1.sol\":4097:4105  students */\n      0x00\n        /* \"cordingtest/cordingtest1.sol\":4106:4107  i */\n      dup2\n        /* \"cordingtest/cordingtest1.sol\":4097:4108  students[i] */\n      dup2\n      sload\n      dup2\n      lt\n      tag_130\n      jumpi\n      tag_131\n      tag_94\n      jump\t// in\n    tag_131:\n    tag_130:\n      swap1\n      0x00\n      mstore\n      keccak256(0x00, 0x20)\n      swap1\n      0x05\n      mul\n      add\n        /* \"cordingtest/cordingtest1.sol\":4097:4114  students[i].score */\n      0x02\n      add\n      sload\n        /* \"cordingtest/cordingtest1.sol\":4083:4114  totalScore += students[i].score */\n      dup3\n      tag_133\n      swap2\n      swap1\n      tag_134\n      jump\t// in\n    tag_133:\n      swap2\n      pop\n        /* \"cordingtest/cordingtest1.sol\":4064:4067  i++ */\n      dup1\n      dup1\n      0x01\n      add\n      swap2\n      pop\n      pop\n        /* \"cordingtest/cordingtest1.sol\":4026:4125  for (uint i = 0; i < students.length; i++) {... */\n      jump(tag_127)\n    tag_128:\n      pop\n        /* \"cordingtest/cordingtest1.sol\":4154:4162  students */\n      0x00\n        /* \"cordingtest/cordingtest1.sol\":4154:4169  students.length */\n      dup1\n      sload\n      swap1\n      pop\n        /* \"cordingtest/cordingtest1.sol\":4141:4151  totalScore */\n      dup2\n        /* \"cordingtest/cordingtest1.sol\":4141:4169  totalScore / students.length */\n      tag_135\n      swap2\n      swap1\n      tag_136\n      jump\t// in\n    tag_135:\n        /* \"cordingtest/cordingtest1.sol\":4134:4169  return totalScore / students.length */\n      swap2\n      pop\n      pop\n        /* \"cordingtest/cordingtest1.sol\":3932:4176  function calculateAverage() public view returns (uint) {... */\n      swap1\n      jump\t// out\n        /* \"cordingtest/cordingtest1.sol\":4333:4947  function getFStudents() public view returns (uint, Student[] memory) {... */\n    tag_40:\n        /* \"cordingtest/cordingtest1.sol\":4378:4382  uint */\n      0x00\n        /* \"cordingtest/cordingtest1.sol\":4384:4400  Student[] memory */\n      0x60\n        /* \"cordingtest/cordingtest1.sol\":4412:4422  uint count */\n      0x00\n        /* \"cordingtest/cordingtest1.sol\":4441:4447  uint i */\n      dup1\n        /* \"cordingtest/cordingtest1.sol\":4436:4602  for (uint i = 0; i < students.length; i++) {... */\n    tag_138:\n        /* \"cordingtest/cordingtest1.sol\":4457:4465  students */\n      0x00\n        /* \"cordingtest/cordingtest1.sol\":4457:4472  students.length */\n      dup1\n      sload\n      swap1\n      pop\n        /* \"cordingtest/cordingtest1.sol\":4453:4454  i */\n      dup2\n        /* \"cordingtest/cordingtest1.sol\":4453:4472  i < students.length */\n      lt\n        /* \"cordingtest/cordingtest1.sol\":4436:4602  for (uint i = 0; i < students.length; i++) {... */\n      iszero\n      tag_139\n      jumpi\n        /* \"cordingtest/cordingtest1.sol\":4536:4550  keccak256(\"F\") */\n      0xe61d9a3d3848fb2cdd9a2ab61e2f21a10ea431275aed628a0557f9dee697c37a\n        /* \"cordingtest/cordingtest1.sol\":4513:4521  students */\n      0x00\n        /* \"cordingtest/cordingtest1.sol\":4522:4523  i */\n      dup3\n        /* \"cordingtest/cordingtest1.sol\":4513:4524  students[i] */\n      dup2\n      sload\n      dup2\n      lt\n      tag_141\n      jumpi\n      tag_142\n      tag_94\n      jump\t// in\n    tag_142:\n    tag_141:\n      swap1\n      0x00\n      mstore\n      keccak256(0x00, 0x20)\n      swap1\n      0x05\n      mul\n      add\n        /* \"cordingtest/cordingtest1.sol\":4513:4530  students[i].grade */\n      0x03\n      add\n        /* \"cordingtest/cordingtest1.sol\":4497:4532  keccak256(bytes(students[i].grade)) */\n      mload(0x40)\n      tag_144\n      swap2\n      swap1\n      tag_119\n      jump\t// in\n    tag_144:\n      mload(0x40)\n      dup1\n      swap2\n      sub\n      swap1\n      keccak256\n        /* \"cordingtest/cordingtest1.sol\":4497:4550  keccak256(bytes(students[i].grade)) == keccak256(\"F\") */\n      sub\n        /* \"cordingtest/cordingtest1.sol\":4493:4592  if (keccak256(bytes(students[i].grade)) == keccak256(\"F\")) {... */\n      tag_145\n      jumpi\n        /* \"cordingtest/cordingtest1.sol\":4570:4577  count++ */\n      dup2\n      dup1\n      tag_146\n      swap1\n      tag_147\n      jump\t// in\n    tag_146:\n      swap3\n      pop\n      pop\n        /* \"cordingtest/cordingtest1.sol\":4493:4592  if (keccak256(bytes(students[i].grade)) == keccak256(\"F\")) {... */\n    tag_145:\n        /* \"cordingtest/cordingtest1.sol\":4474:4477  i++ */\n      dup1\n      dup1\n      0x01\n      add\n      swap2\n      pop\n      pop\n        /* \"cordingtest/cordingtest1.sol\":4436:4602  for (uint i = 0; i < students.length; i++) {... */\n      jump(tag_138)\n    tag_139:\n      pop\n        /* \"cordingtest/cordingtest1.sol\":4612:4638  Student[] memory FStudents */\n      0x00\n        /* \"cordingtest/cordingtest1.sol\":4655:4660  count */\n      dup2\n        /* \"cordingtest/cordingtest1.sol\":4641:4661  new Student[](count) */\n      0xffffffffffffffff\n      dup2\n      gt\n      iszero\n      tag_148\n      jumpi\n      tag_149\n      tag_150\n      jump\t// in\n    tag_149:\n    tag_148:\n      mload(0x40)\n      swap1\n      dup1\n      dup3\n      mstore\n      dup1\n      0x20\n      mul\n      0x20\n      add\n      dup3\n      add\n      0x40\n      mstore\n      dup1\n      iszero\n      tag_151\n      jumpi\n      dup2\n      0x20\n      add\n    tag_152:\n      tag_153\n      tag_154\n      jump\t// in\n    tag_153:\n      dup2\n      mstore\n      0x20\n      add\n      swap1\n      0x01\n      swap1\n      sub\n      swap1\n      dup2\n      tag_152\n      jumpi\n      swap1\n      pop\n    tag_151:\n      pop\n        /* \"cordingtest/cordingtest1.sol\":4612:4661  Student[] memory FStudents = new Student[](count) */\n      swap1\n      pop\n        /* \"cordingtest/cordingtest1.sol\":4671:4680  uint data */\n      0x00\n        /* \"cordingtest/cordingtest1.sol\":4699:4705  uint i */\n      dup1\n        /* \"cordingtest/cordingtest1.sol\":4694:4906  for (uint i = 0; i < students.length; i++) {... */\n    tag_155:\n        /* \"cordingtest/cordingtest1.sol\":4715:4723  students */\n      0x00\n        /* \"cordingtest/cordingtest1.sol\":4715:4730  students.length */\n      dup1\n      sload\n      swap1\n      pop\n        /* \"cordingtest/cordingtest1.sol\":4711:4712  i */\n      dup2\n        /* \"cordingtest/cordingtest1.sol\":4711:4730  i < students.length */\n      lt\n        /* \"cordingtest/cordingtest1.sol\":4694:4906  for (uint i = 0; i < students.length; i++) {... */\n      iszero\n      tag_156\n      jumpi\n        /* \"cordingtest/cordingtest1.sol\":4794:4808  keccak256(\"F\") */\n      0xe61d9a3d3848fb2cdd9a2ab61e2f21a10ea431275aed628a0557f9dee697c37a\n        /* \"cordingtest/cordingtest1.sol\":4771:4779  students */\n      0x00\n        /* \"cordingtest/cordingtest1.sol\":4780:4781  i */\n      dup3\n        /* \"cordingtest/cordingtest1.sol\":4771:4782  students[i] */\n      dup2\n      sload\n      dup2\n      lt\n      tag_158\n      jumpi\n      tag_159\n      tag_94\n      jump\t// in\n    tag_159:\n    tag_158:\n      swap1\n      0x00\n      mstore\n      keccak256(0x00, 0x20)\n      swap1\n      0x05\n      mul\n      add\n        /* \"cordingtest/cordingtest1.sol\":4771:4788  students[i].grade */\n      0x03\n      add\n        /* \"cordingtest/cordingtest1.sol\":4755:4790  keccak256(bytes(students[i].grade)) */\n      mload(0x40)\n      tag_161\n      swap2\n      swap1\n      tag_119\n      jump\t// in\n    tag_161:\n      mload(0x40)\n      dup1\n      swap2\n      sub\n      swap1\n      keccak256\n        /* \"cordingtest/cordingtest1.sol\":4755:4808  keccak256(bytes(students[i].grade)) == keccak256(\"F\") */\n      sub\n        /* \"cordingtest/cordingtest1.sol\":4751:4896  if (keccak256(bytes(students[i].grade)) == keccak256(\"F\")) {... */\n      tag_162\n      jumpi\n        /* \"cordingtest/cordingtest1.sol\":4846:4854  students */\n      0x00\n        /* \"cordingtest/cordingtest1.sol\":4855:4856  i */\n      dup2\n        /* \"cordingtest/cordingtest1.sol\":4846:4857  students[i] */\n      dup2\n      sload\n      dup2\n      lt\n      tag_163\n      jumpi\n      tag_164\n      tag_94\n      jump\t// in\n    tag_164:\n    tag_163:\n      swap1\n      0x00\n      mstore\n      keccak256(0x00, 0x20)\n      swap1\n      0x05\n      mul\n      add\n        /* \"cordingtest/cordingtest1.sol\":4828:4857  FStudents[data] = students[i] */\n      mload(0x40)\n      dup1\n      0xa0\n      add\n      0x40\n      mstore\n      swap1\n      dup2\n      0x00\n      dup3\n      add\n      dup1\n      sload\n      tag_166\n      swap1\n      tag_65\n      jump\t// in\n    tag_166:\n      dup1\n      0x1f\n      add\n      0x20\n      dup1\n      swap2\n      div\n      mul\n      0x20\n      add\n      mload(0x40)\n      swap1\n      dup2\n      add\n      0x40\n      mstore\n      dup1\n      swap3\n      swap2\n      swap1\n      dup2\n      dup2\n      mstore\n      0x20\n      add\n      dup3\n      dup1\n      sload\n      tag_167\n      swap1\n      tag_65\n      jump\t// in\n    tag_167:\n      dup1\n      iszero\n      tag_168\n      jumpi\n      dup1\n      0x1f\n      lt\n      tag_169\n      jumpi\n      0x0100\n      dup1\n      dup4\n      sload\n      div\n      mul\n      dup4\n      mstore\n      swap2\n      0x20\n      add\n      swap2\n      jump(tag_168)\n    tag_169:\n      dup3\n      add\n      swap2\n      swap1\n      0x00\n      mstore\n      keccak256(0x00, 0x20)\n      swap1\n    tag_170:\n      dup2\n      sload\n      dup2\n      mstore\n      swap1\n      0x01\n      add\n      swap1\n      0x20\n      add\n      dup1\n      dup4\n      gt\n      tag_170\n      jumpi\n      dup3\n      swap1\n      sub\n      0x1f\n      and\n      dup3\n      add\n      swap2\n    tag_168:\n      pop\n      pop\n      pop\n      pop\n      pop\n      dup2\n      mstore\n      0x20\n      add\n      0x01\n      dup3\n      add\n      sload\n      dup2\n      mstore\n      0x20\n      add\n      0x02\n      dup3\n      add\n      sload\n      dup2\n      mstore\n      0x20\n      add\n      0x03\n      dup3\n      add\n      dup1\n      sload\n      tag_171\n      swap1\n      tag_65\n      jump\t// in\n    tag_171:\n      dup1\n      0x1f\n      add\n      0x20\n      dup1\n      swap2\n      div\n      mul\n      0x20\n      add\n      mload(0x40)\n      swap1\n      dup2\n      add\n      0x40\n      mstore\n      dup1\n      swap3\n      swap2\n      swap1\n      dup2\n      dup2\n      mstore\n      0x20\n      add\n      dup3\n      dup1\n      sload\n      tag_172\n      swap1\n      tag_65\n      jump\t// in\n    tag_172:\n      dup1\n      iszero\n      tag_173\n      jumpi\n      dup1\n      0x1f\n      lt\n      tag_174\n      jumpi\n      0x0100\n      dup1\n      dup4\n      sload\n      div\n      mul\n      dup4\n      mstore\n      swap2\n      0x20\n      add\n      swap2\n      jump(tag_173)\n    tag_174:\n      dup3\n      add\n      swap2\n      swap1\n      0x00\n      mstore\n      keccak256(0x00, 0x20)\n      swap1\n    tag_175:\n      dup2\n      sload\n      dup2\n      mstore\n      swap1\n      0x01\n      add\n      swap1\n      0x20\n      add\n      dup1\n      dup4\n      gt\n      tag_175\n      jumpi\n      dup3\n      swap1\n      sub\n      0x1f\n      and\n      dup3\n      add\n      swap2\n    tag_173:\n      pop\n      pop\n      pop\n      pop\n      pop\n      dup2\n      mstore\n      0x20\n      add\n      0x04\n      dup3\n      add\n      dup1\n      sload\n      tag_176\n      swap1\n      tag_65\n      jump\t// in\n    tag_176:\n      dup1\n      0x1f\n      add\n      0x20\n      dup1\n      swap2\n      div\n      mul\n      0x20\n      add\n      mload(0x40)\n      swap1\n      dup2\n      add\n      0x40\n      mstore\n      dup1\n      swap3\n      swap2\n      swap1\n      dup2\n      dup2\n      mstore\n      0x20\n      add\n      dup3\n      dup1\n      sload\n      tag_177\n      swap1\n      tag_65\n      jump\t// in\n    tag_177:\n      dup1\n      iszero\n      tag_178\n      jumpi\n      dup1\n      0x1f\n      lt\n      tag_179\n      jumpi\n      0x0100\n      dup1\n      dup4\n      sload\n      div\n      mul\n      dup4\n      mstore\n      swap2\n      0x20\n      add\n      swap2\n      jump(tag_178)\n    tag_179:\n      dup3\n      add\n      swap2\n      swap1\n      0x00\n      mstore\n      keccak256(0x00, 0x20)\n      swap1\n    tag_180:\n      dup2\n      sload\n      dup2\n      mstore\n      swap1\n      0x01\n      add\n      swap1\n      0x20\n      add\n      dup1\n      dup4\n      gt\n      tag_180\n      jumpi\n      dup3\n      swap1\n      sub\n      0x1f\n      and\n      dup3\n      add\n      swap2\n    tag_178:\n      pop\n      pop\n      pop\n      pop\n      pop\n      dup2\n      mstore\n      pop\n      pop\n        /* \"cordingtest/cordingtest1.sol\":4828:4837  FStudents */\n      dup4\n        /* \"cordingtest/cordingtest1.sol\":4838:4842  data */\n      dup4\n        /* \"cordingtest/cordingtest1.sol\":4828:4843  FStudents[data] */\n      dup2\n      mload\n      dup2\n      lt\n      tag_181\n      jumpi\n      tag_182\n      tag_94\n      jump\t// in\n    tag_182:\n    tag_181:\n      0x20\n      mul\n      0x20\n      add\n      add\n        /* \"cordingtest/cordingtest1.sol\":4828:4857  FStudents[data] = students[i] */\n      dup2\n      swap1\n      mstore\n      pop\n        /* \"cordingtest/cordingtest1.sol\":4875:4881  data++ */\n      dup2\n      dup1\n      tag_183\n      swap1\n      tag_147\n      jump\t// in\n    tag_183:\n      swap3\n      pop\n      pop\n        /* \"cordingtest/cordingtest1.sol\":4751:4896  if (keccak256(bytes(students[i].grade)) == keccak256(\"F\")) {... */\n    tag_162:\n        /* \"cordingtest/cordingtest1.sol\":4732:4735  i++ */\n      dup1\n      dup1\n      0x01\n      add\n      swap2\n      pop\n      pop\n        /* \"cordingtest/cordingtest1.sol\":4694:4906  for (uint i = 0; i < students.length; i++) {... */\n      jump(tag_155)\n    tag_156:\n      pop\n        /* \"cordingtest/cordingtest1.sol\":4923:4928  count */\n      dup3\n        /* \"cordingtest/cordingtest1.sol\":4930:4939  FStudents */\n      dup3\n        /* \"cordingtest/cordingtest1.sol\":4915:4940  return (count, FStudents) */\n      swap5\n      pop\n      swap5\n      pop\n      pop\n      pop\n      pop\n        /* \"cordingtest/cordingtest1.sol\":4333:4947  function getFStudents() public view returns (uint, Student[] memory) {... */\n      swap1\n      swap2\n      jump\t// out\n        /* \"cordingtest/cordingtest1.sol\":2441:2672  function addStudent(string memory _name, uint _number, uint _score, string memory _class) public {... */\n    tag_46:\n        /* \"cordingtest/cordingtest1.sol\":2548:2568  string memory _grade */\n      0x00\n        /* \"cordingtest/cordingtest1.sol\":2571:2593  calculateGrade(_score) */\n      tag_185\n        /* \"cordingtest/cordingtest1.sol\":2586:2592  _score */\n      dup4\n        /* \"cordingtest/cordingtest1.sol\":2571:2585  calculateGrade */\n      tag_23\n        /* \"cordingtest/cordingtest1.sol\":2571:2593  calculateGrade(_score) */\n      jump\t// in\n    tag_185:\n        /* \"cordingtest/cordingtest1.sol\":2548:2593  string memory _grade = calculateGrade(_score) */\n      swap1\n      pop\n        /* \"cordingtest/cordingtest1.sol\":2603:2611  students */\n      0x00\n        /* \"cordingtest/cordingtest1.sol\":2617:2664  Student(_name, _number, _score, _grade, _class) */\n      mload(0x40)\n      dup1\n      0xa0\n      add\n      0x40\n      mstore\n      dup1\n        /* \"cordingtest/cordingtest1.sol\":2625:2630  _name */\n      dup8\n        /* \"cordingtest/cordingtest1.sol\":2617:2664  Student(_name, _number, _score, _grade, _class) */\n      dup2\n      mstore\n      0x20\n      add\n        /* \"cordingtest/cordingtest1.sol\":2632:2639  _number */\n      dup7\n        /* \"cordingtest/cordingtest1.sol\":2617:2664  Student(_name, _number, _score, _grade, _class) */\n      dup2\n      mstore\n      0x20\n      add\n        /* \"cordingtest/cordingtest1.sol\":2641:2647  _score */\n      dup6\n        /* \"cordingtest/cordingtest1.sol\":2617:2664  Student(_name, _number, _score, _grade, _class) */\n      dup2\n      mstore\n      0x20\n      add\n        /* \"cordingtest/cordingtest1.sol\":2649:2655  _grade */\n      dup4\n        /* \"cordingtest/cordingtest1.sol\":2617:2664  Student(_name, _number, _score, _grade, _class) */\n      dup2\n      mstore\n      0x20\n      add\n        /* \"cordingtest/cordingtest1.sol\":2657:2663  _class */\n      dup5\n        /* \"cordingtest/cordingtest1.sol\":2617:2664  Student(_name, _number, _score, _grade, _class) */\n      dup2\n      mstore\n      pop\n        /* \"cordingtest/cordingtest1.sol\":2603:2665  students.push(Student(_name, _number, _score, _grade, _class)) */\n      swap1\n      dup1\n      0x01\n      dup2\n      sload\n      add\n      dup1\n      dup3\n      sstore\n      dup1\n      swap2\n      pop\n      pop\n      0x01\n      swap1\n      sub\n      swap1\n      0x00\n      mstore\n      keccak256(0x00, 0x20)\n      swap1\n      0x05\n      mul\n      add\n      0x00\n      swap1\n      swap2\n      swap1\n      swap2\n      swap1\n      swap2\n      pop\n      0x00\n      dup3\n      add\n      mload\n      dup2\n      0x00\n      add\n      swap1\n      dup2\n      tag_187\n      swap2\n      swap1\n      tag_188\n      jump\t// in\n    tag_187:\n      pop\n      0x20\n      dup3\n      add\n      mload\n      dup2\n      0x01\n      add\n      sstore\n      0x40\n      dup3\n      add\n      mload\n      dup2\n      0x02\n      add\n      sstore\n      0x60\n      dup3\n      add\n      mload\n      dup2\n      0x03\n      add\n      swap1\n      dup2\n      tag_189\n      swap2\n      swap1\n      tag_188\n      jump\t// in\n    tag_189:\n      pop\n      0x80\n      dup3\n      add\n      mload\n      dup2\n      0x04\n      add\n      swap1\n      dup2\n      tag_190\n      swap2\n      swap1\n      tag_188\n      jump\t// in\n    tag_190:\n      pop\n      pop\n      pop\n        /* \"cordingtest/cordingtest1.sol\":2538:2672  {... */\n      pop\n        /* \"cordingtest/cordingtest1.sol\":2441:2672  function addStudent(string memory _name, uint _number, uint _score, string memory _class) public {... */\n      pop\n      pop\n      pop\n      pop\n      jump\t// out\n        /* \"cordingtest/cordingtest1.sol\":4182:4327  function QualifiedTeacher() public view returns (bool) {... */\n    tag_48:\n        /* \"cordingtest/cordingtest1.sol\":4231:4235  bool */\n      0x00\n        /* \"cordingtest/cordingtest1.sol\":4247:4264  uint averageScore */\n      dup1\n        /* \"cordingtest/cordingtest1.sol\":4267:4285  calculateAverage() */\n      tag_192\n        /* \"cordingtest/cordingtest1.sol\":4267:4283  calculateAverage */\n      tag_37\n        /* \"cordingtest/cordingtest1.sol\":4267:4285  calculateAverage() */\n      jump\t// in\n    tag_192:\n        /* \"cordingtest/cordingtest1.sol\":4247:4285  uint averageScore = calculateAverage() */\n      swap1\n      pop\n        /* \"cordingtest/cordingtest1.sol\":4318:4320  70 */\n      0x46\n        /* \"cordingtest/cordingtest1.sol\":4302:4314  averageScore */\n      dup2\n        /* \"cordingtest/cordingtest1.sol\":4302:4320  averageScore >= 70 */\n      lt\n      iszero\n        /* \"cordingtest/cordingtest1.sol\":4295:4320  return averageScore >= 70 */\n      swap2\n      pop\n      pop\n        /* \"cordingtest/cordingtest1.sol\":4182:4327  function QualifiedTeacher() public view returns (bool) {... */\n      swap1\n      jump\t// out\n        /* \"cordingtest/cordingtest1.sol\":3829:3926  function getAllStudents() public view returns (Student[] memory) {... */\n    tag_52:\n        /* \"cordingtest/cordingtest1.sol\":3876:3892  Student[] memory */\n      0x60\n        /* \"cordingtest/cordingtest1.sol\":3911:3919  students */\n      0x00\n        /* \"cordingtest/cordingtest1.sol\":3904:3919  return students */\n      dup1\n      sload\n      dup1\n      0x20\n      mul\n      0x20\n      add\n      mload(0x40)\n      swap1\n      dup2\n      add\n      0x40\n      mstore\n      dup1\n      swap3\n      swap2\n      swap1\n      dup2\n      dup2\n      mstore\n      0x20\n      add\n      0x00\n      swap1\n    tag_194:\n      dup3\n      dup3\n      lt\n      iszero\n      tag_195\n      jumpi\n      dup4\n      dup3\n      swap1\n      0x00\n      mstore\n      keccak256(0x00, 0x20)\n      swap1\n      0x05\n      mul\n      add\n      mload(0x40)\n      dup1\n      0xa0\n      add\n      0x40\n      mstore\n      swap1\n      dup2\n      0x00\n      dup3\n      add\n      dup1\n      sload\n      tag_197\n      swap1\n      tag_65\n      jump\t// in\n    tag_197:\n      dup1\n      0x1f\n      add\n      0x20\n      dup1\n      swap2\n      div\n      mul\n      0x20\n      add\n      mload(0x40)\n      swap1\n      dup2\n      add\n      0x40\n      mstore\n      dup1\n      swap3\n      swap2\n      swap1\n      dup2\n      dup2\n      mstore\n      0x20\n      add\n      dup3\n      dup1\n      sload\n      tag_198\n      swap1\n      tag_65\n      jump\t// in\n    tag_198:\n      dup1\n      iszero\n      tag_199\n      jumpi\n      dup1\n      0x1f\n      lt\n      tag_200\n      jumpi\n      0x0100\n      dup1\n      dup4\n      sload\n      div\n      mul\n      dup4\n      mstore\n      swap2\n      0x20\n      add\n      swap2\n      jump(tag_199)\n    tag_200:\n      dup3\n      add\n      swap2\n      swap1\n      0x00\n      mstore\n      keccak256(0x00, 0x20)\n      swap1\n    tag_201:\n      dup2\n      sload\n      dup2\n      mstore\n      swap1\n      0x01\n      add\n      swap1\n      0x20\n      add\n      dup1\n      dup4\n      gt\n      tag_201\n      jumpi\n      dup3\n      swap1\n      sub\n      0x1f\n      and\n      dup3\n      add\n      swap2\n    tag_199:\n      pop\n      pop\n      pop\n      pop\n      pop\n      dup2\n      mstore\n      0x20\n      add\n      0x01\n      dup3\n      add\n      sload\n      dup2\n      mstore\n      0x20\n      add\n      0x02\n      dup3\n      add\n      sload\n      dup2\n      mstore\n      0x20\n      add\n      0x03\n      dup3\n      add\n      dup1\n      sload\n      tag_202\n      swap1\n      tag_65\n      jump\t// in\n    tag_202:\n      dup1\n      0x1f\n      add\n      0x20\n      dup1\n      swap2\n      div\n      mul\n      0x20\n      add\n      mload(0x40)\n      swap1\n      dup2\n      add\n      0x40\n      mstore\n      dup1\n      swap3\n      swap2\n      swap1\n      dup2\n      dup2\n      mstore\n      0x20\n      add\n      dup3\n      dup1\n      sload\n      tag_203\n      swap1\n      tag_65\n      jump\t// in\n    tag_203:\n      dup1\n      iszero\n      tag_204\n      jumpi\n      dup1\n      0x1f\n      lt\n      tag_205\n      jumpi\n      0x0100\n      dup1\n      dup4\n      sload\n      div\n      mul\n      dup4\n      mstore\n      swap2\n      0x20\n      add\n      swap2\n      jump(tag_204)\n    tag_205:\n      dup3\n      add\n      swap2\n      swap1\n      0x00\n      mstore\n      keccak256(0x00, 0x20)\n      swap1\n    tag_206:\n      dup2\n      sload\n      dup2\n      mstore\n      swap1\n      0x01\n      add\n      swap1\n      0x20\n      add\n      dup1\n      dup4\n      gt\n      tag_206\n      jumpi\n      dup3\n      swap1\n      sub\n      0x1f\n      and\n      dup3\n      add\n      swap2\n    tag_204:\n      pop\n      pop\n      pop\n      pop\n      pop\n      dup2\n      mstore\n      0x20\n      add\n      0x04\n      dup3\n      add\n      dup1\n      sload\n      tag_207\n      swap1\n      tag_65\n      jump\t// in\n    tag_207:\n      dup1\n      0x1f\n      add\n      0x20\n      dup1\n      swap2\n      div\n      mul\n      0x20\n      add\n      mload(0x40)\n      swap1\n      dup2\n      add\n      0x40\n      mstore\n      dup1\n      swap3\n      swap2\n      swap1\n      dup2\n      dup2\n      mstore\n      0x20\n      add\n      dup3\n      dup1\n      sload\n      tag_208\n      swap1\n      tag_65\n      jump\t// in\n    tag_208:\n      dup1\n      iszero\n      tag_209\n      jumpi\n      dup1\n      0x1f\n      lt\n      tag_210\n      jumpi\n      0x0100\n      dup1\n      dup4\n      sload\n      div\n      mul\n      dup4\n      mstore\n      swap2\n      0x20\n      add\n      swap2\n      jump(tag_209)\n    tag_210:\n      dup3\n      add\n      swap2\n      swap1\n      0x00\n      mstore\n      keccak256(0x00, 0x20)\n      swap1\n    tag_211:\n      dup2\n      sload\n      dup2\n      mstore\n      swap1\n      0x01\n      add\n      swap1\n      0x20\n      add\n      dup1\n      dup4\n      gt\n      tag_211\n      jumpi\n      dup3\n      swap1\n      sub\n      0x1f\n      and\n      dup3\n      add\n      swap2\n    tag_209:\n      pop\n      pop\n      pop\n      pop\n      pop\n      dup2\n      mstore\n      pop\n      pop\n      dup2\n      mstore\n      0x20\n      add\n      swap1\n      0x01\n      add\n      swap1\n      jump(tag_194)\n    tag_195:\n      pop\n      pop\n      pop\n      pop\n      swap1\n      pop\n        /* \"cordingtest/cordingtest1.sol\":3829:3926  function getAllStudents() public view returns (Student[] memory) {... */\n      swap1\n      jump\t// out\n        /* \"cordingtest/cordingtest1.sol\":2957:3402  function getStudentName(string memory _name) public view returns (string memory, uint, uint, string memory, string memory) {... */\n    tag_57:\n        /* \"cordingtest/cordingtest1.sol\":3023:3036  string memory */\n      0x60\n        /* \"cordingtest/cordingtest1.sol\":3038:3042  uint */\n      0x00\n        /* \"cordingtest/cordingtest1.sol\":3044:3048  uint */\n      dup1\n        /* \"cordingtest/cordingtest1.sol\":3050:3063  string memory */\n      0x60\n        /* \"cordingtest/cordingtest1.sol\":3065:3078  string memory */\n      dup1\n        /* \"cordingtest/cordingtest1.sol\":3095:3101  uint i */\n      0x00\n        /* \"cordingtest/cordingtest1.sol\":3090:3359  for (uint i = 0; i < students.length; i++) {... */\n    tag_213:\n        /* \"cordingtest/cordingtest1.sol\":3111:3119  students */\n      0x00\n        /* \"cordingtest/cordingtest1.sol\":3111:3126  students.length */\n      dup1\n      sload\n      swap1\n      pop\n        /* \"cordingtest/cordingtest1.sol\":3107:3108  i */\n      dup2\n        /* \"cordingtest/cordingtest1.sol\":3107:3126  i < students.length */\n      lt\n        /* \"cordingtest/cordingtest1.sol\":3090:3359  for (uint i = 0; i < students.length; i++) {... */\n      iszero\n      tag_214\n      jumpi\n        /* \"cordingtest/cordingtest1.sol\":3205:3210  _name */\n      dup7\n        /* \"cordingtest/cordingtest1.sol\":3189:3212  keccak256(bytes(_name)) */\n      dup1\n      mload\n      swap1\n      0x20\n      add\n      keccak256\n        /* \"cordingtest/cordingtest1.sol\":3167:3175  students */\n      0x00\n        /* \"cordingtest/cordingtest1.sol\":3176:3177  i */\n      dup3\n        /* \"cordingtest/cordingtest1.sol\":3167:3178  students[i] */\n      dup2\n      sload\n      dup2\n      lt\n      tag_216\n      jumpi\n      tag_217\n      tag_94\n      jump\t// in\n    tag_217:\n    tag_216:\n      swap1\n      0x00\n      mstore\n      keccak256(0x00, 0x20)\n      swap1\n      0x05\n      mul\n      add\n        /* \"cordingtest/cordingtest1.sol\":3167:3183  students[i].name */\n      0x00\n      add\n        /* \"cordingtest/cordingtest1.sol\":3151:3185  keccak256(bytes(students[i].name)) */\n      mload(0x40)\n      tag_219\n      swap2\n      swap1\n      tag_119\n      jump\t// in\n    tag_219:\n      mload(0x40)\n      dup1\n      swap2\n      sub\n      swap1\n      keccak256\n        /* \"cordingtest/cordingtest1.sol\":3151:3212  keccak256(bytes(students[i].name)) == keccak256(bytes(_name)) */\n      sub\n        /* \"cordingtest/cordingtest1.sol\":3147:3349  if (keccak256(bytes(students[i].name)) == keccak256(bytes(_name))) {... */\n      tag_220\n      jumpi\n        /* \"cordingtest/cordingtest1.sol\":3240:3248  students */\n      0x00\n        /* \"cordingtest/cordingtest1.sol\":3249:3250  i */\n      dup2\n        /* \"cordingtest/cordingtest1.sol\":3240:3251  students[i] */\n      dup2\n      sload\n      dup2\n      lt\n      tag_221\n      jumpi\n      tag_222\n      tag_94\n      jump\t// in\n    tag_222:\n    tag_221:\n      swap1\n      0x00\n      mstore\n      keccak256(0x00, 0x20)\n      swap1\n      0x05\n      mul\n      add\n        /* \"cordingtest/cordingtest1.sol\":3240:3256  students[i].name */\n      0x00\n      add\n        /* \"cordingtest/cordingtest1.sol\":3258:3266  students */\n      0x00\n        /* \"cordingtest/cordingtest1.sol\":3267:3268  i */\n      dup3\n        /* \"cordingtest/cordingtest1.sol\":3258:3269  students[i] */\n      dup2\n      sload\n      dup2\n      lt\n      tag_224\n      jumpi\n      tag_225\n      tag_94\n      jump\t// in\n    tag_225:\n    tag_224:\n      swap1\n      0x00\n      mstore\n      keccak256(0x00, 0x20)\n      swap1\n      0x05\n      mul\n      add\n        /* \"cordingtest/cordingtest1.sol\":3258:3276  students[i].number */\n      0x01\n      add\n      sload\n        /* \"cordingtest/cordingtest1.sol\":3278:3286  students */\n      0x00\n        /* \"cordingtest/cordingtest1.sol\":3287:3288  i */\n      dup4\n        /* \"cordingtest/cordingtest1.sol\":3278:3289  students[i] */\n      dup2\n      sload\n      dup2\n      lt\n      tag_227\n      jumpi\n      tag_228\n      tag_94\n      jump\t// in\n    tag_228:\n    tag_227:\n      swap1\n      0x00\n      mstore\n      keccak256(0x00, 0x20)\n      swap1\n      0x05\n      mul\n      add\n        /* \"cordingtest/cordingtest1.sol\":3278:3295  students[i].score */\n      0x02\n      add\n      sload\n        /* \"cordingtest/cordingtest1.sol\":3297:3305  students */\n      0x00\n        /* \"cordingtest/cordingtest1.sol\":3306:3307  i */\n      dup5\n        /* \"cordingtest/cordingtest1.sol\":3297:3308  students[i] */\n      dup2\n      sload\n      dup2\n      lt\n      tag_230\n      jumpi\n      tag_231\n      tag_94\n      jump\t// in\n    tag_231:\n    tag_230:\n      swap1\n      0x00\n      mstore\n      keccak256(0x00, 0x20)\n      swap1\n      0x05\n      mul\n      add\n        /* \"cordingtest/cordingtest1.sol\":3297:3314  students[i].grade */\n      0x03\n      add\n        /* \"cordingtest/cordingtest1.sol\":3316:3324  students */\n      0x00\n        /* \"cordingtest/cordingtest1.sol\":3325:3326  i */\n      dup6\n        /* \"cordingtest/cordingtest1.sol\":3316:3327  students[i] */\n      dup2\n      sload\n      dup2\n      lt\n      tag_233\n      jumpi\n      tag_234\n      tag_94\n      jump\t// in\n    tag_234:\n    tag_233:\n      swap1\n      0x00\n      mstore\n      keccak256(0x00, 0x20)\n      swap1\n      0x05\n      mul\n      add\n        /* \"cordingtest/cordingtest1.sol\":3316:3333  students[i].class */\n      0x04\n      add\n        /* \"cordingtest/cordingtest1.sol\":3232:3334  return (students[i].name, students[i].number, students[i].score, students[i].grade, students[i].class) */\n      dup5\n      dup1\n      sload\n      tag_236\n      swap1\n      tag_65\n      jump\t// in\n    tag_236:\n      dup1\n      0x1f\n      add\n      0x20\n      dup1\n      swap2\n      div\n      mul\n      0x20\n      add\n      mload(0x40)\n      swap1\n      dup2\n      add\n      0x40\n      mstore\n      dup1\n      swap3\n      swap2\n      swap1\n      dup2\n      dup2\n      mstore\n      0x20\n      add\n      dup3\n      dup1\n      sload\n      tag_237\n      swap1\n      tag_65\n      jump\t// in\n    tag_237:\n      dup1\n      iszero\n      tag_238\n      jumpi\n      dup1\n      0x1f\n      lt\n      tag_239\n      jumpi\n      0x0100\n      dup1\n      dup4\n      sload\n      div\n      mul\n      dup4\n      mstore\n      swap2\n      0x20\n      add\n      swap2\n      jump(tag_238)\n    tag_239:\n      dup3\n      add\n      swap2\n      swap1\n      0x00\n      mstore\n      keccak256(0x00, 0x20)\n      swap1\n    tag_240:\n      dup2\n      sload\n      dup2\n      mstore\n      swap1\n      0x01\n      add\n      swap1\n      0x20\n      add\n      dup1\n      dup4\n      gt\n      tag_240\n      jumpi\n      dup3\n      swap1\n      sub\n      0x1f\n      and\n      dup3\n      add\n      swap2\n    tag_238:\n      pop\n      pop\n      pop\n      pop\n      pop\n      swap5\n      pop\n      dup2\n      dup1\n      sload\n      tag_241\n      swap1\n      tag_65\n      jump\t// in\n    tag_241:\n      dup1\n      0x1f\n      add\n      0x20\n      dup1\n      swap2\n      div\n      mul\n      0x20\n      add\n      mload(0x40)\n      swap1\n      dup2\n      add\n      0x40\n      mstore\n      dup1\n      swap3\n      swap2\n      swap1\n      dup2\n      dup2\n      mstore\n      0x20\n      add\n      dup3\n      dup1\n      sload\n      tag_242\n      swap1\n      tag_65\n      jump\t// in\n    tag_242:\n      dup1\n      iszero\n      tag_243\n      jumpi\n      dup1\n      0x1f\n      lt\n      tag_244\n      jumpi\n      0x0100\n      dup1\n      dup4\n      sload\n      div\n      mul\n      dup4\n      mstore\n      swap2\n      0x20\n      add\n      swap2\n      jump(tag_243)\n    tag_244:\n      dup3\n      add\n      swap2\n      swap1\n      0x00\n      mstore\n      keccak256(0x00, 0x20)\n      swap1\n    tag_245:\n      dup2\n      sload\n      dup2\n      mstore\n      swap1\n      0x01\n      add\n      swap1\n      0x20\n      add\n      dup1\n      dup4\n      gt\n      tag_245\n      jumpi\n      dup3\n      swap1\n      sub\n      0x1f\n      and\n      dup3\n      add\n      swap2\n    tag_243:\n      pop\n      pop\n      pop\n      pop\n      pop\n      swap2\n      pop\n      dup1\n      dup1\n      sload\n      tag_246\n      swap1\n      tag_65\n      jump\t// in\n    tag_246:\n      dup1\n      0x1f\n      add\n      0x20\n      dup1\n      swap2\n      div\n      mul\n      0x20\n      add\n      mload(0x40)\n      swap1\n      dup2\n      add\n      0x40\n      mstore\n      dup1\n      swap3\n      swap2\n      swap1\n      dup2\n      dup2\n      mstore\n      0x20\n      add\n      dup3\n      dup1\n      sload\n      tag_247\n      swap1\n      tag_65\n      jump\t// in\n    tag_247:\n      dup1\n      iszero\n      tag_248\n      jumpi\n      dup1\n      0x1f\n      lt\n      tag_249\n      jumpi\n      0x0100\n      dup1\n      dup4\n      sload\n      div\n      mul\n      dup4\n      mstore\n      swap2\n      0x20\n      add\n      swap2\n      jump(tag_248)\n    tag_249:\n      dup3\n      add\n      swap2\n      swap1\n      0x00\n      mstore\n      keccak256(0x00, 0x20)\n      swap1\n    tag_250:\n      dup2\n      sload\n      dup2\n      mstore\n      swap1\n      0x01\n      add\n      swap1\n      0x20\n      add\n      dup1\n      dup4\n      gt\n      tag_250\n      jumpi\n      dup3\n      swap1\n      sub\n      0x1f\n      and\n      dup3\n      add\n      swap2\n    tag_248:\n      pop\n      pop\n      pop\n      pop\n      pop\n      swap1\n      pop\n      swap6\n      pop\n      swap6\n      pop\n      swap6\n      pop\n      swap6\n      pop\n      swap6\n      pop\n      pop\n      jump(tag_212)\n        /* \"cordingtest/cordingtest1.sol\":3147:3349  if (keccak256(bytes(students[i].name)) == keccak256(bytes(_name))) {... */\n    tag_220:\n        /* \"cordingtest/cordingtest1.sol\":3128:3131  i++ */\n      dup1\n      dup1\n      0x01\n      add\n      swap2\n      pop\n      pop\n        /* \"cordingtest/cordingtest1.sol\":3090:3359  for (uint i = 0; i < students.length; i++) {... */\n      jump(tag_213)\n    tag_214:\n      pop\n        /* \"cordingtest/cordingtest1.sol\":3368:3395  revert(\"Student not found\") */\n      mload(0x40)\n      0x08c379a000000000000000000000000000000000000000000000000000000000\n      dup2\n      mstore\n      0x04\n      add\n      tag_251\n      swap1\n      tag_125\n      jump\t// in\n    tag_251:\n      mload(0x40)\n      dup1\n      swap2\n      sub\n      swap1\n      revert\n        /* \"cordingtest/cordingtest1.sol\":2957:3402  function getStudentName(string memory _name) public view returns (string memory, uint, uint, string memory, string memory) {... */\n    tag_212:\n      swap2\n      swap4\n      swap6\n      swap1\n      swap3\n      swap5\n      pop\n      jump\t// out\n        /* \"cordingtest/cordingtest1.sol\":3728:3823  function getNumberStudents() public view returns (uint) {... */\n    tag_60:\n        /* \"cordingtest/cordingtest1.sol\":3778:3782  uint */\n      0x00\n        /* \"cordingtest/cordingtest1.sol\":3801:3809  students */\n      dup1\n        /* \"cordingtest/cordingtest1.sol\":3801:3816  students.length */\n      dup1\n      sload\n      swap1\n      pop\n        /* \"cordingtest/cordingtest1.sol\":3794:3816  return students.length */\n      swap1\n      pop\n        /* \"cordingtest/cordingtest1.sol\":3728:3823  function getNumberStudents() public view returns (uint) {... */\n      swap1\n      jump\t// out\n    tag_154:\n      mload(0x40)\n      dup1\n      0xa0\n      add\n      0x40\n      mstore\n      dup1\n      0x60\n      dup2\n      mstore\n      0x20\n      add\n      0x00\n      dup2\n      mstore\n      0x20\n      add\n      0x00\n      dup2\n      mstore\n      0x20\n      add\n      0x60\n      dup2\n      mstore\n      0x20\n      add\n      0x60\n      dup2\n      mstore\n      pop\n      swap1\n      jump\t// out\n        /* \"#utility.yul\":7:82   */\n    tag_253:\n        /* \"#utility.yul\":40:46   */\n      0x00\n        /* \"#utility.yul\":73:75   */\n      0x40\n        /* \"#utility.yul\":67:76   */\n      mload\n        /* \"#utility.yul\":57:76   */\n      swap1\n      pop\n        /* \"#utility.yul\":7:82   */\n      swap1\n      jump\t// out\n        /* \"#utility.yul\":88:205   */\n    tag_254:\n        /* \"#utility.yul\":197:198   */\n      0x00\n        /* \"#utility.yul\":194:195   */\n      dup1\n        /* \"#utility.yul\":187:199   */\n      revert\n        /* \"#utility.yul\":211:328   */\n    tag_255:\n        /* \"#utility.yul\":320:321   */\n      0x00\n        /* \"#utility.yul\":317:318   */\n      dup1\n        /* \"#utility.yul\":310:322   */\n      revert\n        /* \"#utility.yul\":334:411   */\n    tag_256:\n        /* \"#utility.yul\":371:378   */\n      0x00\n        /* \"#utility.yul\":400:405   */\n      dup2\n        /* \"#utility.yul\":389:405   */\n      swap1\n      pop\n        /* \"#utility.yul\":334:411   */\n      swap2\n      swap1\n      pop\n      jump\t// out\n        /* \"#utility.yul\":417:539   */\n    tag_257:\n        /* \"#utility.yul\":490:514   */\n      tag_314\n        /* \"#utility.yul\":508:513   */\n      dup2\n        /* \"#utility.yul\":490:514   */\n      tag_256\n      jump\t// in\n    tag_314:\n        /* \"#utility.yul\":483:488   */\n      dup2\n        /* \"#utility.yul\":480:515   */\n      eq\n        /* \"#utility.yul\":470:533   */\n      tag_315\n      jumpi\n        /* \"#utility.yul\":529:530   */\n      0x00\n        /* \"#utility.yul\":526:527   */\n      dup1\n        /* \"#utility.yul\":519:531   */\n      revert\n        /* \"#utility.yul\":470:533   */\n    tag_315:\n        /* \"#utility.yul\":417:539   */\n      pop\n      jump\t// out\n        /* \"#utility.yul\":545:684   */\n    tag_258:\n        /* \"#utility.yul\":591:596   */\n      0x00\n        /* \"#utility.yul\":629:635   */\n      dup2\n        /* \"#utility.yul\":616:636   */\n      calldataload\n        /* \"#utility.yul\":607:636   */\n      swap1\n      pop\n        /* \"#utility.yul\":645:678   */\n      tag_317\n        /* \"#utility.yul\":672:677   */\n      dup2\n        /* \"#utility.yul\":645:678   */\n      tag_257\n      jump\t// in\n    tag_317:\n        /* \"#utility.yul\":545:684   */\n      swap3\n      swap2\n      pop\n      pop\n      jump\t// out\n        /* \"#utility.yul\":690:1019   */\n    tag_17:\n        /* \"#utility.yul\":749:755   */\n      0x00\n        /* \"#utility.yul\":798:800   */\n      0x20\n        /* \"#utility.yul\":786:795   */\n      dup3\n        /* \"#utility.yul\":777:784   */\n      dup5\n        /* \"#utility.yul\":773:796   */\n      sub\n        /* \"#utility.yul\":769:801   */\n      slt\n        /* \"#utility.yul\":766:885   */\n      iszero\n      tag_319\n      jumpi\n        /* \"#utility.yul\":804:883   */\n      tag_320\n      tag_254\n      jump\t// in\n    tag_320:\n        /* \"#utility.yul\":766:885   */\n    tag_319:\n        /* \"#utility.yul\":924:925   */\n      0x00\n        /* \"#utility.yul\":949:1002   */\n      tag_321\n        /* \"#utility.yul\":994:1001   */\n      dup5\n        /* \"#utility.yul\":985:991   */\n      dup3\n        /* \"#utility.yul\":974:983   */\n      dup6\n        /* \"#utility.yul\":970:992   */\n      add\n        /* \"#utility.yul\":949:1002   */\n      tag_258\n      jump\t// in\n    tag_321:\n        /* \"#utility.yul\":939:1002   */\n      swap2\n      pop\n        /* \"#utility.yul\":895:1012   */\n      pop\n        /* \"#utility.yul\":690:1019   */\n      swap3\n      swap2\n      pop\n      pop\n      jump\t// out\n        /* \"#utility.yul\":1025:1124   */\n    tag_259:\n        /* \"#utility.yul\":1077:1083   */\n      0x00\n        /* \"#utility.yul\":1111:1116   */\n      dup2\n        /* \"#utility.yul\":1105:1117   */\n      mload\n        /* \"#utility.yul\":1095:1117   */\n      swap1\n      pop\n        /* \"#utility.yul\":1025:1124   */\n      swap2\n      swap1\n      pop\n      jump\t// out\n        /* \"#utility.yul\":1130:1299   */\n    tag_260:\n        /* \"#utility.yul\":1214:1225   */\n      0x00\n        /* \"#utility.yul\":1248:1254   */\n      dup3\n        /* \"#utility.yul\":1243:1246   */\n      dup3\n        /* \"#utility.yul\":1236:1255   */\n      mstore\n        /* \"#utility.yul\":1288:1292   */\n      0x20\n        /* \"#utility.yul\":1283:1286   */\n      dup3\n        /* \"#utility.yul\":1279:1293   */\n      add\n        /* \"#utility.yul\":1264:1293   */\n      swap1\n      pop\n        /* \"#utility.yul\":1130:1299   */\n      swap3\n      swap2\n      pop\n      pop\n      jump\t// out\n        /* \"#utility.yul\":1305:1444   */\n    tag_261:\n        /* \"#utility.yul\":1394:1400   */\n      dup3\n        /* \"#utility.yul\":1389:1392   */\n      dup2\n        /* \"#utility.yul\":1384:1387   */\n      dup4\n        /* \"#utility.yul\":1378:1401   */\n      mcopy\n        /* \"#utility.yul\":1435:1436   */\n      0x00\n        /* \"#utility.yul\":1426:1432   */\n      dup4\n        /* \"#utility.yul\":1421:1424   */\n      dup4\n        /* \"#utility.yul\":1417:1433   */\n      add\n        /* \"#utility.yul\":1410:1437   */\n      mstore\n        /* \"#utility.yul\":1305:1444   */\n      pop\n      pop\n      pop\n      jump\t// out\n        /* \"#utility.yul\":1450:1552   */\n    tag_262:\n        /* \"#utility.yul\":1491:1497   */\n      0x00\n        /* \"#utility.yul\":1542:1544   */\n      0x1f\n        /* \"#utility.yul\":1538:1545   */\n      not\n        /* \"#utility.yul\":1533:1535   */\n      0x1f\n        /* \"#utility.yul\":1526:1531   */\n      dup4\n        /* \"#utility.yul\":1522:1536   */\n      add\n        /* \"#utility.yul\":1518:1546   */\n      and\n        /* \"#utility.yul\":1508:1546   */\n      swap1\n      pop\n        /* \"#utility.yul\":1450:1552   */\n      swap2\n      swap1\n      pop\n      jump\t// out\n        /* \"#utility.yul\":1558:1935   */\n    tag_263:\n        /* \"#utility.yul\":1646:1649   */\n      0x00\n        /* \"#utility.yul\":1674:1713   */\n      tag_327\n        /* \"#utility.yul\":1707:1712   */\n      dup3\n        /* \"#utility.yul\":1674:1713   */\n      tag_259\n      jump\t// in\n    tag_327:\n        /* \"#utility.yul\":1729:1800   */\n      tag_328\n        /* \"#utility.yul\":1793:1799   */\n      dup2\n        /* \"#utility.yul\":1788:1791   */\n      dup6\n        /* \"#utility.yul\":1729:1800   */\n      tag_260\n      jump\t// in\n    tag_328:\n        /* \"#utility.yul\":1722:1800   */\n      swap4\n      pop\n        /* \"#utility.yul\":1809:1874   */\n      tag_329\n        /* \"#utility.yul\":1867:1873   */\n      dup2\n        /* \"#utility.yul\":1862:1865   */\n      dup6\n        /* \"#utility.yul\":1855:1859   */\n      0x20\n        /* \"#utility.yul\":1848:1853   */\n      dup7\n        /* \"#utility.yul\":1844:1860   */\n      add\n        /* \"#utility.yul\":1809:1874   */\n      tag_261\n      jump\t// in\n    tag_329:\n        /* \"#utility.yul\":1899:1928   */\n      tag_330\n        /* \"#utility.yul\":1921:1927   */\n      dup2\n        /* \"#utility.yul\":1899:1928   */\n      tag_262\n      jump\t// in\n    tag_330:\n        /* \"#utility.yul\":1894:1897   */\n      dup5\n        /* \"#utility.yul\":1890:1929   */\n      add\n        /* \"#utility.yul\":1883:1929   */\n      swap2\n      pop\n        /* \"#utility.yul\":1650:1935   */\n      pop\n        /* \"#utility.yul\":1558:1935   */\n      swap3\n      swap2\n      pop\n      pop\n      jump\t// out\n        /* \"#utility.yul\":1941:2059   */\n    tag_264:\n        /* \"#utility.yul\":2028:2052   */\n      tag_332\n        /* \"#utility.yul\":2046:2051   */\n      dup2\n        /* \"#utility.yul\":2028:2052   */\n      tag_256\n      jump\t// in\n    tag_332:\n        /* \"#utility.yul\":2023:2026   */\n      dup3\n        /* \"#utility.yul\":2016:2053   */\n      mstore\n        /* \"#utility.yul\":1941:2059   */\n      pop\n      pop\n      jump\t// out\n        /* \"#utility.yul\":2065:3002   */\n    tag_20:\n        /* \"#utility.yul\":2330:2334   */\n      0x00\n        /* \"#utility.yul\":2368:2371   */\n      0xa0\n        /* \"#utility.yul\":2357:2366   */\n      dup3\n        /* \"#utility.yul\":2353:2372   */\n      add\n        /* \"#utility.yul\":2345:2372   */\n      swap1\n      pop\n        /* \"#utility.yul\":2418:2427   */\n      dup2\n        /* \"#utility.yul\":2412:2416   */\n      dup2\n        /* \"#utility.yul\":2408:2428   */\n      sub\n        /* \"#utility.yul\":2404:2405   */\n      0x00\n        /* \"#utility.yul\":2393:2402   */\n      dup4\n        /* \"#utility.yul\":2389:2406   */\n      add\n        /* \"#utility.yul\":2382:2429   */\n      mstore\n        /* \"#utility.yul\":2446:2524   */\n      tag_334\n        /* \"#utility.yul\":2519:2523   */\n      dup2\n        /* \"#utility.yul\":2510:2516   */\n      dup9\n        /* \"#utility.yul\":2446:2524   */\n      tag_263\n      jump\t// in\n    tag_334:\n        /* \"#utility.yul\":2438:2524   */\n      swap1\n      pop\n        /* \"#utility.yul\":2534:2606   */\n      tag_335\n        /* \"#utility.yul\":2602:2604   */\n      0x20\n        /* \"#utility.yul\":2591:2600   */\n      dup4\n        /* \"#utility.yul\":2587:2605   */\n      add\n        /* \"#utility.yul\":2578:2584   */\n      dup8\n        /* \"#utility.yul\":2534:2606   */\n      tag_264\n      jump\t// in\n    tag_335:\n        /* \"#utility.yul\":2616:2688   */\n      tag_336\n        /* \"#utility.yul\":2684:2686   */\n      0x40\n        /* \"#utility.yul\":2673:2682   */\n      dup4\n        /* \"#utility.yul\":2669:2687   */\n      add\n        /* \"#utility.yul\":2660:2666   */\n      dup7\n        /* \"#utility.yul\":2616:2688   */\n      tag_264\n      jump\t// in\n    tag_336:\n        /* \"#utility.yul\":2735:2744   */\n      dup2\n        /* \"#utility.yul\":2729:2733   */\n      dup2\n        /* \"#utility.yul\":2725:2745   */\n      sub\n        /* \"#utility.yul\":2720:2722   */\n      0x60\n        /* \"#utility.yul\":2709:2718   */\n      dup4\n        /* \"#utility.yul\":2705:2723   */\n      add\n        /* \"#utility.yul\":2698:2746   */\n      mstore\n        /* \"#utility.yul\":2763:2841   */\n      tag_337\n        /* \"#utility.yul\":2836:2840   */\n      dup2\n        /* \"#utility.yul\":2827:2833   */\n      dup6\n        /* \"#utility.yul\":2763:2841   */\n      tag_263\n      jump\t// in\n    tag_337:\n        /* \"#utility.yul\":2755:2841   */\n      swap1\n      pop\n        /* \"#utility.yul\":2889:2898   */\n      dup2\n        /* \"#utility.yul\":2883:2887   */\n      dup2\n        /* \"#utility.yul\":2879:2899   */\n      sub\n        /* \"#utility.yul\":2873:2876   */\n      0x80\n        /* \"#utility.yul\":2862:2871   */\n      dup4\n        /* \"#utility.yul\":2858:2877   */\n      add\n        /* \"#utility.yul\":2851:2900   */\n      mstore\n        /* \"#utility.yul\":2917:2995   */\n      tag_338\n        /* \"#utility.yul\":2990:2994   */\n      dup2\n        /* \"#utility.yul\":2981:2987   */\n      dup5\n        /* \"#utility.yul\":2917:2995   */\n      tag_263\n      jump\t// in\n    tag_338:\n        /* \"#utility.yul\":2909:2995   */\n      swap1\n      pop\n        /* \"#utility.yul\":2065:3002   */\n      swap7\n      swap6\n      pop\n      pop\n      pop\n      pop\n      pop\n      pop\n      jump\t// out\n        /* \"#utility.yul\":3008:3321   */\n    tag_25:\n        /* \"#utility.yul\":3121:3125   */\n      0x00\n        /* \"#utility.yul\":3159:3161   */\n      0x20\n        /* \"#utility.yul\":3148:3157   */\n      dup3\n        /* \"#utility.yul\":3144:3162   */\n      add\n        /* \"#utility.yul\":3136:3162   */\n      swap1\n      pop\n        /* \"#utility.yul\":3208:3217   */\n      dup2\n        /* \"#utility.yul\":3202:3206   */\n      dup2\n        /* \"#utility.yul\":3198:3218   */\n      sub\n        /* \"#utility.yul\":3194:3195   */\n      0x00\n        /* \"#utility.yul\":3183:3192   */\n      dup4\n        /* \"#utility.yul\":3179:3196   */\n      add\n        /* \"#utility.yul\":3172:3219   */\n      mstore\n        /* \"#utility.yul\":3236:3314   */\n      tag_340\n        /* \"#utility.yul\":3309:3313   */\n      dup2\n        /* \"#utility.yul\":3300:3306   */\n      dup5\n        /* \"#utility.yul\":3236:3314   */\n      tag_263\n      jump\t// in\n    tag_340:\n        /* \"#utility.yul\":3228:3314   */\n      swap1\n      pop\n        /* \"#utility.yul\":3008:3321   */\n      swap3\n      swap2\n      pop\n      pop\n      jump\t// out\n        /* \"#utility.yul\":3327:3444   */\n    tag_265:\n        /* \"#utility.yul\":3436:3437   */\n      0x00\n        /* \"#utility.yul\":3433:3434   */\n      dup1\n        /* \"#utility.yul\":3426:3438   */\n      revert\n        /* \"#utility.yul\":3450:3567   */\n    tag_266:\n        /* \"#utility.yul\":3559:3560   */\n      0x00\n        /* \"#utility.yul\":3556:3557   */\n      dup1\n        /* \"#utility.yul\":3549:3561   */\n      revert\n        /* \"#utility.yul\":3573:3753   */\n    tag_150:\n        /* \"#utility.yul\":3621:3698   */\n      0x4e487b7100000000000000000000000000000000000000000000000000000000\n        /* \"#utility.yul\":3618:3619   */\n      0x00\n        /* \"#utility.yul\":3611:3699   */\n      mstore\n        /* \"#utility.yul\":3718:3722   */\n      0x41\n        /* \"#utility.yul\":3715:3716   */\n      0x04\n        /* \"#utility.yul\":3708:3723   */\n      mstore\n        /* \"#utility.yul\":3742:3746   */\n      0x24\n        /* \"#utility.yul\":3739:3740   */\n      0x00\n        /* \"#utility.yul\":3732:3747   */\n      revert\n        /* \"#utility.yul\":3759:4040   */\n    tag_267:\n        /* \"#utility.yul\":3842:3869   */\n      tag_345\n        /* \"#utility.yul\":3864:3868   */\n      dup3\n        /* \"#utility.yul\":3842:3869   */\n      tag_262\n      jump\t// in\n    tag_345:\n        /* \"#utility.yul\":3834:3840   */\n      dup2\n        /* \"#utility.yul\":3830:3870   */\n      add\n        /* \"#utility.yul\":3972:3978   */\n      dup2\n        /* \"#utility.yul\":3960:3970   */\n      dup2\n        /* \"#utility.yul\":3957:3979   */\n      lt\n        /* \"#utility.yul\":3936:3954   */\n      0xffffffffffffffff\n        /* \"#utility.yul\":3924:3934   */\n      dup3\n        /* \"#utility.yul\":3921:3955   */\n      gt\n        /* \"#utility.yul\":3918:3980   */\n      or\n        /* \"#utility.yul\":3915:4003   */\n      iszero\n      tag_346\n      jumpi\n        /* \"#utility.yul\":3983:4001   */\n      tag_347\n      tag_150\n      jump\t// in\n    tag_347:\n        /* \"#utility.yul\":3915:4003   */\n    tag_346:\n        /* \"#utility.yul\":4023:4033   */\n      dup1\n        /* \"#utility.yul\":4019:4021   */\n      0x40\n        /* \"#utility.yul\":4012:4034   */\n      mstore\n        /* \"#utility.yul\":3802:4040   */\n      pop\n        /* \"#utility.yul\":3759:4040   */\n      pop\n      pop\n      jump\t// out\n        /* \"#utility.yul\":4046:4175   */\n    tag_268:\n        /* \"#utility.yul\":4080:4086   */\n      0x00\n        /* \"#utility.yul\":4107:4127   */\n      tag_349\n      tag_253\n      jump\t// in\n    tag_349:\n        /* \"#utility.yul\":4097:4127   */\n      swap1\n      pop\n        /* \"#utility.yul\":4136:4169   */\n      tag_350\n        /* \"#utility.yul\":4164:4168   */\n      dup3\n        /* \"#utility.yul\":4156:4162   */\n      dup3\n        /* \"#utility.yul\":4136:4169   */\n      tag_267\n      jump\t// in\n    tag_350:\n        /* \"#utility.yul\":4046:4175   */\n      swap2\n      swap1\n      pop\n      jump\t// out\n        /* \"#utility.yul\":4181:4489   */\n    tag_269:\n        /* \"#utility.yul\":4243:4247   */\n      0x00\n        /* \"#utility.yul\":4333:4351   */\n      0xffffffffffffffff\n        /* \"#utility.yul\":4325:4331   */\n      dup3\n        /* \"#utility.yul\":4322:4352   */\n      gt\n        /* \"#utility.yul\":4319:4375   */\n      iszero\n      tag_352\n      jumpi\n        /* \"#utility.yul\":4355:4373   */\n      tag_353\n      tag_150\n      jump\t// in\n    tag_353:\n        /* \"#utility.yul\":4319:4375   */\n    tag_352:\n        /* \"#utility.yul\":4393:4422   */\n      tag_354\n        /* \"#utility.yul\":4415:4421   */\n      dup3\n        /* \"#utility.yul\":4393:4422   */\n      tag_262\n      jump\t// in\n    tag_354:\n        /* \"#utility.yul\":4385:4422   */\n      swap1\n      pop\n        /* \"#utility.yul\":4477:4481   */\n      0x20\n        /* \"#utility.yul\":4471:4475   */\n      dup2\n        /* \"#utility.yul\":4467:4482   */\n      add\n        /* \"#utility.yul\":4459:4482   */\n      swap1\n      pop\n        /* \"#utility.yul\":4181:4489   */\n      swap2\n      swap1\n      pop\n      jump\t// out\n        /* \"#utility.yul\":4495:4643   */\n    tag_270:\n        /* \"#utility.yul\":4593:4599   */\n      dup3\n        /* \"#utility.yul\":4588:4591   */\n      dup2\n        /* \"#utility.yul\":4583:4586   */\n      dup4\n        /* \"#utility.yul\":4570:4600   */\n      calldatacopy\n        /* \"#utility.yul\":4634:4635   */\n      0x00\n        /* \"#utility.yul\":4625:4631   */\n      dup4\n        /* \"#utility.yul\":4620:4623   */\n      dup4\n        /* \"#utility.yul\":4616:4632   */\n      add\n        /* \"#utility.yul\":4609:4636   */\n      mstore\n        /* \"#utility.yul\":4495:4643   */\n      pop\n      pop\n      pop\n      jump\t// out\n        /* \"#utility.yul\":4649:5074   */\n    tag_271:\n        /* \"#utility.yul\":4727:4732   */\n      0x00\n        /* \"#utility.yul\":4752:4818   */\n      tag_357\n        /* \"#utility.yul\":4768:4817   */\n      tag_358\n        /* \"#utility.yul\":4810:4816   */\n      dup5\n        /* \"#utility.yul\":4768:4817   */\n      tag_269\n      jump\t// in\n    tag_358:\n        /* \"#utility.yul\":4752:4818   */\n      tag_268\n      jump\t// in\n    tag_357:\n        /* \"#utility.yul\":4743:4818   */\n      swap1\n      pop\n        /* \"#utility.yul\":4841:4847   */\n      dup3\n        /* \"#utility.yul\":4834:4839   */\n      dup2\n        /* \"#utility.yul\":4827:4848   */\n      mstore\n        /* \"#utility.yul\":4879:4883   */\n      0x20\n        /* \"#utility.yul\":4872:4877   */\n      dup2\n        /* \"#utility.yul\":4868:4884   */\n      add\n        /* \"#utility.yul\":4917:4920   */\n      dup5\n        /* \"#utility.yul\":4908:4914   */\n      dup5\n        /* \"#utility.yul\":4903:4906   */\n      dup5\n        /* \"#utility.yul\":4899:4915   */\n      add\n        /* \"#utility.yul\":4896:4921   */\n      gt\n        /* \"#utility.yul\":4893:5005   */\n      iszero\n      tag_359\n      jumpi\n        /* \"#utility.yul\":4924:5003   */\n      tag_360\n      tag_266\n      jump\t// in\n    tag_360:\n        /* \"#utility.yul\":4893:5005   */\n    tag_359:\n        /* \"#utility.yul\":5014:5068   */\n      tag_361\n        /* \"#utility.yul\":5061:5067   */\n      dup5\n        /* \"#utility.yul\":5056:5059   */\n      dup3\n        /* \"#utility.yul\":5051:5054   */\n      dup6\n        /* \"#utility.yul\":5014:5068   */\n      tag_270\n      jump\t// in\n    tag_361:\n        /* \"#utility.yul\":4733:5074   */\n      pop\n        /* \"#utility.yul\":4649:5074   */\n      swap4\n      swap3\n      pop\n      pop\n      pop\n      jump\t// out\n        /* \"#utility.yul\":5094:5434   */\n    tag_272:\n        /* \"#utility.yul\":5150:5155   */\n      0x00\n        /* \"#utility.yul\":5199:5202   */\n      dup3\n        /* \"#utility.yul\":5192:5196   */\n      0x1f\n        /* \"#utility.yul\":5184:5190   */\n      dup4\n        /* \"#utility.yul\":5180:5197   */\n      add\n        /* \"#utility.yul\":5176:5203   */\n      slt\n        /* \"#utility.yul\":5166:5288   */\n      tag_363\n      jumpi\n        /* \"#utility.yul\":5207:5286   */\n      tag_364\n      tag_265\n      jump\t// in\n    tag_364:\n        /* \"#utility.yul\":5166:5288   */\n    tag_363:\n        /* \"#utility.yul\":5324:5330   */\n      dup2\n        /* \"#utility.yul\":5311:5331   */\n      calldataload\n        /* \"#utility.yul\":5349:5428   */\n      tag_365\n        /* \"#utility.yul\":5424:5427   */\n      dup5\n        /* \"#utility.yul\":5416:5422   */\n      dup3\n        /* \"#utility.yul\":5409:5413   */\n      0x20\n        /* \"#utility.yul\":5401:5407   */\n      dup7\n        /* \"#utility.yul\":5397:5414   */\n      add\n        /* \"#utility.yul\":5349:5428   */\n      tag_271\n      jump\t// in\n    tag_365:\n        /* \"#utility.yul\":5340:5428   */\n      swap2\n      pop\n        /* \"#utility.yul\":5156:5434   */\n      pop\n        /* \"#utility.yul\":5094:5434   */\n      swap3\n      swap2\n      pop\n      pop\n      jump\t// out\n        /* \"#utility.yul\":5440:5949   */\n    tag_32:\n        /* \"#utility.yul\":5509:5515   */\n      0x00\n        /* \"#utility.yul\":5558:5560   */\n      0x20\n        /* \"#utility.yul\":5546:5555   */\n      dup3\n        /* \"#utility.yul\":5537:5544   */\n      dup5\n        /* \"#utility.yul\":5533:5556   */\n      sub\n        /* \"#utility.yul\":5529:5561   */\n      slt\n        /* \"#utility.yul\":5526:5645   */\n      iszero\n      tag_367\n      jumpi\n        /* \"#utility.yul\":5564:5643   */\n      tag_368\n      tag_254\n      jump\t// in\n    tag_368:\n        /* \"#utility.yul\":5526:5645   */\n    tag_367:\n        /* \"#utility.yul\":5712:5713   */\n      0x00\n        /* \"#utility.yul\":5701:5710   */\n      dup3\n        /* \"#utility.yul\":5697:5714   */\n      add\n        /* \"#utility.yul\":5684:5715   */\n      calldataload\n        /* \"#utility.yul\":5742:5760   */\n      0xffffffffffffffff\n        /* \"#utility.yul\":5734:5740   */\n      dup2\n        /* \"#utility.yul\":5731:5761   */\n      gt\n        /* \"#utility.yul\":5728:5845   */\n      iszero\n      tag_369\n      jumpi\n        /* \"#utility.yul\":5764:5843   */\n      tag_370\n      tag_255\n      jump\t// in\n    tag_370:\n        /* \"#utility.yul\":5728:5845   */\n    tag_369:\n        /* \"#utility.yul\":5869:5932   */\n      tag_371\n        /* \"#utility.yul\":5924:5931   */\n      dup5\n        /* \"#utility.yul\":5915:5921   */\n      dup3\n        /* \"#utility.yul\":5904:5913   */\n      dup6\n        /* \"#utility.yul\":5900:5922   */\n      add\n        /* \"#utility.yul\":5869:5932   */\n      tag_272\n      jump\t// in\n    tag_371:\n        /* \"#utility.yul\":5859:5932   */\n      swap2\n      pop\n        /* \"#utility.yul\":5655:5942   */\n      pop\n        /* \"#utility.yul\":5440:5949   */\n      swap3\n      swap2\n      pop\n      pop\n      jump\t// out\n        /* \"#utility.yul\":5955:6177   */\n    tag_35:\n        /* \"#utility.yul\":6048:6052   */\n      0x00\n        /* \"#utility.yul\":6086:6088   */\n      0x20\n        /* \"#utility.yul\":6075:6084   */\n      dup3\n        /* \"#utility.yul\":6071:6089   */\n      add\n        /* \"#utility.yul\":6063:6089   */\n      swap1\n      pop\n        /* \"#utility.yul\":6099:6170   */\n      tag_373\n        /* \"#utility.yul\":6167:6168   */\n      0x00\n        /* \"#utility.yul\":6156:6165   */\n      dup4\n        /* \"#utility.yul\":6152:6169   */\n      add\n        /* \"#utility.yul\":6143:6149   */\n      dup5\n        /* \"#utility.yul\":6099:6170   */\n      tag_264\n      jump\t// in\n    tag_373:\n        /* \"#utility.yul\":5955:6177   */\n      swap3\n      swap2\n      pop\n      pop\n      jump\t// out\n        /* \"#utility.yul\":6183:6320   */\n    tag_273:\n        /* \"#utility.yul\":6273:6279   */\n      0x00\n        /* \"#utility.yul\":6307:6312   */\n      dup2\n        /* \"#utility.yul\":6301:6313   */\n      mload\n        /* \"#utility.yul\":6291:6313   */\n      swap1\n      pop\n        /* \"#utility.yul\":6183:6320   */\n      swap2\n      swap1\n      pop\n      jump\t// out\n        /* \"#utility.yul\":6326:6533   */\n    tag_274:\n        /* \"#utility.yul\":6448:6459   */\n      0x00\n        /* \"#utility.yul\":6482:6488   */\n      dup3\n        /* \"#utility.yul\":6477:6480   */\n      dup3\n        /* \"#utility.yul\":6470:6489   */\n      mstore\n        /* \"#utility.yul\":6522:6526   */\n      0x20\n        /* \"#utility.yul\":6517:6520   */\n      dup3\n        /* \"#utility.yul\":6513:6527   */\n      add\n        /* \"#utility.yul\":6498:6527   */\n      swap1\n      pop\n        /* \"#utility.yul\":6326:6533   */\n      swap3\n      swap2\n      pop\n      pop\n      jump\t// out\n        /* \"#utility.yul\":6539:6694   */\n    tag_275:\n        /* \"#utility.yul\":6629:6633   */\n      0x00\n        /* \"#utility.yul\":6652:6655   */\n      dup2\n        /* \"#utility.yul\":6644:6655   */\n      swap1\n      pop\n        /* \"#utility.yul\":6682:6686   */\n      0x20\n        /* \"#utility.yul\":6677:6680   */\n      dup3\n        /* \"#utility.yul\":6673:6687   */\n      add\n        /* \"#utility.yul\":6665:6687   */\n      swap1\n      pop\n        /* \"#utility.yul\":6539:6694   */\n      swap2\n      swap1\n      pop\n      jump\t// out\n        /* \"#utility.yul\":6700:6859   */\n    tag_276:\n        /* \"#utility.yul\":6774:6785   */\n      0x00\n        /* \"#utility.yul\":6808:6814   */\n      dup3\n        /* \"#utility.yul\":6803:6806   */\n      dup3\n        /* \"#utility.yul\":6796:6815   */\n      mstore\n        /* \"#utility.yul\":6848:6852   */\n      0x20\n        /* \"#utility.yul\":6843:6846   */\n      dup3\n        /* \"#utility.yul\":6839:6853   */\n      add\n        /* \"#utility.yul\":6824:6853   */\n      swap1\n      pop\n        /* \"#utility.yul\":6700:6859   */\n      swap3\n      swap2\n      pop\n      pop\n      jump\t// out\n        /* \"#utility.yul\":6865:7222   */\n    tag_277:\n        /* \"#utility.yul\":6943:6946   */\n      0x00\n        /* \"#utility.yul\":6971:7010   */\n      tag_379\n        /* \"#utility.yul\":7004:7009   */\n      dup3\n        /* \"#utility.yul\":6971:7010   */\n      tag_259\n      jump\t// in\n    tag_379:\n        /* \"#utility.yul\":7026:7087   */\n      tag_380\n        /* \"#utility.yul\":7080:7086   */\n      dup2\n        /* \"#utility.yul\":7075:7078   */\n      dup6\n        /* \"#utility.yul\":7026:7087   */\n      tag_276\n      jump\t// in\n    tag_380:\n        /* \"#utility.yul\":7019:7087   */\n      swap4\n      pop\n        /* \"#utility.yul\":7096:7161   */\n      tag_381\n        /* \"#utility.yul\":7154:7160   */\n      dup2\n        /* \"#utility.yul\":7149:7152   */\n      dup6\n        /* \"#utility.yul\":7142:7146   */\n      0x20\n        /* \"#utility.yul\":7135:7140   */\n      dup7\n        /* \"#utility.yul\":7131:7147   */\n      add\n        /* \"#utility.yul\":7096:7161   */\n      tag_261\n      jump\t// in\n    tag_381:\n        /* \"#utility.yul\":7186:7215   */\n      tag_382\n        /* \"#utility.yul\":7208:7214   */\n      dup2\n        /* \"#utility.yul\":7186:7215   */\n      tag_262\n      jump\t// in\n    tag_382:\n        /* \"#utility.yul\":7181:7184   */\n      dup5\n        /* \"#utility.yul\":7177:7216   */\n      add\n        /* \"#utility.yul\":7170:7216   */\n      swap2\n      pop\n        /* \"#utility.yul\":6947:7222   */\n      pop\n        /* \"#utility.yul\":6865:7222   */\n      swap3\n      swap2\n      pop\n      pop\n      jump\t// out\n        /* \"#utility.yul\":7228:7336   */\n    tag_278:\n        /* \"#utility.yul\":7305:7329   */\n      tag_384\n        /* \"#utility.yul\":7323:7328   */\n      dup2\n        /* \"#utility.yul\":7305:7329   */\n      tag_256\n      jump\t// in\n    tag_384:\n        /* \"#utility.yul\":7300:7303   */\n      dup3\n        /* \"#utility.yul\":7293:7330   */\n      mstore\n        /* \"#utility.yul\":7228:7336   */\n      pop\n      pop\n      jump\t// out\n        /* \"#utility.yul\":7394:8655   */\n    tag_279:\n        /* \"#utility.yul\":7499:7502   */\n      0x00\n        /* \"#utility.yul\":7535:7539   */\n      0xa0\n        /* \"#utility.yul\":7530:7533   */\n      dup4\n        /* \"#utility.yul\":7526:7540   */\n      add\n        /* \"#utility.yul\":7622:7626   */\n      0x00\n        /* \"#utility.yul\":7615:7620   */\n      dup4\n        /* \"#utility.yul\":7611:7627   */\n      add\n        /* \"#utility.yul\":7605:7628   */\n      mload\n        /* \"#utility.yul\":7675:7678   */\n      dup5\n        /* \"#utility.yul\":7669:7673   */\n      dup3\n        /* \"#utility.yul\":7665:7679   */\n      sub\n        /* \"#utility.yul\":7658:7662   */\n      0x00\n        /* \"#utility.yul\":7653:7656   */\n      dup7\n        /* \"#utility.yul\":7649:7663   */\n      add\n        /* \"#utility.yul\":7642:7680   */\n      mstore\n        /* \"#utility.yul\":7701:7774   */\n      tag_386\n        /* \"#utility.yul\":7769:7773   */\n      dup3\n        /* \"#utility.yul\":7755:7767   */\n      dup3\n        /* \"#utility.yul\":7701:7774   */\n      tag_277\n      jump\t// in\n    tag_386:\n        /* \"#utility.yul\":7693:7774   */\n      swap2\n      pop\n        /* \"#utility.yul\":7550:7785   */\n      pop\n        /* \"#utility.yul\":7869:7873   */\n      0x20\n        /* \"#utility.yul\":7862:7867   */\n      dup4\n        /* \"#utility.yul\":7858:7874   */\n      add\n        /* \"#utility.yul\":7852:7875   */\n      mload\n        /* \"#utility.yul\":7888:7951   */\n      tag_387\n        /* \"#utility.yul\":7945:7949   */\n      0x20\n        /* \"#utility.yul\":7940:7943   */\n      dup7\n        /* \"#utility.yul\":7936:7950   */\n      add\n        /* \"#utility.yul\":7922:7934   */\n      dup3\n        /* \"#utility.yul\":7888:7951   */\n      tag_278\n      jump\t// in\n    tag_387:\n        /* \"#utility.yul\":7795:7961   */\n      pop\n        /* \"#utility.yul\":8044:8048   */\n      0x40\n        /* \"#utility.yul\":8037:8042   */\n      dup4\n        /* \"#utility.yul\":8033:8049   */\n      add\n        /* \"#utility.yul\":8027:8050   */\n      mload\n        /* \"#utility.yul\":8063:8126   */\n      tag_388\n        /* \"#utility.yul\":8120:8124   */\n      0x40\n        /* \"#utility.yul\":8115:8118   */\n      dup7\n        /* \"#utility.yul\":8111:8125   */\n      add\n        /* \"#utility.yul\":8097:8109   */\n      dup3\n        /* \"#utility.yul\":8063:8126   */\n      tag_278\n      jump\t// in\n    tag_388:\n        /* \"#utility.yul\":7971:8136   */\n      pop\n        /* \"#utility.yul\":8219:8223   */\n      0x60\n        /* \"#utility.yul\":8212:8217   */\n      dup4\n        /* \"#utility.yul\":8208:8224   */\n      add\n        /* \"#utility.yul\":8202:8225   */\n      mload\n        /* \"#utility.yul\":8272:8275   */\n      dup5\n        /* \"#utility.yul\":8266:8270   */\n      dup3\n        /* \"#utility.yul\":8262:8276   */\n      sub\n        /* \"#utility.yul\":8255:8259   */\n      0x60\n        /* \"#utility.yul\":8250:8253   */\n      dup7\n        /* \"#utility.yul\":8246:8260   */\n      add\n        /* \"#utility.yul\":8239:8277   */\n      mstore\n        /* \"#utility.yul\":8298:8371   */\n      tag_389\n        /* \"#utility.yul\":8366:8370   */\n      dup3\n        /* \"#utility.yul\":8352:8364   */\n      dup3\n        /* \"#utility.yul\":8298:8371   */\n      tag_277\n      jump\t// in\n    tag_389:\n        /* \"#utility.yul\":8290:8371   */\n      swap2\n      pop\n        /* \"#utility.yul\":8146:8382   */\n      pop\n        /* \"#utility.yul\":8465:8469   */\n      0x80\n        /* \"#utility.yul\":8458:8463   */\n      dup4\n        /* \"#utility.yul\":8454:8470   */\n      add\n        /* \"#utility.yul\":8448:8471   */\n      mload\n        /* \"#utility.yul\":8518:8521   */\n      dup5\n        /* \"#utility.yul\":8512:8516   */\n      dup3\n        /* \"#utility.yul\":8508:8522   */\n      sub\n        /* \"#utility.yul\":8501:8505   */\n      0x80\n        /* \"#utility.yul\":8496:8499   */\n      dup7\n        /* \"#utility.yul\":8492:8506   */\n      add\n        /* \"#utility.yul\":8485:8523   */\n      mstore\n        /* \"#utility.yul\":8544:8617   */\n      tag_390\n        /* \"#utility.yul\":8612:8616   */\n      dup3\n        /* \"#utility.yul\":8598:8610   */\n      dup3\n        /* \"#utility.yul\":8544:8617   */\n      tag_277\n      jump\t// in\n    tag_390:\n        /* \"#utility.yul\":8536:8617   */\n      swap2\n      pop\n        /* \"#utility.yul\":8392:8628   */\n      pop\n        /* \"#utility.yul\":8645:8649   */\n      dup1\n        /* \"#utility.yul\":8638:8649   */\n      swap2\n      pop\n        /* \"#utility.yul\":7504:8655   */\n      pop\n        /* \"#utility.yul\":7394:8655   */\n      swap3\n      swap2\n      pop\n      pop\n      jump\t// out\n        /* \"#utility.yul\":8661:8909   */\n    tag_280:\n        /* \"#utility.yul\":8776:8786   */\n      0x00\n        /* \"#utility.yul\":8811:8903   */\n      tag_392\n        /* \"#utility.yul\":8899:8902   */\n      dup4\n        /* \"#utility.yul\":8891:8897   */\n      dup4\n        /* \"#utility.yul\":8811:8903   */\n      tag_279\n      jump\t// in\n    tag_392:\n        /* \"#utility.yul\":8797:8903   */\n      swap1\n      pop\n        /* \"#utility.yul\":8661:8909   */\n      swap3\n      swap2\n      pop\n      pop\n      jump\t// out\n        /* \"#utility.yul\":8915:9051   */\n    tag_281:\n        /* \"#utility.yul\":9008:9012   */\n      0x00\n        /* \"#utility.yul\":9040:9044   */\n      0x20\n        /* \"#utility.yul\":9035:9038   */\n      dup3\n        /* \"#utility.yul\":9031:9045   */\n      add\n        /* \"#utility.yul\":9023:9045   */\n      swap1\n      pop\n        /* \"#utility.yul\":8915:9051   */\n      swap2\n      swap1\n      pop\n      jump\t// out\n        /* \"#utility.yul\":9113:10208   */\n    tag_282:\n        /* \"#utility.yul\":9278:9281   */\n      0x00\n        /* \"#utility.yul\":9307:9384   */\n      tag_395\n        /* \"#utility.yul\":9378:9383   */\n      dup3\n        /* \"#utility.yul\":9307:9384   */\n      tag_273\n      jump\t// in\n    tag_395:\n        /* \"#utility.yul\":9400:9509   */\n      tag_396\n        /* \"#utility.yul\":9502:9508   */\n      dup2\n        /* \"#utility.yul\":9497:9500   */\n      dup6\n        /* \"#utility.yul\":9400:9509   */\n      tag_274\n      jump\t// in\n    tag_396:\n        /* \"#utility.yul\":9393:9509   */\n      swap4\n      pop\n        /* \"#utility.yul\":9535:9538   */\n      dup4\n        /* \"#utility.yul\":9580:9584   */\n      0x20\n        /* \"#utility.yul\":9572:9578   */\n      dup3\n        /* \"#utility.yul\":9568:9585   */\n      mul\n        /* \"#utility.yul\":9563:9566   */\n      dup6\n        /* \"#utility.yul\":9559:9586   */\n      add\n        /* \"#utility.yul\":9610:9689   */\n      tag_397\n        /* \"#utility.yul\":9683:9688   */\n      dup6\n        /* \"#utility.yul\":9610:9689   */\n      tag_275\n      jump\t// in\n    tag_397:\n        /* \"#utility.yul\":9712:9719   */\n      dup1\n        /* \"#utility.yul\":9743:9744   */\n      0x00\n        /* \"#utility.yul\":9728:10163   */\n    tag_398:\n        /* \"#utility.yul\":9753:9759   */\n      dup6\n        /* \"#utility.yul\":9750:9751   */\n      dup2\n        /* \"#utility.yul\":9747:9760   */\n      lt\n        /* \"#utility.yul\":9728:10163   */\n      iszero\n      tag_400\n      jumpi\n        /* \"#utility.yul\":9824:9833   */\n      dup5\n        /* \"#utility.yul\":9818:9822   */\n      dup5\n        /* \"#utility.yul\":9814:9834   */\n      sub\n        /* \"#utility.yul\":9809:9812   */\n      dup10\n        /* \"#utility.yul\":9802:9835   */\n      mstore\n        /* \"#utility.yul\":9875:9881   */\n      dup2\n        /* \"#utility.yul\":9869:9882   */\n      mload\n        /* \"#utility.yul\":9903:10013   */\n      tag_401\n        /* \"#utility.yul\":10008:10012   */\n      dup6\n        /* \"#utility.yul\":9993:10006   */\n      dup3\n        /* \"#utility.yul\":9903:10013   */\n      tag_280\n      jump\t// in\n    tag_401:\n        /* \"#utility.yul\":9895:10013   */\n      swap5\n      pop\n        /* \"#utility.yul\":10036:10119   */\n      tag_402\n        /* \"#utility.yul\":10112:10118   */\n      dup4\n        /* \"#utility.yul\":10036:10119   */\n      tag_281\n      jump\t// in\n    tag_402:\n        /* \"#utility.yul\":10026:10119   */\n      swap3\n      pop\n        /* \"#utility.yul\":10148:10152   */\n      0x20\n        /* \"#utility.yul\":10143:10146   */\n      dup11\n        /* \"#utility.yul\":10139:10153   */\n      add\n        /* \"#utility.yul\":10132:10153   */\n      swap10\n      pop\n        /* \"#utility.yul\":9788:10163   */\n      pop\n        /* \"#utility.yul\":9775:9776   */\n      0x01\n        /* \"#utility.yul\":9772:9773   */\n      dup2\n        /* \"#utility.yul\":9768:9777   */\n      add\n        /* \"#utility.yul\":9763:9777   */\n      swap1\n      pop\n        /* \"#utility.yul\":9728:10163   */\n      jump(tag_398)\n    tag_400:\n        /* \"#utility.yul\":9732:9746   */\n      pop\n        /* \"#utility.yul\":10179:10183   */\n      dup3\n        /* \"#utility.yul\":10172:10183   */\n      swap8\n      pop\n        /* \"#utility.yul\":10199:10202   */\n      dup8\n        /* \"#utility.yul\":10192:10202   */\n      swap6\n      pop\n        /* \"#utility.yul\":9283:10208   */\n      pop\n      pop\n      pop\n      pop\n      pop\n        /* \"#utility.yul\":9113:10208   */\n      swap3\n      swap2\n      pop\n      pop\n      jump\t// out\n        /* \"#utility.yul\":10214:10789   */\n    tag_42:\n        /* \"#utility.yul\":10431:10435   */\n      0x00\n        /* \"#utility.yul\":10469:10471   */\n      0x40\n        /* \"#utility.yul\":10458:10467   */\n      dup3\n        /* \"#utility.yul\":10454:10472   */\n      add\n        /* \"#utility.yul\":10446:10472   */\n      swap1\n      pop\n        /* \"#utility.yul\":10482:10553   */\n      tag_404\n        /* \"#utility.yul\":10550:10551   */\n      0x00\n        /* \"#utility.yul\":10539:10548   */\n      dup4\n        /* \"#utility.yul\":10535:10552   */\n      add\n        /* \"#utility.yul\":10526:10532   */\n      dup6\n        /* \"#utility.yul\":10482:10553   */\n      tag_264\n      jump\t// in\n    tag_404:\n        /* \"#utility.yul\":10600:10609   */\n      dup2\n        /* \"#utility.yul\":10594:10598   */\n      dup2\n        /* \"#utility.yul\":10590:10610   */\n      sub\n        /* \"#utility.yul\":10585:10587   */\n      0x20\n        /* \"#utility.yul\":10574:10583   */\n      dup4\n        /* \"#utility.yul\":10570:10588   */\n      add\n        /* \"#utility.yul\":10563:10611   */\n      mstore\n        /* \"#utility.yul\":10628:10782   */\n      tag_405\n        /* \"#utility.yul\":10777:10781   */\n      dup2\n        /* \"#utility.yul\":10768:10774   */\n      dup5\n        /* \"#utility.yul\":10628:10782   */\n      tag_282\n      jump\t// in\n    tag_405:\n        /* \"#utility.yul\":10620:10782   */\n      swap1\n      pop\n        /* \"#utility.yul\":10214:10789   */\n      swap4\n      swap3\n      pop\n      pop\n      pop\n      jump\t// out\n        /* \"#utility.yul\":10795:11920   */\n    tag_45:\n        /* \"#utility.yul\":10901:10907   */\n      0x00\n        /* \"#utility.yul\":10909:10915   */\n      dup1\n        /* \"#utility.yul\":10917:10923   */\n      0x00\n        /* \"#utility.yul\":10925:10931   */\n      dup1\n        /* \"#utility.yul\":10974:10977   */\n      0x80\n        /* \"#utility.yul\":10962:10971   */\n      dup6\n        /* \"#utility.yul\":10953:10960   */\n      dup8\n        /* \"#utility.yul\":10949:10972   */\n      sub\n        /* \"#utility.yul\":10945:10978   */\n      slt\n        /* \"#utility.yul\":10942:11062   */\n      iszero\n      tag_407\n      jumpi\n        /* \"#utility.yul\":10981:11060   */\n      tag_408\n      tag_254\n      jump\t// in\n    tag_408:\n        /* \"#utility.yul\":10942:11062   */\n    tag_407:\n        /* \"#utility.yul\":11129:11130   */\n      0x00\n        /* \"#utility.yul\":11118:11127   */\n      dup6\n        /* \"#utility.yul\":11114:11131   */\n      add\n        /* \"#utility.yul\":11101:11132   */\n      calldataload\n        /* \"#utility.yul\":11159:11177   */\n      0xffffffffffffffff\n        /* \"#utility.yul\":11151:11157   */\n      dup2\n        /* \"#utility.yul\":11148:11178   */\n      gt\n        /* \"#utility.yul\":11145:11262   */\n      iszero\n      tag_409\n      jumpi\n        /* \"#utility.yul\":11181:11260   */\n      tag_410\n      tag_255\n      jump\t// in\n    tag_410:\n        /* \"#utility.yul\":11145:11262   */\n    tag_409:\n        /* \"#utility.yul\":11286:11349   */\n      tag_411\n        /* \"#utility.yul\":11341:11348   */\n      dup8\n        /* \"#utility.yul\":11332:11338   */\n      dup3\n        /* \"#utility.yul\":11321:11330   */\n      dup9\n        /* \"#utility.yul\":11317:11339   */\n      add\n        /* \"#utility.yul\":11286:11349   */\n      tag_272\n      jump\t// in\n    tag_411:\n        /* \"#utility.yul\":11276:11349   */\n      swap5\n      pop\n        /* \"#utility.yul\":11072:11359   */\n      pop\n        /* \"#utility.yul\":11398:11400   */\n      0x20\n        /* \"#utility.yul\":11424:11477   */\n      tag_412\n        /* \"#utility.yul\":11469:11476   */\n      dup8\n        /* \"#utility.yul\":11460:11466   */\n      dup3\n        /* \"#utility.yul\":11449:11458   */\n      dup9\n        /* \"#utility.yul\":11445:11467   */\n      add\n        /* \"#utility.yul\":11424:11477   */\n      tag_258\n      jump\t// in\n    tag_412:\n        /* \"#utility.yul\":11414:11477   */\n      swap4\n      pop\n        /* \"#utility.yul\":11369:11487   */\n      pop\n        /* \"#utility.yul\":11526:11528   */\n      0x40\n        /* \"#utility.yul\":11552:11605   */\n      tag_413\n        /* \"#utility.yul\":11597:11604   */\n      dup8\n        /* \"#utility.yul\":11588:11594   */\n      dup3\n        /* \"#utility.yul\":11577:11586   */\n      dup9\n        /* \"#utility.yul\":11573:11595   */\n      add\n        /* \"#utility.yul\":11552:11605   */\n      tag_258\n      jump\t// in\n    tag_413:\n        /* \"#utility.yul\":11542:11605   */\n      swap3\n      pop\n        /* \"#utility.yul\":11497:11615   */\n      pop\n        /* \"#utility.yul\":11682:11684   */\n      0x60\n        /* \"#utility.yul\":11671:11680   */\n      dup6\n        /* \"#utility.yul\":11667:11685   */\n      add\n        /* \"#utility.yul\":11654:11686   */\n      calldataload\n        /* \"#utility.yul\":11713:11731   */\n      0xffffffffffffffff\n        /* \"#utility.yul\":11705:11711   */\n      dup2\n        /* \"#utility.yul\":11702:11732   */\n      gt\n        /* \"#utility.yul\":11699:11816   */\n      iszero\n      tag_414\n      jumpi\n        /* \"#utility.yul\":11735:11814   */\n      tag_415\n      tag_255\n      jump\t// in\n    tag_415:\n        /* \"#utility.yul\":11699:11816   */\n    tag_414:\n        /* \"#utility.yul\":11840:11903   */\n      tag_416\n        /* \"#utility.yul\":11895:11902   */\n      dup8\n        /* \"#utility.yul\":11886:11892   */\n      dup3\n        /* \"#utility.yul\":11875:11884   */\n      dup9\n        /* \"#utility.yul\":11871:11893   */\n      add\n        /* \"#utility.yul\":11840:11903   */\n      tag_272\n      jump\t// in\n    tag_416:\n        /* \"#utility.yul\":11830:11903   */\n      swap2\n      pop\n        /* \"#utility.yul\":11625:11913   */\n      pop\n        /* \"#utility.yul\":10795:11920   */\n      swap3\n      swap6\n      swap2\n      swap5\n      pop\n      swap3\n      pop\n      jump\t// out\n        /* \"#utility.yul\":11926:12016   */\n    tag_283:\n        /* \"#utility.yul\":11960:11967   */\n      0x00\n        /* \"#utility.yul\":12003:12008   */\n      dup2\n        /* \"#utility.yul\":11996:12009   */\n      iszero\n        /* \"#utility.yul\":11989:12010   */\n      iszero\n        /* \"#utility.yul\":11978:12010   */\n      swap1\n      pop\n        /* \"#utility.yul\":11926:12016   */\n      swap2\n      swap1\n      pop\n      jump\t// out\n        /* \"#utility.yul\":12022:12131   */\n    tag_284:\n        /* \"#utility.yul\":12103:12124   */\n      tag_419\n        /* \"#utility.yul\":12118:12123   */\n      dup2\n        /* \"#utility.yul\":12103:12124   */\n      tag_283\n      jump\t// in\n    tag_419:\n        /* \"#utility.yul\":12098:12101   */\n      dup3\n        /* \"#utility.yul\":12091:12125   */\n      mstore\n        /* \"#utility.yul\":12022:12131   */\n      pop\n      pop\n      jump\t// out\n        /* \"#utility.yul\":12137:12347   */\n    tag_50:\n        /* \"#utility.yul\":12224:12228   */\n      0x00\n        /* \"#utility.yul\":12262:12264   */\n      0x20\n        /* \"#utility.yul\":12251:12260   */\n      dup3\n        /* \"#utility.yul\":12247:12265   */\n      add\n        /* \"#utility.yul\":12239:12265   */\n      swap1\n      pop\n        /* \"#utility.yul\":12275:12340   */\n      tag_421\n        /* \"#utility.yul\":12337:12338   */\n      0x00\n        /* \"#utility.yul\":12326:12335   */\n      dup4\n        /* \"#utility.yul\":12322:12339   */\n      add\n        /* \"#utility.yul\":12313:12319   */\n      dup5\n        /* \"#utility.yul\":12275:12340   */\n      tag_284\n      jump\t// in\n    tag_421:\n        /* \"#utility.yul\":12137:12347   */\n      swap3\n      swap2\n      pop\n      pop\n      jump\t// out\n        /* \"#utility.yul\":12353:12818   */\n    tag_54:\n        /* \"#utility.yul\":12542:12546   */\n      0x00\n        /* \"#utility.yul\":12580:12582   */\n      0x20\n        /* \"#utility.yul\":12569:12578   */\n      dup3\n        /* \"#utility.yul\":12565:12583   */\n      add\n        /* \"#utility.yul\":12557:12583   */\n      swap1\n      pop\n        /* \"#utility.yul\":12629:12638   */\n      dup2\n        /* \"#utility.yul\":12623:12627   */\n      dup2\n        /* \"#utility.yul\":12619:12639   */\n      sub\n        /* \"#utility.yul\":12615:12616   */\n      0x00\n        /* \"#utility.yul\":12604:12613   */\n      dup4\n        /* \"#utility.yul\":12600:12617   */\n      add\n        /* \"#utility.yul\":12593:12640   */\n      mstore\n        /* \"#utility.yul\":12657:12811   */\n      tag_423\n        /* \"#utility.yul\":12806:12810   */\n      dup2\n        /* \"#utility.yul\":12797:12803   */\n      dup5\n        /* \"#utility.yul\":12657:12811   */\n      tag_282\n      jump\t// in\n    tag_423:\n        /* \"#utility.yul\":12649:12811   */\n      swap1\n      pop\n        /* \"#utility.yul\":12353:12818   */\n      swap3\n      swap2\n      pop\n      pop\n      jump\t// out\n        /* \"#utility.yul\":12824:13004   */\n    tag_285:\n        /* \"#utility.yul\":12872:12949   */\n      0x4e487b7100000000000000000000000000000000000000000000000000000000\n        /* \"#utility.yul\":12869:12870   */\n      0x00\n        /* \"#utility.yul\":12862:12950   */\n      mstore\n        /* \"#utility.yul\":12969:12973   */\n      0x22\n        /* \"#utility.yul\":12966:12967   */\n      0x04\n        /* \"#utility.yul\":12959:12974   */\n      mstore\n        /* \"#utility.yul\":12993:12997   */\n      0x24\n        /* \"#utility.yul\":12990:12991   */\n      0x00\n        /* \"#utility.yul\":12983:12998   */\n      revert\n        /* \"#utility.yul\":13010:13330   */\n    tag_65:\n        /* \"#utility.yul\":13054:13060   */\n      0x00\n        /* \"#utility.yul\":13091:13092   */\n      0x02\n        /* \"#utility.yul\":13085:13089   */\n      dup3\n        /* \"#utility.yul\":13081:13093   */\n      div\n        /* \"#utility.yul\":13071:13093   */\n      swap1\n      pop\n        /* \"#utility.yul\":13138:13139   */\n      0x01\n        /* \"#utility.yul\":13132:13136   */\n      dup3\n        /* \"#utility.yul\":13128:13140   */\n      and\n        /* \"#utility.yul\":13159:13177   */\n      dup1\n        /* \"#utility.yul\":13149:13230   */\n      tag_426\n      jumpi\n        /* \"#utility.yul\":13215:13219   */\n      0x7f\n        /* \"#utility.yul\":13207:13213   */\n      dup3\n        /* \"#utility.yul\":13203:13220   */\n      and\n        /* \"#utility.yul\":13193:13220   */\n      swap2\n      pop\n        /* \"#utility.yul\":13149:13230   */\n    tag_426:\n        /* \"#utility.yul\":13277:13279   */\n      0x20\n        /* \"#utility.yul\":13269:13275   */\n      dup3\n        /* \"#utility.yul\":13266:13280   */\n      lt\n        /* \"#utility.yul\":13246:13264   */\n      dup2\n        /* \"#utility.yul\":13243:13281   */\n      sub\n        /* \"#utility.yul\":13240:13324   */\n      tag_427\n      jumpi\n        /* \"#utility.yul\":13296:13314   */\n      tag_428\n      tag_285\n      jump\t// in\n    tag_428:\n        /* \"#utility.yul\":13240:13324   */\n    tag_427:\n        /* \"#utility.yul\":13061:13330   */\n      pop\n        /* \"#utility.yul\":13010:13330   */\n      swap2\n      swap1\n      pop\n      jump\t// out\n        /* \"#utility.yul\":13336:13516   */\n    tag_286:\n        /* \"#utility.yul\":13384:13461   */\n      0x4e487b7100000000000000000000000000000000000000000000000000000000\n        /* \"#utility.yul\":13381:13382   */\n      0x00\n        /* \"#utility.yul\":13374:13462   */\n      mstore\n        /* \"#utility.yul\":13481:13485   */\n      0x11\n        /* \"#utility.yul\":13478:13479   */\n      0x04\n        /* \"#utility.yul\":13471:13486   */\n      mstore\n        /* \"#utility.yul\":13505:13509   */\n      0x24\n        /* \"#utility.yul\":13502:13503   */\n      0x00\n        /* \"#utility.yul\":13495:13510   */\n      revert\n        /* \"#utility.yul\":13522:13716   */\n    tag_91:\n        /* \"#utility.yul\":13562:13566   */\n      0x00\n        /* \"#utility.yul\":13582:13602   */\n      tag_431\n        /* \"#utility.yul\":13600:13601   */\n      dup3\n        /* \"#utility.yul\":13582:13602   */\n      tag_256\n      jump\t// in\n    tag_431:\n        /* \"#utility.yul\":13577:13602   */\n      swap2\n      pop\n        /* \"#utility.yul\":13616:13636   */\n      tag_432\n        /* \"#utility.yul\":13634:13635   */\n      dup4\n        /* \"#utility.yul\":13616:13636   */\n      tag_256\n      jump\t// in\n    tag_432:\n        /* \"#utility.yul\":13611:13636   */\n      swap3\n      pop\n        /* \"#utility.yul\":13660:13661   */\n      dup3\n        /* \"#utility.yul\":13657:13658   */\n      dup3\n        /* \"#utility.yul\":13653:13662   */\n      sub\n        /* \"#utility.yul\":13645:13662   */\n      swap1\n      pop\n        /* \"#utility.yul\":13684:13685   */\n      dup2\n        /* \"#utility.yul\":13678:13682   */\n      dup2\n        /* \"#utility.yul\":13675:13686   */\n      gt\n        /* \"#utility.yul\":13672:13709   */\n      iszero\n      tag_433\n      jumpi\n        /* \"#utility.yul\":13689:13707   */\n      tag_434\n      tag_286\n      jump\t// in\n    tag_434:\n        /* \"#utility.yul\":13672:13709   */\n    tag_433:\n        /* \"#utility.yul\":13522:13716   */\n      swap3\n      swap2\n      pop\n      pop\n      jump\t// out\n        /* \"#utility.yul\":13722:13902   */\n    tag_94:\n        /* \"#utility.yul\":13770:13847   */\n      0x4e487b7100000000000000000000000000000000000000000000000000000000\n        /* \"#utility.yul\":13767:13768   */\n      0x00\n        /* \"#utility.yul\":13760:13848   */\n      mstore\n        /* \"#utility.yul\":13867:13871   */\n      0x32\n        /* \"#utility.yul\":13864:13865   */\n      0x04\n        /* \"#utility.yul\":13857:13872   */\n      mstore\n        /* \"#utility.yul\":13891:13895   */\n      0x24\n        /* \"#utility.yul\":13888:13889   */\n      0x00\n        /* \"#utility.yul\":13881:13896   */\n      revert\n        /* \"#utility.yul\":13908:14055   */\n    tag_287:\n        /* \"#utility.yul\":14009:14020   */\n      0x00\n        /* \"#utility.yul\":14046:14049   */\n      dup2\n        /* \"#utility.yul\":14031:14049   */\n      swap1\n      pop\n        /* \"#utility.yul\":13908:14055   */\n      swap3\n      swap2\n      pop\n      pop\n      jump\t// out\n        /* \"#utility.yul\":14061:14205   */\n    tag_288:\n        /* \"#utility.yul\":14113:14117   */\n      0x00\n        /* \"#utility.yul\":14136:14139   */\n      dup2\n        /* \"#utility.yul\":14128:14139   */\n      swap1\n      pop\n        /* \"#utility.yul\":14159:14162   */\n      dup2\n        /* \"#utility.yul\":14156:14157   */\n      0x00\n        /* \"#utility.yul\":14149:14163   */\n      mstore\n        /* \"#utility.yul\":14193:14197   */\n      0x20\n        /* \"#utility.yul\":14190:14191   */\n      0x00\n        /* \"#utility.yul\":14180:14198   */\n      keccak256\n        /* \"#utility.yul\":14172:14198   */\n      swap1\n      pop\n        /* \"#utility.yul\":14061:14205   */\n      swap2\n      swap1\n      pop\n      jump\t// out\n        /* \"#utility.yul\":14233:15111   */\n    tag_289:\n        /* \"#utility.yul\":14338:14341   */\n      0x00\n        /* \"#utility.yul\":14375:14380   */\n      dup2\n        /* \"#utility.yul\":14369:14381   */\n      sload\n        /* \"#utility.yul\":14404:14440   */\n      tag_439\n        /* \"#utility.yul\":14430:14439   */\n      dup2\n        /* \"#utility.yul\":14404:14440   */\n      tag_65\n      jump\t// in\n    tag_439:\n        /* \"#utility.yul\":14456:14544   */\n      tag_440\n        /* \"#utility.yul\":14537:14543   */\n      dup2\n        /* \"#utility.yul\":14532:14535   */\n      dup7\n        /* \"#utility.yul\":14456:14544   */\n      tag_287\n      jump\t// in\n    tag_440:\n        /* \"#utility.yul\":14449:14544   */\n      swap5\n      pop\n        /* \"#utility.yul\":14575:14576   */\n      0x01\n        /* \"#utility.yul\":14564:14573   */\n      dup3\n        /* \"#utility.yul\":14560:14577   */\n      and\n        /* \"#utility.yul\":14591:14592   */\n      0x00\n        /* \"#utility.yul\":14586:14752   */\n      dup2\n      eq\n      tag_442\n      jumpi\n        /* \"#utility.yul\":14766:14767   */\n      0x01\n        /* \"#utility.yul\":14761:15105   */\n      dup2\n      eq\n      tag_443\n      jumpi\n        /* \"#utility.yul\":14553:15105   */\n      jump(tag_441)\n        /* \"#utility.yul\":14586:14752   */\n    tag_442:\n        /* \"#utility.yul\":14670:14674   */\n      0xff\n        /* \"#utility.yul\":14666:14675   */\n      not\n        /* \"#utility.yul\":14655:14664   */\n      dup4\n        /* \"#utility.yul\":14651:14676   */\n      and\n        /* \"#utility.yul\":14646:14649   */\n      dup7\n        /* \"#utility.yul\":14639:14677   */\n      mstore\n        /* \"#utility.yul\":14732:14738   */\n      dup2\n        /* \"#utility.yul\":14725:14739   */\n      iszero\n        /* \"#utility.yul\":14718:14740   */\n      iszero\n        /* \"#utility.yul\":14710:14716   */\n      dup3\n        /* \"#utility.yul\":14706:14741   */\n      mul\n        /* \"#utility.yul\":14701:14704   */\n      dup7\n        /* \"#utility.yul\":14697:14742   */\n      add\n        /* \"#utility.yul\":14690:14742   */\n      swap4\n      pop\n        /* \"#utility.yul\":14586:14752   */\n      jump(tag_441)\n        /* \"#utility.yul\":14761:15105   */\n    tag_443:\n        /* \"#utility.yul\":14828:14869   */\n      tag_444\n        /* \"#utility.yul\":14863:14868   */\n      dup6\n        /* \"#utility.yul\":14828:14869   */\n      tag_288\n      jump\t// in\n    tag_444:\n        /* \"#utility.yul\":14891:14892   */\n      0x00\n        /* \"#utility.yul\":14905:15059   */\n    tag_445:\n        /* \"#utility.yul\":14919:14925   */\n      dup4\n        /* \"#utility.yul\":14916:14917   */\n      dup2\n        /* \"#utility.yul\":14913:14926   */\n      lt\n        /* \"#utility.yul\":14905:15059   */\n      iszero\n      tag_447\n      jumpi\n        /* \"#utility.yul\":14993:15000   */\n      dup2\n        /* \"#utility.yul\":14987:15001   */\n      sload\n        /* \"#utility.yul\":14983:14984   */\n      dup2\n        /* \"#utility.yul\":14978:14981   */\n      dup10\n        /* \"#utility.yul\":14974:14985   */\n      add\n        /* \"#utility.yul\":14967:15002   */\n      mstore\n        /* \"#utility.yul\":15043:15044   */\n      0x01\n        /* \"#utility.yul\":15034:15041   */\n      dup3\n        /* \"#utility.yul\":15030:15045   */\n      add\n        /* \"#utility.yul\":15019:15045   */\n      swap2\n      pop\n        /* \"#utility.yul\":14941:14945   */\n      0x20\n        /* \"#utility.yul\":14938:14939   */\n      dup2\n        /* \"#utility.yul\":14934:14946   */\n      add\n        /* \"#utility.yul\":14929:14946   */\n      swap1\n      pop\n        /* \"#utility.yul\":14905:15059   */\n      jump(tag_445)\n    tag_447:\n        /* \"#utility.yul\":15088:15094   */\n      dup4\n        /* \"#utility.yul\":15083:15086   */\n      dup9\n        /* \"#utility.yul\":15079:15095   */\n      add\n        /* \"#utility.yul\":15072:15095   */\n      swap6\n      pop\n        /* \"#utility.yul\":14768:15105   */\n      pop\n      pop\n        /* \"#utility.yul\":14553:15105   */\n    tag_441:\n      pop\n        /* \"#utility.yul\":14342:15111   */\n      pop\n      pop\n        /* \"#utility.yul\":14233:15111   */\n      swap3\n      swap2\n      pop\n      pop\n      jump\t// out\n        /* \"#utility.yul\":15117:15390   */\n    tag_119:\n        /* \"#utility.yul\":15248:15251   */\n      0x00\n        /* \"#utility.yul\":15270:15364   */\n      tag_449\n        /* \"#utility.yul\":15360:15363   */\n      dup3\n        /* \"#utility.yul\":15351:15357   */\n      dup5\n        /* \"#utility.yul\":15270:15364   */\n      tag_289\n      jump\t// in\n    tag_449:\n        /* \"#utility.yul\":15263:15364   */\n      swap2\n      pop\n        /* \"#utility.yul\":15381:15384   */\n      dup2\n        /* \"#utility.yul\":15374:15384   */\n      swap1\n      pop\n        /* \"#utility.yul\":15117:15390   */\n      swap3\n      swap2\n      pop\n      pop\n      jump\t// out\n        /* \"#utility.yul\":15396:15563   */\n    tag_290:\n        /* \"#utility.yul\":15536:15555   */\n      0x53747564656e74206e6f7420666f756e64000000000000000000000000000000\n        /* \"#utility.yul\":15532:15533   */\n      0x00\n        /* \"#utility.yul\":15524:15530   */\n      dup3\n        /* \"#utility.yul\":15520:15534   */\n      add\n        /* \"#utility.yul\":15513:15556   */\n      mstore\n        /* \"#utility.yul\":15396:15563   */\n      pop\n      jump\t// out\n        /* \"#utility.yul\":15569:15935   */\n    tag_291:\n        /* \"#utility.yul\":15711:15714   */\n      0x00\n        /* \"#utility.yul\":15732:15799   */\n      tag_452\n        /* \"#utility.yul\":15796:15798   */\n      0x11\n        /* \"#utility.yul\":15791:15794   */\n      dup4\n        /* \"#utility.yul\":15732:15799   */\n      tag_260\n      jump\t// in\n    tag_452:\n        /* \"#utility.yul\":15725:15799   */\n      swap2\n      pop\n        /* \"#utility.yul\":15808:15901   */\n      tag_453\n        /* \"#utility.yul\":15897:15900   */\n      dup3\n        /* \"#utility.yul\":15808:15901   */\n      tag_290\n      jump\t// in\n    tag_453:\n        /* \"#utility.yul\":15926:15928   */\n      0x20\n        /* \"#utility.yul\":15921:15924   */\n      dup3\n        /* \"#utility.yul\":15917:15929   */\n      add\n        /* \"#utility.yul\":15910:15929   */\n      swap1\n      pop\n        /* \"#utility.yul\":15569:15935   */\n      swap2\n      swap1\n      pop\n      jump\t// out\n        /* \"#utility.yul\":15941:16360   */\n    tag_125:\n        /* \"#utility.yul\":16107:16111   */\n      0x00\n        /* \"#utility.yul\":16145:16147   */\n      0x20\n        /* \"#utility.yul\":16134:16143   */\n      dup3\n        /* \"#utility.yul\":16130:16148   */\n      add\n        /* \"#utility.yul\":16122:16148   */\n      swap1\n      pop\n        /* \"#utility.yul\":16194:16203   */\n      dup2\n        /* \"#utility.yul\":16188:16192   */\n      dup2\n        /* \"#utility.yul\":16184:16204   */\n      sub\n        /* \"#utility.yul\":16180:16181   */\n      0x00\n        /* \"#utility.yul\":16169:16178   */\n      dup4\n        /* \"#utility.yul\":16165:16182   */\n      add\n        /* \"#utility.yul\":16158:16205   */\n      mstore\n        /* \"#utility.yul\":16222:16353   */\n      tag_455\n        /* \"#utility.yul\":16348:16352   */\n      dup2\n        /* \"#utility.yul\":16222:16353   */\n      tag_291\n      jump\t// in\n    tag_455:\n        /* \"#utility.yul\":16214:16353   */\n      swap1\n      pop\n        /* \"#utility.yul\":15941:16360   */\n      swap2\n      swap1\n      pop\n      jump\t// out\n        /* \"#utility.yul\":16366:16557   */\n    tag_134:\n        /* \"#utility.yul\":16406:16409   */\n      0x00\n        /* \"#utility.yul\":16425:16445   */\n      tag_457\n        /* \"#utility.yul\":16443:16444   */\n      dup3\n        /* \"#utility.yul\":16425:16445   */\n      tag_256\n      jump\t// in\n    tag_457:\n        /* \"#utility.yul\":16420:16445   */\n      swap2\n      pop\n        /* \"#utility.yul\":16459:16479   */\n      tag_458\n        /* \"#utility.yul\":16477:16478   */\n      dup4\n        /* \"#utility.yul\":16459:16479   */\n      tag_256\n      jump\t// in\n    tag_458:\n        /* \"#utility.yul\":16454:16479   */\n      swap3\n      pop\n        /* \"#utility.yul\":16502:16503   */\n      dup3\n        /* \"#utility.yul\":16499:16500   */\n      dup3\n        /* \"#utility.yul\":16495:16504   */\n      add\n        /* \"#utility.yul\":16488:16504   */\n      swap1\n      pop\n        /* \"#utility.yul\":16523:16526   */\n      dup1\n        /* \"#utility.yul\":16520:16521   */\n      dup3\n        /* \"#utility.yul\":16517:16527   */\n      gt\n        /* \"#utility.yul\":16514:16550   */\n      iszero\n      tag_459\n      jumpi\n        /* \"#utility.yul\":16530:16548   */\n      tag_460\n      tag_286\n      jump\t// in\n    tag_460:\n        /* \"#utility.yul\":16514:16550   */\n    tag_459:\n        /* \"#utility.yul\":16366:16557   */\n      swap3\n      swap2\n      pop\n      pop\n      jump\t// out\n        /* \"#utility.yul\":16563:16743   */\n    tag_292:\n        /* \"#utility.yul\":16611:16688   */\n      0x4e487b7100000000000000000000000000000000000000000000000000000000\n        /* \"#utility.yul\":16608:16609   */\n      0x00\n        /* \"#utility.yul\":16601:16689   */\n      mstore\n        /* \"#utility.yul\":16708:16712   */\n      0x12\n        /* \"#utility.yul\":16705:16706   */\n      0x04\n        /* \"#utility.yul\":16698:16713   */\n      mstore\n        /* \"#utility.yul\":16732:16736   */\n      0x24\n        /* \"#utility.yul\":16729:16730   */\n      0x00\n        /* \"#utility.yul\":16722:16737   */\n      revert\n        /* \"#utility.yul\":16749:16934   */\n    tag_136:\n        /* \"#utility.yul\":16789:16790   */\n      0x00\n        /* \"#utility.yul\":16806:16826   */\n      tag_463\n        /* \"#utility.yul\":16824:16825   */\n      dup3\n        /* \"#utility.yul\":16806:16826   */\n      tag_256\n      jump\t// in\n    tag_463:\n        /* \"#utility.yul\":16801:16826   */\n      swap2\n      pop\n        /* \"#utility.yul\":16840:16860   */\n      tag_464\n        /* \"#utility.yul\":16858:16859   */\n      dup4\n        /* \"#utility.yul\":16840:16860   */\n      tag_256\n      jump\t// in\n    tag_464:\n        /* \"#utility.yul\":16835:16860   */\n      swap3\n      pop\n        /* \"#utility.yul\":16879:16880   */\n      dup3\n        /* \"#utility.yul\":16869:16904   */\n      tag_465\n      jumpi\n        /* \"#utility.yul\":16884:16902   */\n      tag_466\n      tag_292\n      jump\t// in\n    tag_466:\n        /* \"#utility.yul\":16869:16904   */\n    tag_465:\n        /* \"#utility.yul\":16926:16927   */\n      dup3\n        /* \"#utility.yul\":16923:16924   */\n      dup3\n        /* \"#utility.yul\":16919:16928   */\n      div\n        /* \"#utility.yul\":16914:16928   */\n      swap1\n      pop\n        /* \"#utility.yul\":16749:16934   */\n      swap3\n      swap2\n      pop\n      pop\n      jump\t// out\n        /* \"#utility.yul\":16940:17173   */\n    tag_147:\n        /* \"#utility.yul\":16979:16982   */\n      0x00\n        /* \"#utility.yul\":17002:17026   */\n      tag_468\n        /* \"#utility.yul\":17020:17025   */\n      dup3\n        /* \"#utility.yul\":17002:17026   */\n      tag_256\n      jump\t// in\n    tag_468:\n        /* \"#utility.yul\":16993:17026   */\n      swap2\n      pop\n        /* \"#utility.yul\":17048:17114   */\n      0xffffffffffffffffffffffffffffffffffffffffffffffffffffffffffffffff\n        /* \"#utility.yul\":17041:17046   */\n      dup3\n        /* \"#utility.yul\":17038:17115   */\n      sub\n        /* \"#utility.yul\":17035:17138   */\n      tag_469\n      jumpi\n        /* \"#utility.yul\":17118:17136   */\n      tag_470\n      tag_286\n      jump\t// in\n    tag_470:\n        /* \"#utility.yul\":17035:17138   */\n    tag_469:\n        /* \"#utility.yul\":17165:17166   */\n      0x01\n        /* \"#utility.yul\":17158:17163   */\n      dup3\n        /* \"#utility.yul\":17154:17167   */\n      add\n        /* \"#utility.yul\":17147:17167   */\n      swap1\n      pop\n        /* \"#utility.yul\":16940:17173   */\n      swap2\n      swap1\n      pop\n      jump\t// out\n        /* \"#utility.yul\":17179:17320   */\n    tag_293:\n        /* \"#utility.yul\":17228:17232   */\n      0x00\n        /* \"#utility.yul\":17251:17254   */\n      dup2\n        /* \"#utility.yul\":17243:17254   */\n      swap1\n      pop\n        /* \"#utility.yul\":17274:17277   */\n      dup2\n        /* \"#utility.yul\":17271:17272   */\n      0x00\n        /* \"#utility.yul\":17264:17278   */\n      mstore\n        /* \"#utility.yul\":17308:17312   */\n      0x20\n        /* \"#utility.yul\":17305:17306   */\n      0x00\n        /* \"#utility.yul\":17295:17313   */\n      keccak256\n        /* \"#utility.yul\":17287:17313   */\n      swap1\n      pop\n        /* \"#utility.yul\":17179:17320   */\n      swap2\n      swap1\n      pop\n      jump\t// out\n        /* \"#utility.yul\":17326:17419   */\n    tag_294:\n        /* \"#utility.yul\":17363:17369   */\n      0x00\n        /* \"#utility.yul\":17410:17412   */\n      0x20\n        /* \"#utility.yul\":17405:17407   */\n      0x1f\n        /* \"#utility.yul\":17398:17403   */\n      dup4\n        /* \"#utility.yul\":17394:17408   */\n      add\n        /* \"#utility.yul\":17390:17413   */\n      div\n        /* \"#utility.yul\":17380:17413   */\n      swap1\n      pop\n        /* \"#utility.yul\":17326:17419   */\n      swap2\n      swap1\n      pop\n      jump\t// out\n        /* \"#utility.yul\":17425:17532   */\n    tag_295:\n        /* \"#utility.yul\":17469:17477   */\n      0x00\n        /* \"#utility.yul\":17519:17524   */\n      dup3\n        /* \"#utility.yul\":17513:17517   */\n      dup3\n        /* \"#utility.yul\":17509:17525   */\n      shl\n        /* \"#utility.yul\":17488:17525   */\n      swap1\n      pop\n        /* \"#utility.yul\":17425:17532   */\n      swap3\n      swap2\n      pop\n      pop\n      jump\t// out\n        /* \"#utility.yul\":17538:17931   */\n    tag_296:\n        /* \"#utility.yul\":17607:17613   */\n      0x00\n        /* \"#utility.yul\":17657:17658   */\n      0x08\n        /* \"#utility.yul\":17645:17655   */\n      dup4\n        /* \"#utility.yul\":17641:17659   */\n      mul\n        /* \"#utility.yul\":17680:17777   */\n      tag_475\n        /* \"#utility.yul\":17710:17776   */\n      0xffffffffffffffffffffffffffffffffffffffffffffffffffffffffffffffff\n        /* \"#utility.yul\":17699:17708   */\n      dup3\n        /* \"#utility.yul\":17680:17777   */\n      tag_295\n      jump\t// in\n    tag_475:\n        /* \"#utility.yul\":17798:17837   */\n      tag_476\n        /* \"#utility.yul\":17828:17836   */\n      dup7\n        /* \"#utility.yul\":17817:17826   */\n      dup4\n        /* \"#utility.yul\":17798:17837   */\n      tag_295\n      jump\t// in\n    tag_476:\n        /* \"#utility.yul\":17786:17837   */\n      swap6\n      pop\n        /* \"#utility.yul\":17870:17874   */\n      dup1\n        /* \"#utility.yul\":17866:17875   */\n      not\n        /* \"#utility.yul\":17859:17864   */\n      dup5\n        /* \"#utility.yul\":17855:17876   */\n      and\n        /* \"#utility.yul\":17846:17876   */\n      swap4\n      pop\n        /* \"#utility.yul\":17919:17923   */\n      dup1\n        /* \"#utility.yul\":17909:17917   */\n      dup7\n        /* \"#utility.yul\":17905:17924   */\n      and\n        /* \"#utility.yul\":17898:17903   */\n      dup5\n        /* \"#utility.yul\":17895:17925   */\n      or\n        /* \"#utility.yul\":17885:17925   */\n      swap3\n      pop\n        /* \"#utility.yul\":17614:17931   */\n      pop\n      pop\n        /* \"#utility.yul\":17538:17931   */\n      swap4\n      swap3\n      pop\n      pop\n      pop\n      jump\t// out\n        /* \"#utility.yul\":17937:17997   */\n    tag_297:\n        /* \"#utility.yul\":17965:17968   */\n      0x00\n        /* \"#utility.yul\":17986:17991   */\n      dup2\n        /* \"#utility.yul\":17979:17991   */\n      swap1\n      pop\n        /* \"#utility.yul\":17937:17997   */\n      swap2\n      swap1\n      pop\n      jump\t// out\n        /* \"#utility.yul\":18003:18145   */\n    tag_298:\n        /* \"#utility.yul\":18053:18062   */\n      0x00\n        /* \"#utility.yul\":18086:18139   */\n      tag_479\n        /* \"#utility.yul\":18104:18138   */\n      tag_480\n        /* \"#utility.yul\":18113:18137   */\n      tag_481\n        /* \"#utility.yul\":18131:18136   */\n      dup5\n        /* \"#utility.yul\":18113:18137   */\n      tag_256\n      jump\t// in\n    tag_481:\n        /* \"#utility.yul\":18104:18138   */\n      tag_297\n      jump\t// in\n    tag_480:\n        /* \"#utility.yul\":18086:18139   */\n      tag_256\n      jump\t// in\n    tag_479:\n        /* \"#utility.yul\":18073:18139   */\n      swap1\n      pop\n        /* \"#utility.yul\":18003:18145   */\n      swap2\n      swap1\n      pop\n      jump\t// out\n        /* \"#utility.yul\":18151:18226   */\n    tag_299:\n        /* \"#utility.yul\":18194:18197   */\n      0x00\n        /* \"#utility.yul\":18215:18220   */\n      dup2\n        /* \"#utility.yul\":18208:18220   */\n      swap1\n      pop\n        /* \"#utility.yul\":18151:18226   */\n      swap2\n      swap1\n      pop\n      jump\t// out\n        /* \"#utility.yul\":18232:18501   */\n    tag_300:\n        /* \"#utility.yul\":18342:18381   */\n      tag_484\n        /* \"#utility.yul\":18373:18380   */\n      dup4\n        /* \"#utility.yul\":18342:18381   */\n      tag_298\n      jump\t// in\n    tag_484:\n        /* \"#utility.yul\":18403:18494   */\n      tag_485\n        /* \"#utility.yul\":18452:18493   */\n      tag_486\n        /* \"#utility.yul\":18476:18492   */\n      dup3\n        /* \"#utility.yul\":18452:18493   */\n      tag_299\n      jump\t// in\n    tag_486:\n        /* \"#utility.yul\":18444:18450   */\n      dup5\n        /* \"#utility.yul\":18437:18441   */\n      dup5\n        /* \"#utility.yul\":18431:18442   */\n      sload\n        /* \"#utility.yul\":18403:18494   */\n      tag_296\n      jump\t// in\n    tag_485:\n        /* \"#utility.yul\":18397:18401   */\n      dup3\n        /* \"#utility.yul\":18390:18495   */\n      sstore\n        /* \"#utility.yul\":18308:18501   */\n      pop\n        /* \"#utility.yul\":18232:18501   */\n      pop\n      pop\n      pop\n      jump\t// out\n        /* \"#utility.yul\":18507:18580   */\n    tag_301:\n        /* \"#utility.yul\":18552:18555   */\n      0x00\n        /* \"#utility.yul\":18507:18580   */\n      swap1\n      jump\t// out\n        /* \"#utility.yul\":18586:18775   */\n    tag_302:\n        /* \"#utility.yul\":18663:18695   */\n      tag_489\n      tag_301\n      jump\t// in\n    tag_489:\n        /* \"#utility.yul\":18704:18769   */\n      tag_490\n        /* \"#utility.yul\":18762:18768   */\n      dup2\n        /* \"#utility.yul\":18754:18760   */\n      dup5\n        /* \"#utility.yul\":18748:18752   */\n      dup5\n        /* \"#utility.yul\":18704:18769   */\n      tag_300\n      jump\t// in\n    tag_490:\n        /* \"#utility.yul\":18639:18775   */\n      pop\n        /* \"#utility.yul\":18586:18775   */\n      pop\n      pop\n      jump\t// out\n        /* \"#utility.yul\":18781:18967   */\n    tag_303:\n        /* \"#utility.yul\":18841:18961   */\n    tag_492:\n        /* \"#utility.yul\":18858:18861   */\n      dup2\n        /* \"#utility.yul\":18851:18856   */\n      dup2\n        /* \"#utility.yul\":18848:18862   */\n      lt\n        /* \"#utility.yul\":18841:18961   */\n      iszero\n      tag_494\n      jumpi\n        /* \"#utility.yul\":18912:18951   */\n      tag_495\n        /* \"#utility.yul\":18949:18950   */\n      0x00\n        /* \"#utility.yul\":18942:18947   */\n      dup3\n        /* \"#utility.yul\":18912:18951   */\n      tag_302\n      jump\t// in\n    tag_495:\n        /* \"#utility.yul\":18885:18886   */\n      0x01\n        /* \"#utility.yul\":18878:18883   */\n      dup2\n        /* \"#utility.yul\":18874:18887   */\n      add\n        /* \"#utility.yul\":18865:18887   */\n      swap1\n      pop\n        /* \"#utility.yul\":18841:18961   */\n      jump(tag_492)\n    tag_494:\n        /* \"#utility.yul\":18781:18967   */\n      pop\n      pop\n      jump\t// out\n        /* \"#utility.yul\":18973:19516   */\n    tag_304:\n        /* \"#utility.yul\":19074:19076   */\n      0x1f\n        /* \"#utility.yul\":19069:19072   */\n      dup3\n        /* \"#utility.yul\":19066:19077   */\n      gt\n        /* \"#utility.yul\":19063:19509   */\n      iszero\n      tag_497\n      jumpi\n        /* \"#utility.yul\":19108:19146   */\n      tag_498\n        /* \"#utility.yul\":19140:19145   */\n      dup2\n        /* \"#utility.yul\":19108:19146   */\n      tag_293\n      jump\t// in\n    tag_498:\n        /* \"#utility.yul\":19192:19221   */\n      tag_499\n        /* \"#utility.yul\":19210:19220   */\n      dup5\n        /* \"#utility.yul\":19192:19221   */\n      tag_294\n      jump\t// in\n    tag_499:\n        /* \"#utility.yul\":19182:19190   */\n      dup2\n        /* \"#utility.yul\":19178:19222   */\n      add\n        /* \"#utility.yul\":19375:19377   */\n      0x20\n        /* \"#utility.yul\":19363:19373   */\n      dup6\n        /* \"#utility.yul\":19360:19378   */\n      lt\n        /* \"#utility.yul\":19357:19406   */\n      iszero\n      tag_500\n      jumpi\n        /* \"#utility.yul\":19396:19404   */\n      dup2\n        /* \"#utility.yul\":19381:19404   */\n      swap1\n      pop\n        /* \"#utility.yul\":19357:19406   */\n    tag_500:\n        /* \"#utility.yul\":19419:19499   */\n      tag_501\n        /* \"#utility.yul\":19475:19497   */\n      tag_502\n        /* \"#utility.yul\":19493:19496   */\n      dup6\n        /* \"#utility.yul\":19475:19497   */\n      tag_294\n      jump\t// in\n    tag_502:\n        /* \"#utility.yul\":19465:19473   */\n      dup4\n        /* \"#utility.yul\":19461:19498   */\n      add\n        /* \"#utility.yul\":19448:19459   */\n      dup3\n        /* \"#utility.yul\":19419:19499   */\n      tag_303\n      jump\t// in\n    tag_501:\n        /* \"#utility.yul\":19078:19509   */\n      pop\n      pop\n        /* \"#utility.yul\":19063:19509   */\n    tag_497:\n        /* \"#utility.yul\":18973:19516   */\n      pop\n      pop\n      pop\n      jump\t// out\n        /* \"#utility.yul\":19522:19639   */\n    tag_305:\n        /* \"#utility.yul\":19576:19584   */\n      0x00\n        /* \"#utility.yul\":19626:19631   */\n      dup3\n        /* \"#utility.yul\":19620:19624   */\n      dup3\n        /* \"#utility.yul\":19616:19632   */\n      shr\n        /* \"#utility.yul\":19595:19632   */\n      swap1\n      pop\n        /* \"#utility.yul\":19522:19639   */\n      swap3\n      swap2\n      pop\n      pop\n      jump\t// out\n        /* \"#utility.yul\":19645:19814   */\n    tag_306:\n        /* \"#utility.yul\":19689:19695   */\n      0x00\n        /* \"#utility.yul\":19722:19773   */\n      tag_505\n        /* \"#utility.yul\":19770:19771   */\n      0x00\n        /* \"#utility.yul\":19766:19772   */\n      not\n        /* \"#utility.yul\":19758:19763   */\n      dup5\n        /* \"#utility.yul\":19755:19756   */\n      0x08\n        /* \"#utility.yul\":19751:19764   */\n      mul\n        /* \"#utility.yul\":19722:19773   */\n      tag_305\n      jump\t// in\n    tag_505:\n        /* \"#utility.yul\":19718:19774   */\n      not\n        /* \"#utility.yul\":19803:19807   */\n      dup1\n        /* \"#utility.yul\":19797:19801   */\n      dup4\n        /* \"#utility.yul\":19793:19808   */\n      and\n        /* \"#utility.yul\":19783:19808   */\n      swap2\n      pop\n        /* \"#utility.yul\":19696:19814   */\n      pop\n        /* \"#utility.yul\":19645:19814   */\n      swap3\n      swap2\n      pop\n      pop\n      jump\t// out\n        /* \"#utility.yul\":19819:20114   */\n    tag_307:\n        /* \"#utility.yul\":19895:19899   */\n      0x00\n        /* \"#utility.yul\":20041:20070   */\n      tag_507\n        /* \"#utility.yul\":20066:20069   */\n      dup4\n        /* \"#utility.yul\":20060:20064   */\n      dup4\n        /* \"#utility.yul\":20041:20070   */\n      tag_306\n      jump\t// in\n    tag_507:\n        /* \"#utility.yul\":20033:20070   */\n      swap2\n      pop\n        /* \"#utility.yul\":20103:20106   */\n      dup3\n        /* \"#utility.yul\":20100:20101   */\n      0x02\n        /* \"#utility.yul\":20096:20107   */\n      mul\n        /* \"#utility.yul\":20090:20094   */\n      dup3\n        /* \"#utility.yul\":20087:20108   */\n      or\n        /* \"#utility.yul\":20079:20108   */\n      swap1\n      pop\n        /* \"#utility.yul\":19819:20114   */\n      swap3\n      swap2\n      pop\n      pop\n      jump\t// out\n        /* \"#utility.yul\":20119:21514   */\n    tag_188:\n        /* \"#utility.yul\":20236:20273   */\n      tag_509\n        /* \"#utility.yul\":20269:20272   */\n      dup3\n        /* \"#utility.yul\":20236:20273   */\n      tag_259\n      jump\t// in\n    tag_509:\n        /* \"#utility.yul\":20338:20356   */\n      0xffffffffffffffff\n        /* \"#utility.yul\":20330:20336   */\n      dup2\n        /* \"#utility.yul\":20327:20357   */\n      gt\n        /* \"#utility.yul\":20324:20380   */\n      iszero\n      tag_510\n      jumpi\n        /* \"#utility.yul\":20360:20378   */\n      tag_511\n      tag_150\n      jump\t// in\n    tag_511:\n        /* \"#utility.yul\":20324:20380   */\n    tag_510:\n        /* \"#utility.yul\":20404:20442   */\n      tag_512\n        /* \"#utility.yul\":20436:20440   */\n      dup3\n        /* \"#utility.yul\":20430:20441   */\n      sload\n        /* \"#utility.yul\":20404:20442   */\n      tag_65\n      jump\t// in\n    tag_512:\n        /* \"#utility.yul\":20489:20556   */\n      tag_513\n        /* \"#utility.yul\":20549:20555   */\n      dup3\n        /* \"#utility.yul\":20541:20547   */\n      dup3\n        /* \"#utility.yul\":20535:20539   */\n      dup6\n        /* \"#utility.yul\":20489:20556   */\n      tag_304\n      jump\t// in\n    tag_513:\n        /* \"#utility.yul\":20583:20584   */\n      0x00\n        /* \"#utility.yul\":20607:20611   */\n      0x20\n        /* \"#utility.yul\":20594:20611   */\n      swap1\n      pop\n        /* \"#utility.yul\":20639:20641   */\n      0x1f\n        /* \"#utility.yul\":20631:20637   */\n      dup4\n        /* \"#utility.yul\":20628:20642   */\n      gt\n        /* \"#utility.yul\":20656:20657   */\n      0x01\n        /* \"#utility.yul\":20651:21269   */\n      dup2\n      eq\n      tag_515\n      jumpi\n        /* \"#utility.yul\":21313:21314   */\n      0x00\n        /* \"#utility.yul\":21330:21336   */\n      dup5\n        /* \"#utility.yul\":21327:21404   */\n      iszero\n      tag_516\n      jumpi\n        /* \"#utility.yul\":21379:21388   */\n      dup3\n        /* \"#utility.yul\":21374:21377   */\n      dup8\n        /* \"#utility.yul\":21370:21389   */\n      add\n        /* \"#utility.yul\":21364:21390   */\n      mload\n        /* \"#utility.yul\":21355:21390   */\n      swap1\n      pop\n        /* \"#utility.yul\":21327:21404   */\n    tag_516:\n        /* \"#utility.yul\":21430:21497   */\n      tag_517\n        /* \"#utility.yul\":21490:21496   */\n      dup6\n        /* \"#utility.yul\":21483:21488   */\n      dup3\n        /* \"#utility.yul\":21430:21497   */\n      tag_307\n      jump\t// in\n    tag_517:\n        /* \"#utility.yul\":21424:21428   */\n      dup7\n        /* \"#utility.yul\":21417:21498   */\n      sstore\n        /* \"#utility.yul\":21286:21508   */\n      pop\n        /* \"#utility.yul\":20621:21508   */\n      jump(tag_514)\n        /* \"#utility.yul\":20651:21269   */\n    tag_515:\n        /* \"#utility.yul\":20703:20707   */\n      0x1f\n        /* \"#utility.yul\":20699:20708   */\n      not\n        /* \"#utility.yul\":20691:20697   */\n      dup5\n        /* \"#utility.yul\":20687:20709   */\n      and\n        /* \"#utility.yul\":20737:20774   */\n      tag_518\n        /* \"#utility.yul\":20769:20773   */\n      dup7\n        /* \"#utility.yul\":20737:20774   */\n      tag_293\n      jump\t// in\n    tag_518:\n        /* \"#utility.yul\":20796:20797   */\n      0x00\n        /* \"#utility.yul\":20810:21018   */\n    tag_519:\n        /* \"#utility.yul\":20824:20831   */\n      dup3\n        /* \"#utility.yul\":20821:20822   */\n      dup2\n        /* \"#utility.yul\":20818:20832   */\n      lt\n        /* \"#utility.yul\":20810:21018   */\n      iszero\n      tag_521\n      jumpi\n        /* \"#utility.yul\":20903:20912   */\n      dup5\n        /* \"#utility.yul\":20898:20901   */\n      dup10\n        /* \"#utility.yul\":20894:20913   */\n      add\n        /* \"#utility.yul\":20888:20914   */\n      mload\n        /* \"#utility.yul\":20880:20886   */\n      dup3\n        /* \"#utility.yul\":20873:20915   */\n      sstore\n        /* \"#utility.yul\":20954:20955   */\n      0x01\n        /* \"#utility.yul\":20946:20952   */\n      dup3\n        /* \"#utility.yul\":20942:20956   */\n      add\n        /* \"#utility.yul\":20932:20956   */\n      swap2\n      pop\n        /* \"#utility.yul\":21001:21003   */\n      0x20\n        /* \"#utility.yul\":20990:20999   */\n      dup6\n        /* \"#utility.yul\":20986:21004   */\n      add\n        /* \"#utility.yul\":20973:21004   */\n      swap5\n      pop\n        /* \"#utility.yul\":20847:20851   */\n      0x20\n        /* \"#utility.yul\":20844:20845   */\n      dup2\n        /* \"#utility.yul\":20840:20852   */\n      add\n        /* \"#utility.yul\":20835:20852   */\n      swap1\n      pop\n        /* \"#utility.yul\":20810:21018   */\n      jump(tag_519)\n    tag_521:\n        /* \"#utility.yul\":21046:21052   */\n      dup7\n        /* \"#utility.yul\":21037:21044   */\n      dup4\n        /* \"#utility.yul\":21034:21053   */\n      lt\n        /* \"#utility.yul\":21031:21210   */\n      iszero\n      tag_522\n      jumpi\n        /* \"#utility.yul\":21104:21113   */\n      dup5\n        /* \"#utility.yul\":21099:21102   */\n      dup10\n        /* \"#utility.yul\":21095:21114   */\n      add\n        /* \"#utility.yul\":21089:21115   */\n      mload\n        /* \"#utility.yul\":21147:21195   */\n      tag_523\n        /* \"#utility.yul\":21189:21193   */\n      0x1f\n        /* \"#utility.yul\":21181:21187   */\n      dup10\n        /* \"#utility.yul\":21177:21194   */\n      and\n        /* \"#utility.yul\":21166:21175   */\n      dup3\n        /* \"#utility.yul\":21147:21195   */\n      tag_306\n      jump\t// in\n    tag_523:\n        /* \"#utility.yul\":21139:21145   */\n      dup4\n        /* \"#utility.yul\":21132:21196   */\n      sstore\n        /* \"#utility.yul\":21054:21210   */\n      pop\n        /* \"#utility.yul\":21031:21210   */\n    tag_522:\n        /* \"#utility.yul\":21256:21257   */\n      0x01\n        /* \"#utility.yul\":21252:21253   */\n      0x02\n        /* \"#utility.yul\":21244:21250   */\n      dup9\n        /* \"#utility.yul\":21240:21254   */\n      mul\n        /* \"#utility.yul\":21236:21258   */\n      add\n        /* \"#utility.yul\":21230:21234   */\n      dup9\n        /* \"#utility.yul\":21223:21259   */\n      sstore\n        /* \"#utility.yul\":20658:21269   */\n      pop\n      pop\n      pop\n        /* \"#utility.yul\":20621:21508   */\n    tag_514:\n      pop\n        /* \"#utility.yul\":20211:21514   */\n      pop\n      pop\n      pop\n        /* \"#utility.yul\":20119:21514   */\n      pop\n      pop\n      jump\t// out\n\n    auxdata: 0xa2646970667358221220b116abd1e9dcf3aa4269bd69909892c181dcf04205e23b792725ff0df0f2ce1f64736f6c634300081a0033\n}\n",
				"bytecode": {
					"linkReferences": {},
					"object": "6080604052348015600e575f80fd5b50611dbc8061001c5f395ff3fe608060405234801561000f575f80fd5b50600436106100a7575f3560e01c806398463c741161006f57806398463c74146101915780639ae52f0f146101b0578063c06a93d3146101cc578063e9e30927146101ea578063f317d02014610208578063fc9b40991461023c576100a7565b806306ead22e146100ab5780633bf1a7d1146100df5780636191f3641461010f5780637676688b1461014357806386be411414610173575b5f80fd5b6100c560048036038101906100c091906112d3565b61025a565b6040516100d695949392919061137d565b60405180910390f35b6100f960048036038101906100f491906112d3565b61042c565b60405161010691906113e3565b60405180910390f35b610129600480360381019061012491906112d3565b610580565b60405161013a95949392919061137d565b60405180910390f35b61015d6004803603810190610158919061152f565b6107af565b60405161016a9190611576565b60405180910390f35b61017b61087d565b6040516101889190611576565b60405180910390f35b6101996108e4565b6040516101a7929190611722565b60405180910390f35b6101ca60048036038101906101c59190611750565b610c68565b005b6101d4610d1f565b6040516101e19190611806565b60405180910390f35b6101f2610d36565b6040516101ff919061181f565b60405180910390f35b610222600480360381019061021d919061152f565b610f54565b60405161023395949392919061137d565b60405180910390f35b610244611257565b6040516102519190611576565b60405180910390f35b5f8181548110610268575f80fd5b905f5260205f2090600502015f91509050805f0180546102879061186c565b80601f01602080910402602001604051908101604052809291908181526020018280546102b39061186c565b80156102fe5780601f106102d5576101008083540402835291602001916102fe565b820191905f5260205f20905b8154815290600101906020018083116102e157829003601f168201915b50505050509080600101549080600201549080600301805461031f9061186c565b80601f016020809104026020016040519081016040528092919081815260200182805461034b9061186c565b80156103965780601f1061036d57610100808354040283529160200191610396565b820191905f5260205f20905b81548152906001019060200180831161037957829003601f168201915b5050505050908060040180546103ab9061186c565b80601f01602080910402602001604051908101604052809291908181526020018280546103d79061186c565b80156104225780601f106103f957610100808354040283529160200191610422565b820191905f5260205f20905b81548152906001019060200180831161040557829003601f168201915b5050505050905085565b6060605a8210610473576040518060400160405280600181526020017f4100000000000000000000000000000000000000000000000000000000000000815250905061057b565b605082106104b8576040518060400160405280600181526020017f4200000000000000000000000000000000000000000000000000000000000000815250905061057b565b604682106104fd576040518060400160405280600181526020017f4300000000000000000000000000000000000000000000000000000000000000815250905061057b565b603c8210610542576040518060400160405280600181526020017f4400000000000000000000000000000000000000000000000000000000000000815250905061057b565b6040518060400160405280600181526020017f460000000000000000000000000000000000000000000000000000000000000081525090505b919050565b60605f806060805f8060018861059691906118c9565b815481106105a7576105a66118fc565b5b905f5260205f2090600502016040518060a00160405290815f820180546105cd9061186c565b80601f01602080910402602001604051908101604052809291908181526020018280546105f99061186c565b80156106445780601f1061061b57610100808354040283529160200191610644565b820191905f5260205f20905b81548152906001019060200180831161062757829003601f168201915b5050505050815260200160018201548152602001600282015481526020016003820180546106719061186c565b80601f016020809104026020016040519081016040528092919081815260200182805461069d9061186c565b80156106e85780601f106106bf576101008083540402835291602001916106e8565b820191905f5260205f20905b8154815290600101906020018083116106cb57829003601f168201915b505050505081526020016004820180546107019061186c565b80601f016020809104026020016040519081016040528092919081815260200182805461072d9061186c565b80156107785780601f1061074f57610100808354040283529160200191610778565b820191905f5260205f20905b81548152906001019060200180831161075b57829003601f168201915b5050505050815250509050805f01518160200151826040015183606001518460800151955095509550955095505091939590929450565b5f805f90505b5f8054905081101561083c5782805190602001205f82815481106107dc576107db6118fc565b5b905f5260205f2090600502015f016040516107f791906119c5565b60405180910390200361082f575f8181548110610817576108166118fc565b5b905f5260205f20906005020160020154915050610878565b80806001019150506107b5565b506040517f08c379a000000000000000000000000000000000000000000000000000000000815260040161086f90611a25565b60405180910390fd5b919050565b5f805f90505f5b5f805490508110156108cd575f81815481106108a3576108a26118fc565b5b905f5260205f20906005020160020154826108be9190611a43565b91508080600101915050610884565b505f80549050816108de9190611aa3565b91505090565b5f60605f805b5f8054905081101561096f577fe61d9a3d3848fb2cdd9a2ab61e2f21a10ea431275aed628a0557f9dee697c37a5f828154811061092a576109296118fc565b5b905f5260205f20906005020160030160405161094691906119c5565b60405180910390200361096257818061095e90611ad3565b9250505b80806001019150506108ea565b505f8167ffffffffffffffff81111561098b5761098a61140b565b5b6040519080825280602002602001820160405280156109c457816020015b6109b1611262565b8152602001906001900390816109a95790505b5090505f805b5f80549050811015610c5a577fe61d9a3d3848fb2cdd9a2ab61e2f21a10ea431275aed628a0557f9dee697c37a5f8281548110610a0a57610a096118fc565b5b905f5260205f209060050201600301604051610a2691906119c5565b604051809103902003610c4d575f8181548110610a4657610a456118fc565b5b905f5260205f2090600502016040518060a00160405290815f82018054610a6c9061186c565b80601f0160208091040260200160405190810160405280929190818152602001828054610a989061186c565b8015610ae35780601f10610aba57610100808354040283529160200191610ae3565b820191905f5260205f20905b815481529060010190602001808311610ac657829003601f168201915b505050505081526020016001820154815260200160028201548152602001600382018054610b109061186c565b80601f0160208091040260200160405190810160405280929190818152602001828054610b3c9061186c565b8015610b875780601f10610b5e57610100808354040283529160200191610b87565b820191905f5260205f20905b815481529060010190602001808311610b6a57829003601f168201915b50505050508152602001600482018054610ba09061186c565b80601f0160208091040260200160405190810160405280929190818152602001828054610bcc9061186c565b8015610c175780601f10610bee57610100808354040283529160200191610c17565b820191905f5260205f20905b815481529060010190602001808311610bfa57829003601f168201915b505050505081525050838381518110610c3357610c326118fc565b5b60200260200101819052508180610c4990611ad3565b9250505b80806001019150506109ca565b508282945094505050509091565b5f610c728361042c565b90505f6040518060a0016040528087815260200186815260200185815260200183815260200184815250908060018154018082558091505060019003905f5260205f2090600502015f909190919091505f820151815f019081610cd59190611cb7565b5060208201518160010155604082015181600201556060820151816003019081610cff9190611cb7565b506080820151816004019081610d159190611cb7565b5050505050505050565b5f80610d2961087d565b9050604681101591505090565b60605f805480602002602001604051908101604052809291908181526020015f905b82821015610f4b578382905f5260205f2090600502016040518060a00160405290815f82018054610d889061186c565b80601f0160208091040260200160405190810160405280929190818152602001828054610db49061186c565b8015610dff5780601f10610dd657610100808354040283529160200191610dff565b820191905f5260205f20905b815481529060010190602001808311610de257829003601f168201915b505050505081526020016001820154815260200160028201548152602001600382018054610e2c9061186c565b80601f0160208091040260200160405190810160405280929190818152602001828054610e589061186c565b8015610ea35780601f10610e7a57610100808354040283529160200191610ea3565b820191905f5260205f20905b815481529060010190602001808311610e8657829003601f168201915b50505050508152602001600482018054610ebc9061186c565b80601f0160208091040260200160405190810160405280929190818152602001828054610ee89061186c565b8015610f335780601f10610f0a57610100808354040283529160200191610f33565b820191905f5260205f20905b815481529060010190602001808311610f1657829003601f168201915b50505050508152505081526020019060010190610d58565b50505050905090565b60605f806060805f5b5f805490508110156112125786805190602001205f8281548110610f8457610f836118fc565b5b905f5260205f2090600502015f01604051610f9f91906119c5565b604051809103902003611205575f8181548110610fbf57610fbe6118fc565b5b905f5260205f2090600502015f015f8281548110610fe057610fdf6118fc565b5b905f5260205f209060050201600101545f8381548110611003576110026118fc565b5b905f5260205f209060050201600201545f8481548110611026576110256118fc565b5b905f5260205f2090600502016003015f8581548110611048576110476118fc565b5b905f5260205f2090600502016004018480546110639061186c565b80601f016020809104026020016040519081016040528092919081815260200182805461108f9061186c565b80156110da5780601f106110b1576101008083540402835291602001916110da565b820191905f5260205f20905b8154815290600101906020018083116110bd57829003601f168201915b505050505094508180546110ed9061186c565b80601f01602080910402602001604051908101604052809291908181526020018280546111199061186c565b80156111645780601f1061113b57610100808354040283529160200191611164565b820191905f5260205f20905b81548152906001019060200180831161114757829003601f168201915b505050505091508080546111779061186c565b80601f01602080910402602001604051908101604052809291908181526020018280546111a39061186c565b80156111ee5780601f106111c5576101008083540402835291602001916111ee565b820191905f5260205f20905b8154815290600101906020018083116111d157829003601f168201915b50505050509050955095509550955095505061124e565b8080600101915050610f5d565b506040517f08c379a000000000000000000000000000000000000000000000000000000000815260040161124590611a25565b60405180910390fd5b91939590929450565b5f8080549050905090565b6040518060a00160405280606081526020015f81526020015f815260200160608152602001606081525090565b5f604051905090565b5f80fd5b5f80fd5b5f819050919050565b6112b2816112a0565b81146112bc575f80fd5b50565b5f813590506112cd816112a9565b92915050565b5f602082840312156112e8576112e7611298565b5b5f6112f5848285016112bf565b91505092915050565b5f81519050919050565b5f82825260208201905092915050565b8281835e5f83830152505050565b5f601f19601f8301169050919050565b5f611340826112fe565b61134a8185611308565b935061135a818560208601611318565b61136381611326565b840191505092915050565b611377816112a0565b82525050565b5f60a0820190508181035f8301526113958188611336565b90506113a4602083018761136e565b6113b1604083018661136e565b81810360608301526113c38185611336565b905081810360808301526113d78184611336565b90509695505050505050565b5f6020820190508181035f8301526113fb8184611336565b905092915050565b5f80fd5b5f80fd5b7f4e487b71000000000000000000000000000000000000000000000000000000005f52604160045260245ffd5b61144182611326565b810181811067ffffffffffffffff821117156114605761145f61140b565b5b80604052505050565b5f61147261128f565b905061147e8282611438565b919050565b5f67ffffffffffffffff82111561149d5761149c61140b565b5b6114a682611326565b9050602081019050919050565b828183375f83830152505050565b5f6114d36114ce84611483565b611469565b9050828152602081018484840111156114ef576114ee611407565b5b6114fa8482856114b3565b509392505050565b5f82601f83011261151657611515611403565b5b81356115268482602086016114c1565b91505092915050565b5f6020828403121561154457611543611298565b5b5f82013567ffffffffffffffff8111156115615761156061129c565b5b61156d84828501611502565b91505092915050565b5f6020820190506115895f83018461136e565b92915050565b5f81519050919050565b5f82825260208201905092915050565b5f819050602082019050919050565b5f82825260208201905092915050565b5f6115d2826112fe565b6115dc81856115b8565b93506115ec818560208601611318565b6115f581611326565b840191505092915050565b611609816112a0565b82525050565b5f60a083015f8301518482035f86015261162982826115c8565b915050602083015161163e6020860182611600565b5060408301516116516040860182611600565b506060830151848203606086015261166982826115c8565b9150506080830151848203608086015261168382826115c8565b9150508091505092915050565b5f61169b838361160f565b905092915050565b5f602082019050919050565b5f6116b98261158f565b6116c38185611599565b9350836020820285016116d5856115a9565b805f5b8581101561171057848403895281516116f18582611690565b94506116fc836116a3565b925060208a019950506001810190506116d8565b50829750879550505050505092915050565b5f6040820190506117355f83018561136e565b818103602083015261174781846116af565b90509392505050565b5f805f806080858703121561176857611767611298565b5b5f85013567ffffffffffffffff8111156117855761178461129c565b5b61179187828801611502565b94505060206117a2878288016112bf565b93505060406117b3878288016112bf565b925050606085013567ffffffffffffffff8111156117d4576117d361129c565b5b6117e087828801611502565b91505092959194509250565b5f8115159050919050565b611800816117ec565b82525050565b5f6020820190506118195f8301846117f7565b92915050565b5f6020820190508181035f83015261183781846116af565b905092915050565b7f4e487b71000000000000000000000000000000000000000000000000000000005f52602260045260245ffd5b5f600282049050600182168061188357607f821691505b6020821081036118965761189561183f565b5b50919050565b7f4e487b71000000000000000000000000000000000000000000000000000000005f52601160045260245ffd5b5f6118d3826112a0565b91506118de836112a0565b92508282039050818111156118f6576118f561189c565b5b92915050565b7f4e487b71000000000000000000000000000000000000000000000000000000005f52603260045260245ffd5b5f81905092915050565b5f819050815f5260205f209050919050565b5f81546119518161186c565b61195b8186611929565b9450600182165f8114611975576001811461198a576119bc565b60ff19831686528115158202860193506119bc565b61199385611933565b5f5b838110156119b457815481890152600182019150602081019050611995565b838801955050505b50505092915050565b5f6119d08284611945565b915081905092915050565b7f53747564656e74206e6f7420666f756e640000000000000000000000000000005f82015250565b5f611a0f601183611308565b9150611a1a826119db565b602082019050919050565b5f6020820190508181035f830152611a3c81611a03565b9050919050565b5f611a4d826112a0565b9150611a58836112a0565b9250828201905080821115611a7057611a6f61189c565b5b92915050565b7f4e487b71000000000000000000000000000000000000000000000000000000005f52601260045260245ffd5b5f611aad826112a0565b9150611ab8836112a0565b925082611ac857611ac7611a76565b5b828204905092915050565b5f611add826112a0565b91507fffffffffffffffffffffffffffffffffffffffffffffffffffffffffffffffff8203611b0f57611b0e61189c565b5b600182019050919050565b5f819050815f5260205f209050919050565b5f6020601f8301049050919050565b5f82821b905092915050565b5f60088302611b767fffffffffffffffffffffffffffffffffffffffffffffffffffffffffffffffff82611b3b565b611b808683611b3b565b95508019841693508086168417925050509392505050565b5f819050919050565b5f611bbb611bb6611bb1846112a0565b611b98565b6112a0565b9050919050565b5f819050919050565b611bd483611ba1565b611be8611be082611bc2565b848454611b47565b825550505050565b5f90565b611bfc611bf0565b611c07818484611bcb565b505050565b5b81811015611c2a57611c1f5f82611bf4565b600181019050611c0d565b5050565b601f821115611c6f57611c4081611b1a565b611c4984611b2c565b81016020851015611c58578190505b611c6c611c6485611b2c565b830182611c0c565b50505b505050565b5f82821c905092915050565b5f611c8f5f1984600802611c74565b1980831691505092915050565b5f611ca78383611c80565b9150826002028217905092915050565b611cc0826112fe565b67ffffffffffffffff811115611cd957611cd861140b565b5b611ce3825461186c565b611cee828285611c2e565b5f60209050601f831160018114611d1f575f8415611d0d578287015190505b611d178582611c9c565b865550611d7e565b601f198416611d2d86611b1a565b5f5b82811015611d5457848901518255600182019150602085019450602081019050611d2f565b86831015611d715784890151611d6d601f891682611c80565b8355505b6001600288020188555050505b50505050505056fea2646970667358221220b116abd1e9dcf3aa4269bd69909892c181dcf04205e23b792725ff0df0f2ce1f64736f6c634300081a0033",
					"opcodes": "PUSH1 0x80 PUSH1 0x40 MSTORE CALLVALUE DUP1 ISZERO PUSH1 0xE JUMPI PUSH0 DUP1 REVERT JUMPDEST POP PUSH2 0x1DBC DUP1 PUSH2 0x1C PUSH0 CODECOPY PUSH0 RETURN INVALID PUSH1 0x80 PUSH1 0x40 MSTORE CALLVALUE DUP1 ISZERO PUSH2 0xF JUMPI PUSH0 DUP1 REVERT JUMPDEST POP PUSH1 0x4 CALLDATASIZE LT PUSH2 0xA7 JUMPI PUSH0 CALLDATALOAD PUSH1 0xE0 SHR DUP1 PUSH4 0x98463C74 GT PUSH2 0x6F JUMPI DUP1 PUSH4 0x98463C74 EQ PUSH2 0x191 JUMPI DUP1 PUSH4 0x9AE52F0F EQ PUSH2 0x1B0 JUMPI DUP1 PUSH4 0xC06A93D3 EQ PUSH2 0x1CC JUMPI DUP1 PUSH4 0xE9E30927 EQ PUSH2 0x1EA JUMPI DUP1 PUSH4 0xF317D020 EQ PUSH2 0x208 JUMPI DUP1 PUSH4 0xFC9B4099 EQ PUSH2 0x23C JUMPI PUSH2 0xA7 JUMP JUMPDEST DUP1 PUSH4 0x6EAD22E EQ PUSH2 0xAB JUMPI DUP1 PUSH4 0x3BF1A7D1 EQ PUSH2 0xDF JUMPI DUP1 PUSH4 0x6191F364 EQ PUSH2 0x10F JUMPI DUP1 PUSH4 0x7676688B EQ PUSH2 0x143 JUMPI DUP1 PUSH4 0x86BE4114 EQ PUSH2 0x173 JUMPI JUMPDEST PUSH0 DUP1 REVERT JUMPDEST PUSH2 0xC5 PUSH1 0x4 DUP1 CALLDATASIZE SUB DUP2 ADD SWAP1 PUSH2 0xC0 SWAP2 SWAP1 PUSH2 0x12D3 JUMP JUMPDEST PUSH2 0x25A JUMP JUMPDEST PUSH1 0x40 MLOAD PUSH2 0xD6 SWAP6 SWAP5 SWAP4 SWAP3 SWAP2 SWAP1 PUSH2 0x137D JUMP JUMPDEST PUSH1 0x40 MLOAD DUP1 SWAP2 SUB SWAP1 RETURN JUMPDEST PUSH2 0xF9 PUSH1 0x4 DUP1 CALLDATASIZE SUB DUP2 ADD SWAP1 PUSH2 0xF4 SWAP2 SWAP1 PUSH2 0x12D3 JUMP JUMPDEST PUSH2 0x42C JUMP JUMPDEST PUSH1 0x40 MLOAD PUSH2 0x106 SWAP2 SWAP1 PUSH2 0x13E3 JUMP JUMPDEST PUSH1 0x40 MLOAD DUP1 SWAP2 SUB SWAP1 RETURN JUMPDEST PUSH2 0x129 PUSH1 0x4 DUP1 CALLDATASIZE SUB DUP2 ADD SWAP1 PUSH2 0x124 SWAP2 SWAP1 PUSH2 0x12D3 JUMP JUMPDEST PUSH2 0x580 JUMP JUMPDEST PUSH1 0x40 MLOAD PUSH2 0x13A SWAP6 SWAP5 SWAP4 SWAP3 SWAP2 SWAP1 PUSH2 0x137D JUMP JUMPDEST PUSH1 0x40 MLOAD DUP1 SWAP2 SUB SWAP1 RETURN JUMPDEST PUSH2 0x15D PUSH1 0x4 DUP1 CALLDATASIZE SUB DUP2 ADD SWAP1 PUSH2 0x158 SWAP2 SWAP1 PUSH2 0x152F JUMP JUMPDEST PUSH2 0x7AF JUMP JUMPDEST PUSH1 0x40 MLOAD PUSH2 0x16A SWAP2 SWAP1 PUSH2 0x1576 JUMP JUMPDEST PUSH1 0x40 MLOAD DUP1 SWAP2 SUB SWAP1 RETURN JUMPDEST PUSH2 0x17B PUSH2 0x87D JUMP JUMPDEST PUSH1 0x40 MLOAD PUSH2 0x188 SWAP2 SWAP1 PUSH2 0x1576 JUMP JUMPDEST PUSH1 0x40 MLOAD DUP1 SWAP2 SUB SWAP1 RETURN JUMPDEST PUSH2 0x199 PUSH2 0x8E4 JUMP JUMPDEST PUSH1 0x40 MLOAD PUSH2 0x1A7 SWAP3 SWAP2 SWAP1 PUSH2 0x1722 JUMP JUMPDEST PUSH1 0x40 MLOAD DUP1 SWAP2 SUB SWAP1 RETURN JUMPDEST PUSH2 0x1CA PUSH1 0x4 DUP1 CALLDATASIZE SUB DUP2 ADD SWAP1 PUSH2 0x1C5 SWAP2 SWAP1 PUSH2 0x1750 JUMP JUMPDEST PUSH2 0xC68 JUMP JUMPDEST STOP JUMPDEST PUSH2 0x1D4 PUSH2 0xD1F JUMP JUMPDEST PUSH1 0x40 MLOAD PUSH2 0x1E1 SWAP2 SWAP1 PUSH2 0x1806 JUMP JUMPDEST PUSH1 0x40 MLOAD DUP1 SWAP2 SUB SWAP1 RETURN JUMPDEST PUSH2 0x1F2 PUSH2 0xD36 JUMP JUMPDEST PUSH1 0x40 MLOAD PUSH2 0x1FF SWAP2 SWAP1 PUSH2 0x181F JUMP JUMPDEST PUSH1 0x40 MLOAD DUP1 SWAP2 SUB SWAP1 RETURN JUMPDEST PUSH2 0x222 PUSH1 0x4 DUP1 CALLDATASIZE SUB DUP2 ADD SWAP1 PUSH2 0x21D SWAP2 SWAP1 PUSH2 0x152F JUMP JUMPDEST PUSH2 0xF54 JUMP JUMPDEST PUSH1 0x40 MLOAD PUSH2 0x233 SWAP6 SWAP5 SWAP4 SWAP3 SWAP2 SWAP1 PUSH2 0x137D JUMP JUMPDEST PUSH1 0x40 MLOAD DUP1 SWAP2 SUB SWAP1 RETURN JUMPDEST PUSH2 0x244 PUSH2 0x1257 JUMP JUMPDEST PUSH1 0x40 MLOAD PUSH2 0x251 SWAP2 SWAP1 PUSH2 0x1576 JUMP JUMPDEST PUSH1 0x40 MLOAD DUP1 SWAP2 SUB SWAP1 RETURN JUMPDEST PUSH0 DUP2 DUP2 SLOAD DUP2 LT PUSH2 0x268 JUMPI PUSH0 DUP1 REVERT JUMPDEST SWAP1 PUSH0 MSTORE PUSH1 0x20 PUSH0 KECCAK256 SWAP1 PUSH1 0x5 MUL ADD PUSH0 SWAP2 POP SWAP1 POP DUP1 PUSH0 ADD DUP1 SLOAD PUSH2 0x287 SWAP1 PUSH2 0x186C JUMP JUMPDEST DUP1 PUSH1 0x1F ADD PUSH1 0x20 DUP1 SWAP2 DIV MUL PUSH1 0x20 ADD PUSH1 0x40 MLOAD SWAP1 DUP2 ADD PUSH1 0x40 MSTORE DUP1 SWAP3 SWAP2 SWAP1 DUP2 DUP2 MSTORE PUSH1 0x20 ADD DUP3 DUP1 SLOAD PUSH2 0x2B3 SWAP1 PUSH2 0x186C JUMP JUMPDEST DUP1 ISZERO PUSH2 0x2FE JUMPI DUP1 PUSH1 0x1F LT PUSH2 0x2D5 JUMPI PUSH2 0x100 DUP1 DUP4 SLOAD DIV MUL DUP4 MSTORE SWAP2 PUSH1 0x20 ADD SWAP2 PUSH2 0x2FE JUMP JUMPDEST DUP3 ADD SWAP2 SWAP1 PUSH0 MSTORE PUSH1 0x20 PUSH0 KECCAK256 SWAP1 JUMPDEST DUP2 SLOAD DUP2 MSTORE SWAP1 PUSH1 0x1 ADD SWAP1 PUSH1 0x20 ADD DUP1 DUP4 GT PUSH2 0x2E1 JUMPI DUP3 SWAP1 SUB PUSH1 0x1F AND DUP3 ADD SWAP2 JUMPDEST POP POP POP POP POP SWAP1 DUP1 PUSH1 0x1 ADD SLOAD SWAP1 DUP1 PUSH1 0x2 ADD SLOAD SWAP1 DUP1 PUSH1 0x3 ADD DUP1 SLOAD PUSH2 0x31F SWAP1 PUSH2 0x186C JUMP JUMPDEST DUP1 PUSH1 0x1F ADD PUSH1 0x20 DUP1 SWAP2 DIV MUL PUSH1 0x20 ADD PUSH1 0x40 MLOAD SWAP1 DUP2 ADD PUSH1 0x40 MSTORE DUP1 SWAP3 SWAP2 SWAP1 DUP2 DUP2 MSTORE PUSH1 0x20 ADD DUP3 DUP1 SLOAD PUSH2 0x34B SWAP1 PUSH2 0x186C JUMP JUMPDEST DUP1 ISZERO PUSH2 0x396 JUMPI DUP1 PUSH1 0x1F LT PUSH2 0x36D JUMPI PUSH2 0x100 DUP1 DUP4 SLOAD DIV MUL DUP4 MSTORE SWAP2 PUSH1 0x20 ADD SWAP2 PUSH2 0x396 JUMP JUMPDEST DUP3 ADD SWAP2 SWAP1 PUSH0 MSTORE PUSH1 0x20 PUSH0 KECCAK256 SWAP1 JUMPDEST DUP2 SLOAD DUP2 MSTORE SWAP1 PUSH1 0x1 ADD SWAP1 PUSH1 0x20 ADD DUP1 DUP4 GT PUSH2 0x379 JUMPI DUP3 SWAP1 SUB PUSH1 0x1F AND DUP3 ADD SWAP2 JUMPDEST POP POP POP POP POP SWAP1 DUP1 PUSH1 0x4 ADD DUP1 SLOAD PUSH2 0x3AB SWAP1 PUSH2 0x186C JUMP JUMPDEST DUP1 PUSH1 0x1F ADD PUSH1 0x20 DUP1 SWAP2 DIV MUL PUSH1 0x20 ADD PUSH1 0x40 MLOAD SWAP1 DUP2 ADD PUSH1 0x40 MSTORE DUP1 SWAP3 SWAP2 SWAP1 DUP2 DUP2 MSTORE PUSH1 0x20 ADD DUP3 DUP1 SLOAD PUSH2 0x3D7 SWAP1 PUSH2 0x186C JUMP JUMPDEST DUP1 ISZERO PUSH2 0x422 JUMPI DUP1 PUSH1 0x1F LT PUSH2 0x3F9 JUMPI PUSH2 0x100 DUP1 DUP4 SLOAD DIV MUL DUP4 MSTORE SWAP2 PUSH1 0x20 ADD SWAP2 PUSH2 0x422 JUMP JUMPDEST DUP3 ADD SWAP2 SWAP1 PUSH0 MSTORE PUSH1 0x20 PUSH0 KECCAK256 SWAP1 JUMPDEST DUP2 SLOAD DUP2 MSTORE SWAP1 PUSH1 0x1 ADD SWAP1 PUSH1 0x20 ADD DUP1 DUP4 GT PUSH2 0x405 JUMPI DUP3 SWAP1 SUB PUSH1 0x1F AND DUP3 ADD SWAP2 JUMPDEST POP POP POP POP POP SWAP1 POP DUP6 JUMP JUMPDEST PUSH1 0x60 PUSH1 0x5A DUP3 LT PUSH2 0x473 JUMPI PUSH1 0x40 MLOAD DUP1 PUSH1 0x40 ADD PUSH1 0x40 MSTORE DUP1 PUSH1 0x1 DUP2 MSTORE PUSH1 0x20 ADD PUSH32 0x4100000000000000000000000000000000000000000000000000000000000000 DUP2 MSTORE POP SWAP1 POP PUSH2 0x57B JUMP JUMPDEST PUSH1 0x50 DUP3 LT PUSH2 0x4B8 JUMPI PUSH1 0x40 MLOAD DUP1 PUSH1 0x40 ADD PUSH1 0x40 MSTORE DUP1 PUSH1 0x1 DUP2 MSTORE PUSH1 0x20 ADD PUSH32 0x4200000000000000000000000000000000000000000000000000000000000000 DUP2 MSTORE POP SWAP1 POP PUSH2 0x57B JUMP JUMPDEST PUSH1 0x46 DUP3 LT PUSH2 0x4FD JUMPI PUSH1 0x40 MLOAD DUP1 PUSH1 0x40 ADD PUSH1 0x40 MSTORE DUP1 PUSH1 0x1 DUP2 MSTORE PUSH1 0x20 ADD PUSH32 0x4300000000000000000000000000000000000000000000000000000000000000 DUP2 MSTORE POP SWAP1 POP PUSH2 0x57B JUMP JUMPDEST PUSH1 0x3C DUP3 LT PUSH2 0x542 JUMPI PUSH1 0x40 MLOAD DUP1 PUSH1 0x40 ADD PUSH1 0x40 MSTORE DUP1 PUSH1 0x1 DUP2 MSTORE PUSH1 0x20 ADD PUSH32 0x4400000000000000000000000000000000000000000000000000000000000000 DUP2 MSTORE POP SWAP1 POP PUSH2 0x57B JUMP JUMPDEST PUSH1 0x40 MLOAD DUP1 PUSH1 0x40 ADD PUSH1 0x40 MSTORE DUP1 PUSH1 0x1 DUP2 MSTORE PUSH1 0x20 ADD PUSH32 0x4600000000000000000000000000000000000000000000000000000000000000 DUP2 MSTORE POP SWAP1 POP JUMPDEST SWAP2 SWAP1 POP JUMP JUMPDEST PUSH1 0x60 PUSH0 DUP1 PUSH1 0x60 DUP1 PUSH0 DUP1 PUSH1 0x1 DUP9 PUSH2 0x596 SWAP2 SWAP1 PUSH2 0x18C9 JUMP JUMPDEST DUP2 SLOAD DUP2 LT PUSH2 0x5A7 JUMPI PUSH2 0x5A6 PUSH2 0x18FC JUMP JUMPDEST JUMPDEST SWAP1 PUSH0 MSTORE PUSH1 0x20 PUSH0 KECCAK256 SWAP1 PUSH1 0x5 MUL ADD PUSH1 0x40 MLOAD DUP1 PUSH1 0xA0 ADD PUSH1 0x40 MSTORE SWAP1 DUP2 PUSH0 DUP3 ADD DUP1 SLOAD PUSH2 0x5CD SWAP1 PUSH2 0x186C JUMP JUMPDEST DUP1 PUSH1 0x1F ADD PUSH1 0x20 DUP1 SWAP2 DIV MUL PUSH1 0x20 ADD PUSH1 0x40 MLOAD SWAP1 DUP2 ADD PUSH1 0x40 MSTORE DUP1 SWAP3 SWAP2 SWAP1 DUP2 DUP2 MSTORE PUSH1 0x20 ADD DUP3 DUP1 SLOAD PUSH2 0x5F9 SWAP1 PUSH2 0x186C JUMP JUMPDEST DUP1 ISZERO PUSH2 0x644 JUMPI DUP1 PUSH1 0x1F LT PUSH2 0x61B JUMPI PUSH2 0x100 DUP1 DUP4 SLOAD DIV MUL DUP4 MSTORE SWAP2 PUSH1 0x20 ADD SWAP2 PUSH2 0x644 JUMP JUMPDEST DUP3 ADD SWAP2 SWAP1 PUSH0 MSTORE PUSH1 0x20 PUSH0 KECCAK256 SWAP1 JUMPDEST DUP2 SLOAD DUP2 MSTORE SWAP1 PUSH1 0x1 ADD SWAP1 PUSH1 0x20 ADD DUP1 DUP4 GT PUSH2 0x627 JUMPI DUP3 SWAP1 SUB PUSH1 0x1F AND DUP3 ADD SWAP2 JUMPDEST POP POP POP POP POP DUP2 MSTORE PUSH1 0x20 ADD PUSH1 0x1 DUP3 ADD SLOAD DUP2 MSTORE PUSH1 0x20 ADD PUSH1 0x2 DUP3 ADD SLOAD DUP2 MSTORE PUSH1 0x20 ADD PUSH1 0x3 DUP3 ADD DUP1 SLOAD PUSH2 0x671 SWAP1 PUSH2 0x186C JUMP JUMPDEST DUP1 PUSH1 0x1F ADD PUSH1 0x20 DUP1 SWAP2 DIV MUL PUSH1 0x20 ADD PUSH1 0x40 MLOAD SWAP1 DUP2 ADD PUSH1 0x40 MSTORE DUP1 SWAP3 SWAP2 SWAP1 DUP2 DUP2 MSTORE PUSH1 0x20 ADD DUP3 DUP1 SLOAD PUSH2 0x69D SWAP1 PUSH2 0x186C JUMP JUMPDEST DUP1 ISZERO PUSH2 0x6E8 JUMPI DUP1 PUSH1 0x1F LT PUSH2 0x6BF JUMPI PUSH2 0x100 DUP1 DUP4 SLOAD DIV MUL DUP4 MSTORE SWAP2 PUSH1 0x20 ADD SWAP2 PUSH2 0x6E8 JUMP JUMPDEST DUP3 ADD SWAP2 SWAP1 PUSH0 MSTORE PUSH1 0x20 PUSH0 KECCAK256 SWAP1 JUMPDEST DUP2 SLOAD DUP2 MSTORE SWAP1 PUSH1 0x1 ADD SWAP1 PUSH1 0x20 ADD DUP1 DUP4 GT PUSH2 0x6CB JUMPI DUP3 SWAP1 SUB PUSH1 0x1F AND DUP3 ADD SWAP2 JUMPDEST POP POP POP POP POP DUP2 MSTORE PUSH1 0x20 ADD PUSH1 0x4 DUP3 ADD DUP1 SLOAD PUSH2 0x701 SWAP1 PUSH2 0x186C JUMP JUMPDEST DUP1 PUSH1 0x1F ADD PUSH1 0x20 DUP1 SWAP2 DIV MUL PUSH1 0x20 ADD PUSH1 0x40 MLOAD SWAP1 DUP2 ADD PUSH1 0x40 MSTORE DUP1 SWAP3 SWAP2 SWAP1 DUP2 DUP2 MSTORE PUSH1 0x20 ADD DUP3 DUP1 SLOAD PUSH2 0x72D SWAP1 PUSH2 0x186C JUMP JUMPDEST DUP1 ISZERO PUSH2 0x778 JUMPI DUP1 PUSH1 0x1F LT PUSH2 0x74F JUMPI PUSH2 0x100 DUP1 DUP4 SLOAD DIV MUL DUP4 MSTORE SWAP2 PUSH1 0x20 ADD SWAP2 PUSH2 0x778 JUMP JUMPDEST DUP3 ADD SWAP2 SWAP1 PUSH0 MSTORE PUSH1 0x20 PUSH0 KECCAK256 SWAP1 JUMPDEST DUP2 SLOAD DUP2 MSTORE SWAP1 PUSH1 0x1 ADD SWAP1 PUSH1 0x20 ADD DUP1 DUP4 GT PUSH2 0x75B JUMPI DUP3 SWAP1 SUB PUSH1 0x1F AND DUP3 ADD SWAP2 JUMPDEST POP POP POP POP POP DUP2 MSTORE POP POP SWAP1 POP DUP1 PUSH0 ADD MLOAD DUP2 PUSH1 0x20 ADD MLOAD DUP3 PUSH1 0x40 ADD MLOAD DUP4 PUSH1 0x60 ADD MLOAD DUP5 PUSH1 0x80 ADD MLOAD SWAP6 POP SWAP6 POP SWAP6 POP SWAP6 POP SWAP6 POP POP SWAP2 SWAP4 SWAP6 SWAP1 SWAP3 SWAP5 POP JUMP JUMPDEST PUSH0 DUP1 PUSH0 SWAP1 POP JUMPDEST PUSH0 DUP1 SLOAD SWAP1 POP DUP2 LT ISZERO PUSH2 0x83C JUMPI DUP3 DUP1 MLOAD SWAP1 PUSH1 0x20 ADD KECCAK256 PUSH0 DUP3 DUP2 SLOAD DUP2 LT PUSH2 0x7DC JUMPI PUSH2 0x7DB PUSH2 0x18FC JUMP JUMPDEST JUMPDEST SWAP1 PUSH0 MSTORE PUSH1 0x20 PUSH0 KECCAK256 SWAP1 PUSH1 0x5 MUL ADD PUSH0 ADD PUSH1 0x40 MLOAD PUSH2 0x7F7 SWAP2 SWAP1 PUSH2 0x19C5 JUMP JUMPDEST PUSH1 0x40 MLOAD DUP1 SWAP2 SUB SWAP1 KECCAK256 SUB PUSH2 0x82F JUMPI PUSH0 DUP2 DUP2 SLOAD DUP2 LT PUSH2 0x817 JUMPI PUSH2 0x816 PUSH2 0x18FC JUMP JUMPDEST JUMPDEST SWAP1 PUSH0 MSTORE PUSH1 0x20 PUSH0 KECCAK256 SWAP1 PUSH1 0x5 MUL ADD PUSH1 0x2 ADD SLOAD SWAP2 POP POP PUSH2 0x878 JUMP JUMPDEST DUP1 DUP1 PUSH1 0x1 ADD SWAP2 POP POP PUSH2 0x7B5 JUMP JUMPDEST POP PUSH1 0x40 MLOAD PUSH32 0x8C379A000000000000000000000000000000000000000000000000000000000 DUP2 MSTORE PUSH1 0x4 ADD PUSH2 0x86F SWAP1 PUSH2 0x1A25 JUMP JUMPDEST PUSH1 0x40 MLOAD DUP1 SWAP2 SUB SWAP1 REVERT JUMPDEST SWAP2 SWAP1 POP JUMP JUMPDEST PUSH0 DUP1 PUSH0 SWAP1 POP PUSH0 JUMPDEST PUSH0 DUP1 SLOAD SWAP1 POP DUP2 LT ISZERO PUSH2 0x8CD JUMPI PUSH0 DUP2 DUP2 SLOAD DUP2 LT PUSH2 0x8A3 JUMPI PUSH2 0x8A2 PUSH2 0x18FC JUMP JUMPDEST JUMPDEST SWAP1 PUSH0 MSTORE PUSH1 0x20 PUSH0 KECCAK256 SWAP1 PUSH1 0x5 MUL ADD PUSH1 0x2 ADD SLOAD DUP3 PUSH2 0x8BE SWAP2 SWAP1 PUSH2 0x1A43 JUMP JUMPDEST SWAP2 POP DUP1 DUP1 PUSH1 0x1 ADD SWAP2 POP POP PUSH2 0x884 JUMP JUMPDEST POP PUSH0 DUP1 SLOAD SWAP1 POP DUP2 PUSH2 0x8DE SWAP2 SWAP1 PUSH2 0x1AA3 JUMP JUMPDEST SWAP2 POP POP SWAP1 JUMP JUMPDEST PUSH0 PUSH1 0x60 PUSH0 DUP1 JUMPDEST PUSH0 DUP1 SLOAD SWAP1 POP DUP2 LT ISZERO PUSH2 0x96F JUMPI PUSH32 0xE61D9A3D3848FB2CDD9A2AB61E2F21A10EA431275AED628A0557F9DEE697C37A PUSH0 DUP3 DUP2 SLOAD DUP2 LT PUSH2 0x92A JUMPI PUSH2 0x929 PUSH2 0x18FC JUMP JUMPDEST JUMPDEST SWAP1 PUSH0 MSTORE PUSH1 0x20 PUSH0 KECCAK256 SWAP1 PUSH1 0x5 MUL ADD PUSH1 0x3 ADD PUSH1 0x40 MLOAD PUSH2 0x946 SWAP2 SWAP1 PUSH2 0x19C5 JUMP JUMPDEST PUSH1 0x40 MLOAD DUP1 SWAP2 SUB SWAP1 KECCAK256 SUB PUSH2 0x962 JUMPI DUP2 DUP1 PUSH2 0x95E SWAP1 PUSH2 0x1AD3 JUMP JUMPDEST SWAP3 POP POP JUMPDEST DUP1 DUP1 PUSH1 0x1 ADD SWAP2 POP POP PUSH2 0x8EA JUMP JUMPDEST POP PUSH0 DUP2 PUSH8 0xFFFFFFFFFFFFFFFF DUP2 GT ISZERO PUSH2 0x98B JUMPI PUSH2 0x98A PUSH2 0x140B JUMP JUMPDEST JUMPDEST PUSH1 0x40 MLOAD SWAP1 DUP1 DUP3 MSTORE DUP1 PUSH1 0x20 MUL PUSH1 0x20 ADD DUP3 ADD PUSH1 0x40 MSTORE DUP1 ISZERO PUSH2 0x9C4 JUMPI DUP2 PUSH1 0x20 ADD JUMPDEST PUSH2 0x9B1 PUSH2 0x1262 JUMP JUMPDEST DUP2 MSTORE PUSH1 0x20 ADD SWAP1 PUSH1 0x1 SWAP1 SUB SWAP1 DUP2 PUSH2 0x9A9 JUMPI SWAP1 POP JUMPDEST POP SWAP1 POP PUSH0 DUP1 JUMPDEST PUSH0 DUP1 SLOAD SWAP1 POP DUP2 LT ISZERO PUSH2 0xC5A JUMPI PUSH32 0xE61D9A3D3848FB2CDD9A2AB61E2F21A10EA431275AED628A0557F9DEE697C37A PUSH0 DUP3 DUP2 SLOAD DUP2 LT PUSH2 0xA0A JUMPI PUSH2 0xA09 PUSH2 0x18FC JUMP JUMPDEST JUMPDEST SWAP1 PUSH0 MSTORE PUSH1 0x20 PUSH0 KECCAK256 SWAP1 PUSH1 0x5 MUL ADD PUSH1 0x3 ADD PUSH1 0x40 MLOAD PUSH2 0xA26 SWAP2 SWAP1 PUSH2 0x19C5 JUMP JUMPDEST PUSH1 0x40 MLOAD DUP1 SWAP2 SUB SWAP1 KECCAK256 SUB PUSH2 0xC4D JUMPI PUSH0 DUP2 DUP2 SLOAD DUP2 LT PUSH2 0xA46 JUMPI PUSH2 0xA45 PUSH2 0x18FC JUMP JUMPDEST JUMPDEST SWAP1 PUSH0 MSTORE PUSH1 0x20 PUSH0 KECCAK256 SWAP1 PUSH1 0x5 MUL ADD PUSH1 0x40 MLOAD DUP1 PUSH1 0xA0 ADD PUSH1 0x40 MSTORE SWAP1 DUP2 PUSH0 DUP3 ADD DUP1 SLOAD PUSH2 0xA6C SWAP1 PUSH2 0x186C JUMP JUMPDEST DUP1 PUSH1 0x1F ADD PUSH1 0x20 DUP1 SWAP2 DIV MUL PUSH1 0x20 ADD PUSH1 0x40 MLOAD SWAP1 DUP2 ADD PUSH1 0x40 MSTORE DUP1 SWAP3 SWAP2 SWAP1 DUP2 DUP2 MSTORE PUSH1 0x20 ADD DUP3 DUP1 SLOAD PUSH2 0xA98 SWAP1 PUSH2 0x186C JUMP JUMPDEST DUP1 ISZERO PUSH2 0xAE3 JUMPI DUP1 PUSH1 0x1F LT PUSH2 0xABA JUMPI PUSH2 0x100 DUP1 DUP4 SLOAD DIV MUL DUP4 MSTORE SWAP2 PUSH1 0x20 ADD SWAP2 PUSH2 0xAE3 JUMP JUMPDEST DUP3 ADD SWAP2 SWAP1 PUSH0 MSTORE PUSH1 0x20 PUSH0 KECCAK256 SWAP1 JUMPDEST DUP2 SLOAD DUP2 MSTORE SWAP1 PUSH1 0x1 ADD SWAP1 PUSH1 0x20 ADD DUP1 DUP4 GT PUSH2 0xAC6 JUMPI DUP3 SWAP1 SUB PUSH1 0x1F AND DUP3 ADD SWAP2 JUMPDEST POP POP POP POP POP DUP2 MSTORE PUSH1 0x20 ADD PUSH1 0x1 DUP3 ADD SLOAD DUP2 MSTORE PUSH1 0x20 ADD PUSH1 0x2 DUP3 ADD SLOAD DUP2 MSTORE PUSH1 0x20 ADD PUSH1 0x3 DUP3 ADD DUP1 SLOAD PUSH2 0xB10 SWAP1 PUSH2 0x186C JUMP JUMPDEST DUP1 PUSH1 0x1F ADD PUSH1 0x20 DUP1 SWAP2 DIV MUL PUSH1 0x20 ADD PUSH1 0x40 MLOAD SWAP1 DUP2 ADD PUSH1 0x40 MSTORE DUP1 SWAP3 SWAP2 SWAP1 DUP2 DUP2 MSTORE PUSH1 0x20 ADD DUP3 DUP1 SLOAD PUSH2 0xB3C SWAP1 PUSH2 0x186C JUMP JUMPDEST DUP1 ISZERO PUSH2 0xB87 JUMPI DUP1 PUSH1 0x1F LT PUSH2 0xB5E JUMPI PUSH2 0x100 DUP1 DUP4 SLOAD DIV MUL DUP4 MSTORE SWAP2 PUSH1 0x20 ADD SWAP2 PUSH2 0xB87 JUMP JUMPDEST DUP3 ADD SWAP2 SWAP1 PUSH0 MSTORE PUSH1 0x20 PUSH0 KECCAK256 SWAP1 JUMPDEST DUP2 SLOAD DUP2 MSTORE SWAP1 PUSH1 0x1 ADD SWAP1 PUSH1 0x20 ADD DUP1 DUP4 GT PUSH2 0xB6A JUMPI DUP3 SWAP1 SUB PUSH1 0x1F AND DUP3 ADD SWAP2 JUMPDEST POP POP POP POP POP DUP2 MSTORE PUSH1 0x20 ADD PUSH1 0x4 DUP3 ADD DUP1 SLOAD PUSH2 0xBA0 SWAP1 PUSH2 0x186C JUMP JUMPDEST DUP1 PUSH1 0x1F ADD PUSH1 0x20 DUP1 SWAP2 DIV MUL PUSH1 0x20 ADD PUSH1 0x40 MLOAD SWAP1 DUP2 ADD PUSH1 0x40 MSTORE DUP1 SWAP3 SWAP2 SWAP1 DUP2 DUP2 MSTORE PUSH1 0x20 ADD DUP3 DUP1 SLOAD PUSH2 0xBCC SWAP1 PUSH2 0x186C JUMP JUMPDEST DUP1 ISZERO PUSH2 0xC17 JUMPI DUP1 PUSH1 0x1F LT PUSH2 0xBEE JUMPI PUSH2 0x100 DUP1 DUP4 SLOAD DIV MUL DUP4 MSTORE SWAP2 PUSH1 0x20 ADD SWAP2 PUSH2 0xC17 JUMP JUMPDEST DUP3 ADD SWAP2 SWAP1 PUSH0 MSTORE PUSH1 0x20 PUSH0 KECCAK256 SWAP1 JUMPDEST DUP2 SLOAD DUP2 MSTORE SWAP1 PUSH1 0x1 ADD SWAP1 PUSH1 0x20 ADD DUP1 DUP4 GT PUSH2 0xBFA JUMPI DUP3 SWAP1 SUB PUSH1 0x1F AND DUP3 ADD SWAP2 JUMPDEST POP POP POP POP POP DUP2 MSTORE POP POP DUP4 DUP4 DUP2 MLOAD DUP2 LT PUSH2 0xC33 JUMPI PUSH2 0xC32 PUSH2 0x18FC JUMP JUMPDEST JUMPDEST PUSH1 0x20 MUL PUSH1 0x20 ADD ADD DUP2 SWAP1 MSTORE POP DUP2 DUP1 PUSH2 0xC49 SWAP1 PUSH2 0x1AD3 JUMP JUMPDEST SWAP3 POP POP JUMPDEST DUP1 DUP1 PUSH1 0x1 ADD SWAP2 POP POP PUSH2 0x9CA JUMP JUMPDEST POP DUP3 DUP3 SWAP5 POP SWAP5 POP POP POP POP SWAP1 SWAP2 JUMP JUMPDEST PUSH0 PUSH2 0xC72 DUP4 PUSH2 0x42C JUMP JUMPDEST SWAP1 POP PUSH0 PUSH1 0x40 MLOAD DUP1 PUSH1 0xA0 ADD PUSH1 0x40 MSTORE DUP1 DUP8 DUP2 MSTORE PUSH1 0x20 ADD DUP7 DUP2 MSTORE PUSH1 0x20 ADD DUP6 DUP2 MSTORE PUSH1 0x20 ADD DUP4 DUP2 MSTORE PUSH1 0x20 ADD DUP5 DUP2 MSTORE POP SWAP1 DUP1 PUSH1 0x1 DUP2 SLOAD ADD DUP1 DUP3 SSTORE DUP1 SWAP2 POP POP PUSH1 0x1 SWAP1 SUB SWAP1 PUSH0 MSTORE PUSH1 0x20 PUSH0 KECCAK256 SWAP1 PUSH1 0x5 MUL ADD PUSH0 SWAP1 SWAP2 SWAP1 SWAP2 SWAP1 SWAP2 POP PUSH0 DUP3 ADD MLOAD DUP2 PUSH0 ADD SWAP1 DUP2 PUSH2 0xCD5 SWAP2 SWAP1 PUSH2 0x1CB7 JUMP JUMPDEST POP PUSH1 0x20 DUP3 ADD MLOAD DUP2 PUSH1 0x1 ADD SSTORE PUSH1 0x40 DUP3 ADD MLOAD DUP2 PUSH1 0x2 ADD SSTORE PUSH1 0x60 DUP3 ADD MLOAD DUP2 PUSH1 0x3 ADD SWAP1 DUP2 PUSH2 0xCFF SWAP2 SWAP1 PUSH2 0x1CB7 JUMP JUMPDEST POP PUSH1 0x80 DUP3 ADD MLOAD DUP2 PUSH1 0x4 ADD SWAP1 DUP2 PUSH2 0xD15 SWAP2 SWAP1 PUSH2 0x1CB7 JUMP JUMPDEST POP POP POP POP POP POP POP POP JUMP JUMPDEST PUSH0 DUP1 PUSH2 0xD29 PUSH2 0x87D JUMP JUMPDEST SWAP1 POP PUSH1 0x46 DUP2 LT ISZERO SWAP2 POP POP SWAP1 JUMP JUMPDEST PUSH1 0x60 PUSH0 DUP1 SLOAD DUP1 PUSH1 0x20 MUL PUSH1 0x20 ADD PUSH1 0x40 MLOAD SWAP1 DUP2 ADD PUSH1 0x40 MSTORE DUP1 SWAP3 SWAP2 SWAP1 DUP2 DUP2 MSTORE PUSH1 0x20 ADD PUSH0 SWAP1 JUMPDEST DUP3 DUP3 LT ISZERO PUSH2 0xF4B JUMPI DUP4 DUP3 SWAP1 PUSH0 MSTORE PUSH1 0x20 PUSH0 KECCAK256 SWAP1 PUSH1 0x5 MUL ADD PUSH1 0x40 MLOAD DUP1 PUSH1 0xA0 ADD PUSH1 0x40 MSTORE SWAP1 DUP2 PUSH0 DUP3 ADD DUP1 SLOAD PUSH2 0xD88 SWAP1 PUSH2 0x186C JUMP JUMPDEST DUP1 PUSH1 0x1F ADD PUSH1 0x20 DUP1 SWAP2 DIV MUL PUSH1 0x20 ADD PUSH1 0x40 MLOAD SWAP1 DUP2 ADD PUSH1 0x40 MSTORE DUP1 SWAP3 SWAP2 SWAP1 DUP2 DUP2 MSTORE PUSH1 0x20 ADD DUP3 DUP1 SLOAD PUSH2 0xDB4 SWAP1 PUSH2 0x186C JUMP JUMPDEST DUP1 ISZERO PUSH2 0xDFF JUMPI DUP1 PUSH1 0x1F LT PUSH2 0xDD6 JUMPI PUSH2 0x100 DUP1 DUP4 SLOAD DIV MUL DUP4 MSTORE SWAP2 PUSH1 0x20 ADD SWAP2 PUSH2 0xDFF JUMP JUMPDEST DUP3 ADD SWAP2 SWAP1 PUSH0 MSTORE PUSH1 0x20 PUSH0 KECCAK256 SWAP1 JUMPDEST DUP2 SLOAD DUP2 MSTORE SWAP1 PUSH1 0x1 ADD SWAP1 PUSH1 0x20 ADD DUP1 DUP4 GT PUSH2 0xDE2 JUMPI DUP3 SWAP1 SUB PUSH1 0x1F AND DUP3 ADD SWAP2 JUMPDEST POP POP POP POP POP DUP2 MSTORE PUSH1 0x20 ADD PUSH1 0x1 DUP3 ADD SLOAD DUP2 MSTORE PUSH1 0x20 ADD PUSH1 0x2 DUP3 ADD SLOAD DUP2 MSTORE PUSH1 0x20 ADD PUSH1 0x3 DUP3 ADD DUP1 SLOAD PUSH2 0xE2C SWAP1 PUSH2 0x186C JUMP JUMPDEST DUP1 PUSH1 0x1F ADD PUSH1 0x20 DUP1 SWAP2 DIV MUL PUSH1 0x20 ADD PUSH1 0x40 MLOAD SWAP1 DUP2 ADD PUSH1 0x40 MSTORE DUP1 SWAP3 SWAP2 SWAP1 DUP2 DUP2 MSTORE PUSH1 0x20 ADD DUP3 DUP1 SLOAD PUSH2 0xE58 SWAP1 PUSH2 0x186C JUMP JUMPDEST DUP1 ISZERO PUSH2 0xEA3 JUMPI DUP1 PUSH1 0x1F LT PUSH2 0xE7A JUMPI PUSH2 0x100 DUP1 DUP4 SLOAD DIV MUL DUP4 MSTORE SWAP2 PUSH1 0x20 ADD SWAP2 PUSH2 0xEA3 JUMP JUMPDEST DUP3 ADD SWAP2 SWAP1 PUSH0 MSTORE PUSH1 0x20 PUSH0 KECCAK256 SWAP1 JUMPDEST DUP2 SLOAD DUP2 MSTORE SWAP1 PUSH1 0x1 ADD SWAP1 PUSH1 0x20 ADD DUP1 DUP4 GT PUSH2 0xE86 JUMPI DUP3 SWAP1 SUB PUSH1 0x1F AND DUP3 ADD SWAP2 JUMPDEST POP POP POP POP POP DUP2 MSTORE PUSH1 0x20 ADD PUSH1 0x4 DUP3 ADD DUP1 SLOAD PUSH2 0xEBC SWAP1 PUSH2 0x186C JUMP JUMPDEST DUP1 PUSH1 0x1F ADD PUSH1 0x20 DUP1 SWAP2 DIV MUL PUSH1 0x20 ADD PUSH1 0x40 MLOAD SWAP1 DUP2 ADD PUSH1 0x40 MSTORE DUP1 SWAP3 SWAP2 SWAP1 DUP2 DUP2 MSTORE PUSH1 0x20 ADD DUP3 DUP1 SLOAD PUSH2 0xEE8 SWAP1 PUSH2 0x186C JUMP JUMPDEST DUP1 ISZERO PUSH2 0xF33 JUMPI DUP1 PUSH1 0x1F LT PUSH2 0xF0A JUMPI PUSH2 0x100 DUP1 DUP4 SLOAD DIV MUL DUP4 MSTORE SWAP2 PUSH1 0x20 ADD SWAP2 PUSH2 0xF33 JUMP JUMPDEST DUP3 ADD SWAP2 SWAP1 PUSH0 MSTORE PUSH1 0x20 PUSH0 KECCAK256 SWAP1 JUMPDEST DUP2 SLOAD DUP2 MSTORE SWAP1 PUSH1 0x1 ADD SWAP1 PUSH1 0x20 ADD DUP1 DUP4 GT PUSH2 0xF16 JUMPI DUP3 SWAP1 SUB PUSH1 0x1F AND DUP3 ADD SWAP2 JUMPDEST POP POP POP POP POP DUP2 MSTORE POP POP DUP2 MSTORE PUSH1 0x20 ADD SWAP1 PUSH1 0x1 ADD SWAP1 PUSH2 0xD58 JUMP JUMPDEST POP POP POP POP SWAP1 POP SWAP1 JUMP JUMPDEST PUSH1 0x60 PUSH0 DUP1 PUSH1 0x60 DUP1 PUSH0 JUMPDEST PUSH0 DUP1 SLOAD SWAP1 POP DUP2 LT ISZERO PUSH2 0x1212 JUMPI DUP7 DUP1 MLOAD SWAP1 PUSH1 0x20 ADD KECCAK256 PUSH0 DUP3 DUP2 SLOAD DUP2 LT PUSH2 0xF84 JUMPI PUSH2 0xF83 PUSH2 0x18FC JUMP JUMPDEST JUMPDEST SWAP1 PUSH0 MSTORE PUSH1 0x20 PUSH0 KECCAK256 SWAP1 PUSH1 0x5 MUL ADD PUSH0 ADD PUSH1 0x40 MLOAD PUSH2 0xF9F SWAP2 SWAP1 PUSH2 0x19C5 JUMP JUMPDEST PUSH1 0x40 MLOAD DUP1 SWAP2 SUB SWAP1 KECCAK256 SUB PUSH2 0x1205 JUMPI PUSH0 DUP2 DUP2 SLOAD DUP2 LT PUSH2 0xFBF JUMPI PUSH2 0xFBE PUSH2 0x18FC JUMP JUMPDEST JUMPDEST SWAP1 PUSH0 MSTORE PUSH1 0x20 PUSH0 KECCAK256 SWAP1 PUSH1 0x5 MUL ADD PUSH0 ADD PUSH0 DUP3 DUP2 SLOAD DUP2 LT PUSH2 0xFE0 JUMPI PUSH2 0xFDF PUSH2 0x18FC JUMP JUMPDEST JUMPDEST SWAP1 PUSH0 MSTORE PUSH1 0x20 PUSH0 KECCAK256 SWAP1 PUSH1 0x5 MUL ADD PUSH1 0x1 ADD SLOAD PUSH0 DUP4 DUP2 SLOAD DUP2 LT PUSH2 0x1003 JUMPI PUSH2 0x1002 PUSH2 0x18FC JUMP JUMPDEST JUMPDEST SWAP1 PUSH0 MSTORE PUSH1 0x20 PUSH0 KECCAK256 SWAP1 PUSH1 0x5 MUL ADD PUSH1 0x2 ADD SLOAD PUSH0 DUP5 DUP2 SLOAD DUP2 LT PUSH2 0x1026 JUMPI PUSH2 0x1025 PUSH2 0x18FC JUMP JUMPDEST JUMPDEST SWAP1 PUSH0 MSTORE PUSH1 0x20 PUSH0 KECCAK256 SWAP1 PUSH1 0x5 MUL ADD PUSH1 0x3 ADD PUSH0 DUP6 DUP2 SLOAD DUP2 LT PUSH2 0x1048 JUMPI PUSH2 0x1047 PUSH2 0x18FC JUMP JUMPDEST JUMPDEST SWAP1 PUSH0 MSTORE PUSH1 0x20 PUSH0 KECCAK256 SWAP1 PUSH1 0x5 MUL ADD PUSH1 0x4 ADD DUP5 DUP1 SLOAD PUSH2 0x1063 SWAP1 PUSH2 0x186C JUMP JUMPDEST DUP1 PUSH1 0x1F ADD PUSH1 0x20 DUP1 SWAP2 DIV MUL PUSH1 0x20 ADD PUSH1 0x40 MLOAD SWAP1 DUP2 ADD PUSH1 0x40 MSTORE DUP1 SWAP3 SWAP2 SWAP1 DUP2 DUP2 MSTORE PUSH1 0x20 ADD DUP3 DUP1 SLOAD PUSH2 0x108F SWAP1 PUSH2 0x186C JUMP JUMPDEST DUP1 ISZERO PUSH2 0x10DA JUMPI DUP1 PUSH1 0x1F LT PUSH2 0x10B1 JUMPI PUSH2 0x100 DUP1 DUP4 SLOAD DIV MUL DUP4 MSTORE SWAP2 PUSH1 0x20 ADD SWAP2 PUSH2 0x10DA JUMP JUMPDEST DUP3 ADD SWAP2 SWAP1 PUSH0 MSTORE PUSH1 0x20 PUSH0 KECCAK256 SWAP1 JUMPDEST DUP2 SLOAD DUP2 MSTORE SWAP1 PUSH1 0x1 ADD SWAP1 PUSH1 0x20 ADD DUP1 DUP4 GT PUSH2 0x10BD JUMPI DUP3 SWAP1 SUB PUSH1 0x1F AND DUP3 ADD SWAP2 JUMPDEST POP POP POP POP POP SWAP5 POP DUP2 DUP1 SLOAD PUSH2 0x10ED SWAP1 PUSH2 0x186C JUMP JUMPDEST DUP1 PUSH1 0x1F ADD PUSH1 0x20 DUP1 SWAP2 DIV MUL PUSH1 0x20 ADD PUSH1 0x40 MLOAD SWAP1 DUP2 ADD PUSH1 0x40 MSTORE DUP1 SWAP3 SWAP2 SWAP1 DUP2 DUP2 MSTORE PUSH1 0x20 ADD DUP3 DUP1 SLOAD PUSH2 0x1119 SWAP1 PUSH2 0x186C JUMP JUMPDEST DUP1 ISZERO PUSH2 0x1164 JUMPI DUP1 PUSH1 0x1F LT PUSH2 0x113B JUMPI PUSH2 0x100 DUP1 DUP4 SLOAD DIV MUL DUP4 MSTORE SWAP2 PUSH1 0x20 ADD SWAP2 PUSH2 0x1164 JUMP JUMPDEST DUP3 ADD SWAP2 SWAP1 PUSH0 MSTORE PUSH1 0x20 PUSH0 KECCAK256 SWAP1 JUMPDEST DUP2 SLOAD DUP2 MSTORE SWAP1 PUSH1 0x1 ADD SWAP1 PUSH1 0x20 ADD DUP1 DUP4 GT PUSH2 0x1147 JUMPI DUP3 SWAP1 SUB PUSH1 0x1F AND DUP3 ADD SWAP2 JUMPDEST POP POP POP POP POP SWAP2 POP DUP1 DUP1 SLOAD PUSH2 0x1177 SWAP1 PUSH2 0x186C JUMP JUMPDEST DUP1 PUSH1 0x1F ADD PUSH1 0x20 DUP1 SWAP2 DIV MUL PUSH1 0x20 ADD PUSH1 0x40 MLOAD SWAP1 DUP2 ADD PUSH1 0x40 MSTORE DUP1 SWAP3 SWAP2 SWAP1 DUP2 DUP2 MSTORE PUSH1 0x20 ADD DUP3 DUP1 SLOAD PUSH2 0x11A3 SWAP1 PUSH2 0x186C JUMP JUMPDEST DUP1 ISZERO PUSH2 0x11EE JUMPI DUP1 PUSH1 0x1F LT PUSH2 0x11C5 JUMPI PUSH2 0x100 DUP1 DUP4 SLOAD DIV MUL DUP4 MSTORE SWAP2 PUSH1 0x20 ADD SWAP2 PUSH2 0x11EE JUMP JUMPDEST DUP3 ADD SWAP2 SWAP1 PUSH0 MSTORE PUSH1 0x20 PUSH0 KECCAK256 SWAP1 JUMPDEST DUP2 SLOAD DUP2 MSTORE SWAP1 PUSH1 0x1 ADD SWAP1 PUSH1 0x20 ADD DUP1 DUP4 GT PUSH2 0x11D1 JUMPI DUP3 SWAP1 SUB PUSH1 0x1F AND DUP3 ADD SWAP2 JUMPDEST POP POP POP POP POP SWAP1 POP SWAP6 POP SWAP6 POP SWAP6 POP SWAP6 POP SWAP6 POP POP PUSH2 0x124E JUMP JUMPDEST DUP1 DUP1 PUSH1 0x1 ADD SWAP2 POP POP PUSH2 0xF5D JUMP JUMPDEST POP PUSH1 0x40 MLOAD PUSH32 0x8C379A000000000000000000000000000000000000000000000000000000000 DUP2 MSTORE PUSH1 0x4 ADD PUSH2 0x1245 SWAP1 PUSH2 0x1A25 JUMP JUMPDEST PUSH1 0x40 MLOAD DUP1 SWAP2 SUB SWAP1 REVERT JUMPDEST SWAP2 SWAP4 SWAP6 SWAP1 SWAP3 SWAP5 POP JUMP JUMPDEST PUSH0 DUP1 DUP1 SLOAD SWAP1 POP SWAP1 POP SWAP1 JUMP JUMPDEST PUSH1 0x40 MLOAD DUP1 PUSH1 0xA0 ADD PUSH1 0x40 MSTORE DUP1 PUSH1 0x60 DUP2 MSTORE PUSH1 0x20 ADD PUSH0 DUP2 MSTORE PUSH1 0x20 ADD PUSH0 DUP2 MSTORE PUSH1 0x20 ADD PUSH1 0x60 DUP2 MSTORE PUSH1 0x20 ADD PUSH1 0x60 DUP2 MSTORE POP SWAP1 JUMP JUMPDEST PUSH0 PUSH1 0x40 MLOAD SWAP1 POP SWAP1 JUMP JUMPDEST PUSH0 DUP1 REVERT JUMPDEST PUSH0 DUP1 REVERT JUMPDEST PUSH0 DUP2 SWAP1 POP SWAP2 SWAP1 POP JUMP JUMPDEST PUSH2 0x12B2 DUP2 PUSH2 0x12A0 JUMP JUMPDEST DUP2 EQ PUSH2 0x12BC JUMPI PUSH0 DUP1 REVERT JUMPDEST POP JUMP JUMPDEST PUSH0 DUP2 CALLDATALOAD SWAP1 POP PUSH2 0x12CD DUP2 PUSH2 0x12A9 JUMP JUMPDEST SWAP3 SWAP2 POP POP JUMP JUMPDEST PUSH0 PUSH1 0x20 DUP3 DUP5 SUB SLT ISZERO PUSH2 0x12E8 JUMPI PUSH2 0x12E7 PUSH2 0x1298 JUMP JUMPDEST JUMPDEST PUSH0 PUSH2 0x12F5 DUP5 DUP3 DUP6 ADD PUSH2 0x12BF JUMP JUMPDEST SWAP2 POP POP SWAP3 SWAP2 POP POP JUMP JUMPDEST PUSH0 DUP2 MLOAD SWAP1 POP SWAP2 SWAP1 POP JUMP JUMPDEST PUSH0 DUP3 DUP3 MSTORE PUSH1 0x20 DUP3 ADD SWAP1 POP SWAP3 SWAP2 POP POP JUMP JUMPDEST DUP3 DUP2 DUP4 MCOPY PUSH0 DUP4 DUP4 ADD MSTORE POP POP POP JUMP JUMPDEST PUSH0 PUSH1 0x1F NOT PUSH1 0x1F DUP4 ADD AND SWAP1 POP SWAP2 SWAP1 POP JUMP JUMPDEST PUSH0 PUSH2 0x1340 DUP3 PUSH2 0x12FE JUMP JUMPDEST PUSH2 0x134A DUP2 DUP6 PUSH2 0x1308 JUMP JUMPDEST SWAP4 POP PUSH2 0x135A DUP2 DUP6 PUSH1 0x20 DUP7 ADD PUSH2 0x1318 JUMP JUMPDEST PUSH2 0x1363 DUP2 PUSH2 0x1326 JUMP JUMPDEST DUP5 ADD SWAP2 POP POP SWAP3 SWAP2 POP POP JUMP JUMPDEST PUSH2 0x1377 DUP2 PUSH2 0x12A0 JUMP JUMPDEST DUP3 MSTORE POP POP JUMP JUMPDEST PUSH0 PUSH1 0xA0 DUP3 ADD SWAP1 POP DUP2 DUP2 SUB PUSH0 DUP4 ADD MSTORE PUSH2 0x1395 DUP2 DUP9 PUSH2 0x1336 JUMP JUMPDEST SWAP1 POP PUSH2 0x13A4 PUSH1 0x20 DUP4 ADD DUP8 PUSH2 0x136E JUMP JUMPDEST PUSH2 0x13B1 PUSH1 0x40 DUP4 ADD DUP7 PUSH2 0x136E JUMP JUMPDEST DUP2 DUP2 SUB PUSH1 0x60 DUP4 ADD MSTORE PUSH2 0x13C3 DUP2 DUP6 PUSH2 0x1336 JUMP JUMPDEST SWAP1 POP DUP2 DUP2 SUB PUSH1 0x80 DUP4 ADD MSTORE PUSH2 0x13D7 DUP2 DUP5 PUSH2 0x1336 JUMP JUMPDEST SWAP1 POP SWAP7 SWAP6 POP POP POP POP POP POP JUMP JUMPDEST PUSH0 PUSH1 0x20 DUP3 ADD SWAP1 POP DUP2 DUP2 SUB PUSH0 DUP4 ADD MSTORE PUSH2 0x13FB DUP2 DUP5 PUSH2 0x1336 JUMP JUMPDEST SWAP1 POP SWAP3 SWAP2 POP POP JUMP JUMPDEST PUSH0 DUP1 REVERT JUMPDEST PUSH0 DUP1 REVERT JUMPDEST PUSH32 0x4E487B7100000000000000000000000000000000000000000000000000000000 PUSH0 MSTORE PUSH1 0x41 PUSH1 0x4 MSTORE PUSH1 0x24 PUSH0 REVERT JUMPDEST PUSH2 0x1441 DUP3 PUSH2 0x1326 JUMP JUMPDEST DUP2 ADD DUP2 DUP2 LT PUSH8 0xFFFFFFFFFFFFFFFF DUP3 GT OR ISZERO PUSH2 0x1460 JUMPI PUSH2 0x145F PUSH2 0x140B JUMP JUMPDEST JUMPDEST DUP1 PUSH1 0x40 MSTORE POP POP POP JUMP JUMPDEST PUSH0 PUSH2 0x1472 PUSH2 0x128F JUMP JUMPDEST SWAP1 POP PUSH2 0x147E DUP3 DUP3 PUSH2 0x1438 JUMP JUMPDEST SWAP2 SWAP1 POP JUMP JUMPDEST PUSH0 PUSH8 0xFFFFFFFFFFFFFFFF DUP3 GT ISZERO PUSH2 0x149D JUMPI PUSH2 0x149C PUSH2 0x140B JUMP JUMPDEST JUMPDEST PUSH2 0x14A6 DUP3 PUSH2 0x1326 JUMP JUMPDEST SWAP1 POP PUSH1 0x20 DUP2 ADD SWAP1 POP SWAP2 SWAP1 POP JUMP JUMPDEST DUP3 DUP2 DUP4 CALLDATACOPY PUSH0 DUP4 DUP4 ADD MSTORE POP POP POP JUMP JUMPDEST PUSH0 PUSH2 0x14D3 PUSH2 0x14CE DUP5 PUSH2 0x1483 JUMP JUMPDEST PUSH2 0x1469 JUMP JUMPDEST SWAP1 POP DUP3 DUP2 MSTORE PUSH1 0x20 DUP2 ADD DUP5 DUP5 DUP5 ADD GT ISZERO PUSH2 0x14EF JUMPI PUSH2 0x14EE PUSH2 0x1407 JUMP JUMPDEST JUMPDEST PUSH2 0x14FA DUP5 DUP3 DUP6 PUSH2 0x14B3 JUMP JUMPDEST POP SWAP4 SWAP3 POP POP POP JUMP JUMPDEST PUSH0 DUP3 PUSH1 0x1F DUP4 ADD SLT PUSH2 0x1516 JUMPI PUSH2 0x1515 PUSH2 0x1403 JUMP JUMPDEST JUMPDEST DUP2 CALLDATALOAD PUSH2 0x1526 DUP5 DUP3 PUSH1 0x20 DUP7 ADD PUSH2 0x14C1 JUMP JUMPDEST SWAP2 POP POP SWAP3 SWAP2 POP POP JUMP JUMPDEST PUSH0 PUSH1 0x20 DUP3 DUP5 SUB SLT ISZERO PUSH2 0x1544 JUMPI PUSH2 0x1543 PUSH2 0x1298 JUMP JUMPDEST JUMPDEST PUSH0 DUP3 ADD CALLDATALOAD PUSH8 0xFFFFFFFFFFFFFFFF DUP2 GT ISZERO PUSH2 0x1561 JUMPI PUSH2 0x1560 PUSH2 0x129C JUMP JUMPDEST JUMPDEST PUSH2 0x156D DUP5 DUP3 DUP6 ADD PUSH2 0x1502 JUMP JUMPDEST SWAP2 POP POP SWAP3 SWAP2 POP POP JUMP JUMPDEST PUSH0 PUSH1 0x20 DUP3 ADD SWAP1 POP PUSH2 0x1589 PUSH0 DUP4 ADD DUP5 PUSH2 0x136E JUMP JUMPDEST SWAP3 SWAP2 POP POP JUMP JUMPDEST PUSH0 DUP2 MLOAD SWAP1 POP SWAP2 SWAP1 POP JUMP JUMPDEST PUSH0 DUP3 DUP3 MSTORE PUSH1 0x20 DUP3 ADD SWAP1 POP SWAP3 SWAP2 POP POP JUMP JUMPDEST PUSH0 DUP2 SWAP1 POP PUSH1 0x20 DUP3 ADD SWAP1 POP SWAP2 SWAP1 POP JUMP JUMPDEST PUSH0 DUP3 DUP3 MSTORE PUSH1 0x20 DUP3 ADD SWAP1 POP SWAP3 SWAP2 POP POP JUMP JUMPDEST PUSH0 PUSH2 0x15D2 DUP3 PUSH2 0x12FE JUMP JUMPDEST PUSH2 0x15DC DUP2 DUP6 PUSH2 0x15B8 JUMP JUMPDEST SWAP4 POP PUSH2 0x15EC DUP2 DUP6 PUSH1 0x20 DUP7 ADD PUSH2 0x1318 JUMP JUMPDEST PUSH2 0x15F5 DUP2 PUSH2 0x1326 JUMP JUMPDEST DUP5 ADD SWAP2 POP POP SWAP3 SWAP2 POP POP JUMP JUMPDEST PUSH2 0x1609 DUP2 PUSH2 0x12A0 JUMP JUMPDEST DUP3 MSTORE POP POP JUMP JUMPDEST PUSH0 PUSH1 0xA0 DUP4 ADD PUSH0 DUP4 ADD MLOAD DUP5 DUP3 SUB PUSH0 DUP7 ADD MSTORE PUSH2 0x1629 DUP3 DUP3 PUSH2 0x15C8 JUMP JUMPDEST SWAP2 POP POP PUSH1 0x20 DUP4 ADD MLOAD PUSH2 0x163E PUSH1 0x20 DUP7 ADD DUP3 PUSH2 0x1600 JUMP JUMPDEST POP PUSH1 0x40 DUP4 ADD MLOAD PUSH2 0x1651 PUSH1 0x40 DUP7 ADD DUP3 PUSH2 0x1600 JUMP JUMPDEST POP PUSH1 0x60 DUP4 ADD MLOAD DUP5 DUP3 SUB PUSH1 0x60 DUP7 ADD MSTORE PUSH2 0x1669 DUP3 DUP3 PUSH2 0x15C8 JUMP JUMPDEST SWAP2 POP POP PUSH1 0x80 DUP4 ADD MLOAD DUP5 DUP3 SUB PUSH1 0x80 DUP7 ADD MSTORE PUSH2 0x1683 DUP3 DUP3 PUSH2 0x15C8 JUMP JUMPDEST SWAP2 POP POP DUP1 SWAP2 POP POP SWAP3 SWAP2 POP POP JUMP JUMPDEST PUSH0 PUSH2 0x169B DUP4 DUP4 PUSH2 0x160F JUMP JUMPDEST SWAP1 POP SWAP3 SWAP2 POP POP JUMP JUMPDEST PUSH0 PUSH1 0x20 DUP3 ADD SWAP1 POP SWAP2 SWAP1 POP JUMP JUMPDEST PUSH0 PUSH2 0x16B9 DUP3 PUSH2 0x158F JUMP JUMPDEST PUSH2 0x16C3 DUP2 DUP6 PUSH2 0x1599 JUMP JUMPDEST SWAP4 POP DUP4 PUSH1 0x20 DUP3 MUL DUP6 ADD PUSH2 0x16D5 DUP6 PUSH2 0x15A9 JUMP JUMPDEST DUP1 PUSH0 JUMPDEST DUP6 DUP2 LT ISZERO PUSH2 0x1710 JUMPI DUP5 DUP5 SUB DUP10 MSTORE DUP2 MLOAD PUSH2 0x16F1 DUP6 DUP3 PUSH2 0x1690 JUMP JUMPDEST SWAP5 POP PUSH2 0x16FC DUP4 PUSH2 0x16A3 JUMP JUMPDEST SWAP3 POP PUSH1 0x20 DUP11 ADD SWAP10 POP POP PUSH1 0x1 DUP2 ADD SWAP1 POP PUSH2 0x16D8 JUMP JUMPDEST POP DUP3 SWAP8 POP DUP8 SWAP6 POP POP POP POP POP POP SWAP3 SWAP2 POP POP JUMP JUMPDEST PUSH0 PUSH1 0x40 DUP3 ADD SWAP1 POP PUSH2 0x1735 PUSH0 DUP4 ADD DUP6 PUSH2 0x136E JUMP JUMPDEST DUP2 DUP2 SUB PUSH1 0x20 DUP4 ADD MSTORE PUSH2 0x1747 DUP2 DUP5 PUSH2 0x16AF JUMP JUMPDEST SWAP1 POP SWAP4 SWAP3 POP POP POP JUMP JUMPDEST PUSH0 DUP1 PUSH0 DUP1 PUSH1 0x80 DUP6 DUP8 SUB SLT ISZERO PUSH2 0x1768 JUMPI PUSH2 0x1767 PUSH2 0x1298 JUMP JUMPDEST JUMPDEST PUSH0 DUP6 ADD CALLDATALOAD PUSH8 0xFFFFFFFFFFFFFFFF DUP2 GT ISZERO PUSH2 0x1785 JUMPI PUSH2 0x1784 PUSH2 0x129C JUMP JUMPDEST JUMPDEST PUSH2 0x1791 DUP8 DUP3 DUP9 ADD PUSH2 0x1502 JUMP JUMPDEST SWAP5 POP POP PUSH1 0x20 PUSH2 0x17A2 DUP8 DUP3 DUP9 ADD PUSH2 0x12BF JUMP JUMPDEST SWAP4 POP POP PUSH1 0x40 PUSH2 0x17B3 DUP8 DUP3 DUP9 ADD PUSH2 0x12BF JUMP JUMPDEST SWAP3 POP POP PUSH1 0x60 DUP6 ADD CALLDATALOAD PUSH8 0xFFFFFFFFFFFFFFFF DUP2 GT ISZERO PUSH2 0x17D4 JUMPI PUSH2 0x17D3 PUSH2 0x129C JUMP JUMPDEST JUMPDEST PUSH2 0x17E0 DUP8 DUP3 DUP9 ADD PUSH2 0x1502 JUMP JUMPDEST SWAP2 POP POP SWAP3 SWAP6 SWAP2 SWAP5 POP SWAP3 POP JUMP JUMPDEST PUSH0 DUP2 ISZERO ISZERO SWAP1 POP SWAP2 SWAP1 POP JUMP JUMPDEST PUSH2 0x1800 DUP2 PUSH2 0x17EC JUMP JUMPDEST DUP3 MSTORE POP POP JUMP JUMPDEST PUSH0 PUSH1 0x20 DUP3 ADD SWAP1 POP PUSH2 0x1819 PUSH0 DUP4 ADD DUP5 PUSH2 0x17F7 JUMP JUMPDEST SWAP3 SWAP2 POP POP JUMP JUMPDEST PUSH0 PUSH1 0x20 DUP3 ADD SWAP1 POP DUP2 DUP2 SUB PUSH0 DUP4 ADD MSTORE PUSH2 0x1837 DUP2 DUP5 PUSH2 0x16AF JUMP JUMPDEST SWAP1 POP SWAP3 SWAP2 POP POP JUMP JUMPDEST PUSH32 0x4E487B7100000000000000000000000000000000000000000000000000000000 PUSH0 MSTORE PUSH1 0x22 PUSH1 0x4 MSTORE PUSH1 0x24 PUSH0 REVERT JUMPDEST PUSH0 PUSH1 0x2 DUP3 DIV SWAP1 POP PUSH1 0x1 DUP3 AND DUP1 PUSH2 0x1883 JUMPI PUSH1 0x7F DUP3 AND SWAP2 POP JUMPDEST PUSH1 0x20 DUP3 LT DUP2 SUB PUSH2 0x1896 JUMPI PUSH2 0x1895 PUSH2 0x183F JUMP JUMPDEST JUMPDEST POP SWAP2 SWAP1 POP JUMP JUMPDEST PUSH32 0x4E487B7100000000000000000000000000000000000000000000000000000000 PUSH0 MSTORE PUSH1 0x11 PUSH1 0x4 MSTORE PUSH1 0x24 PUSH0 REVERT JUMPDEST PUSH0 PUSH2 0x18D3 DUP3 PUSH2 0x12A0 JUMP JUMPDEST SWAP2 POP PUSH2 0x18DE DUP4 PUSH2 0x12A0 JUMP JUMPDEST SWAP3 POP DUP3 DUP3 SUB SWAP1 POP DUP2 DUP2 GT ISZERO PUSH2 0x18F6 JUMPI PUSH2 0x18F5 PUSH2 0x189C JUMP JUMPDEST JUMPDEST SWAP3 SWAP2 POP POP JUMP JUMPDEST PUSH32 0x4E487B7100000000000000000000000000000000000000000000000000000000 PUSH0 MSTORE PUSH1 0x32 PUSH1 0x4 MSTORE PUSH1 0x24 PUSH0 REVERT JUMPDEST PUSH0 DUP2 SWAP1 POP SWAP3 SWAP2 POP POP JUMP JUMPDEST PUSH0 DUP2 SWAP1 POP DUP2 PUSH0 MSTORE PUSH1 0x20 PUSH0 KECCAK256 SWAP1 POP SWAP2 SWAP1 POP JUMP JUMPDEST PUSH0 DUP2 SLOAD PUSH2 0x1951 DUP2 PUSH2 0x186C JUMP JUMPDEST PUSH2 0x195B DUP2 DUP7 PUSH2 0x1929 JUMP JUMPDEST SWAP5 POP PUSH1 0x1 DUP3 AND PUSH0 DUP2 EQ PUSH2 0x1975 JUMPI PUSH1 0x1 DUP2 EQ PUSH2 0x198A JUMPI PUSH2 0x19BC JUMP JUMPDEST PUSH1 0xFF NOT DUP4 AND DUP7 MSTORE DUP2 ISZERO ISZERO DUP3 MUL DUP7 ADD SWAP4 POP PUSH2 0x19BC JUMP JUMPDEST PUSH2 0x1993 DUP6 PUSH2 0x1933 JUMP JUMPDEST PUSH0 JUMPDEST DUP4 DUP2 LT ISZERO PUSH2 0x19B4 JUMPI DUP2 SLOAD DUP2 DUP10 ADD MSTORE PUSH1 0x1 DUP3 ADD SWAP2 POP PUSH1 0x20 DUP2 ADD SWAP1 POP PUSH2 0x1995 JUMP JUMPDEST DUP4 DUP9 ADD SWAP6 POP POP POP JUMPDEST POP POP POP SWAP3 SWAP2 POP POP JUMP JUMPDEST PUSH0 PUSH2 0x19D0 DUP3 DUP5 PUSH2 0x1945 JUMP JUMPDEST SWAP2 POP DUP2 SWAP1 POP SWAP3 SWAP2 POP POP JUMP JUMPDEST PUSH32 0x53747564656E74206E6F7420666F756E64000000000000000000000000000000 PUSH0 DUP3 ADD MSTORE POP JUMP JUMPDEST PUSH0 PUSH2 0x1A0F PUSH1 0x11 DUP4 PUSH2 0x1308 JUMP JUMPDEST SWAP2 POP PUSH2 0x1A1A DUP3 PUSH2 0x19DB JUMP JUMPDEST PUSH1 0x20 DUP3 ADD SWAP1 POP SWAP2 SWAP1 POP JUMP JUMPDEST PUSH0 PUSH1 0x20 DUP3 ADD SWAP1 POP DUP2 DUP2 SUB PUSH0 DUP4 ADD MSTORE PUSH2 0x1A3C DUP2 PUSH2 0x1A03 JUMP JUMPDEST SWAP1 POP SWAP2 SWAP1 POP JUMP JUMPDEST PUSH0 PUSH2 0x1A4D DUP3 PUSH2 0x12A0 JUMP JUMPDEST SWAP2 POP PUSH2 0x1A58 DUP4 PUSH2 0x12A0 JUMP JUMPDEST SWAP3 POP DUP3 DUP3 ADD SWAP1 POP DUP1 DUP3 GT ISZERO PUSH2 0x1A70 JUMPI PUSH2 0x1A6F PUSH2 0x189C JUMP JUMPDEST JUMPDEST SWAP3 SWAP2 POP POP JUMP JUMPDEST PUSH32 0x4E487B7100000000000000000000000000000000000000000000000000000000 PUSH0 MSTORE PUSH1 0x12 PUSH1 0x4 MSTORE PUSH1 0x24 PUSH0 REVERT JUMPDEST PUSH0 PUSH2 0x1AAD DUP3 PUSH2 0x12A0 JUMP JUMPDEST SWAP2 POP PUSH2 0x1AB8 DUP4 PUSH2 0x12A0 JUMP JUMPDEST SWAP3 POP DUP3 PUSH2 0x1AC8 JUMPI PUSH2 0x1AC7 PUSH2 0x1A76 JUMP JUMPDEST JUMPDEST DUP3 DUP3 DIV SWAP1 POP SWAP3 SWAP2 POP POP JUMP JUMPDEST PUSH0 PUSH2 0x1ADD DUP3 PUSH2 0x12A0 JUMP JUMPDEST SWAP2 POP PUSH32 0xFFFFFFFFFFFFFFFFFFFFFFFFFFFFFFFFFFFFFFFFFFFFFFFFFFFFFFFFFFFFFFFF DUP3 SUB PUSH2 0x1B0F JUMPI PUSH2 0x1B0E PUSH2 0x189C JUMP JUMPDEST JUMPDEST PUSH1 0x1 DUP3 ADD SWAP1 POP SWAP2 SWAP1 POP JUMP JUMPDEST PUSH0 DUP2 SWAP1 POP DUP2 PUSH0 MSTORE PUSH1 0x20 PUSH0 KECCAK256 SWAP1 POP SWAP2 SWAP1 POP JUMP JUMPDEST PUSH0 PUSH1 0x20 PUSH1 0x1F DUP4 ADD DIV SWAP1 POP SWAP2 SWAP1 POP JUMP JUMPDEST PUSH0 DUP3 DUP3 SHL SWAP1 POP SWAP3 SWAP2 POP POP JUMP JUMPDEST PUSH0 PUSH1 0x8 DUP4 MUL PUSH2 0x1B76 PUSH32 0xFFFFFFFFFFFFFFFFFFFFFFFFFFFFFFFFFFFFFFFFFFFFFFFFFFFFFFFFFFFFFFFF DUP3 PUSH2 0x1B3B JUMP JUMPDEST PUSH2 0x1B80 DUP7 DUP4 PUSH2 0x1B3B JUMP JUMPDEST SWAP6 POP DUP1 NOT DUP5 AND SWAP4 POP DUP1 DUP7 AND DUP5 OR SWAP3 POP POP POP SWAP4 SWAP3 POP POP POP JUMP JUMPDEST PUSH0 DUP2 SWAP1 POP SWAP2 SWAP1 POP JUMP JUMPDEST PUSH0 PUSH2 0x1BBB PUSH2 0x1BB6 PUSH2 0x1BB1 DUP5 PUSH2 0x12A0 JUMP JUMPDEST PUSH2 0x1B98 JUMP JUMPDEST PUSH2 0x12A0 JUMP JUMPDEST SWAP1 POP SWAP2 SWAP1 POP JUMP JUMPDEST PUSH0 DUP2 SWAP1 POP SWAP2 SWAP1 POP JUMP JUMPDEST PUSH2 0x1BD4 DUP4 PUSH2 0x1BA1 JUMP JUMPDEST PUSH2 0x1BE8 PUSH2 0x1BE0 DUP3 PUSH2 0x1BC2 JUMP JUMPDEST DUP5 DUP5 SLOAD PUSH2 0x1B47 JUMP JUMPDEST DUP3 SSTORE POP POP POP POP JUMP JUMPDEST PUSH0 SWAP1 JUMP JUMPDEST PUSH2 0x1BFC PUSH2 0x1BF0 JUMP JUMPDEST PUSH2 0x1C07 DUP2 DUP5 DUP5 PUSH2 0x1BCB JUMP JUMPDEST POP POP POP JUMP JUMPDEST JUMPDEST DUP2 DUP2 LT ISZERO PUSH2 0x1C2A JUMPI PUSH2 0x1C1F PUSH0 DUP3 PUSH2 0x1BF4 JUMP JUMPDEST PUSH1 0x1 DUP2 ADD SWAP1 POP PUSH2 0x1C0D JUMP JUMPDEST POP POP JUMP JUMPDEST PUSH1 0x1F DUP3 GT ISZERO PUSH2 0x1C6F JUMPI PUSH2 0x1C40 DUP2 PUSH2 0x1B1A JUMP JUMPDEST PUSH2 0x1C49 DUP5 PUSH2 0x1B2C JUMP JUMPDEST DUP2 ADD PUSH1 0x20 DUP6 LT ISZERO PUSH2 0x1C58 JUMPI DUP2 SWAP1 POP JUMPDEST PUSH2 0x1C6C PUSH2 0x1C64 DUP6 PUSH2 0x1B2C JUMP JUMPDEST DUP4 ADD DUP3 PUSH2 0x1C0C JUMP JUMPDEST POP POP JUMPDEST POP POP POP JUMP JUMPDEST PUSH0 DUP3 DUP3 SHR SWAP1 POP SWAP3 SWAP2 POP POP JUMP JUMPDEST PUSH0 PUSH2 0x1C8F PUSH0 NOT DUP5 PUSH1 0x8 MUL PUSH2 0x1C74 JUMP JUMPDEST NOT DUP1 DUP4 AND SWAP2 POP POP SWAP3 SWAP2 POP POP JUMP JUMPDEST PUSH0 PUSH2 0x1CA7 DUP4 DUP4 PUSH2 0x1C80 JUMP JUMPDEST SWAP2 POP DUP3 PUSH1 0x2 MUL DUP3 OR SWAP1 POP SWAP3 SWAP2 POP POP JUMP JUMPDEST PUSH2 0x1CC0 DUP3 PUSH2 0x12FE JUMP JUMPDEST PUSH8 0xFFFFFFFFFFFFFFFF DUP2 GT ISZERO PUSH2 0x1CD9 JUMPI PUSH2 0x1CD8 PUSH2 0x140B JUMP JUMPDEST JUMPDEST PUSH2 0x1CE3 DUP3 SLOAD PUSH2 0x186C JUMP JUMPDEST PUSH2 0x1CEE DUP3 DUP3 DUP6 PUSH2 0x1C2E JUMP JUMPDEST PUSH0 PUSH1 0x20 SWAP1 POP PUSH1 0x1F DUP4 GT PUSH1 0x1 DUP2 EQ PUSH2 0x1D1F JUMPI PUSH0 DUP5 ISZERO PUSH2 0x1D0D JUMPI DUP3 DUP8 ADD MLOAD SWAP1 POP JUMPDEST PUSH2 0x1D17 DUP6 DUP3 PUSH2 0x1C9C JUMP JUMPDEST DUP7 SSTORE POP PUSH2 0x1D7E JUMP JUMPDEST PUSH1 0x1F NOT DUP5 AND PUSH2 0x1D2D DUP7 PUSH2 0x1B1A JUMP JUMPDEST PUSH0 JUMPDEST DUP3 DUP2 LT ISZERO PUSH2 0x1D54 JUMPI DUP5 DUP10 ADD MLOAD DUP3 SSTORE PUSH1 0x1 DUP3 ADD SWAP2 POP PUSH1 0x20 DUP6 ADD SWAP5 POP PUSH1 0x20 DUP2 ADD SWAP1 POP PUSH2 0x1D2F JUMP JUMPDEST DUP7 DUP4 LT ISZERO PUSH2 0x1D71 JUMPI DUP5 DUP10 ADD MLOAD PUSH2 0x1D6D PUSH1 0x1F DUP10 AND DUP3 PUSH2 0x1C80 JUMP JUMPDEST DUP4 SSTORE POP JUMPDEST PUSH1 0x1 PUSH1 0x2 DUP9 MUL ADD DUP9 SSTORE POP POP POP JUMPDEST POP POP POP POP POP POP JUMP INVALID LOG2 PUSH5 0x6970667358 0x22 SLT KECCAK256 0xB1 AND 0xAB 0xD1 0xE9 0xDC RETURN 0xAA TIMESTAMP PUSH10 0xBD69909892C181DCF042 SDIV 0xE2 EXTCODESIZE PUSH26 0x2725FF0DF0F2CE1F64736F6C634300081A003300000000000000 "
				},
				"gasEstimates": {
					"creation": {
						"codeDepositCost": "1522400",
						"executionCost": "1587",
						"totalCost": "1523987"
					},
					"external": {
						"QualifiedTeacher()": "infinite",
						"addStudent(string,uint256,uint256,string)": "infinite",
						"calculateAverage()": "infinite",
						"calculateGrade(uint256)": "infinite",
						"getAllStudents()": "infinite",
						"getFStudents()": "infinite",
						"getNumberStudents()": "2550",
						"getScoreName(string)": "infinite",
						"getStudentName(string)": "infinite",
						"getStudentNumber(uint256)": "infinite",
						"students(uint256)": "infinite"
					}
				},
				"methodIdentifiers": {
					"QualifiedTeacher()": "c06a93d3",
					"addStudent(string,uint256,uint256,string)": "9ae52f0f",
					"calculateAverage()": "86be4114",
					"calculateGrade(uint256)": "3bf1a7d1",
					"getAllStudents()": "e9e30927",
					"getFStudents()": "98463c74",
					"getNumberStudents()": "fc9b4099",
					"getScoreName(string)": "7676688b",
					"getStudentName(string)": "f317d020",
					"getStudentNumber(uint256)": "6191f364",
					"students(uint256)": "06ead22e"
				}
			},
			"storageLayout": {
				"storage": [
					{
						"astId": 16,
						"contract": "cordingtest/cordingtest1.sol:Test1",
						"label": "students",
						"offset": 0,
						"slot": "0",
						"type": "t_array(t_struct(Student)12_storage)dyn_storage"
					}
				],
				"types": {
					"t_array(t_struct(Student)12_storage)dyn_storage": {
						"base": "t_struct(Student)12_storage",
						"encoding": "dynamic_array",
						"label": "struct Test1.Student[]",
						"numberOfBytes": "32"
					},
					"t_string_storage": {
						"encoding": "bytes",
						"label": "string",
						"numberOfBytes": "32"
					},
					"t_struct(Student)12_storage": {
						"encoding": "inplace",
						"label": "struct Test1.Student",
						"members": [
							{
								"astId": 3,
								"contract": "cordingtest/cordingtest1.sol:Test1",
								"label": "name",
								"offset": 0,
								"slot": "0",
								"type": "t_string_storage"
							},
							{
								"astId": 5,
								"contract": "cordingtest/cordingtest1.sol:Test1",
								"label": "number",
								"offset": 0,
								"slot": "1",
								"type": "t_uint256"
							},
							{
								"astId": 7,
								"contract": "cordingtest/cordingtest1.sol:Test1",
								"label": "score",
								"offset": 0,
								"slot": "2",
								"type": "t_uint256"
							},
							{
								"astId": 9,
								"contract": "cordingtest/cordingtest1.sol:Test1",
								"label": "grade",
								"offset": 0,
								"slot": "3",
								"type": "t_string_storage"
							},
							{
								"astId": 11,
								"contract": "cordingtest/cordingtest1.sol:Test1",
								"label": "class",
								"offset": 0,
								"slot": "4",
								"type": "t_string_storage"
							}
						],
						"numberOfBytes": "160"
					},
					"t_uint256": {
						"encoding": "inplace",
						"label": "uint256",
						"numberOfBytes": "32"
					}
				}
			},
			"userdoc": {
				"kind": "user",
				"methods": {},
				"version": 1
			}
		}
	}
}