{
	"cordingtest/cordingtest7.sol": {
		"Test7": {
			"abi": [
				{
					"inputs": [],
					"stateMutability": "nonpayable",
					"type": "constructor"
				},
				{
					"inputs": [],
					"name": "accel",
					"outputs": [],
					"stateMutability": "nonpayable",
					"type": "function"
				},
				{
					"inputs": [],
					"name": "brake",
					"outputs": [],
					"stateMutability": "nonpayable",
					"type": "function"
				},
				{
					"inputs": [],
					"name": "charge",
					"outputs": [],
					"stateMutability": "payable",
					"type": "function"
				},
				{
					"inputs": [],
					"name": "myCar",
					"outputs": [
						{
							"internalType": "uint256",
							"name": "speed",
							"type": "uint256"
						},
						{
							"internalType": "uint256",
							"name": "gas",
							"type": "uint256"
						},
						{
							"internalType": "enum Test7.CarStatus",
							"name": "status",
							"type": "uint8"
						}
					],
					"stateMutability": "view",
					"type": "function"
				},
				{
					"inputs": [],
					"name": "prepaidBalance",
					"outputs": [
						{
							"internalType": "uint256",
							"name": "",
							"type": "uint256"
						}
					],
					"stateMutability": "view",
					"type": "function"
				},
				{
					"inputs": [],
					"name": "prepay",
					"outputs": [],
					"stateMutability": "payable",
					"type": "function"
				},
				{
					"inputs": [],
					"name": "turnOff",
					"outputs": [],
					"stateMutability": "nonpayable",
					"type": "function"
				},
				{
					"inputs": [],
					"name": "turnOn",
					"outputs": [],
					"stateMutability": "nonpayable",
					"type": "function"
				}
			],
			"devdoc": {
				"kind": "dev",
				"methods": {},
				"version": 1
			},
			"evm": {
				"assembly": "    /* \"cordingtest/cordingtest7.sol\":72:2811  contract Test7 {... */\n  mstore(0x40, 0x80)\n    /* \"cordingtest/cordingtest7.sol\":1177:1314  constructor() {... */\n  callvalue\n  dup1\n  iszero\n  tag_1\n  jumpi\n  0x00\n  dup1\n  revert\ntag_1:\n  pop\n    /* \"cordingtest/cordingtest7.sol\":1215:1216  0 */\n  0x00\n    /* \"cordingtest/cordingtest7.sol\":1201:1206  myCar */\n  dup1\n    /* \"cordingtest/cordingtest7.sol\":1201:1212  myCar.speed */\n  0x00\n  add\n    /* \"cordingtest/cordingtest7.sol\":1201:1216  myCar.speed = 0 */\n  dup2\n  swap1\n  sstore\n  pop\n    /* \"cordingtest/cordingtest7.sol\":1238:1241  100 */\n  0x64\n    /* \"cordingtest/cordingtest7.sol\":1226:1231  myCar */\n  0x00\n    /* \"cordingtest/cordingtest7.sol\":1226:1235  myCar.gas */\n  0x01\n  add\n    /* \"cordingtest/cordingtest7.sol\":1226:1241  myCar.gas = 100 */\n  dup2\n  swap1\n  sstore\n  pop\n    /* \"cordingtest/cordingtest7.sol\":1266:1279  CarStatus.Off */\n  0x01\n    /* \"cordingtest/cordingtest7.sol\":1251:1256  myCar */\n  0x00\n    /* \"cordingtest/cordingtest7.sol\":1251:1263  myCar.status */\n  0x02\n  add\n  0x00\n    /* \"cordingtest/cordingtest7.sol\":1251:1279  myCar.status = CarStatus.Off */\n  0x0100\n  exp\n  dup2\n  sload\n  dup2\n  0xff\n  mul\n  not\n  and\n  swap1\n  dup4\n  0x02\n  dup2\n  gt\n  iszero\n  tag_4\n  jumpi\n  tag_5\n  tag_6\n  jump\t// in\ntag_5:\ntag_4:\n  mul\n  or\n  swap1\n  sstore\n  pop\n    /* \"cordingtest/cordingtest7.sol\":1306:1307  0 */\n  0x00\n    /* \"cordingtest/cordingtest7.sol\":1289:1303  prepaidBalance */\n  0x03\n    /* \"cordingtest/cordingtest7.sol\":1289:1307  prepaidBalance = 0 */\n  dup2\n  swap1\n  sstore\n  pop\n    /* \"cordingtest/cordingtest7.sol\":72:2811  contract Test7 {... */\n  jump(tag_7)\n    /* \"#utility.yul\":7:187   */\ntag_6:\n    /* \"#utility.yul\":55:132   */\n  0x4e487b7100000000000000000000000000000000000000000000000000000000\n    /* \"#utility.yul\":52:53   */\n  0x00\n    /* \"#utility.yul\":45:133   */\n  mstore\n    /* \"#utility.yul\":152:156   */\n  0x21\n    /* \"#utility.yul\":149:150   */\n  0x04\n    /* \"#utility.yul\":142:157   */\n  mstore\n    /* \"#utility.yul\":176:180   */\n  0x24\n    /* \"#utility.yul\":173:174   */\n  0x00\n    /* \"#utility.yul\":166:181   */\n  revert\n    /* \"cordingtest/cordingtest7.sol\":72:2811  contract Test7 {... */\ntag_7:\n  dataSize(sub_0)\n  dup1\n  dataOffset(sub_0)\n  0x00\n  codecopy\n  0x00\n  return\nstop\n\nsub_0: assembly {\n        /* \"cordingtest/cordingtest7.sol\":72:2811  contract Test7 {... */\n      mstore(0x40, 0x80)\n      jumpi(tag_1, lt(calldatasize, 0x04))\n      shr(0xe0, calldataload(0x00))\n      dup1\n      0x9cdde813\n      gt\n      tag_10\n      jumpi\n      dup1\n      0x9cdde813\n      eq\n      tag_6\n      jumpi\n      dup1\n      0xaf10c810\n      eq\n      tag_7\n      jumpi\n      dup1\n      0xba33ed7d\n      eq\n      tag_8\n      jumpi\n      dup1\n      0xf282df78\n      eq\n      tag_9\n      jumpi\n      jump(tag_1)\n    tag_10:\n      dup1\n      0x34fe1d1e\n      eq\n      tag_2\n      jumpi\n      dup1\n      0x55161913\n      eq\n      tag_3\n      jumpi\n      dup1\n      0x5642e2dc\n      eq\n      tag_4\n      jumpi\n      dup1\n      0x5b04d6b6\n      eq\n      tag_5\n      jumpi\n    tag_1:\n      0x00\n      dup1\n      revert\n        /* \"cordingtest/cordingtest7.sol\":2664:2809  function prepay() public payable {... */\n    tag_2:\n      tag_11\n      tag_12\n      jump\t// in\n    tag_11:\n      stop\n        /* \"cordingtest/cordingtest7.sol\":2365:2658  function charge() public payable {... */\n    tag_3:\n      tag_13\n      tag_14\n      jump\t// in\n    tag_13:\n      stop\n        /* \"cordingtest/cordingtest7.sol\":1601:1969  function brake() public {... */\n    tag_4:\n      callvalue\n      dup1\n      iszero\n      tag_15\n      jumpi\n      0x00\n      dup1\n      revert\n    tag_15:\n      pop\n      tag_16\n      tag_17\n      jump\t// in\n    tag_16:\n      stop\n        /* \"cordingtest/cordingtest7.sol\":1144:1170  uint public prepaidBalance */\n    tag_5:\n      callvalue\n      dup1\n      iszero\n      tag_18\n      jumpi\n      0x00\n      dup1\n      revert\n    tag_18:\n      pop\n      tag_19\n      tag_20\n      jump\t// in\n    tag_19:\n      mload(0x40)\n      tag_21\n      swap2\n      swap1\n      tag_22\n      jump\t// in\n    tag_21:\n      mload(0x40)\n      dup1\n      swap2\n      sub\n      swap1\n      return\n        /* \"cordingtest/cordingtest7.sol\":1122:1138  Car public myCar */\n    tag_6:\n      callvalue\n      dup1\n      iszero\n      tag_23\n      jumpi\n      0x00\n      dup1\n      revert\n    tag_23:\n      pop\n      tag_24\n      tag_25\n      jump\t// in\n    tag_24:\n      mload(0x40)\n      tag_26\n      swap4\n      swap3\n      swap2\n      swap1\n      tag_27\n      jump\t// in\n    tag_26:\n      mload(0x40)\n      dup1\n      swap2\n      sub\n      swap1\n      return\n        /* \"cordingtest/cordingtest7.sol\":2184:2359  function turnOff() public {... */\n    tag_7:\n      callvalue\n      dup1\n      iszero\n      tag_28\n      jumpi\n      0x00\n      dup1\n      revert\n    tag_28:\n      pop\n      tag_29\n      tag_30\n      jump\t// in\n    tag_29:\n      stop\n        /* \"cordingtest/cordingtest7.sol\":1975:2178  function turnOn() public {... */\n    tag_8:\n      callvalue\n      dup1\n      iszero\n      tag_31\n      jumpi\n      0x00\n      dup1\n      revert\n    tag_31:\n      pop\n      tag_32\n      tag_33\n      jump\t// in\n    tag_32:\n      stop\n        /* \"cordingtest/cordingtest7.sol\":1321:1595  function accel() public {... */\n    tag_9:\n      callvalue\n      dup1\n      iszero\n      tag_34\n      jumpi\n      0x00\n      dup1\n      revert\n    tag_34:\n      pop\n      tag_35\n      tag_36\n      jump\t// in\n    tag_35:\n      stop\n        /* \"cordingtest/cordingtest7.sol\":2664:2809  function prepay() public payable {... */\n    tag_12:\n        /* \"cordingtest/cordingtest7.sol\":2727:2728  0 */\n      0x00\n        /* \"cordingtest/cordingtest7.sol\":2715:2724  msg.value */\n      callvalue\n        /* \"cordingtest/cordingtest7.sol\":2715:2728  msg.value > 0 */\n      gt\n        /* \"cordingtest/cordingtest7.sol\":2707:2764  require(msg.value > 0, \"Payment must be greater than 0.\") */\n      tag_38\n      jumpi\n      mload(0x40)\n      0x08c379a000000000000000000000000000000000000000000000000000000000\n      dup2\n      mstore\n      0x04\n      add\n      tag_39\n      swap1\n      tag_40\n      jump\t// in\n    tag_39:\n      mload(0x40)\n      dup1\n      swap2\n      sub\n      swap1\n      revert\n    tag_38:\n        /* \"cordingtest/cordingtest7.sol\":2793:2802  msg.value */\n      callvalue\n        /* \"cordingtest/cordingtest7.sol\":2775:2789  prepaidBalance */\n      0x03\n      0x00\n        /* \"cordingtest/cordingtest7.sol\":2775:2802  prepaidBalance += msg.value */\n      dup3\n      dup3\n      sload\n      tag_41\n      swap2\n      swap1\n      tag_42\n      jump\t// in\n    tag_41:\n      swap3\n      pop\n      pop\n      dup2\n      swap1\n      sstore\n      pop\n        /* \"cordingtest/cordingtest7.sol\":2664:2809  function prepay() public payable {... */\n      jump\t// out\n        /* \"cordingtest/cordingtest7.sol\":2365:2658  function charge() public payable {... */\n    tag_14:\n        /* \"cordingtest/cordingtest7.sol\":2425:2432  1 ether */\n      0x0de0b6b3a7640000\n        /* \"cordingtest/cordingtest7.sol\":2412:2421  msg.value */\n      callvalue\n        /* \"cordingtest/cordingtest7.sol\":2412:2432  msg.value == 1 ether */\n      sub\n        /* \"cordingtest/cordingtest7.sol\":2408:2652  if (msg.value == 1 ether) {... */\n      tag_44\n      jumpi\n        /* \"cordingtest/cordingtest7.sol\":2460:2463  100 */\n      0x64\n        /* \"cordingtest/cordingtest7.sol\":2448:2453  myCar */\n      0x00\n        /* \"cordingtest/cordingtest7.sol\":2448:2457  myCar.gas */\n      0x01\n      add\n        /* \"cordingtest/cordingtest7.sol\":2448:2463  myCar.gas = 100 */\n      dup2\n      swap1\n      sstore\n      pop\n        /* \"cordingtest/cordingtest7.sol\":2408:2652  if (msg.value == 1 ether) {... */\n      jump(tag_45)\n    tag_44:\n        /* \"cordingtest/cordingtest7.sol\":2502:2509  1 ether */\n      0x0de0b6b3a7640000\n        /* \"cordingtest/cordingtest7.sol\":2484:2498  prepaidBalance */\n      sload(0x03)\n        /* \"cordingtest/cordingtest7.sol\":2484:2509  prepaidBalance >= 1 ether */\n      lt\n        /* \"cordingtest/cordingtest7.sol\":2480:2652  if (prepaidBalance >= 1 ether) {... */\n      tag_46\n      jumpi\n        /* \"cordingtest/cordingtest7.sol\":2543:2550  1 ether */\n      0x0de0b6b3a7640000\n        /* \"cordingtest/cordingtest7.sol\":2525:2539  prepaidBalance */\n      0x03\n      0x00\n        /* \"cordingtest/cordingtest7.sol\":2525:2550  prepaidBalance -= 1 ether */\n      dup3\n      dup3\n      sload\n      tag_47\n      swap2\n      swap1\n      tag_48\n      jump\t// in\n    tag_47:\n      swap3\n      pop\n      pop\n      dup2\n      swap1\n      sstore\n      pop\n        /* \"cordingtest/cordingtest7.sol\":2576:2579  100 */\n      0x64\n        /* \"cordingtest/cordingtest7.sol\":2564:2569  myCar */\n      0x00\n        /* \"cordingtest/cordingtest7.sol\":2564:2573  myCar.gas */\n      0x01\n      add\n        /* \"cordingtest/cordingtest7.sol\":2564:2579  myCar.gas = 100 */\n      dup2\n      swap1\n      sstore\n      pop\n        /* \"cordingtest/cordingtest7.sol\":2480:2652  if (prepaidBalance >= 1 ether) {... */\n      jump(tag_49)\n    tag_46:\n        /* \"cordingtest/cordingtest7.sol\":2610:2641  revert(\"Insufficient payment.\") */\n      mload(0x40)\n      0x08c379a000000000000000000000000000000000000000000000000000000000\n      dup2\n      mstore\n      0x04\n      add\n      tag_50\n      swap1\n      tag_51\n      jump\t// in\n    tag_50:\n      mload(0x40)\n      dup1\n      swap2\n      sub\n      swap1\n      revert\n        /* \"cordingtest/cordingtest7.sol\":2480:2652  if (prepaidBalance >= 1 ether) {... */\n    tag_49:\n        /* \"cordingtest/cordingtest7.sol\":2408:2652  if (msg.value == 1 ether) {... */\n    tag_45:\n        /* \"cordingtest/cordingtest7.sol\":2365:2658  function charge() public payable {... */\n      jump\t// out\n        /* \"cordingtest/cordingtest7.sol\":1601:1969  function brake() public {... */\n    tag_17:\n        /* \"cordingtest/cordingtest7.sol\":1659:1676  CarStatus.Driving */\n      0x02\n        /* \"cordingtest/cordingtest7.sol\":1643:1676  myCar.status == CarStatus.Driving */\n      dup1\n      dup2\n      gt\n      iszero\n      tag_53\n      jumpi\n      tag_54\n      tag_55\n      jump\t// in\n    tag_54:\n    tag_53:\n        /* \"cordingtest/cordingtest7.sol\":1643:1648  myCar */\n      0x00\n        /* \"cordingtest/cordingtest7.sol\":1643:1655  myCar.status */\n      0x02\n      add\n      0x00\n      swap1\n      sload\n      swap1\n      0x0100\n      exp\n      swap1\n      div\n      0xff\n      and\n        /* \"cordingtest/cordingtest7.sol\":1643:1676  myCar.status == CarStatus.Driving */\n      0x02\n      dup2\n      gt\n      iszero\n      tag_56\n      jumpi\n      tag_57\n      tag_55\n      jump\t// in\n    tag_57:\n    tag_56:\n      eq\n        /* \"cordingtest/cordingtest7.sol\":1635:1705  require(myCar.status == CarStatus.Driving, \"The car must be driving.\") */\n      tag_58\n      jumpi\n      mload(0x40)\n      0x08c379a000000000000000000000000000000000000000000000000000000000\n      dup2\n      mstore\n      0x04\n      add\n      tag_59\n      swap1\n      tag_60\n      jump\t// in\n    tag_59:\n      mload(0x40)\n      dup1\n      swap2\n      sub\n      swap1\n      revert\n    tag_58:\n        /* \"cordingtest/cordingtest7.sol\":1737:1738  0 */\n      0x00\n        /* \"cordingtest/cordingtest7.sol\":1723:1728  myCar */\n      dup1\n        /* \"cordingtest/cordingtest7.sol\":1723:1734  myCar.speed */\n      0x00\n      add\n      sload\n        /* \"cordingtest/cordingtest7.sol\":1723:1738  myCar.speed > 0 */\n      gt\n        /* \"cordingtest/cordingtest7.sol\":1715:1770  require(myCar.speed > 0, \"The car is already stopped.\") */\n      tag_61\n      jumpi\n      mload(0x40)\n      0x08c379a000000000000000000000000000000000000000000000000000000000\n      dup2\n      mstore\n      0x04\n      add\n      tag_62\n      swap1\n      tag_63\n      jump\t// in\n    tag_62:\n      mload(0x40)\n      dup1\n      swap2\n      sub\n      swap1\n      revert\n    tag_61:\n        /* \"cordingtest/cordingtest7.sol\":1799:1801  10 */\n      0x0a\n        /* \"cordingtest/cordingtest7.sol\":1785:1790  myCar */\n      0x00\n        /* \"cordingtest/cordingtest7.sol\":1785:1796  myCar.speed */\n      dup1\n      add\n      sload\n        /* \"cordingtest/cordingtest7.sol\":1785:1801  myCar.speed < 10 */\n      lt\n        /* \"cordingtest/cordingtest7.sol\":1781:1938  if (myCar.speed < 10) {... */\n      iszero\n      tag_64\n      jumpi\n        /* \"cordingtest/cordingtest7.sol\":1831:1832  0 */\n      0x00\n        /* \"cordingtest/cordingtest7.sol\":1817:1822  myCar */\n      dup1\n        /* \"cordingtest/cordingtest7.sol\":1817:1828  myCar.speed */\n      0x00\n      add\n        /* \"cordingtest/cordingtest7.sol\":1817:1832  myCar.speed = 0 */\n      dup2\n      swap1\n      sstore\n      pop\n        /* \"cordingtest/cordingtest7.sol\":1861:1878  CarStatus.Stopped */\n      0x00\n        /* \"cordingtest/cordingtest7.sol\":1846:1851  myCar */\n      dup1\n        /* \"cordingtest/cordingtest7.sol\":1846:1858  myCar.status */\n      0x02\n      add\n      0x00\n        /* \"cordingtest/cordingtest7.sol\":1846:1878  myCar.status = CarStatus.Stopped */\n      0x0100\n      exp\n      dup2\n      sload\n      dup2\n      0xff\n      mul\n      not\n      and\n      swap1\n      dup4\n      0x02\n      dup2\n      gt\n      iszero\n      tag_65\n      jumpi\n      tag_66\n      tag_55\n      jump\t// in\n    tag_66:\n    tag_65:\n      mul\n      or\n      swap1\n      sstore\n      pop\n        /* \"cordingtest/cordingtest7.sol\":1781:1938  if (myCar.speed < 10) {... */\n      jump(tag_67)\n    tag_64:\n        /* \"cordingtest/cordingtest7.sol\":1925:1927  10 */\n      0x0a\n        /* \"cordingtest/cordingtest7.sol\":1910:1915  myCar */\n      0x00\n        /* \"cordingtest/cordingtest7.sol\":1910:1921  myCar.speed */\n      dup1\n      add\n      0x00\n        /* \"cordingtest/cordingtest7.sol\":1910:1927  myCar.speed -= 10 */\n      dup3\n      dup3\n      sload\n      tag_68\n      swap2\n      swap1\n      tag_48\n      jump\t// in\n    tag_68:\n      swap3\n      pop\n      pop\n      dup2\n      swap1\n      sstore\n      pop\n        /* \"cordingtest/cordingtest7.sol\":1781:1938  if (myCar.speed < 10) {... */\n    tag_67:\n        /* \"cordingtest/cordingtest7.sol\":1960:1962  10 */\n      0x0a\n        /* \"cordingtest/cordingtest7.sol\":1947:1952  myCar */\n      0x00\n        /* \"cordingtest/cordingtest7.sol\":1947:1956  myCar.gas */\n      0x01\n      add\n      0x00\n        /* \"cordingtest/cordingtest7.sol\":1947:1962  myCar.gas -= 10 */\n      dup3\n      dup3\n      sload\n      tag_69\n      swap2\n      swap1\n      tag_48\n      jump\t// in\n    tag_69:\n      swap3\n      pop\n      pop\n      dup2\n      swap1\n      sstore\n      pop\n        /* \"cordingtest/cordingtest7.sol\":1601:1969  function brake() public {... */\n      jump\t// out\n        /* \"cordingtest/cordingtest7.sol\":1144:1170  uint public prepaidBalance */\n    tag_20:\n      sload(0x03)\n      dup2\n      jump\t// out\n        /* \"cordingtest/cordingtest7.sol\":1122:1138  Car public myCar */\n    tag_25:\n      0x00\n      dup1\n      0x00\n      add\n      sload\n      swap1\n      dup1\n      0x01\n      add\n      sload\n      swap1\n      dup1\n      0x02\n      add\n      0x00\n      swap1\n      sload\n      swap1\n      0x0100\n      exp\n      swap1\n      div\n      0xff\n      and\n      swap1\n      pop\n      dup4\n      jump\t// out\n        /* \"cordingtest/cordingtest7.sol\":2184:2359  function turnOff() public {... */\n    tag_30:\n        /* \"cordingtest/cordingtest7.sol\":2244:2261  CarStatus.Stopped */\n      0x00\n        /* \"cordingtest/cordingtest7.sol\":2228:2261  myCar.status == CarStatus.Stopped */\n      0x02\n      dup2\n      gt\n      iszero\n      tag_71\n      jumpi\n      tag_72\n      tag_55\n      jump\t// in\n    tag_72:\n    tag_71:\n        /* \"cordingtest/cordingtest7.sol\":2228:2233  myCar */\n      0x00\n        /* \"cordingtest/cordingtest7.sol\":2228:2240  myCar.status */\n      0x02\n      add\n      0x00\n      swap1\n      sload\n      swap1\n      0x0100\n      exp\n      swap1\n      div\n      0xff\n      and\n        /* \"cordingtest/cordingtest7.sol\":2228:2261  myCar.status == CarStatus.Stopped */\n      0x02\n      dup2\n      gt\n      iszero\n      tag_73\n      jumpi\n      tag_74\n      tag_55\n      jump\t// in\n    tag_74:\n    tag_73:\n      eq\n        /* \"cordingtest/cordingtest7.sol\":2220:2313  require(myCar.status == CarStatus.Stopped, \"The car must be stopped to turn off the engine.\") */\n      tag_75\n      jumpi\n      mload(0x40)\n      0x08c379a000000000000000000000000000000000000000000000000000000000\n      dup2\n      mstore\n      0x04\n      add\n      tag_76\n      swap1\n      tag_77\n      jump\t// in\n    tag_76:\n      mload(0x40)\n      dup1\n      swap2\n      sub\n      swap1\n      revert\n    tag_75:\n        /* \"cordingtest/cordingtest7.sol\":2339:2352  CarStatus.Off */\n      0x01\n        /* \"cordingtest/cordingtest7.sol\":2324:2329  myCar */\n      0x00\n        /* \"cordingtest/cordingtest7.sol\":2324:2336  myCar.status */\n      0x02\n      add\n      0x00\n        /* \"cordingtest/cordingtest7.sol\":2324:2352  myCar.status = CarStatus.Off */\n      0x0100\n      exp\n      dup2\n      sload\n      dup2\n      0xff\n      mul\n      not\n      and\n      swap1\n      dup4\n      0x02\n      dup2\n      gt\n      iszero\n      tag_78\n      jumpi\n      tag_79\n      tag_55\n      jump\t// in\n    tag_79:\n    tag_78:\n      mul\n      or\n      swap1\n      sstore\n      pop\n        /* \"cordingtest/cordingtest7.sol\":2184:2359  function turnOff() public {... */\n      jump\t// out\n        /* \"cordingtest/cordingtest7.sol\":1975:2178  function turnOn() public {... */\n    tag_33:\n        /* \"cordingtest/cordingtest7.sol\":2034:2051  CarStatus.Stopped */\n      0x00\n        /* \"cordingtest/cordingtest7.sol\":2018:2051  myCar.status == CarStatus.Stopped */\n      0x02\n      dup2\n      gt\n      iszero\n      tag_81\n      jumpi\n      tag_82\n      tag_55\n      jump\t// in\n    tag_82:\n    tag_81:\n        /* \"cordingtest/cordingtest7.sol\":2018:2023  myCar */\n      0x00\n        /* \"cordingtest/cordingtest7.sol\":2018:2030  myCar.status */\n      0x02\n      add\n      0x00\n      swap1\n      sload\n      swap1\n      0x0100\n      exp\n      swap1\n      div\n      0xff\n      and\n        /* \"cordingtest/cordingtest7.sol\":2018:2051  myCar.status == CarStatus.Stopped */\n      0x02\n      dup2\n      gt\n      iszero\n      tag_83\n      jumpi\n      tag_84\n      tag_55\n      jump\t// in\n    tag_84:\n    tag_83:\n      eq\n        /* \"cordingtest/cordingtest7.sol\":2010:2102  require(myCar.status == CarStatus.Stopped, \"The car must be stopped to turn on the engine.\") */\n      tag_85\n      jumpi\n      mload(0x40)\n      0x08c379a000000000000000000000000000000000000000000000000000000000\n      dup2\n      mstore\n      0x04\n      add\n      tag_86\n      swap1\n      tag_87\n      jump\t// in\n    tag_86:\n      mload(0x40)\n      dup1\n      swap2\n      sub\n      swap1\n      revert\n    tag_85:\n        /* \"cordingtest/cordingtest7.sol\":2128:2145  CarStatus.Driving */\n      0x02\n        /* \"cordingtest/cordingtest7.sol\":2113:2118  myCar */\n      0x00\n        /* \"cordingtest/cordingtest7.sol\":2113:2125  myCar.status */\n      0x02\n      add\n      0x00\n        /* \"cordingtest/cordingtest7.sol\":2113:2145  myCar.status = CarStatus.Driving */\n      0x0100\n      exp\n      dup2\n      sload\n      dup2\n      0xff\n      mul\n      not\n      and\n      swap1\n      dup4\n      0x02\n      dup2\n      gt\n      iszero\n      tag_88\n      jumpi\n      tag_89\n      tag_55\n      jump\t// in\n    tag_89:\n    tag_88:\n      mul\n      or\n      swap1\n      sstore\n      pop\n        /* \"cordingtest/cordingtest7.sol\":2169:2170  0 */\n      0x00\n        /* \"cordingtest/cordingtest7.sol\":2155:2160  myCar */\n      dup1\n        /* \"cordingtest/cordingtest7.sol\":2155:2166  myCar.speed */\n      0x00\n      add\n        /* \"cordingtest/cordingtest7.sol\":2155:2170  myCar.speed = 0 */\n      dup2\n      swap1\n      sstore\n      pop\n        /* \"cordingtest/cordingtest7.sol\":1975:2178  function turnOn() public {... */\n      jump\t// out\n        /* \"cordingtest/cordingtest7.sol\":1321:1595  function accel() public {... */\n    tag_36:\n        /* \"cordingtest/cordingtest7.sol\":1379:1396  CarStatus.Driving */\n      0x02\n        /* \"cordingtest/cordingtest7.sol\":1363:1396  myCar.status == CarStatus.Driving */\n      dup1\n      dup2\n      gt\n      iszero\n      tag_91\n      jumpi\n      tag_92\n      tag_55\n      jump\t// in\n    tag_92:\n    tag_91:\n        /* \"cordingtest/cordingtest7.sol\":1363:1368  myCar */\n      0x00\n        /* \"cordingtest/cordingtest7.sol\":1363:1375  myCar.status */\n      0x02\n      add\n      0x00\n      swap1\n      sload\n      swap1\n      0x0100\n      exp\n      swap1\n      div\n      0xff\n      and\n        /* \"cordingtest/cordingtest7.sol\":1363:1396  myCar.status == CarStatus.Driving */\n      0x02\n      dup2\n      gt\n      iszero\n      tag_93\n      jumpi\n      tag_94\n      tag_55\n      jump\t// in\n    tag_94:\n    tag_93:\n      eq\n        /* \"cordingtest/cordingtest7.sol\":1355:1425  require(myCar.status == CarStatus.Driving, \"The car must be driving.\") */\n      tag_95\n      jumpi\n      mload(0x40)\n      0x08c379a000000000000000000000000000000000000000000000000000000000\n      dup2\n      mstore\n      0x04\n      add\n      tag_96\n      swap1\n      tag_60\n      jump\t// in\n    tag_96:\n      mload(0x40)\n      dup1\n      swap2\n      sub\n      swap1\n      revert\n    tag_95:\n        /* \"cordingtest/cordingtest7.sol\":1455:1457  30 */\n      0x1e\n        /* \"cordingtest/cordingtest7.sol\":1443:1448  myCar */\n      0x00\n        /* \"cordingtest/cordingtest7.sol\":1443:1452  myCar.gas */\n      0x01\n      add\n      sload\n        /* \"cordingtest/cordingtest7.sol\":1443:1457  myCar.gas > 30 */\n      gt\n        /* \"cordingtest/cordingtest7.sol\":1435:1478  require(myCar.gas > 30, \"Not enough fuel.\") */\n      tag_97\n      jumpi\n      mload(0x40)\n      0x08c379a000000000000000000000000000000000000000000000000000000000\n      dup2\n      mstore\n      0x04\n      add\n      tag_98\n      swap1\n      tag_99\n      jump\t// in\n    tag_98:\n      mload(0x40)\n      dup1\n      swap2\n      sub\n      swap1\n      revert\n    tag_97:\n        /* \"cordingtest/cordingtest7.sol\":1510:1512  70 */\n      0x46\n        /* \"cordingtest/cordingtest7.sol\":1496:1501  myCar */\n      0x00\n        /* \"cordingtest/cordingtest7.sol\":1496:1507  myCar.speed */\n      dup1\n      add\n      sload\n        /* \"cordingtest/cordingtest7.sol\":1496:1512  myCar.speed < 70 */\n      lt\n        /* \"cordingtest/cordingtest7.sol\":1488:1535  require(myCar.speed < 70, \"Speed is too high.\") */\n      tag_100\n      jumpi\n      mload(0x40)\n      0x08c379a000000000000000000000000000000000000000000000000000000000\n      dup2\n      mstore\n      0x04\n      add\n      tag_101\n      swap1\n      tag_102\n      jump\t// in\n    tag_101:\n      mload(0x40)\n      dup1\n      swap2\n      sub\n      swap1\n      revert\n    tag_100:\n        /* \"cordingtest/cordingtest7.sol\":1561:1563  10 */\n      0x0a\n        /* \"cordingtest/cordingtest7.sol\":1546:1551  myCar */\n      0x00\n        /* \"cordingtest/cordingtest7.sol\":1546:1557  myCar.speed */\n      dup1\n      add\n      0x00\n        /* \"cordingtest/cordingtest7.sol\":1546:1563  myCar.speed += 10 */\n      dup3\n      dup3\n      sload\n      tag_103\n      swap2\n      swap1\n      tag_42\n      jump\t// in\n    tag_103:\n      swap3\n      pop\n      pop\n      dup2\n      swap1\n      sstore\n      pop\n        /* \"cordingtest/cordingtest7.sol\":1586:1588  20 */\n      0x14\n        /* \"cordingtest/cordingtest7.sol\":1573:1578  myCar */\n      0x00\n        /* \"cordingtest/cordingtest7.sol\":1573:1582  myCar.gas */\n      0x01\n      add\n      0x00\n        /* \"cordingtest/cordingtest7.sol\":1573:1588  myCar.gas -= 20 */\n      dup3\n      dup3\n      sload\n      tag_104\n      swap2\n      swap1\n      tag_48\n      jump\t// in\n    tag_104:\n      swap3\n      pop\n      pop\n      dup2\n      swap1\n      sstore\n      pop\n        /* \"cordingtest/cordingtest7.sol\":1321:1595  function accel() public {... */\n      jump\t// out\n        /* \"#utility.yul\":7:84   */\n    tag_105:\n        /* \"#utility.yul\":44:51   */\n      0x00\n        /* \"#utility.yul\":73:78   */\n      dup2\n        /* \"#utility.yul\":62:78   */\n      swap1\n      pop\n        /* \"#utility.yul\":7:84   */\n      swap2\n      swap1\n      pop\n      jump\t// out\n        /* \"#utility.yul\":90:208   */\n    tag_106:\n        /* \"#utility.yul\":177:201   */\n      tag_132\n        /* \"#utility.yul\":195:200   */\n      dup2\n        /* \"#utility.yul\":177:201   */\n      tag_105\n      jump\t// in\n    tag_132:\n        /* \"#utility.yul\":172:175   */\n      dup3\n        /* \"#utility.yul\":165:202   */\n      mstore\n        /* \"#utility.yul\":90:208   */\n      pop\n      pop\n      jump\t// out\n        /* \"#utility.yul\":214:436   */\n    tag_22:\n        /* \"#utility.yul\":307:311   */\n      0x00\n        /* \"#utility.yul\":345:347   */\n      0x20\n        /* \"#utility.yul\":334:343   */\n      dup3\n        /* \"#utility.yul\":330:348   */\n      add\n        /* \"#utility.yul\":322:348   */\n      swap1\n      pop\n        /* \"#utility.yul\":358:429   */\n      tag_134\n        /* \"#utility.yul\":426:427   */\n      0x00\n        /* \"#utility.yul\":415:424   */\n      dup4\n        /* \"#utility.yul\":411:428   */\n      add\n        /* \"#utility.yul\":402:408   */\n      dup5\n        /* \"#utility.yul\":358:429   */\n      tag_106\n      jump\t// in\n    tag_134:\n        /* \"#utility.yul\":214:436   */\n      swap3\n      swap2\n      pop\n      pop\n      jump\t// out\n        /* \"#utility.yul\":442:622   */\n    tag_55:\n        /* \"#utility.yul\":490:567   */\n      0x4e487b7100000000000000000000000000000000000000000000000000000000\n        /* \"#utility.yul\":487:488   */\n      0x00\n        /* \"#utility.yul\":480:568   */\n      mstore\n        /* \"#utility.yul\":587:591   */\n      0x21\n        /* \"#utility.yul\":584:585   */\n      0x04\n        /* \"#utility.yul\":577:592   */\n      mstore\n        /* \"#utility.yul\":611:615   */\n      0x24\n        /* \"#utility.yul\":608:609   */\n      0x00\n        /* \"#utility.yul\":601:616   */\n      revert\n        /* \"#utility.yul\":628:744   */\n    tag_107:\n        /* \"#utility.yul\":712:713   */\n      0x03\n        /* \"#utility.yul\":705:710   */\n      dup2\n        /* \"#utility.yul\":702:714   */\n      lt\n        /* \"#utility.yul\":692:738   */\n      tag_137\n      jumpi\n        /* \"#utility.yul\":718:736   */\n      tag_138\n      tag_55\n      jump\t// in\n    tag_138:\n        /* \"#utility.yul\":692:738   */\n    tag_137:\n        /* \"#utility.yul\":628:744   */\n      pop\n      jump\t// out\n        /* \"#utility.yul\":750:883   */\n    tag_108:\n        /* \"#utility.yul\":798:805   */\n      0x00\n        /* \"#utility.yul\":827:832   */\n      dup2\n        /* \"#utility.yul\":816:832   */\n      swap1\n      pop\n        /* \"#utility.yul\":833:877   */\n      tag_140\n        /* \"#utility.yul\":871:876   */\n      dup3\n        /* \"#utility.yul\":833:877   */\n      tag_107\n      jump\t// in\n    tag_140:\n        /* \"#utility.yul\":750:883   */\n      swap2\n      swap1\n      pop\n      jump\t// out\n        /* \"#utility.yul\":889:1022   */\n    tag_109:\n        /* \"#utility.yul\":948:957   */\n      0x00\n        /* \"#utility.yul\":981:1016   */\n      tag_142\n        /* \"#utility.yul\":1010:1015   */\n      dup3\n        /* \"#utility.yul\":981:1016   */\n      tag_108\n      jump\t// in\n    tag_142:\n        /* \"#utility.yul\":968:1016   */\n      swap1\n      pop\n        /* \"#utility.yul\":889:1022   */\n      swap2\n      swap1\n      pop\n      jump\t// out\n        /* \"#utility.yul\":1028:1177   */\n    tag_110:\n        /* \"#utility.yul\":1124:1170   */\n      tag_144\n        /* \"#utility.yul\":1164:1169   */\n      dup2\n        /* \"#utility.yul\":1124:1170   */\n      tag_109\n      jump\t// in\n    tag_144:\n        /* \"#utility.yul\":1119:1122   */\n      dup3\n        /* \"#utility.yul\":1112:1171   */\n      mstore\n        /* \"#utility.yul\":1028:1177   */\n      pop\n      pop\n      jump\t// out\n        /* \"#utility.yul\":1183:1643   */\n    tag_27:\n        /* \"#utility.yul\":1341:1345   */\n      0x00\n        /* \"#utility.yul\":1379:1381   */\n      0x60\n        /* \"#utility.yul\":1368:1377   */\n      dup3\n        /* \"#utility.yul\":1364:1382   */\n      add\n        /* \"#utility.yul\":1356:1382   */\n      swap1\n      pop\n        /* \"#utility.yul\":1392:1463   */\n      tag_146\n        /* \"#utility.yul\":1460:1461   */\n      0x00\n        /* \"#utility.yul\":1449:1458   */\n      dup4\n        /* \"#utility.yul\":1445:1462   */\n      add\n        /* \"#utility.yul\":1436:1442   */\n      dup7\n        /* \"#utility.yul\":1392:1463   */\n      tag_106\n      jump\t// in\n    tag_146:\n        /* \"#utility.yul\":1473:1545   */\n      tag_147\n        /* \"#utility.yul\":1541:1543   */\n      0x20\n        /* \"#utility.yul\":1530:1539   */\n      dup4\n        /* \"#utility.yul\":1526:1544   */\n      add\n        /* \"#utility.yul\":1517:1523   */\n      dup6\n        /* \"#utility.yul\":1473:1545   */\n      tag_106\n      jump\t// in\n    tag_147:\n        /* \"#utility.yul\":1555:1636   */\n      tag_148\n        /* \"#utility.yul\":1632:1634   */\n      0x40\n        /* \"#utility.yul\":1621:1630   */\n      dup4\n        /* \"#utility.yul\":1617:1635   */\n      add\n        /* \"#utility.yul\":1608:1614   */\n      dup5\n        /* \"#utility.yul\":1555:1636   */\n      tag_110\n      jump\t// in\n    tag_148:\n        /* \"#utility.yul\":1183:1643   */\n      swap5\n      swap4\n      pop\n      pop\n      pop\n      pop\n      jump\t// out\n        /* \"#utility.yul\":1649:1818   */\n    tag_111:\n        /* \"#utility.yul\":1733:1744   */\n      0x00\n        /* \"#utility.yul\":1767:1773   */\n      dup3\n        /* \"#utility.yul\":1762:1765   */\n      dup3\n        /* \"#utility.yul\":1755:1774   */\n      mstore\n        /* \"#utility.yul\":1807:1811   */\n      0x20\n        /* \"#utility.yul\":1802:1805   */\n      dup3\n        /* \"#utility.yul\":1798:1812   */\n      add\n        /* \"#utility.yul\":1783:1812   */\n      swap1\n      pop\n        /* \"#utility.yul\":1649:1818   */\n      swap3\n      swap2\n      pop\n      pop\n      jump\t// out\n        /* \"#utility.yul\":1824:2005   */\n    tag_112:\n        /* \"#utility.yul\":1964:1997   */\n      0x5061796d656e74206d7573742062652067726561746572207468616e20302e00\n        /* \"#utility.yul\":1960:1961   */\n      0x00\n        /* \"#utility.yul\":1952:1958   */\n      dup3\n        /* \"#utility.yul\":1948:1962   */\n      add\n        /* \"#utility.yul\":1941:1998   */\n      mstore\n        /* \"#utility.yul\":1824:2005   */\n      pop\n      jump\t// out\n        /* \"#utility.yul\":2011:2377   */\n    tag_113:\n        /* \"#utility.yul\":2153:2156   */\n      0x00\n        /* \"#utility.yul\":2174:2241   */\n      tag_152\n        /* \"#utility.yul\":2238:2240   */\n      0x1f\n        /* \"#utility.yul\":2233:2236   */\n      dup4\n        /* \"#utility.yul\":2174:2241   */\n      tag_111\n      jump\t// in\n    tag_152:\n        /* \"#utility.yul\":2167:2241   */\n      swap2\n      pop\n        /* \"#utility.yul\":2250:2343   */\n      tag_153\n        /* \"#utility.yul\":2339:2342   */\n      dup3\n        /* \"#utility.yul\":2250:2343   */\n      tag_112\n      jump\t// in\n    tag_153:\n        /* \"#utility.yul\":2368:2370   */\n      0x20\n        /* \"#utility.yul\":2363:2366   */\n      dup3\n        /* \"#utility.yul\":2359:2371   */\n      add\n        /* \"#utility.yul\":2352:2371   */\n      swap1\n      pop\n        /* \"#utility.yul\":2011:2377   */\n      swap2\n      swap1\n      pop\n      jump\t// out\n        /* \"#utility.yul\":2383:2802   */\n    tag_40:\n        /* \"#utility.yul\":2549:2553   */\n      0x00\n        /* \"#utility.yul\":2587:2589   */\n      0x20\n        /* \"#utility.yul\":2576:2585   */\n      dup3\n        /* \"#utility.yul\":2572:2590   */\n      add\n        /* \"#utility.yul\":2564:2590   */\n      swap1\n      pop\n        /* \"#utility.yul\":2636:2645   */\n      dup2\n        /* \"#utility.yul\":2630:2634   */\n      dup2\n        /* \"#utility.yul\":2626:2646   */\n      sub\n        /* \"#utility.yul\":2622:2623   */\n      0x00\n        /* \"#utility.yul\":2611:2620   */\n      dup4\n        /* \"#utility.yul\":2607:2624   */\n      add\n        /* \"#utility.yul\":2600:2647   */\n      mstore\n        /* \"#utility.yul\":2664:2795   */\n      tag_155\n        /* \"#utility.yul\":2790:2794   */\n      dup2\n        /* \"#utility.yul\":2664:2795   */\n      tag_113\n      jump\t// in\n    tag_155:\n        /* \"#utility.yul\":2656:2795   */\n      swap1\n      pop\n        /* \"#utility.yul\":2383:2802   */\n      swap2\n      swap1\n      pop\n      jump\t// out\n        /* \"#utility.yul\":2808:2988   */\n    tag_114:\n        /* \"#utility.yul\":2856:2933   */\n      0x4e487b7100000000000000000000000000000000000000000000000000000000\n        /* \"#utility.yul\":2853:2854   */\n      0x00\n        /* \"#utility.yul\":2846:2934   */\n      mstore\n        /* \"#utility.yul\":2953:2957   */\n      0x11\n        /* \"#utility.yul\":2950:2951   */\n      0x04\n        /* \"#utility.yul\":2943:2958   */\n      mstore\n        /* \"#utility.yul\":2977:2981   */\n      0x24\n        /* \"#utility.yul\":2974:2975   */\n      0x00\n        /* \"#utility.yul\":2967:2982   */\n      revert\n        /* \"#utility.yul\":2994:3185   */\n    tag_42:\n        /* \"#utility.yul\":3034:3037   */\n      0x00\n        /* \"#utility.yul\":3053:3073   */\n      tag_158\n        /* \"#utility.yul\":3071:3072   */\n      dup3\n        /* \"#utility.yul\":3053:3073   */\n      tag_105\n      jump\t// in\n    tag_158:\n        /* \"#utility.yul\":3048:3073   */\n      swap2\n      pop\n        /* \"#utility.yul\":3087:3107   */\n      tag_159\n        /* \"#utility.yul\":3105:3106   */\n      dup4\n        /* \"#utility.yul\":3087:3107   */\n      tag_105\n      jump\t// in\n    tag_159:\n        /* \"#utility.yul\":3082:3107   */\n      swap3\n      pop\n        /* \"#utility.yul\":3130:3131   */\n      dup3\n        /* \"#utility.yul\":3127:3128   */\n      dup3\n        /* \"#utility.yul\":3123:3132   */\n      add\n        /* \"#utility.yul\":3116:3132   */\n      swap1\n      pop\n        /* \"#utility.yul\":3151:3154   */\n      dup1\n        /* \"#utility.yul\":3148:3149   */\n      dup3\n        /* \"#utility.yul\":3145:3155   */\n      gt\n        /* \"#utility.yul\":3142:3178   */\n      iszero\n      tag_160\n      jumpi\n        /* \"#utility.yul\":3158:3176   */\n      tag_161\n      tag_114\n      jump\t// in\n    tag_161:\n        /* \"#utility.yul\":3142:3178   */\n    tag_160:\n        /* \"#utility.yul\":2994:3185   */\n      swap3\n      swap2\n      pop\n      pop\n      jump\t// out\n        /* \"#utility.yul\":3191:3385   */\n    tag_48:\n        /* \"#utility.yul\":3231:3235   */\n      0x00\n        /* \"#utility.yul\":3251:3271   */\n      tag_163\n        /* \"#utility.yul\":3269:3270   */\n      dup3\n        /* \"#utility.yul\":3251:3271   */\n      tag_105\n      jump\t// in\n    tag_163:\n        /* \"#utility.yul\":3246:3271   */\n      swap2\n      pop\n        /* \"#utility.yul\":3285:3305   */\n      tag_164\n        /* \"#utility.yul\":3303:3304   */\n      dup4\n        /* \"#utility.yul\":3285:3305   */\n      tag_105\n      jump\t// in\n    tag_164:\n        /* \"#utility.yul\":3280:3305   */\n      swap3\n      pop\n        /* \"#utility.yul\":3329:3330   */\n      dup3\n        /* \"#utility.yul\":3326:3327   */\n      dup3\n        /* \"#utility.yul\":3322:3331   */\n      sub\n        /* \"#utility.yul\":3314:3331   */\n      swap1\n      pop\n        /* \"#utility.yul\":3353:3354   */\n      dup2\n        /* \"#utility.yul\":3347:3351   */\n      dup2\n        /* \"#utility.yul\":3344:3355   */\n      gt\n        /* \"#utility.yul\":3341:3378   */\n      iszero\n      tag_165\n      jumpi\n        /* \"#utility.yul\":3358:3376   */\n      tag_166\n      tag_114\n      jump\t// in\n    tag_166:\n        /* \"#utility.yul\":3341:3378   */\n    tag_165:\n        /* \"#utility.yul\":3191:3385   */\n      swap3\n      swap2\n      pop\n      pop\n      jump\t// out\n        /* \"#utility.yul\":3391:3562   */\n    tag_115:\n        /* \"#utility.yul\":3531:3554   */\n      0x496e73756666696369656e74207061796d656e742e0000000000000000000000\n        /* \"#utility.yul\":3527:3528   */\n      0x00\n        /* \"#utility.yul\":3519:3525   */\n      dup3\n        /* \"#utility.yul\":3515:3529   */\n      add\n        /* \"#utility.yul\":3508:3555   */\n      mstore\n        /* \"#utility.yul\":3391:3562   */\n      pop\n      jump\t// out\n        /* \"#utility.yul\":3568:3934   */\n    tag_116:\n        /* \"#utility.yul\":3710:3713   */\n      0x00\n        /* \"#utility.yul\":3731:3798   */\n      tag_169\n        /* \"#utility.yul\":3795:3797   */\n      0x15\n        /* \"#utility.yul\":3790:3793   */\n      dup4\n        /* \"#utility.yul\":3731:3798   */\n      tag_111\n      jump\t// in\n    tag_169:\n        /* \"#utility.yul\":3724:3798   */\n      swap2\n      pop\n        /* \"#utility.yul\":3807:3900   */\n      tag_170\n        /* \"#utility.yul\":3896:3899   */\n      dup3\n        /* \"#utility.yul\":3807:3900   */\n      tag_115\n      jump\t// in\n    tag_170:\n        /* \"#utility.yul\":3925:3927   */\n      0x20\n        /* \"#utility.yul\":3920:3923   */\n      dup3\n        /* \"#utility.yul\":3916:3928   */\n      add\n        /* \"#utility.yul\":3909:3928   */\n      swap1\n      pop\n        /* \"#utility.yul\":3568:3934   */\n      swap2\n      swap1\n      pop\n      jump\t// out\n        /* \"#utility.yul\":3940:4359   */\n    tag_51:\n        /* \"#utility.yul\":4106:4110   */\n      0x00\n        /* \"#utility.yul\":4144:4146   */\n      0x20\n        /* \"#utility.yul\":4133:4142   */\n      dup3\n        /* \"#utility.yul\":4129:4147   */\n      add\n        /* \"#utility.yul\":4121:4147   */\n      swap1\n      pop\n        /* \"#utility.yul\":4193:4202   */\n      dup2\n        /* \"#utility.yul\":4187:4191   */\n      dup2\n        /* \"#utility.yul\":4183:4203   */\n      sub\n        /* \"#utility.yul\":4179:4180   */\n      0x00\n        /* \"#utility.yul\":4168:4177   */\n      dup4\n        /* \"#utility.yul\":4164:4181   */\n      add\n        /* \"#utility.yul\":4157:4204   */\n      mstore\n        /* \"#utility.yul\":4221:4352   */\n      tag_172\n        /* \"#utility.yul\":4347:4351   */\n      dup2\n        /* \"#utility.yul\":4221:4352   */\n      tag_116\n      jump\t// in\n    tag_172:\n        /* \"#utility.yul\":4213:4352   */\n      swap1\n      pop\n        /* \"#utility.yul\":3940:4359   */\n      swap2\n      swap1\n      pop\n      jump\t// out\n        /* \"#utility.yul\":4365:4539   */\n    tag_117:\n        /* \"#utility.yul\":4505:4531   */\n      0x54686520636172206d7573742062652064726976696e672e0000000000000000\n        /* \"#utility.yul\":4501:4502   */\n      0x00\n        /* \"#utility.yul\":4493:4499   */\n      dup3\n        /* \"#utility.yul\":4489:4503   */\n      add\n        /* \"#utility.yul\":4482:4532   */\n      mstore\n        /* \"#utility.yul\":4365:4539   */\n      pop\n      jump\t// out\n        /* \"#utility.yul\":4545:4911   */\n    tag_118:\n        /* \"#utility.yul\":4687:4690   */\n      0x00\n        /* \"#utility.yul\":4708:4775   */\n      tag_175\n        /* \"#utility.yul\":4772:4774   */\n      0x18\n        /* \"#utility.yul\":4767:4770   */\n      dup4\n        /* \"#utility.yul\":4708:4775   */\n      tag_111\n      jump\t// in\n    tag_175:\n        /* \"#utility.yul\":4701:4775   */\n      swap2\n      pop\n        /* \"#utility.yul\":4784:4877   */\n      tag_176\n        /* \"#utility.yul\":4873:4876   */\n      dup3\n        /* \"#utility.yul\":4784:4877   */\n      tag_117\n      jump\t// in\n    tag_176:\n        /* \"#utility.yul\":4902:4904   */\n      0x20\n        /* \"#utility.yul\":4897:4900   */\n      dup3\n        /* \"#utility.yul\":4893:4905   */\n      add\n        /* \"#utility.yul\":4886:4905   */\n      swap1\n      pop\n        /* \"#utility.yul\":4545:4911   */\n      swap2\n      swap1\n      pop\n      jump\t// out\n        /* \"#utility.yul\":4917:5336   */\n    tag_60:\n        /* \"#utility.yul\":5083:5087   */\n      0x00\n        /* \"#utility.yul\":5121:5123   */\n      0x20\n        /* \"#utility.yul\":5110:5119   */\n      dup3\n        /* \"#utility.yul\":5106:5124   */\n      add\n        /* \"#utility.yul\":5098:5124   */\n      swap1\n      pop\n        /* \"#utility.yul\":5170:5179   */\n      dup2\n        /* \"#utility.yul\":5164:5168   */\n      dup2\n        /* \"#utility.yul\":5160:5180   */\n      sub\n        /* \"#utility.yul\":5156:5157   */\n      0x00\n        /* \"#utility.yul\":5145:5154   */\n      dup4\n        /* \"#utility.yul\":5141:5158   */\n      add\n        /* \"#utility.yul\":5134:5181   */\n      mstore\n        /* \"#utility.yul\":5198:5329   */\n      tag_178\n        /* \"#utility.yul\":5324:5328   */\n      dup2\n        /* \"#utility.yul\":5198:5329   */\n      tag_118\n      jump\t// in\n    tag_178:\n        /* \"#utility.yul\":5190:5329   */\n      swap1\n      pop\n        /* \"#utility.yul\":4917:5336   */\n      swap2\n      swap1\n      pop\n      jump\t// out\n        /* \"#utility.yul\":5342:5519   */\n    tag_119:\n        /* \"#utility.yul\":5482:5511   */\n      0x5468652063617220697320616c72656164792073746f707065642e0000000000\n        /* \"#utility.yul\":5478:5479   */\n      0x00\n        /* \"#utility.yul\":5470:5476   */\n      dup3\n        /* \"#utility.yul\":5466:5480   */\n      add\n        /* \"#utility.yul\":5459:5512   */\n      mstore\n        /* \"#utility.yul\":5342:5519   */\n      pop\n      jump\t// out\n        /* \"#utility.yul\":5525:5891   */\n    tag_120:\n        /* \"#utility.yul\":5667:5670   */\n      0x00\n        /* \"#utility.yul\":5688:5755   */\n      tag_181\n        /* \"#utility.yul\":5752:5754   */\n      0x1b\n        /* \"#utility.yul\":5747:5750   */\n      dup4\n        /* \"#utility.yul\":5688:5755   */\n      tag_111\n      jump\t// in\n    tag_181:\n        /* \"#utility.yul\":5681:5755   */\n      swap2\n      pop\n        /* \"#utility.yul\":5764:5857   */\n      tag_182\n        /* \"#utility.yul\":5853:5856   */\n      dup3\n        /* \"#utility.yul\":5764:5857   */\n      tag_119\n      jump\t// in\n    tag_182:\n        /* \"#utility.yul\":5882:5884   */\n      0x20\n        /* \"#utility.yul\":5877:5880   */\n      dup3\n        /* \"#utility.yul\":5873:5885   */\n      add\n        /* \"#utility.yul\":5866:5885   */\n      swap1\n      pop\n        /* \"#utility.yul\":5525:5891   */\n      swap2\n      swap1\n      pop\n      jump\t// out\n        /* \"#utility.yul\":5897:6316   */\n    tag_63:\n        /* \"#utility.yul\":6063:6067   */\n      0x00\n        /* \"#utility.yul\":6101:6103   */\n      0x20\n        /* \"#utility.yul\":6090:6099   */\n      dup3\n        /* \"#utility.yul\":6086:6104   */\n      add\n        /* \"#utility.yul\":6078:6104   */\n      swap1\n      pop\n        /* \"#utility.yul\":6150:6159   */\n      dup2\n        /* \"#utility.yul\":6144:6148   */\n      dup2\n        /* \"#utility.yul\":6140:6160   */\n      sub\n        /* \"#utility.yul\":6136:6137   */\n      0x00\n        /* \"#utility.yul\":6125:6134   */\n      dup4\n        /* \"#utility.yul\":6121:6138   */\n      add\n        /* \"#utility.yul\":6114:6161   */\n      mstore\n        /* \"#utility.yul\":6178:6309   */\n      tag_184\n        /* \"#utility.yul\":6304:6308   */\n      dup2\n        /* \"#utility.yul\":6178:6309   */\n      tag_120\n      jump\t// in\n    tag_184:\n        /* \"#utility.yul\":6170:6309   */\n      swap1\n      pop\n        /* \"#utility.yul\":5897:6316   */\n      swap2\n      swap1\n      pop\n      jump\t// out\n        /* \"#utility.yul\":6322:6556   */\n    tag_121:\n        /* \"#utility.yul\":6462:6496   */\n      0x54686520636172206d7573742062652073746f7070656420746f207475726e20\n        /* \"#utility.yul\":6458:6459   */\n      0x00\n        /* \"#utility.yul\":6450:6456   */\n      dup3\n        /* \"#utility.yul\":6446:6460   */\n      add\n        /* \"#utility.yul\":6439:6497   */\n      mstore\n        /* \"#utility.yul\":6531:6548   */\n      0x6f66662074686520656e67696e652e0000000000000000000000000000000000\n        /* \"#utility.yul\":6526:6528   */\n      0x20\n        /* \"#utility.yul\":6518:6524   */\n      dup3\n        /* \"#utility.yul\":6514:6529   */\n      add\n        /* \"#utility.yul\":6507:6549   */\n      mstore\n        /* \"#utility.yul\":6322:6556   */\n      pop\n      jump\t// out\n        /* \"#utility.yul\":6562:6928   */\n    tag_122:\n        /* \"#utility.yul\":6704:6707   */\n      0x00\n        /* \"#utility.yul\":6725:6792   */\n      tag_187\n        /* \"#utility.yul\":6789:6791   */\n      0x2f\n        /* \"#utility.yul\":6784:6787   */\n      dup4\n        /* \"#utility.yul\":6725:6792   */\n      tag_111\n      jump\t// in\n    tag_187:\n        /* \"#utility.yul\":6718:6792   */\n      swap2\n      pop\n        /* \"#utility.yul\":6801:6894   */\n      tag_188\n        /* \"#utility.yul\":6890:6893   */\n      dup3\n        /* \"#utility.yul\":6801:6894   */\n      tag_121\n      jump\t// in\n    tag_188:\n        /* \"#utility.yul\":6919:6921   */\n      0x40\n        /* \"#utility.yul\":6914:6917   */\n      dup3\n        /* \"#utility.yul\":6910:6922   */\n      add\n        /* \"#utility.yul\":6903:6922   */\n      swap1\n      pop\n        /* \"#utility.yul\":6562:6928   */\n      swap2\n      swap1\n      pop\n      jump\t// out\n        /* \"#utility.yul\":6934:7353   */\n    tag_77:\n        /* \"#utility.yul\":7100:7104   */\n      0x00\n        /* \"#utility.yul\":7138:7140   */\n      0x20\n        /* \"#utility.yul\":7127:7136   */\n      dup3\n        /* \"#utility.yul\":7123:7141   */\n      add\n        /* \"#utility.yul\":7115:7141   */\n      swap1\n      pop\n        /* \"#utility.yul\":7187:7196   */\n      dup2\n        /* \"#utility.yul\":7181:7185   */\n      dup2\n        /* \"#utility.yul\":7177:7197   */\n      sub\n        /* \"#utility.yul\":7173:7174   */\n      0x00\n        /* \"#utility.yul\":7162:7171   */\n      dup4\n        /* \"#utility.yul\":7158:7175   */\n      add\n        /* \"#utility.yul\":7151:7198   */\n      mstore\n        /* \"#utility.yul\":7215:7346   */\n      tag_190\n        /* \"#utility.yul\":7341:7345   */\n      dup2\n        /* \"#utility.yul\":7215:7346   */\n      tag_122\n      jump\t// in\n    tag_190:\n        /* \"#utility.yul\":7207:7346   */\n      swap1\n      pop\n        /* \"#utility.yul\":6934:7353   */\n      swap2\n      swap1\n      pop\n      jump\t// out\n        /* \"#utility.yul\":7359:7592   */\n    tag_123:\n        /* \"#utility.yul\":7499:7533   */\n      0x54686520636172206d7573742062652073746f7070656420746f207475726e20\n        /* \"#utility.yul\":7495:7496   */\n      0x00\n        /* \"#utility.yul\":7487:7493   */\n      dup3\n        /* \"#utility.yul\":7483:7497   */\n      add\n        /* \"#utility.yul\":7476:7534   */\n      mstore\n        /* \"#utility.yul\":7568:7584   */\n      0x6f6e2074686520656e67696e652e000000000000000000000000000000000000\n        /* \"#utility.yul\":7563:7565   */\n      0x20\n        /* \"#utility.yul\":7555:7561   */\n      dup3\n        /* \"#utility.yul\":7551:7566   */\n      add\n        /* \"#utility.yul\":7544:7585   */\n      mstore\n        /* \"#utility.yul\":7359:7592   */\n      pop\n      jump\t// out\n        /* \"#utility.yul\":7598:7964   */\n    tag_124:\n        /* \"#utility.yul\":7740:7743   */\n      0x00\n        /* \"#utility.yul\":7761:7828   */\n      tag_193\n        /* \"#utility.yul\":7825:7827   */\n      0x2e\n        /* \"#utility.yul\":7820:7823   */\n      dup4\n        /* \"#utility.yul\":7761:7828   */\n      tag_111\n      jump\t// in\n    tag_193:\n        /* \"#utility.yul\":7754:7828   */\n      swap2\n      pop\n        /* \"#utility.yul\":7837:7930   */\n      tag_194\n        /* \"#utility.yul\":7926:7929   */\n      dup3\n        /* \"#utility.yul\":7837:7930   */\n      tag_123\n      jump\t// in\n    tag_194:\n        /* \"#utility.yul\":7955:7957   */\n      0x40\n        /* \"#utility.yul\":7950:7953   */\n      dup3\n        /* \"#utility.yul\":7946:7958   */\n      add\n        /* \"#utility.yul\":7939:7958   */\n      swap1\n      pop\n        /* \"#utility.yul\":7598:7964   */\n      swap2\n      swap1\n      pop\n      jump\t// out\n        /* \"#utility.yul\":7970:8389   */\n    tag_87:\n        /* \"#utility.yul\":8136:8140   */\n      0x00\n        /* \"#utility.yul\":8174:8176   */\n      0x20\n        /* \"#utility.yul\":8163:8172   */\n      dup3\n        /* \"#utility.yul\":8159:8177   */\n      add\n        /* \"#utility.yul\":8151:8177   */\n      swap1\n      pop\n        /* \"#utility.yul\":8223:8232   */\n      dup2\n        /* \"#utility.yul\":8217:8221   */\n      dup2\n        /* \"#utility.yul\":8213:8233   */\n      sub\n        /* \"#utility.yul\":8209:8210   */\n      0x00\n        /* \"#utility.yul\":8198:8207   */\n      dup4\n        /* \"#utility.yul\":8194:8211   */\n      add\n        /* \"#utility.yul\":8187:8234   */\n      mstore\n        /* \"#utility.yul\":8251:8382   */\n      tag_196\n        /* \"#utility.yul\":8377:8381   */\n      dup2\n        /* \"#utility.yul\":8251:8382   */\n      tag_124\n      jump\t// in\n    tag_196:\n        /* \"#utility.yul\":8243:8382   */\n      swap1\n      pop\n        /* \"#utility.yul\":7970:8389   */\n      swap2\n      swap1\n      pop\n      jump\t// out\n        /* \"#utility.yul\":8395:8561   */\n    tag_125:\n        /* \"#utility.yul\":8535:8553   */\n      0x4e6f7420656e6f756768206675656c2e00000000000000000000000000000000\n        /* \"#utility.yul\":8531:8532   */\n      0x00\n        /* \"#utility.yul\":8523:8529   */\n      dup3\n        /* \"#utility.yul\":8519:8533   */\n      add\n        /* \"#utility.yul\":8512:8554   */\n      mstore\n        /* \"#utility.yul\":8395:8561   */\n      pop\n      jump\t// out\n        /* \"#utility.yul\":8567:8933   */\n    tag_126:\n        /* \"#utility.yul\":8709:8712   */\n      0x00\n        /* \"#utility.yul\":8730:8797   */\n      tag_199\n        /* \"#utility.yul\":8794:8796   */\n      0x10\n        /* \"#utility.yul\":8789:8792   */\n      dup4\n        /* \"#utility.yul\":8730:8797   */\n      tag_111\n      jump\t// in\n    tag_199:\n        /* \"#utility.yul\":8723:8797   */\n      swap2\n      pop\n        /* \"#utility.yul\":8806:8899   */\n      tag_200\n        /* \"#utility.yul\":8895:8898   */\n      dup3\n        /* \"#utility.yul\":8806:8899   */\n      tag_125\n      jump\t// in\n    tag_200:\n        /* \"#utility.yul\":8924:8926   */\n      0x20\n        /* \"#utility.yul\":8919:8922   */\n      dup3\n        /* \"#utility.yul\":8915:8927   */\n      add\n        /* \"#utility.yul\":8908:8927   */\n      swap1\n      pop\n        /* \"#utility.yul\":8567:8933   */\n      swap2\n      swap1\n      pop\n      jump\t// out\n        /* \"#utility.yul\":8939:9358   */\n    tag_99:\n        /* \"#utility.yul\":9105:9109   */\n      0x00\n        /* \"#utility.yul\":9143:9145   */\n      0x20\n        /* \"#utility.yul\":9132:9141   */\n      dup3\n        /* \"#utility.yul\":9128:9146   */\n      add\n        /* \"#utility.yul\":9120:9146   */\n      swap1\n      pop\n        /* \"#utility.yul\":9192:9201   */\n      dup2\n        /* \"#utility.yul\":9186:9190   */\n      dup2\n        /* \"#utility.yul\":9182:9202   */\n      sub\n        /* \"#utility.yul\":9178:9179   */\n      0x00\n        /* \"#utility.yul\":9167:9176   */\n      dup4\n        /* \"#utility.yul\":9163:9180   */\n      add\n        /* \"#utility.yul\":9156:9203   */\n      mstore\n        /* \"#utility.yul\":9220:9351   */\n      tag_202\n        /* \"#utility.yul\":9346:9350   */\n      dup2\n        /* \"#utility.yul\":9220:9351   */\n      tag_126\n      jump\t// in\n    tag_202:\n        /* \"#utility.yul\":9212:9351   */\n      swap1\n      pop\n        /* \"#utility.yul\":8939:9358   */\n      swap2\n      swap1\n      pop\n      jump\t// out\n        /* \"#utility.yul\":9364:9532   */\n    tag_127:\n        /* \"#utility.yul\":9504:9524   */\n      0x537065656420697320746f6f20686967682e0000000000000000000000000000\n        /* \"#utility.yul\":9500:9501   */\n      0x00\n        /* \"#utility.yul\":9492:9498   */\n      dup3\n        /* \"#utility.yul\":9488:9502   */\n      add\n        /* \"#utility.yul\":9481:9525   */\n      mstore\n        /* \"#utility.yul\":9364:9532   */\n      pop\n      jump\t// out\n        /* \"#utility.yul\":9538:9904   */\n    tag_128:\n        /* \"#utility.yul\":9680:9683   */\n      0x00\n        /* \"#utility.yul\":9701:9768   */\n      tag_205\n        /* \"#utility.yul\":9765:9767   */\n      0x12\n        /* \"#utility.yul\":9760:9763   */\n      dup4\n        /* \"#utility.yul\":9701:9768   */\n      tag_111\n      jump\t// in\n    tag_205:\n        /* \"#utility.yul\":9694:9768   */\n      swap2\n      pop\n        /* \"#utility.yul\":9777:9870   */\n      tag_206\n        /* \"#utility.yul\":9866:9869   */\n      dup3\n        /* \"#utility.yul\":9777:9870   */\n      tag_127\n      jump\t// in\n    tag_206:\n        /* \"#utility.yul\":9895:9897   */\n      0x20\n        /* \"#utility.yul\":9890:9893   */\n      dup3\n        /* \"#utility.yul\":9886:9898   */\n      add\n        /* \"#utility.yul\":9879:9898   */\n      swap1\n      pop\n        /* \"#utility.yul\":9538:9904   */\n      swap2\n      swap1\n      pop\n      jump\t// out\n        /* \"#utility.yul\":9910:10329   */\n    tag_102:\n        /* \"#utility.yul\":10076:10080   */\n      0x00\n        /* \"#utility.yul\":10114:10116   */\n      0x20\n        /* \"#utility.yul\":10103:10112   */\n      dup3\n        /* \"#utility.yul\":10099:10117   */\n      add\n        /* \"#utility.yul\":10091:10117   */\n      swap1\n      pop\n        /* \"#utility.yul\":10163:10172   */\n      dup2\n        /* \"#utility.yul\":10157:10161   */\n      dup2\n        /* \"#utility.yul\":10153:10173   */\n      sub\n        /* \"#utility.yul\":10149:10150   */\n      0x00\n        /* \"#utility.yul\":10138:10147   */\n      dup4\n        /* \"#utility.yul\":10134:10151   */\n      add\n        /* \"#utility.yul\":10127:10174   */\n      mstore\n        /* \"#utility.yul\":10191:10322   */\n      tag_208\n        /* \"#utility.yul\":10317:10321   */\n      dup2\n        /* \"#utility.yul\":10191:10322   */\n      tag_128\n      jump\t// in\n    tag_208:\n        /* \"#utility.yul\":10183:10322   */\n      swap1\n      pop\n        /* \"#utility.yul\":9910:10329   */\n      swap2\n      swap1\n      pop\n      jump\t// out\n\n    auxdata: 0xa26469706673582212208e5549dae14ef0dbc9b7f0f00d600518f8888d6d0b9fe44c0795f83a657a4dab64736f6c634300081a0033\n}\n",
				"bytecode": {
					"linkReferences": {},
					"object": "6080604052348015600e575f80fd5b505f805f018190555060645f6001018190555060015f6002015f6101000a81548160ff0219169083600281111560455760446055565b5b02179055505f6003819055506082565b7f4e487b71000000000000000000000000000000000000000000000000000000005f52602160045260245ffd5b610b5f8061008f5f395ff3fe60806040526004361061007a575f3560e01c80639cdde8131161004d5780639cdde813146100d2578063af10c810146100fe578063ba33ed7d14610114578063f282df781461012a5761007a565b806334fe1d1e1461007e57806355161913146100885780635642e2dc146100925780635b04d6b6146100a8575b5f80fd5b610086610140565b005b61009061019c565b005b34801561009d575f80fd5b506100a6610238565b005b3480156100b3575f80fd5b506100bc61036f565b6040516100c99190610639565b60405180910390f35b3480156100dd575f80fd5b506100e6610375565b6040516100f5939291906106c5565b60405180910390f35b348015610109575f80fd5b50610112610397565b005b34801561011f575f80fd5b5061012861043b565b005b348015610135575f80fd5b5061013e6104e7565b005b5f3411610182576040517f08c379a000000000000000000000000000000000000000000000000000000000815260040161017990610754565b60405180910390fd5b3460035f828254610193919061079f565b92505081905550565b670de0b6b3a764000034036101ba5760645f60010181905550610236565b670de0b6b3a7640000600354106101fa57670de0b6b3a764000060035f8282546101e491906107d2565b9250508190555060645f60010181905550610235565b6040517f08c379a000000000000000000000000000000000000000000000000000000000815260040161022c9061084f565b60405180910390fd5b5b565b60028081111561024b5761024a610652565b5b5f6002015f9054906101000a900460ff16600281111561026e5761026d610652565b5b146102ae576040517f08c379a00000000000000000000000000000000000000000000000000000000081526004016102a5906108b7565b60405180910390fd5b5f805f0154116102f3576040517f08c379a00000000000000000000000000000000000000000000000000000000081526004016102ea9061091f565b60405180910390fd5b600a5f8001541015610337575f805f01819055505f806002015f6101000a81548160ff0219169083600281111561032d5761032c610652565b5b0217905550610352565b600a5f80015f82825461034a91906107d2565b925050819055505b600a5f6001015f82825461036691906107d2565b92505081905550565b60035481565b5f805f015490806001015490806002015f9054906101000a900460ff16905083565b5f60028111156103aa576103a9610652565b5b5f6002015f9054906101000a900460ff1660028111156103cd576103cc610652565b5b1461040d576040517f08c379a0000000000000000000000000000000000000000000000000000000008152600401610404906109ad565b60405180910390fd5b60015f6002015f6101000a81548160ff0219169083600281111561043457610433610652565b5b0217905550565b5f600281111561044e5761044d610652565b5b5f6002015f9054906101000a900460ff16600281111561047157610470610652565b5b146104b1576040517f08c379a00000000000000000000000000000000000000000000000000000000081526004016104a890610a3b565b60405180910390fd5b60025f6002015f6101000a81548160ff021916908360028111156104d8576104d7610652565b5b02179055505f805f0181905550565b6002808111156104fa576104f9610652565b5b5f6002015f9054906101000a900460ff16600281111561051d5761051c610652565b5b1461055d576040517f08c379a0000000000000000000000000000000000000000000000000000000008152600401610554906108b7565b60405180910390fd5b601e5f60010154116105a4576040517f08c379a000000000000000000000000000000000000000000000000000000000815260040161059b90610aa3565b60405180910390fd5b60465f800154106105ea576040517f08c379a00000000000000000000000000000000000000000000000000000000081526004016105e190610b0b565b60405180910390fd5b600a5f80015f8282546105fd919061079f565b9250508190555060145f6001015f82825461061891906107d2565b92505081905550565b5f819050919050565b61063381610621565b82525050565b5f60208201905061064c5f83018461062a565b92915050565b7f4e487b71000000000000000000000000000000000000000000000000000000005f52602160045260245ffd5b600381106106905761068f610652565b5b50565b5f8190506106a08261067f565b919050565b5f6106af82610693565b9050919050565b6106bf816106a5565b82525050565b5f6060820190506106d85f83018661062a565b6106e5602083018561062a565b6106f260408301846106b6565b949350505050565b5f82825260208201905092915050565b7f5061796d656e74206d7573742062652067726561746572207468616e20302e005f82015250565b5f61073e601f836106fa565b91506107498261070a565b602082019050919050565b5f6020820190508181035f83015261076b81610732565b9050919050565b7f4e487b71000000000000000000000000000000000000000000000000000000005f52601160045260245ffd5b5f6107a982610621565b91506107b483610621565b92508282019050808211156107cc576107cb610772565b5b92915050565b5f6107dc82610621565b91506107e783610621565b92508282039050818111156107ff576107fe610772565b5b92915050565b7f496e73756666696369656e74207061796d656e742e00000000000000000000005f82015250565b5f6108396015836106fa565b915061084482610805565b602082019050919050565b5f6020820190508181035f8301526108668161082d565b9050919050565b7f54686520636172206d7573742062652064726976696e672e00000000000000005f82015250565b5f6108a16018836106fa565b91506108ac8261086d565b602082019050919050565b5f6020820190508181035f8301526108ce81610895565b9050919050565b7f5468652063617220697320616c72656164792073746f707065642e00000000005f82015250565b5f610909601b836106fa565b9150610914826108d5565b602082019050919050565b5f6020820190508181035f830152610936816108fd565b9050919050565b7f54686520636172206d7573742062652073746f7070656420746f207475726e205f8201527f6f66662074686520656e67696e652e0000000000000000000000000000000000602082015250565b5f610997602f836106fa565b91506109a28261093d565b604082019050919050565b5f6020820190508181035f8301526109c48161098b565b9050919050565b7f54686520636172206d7573742062652073746f7070656420746f207475726e205f8201527f6f6e2074686520656e67696e652e000000000000000000000000000000000000602082015250565b5f610a25602e836106fa565b9150610a30826109cb565b604082019050919050565b5f6020820190508181035f830152610a5281610a19565b9050919050565b7f4e6f7420656e6f756768206675656c2e000000000000000000000000000000005f82015250565b5f610a8d6010836106fa565b9150610a9882610a59565b602082019050919050565b5f6020820190508181035f830152610aba81610a81565b9050919050565b7f537065656420697320746f6f20686967682e00000000000000000000000000005f82015250565b5f610af56012836106fa565b9150610b0082610ac1565b602082019050919050565b5f6020820190508181035f830152610b2281610ae9565b905091905056fea26469706673582212208e5549dae14ef0dbc9b7f0f00d600518f8888d6d0b9fe44c0795f83a657a4dab64736f6c634300081a0033",
					"opcodes": "PUSH1 0x80 PUSH1 0x40 MSTORE CALLVALUE DUP1 ISZERO PUSH1 0xE JUMPI PUSH0 DUP1 REVERT JUMPDEST POP PUSH0 DUP1 PUSH0 ADD DUP2 SWAP1 SSTORE POP PUSH1 0x64 PUSH0 PUSH1 0x1 ADD DUP2 SWAP1 SSTORE POP PUSH1 0x1 PUSH0 PUSH1 0x2 ADD PUSH0 PUSH2 0x100 EXP DUP2 SLOAD DUP2 PUSH1 0xFF MUL NOT AND SWAP1 DUP4 PUSH1 0x2 DUP2 GT ISZERO PUSH1 0x45 JUMPI PUSH1 0x44 PUSH1 0x55 JUMP JUMPDEST JUMPDEST MUL OR SWAP1 SSTORE POP PUSH0 PUSH1 0x3 DUP2 SWAP1 SSTORE POP PUSH1 0x82 JUMP JUMPDEST PUSH32 0x4E487B7100000000000000000000000000000000000000000000000000000000 PUSH0 MSTORE PUSH1 0x21 PUSH1 0x4 MSTORE PUSH1 0x24 PUSH0 REVERT JUMPDEST PUSH2 0xB5F DUP1 PUSH2 0x8F PUSH0 CODECOPY PUSH0 RETURN INVALID PUSH1 0x80 PUSH1 0x40 MSTORE PUSH1 0x4 CALLDATASIZE LT PUSH2 0x7A JUMPI PUSH0 CALLDATALOAD PUSH1 0xE0 SHR DUP1 PUSH4 0x9CDDE813 GT PUSH2 0x4D JUMPI DUP1 PUSH4 0x9CDDE813 EQ PUSH2 0xD2 JUMPI DUP1 PUSH4 0xAF10C810 EQ PUSH2 0xFE JUMPI DUP1 PUSH4 0xBA33ED7D EQ PUSH2 0x114 JUMPI DUP1 PUSH4 0xF282DF78 EQ PUSH2 0x12A JUMPI PUSH2 0x7A JUMP JUMPDEST DUP1 PUSH4 0x34FE1D1E EQ PUSH2 0x7E JUMPI DUP1 PUSH4 0x55161913 EQ PUSH2 0x88 JUMPI DUP1 PUSH4 0x5642E2DC EQ PUSH2 0x92 JUMPI DUP1 PUSH4 0x5B04D6B6 EQ PUSH2 0xA8 JUMPI JUMPDEST PUSH0 DUP1 REVERT JUMPDEST PUSH2 0x86 PUSH2 0x140 JUMP JUMPDEST STOP JUMPDEST PUSH2 0x90 PUSH2 0x19C JUMP JUMPDEST STOP JUMPDEST CALLVALUE DUP1 ISZERO PUSH2 0x9D JUMPI PUSH0 DUP1 REVERT JUMPDEST POP PUSH2 0xA6 PUSH2 0x238 JUMP JUMPDEST STOP JUMPDEST CALLVALUE DUP1 ISZERO PUSH2 0xB3 JUMPI PUSH0 DUP1 REVERT JUMPDEST POP PUSH2 0xBC PUSH2 0x36F JUMP JUMPDEST PUSH1 0x40 MLOAD PUSH2 0xC9 SWAP2 SWAP1 PUSH2 0x639 JUMP JUMPDEST PUSH1 0x40 MLOAD DUP1 SWAP2 SUB SWAP1 RETURN JUMPDEST CALLVALUE DUP1 ISZERO PUSH2 0xDD JUMPI PUSH0 DUP1 REVERT JUMPDEST POP PUSH2 0xE6 PUSH2 0x375 JUMP JUMPDEST PUSH1 0x40 MLOAD PUSH2 0xF5 SWAP4 SWAP3 SWAP2 SWAP1 PUSH2 0x6C5 JUMP JUMPDEST PUSH1 0x40 MLOAD DUP1 SWAP2 SUB SWAP1 RETURN JUMPDEST CALLVALUE DUP1 ISZERO PUSH2 0x109 JUMPI PUSH0 DUP1 REVERT JUMPDEST POP PUSH2 0x112 PUSH2 0x397 JUMP JUMPDEST STOP JUMPDEST CALLVALUE DUP1 ISZERO PUSH2 0x11F JUMPI PUSH0 DUP1 REVERT JUMPDEST POP PUSH2 0x128 PUSH2 0x43B JUMP JUMPDEST STOP JUMPDEST CALLVALUE DUP1 ISZERO PUSH2 0x135 JUMPI PUSH0 DUP1 REVERT JUMPDEST POP PUSH2 0x13E PUSH2 0x4E7 JUMP JUMPDEST STOP JUMPDEST PUSH0 CALLVALUE GT PUSH2 0x182 JUMPI PUSH1 0x40 MLOAD PUSH32 0x8C379A000000000000000000000000000000000000000000000000000000000 DUP2 MSTORE PUSH1 0x4 ADD PUSH2 0x179 SWAP1 PUSH2 0x754 JUMP JUMPDEST PUSH1 0x40 MLOAD DUP1 SWAP2 SUB SWAP1 REVERT JUMPDEST CALLVALUE PUSH1 0x3 PUSH0 DUP3 DUP3 SLOAD PUSH2 0x193 SWAP2 SWAP1 PUSH2 0x79F JUMP JUMPDEST SWAP3 POP POP DUP2 SWAP1 SSTORE POP JUMP JUMPDEST PUSH8 0xDE0B6B3A7640000 CALLVALUE SUB PUSH2 0x1BA JUMPI PUSH1 0x64 PUSH0 PUSH1 0x1 ADD DUP2 SWAP1 SSTORE POP PUSH2 0x236 JUMP JUMPDEST PUSH8 0xDE0B6B3A7640000 PUSH1 0x3 SLOAD LT PUSH2 0x1FA JUMPI PUSH8 0xDE0B6B3A7640000 PUSH1 0x3 PUSH0 DUP3 DUP3 SLOAD PUSH2 0x1E4 SWAP2 SWAP1 PUSH2 0x7D2 JUMP JUMPDEST SWAP3 POP POP DUP2 SWAP1 SSTORE POP PUSH1 0x64 PUSH0 PUSH1 0x1 ADD DUP2 SWAP1 SSTORE POP PUSH2 0x235 JUMP JUMPDEST PUSH1 0x40 MLOAD PUSH32 0x8C379A000000000000000000000000000000000000000000000000000000000 DUP2 MSTORE PUSH1 0x4 ADD PUSH2 0x22C SWAP1 PUSH2 0x84F JUMP JUMPDEST PUSH1 0x40 MLOAD DUP1 SWAP2 SUB SWAP1 REVERT JUMPDEST JUMPDEST JUMP JUMPDEST PUSH1 0x2 DUP1 DUP2 GT ISZERO PUSH2 0x24B JUMPI PUSH2 0x24A PUSH2 0x652 JUMP JUMPDEST JUMPDEST PUSH0 PUSH1 0x2 ADD PUSH0 SWAP1 SLOAD SWAP1 PUSH2 0x100 EXP SWAP1 DIV PUSH1 0xFF AND PUSH1 0x2 DUP2 GT ISZERO PUSH2 0x26E JUMPI PUSH2 0x26D PUSH2 0x652 JUMP JUMPDEST JUMPDEST EQ PUSH2 0x2AE JUMPI PUSH1 0x40 MLOAD PUSH32 0x8C379A000000000000000000000000000000000000000000000000000000000 DUP2 MSTORE PUSH1 0x4 ADD PUSH2 0x2A5 SWAP1 PUSH2 0x8B7 JUMP JUMPDEST PUSH1 0x40 MLOAD DUP1 SWAP2 SUB SWAP1 REVERT JUMPDEST PUSH0 DUP1 PUSH0 ADD SLOAD GT PUSH2 0x2F3 JUMPI PUSH1 0x40 MLOAD PUSH32 0x8C379A000000000000000000000000000000000000000000000000000000000 DUP2 MSTORE PUSH1 0x4 ADD PUSH2 0x2EA SWAP1 PUSH2 0x91F JUMP JUMPDEST PUSH1 0x40 MLOAD DUP1 SWAP2 SUB SWAP1 REVERT JUMPDEST PUSH1 0xA PUSH0 DUP1 ADD SLOAD LT ISZERO PUSH2 0x337 JUMPI PUSH0 DUP1 PUSH0 ADD DUP2 SWAP1 SSTORE POP PUSH0 DUP1 PUSH1 0x2 ADD PUSH0 PUSH2 0x100 EXP DUP2 SLOAD DUP2 PUSH1 0xFF MUL NOT AND SWAP1 DUP4 PUSH1 0x2 DUP2 GT ISZERO PUSH2 0x32D JUMPI PUSH2 0x32C PUSH2 0x652 JUMP JUMPDEST JUMPDEST MUL OR SWAP1 SSTORE POP PUSH2 0x352 JUMP JUMPDEST PUSH1 0xA PUSH0 DUP1 ADD PUSH0 DUP3 DUP3 SLOAD PUSH2 0x34A SWAP2 SWAP1 PUSH2 0x7D2 JUMP JUMPDEST SWAP3 POP POP DUP2 SWAP1 SSTORE POP JUMPDEST PUSH1 0xA PUSH0 PUSH1 0x1 ADD PUSH0 DUP3 DUP3 SLOAD PUSH2 0x366 SWAP2 SWAP1 PUSH2 0x7D2 JUMP JUMPDEST SWAP3 POP POP DUP2 SWAP1 SSTORE POP JUMP JUMPDEST PUSH1 0x3 SLOAD DUP2 JUMP JUMPDEST PUSH0 DUP1 PUSH0 ADD SLOAD SWAP1 DUP1 PUSH1 0x1 ADD SLOAD SWAP1 DUP1 PUSH1 0x2 ADD PUSH0 SWAP1 SLOAD SWAP1 PUSH2 0x100 EXP SWAP1 DIV PUSH1 0xFF AND SWAP1 POP DUP4 JUMP JUMPDEST PUSH0 PUSH1 0x2 DUP2 GT ISZERO PUSH2 0x3AA JUMPI PUSH2 0x3A9 PUSH2 0x652 JUMP JUMPDEST JUMPDEST PUSH0 PUSH1 0x2 ADD PUSH0 SWAP1 SLOAD SWAP1 PUSH2 0x100 EXP SWAP1 DIV PUSH1 0xFF AND PUSH1 0x2 DUP2 GT ISZERO PUSH2 0x3CD JUMPI PUSH2 0x3CC PUSH2 0x652 JUMP JUMPDEST JUMPDEST EQ PUSH2 0x40D JUMPI PUSH1 0x40 MLOAD PUSH32 0x8C379A000000000000000000000000000000000000000000000000000000000 DUP2 MSTORE PUSH1 0x4 ADD PUSH2 0x404 SWAP1 PUSH2 0x9AD JUMP JUMPDEST PUSH1 0x40 MLOAD DUP1 SWAP2 SUB SWAP1 REVERT JUMPDEST PUSH1 0x1 PUSH0 PUSH1 0x2 ADD PUSH0 PUSH2 0x100 EXP DUP2 SLOAD DUP2 PUSH1 0xFF MUL NOT AND SWAP1 DUP4 PUSH1 0x2 DUP2 GT ISZERO PUSH2 0x434 JUMPI PUSH2 0x433 PUSH2 0x652 JUMP JUMPDEST JUMPDEST MUL OR SWAP1 SSTORE POP JUMP JUMPDEST PUSH0 PUSH1 0x2 DUP2 GT ISZERO PUSH2 0x44E JUMPI PUSH2 0x44D PUSH2 0x652 JUMP JUMPDEST JUMPDEST PUSH0 PUSH1 0x2 ADD PUSH0 SWAP1 SLOAD SWAP1 PUSH2 0x100 EXP SWAP1 DIV PUSH1 0xFF AND PUSH1 0x2 DUP2 GT ISZERO PUSH2 0x471 JUMPI PUSH2 0x470 PUSH2 0x652 JUMP JUMPDEST JUMPDEST EQ PUSH2 0x4B1 JUMPI PUSH1 0x40 MLOAD PUSH32 0x8C379A000000000000000000000000000000000000000000000000000000000 DUP2 MSTORE PUSH1 0x4 ADD PUSH2 0x4A8 SWAP1 PUSH2 0xA3B JUMP JUMPDEST PUSH1 0x40 MLOAD DUP1 SWAP2 SUB SWAP1 REVERT JUMPDEST PUSH1 0x2 PUSH0 PUSH1 0x2 ADD PUSH0 PUSH2 0x100 EXP DUP2 SLOAD DUP2 PUSH1 0xFF MUL NOT AND SWAP1 DUP4 PUSH1 0x2 DUP2 GT ISZERO PUSH2 0x4D8 JUMPI PUSH2 0x4D7 PUSH2 0x652 JUMP JUMPDEST JUMPDEST MUL OR SWAP1 SSTORE POP PUSH0 DUP1 PUSH0 ADD DUP2 SWAP1 SSTORE POP JUMP JUMPDEST PUSH1 0x2 DUP1 DUP2 GT ISZERO PUSH2 0x4FA JUMPI PUSH2 0x4F9 PUSH2 0x652 JUMP JUMPDEST JUMPDEST PUSH0 PUSH1 0x2 ADD PUSH0 SWAP1 SLOAD SWAP1 PUSH2 0x100 EXP SWAP1 DIV PUSH1 0xFF AND PUSH1 0x2 DUP2 GT ISZERO PUSH2 0x51D JUMPI PUSH2 0x51C PUSH2 0x652 JUMP JUMPDEST JUMPDEST EQ PUSH2 0x55D JUMPI PUSH1 0x40 MLOAD PUSH32 0x8C379A000000000000000000000000000000000000000000000000000000000 DUP2 MSTORE PUSH1 0x4 ADD PUSH2 0x554 SWAP1 PUSH2 0x8B7 JUMP JUMPDEST PUSH1 0x40 MLOAD DUP1 SWAP2 SUB SWAP1 REVERT JUMPDEST PUSH1 0x1E PUSH0 PUSH1 0x1 ADD SLOAD GT PUSH2 0x5A4 JUMPI PUSH1 0x40 MLOAD PUSH32 0x8C379A000000000000000000000000000000000000000000000000000000000 DUP2 MSTORE PUSH1 0x4 ADD PUSH2 0x59B SWAP1 PUSH2 0xAA3 JUMP JUMPDEST PUSH1 0x40 MLOAD DUP1 SWAP2 SUB SWAP1 REVERT JUMPDEST PUSH1 0x46 PUSH0 DUP1 ADD SLOAD LT PUSH2 0x5EA JUMPI PUSH1 0x40 MLOAD PUSH32 0x8C379A000000000000000000000000000000000000000000000000000000000 DUP2 MSTORE PUSH1 0x4 ADD PUSH2 0x5E1 SWAP1 PUSH2 0xB0B JUMP JUMPDEST PUSH1 0x40 MLOAD DUP1 SWAP2 SUB SWAP1 REVERT JUMPDEST PUSH1 0xA PUSH0 DUP1 ADD PUSH0 DUP3 DUP3 SLOAD PUSH2 0x5FD SWAP2 SWAP1 PUSH2 0x79F JUMP JUMPDEST SWAP3 POP POP DUP2 SWAP1 SSTORE POP PUSH1 0x14 PUSH0 PUSH1 0x1 ADD PUSH0 DUP3 DUP3 SLOAD PUSH2 0x618 SWAP2 SWAP1 PUSH2 0x7D2 JUMP JUMPDEST SWAP3 POP POP DUP2 SWAP1 SSTORE POP JUMP JUMPDEST PUSH0 DUP2 SWAP1 POP SWAP2 SWAP1 POP JUMP JUMPDEST PUSH2 0x633 DUP2 PUSH2 0x621 JUMP JUMPDEST DUP3 MSTORE POP POP JUMP JUMPDEST PUSH0 PUSH1 0x20 DUP3 ADD SWAP1 POP PUSH2 0x64C PUSH0 DUP4 ADD DUP5 PUSH2 0x62A JUMP JUMPDEST SWAP3 SWAP2 POP POP JUMP JUMPDEST PUSH32 0x4E487B7100000000000000000000000000000000000000000000000000000000 PUSH0 MSTORE PUSH1 0x21 PUSH1 0x4 MSTORE PUSH1 0x24 PUSH0 REVERT JUMPDEST PUSH1 0x3 DUP2 LT PUSH2 0x690 JUMPI PUSH2 0x68F PUSH2 0x652 JUMP JUMPDEST JUMPDEST POP JUMP JUMPDEST PUSH0 DUP2 SWAP1 POP PUSH2 0x6A0 DUP3 PUSH2 0x67F JUMP JUMPDEST SWAP2 SWAP1 POP JUMP JUMPDEST PUSH0 PUSH2 0x6AF DUP3 PUSH2 0x693 JUMP JUMPDEST SWAP1 POP SWAP2 SWAP1 POP JUMP JUMPDEST PUSH2 0x6BF DUP2 PUSH2 0x6A5 JUMP JUMPDEST DUP3 MSTORE POP POP JUMP JUMPDEST PUSH0 PUSH1 0x60 DUP3 ADD SWAP1 POP PUSH2 0x6D8 PUSH0 DUP4 ADD DUP7 PUSH2 0x62A JUMP JUMPDEST PUSH2 0x6E5 PUSH1 0x20 DUP4 ADD DUP6 PUSH2 0x62A JUMP JUMPDEST PUSH2 0x6F2 PUSH1 0x40 DUP4 ADD DUP5 PUSH2 0x6B6 JUMP JUMPDEST SWAP5 SWAP4 POP POP POP POP JUMP JUMPDEST PUSH0 DUP3 DUP3 MSTORE PUSH1 0x20 DUP3 ADD SWAP1 POP SWAP3 SWAP2 POP POP JUMP JUMPDEST PUSH32 0x5061796D656E74206D7573742062652067726561746572207468616E20302E00 PUSH0 DUP3 ADD MSTORE POP JUMP JUMPDEST PUSH0 PUSH2 0x73E PUSH1 0x1F DUP4 PUSH2 0x6FA JUMP JUMPDEST SWAP2 POP PUSH2 0x749 DUP3 PUSH2 0x70A JUMP JUMPDEST PUSH1 0x20 DUP3 ADD SWAP1 POP SWAP2 SWAP1 POP JUMP JUMPDEST PUSH0 PUSH1 0x20 DUP3 ADD SWAP1 POP DUP2 DUP2 SUB PUSH0 DUP4 ADD MSTORE PUSH2 0x76B DUP2 PUSH2 0x732 JUMP JUMPDEST SWAP1 POP SWAP2 SWAP1 POP JUMP JUMPDEST PUSH32 0x4E487B7100000000000000000000000000000000000000000000000000000000 PUSH0 MSTORE PUSH1 0x11 PUSH1 0x4 MSTORE PUSH1 0x24 PUSH0 REVERT JUMPDEST PUSH0 PUSH2 0x7A9 DUP3 PUSH2 0x621 JUMP JUMPDEST SWAP2 POP PUSH2 0x7B4 DUP4 PUSH2 0x621 JUMP JUMPDEST SWAP3 POP DUP3 DUP3 ADD SWAP1 POP DUP1 DUP3 GT ISZERO PUSH2 0x7CC JUMPI PUSH2 0x7CB PUSH2 0x772 JUMP JUMPDEST JUMPDEST SWAP3 SWAP2 POP POP JUMP JUMPDEST PUSH0 PUSH2 0x7DC DUP3 PUSH2 0x621 JUMP JUMPDEST SWAP2 POP PUSH2 0x7E7 DUP4 PUSH2 0x621 JUMP JUMPDEST SWAP3 POP DUP3 DUP3 SUB SWAP1 POP DUP2 DUP2 GT ISZERO PUSH2 0x7FF JUMPI PUSH2 0x7FE PUSH2 0x772 JUMP JUMPDEST JUMPDEST SWAP3 SWAP2 POP POP JUMP JUMPDEST PUSH32 0x496E73756666696369656E74207061796D656E742E0000000000000000000000 PUSH0 DUP3 ADD MSTORE POP JUMP JUMPDEST PUSH0 PUSH2 0x839 PUSH1 0x15 DUP4 PUSH2 0x6FA JUMP JUMPDEST SWAP2 POP PUSH2 0x844 DUP3 PUSH2 0x805 JUMP JUMPDEST PUSH1 0x20 DUP3 ADD SWAP1 POP SWAP2 SWAP1 POP JUMP JUMPDEST PUSH0 PUSH1 0x20 DUP3 ADD SWAP1 POP DUP2 DUP2 SUB PUSH0 DUP4 ADD MSTORE PUSH2 0x866 DUP2 PUSH2 0x82D JUMP JUMPDEST SWAP1 POP SWAP2 SWAP1 POP JUMP JUMPDEST PUSH32 0x54686520636172206D7573742062652064726976696E672E0000000000000000 PUSH0 DUP3 ADD MSTORE POP JUMP JUMPDEST PUSH0 PUSH2 0x8A1 PUSH1 0x18 DUP4 PUSH2 0x6FA JUMP JUMPDEST SWAP2 POP PUSH2 0x8AC DUP3 PUSH2 0x86D JUMP JUMPDEST PUSH1 0x20 DUP3 ADD SWAP1 POP SWAP2 SWAP1 POP JUMP JUMPDEST PUSH0 PUSH1 0x20 DUP3 ADD SWAP1 POP DUP2 DUP2 SUB PUSH0 DUP4 ADD MSTORE PUSH2 0x8CE DUP2 PUSH2 0x895 JUMP JUMPDEST SWAP1 POP SWAP2 SWAP1 POP JUMP JUMPDEST PUSH32 0x5468652063617220697320616C72656164792073746F707065642E0000000000 PUSH0 DUP3 ADD MSTORE POP JUMP JUMPDEST PUSH0 PUSH2 0x909 PUSH1 0x1B DUP4 PUSH2 0x6FA JUMP JUMPDEST SWAP2 POP PUSH2 0x914 DUP3 PUSH2 0x8D5 JUMP JUMPDEST PUSH1 0x20 DUP3 ADD SWAP1 POP SWAP2 SWAP1 POP JUMP JUMPDEST PUSH0 PUSH1 0x20 DUP3 ADD SWAP1 POP DUP2 DUP2 SUB PUSH0 DUP4 ADD MSTORE PUSH2 0x936 DUP2 PUSH2 0x8FD JUMP JUMPDEST SWAP1 POP SWAP2 SWAP1 POP JUMP JUMPDEST PUSH32 0x54686520636172206D7573742062652073746F7070656420746F207475726E20 PUSH0 DUP3 ADD MSTORE PUSH32 0x6F66662074686520656E67696E652E0000000000000000000000000000000000 PUSH1 0x20 DUP3 ADD MSTORE POP JUMP JUMPDEST PUSH0 PUSH2 0x997 PUSH1 0x2F DUP4 PUSH2 0x6FA JUMP JUMPDEST SWAP2 POP PUSH2 0x9A2 DUP3 PUSH2 0x93D JUMP JUMPDEST PUSH1 0x40 DUP3 ADD SWAP1 POP SWAP2 SWAP1 POP JUMP JUMPDEST PUSH0 PUSH1 0x20 DUP3 ADD SWAP1 POP DUP2 DUP2 SUB PUSH0 DUP4 ADD MSTORE PUSH2 0x9C4 DUP2 PUSH2 0x98B JUMP JUMPDEST SWAP1 POP SWAP2 SWAP1 POP JUMP JUMPDEST PUSH32 0x54686520636172206D7573742062652073746F7070656420746F207475726E20 PUSH0 DUP3 ADD MSTORE PUSH32 0x6F6E2074686520656E67696E652E000000000000000000000000000000000000 PUSH1 0x20 DUP3 ADD MSTORE POP JUMP JUMPDEST PUSH0 PUSH2 0xA25 PUSH1 0x2E DUP4 PUSH2 0x6FA JUMP JUMPDEST SWAP2 POP PUSH2 0xA30 DUP3 PUSH2 0x9CB JUMP JUMPDEST PUSH1 0x40 DUP3 ADD SWAP1 POP SWAP2 SWAP1 POP JUMP JUMPDEST PUSH0 PUSH1 0x20 DUP3 ADD SWAP1 POP DUP2 DUP2 SUB PUSH0 DUP4 ADD MSTORE PUSH2 0xA52 DUP2 PUSH2 0xA19 JUMP JUMPDEST SWAP1 POP SWAP2 SWAP1 POP JUMP JUMPDEST PUSH32 0x4E6F7420656E6F756768206675656C2E00000000000000000000000000000000 PUSH0 DUP3 ADD MSTORE POP JUMP JUMPDEST PUSH0 PUSH2 0xA8D PUSH1 0x10 DUP4 PUSH2 0x6FA JUMP JUMPDEST SWAP2 POP PUSH2 0xA98 DUP3 PUSH2 0xA59 JUMP JUMPDEST PUSH1 0x20 DUP3 ADD SWAP1 POP SWAP2 SWAP1 POP JUMP JUMPDEST PUSH0 PUSH1 0x20 DUP3 ADD SWAP1 POP DUP2 DUP2 SUB PUSH0 DUP4 ADD MSTORE PUSH2 0xABA DUP2 PUSH2 0xA81 JUMP JUMPDEST SWAP1 POP SWAP2 SWAP1 POP JUMP JUMPDEST PUSH32 0x537065656420697320746F6F20686967682E0000000000000000000000000000 PUSH0 DUP3 ADD MSTORE POP JUMP JUMPDEST PUSH0 PUSH2 0xAF5 PUSH1 0x12 DUP4 PUSH2 0x6FA JUMP JUMPDEST SWAP2 POP PUSH2 0xB00 DUP3 PUSH2 0xAC1 JUMP JUMPDEST PUSH1 0x20 DUP3 ADD SWAP1 POP SWAP2 SWAP1 POP JUMP JUMPDEST PUSH0 PUSH1 0x20 DUP3 ADD SWAP1 POP DUP2 DUP2 SUB PUSH0 DUP4 ADD MSTORE PUSH2 0xB22 DUP2 PUSH2 0xAE9 JUMP JUMPDEST SWAP1 POP SWAP2 SWAP1 POP JUMP INVALID LOG2 PUSH5 0x6970667358 0x22 SLT KECCAK256 DUP15 SSTORE BLOBHASH 0xDA 0xE1 0x4E CREATE 0xDB 0xC9 0xB7 CREATE CREATE 0xD PUSH1 0x5 XOR 0xF8 DUP9 DUP14 PUSH14 0xB9FE44C0795F83A657A4DAB6473 PUSH16 0x6C634300081A00330000000000000000 "
				},
				"gasEstimates": {
					"creation": {
						"codeDepositCost": "582200",
						"executionCost": "57064",
						"totalCost": "639264"
					},
					"external": {
						"accel()": "infinite",
						"brake()": "infinite",
						"charge()": "infinite",
						"myCar()": "infinite",
						"prepaidBalance()": "2492",
						"prepay()": "infinite",
						"turnOff()": "26670",
						"turnOn()": "31710"
					}
				},
				"methodIdentifiers": {
					"accel()": "f282df78",
					"brake()": "5642e2dc",
					"charge()": "55161913",
					"myCar()": "9cdde813",
					"prepaidBalance()": "5b04d6b6",
					"prepay()": "34fe1d1e",
					"turnOff()": "af10c810",
					"turnOn()": "ba33ed7d"
				}
			},
			"storageLayout": {
				"storage": [
					{
						"astId": 16,
						"contract": "cordingtest/cordingtest7.sol:Test7",
						"label": "myCar",
						"offset": 0,
						"slot": "0",
						"type": "t_struct(Car)13_storage"
					},
					{
						"astId": 18,
						"contract": "cordingtest/cordingtest7.sol:Test7",
						"label": "prepaidBalance",
						"offset": 0,
						"slot": "3",
						"type": "t_uint256"
					}
				],
				"types": {
					"t_enum(CarStatus)5": {
						"encoding": "inplace",
						"label": "enum Test7.CarStatus",
						"numberOfBytes": "1"
					},
					"t_struct(Car)13_storage": {
						"encoding": "inplace",
						"label": "struct Test7.Car",
						"members": [
							{
								"astId": 7,
								"contract": "cordingtest/cordingtest7.sol:Test7",
								"label": "speed",
								"offset": 0,
								"slot": "0",
								"type": "t_uint256"
							},
							{
								"astId": 9,
								"contract": "cordingtest/cordingtest7.sol:Test7",
								"label": "gas",
								"offset": 0,
								"slot": "1",
								"type": "t_uint256"
							},
							{
								"astId": 12,
								"contract": "cordingtest/cordingtest7.sol:Test7",
								"label": "status",
								"offset": 0,
								"slot": "2",
								"type": "t_enum(CarStatus)5"
							}
						],
						"numberOfBytes": "96"
					},
					"t_uint256": {
						"encoding": "inplace",
						"label": "uint256",
						"numberOfBytes": "32"
					}
				}
			},
			"userdoc": {
				"kind": "user",
				"methods": {},
				"version": 1
			}
		}
	}
}