{
	"cordingtest/cordingtest.sol": {
		"Test1": {
			"abi": [
				{
					"inputs": [
						{
							"internalType": "string",
							"name": "_name",
							"type": "string"
						},
						{
							"internalType": "uint256",
							"name": "_number",
							"type": "uint256"
						},
						{
							"internalType": "uint256",
							"name": "_score",
							"type": "uint256"
						}
					],
					"name": "addStudent",
					"outputs": [],
					"stateMutability": "nonpayable",
					"type": "function"
				},
				{
					"inputs": [
						{
							"internalType": "uint256",
							"name": "_score",
							"type": "uint256"
						}
					],
					"name": "calculateGrade",
					"outputs": [
						{
							"internalType": "string",
							"name": "",
							"type": "string"
						}
					],
					"stateMutability": "pure",
					"type": "function"
				},
				{
					"inputs": [],
					"name": "getStudentCount",
					"outputs": [
						{
							"internalType": "uint256",
							"name": "",
							"type": "uint256"
						}
					],
					"stateMutability": "view",
					"type": "function"
				},
				{
					"inputs": [
						{
							"internalType": "string",
							"name": "_name",
							"type": "string"
						}
					],
					"name": "getStudentName",
					"outputs": [
						{
							"internalType": "string",
							"name": "",
							"type": "string"
						},
						{
							"internalType": "uint256",
							"name": "",
							"type": "uint256"
						},
						{
							"internalType": "uint256",
							"name": "",
							"type": "uint256"
						},
						{
							"internalType": "string",
							"name": "",
							"type": "string"
						}
					],
					"stateMutability": "view",
					"type": "function"
				},
				{
					"inputs": [
						{
							"internalType": "uint256",
							"name": "",
							"type": "uint256"
						}
					],
					"name": "students",
					"outputs": [
						{
							"internalType": "string",
							"name": "name",
							"type": "string"
						},
						{
							"internalType": "uint256",
							"name": "number",
							"type": "uint256"
						},
						{
							"internalType": "uint256",
							"name": "score",
							"type": "uint256"
						},
						{
							"internalType": "string",
							"name": "grade",
							"type": "string"
						}
					],
					"stateMutability": "view",
					"type": "function"
				}
			],
			"devdoc": {
				"kind": "dev",
				"methods": {},
				"version": 1
			},
			"evm": {
				"assembly": "    /* \"cordingtest/cordingtest.sol\":72:1773  contract Test1 {... */\n  mstore(0x40, 0x80)\n  callvalue\n  dup1\n  iszero\n  tag_1\n  jumpi\n  0x00\n  dup1\n  revert\ntag_1:\n  pop\n  dataSize(sub_0)\n  dup1\n  dataOffset(sub_0)\n  0x00\n  codecopy\n  0x00\n  return\nstop\n\nsub_0: assembly {\n        /* \"cordingtest/cordingtest.sol\":72:1773  contract Test1 {... */\n      mstore(0x40, 0x80)\n      callvalue\n      dup1\n      iszero\n      tag_1\n      jumpi\n      0x00\n      dup1\n      revert\n    tag_1:\n      pop\n      jumpi(tag_2, lt(calldatasize, 0x04))\n      shr(0xe0, calldataload(0x00))\n      dup1\n      0x06ead22e\n      eq\n      tag_3\n      jumpi\n      dup1\n      0x3bf1a7d1\n      eq\n      tag_4\n      jumpi\n      dup1\n      0x41e0c407\n      eq\n      tag_5\n      jumpi\n      dup1\n      0x682ad06e\n      eq\n      tag_6\n      jumpi\n      dup1\n      0xf317d020\n      eq\n      tag_7\n      jumpi\n    tag_2:\n      0x00\n      dup1\n      revert\n        /* \"cordingtest/cordingtest.sol\":714:739  Student[] public students */\n    tag_3:\n      tag_8\n      0x04\n      dup1\n      calldatasize\n      sub\n      dup2\n      add\n      swap1\n      tag_9\n      swap2\n      swap1\n      tag_10\n      jump\t// in\n    tag_9:\n      tag_11\n      jump\t// in\n    tag_8:\n      mload(0x40)\n      tag_12\n      swap5\n      swap4\n      swap3\n      swap2\n      swap1\n      tag_13\n      jump\t// in\n    tag_12:\n      mload(0x40)\n      dup1\n      swap2\n      sub\n      swap1\n      return\n        /* \"cordingtest/cordingtest.sol\":747:1048  function calculateGrade(uint _score) public pure returns (string memory) {... */\n    tag_4:\n      tag_14\n      0x04\n      dup1\n      calldatasize\n      sub\n      dup2\n      add\n      swap1\n      tag_15\n      swap2\n      swap1\n      tag_10\n      jump\t// in\n    tag_15:\n      tag_16\n      jump\t// in\n    tag_14:\n      mload(0x40)\n      tag_17\n      swap2\n      swap1\n      tag_18\n      jump\t// in\n    tag_17:\n      mload(0x40)\n      dup1\n      swap2\n      sub\n      swap1\n      return\n        /* \"cordingtest/cordingtest.sol\":1261:1354  function getStudentCount() public view returns (uint) {... */\n    tag_5:\n      tag_19\n      tag_20\n      jump\t// in\n    tag_19:\n      mload(0x40)\n      tag_21\n      swap2\n      swap1\n      tag_22\n      jump\t// in\n    tag_21:\n      mload(0x40)\n      dup1\n      swap2\n      sub\n      swap1\n      return\n        /* \"cordingtest/cordingtest.sol\":1054:1255  function addStudent(string memory _name, uint _number, uint _score) public {... */\n    tag_6:\n      tag_23\n      0x04\n      dup1\n      calldatasize\n      sub\n      dup2\n      add\n      swap1\n      tag_24\n      swap2\n      swap1\n      tag_25\n      jump\t// in\n    tag_24:\n      tag_26\n      jump\t// in\n    tag_23:\n      stop\n        /* \"cordingtest/cordingtest.sol\":1360:1771  function getStudentName(string memory _name) public view returns (string memory, uint, uint, string memory) {... */\n    tag_7:\n      tag_27\n      0x04\n      dup1\n      calldatasize\n      sub\n      dup2\n      add\n      swap1\n      tag_28\n      swap2\n      swap1\n      tag_29\n      jump\t// in\n    tag_28:\n      tag_30\n      jump\t// in\n    tag_27:\n      mload(0x40)\n      tag_31\n      swap5\n      swap4\n      swap3\n      swap2\n      swap1\n      tag_13\n      jump\t// in\n    tag_31:\n      mload(0x40)\n      dup1\n      swap2\n      sub\n      swap1\n      return\n        /* \"cordingtest/cordingtest.sol\":714:739  Student[] public students */\n    tag_11:\n      0x00\n      dup2\n      dup2\n      sload\n      dup2\n      lt\n      tag_32\n      jumpi\n      0x00\n      dup1\n      revert\n    tag_32:\n      swap1\n      0x00\n      mstore\n      keccak256(0x00, 0x20)\n      swap1\n      0x04\n      mul\n      add\n      0x00\n      swap2\n      pop\n      swap1\n      pop\n      dup1\n      0x00\n      add\n      dup1\n      sload\n      tag_34\n      swap1\n      tag_35\n      jump\t// in\n    tag_34:\n      dup1\n      0x1f\n      add\n      0x20\n      dup1\n      swap2\n      div\n      mul\n      0x20\n      add\n      mload(0x40)\n      swap1\n      dup2\n      add\n      0x40\n      mstore\n      dup1\n      swap3\n      swap2\n      swap1\n      dup2\n      dup2\n      mstore\n      0x20\n      add\n      dup3\n      dup1\n      sload\n      tag_36\n      swap1\n      tag_35\n      jump\t// in\n    tag_36:\n      dup1\n      iszero\n      tag_37\n      jumpi\n      dup1\n      0x1f\n      lt\n      tag_38\n      jumpi\n      0x0100\n      dup1\n      dup4\n      sload\n      div\n      mul\n      dup4\n      mstore\n      swap2\n      0x20\n      add\n      swap2\n      jump(tag_37)\n    tag_38:\n      dup3\n      add\n      swap2\n      swap1\n      0x00\n      mstore\n      keccak256(0x00, 0x20)\n      swap1\n    tag_39:\n      dup2\n      sload\n      dup2\n      mstore\n      swap1\n      0x01\n      add\n      swap1\n      0x20\n      add\n      dup1\n      dup4\n      gt\n      tag_39\n      jumpi\n      dup3\n      swap1\n      sub\n      0x1f\n      and\n      dup3\n      add\n      swap2\n    tag_37:\n      pop\n      pop\n      pop\n      pop\n      pop\n      swap1\n      dup1\n      0x01\n      add\n      sload\n      swap1\n      dup1\n      0x02\n      add\n      sload\n      swap1\n      dup1\n      0x03\n      add\n      dup1\n      sload\n      tag_40\n      swap1\n      tag_35\n      jump\t// in\n    tag_40:\n      dup1\n      0x1f\n      add\n      0x20\n      dup1\n      swap2\n      div\n      mul\n      0x20\n      add\n      mload(0x40)\n      swap1\n      dup2\n      add\n      0x40\n      mstore\n      dup1\n      swap3\n      swap2\n      swap1\n      dup2\n      dup2\n      mstore\n      0x20\n      add\n      dup3\n      dup1\n      sload\n      tag_41\n      swap1\n      tag_35\n      jump\t// in\n    tag_41:\n      dup1\n      iszero\n      tag_42\n      jumpi\n      dup1\n      0x1f\n      lt\n      tag_43\n      jumpi\n      0x0100\n      dup1\n      dup4\n      sload\n      div\n      mul\n      dup4\n      mstore\n      swap2\n      0x20\n      add\n      swap2\n      jump(tag_42)\n    tag_43:\n      dup3\n      add\n      swap2\n      swap1\n      0x00\n      mstore\n      keccak256(0x00, 0x20)\n      swap1\n    tag_44:\n      dup2\n      sload\n      dup2\n      mstore\n      swap1\n      0x01\n      add\n      swap1\n      0x20\n      add\n      dup1\n      dup4\n      gt\n      tag_44\n      jumpi\n      dup3\n      swap1\n      sub\n      0x1f\n      and\n      dup3\n      add\n      swap2\n    tag_42:\n      pop\n      pop\n      pop\n      pop\n      pop\n      swap1\n      pop\n      dup5\n      jump\t// out\n        /* \"cordingtest/cordingtest.sol\":747:1048  function calculateGrade(uint _score) public pure returns (string memory) {... */\n    tag_16:\n        /* \"cordingtest/cordingtest.sol\":805:818  string memory */\n      0x60\n        /* \"cordingtest/cordingtest.sol\":844:846  90 */\n      0x5a\n        /* \"cordingtest/cordingtest.sol\":834:840  _score */\n      dup3\n        /* \"cordingtest/cordingtest.sol\":834:846  _score >= 90 */\n      lt\n        /* \"cordingtest/cordingtest.sol\":830:1042  if (_score >= 90) {... */\n      tag_46\n      jumpi\n        /* \"cordingtest/cordingtest.sol\":862:872  return \"A\" */\n      mload(0x40)\n      dup1\n      0x40\n      add\n      0x40\n      mstore\n      dup1\n      0x01\n      dup2\n      mstore\n      0x20\n      add\n      0x4100000000000000000000000000000000000000000000000000000000000000\n      dup2\n      mstore\n      pop\n      swap1\n      pop\n      jump(tag_45)\n        /* \"cordingtest/cordingtest.sol\":830:1042  if (_score >= 90) {... */\n    tag_46:\n        /* \"cordingtest/cordingtest.sol\":903:905  80 */\n      0x50\n        /* \"cordingtest/cordingtest.sol\":893:899  _score */\n      dup3\n        /* \"cordingtest/cordingtest.sol\":893:905  _score >= 80 */\n      lt\n        /* \"cordingtest/cordingtest.sol\":889:1042  if (_score >= 80) {... */\n      tag_48\n      jumpi\n        /* \"cordingtest/cordingtest.sol\":921:931  return \"B\" */\n      mload(0x40)\n      dup1\n      0x40\n      add\n      0x40\n      mstore\n      dup1\n      0x01\n      dup2\n      mstore\n      0x20\n      add\n      0x4200000000000000000000000000000000000000000000000000000000000000\n      dup2\n      mstore\n      pop\n      swap1\n      pop\n      jump(tag_45)\n        /* \"cordingtest/cordingtest.sol\":889:1042  if (_score >= 80) {... */\n    tag_48:\n        /* \"cordingtest/cordingtest.sol\":962:964  70 */\n      0x46\n        /* \"cordingtest/cordingtest.sol\":952:958  _score */\n      dup3\n        /* \"cordingtest/cordingtest.sol\":952:964  _score >= 70 */\n      lt\n        /* \"cordingtest/cordingtest.sol\":948:1042  if (_score >= 70) {... */\n      tag_50\n      jumpi\n        /* \"cordingtest/cordingtest.sol\":980:990  return \"C\" */\n      mload(0x40)\n      dup1\n      0x40\n      add\n      0x40\n      mstore\n      dup1\n      0x01\n      dup2\n      mstore\n      0x20\n      add\n      0x4300000000000000000000000000000000000000000000000000000000000000\n      dup2\n      mstore\n      pop\n      swap1\n      pop\n      jump(tag_45)\n        /* \"cordingtest/cordingtest.sol\":948:1042  if (_score >= 70) {... */\n    tag_50:\n        /* \"cordingtest/cordingtest.sol\":1021:1031  return \"F\" */\n      mload(0x40)\n      dup1\n      0x40\n      add\n      0x40\n      mstore\n      dup1\n      0x01\n      dup2\n      mstore\n      0x20\n      add\n      0x4600000000000000000000000000000000000000000000000000000000000000\n      dup2\n      mstore\n      pop\n      swap1\n      pop\n        /* \"cordingtest/cordingtest.sol\":747:1048  function calculateGrade(uint _score) public pure returns (string memory) {... */\n    tag_45:\n      swap2\n      swap1\n      pop\n      jump\t// out\n        /* \"cordingtest/cordingtest.sol\":1261:1354  function getStudentCount() public view returns (uint) {... */\n    tag_20:\n        /* \"cordingtest/cordingtest.sol\":1309:1313  uint */\n      0x00\n        /* \"cordingtest/cordingtest.sol\":1332:1340  students */\n      dup1\n        /* \"cordingtest/cordingtest.sol\":1332:1347  students.length */\n      dup1\n      sload\n      swap1\n      pop\n        /* \"cordingtest/cordingtest.sol\":1325:1347  return students.length */\n      swap1\n      pop\n        /* \"cordingtest/cordingtest.sol\":1261:1354  function getStudentCount() public view returns (uint) {... */\n      swap1\n      jump\t// out\n        /* \"cordingtest/cordingtest.sol\":1054:1255  function addStudent(string memory _name, uint _number, uint _score) public {... */\n    tag_26:\n        /* \"cordingtest/cordingtest.sol\":1139:1159  string memory _grade */\n      0x00\n        /* \"cordingtest/cordingtest.sol\":1162:1184  calculateGrade(_score) */\n      tag_54\n        /* \"cordingtest/cordingtest.sol\":1177:1183  _score */\n      dup3\n        /* \"cordingtest/cordingtest.sol\":1162:1176  calculateGrade */\n      tag_16\n        /* \"cordingtest/cordingtest.sol\":1162:1184  calculateGrade(_score) */\n      jump\t// in\n    tag_54:\n        /* \"cordingtest/cordingtest.sol\":1139:1184  string memory _grade = calculateGrade(_score) */\n      swap1\n      pop\n        /* \"cordingtest/cordingtest.sol\":1194:1202  students */\n      0x00\n        /* \"cordingtest/cordingtest.sol\":1208:1247  Student(_name, _number, _score, _grade) */\n      mload(0x40)\n      dup1\n      0x80\n      add\n      0x40\n      mstore\n      dup1\n        /* \"cordingtest/cordingtest.sol\":1216:1221  _name */\n      dup7\n        /* \"cordingtest/cordingtest.sol\":1208:1247  Student(_name, _number, _score, _grade) */\n      dup2\n      mstore\n      0x20\n      add\n        /* \"cordingtest/cordingtest.sol\":1223:1230  _number */\n      dup6\n        /* \"cordingtest/cordingtest.sol\":1208:1247  Student(_name, _number, _score, _grade) */\n      dup2\n      mstore\n      0x20\n      add\n        /* \"cordingtest/cordingtest.sol\":1232:1238  _score */\n      dup5\n        /* \"cordingtest/cordingtest.sol\":1208:1247  Student(_name, _number, _score, _grade) */\n      dup2\n      mstore\n      0x20\n      add\n        /* \"cordingtest/cordingtest.sol\":1240:1246  _grade */\n      dup4\n        /* \"cordingtest/cordingtest.sol\":1208:1247  Student(_name, _number, _score, _grade) */\n      dup2\n      mstore\n      pop\n        /* \"cordingtest/cordingtest.sol\":1194:1248  students.push(Student(_name, _number, _score, _grade)) */\n      swap1\n      dup1\n      0x01\n      dup2\n      sload\n      add\n      dup1\n      dup3\n      sstore\n      dup1\n      swap2\n      pop\n      pop\n      0x01\n      swap1\n      sub\n      swap1\n      0x00\n      mstore\n      keccak256(0x00, 0x20)\n      swap1\n      0x04\n      mul\n      add\n      0x00\n      swap1\n      swap2\n      swap1\n      swap2\n      swap1\n      swap2\n      pop\n      0x00\n      dup3\n      add\n      mload\n      dup2\n      0x00\n      add\n      swap1\n      dup2\n      tag_56\n      swap2\n      swap1\n      tag_57\n      jump\t// in\n    tag_56:\n      pop\n      0x20\n      dup3\n      add\n      mload\n      dup2\n      0x01\n      add\n      sstore\n      0x40\n      dup3\n      add\n      mload\n      dup2\n      0x02\n      add\n      sstore\n      0x60\n      dup3\n      add\n      mload\n      dup2\n      0x03\n      add\n      swap1\n      dup2\n      tag_58\n      swap2\n      swap1\n      tag_57\n      jump\t// in\n    tag_58:\n      pop\n      pop\n      pop\n        /* \"cordingtest/cordingtest.sol\":1129:1255  {... */\n      pop\n        /* \"cordingtest/cordingtest.sol\":1054:1255  function addStudent(string memory _name, uint _number, uint _score) public {... */\n      pop\n      pop\n      pop\n      jump\t// out\n        /* \"cordingtest/cordingtest.sol\":1360:1771  function getStudentName(string memory _name) public view returns (string memory, uint, uint, string memory) {... */\n    tag_30:\n        /* \"cordingtest/cordingtest.sol\":1426:1439  string memory */\n      0x60\n        /* \"cordingtest/cordingtest.sol\":1441:1445  uint */\n      0x00\n        /* \"cordingtest/cordingtest.sol\":1447:1451  uint */\n      dup1\n        /* \"cordingtest/cordingtest.sol\":1453:1466  string memory */\n      0x60\n        /* \"cordingtest/cordingtest.sol\":1483:1489  uint i */\n      0x00\n        /* \"cordingtest/cordingtest.sol\":1478:1728  for (uint i = 0; i < students.length; i++) {... */\n    tag_60:\n        /* \"cordingtest/cordingtest.sol\":1499:1507  students */\n      0x00\n        /* \"cordingtest/cordingtest.sol\":1499:1514  students.length */\n      dup1\n      sload\n      swap1\n      pop\n        /* \"cordingtest/cordingtest.sol\":1495:1496  i */\n      dup2\n        /* \"cordingtest/cordingtest.sol\":1495:1514  i < students.length */\n      lt\n        /* \"cordingtest/cordingtest.sol\":1478:1728  for (uint i = 0; i < students.length; i++) {... */\n      iszero\n      tag_61\n      jumpi\n        /* \"cordingtest/cordingtest.sol\":1593:1598  _name */\n      dup6\n        /* \"cordingtest/cordingtest.sol\":1577:1600  keccak256(bytes(_name)) */\n      dup1\n      mload\n      swap1\n      0x20\n      add\n      keccak256\n        /* \"cordingtest/cordingtest.sol\":1555:1563  students */\n      0x00\n        /* \"cordingtest/cordingtest.sol\":1564:1565  i */\n      dup3\n        /* \"cordingtest/cordingtest.sol\":1555:1566  students[i] */\n      dup2\n      sload\n      dup2\n      lt\n      tag_63\n      jumpi\n      tag_64\n      tag_65\n      jump\t// in\n    tag_64:\n    tag_63:\n      swap1\n      0x00\n      mstore\n      keccak256(0x00, 0x20)\n      swap1\n      0x04\n      mul\n      add\n        /* \"cordingtest/cordingtest.sol\":1555:1571  students[i].name */\n      0x00\n      add\n        /* \"cordingtest/cordingtest.sol\":1539:1573  keccak256(bytes(students[i].name)) */\n      mload(0x40)\n      tag_67\n      swap2\n      swap1\n      tag_68\n      jump\t// in\n    tag_67:\n      mload(0x40)\n      dup1\n      swap2\n      sub\n      swap1\n      keccak256\n        /* \"cordingtest/cordingtest.sol\":1539:1600  keccak256(bytes(students[i].name)) == keccak256(bytes(_name)) */\n      sub\n        /* \"cordingtest/cordingtest.sol\":1535:1718  if (keccak256(bytes(students[i].name)) == keccak256(bytes(_name))) {... */\n      tag_69\n      jumpi\n        /* \"cordingtest/cordingtest.sol\":1628:1636  students */\n      0x00\n        /* \"cordingtest/cordingtest.sol\":1637:1638  i */\n      dup2\n        /* \"cordingtest/cordingtest.sol\":1628:1639  students[i] */\n      dup2\n      sload\n      dup2\n      lt\n      tag_70\n      jumpi\n      tag_71\n      tag_65\n      jump\t// in\n    tag_71:\n    tag_70:\n      swap1\n      0x00\n      mstore\n      keccak256(0x00, 0x20)\n      swap1\n      0x04\n      mul\n      add\n        /* \"cordingtest/cordingtest.sol\":1628:1644  students[i].name */\n      0x00\n      add\n        /* \"cordingtest/cordingtest.sol\":1646:1654  students */\n      0x00\n        /* \"cordingtest/cordingtest.sol\":1655:1656  i */\n      dup3\n        /* \"cordingtest/cordingtest.sol\":1646:1657  students[i] */\n      dup2\n      sload\n      dup2\n      lt\n      tag_73\n      jumpi\n      tag_74\n      tag_65\n      jump\t// in\n    tag_74:\n    tag_73:\n      swap1\n      0x00\n      mstore\n      keccak256(0x00, 0x20)\n      swap1\n      0x04\n      mul\n      add\n        /* \"cordingtest/cordingtest.sol\":1646:1664  students[i].number */\n      0x01\n      add\n      sload\n        /* \"cordingtest/cordingtest.sol\":1666:1674  students */\n      0x00\n        /* \"cordingtest/cordingtest.sol\":1675:1676  i */\n      dup4\n        /* \"cordingtest/cordingtest.sol\":1666:1677  students[i] */\n      dup2\n      sload\n      dup2\n      lt\n      tag_76\n      jumpi\n      tag_77\n      tag_65\n      jump\t// in\n    tag_77:\n    tag_76:\n      swap1\n      0x00\n      mstore\n      keccak256(0x00, 0x20)\n      swap1\n      0x04\n      mul\n      add\n        /* \"cordingtest/cordingtest.sol\":1666:1683  students[i].score */\n      0x02\n      add\n      sload\n        /* \"cordingtest/cordingtest.sol\":1685:1693  students */\n      0x00\n        /* \"cordingtest/cordingtest.sol\":1694:1695  i */\n      dup5\n        /* \"cordingtest/cordingtest.sol\":1685:1696  students[i] */\n      dup2\n      sload\n      dup2\n      lt\n      tag_79\n      jumpi\n      tag_80\n      tag_65\n      jump\t// in\n    tag_80:\n    tag_79:\n      swap1\n      0x00\n      mstore\n      keccak256(0x00, 0x20)\n      swap1\n      0x04\n      mul\n      add\n        /* \"cordingtest/cordingtest.sol\":1685:1702  students[i].grade */\n      0x03\n      add\n        /* \"cordingtest/cordingtest.sol\":1620:1703  return (students[i].name, students[i].number, students[i].score, students[i].grade) */\n      dup4\n      dup1\n      sload\n      tag_82\n      swap1\n      tag_35\n      jump\t// in\n    tag_82:\n      dup1\n      0x1f\n      add\n      0x20\n      dup1\n      swap2\n      div\n      mul\n      0x20\n      add\n      mload(0x40)\n      swap1\n      dup2\n      add\n      0x40\n      mstore\n      dup1\n      swap3\n      swap2\n      swap1\n      dup2\n      dup2\n      mstore\n      0x20\n      add\n      dup3\n      dup1\n      sload\n      tag_83\n      swap1\n      tag_35\n      jump\t// in\n    tag_83:\n      dup1\n      iszero\n      tag_84\n      jumpi\n      dup1\n      0x1f\n      lt\n      tag_85\n      jumpi\n      0x0100\n      dup1\n      dup4\n      sload\n      div\n      mul\n      dup4\n      mstore\n      swap2\n      0x20\n      add\n      swap2\n      jump(tag_84)\n    tag_85:\n      dup3\n      add\n      swap2\n      swap1\n      0x00\n      mstore\n      keccak256(0x00, 0x20)\n      swap1\n    tag_86:\n      dup2\n      sload\n      dup2\n      mstore\n      swap1\n      0x01\n      add\n      swap1\n      0x20\n      add\n      dup1\n      dup4\n      gt\n      tag_86\n      jumpi\n      dup3\n      swap1\n      sub\n      0x1f\n      and\n      dup3\n      add\n      swap2\n    tag_84:\n      pop\n      pop\n      pop\n      pop\n      pop\n      swap4\n      pop\n      dup1\n      dup1\n      sload\n      tag_87\n      swap1\n      tag_35\n      jump\t// in\n    tag_87:\n      dup1\n      0x1f\n      add\n      0x20\n      dup1\n      swap2\n      div\n      mul\n      0x20\n      add\n      mload(0x40)\n      swap1\n      dup2\n      add\n      0x40\n      mstore\n      dup1\n      swap3\n      swap2\n      swap1\n      dup2\n      dup2\n      mstore\n      0x20\n      add\n      dup3\n      dup1\n      sload\n      tag_88\n      swap1\n      tag_35\n      jump\t// in\n    tag_88:\n      dup1\n      iszero\n      tag_89\n      jumpi\n      dup1\n      0x1f\n      lt\n      tag_90\n      jumpi\n      0x0100\n      dup1\n      dup4\n      sload\n      div\n      mul\n      dup4\n      mstore\n      swap2\n      0x20\n      add\n      swap2\n      jump(tag_89)\n    tag_90:\n      dup3\n      add\n      swap2\n      swap1\n      0x00\n      mstore\n      keccak256(0x00, 0x20)\n      swap1\n    tag_91:\n      dup2\n      sload\n      dup2\n      mstore\n      swap1\n      0x01\n      add\n      swap1\n      0x20\n      add\n      dup1\n      dup4\n      gt\n      tag_91\n      jumpi\n      dup3\n      swap1\n      sub\n      0x1f\n      and\n      dup3\n      add\n      swap2\n    tag_89:\n      pop\n      pop\n      pop\n      pop\n      pop\n      swap1\n      pop\n      swap5\n      pop\n      swap5\n      pop\n      swap5\n      pop\n      swap5\n      pop\n      pop\n      jump(tag_59)\n        /* \"cordingtest/cordingtest.sol\":1535:1718  if (keccak256(bytes(students[i].name)) == keccak256(bytes(_name))) {... */\n    tag_69:\n        /* \"cordingtest/cordingtest.sol\":1516:1519  i++ */\n      dup1\n      dup1\n      0x01\n      add\n      swap2\n      pop\n      pop\n        /* \"cordingtest/cordingtest.sol\":1478:1728  for (uint i = 0; i < students.length; i++) {... */\n      jump(tag_60)\n    tag_61:\n      pop\n        /* \"cordingtest/cordingtest.sol\":1737:1764  revert(\"Student not found\") */\n      mload(0x40)\n      0x08c379a000000000000000000000000000000000000000000000000000000000\n      dup2\n      mstore\n      0x04\n      add\n      tag_92\n      swap1\n      tag_93\n      jump\t// in\n    tag_92:\n      mload(0x40)\n      dup1\n      swap2\n      sub\n      swap1\n      revert\n        /* \"cordingtest/cordingtest.sol\":1360:1771  function getStudentName(string memory _name) public view returns (string memory, uint, uint, string memory) {... */\n    tag_59:\n      swap2\n      swap4\n      pop\n      swap2\n      swap4\n      jump\t// out\n        /* \"#utility.yul\":7:82   */\n    tag_94:\n        /* \"#utility.yul\":40:46   */\n      0x00\n        /* \"#utility.yul\":73:75   */\n      0x40\n        /* \"#utility.yul\":67:76   */\n      mload\n        /* \"#utility.yul\":57:76   */\n      swap1\n      pop\n        /* \"#utility.yul\":7:82   */\n      swap1\n      jump\t// out\n        /* \"#utility.yul\":88:205   */\n    tag_95:\n        /* \"#utility.yul\":197:198   */\n      0x00\n        /* \"#utility.yul\":194:195   */\n      dup1\n        /* \"#utility.yul\":187:199   */\n      revert\n        /* \"#utility.yul\":211:328   */\n    tag_96:\n        /* \"#utility.yul\":320:321   */\n      0x00\n        /* \"#utility.yul\":317:318   */\n      dup1\n        /* \"#utility.yul\":310:322   */\n      revert\n        /* \"#utility.yul\":334:411   */\n    tag_97:\n        /* \"#utility.yul\":371:378   */\n      0x00\n        /* \"#utility.yul\":400:405   */\n      dup2\n        /* \"#utility.yul\":389:405   */\n      swap1\n      pop\n        /* \"#utility.yul\":334:411   */\n      swap2\n      swap1\n      pop\n      jump\t// out\n        /* \"#utility.yul\":417:539   */\n    tag_98:\n        /* \"#utility.yul\":490:514   */\n      tag_142\n        /* \"#utility.yul\":508:513   */\n      dup2\n        /* \"#utility.yul\":490:514   */\n      tag_97\n      jump\t// in\n    tag_142:\n        /* \"#utility.yul\":483:488   */\n      dup2\n        /* \"#utility.yul\":480:515   */\n      eq\n        /* \"#utility.yul\":470:533   */\n      tag_143\n      jumpi\n        /* \"#utility.yul\":529:530   */\n      0x00\n        /* \"#utility.yul\":526:527   */\n      dup1\n        /* \"#utility.yul\":519:531   */\n      revert\n        /* \"#utility.yul\":470:533   */\n    tag_143:\n        /* \"#utility.yul\":417:539   */\n      pop\n      jump\t// out\n        /* \"#utility.yul\":545:684   */\n    tag_99:\n        /* \"#utility.yul\":591:596   */\n      0x00\n        /* \"#utility.yul\":629:635   */\n      dup2\n        /* \"#utility.yul\":616:636   */\n      calldataload\n        /* \"#utility.yul\":607:636   */\n      swap1\n      pop\n        /* \"#utility.yul\":645:678   */\n      tag_145\n        /* \"#utility.yul\":672:677   */\n      dup2\n        /* \"#utility.yul\":645:678   */\n      tag_98\n      jump\t// in\n    tag_145:\n        /* \"#utility.yul\":545:684   */\n      swap3\n      swap2\n      pop\n      pop\n      jump\t// out\n        /* \"#utility.yul\":690:1019   */\n    tag_10:\n        /* \"#utility.yul\":749:755   */\n      0x00\n        /* \"#utility.yul\":798:800   */\n      0x20\n        /* \"#utility.yul\":786:795   */\n      dup3\n        /* \"#utility.yul\":777:784   */\n      dup5\n        /* \"#utility.yul\":773:796   */\n      sub\n        /* \"#utility.yul\":769:801   */\n      slt\n        /* \"#utility.yul\":766:885   */\n      iszero\n      tag_147\n      jumpi\n        /* \"#utility.yul\":804:883   */\n      tag_148\n      tag_95\n      jump\t// in\n    tag_148:\n        /* \"#utility.yul\":766:885   */\n    tag_147:\n        /* \"#utility.yul\":924:925   */\n      0x00\n        /* \"#utility.yul\":949:1002   */\n      tag_149\n        /* \"#utility.yul\":994:1001   */\n      dup5\n        /* \"#utility.yul\":985:991   */\n      dup3\n        /* \"#utility.yul\":974:983   */\n      dup6\n        /* \"#utility.yul\":970:992   */\n      add\n        /* \"#utility.yul\":949:1002   */\n      tag_99\n      jump\t// in\n    tag_149:\n        /* \"#utility.yul\":939:1002   */\n      swap2\n      pop\n        /* \"#utility.yul\":895:1012   */\n      pop\n        /* \"#utility.yul\":690:1019   */\n      swap3\n      swap2\n      pop\n      pop\n      jump\t// out\n        /* \"#utility.yul\":1025:1124   */\n    tag_100:\n        /* \"#utility.yul\":1077:1083   */\n      0x00\n        /* \"#utility.yul\":1111:1116   */\n      dup2\n        /* \"#utility.yul\":1105:1117   */\n      mload\n        /* \"#utility.yul\":1095:1117   */\n      swap1\n      pop\n        /* \"#utility.yul\":1025:1124   */\n      swap2\n      swap1\n      pop\n      jump\t// out\n        /* \"#utility.yul\":1130:1299   */\n    tag_101:\n        /* \"#utility.yul\":1214:1225   */\n      0x00\n        /* \"#utility.yul\":1248:1254   */\n      dup3\n        /* \"#utility.yul\":1243:1246   */\n      dup3\n        /* \"#utility.yul\":1236:1255   */\n      mstore\n        /* \"#utility.yul\":1288:1292   */\n      0x20\n        /* \"#utility.yul\":1283:1286   */\n      dup3\n        /* \"#utility.yul\":1279:1293   */\n      add\n        /* \"#utility.yul\":1264:1293   */\n      swap1\n      pop\n        /* \"#utility.yul\":1130:1299   */\n      swap3\n      swap2\n      pop\n      pop\n      jump\t// out\n        /* \"#utility.yul\":1305:1444   */\n    tag_102:\n        /* \"#utility.yul\":1394:1400   */\n      dup3\n        /* \"#utility.yul\":1389:1392   */\n      dup2\n        /* \"#utility.yul\":1384:1387   */\n      dup4\n        /* \"#utility.yul\":1378:1401   */\n      mcopy\n        /* \"#utility.yul\":1435:1436   */\n      0x00\n        /* \"#utility.yul\":1426:1432   */\n      dup4\n        /* \"#utility.yul\":1421:1424   */\n      dup4\n        /* \"#utility.yul\":1417:1433   */\n      add\n        /* \"#utility.yul\":1410:1437   */\n      mstore\n        /* \"#utility.yul\":1305:1444   */\n      pop\n      pop\n      pop\n      jump\t// out\n        /* \"#utility.yul\":1450:1552   */\n    tag_103:\n        /* \"#utility.yul\":1491:1497   */\n      0x00\n        /* \"#utility.yul\":1542:1544   */\n      0x1f\n        /* \"#utility.yul\":1538:1545   */\n      not\n        /* \"#utility.yul\":1533:1535   */\n      0x1f\n        /* \"#utility.yul\":1526:1531   */\n      dup4\n        /* \"#utility.yul\":1522:1536   */\n      add\n        /* \"#utility.yul\":1518:1546   */\n      and\n        /* \"#utility.yul\":1508:1546   */\n      swap1\n      pop\n        /* \"#utility.yul\":1450:1552   */\n      swap2\n      swap1\n      pop\n      jump\t// out\n        /* \"#utility.yul\":1558:1935   */\n    tag_104:\n        /* \"#utility.yul\":1646:1649   */\n      0x00\n        /* \"#utility.yul\":1674:1713   */\n      tag_155\n        /* \"#utility.yul\":1707:1712   */\n      dup3\n        /* \"#utility.yul\":1674:1713   */\n      tag_100\n      jump\t// in\n    tag_155:\n        /* \"#utility.yul\":1729:1800   */\n      tag_156\n        /* \"#utility.yul\":1793:1799   */\n      dup2\n        /* \"#utility.yul\":1788:1791   */\n      dup6\n        /* \"#utility.yul\":1729:1800   */\n      tag_101\n      jump\t// in\n    tag_156:\n        /* \"#utility.yul\":1722:1800   */\n      swap4\n      pop\n        /* \"#utility.yul\":1809:1874   */\n      tag_157\n        /* \"#utility.yul\":1867:1873   */\n      dup2\n        /* \"#utility.yul\":1862:1865   */\n      dup6\n        /* \"#utility.yul\":1855:1859   */\n      0x20\n        /* \"#utility.yul\":1848:1853   */\n      dup7\n        /* \"#utility.yul\":1844:1860   */\n      add\n        /* \"#utility.yul\":1809:1874   */\n      tag_102\n      jump\t// in\n    tag_157:\n        /* \"#utility.yul\":1899:1928   */\n      tag_158\n        /* \"#utility.yul\":1921:1927   */\n      dup2\n        /* \"#utility.yul\":1899:1928   */\n      tag_103\n      jump\t// in\n    tag_158:\n        /* \"#utility.yul\":1894:1897   */\n      dup5\n        /* \"#utility.yul\":1890:1929   */\n      add\n        /* \"#utility.yul\":1883:1929   */\n      swap2\n      pop\n        /* \"#utility.yul\":1650:1935   */\n      pop\n        /* \"#utility.yul\":1558:1935   */\n      swap3\n      swap2\n      pop\n      pop\n      jump\t// out\n        /* \"#utility.yul\":1941:2059   */\n    tag_105:\n        /* \"#utility.yul\":2028:2052   */\n      tag_160\n        /* \"#utility.yul\":2046:2051   */\n      dup2\n        /* \"#utility.yul\":2028:2052   */\n      tag_97\n      jump\t// in\n    tag_160:\n        /* \"#utility.yul\":2023:2026   */\n      dup3\n        /* \"#utility.yul\":2016:2053   */\n      mstore\n        /* \"#utility.yul\":1941:2059   */\n      pop\n      pop\n      jump\t// out\n        /* \"#utility.yul\":2065:2800   */\n    tag_13:\n        /* \"#utility.yul\":2282:2286   */\n      0x00\n        /* \"#utility.yul\":2320:2323   */\n      0x80\n        /* \"#utility.yul\":2309:2318   */\n      dup3\n        /* \"#utility.yul\":2305:2324   */\n      add\n        /* \"#utility.yul\":2297:2324   */\n      swap1\n      pop\n        /* \"#utility.yul\":2370:2379   */\n      dup2\n        /* \"#utility.yul\":2364:2368   */\n      dup2\n        /* \"#utility.yul\":2360:2380   */\n      sub\n        /* \"#utility.yul\":2356:2357   */\n      0x00\n        /* \"#utility.yul\":2345:2354   */\n      dup4\n        /* \"#utility.yul\":2341:2358   */\n      add\n        /* \"#utility.yul\":2334:2381   */\n      mstore\n        /* \"#utility.yul\":2398:2476   */\n      tag_162\n        /* \"#utility.yul\":2471:2475   */\n      dup2\n        /* \"#utility.yul\":2462:2468   */\n      dup8\n        /* \"#utility.yul\":2398:2476   */\n      tag_104\n      jump\t// in\n    tag_162:\n        /* \"#utility.yul\":2390:2476   */\n      swap1\n      pop\n        /* \"#utility.yul\":2486:2558   */\n      tag_163\n        /* \"#utility.yul\":2554:2556   */\n      0x20\n        /* \"#utility.yul\":2543:2552   */\n      dup4\n        /* \"#utility.yul\":2539:2557   */\n      add\n        /* \"#utility.yul\":2530:2536   */\n      dup7\n        /* \"#utility.yul\":2486:2558   */\n      tag_105\n      jump\t// in\n    tag_163:\n        /* \"#utility.yul\":2568:2640   */\n      tag_164\n        /* \"#utility.yul\":2636:2638   */\n      0x40\n        /* \"#utility.yul\":2625:2634   */\n      dup4\n        /* \"#utility.yul\":2621:2639   */\n      add\n        /* \"#utility.yul\":2612:2618   */\n      dup6\n        /* \"#utility.yul\":2568:2640   */\n      tag_105\n      jump\t// in\n    tag_164:\n        /* \"#utility.yul\":2687:2696   */\n      dup2\n        /* \"#utility.yul\":2681:2685   */\n      dup2\n        /* \"#utility.yul\":2677:2697   */\n      sub\n        /* \"#utility.yul\":2672:2674   */\n      0x60\n        /* \"#utility.yul\":2661:2670   */\n      dup4\n        /* \"#utility.yul\":2657:2675   */\n      add\n        /* \"#utility.yul\":2650:2698   */\n      mstore\n        /* \"#utility.yul\":2715:2793   */\n      tag_165\n        /* \"#utility.yul\":2788:2792   */\n      dup2\n        /* \"#utility.yul\":2779:2785   */\n      dup5\n        /* \"#utility.yul\":2715:2793   */\n      tag_104\n      jump\t// in\n    tag_165:\n        /* \"#utility.yul\":2707:2793   */\n      swap1\n      pop\n        /* \"#utility.yul\":2065:2800   */\n      swap6\n      swap5\n      pop\n      pop\n      pop\n      pop\n      pop\n      jump\t// out\n        /* \"#utility.yul\":2806:3119   */\n    tag_18:\n        /* \"#utility.yul\":2919:2923   */\n      0x00\n        /* \"#utility.yul\":2957:2959   */\n      0x20\n        /* \"#utility.yul\":2946:2955   */\n      dup3\n        /* \"#utility.yul\":2942:2960   */\n      add\n        /* \"#utility.yul\":2934:2960   */\n      swap1\n      pop\n        /* \"#utility.yul\":3006:3015   */\n      dup2\n        /* \"#utility.yul\":3000:3004   */\n      dup2\n        /* \"#utility.yul\":2996:3016   */\n      sub\n        /* \"#utility.yul\":2992:2993   */\n      0x00\n        /* \"#utility.yul\":2981:2990   */\n      dup4\n        /* \"#utility.yul\":2977:2994   */\n      add\n        /* \"#utility.yul\":2970:3017   */\n      mstore\n        /* \"#utility.yul\":3034:3112   */\n      tag_167\n        /* \"#utility.yul\":3107:3111   */\n      dup2\n        /* \"#utility.yul\":3098:3104   */\n      dup5\n        /* \"#utility.yul\":3034:3112   */\n      tag_104\n      jump\t// in\n    tag_167:\n        /* \"#utility.yul\":3026:3112   */\n      swap1\n      pop\n        /* \"#utility.yul\":2806:3119   */\n      swap3\n      swap2\n      pop\n      pop\n      jump\t// out\n        /* \"#utility.yul\":3125:3347   */\n    tag_22:\n        /* \"#utility.yul\":3218:3222   */\n      0x00\n        /* \"#utility.yul\":3256:3258   */\n      0x20\n        /* \"#utility.yul\":3245:3254   */\n      dup3\n        /* \"#utility.yul\":3241:3259   */\n      add\n        /* \"#utility.yul\":3233:3259   */\n      swap1\n      pop\n        /* \"#utility.yul\":3269:3340   */\n      tag_169\n        /* \"#utility.yul\":3337:3338   */\n      0x00\n        /* \"#utility.yul\":3326:3335   */\n      dup4\n        /* \"#utility.yul\":3322:3339   */\n      add\n        /* \"#utility.yul\":3313:3319   */\n      dup5\n        /* \"#utility.yul\":3269:3340   */\n      tag_105\n      jump\t// in\n    tag_169:\n        /* \"#utility.yul\":3125:3347   */\n      swap3\n      swap2\n      pop\n      pop\n      jump\t// out\n        /* \"#utility.yul\":3353:3470   */\n    tag_106:\n        /* \"#utility.yul\":3462:3463   */\n      0x00\n        /* \"#utility.yul\":3459:3460   */\n      dup1\n        /* \"#utility.yul\":3452:3464   */\n      revert\n        /* \"#utility.yul\":3476:3593   */\n    tag_107:\n        /* \"#utility.yul\":3585:3586   */\n      0x00\n        /* \"#utility.yul\":3582:3583   */\n      dup1\n        /* \"#utility.yul\":3575:3587   */\n      revert\n        /* \"#utility.yul\":3599:3779   */\n    tag_108:\n        /* \"#utility.yul\":3647:3724   */\n      0x4e487b7100000000000000000000000000000000000000000000000000000000\n        /* \"#utility.yul\":3644:3645   */\n      0x00\n        /* \"#utility.yul\":3637:3725   */\n      mstore\n        /* \"#utility.yul\":3744:3748   */\n      0x41\n        /* \"#utility.yul\":3741:3742   */\n      0x04\n        /* \"#utility.yul\":3734:3749   */\n      mstore\n        /* \"#utility.yul\":3768:3772   */\n      0x24\n        /* \"#utility.yul\":3765:3766   */\n      0x00\n        /* \"#utility.yul\":3758:3773   */\n      revert\n        /* \"#utility.yul\":3785:4066   */\n    tag_109:\n        /* \"#utility.yul\":3868:3895   */\n      tag_174\n        /* \"#utility.yul\":3890:3894   */\n      dup3\n        /* \"#utility.yul\":3868:3895   */\n      tag_103\n      jump\t// in\n    tag_174:\n        /* \"#utility.yul\":3860:3866   */\n      dup2\n        /* \"#utility.yul\":3856:3896   */\n      add\n        /* \"#utility.yul\":3998:4004   */\n      dup2\n        /* \"#utility.yul\":3986:3996   */\n      dup2\n        /* \"#utility.yul\":3983:4005   */\n      lt\n        /* \"#utility.yul\":3962:3980   */\n      0xffffffffffffffff\n        /* \"#utility.yul\":3950:3960   */\n      dup3\n        /* \"#utility.yul\":3947:3981   */\n      gt\n        /* \"#utility.yul\":3944:4006   */\n      or\n        /* \"#utility.yul\":3941:4029   */\n      iszero\n      tag_175\n      jumpi\n        /* \"#utility.yul\":4009:4027   */\n      tag_176\n      tag_108\n      jump\t// in\n    tag_176:\n        /* \"#utility.yul\":3941:4029   */\n    tag_175:\n        /* \"#utility.yul\":4049:4059   */\n      dup1\n        /* \"#utility.yul\":4045:4047   */\n      0x40\n        /* \"#utility.yul\":4038:4060   */\n      mstore\n        /* \"#utility.yul\":3828:4066   */\n      pop\n        /* \"#utility.yul\":3785:4066   */\n      pop\n      pop\n      jump\t// out\n        /* \"#utility.yul\":4072:4201   */\n    tag_110:\n        /* \"#utility.yul\":4106:4112   */\n      0x00\n        /* \"#utility.yul\":4133:4153   */\n      tag_178\n      tag_94\n      jump\t// in\n    tag_178:\n        /* \"#utility.yul\":4123:4153   */\n      swap1\n      pop\n        /* \"#utility.yul\":4162:4195   */\n      tag_179\n        /* \"#utility.yul\":4190:4194   */\n      dup3\n        /* \"#utility.yul\":4182:4188   */\n      dup3\n        /* \"#utility.yul\":4162:4195   */\n      tag_109\n      jump\t// in\n    tag_179:\n        /* \"#utility.yul\":4072:4201   */\n      swap2\n      swap1\n      pop\n      jump\t// out\n        /* \"#utility.yul\":4207:4515   */\n    tag_111:\n        /* \"#utility.yul\":4269:4273   */\n      0x00\n        /* \"#utility.yul\":4359:4377   */\n      0xffffffffffffffff\n        /* \"#utility.yul\":4351:4357   */\n      dup3\n        /* \"#utility.yul\":4348:4378   */\n      gt\n        /* \"#utility.yul\":4345:4401   */\n      iszero\n      tag_181\n      jumpi\n        /* \"#utility.yul\":4381:4399   */\n      tag_182\n      tag_108\n      jump\t// in\n    tag_182:\n        /* \"#utility.yul\":4345:4401   */\n    tag_181:\n        /* \"#utility.yul\":4419:4448   */\n      tag_183\n        /* \"#utility.yul\":4441:4447   */\n      dup3\n        /* \"#utility.yul\":4419:4448   */\n      tag_103\n      jump\t// in\n    tag_183:\n        /* \"#utility.yul\":4411:4448   */\n      swap1\n      pop\n        /* \"#utility.yul\":4503:4507   */\n      0x20\n        /* \"#utility.yul\":4497:4501   */\n      dup2\n        /* \"#utility.yul\":4493:4508   */\n      add\n        /* \"#utility.yul\":4485:4508   */\n      swap1\n      pop\n        /* \"#utility.yul\":4207:4515   */\n      swap2\n      swap1\n      pop\n      jump\t// out\n        /* \"#utility.yul\":4521:4669   */\n    tag_112:\n        /* \"#utility.yul\":4619:4625   */\n      dup3\n        /* \"#utility.yul\":4614:4617   */\n      dup2\n        /* \"#utility.yul\":4609:4612   */\n      dup4\n        /* \"#utility.yul\":4596:4626   */\n      calldatacopy\n        /* \"#utility.yul\":4660:4661   */\n      0x00\n        /* \"#utility.yul\":4651:4657   */\n      dup4\n        /* \"#utility.yul\":4646:4649   */\n      dup4\n        /* \"#utility.yul\":4642:4658   */\n      add\n        /* \"#utility.yul\":4635:4662   */\n      mstore\n        /* \"#utility.yul\":4521:4669   */\n      pop\n      pop\n      pop\n      jump\t// out\n        /* \"#utility.yul\":4675:5100   */\n    tag_113:\n        /* \"#utility.yul\":4753:4758   */\n      0x00\n        /* \"#utility.yul\":4778:4844   */\n      tag_186\n        /* \"#utility.yul\":4794:4843   */\n      tag_187\n        /* \"#utility.yul\":4836:4842   */\n      dup5\n        /* \"#utility.yul\":4794:4843   */\n      tag_111\n      jump\t// in\n    tag_187:\n        /* \"#utility.yul\":4778:4844   */\n      tag_110\n      jump\t// in\n    tag_186:\n        /* \"#utility.yul\":4769:4844   */\n      swap1\n      pop\n        /* \"#utility.yul\":4867:4873   */\n      dup3\n        /* \"#utility.yul\":4860:4865   */\n      dup2\n        /* \"#utility.yul\":4853:4874   */\n      mstore\n        /* \"#utility.yul\":4905:4909   */\n      0x20\n        /* \"#utility.yul\":4898:4903   */\n      dup2\n        /* \"#utility.yul\":4894:4910   */\n      add\n        /* \"#utility.yul\":4943:4946   */\n      dup5\n        /* \"#utility.yul\":4934:4940   */\n      dup5\n        /* \"#utility.yul\":4929:4932   */\n      dup5\n        /* \"#utility.yul\":4925:4941   */\n      add\n        /* \"#utility.yul\":4922:4947   */\n      gt\n        /* \"#utility.yul\":4919:5031   */\n      iszero\n      tag_188\n      jumpi\n        /* \"#utility.yul\":4950:5029   */\n      tag_189\n      tag_107\n      jump\t// in\n    tag_189:\n        /* \"#utility.yul\":4919:5031   */\n    tag_188:\n        /* \"#utility.yul\":5040:5094   */\n      tag_190\n        /* \"#utility.yul\":5087:5093   */\n      dup5\n        /* \"#utility.yul\":5082:5085   */\n      dup3\n        /* \"#utility.yul\":5077:5080   */\n      dup6\n        /* \"#utility.yul\":5040:5094   */\n      tag_112\n      jump\t// in\n    tag_190:\n        /* \"#utility.yul\":4759:5100   */\n      pop\n        /* \"#utility.yul\":4675:5100   */\n      swap4\n      swap3\n      pop\n      pop\n      pop\n      jump\t// out\n        /* \"#utility.yul\":5120:5460   */\n    tag_114:\n        /* \"#utility.yul\":5176:5181   */\n      0x00\n        /* \"#utility.yul\":5225:5228   */\n      dup3\n        /* \"#utility.yul\":5218:5222   */\n      0x1f\n        /* \"#utility.yul\":5210:5216   */\n      dup4\n        /* \"#utility.yul\":5206:5223   */\n      add\n        /* \"#utility.yul\":5202:5229   */\n      slt\n        /* \"#utility.yul\":5192:5314   */\n      tag_192\n      jumpi\n        /* \"#utility.yul\":5233:5312   */\n      tag_193\n      tag_106\n      jump\t// in\n    tag_193:\n        /* \"#utility.yul\":5192:5314   */\n    tag_192:\n        /* \"#utility.yul\":5350:5356   */\n      dup2\n        /* \"#utility.yul\":5337:5357   */\n      calldataload\n        /* \"#utility.yul\":5375:5454   */\n      tag_194\n        /* \"#utility.yul\":5450:5453   */\n      dup5\n        /* \"#utility.yul\":5442:5448   */\n      dup3\n        /* \"#utility.yul\":5435:5439   */\n      0x20\n        /* \"#utility.yul\":5427:5433   */\n      dup7\n        /* \"#utility.yul\":5423:5440   */\n      add\n        /* \"#utility.yul\":5375:5454   */\n      tag_113\n      jump\t// in\n    tag_194:\n        /* \"#utility.yul\":5366:5454   */\n      swap2\n      pop\n        /* \"#utility.yul\":5182:5460   */\n      pop\n        /* \"#utility.yul\":5120:5460   */\n      swap3\n      swap2\n      pop\n      pop\n      jump\t// out\n        /* \"#utility.yul\":5466:6265   */\n    tag_25:\n        /* \"#utility.yul\":5553:5559   */\n      0x00\n        /* \"#utility.yul\":5561:5567   */\n      dup1\n        /* \"#utility.yul\":5569:5575   */\n      0x00\n        /* \"#utility.yul\":5618:5620   */\n      0x60\n        /* \"#utility.yul\":5606:5615   */\n      dup5\n        /* \"#utility.yul\":5597:5604   */\n      dup7\n        /* \"#utility.yul\":5593:5616   */\n      sub\n        /* \"#utility.yul\":5589:5621   */\n      slt\n        /* \"#utility.yul\":5586:5705   */\n      iszero\n      tag_196\n      jumpi\n        /* \"#utility.yul\":5624:5703   */\n      tag_197\n      tag_95\n      jump\t// in\n    tag_197:\n        /* \"#utility.yul\":5586:5705   */\n    tag_196:\n        /* \"#utility.yul\":5772:5773   */\n      0x00\n        /* \"#utility.yul\":5761:5770   */\n      dup5\n        /* \"#utility.yul\":5757:5774   */\n      add\n        /* \"#utility.yul\":5744:5775   */\n      calldataload\n        /* \"#utility.yul\":5802:5820   */\n      0xffffffffffffffff\n        /* \"#utility.yul\":5794:5800   */\n      dup2\n        /* \"#utility.yul\":5791:5821   */\n      gt\n        /* \"#utility.yul\":5788:5905   */\n      iszero\n      tag_198\n      jumpi\n        /* \"#utility.yul\":5824:5903   */\n      tag_199\n      tag_96\n      jump\t// in\n    tag_199:\n        /* \"#utility.yul\":5788:5905   */\n    tag_198:\n        /* \"#utility.yul\":5929:5992   */\n      tag_200\n        /* \"#utility.yul\":5984:5991   */\n      dup7\n        /* \"#utility.yul\":5975:5981   */\n      dup3\n        /* \"#utility.yul\":5964:5973   */\n      dup8\n        /* \"#utility.yul\":5960:5982   */\n      add\n        /* \"#utility.yul\":5929:5992   */\n      tag_114\n      jump\t// in\n    tag_200:\n        /* \"#utility.yul\":5919:5992   */\n      swap4\n      pop\n        /* \"#utility.yul\":5715:6002   */\n      pop\n        /* \"#utility.yul\":6041:6043   */\n      0x20\n        /* \"#utility.yul\":6067:6120   */\n      tag_201\n        /* \"#utility.yul\":6112:6119   */\n      dup7\n        /* \"#utility.yul\":6103:6109   */\n      dup3\n        /* \"#utility.yul\":6092:6101   */\n      dup8\n        /* \"#utility.yul\":6088:6110   */\n      add\n        /* \"#utility.yul\":6067:6120   */\n      tag_99\n      jump\t// in\n    tag_201:\n        /* \"#utility.yul\":6057:6120   */\n      swap3\n      pop\n        /* \"#utility.yul\":6012:6130   */\n      pop\n        /* \"#utility.yul\":6169:6171   */\n      0x40\n        /* \"#utility.yul\":6195:6248   */\n      tag_202\n        /* \"#utility.yul\":6240:6247   */\n      dup7\n        /* \"#utility.yul\":6231:6237   */\n      dup3\n        /* \"#utility.yul\":6220:6229   */\n      dup8\n        /* \"#utility.yul\":6216:6238   */\n      add\n        /* \"#utility.yul\":6195:6248   */\n      tag_99\n      jump\t// in\n    tag_202:\n        /* \"#utility.yul\":6185:6248   */\n      swap2\n      pop\n        /* \"#utility.yul\":6140:6258   */\n      pop\n        /* \"#utility.yul\":5466:6265   */\n      swap3\n      pop\n      swap3\n      pop\n      swap3\n      jump\t// out\n        /* \"#utility.yul\":6271:6780   */\n    tag_29:\n        /* \"#utility.yul\":6340:6346   */\n      0x00\n        /* \"#utility.yul\":6389:6391   */\n      0x20\n        /* \"#utility.yul\":6377:6386   */\n      dup3\n        /* \"#utility.yul\":6368:6375   */\n      dup5\n        /* \"#utility.yul\":6364:6387   */\n      sub\n        /* \"#utility.yul\":6360:6392   */\n      slt\n        /* \"#utility.yul\":6357:6476   */\n      iszero\n      tag_204\n      jumpi\n        /* \"#utility.yul\":6395:6474   */\n      tag_205\n      tag_95\n      jump\t// in\n    tag_205:\n        /* \"#utility.yul\":6357:6476   */\n    tag_204:\n        /* \"#utility.yul\":6543:6544   */\n      0x00\n        /* \"#utility.yul\":6532:6541   */\n      dup3\n        /* \"#utility.yul\":6528:6545   */\n      add\n        /* \"#utility.yul\":6515:6546   */\n      calldataload\n        /* \"#utility.yul\":6573:6591   */\n      0xffffffffffffffff\n        /* \"#utility.yul\":6565:6571   */\n      dup2\n        /* \"#utility.yul\":6562:6592   */\n      gt\n        /* \"#utility.yul\":6559:6676   */\n      iszero\n      tag_206\n      jumpi\n        /* \"#utility.yul\":6595:6674   */\n      tag_207\n      tag_96\n      jump\t// in\n    tag_207:\n        /* \"#utility.yul\":6559:6676   */\n    tag_206:\n        /* \"#utility.yul\":6700:6763   */\n      tag_208\n        /* \"#utility.yul\":6755:6762   */\n      dup5\n        /* \"#utility.yul\":6746:6752   */\n      dup3\n        /* \"#utility.yul\":6735:6744   */\n      dup6\n        /* \"#utility.yul\":6731:6753   */\n      add\n        /* \"#utility.yul\":6700:6763   */\n      tag_114\n      jump\t// in\n    tag_208:\n        /* \"#utility.yul\":6690:6763   */\n      swap2\n      pop\n        /* \"#utility.yul\":6486:6773   */\n      pop\n        /* \"#utility.yul\":6271:6780   */\n      swap3\n      swap2\n      pop\n      pop\n      jump\t// out\n        /* \"#utility.yul\":6786:6966   */\n    tag_115:\n        /* \"#utility.yul\":6834:6911   */\n      0x4e487b7100000000000000000000000000000000000000000000000000000000\n        /* \"#utility.yul\":6831:6832   */\n      0x00\n        /* \"#utility.yul\":6824:6912   */\n      mstore\n        /* \"#utility.yul\":6931:6935   */\n      0x22\n        /* \"#utility.yul\":6928:6929   */\n      0x04\n        /* \"#utility.yul\":6921:6936   */\n      mstore\n        /* \"#utility.yul\":6955:6959   */\n      0x24\n        /* \"#utility.yul\":6952:6953   */\n      0x00\n        /* \"#utility.yul\":6945:6960   */\n      revert\n        /* \"#utility.yul\":6972:7292   */\n    tag_35:\n        /* \"#utility.yul\":7016:7022   */\n      0x00\n        /* \"#utility.yul\":7053:7054   */\n      0x02\n        /* \"#utility.yul\":7047:7051   */\n      dup3\n        /* \"#utility.yul\":7043:7055   */\n      div\n        /* \"#utility.yul\":7033:7055   */\n      swap1\n      pop\n        /* \"#utility.yul\":7100:7101   */\n      0x01\n        /* \"#utility.yul\":7094:7098   */\n      dup3\n        /* \"#utility.yul\":7090:7102   */\n      and\n        /* \"#utility.yul\":7121:7139   */\n      dup1\n        /* \"#utility.yul\":7111:7192   */\n      tag_211\n      jumpi\n        /* \"#utility.yul\":7177:7181   */\n      0x7f\n        /* \"#utility.yul\":7169:7175   */\n      dup3\n        /* \"#utility.yul\":7165:7182   */\n      and\n        /* \"#utility.yul\":7155:7182   */\n      swap2\n      pop\n        /* \"#utility.yul\":7111:7192   */\n    tag_211:\n        /* \"#utility.yul\":7239:7241   */\n      0x20\n        /* \"#utility.yul\":7231:7237   */\n      dup3\n        /* \"#utility.yul\":7228:7242   */\n      lt\n        /* \"#utility.yul\":7208:7226   */\n      dup2\n        /* \"#utility.yul\":7205:7243   */\n      sub\n        /* \"#utility.yul\":7202:7286   */\n      tag_212\n      jumpi\n        /* \"#utility.yul\":7258:7276   */\n      tag_213\n      tag_115\n      jump\t// in\n    tag_213:\n        /* \"#utility.yul\":7202:7286   */\n    tag_212:\n        /* \"#utility.yul\":7023:7292   */\n      pop\n        /* \"#utility.yul\":6972:7292   */\n      swap2\n      swap1\n      pop\n      jump\t// out\n        /* \"#utility.yul\":7298:7439   */\n    tag_116:\n        /* \"#utility.yul\":7347:7351   */\n      0x00\n        /* \"#utility.yul\":7370:7373   */\n      dup2\n        /* \"#utility.yul\":7362:7373   */\n      swap1\n      pop\n        /* \"#utility.yul\":7393:7396   */\n      dup2\n        /* \"#utility.yul\":7390:7391   */\n      0x00\n        /* \"#utility.yul\":7383:7397   */\n      mstore\n        /* \"#utility.yul\":7427:7431   */\n      0x20\n        /* \"#utility.yul\":7424:7425   */\n      0x00\n        /* \"#utility.yul\":7414:7432   */\n      keccak256\n        /* \"#utility.yul\":7406:7432   */\n      swap1\n      pop\n        /* \"#utility.yul\":7298:7439   */\n      swap2\n      swap1\n      pop\n      jump\t// out\n        /* \"#utility.yul\":7445:7538   */\n    tag_117:\n        /* \"#utility.yul\":7482:7488   */\n      0x00\n        /* \"#utility.yul\":7529:7531   */\n      0x20\n        /* \"#utility.yul\":7524:7526   */\n      0x1f\n        /* \"#utility.yul\":7517:7522   */\n      dup4\n        /* \"#utility.yul\":7513:7527   */\n      add\n        /* \"#utility.yul\":7509:7532   */\n      div\n        /* \"#utility.yul\":7499:7532   */\n      swap1\n      pop\n        /* \"#utility.yul\":7445:7538   */\n      swap2\n      swap1\n      pop\n      jump\t// out\n        /* \"#utility.yul\":7544:7651   */\n    tag_118:\n        /* \"#utility.yul\":7588:7596   */\n      0x00\n        /* \"#utility.yul\":7638:7643   */\n      dup3\n        /* \"#utility.yul\":7632:7636   */\n      dup3\n        /* \"#utility.yul\":7628:7644   */\n      shl\n        /* \"#utility.yul\":7607:7644   */\n      swap1\n      pop\n        /* \"#utility.yul\":7544:7651   */\n      swap3\n      swap2\n      pop\n      pop\n      jump\t// out\n        /* \"#utility.yul\":7657:8050   */\n    tag_119:\n        /* \"#utility.yul\":7726:7732   */\n      0x00\n        /* \"#utility.yul\":7776:7777   */\n      0x08\n        /* \"#utility.yul\":7764:7774   */\n      dup4\n        /* \"#utility.yul\":7760:7778   */\n      mul\n        /* \"#utility.yul\":7799:7896   */\n      tag_218\n        /* \"#utility.yul\":7829:7895   */\n      0xffffffffffffffffffffffffffffffffffffffffffffffffffffffffffffffff\n        /* \"#utility.yul\":7818:7827   */\n      dup3\n        /* \"#utility.yul\":7799:7896   */\n      tag_118\n      jump\t// in\n    tag_218:\n        /* \"#utility.yul\":7917:7956   */\n      tag_219\n        /* \"#utility.yul\":7947:7955   */\n      dup7\n        /* \"#utility.yul\":7936:7945   */\n      dup4\n        /* \"#utility.yul\":7917:7956   */\n      tag_118\n      jump\t// in\n    tag_219:\n        /* \"#utility.yul\":7905:7956   */\n      swap6\n      pop\n        /* \"#utility.yul\":7989:7993   */\n      dup1\n        /* \"#utility.yul\":7985:7994   */\n      not\n        /* \"#utility.yul\":7978:7983   */\n      dup5\n        /* \"#utility.yul\":7974:7995   */\n      and\n        /* \"#utility.yul\":7965:7995   */\n      swap4\n      pop\n        /* \"#utility.yul\":8038:8042   */\n      dup1\n        /* \"#utility.yul\":8028:8036   */\n      dup7\n        /* \"#utility.yul\":8024:8043   */\n      and\n        /* \"#utility.yul\":8017:8022   */\n      dup5\n        /* \"#utility.yul\":8014:8044   */\n      or\n        /* \"#utility.yul\":8004:8044   */\n      swap3\n      pop\n        /* \"#utility.yul\":7733:8050   */\n      pop\n      pop\n        /* \"#utility.yul\":7657:8050   */\n      swap4\n      swap3\n      pop\n      pop\n      pop\n      jump\t// out\n        /* \"#utility.yul\":8056:8116   */\n    tag_120:\n        /* \"#utility.yul\":8084:8087   */\n      0x00\n        /* \"#utility.yul\":8105:8110   */\n      dup2\n        /* \"#utility.yul\":8098:8110   */\n      swap1\n      pop\n        /* \"#utility.yul\":8056:8116   */\n      swap2\n      swap1\n      pop\n      jump\t// out\n        /* \"#utility.yul\":8122:8264   */\n    tag_121:\n        /* \"#utility.yul\":8172:8181   */\n      0x00\n        /* \"#utility.yul\":8205:8258   */\n      tag_222\n        /* \"#utility.yul\":8223:8257   */\n      tag_223\n        /* \"#utility.yul\":8232:8256   */\n      tag_224\n        /* \"#utility.yul\":8250:8255   */\n      dup5\n        /* \"#utility.yul\":8232:8256   */\n      tag_97\n      jump\t// in\n    tag_224:\n        /* \"#utility.yul\":8223:8257   */\n      tag_120\n      jump\t// in\n    tag_223:\n        /* \"#utility.yul\":8205:8258   */\n      tag_97\n      jump\t// in\n    tag_222:\n        /* \"#utility.yul\":8192:8258   */\n      swap1\n      pop\n        /* \"#utility.yul\":8122:8264   */\n      swap2\n      swap1\n      pop\n      jump\t// out\n        /* \"#utility.yul\":8270:8345   */\n    tag_122:\n        /* \"#utility.yul\":8313:8316   */\n      0x00\n        /* \"#utility.yul\":8334:8339   */\n      dup2\n        /* \"#utility.yul\":8327:8339   */\n      swap1\n      pop\n        /* \"#utility.yul\":8270:8345   */\n      swap2\n      swap1\n      pop\n      jump\t// out\n        /* \"#utility.yul\":8351:8620   */\n    tag_123:\n        /* \"#utility.yul\":8461:8500   */\n      tag_227\n        /* \"#utility.yul\":8492:8499   */\n      dup4\n        /* \"#utility.yul\":8461:8500   */\n      tag_121\n      jump\t// in\n    tag_227:\n        /* \"#utility.yul\":8522:8613   */\n      tag_228\n        /* \"#utility.yul\":8571:8612   */\n      tag_229\n        /* \"#utility.yul\":8595:8611   */\n      dup3\n        /* \"#utility.yul\":8571:8612   */\n      tag_122\n      jump\t// in\n    tag_229:\n        /* \"#utility.yul\":8563:8569   */\n      dup5\n        /* \"#utility.yul\":8556:8560   */\n      dup5\n        /* \"#utility.yul\":8550:8561   */\n      sload\n        /* \"#utility.yul\":8522:8613   */\n      tag_119\n      jump\t// in\n    tag_228:\n        /* \"#utility.yul\":8516:8520   */\n      dup3\n        /* \"#utility.yul\":8509:8614   */\n      sstore\n        /* \"#utility.yul\":8427:8620   */\n      pop\n        /* \"#utility.yul\":8351:8620   */\n      pop\n      pop\n      pop\n      jump\t// out\n        /* \"#utility.yul\":8626:8699   */\n    tag_124:\n        /* \"#utility.yul\":8671:8674   */\n      0x00\n        /* \"#utility.yul\":8626:8699   */\n      swap1\n      jump\t// out\n        /* \"#utility.yul\":8705:8894   */\n    tag_125:\n        /* \"#utility.yul\":8782:8814   */\n      tag_232\n      tag_124\n      jump\t// in\n    tag_232:\n        /* \"#utility.yul\":8823:8888   */\n      tag_233\n        /* \"#utility.yul\":8881:8887   */\n      dup2\n        /* \"#utility.yul\":8873:8879   */\n      dup5\n        /* \"#utility.yul\":8867:8871   */\n      dup5\n        /* \"#utility.yul\":8823:8888   */\n      tag_123\n      jump\t// in\n    tag_233:\n        /* \"#utility.yul\":8758:8894   */\n      pop\n        /* \"#utility.yul\":8705:8894   */\n      pop\n      pop\n      jump\t// out\n        /* \"#utility.yul\":8900:9086   */\n    tag_126:\n        /* \"#utility.yul\":8960:9080   */\n    tag_235:\n        /* \"#utility.yul\":8977:8980   */\n      dup2\n        /* \"#utility.yul\":8970:8975   */\n      dup2\n        /* \"#utility.yul\":8967:8981   */\n      lt\n        /* \"#utility.yul\":8960:9080   */\n      iszero\n      tag_237\n      jumpi\n        /* \"#utility.yul\":9031:9070   */\n      tag_238\n        /* \"#utility.yul\":9068:9069   */\n      0x00\n        /* \"#utility.yul\":9061:9066   */\n      dup3\n        /* \"#utility.yul\":9031:9070   */\n      tag_125\n      jump\t// in\n    tag_238:\n        /* \"#utility.yul\":9004:9005   */\n      0x01\n        /* \"#utility.yul\":8997:9002   */\n      dup2\n        /* \"#utility.yul\":8993:9006   */\n      add\n        /* \"#utility.yul\":8984:9006   */\n      swap1\n      pop\n        /* \"#utility.yul\":8960:9080   */\n      jump(tag_235)\n    tag_237:\n        /* \"#utility.yul\":8900:9086   */\n      pop\n      pop\n      jump\t// out\n        /* \"#utility.yul\":9092:9635   */\n    tag_127:\n        /* \"#utility.yul\":9193:9195   */\n      0x1f\n        /* \"#utility.yul\":9188:9191   */\n      dup3\n        /* \"#utility.yul\":9185:9196   */\n      gt\n        /* \"#utility.yul\":9182:9628   */\n      iszero\n      tag_240\n      jumpi\n        /* \"#utility.yul\":9227:9265   */\n      tag_241\n        /* \"#utility.yul\":9259:9264   */\n      dup2\n        /* \"#utility.yul\":9227:9265   */\n      tag_116\n      jump\t// in\n    tag_241:\n        /* \"#utility.yul\":9311:9340   */\n      tag_242\n        /* \"#utility.yul\":9329:9339   */\n      dup5\n        /* \"#utility.yul\":9311:9340   */\n      tag_117\n      jump\t// in\n    tag_242:\n        /* \"#utility.yul\":9301:9309   */\n      dup2\n        /* \"#utility.yul\":9297:9341   */\n      add\n        /* \"#utility.yul\":9494:9496   */\n      0x20\n        /* \"#utility.yul\":9482:9492   */\n      dup6\n        /* \"#utility.yul\":9479:9497   */\n      lt\n        /* \"#utility.yul\":9476:9525   */\n      iszero\n      tag_243\n      jumpi\n        /* \"#utility.yul\":9515:9523   */\n      dup2\n        /* \"#utility.yul\":9500:9523   */\n      swap1\n      pop\n        /* \"#utility.yul\":9476:9525   */\n    tag_243:\n        /* \"#utility.yul\":9538:9618   */\n      tag_244\n        /* \"#utility.yul\":9594:9616   */\n      tag_245\n        /* \"#utility.yul\":9612:9615   */\n      dup6\n        /* \"#utility.yul\":9594:9616   */\n      tag_117\n      jump\t// in\n    tag_245:\n        /* \"#utility.yul\":9584:9592   */\n      dup4\n        /* \"#utility.yul\":9580:9617   */\n      add\n        /* \"#utility.yul\":9567:9578   */\n      dup3\n        /* \"#utility.yul\":9538:9618   */\n      tag_126\n      jump\t// in\n    tag_244:\n        /* \"#utility.yul\":9197:9628   */\n      pop\n      pop\n        /* \"#utility.yul\":9182:9628   */\n    tag_240:\n        /* \"#utility.yul\":9092:9635   */\n      pop\n      pop\n      pop\n      jump\t// out\n        /* \"#utility.yul\":9641:9758   */\n    tag_128:\n        /* \"#utility.yul\":9695:9703   */\n      0x00\n        /* \"#utility.yul\":9745:9750   */\n      dup3\n        /* \"#utility.yul\":9739:9743   */\n      dup3\n        /* \"#utility.yul\":9735:9751   */\n      shr\n        /* \"#utility.yul\":9714:9751   */\n      swap1\n      pop\n        /* \"#utility.yul\":9641:9758   */\n      swap3\n      swap2\n      pop\n      pop\n      jump\t// out\n        /* \"#utility.yul\":9764:9933   */\n    tag_129:\n        /* \"#utility.yul\":9808:9814   */\n      0x00\n        /* \"#utility.yul\":9841:9892   */\n      tag_248\n        /* \"#utility.yul\":9889:9890   */\n      0x00\n        /* \"#utility.yul\":9885:9891   */\n      not\n        /* \"#utility.yul\":9877:9882   */\n      dup5\n        /* \"#utility.yul\":9874:9875   */\n      0x08\n        /* \"#utility.yul\":9870:9883   */\n      mul\n        /* \"#utility.yul\":9841:9892   */\n      tag_128\n      jump\t// in\n    tag_248:\n        /* \"#utility.yul\":9837:9893   */\n      not\n        /* \"#utility.yul\":9922:9926   */\n      dup1\n        /* \"#utility.yul\":9916:9920   */\n      dup4\n        /* \"#utility.yul\":9912:9927   */\n      and\n        /* \"#utility.yul\":9902:9927   */\n      swap2\n      pop\n        /* \"#utility.yul\":9815:9933   */\n      pop\n        /* \"#utility.yul\":9764:9933   */\n      swap3\n      swap2\n      pop\n      pop\n      jump\t// out\n        /* \"#utility.yul\":9938:10233   */\n    tag_130:\n        /* \"#utility.yul\":10014:10018   */\n      0x00\n        /* \"#utility.yul\":10160:10189   */\n      tag_250\n        /* \"#utility.yul\":10185:10188   */\n      dup4\n        /* \"#utility.yul\":10179:10183   */\n      dup4\n        /* \"#utility.yul\":10160:10189   */\n      tag_129\n      jump\t// in\n    tag_250:\n        /* \"#utility.yul\":10152:10189   */\n      swap2\n      pop\n        /* \"#utility.yul\":10222:10225   */\n      dup3\n        /* \"#utility.yul\":10219:10220   */\n      0x02\n        /* \"#utility.yul\":10215:10226   */\n      mul\n        /* \"#utility.yul\":10209:10213   */\n      dup3\n        /* \"#utility.yul\":10206:10227   */\n      or\n        /* \"#utility.yul\":10198:10227   */\n      swap1\n      pop\n        /* \"#utility.yul\":9938:10233   */\n      swap3\n      swap2\n      pop\n      pop\n      jump\t// out\n        /* \"#utility.yul\":10238:11633   */\n    tag_57:\n        /* \"#utility.yul\":10355:10392   */\n      tag_252\n        /* \"#utility.yul\":10388:10391   */\n      dup3\n        /* \"#utility.yul\":10355:10392   */\n      tag_100\n      jump\t// in\n    tag_252:\n        /* \"#utility.yul\":10457:10475   */\n      0xffffffffffffffff\n        /* \"#utility.yul\":10449:10455   */\n      dup2\n        /* \"#utility.yul\":10446:10476   */\n      gt\n        /* \"#utility.yul\":10443:10499   */\n      iszero\n      tag_253\n      jumpi\n        /* \"#utility.yul\":10479:10497   */\n      tag_254\n      tag_108\n      jump\t// in\n    tag_254:\n        /* \"#utility.yul\":10443:10499   */\n    tag_253:\n        /* \"#utility.yul\":10523:10561   */\n      tag_255\n        /* \"#utility.yul\":10555:10559   */\n      dup3\n        /* \"#utility.yul\":10549:10560   */\n      sload\n        /* \"#utility.yul\":10523:10561   */\n      tag_35\n      jump\t// in\n    tag_255:\n        /* \"#utility.yul\":10608:10675   */\n      tag_256\n        /* \"#utility.yul\":10668:10674   */\n      dup3\n        /* \"#utility.yul\":10660:10666   */\n      dup3\n        /* \"#utility.yul\":10654:10658   */\n      dup6\n        /* \"#utility.yul\":10608:10675   */\n      tag_127\n      jump\t// in\n    tag_256:\n        /* \"#utility.yul\":10702:10703   */\n      0x00\n        /* \"#utility.yul\":10726:10730   */\n      0x20\n        /* \"#utility.yul\":10713:10730   */\n      swap1\n      pop\n        /* \"#utility.yul\":10758:10760   */\n      0x1f\n        /* \"#utility.yul\":10750:10756   */\n      dup4\n        /* \"#utility.yul\":10747:10761   */\n      gt\n        /* \"#utility.yul\":10775:10776   */\n      0x01\n        /* \"#utility.yul\":10770:11388   */\n      dup2\n      eq\n      tag_258\n      jumpi\n        /* \"#utility.yul\":11432:11433   */\n      0x00\n        /* \"#utility.yul\":11449:11455   */\n      dup5\n        /* \"#utility.yul\":11446:11523   */\n      iszero\n      tag_259\n      jumpi\n        /* \"#utility.yul\":11498:11507   */\n      dup3\n        /* \"#utility.yul\":11493:11496   */\n      dup8\n        /* \"#utility.yul\":11489:11508   */\n      add\n        /* \"#utility.yul\":11483:11509   */\n      mload\n        /* \"#utility.yul\":11474:11509   */\n      swap1\n      pop\n        /* \"#utility.yul\":11446:11523   */\n    tag_259:\n        /* \"#utility.yul\":11549:11616   */\n      tag_260\n        /* \"#utility.yul\":11609:11615   */\n      dup6\n        /* \"#utility.yul\":11602:11607   */\n      dup3\n        /* \"#utility.yul\":11549:11616   */\n      tag_130\n      jump\t// in\n    tag_260:\n        /* \"#utility.yul\":11543:11547   */\n      dup7\n        /* \"#utility.yul\":11536:11617   */\n      sstore\n        /* \"#utility.yul\":11405:11627   */\n      pop\n        /* \"#utility.yul\":10740:11627   */\n      jump(tag_257)\n        /* \"#utility.yul\":10770:11388   */\n    tag_258:\n        /* \"#utility.yul\":10822:10826   */\n      0x1f\n        /* \"#utility.yul\":10818:10827   */\n      not\n        /* \"#utility.yul\":10810:10816   */\n      dup5\n        /* \"#utility.yul\":10806:10828   */\n      and\n        /* \"#utility.yul\":10856:10893   */\n      tag_261\n        /* \"#utility.yul\":10888:10892   */\n      dup7\n        /* \"#utility.yul\":10856:10893   */\n      tag_116\n      jump\t// in\n    tag_261:\n        /* \"#utility.yul\":10915:10916   */\n      0x00\n        /* \"#utility.yul\":10929:11137   */\n    tag_262:\n        /* \"#utility.yul\":10943:10950   */\n      dup3\n        /* \"#utility.yul\":10940:10941   */\n      dup2\n        /* \"#utility.yul\":10937:10951   */\n      lt\n        /* \"#utility.yul\":10929:11137   */\n      iszero\n      tag_264\n      jumpi\n        /* \"#utility.yul\":11022:11031   */\n      dup5\n        /* \"#utility.yul\":11017:11020   */\n      dup10\n        /* \"#utility.yul\":11013:11032   */\n      add\n        /* \"#utility.yul\":11007:11033   */\n      mload\n        /* \"#utility.yul\":10999:11005   */\n      dup3\n        /* \"#utility.yul\":10992:11034   */\n      sstore\n        /* \"#utility.yul\":11073:11074   */\n      0x01\n        /* \"#utility.yul\":11065:11071   */\n      dup3\n        /* \"#utility.yul\":11061:11075   */\n      add\n        /* \"#utility.yul\":11051:11075   */\n      swap2\n      pop\n        /* \"#utility.yul\":11120:11122   */\n      0x20\n        /* \"#utility.yul\":11109:11118   */\n      dup6\n        /* \"#utility.yul\":11105:11123   */\n      add\n        /* \"#utility.yul\":11092:11123   */\n      swap5\n      pop\n        /* \"#utility.yul\":10966:10970   */\n      0x20\n        /* \"#utility.yul\":10963:10964   */\n      dup2\n        /* \"#utility.yul\":10959:10971   */\n      add\n        /* \"#utility.yul\":10954:10971   */\n      swap1\n      pop\n        /* \"#utility.yul\":10929:11137   */\n      jump(tag_262)\n    tag_264:\n        /* \"#utility.yul\":11165:11171   */\n      dup7\n        /* \"#utility.yul\":11156:11163   */\n      dup4\n        /* \"#utility.yul\":11153:11172   */\n      lt\n        /* \"#utility.yul\":11150:11329   */\n      iszero\n      tag_265\n      jumpi\n        /* \"#utility.yul\":11223:11232   */\n      dup5\n        /* \"#utility.yul\":11218:11221   */\n      dup10\n        /* \"#utility.yul\":11214:11233   */\n      add\n        /* \"#utility.yul\":11208:11234   */\n      mload\n        /* \"#utility.yul\":11266:11314   */\n      tag_266\n        /* \"#utility.yul\":11308:11312   */\n      0x1f\n        /* \"#utility.yul\":11300:11306   */\n      dup10\n        /* \"#utility.yul\":11296:11313   */\n      and\n        /* \"#utility.yul\":11285:11294   */\n      dup3\n        /* \"#utility.yul\":11266:11314   */\n      tag_129\n      jump\t// in\n    tag_266:\n        /* \"#utility.yul\":11258:11264   */\n      dup4\n        /* \"#utility.yul\":11251:11315   */\n      sstore\n        /* \"#utility.yul\":11173:11329   */\n      pop\n        /* \"#utility.yul\":11150:11329   */\n    tag_265:\n        /* \"#utility.yul\":11375:11376   */\n      0x01\n        /* \"#utility.yul\":11371:11372   */\n      0x02\n        /* \"#utility.yul\":11363:11369   */\n      dup9\n        /* \"#utility.yul\":11359:11373   */\n      mul\n        /* \"#utility.yul\":11355:11377   */\n      add\n        /* \"#utility.yul\":11349:11353   */\n      dup9\n        /* \"#utility.yul\":11342:11378   */\n      sstore\n        /* \"#utility.yul\":10777:11388   */\n      pop\n      pop\n      pop\n        /* \"#utility.yul\":10740:11627   */\n    tag_257:\n      pop\n        /* \"#utility.yul\":10330:11633   */\n      pop\n      pop\n      pop\n        /* \"#utility.yul\":10238:11633   */\n      pop\n      pop\n      jump\t// out\n        /* \"#utility.yul\":11639:11819   */\n    tag_65:\n        /* \"#utility.yul\":11687:11764   */\n      0x4e487b7100000000000000000000000000000000000000000000000000000000\n        /* \"#utility.yul\":11684:11685   */\n      0x00\n        /* \"#utility.yul\":11677:11765   */\n      mstore\n        /* \"#utility.yul\":11784:11788   */\n      0x32\n        /* \"#utility.yul\":11781:11782   */\n      0x04\n        /* \"#utility.yul\":11774:11789   */\n      mstore\n        /* \"#utility.yul\":11808:11812   */\n      0x24\n        /* \"#utility.yul\":11805:11806   */\n      0x00\n        /* \"#utility.yul\":11798:11813   */\n      revert\n        /* \"#utility.yul\":11825:11972   */\n    tag_131:\n        /* \"#utility.yul\":11926:11937   */\n      0x00\n        /* \"#utility.yul\":11963:11966   */\n      dup2\n        /* \"#utility.yul\":11948:11966   */\n      swap1\n      pop\n        /* \"#utility.yul\":11825:11972   */\n      swap3\n      swap2\n      pop\n      pop\n      jump\t// out\n        /* \"#utility.yul\":11978:12122   */\n    tag_132:\n        /* \"#utility.yul\":12030:12034   */\n      0x00\n        /* \"#utility.yul\":12053:12056   */\n      dup2\n        /* \"#utility.yul\":12045:12056   */\n      swap1\n      pop\n        /* \"#utility.yul\":12076:12079   */\n      dup2\n        /* \"#utility.yul\":12073:12074   */\n      0x00\n        /* \"#utility.yul\":12066:12080   */\n      mstore\n        /* \"#utility.yul\":12110:12114   */\n      0x20\n        /* \"#utility.yul\":12107:12108   */\n      0x00\n        /* \"#utility.yul\":12097:12115   */\n      keccak256\n        /* \"#utility.yul\":12089:12115   */\n      swap1\n      pop\n        /* \"#utility.yul\":11978:12122   */\n      swap2\n      swap1\n      pop\n      jump\t// out\n        /* \"#utility.yul\":12150:13028   */\n    tag_133:\n        /* \"#utility.yul\":12255:12258   */\n      0x00\n        /* \"#utility.yul\":12292:12297   */\n      dup2\n        /* \"#utility.yul\":12286:12298   */\n      sload\n        /* \"#utility.yul\":12321:12357   */\n      tag_271\n        /* \"#utility.yul\":12347:12356   */\n      dup2\n        /* \"#utility.yul\":12321:12357   */\n      tag_35\n      jump\t// in\n    tag_271:\n        /* \"#utility.yul\":12373:12461   */\n      tag_272\n        /* \"#utility.yul\":12454:12460   */\n      dup2\n        /* \"#utility.yul\":12449:12452   */\n      dup7\n        /* \"#utility.yul\":12373:12461   */\n      tag_131\n      jump\t// in\n    tag_272:\n        /* \"#utility.yul\":12366:12461   */\n      swap5\n      pop\n        /* \"#utility.yul\":12492:12493   */\n      0x01\n        /* \"#utility.yul\":12481:12490   */\n      dup3\n        /* \"#utility.yul\":12477:12494   */\n      and\n        /* \"#utility.yul\":12508:12509   */\n      0x00\n        /* \"#utility.yul\":12503:12669   */\n      dup2\n      eq\n      tag_274\n      jumpi\n        /* \"#utility.yul\":12683:12684   */\n      0x01\n        /* \"#utility.yul\":12678:13022   */\n      dup2\n      eq\n      tag_275\n      jumpi\n        /* \"#utility.yul\":12470:13022   */\n      jump(tag_273)\n        /* \"#utility.yul\":12503:12669   */\n    tag_274:\n        /* \"#utility.yul\":12587:12591   */\n      0xff\n        /* \"#utility.yul\":12583:12592   */\n      not\n        /* \"#utility.yul\":12572:12581   */\n      dup4\n        /* \"#utility.yul\":12568:12593   */\n      and\n        /* \"#utility.yul\":12563:12566   */\n      dup7\n        /* \"#utility.yul\":12556:12594   */\n      mstore\n        /* \"#utility.yul\":12649:12655   */\n      dup2\n        /* \"#utility.yul\":12642:12656   */\n      iszero\n        /* \"#utility.yul\":12635:12657   */\n      iszero\n        /* \"#utility.yul\":12627:12633   */\n      dup3\n        /* \"#utility.yul\":12623:12658   */\n      mul\n        /* \"#utility.yul\":12618:12621   */\n      dup7\n        /* \"#utility.yul\":12614:12659   */\n      add\n        /* \"#utility.yul\":12607:12659   */\n      swap4\n      pop\n        /* \"#utility.yul\":12503:12669   */\n      jump(tag_273)\n        /* \"#utility.yul\":12678:13022   */\n    tag_275:\n        /* \"#utility.yul\":12745:12786   */\n      tag_276\n        /* \"#utility.yul\":12780:12785   */\n      dup6\n        /* \"#utility.yul\":12745:12786   */\n      tag_132\n      jump\t// in\n    tag_276:\n        /* \"#utility.yul\":12808:12809   */\n      0x00\n        /* \"#utility.yul\":12822:12976   */\n    tag_277:\n        /* \"#utility.yul\":12836:12842   */\n      dup4\n        /* \"#utility.yul\":12833:12834   */\n      dup2\n        /* \"#utility.yul\":12830:12843   */\n      lt\n        /* \"#utility.yul\":12822:12976   */\n      iszero\n      tag_279\n      jumpi\n        /* \"#utility.yul\":12910:12917   */\n      dup2\n        /* \"#utility.yul\":12904:12918   */\n      sload\n        /* \"#utility.yul\":12900:12901   */\n      dup2\n        /* \"#utility.yul\":12895:12898   */\n      dup10\n        /* \"#utility.yul\":12891:12902   */\n      add\n        /* \"#utility.yul\":12884:12919   */\n      mstore\n        /* \"#utility.yul\":12960:12961   */\n      0x01\n        /* \"#utility.yul\":12951:12958   */\n      dup3\n        /* \"#utility.yul\":12947:12962   */\n      add\n        /* \"#utility.yul\":12936:12962   */\n      swap2\n      pop\n        /* \"#utility.yul\":12858:12862   */\n      0x20\n        /* \"#utility.yul\":12855:12856   */\n      dup2\n        /* \"#utility.yul\":12851:12863   */\n      add\n        /* \"#utility.yul\":12846:12863   */\n      swap1\n      pop\n        /* \"#utility.yul\":12822:12976   */\n      jump(tag_277)\n    tag_279:\n        /* \"#utility.yul\":13005:13011   */\n      dup4\n        /* \"#utility.yul\":13000:13003   */\n      dup9\n        /* \"#utility.yul\":12996:13012   */\n      add\n        /* \"#utility.yul\":12989:13012   */\n      swap6\n      pop\n        /* \"#utility.yul\":12685:13022   */\n      pop\n      pop\n        /* \"#utility.yul\":12470:13022   */\n    tag_273:\n      pop\n        /* \"#utility.yul\":12259:13028   */\n      pop\n      pop\n        /* \"#utility.yul\":12150:13028   */\n      swap3\n      swap2\n      pop\n      pop\n      jump\t// out\n        /* \"#utility.yul\":13034:13307   */\n    tag_68:\n        /* \"#utility.yul\":13165:13168   */\n      0x00\n        /* \"#utility.yul\":13187:13281   */\n      tag_281\n        /* \"#utility.yul\":13277:13280   */\n      dup3\n        /* \"#utility.yul\":13268:13274   */\n      dup5\n        /* \"#utility.yul\":13187:13281   */\n      tag_133\n      jump\t// in\n    tag_281:\n        /* \"#utility.yul\":13180:13281   */\n      swap2\n      pop\n        /* \"#utility.yul\":13298:13301   */\n      dup2\n        /* \"#utility.yul\":13291:13301   */\n      swap1\n      pop\n        /* \"#utility.yul\":13034:13307   */\n      swap3\n      swap2\n      pop\n      pop\n      jump\t// out\n        /* \"#utility.yul\":13313:13480   */\n    tag_134:\n        /* \"#utility.yul\":13453:13472   */\n      0x53747564656e74206e6f7420666f756e64000000000000000000000000000000\n        /* \"#utility.yul\":13449:13450   */\n      0x00\n        /* \"#utility.yul\":13441:13447   */\n      dup3\n        /* \"#utility.yul\":13437:13451   */\n      add\n        /* \"#utility.yul\":13430:13473   */\n      mstore\n        /* \"#utility.yul\":13313:13480   */\n      pop\n      jump\t// out\n        /* \"#utility.yul\":13486:13852   */\n    tag_135:\n        /* \"#utility.yul\":13628:13631   */\n      0x00\n        /* \"#utility.yul\":13649:13716   */\n      tag_284\n        /* \"#utility.yul\":13713:13715   */\n      0x11\n        /* \"#utility.yul\":13708:13711   */\n      dup4\n        /* \"#utility.yul\":13649:13716   */\n      tag_101\n      jump\t// in\n    tag_284:\n        /* \"#utility.yul\":13642:13716   */\n      swap2\n      pop\n        /* \"#utility.yul\":13725:13818   */\n      tag_285\n        /* \"#utility.yul\":13814:13817   */\n      dup3\n        /* \"#utility.yul\":13725:13818   */\n      tag_134\n      jump\t// in\n    tag_285:\n        /* \"#utility.yul\":13843:13845   */\n      0x20\n        /* \"#utility.yul\":13838:13841   */\n      dup3\n        /* \"#utility.yul\":13834:13846   */\n      add\n        /* \"#utility.yul\":13827:13846   */\n      swap1\n      pop\n        /* \"#utility.yul\":13486:13852   */\n      swap2\n      swap1\n      pop\n      jump\t// out\n        /* \"#utility.yul\":13858:14277   */\n    tag_93:\n        /* \"#utility.yul\":14024:14028   */\n      0x00\n        /* \"#utility.yul\":14062:14064   */\n      0x20\n        /* \"#utility.yul\":14051:14060   */\n      dup3\n        /* \"#utility.yul\":14047:14065   */\n      add\n        /* \"#utility.yul\":14039:14065   */\n      swap1\n      pop\n        /* \"#utility.yul\":14111:14120   */\n      dup2\n        /* \"#utility.yul\":14105:14109   */\n      dup2\n        /* \"#utility.yul\":14101:14121   */\n      sub\n        /* \"#utility.yul\":14097:14098   */\n      0x00\n        /* \"#utility.yul\":14086:14095   */\n      dup4\n        /* \"#utility.yul\":14082:14099   */\n      add\n        /* \"#utility.yul\":14075:14122   */\n      mstore\n        /* \"#utility.yul\":14139:14270   */\n      tag_287\n        /* \"#utility.yul\":14265:14269   */\n      dup2\n        /* \"#utility.yul\":14139:14270   */\n      tag_135\n      jump\t// in\n    tag_287:\n        /* \"#utility.yul\":14131:14270   */\n      swap1\n      pop\n        /* \"#utility.yul\":13858:14277   */\n      swap2\n      swap1\n      pop\n      jump\t// out\n\n    auxdata: 0xa2646970667358221220f057370a2121e3296c5e28b0e2b632bab6ed71d649844d2db73412213ccc8f3564736f6c634300081a0033\n}\n",
				"bytecode": {
					"linkReferences": {},
					"object": "6080604052348015600e575f80fd5b50610e128061001c5f395ff3fe608060405234801561000f575f80fd5b5060043610610055575f3560e01c806306ead22e146100595780633bf1a7d11461008c57806341e0c407146100bc578063682ad06e146100da578063f317d020146100f6575b5f80fd5b610073600480360381019061006e91906106b9565b610129565b6040516100839493929190610763565b60405180910390f35b6100a660048036038101906100a191906106b9565b61026f565b6040516100b391906107b4565b60405180910390f35b6100c461037e565b6040516100d191906107d4565b60405180910390f35b6100f460048036038101906100ef9190610919565b610389565b005b610110600480360381019061010b9190610985565b610423565b6040516101209493929190610763565b60405180910390f35b5f8181548110610137575f80fd5b905f5260205f2090600402015f91509050805f018054610156906109f9565b80601f0160208091040260200160405190810160405280929190818152602001828054610182906109f9565b80156101cd5780601f106101a4576101008083540402835291602001916101cd565b820191905f5260205f20905b8154815290600101906020018083116101b057829003601f168201915b5050505050908060010154908060020154908060030180546101ee906109f9565b80601f016020809104026020016040519081016040528092919081815260200182805461021a906109f9565b80156102655780601f1061023c57610100808354040283529160200191610265565b820191905f5260205f20905b81548152906001019060200180831161024857829003601f168201915b5050505050905084565b6060605a82106102b6576040518060400160405280600181526020017f41000000000000000000000000000000000000000000000000000000000000008152509050610379565b605082106102fb576040518060400160405280600181526020017f42000000000000000000000000000000000000000000000000000000000000008152509050610379565b60468210610340576040518060400160405280600181526020017f43000000000000000000000000000000000000000000000000000000000000008152509050610379565b6040518060400160405280600181526020017f460000000000000000000000000000000000000000000000000000000000000081525090505b919050565b5f8080549050905090565b5f6103938261026f565b90505f604051806080016040528086815260200185815260200184815260200183815250908060018154018082558091505060019003905f5260205f2090600402015f909190919091505f820151815f0190816103f09190610bc6565b506020820151816001015560408201518160020155606082015181600301908161041a9190610bc6565b50505050505050565b60605f8060605f5b5f805490508110156106325785805190602001205f828154811061045257610451610c95565b5b905f5260205f2090600402015f0160405161046d9190610d5e565b604051809103902003610625575f818154811061048d5761048c610c95565b5b905f5260205f2090600402015f015f82815481106104ae576104ad610c95565b5b905f5260205f209060040201600101545f83815481106104d1576104d0610c95565b5b905f5260205f209060040201600201545f84815481106104f4576104f3610c95565b5b905f5260205f20906004020160030183805461050f906109f9565b80601f016020809104026020016040519081016040528092919081815260200182805461053b906109f9565b80156105865780601f1061055d57610100808354040283529160200191610586565b820191905f5260205f20905b81548152906001019060200180831161056957829003601f168201915b50505050509350808054610599906109f9565b80601f01602080910402602001604051908101604052809291908181526020018280546105c5906109f9565b80156106105780601f106105e757610100808354040283529160200191610610565b820191905f5260205f20905b8154815290600101906020018083116105f357829003601f168201915b5050505050905094509450945094505061066e565b808060010191505061042b565b506040517f08c379a000000000000000000000000000000000000000000000000000000000815260040161066590610dbe565b60405180910390fd5b9193509193565b5f604051905090565b5f80fd5b5f80fd5b5f819050919050565b61069881610686565b81146106a2575f80fd5b50565b5f813590506106b38161068f565b92915050565b5f602082840312156106ce576106cd61067e565b5b5f6106db848285016106a5565b91505092915050565b5f81519050919050565b5f82825260208201905092915050565b8281835e5f83830152505050565b5f601f19601f8301169050919050565b5f610726826106e4565b61073081856106ee565b93506107408185602086016106fe565b6107498161070c565b840191505092915050565b61075d81610686565b82525050565b5f6080820190508181035f83015261077b818761071c565b905061078a6020830186610754565b6107976040830185610754565b81810360608301526107a9818461071c565b905095945050505050565b5f6020820190508181035f8301526107cc818461071c565b905092915050565b5f6020820190506107e75f830184610754565b92915050565b5f80fd5b5f80fd5b7f4e487b71000000000000000000000000000000000000000000000000000000005f52604160045260245ffd5b61082b8261070c565b810181811067ffffffffffffffff8211171561084a576108496107f5565b5b80604052505050565b5f61085c610675565b90506108688282610822565b919050565b5f67ffffffffffffffff821115610887576108866107f5565b5b6108908261070c565b9050602081019050919050565b828183375f83830152505050565b5f6108bd6108b88461086d565b610853565b9050828152602081018484840111156108d9576108d86107f1565b5b6108e484828561089d565b509392505050565b5f82601f830112610900576108ff6107ed565b5b81356109108482602086016108ab565b91505092915050565b5f805f606084860312156109305761092f61067e565b5b5f84013567ffffffffffffffff81111561094d5761094c610682565b5b610959868287016108ec565b935050602061096a868287016106a5565b925050604061097b868287016106a5565b9150509250925092565b5f6020828403121561099a5761099961067e565b5b5f82013567ffffffffffffffff8111156109b7576109b6610682565b5b6109c3848285016108ec565b91505092915050565b7f4e487b71000000000000000000000000000000000000000000000000000000005f52602260045260245ffd5b5f6002820490506001821680610a1057607f821691505b602082108103610a2357610a226109cc565b5b50919050565b5f819050815f5260205f209050919050565b5f6020601f8301049050919050565b5f82821b905092915050565b5f60088302610a857fffffffffffffffffffffffffffffffffffffffffffffffffffffffffffffffff82610a4a565b610a8f8683610a4a565b95508019841693508086168417925050509392505050565b5f819050919050565b5f610aca610ac5610ac084610686565b610aa7565b610686565b9050919050565b5f819050919050565b610ae383610ab0565b610af7610aef82610ad1565b848454610a56565b825550505050565b5f90565b610b0b610aff565b610b16818484610ada565b505050565b5b81811015610b3957610b2e5f82610b03565b600181019050610b1c565b5050565b601f821115610b7e57610b4f81610a29565b610b5884610a3b565b81016020851015610b67578190505b610b7b610b7385610a3b565b830182610b1b565b50505b505050565b5f82821c905092915050565b5f610b9e5f1984600802610b83565b1980831691505092915050565b5f610bb68383610b8f565b9150826002028217905092915050565b610bcf826106e4565b67ffffffffffffffff811115610be857610be76107f5565b5b610bf282546109f9565b610bfd828285610b3d565b5f60209050601f831160018114610c2e575f8415610c1c578287015190505b610c268582610bab565b865550610c8d565b601f198416610c3c86610a29565b5f5b82811015610c6357848901518255600182019150602085019450602081019050610c3e565b86831015610c805784890151610c7c601f891682610b8f565b8355505b6001600288020188555050505b505050505050565b7f4e487b71000000000000000000000000000000000000000000000000000000005f52603260045260245ffd5b5f81905092915050565b5f819050815f5260205f209050919050565b5f8154610cea816109f9565b610cf48186610cc2565b9450600182165f8114610d0e5760018114610d2357610d55565b60ff1983168652811515820286019350610d55565b610d2c85610ccc565b5f5b83811015610d4d57815481890152600182019150602081019050610d2e565b838801955050505b50505092915050565b5f610d698284610cde565b915081905092915050565b7f53747564656e74206e6f7420666f756e640000000000000000000000000000005f82015250565b5f610da86011836106ee565b9150610db382610d74565b602082019050919050565b5f6020820190508181035f830152610dd581610d9c565b905091905056fea2646970667358221220f057370a2121e3296c5e28b0e2b632bab6ed71d649844d2db73412213ccc8f3564736f6c634300081a0033",
					"opcodes": "PUSH1 0x80 PUSH1 0x40 MSTORE CALLVALUE DUP1 ISZERO PUSH1 0xE JUMPI PUSH0 DUP1 REVERT JUMPDEST POP PUSH2 0xE12 DUP1 PUSH2 0x1C PUSH0 CODECOPY PUSH0 RETURN INVALID PUSH1 0x80 PUSH1 0x40 MSTORE CALLVALUE DUP1 ISZERO PUSH2 0xF JUMPI PUSH0 DUP1 REVERT JUMPDEST POP PUSH1 0x4 CALLDATASIZE LT PUSH2 0x55 JUMPI PUSH0 CALLDATALOAD PUSH1 0xE0 SHR DUP1 PUSH4 0x6EAD22E EQ PUSH2 0x59 JUMPI DUP1 PUSH4 0x3BF1A7D1 EQ PUSH2 0x8C JUMPI DUP1 PUSH4 0x41E0C407 EQ PUSH2 0xBC JUMPI DUP1 PUSH4 0x682AD06E EQ PUSH2 0xDA JUMPI DUP1 PUSH4 0xF317D020 EQ PUSH2 0xF6 JUMPI JUMPDEST PUSH0 DUP1 REVERT JUMPDEST PUSH2 0x73 PUSH1 0x4 DUP1 CALLDATASIZE SUB DUP2 ADD SWAP1 PUSH2 0x6E SWAP2 SWAP1 PUSH2 0x6B9 JUMP JUMPDEST PUSH2 0x129 JUMP JUMPDEST PUSH1 0x40 MLOAD PUSH2 0x83 SWAP5 SWAP4 SWAP3 SWAP2 SWAP1 PUSH2 0x763 JUMP JUMPDEST PUSH1 0x40 MLOAD DUP1 SWAP2 SUB SWAP1 RETURN JUMPDEST PUSH2 0xA6 PUSH1 0x4 DUP1 CALLDATASIZE SUB DUP2 ADD SWAP1 PUSH2 0xA1 SWAP2 SWAP1 PUSH2 0x6B9 JUMP JUMPDEST PUSH2 0x26F JUMP JUMPDEST PUSH1 0x40 MLOAD PUSH2 0xB3 SWAP2 SWAP1 PUSH2 0x7B4 JUMP JUMPDEST PUSH1 0x40 MLOAD DUP1 SWAP2 SUB SWAP1 RETURN JUMPDEST PUSH2 0xC4 PUSH2 0x37E JUMP JUMPDEST PUSH1 0x40 MLOAD PUSH2 0xD1 SWAP2 SWAP1 PUSH2 0x7D4 JUMP JUMPDEST PUSH1 0x40 MLOAD DUP1 SWAP2 SUB SWAP1 RETURN JUMPDEST PUSH2 0xF4 PUSH1 0x4 DUP1 CALLDATASIZE SUB DUP2 ADD SWAP1 PUSH2 0xEF SWAP2 SWAP1 PUSH2 0x919 JUMP JUMPDEST PUSH2 0x389 JUMP JUMPDEST STOP JUMPDEST PUSH2 0x110 PUSH1 0x4 DUP1 CALLDATASIZE SUB DUP2 ADD SWAP1 PUSH2 0x10B SWAP2 SWAP1 PUSH2 0x985 JUMP JUMPDEST PUSH2 0x423 JUMP JUMPDEST PUSH1 0x40 MLOAD PUSH2 0x120 SWAP5 SWAP4 SWAP3 SWAP2 SWAP1 PUSH2 0x763 JUMP JUMPDEST PUSH1 0x40 MLOAD DUP1 SWAP2 SUB SWAP1 RETURN JUMPDEST PUSH0 DUP2 DUP2 SLOAD DUP2 LT PUSH2 0x137 JUMPI PUSH0 DUP1 REVERT JUMPDEST SWAP1 PUSH0 MSTORE PUSH1 0x20 PUSH0 KECCAK256 SWAP1 PUSH1 0x4 MUL ADD PUSH0 SWAP2 POP SWAP1 POP DUP1 PUSH0 ADD DUP1 SLOAD PUSH2 0x156 SWAP1 PUSH2 0x9F9 JUMP JUMPDEST DUP1 PUSH1 0x1F ADD PUSH1 0x20 DUP1 SWAP2 DIV MUL PUSH1 0x20 ADD PUSH1 0x40 MLOAD SWAP1 DUP2 ADD PUSH1 0x40 MSTORE DUP1 SWAP3 SWAP2 SWAP1 DUP2 DUP2 MSTORE PUSH1 0x20 ADD DUP3 DUP1 SLOAD PUSH2 0x182 SWAP1 PUSH2 0x9F9 JUMP JUMPDEST DUP1 ISZERO PUSH2 0x1CD JUMPI DUP1 PUSH1 0x1F LT PUSH2 0x1A4 JUMPI PUSH2 0x100 DUP1 DUP4 SLOAD DIV MUL DUP4 MSTORE SWAP2 PUSH1 0x20 ADD SWAP2 PUSH2 0x1CD JUMP JUMPDEST DUP3 ADD SWAP2 SWAP1 PUSH0 MSTORE PUSH1 0x20 PUSH0 KECCAK256 SWAP1 JUMPDEST DUP2 SLOAD DUP2 MSTORE SWAP1 PUSH1 0x1 ADD SWAP1 PUSH1 0x20 ADD DUP1 DUP4 GT PUSH2 0x1B0 JUMPI DUP3 SWAP1 SUB PUSH1 0x1F AND DUP3 ADD SWAP2 JUMPDEST POP POP POP POP POP SWAP1 DUP1 PUSH1 0x1 ADD SLOAD SWAP1 DUP1 PUSH1 0x2 ADD SLOAD SWAP1 DUP1 PUSH1 0x3 ADD DUP1 SLOAD PUSH2 0x1EE SWAP1 PUSH2 0x9F9 JUMP JUMPDEST DUP1 PUSH1 0x1F ADD PUSH1 0x20 DUP1 SWAP2 DIV MUL PUSH1 0x20 ADD PUSH1 0x40 MLOAD SWAP1 DUP2 ADD PUSH1 0x40 MSTORE DUP1 SWAP3 SWAP2 SWAP1 DUP2 DUP2 MSTORE PUSH1 0x20 ADD DUP3 DUP1 SLOAD PUSH2 0x21A SWAP1 PUSH2 0x9F9 JUMP JUMPDEST DUP1 ISZERO PUSH2 0x265 JUMPI DUP1 PUSH1 0x1F LT PUSH2 0x23C JUMPI PUSH2 0x100 DUP1 DUP4 SLOAD DIV MUL DUP4 MSTORE SWAP2 PUSH1 0x20 ADD SWAP2 PUSH2 0x265 JUMP JUMPDEST DUP3 ADD SWAP2 SWAP1 PUSH0 MSTORE PUSH1 0x20 PUSH0 KECCAK256 SWAP1 JUMPDEST DUP2 SLOAD DUP2 MSTORE SWAP1 PUSH1 0x1 ADD SWAP1 PUSH1 0x20 ADD DUP1 DUP4 GT PUSH2 0x248 JUMPI DUP3 SWAP1 SUB PUSH1 0x1F AND DUP3 ADD SWAP2 JUMPDEST POP POP POP POP POP SWAP1 POP DUP5 JUMP JUMPDEST PUSH1 0x60 PUSH1 0x5A DUP3 LT PUSH2 0x2B6 JUMPI PUSH1 0x40 MLOAD DUP1 PUSH1 0x40 ADD PUSH1 0x40 MSTORE DUP1 PUSH1 0x1 DUP2 MSTORE PUSH1 0x20 ADD PUSH32 0x4100000000000000000000000000000000000000000000000000000000000000 DUP2 MSTORE POP SWAP1 POP PUSH2 0x379 JUMP JUMPDEST PUSH1 0x50 DUP3 LT PUSH2 0x2FB JUMPI PUSH1 0x40 MLOAD DUP1 PUSH1 0x40 ADD PUSH1 0x40 MSTORE DUP1 PUSH1 0x1 DUP2 MSTORE PUSH1 0x20 ADD PUSH32 0x4200000000000000000000000000000000000000000000000000000000000000 DUP2 MSTORE POP SWAP1 POP PUSH2 0x379 JUMP JUMPDEST PUSH1 0x46 DUP3 LT PUSH2 0x340 JUMPI PUSH1 0x40 MLOAD DUP1 PUSH1 0x40 ADD PUSH1 0x40 MSTORE DUP1 PUSH1 0x1 DUP2 MSTORE PUSH1 0x20 ADD PUSH32 0x4300000000000000000000000000000000000000000000000000000000000000 DUP2 MSTORE POP SWAP1 POP PUSH2 0x379 JUMP JUMPDEST PUSH1 0x40 MLOAD DUP1 PUSH1 0x40 ADD PUSH1 0x40 MSTORE DUP1 PUSH1 0x1 DUP2 MSTORE PUSH1 0x20 ADD PUSH32 0x4600000000000000000000000000000000000000000000000000000000000000 DUP2 MSTORE POP SWAP1 POP JUMPDEST SWAP2 SWAP1 POP JUMP JUMPDEST PUSH0 DUP1 DUP1 SLOAD SWAP1 POP SWAP1 POP SWAP1 JUMP JUMPDEST PUSH0 PUSH2 0x393 DUP3 PUSH2 0x26F JUMP JUMPDEST SWAP1 POP PUSH0 PUSH1 0x40 MLOAD DUP1 PUSH1 0x80 ADD PUSH1 0x40 MSTORE DUP1 DUP7 DUP2 MSTORE PUSH1 0x20 ADD DUP6 DUP2 MSTORE PUSH1 0x20 ADD DUP5 DUP2 MSTORE PUSH1 0x20 ADD DUP4 DUP2 MSTORE POP SWAP1 DUP1 PUSH1 0x1 DUP2 SLOAD ADD DUP1 DUP3 SSTORE DUP1 SWAP2 POP POP PUSH1 0x1 SWAP1 SUB SWAP1 PUSH0 MSTORE PUSH1 0x20 PUSH0 KECCAK256 SWAP1 PUSH1 0x4 MUL ADD PUSH0 SWAP1 SWAP2 SWAP1 SWAP2 SWAP1 SWAP2 POP PUSH0 DUP3 ADD MLOAD DUP2 PUSH0 ADD SWAP1 DUP2 PUSH2 0x3F0 SWAP2 SWAP1 PUSH2 0xBC6 JUMP JUMPDEST POP PUSH1 0x20 DUP3 ADD MLOAD DUP2 PUSH1 0x1 ADD SSTORE PUSH1 0x40 DUP3 ADD MLOAD DUP2 PUSH1 0x2 ADD SSTORE PUSH1 0x60 DUP3 ADD MLOAD DUP2 PUSH1 0x3 ADD SWAP1 DUP2 PUSH2 0x41A SWAP2 SWAP1 PUSH2 0xBC6 JUMP JUMPDEST POP POP POP POP POP POP POP JUMP JUMPDEST PUSH1 0x60 PUSH0 DUP1 PUSH1 0x60 PUSH0 JUMPDEST PUSH0 DUP1 SLOAD SWAP1 POP DUP2 LT ISZERO PUSH2 0x632 JUMPI DUP6 DUP1 MLOAD SWAP1 PUSH1 0x20 ADD KECCAK256 PUSH0 DUP3 DUP2 SLOAD DUP2 LT PUSH2 0x452 JUMPI PUSH2 0x451 PUSH2 0xC95 JUMP JUMPDEST JUMPDEST SWAP1 PUSH0 MSTORE PUSH1 0x20 PUSH0 KECCAK256 SWAP1 PUSH1 0x4 MUL ADD PUSH0 ADD PUSH1 0x40 MLOAD PUSH2 0x46D SWAP2 SWAP1 PUSH2 0xD5E JUMP JUMPDEST PUSH1 0x40 MLOAD DUP1 SWAP2 SUB SWAP1 KECCAK256 SUB PUSH2 0x625 JUMPI PUSH0 DUP2 DUP2 SLOAD DUP2 LT PUSH2 0x48D JUMPI PUSH2 0x48C PUSH2 0xC95 JUMP JUMPDEST JUMPDEST SWAP1 PUSH0 MSTORE PUSH1 0x20 PUSH0 KECCAK256 SWAP1 PUSH1 0x4 MUL ADD PUSH0 ADD PUSH0 DUP3 DUP2 SLOAD DUP2 LT PUSH2 0x4AE JUMPI PUSH2 0x4AD PUSH2 0xC95 JUMP JUMPDEST JUMPDEST SWAP1 PUSH0 MSTORE PUSH1 0x20 PUSH0 KECCAK256 SWAP1 PUSH1 0x4 MUL ADD PUSH1 0x1 ADD SLOAD PUSH0 DUP4 DUP2 SLOAD DUP2 LT PUSH2 0x4D1 JUMPI PUSH2 0x4D0 PUSH2 0xC95 JUMP JUMPDEST JUMPDEST SWAP1 PUSH0 MSTORE PUSH1 0x20 PUSH0 KECCAK256 SWAP1 PUSH1 0x4 MUL ADD PUSH1 0x2 ADD SLOAD PUSH0 DUP5 DUP2 SLOAD DUP2 LT PUSH2 0x4F4 JUMPI PUSH2 0x4F3 PUSH2 0xC95 JUMP JUMPDEST JUMPDEST SWAP1 PUSH0 MSTORE PUSH1 0x20 PUSH0 KECCAK256 SWAP1 PUSH1 0x4 MUL ADD PUSH1 0x3 ADD DUP4 DUP1 SLOAD PUSH2 0x50F SWAP1 PUSH2 0x9F9 JUMP JUMPDEST DUP1 PUSH1 0x1F ADD PUSH1 0x20 DUP1 SWAP2 DIV MUL PUSH1 0x20 ADD PUSH1 0x40 MLOAD SWAP1 DUP2 ADD PUSH1 0x40 MSTORE DUP1 SWAP3 SWAP2 SWAP1 DUP2 DUP2 MSTORE PUSH1 0x20 ADD DUP3 DUP1 SLOAD PUSH2 0x53B SWAP1 PUSH2 0x9F9 JUMP JUMPDEST DUP1 ISZERO PUSH2 0x586 JUMPI DUP1 PUSH1 0x1F LT PUSH2 0x55D JUMPI PUSH2 0x100 DUP1 DUP4 SLOAD DIV MUL DUP4 MSTORE SWAP2 PUSH1 0x20 ADD SWAP2 PUSH2 0x586 JUMP JUMPDEST DUP3 ADD SWAP2 SWAP1 PUSH0 MSTORE PUSH1 0x20 PUSH0 KECCAK256 SWAP1 JUMPDEST DUP2 SLOAD DUP2 MSTORE SWAP1 PUSH1 0x1 ADD SWAP1 PUSH1 0x20 ADD DUP1 DUP4 GT PUSH2 0x569 JUMPI DUP3 SWAP1 SUB PUSH1 0x1F AND DUP3 ADD SWAP2 JUMPDEST POP POP POP POP POP SWAP4 POP DUP1 DUP1 SLOAD PUSH2 0x599 SWAP1 PUSH2 0x9F9 JUMP JUMPDEST DUP1 PUSH1 0x1F ADD PUSH1 0x20 DUP1 SWAP2 DIV MUL PUSH1 0x20 ADD PUSH1 0x40 MLOAD SWAP1 DUP2 ADD PUSH1 0x40 MSTORE DUP1 SWAP3 SWAP2 SWAP1 DUP2 DUP2 MSTORE PUSH1 0x20 ADD DUP3 DUP1 SLOAD PUSH2 0x5C5 SWAP1 PUSH2 0x9F9 JUMP JUMPDEST DUP1 ISZERO PUSH2 0x610 JUMPI DUP1 PUSH1 0x1F LT PUSH2 0x5E7 JUMPI PUSH2 0x100 DUP1 DUP4 SLOAD DIV MUL DUP4 MSTORE SWAP2 PUSH1 0x20 ADD SWAP2 PUSH2 0x610 JUMP JUMPDEST DUP3 ADD SWAP2 SWAP1 PUSH0 MSTORE PUSH1 0x20 PUSH0 KECCAK256 SWAP1 JUMPDEST DUP2 SLOAD DUP2 MSTORE SWAP1 PUSH1 0x1 ADD SWAP1 PUSH1 0x20 ADD DUP1 DUP4 GT PUSH2 0x5F3 JUMPI DUP3 SWAP1 SUB PUSH1 0x1F AND DUP3 ADD SWAP2 JUMPDEST POP POP POP POP POP SWAP1 POP SWAP5 POP SWAP5 POP SWAP5 POP SWAP5 POP POP PUSH2 0x66E JUMP JUMPDEST DUP1 DUP1 PUSH1 0x1 ADD SWAP2 POP POP PUSH2 0x42B JUMP JUMPDEST POP PUSH1 0x40 MLOAD PUSH32 0x8C379A000000000000000000000000000000000000000000000000000000000 DUP2 MSTORE PUSH1 0x4 ADD PUSH2 0x665 SWAP1 PUSH2 0xDBE JUMP JUMPDEST PUSH1 0x40 MLOAD DUP1 SWAP2 SUB SWAP1 REVERT JUMPDEST SWAP2 SWAP4 POP SWAP2 SWAP4 JUMP JUMPDEST PUSH0 PUSH1 0x40 MLOAD SWAP1 POP SWAP1 JUMP JUMPDEST PUSH0 DUP1 REVERT JUMPDEST PUSH0 DUP1 REVERT JUMPDEST PUSH0 DUP2 SWAP1 POP SWAP2 SWAP1 POP JUMP JUMPDEST PUSH2 0x698 DUP2 PUSH2 0x686 JUMP JUMPDEST DUP2 EQ PUSH2 0x6A2 JUMPI PUSH0 DUP1 REVERT JUMPDEST POP JUMP JUMPDEST PUSH0 DUP2 CALLDATALOAD SWAP1 POP PUSH2 0x6B3 DUP2 PUSH2 0x68F JUMP JUMPDEST SWAP3 SWAP2 POP POP JUMP JUMPDEST PUSH0 PUSH1 0x20 DUP3 DUP5 SUB SLT ISZERO PUSH2 0x6CE JUMPI PUSH2 0x6CD PUSH2 0x67E JUMP JUMPDEST JUMPDEST PUSH0 PUSH2 0x6DB DUP5 DUP3 DUP6 ADD PUSH2 0x6A5 JUMP JUMPDEST SWAP2 POP POP SWAP3 SWAP2 POP POP JUMP JUMPDEST PUSH0 DUP2 MLOAD SWAP1 POP SWAP2 SWAP1 POP JUMP JUMPDEST PUSH0 DUP3 DUP3 MSTORE PUSH1 0x20 DUP3 ADD SWAP1 POP SWAP3 SWAP2 POP POP JUMP JUMPDEST DUP3 DUP2 DUP4 MCOPY PUSH0 DUP4 DUP4 ADD MSTORE POP POP POP JUMP JUMPDEST PUSH0 PUSH1 0x1F NOT PUSH1 0x1F DUP4 ADD AND SWAP1 POP SWAP2 SWAP1 POP JUMP JUMPDEST PUSH0 PUSH2 0x726 DUP3 PUSH2 0x6E4 JUMP JUMPDEST PUSH2 0x730 DUP2 DUP6 PUSH2 0x6EE JUMP JUMPDEST SWAP4 POP PUSH2 0x740 DUP2 DUP6 PUSH1 0x20 DUP7 ADD PUSH2 0x6FE JUMP JUMPDEST PUSH2 0x749 DUP2 PUSH2 0x70C JUMP JUMPDEST DUP5 ADD SWAP2 POP POP SWAP3 SWAP2 POP POP JUMP JUMPDEST PUSH2 0x75D DUP2 PUSH2 0x686 JUMP JUMPDEST DUP3 MSTORE POP POP JUMP JUMPDEST PUSH0 PUSH1 0x80 DUP3 ADD SWAP1 POP DUP2 DUP2 SUB PUSH0 DUP4 ADD MSTORE PUSH2 0x77B DUP2 DUP8 PUSH2 0x71C JUMP JUMPDEST SWAP1 POP PUSH2 0x78A PUSH1 0x20 DUP4 ADD DUP7 PUSH2 0x754 JUMP JUMPDEST PUSH2 0x797 PUSH1 0x40 DUP4 ADD DUP6 PUSH2 0x754 JUMP JUMPDEST DUP2 DUP2 SUB PUSH1 0x60 DUP4 ADD MSTORE PUSH2 0x7A9 DUP2 DUP5 PUSH2 0x71C JUMP JUMPDEST SWAP1 POP SWAP6 SWAP5 POP POP POP POP POP JUMP JUMPDEST PUSH0 PUSH1 0x20 DUP3 ADD SWAP1 POP DUP2 DUP2 SUB PUSH0 DUP4 ADD MSTORE PUSH2 0x7CC DUP2 DUP5 PUSH2 0x71C JUMP JUMPDEST SWAP1 POP SWAP3 SWAP2 POP POP JUMP JUMPDEST PUSH0 PUSH1 0x20 DUP3 ADD SWAP1 POP PUSH2 0x7E7 PUSH0 DUP4 ADD DUP5 PUSH2 0x754 JUMP JUMPDEST SWAP3 SWAP2 POP POP JUMP JUMPDEST PUSH0 DUP1 REVERT JUMPDEST PUSH0 DUP1 REVERT JUMPDEST PUSH32 0x4E487B7100000000000000000000000000000000000000000000000000000000 PUSH0 MSTORE PUSH1 0x41 PUSH1 0x4 MSTORE PUSH1 0x24 PUSH0 REVERT JUMPDEST PUSH2 0x82B DUP3 PUSH2 0x70C JUMP JUMPDEST DUP2 ADD DUP2 DUP2 LT PUSH8 0xFFFFFFFFFFFFFFFF DUP3 GT OR ISZERO PUSH2 0x84A JUMPI PUSH2 0x849 PUSH2 0x7F5 JUMP JUMPDEST JUMPDEST DUP1 PUSH1 0x40 MSTORE POP POP POP JUMP JUMPDEST PUSH0 PUSH2 0x85C PUSH2 0x675 JUMP JUMPDEST SWAP1 POP PUSH2 0x868 DUP3 DUP3 PUSH2 0x822 JUMP JUMPDEST SWAP2 SWAP1 POP JUMP JUMPDEST PUSH0 PUSH8 0xFFFFFFFFFFFFFFFF DUP3 GT ISZERO PUSH2 0x887 JUMPI PUSH2 0x886 PUSH2 0x7F5 JUMP JUMPDEST JUMPDEST PUSH2 0x890 DUP3 PUSH2 0x70C JUMP JUMPDEST SWAP1 POP PUSH1 0x20 DUP2 ADD SWAP1 POP SWAP2 SWAP1 POP JUMP JUMPDEST DUP3 DUP2 DUP4 CALLDATACOPY PUSH0 DUP4 DUP4 ADD MSTORE POP POP POP JUMP JUMPDEST PUSH0 PUSH2 0x8BD PUSH2 0x8B8 DUP5 PUSH2 0x86D JUMP JUMPDEST PUSH2 0x853 JUMP JUMPDEST SWAP1 POP DUP3 DUP2 MSTORE PUSH1 0x20 DUP2 ADD DUP5 DUP5 DUP5 ADD GT ISZERO PUSH2 0x8D9 JUMPI PUSH2 0x8D8 PUSH2 0x7F1 JUMP JUMPDEST JUMPDEST PUSH2 0x8E4 DUP5 DUP3 DUP6 PUSH2 0x89D JUMP JUMPDEST POP SWAP4 SWAP3 POP POP POP JUMP JUMPDEST PUSH0 DUP3 PUSH1 0x1F DUP4 ADD SLT PUSH2 0x900 JUMPI PUSH2 0x8FF PUSH2 0x7ED JUMP JUMPDEST JUMPDEST DUP2 CALLDATALOAD PUSH2 0x910 DUP5 DUP3 PUSH1 0x20 DUP7 ADD PUSH2 0x8AB JUMP JUMPDEST SWAP2 POP POP SWAP3 SWAP2 POP POP JUMP JUMPDEST PUSH0 DUP1 PUSH0 PUSH1 0x60 DUP5 DUP7 SUB SLT ISZERO PUSH2 0x930 JUMPI PUSH2 0x92F PUSH2 0x67E JUMP JUMPDEST JUMPDEST PUSH0 DUP5 ADD CALLDATALOAD PUSH8 0xFFFFFFFFFFFFFFFF DUP2 GT ISZERO PUSH2 0x94D JUMPI PUSH2 0x94C PUSH2 0x682 JUMP JUMPDEST JUMPDEST PUSH2 0x959 DUP7 DUP3 DUP8 ADD PUSH2 0x8EC JUMP JUMPDEST SWAP4 POP POP PUSH1 0x20 PUSH2 0x96A DUP7 DUP3 DUP8 ADD PUSH2 0x6A5 JUMP JUMPDEST SWAP3 POP POP PUSH1 0x40 PUSH2 0x97B DUP7 DUP3 DUP8 ADD PUSH2 0x6A5 JUMP JUMPDEST SWAP2 POP POP SWAP3 POP SWAP3 POP SWAP3 JUMP JUMPDEST PUSH0 PUSH1 0x20 DUP3 DUP5 SUB SLT ISZERO PUSH2 0x99A JUMPI PUSH2 0x999 PUSH2 0x67E JUMP JUMPDEST JUMPDEST PUSH0 DUP3 ADD CALLDATALOAD PUSH8 0xFFFFFFFFFFFFFFFF DUP2 GT ISZERO PUSH2 0x9B7 JUMPI PUSH2 0x9B6 PUSH2 0x682 JUMP JUMPDEST JUMPDEST PUSH2 0x9C3 DUP5 DUP3 DUP6 ADD PUSH2 0x8EC JUMP JUMPDEST SWAP2 POP POP SWAP3 SWAP2 POP POP JUMP JUMPDEST PUSH32 0x4E487B7100000000000000000000000000000000000000000000000000000000 PUSH0 MSTORE PUSH1 0x22 PUSH1 0x4 MSTORE PUSH1 0x24 PUSH0 REVERT JUMPDEST PUSH0 PUSH1 0x2 DUP3 DIV SWAP1 POP PUSH1 0x1 DUP3 AND DUP1 PUSH2 0xA10 JUMPI PUSH1 0x7F DUP3 AND SWAP2 POP JUMPDEST PUSH1 0x20 DUP3 LT DUP2 SUB PUSH2 0xA23 JUMPI PUSH2 0xA22 PUSH2 0x9CC JUMP JUMPDEST JUMPDEST POP SWAP2 SWAP1 POP JUMP JUMPDEST PUSH0 DUP2 SWAP1 POP DUP2 PUSH0 MSTORE PUSH1 0x20 PUSH0 KECCAK256 SWAP1 POP SWAP2 SWAP1 POP JUMP JUMPDEST PUSH0 PUSH1 0x20 PUSH1 0x1F DUP4 ADD DIV SWAP1 POP SWAP2 SWAP1 POP JUMP JUMPDEST PUSH0 DUP3 DUP3 SHL SWAP1 POP SWAP3 SWAP2 POP POP JUMP JUMPDEST PUSH0 PUSH1 0x8 DUP4 MUL PUSH2 0xA85 PUSH32 0xFFFFFFFFFFFFFFFFFFFFFFFFFFFFFFFFFFFFFFFFFFFFFFFFFFFFFFFFFFFFFFFF DUP3 PUSH2 0xA4A JUMP JUMPDEST PUSH2 0xA8F DUP7 DUP4 PUSH2 0xA4A JUMP JUMPDEST SWAP6 POP DUP1 NOT DUP5 AND SWAP4 POP DUP1 DUP7 AND DUP5 OR SWAP3 POP POP POP SWAP4 SWAP3 POP POP POP JUMP JUMPDEST PUSH0 DUP2 SWAP1 POP SWAP2 SWAP1 POP JUMP JUMPDEST PUSH0 PUSH2 0xACA PUSH2 0xAC5 PUSH2 0xAC0 DUP5 PUSH2 0x686 JUMP JUMPDEST PUSH2 0xAA7 JUMP JUMPDEST PUSH2 0x686 JUMP JUMPDEST SWAP1 POP SWAP2 SWAP1 POP JUMP JUMPDEST PUSH0 DUP2 SWAP1 POP SWAP2 SWAP1 POP JUMP JUMPDEST PUSH2 0xAE3 DUP4 PUSH2 0xAB0 JUMP JUMPDEST PUSH2 0xAF7 PUSH2 0xAEF DUP3 PUSH2 0xAD1 JUMP JUMPDEST DUP5 DUP5 SLOAD PUSH2 0xA56 JUMP JUMPDEST DUP3 SSTORE POP POP POP POP JUMP JUMPDEST PUSH0 SWAP1 JUMP JUMPDEST PUSH2 0xB0B PUSH2 0xAFF JUMP JUMPDEST PUSH2 0xB16 DUP2 DUP5 DUP5 PUSH2 0xADA JUMP JUMPDEST POP POP POP JUMP JUMPDEST JUMPDEST DUP2 DUP2 LT ISZERO PUSH2 0xB39 JUMPI PUSH2 0xB2E PUSH0 DUP3 PUSH2 0xB03 JUMP JUMPDEST PUSH1 0x1 DUP2 ADD SWAP1 POP PUSH2 0xB1C JUMP JUMPDEST POP POP JUMP JUMPDEST PUSH1 0x1F DUP3 GT ISZERO PUSH2 0xB7E JUMPI PUSH2 0xB4F DUP2 PUSH2 0xA29 JUMP JUMPDEST PUSH2 0xB58 DUP5 PUSH2 0xA3B JUMP JUMPDEST DUP2 ADD PUSH1 0x20 DUP6 LT ISZERO PUSH2 0xB67 JUMPI DUP2 SWAP1 POP JUMPDEST PUSH2 0xB7B PUSH2 0xB73 DUP6 PUSH2 0xA3B JUMP JUMPDEST DUP4 ADD DUP3 PUSH2 0xB1B JUMP JUMPDEST POP POP JUMPDEST POP POP POP JUMP JUMPDEST PUSH0 DUP3 DUP3 SHR SWAP1 POP SWAP3 SWAP2 POP POP JUMP JUMPDEST PUSH0 PUSH2 0xB9E PUSH0 NOT DUP5 PUSH1 0x8 MUL PUSH2 0xB83 JUMP JUMPDEST NOT DUP1 DUP4 AND SWAP2 POP POP SWAP3 SWAP2 POP POP JUMP JUMPDEST PUSH0 PUSH2 0xBB6 DUP4 DUP4 PUSH2 0xB8F JUMP JUMPDEST SWAP2 POP DUP3 PUSH1 0x2 MUL DUP3 OR SWAP1 POP SWAP3 SWAP2 POP POP JUMP JUMPDEST PUSH2 0xBCF DUP3 PUSH2 0x6E4 JUMP JUMPDEST PUSH8 0xFFFFFFFFFFFFFFFF DUP2 GT ISZERO PUSH2 0xBE8 JUMPI PUSH2 0xBE7 PUSH2 0x7F5 JUMP JUMPDEST JUMPDEST PUSH2 0xBF2 DUP3 SLOAD PUSH2 0x9F9 JUMP JUMPDEST PUSH2 0xBFD DUP3 DUP3 DUP6 PUSH2 0xB3D JUMP JUMPDEST PUSH0 PUSH1 0x20 SWAP1 POP PUSH1 0x1F DUP4 GT PUSH1 0x1 DUP2 EQ PUSH2 0xC2E JUMPI PUSH0 DUP5 ISZERO PUSH2 0xC1C JUMPI DUP3 DUP8 ADD MLOAD SWAP1 POP JUMPDEST PUSH2 0xC26 DUP6 DUP3 PUSH2 0xBAB JUMP JUMPDEST DUP7 SSTORE POP PUSH2 0xC8D JUMP JUMPDEST PUSH1 0x1F NOT DUP5 AND PUSH2 0xC3C DUP7 PUSH2 0xA29 JUMP JUMPDEST PUSH0 JUMPDEST DUP3 DUP2 LT ISZERO PUSH2 0xC63 JUMPI DUP5 DUP10 ADD MLOAD DUP3 SSTORE PUSH1 0x1 DUP3 ADD SWAP2 POP PUSH1 0x20 DUP6 ADD SWAP5 POP PUSH1 0x20 DUP2 ADD SWAP1 POP PUSH2 0xC3E JUMP JUMPDEST DUP7 DUP4 LT ISZERO PUSH2 0xC80 JUMPI DUP5 DUP10 ADD MLOAD PUSH2 0xC7C PUSH1 0x1F DUP10 AND DUP3 PUSH2 0xB8F JUMP JUMPDEST DUP4 SSTORE POP JUMPDEST PUSH1 0x1 PUSH1 0x2 DUP9 MUL ADD DUP9 SSTORE POP POP POP JUMPDEST POP POP POP POP POP POP JUMP JUMPDEST PUSH32 0x4E487B7100000000000000000000000000000000000000000000000000000000 PUSH0 MSTORE PUSH1 0x32 PUSH1 0x4 MSTORE PUSH1 0x24 PUSH0 REVERT JUMPDEST PUSH0 DUP2 SWAP1 POP SWAP3 SWAP2 POP POP JUMP JUMPDEST PUSH0 DUP2 SWAP1 POP DUP2 PUSH0 MSTORE PUSH1 0x20 PUSH0 KECCAK256 SWAP1 POP SWAP2 SWAP1 POP JUMP JUMPDEST PUSH0 DUP2 SLOAD PUSH2 0xCEA DUP2 PUSH2 0x9F9 JUMP JUMPDEST PUSH2 0xCF4 DUP2 DUP7 PUSH2 0xCC2 JUMP JUMPDEST SWAP5 POP PUSH1 0x1 DUP3 AND PUSH0 DUP2 EQ PUSH2 0xD0E JUMPI PUSH1 0x1 DUP2 EQ PUSH2 0xD23 JUMPI PUSH2 0xD55 JUMP JUMPDEST PUSH1 0xFF NOT DUP4 AND DUP7 MSTORE DUP2 ISZERO ISZERO DUP3 MUL DUP7 ADD SWAP4 POP PUSH2 0xD55 JUMP JUMPDEST PUSH2 0xD2C DUP6 PUSH2 0xCCC JUMP JUMPDEST PUSH0 JUMPDEST DUP4 DUP2 LT ISZERO PUSH2 0xD4D JUMPI DUP2 SLOAD DUP2 DUP10 ADD MSTORE PUSH1 0x1 DUP3 ADD SWAP2 POP PUSH1 0x20 DUP2 ADD SWAP1 POP PUSH2 0xD2E JUMP JUMPDEST DUP4 DUP9 ADD SWAP6 POP POP POP JUMPDEST POP POP POP SWAP3 SWAP2 POP POP JUMP JUMPDEST PUSH0 PUSH2 0xD69 DUP3 DUP5 PUSH2 0xCDE JUMP JUMPDEST SWAP2 POP DUP2 SWAP1 POP SWAP3 SWAP2 POP POP JUMP JUMPDEST PUSH32 0x53747564656E74206E6F7420666F756E64000000000000000000000000000000 PUSH0 DUP3 ADD MSTORE POP JUMP JUMPDEST PUSH0 PUSH2 0xDA8 PUSH1 0x11 DUP4 PUSH2 0x6EE JUMP JUMPDEST SWAP2 POP PUSH2 0xDB3 DUP3 PUSH2 0xD74 JUMP JUMPDEST PUSH1 0x20 DUP3 ADD SWAP1 POP SWAP2 SWAP1 POP JUMP JUMPDEST PUSH0 PUSH1 0x20 DUP3 ADD SWAP1 POP DUP2 DUP2 SUB PUSH0 DUP4 ADD MSTORE PUSH2 0xDD5 DUP2 PUSH2 0xD9C JUMP JUMPDEST SWAP1 POP SWAP2 SWAP1 POP JUMP INVALID LOG2 PUSH5 0x6970667358 0x22 SLT KECCAK256 CREATE JUMPI CALLDATACOPY EXP 0x21 0x21 0xE3 0x29 PUSH13 0x5E28B0E2B632BAB6ED71D64984 0x4D 0x2D 0xB7 CALLVALUE SLT 0x21 EXTCODECOPY 0xCC DUP16 CALLDATALOAD PUSH5 0x736F6C6343 STOP ADDMOD BYTE STOP CALLER "
				},
				"gasEstimates": {
					"creation": {
						"codeDepositCost": "720400",
						"executionCost": "751",
						"totalCost": "721151"
					},
					"external": {
						"addStudent(string,uint256,uint256)": "infinite",
						"calculateGrade(uint256)": "infinite",
						"getStudentCount()": "2462",
						"getStudentName(string)": "infinite",
						"students(uint256)": "infinite"
					}
				},
				"methodIdentifiers": {
					"addStudent(string,uint256,uint256)": "682ad06e",
					"calculateGrade(uint256)": "3bf1a7d1",
					"getStudentCount()": "41e0c407",
					"getStudentName(string)": "f317d020",
					"students(uint256)": "06ead22e"
				}
			},
			"storageLayout": {
				"storage": [
					{
						"astId": 14,
						"contract": "cordingtest/cordingtest.sol:Test1",
						"label": "students",
						"offset": 0,
						"slot": "0",
						"type": "t_array(t_struct(Student)10_storage)dyn_storage"
					}
				],
				"types": {
					"t_array(t_struct(Student)10_storage)dyn_storage": {
						"base": "t_struct(Student)10_storage",
						"encoding": "dynamic_array",
						"label": "struct Test1.Student[]",
						"numberOfBytes": "32"
					},
					"t_string_storage": {
						"encoding": "bytes",
						"label": "string",
						"numberOfBytes": "32"
					},
					"t_struct(Student)10_storage": {
						"encoding": "inplace",
						"label": "struct Test1.Student",
						"members": [
							{
								"astId": 3,
								"contract": "cordingtest/cordingtest.sol:Test1",
								"label": "name",
								"offset": 0,
								"slot": "0",
								"type": "t_string_storage"
							},
							{
								"astId": 5,
								"contract": "cordingtest/cordingtest.sol:Test1",
								"label": "number",
								"offset": 0,
								"slot": "1",
								"type": "t_uint256"
							},
							{
								"astId": 7,
								"contract": "cordingtest/cordingtest.sol:Test1",
								"label": "score",
								"offset": 0,
								"slot": "2",
								"type": "t_uint256"
							},
							{
								"astId": 9,
								"contract": "cordingtest/cordingtest.sol:Test1",
								"label": "grade",
								"offset": 0,
								"slot": "3",
								"type": "t_string_storage"
							}
						],
						"numberOfBytes": "128"
					},
					"t_uint256": {
						"encoding": "inplace",
						"label": "uint256",
						"numberOfBytes": "32"
					}
				}
			},
			"userdoc": {
				"kind": "user",
				"methods": {},
				"version": 1
			}
		}
	}
}