{
	"cordingtest/cordingtest10.sol": {
		"TaxOffice": {
			"abi": [
				{
					"inputs": [],
					"stateMutability": "nonpayable",
					"type": "constructor"
				},
				{
					"inputs": [],
					"name": "bankSystemAddress",
					"outputs": [
						{
							"internalType": "address",
							"name": "",
							"type": "address"
						}
					],
					"stateMutability": "view",
					"type": "function"
				},
				{
					"inputs": [
						{
							"internalType": "address",
							"name": "user",
							"type": "address"
						}
					],
					"name": "calculateTax",
					"outputs": [],
					"stateMutability": "nonpayable",
					"type": "function"
				},
				{
					"inputs": [
						{
							"internalType": "address",
							"name": "user",
							"type": "address"
						}
					],
					"name": "forceTaxCollection",
					"outputs": [],
					"stateMutability": "nonpayable",
					"type": "function"
				},
				{
					"inputs": [
						{
							"internalType": "address",
							"name": "user",
							"type": "address"
						}
					],
					"name": "getTaxDue",
					"outputs": [
						{
							"internalType": "uint256",
							"name": "",
							"type": "uint256"
						}
					],
					"stateMutability": "view",
					"type": "function"
				},
				{
					"inputs": [],
					"name": "payTax",
					"outputs": [],
					"stateMutability": "nonpayable",
					"type": "function"
				},
				{
					"inputs": [
						{
							"internalType": "address",
							"name": "_bankSystemAddress",
							"type": "address"
						}
					],
					"name": "setBankSystem",
					"outputs": [],
					"stateMutability": "nonpayable",
					"type": "function"
				},
				{
					"inputs": [
						{
							"internalType": "address",
							"name": "",
							"type": "address"
						}
					],
					"name": "taxDue",
					"outputs": [
						{
							"internalType": "uint256",
							"name": "",
							"type": "uint256"
						}
					],
					"stateMutability": "view",
					"type": "function"
				},
				{
					"inputs": [],
					"name": "taxOfficeAddress",
					"outputs": [
						{
							"internalType": "address",
							"name": "",
							"type": "address"
						}
					],
					"stateMutability": "view",
					"type": "function"
				}
			],
			"devdoc": {
				"kind": "dev",
				"methods": {},
				"version": 1
			},
			"evm": {
				"assembly": "    /* \"cordingtest/cordingtest10.sol\":1632:3077  contract TaxOffice {... */\n  mstore(0x40, 0x80)\n    /* \"cordingtest/cordingtest10.sol\":1777:1837  constructor() {... */\n  callvalue\n  dup1\n  iszero\n  tag_1\n  jumpi\n  0x00\n  dup1\n  revert\ntag_1:\n  pop\n    /* \"cordingtest/cordingtest10.sol\":1820:1830  msg.sender */\n  caller\n    /* \"cordingtest/cordingtest10.sol\":1801:1817  taxOfficeAddress */\n  0x00\n  dup1\n    /* \"cordingtest/cordingtest10.sol\":1801:1830  taxOfficeAddress = msg.sender */\n  0x0100\n  exp\n  dup2\n  sload\n  dup2\n  0xffffffffffffffffffffffffffffffffffffffff\n  mul\n  not\n  and\n  swap1\n  dup4\n  0xffffffffffffffffffffffffffffffffffffffff\n  and\n  mul\n  or\n  swap1\n  sstore\n  pop\n    /* \"cordingtest/cordingtest10.sol\":1632:3077  contract TaxOffice {... */\n  dataSize(sub_0)\n  dup1\n  dataOffset(sub_0)\n  0x00\n  codecopy\n  0x00\n  return\nstop\n\nsub_0: assembly {\n        /* \"cordingtest/cordingtest10.sol\":1632:3077  contract TaxOffice {... */\n      mstore(0x40, 0x80)\n      callvalue\n      dup1\n      iszero\n      tag_1\n      jumpi\n      0x00\n      dup1\n      revert\n    tag_1:\n      pop\n      jumpi(tag_2, lt(calldatasize, 0x04))\n      shr(0xe0, calldataload(0x00))\n      dup1\n      0x609380a2\n      gt\n      tag_11\n      jumpi\n      dup1\n      0x609380a2\n      eq\n      tag_7\n      jumpi\n      dup1\n      0x9695981a\n      eq\n      tag_8\n      jumpi\n      dup1\n      0xc7d55490\n      eq\n      tag_9\n      jumpi\n      dup1\n      0xddb37e09\n      eq\n      tag_10\n      jumpi\n      jump(tag_2)\n    tag_11:\n      dup1\n      0x09952271\n      eq\n      tag_3\n      jumpi\n      dup1\n      0x19746448\n      eq\n      tag_4\n      jumpi\n      dup1\n      0x2912ba5f\n      eq\n      tag_5\n      jumpi\n      dup1\n      0x2c0fe48d\n      eq\n      tag_6\n      jumpi\n    tag_2:\n      0x00\n      dup1\n      revert\n        /* \"cordingtest/cordingtest10.sol\":2052:2238  function calculateTax(address user) external {... */\n    tag_3:\n      tag_12\n      0x04\n      dup1\n      calldatasize\n      sub\n      dup2\n      add\n      swap1\n      tag_13\n      swap2\n      swap1\n      tag_14\n      jump\t// in\n    tag_13:\n      tag_15\n      jump\t// in\n    tag_12:\n      stop\n        /* \"cordingtest/cordingtest10.sol\":2561:2971  function forceTaxCollection(address user) external {... */\n    tag_4:\n      tag_16\n      0x04\n      dup1\n      calldatasize\n      sub\n      dup2\n      add\n      swap1\n      tag_17\n      swap2\n      swap1\n      tag_14\n      jump\t// in\n    tag_17:\n      tag_18\n      jump\t// in\n    tag_16:\n      stop\n        /* \"cordingtest/cordingtest10.sol\":2244:2555  function payTax() external {... */\n    tag_5:\n      tag_19\n      tag_20\n      jump\t// in\n    tag_19:\n      stop\n        /* \"cordingtest/cordingtest10.sol\":2977:3075  function getTaxDue(address user) external view returns (uint) {... */\n    tag_6:\n      tag_21\n      0x04\n      dup1\n      calldatasize\n      sub\n      dup2\n      add\n      swap1\n      tag_22\n      swap2\n      swap1\n      tag_14\n      jump\t// in\n    tag_22:\n      tag_23\n      jump\t// in\n    tag_21:\n      mload(0x40)\n      tag_24\n      swap2\n      swap1\n      tag_25\n      jump\t// in\n    tag_24:\n      mload(0x40)\n      dup1\n      swap2\n      sub\n      swap1\n      return\n        /* \"cordingtest/cordingtest10.sol\":1657:1688  address public taxOfficeAddress */\n    tag_7:\n      tag_26\n      tag_27\n      jump\t// in\n    tag_26:\n      mload(0x40)\n      tag_28\n      swap2\n      swap1\n      tag_29\n      jump\t// in\n    tag_28:\n      mload(0x40)\n      dup1\n      swap2\n      sub\n      swap1\n      return\n        /* \"cordingtest/cordingtest10.sol\":1738:1770  address public bankSystemAddress */\n    tag_8:\n      tag_30\n      tag_31\n      jump\t// in\n    tag_30:\n      mload(0x40)\n      tag_32\n      swap2\n      swap1\n      tag_29\n      jump\t// in\n    tag_32:\n      mload(0x40)\n      dup1\n      swap2\n      sub\n      swap1\n      return\n        /* \"cordingtest/cordingtest10.sol\":1694:1732  mapping(address => uint) public taxDue */\n    tag_9:\n      tag_33\n      0x04\n      dup1\n      calldatasize\n      sub\n      dup2\n      add\n      swap1\n      tag_34\n      swap2\n      swap1\n      tag_14\n      jump\t// in\n    tag_34:\n      tag_35\n      jump\t// in\n    tag_33:\n      mload(0x40)\n      tag_36\n      swap2\n      swap1\n      tag_25\n      jump\t// in\n    tag_36:\n      mload(0x40)\n      dup1\n      swap2\n      sub\n      swap1\n      return\n        /* \"cordingtest/cordingtest10.sol\":1843:2046  function setBankSystem(address _bankSystemAddress) external {... */\n    tag_10:\n      tag_37\n      0x04\n      dup1\n      calldatasize\n      sub\n      dup2\n      add\n      swap1\n      tag_38\n      swap2\n      swap1\n      tag_14\n      jump\t// in\n    tag_38:\n      tag_39\n      jump\t// in\n    tag_37:\n      stop\n        /* \"cordingtest/cordingtest10.sol\":2052:2238  function calculateTax(address user) external {... */\n    tag_15:\n        /* \"cordingtest/cordingtest10.sol\":2107:2124  uint totalBalance */\n      0x00\n        /* \"cordingtest/cordingtest10.sol\":2138:2155  bankSystemAddress */\n      0x02\n      0x00\n      swap1\n      sload\n      swap1\n      0x0100\n      exp\n      swap1\n      div\n      0xffffffffffffffffffffffffffffffffffffffff\n      and\n        /* \"cordingtest/cordingtest10.sol\":2127:2172  BankSystem(bankSystemAddress).getTotalBalance */\n      0xffffffffffffffffffffffffffffffffffffffff\n      and\n      0xd3d38193\n        /* \"cordingtest/cordingtest10.sol\":2173:2177  user */\n      dup4\n        /* \"cordingtest/cordingtest10.sol\":2127:2178  BankSystem(bankSystemAddress).getTotalBalance(user) */\n      mload(0x40)\n      dup3\n      0xffffffff\n      and\n      0xe0\n      shl\n      dup2\n      mstore\n      0x04\n      add\n      tag_41\n      swap2\n      swap1\n      tag_29\n      jump\t// in\n    tag_41:\n      0x20\n      mload(0x40)\n      dup1\n      dup4\n      sub\n      dup2\n      dup7\n      gas\n      staticcall\n      iszero\n      dup1\n      iszero\n      tag_43\n      jumpi\n      returndatasize\n      0x00\n      dup1\n      returndatacopy\n      revert(0x00, returndatasize)\n    tag_43:\n      pop\n      pop\n      pop\n      pop\n      mload(0x40)\n      returndatasize\n      not(0x1f)\n      0x1f\n      dup3\n      add\n      and\n      dup3\n      add\n      dup1\n      0x40\n      mstore\n      pop\n      dup2\n      add\n      swap1\n      tag_44\n      swap2\n      swap1\n      tag_45\n      jump\t// in\n    tag_44:\n        /* \"cordingtest/cordingtest10.sol\":2107:2178  uint totalBalance = BankSystem(bankSystemAddress).getTotalBalance(user) */\n      swap1\n      pop\n        /* \"cordingtest/cordingtest10.sol\":2218:2221  100 */\n      0x64\n        /* \"cordingtest/cordingtest10.sol\":2203:2215  totalBalance */\n      dup2\n        /* \"cordingtest/cordingtest10.sol\":2203:2221  totalBalance / 100 */\n      tag_46\n      swap2\n      swap1\n      tag_47\n      jump\t// in\n    tag_46:\n        /* \"cordingtest/cordingtest10.sol\":2188:2194  taxDue */\n      0x01\n        /* \"cordingtest/cordingtest10.sol\":2188:2200  taxDue[user] */\n      0x00\n        /* \"cordingtest/cordingtest10.sol\":2195:2199  user */\n      dup5\n        /* \"cordingtest/cordingtest10.sol\":2188:2200  taxDue[user] */\n      0xffffffffffffffffffffffffffffffffffffffff\n      and\n      0xffffffffffffffffffffffffffffffffffffffff\n      and\n      dup2\n      mstore\n      0x20\n      add\n      swap1\n      dup2\n      mstore\n      0x20\n      add\n      0x00\n      keccak256\n        /* \"cordingtest/cordingtest10.sol\":2188:2221  taxDue[user] = totalBalance / 100 */\n      dup2\n      swap1\n      sstore\n      pop\n        /* \"cordingtest/cordingtest10.sol\":2097:2238  {... */\n      pop\n        /* \"cordingtest/cordingtest10.sol\":2052:2238  function calculateTax(address user) external {... */\n      pop\n      jump\t// out\n        /* \"cordingtest/cordingtest10.sol\":2561:2971  function forceTaxCollection(address user) external {... */\n    tag_18:\n        /* \"cordingtest/cordingtest10.sol\":2644:2660  taxOfficeAddress */\n      0x00\n      dup1\n      sload\n      swap1\n      0x0100\n      exp\n      swap1\n      div\n      0xffffffffffffffffffffffffffffffffffffffff\n      and\n        /* \"cordingtest/cordingtest10.sol\":2630:2660  msg.sender == taxOfficeAddress */\n      0xffffffffffffffffffffffffffffffffffffffff\n      and\n        /* \"cordingtest/cordingtest10.sol\":2630:2640  msg.sender */\n      caller\n        /* \"cordingtest/cordingtest10.sol\":2630:2660  msg.sender == taxOfficeAddress */\n      0xffffffffffffffffffffffffffffffffffffffff\n      and\n      eq\n        /* \"cordingtest/cordingtest10.sol\":2622:2701  require(msg.sender == taxOfficeAddress, \"Only tax office can force collection\") */\n      tag_49\n      jumpi\n      mload(0x40)\n      0x08c379a000000000000000000000000000000000000000000000000000000000\n      dup2\n      mstore\n      0x04\n      add\n      tag_50\n      swap1\n      tag_51\n      jump\t// in\n    tag_50:\n      mload(0x40)\n      dup1\n      swap2\n      sub\n      swap1\n      revert\n    tag_49:\n        /* \"cordingtest/cordingtest10.sol\":2734:2735  0 */\n      0x00\n        /* \"cordingtest/cordingtest10.sol\":2719:2725  taxDue */\n      0x01\n        /* \"cordingtest/cordingtest10.sol\":2719:2731  taxDue[user] */\n      0x00\n        /* \"cordingtest/cordingtest10.sol\":2726:2730  user */\n      dup4\n        /* \"cordingtest/cordingtest10.sol\":2719:2731  taxDue[user] */\n      0xffffffffffffffffffffffffffffffffffffffff\n      and\n      0xffffffffffffffffffffffffffffffffffffffff\n      and\n      dup2\n      mstore\n      0x20\n      add\n      swap1\n      dup2\n      mstore\n      0x20\n      add\n      0x00\n      keccak256\n      sload\n        /* \"cordingtest/cordingtest10.sol\":2719:2735  taxDue[user] > 0 */\n      gt\n        /* \"cordingtest/cordingtest10.sol\":2711:2750  require(taxDue[user] > 0, \"No tax due\") */\n      tag_52\n      jumpi\n      mload(0x40)\n      0x08c379a000000000000000000000000000000000000000000000000000000000\n      dup2\n      mstore\n      0x04\n      add\n      tag_53\n      swap1\n      tag_54\n      jump\t// in\n    tag_53:\n      mload(0x40)\n      dup1\n      swap2\n      sub\n      swap1\n      revert\n    tag_52:\n        /* \"cordingtest/cordingtest10.sol\":2760:2774  uint taxAmount */\n      0x00\n        /* \"cordingtest/cordingtest10.sol\":2777:2783  taxDue */\n      0x01\n        /* \"cordingtest/cordingtest10.sol\":2777:2789  taxDue[user] */\n      0x00\n        /* \"cordingtest/cordingtest10.sol\":2784:2788  user */\n      dup4\n        /* \"cordingtest/cordingtest10.sol\":2777:2789  taxDue[user] */\n      0xffffffffffffffffffffffffffffffffffffffff\n      and\n      0xffffffffffffffffffffffffffffffffffffffff\n      and\n      dup2\n      mstore\n      0x20\n      add\n      swap1\n      dup2\n      mstore\n      0x20\n      add\n      0x00\n      keccak256\n      sload\n        /* \"cordingtest/cordingtest10.sol\":2760:2789  uint taxAmount = taxDue[user] */\n      swap1\n      pop\n        /* \"cordingtest/cordingtest10.sol\":2799:2811  bool success */\n      0x00\n        /* \"cordingtest/cordingtest10.sol\":2825:2842  bankSystemAddress */\n      0x02\n      0x00\n      swap1\n      sload\n      swap1\n      0x0100\n      exp\n      swap1\n      div\n      0xffffffffffffffffffffffffffffffffffffffff\n      and\n        /* \"cordingtest/cordingtest10.sol\":2814:2863  BankSystem(bankSystemAddress).transferToTaxOffice */\n      0xffffffffffffffffffffffffffffffffffffffff\n      and\n      0xab4f049a\n        /* \"cordingtest/cordingtest10.sol\":2864:2868  user */\n      dup5\n        /* \"cordingtest/cordingtest10.sol\":2870:2879  taxAmount */\n      dup5\n        /* \"cordingtest/cordingtest10.sol\":2814:2880  BankSystem(bankSystemAddress).transferToTaxOffice(user, taxAmount) */\n      mload(0x40)\n      dup4\n      0xffffffff\n      and\n      0xe0\n      shl\n      dup2\n      mstore\n      0x04\n      add\n      tag_55\n      swap3\n      swap2\n      swap1\n      tag_56\n      jump\t// in\n    tag_55:\n      0x20\n      mload(0x40)\n      dup1\n      dup4\n      sub\n      dup2\n      0x00\n      dup8\n      gas\n      call\n      iszero\n      dup1\n      iszero\n      tag_58\n      jumpi\n      returndatasize\n      0x00\n      dup1\n      returndatacopy\n      revert(0x00, returndatasize)\n    tag_58:\n      pop\n      pop\n      pop\n      pop\n      mload(0x40)\n      returndatasize\n      not(0x1f)\n      0x1f\n      dup3\n      add\n      and\n      dup3\n      add\n      dup1\n      0x40\n      mstore\n      pop\n      dup2\n      add\n      swap1\n      tag_59\n      swap2\n      swap1\n      tag_60\n      jump\t// in\n    tag_59:\n        /* \"cordingtest/cordingtest10.sol\":2799:2880  bool success = BankSystem(bankSystemAddress).transferToTaxOffice(user, taxAmount) */\n      swap1\n      pop\n        /* \"cordingtest/cordingtest10.sol\":2898:2905  success */\n      dup1\n        /* \"cordingtest/cordingtest10.sol\":2890:2938  require(success, \"Forced tax collection failed\") */\n      tag_61\n      jumpi\n      mload(0x40)\n      0x08c379a000000000000000000000000000000000000000000000000000000000\n      dup2\n      mstore\n      0x04\n      add\n      tag_62\n      swap1\n      tag_63\n      jump\t// in\n    tag_62:\n      mload(0x40)\n      dup1\n      swap2\n      sub\n      swap1\n      revert\n    tag_61:\n        /* \"cordingtest/cordingtest10.sol\":2963:2964  0 */\n      0x00\n        /* \"cordingtest/cordingtest10.sol\":2948:2954  taxDue */\n      0x01\n        /* \"cordingtest/cordingtest10.sol\":2948:2960  taxDue[user] */\n      0x00\n        /* \"cordingtest/cordingtest10.sol\":2955:2959  user */\n      dup6\n        /* \"cordingtest/cordingtest10.sol\":2948:2960  taxDue[user] */\n      0xffffffffffffffffffffffffffffffffffffffff\n      and\n      0xffffffffffffffffffffffffffffffffffffffff\n      and\n      dup2\n      mstore\n      0x20\n      add\n      swap1\n      dup2\n      mstore\n      0x20\n      add\n      0x00\n      keccak256\n        /* \"cordingtest/cordingtest10.sol\":2948:2964  taxDue[user] = 0 */\n      dup2\n      swap1\n      sstore\n      pop\n        /* \"cordingtest/cordingtest10.sol\":2612:2971  {... */\n      pop\n      pop\n        /* \"cordingtest/cordingtest10.sol\":2561:2971  function forceTaxCollection(address user) external {... */\n      pop\n      jump\t// out\n        /* \"cordingtest/cordingtest10.sol\":2244:2555  function payTax() external {... */\n    tag_20:\n        /* \"cordingtest/cordingtest10.sol\":2310:2311  0 */\n      0x00\n        /* \"cordingtest/cordingtest10.sol\":2289:2295  taxDue */\n      0x01\n        /* \"cordingtest/cordingtest10.sol\":2289:2307  taxDue[msg.sender] */\n      0x00\n        /* \"cordingtest/cordingtest10.sol\":2296:2306  msg.sender */\n      caller\n        /* \"cordingtest/cordingtest10.sol\":2289:2307  taxDue[msg.sender] */\n      0xffffffffffffffffffffffffffffffffffffffff\n      and\n      0xffffffffffffffffffffffffffffffffffffffff\n      and\n      dup2\n      mstore\n      0x20\n      add\n      swap1\n      dup2\n      mstore\n      0x20\n      add\n      0x00\n      keccak256\n      sload\n        /* \"cordingtest/cordingtest10.sol\":2289:2311  taxDue[msg.sender] > 0 */\n      gt\n        /* \"cordingtest/cordingtest10.sol\":2281:2326  require(taxDue[msg.sender] > 0, \"No tax due\") */\n      tag_65\n      jumpi\n      mload(0x40)\n      0x08c379a000000000000000000000000000000000000000000000000000000000\n      dup2\n      mstore\n      0x04\n      add\n      tag_66\n      swap1\n      tag_54\n      jump\t// in\n    tag_66:\n      mload(0x40)\n      dup1\n      swap2\n      sub\n      swap1\n      revert\n    tag_65:\n        /* \"cordingtest/cordingtest10.sol\":2336:2350  uint taxAmount */\n      0x00\n        /* \"cordingtest/cordingtest10.sol\":2353:2359  taxDue */\n      0x01\n        /* \"cordingtest/cordingtest10.sol\":2353:2371  taxDue[msg.sender] */\n      0x00\n        /* \"cordingtest/cordingtest10.sol\":2360:2370  msg.sender */\n      caller\n        /* \"cordingtest/cordingtest10.sol\":2353:2371  taxDue[msg.sender] */\n      0xffffffffffffffffffffffffffffffffffffffff\n      and\n      0xffffffffffffffffffffffffffffffffffffffff\n      and\n      dup2\n      mstore\n      0x20\n      add\n      swap1\n      dup2\n      mstore\n      0x20\n      add\n      0x00\n      keccak256\n      sload\n        /* \"cordingtest/cordingtest10.sol\":2336:2371  uint taxAmount = taxDue[msg.sender] */\n      swap1\n      pop\n        /* \"cordingtest/cordingtest10.sol\":2381:2393  bool success */\n      0x00\n        /* \"cordingtest/cordingtest10.sol\":2407:2424  bankSystemAddress */\n      0x02\n      0x00\n      swap1\n      sload\n      swap1\n      0x0100\n      exp\n      swap1\n      div\n      0xffffffffffffffffffffffffffffffffffffffff\n      and\n        /* \"cordingtest/cordingtest10.sol\":2396:2445  BankSystem(bankSystemAddress).transferToTaxOffice */\n      0xffffffffffffffffffffffffffffffffffffffff\n      and\n      0xab4f049a\n        /* \"cordingtest/cordingtest10.sol\":2446:2456  msg.sender */\n      caller\n        /* \"cordingtest/cordingtest10.sol\":2458:2467  taxAmount */\n      dup5\n        /* \"cordingtest/cordingtest10.sol\":2396:2468  BankSystem(bankSystemAddress).transferToTaxOffice(msg.sender, taxAmount) */\n      mload(0x40)\n      dup4\n      0xffffffff\n      and\n      0xe0\n      shl\n      dup2\n      mstore\n      0x04\n      add\n      tag_67\n      swap3\n      swap2\n      swap1\n      tag_56\n      jump\t// in\n    tag_67:\n      0x20\n      mload(0x40)\n      dup1\n      dup4\n      sub\n      dup2\n      0x00\n      dup8\n      gas\n      call\n      iszero\n      dup1\n      iszero\n      tag_69\n      jumpi\n      returndatasize\n      0x00\n      dup1\n      returndatacopy\n      revert(0x00, returndatasize)\n    tag_69:\n      pop\n      pop\n      pop\n      pop\n      mload(0x40)\n      returndatasize\n      not(0x1f)\n      0x1f\n      dup3\n      add\n      and\n      dup3\n      add\n      dup1\n      0x40\n      mstore\n      pop\n      dup2\n      add\n      swap1\n      tag_70\n      swap2\n      swap1\n      tag_60\n      jump\t// in\n    tag_70:\n        /* \"cordingtest/cordingtest10.sol\":2381:2468  bool success = BankSystem(bankSystemAddress).transferToTaxOffice(msg.sender, taxAmount) */\n      swap1\n      pop\n        /* \"cordingtest/cordingtest10.sol\":2486:2493  success */\n      dup1\n        /* \"cordingtest/cordingtest10.sol\":2478:2516  require(success, \"Tax payment failed\") */\n      tag_71\n      jumpi\n      mload(0x40)\n      0x08c379a000000000000000000000000000000000000000000000000000000000\n      dup2\n      mstore\n      0x04\n      add\n      tag_72\n      swap1\n      tag_73\n      jump\t// in\n    tag_72:\n      mload(0x40)\n      dup1\n      swap2\n      sub\n      swap1\n      revert\n    tag_71:\n        /* \"cordingtest/cordingtest10.sol\":2547:2548  0 */\n      0x00\n        /* \"cordingtest/cordingtest10.sol\":2526:2532  taxDue */\n      0x01\n        /* \"cordingtest/cordingtest10.sol\":2526:2544  taxDue[msg.sender] */\n      0x00\n        /* \"cordingtest/cordingtest10.sol\":2533:2543  msg.sender */\n      caller\n        /* \"cordingtest/cordingtest10.sol\":2526:2544  taxDue[msg.sender] */\n      0xffffffffffffffffffffffffffffffffffffffff\n      and\n      0xffffffffffffffffffffffffffffffffffffffff\n      and\n      dup2\n      mstore\n      0x20\n      add\n      swap1\n      dup2\n      mstore\n      0x20\n      add\n      0x00\n      keccak256\n        /* \"cordingtest/cordingtest10.sol\":2526:2548  taxDue[msg.sender] = 0 */\n      dup2\n      swap1\n      sstore\n      pop\n        /* \"cordingtest/cordingtest10.sol\":2271:2555  {... */\n      pop\n      pop\n        /* \"cordingtest/cordingtest10.sol\":2244:2555  function payTax() external {... */\n      jump\t// out\n        /* \"cordingtest/cordingtest10.sol\":2977:3075  function getTaxDue(address user) external view returns (uint) {... */\n    tag_23:\n        /* \"cordingtest/cordingtest10.sol\":3033:3037  uint */\n      0x00\n        /* \"cordingtest/cordingtest10.sol\":3056:3062  taxDue */\n      0x01\n        /* \"cordingtest/cordingtest10.sol\":3056:3068  taxDue[user] */\n      0x00\n        /* \"cordingtest/cordingtest10.sol\":3063:3067  user */\n      dup4\n        /* \"cordingtest/cordingtest10.sol\":3056:3068  taxDue[user] */\n      0xffffffffffffffffffffffffffffffffffffffff\n      and\n      0xffffffffffffffffffffffffffffffffffffffff\n      and\n      dup2\n      mstore\n      0x20\n      add\n      swap1\n      dup2\n      mstore\n      0x20\n      add\n      0x00\n      keccak256\n      sload\n        /* \"cordingtest/cordingtest10.sol\":3049:3068  return taxDue[user] */\n      swap1\n      pop\n        /* \"cordingtest/cordingtest10.sol\":2977:3075  function getTaxDue(address user) external view returns (uint) {... */\n      swap2\n      swap1\n      pop\n      jump\t// out\n        /* \"cordingtest/cordingtest10.sol\":1657:1688  address public taxOfficeAddress */\n    tag_27:\n      0x00\n      dup1\n      sload\n      swap1\n      0x0100\n      exp\n      swap1\n      div\n      0xffffffffffffffffffffffffffffffffffffffff\n      and\n      dup2\n      jump\t// out\n        /* \"cordingtest/cordingtest10.sol\":1738:1770  address public bankSystemAddress */\n    tag_31:\n      0x02\n      0x00\n      swap1\n      sload\n      swap1\n      0x0100\n      exp\n      swap1\n      div\n      0xffffffffffffffffffffffffffffffffffffffff\n      and\n      dup2\n      jump\t// out\n        /* \"cordingtest/cordingtest10.sol\":1694:1732  mapping(address => uint) public taxDue */\n    tag_35:\n      mstore(0x20, 0x01)\n      dup1\n      0x00\n      mstore\n      keccak256(0x00, 0x40)\n      0x00\n      swap2\n      pop\n      swap1\n      pop\n      sload\n      dup2\n      jump\t// out\n        /* \"cordingtest/cordingtest10.sol\":1843:2046  function setBankSystem(address _bankSystemAddress) external {... */\n    tag_39:\n        /* \"cordingtest/cordingtest10.sol\":1935:1951  taxOfficeAddress */\n      0x00\n      dup1\n      sload\n      swap1\n      0x0100\n      exp\n      swap1\n      div\n      0xffffffffffffffffffffffffffffffffffffffff\n      and\n        /* \"cordingtest/cordingtest10.sol\":1921:1951  msg.sender == taxOfficeAddress */\n      0xffffffffffffffffffffffffffffffffffffffff\n      and\n        /* \"cordingtest/cordingtest10.sol\":1921:1931  msg.sender */\n      caller\n        /* \"cordingtest/cordingtest10.sol\":1921:1951  msg.sender == taxOfficeAddress */\n      0xffffffffffffffffffffffffffffffffffffffff\n      and\n      eq\n        /* \"cordingtest/cordingtest10.sol\":1913:1991  require(msg.sender == taxOfficeAddress, \"Only tax office can set bank system\") */\n      tag_76\n      jumpi\n      mload(0x40)\n      0x08c379a000000000000000000000000000000000000000000000000000000000\n      dup2\n      mstore\n      0x04\n      add\n      tag_77\n      swap1\n      tag_78\n      jump\t// in\n    tag_77:\n      mload(0x40)\n      dup1\n      swap2\n      sub\n      swap1\n      revert\n    tag_76:\n        /* \"cordingtest/cordingtest10.sol\":2021:2039  _bankSystemAddress */\n      dup1\n        /* \"cordingtest/cordingtest10.sol\":2001:2018  bankSystemAddress */\n      0x02\n      0x00\n        /* \"cordingtest/cordingtest10.sol\":2001:2039  bankSystemAddress = _bankSystemAddress */\n      0x0100\n      exp\n      dup2\n      sload\n      dup2\n      0xffffffffffffffffffffffffffffffffffffffff\n      mul\n      not\n      and\n      swap1\n      dup4\n      0xffffffffffffffffffffffffffffffffffffffff\n      and\n      mul\n      or\n      swap1\n      sstore\n      pop\n        /* \"cordingtest/cordingtest10.sol\":1843:2046  function setBankSystem(address _bankSystemAddress) external {... */\n      pop\n      jump\t// out\n        /* \"#utility.yul\":88:205   */\n    tag_80:\n        /* \"#utility.yul\":197:198   */\n      0x00\n        /* \"#utility.yul\":194:195   */\n      dup1\n        /* \"#utility.yul\":187:199   */\n      revert\n        /* \"#utility.yul\":334:460   */\n    tag_82:\n        /* \"#utility.yul\":371:378   */\n      0x00\n        /* \"#utility.yul\":411:453   */\n      0xffffffffffffffffffffffffffffffffffffffff\n        /* \"#utility.yul\":404:409   */\n      dup3\n        /* \"#utility.yul\":400:454   */\n      and\n        /* \"#utility.yul\":389:454   */\n      swap1\n      pop\n        /* \"#utility.yul\":334:460   */\n      swap2\n      swap1\n      pop\n      jump\t// out\n        /* \"#utility.yul\":466:562   */\n    tag_83:\n        /* \"#utility.yul\":503:510   */\n      0x00\n        /* \"#utility.yul\":532:556   */\n      tag_113\n        /* \"#utility.yul\":550:555   */\n      dup3\n        /* \"#utility.yul\":532:556   */\n      tag_82\n      jump\t// in\n    tag_113:\n        /* \"#utility.yul\":521:556   */\n      swap1\n      pop\n        /* \"#utility.yul\":466:562   */\n      swap2\n      swap1\n      pop\n      jump\t// out\n        /* \"#utility.yul\":568:690   */\n    tag_84:\n        /* \"#utility.yul\":641:665   */\n      tag_115\n        /* \"#utility.yul\":659:664   */\n      dup2\n        /* \"#utility.yul\":641:665   */\n      tag_83\n      jump\t// in\n    tag_115:\n        /* \"#utility.yul\":634:639   */\n      dup2\n        /* \"#utility.yul\":631:666   */\n      eq\n        /* \"#utility.yul\":621:684   */\n      tag_116\n      jumpi\n        /* \"#utility.yul\":680:681   */\n      0x00\n        /* \"#utility.yul\":677:678   */\n      dup1\n        /* \"#utility.yul\":670:682   */\n      revert\n        /* \"#utility.yul\":621:684   */\n    tag_116:\n        /* \"#utility.yul\":568:690   */\n      pop\n      jump\t// out\n        /* \"#utility.yul\":696:835   */\n    tag_85:\n        /* \"#utility.yul\":742:747   */\n      0x00\n        /* \"#utility.yul\":780:786   */\n      dup2\n        /* \"#utility.yul\":767:787   */\n      calldataload\n        /* \"#utility.yul\":758:787   */\n      swap1\n      pop\n        /* \"#utility.yul\":796:829   */\n      tag_118\n        /* \"#utility.yul\":823:828   */\n      dup2\n        /* \"#utility.yul\":796:829   */\n      tag_84\n      jump\t// in\n    tag_118:\n        /* \"#utility.yul\":696:835   */\n      swap3\n      swap2\n      pop\n      pop\n      jump\t// out\n        /* \"#utility.yul\":841:1170   */\n    tag_14:\n        /* \"#utility.yul\":900:906   */\n      0x00\n        /* \"#utility.yul\":949:951   */\n      0x20\n        /* \"#utility.yul\":937:946   */\n      dup3\n        /* \"#utility.yul\":928:935   */\n      dup5\n        /* \"#utility.yul\":924:947   */\n      sub\n        /* \"#utility.yul\":920:952   */\n      slt\n        /* \"#utility.yul\":917:1036   */\n      iszero\n      tag_120\n      jumpi\n        /* \"#utility.yul\":955:1034   */\n      tag_121\n      tag_80\n      jump\t// in\n    tag_121:\n        /* \"#utility.yul\":917:1036   */\n    tag_120:\n        /* \"#utility.yul\":1075:1076   */\n      0x00\n        /* \"#utility.yul\":1100:1153   */\n      tag_122\n        /* \"#utility.yul\":1145:1152   */\n      dup5\n        /* \"#utility.yul\":1136:1142   */\n      dup3\n        /* \"#utility.yul\":1125:1134   */\n      dup6\n        /* \"#utility.yul\":1121:1143   */\n      add\n        /* \"#utility.yul\":1100:1153   */\n      tag_85\n      jump\t// in\n    tag_122:\n        /* \"#utility.yul\":1090:1153   */\n      swap2\n      pop\n        /* \"#utility.yul\":1046:1163   */\n      pop\n        /* \"#utility.yul\":841:1170   */\n      swap3\n      swap2\n      pop\n      pop\n      jump\t// out\n        /* \"#utility.yul\":1176:1253   */\n    tag_86:\n        /* \"#utility.yul\":1213:1220   */\n      0x00\n        /* \"#utility.yul\":1242:1247   */\n      dup2\n        /* \"#utility.yul\":1231:1247   */\n      swap1\n      pop\n        /* \"#utility.yul\":1176:1253   */\n      swap2\n      swap1\n      pop\n      jump\t// out\n        /* \"#utility.yul\":1259:1377   */\n    tag_87:\n        /* \"#utility.yul\":1346:1370   */\n      tag_125\n        /* \"#utility.yul\":1364:1369   */\n      dup2\n        /* \"#utility.yul\":1346:1370   */\n      tag_86\n      jump\t// in\n    tag_125:\n        /* \"#utility.yul\":1341:1344   */\n      dup3\n        /* \"#utility.yul\":1334:1371   */\n      mstore\n        /* \"#utility.yul\":1259:1377   */\n      pop\n      pop\n      jump\t// out\n        /* \"#utility.yul\":1383:1605   */\n    tag_25:\n        /* \"#utility.yul\":1476:1480   */\n      0x00\n        /* \"#utility.yul\":1514:1516   */\n      0x20\n        /* \"#utility.yul\":1503:1512   */\n      dup3\n        /* \"#utility.yul\":1499:1517   */\n      add\n        /* \"#utility.yul\":1491:1517   */\n      swap1\n      pop\n        /* \"#utility.yul\":1527:1598   */\n      tag_127\n        /* \"#utility.yul\":1595:1596   */\n      0x00\n        /* \"#utility.yul\":1584:1593   */\n      dup4\n        /* \"#utility.yul\":1580:1597   */\n      add\n        /* \"#utility.yul\":1571:1577   */\n      dup5\n        /* \"#utility.yul\":1527:1598   */\n      tag_87\n      jump\t// in\n    tag_127:\n        /* \"#utility.yul\":1383:1605   */\n      swap3\n      swap2\n      pop\n      pop\n      jump\t// out\n        /* \"#utility.yul\":1611:1729   */\n    tag_88:\n        /* \"#utility.yul\":1698:1722   */\n      tag_129\n        /* \"#utility.yul\":1716:1721   */\n      dup2\n        /* \"#utility.yul\":1698:1722   */\n      tag_83\n      jump\t// in\n    tag_129:\n        /* \"#utility.yul\":1693:1696   */\n      dup3\n        /* \"#utility.yul\":1686:1723   */\n      mstore\n        /* \"#utility.yul\":1611:1729   */\n      pop\n      pop\n      jump\t// out\n        /* \"#utility.yul\":1735:1957   */\n    tag_29:\n        /* \"#utility.yul\":1828:1832   */\n      0x00\n        /* \"#utility.yul\":1866:1868   */\n      0x20\n        /* \"#utility.yul\":1855:1864   */\n      dup3\n        /* \"#utility.yul\":1851:1869   */\n      add\n        /* \"#utility.yul\":1843:1869   */\n      swap1\n      pop\n        /* \"#utility.yul\":1879:1950   */\n      tag_131\n        /* \"#utility.yul\":1947:1948   */\n      0x00\n        /* \"#utility.yul\":1936:1945   */\n      dup4\n        /* \"#utility.yul\":1932:1949   */\n      add\n        /* \"#utility.yul\":1923:1929   */\n      dup5\n        /* \"#utility.yul\":1879:1950   */\n      tag_88\n      jump\t// in\n    tag_131:\n        /* \"#utility.yul\":1735:1957   */\n      swap3\n      swap2\n      pop\n      pop\n      jump\t// out\n        /* \"#utility.yul\":1963:2085   */\n    tag_89:\n        /* \"#utility.yul\":2036:2060   */\n      tag_133\n        /* \"#utility.yul\":2054:2059   */\n      dup2\n        /* \"#utility.yul\":2036:2060   */\n      tag_86\n      jump\t// in\n    tag_133:\n        /* \"#utility.yul\":2029:2034   */\n      dup2\n        /* \"#utility.yul\":2026:2061   */\n      eq\n        /* \"#utility.yul\":2016:2079   */\n      tag_134\n      jumpi\n        /* \"#utility.yul\":2075:2076   */\n      0x00\n        /* \"#utility.yul\":2072:2073   */\n      dup1\n        /* \"#utility.yul\":2065:2077   */\n      revert\n        /* \"#utility.yul\":2016:2079   */\n    tag_134:\n        /* \"#utility.yul\":1963:2085   */\n      pop\n      jump\t// out\n        /* \"#utility.yul\":2091:2234   */\n    tag_90:\n        /* \"#utility.yul\":2148:2153   */\n      0x00\n        /* \"#utility.yul\":2179:2185   */\n      dup2\n        /* \"#utility.yul\":2173:2186   */\n      mload\n        /* \"#utility.yul\":2164:2186   */\n      swap1\n      pop\n        /* \"#utility.yul\":2195:2228   */\n      tag_136\n        /* \"#utility.yul\":2222:2227   */\n      dup2\n        /* \"#utility.yul\":2195:2228   */\n      tag_89\n      jump\t// in\n    tag_136:\n        /* \"#utility.yul\":2091:2234   */\n      swap3\n      swap2\n      pop\n      pop\n      jump\t// out\n        /* \"#utility.yul\":2240:2591   */\n    tag_45:\n        /* \"#utility.yul\":2310:2316   */\n      0x00\n        /* \"#utility.yul\":2359:2361   */\n      0x20\n        /* \"#utility.yul\":2347:2356   */\n      dup3\n        /* \"#utility.yul\":2338:2345   */\n      dup5\n        /* \"#utility.yul\":2334:2357   */\n      sub\n        /* \"#utility.yul\":2330:2362   */\n      slt\n        /* \"#utility.yul\":2327:2446   */\n      iszero\n      tag_138\n      jumpi\n        /* \"#utility.yul\":2365:2444   */\n      tag_139\n      tag_80\n      jump\t// in\n    tag_139:\n        /* \"#utility.yul\":2327:2446   */\n    tag_138:\n        /* \"#utility.yul\":2485:2486   */\n      0x00\n        /* \"#utility.yul\":2510:2574   */\n      tag_140\n        /* \"#utility.yul\":2566:2573   */\n      dup5\n        /* \"#utility.yul\":2557:2563   */\n      dup3\n        /* \"#utility.yul\":2546:2555   */\n      dup6\n        /* \"#utility.yul\":2542:2564   */\n      add\n        /* \"#utility.yul\":2510:2574   */\n      tag_90\n      jump\t// in\n    tag_140:\n        /* \"#utility.yul\":2500:2574   */\n      swap2\n      pop\n        /* \"#utility.yul\":2456:2584   */\n      pop\n        /* \"#utility.yul\":2240:2591   */\n      swap3\n      swap2\n      pop\n      pop\n      jump\t// out\n        /* \"#utility.yul\":2597:2777   */\n    tag_91:\n        /* \"#utility.yul\":2645:2722   */\n      0x4e487b7100000000000000000000000000000000000000000000000000000000\n        /* \"#utility.yul\":2642:2643   */\n      0x00\n        /* \"#utility.yul\":2635:2723   */\n      mstore\n        /* \"#utility.yul\":2742:2746   */\n      0x12\n        /* \"#utility.yul\":2739:2740   */\n      0x04\n        /* \"#utility.yul\":2732:2747   */\n      mstore\n        /* \"#utility.yul\":2766:2770   */\n      0x24\n        /* \"#utility.yul\":2763:2764   */\n      0x00\n        /* \"#utility.yul\":2756:2771   */\n      revert\n        /* \"#utility.yul\":2969:3154   */\n    tag_47:\n        /* \"#utility.yul\":3009:3010   */\n      0x00\n        /* \"#utility.yul\":3026:3046   */\n      tag_144\n        /* \"#utility.yul\":3044:3045   */\n      dup3\n        /* \"#utility.yul\":3026:3046   */\n      tag_86\n      jump\t// in\n    tag_144:\n        /* \"#utility.yul\":3021:3046   */\n      swap2\n      pop\n        /* \"#utility.yul\":3060:3080   */\n      tag_145\n        /* \"#utility.yul\":3078:3079   */\n      dup4\n        /* \"#utility.yul\":3060:3080   */\n      tag_86\n      jump\t// in\n    tag_145:\n        /* \"#utility.yul\":3055:3080   */\n      swap3\n      pop\n        /* \"#utility.yul\":3099:3100   */\n      dup3\n        /* \"#utility.yul\":3089:3124   */\n      tag_146\n      jumpi\n        /* \"#utility.yul\":3104:3122   */\n      tag_147\n      tag_91\n      jump\t// in\n    tag_147:\n        /* \"#utility.yul\":3089:3124   */\n    tag_146:\n        /* \"#utility.yul\":3146:3147   */\n      dup3\n        /* \"#utility.yul\":3143:3144   */\n      dup3\n        /* \"#utility.yul\":3139:3148   */\n      div\n        /* \"#utility.yul\":3134:3148   */\n      swap1\n      pop\n        /* \"#utility.yul\":2969:3154   */\n      swap3\n      swap2\n      pop\n      pop\n      jump\t// out\n        /* \"#utility.yul\":3160:3329   */\n    tag_93:\n        /* \"#utility.yul\":3244:3255   */\n      0x00\n        /* \"#utility.yul\":3278:3284   */\n      dup3\n        /* \"#utility.yul\":3273:3276   */\n      dup3\n        /* \"#utility.yul\":3266:3285   */\n      mstore\n        /* \"#utility.yul\":3318:3322   */\n      0x20\n        /* \"#utility.yul\":3313:3316   */\n      dup3\n        /* \"#utility.yul\":3309:3323   */\n      add\n        /* \"#utility.yul\":3294:3323   */\n      swap1\n      pop\n        /* \"#utility.yul\":3160:3329   */\n      swap3\n      swap2\n      pop\n      pop\n      jump\t// out\n        /* \"#utility.yul\":3335:3558   */\n    tag_94:\n        /* \"#utility.yul\":3475:3509   */\n      0x4f6e6c7920746178206f66666963652063616e20666f72636520636f6c6c6563\n        /* \"#utility.yul\":3471:3472   */\n      0x00\n        /* \"#utility.yul\":3463:3469   */\n      dup3\n        /* \"#utility.yul\":3459:3473   */\n      add\n        /* \"#utility.yul\":3452:3510   */\n      mstore\n        /* \"#utility.yul\":3544:3550   */\n      0x74696f6e00000000000000000000000000000000000000000000000000000000\n        /* \"#utility.yul\":3539:3541   */\n      0x20\n        /* \"#utility.yul\":3531:3537   */\n      dup3\n        /* \"#utility.yul\":3527:3542   */\n      add\n        /* \"#utility.yul\":3520:3551   */\n      mstore\n        /* \"#utility.yul\":3335:3558   */\n      pop\n      jump\t// out\n        /* \"#utility.yul\":3564:3930   */\n    tag_95:\n        /* \"#utility.yul\":3706:3709   */\n      0x00\n        /* \"#utility.yul\":3727:3794   */\n      tag_151\n        /* \"#utility.yul\":3791:3793   */\n      0x24\n        /* \"#utility.yul\":3786:3789   */\n      dup4\n        /* \"#utility.yul\":3727:3794   */\n      tag_93\n      jump\t// in\n    tag_151:\n        /* \"#utility.yul\":3720:3794   */\n      swap2\n      pop\n        /* \"#utility.yul\":3803:3896   */\n      tag_152\n        /* \"#utility.yul\":3892:3895   */\n      dup3\n        /* \"#utility.yul\":3803:3896   */\n      tag_94\n      jump\t// in\n    tag_152:\n        /* \"#utility.yul\":3921:3923   */\n      0x40\n        /* \"#utility.yul\":3916:3919   */\n      dup3\n        /* \"#utility.yul\":3912:3924   */\n      add\n        /* \"#utility.yul\":3905:3924   */\n      swap1\n      pop\n        /* \"#utility.yul\":3564:3930   */\n      swap2\n      swap1\n      pop\n      jump\t// out\n        /* \"#utility.yul\":3936:4355   */\n    tag_51:\n        /* \"#utility.yul\":4102:4106   */\n      0x00\n        /* \"#utility.yul\":4140:4142   */\n      0x20\n        /* \"#utility.yul\":4129:4138   */\n      dup3\n        /* \"#utility.yul\":4125:4143   */\n      add\n        /* \"#utility.yul\":4117:4143   */\n      swap1\n      pop\n        /* \"#utility.yul\":4189:4198   */\n      dup2\n        /* \"#utility.yul\":4183:4187   */\n      dup2\n        /* \"#utility.yul\":4179:4199   */\n      sub\n        /* \"#utility.yul\":4175:4176   */\n      0x00\n        /* \"#utility.yul\":4164:4173   */\n      dup4\n        /* \"#utility.yul\":4160:4177   */\n      add\n        /* \"#utility.yul\":4153:4200   */\n      mstore\n        /* \"#utility.yul\":4217:4348   */\n      tag_154\n        /* \"#utility.yul\":4343:4347   */\n      dup2\n        /* \"#utility.yul\":4217:4348   */\n      tag_95\n      jump\t// in\n    tag_154:\n        /* \"#utility.yul\":4209:4348   */\n      swap1\n      pop\n        /* \"#utility.yul\":3936:4355   */\n      swap2\n      swap1\n      pop\n      jump\t// out\n        /* \"#utility.yul\":4361:4521   */\n    tag_96:\n        /* \"#utility.yul\":4501:4513   */\n      0x4e6f207461782064756500000000000000000000000000000000000000000000\n        /* \"#utility.yul\":4497:4498   */\n      0x00\n        /* \"#utility.yul\":4489:4495   */\n      dup3\n        /* \"#utility.yul\":4485:4499   */\n      add\n        /* \"#utility.yul\":4478:4514   */\n      mstore\n        /* \"#utility.yul\":4361:4521   */\n      pop\n      jump\t// out\n        /* \"#utility.yul\":4527:4893   */\n    tag_97:\n        /* \"#utility.yul\":4669:4672   */\n      0x00\n        /* \"#utility.yul\":4690:4757   */\n      tag_157\n        /* \"#utility.yul\":4754:4756   */\n      0x0a\n        /* \"#utility.yul\":4749:4752   */\n      dup4\n        /* \"#utility.yul\":4690:4757   */\n      tag_93\n      jump\t// in\n    tag_157:\n        /* \"#utility.yul\":4683:4757   */\n      swap2\n      pop\n        /* \"#utility.yul\":4766:4859   */\n      tag_158\n        /* \"#utility.yul\":4855:4858   */\n      dup3\n        /* \"#utility.yul\":4766:4859   */\n      tag_96\n      jump\t// in\n    tag_158:\n        /* \"#utility.yul\":4884:4886   */\n      0x20\n        /* \"#utility.yul\":4879:4882   */\n      dup3\n        /* \"#utility.yul\":4875:4887   */\n      add\n        /* \"#utility.yul\":4868:4887   */\n      swap1\n      pop\n        /* \"#utility.yul\":4527:4893   */\n      swap2\n      swap1\n      pop\n      jump\t// out\n        /* \"#utility.yul\":4899:5318   */\n    tag_54:\n        /* \"#utility.yul\":5065:5069   */\n      0x00\n        /* \"#utility.yul\":5103:5105   */\n      0x20\n        /* \"#utility.yul\":5092:5101   */\n      dup3\n        /* \"#utility.yul\":5088:5106   */\n      add\n        /* \"#utility.yul\":5080:5106   */\n      swap1\n      pop\n        /* \"#utility.yul\":5152:5161   */\n      dup2\n        /* \"#utility.yul\":5146:5150   */\n      dup2\n        /* \"#utility.yul\":5142:5162   */\n      sub\n        /* \"#utility.yul\":5138:5139   */\n      0x00\n        /* \"#utility.yul\":5127:5136   */\n      dup4\n        /* \"#utility.yul\":5123:5140   */\n      add\n        /* \"#utility.yul\":5116:5163   */\n      mstore\n        /* \"#utility.yul\":5180:5311   */\n      tag_160\n        /* \"#utility.yul\":5306:5310   */\n      dup2\n        /* \"#utility.yul\":5180:5311   */\n      tag_97\n      jump\t// in\n    tag_160:\n        /* \"#utility.yul\":5172:5311   */\n      swap1\n      pop\n        /* \"#utility.yul\":4899:5318   */\n      swap2\n      swap1\n      pop\n      jump\t// out\n        /* \"#utility.yul\":5324:5656   */\n    tag_56:\n        /* \"#utility.yul\":5445:5449   */\n      0x00\n        /* \"#utility.yul\":5483:5485   */\n      0x40\n        /* \"#utility.yul\":5472:5481   */\n      dup3\n        /* \"#utility.yul\":5468:5486   */\n      add\n        /* \"#utility.yul\":5460:5486   */\n      swap1\n      pop\n        /* \"#utility.yul\":5496:5567   */\n      tag_162\n        /* \"#utility.yul\":5564:5565   */\n      0x00\n        /* \"#utility.yul\":5553:5562   */\n      dup4\n        /* \"#utility.yul\":5549:5566   */\n      add\n        /* \"#utility.yul\":5540:5546   */\n      dup6\n        /* \"#utility.yul\":5496:5567   */\n      tag_88\n      jump\t// in\n    tag_162:\n        /* \"#utility.yul\":5577:5649   */\n      tag_163\n        /* \"#utility.yul\":5645:5647   */\n      0x20\n        /* \"#utility.yul\":5634:5643   */\n      dup4\n        /* \"#utility.yul\":5630:5648   */\n      add\n        /* \"#utility.yul\":5621:5627   */\n      dup5\n        /* \"#utility.yul\":5577:5649   */\n      tag_87\n      jump\t// in\n    tag_163:\n        /* \"#utility.yul\":5324:5656   */\n      swap4\n      swap3\n      pop\n      pop\n      pop\n      jump\t// out\n        /* \"#utility.yul\":5662:5752   */\n    tag_98:\n        /* \"#utility.yul\":5696:5703   */\n      0x00\n        /* \"#utility.yul\":5739:5744   */\n      dup2\n        /* \"#utility.yul\":5732:5745   */\n      iszero\n        /* \"#utility.yul\":5725:5746   */\n      iszero\n        /* \"#utility.yul\":5714:5746   */\n      swap1\n      pop\n        /* \"#utility.yul\":5662:5752   */\n      swap2\n      swap1\n      pop\n      jump\t// out\n        /* \"#utility.yul\":5758:5874   */\n    tag_99:\n        /* \"#utility.yul\":5828:5849   */\n      tag_166\n        /* \"#utility.yul\":5843:5848   */\n      dup2\n        /* \"#utility.yul\":5828:5849   */\n      tag_98\n      jump\t// in\n    tag_166:\n        /* \"#utility.yul\":5821:5826   */\n      dup2\n        /* \"#utility.yul\":5818:5850   */\n      eq\n        /* \"#utility.yul\":5808:5868   */\n      tag_167\n      jumpi\n        /* \"#utility.yul\":5864:5865   */\n      0x00\n        /* \"#utility.yul\":5861:5862   */\n      dup1\n        /* \"#utility.yul\":5854:5866   */\n      revert\n        /* \"#utility.yul\":5808:5868   */\n    tag_167:\n        /* \"#utility.yul\":5758:5874   */\n      pop\n      jump\t// out\n        /* \"#utility.yul\":5880:6017   */\n    tag_100:\n        /* \"#utility.yul\":5934:5939   */\n      0x00\n        /* \"#utility.yul\":5965:5971   */\n      dup2\n        /* \"#utility.yul\":5959:5972   */\n      mload\n        /* \"#utility.yul\":5950:5972   */\n      swap1\n      pop\n        /* \"#utility.yul\":5981:6011   */\n      tag_169\n        /* \"#utility.yul\":6005:6010   */\n      dup2\n        /* \"#utility.yul\":5981:6011   */\n      tag_99\n      jump\t// in\n    tag_169:\n        /* \"#utility.yul\":5880:6017   */\n      swap3\n      swap2\n      pop\n      pop\n      jump\t// out\n        /* \"#utility.yul\":6023:6368   */\n    tag_60:\n        /* \"#utility.yul\":6090:6096   */\n      0x00\n        /* \"#utility.yul\":6139:6141   */\n      0x20\n        /* \"#utility.yul\":6127:6136   */\n      dup3\n        /* \"#utility.yul\":6118:6125   */\n      dup5\n        /* \"#utility.yul\":6114:6137   */\n      sub\n        /* \"#utility.yul\":6110:6142   */\n      slt\n        /* \"#utility.yul\":6107:6226   */\n      iszero\n      tag_171\n      jumpi\n        /* \"#utility.yul\":6145:6224   */\n      tag_172\n      tag_80\n      jump\t// in\n    tag_172:\n        /* \"#utility.yul\":6107:6226   */\n    tag_171:\n        /* \"#utility.yul\":6265:6266   */\n      0x00\n        /* \"#utility.yul\":6290:6351   */\n      tag_173\n        /* \"#utility.yul\":6343:6350   */\n      dup5\n        /* \"#utility.yul\":6334:6340   */\n      dup3\n        /* \"#utility.yul\":6323:6332   */\n      dup6\n        /* \"#utility.yul\":6319:6341   */\n      add\n        /* \"#utility.yul\":6290:6351   */\n      tag_100\n      jump\t// in\n    tag_173:\n        /* \"#utility.yul\":6280:6351   */\n      swap2\n      pop\n        /* \"#utility.yul\":6236:6361   */\n      pop\n        /* \"#utility.yul\":6023:6368   */\n      swap3\n      swap2\n      pop\n      pop\n      jump\t// out\n        /* \"#utility.yul\":6374:6552   */\n    tag_101:\n        /* \"#utility.yul\":6514:6544   */\n      0x466f726365642074617820636f6c6c656374696f6e206661696c656400000000\n        /* \"#utility.yul\":6510:6511   */\n      0x00\n        /* \"#utility.yul\":6502:6508   */\n      dup3\n        /* \"#utility.yul\":6498:6512   */\n      add\n        /* \"#utility.yul\":6491:6545   */\n      mstore\n        /* \"#utility.yul\":6374:6552   */\n      pop\n      jump\t// out\n        /* \"#utility.yul\":6558:6924   */\n    tag_102:\n        /* \"#utility.yul\":6700:6703   */\n      0x00\n        /* \"#utility.yul\":6721:6788   */\n      tag_176\n        /* \"#utility.yul\":6785:6787   */\n      0x1c\n        /* \"#utility.yul\":6780:6783   */\n      dup4\n        /* \"#utility.yul\":6721:6788   */\n      tag_93\n      jump\t// in\n    tag_176:\n        /* \"#utility.yul\":6714:6788   */\n      swap2\n      pop\n        /* \"#utility.yul\":6797:6890   */\n      tag_177\n        /* \"#utility.yul\":6886:6889   */\n      dup3\n        /* \"#utility.yul\":6797:6890   */\n      tag_101\n      jump\t// in\n    tag_177:\n        /* \"#utility.yul\":6915:6917   */\n      0x20\n        /* \"#utility.yul\":6910:6913   */\n      dup3\n        /* \"#utility.yul\":6906:6918   */\n      add\n        /* \"#utility.yul\":6899:6918   */\n      swap1\n      pop\n        /* \"#utility.yul\":6558:6924   */\n      swap2\n      swap1\n      pop\n      jump\t// out\n        /* \"#utility.yul\":6930:7349   */\n    tag_63:\n        /* \"#utility.yul\":7096:7100   */\n      0x00\n        /* \"#utility.yul\":7134:7136   */\n      0x20\n        /* \"#utility.yul\":7123:7132   */\n      dup3\n        /* \"#utility.yul\":7119:7137   */\n      add\n        /* \"#utility.yul\":7111:7137   */\n      swap1\n      pop\n        /* \"#utility.yul\":7183:7192   */\n      dup2\n        /* \"#utility.yul\":7177:7181   */\n      dup2\n        /* \"#utility.yul\":7173:7193   */\n      sub\n        /* \"#utility.yul\":7169:7170   */\n      0x00\n        /* \"#utility.yul\":7158:7167   */\n      dup4\n        /* \"#utility.yul\":7154:7171   */\n      add\n        /* \"#utility.yul\":7147:7194   */\n      mstore\n        /* \"#utility.yul\":7211:7342   */\n      tag_179\n        /* \"#utility.yul\":7337:7341   */\n      dup2\n        /* \"#utility.yul\":7211:7342   */\n      tag_102\n      jump\t// in\n    tag_179:\n        /* \"#utility.yul\":7203:7342   */\n      swap1\n      pop\n        /* \"#utility.yul\":6930:7349   */\n      swap2\n      swap1\n      pop\n      jump\t// out\n        /* \"#utility.yul\":7355:7523   */\n    tag_103:\n        /* \"#utility.yul\":7495:7515   */\n      0x546178207061796d656e74206661696c65640000000000000000000000000000\n        /* \"#utility.yul\":7491:7492   */\n      0x00\n        /* \"#utility.yul\":7483:7489   */\n      dup3\n        /* \"#utility.yul\":7479:7493   */\n      add\n        /* \"#utility.yul\":7472:7516   */\n      mstore\n        /* \"#utility.yul\":7355:7523   */\n      pop\n      jump\t// out\n        /* \"#utility.yul\":7529:7895   */\n    tag_104:\n        /* \"#utility.yul\":7671:7674   */\n      0x00\n        /* \"#utility.yul\":7692:7759   */\n      tag_182\n        /* \"#utility.yul\":7756:7758   */\n      0x12\n        /* \"#utility.yul\":7751:7754   */\n      dup4\n        /* \"#utility.yul\":7692:7759   */\n      tag_93\n      jump\t// in\n    tag_182:\n        /* \"#utility.yul\":7685:7759   */\n      swap2\n      pop\n        /* \"#utility.yul\":7768:7861   */\n      tag_183\n        /* \"#utility.yul\":7857:7860   */\n      dup3\n        /* \"#utility.yul\":7768:7861   */\n      tag_103\n      jump\t// in\n    tag_183:\n        /* \"#utility.yul\":7886:7888   */\n      0x20\n        /* \"#utility.yul\":7881:7884   */\n      dup3\n        /* \"#utility.yul\":7877:7889   */\n      add\n        /* \"#utility.yul\":7870:7889   */\n      swap1\n      pop\n        /* \"#utility.yul\":7529:7895   */\n      swap2\n      swap1\n      pop\n      jump\t// out\n        /* \"#utility.yul\":7901:8320   */\n    tag_73:\n        /* \"#utility.yul\":8067:8071   */\n      0x00\n        /* \"#utility.yul\":8105:8107   */\n      0x20\n        /* \"#utility.yul\":8094:8103   */\n      dup3\n        /* \"#utility.yul\":8090:8108   */\n      add\n        /* \"#utility.yul\":8082:8108   */\n      swap1\n      pop\n        /* \"#utility.yul\":8154:8163   */\n      dup2\n        /* \"#utility.yul\":8148:8152   */\n      dup2\n        /* \"#utility.yul\":8144:8164   */\n      sub\n        /* \"#utility.yul\":8140:8141   */\n      0x00\n        /* \"#utility.yul\":8129:8138   */\n      dup4\n        /* \"#utility.yul\":8125:8142   */\n      add\n        /* \"#utility.yul\":8118:8165   */\n      mstore\n        /* \"#utility.yul\":8182:8313   */\n      tag_185\n        /* \"#utility.yul\":8308:8312   */\n      dup2\n        /* \"#utility.yul\":8182:8313   */\n      tag_104\n      jump\t// in\n    tag_185:\n        /* \"#utility.yul\":8174:8313   */\n      swap1\n      pop\n        /* \"#utility.yul\":7901:8320   */\n      swap2\n      swap1\n      pop\n      jump\t// out\n        /* \"#utility.yul\":8326:8548   */\n    tag_105:\n        /* \"#utility.yul\":8466:8500   */\n      0x4f6e6c7920746178206f66666963652063616e207365742062616e6b20737973\n        /* \"#utility.yul\":8462:8463   */\n      0x00\n        /* \"#utility.yul\":8454:8460   */\n      dup3\n        /* \"#utility.yul\":8450:8464   */\n      add\n        /* \"#utility.yul\":8443:8501   */\n      mstore\n        /* \"#utility.yul\":8535:8540   */\n      0x74656d0000000000000000000000000000000000000000000000000000000000\n        /* \"#utility.yul\":8530:8532   */\n      0x20\n        /* \"#utility.yul\":8522:8528   */\n      dup3\n        /* \"#utility.yul\":8518:8533   */\n      add\n        /* \"#utility.yul\":8511:8541   */\n      mstore\n        /* \"#utility.yul\":8326:8548   */\n      pop\n      jump\t// out\n        /* \"#utility.yul\":8554:8920   */\n    tag_106:\n        /* \"#utility.yul\":8696:8699   */\n      0x00\n        /* \"#utility.yul\":8717:8784   */\n      tag_188\n        /* \"#utility.yul\":8781:8783   */\n      0x23\n        /* \"#utility.yul\":8776:8779   */\n      dup4\n        /* \"#utility.yul\":8717:8784   */\n      tag_93\n      jump\t// in\n    tag_188:\n        /* \"#utility.yul\":8710:8784   */\n      swap2\n      pop\n        /* \"#utility.yul\":8793:8886   */\n      tag_189\n        /* \"#utility.yul\":8882:8885   */\n      dup3\n        /* \"#utility.yul\":8793:8886   */\n      tag_105\n      jump\t// in\n    tag_189:\n        /* \"#utility.yul\":8911:8913   */\n      0x40\n        /* \"#utility.yul\":8906:8909   */\n      dup3\n        /* \"#utility.yul\":8902:8914   */\n      add\n        /* \"#utility.yul\":8895:8914   */\n      swap1\n      pop\n        /* \"#utility.yul\":8554:8920   */\n      swap2\n      swap1\n      pop\n      jump\t// out\n        /* \"#utility.yul\":8926:9345   */\n    tag_78:\n        /* \"#utility.yul\":9092:9096   */\n      0x00\n        /* \"#utility.yul\":9130:9132   */\n      0x20\n        /* \"#utility.yul\":9119:9128   */\n      dup3\n        /* \"#utility.yul\":9115:9133   */\n      add\n        /* \"#utility.yul\":9107:9133   */\n      swap1\n      pop\n        /* \"#utility.yul\":9179:9188   */\n      dup2\n        /* \"#utility.yul\":9173:9177   */\n      dup2\n        /* \"#utility.yul\":9169:9189   */\n      sub\n        /* \"#utility.yul\":9165:9166   */\n      0x00\n        /* \"#utility.yul\":9154:9163   */\n      dup4\n        /* \"#utility.yul\":9150:9167   */\n      add\n        /* \"#utility.yul\":9143:9190   */\n      mstore\n        /* \"#utility.yul\":9207:9338   */\n      tag_191\n        /* \"#utility.yul\":9333:9337   */\n      dup2\n        /* \"#utility.yul\":9207:9338   */\n      tag_106\n      jump\t// in\n    tag_191:\n        /* \"#utility.yul\":9199:9338   */\n      swap1\n      pop\n        /* \"#utility.yul\":8926:9345   */\n      swap2\n      swap1\n      pop\n      jump\t// out\n\n    auxdata: 0xa26469706673582212208317e982736403816f8782223618da577ebcb27d893ac84e61be3670e6087ecb64736f6c634300081a0033\n}\n",
				"bytecode": {
					"linkReferences": {},
					"object": "6080604052348015600e575f80fd5b50335f806101000a81548173ffffffffffffffffffffffffffffffffffffffff021916908373ffffffffffffffffffffffffffffffffffffffff160217905550610cf28061005b5f395ff3fe608060405234801561000f575f80fd5b5060043610610086575f3560e01c8063609380a211610059578063609380a2146100fc5780639695981a1461011a578063c7d5549014610138578063ddb37e091461016857610086565b8063099522711461008a57806319746448146100a65780632912ba5f146100c25780632c0fe48d146100cc575b5f80fd5b6100a4600480360381019061009f919061089b565b610184565b005b6100c060048036038101906100bb919061089b565b610272565b005b6100ca6104e5565b005b6100e660048036038101906100e1919061089b565b6106ca565b6040516100f391906108de565b60405180910390f35b610104610710565b6040516101119190610906565b60405180910390f35b610122610733565b60405161012f9190610906565b60405180910390f35b610152600480360381019061014d919061089b565b610758565b60405161015f91906108de565b60405180910390f35b610182600480360381019061017d919061089b565b61076d565b005b5f60025f9054906101000a900473ffffffffffffffffffffffffffffffffffffffff1673ffffffffffffffffffffffffffffffffffffffff1663d3d38193836040518263ffffffff1660e01b81526004016101df9190610906565b602060405180830381865afa1580156101fa573d5f803e3d5ffd5b505050506040513d601f19601f8201168201806040525081019061021e9190610949565b905060648161022d91906109a1565b60015f8473ffffffffffffffffffffffffffffffffffffffff1673ffffffffffffffffffffffffffffffffffffffff1681526020019081526020015f20819055505050565b5f8054906101000a900473ffffffffffffffffffffffffffffffffffffffff1673ffffffffffffffffffffffffffffffffffffffff163373ffffffffffffffffffffffffffffffffffffffff16146102ff576040517f08c379a00000000000000000000000000000000000000000000000000000000081526004016102f690610a51565b60405180910390fd5b5f60015f8373ffffffffffffffffffffffffffffffffffffffff1673ffffffffffffffffffffffffffffffffffffffff1681526020019081526020015f20541161037e576040517f08c379a000000000000000000000000000000000000000000000000000000000815260040161037590610ab9565b60405180910390fd5b5f60015f8373ffffffffffffffffffffffffffffffffffffffff1673ffffffffffffffffffffffffffffffffffffffff1681526020019081526020015f205490505f60025f9054906101000a900473ffffffffffffffffffffffffffffffffffffffff1673ffffffffffffffffffffffffffffffffffffffff1663ab4f049a84846040518363ffffffff1660e01b815260040161041c929190610ad7565b6020604051808303815f875af1158015610438573d5f803e3d5ffd5b505050506040513d601f19601f8201168201806040525081019061045c9190610b33565b90508061049e576040517f08c379a000000000000000000000000000000000000000000000000000000000815260040161049590610ba8565b60405180910390fd5b5f60015f8573ffffffffffffffffffffffffffffffffffffffff1673ffffffffffffffffffffffffffffffffffffffff1681526020019081526020015f2081905550505050565b5f60015f3373ffffffffffffffffffffffffffffffffffffffff1673ffffffffffffffffffffffffffffffffffffffff1681526020019081526020015f205411610564576040517f08c379a000000000000000000000000000000000000000000000000000000000815260040161055b90610ab9565b60405180910390fd5b5f60015f3373ffffffffffffffffffffffffffffffffffffffff1673ffffffffffffffffffffffffffffffffffffffff1681526020019081526020015f205490505f60025f9054906101000a900473ffffffffffffffffffffffffffffffffffffffff1673ffffffffffffffffffffffffffffffffffffffff1663ab4f049a33846040518363ffffffff1660e01b8152600401610602929190610ad7565b6020604051808303815f875af115801561061e573d5f803e3d5ffd5b505050506040513d601f19601f820116820180604052508101906106429190610b33565b905080610684576040517f08c379a000000000000000000000000000000000000000000000000000000000815260040161067b90610c10565b60405180910390fd5b5f60015f3373ffffffffffffffffffffffffffffffffffffffff1673ffffffffffffffffffffffffffffffffffffffff1681526020019081526020015f20819055505050565b5f60015f8373ffffffffffffffffffffffffffffffffffffffff1673ffffffffffffffffffffffffffffffffffffffff1681526020019081526020015f20549050919050565b5f8054906101000a900473ffffffffffffffffffffffffffffffffffffffff1681565b60025f9054906101000a900473ffffffffffffffffffffffffffffffffffffffff1681565b6001602052805f5260405f205f915090505481565b5f8054906101000a900473ffffffffffffffffffffffffffffffffffffffff1673ffffffffffffffffffffffffffffffffffffffff163373ffffffffffffffffffffffffffffffffffffffff16146107fa576040517f08c379a00000000000000000000000000000000000000000000000000000000081526004016107f190610c9e565b60405180910390fd5b8060025f6101000a81548173ffffffffffffffffffffffffffffffffffffffff021916908373ffffffffffffffffffffffffffffffffffffffff16021790555050565b5f80fd5b5f73ffffffffffffffffffffffffffffffffffffffff82169050919050565b5f61086a82610841565b9050919050565b61087a81610860565b8114610884575f80fd5b50565b5f8135905061089581610871565b92915050565b5f602082840312156108b0576108af61083d565b5b5f6108bd84828501610887565b91505092915050565b5f819050919050565b6108d8816108c6565b82525050565b5f6020820190506108f15f8301846108cf565b92915050565b61090081610860565b82525050565b5f6020820190506109195f8301846108f7565b92915050565b610928816108c6565b8114610932575f80fd5b50565b5f815190506109438161091f565b92915050565b5f6020828403121561095e5761095d61083d565b5b5f61096b84828501610935565b91505092915050565b7f4e487b71000000000000000000000000000000000000000000000000000000005f52601260045260245ffd5b5f6109ab826108c6565b91506109b6836108c6565b9250826109c6576109c5610974565b5b828204905092915050565b5f82825260208201905092915050565b7f4f6e6c7920746178206f66666963652063616e20666f72636520636f6c6c65635f8201527f74696f6e00000000000000000000000000000000000000000000000000000000602082015250565b5f610a3b6024836109d1565b9150610a46826109e1565b604082019050919050565b5f6020820190508181035f830152610a6881610a2f565b9050919050565b7f4e6f2074617820647565000000000000000000000000000000000000000000005f82015250565b5f610aa3600a836109d1565b9150610aae82610a6f565b602082019050919050565b5f6020820190508181035f830152610ad081610a97565b9050919050565b5f604082019050610aea5f8301856108f7565b610af760208301846108cf565b9392505050565b5f8115159050919050565b610b1281610afe565b8114610b1c575f80fd5b50565b5f81519050610b2d81610b09565b92915050565b5f60208284031215610b4857610b4761083d565b5b5f610b5584828501610b1f565b91505092915050565b7f466f726365642074617820636f6c6c656374696f6e206661696c6564000000005f82015250565b5f610b92601c836109d1565b9150610b9d82610b5e565b602082019050919050565b5f6020820190508181035f830152610bbf81610b86565b9050919050565b7f546178207061796d656e74206661696c656400000000000000000000000000005f82015250565b5f610bfa6012836109d1565b9150610c0582610bc6565b602082019050919050565b5f6020820190508181035f830152610c2781610bee565b9050919050565b7f4f6e6c7920746178206f66666963652063616e207365742062616e6b207379735f8201527f74656d0000000000000000000000000000000000000000000000000000000000602082015250565b5f610c886023836109d1565b9150610c9382610c2e565b604082019050919050565b5f6020820190508181035f830152610cb581610c7c565b905091905056fea26469706673582212208317e982736403816f8782223618da577ebcb27d893ac84e61be3670e6087ecb64736f6c634300081a0033",
					"opcodes": "PUSH1 0x80 PUSH1 0x40 MSTORE CALLVALUE DUP1 ISZERO PUSH1 0xE JUMPI PUSH0 DUP1 REVERT JUMPDEST POP CALLER PUSH0 DUP1 PUSH2 0x100 EXP DUP2 SLOAD DUP2 PUSH20 0xFFFFFFFFFFFFFFFFFFFFFFFFFFFFFFFFFFFFFFFF MUL NOT AND SWAP1 DUP4 PUSH20 0xFFFFFFFFFFFFFFFFFFFFFFFFFFFFFFFFFFFFFFFF AND MUL OR SWAP1 SSTORE POP PUSH2 0xCF2 DUP1 PUSH2 0x5B PUSH0 CODECOPY PUSH0 RETURN INVALID PUSH1 0x80 PUSH1 0x40 MSTORE CALLVALUE DUP1 ISZERO PUSH2 0xF JUMPI PUSH0 DUP1 REVERT JUMPDEST POP PUSH1 0x4 CALLDATASIZE LT PUSH2 0x86 JUMPI PUSH0 CALLDATALOAD PUSH1 0xE0 SHR DUP1 PUSH4 0x609380A2 GT PUSH2 0x59 JUMPI DUP1 PUSH4 0x609380A2 EQ PUSH2 0xFC JUMPI DUP1 PUSH4 0x9695981A EQ PUSH2 0x11A JUMPI DUP1 PUSH4 0xC7D55490 EQ PUSH2 0x138 JUMPI DUP1 PUSH4 0xDDB37E09 EQ PUSH2 0x168 JUMPI PUSH2 0x86 JUMP JUMPDEST DUP1 PUSH4 0x9952271 EQ PUSH2 0x8A JUMPI DUP1 PUSH4 0x19746448 EQ PUSH2 0xA6 JUMPI DUP1 PUSH4 0x2912BA5F EQ PUSH2 0xC2 JUMPI DUP1 PUSH4 0x2C0FE48D EQ PUSH2 0xCC JUMPI JUMPDEST PUSH0 DUP1 REVERT JUMPDEST PUSH2 0xA4 PUSH1 0x4 DUP1 CALLDATASIZE SUB DUP2 ADD SWAP1 PUSH2 0x9F SWAP2 SWAP1 PUSH2 0x89B JUMP JUMPDEST PUSH2 0x184 JUMP JUMPDEST STOP JUMPDEST PUSH2 0xC0 PUSH1 0x4 DUP1 CALLDATASIZE SUB DUP2 ADD SWAP1 PUSH2 0xBB SWAP2 SWAP1 PUSH2 0x89B JUMP JUMPDEST PUSH2 0x272 JUMP JUMPDEST STOP JUMPDEST PUSH2 0xCA PUSH2 0x4E5 JUMP JUMPDEST STOP JUMPDEST PUSH2 0xE6 PUSH1 0x4 DUP1 CALLDATASIZE SUB DUP2 ADD SWAP1 PUSH2 0xE1 SWAP2 SWAP1 PUSH2 0x89B JUMP JUMPDEST PUSH2 0x6CA JUMP JUMPDEST PUSH1 0x40 MLOAD PUSH2 0xF3 SWAP2 SWAP1 PUSH2 0x8DE JUMP JUMPDEST PUSH1 0x40 MLOAD DUP1 SWAP2 SUB SWAP1 RETURN JUMPDEST PUSH2 0x104 PUSH2 0x710 JUMP JUMPDEST PUSH1 0x40 MLOAD PUSH2 0x111 SWAP2 SWAP1 PUSH2 0x906 JUMP JUMPDEST PUSH1 0x40 MLOAD DUP1 SWAP2 SUB SWAP1 RETURN JUMPDEST PUSH2 0x122 PUSH2 0x733 JUMP JUMPDEST PUSH1 0x40 MLOAD PUSH2 0x12F SWAP2 SWAP1 PUSH2 0x906 JUMP JUMPDEST PUSH1 0x40 MLOAD DUP1 SWAP2 SUB SWAP1 RETURN JUMPDEST PUSH2 0x152 PUSH1 0x4 DUP1 CALLDATASIZE SUB DUP2 ADD SWAP1 PUSH2 0x14D SWAP2 SWAP1 PUSH2 0x89B JUMP JUMPDEST PUSH2 0x758 JUMP JUMPDEST PUSH1 0x40 MLOAD PUSH2 0x15F SWAP2 SWAP1 PUSH2 0x8DE JUMP JUMPDEST PUSH1 0x40 MLOAD DUP1 SWAP2 SUB SWAP1 RETURN JUMPDEST PUSH2 0x182 PUSH1 0x4 DUP1 CALLDATASIZE SUB DUP2 ADD SWAP1 PUSH2 0x17D SWAP2 SWAP1 PUSH2 0x89B JUMP JUMPDEST PUSH2 0x76D JUMP JUMPDEST STOP JUMPDEST PUSH0 PUSH1 0x2 PUSH0 SWAP1 SLOAD SWAP1 PUSH2 0x100 EXP SWAP1 DIV PUSH20 0xFFFFFFFFFFFFFFFFFFFFFFFFFFFFFFFFFFFFFFFF AND PUSH20 0xFFFFFFFFFFFFFFFFFFFFFFFFFFFFFFFFFFFFFFFF AND PUSH4 0xD3D38193 DUP4 PUSH1 0x40 MLOAD DUP3 PUSH4 0xFFFFFFFF AND PUSH1 0xE0 SHL DUP2 MSTORE PUSH1 0x4 ADD PUSH2 0x1DF SWAP2 SWAP1 PUSH2 0x906 JUMP JUMPDEST PUSH1 0x20 PUSH1 0x40 MLOAD DUP1 DUP4 SUB DUP2 DUP7 GAS STATICCALL ISZERO DUP1 ISZERO PUSH2 0x1FA JUMPI RETURNDATASIZE PUSH0 DUP1 RETURNDATACOPY RETURNDATASIZE PUSH0 REVERT JUMPDEST POP POP POP POP PUSH1 0x40 MLOAD RETURNDATASIZE PUSH1 0x1F NOT PUSH1 0x1F DUP3 ADD AND DUP3 ADD DUP1 PUSH1 0x40 MSTORE POP DUP2 ADD SWAP1 PUSH2 0x21E SWAP2 SWAP1 PUSH2 0x949 JUMP JUMPDEST SWAP1 POP PUSH1 0x64 DUP2 PUSH2 0x22D SWAP2 SWAP1 PUSH2 0x9A1 JUMP JUMPDEST PUSH1 0x1 PUSH0 DUP5 PUSH20 0xFFFFFFFFFFFFFFFFFFFFFFFFFFFFFFFFFFFFFFFF AND PUSH20 0xFFFFFFFFFFFFFFFFFFFFFFFFFFFFFFFFFFFFFFFF AND DUP2 MSTORE PUSH1 0x20 ADD SWAP1 DUP2 MSTORE PUSH1 0x20 ADD PUSH0 KECCAK256 DUP2 SWAP1 SSTORE POP POP POP JUMP JUMPDEST PUSH0 DUP1 SLOAD SWAP1 PUSH2 0x100 EXP SWAP1 DIV PUSH20 0xFFFFFFFFFFFFFFFFFFFFFFFFFFFFFFFFFFFFFFFF AND PUSH20 0xFFFFFFFFFFFFFFFFFFFFFFFFFFFFFFFFFFFFFFFF AND CALLER PUSH20 0xFFFFFFFFFFFFFFFFFFFFFFFFFFFFFFFFFFFFFFFF AND EQ PUSH2 0x2FF JUMPI PUSH1 0x40 MLOAD PUSH32 0x8C379A000000000000000000000000000000000000000000000000000000000 DUP2 MSTORE PUSH1 0x4 ADD PUSH2 0x2F6 SWAP1 PUSH2 0xA51 JUMP JUMPDEST PUSH1 0x40 MLOAD DUP1 SWAP2 SUB SWAP1 REVERT JUMPDEST PUSH0 PUSH1 0x1 PUSH0 DUP4 PUSH20 0xFFFFFFFFFFFFFFFFFFFFFFFFFFFFFFFFFFFFFFFF AND PUSH20 0xFFFFFFFFFFFFFFFFFFFFFFFFFFFFFFFFFFFFFFFF AND DUP2 MSTORE PUSH1 0x20 ADD SWAP1 DUP2 MSTORE PUSH1 0x20 ADD PUSH0 KECCAK256 SLOAD GT PUSH2 0x37E JUMPI PUSH1 0x40 MLOAD PUSH32 0x8C379A000000000000000000000000000000000000000000000000000000000 DUP2 MSTORE PUSH1 0x4 ADD PUSH2 0x375 SWAP1 PUSH2 0xAB9 JUMP JUMPDEST PUSH1 0x40 MLOAD DUP1 SWAP2 SUB SWAP1 REVERT JUMPDEST PUSH0 PUSH1 0x1 PUSH0 DUP4 PUSH20 0xFFFFFFFFFFFFFFFFFFFFFFFFFFFFFFFFFFFFFFFF AND PUSH20 0xFFFFFFFFFFFFFFFFFFFFFFFFFFFFFFFFFFFFFFFF AND DUP2 MSTORE PUSH1 0x20 ADD SWAP1 DUP2 MSTORE PUSH1 0x20 ADD PUSH0 KECCAK256 SLOAD SWAP1 POP PUSH0 PUSH1 0x2 PUSH0 SWAP1 SLOAD SWAP1 PUSH2 0x100 EXP SWAP1 DIV PUSH20 0xFFFFFFFFFFFFFFFFFFFFFFFFFFFFFFFFFFFFFFFF AND PUSH20 0xFFFFFFFFFFFFFFFFFFFFFFFFFFFFFFFFFFFFFFFF AND PUSH4 0xAB4F049A DUP5 DUP5 PUSH1 0x40 MLOAD DUP4 PUSH4 0xFFFFFFFF AND PUSH1 0xE0 SHL DUP2 MSTORE PUSH1 0x4 ADD PUSH2 0x41C SWAP3 SWAP2 SWAP1 PUSH2 0xAD7 JUMP JUMPDEST PUSH1 0x20 PUSH1 0x40 MLOAD DUP1 DUP4 SUB DUP2 PUSH0 DUP8 GAS CALL ISZERO DUP1 ISZERO PUSH2 0x438 JUMPI RETURNDATASIZE PUSH0 DUP1 RETURNDATACOPY RETURNDATASIZE PUSH0 REVERT JUMPDEST POP POP POP POP PUSH1 0x40 MLOAD RETURNDATASIZE PUSH1 0x1F NOT PUSH1 0x1F DUP3 ADD AND DUP3 ADD DUP1 PUSH1 0x40 MSTORE POP DUP2 ADD SWAP1 PUSH2 0x45C SWAP2 SWAP1 PUSH2 0xB33 JUMP JUMPDEST SWAP1 POP DUP1 PUSH2 0x49E JUMPI PUSH1 0x40 MLOAD PUSH32 0x8C379A000000000000000000000000000000000000000000000000000000000 DUP2 MSTORE PUSH1 0x4 ADD PUSH2 0x495 SWAP1 PUSH2 0xBA8 JUMP JUMPDEST PUSH1 0x40 MLOAD DUP1 SWAP2 SUB SWAP1 REVERT JUMPDEST PUSH0 PUSH1 0x1 PUSH0 DUP6 PUSH20 0xFFFFFFFFFFFFFFFFFFFFFFFFFFFFFFFFFFFFFFFF AND PUSH20 0xFFFFFFFFFFFFFFFFFFFFFFFFFFFFFFFFFFFFFFFF AND DUP2 MSTORE PUSH1 0x20 ADD SWAP1 DUP2 MSTORE PUSH1 0x20 ADD PUSH0 KECCAK256 DUP2 SWAP1 SSTORE POP POP POP POP JUMP JUMPDEST PUSH0 PUSH1 0x1 PUSH0 CALLER PUSH20 0xFFFFFFFFFFFFFFFFFFFFFFFFFFFFFFFFFFFFFFFF AND PUSH20 0xFFFFFFFFFFFFFFFFFFFFFFFFFFFFFFFFFFFFFFFF AND DUP2 MSTORE PUSH1 0x20 ADD SWAP1 DUP2 MSTORE PUSH1 0x20 ADD PUSH0 KECCAK256 SLOAD GT PUSH2 0x564 JUMPI PUSH1 0x40 MLOAD PUSH32 0x8C379A000000000000000000000000000000000000000000000000000000000 DUP2 MSTORE PUSH1 0x4 ADD PUSH2 0x55B SWAP1 PUSH2 0xAB9 JUMP JUMPDEST PUSH1 0x40 MLOAD DUP1 SWAP2 SUB SWAP1 REVERT JUMPDEST PUSH0 PUSH1 0x1 PUSH0 CALLER PUSH20 0xFFFFFFFFFFFFFFFFFFFFFFFFFFFFFFFFFFFFFFFF AND PUSH20 0xFFFFFFFFFFFFFFFFFFFFFFFFFFFFFFFFFFFFFFFF AND DUP2 MSTORE PUSH1 0x20 ADD SWAP1 DUP2 MSTORE PUSH1 0x20 ADD PUSH0 KECCAK256 SLOAD SWAP1 POP PUSH0 PUSH1 0x2 PUSH0 SWAP1 SLOAD SWAP1 PUSH2 0x100 EXP SWAP1 DIV PUSH20 0xFFFFFFFFFFFFFFFFFFFFFFFFFFFFFFFFFFFFFFFF AND PUSH20 0xFFFFFFFFFFFFFFFFFFFFFFFFFFFFFFFFFFFFFFFF AND PUSH4 0xAB4F049A CALLER DUP5 PUSH1 0x40 MLOAD DUP4 PUSH4 0xFFFFFFFF AND PUSH1 0xE0 SHL DUP2 MSTORE PUSH1 0x4 ADD PUSH2 0x602 SWAP3 SWAP2 SWAP1 PUSH2 0xAD7 JUMP JUMPDEST PUSH1 0x20 PUSH1 0x40 MLOAD DUP1 DUP4 SUB DUP2 PUSH0 DUP8 GAS CALL ISZERO DUP1 ISZERO PUSH2 0x61E JUMPI RETURNDATASIZE PUSH0 DUP1 RETURNDATACOPY RETURNDATASIZE PUSH0 REVERT JUMPDEST POP POP POP POP PUSH1 0x40 MLOAD RETURNDATASIZE PUSH1 0x1F NOT PUSH1 0x1F DUP3 ADD AND DUP3 ADD DUP1 PUSH1 0x40 MSTORE POP DUP2 ADD SWAP1 PUSH2 0x642 SWAP2 SWAP1 PUSH2 0xB33 JUMP JUMPDEST SWAP1 POP DUP1 PUSH2 0x684 JUMPI PUSH1 0x40 MLOAD PUSH32 0x8C379A000000000000000000000000000000000000000000000000000000000 DUP2 MSTORE PUSH1 0x4 ADD PUSH2 0x67B SWAP1 PUSH2 0xC10 JUMP JUMPDEST PUSH1 0x40 MLOAD DUP1 SWAP2 SUB SWAP1 REVERT JUMPDEST PUSH0 PUSH1 0x1 PUSH0 CALLER PUSH20 0xFFFFFFFFFFFFFFFFFFFFFFFFFFFFFFFFFFFFFFFF AND PUSH20 0xFFFFFFFFFFFFFFFFFFFFFFFFFFFFFFFFFFFFFFFF AND DUP2 MSTORE PUSH1 0x20 ADD SWAP1 DUP2 MSTORE PUSH1 0x20 ADD PUSH0 KECCAK256 DUP2 SWAP1 SSTORE POP POP POP JUMP JUMPDEST PUSH0 PUSH1 0x1 PUSH0 DUP4 PUSH20 0xFFFFFFFFFFFFFFFFFFFFFFFFFFFFFFFFFFFFFFFF AND PUSH20 0xFFFFFFFFFFFFFFFFFFFFFFFFFFFFFFFFFFFFFFFF AND DUP2 MSTORE PUSH1 0x20 ADD SWAP1 DUP2 MSTORE PUSH1 0x20 ADD PUSH0 KECCAK256 SLOAD SWAP1 POP SWAP2 SWAP1 POP JUMP JUMPDEST PUSH0 DUP1 SLOAD SWAP1 PUSH2 0x100 EXP SWAP1 DIV PUSH20 0xFFFFFFFFFFFFFFFFFFFFFFFFFFFFFFFFFFFFFFFF AND DUP2 JUMP JUMPDEST PUSH1 0x2 PUSH0 SWAP1 SLOAD SWAP1 PUSH2 0x100 EXP SWAP1 DIV PUSH20 0xFFFFFFFFFFFFFFFFFFFFFFFFFFFFFFFFFFFFFFFF AND DUP2 JUMP JUMPDEST PUSH1 0x1 PUSH1 0x20 MSTORE DUP1 PUSH0 MSTORE PUSH1 0x40 PUSH0 KECCAK256 PUSH0 SWAP2 POP SWAP1 POP SLOAD DUP2 JUMP JUMPDEST PUSH0 DUP1 SLOAD SWAP1 PUSH2 0x100 EXP SWAP1 DIV PUSH20 0xFFFFFFFFFFFFFFFFFFFFFFFFFFFFFFFFFFFFFFFF AND PUSH20 0xFFFFFFFFFFFFFFFFFFFFFFFFFFFFFFFFFFFFFFFF AND CALLER PUSH20 0xFFFFFFFFFFFFFFFFFFFFFFFFFFFFFFFFFFFFFFFF AND EQ PUSH2 0x7FA JUMPI PUSH1 0x40 MLOAD PUSH32 0x8C379A000000000000000000000000000000000000000000000000000000000 DUP2 MSTORE PUSH1 0x4 ADD PUSH2 0x7F1 SWAP1 PUSH2 0xC9E JUMP JUMPDEST PUSH1 0x40 MLOAD DUP1 SWAP2 SUB SWAP1 REVERT JUMPDEST DUP1 PUSH1 0x2 PUSH0 PUSH2 0x100 EXP DUP2 SLOAD DUP2 PUSH20 0xFFFFFFFFFFFFFFFFFFFFFFFFFFFFFFFFFFFFFFFF MUL NOT AND SWAP1 DUP4 PUSH20 0xFFFFFFFFFFFFFFFFFFFFFFFFFFFFFFFFFFFFFFFF AND MUL OR SWAP1 SSTORE POP POP JUMP JUMPDEST PUSH0 DUP1 REVERT JUMPDEST PUSH0 PUSH20 0xFFFFFFFFFFFFFFFFFFFFFFFFFFFFFFFFFFFFFFFF DUP3 AND SWAP1 POP SWAP2 SWAP1 POP JUMP JUMPDEST PUSH0 PUSH2 0x86A DUP3 PUSH2 0x841 JUMP JUMPDEST SWAP1 POP SWAP2 SWAP1 POP JUMP JUMPDEST PUSH2 0x87A DUP2 PUSH2 0x860 JUMP JUMPDEST DUP2 EQ PUSH2 0x884 JUMPI PUSH0 DUP1 REVERT JUMPDEST POP JUMP JUMPDEST PUSH0 DUP2 CALLDATALOAD SWAP1 POP PUSH2 0x895 DUP2 PUSH2 0x871 JUMP JUMPDEST SWAP3 SWAP2 POP POP JUMP JUMPDEST PUSH0 PUSH1 0x20 DUP3 DUP5 SUB SLT ISZERO PUSH2 0x8B0 JUMPI PUSH2 0x8AF PUSH2 0x83D JUMP JUMPDEST JUMPDEST PUSH0 PUSH2 0x8BD DUP5 DUP3 DUP6 ADD PUSH2 0x887 JUMP JUMPDEST SWAP2 POP POP SWAP3 SWAP2 POP POP JUMP JUMPDEST PUSH0 DUP2 SWAP1 POP SWAP2 SWAP1 POP JUMP JUMPDEST PUSH2 0x8D8 DUP2 PUSH2 0x8C6 JUMP JUMPDEST DUP3 MSTORE POP POP JUMP JUMPDEST PUSH0 PUSH1 0x20 DUP3 ADD SWAP1 POP PUSH2 0x8F1 PUSH0 DUP4 ADD DUP5 PUSH2 0x8CF JUMP JUMPDEST SWAP3 SWAP2 POP POP JUMP JUMPDEST PUSH2 0x900 DUP2 PUSH2 0x860 JUMP JUMPDEST DUP3 MSTORE POP POP JUMP JUMPDEST PUSH0 PUSH1 0x20 DUP3 ADD SWAP1 POP PUSH2 0x919 PUSH0 DUP4 ADD DUP5 PUSH2 0x8F7 JUMP JUMPDEST SWAP3 SWAP2 POP POP JUMP JUMPDEST PUSH2 0x928 DUP2 PUSH2 0x8C6 JUMP JUMPDEST DUP2 EQ PUSH2 0x932 JUMPI PUSH0 DUP1 REVERT JUMPDEST POP JUMP JUMPDEST PUSH0 DUP2 MLOAD SWAP1 POP PUSH2 0x943 DUP2 PUSH2 0x91F JUMP JUMPDEST SWAP3 SWAP2 POP POP JUMP JUMPDEST PUSH0 PUSH1 0x20 DUP3 DUP5 SUB SLT ISZERO PUSH2 0x95E JUMPI PUSH2 0x95D PUSH2 0x83D JUMP JUMPDEST JUMPDEST PUSH0 PUSH2 0x96B DUP5 DUP3 DUP6 ADD PUSH2 0x935 JUMP JUMPDEST SWAP2 POP POP SWAP3 SWAP2 POP POP JUMP JUMPDEST PUSH32 0x4E487B7100000000000000000000000000000000000000000000000000000000 PUSH0 MSTORE PUSH1 0x12 PUSH1 0x4 MSTORE PUSH1 0x24 PUSH0 REVERT JUMPDEST PUSH0 PUSH2 0x9AB DUP3 PUSH2 0x8C6 JUMP JUMPDEST SWAP2 POP PUSH2 0x9B6 DUP4 PUSH2 0x8C6 JUMP JUMPDEST SWAP3 POP DUP3 PUSH2 0x9C6 JUMPI PUSH2 0x9C5 PUSH2 0x974 JUMP JUMPDEST JUMPDEST DUP3 DUP3 DIV SWAP1 POP SWAP3 SWAP2 POP POP JUMP JUMPDEST PUSH0 DUP3 DUP3 MSTORE PUSH1 0x20 DUP3 ADD SWAP1 POP SWAP3 SWAP2 POP POP JUMP JUMPDEST PUSH32 0x4F6E6C7920746178206F66666963652063616E20666F72636520636F6C6C6563 PUSH0 DUP3 ADD MSTORE PUSH32 0x74696F6E00000000000000000000000000000000000000000000000000000000 PUSH1 0x20 DUP3 ADD MSTORE POP JUMP JUMPDEST PUSH0 PUSH2 0xA3B PUSH1 0x24 DUP4 PUSH2 0x9D1 JUMP JUMPDEST SWAP2 POP PUSH2 0xA46 DUP3 PUSH2 0x9E1 JUMP JUMPDEST PUSH1 0x40 DUP3 ADD SWAP1 POP SWAP2 SWAP1 POP JUMP JUMPDEST PUSH0 PUSH1 0x20 DUP3 ADD SWAP1 POP DUP2 DUP2 SUB PUSH0 DUP4 ADD MSTORE PUSH2 0xA68 DUP2 PUSH2 0xA2F JUMP JUMPDEST SWAP1 POP SWAP2 SWAP1 POP JUMP JUMPDEST PUSH32 0x4E6F207461782064756500000000000000000000000000000000000000000000 PUSH0 DUP3 ADD MSTORE POP JUMP JUMPDEST PUSH0 PUSH2 0xAA3 PUSH1 0xA DUP4 PUSH2 0x9D1 JUMP JUMPDEST SWAP2 POP PUSH2 0xAAE DUP3 PUSH2 0xA6F JUMP JUMPDEST PUSH1 0x20 DUP3 ADD SWAP1 POP SWAP2 SWAP1 POP JUMP JUMPDEST PUSH0 PUSH1 0x20 DUP3 ADD SWAP1 POP DUP2 DUP2 SUB PUSH0 DUP4 ADD MSTORE PUSH2 0xAD0 DUP2 PUSH2 0xA97 JUMP JUMPDEST SWAP1 POP SWAP2 SWAP1 POP JUMP JUMPDEST PUSH0 PUSH1 0x40 DUP3 ADD SWAP1 POP PUSH2 0xAEA PUSH0 DUP4 ADD DUP6 PUSH2 0x8F7 JUMP JUMPDEST PUSH2 0xAF7 PUSH1 0x20 DUP4 ADD DUP5 PUSH2 0x8CF JUMP JUMPDEST SWAP4 SWAP3 POP POP POP JUMP JUMPDEST PUSH0 DUP2 ISZERO ISZERO SWAP1 POP SWAP2 SWAP1 POP JUMP JUMPDEST PUSH2 0xB12 DUP2 PUSH2 0xAFE JUMP JUMPDEST DUP2 EQ PUSH2 0xB1C JUMPI PUSH0 DUP1 REVERT JUMPDEST POP JUMP JUMPDEST PUSH0 DUP2 MLOAD SWAP1 POP PUSH2 0xB2D DUP2 PUSH2 0xB09 JUMP JUMPDEST SWAP3 SWAP2 POP POP JUMP JUMPDEST PUSH0 PUSH1 0x20 DUP3 DUP5 SUB SLT ISZERO PUSH2 0xB48 JUMPI PUSH2 0xB47 PUSH2 0x83D JUMP JUMPDEST JUMPDEST PUSH0 PUSH2 0xB55 DUP5 DUP3 DUP6 ADD PUSH2 0xB1F JUMP JUMPDEST SWAP2 POP POP SWAP3 SWAP2 POP POP JUMP JUMPDEST PUSH32 0x466F726365642074617820636F6C6C656374696F6E206661696C656400000000 PUSH0 DUP3 ADD MSTORE POP JUMP JUMPDEST PUSH0 PUSH2 0xB92 PUSH1 0x1C DUP4 PUSH2 0x9D1 JUMP JUMPDEST SWAP2 POP PUSH2 0xB9D DUP3 PUSH2 0xB5E JUMP JUMPDEST PUSH1 0x20 DUP3 ADD SWAP1 POP SWAP2 SWAP1 POP JUMP JUMPDEST PUSH0 PUSH1 0x20 DUP3 ADD SWAP1 POP DUP2 DUP2 SUB PUSH0 DUP4 ADD MSTORE PUSH2 0xBBF DUP2 PUSH2 0xB86 JUMP JUMPDEST SWAP1 POP SWAP2 SWAP1 POP JUMP JUMPDEST PUSH32 0x546178207061796D656E74206661696C65640000000000000000000000000000 PUSH0 DUP3 ADD MSTORE POP JUMP JUMPDEST PUSH0 PUSH2 0xBFA PUSH1 0x12 DUP4 PUSH2 0x9D1 JUMP JUMPDEST SWAP2 POP PUSH2 0xC05 DUP3 PUSH2 0xBC6 JUMP JUMPDEST PUSH1 0x20 DUP3 ADD SWAP1 POP SWAP2 SWAP1 POP JUMP JUMPDEST PUSH0 PUSH1 0x20 DUP3 ADD SWAP1 POP DUP2 DUP2 SUB PUSH0 DUP4 ADD MSTORE PUSH2 0xC27 DUP2 PUSH2 0xBEE JUMP JUMPDEST SWAP1 POP SWAP2 SWAP1 POP JUMP JUMPDEST PUSH32 0x4F6E6C7920746178206F66666963652063616E207365742062616E6B20737973 PUSH0 DUP3 ADD MSTORE PUSH32 0x74656D0000000000000000000000000000000000000000000000000000000000 PUSH1 0x20 DUP3 ADD MSTORE POP JUMP JUMPDEST PUSH0 PUSH2 0xC88 PUSH1 0x23 DUP4 PUSH2 0x9D1 JUMP JUMPDEST SWAP2 POP PUSH2 0xC93 DUP3 PUSH2 0xC2E JUMP JUMPDEST PUSH1 0x40 DUP3 ADD SWAP1 POP SWAP2 SWAP1 POP JUMP JUMPDEST PUSH0 PUSH1 0x20 DUP3 ADD SWAP1 POP DUP2 DUP2 SUB PUSH0 DUP4 ADD MSTORE PUSH2 0xCB5 DUP2 PUSH2 0xC7C JUMP JUMPDEST SWAP1 POP SWAP2 SWAP1 POP JUMP INVALID LOG2 PUSH5 0x6970667358 0x22 SLT KECCAK256 DUP4 OR 0xE9 DUP3 PUSH20 0x6403816F8782223618DA577EBCB27D893AC84E61 0xBE CALLDATASIZE PUSH17 0xE6087ECB64736F6C634300081A00330000 "
				},
				"gasEstimates": {
					"creation": {
						"codeDepositCost": "662800",
						"executionCost": "24959",
						"totalCost": "687759"
					},
					"external": {
						"bankSystemAddress()": "2530",
						"calculateTax(address)": "infinite",
						"forceTaxCollection(address)": "infinite",
						"getTaxDue(address)": "2896",
						"payTax()": "infinite",
						"setBankSystem(address)": "26947",
						"taxDue(address)": "2846",
						"taxOfficeAddress()": "2505"
					}
				},
				"methodIdentifiers": {
					"bankSystemAddress()": "9695981a",
					"calculateTax(address)": "09952271",
					"forceTaxCollection(address)": "19746448",
					"getTaxDue(address)": "2c0fe48d",
					"payTax()": "2912ba5f",
					"setBankSystem(address)": "ddb37e09",
					"taxDue(address)": "c7d55490",
					"taxOfficeAddress()": "609380a2"
				}
			},
			"storageLayout": {
				"storage": [
					{
						"astId": 3,
						"contract": "cordingtest/cordingtest10.sol:TaxOffice",
						"label": "taxOfficeAddress",
						"offset": 0,
						"slot": "0",
						"type": "t_address"
					},
					{
						"astId": 7,
						"contract": "cordingtest/cordingtest10.sol:TaxOffice",
						"label": "taxDue",
						"offset": 0,
						"slot": "1",
						"type": "t_mapping(t_address,t_uint256)"
					},
					{
						"astId": 9,
						"contract": "cordingtest/cordingtest10.sol:TaxOffice",
						"label": "bankSystemAddress",
						"offset": 0,
						"slot": "2",
						"type": "t_address"
					}
				],
				"types": {
					"t_address": {
						"encoding": "inplace",
						"label": "address",
						"numberOfBytes": "20"
					},
					"t_mapping(t_address,t_uint256)": {
						"encoding": "mapping",
						"key": "t_address",
						"label": "mapping(address => uint256)",
						"numberOfBytes": "32",
						"value": "t_uint256"
					},
					"t_uint256": {
						"encoding": "inplace",
						"label": "uint256",
						"numberOfBytes": "32"
					}
				}
			},
			"userdoc": {
				"kind": "user",
				"methods": {},
				"version": 1
			}
		}
	}
}