{
	"cordingtest/cordingtest10.sol": {
		"BankSystem": {
			"abi": [
				{
					"inputs": [
						{
							"internalType": "address",
							"name": "_taxOfficeAddress",
							"type": "address"
						}
					],
					"stateMutability": "nonpayable",
					"type": "constructor"
				},
				{
					"inputs": [
						{
							"internalType": "string",
							"name": "bankName",
							"type": "string"
						}
					],
					"name": "addBank",
					"outputs": [],
					"stateMutability": "nonpayable",
					"type": "function"
				},
				{
					"inputs": [
						{
							"internalType": "string",
							"name": "",
							"type": "string"
						},
						{
							"internalType": "address",
							"name": "",
							"type": "address"
						}
					],
					"name": "balances",
					"outputs": [
						{
							"internalType": "uint256",
							"name": "",
							"type": "uint256"
						}
					],
					"stateMutability": "view",
					"type": "function"
				},
				{
					"inputs": [
						{
							"internalType": "string",
							"name": "",
							"type": "string"
						}
					],
					"name": "banks",
					"outputs": [
						{
							"internalType": "bool",
							"name": "",
							"type": "bool"
						}
					],
					"stateMutability": "view",
					"type": "function"
				},
				{
					"inputs": [
						{
							"internalType": "string",
							"name": "bankName",
							"type": "string"
						}
					],
					"name": "deposit",
					"outputs": [],
					"stateMutability": "payable",
					"type": "function"
				},
				{
					"inputs": [
						{
							"internalType": "address",
							"name": "user",
							"type": "address"
						}
					],
					"name": "getTotalBalance",
					"outputs": [
						{
							"internalType": "uint256",
							"name": "",
							"type": "uint256"
						}
					],
					"stateMutability": "view",
					"type": "function"
				},
				{
					"inputs": [
						{
							"internalType": "string",
							"name": "bankName",
							"type": "string"
						}
					],
					"name": "register",
					"outputs": [],
					"stateMutability": "nonpayable",
					"type": "function"
				},
				{
					"inputs": [
						{
							"internalType": "address",
							"name": "",
							"type": "address"
						}
					],
					"name": "registeredUsers",
					"outputs": [
						{
							"internalType": "bool",
							"name": "",
							"type": "bool"
						}
					],
					"stateMutability": "view",
					"type": "function"
				},
				{
					"inputs": [],
					"name": "taxOfficeAddress",
					"outputs": [
						{
							"internalType": "address",
							"name": "",
							"type": "address"
						}
					],
					"stateMutability": "view",
					"type": "function"
				},
				{
					"inputs": [
						{
							"internalType": "string",
							"name": "fromBank",
							"type": "string"
						},
						{
							"internalType": "string",
							"name": "toBank",
							"type": "string"
						},
						{
							"internalType": "uint256",
							"name": "amount",
							"type": "uint256"
						}
					],
					"name": "transferBetweenBanks",
					"outputs": [],
					"stateMutability": "nonpayable",
					"type": "function"
				},
				{
					"inputs": [
						{
							"internalType": "string",
							"name": "fromBank",
							"type": "string"
						},
						{
							"internalType": "string",
							"name": "toBank",
							"type": "string"
						},
						{
							"internalType": "address",
							"name": "toUser",
							"type": "address"
						},
						{
							"internalType": "uint256",
							"name": "amount",
							"type": "uint256"
						}
					],
					"name": "transferToOtherUser",
					"outputs": [],
					"stateMutability": "nonpayable",
					"type": "function"
				},
				{
					"inputs": [
						{
							"internalType": "address",
							"name": "user",
							"type": "address"
						},
						{
							"internalType": "uint256",
							"name": "amount",
							"type": "uint256"
						}
					],
					"name": "transferToTaxOffice",
					"outputs": [
						{
							"internalType": "bool",
							"name": "",
							"type": "bool"
						}
					],
					"stateMutability": "nonpayable",
					"type": "function"
				},
				{
					"inputs": [
						{
							"internalType": "string",
							"name": "bankName",
							"type": "string"
						},
						{
							"internalType": "uint256",
							"name": "amount",
							"type": "uint256"
						}
					],
					"name": "withdraw",
					"outputs": [],
					"stateMutability": "nonpayable",
					"type": "function"
				}
			],
			"devdoc": {
				"kind": "dev",
				"methods": {},
				"version": 1
			},
			"evm": {
				"assembly": "    /* \"cordingtest/cordingtest10.sol\":3079:7556  contract BankSystem {... */\n  mstore(0x40, 0x80)\n    /* \"cordingtest/cordingtest10.sol\":3344:3436  constructor(address _taxOfficeAddress) {... */\n  callvalue\n  dup1\n  iszero\n  tag_1\n  jumpi\n  0x00\n  dup1\n  revert\ntag_1:\n  pop\n  mload(0x40)\n  sub(codesize, bytecodeSize)\n  dup1\n  bytecodeSize\n  dup4\n  codecopy\n  dup2\n  dup2\n  add\n  0x40\n  mstore\n  dup2\n  add\n  swap1\n  tag_2\n  swap2\n  swap1\n  tag_3\n  jump\t// in\ntag_2:\n    /* \"cordingtest/cordingtest10.sol\":3412:3429  _taxOfficeAddress */\n  dup1\n    /* \"cordingtest/cordingtest10.sol\":3393:3409  taxOfficeAddress */\n  0x00\n  dup1\n    /* \"cordingtest/cordingtest10.sol\":3393:3429  taxOfficeAddress = _taxOfficeAddress */\n  0x0100\n  exp\n  dup2\n  sload\n  dup2\n  0xffffffffffffffffffffffffffffffffffffffff\n  mul\n  not\n  and\n  swap1\n  dup4\n  0xffffffffffffffffffffffffffffffffffffffff\n  and\n  mul\n  or\n  swap1\n  sstore\n  pop\n    /* \"cordingtest/cordingtest10.sol\":3344:3436  constructor(address _taxOfficeAddress) {... */\n  pop\n    /* \"cordingtest/cordingtest10.sol\":3079:7556  contract BankSystem {... */\n  jump(tag_6)\n    /* \"#utility.yul\":88:205   */\ntag_8:\n    /* \"#utility.yul\":197:198   */\n  0x00\n    /* \"#utility.yul\":194:195   */\n  dup1\n    /* \"#utility.yul\":187:199   */\n  revert\n    /* \"#utility.yul\":334:460   */\ntag_10:\n    /* \"#utility.yul\":371:378   */\n  0x00\n    /* \"#utility.yul\":411:453   */\n  0xffffffffffffffffffffffffffffffffffffffff\n    /* \"#utility.yul\":404:409   */\n  dup3\n    /* \"#utility.yul\":400:454   */\n  and\n    /* \"#utility.yul\":389:454   */\n  swap1\n  pop\n    /* \"#utility.yul\":334:460   */\n  swap2\n  swap1\n  pop\n  jump\t// out\n    /* \"#utility.yul\":466:562   */\ntag_11:\n    /* \"#utility.yul\":503:510   */\n  0x00\n    /* \"#utility.yul\":532:556   */\n  tag_20\n    /* \"#utility.yul\":550:555   */\n  dup3\n    /* \"#utility.yul\":532:556   */\n  tag_10\n  jump\t// in\ntag_20:\n    /* \"#utility.yul\":521:556   */\n  swap1\n  pop\n    /* \"#utility.yul\":466:562   */\n  swap2\n  swap1\n  pop\n  jump\t// out\n    /* \"#utility.yul\":568:690   */\ntag_12:\n    /* \"#utility.yul\":641:665   */\n  tag_22\n    /* \"#utility.yul\":659:664   */\n  dup2\n    /* \"#utility.yul\":641:665   */\n  tag_11\n  jump\t// in\ntag_22:\n    /* \"#utility.yul\":634:639   */\n  dup2\n    /* \"#utility.yul\":631:666   */\n  eq\n    /* \"#utility.yul\":621:684   */\n  tag_23\n  jumpi\n    /* \"#utility.yul\":680:681   */\n  0x00\n    /* \"#utility.yul\":677:678   */\n  dup1\n    /* \"#utility.yul\":670:682   */\n  revert\n    /* \"#utility.yul\":621:684   */\ntag_23:\n    /* \"#utility.yul\":568:690   */\n  pop\n  jump\t// out\n    /* \"#utility.yul\":696:839   */\ntag_13:\n    /* \"#utility.yul\":753:758   */\n  0x00\n    /* \"#utility.yul\":784:790   */\n  dup2\n    /* \"#utility.yul\":778:791   */\n  mload\n    /* \"#utility.yul\":769:791   */\n  swap1\n  pop\n    /* \"#utility.yul\":800:833   */\n  tag_25\n    /* \"#utility.yul\":827:832   */\n  dup2\n    /* \"#utility.yul\":800:833   */\n  tag_12\n  jump\t// in\ntag_25:\n    /* \"#utility.yul\":696:839   */\n  swap3\n  swap2\n  pop\n  pop\n  jump\t// out\n    /* \"#utility.yul\":845:1196   */\ntag_3:\n    /* \"#utility.yul\":915:921   */\n  0x00\n    /* \"#utility.yul\":964:966   */\n  0x20\n    /* \"#utility.yul\":952:961   */\n  dup3\n    /* \"#utility.yul\":943:950   */\n  dup5\n    /* \"#utility.yul\":939:962   */\n  sub\n    /* \"#utility.yul\":935:967   */\n  slt\n    /* \"#utility.yul\":932:1051   */\n  iszero\n  tag_27\n  jumpi\n    /* \"#utility.yul\":970:1049   */\n  tag_28\n  tag_8\n  jump\t// in\ntag_28:\n    /* \"#utility.yul\":932:1051   */\ntag_27:\n    /* \"#utility.yul\":1090:1091   */\n  0x00\n    /* \"#utility.yul\":1115:1179   */\n  tag_29\n    /* \"#utility.yul\":1171:1178   */\n  dup5\n    /* \"#utility.yul\":1162:1168   */\n  dup3\n    /* \"#utility.yul\":1151:1160   */\n  dup6\n    /* \"#utility.yul\":1147:1169   */\n  add\n    /* \"#utility.yul\":1115:1179   */\n  tag_13\n  jump\t// in\ntag_29:\n    /* \"#utility.yul\":1105:1179   */\n  swap2\n  pop\n    /* \"#utility.yul\":1061:1189   */\n  pop\n    /* \"#utility.yul\":845:1196   */\n  swap3\n  swap2\n  pop\n  pop\n  jump\t// out\n    /* \"cordingtest/cordingtest10.sol\":3079:7556  contract BankSystem {... */\ntag_6:\n  dataSize(sub_0)\n  dup1\n  dataOffset(sub_0)\n  0x00\n  codecopy\n  0x00\n  return\nstop\n\nsub_0: assembly {\n        /* \"cordingtest/cordingtest10.sol\":3079:7556  contract BankSystem {... */\n      mstore(0x40, 0x80)\n      jumpi(tag_1, lt(calldatasize, 0x04))\n      shr(0xe0, calldataload(0x00))\n      dup1\n      0x96ed5d86\n      gt\n      tag_14\n      jumpi\n      dup1\n      0x96ed5d86\n      eq\n      tag_8\n      jumpi\n      dup1\n      0xa26e1186\n      eq\n      tag_9\n      jumpi\n      dup1\n      0xab4f049a\n      eq\n      tag_10\n      jumpi\n      dup1\n      0xd3d38193\n      eq\n      tag_11\n      jumpi\n      dup1\n      0xf049123e\n      eq\n      tag_12\n      jumpi\n      dup1\n      0xf2c298be\n      eq\n      tag_13\n      jumpi\n      jump(tag_1)\n    tag_14:\n      dup1\n      0x0e50cee5\n      eq\n      tag_2\n      jumpi\n      dup1\n      0x30b39a62\n      eq\n      tag_3\n      jumpi\n      dup1\n      0x609380a2\n      eq\n      tag_4\n      jumpi\n      dup1\n      0x8892ebce\n      eq\n      tag_5\n      jumpi\n      dup1\n      0x8c7c7ce7\n      eq\n      tag_6\n      jumpi\n      dup1\n      0x9262556d\n      eq\n      tag_7\n      jumpi\n    tag_1:\n      0x00\n      dup1\n      revert\n        /* \"cordingtest/cordingtest10.sol\":3184:3231  mapping(address => bool) public registeredUsers */\n    tag_2:\n      callvalue\n      dup1\n      iszero\n      tag_15\n      jumpi\n      0x00\n      dup1\n      revert\n    tag_15:\n      pop\n      tag_16\n      0x04\n      dup1\n      calldatasize\n      sub\n      dup2\n      add\n      swap1\n      tag_17\n      swap2\n      swap1\n      tag_18\n      jump\t// in\n    tag_17:\n      tag_19\n      jump\t// in\n    tag_16:\n      mload(0x40)\n      tag_20\n      swap2\n      swap1\n      tag_21\n      jump\t// in\n    tag_20:\n      mload(0x40)\n      dup1\n      swap2\n      sub\n      swap1\n      return\n        /* \"cordingtest/cordingtest10.sol\":4108:4484  function withdraw(string memory bankName, uint amount) external {... */\n    tag_3:\n      callvalue\n      dup1\n      iszero\n      tag_22\n      jumpi\n      0x00\n      dup1\n      revert\n    tag_22:\n      pop\n      tag_23\n      0x04\n      dup1\n      calldatasize\n      sub\n      dup2\n      add\n      swap1\n      tag_24\n      swap2\n      swap1\n      tag_25\n      jump\t// in\n    tag_24:\n      tag_26\n      jump\t// in\n    tag_23:\n      stop\n        /* \"cordingtest/cordingtest10.sol\":3105:3136  address public taxOfficeAddress */\n    tag_4:\n      callvalue\n      dup1\n      iszero\n      tag_27\n      jumpi\n      0x00\n      dup1\n      revert\n    tag_27:\n      pop\n      tag_28\n      tag_29\n      jump\t// in\n    tag_28:\n      mload(0x40)\n      tag_30\n      swap2\n      swap1\n      tag_31\n      jump\t// in\n    tag_30:\n      mload(0x40)\n      dup1\n      swap2\n      sub\n      swap1\n      return\n        /* \"cordingtest/cordingtest10.sol\":3237:3296  mapping(string => mapping(address => uint)) public balances */\n    tag_5:\n      callvalue\n      dup1\n      iszero\n      tag_32\n      jumpi\n      0x00\n      dup1\n      revert\n    tag_32:\n      pop\n      tag_33\n      0x04\n      dup1\n      calldatasize\n      sub\n      dup2\n      add\n      swap1\n      tag_34\n      swap2\n      swap1\n      tag_35\n      jump\t// in\n    tag_34:\n      tag_36\n      jump\t// in\n    tag_33:\n      mload(0x40)\n      tag_37\n      swap2\n      swap1\n      tag_38\n      jump\t// in\n    tag_37:\n      mload(0x40)\n      dup1\n      swap2\n      sub\n      swap1\n      return\n        /* \"cordingtest/cordingtest10.sol\":4921:5479  function transferToOtherUser(string memory fromBank, string memory toBank, address toUser, uint amount) external {... */\n    tag_6:\n      callvalue\n      dup1\n      iszero\n      tag_39\n      jumpi\n      0x00\n      dup1\n      revert\n    tag_39:\n      pop\n      tag_40\n      0x04\n      dup1\n      calldatasize\n      sub\n      dup2\n      add\n      swap1\n      tag_41\n      swap2\n      swap1\n      tag_42\n      jump\t// in\n    tag_41:\n      tag_43\n      jump\t// in\n    tag_40:\n      stop\n        /* \"cordingtest/cordingtest10.sol\":3142:3178  mapping(string => bool) public banks */\n    tag_7:\n      callvalue\n      dup1\n      iszero\n      tag_44\n      jumpi\n      0x00\n      dup1\n      revert\n    tag_44:\n      pop\n      tag_45\n      0x04\n      dup1\n      calldatasize\n      sub\n      dup2\n      add\n      swap1\n      tag_46\n      swap2\n      swap1\n      tag_47\n      jump\t// in\n    tag_46:\n      tag_48\n      jump\t// in\n    tag_45:\n      mload(0x40)\n      tag_49\n      swap2\n      swap1\n      tag_21\n      jump\t// in\n    tag_49:\n      mload(0x40)\n      dup1\n      swap2\n      sub\n      swap1\n      return\n        /* \"cordingtest/cordingtest10.sol\":3442:3613  function addBank(string memory bankName) external {... */\n    tag_8:\n      callvalue\n      dup1\n      iszero\n      tag_50\n      jumpi\n      0x00\n      dup1\n      revert\n    tag_50:\n      pop\n      tag_51\n      0x04\n      dup1\n      calldatasize\n      sub\n      dup2\n      add\n      swap1\n      tag_52\n      swap2\n      swap1\n      tag_47\n      jump\t// in\n    tag_52:\n      tag_53\n      jump\t// in\n    tag_51:\n      stop\n        /* \"cordingtest/cordingtest10.sol\":3858:4102  function deposit(string memory bankName) external payable {... */\n    tag_9:\n      tag_54\n      0x04\n      dup1\n      calldatasize\n      sub\n      dup2\n      add\n      swap1\n      tag_55\n      swap2\n      swap1\n      tag_47\n      jump\t// in\n    tag_55:\n      tag_56\n      jump\t// in\n    tag_54:\n      stop\n        /* \"cordingtest/cordingtest10.sol\":5800:6430  function transferToTaxOffice(address user, uint amount) external returns (bool) {... */\n    tag_10:\n      callvalue\n      dup1\n      iszero\n      tag_57\n      jumpi\n      0x00\n      dup1\n      revert\n    tag_57:\n      pop\n      tag_58\n      0x04\n      dup1\n      calldatasize\n      sub\n      dup2\n      add\n      swap1\n      tag_59\n      swap2\n      swap1\n      tag_60\n      jump\t// in\n    tag_59:\n      tag_61\n      jump\t// in\n    tag_58:\n      mload(0x40)\n      tag_62\n      swap2\n      swap1\n      tag_21\n      jump\t// in\n    tag_62:\n      mload(0x40)\n      dup1\n      swap2\n      sub\n      swap1\n      return\n        /* \"cordingtest/cordingtest10.sol\":5485:5794  function getTotalBalance(address user) external view returns (uint) {... */\n    tag_11:\n      callvalue\n      dup1\n      iszero\n      tag_63\n      jumpi\n      0x00\n      dup1\n      revert\n    tag_63:\n      pop\n      tag_64\n      0x04\n      dup1\n      calldatasize\n      sub\n      dup2\n      add\n      swap1\n      tag_65\n      swap2\n      swap1\n      tag_18\n      jump\t// in\n    tag_65:\n      tag_66\n      jump\t// in\n    tag_64:\n      mload(0x40)\n      tag_67\n      swap2\n      swap1\n      tag_38\n      jump\t// in\n    tag_67:\n      mload(0x40)\n      dup1\n      swap2\n      sub\n      swap1\n      return\n        /* \"cordingtest/cordingtest10.sol\":4490:4915  function transferBetweenBanks(string memory fromBank, string memory toBank, uint amount) external {... */\n    tag_12:\n      callvalue\n      dup1\n      iszero\n      tag_68\n      jumpi\n      0x00\n      dup1\n      revert\n    tag_68:\n      pop\n      tag_69\n      0x04\n      dup1\n      calldatasize\n      sub\n      dup2\n      add\n      swap1\n      tag_70\n      swap2\n      swap1\n      tag_71\n      jump\t// in\n    tag_70:\n      tag_72\n      jump\t// in\n    tag_69:\n      stop\n        /* \"cordingtest/cordingtest10.sol\":3619:3852  function register(string memory bankName) external {... */\n    tag_13:\n      callvalue\n      dup1\n      iszero\n      tag_73\n      jumpi\n      0x00\n      dup1\n      revert\n    tag_73:\n      pop\n      tag_74\n      0x04\n      dup1\n      calldatasize\n      sub\n      dup2\n      add\n      swap1\n      tag_75\n      swap2\n      swap1\n      tag_47\n      jump\t// in\n    tag_75:\n      tag_76\n      jump\t// in\n    tag_74:\n      stop\n        /* \"cordingtest/cordingtest10.sol\":3184:3231  mapping(address => bool) public registeredUsers */\n    tag_19:\n      mstore(0x20, 0x02)\n      dup1\n      0x00\n      mstore\n      keccak256(0x00, 0x40)\n      0x00\n      swap2\n      pop\n      sload\n      swap1\n      0x0100\n      exp\n      swap1\n      div\n      0xff\n      and\n      dup2\n      jump\t// out\n        /* \"cordingtest/cordingtest10.sol\":4108:4484  function withdraw(string memory bankName, uint amount) external {... */\n    tag_26:\n        /* \"cordingtest/cordingtest10.sol\":4190:4205  registeredUsers */\n      0x02\n        /* \"cordingtest/cordingtest10.sol\":4190:4217  registeredUsers[msg.sender] */\n      0x00\n        /* \"cordingtest/cordingtest10.sol\":4206:4216  msg.sender */\n      caller\n        /* \"cordingtest/cordingtest10.sol\":4190:4217  registeredUsers[msg.sender] */\n      0xffffffffffffffffffffffffffffffffffffffff\n      and\n      0xffffffffffffffffffffffffffffffffffffffff\n      and\n      dup2\n      mstore\n      0x20\n      add\n      swap1\n      dup2\n      mstore\n      0x20\n      add\n      0x00\n      keccak256\n      0x00\n      swap1\n      sload\n      swap1\n      0x0100\n      exp\n      swap1\n      div\n      0xff\n      and\n        /* \"cordingtest/cordingtest10.sol\":4182:4241  require(registeredUsers[msg.sender], \"User not registered\") */\n      tag_78\n      jumpi\n      mload(0x40)\n      0x08c379a000000000000000000000000000000000000000000000000000000000\n      dup2\n      mstore\n      0x04\n      add\n      tag_79\n      swap1\n      tag_80\n      jump\t// in\n    tag_79:\n      mload(0x40)\n      dup1\n      swap2\n      sub\n      swap1\n      revert\n    tag_78:\n        /* \"cordingtest/cordingtest10.sol\":4259:4264  banks */\n      0x01\n        /* \"cordingtest/cordingtest10.sol\":4265:4273  bankName */\n      dup3\n        /* \"cordingtest/cordingtest10.sol\":4259:4274  banks[bankName] */\n      mload(0x40)\n      tag_81\n      swap2\n      swap1\n      tag_82\n      jump\t// in\n    tag_81:\n      swap1\n      dup2\n      mstore\n      0x20\n      add\n      mload(0x40)\n      dup1\n      swap2\n      sub\n      swap1\n      keccak256\n      0x00\n      swap1\n      sload\n      swap1\n      0x0100\n      exp\n      swap1\n      div\n      0xff\n      and\n        /* \"cordingtest/cordingtest10.sol\":4251:4298  require(banks[bankName], \"Bank does not exist\") */\n      tag_83\n      jumpi\n      mload(0x40)\n      0x08c379a000000000000000000000000000000000000000000000000000000000\n      dup2\n      mstore\n      0x04\n      add\n      tag_84\n      swap1\n      tag_85\n      jump\t// in\n    tag_84:\n      mload(0x40)\n      dup1\n      swap2\n      sub\n      swap1\n      revert\n    tag_83:\n        /* \"cordingtest/cordingtest10.sol\":4350:4356  amount */\n      dup1\n        /* \"cordingtest/cordingtest10.sol\":4316:4324  balances */\n      0x03\n        /* \"cordingtest/cordingtest10.sol\":4325:4333  bankName */\n      dup4\n        /* \"cordingtest/cordingtest10.sol\":4316:4334  balances[bankName] */\n      mload(0x40)\n      tag_86\n      swap2\n      swap1\n      tag_82\n      jump\t// in\n    tag_86:\n      swap1\n      dup2\n      mstore\n      0x20\n      add\n      mload(0x40)\n      dup1\n      swap2\n      sub\n      swap1\n      keccak256\n        /* \"cordingtest/cordingtest10.sol\":4316:4346  balances[bankName][msg.sender] */\n      0x00\n        /* \"cordingtest/cordingtest10.sol\":4335:4345  msg.sender */\n      caller\n        /* \"cordingtest/cordingtest10.sol\":4316:4346  balances[bankName][msg.sender] */\n      0xffffffffffffffffffffffffffffffffffffffff\n      and\n      0xffffffffffffffffffffffffffffffffffffffff\n      and\n      dup2\n      mstore\n      0x20\n      add\n      swap1\n      dup2\n      mstore\n      0x20\n      add\n      0x00\n      keccak256\n      sload\n        /* \"cordingtest/cordingtest10.sol\":4316:4356  balances[bankName][msg.sender] >= amount */\n      lt\n      iszero\n        /* \"cordingtest/cordingtest10.sol\":4308:4381  require(balances[bankName][msg.sender] >= amount, \"Insufficient balance\") */\n      tag_87\n      jumpi\n      mload(0x40)\n      0x08c379a000000000000000000000000000000000000000000000000000000000\n      dup2\n      mstore\n      0x04\n      add\n      tag_88\n      swap1\n      tag_89\n      jump\t// in\n    tag_88:\n      mload(0x40)\n      dup1\n      swap2\n      sub\n      swap1\n      revert\n    tag_87:\n        /* \"cordingtest/cordingtest10.sol\":4425:4431  amount */\n      dup1\n        /* \"cordingtest/cordingtest10.sol\":4391:4399  balances */\n      0x03\n        /* \"cordingtest/cordingtest10.sol\":4400:4408  bankName */\n      dup4\n        /* \"cordingtest/cordingtest10.sol\":4391:4409  balances[bankName] */\n      mload(0x40)\n      tag_90\n      swap2\n      swap1\n      tag_82\n      jump\t// in\n    tag_90:\n      swap1\n      dup2\n      mstore\n      0x20\n      add\n      mload(0x40)\n      dup1\n      swap2\n      sub\n      swap1\n      keccak256\n        /* \"cordingtest/cordingtest10.sol\":4391:4421  balances[bankName][msg.sender] */\n      0x00\n        /* \"cordingtest/cordingtest10.sol\":4410:4420  msg.sender */\n      caller\n        /* \"cordingtest/cordingtest10.sol\":4391:4421  balances[bankName][msg.sender] */\n      0xffffffffffffffffffffffffffffffffffffffff\n      and\n      0xffffffffffffffffffffffffffffffffffffffff\n      and\n      dup2\n      mstore\n      0x20\n      add\n      swap1\n      dup2\n      mstore\n      0x20\n      add\n      0x00\n      keccak256\n      0x00\n        /* \"cordingtest/cordingtest10.sol\":4391:4431  balances[bankName][msg.sender] -= amount */\n      dup3\n      dup3\n      sload\n      tag_91\n      swap2\n      swap1\n      tag_92\n      jump\t// in\n    tag_91:\n      swap3\n      pop\n      pop\n      dup2\n      swap1\n      sstore\n      pop\n        /* \"cordingtest/cordingtest10.sol\":4449:4459  msg.sender */\n      caller\n        /* \"cordingtest/cordingtest10.sol\":4441:4469  payable(msg.sender).transfer */\n      0xffffffffffffffffffffffffffffffffffffffff\n      and\n        /* \"cordingtest/cordingtest10.sol\":4441:4477  payable(msg.sender).transfer(amount) */\n      0x08fc\n        /* \"cordingtest/cordingtest10.sol\":4470:4476  amount */\n      dup3\n        /* \"cordingtest/cordingtest10.sol\":4441:4477  payable(msg.sender).transfer(amount) */\n      swap1\n      dup2\n      iszero\n      mul\n      swap1\n      mload(0x40)\n      0x00\n      mload(0x40)\n      dup1\n      dup4\n      sub\n      dup2\n      dup6\n      dup9\n      dup9\n      call\n      swap4\n      pop\n      pop\n      pop\n      pop\n      iszero\n      dup1\n      iszero\n      tag_94\n      jumpi\n      returndatasize\n      0x00\n      dup1\n      returndatacopy\n      revert(0x00, returndatasize)\n    tag_94:\n      pop\n        /* \"cordingtest/cordingtest10.sol\":4108:4484  function withdraw(string memory bankName, uint amount) external {... */\n      pop\n      pop\n      jump\t// out\n        /* \"cordingtest/cordingtest10.sol\":3105:3136  address public taxOfficeAddress */\n    tag_29:\n      0x00\n      dup1\n      sload\n      swap1\n      0x0100\n      exp\n      swap1\n      div\n      0xffffffffffffffffffffffffffffffffffffffff\n      and\n      dup2\n      jump\t// out\n        /* \"cordingtest/cordingtest10.sol\":3237:3296  mapping(string => mapping(address => uint)) public balances */\n    tag_36:\n      0x03\n      dup3\n      dup1\n      mload\n      0x20\n      dup2\n      add\n      dup3\n      add\n      dup1\n      mload\n      dup5\n      dup3\n      mstore\n      0x20\n      dup4\n      add\n      0x20\n      dup6\n      add\n      keccak256\n      dup2\n      dup4\n      mstore\n      dup1\n      swap6\n      pop\n      pop\n      pop\n      pop\n      pop\n      pop\n      0x20\n      mstore\n      dup1\n      0x00\n      mstore\n      keccak256(0x00, 0x40)\n      0x00\n      swap2\n      pop\n      swap2\n      pop\n      pop\n      sload\n      dup2\n      jump\t// out\n        /* \"cordingtest/cordingtest10.sol\":4921:5479  function transferToOtherUser(string memory fromBank, string memory toBank, address toUser, uint amount) external {... */\n    tag_43:\n        /* \"cordingtest/cordingtest10.sol\":5052:5067  registeredUsers */\n      0x02\n        /* \"cordingtest/cordingtest10.sol\":5052:5079  registeredUsers[msg.sender] */\n      0x00\n        /* \"cordingtest/cordingtest10.sol\":5068:5078  msg.sender */\n      caller\n        /* \"cordingtest/cordingtest10.sol\":5052:5079  registeredUsers[msg.sender] */\n      0xffffffffffffffffffffffffffffffffffffffff\n      and\n      0xffffffffffffffffffffffffffffffffffffffff\n      and\n      dup2\n      mstore\n      0x20\n      add\n      swap1\n      dup2\n      mstore\n      0x20\n      add\n      0x00\n      keccak256\n      0x00\n      swap1\n      sload\n      swap1\n      0x0100\n      exp\n      swap1\n      div\n      0xff\n      and\n        /* \"cordingtest/cordingtest10.sol\":5052:5106  registeredUsers[msg.sender] && registeredUsers[toUser] */\n      dup1\n      iszero\n      tag_96\n      jumpi\n      pop\n        /* \"cordingtest/cordingtest10.sol\":5083:5098  registeredUsers */\n      0x02\n        /* \"cordingtest/cordingtest10.sol\":5083:5106  registeredUsers[toUser] */\n      0x00\n        /* \"cordingtest/cordingtest10.sol\":5099:5105  toUser */\n      dup4\n        /* \"cordingtest/cordingtest10.sol\":5083:5106  registeredUsers[toUser] */\n      0xffffffffffffffffffffffffffffffffffffffff\n      and\n      0xffffffffffffffffffffffffffffffffffffffff\n      and\n      dup2\n      mstore\n      0x20\n      add\n      swap1\n      dup2\n      mstore\n      0x20\n      add\n      0x00\n      keccak256\n      0x00\n      swap1\n      sload\n      swap1\n      0x0100\n      exp\n      swap1\n      div\n      0xff\n      and\n        /* \"cordingtest/cordingtest10.sol\":5052:5106  registeredUsers[msg.sender] && registeredUsers[toUser] */\n    tag_96:\n        /* \"cordingtest/cordingtest10.sol\":5044:5133  require(registeredUsers[msg.sender] && registeredUsers[toUser], \"User(s) not registered\") */\n      tag_97\n      jumpi\n      mload(0x40)\n      0x08c379a000000000000000000000000000000000000000000000000000000000\n      dup2\n      mstore\n      0x04\n      add\n      tag_98\n      swap1\n      tag_99\n      jump\t// in\n    tag_98:\n      mload(0x40)\n      dup1\n      swap2\n      sub\n      swap1\n      revert\n    tag_97:\n        /* \"cordingtest/cordingtest10.sol\":5151:5156  banks */\n      0x01\n        /* \"cordingtest/cordingtest10.sol\":5157:5165  fromBank */\n      dup5\n        /* \"cordingtest/cordingtest10.sol\":5151:5166  banks[fromBank] */\n      mload(0x40)\n      tag_100\n      swap2\n      swap1\n      tag_82\n      jump\t// in\n    tag_100:\n      swap1\n      dup2\n      mstore\n      0x20\n      add\n      mload(0x40)\n      dup1\n      swap2\n      sub\n      swap1\n      keccak256\n      0x00\n      swap1\n      sload\n      swap1\n      0x0100\n      exp\n      swap1\n      div\n      0xff\n      and\n        /* \"cordingtest/cordingtest10.sol\":5151:5183  banks[fromBank] && banks[toBank] */\n      dup1\n      iszero\n      tag_101\n      jumpi\n      pop\n        /* \"cordingtest/cordingtest10.sol\":5170:5175  banks */\n      0x01\n        /* \"cordingtest/cordingtest10.sol\":5176:5182  toBank */\n      dup4\n        /* \"cordingtest/cordingtest10.sol\":5170:5183  banks[toBank] */\n      mload(0x40)\n      tag_102\n      swap2\n      swap1\n      tag_82\n      jump\t// in\n    tag_102:\n      swap1\n      dup2\n      mstore\n      0x20\n      add\n      mload(0x40)\n      dup1\n      swap2\n      sub\n      swap1\n      keccak256\n      0x00\n      swap1\n      sload\n      swap1\n      0x0100\n      exp\n      swap1\n      div\n      0xff\n      and\n        /* \"cordingtest/cordingtest10.sol\":5151:5183  banks[fromBank] && banks[toBank] */\n    tag_101:\n        /* \"cordingtest/cordingtest10.sol\":5143:5203  require(banks[fromBank] && banks[toBank], \"Invalid bank(s)\") */\n      tag_103\n      jumpi\n      mload(0x40)\n      0x08c379a000000000000000000000000000000000000000000000000000000000\n      dup2\n      mstore\n      0x04\n      add\n      tag_104\n      swap1\n      tag_105\n      jump\t// in\n    tag_104:\n      mload(0x40)\n      dup1\n      swap2\n      sub\n      swap1\n      revert\n    tag_103:\n        /* \"cordingtest/cordingtest10.sol\":3332:3336  1e15 */\n      0x038d7ea4c68000\n        /* \"cordingtest/cordingtest10.sol\":5255:5261  amount */\n      dup2\n        /* \"cordingtest/cordingtest10.sol\":5255:5276  amount + TRANSFER_FEE */\n      tag_106\n      swap2\n      swap1\n      tag_107\n      jump\t// in\n    tag_106:\n        /* \"cordingtest/cordingtest10.sol\":5221:5229  balances */\n      0x03\n        /* \"cordingtest/cordingtest10.sol\":5230:5238  fromBank */\n      dup6\n        /* \"cordingtest/cordingtest10.sol\":5221:5239  balances[fromBank] */\n      mload(0x40)\n      tag_108\n      swap2\n      swap1\n      tag_82\n      jump\t// in\n    tag_108:\n      swap1\n      dup2\n      mstore\n      0x20\n      add\n      mload(0x40)\n      dup1\n      swap2\n      sub\n      swap1\n      keccak256\n        /* \"cordingtest/cordingtest10.sol\":5221:5251  balances[fromBank][msg.sender] */\n      0x00\n        /* \"cordingtest/cordingtest10.sol\":5240:5250  msg.sender */\n      caller\n        /* \"cordingtest/cordingtest10.sol\":5221:5251  balances[fromBank][msg.sender] */\n      0xffffffffffffffffffffffffffffffffffffffff\n      and\n      0xffffffffffffffffffffffffffffffffffffffff\n      and\n      dup2\n      mstore\n      0x20\n      add\n      swap1\n      dup2\n      mstore\n      0x20\n      add\n      0x00\n      keccak256\n      sload\n        /* \"cordingtest/cordingtest10.sol\":5221:5276  balances[fromBank][msg.sender] >= amount + TRANSFER_FEE */\n      lt\n      iszero\n        /* \"cordingtest/cordingtest10.sol\":5213:5301  require(balances[fromBank][msg.sender] >= amount + TRANSFER_FEE, \"Insufficient balance\") */\n      tag_109\n      jumpi\n      mload(0x40)\n      0x08c379a000000000000000000000000000000000000000000000000000000000\n      dup2\n      mstore\n      0x04\n      add\n      tag_110\n      swap1\n      tag_89\n      jump\t// in\n    tag_110:\n      mload(0x40)\n      dup1\n      swap2\n      sub\n      swap1\n      revert\n    tag_109:\n        /* \"cordingtest/cordingtest10.sol\":3332:3336  1e15 */\n      0x038d7ea4c68000\n        /* \"cordingtest/cordingtest10.sol\":5346:5352  amount */\n      dup2\n        /* \"cordingtest/cordingtest10.sol\":5346:5367  amount + TRANSFER_FEE */\n      tag_111\n      swap2\n      swap1\n      tag_107\n      jump\t// in\n    tag_111:\n        /* \"cordingtest/cordingtest10.sol\":5311:5319  balances */\n      0x03\n        /* \"cordingtest/cordingtest10.sol\":5320:5328  fromBank */\n      dup6\n        /* \"cordingtest/cordingtest10.sol\":5311:5329  balances[fromBank] */\n      mload(0x40)\n      tag_112\n      swap2\n      swap1\n      tag_82\n      jump\t// in\n    tag_112:\n      swap1\n      dup2\n      mstore\n      0x20\n      add\n      mload(0x40)\n      dup1\n      swap2\n      sub\n      swap1\n      keccak256\n        /* \"cordingtest/cordingtest10.sol\":5311:5341  balances[fromBank][msg.sender] */\n      0x00\n        /* \"cordingtest/cordingtest10.sol\":5330:5340  msg.sender */\n      caller\n        /* \"cordingtest/cordingtest10.sol\":5311:5341  balances[fromBank][msg.sender] */\n      0xffffffffffffffffffffffffffffffffffffffff\n      and\n      0xffffffffffffffffffffffffffffffffffffffff\n      and\n      dup2\n      mstore\n      0x20\n      add\n      swap1\n      dup2\n      mstore\n      0x20\n      add\n      0x00\n      keccak256\n      0x00\n        /* \"cordingtest/cordingtest10.sol\":5311:5368  balances[fromBank][msg.sender] -= (amount + TRANSFER_FEE) */\n      dup3\n      dup3\n      sload\n      tag_113\n      swap2\n      swap1\n      tag_92\n      jump\t// in\n    tag_113:\n      swap3\n      pop\n      pop\n      dup2\n      swap1\n      sstore\n      pop\n        /* \"cordingtest/cordingtest10.sol\":5406:5412  amount */\n      dup1\n        /* \"cordingtest/cordingtest10.sol\":5378:5386  balances */\n      0x03\n        /* \"cordingtest/cordingtest10.sol\":5387:5393  toBank */\n      dup5\n        /* \"cordingtest/cordingtest10.sol\":5378:5394  balances[toBank] */\n      mload(0x40)\n      tag_114\n      swap2\n      swap1\n      tag_82\n      jump\t// in\n    tag_114:\n      swap1\n      dup2\n      mstore\n      0x20\n      add\n      mload(0x40)\n      dup1\n      swap2\n      sub\n      swap1\n      keccak256\n        /* \"cordingtest/cordingtest10.sol\":5378:5402  balances[toBank][toUser] */\n      0x00\n        /* \"cordingtest/cordingtest10.sol\":5395:5401  toUser */\n      dup5\n        /* \"cordingtest/cordingtest10.sol\":5378:5402  balances[toBank][toUser] */\n      0xffffffffffffffffffffffffffffffffffffffff\n      and\n      0xffffffffffffffffffffffffffffffffffffffff\n      and\n      dup2\n      mstore\n      0x20\n      add\n      swap1\n      dup2\n      mstore\n      0x20\n      add\n      0x00\n      keccak256\n      0x00\n        /* \"cordingtest/cordingtest10.sol\":5378:5412  balances[toBank][toUser] += amount */\n      dup3\n      dup3\n      sload\n      tag_115\n      swap2\n      swap1\n      tag_107\n      jump\t// in\n    tag_115:\n      swap3\n      pop\n      pop\n      dup2\n      swap1\n      sstore\n      pop\n        /* \"cordingtest/cordingtest10.sol\":3332:3336  1e15 */\n      0x038d7ea4c68000\n        /* \"cordingtest/cordingtest10.sol\":5422:5430  balances */\n      0x03\n        /* \"cordingtest/cordingtest10.sol\":5431:5439  fromBank */\n      dup6\n        /* \"cordingtest/cordingtest10.sol\":5422:5440  balances[fromBank] */\n      mload(0x40)\n      tag_116\n      swap2\n      swap1\n      tag_82\n      jump\t// in\n    tag_116:\n      swap1\n      dup2\n      mstore\n      0x20\n      add\n      mload(0x40)\n      dup1\n      swap2\n      sub\n      swap1\n      keccak256\n        /* \"cordingtest/cordingtest10.sol\":5422:5455  balances[fromBank][address(this)] */\n      0x00\n        /* \"cordingtest/cordingtest10.sol\":5449:5453  this */\n      address\n        /* \"cordingtest/cordingtest10.sol\":5422:5455  balances[fromBank][address(this)] */\n      0xffffffffffffffffffffffffffffffffffffffff\n      and\n      0xffffffffffffffffffffffffffffffffffffffff\n      and\n      dup2\n      mstore\n      0x20\n      add\n      swap1\n      dup2\n      mstore\n      0x20\n      add\n      0x00\n      keccak256\n      0x00\n        /* \"cordingtest/cordingtest10.sol\":5422:5471  balances[fromBank][address(this)] += TRANSFER_FEE */\n      dup3\n      dup3\n      sload\n      tag_117\n      swap2\n      swap1\n      tag_107\n      jump\t// in\n    tag_117:\n      swap3\n      pop\n      pop\n      dup2\n      swap1\n      sstore\n      pop\n        /* \"cordingtest/cordingtest10.sol\":4921:5479  function transferToOtherUser(string memory fromBank, string memory toBank, address toUser, uint amount) external {... */\n      pop\n      pop\n      pop\n      pop\n      jump\t// out\n        /* \"cordingtest/cordingtest10.sol\":3142:3178  mapping(string => bool) public banks */\n    tag_48:\n      0x01\n      dup2\n      dup1\n      mload\n      0x20\n      dup2\n      add\n      dup3\n      add\n      dup1\n      mload\n      dup5\n      dup3\n      mstore\n      0x20\n      dup4\n      add\n      0x20\n      dup6\n      add\n      keccak256\n      dup2\n      dup4\n      mstore\n      dup1\n      swap6\n      pop\n      pop\n      pop\n      pop\n      pop\n      pop\n      0x00\n      swap2\n      pop\n      sload\n      swap1\n      0x0100\n      exp\n      swap1\n      div\n      0xff\n      and\n      dup2\n      jump\t// out\n        /* \"cordingtest/cordingtest10.sol\":3442:3613  function addBank(string memory bankName) external {... */\n    tag_53:\n        /* \"cordingtest/cordingtest10.sol\":3524:3540  taxOfficeAddress */\n      0x00\n      dup1\n      sload\n      swap1\n      0x0100\n      exp\n      swap1\n      div\n      0xffffffffffffffffffffffffffffffffffffffff\n      and\n        /* \"cordingtest/cordingtest10.sol\":3510:3540  msg.sender == taxOfficeAddress */\n      0xffffffffffffffffffffffffffffffffffffffff\n      and\n        /* \"cordingtest/cordingtest10.sol\":3510:3520  msg.sender */\n      caller\n        /* \"cordingtest/cordingtest10.sol\":3510:3540  msg.sender == taxOfficeAddress */\n      0xffffffffffffffffffffffffffffffffffffffff\n      and\n      eq\n        /* \"cordingtest/cordingtest10.sol\":3502:3574  require(msg.sender == taxOfficeAddress, \"Only tax office can add banks\") */\n      tag_119\n      jumpi\n      mload(0x40)\n      0x08c379a000000000000000000000000000000000000000000000000000000000\n      dup2\n      mstore\n      0x04\n      add\n      tag_120\n      swap1\n      tag_121\n      jump\t// in\n    tag_120:\n      mload(0x40)\n      dup1\n      swap2\n      sub\n      swap1\n      revert\n    tag_119:\n        /* \"cordingtest/cordingtest10.sol\":3602:3606  true */\n      0x01\n        /* \"cordingtest/cordingtest10.sol\":3584:3589  banks */\n      dup1\n        /* \"cordingtest/cordingtest10.sol\":3590:3598  bankName */\n      dup3\n        /* \"cordingtest/cordingtest10.sol\":3584:3599  banks[bankName] */\n      mload(0x40)\n      tag_122\n      swap2\n      swap1\n      tag_82\n      jump\t// in\n    tag_122:\n      swap1\n      dup2\n      mstore\n      0x20\n      add\n      mload(0x40)\n      dup1\n      swap2\n      sub\n      swap1\n      keccak256\n      0x00\n        /* \"cordingtest/cordingtest10.sol\":3584:3606  banks[bankName] = true */\n      0x0100\n      exp\n      dup2\n      sload\n      dup2\n      0xff\n      mul\n      not\n      and\n      swap1\n      dup4\n      iszero\n      iszero\n      mul\n      or\n      swap1\n      sstore\n      pop\n        /* \"cordingtest/cordingtest10.sol\":3442:3613  function addBank(string memory bankName) external {... */\n      pop\n      jump\t// out\n        /* \"cordingtest/cordingtest10.sol\":3858:4102  function deposit(string memory bankName) external payable {... */\n    tag_56:\n        /* \"cordingtest/cordingtest10.sol\":3934:3949  registeredUsers */\n      0x02\n        /* \"cordingtest/cordingtest10.sol\":3934:3961  registeredUsers[msg.sender] */\n      0x00\n        /* \"cordingtest/cordingtest10.sol\":3950:3960  msg.sender */\n      caller\n        /* \"cordingtest/cordingtest10.sol\":3934:3961  registeredUsers[msg.sender] */\n      0xffffffffffffffffffffffffffffffffffffffff\n      and\n      0xffffffffffffffffffffffffffffffffffffffff\n      and\n      dup2\n      mstore\n      0x20\n      add\n      swap1\n      dup2\n      mstore\n      0x20\n      add\n      0x00\n      keccak256\n      0x00\n      swap1\n      sload\n      swap1\n      0x0100\n      exp\n      swap1\n      div\n      0xff\n      and\n        /* \"cordingtest/cordingtest10.sol\":3926:3985  require(registeredUsers[msg.sender], \"User not registered\") */\n      tag_124\n      jumpi\n      mload(0x40)\n      0x08c379a000000000000000000000000000000000000000000000000000000000\n      dup2\n      mstore\n      0x04\n      add\n      tag_125\n      swap1\n      tag_80\n      jump\t// in\n    tag_125:\n      mload(0x40)\n      dup1\n      swap2\n      sub\n      swap1\n      revert\n    tag_124:\n        /* \"cordingtest/cordingtest10.sol\":4003:4008  banks */\n      0x01\n        /* \"cordingtest/cordingtest10.sol\":4009:4017  bankName */\n      dup2\n        /* \"cordingtest/cordingtest10.sol\":4003:4018  banks[bankName] */\n      mload(0x40)\n      tag_126\n      swap2\n      swap1\n      tag_82\n      jump\t// in\n    tag_126:\n      swap1\n      dup2\n      mstore\n      0x20\n      add\n      mload(0x40)\n      dup1\n      swap2\n      sub\n      swap1\n      keccak256\n      0x00\n      swap1\n      sload\n      swap1\n      0x0100\n      exp\n      swap1\n      div\n      0xff\n      and\n        /* \"cordingtest/cordingtest10.sol\":3995:4042  require(banks[bankName], \"Bank does not exist\") */\n      tag_127\n      jumpi\n      mload(0x40)\n      0x08c379a000000000000000000000000000000000000000000000000000000000\n      dup2\n      mstore\n      0x04\n      add\n      tag_128\n      swap1\n      tag_85\n      jump\t// in\n    tag_128:\n      mload(0x40)\n      dup1\n      swap2\n      sub\n      swap1\n      revert\n    tag_127:\n        /* \"cordingtest/cordingtest10.sol\":4086:4095  msg.value */\n      callvalue\n        /* \"cordingtest/cordingtest10.sol\":4052:4060  balances */\n      0x03\n        /* \"cordingtest/cordingtest10.sol\":4061:4069  bankName */\n      dup3\n        /* \"cordingtest/cordingtest10.sol\":4052:4070  balances[bankName] */\n      mload(0x40)\n      tag_129\n      swap2\n      swap1\n      tag_82\n      jump\t// in\n    tag_129:\n      swap1\n      dup2\n      mstore\n      0x20\n      add\n      mload(0x40)\n      dup1\n      swap2\n      sub\n      swap1\n      keccak256\n        /* \"cordingtest/cordingtest10.sol\":4052:4082  balances[bankName][msg.sender] */\n      0x00\n        /* \"cordingtest/cordingtest10.sol\":4071:4081  msg.sender */\n      caller\n        /* \"cordingtest/cordingtest10.sol\":4052:4082  balances[bankName][msg.sender] */\n      0xffffffffffffffffffffffffffffffffffffffff\n      and\n      0xffffffffffffffffffffffffffffffffffffffff\n      and\n      dup2\n      mstore\n      0x20\n      add\n      swap1\n      dup2\n      mstore\n      0x20\n      add\n      0x00\n      keccak256\n      0x00\n        /* \"cordingtest/cordingtest10.sol\":4052:4095  balances[bankName][msg.sender] += msg.value */\n      dup3\n      dup3\n      sload\n      tag_130\n      swap2\n      swap1\n      tag_107\n      jump\t// in\n    tag_130:\n      swap3\n      pop\n      pop\n      dup2\n      swap1\n      sstore\n      pop\n        /* \"cordingtest/cordingtest10.sol\":3858:4102  function deposit(string memory bankName) external payable {... */\n      pop\n      jump\t// out\n        /* \"cordingtest/cordingtest10.sol\":5800:6430  function transferToTaxOffice(address user, uint amount) external returns (bool) {... */\n    tag_61:\n        /* \"cordingtest/cordingtest10.sol\":5874:5878  bool */\n      0x00\n        /* \"cordingtest/cordingtest10.sol\":5912:5928  taxOfficeAddress */\n      dup1\n      0x00\n      swap1\n      sload\n      swap1\n      0x0100\n      exp\n      swap1\n      div\n      0xffffffffffffffffffffffffffffffffffffffff\n      and\n        /* \"cordingtest/cordingtest10.sol\":5898:5928  msg.sender == taxOfficeAddress */\n      0xffffffffffffffffffffffffffffffffffffffff\n      and\n        /* \"cordingtest/cordingtest10.sol\":5898:5908  msg.sender */\n      caller\n        /* \"cordingtest/cordingtest10.sol\":5898:5928  msg.sender == taxOfficeAddress */\n      0xffffffffffffffffffffffffffffffffffffffff\n      and\n      eq\n        /* \"cordingtest/cordingtest10.sol\":5890:5962  require(msg.sender == taxOfficeAddress, \"Only tax office can call this\") */\n      tag_132\n      jumpi\n      mload(0x40)\n      0x08c379a000000000000000000000000000000000000000000000000000000000\n      dup2\n      mstore\n      0x04\n      add\n      tag_133\n      swap1\n      tag_134\n      jump\t// in\n    tag_133:\n      mload(0x40)\n      dup1\n      swap2\n      sub\n      swap1\n      revert\n    tag_132:\n        /* \"cordingtest/cordingtest10.sol\":5972:5997  string[] memory bankNames */\n      0x00\n        /* \"cordingtest/cordingtest10.sol\":6000:6014  getBankNames() */\n      tag_135\n        /* \"cordingtest/cordingtest10.sol\":6000:6012  getBankNames */\n      tag_136\n        /* \"cordingtest/cordingtest10.sol\":6000:6014  getBankNames() */\n      jump\t// in\n    tag_135:\n        /* \"cordingtest/cordingtest10.sol\":5972:6014  string[] memory bankNames = getBankNames() */\n      swap1\n      pop\n        /* \"cordingtest/cordingtest10.sol\":6029:6035  uint i */\n      0x00\n        /* \"cordingtest/cordingtest10.sol\":6024:6401  for (uint i = 0; i < bankNames.length; i++) {... */\n    tag_137:\n        /* \"cordingtest/cordingtest10.sol\":6045:6054  bankNames */\n      dup2\n        /* \"cordingtest/cordingtest10.sol\":6045:6061  bankNames.length */\n      mload\n        /* \"cordingtest/cordingtest10.sol\":6041:6042  i */\n      dup2\n        /* \"cordingtest/cordingtest10.sol\":6041:6061  i < bankNames.length */\n      lt\n        /* \"cordingtest/cordingtest10.sol\":6024:6401  for (uint i = 0; i < bankNames.length; i++) {... */\n      iszero\n      tag_138\n      jumpi\n        /* \"cordingtest/cordingtest10.sol\":6118:6124  amount */\n      dup4\n        /* \"cordingtest/cordingtest10.sol\":6086:6094  balances */\n      0x03\n        /* \"cordingtest/cordingtest10.sol\":6095:6104  bankNames */\n      dup4\n        /* \"cordingtest/cordingtest10.sol\":6105:6106  i */\n      dup4\n        /* \"cordingtest/cordingtest10.sol\":6095:6107  bankNames[i] */\n      dup2\n      mload\n      dup2\n      lt\n      tag_140\n      jumpi\n      tag_141\n      tag_142\n      jump\t// in\n    tag_141:\n    tag_140:\n      0x20\n      mul\n      0x20\n      add\n      add\n      mload\n        /* \"cordingtest/cordingtest10.sol\":6086:6108  balances[bankNames[i]] */\n      mload(0x40)\n      tag_143\n      swap2\n      swap1\n      tag_82\n      jump\t// in\n    tag_143:\n      swap1\n      dup2\n      mstore\n      0x20\n      add\n      mload(0x40)\n      dup1\n      swap2\n      sub\n      swap1\n      keccak256\n        /* \"cordingtest/cordingtest10.sol\":6086:6114  balances[bankNames[i]][user] */\n      0x00\n        /* \"cordingtest/cordingtest10.sol\":6109:6113  user */\n      dup8\n        /* \"cordingtest/cordingtest10.sol\":6086:6114  balances[bankNames[i]][user] */\n      0xffffffffffffffffffffffffffffffffffffffff\n      and\n      0xffffffffffffffffffffffffffffffffffffffff\n      and\n      dup2\n      mstore\n      0x20\n      add\n      swap1\n      dup2\n      mstore\n      0x20\n      add\n      0x00\n      keccak256\n      sload\n        /* \"cordingtest/cordingtest10.sol\":6086:6124  balances[bankNames[i]][user] >= amount */\n      lt\n        /* \"cordingtest/cordingtest10.sol\":6082:6391  if (balances[bankNames[i]][user] >= amount) {... */\n      tag_144\n      jumpi\n        /* \"cordingtest/cordingtest10.sol\":6176:6182  amount */\n      dup4\n        /* \"cordingtest/cordingtest10.sol\":6144:6152  balances */\n      0x03\n        /* \"cordingtest/cordingtest10.sol\":6153:6162  bankNames */\n      dup4\n        /* \"cordingtest/cordingtest10.sol\":6163:6164  i */\n      dup4\n        /* \"cordingtest/cordingtest10.sol\":6153:6165  bankNames[i] */\n      dup2\n      mload\n      dup2\n      lt\n      tag_145\n      jumpi\n      tag_146\n      tag_142\n      jump\t// in\n    tag_146:\n    tag_145:\n      0x20\n      mul\n      0x20\n      add\n      add\n      mload\n        /* \"cordingtest/cordingtest10.sol\":6144:6166  balances[bankNames[i]] */\n      mload(0x40)\n      tag_147\n      swap2\n      swap1\n      tag_82\n      jump\t// in\n    tag_147:\n      swap1\n      dup2\n      mstore\n      0x20\n      add\n      mload(0x40)\n      dup1\n      swap2\n      sub\n      swap1\n      keccak256\n        /* \"cordingtest/cordingtest10.sol\":6144:6172  balances[bankNames[i]][user] */\n      0x00\n        /* \"cordingtest/cordingtest10.sol\":6167:6171  user */\n      dup8\n        /* \"cordingtest/cordingtest10.sol\":6144:6172  balances[bankNames[i]][user] */\n      0xffffffffffffffffffffffffffffffffffffffff\n      and\n      0xffffffffffffffffffffffffffffffffffffffff\n      and\n      dup2\n      mstore\n      0x20\n      add\n      swap1\n      dup2\n      mstore\n      0x20\n      add\n      0x00\n      keccak256\n      0x00\n        /* \"cordingtest/cordingtest10.sol\":6144:6182  balances[bankNames[i]][user] -= amount */\n      dup3\n      dup3\n      sload\n      tag_148\n      swap2\n      swap1\n      tag_92\n      jump\t// in\n    tag_148:\n      swap3\n      pop\n      pop\n      dup2\n      swap1\n      sstore\n      pop\n        /* \"cordingtest/cordingtest10.sol\":6207:6211  true */\n      0x01\n        /* \"cordingtest/cordingtest10.sol\":6200:6211  return true */\n      swap3\n      pop\n      pop\n      pop\n      jump(tag_131)\n        /* \"cordingtest/cordingtest10.sol\":6082:6391  if (balances[bankNames[i]][user] >= amount) {... */\n    tag_144:\n        /* \"cordingtest/cordingtest10.sol\":6267:6268  0 */\n      0x00\n        /* \"cordingtest/cordingtest10.sol\":6236:6244  balances */\n      0x03\n        /* \"cordingtest/cordingtest10.sol\":6245:6254  bankNames */\n      dup4\n        /* \"cordingtest/cordingtest10.sol\":6255:6256  i */\n      dup4\n        /* \"cordingtest/cordingtest10.sol\":6245:6257  bankNames[i] */\n      dup2\n      mload\n      dup2\n      lt\n      tag_150\n      jumpi\n      tag_151\n      tag_142\n      jump\t// in\n    tag_151:\n    tag_150:\n      0x20\n      mul\n      0x20\n      add\n      add\n      mload\n        /* \"cordingtest/cordingtest10.sol\":6236:6258  balances[bankNames[i]] */\n      mload(0x40)\n      tag_152\n      swap2\n      swap1\n      tag_82\n      jump\t// in\n    tag_152:\n      swap1\n      dup2\n      mstore\n      0x20\n      add\n      mload(0x40)\n      dup1\n      swap2\n      sub\n      swap1\n      keccak256\n        /* \"cordingtest/cordingtest10.sol\":6236:6264  balances[bankNames[i]][user] */\n      0x00\n        /* \"cordingtest/cordingtest10.sol\":6259:6263  user */\n      dup8\n        /* \"cordingtest/cordingtest10.sol\":6236:6264  balances[bankNames[i]][user] */\n      0xffffffffffffffffffffffffffffffffffffffff\n      and\n      0xffffffffffffffffffffffffffffffffffffffff\n      and\n      dup2\n      mstore\n      0x20\n      add\n      swap1\n      dup2\n      mstore\n      0x20\n      add\n      0x00\n      keccak256\n      sload\n        /* \"cordingtest/cordingtest10.sol\":6236:6268  balances[bankNames[i]][user] > 0 */\n      gt\n        /* \"cordingtest/cordingtest10.sol\":6232:6391  if (balances[bankNames[i]][user] > 0) {... */\n      iszero\n      tag_153\n      jumpi\n        /* \"cordingtest/cordingtest10.sol\":6298:6306  balances */\n      0x03\n        /* \"cordingtest/cordingtest10.sol\":6307:6316  bankNames */\n      dup3\n        /* \"cordingtest/cordingtest10.sol\":6317:6318  i */\n      dup3\n        /* \"cordingtest/cordingtest10.sol\":6307:6319  bankNames[i] */\n      dup2\n      mload\n      dup2\n      lt\n      tag_154\n      jumpi\n      tag_155\n      tag_142\n      jump\t// in\n    tag_155:\n    tag_154:\n      0x20\n      mul\n      0x20\n      add\n      add\n      mload\n        /* \"cordingtest/cordingtest10.sol\":6298:6320  balances[bankNames[i]] */\n      mload(0x40)\n      tag_156\n      swap2\n      swap1\n      tag_82\n      jump\t// in\n    tag_156:\n      swap1\n      dup2\n      mstore\n      0x20\n      add\n      mload(0x40)\n      dup1\n      swap2\n      sub\n      swap1\n      keccak256\n        /* \"cordingtest/cordingtest10.sol\":6298:6326  balances[bankNames[i]][user] */\n      0x00\n        /* \"cordingtest/cordingtest10.sol\":6321:6325  user */\n      dup7\n        /* \"cordingtest/cordingtest10.sol\":6298:6326  balances[bankNames[i]][user] */\n      0xffffffffffffffffffffffffffffffffffffffff\n      and\n      0xffffffffffffffffffffffffffffffffffffffff\n      and\n      dup2\n      mstore\n      0x20\n      add\n      swap1\n      dup2\n      mstore\n      0x20\n      add\n      0x00\n      keccak256\n      sload\n        /* \"cordingtest/cordingtest10.sol\":6288:6326  amount -= balances[bankNames[i]][user] */\n      dup5\n      tag_157\n      swap2\n      swap1\n      tag_92\n      jump\t// in\n    tag_157:\n      swap4\n      pop\n        /* \"cordingtest/cordingtest10.sol\":6375:6376  0 */\n      0x00\n        /* \"cordingtest/cordingtest10.sol\":6344:6352  balances */\n      0x03\n        /* \"cordingtest/cordingtest10.sol\":6353:6362  bankNames */\n      dup4\n        /* \"cordingtest/cordingtest10.sol\":6363:6364  i */\n      dup4\n        /* \"cordingtest/cordingtest10.sol\":6353:6365  bankNames[i] */\n      dup2\n      mload\n      dup2\n      lt\n      tag_158\n      jumpi\n      tag_159\n      tag_142\n      jump\t// in\n    tag_159:\n    tag_158:\n      0x20\n      mul\n      0x20\n      add\n      add\n      mload\n        /* \"cordingtest/cordingtest10.sol\":6344:6366  balances[bankNames[i]] */\n      mload(0x40)\n      tag_160\n      swap2\n      swap1\n      tag_82\n      jump\t// in\n    tag_160:\n      swap1\n      dup2\n      mstore\n      0x20\n      add\n      mload(0x40)\n      dup1\n      swap2\n      sub\n      swap1\n      keccak256\n        /* \"cordingtest/cordingtest10.sol\":6344:6372  balances[bankNames[i]][user] */\n      0x00\n        /* \"cordingtest/cordingtest10.sol\":6367:6371  user */\n      dup8\n        /* \"cordingtest/cordingtest10.sol\":6344:6372  balances[bankNames[i]][user] */\n      0xffffffffffffffffffffffffffffffffffffffff\n      and\n      0xffffffffffffffffffffffffffffffffffffffff\n      and\n      dup2\n      mstore\n      0x20\n      add\n      swap1\n      dup2\n      mstore\n      0x20\n      add\n      0x00\n      keccak256\n        /* \"cordingtest/cordingtest10.sol\":6344:6376  balances[bankNames[i]][user] = 0 */\n      dup2\n      swap1\n      sstore\n      pop\n        /* \"cordingtest/cordingtest10.sol\":6232:6391  if (balances[bankNames[i]][user] > 0) {... */\n    tag_153:\n        /* \"cordingtest/cordingtest10.sol\":6063:6066  i++ */\n      dup1\n      dup1\n      0x01\n      add\n      swap2\n      pop\n      pop\n        /* \"cordingtest/cordingtest10.sol\":6024:6401  for (uint i = 0; i < bankNames.length; i++) {... */\n      jump(tag_137)\n    tag_138:\n      pop\n        /* \"cordingtest/cordingtest10.sol\":6417:6422  false */\n      0x00\n        /* \"cordingtest/cordingtest10.sol\":6410:6422  return false */\n      swap2\n      pop\n      pop\n        /* \"cordingtest/cordingtest10.sol\":5800:6430  function transferToTaxOffice(address user, uint amount) external returns (bool) {... */\n    tag_131:\n      swap3\n      swap2\n      pop\n      pop\n      jump\t// out\n        /* \"cordingtest/cordingtest10.sol\":5485:5794  function getTotalBalance(address user) external view returns (uint) {... */\n    tag_66:\n        /* \"cordingtest/cordingtest10.sol\":5547:5551  uint */\n      0x00\n        /* \"cordingtest/cordingtest10.sol\":5563:5580  uint totalBalance */\n      dup1\n        /* \"cordingtest/cordingtest10.sol\":5583:5584  0 */\n      0x00\n        /* \"cordingtest/cordingtest10.sol\":5563:5584  uint totalBalance = 0 */\n      swap1\n      pop\n        /* \"cordingtest/cordingtest10.sol\":5594:5619  string[] memory bankNames */\n      0x00\n        /* \"cordingtest/cordingtest10.sol\":5622:5636  getBankNames() */\n      tag_162\n        /* \"cordingtest/cordingtest10.sol\":5622:5634  getBankNames */\n      tag_136\n        /* \"cordingtest/cordingtest10.sol\":5622:5636  getBankNames() */\n      jump\t// in\n    tag_162:\n        /* \"cordingtest/cordingtest10.sol\":5594:5636  string[] memory bankNames = getBankNames() */\n      swap1\n      pop\n        /* \"cordingtest/cordingtest10.sol\":5651:5657  uint i */\n      0x00\n        /* \"cordingtest/cordingtest10.sol\":5646:5759  for (uint i = 0; i < bankNames.length; i++) {... */\n    tag_163:\n        /* \"cordingtest/cordingtest10.sol\":5667:5676  bankNames */\n      dup2\n        /* \"cordingtest/cordingtest10.sol\":5667:5683  bankNames.length */\n      mload\n        /* \"cordingtest/cordingtest10.sol\":5663:5664  i */\n      dup2\n        /* \"cordingtest/cordingtest10.sol\":5663:5683  i < bankNames.length */\n      lt\n        /* \"cordingtest/cordingtest10.sol\":5646:5759  for (uint i = 0; i < bankNames.length; i++) {... */\n      iszero\n      tag_164\n      jumpi\n        /* \"cordingtest/cordingtest10.sol\":5720:5728  balances */\n      0x03\n        /* \"cordingtest/cordingtest10.sol\":5729:5738  bankNames */\n      dup3\n        /* \"cordingtest/cordingtest10.sol\":5739:5740  i */\n      dup3\n        /* \"cordingtest/cordingtest10.sol\":5729:5741  bankNames[i] */\n      dup2\n      mload\n      dup2\n      lt\n      tag_166\n      jumpi\n      tag_167\n      tag_142\n      jump\t// in\n    tag_167:\n    tag_166:\n      0x20\n      mul\n      0x20\n      add\n      add\n      mload\n        /* \"cordingtest/cordingtest10.sol\":5720:5742  balances[bankNames[i]] */\n      mload(0x40)\n      tag_168\n      swap2\n      swap1\n      tag_82\n      jump\t// in\n    tag_168:\n      swap1\n      dup2\n      mstore\n      0x20\n      add\n      mload(0x40)\n      dup1\n      swap2\n      sub\n      swap1\n      keccak256\n        /* \"cordingtest/cordingtest10.sol\":5720:5748  balances[bankNames[i]][user] */\n      0x00\n        /* \"cordingtest/cordingtest10.sol\":5743:5747  user */\n      dup7\n        /* \"cordingtest/cordingtest10.sol\":5720:5748  balances[bankNames[i]][user] */\n      0xffffffffffffffffffffffffffffffffffffffff\n      and\n      0xffffffffffffffffffffffffffffffffffffffff\n      and\n      dup2\n      mstore\n      0x20\n      add\n      swap1\n      dup2\n      mstore\n      0x20\n      add\n      0x00\n      keccak256\n      sload\n        /* \"cordingtest/cordingtest10.sol\":5704:5748  totalBalance += balances[bankNames[i]][user] */\n      dup4\n      tag_169\n      swap2\n      swap1\n      tag_107\n      jump\t// in\n    tag_169:\n      swap3\n      pop\n        /* \"cordingtest/cordingtest10.sol\":5685:5688  i++ */\n      dup1\n      dup1\n      0x01\n      add\n      swap2\n      pop\n      pop\n        /* \"cordingtest/cordingtest10.sol\":5646:5759  for (uint i = 0; i < bankNames.length; i++) {... */\n      jump(tag_163)\n    tag_164:\n      pop\n        /* \"cordingtest/cordingtest10.sol\":5775:5787  totalBalance */\n      dup2\n        /* \"cordingtest/cordingtest10.sol\":5768:5787  return totalBalance */\n      swap3\n      pop\n      pop\n      pop\n        /* \"cordingtest/cordingtest10.sol\":5485:5794  function getTotalBalance(address user) external view returns (uint) {... */\n      swap2\n      swap1\n      pop\n      jump\t// out\n        /* \"cordingtest/cordingtest10.sol\":4490:4915  function transferBetweenBanks(string memory fromBank, string memory toBank, uint amount) external {... */\n    tag_72:\n        /* \"cordingtest/cordingtest10.sol\":4606:4621  registeredUsers */\n      0x02\n        /* \"cordingtest/cordingtest10.sol\":4606:4633  registeredUsers[msg.sender] */\n      0x00\n        /* \"cordingtest/cordingtest10.sol\":4622:4632  msg.sender */\n      caller\n        /* \"cordingtest/cordingtest10.sol\":4606:4633  registeredUsers[msg.sender] */\n      0xffffffffffffffffffffffffffffffffffffffff\n      and\n      0xffffffffffffffffffffffffffffffffffffffff\n      and\n      dup2\n      mstore\n      0x20\n      add\n      swap1\n      dup2\n      mstore\n      0x20\n      add\n      0x00\n      keccak256\n      0x00\n      swap1\n      sload\n      swap1\n      0x0100\n      exp\n      swap1\n      div\n      0xff\n      and\n        /* \"cordingtest/cordingtest10.sol\":4598:4657  require(registeredUsers[msg.sender], \"User not registered\") */\n      tag_171\n      jumpi\n      mload(0x40)\n      0x08c379a000000000000000000000000000000000000000000000000000000000\n      dup2\n      mstore\n      0x04\n      add\n      tag_172\n      swap1\n      tag_80\n      jump\t// in\n    tag_172:\n      mload(0x40)\n      dup1\n      swap2\n      sub\n      swap1\n      revert\n    tag_171:\n        /* \"cordingtest/cordingtest10.sol\":4675:4680  banks */\n      0x01\n        /* \"cordingtest/cordingtest10.sol\":4681:4689  fromBank */\n      dup4\n        /* \"cordingtest/cordingtest10.sol\":4675:4690  banks[fromBank] */\n      mload(0x40)\n      tag_173\n      swap2\n      swap1\n      tag_82\n      jump\t// in\n    tag_173:\n      swap1\n      dup2\n      mstore\n      0x20\n      add\n      mload(0x40)\n      dup1\n      swap2\n      sub\n      swap1\n      keccak256\n      0x00\n      swap1\n      sload\n      swap1\n      0x0100\n      exp\n      swap1\n      div\n      0xff\n      and\n        /* \"cordingtest/cordingtest10.sol\":4675:4707  banks[fromBank] && banks[toBank] */\n      dup1\n      iszero\n      tag_174\n      jumpi\n      pop\n        /* \"cordingtest/cordingtest10.sol\":4694:4699  banks */\n      0x01\n        /* \"cordingtest/cordingtest10.sol\":4700:4706  toBank */\n      dup3\n        /* \"cordingtest/cordingtest10.sol\":4694:4707  banks[toBank] */\n      mload(0x40)\n      tag_175\n      swap2\n      swap1\n      tag_82\n      jump\t// in\n    tag_175:\n      swap1\n      dup2\n      mstore\n      0x20\n      add\n      mload(0x40)\n      dup1\n      swap2\n      sub\n      swap1\n      keccak256\n      0x00\n      swap1\n      sload\n      swap1\n      0x0100\n      exp\n      swap1\n      div\n      0xff\n      and\n        /* \"cordingtest/cordingtest10.sol\":4675:4707  banks[fromBank] && banks[toBank] */\n    tag_174:\n        /* \"cordingtest/cordingtest10.sol\":4667:4727  require(banks[fromBank] && banks[toBank], \"Invalid bank(s)\") */\n      tag_176\n      jumpi\n      mload(0x40)\n      0x08c379a000000000000000000000000000000000000000000000000000000000\n      dup2\n      mstore\n      0x04\n      add\n      tag_177\n      swap1\n      tag_105\n      jump\t// in\n    tag_177:\n      mload(0x40)\n      dup1\n      swap2\n      sub\n      swap1\n      revert\n    tag_176:\n        /* \"cordingtest/cordingtest10.sol\":4779:4785  amount */\n      dup1\n        /* \"cordingtest/cordingtest10.sol\":4745:4753  balances */\n      0x03\n        /* \"cordingtest/cordingtest10.sol\":4754:4762  fromBank */\n      dup5\n        /* \"cordingtest/cordingtest10.sol\":4745:4763  balances[fromBank] */\n      mload(0x40)\n      tag_178\n      swap2\n      swap1\n      tag_82\n      jump\t// in\n    tag_178:\n      swap1\n      dup2\n      mstore\n      0x20\n      add\n      mload(0x40)\n      dup1\n      swap2\n      sub\n      swap1\n      keccak256\n        /* \"cordingtest/cordingtest10.sol\":4745:4775  balances[fromBank][msg.sender] */\n      0x00\n        /* \"cordingtest/cordingtest10.sol\":4764:4774  msg.sender */\n      caller\n        /* \"cordingtest/cordingtest10.sol\":4745:4775  balances[fromBank][msg.sender] */\n      0xffffffffffffffffffffffffffffffffffffffff\n      and\n      0xffffffffffffffffffffffffffffffffffffffff\n      and\n      dup2\n      mstore\n      0x20\n      add\n      swap1\n      dup2\n      mstore\n      0x20\n      add\n      0x00\n      keccak256\n      sload\n        /* \"cordingtest/cordingtest10.sol\":4745:4785  balances[fromBank][msg.sender] >= amount */\n      lt\n      iszero\n        /* \"cordingtest/cordingtest10.sol\":4737:4810  require(balances[fromBank][msg.sender] >= amount, \"Insufficient balance\") */\n      tag_179\n      jumpi\n      mload(0x40)\n      0x08c379a000000000000000000000000000000000000000000000000000000000\n      dup2\n      mstore\n      0x04\n      add\n      tag_180\n      swap1\n      tag_89\n      jump\t// in\n    tag_180:\n      mload(0x40)\n      dup1\n      swap2\n      sub\n      swap1\n      revert\n    tag_179:\n        /* \"cordingtest/cordingtest10.sol\":4854:4860  amount */\n      dup1\n        /* \"cordingtest/cordingtest10.sol\":4820:4828  balances */\n      0x03\n        /* \"cordingtest/cordingtest10.sol\":4829:4837  fromBank */\n      dup5\n        /* \"cordingtest/cordingtest10.sol\":4820:4838  balances[fromBank] */\n      mload(0x40)\n      tag_181\n      swap2\n      swap1\n      tag_82\n      jump\t// in\n    tag_181:\n      swap1\n      dup2\n      mstore\n      0x20\n      add\n      mload(0x40)\n      dup1\n      swap2\n      sub\n      swap1\n      keccak256\n        /* \"cordingtest/cordingtest10.sol\":4820:4850  balances[fromBank][msg.sender] */\n      0x00\n        /* \"cordingtest/cordingtest10.sol\":4839:4849  msg.sender */\n      caller\n        /* \"cordingtest/cordingtest10.sol\":4820:4850  balances[fromBank][msg.sender] */\n      0xffffffffffffffffffffffffffffffffffffffff\n      and\n      0xffffffffffffffffffffffffffffffffffffffff\n      and\n      dup2\n      mstore\n      0x20\n      add\n      swap1\n      dup2\n      mstore\n      0x20\n      add\n      0x00\n      keccak256\n      0x00\n        /* \"cordingtest/cordingtest10.sol\":4820:4860  balances[fromBank][msg.sender] -= amount */\n      dup3\n      dup3\n      sload\n      tag_182\n      swap2\n      swap1\n      tag_92\n      jump\t// in\n    tag_182:\n      swap3\n      pop\n      pop\n      dup2\n      swap1\n      sstore\n      pop\n        /* \"cordingtest/cordingtest10.sol\":4902:4908  amount */\n      dup1\n        /* \"cordingtest/cordingtest10.sol\":4870:4878  balances */\n      0x03\n        /* \"cordingtest/cordingtest10.sol\":4879:4885  toBank */\n      dup4\n        /* \"cordingtest/cordingtest10.sol\":4870:4886  balances[toBank] */\n      mload(0x40)\n      tag_183\n      swap2\n      swap1\n      tag_82\n      jump\t// in\n    tag_183:\n      swap1\n      dup2\n      mstore\n      0x20\n      add\n      mload(0x40)\n      dup1\n      swap2\n      sub\n      swap1\n      keccak256\n        /* \"cordingtest/cordingtest10.sol\":4870:4898  balances[toBank][msg.sender] */\n      0x00\n        /* \"cordingtest/cordingtest10.sol\":4887:4897  msg.sender */\n      caller\n        /* \"cordingtest/cordingtest10.sol\":4870:4898  balances[toBank][msg.sender] */\n      0xffffffffffffffffffffffffffffffffffffffff\n      and\n      0xffffffffffffffffffffffffffffffffffffffff\n      and\n      dup2\n      mstore\n      0x20\n      add\n      swap1\n      dup2\n      mstore\n      0x20\n      add\n      0x00\n      keccak256\n      0x00\n        /* \"cordingtest/cordingtest10.sol\":4870:4908  balances[toBank][msg.sender] += amount */\n      dup3\n      dup3\n      sload\n      tag_184\n      swap2\n      swap1\n      tag_107\n      jump\t// in\n    tag_184:\n      swap3\n      pop\n      pop\n      dup2\n      swap1\n      sstore\n      pop\n        /* \"cordingtest/cordingtest10.sol\":4490:4915  function transferBetweenBanks(string memory fromBank, string memory toBank, uint amount) external {... */\n      pop\n      pop\n      pop\n      jump\t// out\n        /* \"cordingtest/cordingtest10.sol\":3619:3852  function register(string memory bankName) external {... */\n    tag_76:\n        /* \"cordingtest/cordingtest10.sol\":3688:3693  banks */\n      0x01\n        /* \"cordingtest/cordingtest10.sol\":3694:3702  bankName */\n      dup2\n        /* \"cordingtest/cordingtest10.sol\":3688:3703  banks[bankName] */\n      mload(0x40)\n      tag_186\n      swap2\n      swap1\n      tag_82\n      jump\t// in\n    tag_186:\n      swap1\n      dup2\n      mstore\n      0x20\n      add\n      mload(0x40)\n      dup1\n      swap2\n      sub\n      swap1\n      keccak256\n      0x00\n      swap1\n      sload\n      swap1\n      0x0100\n      exp\n      swap1\n      div\n      0xff\n      and\n        /* \"cordingtest/cordingtest10.sol\":3680:3727  require(banks[bankName], \"Bank does not exist\") */\n      tag_187\n      jumpi\n      mload(0x40)\n      0x08c379a000000000000000000000000000000000000000000000000000000000\n      dup2\n      mstore\n      0x04\n      add\n      tag_188\n      swap1\n      tag_85\n      jump\t// in\n    tag_188:\n      mload(0x40)\n      dup1\n      swap2\n      sub\n      swap1\n      revert\n    tag_187:\n        /* \"cordingtest/cordingtest10.sol\":3746:3761  registeredUsers */\n      0x02\n        /* \"cordingtest/cordingtest10.sol\":3746:3773  registeredUsers[msg.sender] */\n      0x00\n        /* \"cordingtest/cordingtest10.sol\":3762:3772  msg.sender */\n      caller\n        /* \"cordingtest/cordingtest10.sol\":3746:3773  registeredUsers[msg.sender] */\n      0xffffffffffffffffffffffffffffffffffffffff\n      and\n      0xffffffffffffffffffffffffffffffffffffffff\n      and\n      dup2\n      mstore\n      0x20\n      add\n      swap1\n      dup2\n      mstore\n      0x20\n      add\n      0x00\n      keccak256\n      0x00\n      swap1\n      sload\n      swap1\n      0x0100\n      exp\n      swap1\n      div\n      0xff\n      and\n        /* \"cordingtest/cordingtest10.sol\":3745:3773  !registeredUsers[msg.sender] */\n      iszero\n        /* \"cordingtest/cordingtest10.sol\":3737:3801  require(!registeredUsers[msg.sender], \"User already registered\") */\n      tag_189\n      jumpi\n      mload(0x40)\n      0x08c379a000000000000000000000000000000000000000000000000000000000\n      dup2\n      mstore\n      0x04\n      add\n      tag_190\n      swap1\n      tag_191\n      jump\t// in\n    tag_190:\n      mload(0x40)\n      dup1\n      swap2\n      sub\n      swap1\n      revert\n    tag_189:\n        /* \"cordingtest/cordingtest10.sol\":3841:3845  true */\n      0x01\n        /* \"cordingtest/cordingtest10.sol\":3811:3826  registeredUsers */\n      0x02\n        /* \"cordingtest/cordingtest10.sol\":3811:3838  registeredUsers[msg.sender] */\n      0x00\n        /* \"cordingtest/cordingtest10.sol\":3827:3837  msg.sender */\n      caller\n        /* \"cordingtest/cordingtest10.sol\":3811:3838  registeredUsers[msg.sender] */\n      0xffffffffffffffffffffffffffffffffffffffff\n      and\n      0xffffffffffffffffffffffffffffffffffffffff\n      and\n      dup2\n      mstore\n      0x20\n      add\n      swap1\n      dup2\n      mstore\n      0x20\n      add\n      0x00\n      keccak256\n      0x00\n        /* \"cordingtest/cordingtest10.sol\":3811:3845  registeredUsers[msg.sender] = true */\n      0x0100\n      exp\n      dup2\n      sload\n      dup2\n      0xff\n      mul\n      not\n      and\n      swap1\n      dup4\n      iszero\n      iszero\n      mul\n      or\n      swap1\n      sstore\n      pop\n        /* \"cordingtest/cordingtest10.sol\":3619:3852  function register(string memory bankName) external {... */\n      pop\n      jump\t// out\n        /* \"cordingtest/cordingtest10.sol\":6436:6995  function getBankNames() internal view returns (string[] memory) {... */\n    tag_136:\n        /* \"cordingtest/cordingtest10.sol\":6483:6498  string[] memory */\n      0x60\n        /* \"cordingtest/cordingtest10.sol\":6510:6520  uint count */\n      0x00\n        /* \"cordingtest/cordingtest10.sol\":6539:6545  uint i */\n      dup1\n        /* \"cordingtest/cordingtest10.sol\":6534:6658  for (uint i = 0; i < 100; i++) { ... */\n    tag_193:\n        /* \"cordingtest/cordingtest10.sol\":6555:6558  100 */\n      0x64\n        /* \"cordingtest/cordingtest10.sol\":6551:6552  i */\n      dup2\n        /* \"cordingtest/cordingtest10.sol\":6551:6558  i < 100 */\n      lt\n        /* \"cordingtest/cordingtest10.sol\":6534:6658  for (uint i = 0; i < 100; i++) { ... */\n      iszero\n      tag_194\n      jumpi\n        /* \"cordingtest/cordingtest10.sol\":6584:6589  banks */\n      0x01\n        /* \"cordingtest/cordingtest10.sol\":6590:6605  uintToString(i) */\n      tag_196\n        /* \"cordingtest/cordingtest10.sol\":6603:6604  i */\n      dup3\n        /* \"cordingtest/cordingtest10.sol\":6590:6602  uintToString */\n      tag_197\n        /* \"cordingtest/cordingtest10.sol\":6590:6605  uintToString(i) */\n      jump\t// in\n    tag_196:\n        /* \"cordingtest/cordingtest10.sol\":6584:6606  banks[uintToString(i)] */\n      mload(0x40)\n      tag_198\n      swap2\n      swap1\n      tag_82\n      jump\t// in\n    tag_198:\n      swap1\n      dup2\n      mstore\n      0x20\n      add\n      mload(0x40)\n      dup1\n      swap2\n      sub\n      swap1\n      keccak256\n      0x00\n      swap1\n      sload\n      swap1\n      0x0100\n      exp\n      swap1\n      div\n      0xff\n      and\n        /* \"cordingtest/cordingtest10.sol\":6580:6648  if (banks[uintToString(i)]) {... */\n      iszero\n      tag_199\n      jumpi\n        /* \"cordingtest/cordingtest10.sol\":6626:6633  count++ */\n      dup2\n      dup1\n      tag_200\n      swap1\n      tag_201\n      jump\t// in\n    tag_200:\n      swap3\n      pop\n      pop\n        /* \"cordingtest/cordingtest10.sol\":6580:6648  if (banks[uintToString(i)]) {... */\n    tag_199:\n        /* \"cordingtest/cordingtest10.sol\":6560:6563  i++ */\n      dup1\n      dup1\n      0x01\n      add\n      swap2\n      pop\n      pop\n        /* \"cordingtest/cordingtest10.sol\":6534:6658  for (uint i = 0; i < 100; i++) { ... */\n      jump(tag_193)\n    tag_194:\n      pop\n        /* \"cordingtest/cordingtest10.sol\":6667:6692  string[] memory bankNames */\n      0x00\n        /* \"cordingtest/cordingtest10.sol\":6708:6713  count */\n      dup2\n        /* \"cordingtest/cordingtest10.sol\":6695:6714  new string[](count) */\n      0xffffffffffffffff\n      dup2\n      gt\n      iszero\n      tag_202\n      jumpi\n      tag_203\n      tag_204\n      jump\t// in\n    tag_203:\n    tag_202:\n      mload(0x40)\n      swap1\n      dup1\n      dup3\n      mstore\n      dup1\n      0x20\n      mul\n      0x20\n      add\n      dup3\n      add\n      0x40\n      mstore\n      dup1\n      iszero\n      tag_205\n      jumpi\n      dup2\n      0x20\n      add\n    tag_206:\n      0x60\n      dup2\n      mstore\n      0x20\n      add\n      swap1\n      0x01\n      swap1\n      sub\n      swap1\n      dup2\n      tag_206\n      jumpi\n      swap1\n      pop\n    tag_205:\n      pop\n        /* \"cordingtest/cordingtest10.sol\":6667:6714  string[] memory bankNames = new string[](count) */\n      swap1\n      pop\n        /* \"cordingtest/cordingtest10.sol\":6724:6734  uint index */\n      0x00\n        /* \"cordingtest/cordingtest10.sol\":6753:6759  uint i */\n      dup1\n        /* \"cordingtest/cordingtest10.sol\":6748:6963  for (uint i = 0; i < 100; i++) {... */\n    tag_207:\n        /* \"cordingtest/cordingtest10.sol\":6769:6772  100 */\n      0x64\n        /* \"cordingtest/cordingtest10.sol\":6765:6766  i */\n      dup2\n        /* \"cordingtest/cordingtest10.sol\":6765:6772  i < 100 */\n      lt\n        /* \"cordingtest/cordingtest10.sol\":6748:6963  for (uint i = 0; i < 100; i++) {... */\n      iszero\n      tag_208\n      jumpi\n        /* \"cordingtest/cordingtest10.sol\":6793:6815  string memory bankName */\n      0x00\n        /* \"cordingtest/cordingtest10.sol\":6818:6833  uintToString(i) */\n      tag_210\n        /* \"cordingtest/cordingtest10.sol\":6831:6832  i */\n      dup3\n        /* \"cordingtest/cordingtest10.sol\":6818:6830  uintToString */\n      tag_197\n        /* \"cordingtest/cordingtest10.sol\":6818:6833  uintToString(i) */\n      jump\t// in\n    tag_210:\n        /* \"cordingtest/cordingtest10.sol\":6793:6833  string memory bankName = uintToString(i) */\n      swap1\n      pop\n        /* \"cordingtest/cordingtest10.sol\":6851:6856  banks */\n      0x01\n        /* \"cordingtest/cordingtest10.sol\":6857:6865  bankName */\n      dup2\n        /* \"cordingtest/cordingtest10.sol\":6851:6866  banks[bankName] */\n      mload(0x40)\n      tag_211\n      swap2\n      swap1\n      tag_82\n      jump\t// in\n    tag_211:\n      swap1\n      dup2\n      mstore\n      0x20\n      add\n      mload(0x40)\n      dup1\n      swap2\n      sub\n      swap1\n      keccak256\n      0x00\n      swap1\n      sload\n      swap1\n      0x0100\n      exp\n      swap1\n      div\n      0xff\n      and\n        /* \"cordingtest/cordingtest10.sol\":6847:6953  if (banks[bankName]) {... */\n      iszero\n      tag_212\n      jumpi\n        /* \"cordingtest/cordingtest10.sol\":6905:6913  bankName */\n      dup1\n        /* \"cordingtest/cordingtest10.sol\":6886:6895  bankNames */\n      dup5\n        /* \"cordingtest/cordingtest10.sol\":6896:6901  index */\n      dup5\n        /* \"cordingtest/cordingtest10.sol\":6886:6902  bankNames[index] */\n      dup2\n      mload\n      dup2\n      lt\n      tag_213\n      jumpi\n      tag_214\n      tag_142\n      jump\t// in\n    tag_214:\n    tag_213:\n      0x20\n      mul\n      0x20\n      add\n      add\n        /* \"cordingtest/cordingtest10.sol\":6886:6913  bankNames[index] = bankName */\n      dup2\n      swap1\n      mstore\n      pop\n        /* \"cordingtest/cordingtest10.sol\":6931:6938  index++ */\n      dup3\n      dup1\n      tag_215\n      swap1\n      tag_201\n      jump\t// in\n    tag_215:\n      swap4\n      pop\n      pop\n        /* \"cordingtest/cordingtest10.sol\":6847:6953  if (banks[bankName]) {... */\n    tag_212:\n        /* \"cordingtest/cordingtest10.sol\":6779:6963  {... */\n      pop\n        /* \"cordingtest/cordingtest10.sol\":6774:6777  i++ */\n      dup1\n      dup1\n      0x01\n      add\n      swap2\n      pop\n      pop\n        /* \"cordingtest/cordingtest10.sol\":6748:6963  for (uint i = 0; i < 100; i++) {... */\n      jump(tag_207)\n    tag_208:\n      pop\n        /* \"cordingtest/cordingtest10.sol\":6979:6988  bankNames */\n      dup2\n        /* \"cordingtest/cordingtest10.sol\":6972:6988  return bankNames */\n      swap4\n      pop\n      pop\n      pop\n      pop\n        /* \"cordingtest/cordingtest10.sol\":6436:6995  function getBankNames() internal view returns (string[] memory) {... */\n      swap1\n      jump\t// out\n        /* \"cordingtest/cordingtest10.sol\":7001:7554  function uintToString(uint v) internal pure returns (string memory) {... */\n    tag_197:\n        /* \"cordingtest/cordingtest10.sol\":7054:7067  string memory */\n      0x60\n        /* \"cordingtest/cordingtest10.sol\":7088:7089  0 */\n      0x00\n        /* \"cordingtest/cordingtest10.sol\":7083:7084  v */\n      dup3\n        /* \"cordingtest/cordingtest10.sol\":7083:7089  v == 0 */\n      sub\n        /* \"cordingtest/cordingtest10.sol\":7079:7126  if (v == 0) {... */\n      tag_217\n      jumpi\n        /* \"cordingtest/cordingtest10.sol\":7105:7115  return \"0\" */\n      mload(0x40)\n      dup1\n      0x40\n      add\n      0x40\n      mstore\n      dup1\n      0x01\n      dup2\n      mstore\n      0x20\n      add\n      0x3000000000000000000000000000000000000000000000000000000000000000\n      dup2\n      mstore\n      pop\n      swap1\n      pop\n      jump(tag_216)\n        /* \"cordingtest/cordingtest10.sol\":7079:7126  if (v == 0) {... */\n    tag_217:\n        /* \"cordingtest/cordingtest10.sol\":7144:7158  uint maxlength */\n      0x00\n        /* \"cordingtest/cordingtest10.sol\":7161:7164  100 */\n      0x64\n        /* \"cordingtest/cordingtest10.sol\":7144:7164  uint maxlength = 100 */\n      swap1\n      pop\n        /* \"cordingtest/cordingtest10.sol\":7174:7195  bytes memory reversed */\n      0x00\n        /* \"cordingtest/cordingtest10.sol\":7208:7217  maxlength */\n      dup2\n        /* \"cordingtest/cordingtest10.sol\":7198:7218  new bytes(maxlength) */\n      0xffffffffffffffff\n      dup2\n      gt\n      iszero\n      tag_218\n      jumpi\n      tag_219\n      tag_204\n      jump\t// in\n    tag_219:\n    tag_218:\n      mload(0x40)\n      swap1\n      dup1\n      dup3\n      mstore\n      dup1\n      0x1f\n      add\n      not(0x1f)\n      and\n      0x20\n      add\n      dup3\n      add\n      0x40\n      mstore\n      dup1\n      iszero\n      tag_220\n      jumpi\n      dup2\n      0x20\n      add\n      0x01\n      dup3\n      mul\n      dup1\n      calldatasize\n      dup4\n      calldatacopy\n      dup1\n      dup3\n      add\n      swap2\n      pop\n      pop\n      swap1\n      pop\n    tag_220:\n      pop\n        /* \"cordingtest/cordingtest10.sol\":7174:7218  bytes memory reversed = new bytes(maxlength) */\n      swap1\n      pop\n        /* \"cordingtest/cordingtest10.sol\":7228:7234  uint i */\n      0x00\n        /* \"cordingtest/cordingtest10.sol\":7248:7394  while (v != 0) {... */\n    tag_221:\n        /* \"cordingtest/cordingtest10.sol\":7260:7261  0 */\n      0x00\n        /* \"cordingtest/cordingtest10.sol\":7255:7256  v */\n      dup6\n        /* \"cordingtest/cordingtest10.sol\":7255:7261  v != 0 */\n      eq\n        /* \"cordingtest/cordingtest10.sol\":7248:7394  while (v != 0) {... */\n      tag_222\n      jumpi\n        /* \"cordingtest/cordingtest10.sol\":7277:7291  uint remainder */\n      0x00\n        /* \"cordingtest/cordingtest10.sol\":7298:7300  10 */\n      0x0a\n        /* \"cordingtest/cordingtest10.sol\":7294:7295  v */\n      dup7\n        /* \"cordingtest/cordingtest10.sol\":7294:7300  v % 10 */\n      tag_223\n      swap2\n      swap1\n      tag_224\n      jump\t// in\n    tag_223:\n        /* \"cordingtest/cordingtest10.sol\":7277:7300  uint remainder = v % 10 */\n      swap1\n      pop\n        /* \"cordingtest/cordingtest10.sol\":7322:7324  10 */\n      0x0a\n        /* \"cordingtest/cordingtest10.sol\":7318:7319  v */\n      dup7\n        /* \"cordingtest/cordingtest10.sol\":7318:7324  v / 10 */\n      tag_225\n      swap2\n      swap1\n      tag_226\n      jump\t// in\n    tag_225:\n        /* \"cordingtest/cordingtest10.sol\":7314:7324  v = v / 10 */\n      swap6\n      pop\n        /* \"cordingtest/cordingtest10.sol\":7372:7381  remainder */\n      dup1\n        /* \"cordingtest/cordingtest10.sol\":7367:7369  48 */\n      0x30\n        /* \"cordingtest/cordingtest10.sol\":7367:7381  48 + remainder */\n      tag_227\n      swap2\n      swap1\n      tag_107\n      jump\t// in\n    tag_227:\n        /* \"cordingtest/cordingtest10.sol\":7354:7383  bytes1(uint8(48 + remainder)) */\n      0xf8\n      shl\n        /* \"cordingtest/cordingtest10.sol\":7338:7346  reversed */\n      dup4\n        /* \"cordingtest/cordingtest10.sol\":7347:7350  i++ */\n      dup4\n      dup1\n      tag_228\n      swap1\n      tag_201\n      jump\t// in\n    tag_228:\n      swap5\n      pop\n        /* \"cordingtest/cordingtest10.sol\":7338:7351  reversed[i++] */\n      dup2\n      mload\n      dup2\n      lt\n      tag_229\n      jumpi\n      tag_230\n      tag_142\n      jump\t// in\n    tag_230:\n    tag_229:\n      0x20\n      add\n      add\n        /* \"cordingtest/cordingtest10.sol\":7338:7383  reversed[i++] = bytes1(uint8(48 + remainder)) */\n      swap1\n      not(0xffffffffffffffffffffffffffffffffffffffffffffffffffffffffffffff)\n      and\n      swap1\n      dup2\n      0x00\n      byte\n      swap1\n      mstore8\n      pop\n        /* \"cordingtest/cordingtest10.sol\":7263:7394  {... */\n      pop\n        /* \"cordingtest/cordingtest10.sol\":7248:7394  while (v != 0) {... */\n      jump(tag_221)\n    tag_222:\n        /* \"cordingtest/cordingtest10.sol\":7403:7417  bytes memory s */\n      0x00\n        /* \"cordingtest/cordingtest10.sol\":7430:7431  i */\n      dup2\n        /* \"cordingtest/cordingtest10.sol\":7420:7432  new bytes(i) */\n      0xffffffffffffffff\n      dup2\n      gt\n      iszero\n      tag_231\n      jumpi\n      tag_232\n      tag_204\n      jump\t// in\n    tag_232:\n    tag_231:\n      mload(0x40)\n      swap1\n      dup1\n      dup3\n      mstore\n      dup1\n      0x1f\n      add\n      not(0x1f)\n      and\n      0x20\n      add\n      dup3\n      add\n      0x40\n      mstore\n      dup1\n      iszero\n      tag_233\n      jumpi\n      dup2\n      0x20\n      add\n      0x01\n      dup3\n      mul\n      dup1\n      calldatasize\n      dup4\n      calldatacopy\n      dup1\n      dup3\n      add\n      swap2\n      pop\n      pop\n      swap1\n      pop\n    tag_233:\n      pop\n        /* \"cordingtest/cordingtest10.sol\":7403:7432  bytes memory s = new bytes(i) */\n      swap1\n      pop\n        /* \"cordingtest/cordingtest10.sol\":7447:7453  uint j */\n      0x00\n        /* \"cordingtest/cordingtest10.sol\":7442:7522  for (uint j = 0; j < i; j++) {... */\n    tag_234:\n        /* \"cordingtest/cordingtest10.sol\":7463:7464  i */\n      dup3\n        /* \"cordingtest/cordingtest10.sol\":7459:7460  j */\n      dup2\n        /* \"cordingtest/cordingtest10.sol\":7459:7464  j < i */\n      lt\n        /* \"cordingtest/cordingtest10.sol\":7442:7522  for (uint j = 0; j < i; j++) {... */\n      iszero\n      tag_235\n      jumpi\n        /* \"cordingtest/cordingtest10.sol\":7492:7500  reversed */\n      dup4\n        /* \"cordingtest/cordingtest10.sol\":7509:7510  1 */\n      0x01\n        /* \"cordingtest/cordingtest10.sol\":7505:7506  j */\n      dup3\n        /* \"cordingtest/cordingtest10.sol\":7501:7502  i */\n      dup6\n        /* \"cordingtest/cordingtest10.sol\":7501:7506  i - j */\n      tag_237\n      swap2\n      swap1\n      tag_92\n      jump\t// in\n    tag_237:\n        /* \"cordingtest/cordingtest10.sol\":7501:7510  i - j - 1 */\n      tag_238\n      swap2\n      swap1\n      tag_92\n      jump\t// in\n    tag_238:\n        /* \"cordingtest/cordingtest10.sol\":7492:7511  reversed[i - j - 1] */\n      dup2\n      mload\n      dup2\n      lt\n      tag_239\n      jumpi\n      tag_240\n      tag_142\n      jump\t// in\n    tag_240:\n    tag_239:\n      0x20\n      add\n      add\n      mload\n      0xf8\n      shr\n      0xf8\n      shl\n        /* \"cordingtest/cordingtest10.sol\":7485:7486  s */\n      dup3\n        /* \"cordingtest/cordingtest10.sol\":7487:7488  j */\n      dup3\n        /* \"cordingtest/cordingtest10.sol\":7485:7489  s[j] */\n      dup2\n      mload\n      dup2\n      lt\n      tag_241\n      jumpi\n      tag_242\n      tag_142\n      jump\t// in\n    tag_242:\n    tag_241:\n      0x20\n      add\n      add\n        /* \"cordingtest/cordingtest10.sol\":7485:7511  s[j] = reversed[i - j - 1] */\n      swap1\n      not(0xffffffffffffffffffffffffffffffffffffffffffffffffffffffffffffff)\n      and\n      swap1\n      dup2\n      0x00\n      byte\n      swap1\n      mstore8\n      pop\n        /* \"cordingtest/cordingtest10.sol\":7466:7469  j++ */\n      dup1\n      dup1\n      0x01\n      add\n      swap2\n      pop\n      pop\n        /* \"cordingtest/cordingtest10.sol\":7442:7522  for (uint j = 0; j < i; j++) {... */\n      jump(tag_234)\n    tag_235:\n      pop\n        /* \"cordingtest/cordingtest10.sol\":7545:7546  s */\n      dup1\n        /* \"cordingtest/cordingtest10.sol\":7531:7547  return string(s) */\n      swap5\n      pop\n      pop\n      pop\n      pop\n      pop\n        /* \"cordingtest/cordingtest10.sol\":7001:7554  function uintToString(uint v) internal pure returns (string memory) {... */\n    tag_216:\n      swap2\n      swap1\n      pop\n      jump\t// out\n        /* \"#utility.yul\":7:82   */\n    tag_243:\n        /* \"#utility.yul\":40:46   */\n      0x00\n        /* \"#utility.yul\":73:75   */\n      0x40\n        /* \"#utility.yul\":67:76   */\n      mload\n        /* \"#utility.yul\":57:76   */\n      swap1\n      pop\n        /* \"#utility.yul\":7:82   */\n      swap1\n      jump\t// out\n        /* \"#utility.yul\":88:205   */\n    tag_244:\n        /* \"#utility.yul\":197:198   */\n      0x00\n        /* \"#utility.yul\":194:195   */\n      dup1\n        /* \"#utility.yul\":187:199   */\n      revert\n        /* \"#utility.yul\":211:328   */\n    tag_245:\n        /* \"#utility.yul\":320:321   */\n      0x00\n        /* \"#utility.yul\":317:318   */\n      dup1\n        /* \"#utility.yul\":310:322   */\n      revert\n        /* \"#utility.yul\":334:460   */\n    tag_246:\n        /* \"#utility.yul\":371:378   */\n      0x00\n        /* \"#utility.yul\":411:453   */\n      0xffffffffffffffffffffffffffffffffffffffff\n        /* \"#utility.yul\":404:409   */\n      dup3\n        /* \"#utility.yul\":400:454   */\n      and\n        /* \"#utility.yul\":389:454   */\n      swap1\n      pop\n        /* \"#utility.yul\":334:460   */\n      swap2\n      swap1\n      pop\n      jump\t// out\n        /* \"#utility.yul\":466:562   */\n    tag_247:\n        /* \"#utility.yul\":503:510   */\n      0x00\n        /* \"#utility.yul\":532:556   */\n      tag_295\n        /* \"#utility.yul\":550:555   */\n      dup3\n        /* \"#utility.yul\":532:556   */\n      tag_246\n      jump\t// in\n    tag_295:\n        /* \"#utility.yul\":521:556   */\n      swap1\n      pop\n        /* \"#utility.yul\":466:562   */\n      swap2\n      swap1\n      pop\n      jump\t// out\n        /* \"#utility.yul\":568:690   */\n    tag_248:\n        /* \"#utility.yul\":641:665   */\n      tag_297\n        /* \"#utility.yul\":659:664   */\n      dup2\n        /* \"#utility.yul\":641:665   */\n      tag_247\n      jump\t// in\n    tag_297:\n        /* \"#utility.yul\":634:639   */\n      dup2\n        /* \"#utility.yul\":631:666   */\n      eq\n        /* \"#utility.yul\":621:684   */\n      tag_298\n      jumpi\n        /* \"#utility.yul\":680:681   */\n      0x00\n        /* \"#utility.yul\":677:678   */\n      dup1\n        /* \"#utility.yul\":670:682   */\n      revert\n        /* \"#utility.yul\":621:684   */\n    tag_298:\n        /* \"#utility.yul\":568:690   */\n      pop\n      jump\t// out\n        /* \"#utility.yul\":696:835   */\n    tag_249:\n        /* \"#utility.yul\":742:747   */\n      0x00\n        /* \"#utility.yul\":780:786   */\n      dup2\n        /* \"#utility.yul\":767:787   */\n      calldataload\n        /* \"#utility.yul\":758:787   */\n      swap1\n      pop\n        /* \"#utility.yul\":796:829   */\n      tag_300\n        /* \"#utility.yul\":823:828   */\n      dup2\n        /* \"#utility.yul\":796:829   */\n      tag_248\n      jump\t// in\n    tag_300:\n        /* \"#utility.yul\":696:835   */\n      swap3\n      swap2\n      pop\n      pop\n      jump\t// out\n        /* \"#utility.yul\":841:1170   */\n    tag_18:\n        /* \"#utility.yul\":900:906   */\n      0x00\n        /* \"#utility.yul\":949:951   */\n      0x20\n        /* \"#utility.yul\":937:946   */\n      dup3\n        /* \"#utility.yul\":928:935   */\n      dup5\n        /* \"#utility.yul\":924:947   */\n      sub\n        /* \"#utility.yul\":920:952   */\n      slt\n        /* \"#utility.yul\":917:1036   */\n      iszero\n      tag_302\n      jumpi\n        /* \"#utility.yul\":955:1034   */\n      tag_303\n      tag_244\n      jump\t// in\n    tag_303:\n        /* \"#utility.yul\":917:1036   */\n    tag_302:\n        /* \"#utility.yul\":1075:1076   */\n      0x00\n        /* \"#utility.yul\":1100:1153   */\n      tag_304\n        /* \"#utility.yul\":1145:1152   */\n      dup5\n        /* \"#utility.yul\":1136:1142   */\n      dup3\n        /* \"#utility.yul\":1125:1134   */\n      dup6\n        /* \"#utility.yul\":1121:1143   */\n      add\n        /* \"#utility.yul\":1100:1153   */\n      tag_249\n      jump\t// in\n    tag_304:\n        /* \"#utility.yul\":1090:1153   */\n      swap2\n      pop\n        /* \"#utility.yul\":1046:1163   */\n      pop\n        /* \"#utility.yul\":841:1170   */\n      swap3\n      swap2\n      pop\n      pop\n      jump\t// out\n        /* \"#utility.yul\":1176:1266   */\n    tag_250:\n        /* \"#utility.yul\":1210:1217   */\n      0x00\n        /* \"#utility.yul\":1253:1258   */\n      dup2\n        /* \"#utility.yul\":1246:1259   */\n      iszero\n        /* \"#utility.yul\":1239:1260   */\n      iszero\n        /* \"#utility.yul\":1228:1260   */\n      swap1\n      pop\n        /* \"#utility.yul\":1176:1266   */\n      swap2\n      swap1\n      pop\n      jump\t// out\n        /* \"#utility.yul\":1272:1381   */\n    tag_251:\n        /* \"#utility.yul\":1353:1374   */\n      tag_307\n        /* \"#utility.yul\":1368:1373   */\n      dup2\n        /* \"#utility.yul\":1353:1374   */\n      tag_250\n      jump\t// in\n    tag_307:\n        /* \"#utility.yul\":1348:1351   */\n      dup3\n        /* \"#utility.yul\":1341:1375   */\n      mstore\n        /* \"#utility.yul\":1272:1381   */\n      pop\n      pop\n      jump\t// out\n        /* \"#utility.yul\":1387:1597   */\n    tag_21:\n        /* \"#utility.yul\":1474:1478   */\n      0x00\n        /* \"#utility.yul\":1512:1514   */\n      0x20\n        /* \"#utility.yul\":1501:1510   */\n      dup3\n        /* \"#utility.yul\":1497:1515   */\n      add\n        /* \"#utility.yul\":1489:1515   */\n      swap1\n      pop\n        /* \"#utility.yul\":1525:1590   */\n      tag_309\n        /* \"#utility.yul\":1587:1588   */\n      0x00\n        /* \"#utility.yul\":1576:1585   */\n      dup4\n        /* \"#utility.yul\":1572:1589   */\n      add\n        /* \"#utility.yul\":1563:1569   */\n      dup5\n        /* \"#utility.yul\":1525:1590   */\n      tag_251\n      jump\t// in\n    tag_309:\n        /* \"#utility.yul\":1387:1597   */\n      swap3\n      swap2\n      pop\n      pop\n      jump\t// out\n        /* \"#utility.yul\":1603:1720   */\n    tag_252:\n        /* \"#utility.yul\":1712:1713   */\n      0x00\n        /* \"#utility.yul\":1709:1710   */\n      dup1\n        /* \"#utility.yul\":1702:1714   */\n      revert\n        /* \"#utility.yul\":1726:1843   */\n    tag_253:\n        /* \"#utility.yul\":1835:1836   */\n      0x00\n        /* \"#utility.yul\":1832:1833   */\n      dup1\n        /* \"#utility.yul\":1825:1837   */\n      revert\n        /* \"#utility.yul\":1849:1951   */\n    tag_254:\n        /* \"#utility.yul\":1890:1896   */\n      0x00\n        /* \"#utility.yul\":1941:1943   */\n      0x1f\n        /* \"#utility.yul\":1937:1944   */\n      not\n        /* \"#utility.yul\":1932:1934   */\n      0x1f\n        /* \"#utility.yul\":1925:1930   */\n      dup4\n        /* \"#utility.yul\":1921:1935   */\n      add\n        /* \"#utility.yul\":1917:1945   */\n      and\n        /* \"#utility.yul\":1907:1945   */\n      swap1\n      pop\n        /* \"#utility.yul\":1849:1951   */\n      swap2\n      swap1\n      pop\n      jump\t// out\n        /* \"#utility.yul\":1957:2137   */\n    tag_204:\n        /* \"#utility.yul\":2005:2082   */\n      0x4e487b7100000000000000000000000000000000000000000000000000000000\n        /* \"#utility.yul\":2002:2003   */\n      0x00\n        /* \"#utility.yul\":1995:2083   */\n      mstore\n        /* \"#utility.yul\":2102:2106   */\n      0x41\n        /* \"#utility.yul\":2099:2100   */\n      0x04\n        /* \"#utility.yul\":2092:2107   */\n      mstore\n        /* \"#utility.yul\":2126:2130   */\n      0x24\n        /* \"#utility.yul\":2123:2124   */\n      0x00\n        /* \"#utility.yul\":2116:2131   */\n      revert\n        /* \"#utility.yul\":2143:2424   */\n    tag_255:\n        /* \"#utility.yul\":2226:2253   */\n      tag_315\n        /* \"#utility.yul\":2248:2252   */\n      dup3\n        /* \"#utility.yul\":2226:2253   */\n      tag_254\n      jump\t// in\n    tag_315:\n        /* \"#utility.yul\":2218:2224   */\n      dup2\n        /* \"#utility.yul\":2214:2254   */\n      add\n        /* \"#utility.yul\":2356:2362   */\n      dup2\n        /* \"#utility.yul\":2344:2354   */\n      dup2\n        /* \"#utility.yul\":2341:2363   */\n      lt\n        /* \"#utility.yul\":2320:2338   */\n      0xffffffffffffffff\n        /* \"#utility.yul\":2308:2318   */\n      dup3\n        /* \"#utility.yul\":2305:2339   */\n      gt\n        /* \"#utility.yul\":2302:2364   */\n      or\n        /* \"#utility.yul\":2299:2387   */\n      iszero\n      tag_316\n      jumpi\n        /* \"#utility.yul\":2367:2385   */\n      tag_317\n      tag_204\n      jump\t// in\n    tag_317:\n        /* \"#utility.yul\":2299:2387   */\n    tag_316:\n        /* \"#utility.yul\":2407:2417   */\n      dup1\n        /* \"#utility.yul\":2403:2405   */\n      0x40\n        /* \"#utility.yul\":2396:2418   */\n      mstore\n        /* \"#utility.yul\":2186:2424   */\n      pop\n        /* \"#utility.yul\":2143:2424   */\n      pop\n      pop\n      jump\t// out\n        /* \"#utility.yul\":2430:2559   */\n    tag_256:\n        /* \"#utility.yul\":2464:2470   */\n      0x00\n        /* \"#utility.yul\":2491:2511   */\n      tag_319\n      tag_243\n      jump\t// in\n    tag_319:\n        /* \"#utility.yul\":2481:2511   */\n      swap1\n      pop\n        /* \"#utility.yul\":2520:2553   */\n      tag_320\n        /* \"#utility.yul\":2548:2552   */\n      dup3\n        /* \"#utility.yul\":2540:2546   */\n      dup3\n        /* \"#utility.yul\":2520:2553   */\n      tag_255\n      jump\t// in\n    tag_320:\n        /* \"#utility.yul\":2430:2559   */\n      swap2\n      swap1\n      pop\n      jump\t// out\n        /* \"#utility.yul\":2565:2873   */\n    tag_257:\n        /* \"#utility.yul\":2627:2631   */\n      0x00\n        /* \"#utility.yul\":2717:2735   */\n      0xffffffffffffffff\n        /* \"#utility.yul\":2709:2715   */\n      dup3\n        /* \"#utility.yul\":2706:2736   */\n      gt\n        /* \"#utility.yul\":2703:2759   */\n      iszero\n      tag_322\n      jumpi\n        /* \"#utility.yul\":2739:2757   */\n      tag_323\n      tag_204\n      jump\t// in\n    tag_323:\n        /* \"#utility.yul\":2703:2759   */\n    tag_322:\n        /* \"#utility.yul\":2777:2806   */\n      tag_324\n        /* \"#utility.yul\":2799:2805   */\n      dup3\n        /* \"#utility.yul\":2777:2806   */\n      tag_254\n      jump\t// in\n    tag_324:\n        /* \"#utility.yul\":2769:2806   */\n      swap1\n      pop\n        /* \"#utility.yul\":2861:2865   */\n      0x20\n        /* \"#utility.yul\":2855:2859   */\n      dup2\n        /* \"#utility.yul\":2851:2866   */\n      add\n        /* \"#utility.yul\":2843:2866   */\n      swap1\n      pop\n        /* \"#utility.yul\":2565:2873   */\n      swap2\n      swap1\n      pop\n      jump\t// out\n        /* \"#utility.yul\":2879:3027   */\n    tag_258:\n        /* \"#utility.yul\":2977:2983   */\n      dup3\n        /* \"#utility.yul\":2972:2975   */\n      dup2\n        /* \"#utility.yul\":2967:2970   */\n      dup4\n        /* \"#utility.yul\":2954:2984   */\n      calldatacopy\n        /* \"#utility.yul\":3018:3019   */\n      0x00\n        /* \"#utility.yul\":3009:3015   */\n      dup4\n        /* \"#utility.yul\":3004:3007   */\n      dup4\n        /* \"#utility.yul\":3000:3016   */\n      add\n        /* \"#utility.yul\":2993:3020   */\n      mstore\n        /* \"#utility.yul\":2879:3027   */\n      pop\n      pop\n      pop\n      jump\t// out\n        /* \"#utility.yul\":3033:3458   */\n    tag_259:\n        /* \"#utility.yul\":3111:3116   */\n      0x00\n        /* \"#utility.yul\":3136:3202   */\n      tag_327\n        /* \"#utility.yul\":3152:3201   */\n      tag_328\n        /* \"#utility.yul\":3194:3200   */\n      dup5\n        /* \"#utility.yul\":3152:3201   */\n      tag_257\n      jump\t// in\n    tag_328:\n        /* \"#utility.yul\":3136:3202   */\n      tag_256\n      jump\t// in\n    tag_327:\n        /* \"#utility.yul\":3127:3202   */\n      swap1\n      pop\n        /* \"#utility.yul\":3225:3231   */\n      dup3\n        /* \"#utility.yul\":3218:3223   */\n      dup2\n        /* \"#utility.yul\":3211:3232   */\n      mstore\n        /* \"#utility.yul\":3263:3267   */\n      0x20\n        /* \"#utility.yul\":3256:3261   */\n      dup2\n        /* \"#utility.yul\":3252:3268   */\n      add\n        /* \"#utility.yul\":3301:3304   */\n      dup5\n        /* \"#utility.yul\":3292:3298   */\n      dup5\n        /* \"#utility.yul\":3287:3290   */\n      dup5\n        /* \"#utility.yul\":3283:3299   */\n      add\n        /* \"#utility.yul\":3280:3305   */\n      gt\n        /* \"#utility.yul\":3277:3389   */\n      iszero\n      tag_329\n      jumpi\n        /* \"#utility.yul\":3308:3387   */\n      tag_330\n      tag_253\n      jump\t// in\n    tag_330:\n        /* \"#utility.yul\":3277:3389   */\n    tag_329:\n        /* \"#utility.yul\":3398:3452   */\n      tag_331\n        /* \"#utility.yul\":3445:3451   */\n      dup5\n        /* \"#utility.yul\":3440:3443   */\n      dup3\n        /* \"#utility.yul\":3435:3438   */\n      dup6\n        /* \"#utility.yul\":3398:3452   */\n      tag_258\n      jump\t// in\n    tag_331:\n        /* \"#utility.yul\":3117:3458   */\n      pop\n        /* \"#utility.yul\":3033:3458   */\n      swap4\n      swap3\n      pop\n      pop\n      pop\n      jump\t// out\n        /* \"#utility.yul\":3478:3818   */\n    tag_260:\n        /* \"#utility.yul\":3534:3539   */\n      0x00\n        /* \"#utility.yul\":3583:3586   */\n      dup3\n        /* \"#utility.yul\":3576:3580   */\n      0x1f\n        /* \"#utility.yul\":3568:3574   */\n      dup4\n        /* \"#utility.yul\":3564:3581   */\n      add\n        /* \"#utility.yul\":3560:3587   */\n      slt\n        /* \"#utility.yul\":3550:3672   */\n      tag_333\n      jumpi\n        /* \"#utility.yul\":3591:3670   */\n      tag_334\n      tag_252\n      jump\t// in\n    tag_334:\n        /* \"#utility.yul\":3550:3672   */\n    tag_333:\n        /* \"#utility.yul\":3708:3714   */\n      dup2\n        /* \"#utility.yul\":3695:3715   */\n      calldataload\n        /* \"#utility.yul\":3733:3812   */\n      tag_335\n        /* \"#utility.yul\":3808:3811   */\n      dup5\n        /* \"#utility.yul\":3800:3806   */\n      dup3\n        /* \"#utility.yul\":3793:3797   */\n      0x20\n        /* \"#utility.yul\":3785:3791   */\n      dup7\n        /* \"#utility.yul\":3781:3798   */\n      add\n        /* \"#utility.yul\":3733:3812   */\n      tag_259\n      jump\t// in\n    tag_335:\n        /* \"#utility.yul\":3724:3812   */\n      swap2\n      pop\n        /* \"#utility.yul\":3540:3818   */\n      pop\n        /* \"#utility.yul\":3478:3818   */\n      swap3\n      swap2\n      pop\n      pop\n      jump\t// out\n        /* \"#utility.yul\":3824:3901   */\n    tag_261:\n        /* \"#utility.yul\":3861:3868   */\n      0x00\n        /* \"#utility.yul\":3890:3895   */\n      dup2\n        /* \"#utility.yul\":3879:3895   */\n      swap1\n      pop\n        /* \"#utility.yul\":3824:3901   */\n      swap2\n      swap1\n      pop\n      jump\t// out\n        /* \"#utility.yul\":3907:4029   */\n    tag_262:\n        /* \"#utility.yul\":3980:4004   */\n      tag_338\n        /* \"#utility.yul\":3998:4003   */\n      dup2\n        /* \"#utility.yul\":3980:4004   */\n      tag_261\n      jump\t// in\n    tag_338:\n        /* \"#utility.yul\":3973:3978   */\n      dup2\n        /* \"#utility.yul\":3970:4005   */\n      eq\n        /* \"#utility.yul\":3960:4023   */\n      tag_339\n      jumpi\n        /* \"#utility.yul\":4019:4020   */\n      0x00\n        /* \"#utility.yul\":4016:4017   */\n      dup1\n        /* \"#utility.yul\":4009:4021   */\n      revert\n        /* \"#utility.yul\":3960:4023   */\n    tag_339:\n        /* \"#utility.yul\":3907:4029   */\n      pop\n      jump\t// out\n        /* \"#utility.yul\":4035:4174   */\n    tag_263:\n        /* \"#utility.yul\":4081:4086   */\n      0x00\n        /* \"#utility.yul\":4119:4125   */\n      dup2\n        /* \"#utility.yul\":4106:4126   */\n      calldataload\n        /* \"#utility.yul\":4097:4126   */\n      swap1\n      pop\n        /* \"#utility.yul\":4135:4168   */\n      tag_341\n        /* \"#utility.yul\":4162:4167   */\n      dup2\n        /* \"#utility.yul\":4135:4168   */\n      tag_262\n      jump\t// in\n    tag_341:\n        /* \"#utility.yul\":4035:4174   */\n      swap3\n      swap2\n      pop\n      pop\n      jump\t// out\n        /* \"#utility.yul\":4180:4834   */\n    tag_25:\n        /* \"#utility.yul\":4258:4264   */\n      0x00\n        /* \"#utility.yul\":4266:4272   */\n      dup1\n        /* \"#utility.yul\":4315:4317   */\n      0x40\n        /* \"#utility.yul\":4303:4312   */\n      dup4\n        /* \"#utility.yul\":4294:4301   */\n      dup6\n        /* \"#utility.yul\":4290:4313   */\n      sub\n        /* \"#utility.yul\":4286:4318   */\n      slt\n        /* \"#utility.yul\":4283:4402   */\n      iszero\n      tag_343\n      jumpi\n        /* \"#utility.yul\":4321:4400   */\n      tag_344\n      tag_244\n      jump\t// in\n    tag_344:\n        /* \"#utility.yul\":4283:4402   */\n    tag_343:\n        /* \"#utility.yul\":4469:4470   */\n      0x00\n        /* \"#utility.yul\":4458:4467   */\n      dup4\n        /* \"#utility.yul\":4454:4471   */\n      add\n        /* \"#utility.yul\":4441:4472   */\n      calldataload\n        /* \"#utility.yul\":4499:4517   */\n      0xffffffffffffffff\n        /* \"#utility.yul\":4491:4497   */\n      dup2\n        /* \"#utility.yul\":4488:4518   */\n      gt\n        /* \"#utility.yul\":4485:4602   */\n      iszero\n      tag_345\n      jumpi\n        /* \"#utility.yul\":4521:4600   */\n      tag_346\n      tag_245\n      jump\t// in\n    tag_346:\n        /* \"#utility.yul\":4485:4602   */\n    tag_345:\n        /* \"#utility.yul\":4626:4689   */\n      tag_347\n        /* \"#utility.yul\":4681:4688   */\n      dup6\n        /* \"#utility.yul\":4672:4678   */\n      dup3\n        /* \"#utility.yul\":4661:4670   */\n      dup7\n        /* \"#utility.yul\":4657:4679   */\n      add\n        /* \"#utility.yul\":4626:4689   */\n      tag_260\n      jump\t// in\n    tag_347:\n        /* \"#utility.yul\":4616:4689   */\n      swap3\n      pop\n        /* \"#utility.yul\":4412:4699   */\n      pop\n        /* \"#utility.yul\":4738:4740   */\n      0x20\n        /* \"#utility.yul\":4764:4817   */\n      tag_348\n        /* \"#utility.yul\":4809:4816   */\n      dup6\n        /* \"#utility.yul\":4800:4806   */\n      dup3\n        /* \"#utility.yul\":4789:4798   */\n      dup7\n        /* \"#utility.yul\":4785:4807   */\n      add\n        /* \"#utility.yul\":4764:4817   */\n      tag_263\n      jump\t// in\n    tag_348:\n        /* \"#utility.yul\":4754:4817   */\n      swap2\n      pop\n        /* \"#utility.yul\":4709:4827   */\n      pop\n        /* \"#utility.yul\":4180:4834   */\n      swap3\n      pop\n      swap3\n      swap1\n      pop\n      jump\t// out\n        /* \"#utility.yul\":4840:4958   */\n    tag_264:\n        /* \"#utility.yul\":4927:4951   */\n      tag_350\n        /* \"#utility.yul\":4945:4950   */\n      dup2\n        /* \"#utility.yul\":4927:4951   */\n      tag_247\n      jump\t// in\n    tag_350:\n        /* \"#utility.yul\":4922:4925   */\n      dup3\n        /* \"#utility.yul\":4915:4952   */\n      mstore\n        /* \"#utility.yul\":4840:4958   */\n      pop\n      pop\n      jump\t// out\n        /* \"#utility.yul\":4964:5186   */\n    tag_31:\n        /* \"#utility.yul\":5057:5061   */\n      0x00\n        /* \"#utility.yul\":5095:5097   */\n      0x20\n        /* \"#utility.yul\":5084:5093   */\n      dup3\n        /* \"#utility.yul\":5080:5098   */\n      add\n        /* \"#utility.yul\":5072:5098   */\n      swap1\n      pop\n        /* \"#utility.yul\":5108:5179   */\n      tag_352\n        /* \"#utility.yul\":5176:5177   */\n      0x00\n        /* \"#utility.yul\":5165:5174   */\n      dup4\n        /* \"#utility.yul\":5161:5178   */\n      add\n        /* \"#utility.yul\":5152:5158   */\n      dup5\n        /* \"#utility.yul\":5108:5179   */\n      tag_264\n      jump\t// in\n    tag_352:\n        /* \"#utility.yul\":4964:5186   */\n      swap3\n      swap2\n      pop\n      pop\n      jump\t// out\n        /* \"#utility.yul\":5192:5846   */\n    tag_35:\n        /* \"#utility.yul\":5270:5276   */\n      0x00\n        /* \"#utility.yul\":5278:5284   */\n      dup1\n        /* \"#utility.yul\":5327:5329   */\n      0x40\n        /* \"#utility.yul\":5315:5324   */\n      dup4\n        /* \"#utility.yul\":5306:5313   */\n      dup6\n        /* \"#utility.yul\":5302:5325   */\n      sub\n        /* \"#utility.yul\":5298:5330   */\n      slt\n        /* \"#utility.yul\":5295:5414   */\n      iszero\n      tag_354\n      jumpi\n        /* \"#utility.yul\":5333:5412   */\n      tag_355\n      tag_244\n      jump\t// in\n    tag_355:\n        /* \"#utility.yul\":5295:5414   */\n    tag_354:\n        /* \"#utility.yul\":5481:5482   */\n      0x00\n        /* \"#utility.yul\":5470:5479   */\n      dup4\n        /* \"#utility.yul\":5466:5483   */\n      add\n        /* \"#utility.yul\":5453:5484   */\n      calldataload\n        /* \"#utility.yul\":5511:5529   */\n      0xffffffffffffffff\n        /* \"#utility.yul\":5503:5509   */\n      dup2\n        /* \"#utility.yul\":5500:5530   */\n      gt\n        /* \"#utility.yul\":5497:5614   */\n      iszero\n      tag_356\n      jumpi\n        /* \"#utility.yul\":5533:5612   */\n      tag_357\n      tag_245\n      jump\t// in\n    tag_357:\n        /* \"#utility.yul\":5497:5614   */\n    tag_356:\n        /* \"#utility.yul\":5638:5701   */\n      tag_358\n        /* \"#utility.yul\":5693:5700   */\n      dup6\n        /* \"#utility.yul\":5684:5690   */\n      dup3\n        /* \"#utility.yul\":5673:5682   */\n      dup7\n        /* \"#utility.yul\":5669:5691   */\n      add\n        /* \"#utility.yul\":5638:5701   */\n      tag_260\n      jump\t// in\n    tag_358:\n        /* \"#utility.yul\":5628:5701   */\n      swap3\n      pop\n        /* \"#utility.yul\":5424:5711   */\n      pop\n        /* \"#utility.yul\":5750:5752   */\n      0x20\n        /* \"#utility.yul\":5776:5829   */\n      tag_359\n        /* \"#utility.yul\":5821:5828   */\n      dup6\n        /* \"#utility.yul\":5812:5818   */\n      dup3\n        /* \"#utility.yul\":5801:5810   */\n      dup7\n        /* \"#utility.yul\":5797:5819   */\n      add\n        /* \"#utility.yul\":5776:5829   */\n      tag_249\n      jump\t// in\n    tag_359:\n        /* \"#utility.yul\":5766:5829   */\n      swap2\n      pop\n        /* \"#utility.yul\":5721:5839   */\n      pop\n        /* \"#utility.yul\":5192:5846   */\n      swap3\n      pop\n      swap3\n      swap1\n      pop\n      jump\t// out\n        /* \"#utility.yul\":5852:5970   */\n    tag_265:\n        /* \"#utility.yul\":5939:5963   */\n      tag_361\n        /* \"#utility.yul\":5957:5962   */\n      dup2\n        /* \"#utility.yul\":5939:5963   */\n      tag_261\n      jump\t// in\n    tag_361:\n        /* \"#utility.yul\":5934:5937   */\n      dup3\n        /* \"#utility.yul\":5927:5964   */\n      mstore\n        /* \"#utility.yul\":5852:5970   */\n      pop\n      pop\n      jump\t// out\n        /* \"#utility.yul\":5976:6198   */\n    tag_38:\n        /* \"#utility.yul\":6069:6073   */\n      0x00\n        /* \"#utility.yul\":6107:6109   */\n      0x20\n        /* \"#utility.yul\":6096:6105   */\n      dup3\n        /* \"#utility.yul\":6092:6110   */\n      add\n        /* \"#utility.yul\":6084:6110   */\n      swap1\n      pop\n        /* \"#utility.yul\":6120:6191   */\n      tag_363\n        /* \"#utility.yul\":6188:6189   */\n      0x00\n        /* \"#utility.yul\":6177:6186   */\n      dup4\n        /* \"#utility.yul\":6173:6190   */\n      add\n        /* \"#utility.yul\":6164:6170   */\n      dup5\n        /* \"#utility.yul\":6120:6191   */\n      tag_265\n      jump\t// in\n    tag_363:\n        /* \"#utility.yul\":5976:6198   */\n      swap3\n      swap2\n      pop\n      pop\n      jump\t// out\n        /* \"#utility.yul\":6204:7329   */\n    tag_42:\n        /* \"#utility.yul\":6310:6316   */\n      0x00\n        /* \"#utility.yul\":6318:6324   */\n      dup1\n        /* \"#utility.yul\":6326:6332   */\n      0x00\n        /* \"#utility.yul\":6334:6340   */\n      dup1\n        /* \"#utility.yul\":6383:6386   */\n      0x80\n        /* \"#utility.yul\":6371:6380   */\n      dup6\n        /* \"#utility.yul\":6362:6369   */\n      dup8\n        /* \"#utility.yul\":6358:6381   */\n      sub\n        /* \"#utility.yul\":6354:6387   */\n      slt\n        /* \"#utility.yul\":6351:6471   */\n      iszero\n      tag_365\n      jumpi\n        /* \"#utility.yul\":6390:6469   */\n      tag_366\n      tag_244\n      jump\t// in\n    tag_366:\n        /* \"#utility.yul\":6351:6471   */\n    tag_365:\n        /* \"#utility.yul\":6538:6539   */\n      0x00\n        /* \"#utility.yul\":6527:6536   */\n      dup6\n        /* \"#utility.yul\":6523:6540   */\n      add\n        /* \"#utility.yul\":6510:6541   */\n      calldataload\n        /* \"#utility.yul\":6568:6586   */\n      0xffffffffffffffff\n        /* \"#utility.yul\":6560:6566   */\n      dup2\n        /* \"#utility.yul\":6557:6587   */\n      gt\n        /* \"#utility.yul\":6554:6671   */\n      iszero\n      tag_367\n      jumpi\n        /* \"#utility.yul\":6590:6669   */\n      tag_368\n      tag_245\n      jump\t// in\n    tag_368:\n        /* \"#utility.yul\":6554:6671   */\n    tag_367:\n        /* \"#utility.yul\":6695:6758   */\n      tag_369\n        /* \"#utility.yul\":6750:6757   */\n      dup8\n        /* \"#utility.yul\":6741:6747   */\n      dup3\n        /* \"#utility.yul\":6730:6739   */\n      dup9\n        /* \"#utility.yul\":6726:6748   */\n      add\n        /* \"#utility.yul\":6695:6758   */\n      tag_260\n      jump\t// in\n    tag_369:\n        /* \"#utility.yul\":6685:6758   */\n      swap5\n      pop\n        /* \"#utility.yul\":6481:6768   */\n      pop\n        /* \"#utility.yul\":6835:6837   */\n      0x20\n        /* \"#utility.yul\":6824:6833   */\n      dup6\n        /* \"#utility.yul\":6820:6838   */\n      add\n        /* \"#utility.yul\":6807:6839   */\n      calldataload\n        /* \"#utility.yul\":6866:6884   */\n      0xffffffffffffffff\n        /* \"#utility.yul\":6858:6864   */\n      dup2\n        /* \"#utility.yul\":6855:6885   */\n      gt\n        /* \"#utility.yul\":6852:6969   */\n      iszero\n      tag_370\n      jumpi\n        /* \"#utility.yul\":6888:6967   */\n      tag_371\n      tag_245\n      jump\t// in\n    tag_371:\n        /* \"#utility.yul\":6852:6969   */\n    tag_370:\n        /* \"#utility.yul\":6993:7056   */\n      tag_372\n        /* \"#utility.yul\":7048:7055   */\n      dup8\n        /* \"#utility.yul\":7039:7045   */\n      dup3\n        /* \"#utility.yul\":7028:7037   */\n      dup9\n        /* \"#utility.yul\":7024:7046   */\n      add\n        /* \"#utility.yul\":6993:7056   */\n      tag_260\n      jump\t// in\n    tag_372:\n        /* \"#utility.yul\":6983:7056   */\n      swap4\n      pop\n        /* \"#utility.yul\":6778:7066   */\n      pop\n        /* \"#utility.yul\":7105:7107   */\n      0x40\n        /* \"#utility.yul\":7131:7184   */\n      tag_373\n        /* \"#utility.yul\":7176:7183   */\n      dup8\n        /* \"#utility.yul\":7167:7173   */\n      dup3\n        /* \"#utility.yul\":7156:7165   */\n      dup9\n        /* \"#utility.yul\":7152:7174   */\n      add\n        /* \"#utility.yul\":7131:7184   */\n      tag_249\n      jump\t// in\n    tag_373:\n        /* \"#utility.yul\":7121:7184   */\n      swap3\n      pop\n        /* \"#utility.yul\":7076:7194   */\n      pop\n        /* \"#utility.yul\":7233:7235   */\n      0x60\n        /* \"#utility.yul\":7259:7312   */\n      tag_374\n        /* \"#utility.yul\":7304:7311   */\n      dup8\n        /* \"#utility.yul\":7295:7301   */\n      dup3\n        /* \"#utility.yul\":7284:7293   */\n      dup9\n        /* \"#utility.yul\":7280:7302   */\n      add\n        /* \"#utility.yul\":7259:7312   */\n      tag_263\n      jump\t// in\n    tag_374:\n        /* \"#utility.yul\":7249:7312   */\n      swap2\n      pop\n        /* \"#utility.yul\":7204:7322   */\n      pop\n        /* \"#utility.yul\":6204:7329   */\n      swap3\n      swap6\n      swap2\n      swap5\n      pop\n      swap3\n      pop\n      jump\t// out\n        /* \"#utility.yul\":7335:7844   */\n    tag_47:\n        /* \"#utility.yul\":7404:7410   */\n      0x00\n        /* \"#utility.yul\":7453:7455   */\n      0x20\n        /* \"#utility.yul\":7441:7450   */\n      dup3\n        /* \"#utility.yul\":7432:7439   */\n      dup5\n        /* \"#utility.yul\":7428:7451   */\n      sub\n        /* \"#utility.yul\":7424:7456   */\n      slt\n        /* \"#utility.yul\":7421:7540   */\n      iszero\n      tag_376\n      jumpi\n        /* \"#utility.yul\":7459:7538   */\n      tag_377\n      tag_244\n      jump\t// in\n    tag_377:\n        /* \"#utility.yul\":7421:7540   */\n    tag_376:\n        /* \"#utility.yul\":7607:7608   */\n      0x00\n        /* \"#utility.yul\":7596:7605   */\n      dup3\n        /* \"#utility.yul\":7592:7609   */\n      add\n        /* \"#utility.yul\":7579:7610   */\n      calldataload\n        /* \"#utility.yul\":7637:7655   */\n      0xffffffffffffffff\n        /* \"#utility.yul\":7629:7635   */\n      dup2\n        /* \"#utility.yul\":7626:7656   */\n      gt\n        /* \"#utility.yul\":7623:7740   */\n      iszero\n      tag_378\n      jumpi\n        /* \"#utility.yul\":7659:7738   */\n      tag_379\n      tag_245\n      jump\t// in\n    tag_379:\n        /* \"#utility.yul\":7623:7740   */\n    tag_378:\n        /* \"#utility.yul\":7764:7827   */\n      tag_380\n        /* \"#utility.yul\":7819:7826   */\n      dup5\n        /* \"#utility.yul\":7810:7816   */\n      dup3\n        /* \"#utility.yul\":7799:7808   */\n      dup6\n        /* \"#utility.yul\":7795:7817   */\n      add\n        /* \"#utility.yul\":7764:7827   */\n      tag_260\n      jump\t// in\n    tag_380:\n        /* \"#utility.yul\":7754:7827   */\n      swap2\n      pop\n        /* \"#utility.yul\":7550:7837   */\n      pop\n        /* \"#utility.yul\":7335:7844   */\n      swap3\n      swap2\n      pop\n      pop\n      jump\t// out\n        /* \"#utility.yul\":7850:8324   */\n    tag_60:\n        /* \"#utility.yul\":7918:7924   */\n      0x00\n        /* \"#utility.yul\":7926:7932   */\n      dup1\n        /* \"#utility.yul\":7975:7977   */\n      0x40\n        /* \"#utility.yul\":7963:7972   */\n      dup4\n        /* \"#utility.yul\":7954:7961   */\n      dup6\n        /* \"#utility.yul\":7950:7973   */\n      sub\n        /* \"#utility.yul\":7946:7978   */\n      slt\n        /* \"#utility.yul\":7943:8062   */\n      iszero\n      tag_382\n      jumpi\n        /* \"#utility.yul\":7981:8060   */\n      tag_383\n      tag_244\n      jump\t// in\n    tag_383:\n        /* \"#utility.yul\":7943:8062   */\n    tag_382:\n        /* \"#utility.yul\":8101:8102   */\n      0x00\n        /* \"#utility.yul\":8126:8179   */\n      tag_384\n        /* \"#utility.yul\":8171:8178   */\n      dup6\n        /* \"#utility.yul\":8162:8168   */\n      dup3\n        /* \"#utility.yul\":8151:8160   */\n      dup7\n        /* \"#utility.yul\":8147:8169   */\n      add\n        /* \"#utility.yul\":8126:8179   */\n      tag_249\n      jump\t// in\n    tag_384:\n        /* \"#utility.yul\":8116:8179   */\n      swap3\n      pop\n        /* \"#utility.yul\":8072:8189   */\n      pop\n        /* \"#utility.yul\":8228:8230   */\n      0x20\n        /* \"#utility.yul\":8254:8307   */\n      tag_385\n        /* \"#utility.yul\":8299:8306   */\n      dup6\n        /* \"#utility.yul\":8290:8296   */\n      dup3\n        /* \"#utility.yul\":8279:8288   */\n      dup7\n        /* \"#utility.yul\":8275:8297   */\n      add\n        /* \"#utility.yul\":8254:8307   */\n      tag_263\n      jump\t// in\n    tag_385:\n        /* \"#utility.yul\":8244:8307   */\n      swap2\n      pop\n        /* \"#utility.yul\":8199:8317   */\n      pop\n        /* \"#utility.yul\":7850:8324   */\n      swap3\n      pop\n      swap3\n      swap1\n      pop\n      jump\t// out\n        /* \"#utility.yul\":8330:9309   */\n    tag_71:\n        /* \"#utility.yul\":8427:8433   */\n      0x00\n        /* \"#utility.yul\":8435:8441   */\n      dup1\n        /* \"#utility.yul\":8443:8449   */\n      0x00\n        /* \"#utility.yul\":8492:8494   */\n      0x60\n        /* \"#utility.yul\":8480:8489   */\n      dup5\n        /* \"#utility.yul\":8471:8478   */\n      dup7\n        /* \"#utility.yul\":8467:8490   */\n      sub\n        /* \"#utility.yul\":8463:8495   */\n      slt\n        /* \"#utility.yul\":8460:8579   */\n      iszero\n      tag_387\n      jumpi\n        /* \"#utility.yul\":8498:8577   */\n      tag_388\n      tag_244\n      jump\t// in\n    tag_388:\n        /* \"#utility.yul\":8460:8579   */\n    tag_387:\n        /* \"#utility.yul\":8646:8647   */\n      0x00\n        /* \"#utility.yul\":8635:8644   */\n      dup5\n        /* \"#utility.yul\":8631:8648   */\n      add\n        /* \"#utility.yul\":8618:8649   */\n      calldataload\n        /* \"#utility.yul\":8676:8694   */\n      0xffffffffffffffff\n        /* \"#utility.yul\":8668:8674   */\n      dup2\n        /* \"#utility.yul\":8665:8695   */\n      gt\n        /* \"#utility.yul\":8662:8779   */\n      iszero\n      tag_389\n      jumpi\n        /* \"#utility.yul\":8698:8777   */\n      tag_390\n      tag_245\n      jump\t// in\n    tag_390:\n        /* \"#utility.yul\":8662:8779   */\n    tag_389:\n        /* \"#utility.yul\":8803:8866   */\n      tag_391\n        /* \"#utility.yul\":8858:8865   */\n      dup7\n        /* \"#utility.yul\":8849:8855   */\n      dup3\n        /* \"#utility.yul\":8838:8847   */\n      dup8\n        /* \"#utility.yul\":8834:8856   */\n      add\n        /* \"#utility.yul\":8803:8866   */\n      tag_260\n      jump\t// in\n    tag_391:\n        /* \"#utility.yul\":8793:8866   */\n      swap4\n      pop\n        /* \"#utility.yul\":8589:8876   */\n      pop\n        /* \"#utility.yul\":8943:8945   */\n      0x20\n        /* \"#utility.yul\":8932:8941   */\n      dup5\n        /* \"#utility.yul\":8928:8946   */\n      add\n        /* \"#utility.yul\":8915:8947   */\n      calldataload\n        /* \"#utility.yul\":8974:8992   */\n      0xffffffffffffffff\n        /* \"#utility.yul\":8966:8972   */\n      dup2\n        /* \"#utility.yul\":8963:8993   */\n      gt\n        /* \"#utility.yul\":8960:9077   */\n      iszero\n      tag_392\n      jumpi\n        /* \"#utility.yul\":8996:9075   */\n      tag_393\n      tag_245\n      jump\t// in\n    tag_393:\n        /* \"#utility.yul\":8960:9077   */\n    tag_392:\n        /* \"#utility.yul\":9101:9164   */\n      tag_394\n        /* \"#utility.yul\":9156:9163   */\n      dup7\n        /* \"#utility.yul\":9147:9153   */\n      dup3\n        /* \"#utility.yul\":9136:9145   */\n      dup8\n        /* \"#utility.yul\":9132:9154   */\n      add\n        /* \"#utility.yul\":9101:9164   */\n      tag_260\n      jump\t// in\n    tag_394:\n        /* \"#utility.yul\":9091:9164   */\n      swap3\n      pop\n        /* \"#utility.yul\":8886:9174   */\n      pop\n        /* \"#utility.yul\":9213:9215   */\n      0x40\n        /* \"#utility.yul\":9239:9292   */\n      tag_395\n        /* \"#utility.yul\":9284:9291   */\n      dup7\n        /* \"#utility.yul\":9275:9281   */\n      dup3\n        /* \"#utility.yul\":9264:9273   */\n      dup8\n        /* \"#utility.yul\":9260:9282   */\n      add\n        /* \"#utility.yul\":9239:9292   */\n      tag_263\n      jump\t// in\n    tag_395:\n        /* \"#utility.yul\":9229:9292   */\n      swap2\n      pop\n        /* \"#utility.yul\":9184:9302   */\n      pop\n        /* \"#utility.yul\":8330:9309   */\n      swap3\n      pop\n      swap3\n      pop\n      swap3\n      jump\t// out\n        /* \"#utility.yul\":9315:9484   */\n    tag_266:\n        /* \"#utility.yul\":9399:9410   */\n      0x00\n        /* \"#utility.yul\":9433:9439   */\n      dup3\n        /* \"#utility.yul\":9428:9431   */\n      dup3\n        /* \"#utility.yul\":9421:9440   */\n      mstore\n        /* \"#utility.yul\":9473:9477   */\n      0x20\n        /* \"#utility.yul\":9468:9471   */\n      dup3\n        /* \"#utility.yul\":9464:9478   */\n      add\n        /* \"#utility.yul\":9449:9478   */\n      swap1\n      pop\n        /* \"#utility.yul\":9315:9484   */\n      swap3\n      swap2\n      pop\n      pop\n      jump\t// out\n        /* \"#utility.yul\":9490:9659   */\n    tag_267:\n        /* \"#utility.yul\":9630:9651   */\n      0x55736572206e6f74207265676973746572656400000000000000000000000000\n        /* \"#utility.yul\":9626:9627   */\n      0x00\n        /* \"#utility.yul\":9618:9624   */\n      dup3\n        /* \"#utility.yul\":9614:9628   */\n      add\n        /* \"#utility.yul\":9607:9652   */\n      mstore\n        /* \"#utility.yul\":9490:9659   */\n      pop\n      jump\t// out\n        /* \"#utility.yul\":9665:10031   */\n    tag_268:\n        /* \"#utility.yul\":9807:9810   */\n      0x00\n        /* \"#utility.yul\":9828:9895   */\n      tag_399\n        /* \"#utility.yul\":9892:9894   */\n      0x13\n        /* \"#utility.yul\":9887:9890   */\n      dup4\n        /* \"#utility.yul\":9828:9895   */\n      tag_266\n      jump\t// in\n    tag_399:\n        /* \"#utility.yul\":9821:9895   */\n      swap2\n      pop\n        /* \"#utility.yul\":9904:9997   */\n      tag_400\n        /* \"#utility.yul\":9993:9996   */\n      dup3\n        /* \"#utility.yul\":9904:9997   */\n      tag_267\n      jump\t// in\n    tag_400:\n        /* \"#utility.yul\":10022:10024   */\n      0x20\n        /* \"#utility.yul\":10017:10020   */\n      dup3\n        /* \"#utility.yul\":10013:10025   */\n      add\n        /* \"#utility.yul\":10006:10025   */\n      swap1\n      pop\n        /* \"#utility.yul\":9665:10031   */\n      swap2\n      swap1\n      pop\n      jump\t// out\n        /* \"#utility.yul\":10037:10456   */\n    tag_80:\n        /* \"#utility.yul\":10203:10207   */\n      0x00\n        /* \"#utility.yul\":10241:10243   */\n      0x20\n        /* \"#utility.yul\":10230:10239   */\n      dup3\n        /* \"#utility.yul\":10226:10244   */\n      add\n        /* \"#utility.yul\":10218:10244   */\n      swap1\n      pop\n        /* \"#utility.yul\":10290:10299   */\n      dup2\n        /* \"#utility.yul\":10284:10288   */\n      dup2\n        /* \"#utility.yul\":10280:10300   */\n      sub\n        /* \"#utility.yul\":10276:10277   */\n      0x00\n        /* \"#utility.yul\":10265:10274   */\n      dup4\n        /* \"#utility.yul\":10261:10278   */\n      add\n        /* \"#utility.yul\":10254:10301   */\n      mstore\n        /* \"#utility.yul\":10318:10449   */\n      tag_402\n        /* \"#utility.yul\":10444:10448   */\n      dup2\n        /* \"#utility.yul\":10318:10449   */\n      tag_268\n      jump\t// in\n    tag_402:\n        /* \"#utility.yul\":10310:10449   */\n      swap1\n      pop\n        /* \"#utility.yul\":10037:10456   */\n      swap2\n      swap1\n      pop\n      jump\t// out\n        /* \"#utility.yul\":10462:10561   */\n    tag_269:\n        /* \"#utility.yul\":10514:10520   */\n      0x00\n        /* \"#utility.yul\":10548:10553   */\n      dup2\n        /* \"#utility.yul\":10542:10554   */\n      mload\n        /* \"#utility.yul\":10532:10554   */\n      swap1\n      pop\n        /* \"#utility.yul\":10462:10561   */\n      swap2\n      swap1\n      pop\n      jump\t// out\n        /* \"#utility.yul\":10567:10715   */\n    tag_270:\n        /* \"#utility.yul\":10669:10680   */\n      0x00\n        /* \"#utility.yul\":10706:10709   */\n      dup2\n        /* \"#utility.yul\":10691:10709   */\n      swap1\n      pop\n        /* \"#utility.yul\":10567:10715   */\n      swap3\n      swap2\n      pop\n      pop\n      jump\t// out\n        /* \"#utility.yul\":10721:10860   */\n    tag_271:\n        /* \"#utility.yul\":10810:10816   */\n      dup3\n        /* \"#utility.yul\":10805:10808   */\n      dup2\n        /* \"#utility.yul\":10800:10803   */\n      dup4\n        /* \"#utility.yul\":10794:10817   */\n      mcopy\n        /* \"#utility.yul\":10851:10852   */\n      0x00\n        /* \"#utility.yul\":10842:10848   */\n      dup4\n        /* \"#utility.yul\":10837:10840   */\n      dup4\n        /* \"#utility.yul\":10833:10849   */\n      add\n        /* \"#utility.yul\":10826:10853   */\n      mstore\n        /* \"#utility.yul\":10721:10860   */\n      pop\n      pop\n      pop\n      jump\t// out\n        /* \"#utility.yul\":10866:11256   */\n    tag_272:\n        /* \"#utility.yul\":10972:10975   */\n      0x00\n        /* \"#utility.yul\":11000:11039   */\n      tag_407\n        /* \"#utility.yul\":11033:11038   */\n      dup3\n        /* \"#utility.yul\":11000:11039   */\n      tag_269\n      jump\t// in\n    tag_407:\n        /* \"#utility.yul\":11055:11144   */\n      tag_408\n        /* \"#utility.yul\":11137:11143   */\n      dup2\n        /* \"#utility.yul\":11132:11135   */\n      dup6\n        /* \"#utility.yul\":11055:11144   */\n      tag_270\n      jump\t// in\n    tag_408:\n        /* \"#utility.yul\":11048:11144   */\n      swap4\n      pop\n        /* \"#utility.yul\":11153:11218   */\n      tag_409\n        /* \"#utility.yul\":11211:11217   */\n      dup2\n        /* \"#utility.yul\":11206:11209   */\n      dup6\n        /* \"#utility.yul\":11199:11203   */\n      0x20\n        /* \"#utility.yul\":11192:11197   */\n      dup7\n        /* \"#utility.yul\":11188:11204   */\n      add\n        /* \"#utility.yul\":11153:11218   */\n      tag_271\n      jump\t// in\n    tag_409:\n        /* \"#utility.yul\":11243:11249   */\n      dup1\n        /* \"#utility.yul\":11238:11241   */\n      dup5\n        /* \"#utility.yul\":11234:11250   */\n      add\n        /* \"#utility.yul\":11227:11250   */\n      swap2\n      pop\n        /* \"#utility.yul\":10976:11256   */\n      pop\n        /* \"#utility.yul\":10866:11256   */\n      swap3\n      swap2\n      pop\n      pop\n      jump\t// out\n        /* \"#utility.yul\":11262:11537   */\n    tag_82:\n        /* \"#utility.yul\":11394:11397   */\n      0x00\n        /* \"#utility.yul\":11416:11511   */\n      tag_411\n        /* \"#utility.yul\":11507:11510   */\n      dup3\n        /* \"#utility.yul\":11498:11504   */\n      dup5\n        /* \"#utility.yul\":11416:11511   */\n      tag_272\n      jump\t// in\n    tag_411:\n        /* \"#utility.yul\":11409:11511   */\n      swap2\n      pop\n        /* \"#utility.yul\":11528:11531   */\n      dup2\n        /* \"#utility.yul\":11521:11531   */\n      swap1\n      pop\n        /* \"#utility.yul\":11262:11537   */\n      swap3\n      swap2\n      pop\n      pop\n      jump\t// out\n        /* \"#utility.yul\":11543:11712   */\n    tag_273:\n        /* \"#utility.yul\":11683:11704   */\n      0x42616e6b20646f6573206e6f7420657869737400000000000000000000000000\n        /* \"#utility.yul\":11679:11680   */\n      0x00\n        /* \"#utility.yul\":11671:11677   */\n      dup3\n        /* \"#utility.yul\":11667:11681   */\n      add\n        /* \"#utility.yul\":11660:11705   */\n      mstore\n        /* \"#utility.yul\":11543:11712   */\n      pop\n      jump\t// out\n        /* \"#utility.yul\":11718:12084   */\n    tag_274:\n        /* \"#utility.yul\":11860:11863   */\n      0x00\n        /* \"#utility.yul\":11881:11948   */\n      tag_414\n        /* \"#utility.yul\":11945:11947   */\n      0x13\n        /* \"#utility.yul\":11940:11943   */\n      dup4\n        /* \"#utility.yul\":11881:11948   */\n      tag_266\n      jump\t// in\n    tag_414:\n        /* \"#utility.yul\":11874:11948   */\n      swap2\n      pop\n        /* \"#utility.yul\":11957:12050   */\n      tag_415\n        /* \"#utility.yul\":12046:12049   */\n      dup3\n        /* \"#utility.yul\":11957:12050   */\n      tag_273\n      jump\t// in\n    tag_415:\n        /* \"#utility.yul\":12075:12077   */\n      0x20\n        /* \"#utility.yul\":12070:12073   */\n      dup3\n        /* \"#utility.yul\":12066:12078   */\n      add\n        /* \"#utility.yul\":12059:12078   */\n      swap1\n      pop\n        /* \"#utility.yul\":11718:12084   */\n      swap2\n      swap1\n      pop\n      jump\t// out\n        /* \"#utility.yul\":12090:12509   */\n    tag_85:\n        /* \"#utility.yul\":12256:12260   */\n      0x00\n        /* \"#utility.yul\":12294:12296   */\n      0x20\n        /* \"#utility.yul\":12283:12292   */\n      dup3\n        /* \"#utility.yul\":12279:12297   */\n      add\n        /* \"#utility.yul\":12271:12297   */\n      swap1\n      pop\n        /* \"#utility.yul\":12343:12352   */\n      dup2\n        /* \"#utility.yul\":12337:12341   */\n      dup2\n        /* \"#utility.yul\":12333:12353   */\n      sub\n        /* \"#utility.yul\":12329:12330   */\n      0x00\n        /* \"#utility.yul\":12318:12327   */\n      dup4\n        /* \"#utility.yul\":12314:12331   */\n      add\n        /* \"#utility.yul\":12307:12354   */\n      mstore\n        /* \"#utility.yul\":12371:12502   */\n      tag_417\n        /* \"#utility.yul\":12497:12501   */\n      dup2\n        /* \"#utility.yul\":12371:12502   */\n      tag_274\n      jump\t// in\n    tag_417:\n        /* \"#utility.yul\":12363:12502   */\n      swap1\n      pop\n        /* \"#utility.yul\":12090:12509   */\n      swap2\n      swap1\n      pop\n      jump\t// out\n        /* \"#utility.yul\":12515:12685   */\n    tag_275:\n        /* \"#utility.yul\":12655:12677   */\n      0x496e73756666696369656e742062616c616e6365000000000000000000000000\n        /* \"#utility.yul\":12651:12652   */\n      0x00\n        /* \"#utility.yul\":12643:12649   */\n      dup3\n        /* \"#utility.yul\":12639:12653   */\n      add\n        /* \"#utility.yul\":12632:12678   */\n      mstore\n        /* \"#utility.yul\":12515:12685   */\n      pop\n      jump\t// out\n        /* \"#utility.yul\":12691:13057   */\n    tag_276:\n        /* \"#utility.yul\":12833:12836   */\n      0x00\n        /* \"#utility.yul\":12854:12921   */\n      tag_420\n        /* \"#utility.yul\":12918:12920   */\n      0x14\n        /* \"#utility.yul\":12913:12916   */\n      dup4\n        /* \"#utility.yul\":12854:12921   */\n      tag_266\n      jump\t// in\n    tag_420:\n        /* \"#utility.yul\":12847:12921   */\n      swap2\n      pop\n        /* \"#utility.yul\":12930:13023   */\n      tag_421\n        /* \"#utility.yul\":13019:13022   */\n      dup3\n        /* \"#utility.yul\":12930:13023   */\n      tag_275\n      jump\t// in\n    tag_421:\n        /* \"#utility.yul\":13048:13050   */\n      0x20\n        /* \"#utility.yul\":13043:13046   */\n      dup3\n        /* \"#utility.yul\":13039:13051   */\n      add\n        /* \"#utility.yul\":13032:13051   */\n      swap1\n      pop\n        /* \"#utility.yul\":12691:13057   */\n      swap2\n      swap1\n      pop\n      jump\t// out\n        /* \"#utility.yul\":13063:13482   */\n    tag_89:\n        /* \"#utility.yul\":13229:13233   */\n      0x00\n        /* \"#utility.yul\":13267:13269   */\n      0x20\n        /* \"#utility.yul\":13256:13265   */\n      dup3\n        /* \"#utility.yul\":13252:13270   */\n      add\n        /* \"#utility.yul\":13244:13270   */\n      swap1\n      pop\n        /* \"#utility.yul\":13316:13325   */\n      dup2\n        /* \"#utility.yul\":13310:13314   */\n      dup2\n        /* \"#utility.yul\":13306:13326   */\n      sub\n        /* \"#utility.yul\":13302:13303   */\n      0x00\n        /* \"#utility.yul\":13291:13300   */\n      dup4\n        /* \"#utility.yul\":13287:13304   */\n      add\n        /* \"#utility.yul\":13280:13327   */\n      mstore\n        /* \"#utility.yul\":13344:13475   */\n      tag_423\n        /* \"#utility.yul\":13470:13474   */\n      dup2\n        /* \"#utility.yul\":13344:13475   */\n      tag_276\n      jump\t// in\n    tag_423:\n        /* \"#utility.yul\":13336:13475   */\n      swap1\n      pop\n        /* \"#utility.yul\":13063:13482   */\n      swap2\n      swap1\n      pop\n      jump\t// out\n        /* \"#utility.yul\":13488:13668   */\n    tag_277:\n        /* \"#utility.yul\":13536:13613   */\n      0x4e487b7100000000000000000000000000000000000000000000000000000000\n        /* \"#utility.yul\":13533:13534   */\n      0x00\n        /* \"#utility.yul\":13526:13614   */\n      mstore\n        /* \"#utility.yul\":13633:13637   */\n      0x11\n        /* \"#utility.yul\":13630:13631   */\n      0x04\n        /* \"#utility.yul\":13623:13638   */\n      mstore\n        /* \"#utility.yul\":13657:13661   */\n      0x24\n        /* \"#utility.yul\":13654:13655   */\n      0x00\n        /* \"#utility.yul\":13647:13662   */\n      revert\n        /* \"#utility.yul\":13674:13868   */\n    tag_92:\n        /* \"#utility.yul\":13714:13718   */\n      0x00\n        /* \"#utility.yul\":13734:13754   */\n      tag_426\n        /* \"#utility.yul\":13752:13753   */\n      dup3\n        /* \"#utility.yul\":13734:13754   */\n      tag_261\n      jump\t// in\n    tag_426:\n        /* \"#utility.yul\":13729:13754   */\n      swap2\n      pop\n        /* \"#utility.yul\":13768:13788   */\n      tag_427\n        /* \"#utility.yul\":13786:13787   */\n      dup4\n        /* \"#utility.yul\":13768:13788   */\n      tag_261\n      jump\t// in\n    tag_427:\n        /* \"#utility.yul\":13763:13788   */\n      swap3\n      pop\n        /* \"#utility.yul\":13812:13813   */\n      dup3\n        /* \"#utility.yul\":13809:13810   */\n      dup3\n        /* \"#utility.yul\":13805:13814   */\n      sub\n        /* \"#utility.yul\":13797:13814   */\n      swap1\n      pop\n        /* \"#utility.yul\":13836:13837   */\n      dup2\n        /* \"#utility.yul\":13830:13834   */\n      dup2\n        /* \"#utility.yul\":13827:13838   */\n      gt\n        /* \"#utility.yul\":13824:13861   */\n      iszero\n      tag_428\n      jumpi\n        /* \"#utility.yul\":13841:13859   */\n      tag_429\n      tag_277\n      jump\t// in\n    tag_429:\n        /* \"#utility.yul\":13824:13861   */\n    tag_428:\n        /* \"#utility.yul\":13674:13868   */\n      swap3\n      swap2\n      pop\n      pop\n      jump\t// out\n        /* \"#utility.yul\":13874:14046   */\n    tag_278:\n        /* \"#utility.yul\":14014:14038   */\n      0x55736572287329206e6f74207265676973746572656400000000000000000000\n        /* \"#utility.yul\":14010:14011   */\n      0x00\n        /* \"#utility.yul\":14002:14008   */\n      dup3\n        /* \"#utility.yul\":13998:14012   */\n      add\n        /* \"#utility.yul\":13991:14039   */\n      mstore\n        /* \"#utility.yul\":13874:14046   */\n      pop\n      jump\t// out\n        /* \"#utility.yul\":14052:14418   */\n    tag_279:\n        /* \"#utility.yul\":14194:14197   */\n      0x00\n        /* \"#utility.yul\":14215:14282   */\n      tag_432\n        /* \"#utility.yul\":14279:14281   */\n      0x16\n        /* \"#utility.yul\":14274:14277   */\n      dup4\n        /* \"#utility.yul\":14215:14282   */\n      tag_266\n      jump\t// in\n    tag_432:\n        /* \"#utility.yul\":14208:14282   */\n      swap2\n      pop\n        /* \"#utility.yul\":14291:14384   */\n      tag_433\n        /* \"#utility.yul\":14380:14383   */\n      dup3\n        /* \"#utility.yul\":14291:14384   */\n      tag_278\n      jump\t// in\n    tag_433:\n        /* \"#utility.yul\":14409:14411   */\n      0x20\n        /* \"#utility.yul\":14404:14407   */\n      dup3\n        /* \"#utility.yul\":14400:14412   */\n      add\n        /* \"#utility.yul\":14393:14412   */\n      swap1\n      pop\n        /* \"#utility.yul\":14052:14418   */\n      swap2\n      swap1\n      pop\n      jump\t// out\n        /* \"#utility.yul\":14424:14843   */\n    tag_99:\n        /* \"#utility.yul\":14590:14594   */\n      0x00\n        /* \"#utility.yul\":14628:14630   */\n      0x20\n        /* \"#utility.yul\":14617:14626   */\n      dup3\n        /* \"#utility.yul\":14613:14631   */\n      add\n        /* \"#utility.yul\":14605:14631   */\n      swap1\n      pop\n        /* \"#utility.yul\":14677:14686   */\n      dup2\n        /* \"#utility.yul\":14671:14675   */\n      dup2\n        /* \"#utility.yul\":14667:14687   */\n      sub\n        /* \"#utility.yul\":14663:14664   */\n      0x00\n        /* \"#utility.yul\":14652:14661   */\n      dup4\n        /* \"#utility.yul\":14648:14665   */\n      add\n        /* \"#utility.yul\":14641:14688   */\n      mstore\n        /* \"#utility.yul\":14705:14836   */\n      tag_435\n        /* \"#utility.yul\":14831:14835   */\n      dup2\n        /* \"#utility.yul\":14705:14836   */\n      tag_279\n      jump\t// in\n    tag_435:\n        /* \"#utility.yul\":14697:14836   */\n      swap1\n      pop\n        /* \"#utility.yul\":14424:14843   */\n      swap2\n      swap1\n      pop\n      jump\t// out\n        /* \"#utility.yul\":14849:15014   */\n    tag_280:\n        /* \"#utility.yul\":14989:15006   */\n      0x496e76616c69642062616e6b2873290000000000000000000000000000000000\n        /* \"#utility.yul\":14985:14986   */\n      0x00\n        /* \"#utility.yul\":14977:14983   */\n      dup3\n        /* \"#utility.yul\":14973:14987   */\n      add\n        /* \"#utility.yul\":14966:15007   */\n      mstore\n        /* \"#utility.yul\":14849:15014   */\n      pop\n      jump\t// out\n        /* \"#utility.yul\":15020:15386   */\n    tag_281:\n        /* \"#utility.yul\":15162:15165   */\n      0x00\n        /* \"#utility.yul\":15183:15250   */\n      tag_438\n        /* \"#utility.yul\":15247:15249   */\n      0x0f\n        /* \"#utility.yul\":15242:15245   */\n      dup4\n        /* \"#utility.yul\":15183:15250   */\n      tag_266\n      jump\t// in\n    tag_438:\n        /* \"#utility.yul\":15176:15250   */\n      swap2\n      pop\n        /* \"#utility.yul\":15259:15352   */\n      tag_439\n        /* \"#utility.yul\":15348:15351   */\n      dup3\n        /* \"#utility.yul\":15259:15352   */\n      tag_280\n      jump\t// in\n    tag_439:\n        /* \"#utility.yul\":15377:15379   */\n      0x20\n        /* \"#utility.yul\":15372:15375   */\n      dup3\n        /* \"#utility.yul\":15368:15380   */\n      add\n        /* \"#utility.yul\":15361:15380   */\n      swap1\n      pop\n        /* \"#utility.yul\":15020:15386   */\n      swap2\n      swap1\n      pop\n      jump\t// out\n        /* \"#utility.yul\":15392:15811   */\n    tag_105:\n        /* \"#utility.yul\":15558:15562   */\n      0x00\n        /* \"#utility.yul\":15596:15598   */\n      0x20\n        /* \"#utility.yul\":15585:15594   */\n      dup3\n        /* \"#utility.yul\":15581:15599   */\n      add\n        /* \"#utility.yul\":15573:15599   */\n      swap1\n      pop\n        /* \"#utility.yul\":15645:15654   */\n      dup2\n        /* \"#utility.yul\":15639:15643   */\n      dup2\n        /* \"#utility.yul\":15635:15655   */\n      sub\n        /* \"#utility.yul\":15631:15632   */\n      0x00\n        /* \"#utility.yul\":15620:15629   */\n      dup4\n        /* \"#utility.yul\":15616:15633   */\n      add\n        /* \"#utility.yul\":15609:15656   */\n      mstore\n        /* \"#utility.yul\":15673:15804   */\n      tag_441\n        /* \"#utility.yul\":15799:15803   */\n      dup2\n        /* \"#utility.yul\":15673:15804   */\n      tag_281\n      jump\t// in\n    tag_441:\n        /* \"#utility.yul\":15665:15804   */\n      swap1\n      pop\n        /* \"#utility.yul\":15392:15811   */\n      swap2\n      swap1\n      pop\n      jump\t// out\n        /* \"#utility.yul\":15817:16008   */\n    tag_107:\n        /* \"#utility.yul\":15857:15860   */\n      0x00\n        /* \"#utility.yul\":15876:15896   */\n      tag_443\n        /* \"#utility.yul\":15894:15895   */\n      dup3\n        /* \"#utility.yul\":15876:15896   */\n      tag_261\n      jump\t// in\n    tag_443:\n        /* \"#utility.yul\":15871:15896   */\n      swap2\n      pop\n        /* \"#utility.yul\":15910:15930   */\n      tag_444\n        /* \"#utility.yul\":15928:15929   */\n      dup4\n        /* \"#utility.yul\":15910:15930   */\n      tag_261\n      jump\t// in\n    tag_444:\n        /* \"#utility.yul\":15905:15930   */\n      swap3\n      pop\n        /* \"#utility.yul\":15953:15954   */\n      dup3\n        /* \"#utility.yul\":15950:15951   */\n      dup3\n        /* \"#utility.yul\":15946:15955   */\n      add\n        /* \"#utility.yul\":15939:15955   */\n      swap1\n      pop\n        /* \"#utility.yul\":15974:15977   */\n      dup1\n        /* \"#utility.yul\":15971:15972   */\n      dup3\n        /* \"#utility.yul\":15968:15978   */\n      gt\n        /* \"#utility.yul\":15965:16001   */\n      iszero\n      tag_445\n      jumpi\n        /* \"#utility.yul\":15981:15999   */\n      tag_446\n      tag_277\n      jump\t// in\n    tag_446:\n        /* \"#utility.yul\":15965:16001   */\n    tag_445:\n        /* \"#utility.yul\":15817:16008   */\n      swap3\n      swap2\n      pop\n      pop\n      jump\t// out\n        /* \"#utility.yul\":16014:16193   */\n    tag_282:\n        /* \"#utility.yul\":16154:16185   */\n      0x4f6e6c7920746178206f66666963652063616e206164642062616e6b73000000\n        /* \"#utility.yul\":16150:16151   */\n      0x00\n        /* \"#utility.yul\":16142:16148   */\n      dup3\n        /* \"#utility.yul\":16138:16152   */\n      add\n        /* \"#utility.yul\":16131:16186   */\n      mstore\n        /* \"#utility.yul\":16014:16193   */\n      pop\n      jump\t// out\n        /* \"#utility.yul\":16199:16565   */\n    tag_283:\n        /* \"#utility.yul\":16341:16344   */\n      0x00\n        /* \"#utility.yul\":16362:16429   */\n      tag_449\n        /* \"#utility.yul\":16426:16428   */\n      0x1d\n        /* \"#utility.yul\":16421:16424   */\n      dup4\n        /* \"#utility.yul\":16362:16429   */\n      tag_266\n      jump\t// in\n    tag_449:\n        /* \"#utility.yul\":16355:16429   */\n      swap2\n      pop\n        /* \"#utility.yul\":16438:16531   */\n      tag_450\n        /* \"#utility.yul\":16527:16530   */\n      dup3\n        /* \"#utility.yul\":16438:16531   */\n      tag_282\n      jump\t// in\n    tag_450:\n        /* \"#utility.yul\":16556:16558   */\n      0x20\n        /* \"#utility.yul\":16551:16554   */\n      dup3\n        /* \"#utility.yul\":16547:16559   */\n      add\n        /* \"#utility.yul\":16540:16559   */\n      swap1\n      pop\n        /* \"#utility.yul\":16199:16565   */\n      swap2\n      swap1\n      pop\n      jump\t// out\n        /* \"#utility.yul\":16571:16990   */\n    tag_121:\n        /* \"#utility.yul\":16737:16741   */\n      0x00\n        /* \"#utility.yul\":16775:16777   */\n      0x20\n        /* \"#utility.yul\":16764:16773   */\n      dup3\n        /* \"#utility.yul\":16760:16778   */\n      add\n        /* \"#utility.yul\":16752:16778   */\n      swap1\n      pop\n        /* \"#utility.yul\":16824:16833   */\n      dup2\n        /* \"#utility.yul\":16818:16822   */\n      dup2\n        /* \"#utility.yul\":16814:16834   */\n      sub\n        /* \"#utility.yul\":16810:16811   */\n      0x00\n        /* \"#utility.yul\":16799:16808   */\n      dup4\n        /* \"#utility.yul\":16795:16812   */\n      add\n        /* \"#utility.yul\":16788:16835   */\n      mstore\n        /* \"#utility.yul\":16852:16983   */\n      tag_452\n        /* \"#utility.yul\":16978:16982   */\n      dup2\n        /* \"#utility.yul\":16852:16983   */\n      tag_283\n      jump\t// in\n    tag_452:\n        /* \"#utility.yul\":16844:16983   */\n      swap1\n      pop\n        /* \"#utility.yul\":16571:16990   */\n      swap2\n      swap1\n      pop\n      jump\t// out\n        /* \"#utility.yul\":16996:17175   */\n    tag_284:\n        /* \"#utility.yul\":17136:17167   */\n      0x4f6e6c7920746178206f66666963652063616e2063616c6c2074686973000000\n        /* \"#utility.yul\":17132:17133   */\n      0x00\n        /* \"#utility.yul\":17124:17130   */\n      dup3\n        /* \"#utility.yul\":17120:17134   */\n      add\n        /* \"#utility.yul\":17113:17168   */\n      mstore\n        /* \"#utility.yul\":16996:17175   */\n      pop\n      jump\t// out\n        /* \"#utility.yul\":17181:17547   */\n    tag_285:\n        /* \"#utility.yul\":17323:17326   */\n      0x00\n        /* \"#utility.yul\":17344:17411   */\n      tag_455\n        /* \"#utility.yul\":17408:17410   */\n      0x1d\n        /* \"#utility.yul\":17403:17406   */\n      dup4\n        /* \"#utility.yul\":17344:17411   */\n      tag_266\n      jump\t// in\n    tag_455:\n        /* \"#utility.yul\":17337:17411   */\n      swap2\n      pop\n        /* \"#utility.yul\":17420:17513   */\n      tag_456\n        /* \"#utility.yul\":17509:17512   */\n      dup3\n        /* \"#utility.yul\":17420:17513   */\n      tag_284\n      jump\t// in\n    tag_456:\n        /* \"#utility.yul\":17538:17540   */\n      0x20\n        /* \"#utility.yul\":17533:17536   */\n      dup3\n        /* \"#utility.yul\":17529:17541   */\n      add\n        /* \"#utility.yul\":17522:17541   */\n      swap1\n      pop\n        /* \"#utility.yul\":17181:17547   */\n      swap2\n      swap1\n      pop\n      jump\t// out\n        /* \"#utility.yul\":17553:17972   */\n    tag_134:\n        /* \"#utility.yul\":17719:17723   */\n      0x00\n        /* \"#utility.yul\":17757:17759   */\n      0x20\n        /* \"#utility.yul\":17746:17755   */\n      dup3\n        /* \"#utility.yul\":17742:17760   */\n      add\n        /* \"#utility.yul\":17734:17760   */\n      swap1\n      pop\n        /* \"#utility.yul\":17806:17815   */\n      dup2\n        /* \"#utility.yul\":17800:17804   */\n      dup2\n        /* \"#utility.yul\":17796:17816   */\n      sub\n        /* \"#utility.yul\":17792:17793   */\n      0x00\n        /* \"#utility.yul\":17781:17790   */\n      dup4\n        /* \"#utility.yul\":17777:17794   */\n      add\n        /* \"#utility.yul\":17770:17817   */\n      mstore\n        /* \"#utility.yul\":17834:17965   */\n      tag_458\n        /* \"#utility.yul\":17960:17964   */\n      dup2\n        /* \"#utility.yul\":17834:17965   */\n      tag_285\n      jump\t// in\n    tag_458:\n        /* \"#utility.yul\":17826:17965   */\n      swap1\n      pop\n        /* \"#utility.yul\":17553:17972   */\n      swap2\n      swap1\n      pop\n      jump\t// out\n        /* \"#utility.yul\":17978:18158   */\n    tag_142:\n        /* \"#utility.yul\":18026:18103   */\n      0x4e487b7100000000000000000000000000000000000000000000000000000000\n        /* \"#utility.yul\":18023:18024   */\n      0x00\n        /* \"#utility.yul\":18016:18104   */\n      mstore\n        /* \"#utility.yul\":18123:18127   */\n      0x32\n        /* \"#utility.yul\":18120:18121   */\n      0x04\n        /* \"#utility.yul\":18113:18128   */\n      mstore\n        /* \"#utility.yul\":18147:18151   */\n      0x24\n        /* \"#utility.yul\":18144:18145   */\n      0x00\n        /* \"#utility.yul\":18137:18152   */\n      revert\n        /* \"#utility.yul\":18164:18337   */\n    tag_286:\n        /* \"#utility.yul\":18304:18329   */\n      0x5573657220616c72656164792072656769737465726564000000000000000000\n        /* \"#utility.yul\":18300:18301   */\n      0x00\n        /* \"#utility.yul\":18292:18298   */\n      dup3\n        /* \"#utility.yul\":18288:18302   */\n      add\n        /* \"#utility.yul\":18281:18330   */\n      mstore\n        /* \"#utility.yul\":18164:18337   */\n      pop\n      jump\t// out\n        /* \"#utility.yul\":18343:18709   */\n    tag_287:\n        /* \"#utility.yul\":18485:18488   */\n      0x00\n        /* \"#utility.yul\":18506:18573   */\n      tag_462\n        /* \"#utility.yul\":18570:18572   */\n      0x17\n        /* \"#utility.yul\":18565:18568   */\n      dup4\n        /* \"#utility.yul\":18506:18573   */\n      tag_266\n      jump\t// in\n    tag_462:\n        /* \"#utility.yul\":18499:18573   */\n      swap2\n      pop\n        /* \"#utility.yul\":18582:18675   */\n      tag_463\n        /* \"#utility.yul\":18671:18674   */\n      dup3\n        /* \"#utility.yul\":18582:18675   */\n      tag_286\n      jump\t// in\n    tag_463:\n        /* \"#utility.yul\":18700:18702   */\n      0x20\n        /* \"#utility.yul\":18695:18698   */\n      dup3\n        /* \"#utility.yul\":18691:18703   */\n      add\n        /* \"#utility.yul\":18684:18703   */\n      swap1\n      pop\n        /* \"#utility.yul\":18343:18709   */\n      swap2\n      swap1\n      pop\n      jump\t// out\n        /* \"#utility.yul\":18715:19134   */\n    tag_191:\n        /* \"#utility.yul\":18881:18885   */\n      0x00\n        /* \"#utility.yul\":18919:18921   */\n      0x20\n        /* \"#utility.yul\":18908:18917   */\n      dup3\n        /* \"#utility.yul\":18904:18922   */\n      add\n        /* \"#utility.yul\":18896:18922   */\n      swap1\n      pop\n        /* \"#utility.yul\":18968:18977   */\n      dup2\n        /* \"#utility.yul\":18962:18966   */\n      dup2\n        /* \"#utility.yul\":18958:18978   */\n      sub\n        /* \"#utility.yul\":18954:18955   */\n      0x00\n        /* \"#utility.yul\":18943:18952   */\n      dup4\n        /* \"#utility.yul\":18939:18956   */\n      add\n        /* \"#utility.yul\":18932:18979   */\n      mstore\n        /* \"#utility.yul\":18996:19127   */\n      tag_465\n        /* \"#utility.yul\":19122:19126   */\n      dup2\n        /* \"#utility.yul\":18996:19127   */\n      tag_287\n      jump\t// in\n    tag_465:\n        /* \"#utility.yul\":18988:19127   */\n      swap1\n      pop\n        /* \"#utility.yul\":18715:19134   */\n      swap2\n      swap1\n      pop\n      jump\t// out\n        /* \"#utility.yul\":19140:19373   */\n    tag_201:\n        /* \"#utility.yul\":19179:19182   */\n      0x00\n        /* \"#utility.yul\":19202:19226   */\n      tag_467\n        /* \"#utility.yul\":19220:19225   */\n      dup3\n        /* \"#utility.yul\":19202:19226   */\n      tag_261\n      jump\t// in\n    tag_467:\n        /* \"#utility.yul\":19193:19226   */\n      swap2\n      pop\n        /* \"#utility.yul\":19248:19314   */\n      0xffffffffffffffffffffffffffffffffffffffffffffffffffffffffffffffff\n        /* \"#utility.yul\":19241:19246   */\n      dup3\n        /* \"#utility.yul\":19238:19315   */\n      sub\n        /* \"#utility.yul\":19235:19338   */\n      tag_468\n      jumpi\n        /* \"#utility.yul\":19318:19336   */\n      tag_469\n      tag_277\n      jump\t// in\n    tag_469:\n        /* \"#utility.yul\":19235:19338   */\n    tag_468:\n        /* \"#utility.yul\":19365:19366   */\n      0x01\n        /* \"#utility.yul\":19358:19363   */\n      dup3\n        /* \"#utility.yul\":19354:19367   */\n      add\n        /* \"#utility.yul\":19347:19367   */\n      swap1\n      pop\n        /* \"#utility.yul\":19140:19373   */\n      swap2\n      swap1\n      pop\n      jump\t// out\n        /* \"#utility.yul\":19379:19559   */\n    tag_288:\n        /* \"#utility.yul\":19427:19504   */\n      0x4e487b7100000000000000000000000000000000000000000000000000000000\n        /* \"#utility.yul\":19424:19425   */\n      0x00\n        /* \"#utility.yul\":19417:19505   */\n      mstore\n        /* \"#utility.yul\":19524:19528   */\n      0x12\n        /* \"#utility.yul\":19521:19522   */\n      0x04\n        /* \"#utility.yul\":19514:19529   */\n      mstore\n        /* \"#utility.yul\":19548:19552   */\n      0x24\n        /* \"#utility.yul\":19545:19546   */\n      0x00\n        /* \"#utility.yul\":19538:19553   */\n      revert\n        /* \"#utility.yul\":19565:19741   */\n    tag_224:\n        /* \"#utility.yul\":19597:19598   */\n      0x00\n        /* \"#utility.yul\":19614:19634   */\n      tag_472\n        /* \"#utility.yul\":19632:19633   */\n      dup3\n        /* \"#utility.yul\":19614:19634   */\n      tag_261\n      jump\t// in\n    tag_472:\n        /* \"#utility.yul\":19609:19634   */\n      swap2\n      pop\n        /* \"#utility.yul\":19648:19668   */\n      tag_473\n        /* \"#utility.yul\":19666:19667   */\n      dup4\n        /* \"#utility.yul\":19648:19668   */\n      tag_261\n      jump\t// in\n    tag_473:\n        /* \"#utility.yul\":19643:19668   */\n      swap3\n      pop\n        /* \"#utility.yul\":19687:19688   */\n      dup3\n        /* \"#utility.yul\":19677:19712   */\n      tag_474\n      jumpi\n        /* \"#utility.yul\":19692:19710   */\n      tag_475\n      tag_288\n      jump\t// in\n    tag_475:\n        /* \"#utility.yul\":19677:19712   */\n    tag_474:\n        /* \"#utility.yul\":19733:19734   */\n      dup3\n        /* \"#utility.yul\":19730:19731   */\n      dup3\n        /* \"#utility.yul\":19726:19735   */\n      mod\n        /* \"#utility.yul\":19721:19735   */\n      swap1\n      pop\n        /* \"#utility.yul\":19565:19741   */\n      swap3\n      swap2\n      pop\n      pop\n      jump\t// out\n        /* \"#utility.yul\":19747:19932   */\n    tag_226:\n        /* \"#utility.yul\":19787:19788   */\n      0x00\n        /* \"#utility.yul\":19804:19824   */\n      tag_477\n        /* \"#utility.yul\":19822:19823   */\n      dup3\n        /* \"#utility.yul\":19804:19824   */\n      tag_261\n      jump\t// in\n    tag_477:\n        /* \"#utility.yul\":19799:19824   */\n      swap2\n      pop\n        /* \"#utility.yul\":19838:19858   */\n      tag_478\n        /* \"#utility.yul\":19856:19857   */\n      dup4\n        /* \"#utility.yul\":19838:19858   */\n      tag_261\n      jump\t// in\n    tag_478:\n        /* \"#utility.yul\":19833:19858   */\n      swap3\n      pop\n        /* \"#utility.yul\":19877:19878   */\n      dup3\n        /* \"#utility.yul\":19867:19902   */\n      tag_479\n      jumpi\n        /* \"#utility.yul\":19882:19900   */\n      tag_480\n      tag_288\n      jump\t// in\n    tag_480:\n        /* \"#utility.yul\":19867:19902   */\n    tag_479:\n        /* \"#utility.yul\":19924:19925   */\n      dup3\n        /* \"#utility.yul\":19921:19922   */\n      dup3\n        /* \"#utility.yul\":19917:19926   */\n      div\n        /* \"#utility.yul\":19912:19926   */\n      swap1\n      pop\n        /* \"#utility.yul\":19747:19932   */\n      swap3\n      swap2\n      pop\n      pop\n      jump\t// out\n\n    auxdata: 0xa26469706673582212203398143cc726aca438eb1e01693a81e62ba0e08de726ddc696db6349f9a2c2b464736f6c634300081a0033\n}\n",
				"bytecode": {
					"linkReferences": {},
					"object": "608060405234801561000f575f80fd5b5060405161223f38038061223f833981810160405281019061003191906100d4565b805f806101000a81548173ffffffffffffffffffffffffffffffffffffffff021916908373ffffffffffffffffffffffffffffffffffffffff160217905550506100ff565b5f80fd5b5f73ffffffffffffffffffffffffffffffffffffffff82169050919050565b5f6100a38261007a565b9050919050565b6100b381610099565b81146100bd575f80fd5b50565b5f815190506100ce816100aa565b92915050565b5f602082840312156100e9576100e8610076565b5b5f6100f6848285016100c0565b91505092915050565b6121338061010c5f395ff3fe6080604052600436106100a6575f3560e01c806396ed5d861161006357806396ed5d86146101d8578063a26e118614610200578063ab4f049a1461021c578063d3d3819314610258578063f049123e14610294578063f2c298be146102bc576100a6565b80630e50cee5146100aa57806330b39a62146100e6578063609380a21461010e5780638892ebce146101385780638c7c7ce7146101745780639262556d1461019c575b5f80fd5b3480156100b5575f80fd5b506100d060048036038101906100cb9190611737565b6102e4565b6040516100dd919061177c565b60405180910390f35b3480156100f1575f80fd5b5061010c60048036038101906101079190611904565b610301565b005b348015610119575f80fd5b50610122610547565b60405161012f919061196d565b60405180910390f35b348015610143575f80fd5b5061015e60048036038101906101599190611986565b61056a565b60405161016b91906119ef565b60405180910390f35b34801561017f575f80fd5b5061019a60048036038101906101959190611a08565b6105a2565b005b3480156101a7575f80fd5b506101c260048036038101906101bd9190611aa4565b610934565b6040516101cf919061177c565b60405180910390f35b3480156101e3575f80fd5b506101fe60048036038101906101f99190611aa4565b610969565b005b61021a60048036038101906102159190611aa4565b610a2e565b005b348015610227575f80fd5b50610242600480360381019061023d9190611aeb565b610b93565b60405161024f919061177c565b60405180910390f35b348015610263575f80fd5b5061027e60048036038101906102799190611737565b610ed4565b60405161028b91906119ef565b60405180910390f35b34801561029f575f80fd5b506102ba60048036038101906102b59190611b29565b610f88565b005b3480156102c7575f80fd5b506102e260048036038101906102dd9190611aa4565b61122d565b005b6002602052805f5260405f205f915054906101000a900460ff1681565b60025f3373ffffffffffffffffffffffffffffffffffffffff1673ffffffffffffffffffffffffffffffffffffffff1681526020019081526020015f205f9054906101000a900460ff1661038a576040517f08c379a000000000000000000000000000000000000000000000000000000000815260040161038190611c0b565b60405180910390fd5b60018260405161039a9190611c7b565b90815260200160405180910390205f9054906101000a900460ff166103f4576040517f08c379a00000000000000000000000000000000000000000000000000000000081526004016103eb90611cdb565b60405180910390fd5b806003836040516104059190611c7b565b90815260200160405180910390205f3373ffffffffffffffffffffffffffffffffffffffff1673ffffffffffffffffffffffffffffffffffffffff1681526020019081526020015f20541015610490576040517f08c379a000000000000000000000000000000000000000000000000000000000815260040161048790611d43565b60405180910390fd5b806003836040516104a19190611c7b565b90815260200160405180910390205f3373ffffffffffffffffffffffffffffffffffffffff1673ffffffffffffffffffffffffffffffffffffffff1681526020019081526020015f205f8282546104f89190611d8e565b925050819055503373ffffffffffffffffffffffffffffffffffffffff166108fc8290811502906040515f60405180830381858888f19350505050158015610542573d5f803e3d5ffd5b505050565b5f8054906101000a900473ffffffffffffffffffffffffffffffffffffffff1681565b600382805160208101820180518482526020830160208501208183528095505050505050602052805f5260405f205f91509150505481565b60025f3373ffffffffffffffffffffffffffffffffffffffff1673ffffffffffffffffffffffffffffffffffffffff1681526020019081526020015f205f9054906101000a900460ff16801561063e575060025f8373ffffffffffffffffffffffffffffffffffffffff1673ffffffffffffffffffffffffffffffffffffffff1681526020019081526020015f205f9054906101000a900460ff165b61067d576040517f08c379a000000000000000000000000000000000000000000000000000000000815260040161067490611e0b565b60405180910390fd5b60018460405161068d9190611c7b565b90815260200160405180910390205f9054906101000a900460ff1680156106db57506001836040516106bf9190611c7b565b90815260200160405180910390205f9054906101000a900460ff165b61071a576040517f08c379a000000000000000000000000000000000000000000000000000000000815260040161071190611e73565b60405180910390fd5b66038d7ea4c680008161072d9190611e91565b60038560405161073d9190611c7b565b90815260200160405180910390205f3373ffffffffffffffffffffffffffffffffffffffff1673ffffffffffffffffffffffffffffffffffffffff1681526020019081526020015f205410156107c8576040517f08c379a00000000000000000000000000000000000000000000000000000000081526004016107bf90611d43565b60405180910390fd5b66038d7ea4c68000816107db9190611e91565b6003856040516107eb9190611c7b565b90815260200160405180910390205f3373ffffffffffffffffffffffffffffffffffffffff1673ffffffffffffffffffffffffffffffffffffffff1681526020019081526020015f205f8282546108429190611d8e565b925050819055508060038460405161085a9190611c7b565b90815260200160405180910390205f8473ffffffffffffffffffffffffffffffffffffffff1673ffffffffffffffffffffffffffffffffffffffff1681526020019081526020015f205f8282546108b19190611e91565b9250508190555066038d7ea4c680006003856040516108d09190611c7b565b90815260200160405180910390205f3073ffffffffffffffffffffffffffffffffffffffff1673ffffffffffffffffffffffffffffffffffffffff1681526020019081526020015f205f8282546109279190611e91565b9250508190555050505050565b6001818051602081018201805184825260208301602085012081835280955050505050505f915054906101000a900460ff1681565b5f8054906101000a900473ffffffffffffffffffffffffffffffffffffffff1673ffffffffffffffffffffffffffffffffffffffff163373ffffffffffffffffffffffffffffffffffffffff16146109f6576040517f08c379a00000000000000000000000000000000000000000000000000000000081526004016109ed90611f0e565b60405180910390fd5b60018082604051610a079190611c7b565b90815260200160405180910390205f6101000a81548160ff02191690831515021790555050565b60025f3373ffffffffffffffffffffffffffffffffffffffff1673ffffffffffffffffffffffffffffffffffffffff1681526020019081526020015f205f9054906101000a900460ff16610ab7576040517f08c379a0000000000000000000000000000000000000000000000000000000008152600401610aae90611c0b565b60405180910390fd5b600181604051610ac79190611c7b565b90815260200160405180910390205f9054906101000a900460ff16610b21576040517f08c379a0000000000000000000000000000000000000000000000000000000008152600401610b1890611cdb565b60405180910390fd5b34600382604051610b329190611c7b565b90815260200160405180910390205f3373ffffffffffffffffffffffffffffffffffffffff1673ffffffffffffffffffffffffffffffffffffffff1681526020019081526020015f205f828254610b899190611e91565b9250508190555050565b5f805f9054906101000a900473ffffffffffffffffffffffffffffffffffffffff1673ffffffffffffffffffffffffffffffffffffffff163373ffffffffffffffffffffffffffffffffffffffff1614610c22576040517f08c379a0000000000000000000000000000000000000000000000000000000008152600401610c1990611f76565b60405180910390fd5b5f610c2b611379565b90505f5b8151811015610ec857836003838381518110610c4e57610c4d611f94565b5b6020026020010151604051610c639190611c7b565b90815260200160405180910390205f8773ffffffffffffffffffffffffffffffffffffffff1673ffffffffffffffffffffffffffffffffffffffff1681526020019081526020015f205410610d4657836003838381518110610cc857610cc7611f94565b5b6020026020010151604051610cdd9190611c7b565b90815260200160405180910390205f8773ffffffffffffffffffffffffffffffffffffffff1673ffffffffffffffffffffffffffffffffffffffff1681526020019081526020015f205f828254610d349190611d8e565b92505081905550600192505050610ece565b5f6003838381518110610d5c57610d5b611f94565b5b6020026020010151604051610d719190611c7b565b90815260200160405180910390205f8773ffffffffffffffffffffffffffffffffffffffff1673ffffffffffffffffffffffffffffffffffffffff1681526020019081526020015f20541115610ebb576003828281518110610dd657610dd5611f94565b5b6020026020010151604051610deb9190611c7b565b90815260200160405180910390205f8673ffffffffffffffffffffffffffffffffffffffff1673ffffffffffffffffffffffffffffffffffffffff1681526020019081526020015f205484610e409190611d8e565b93505f6003838381518110610e5857610e57611f94565b5b6020026020010151604051610e6d9190611c7b565b90815260200160405180910390205f8773ffffffffffffffffffffffffffffffffffffffff1673ffffffffffffffffffffffffffffffffffffffff1681526020019081526020015f20819055505b8080600101915050610c2f565b505f9150505b92915050565b5f805f90505f610ee2611379565b90505f5b8151811015610f7d576003828281518110610f0457610f03611f94565b5b6020026020010151604051610f199190611c7b565b90815260200160405180910390205f8673ffffffffffffffffffffffffffffffffffffffff1673ffffffffffffffffffffffffffffffffffffffff1681526020019081526020015f205483610f6e9190611e91565b92508080600101915050610ee6565b508192505050919050565b60025f3373ffffffffffffffffffffffffffffffffffffffff1673ffffffffffffffffffffffffffffffffffffffff1681526020019081526020015f205f9054906101000a900460ff16611011576040517f08c379a000000000000000000000000000000000000000000000000000000000815260040161100890611c0b565b60405180910390fd5b6001836040516110219190611c7b565b90815260200160405180910390205f9054906101000a900460ff16801561106f57506001826040516110539190611c7b565b90815260200160405180910390205f9054906101000a900460ff165b6110ae576040517f08c379a00000000000000000000000000000000000000000000000000000000081526004016110a590611e73565b60405180910390fd5b806003846040516110bf9190611c7b565b90815260200160405180910390205f3373ffffffffffffffffffffffffffffffffffffffff1673ffffffffffffffffffffffffffffffffffffffff1681526020019081526020015f2054101561114a576040517f08c379a000000000000000000000000000000000000000000000000000000000815260040161114190611d43565b60405180910390fd5b8060038460405161115b9190611c7b565b90815260200160405180910390205f3373ffffffffffffffffffffffffffffffffffffffff1673ffffffffffffffffffffffffffffffffffffffff1681526020019081526020015f205f8282546111b29190611d8e565b92505081905550806003836040516111ca9190611c7b565b90815260200160405180910390205f3373ffffffffffffffffffffffffffffffffffffffff1673ffffffffffffffffffffffffffffffffffffffff1681526020019081526020015f205f8282546112219190611e91565b92505081905550505050565b60018160405161123d9190611c7b565b90815260200160405180910390205f9054906101000a900460ff16611297576040517f08c379a000000000000000000000000000000000000000000000000000000000815260040161128e90611cdb565b60405180910390fd5b60025f3373ffffffffffffffffffffffffffffffffffffffff1673ffffffffffffffffffffffffffffffffffffffff1681526020019081526020015f205f9054906101000a900460ff1615611321576040517f08c379a00000000000000000000000000000000000000000000000000000000081526004016113189061200b565b60405180910390fd5b600160025f3373ffffffffffffffffffffffffffffffffffffffff1673ffffffffffffffffffffffffffffffffffffffff1681526020019081526020015f205f6101000a81548160ff02191690831515021790555050565b60605f805b60648110156113db576001611392826114bb565b60405161139f9190611c7b565b90815260200160405180910390205f9054906101000a900460ff16156113ce5781806113ca90612029565b9250505b808060010191505061137e565b505f8167ffffffffffffffff8111156113f7576113f66117ad565b5b60405190808252806020026020018201604052801561142a57816020015b60608152602001906001900390816114155790505b5090505f805b60648110156114b1575f611443826114bb565b90506001816040516114559190611c7b565b90815260200160405180910390205f9054906101000a900460ff16156114a3578084848151811061148957611488611f94565b5b6020026020010181905250828061149f90612029565b9350505b508080600101915050611430565b5081935050505090565b60605f8203611501576040518060400160405280600181526020017f300000000000000000000000000000000000000000000000000000000000000081525090506116c7565b5f606490505f8167ffffffffffffffff811115611521576115206117ad565b5b6040519080825280601f01601f1916602001820160405280156115535781602001600182028036833780820191505090505b5090505f5b5f85146115e1575f600a8661156d919061209d565b9050600a8661157c91906120cd565b955080603061158b9190611e91565b60f81b83838061159a90612029565b9450815181106115ad576115ac611f94565b5b60200101907effffffffffffffffffffffffffffffffffffffffffffffffffffffffffffff191690815f1a90535050611558565b5f8167ffffffffffffffff8111156115fc576115fb6117ad565b5b6040519080825280601f01601f19166020018201604052801561162e5781602001600182028036833780820191505090505b5090505f5b828110156116be57836001828561164a9190611d8e565b6116549190611d8e565b8151811061166557611664611f94565b5b602001015160f81c60f81b82828151811061168357611682611f94565b5b60200101907effffffffffffffffffffffffffffffffffffffffffffffffffffffffffffff191690815f1a9053508080600101915050611633565b50809450505050505b919050565b5f604051905090565b5f80fd5b5f80fd5b5f73ffffffffffffffffffffffffffffffffffffffff82169050919050565b5f611706826116dd565b9050919050565b611716816116fc565b8114611720575f80fd5b50565b5f813590506117318161170d565b92915050565b5f6020828403121561174c5761174b6116d5565b5b5f61175984828501611723565b91505092915050565b5f8115159050919050565b61177681611762565b82525050565b5f60208201905061178f5f83018461176d565b92915050565b5f80fd5b5f80fd5b5f601f19601f8301169050919050565b7f4e487b71000000000000000000000000000000000000000000000000000000005f52604160045260245ffd5b6117e38261179d565b810181811067ffffffffffffffff82111715611802576118016117ad565b5b80604052505050565b5f6118146116cc565b905061182082826117da565b919050565b5f67ffffffffffffffff82111561183f5761183e6117ad565b5b6118488261179d565b9050602081019050919050565b828183375f83830152505050565b5f61187561187084611825565b61180b565b90508281526020810184848401111561189157611890611799565b5b61189c848285611855565b509392505050565b5f82601f8301126118b8576118b7611795565b5b81356118c8848260208601611863565b91505092915050565b5f819050919050565b6118e3816118d1565b81146118ed575f80fd5b50565b5f813590506118fe816118da565b92915050565b5f806040838503121561191a576119196116d5565b5b5f83013567ffffffffffffffff811115611937576119366116d9565b5b611943858286016118a4565b9250506020611954858286016118f0565b9150509250929050565b611967816116fc565b82525050565b5f6020820190506119805f83018461195e565b92915050565b5f806040838503121561199c5761199b6116d5565b5b5f83013567ffffffffffffffff8111156119b9576119b86116d9565b5b6119c5858286016118a4565b92505060206119d685828601611723565b9150509250929050565b6119e9816118d1565b82525050565b5f602082019050611a025f8301846119e0565b92915050565b5f805f8060808587031215611a2057611a1f6116d5565b5b5f85013567ffffffffffffffff811115611a3d57611a3c6116d9565b5b611a49878288016118a4565b945050602085013567ffffffffffffffff811115611a6a57611a696116d9565b5b611a76878288016118a4565b9350506040611a8787828801611723565b9250506060611a98878288016118f0565b91505092959194509250565b5f60208284031215611ab957611ab86116d5565b5b5f82013567ffffffffffffffff811115611ad657611ad56116d9565b5b611ae2848285016118a4565b91505092915050565b5f8060408385031215611b0157611b006116d5565b5b5f611b0e85828601611723565b9250506020611b1f858286016118f0565b9150509250929050565b5f805f60608486031215611b4057611b3f6116d5565b5b5f84013567ffffffffffffffff811115611b5d57611b5c6116d9565b5b611b69868287016118a4565b935050602084013567ffffffffffffffff811115611b8a57611b896116d9565b5b611b96868287016118a4565b9250506040611ba7868287016118f0565b9150509250925092565b5f82825260208201905092915050565b7f55736572206e6f742072656769737465726564000000000000000000000000005f82015250565b5f611bf5601383611bb1565b9150611c0082611bc1565b602082019050919050565b5f6020820190508181035f830152611c2281611be9565b9050919050565b5f81519050919050565b5f81905092915050565b8281835e5f83830152505050565b5f611c5582611c29565b611c5f8185611c33565b9350611c6f818560208601611c3d565b80840191505092915050565b5f611c868284611c4b565b915081905092915050565b7f42616e6b20646f6573206e6f74206578697374000000000000000000000000005f82015250565b5f611cc5601383611bb1565b9150611cd082611c91565b602082019050919050565b5f6020820190508181035f830152611cf281611cb9565b9050919050565b7f496e73756666696369656e742062616c616e63650000000000000000000000005f82015250565b5f611d2d601483611bb1565b9150611d3882611cf9565b602082019050919050565b5f6020820190508181035f830152611d5a81611d21565b9050919050565b7f4e487b71000000000000000000000000000000000000000000000000000000005f52601160045260245ffd5b5f611d98826118d1565b9150611da3836118d1565b9250828203905081811115611dbb57611dba611d61565b5b92915050565b7f55736572287329206e6f742072656769737465726564000000000000000000005f82015250565b5f611df5601683611bb1565b9150611e0082611dc1565b602082019050919050565b5f6020820190508181035f830152611e2281611de9565b9050919050565b7f496e76616c69642062616e6b28732900000000000000000000000000000000005f82015250565b5f611e5d600f83611bb1565b9150611e6882611e29565b602082019050919050565b5f6020820190508181035f830152611e8a81611e51565b9050919050565b5f611e9b826118d1565b9150611ea6836118d1565b9250828201905080821115611ebe57611ebd611d61565b5b92915050565b7f4f6e6c7920746178206f66666963652063616e206164642062616e6b730000005f82015250565b5f611ef8601d83611bb1565b9150611f0382611ec4565b602082019050919050565b5f6020820190508181035f830152611f2581611eec565b9050919050565b7f4f6e6c7920746178206f66666963652063616e2063616c6c20746869730000005f82015250565b5f611f60601d83611bb1565b9150611f6b82611f2c565b602082019050919050565b5f6020820190508181035f830152611f8d81611f54565b9050919050565b7f4e487b71000000000000000000000000000000000000000000000000000000005f52603260045260245ffd5b7f5573657220616c726561647920726567697374657265640000000000000000005f82015250565b5f611ff5601783611bb1565b915061200082611fc1565b602082019050919050565b5f6020820190508181035f83015261202281611fe9565b9050919050565b5f612033826118d1565b91507fffffffffffffffffffffffffffffffffffffffffffffffffffffffffffffffff820361206557612064611d61565b5b600182019050919050565b7f4e487b71000000000000000000000000000000000000000000000000000000005f52601260045260245ffd5b5f6120a7826118d1565b91506120b2836118d1565b9250826120c2576120c1612070565b5b828206905092915050565b5f6120d7826118d1565b91506120e2836118d1565b9250826120f2576120f1612070565b5b82820490509291505056fea26469706673582212203398143cc726aca438eb1e01693a81e62ba0e08de726ddc696db6349f9a2c2b464736f6c634300081a0033",
					"opcodes": "PUSH1 0x80 PUSH1 0x40 MSTORE CALLVALUE DUP1 ISZERO PUSH2 0xF JUMPI PUSH0 DUP1 REVERT JUMPDEST POP PUSH1 0x40 MLOAD PUSH2 0x223F CODESIZE SUB DUP1 PUSH2 0x223F DUP4 CODECOPY DUP2 DUP2 ADD PUSH1 0x40 MSTORE DUP2 ADD SWAP1 PUSH2 0x31 SWAP2 SWAP1 PUSH2 0xD4 JUMP JUMPDEST DUP1 PUSH0 DUP1 PUSH2 0x100 EXP DUP2 SLOAD DUP2 PUSH20 0xFFFFFFFFFFFFFFFFFFFFFFFFFFFFFFFFFFFFFFFF MUL NOT AND SWAP1 DUP4 PUSH20 0xFFFFFFFFFFFFFFFFFFFFFFFFFFFFFFFFFFFFFFFF AND MUL OR SWAP1 SSTORE POP POP PUSH2 0xFF JUMP JUMPDEST PUSH0 DUP1 REVERT JUMPDEST PUSH0 PUSH20 0xFFFFFFFFFFFFFFFFFFFFFFFFFFFFFFFFFFFFFFFF DUP3 AND SWAP1 POP SWAP2 SWAP1 POP JUMP JUMPDEST PUSH0 PUSH2 0xA3 DUP3 PUSH2 0x7A JUMP JUMPDEST SWAP1 POP SWAP2 SWAP1 POP JUMP JUMPDEST PUSH2 0xB3 DUP2 PUSH2 0x99 JUMP JUMPDEST DUP2 EQ PUSH2 0xBD JUMPI PUSH0 DUP1 REVERT JUMPDEST POP JUMP JUMPDEST PUSH0 DUP2 MLOAD SWAP1 POP PUSH2 0xCE DUP2 PUSH2 0xAA JUMP JUMPDEST SWAP3 SWAP2 POP POP JUMP JUMPDEST PUSH0 PUSH1 0x20 DUP3 DUP5 SUB SLT ISZERO PUSH2 0xE9 JUMPI PUSH2 0xE8 PUSH2 0x76 JUMP JUMPDEST JUMPDEST PUSH0 PUSH2 0xF6 DUP5 DUP3 DUP6 ADD PUSH2 0xC0 JUMP JUMPDEST SWAP2 POP POP SWAP3 SWAP2 POP POP JUMP JUMPDEST PUSH2 0x2133 DUP1 PUSH2 0x10C PUSH0 CODECOPY PUSH0 RETURN INVALID PUSH1 0x80 PUSH1 0x40 MSTORE PUSH1 0x4 CALLDATASIZE LT PUSH2 0xA6 JUMPI PUSH0 CALLDATALOAD PUSH1 0xE0 SHR DUP1 PUSH4 0x96ED5D86 GT PUSH2 0x63 JUMPI DUP1 PUSH4 0x96ED5D86 EQ PUSH2 0x1D8 JUMPI DUP1 PUSH4 0xA26E1186 EQ PUSH2 0x200 JUMPI DUP1 PUSH4 0xAB4F049A EQ PUSH2 0x21C JUMPI DUP1 PUSH4 0xD3D38193 EQ PUSH2 0x258 JUMPI DUP1 PUSH4 0xF049123E EQ PUSH2 0x294 JUMPI DUP1 PUSH4 0xF2C298BE EQ PUSH2 0x2BC JUMPI PUSH2 0xA6 JUMP JUMPDEST DUP1 PUSH4 0xE50CEE5 EQ PUSH2 0xAA JUMPI DUP1 PUSH4 0x30B39A62 EQ PUSH2 0xE6 JUMPI DUP1 PUSH4 0x609380A2 EQ PUSH2 0x10E JUMPI DUP1 PUSH4 0x8892EBCE EQ PUSH2 0x138 JUMPI DUP1 PUSH4 0x8C7C7CE7 EQ PUSH2 0x174 JUMPI DUP1 PUSH4 0x9262556D EQ PUSH2 0x19C JUMPI JUMPDEST PUSH0 DUP1 REVERT JUMPDEST CALLVALUE DUP1 ISZERO PUSH2 0xB5 JUMPI PUSH0 DUP1 REVERT JUMPDEST POP PUSH2 0xD0 PUSH1 0x4 DUP1 CALLDATASIZE SUB DUP2 ADD SWAP1 PUSH2 0xCB SWAP2 SWAP1 PUSH2 0x1737 JUMP JUMPDEST PUSH2 0x2E4 JUMP JUMPDEST PUSH1 0x40 MLOAD PUSH2 0xDD SWAP2 SWAP1 PUSH2 0x177C JUMP JUMPDEST PUSH1 0x40 MLOAD DUP1 SWAP2 SUB SWAP1 RETURN JUMPDEST CALLVALUE DUP1 ISZERO PUSH2 0xF1 JUMPI PUSH0 DUP1 REVERT JUMPDEST POP PUSH2 0x10C PUSH1 0x4 DUP1 CALLDATASIZE SUB DUP2 ADD SWAP1 PUSH2 0x107 SWAP2 SWAP1 PUSH2 0x1904 JUMP JUMPDEST PUSH2 0x301 JUMP JUMPDEST STOP JUMPDEST CALLVALUE DUP1 ISZERO PUSH2 0x119 JUMPI PUSH0 DUP1 REVERT JUMPDEST POP PUSH2 0x122 PUSH2 0x547 JUMP JUMPDEST PUSH1 0x40 MLOAD PUSH2 0x12F SWAP2 SWAP1 PUSH2 0x196D JUMP JUMPDEST PUSH1 0x40 MLOAD DUP1 SWAP2 SUB SWAP1 RETURN JUMPDEST CALLVALUE DUP1 ISZERO PUSH2 0x143 JUMPI PUSH0 DUP1 REVERT JUMPDEST POP PUSH2 0x15E PUSH1 0x4 DUP1 CALLDATASIZE SUB DUP2 ADD SWAP1 PUSH2 0x159 SWAP2 SWAP1 PUSH2 0x1986 JUMP JUMPDEST PUSH2 0x56A JUMP JUMPDEST PUSH1 0x40 MLOAD PUSH2 0x16B SWAP2 SWAP1 PUSH2 0x19EF JUMP JUMPDEST PUSH1 0x40 MLOAD DUP1 SWAP2 SUB SWAP1 RETURN JUMPDEST CALLVALUE DUP1 ISZERO PUSH2 0x17F JUMPI PUSH0 DUP1 REVERT JUMPDEST POP PUSH2 0x19A PUSH1 0x4 DUP1 CALLDATASIZE SUB DUP2 ADD SWAP1 PUSH2 0x195 SWAP2 SWAP1 PUSH2 0x1A08 JUMP JUMPDEST PUSH2 0x5A2 JUMP JUMPDEST STOP JUMPDEST CALLVALUE DUP1 ISZERO PUSH2 0x1A7 JUMPI PUSH0 DUP1 REVERT JUMPDEST POP PUSH2 0x1C2 PUSH1 0x4 DUP1 CALLDATASIZE SUB DUP2 ADD SWAP1 PUSH2 0x1BD SWAP2 SWAP1 PUSH2 0x1AA4 JUMP JUMPDEST PUSH2 0x934 JUMP JUMPDEST PUSH1 0x40 MLOAD PUSH2 0x1CF SWAP2 SWAP1 PUSH2 0x177C JUMP JUMPDEST PUSH1 0x40 MLOAD DUP1 SWAP2 SUB SWAP1 RETURN JUMPDEST CALLVALUE DUP1 ISZERO PUSH2 0x1E3 JUMPI PUSH0 DUP1 REVERT JUMPDEST POP PUSH2 0x1FE PUSH1 0x4 DUP1 CALLDATASIZE SUB DUP2 ADD SWAP1 PUSH2 0x1F9 SWAP2 SWAP1 PUSH2 0x1AA4 JUMP JUMPDEST PUSH2 0x969 JUMP JUMPDEST STOP JUMPDEST PUSH2 0x21A PUSH1 0x4 DUP1 CALLDATASIZE SUB DUP2 ADD SWAP1 PUSH2 0x215 SWAP2 SWAP1 PUSH2 0x1AA4 JUMP JUMPDEST PUSH2 0xA2E JUMP JUMPDEST STOP JUMPDEST CALLVALUE DUP1 ISZERO PUSH2 0x227 JUMPI PUSH0 DUP1 REVERT JUMPDEST POP PUSH2 0x242 PUSH1 0x4 DUP1 CALLDATASIZE SUB DUP2 ADD SWAP1 PUSH2 0x23D SWAP2 SWAP1 PUSH2 0x1AEB JUMP JUMPDEST PUSH2 0xB93 JUMP JUMPDEST PUSH1 0x40 MLOAD PUSH2 0x24F SWAP2 SWAP1 PUSH2 0x177C JUMP JUMPDEST PUSH1 0x40 MLOAD DUP1 SWAP2 SUB SWAP1 RETURN JUMPDEST CALLVALUE DUP1 ISZERO PUSH2 0x263 JUMPI PUSH0 DUP1 REVERT JUMPDEST POP PUSH2 0x27E PUSH1 0x4 DUP1 CALLDATASIZE SUB DUP2 ADD SWAP1 PUSH2 0x279 SWAP2 SWAP1 PUSH2 0x1737 JUMP JUMPDEST PUSH2 0xED4 JUMP JUMPDEST PUSH1 0x40 MLOAD PUSH2 0x28B SWAP2 SWAP1 PUSH2 0x19EF JUMP JUMPDEST PUSH1 0x40 MLOAD DUP1 SWAP2 SUB SWAP1 RETURN JUMPDEST CALLVALUE DUP1 ISZERO PUSH2 0x29F JUMPI PUSH0 DUP1 REVERT JUMPDEST POP PUSH2 0x2BA PUSH1 0x4 DUP1 CALLDATASIZE SUB DUP2 ADD SWAP1 PUSH2 0x2B5 SWAP2 SWAP1 PUSH2 0x1B29 JUMP JUMPDEST PUSH2 0xF88 JUMP JUMPDEST STOP JUMPDEST CALLVALUE DUP1 ISZERO PUSH2 0x2C7 JUMPI PUSH0 DUP1 REVERT JUMPDEST POP PUSH2 0x2E2 PUSH1 0x4 DUP1 CALLDATASIZE SUB DUP2 ADD SWAP1 PUSH2 0x2DD SWAP2 SWAP1 PUSH2 0x1AA4 JUMP JUMPDEST PUSH2 0x122D JUMP JUMPDEST STOP JUMPDEST PUSH1 0x2 PUSH1 0x20 MSTORE DUP1 PUSH0 MSTORE PUSH1 0x40 PUSH0 KECCAK256 PUSH0 SWAP2 POP SLOAD SWAP1 PUSH2 0x100 EXP SWAP1 DIV PUSH1 0xFF AND DUP2 JUMP JUMPDEST PUSH1 0x2 PUSH0 CALLER PUSH20 0xFFFFFFFFFFFFFFFFFFFFFFFFFFFFFFFFFFFFFFFF AND PUSH20 0xFFFFFFFFFFFFFFFFFFFFFFFFFFFFFFFFFFFFFFFF AND DUP2 MSTORE PUSH1 0x20 ADD SWAP1 DUP2 MSTORE PUSH1 0x20 ADD PUSH0 KECCAK256 PUSH0 SWAP1 SLOAD SWAP1 PUSH2 0x100 EXP SWAP1 DIV PUSH1 0xFF AND PUSH2 0x38A JUMPI PUSH1 0x40 MLOAD PUSH32 0x8C379A000000000000000000000000000000000000000000000000000000000 DUP2 MSTORE PUSH1 0x4 ADD PUSH2 0x381 SWAP1 PUSH2 0x1C0B JUMP JUMPDEST PUSH1 0x40 MLOAD DUP1 SWAP2 SUB SWAP1 REVERT JUMPDEST PUSH1 0x1 DUP3 PUSH1 0x40 MLOAD PUSH2 0x39A SWAP2 SWAP1 PUSH2 0x1C7B JUMP JUMPDEST SWAP1 DUP2 MSTORE PUSH1 0x20 ADD PUSH1 0x40 MLOAD DUP1 SWAP2 SUB SWAP1 KECCAK256 PUSH0 SWAP1 SLOAD SWAP1 PUSH2 0x100 EXP SWAP1 DIV PUSH1 0xFF AND PUSH2 0x3F4 JUMPI PUSH1 0x40 MLOAD PUSH32 0x8C379A000000000000000000000000000000000000000000000000000000000 DUP2 MSTORE PUSH1 0x4 ADD PUSH2 0x3EB SWAP1 PUSH2 0x1CDB JUMP JUMPDEST PUSH1 0x40 MLOAD DUP1 SWAP2 SUB SWAP1 REVERT JUMPDEST DUP1 PUSH1 0x3 DUP4 PUSH1 0x40 MLOAD PUSH2 0x405 SWAP2 SWAP1 PUSH2 0x1C7B JUMP JUMPDEST SWAP1 DUP2 MSTORE PUSH1 0x20 ADD PUSH1 0x40 MLOAD DUP1 SWAP2 SUB SWAP1 KECCAK256 PUSH0 CALLER PUSH20 0xFFFFFFFFFFFFFFFFFFFFFFFFFFFFFFFFFFFFFFFF AND PUSH20 0xFFFFFFFFFFFFFFFFFFFFFFFFFFFFFFFFFFFFFFFF AND DUP2 MSTORE PUSH1 0x20 ADD SWAP1 DUP2 MSTORE PUSH1 0x20 ADD PUSH0 KECCAK256 SLOAD LT ISZERO PUSH2 0x490 JUMPI PUSH1 0x40 MLOAD PUSH32 0x8C379A000000000000000000000000000000000000000000000000000000000 DUP2 MSTORE PUSH1 0x4 ADD PUSH2 0x487 SWAP1 PUSH2 0x1D43 JUMP JUMPDEST PUSH1 0x40 MLOAD DUP1 SWAP2 SUB SWAP1 REVERT JUMPDEST DUP1 PUSH1 0x3 DUP4 PUSH1 0x40 MLOAD PUSH2 0x4A1 SWAP2 SWAP1 PUSH2 0x1C7B JUMP JUMPDEST SWAP1 DUP2 MSTORE PUSH1 0x20 ADD PUSH1 0x40 MLOAD DUP1 SWAP2 SUB SWAP1 KECCAK256 PUSH0 CALLER PUSH20 0xFFFFFFFFFFFFFFFFFFFFFFFFFFFFFFFFFFFFFFFF AND PUSH20 0xFFFFFFFFFFFFFFFFFFFFFFFFFFFFFFFFFFFFFFFF AND DUP2 MSTORE PUSH1 0x20 ADD SWAP1 DUP2 MSTORE PUSH1 0x20 ADD PUSH0 KECCAK256 PUSH0 DUP3 DUP3 SLOAD PUSH2 0x4F8 SWAP2 SWAP1 PUSH2 0x1D8E JUMP JUMPDEST SWAP3 POP POP DUP2 SWAP1 SSTORE POP CALLER PUSH20 0xFFFFFFFFFFFFFFFFFFFFFFFFFFFFFFFFFFFFFFFF AND PUSH2 0x8FC DUP3 SWAP1 DUP2 ISZERO MUL SWAP1 PUSH1 0x40 MLOAD PUSH0 PUSH1 0x40 MLOAD DUP1 DUP4 SUB DUP2 DUP6 DUP9 DUP9 CALL SWAP4 POP POP POP POP ISZERO DUP1 ISZERO PUSH2 0x542 JUMPI RETURNDATASIZE PUSH0 DUP1 RETURNDATACOPY RETURNDATASIZE PUSH0 REVERT JUMPDEST POP POP POP JUMP JUMPDEST PUSH0 DUP1 SLOAD SWAP1 PUSH2 0x100 EXP SWAP1 DIV PUSH20 0xFFFFFFFFFFFFFFFFFFFFFFFFFFFFFFFFFFFFFFFF AND DUP2 JUMP JUMPDEST PUSH1 0x3 DUP3 DUP1 MLOAD PUSH1 0x20 DUP2 ADD DUP3 ADD DUP1 MLOAD DUP5 DUP3 MSTORE PUSH1 0x20 DUP4 ADD PUSH1 0x20 DUP6 ADD KECCAK256 DUP2 DUP4 MSTORE DUP1 SWAP6 POP POP POP POP POP POP PUSH1 0x20 MSTORE DUP1 PUSH0 MSTORE PUSH1 0x40 PUSH0 KECCAK256 PUSH0 SWAP2 POP SWAP2 POP POP SLOAD DUP2 JUMP JUMPDEST PUSH1 0x2 PUSH0 CALLER PUSH20 0xFFFFFFFFFFFFFFFFFFFFFFFFFFFFFFFFFFFFFFFF AND PUSH20 0xFFFFFFFFFFFFFFFFFFFFFFFFFFFFFFFFFFFFFFFF AND DUP2 MSTORE PUSH1 0x20 ADD SWAP1 DUP2 MSTORE PUSH1 0x20 ADD PUSH0 KECCAK256 PUSH0 SWAP1 SLOAD SWAP1 PUSH2 0x100 EXP SWAP1 DIV PUSH1 0xFF AND DUP1 ISZERO PUSH2 0x63E JUMPI POP PUSH1 0x2 PUSH0 DUP4 PUSH20 0xFFFFFFFFFFFFFFFFFFFFFFFFFFFFFFFFFFFFFFFF AND PUSH20 0xFFFFFFFFFFFFFFFFFFFFFFFFFFFFFFFFFFFFFFFF AND DUP2 MSTORE PUSH1 0x20 ADD SWAP1 DUP2 MSTORE PUSH1 0x20 ADD PUSH0 KECCAK256 PUSH0 SWAP1 SLOAD SWAP1 PUSH2 0x100 EXP SWAP1 DIV PUSH1 0xFF AND JUMPDEST PUSH2 0x67D JUMPI PUSH1 0x40 MLOAD PUSH32 0x8C379A000000000000000000000000000000000000000000000000000000000 DUP2 MSTORE PUSH1 0x4 ADD PUSH2 0x674 SWAP1 PUSH2 0x1E0B JUMP JUMPDEST PUSH1 0x40 MLOAD DUP1 SWAP2 SUB SWAP1 REVERT JUMPDEST PUSH1 0x1 DUP5 PUSH1 0x40 MLOAD PUSH2 0x68D SWAP2 SWAP1 PUSH2 0x1C7B JUMP JUMPDEST SWAP1 DUP2 MSTORE PUSH1 0x20 ADD PUSH1 0x40 MLOAD DUP1 SWAP2 SUB SWAP1 KECCAK256 PUSH0 SWAP1 SLOAD SWAP1 PUSH2 0x100 EXP SWAP1 DIV PUSH1 0xFF AND DUP1 ISZERO PUSH2 0x6DB JUMPI POP PUSH1 0x1 DUP4 PUSH1 0x40 MLOAD PUSH2 0x6BF SWAP2 SWAP1 PUSH2 0x1C7B JUMP JUMPDEST SWAP1 DUP2 MSTORE PUSH1 0x20 ADD PUSH1 0x40 MLOAD DUP1 SWAP2 SUB SWAP1 KECCAK256 PUSH0 SWAP1 SLOAD SWAP1 PUSH2 0x100 EXP SWAP1 DIV PUSH1 0xFF AND JUMPDEST PUSH2 0x71A JUMPI PUSH1 0x40 MLOAD PUSH32 0x8C379A000000000000000000000000000000000000000000000000000000000 DUP2 MSTORE PUSH1 0x4 ADD PUSH2 0x711 SWAP1 PUSH2 0x1E73 JUMP JUMPDEST PUSH1 0x40 MLOAD DUP1 SWAP2 SUB SWAP1 REVERT JUMPDEST PUSH7 0x38D7EA4C68000 DUP2 PUSH2 0x72D SWAP2 SWAP1 PUSH2 0x1E91 JUMP JUMPDEST PUSH1 0x3 DUP6 PUSH1 0x40 MLOAD PUSH2 0x73D SWAP2 SWAP1 PUSH2 0x1C7B JUMP JUMPDEST SWAP1 DUP2 MSTORE PUSH1 0x20 ADD PUSH1 0x40 MLOAD DUP1 SWAP2 SUB SWAP1 KECCAK256 PUSH0 CALLER PUSH20 0xFFFFFFFFFFFFFFFFFFFFFFFFFFFFFFFFFFFFFFFF AND PUSH20 0xFFFFFFFFFFFFFFFFFFFFFFFFFFFFFFFFFFFFFFFF AND DUP2 MSTORE PUSH1 0x20 ADD SWAP1 DUP2 MSTORE PUSH1 0x20 ADD PUSH0 KECCAK256 SLOAD LT ISZERO PUSH2 0x7C8 JUMPI PUSH1 0x40 MLOAD PUSH32 0x8C379A000000000000000000000000000000000000000000000000000000000 DUP2 MSTORE PUSH1 0x4 ADD PUSH2 0x7BF SWAP1 PUSH2 0x1D43 JUMP JUMPDEST PUSH1 0x40 MLOAD DUP1 SWAP2 SUB SWAP1 REVERT JUMPDEST PUSH7 0x38D7EA4C68000 DUP2 PUSH2 0x7DB SWAP2 SWAP1 PUSH2 0x1E91 JUMP JUMPDEST PUSH1 0x3 DUP6 PUSH1 0x40 MLOAD PUSH2 0x7EB SWAP2 SWAP1 PUSH2 0x1C7B JUMP JUMPDEST SWAP1 DUP2 MSTORE PUSH1 0x20 ADD PUSH1 0x40 MLOAD DUP1 SWAP2 SUB SWAP1 KECCAK256 PUSH0 CALLER PUSH20 0xFFFFFFFFFFFFFFFFFFFFFFFFFFFFFFFFFFFFFFFF AND PUSH20 0xFFFFFFFFFFFFFFFFFFFFFFFFFFFFFFFFFFFFFFFF AND DUP2 MSTORE PUSH1 0x20 ADD SWAP1 DUP2 MSTORE PUSH1 0x20 ADD PUSH0 KECCAK256 PUSH0 DUP3 DUP3 SLOAD PUSH2 0x842 SWAP2 SWAP1 PUSH2 0x1D8E JUMP JUMPDEST SWAP3 POP POP DUP2 SWAP1 SSTORE POP DUP1 PUSH1 0x3 DUP5 PUSH1 0x40 MLOAD PUSH2 0x85A SWAP2 SWAP1 PUSH2 0x1C7B JUMP JUMPDEST SWAP1 DUP2 MSTORE PUSH1 0x20 ADD PUSH1 0x40 MLOAD DUP1 SWAP2 SUB SWAP1 KECCAK256 PUSH0 DUP5 PUSH20 0xFFFFFFFFFFFFFFFFFFFFFFFFFFFFFFFFFFFFFFFF AND PUSH20 0xFFFFFFFFFFFFFFFFFFFFFFFFFFFFFFFFFFFFFFFF AND DUP2 MSTORE PUSH1 0x20 ADD SWAP1 DUP2 MSTORE PUSH1 0x20 ADD PUSH0 KECCAK256 PUSH0 DUP3 DUP3 SLOAD PUSH2 0x8B1 SWAP2 SWAP1 PUSH2 0x1E91 JUMP JUMPDEST SWAP3 POP POP DUP2 SWAP1 SSTORE POP PUSH7 0x38D7EA4C68000 PUSH1 0x3 DUP6 PUSH1 0x40 MLOAD PUSH2 0x8D0 SWAP2 SWAP1 PUSH2 0x1C7B JUMP JUMPDEST SWAP1 DUP2 MSTORE PUSH1 0x20 ADD PUSH1 0x40 MLOAD DUP1 SWAP2 SUB SWAP1 KECCAK256 PUSH0 ADDRESS PUSH20 0xFFFFFFFFFFFFFFFFFFFFFFFFFFFFFFFFFFFFFFFF AND PUSH20 0xFFFFFFFFFFFFFFFFFFFFFFFFFFFFFFFFFFFFFFFF AND DUP2 MSTORE PUSH1 0x20 ADD SWAP1 DUP2 MSTORE PUSH1 0x20 ADD PUSH0 KECCAK256 PUSH0 DUP3 DUP3 SLOAD PUSH2 0x927 SWAP2 SWAP1 PUSH2 0x1E91 JUMP JUMPDEST SWAP3 POP POP DUP2 SWAP1 SSTORE POP POP POP POP POP JUMP JUMPDEST PUSH1 0x1 DUP2 DUP1 MLOAD PUSH1 0x20 DUP2 ADD DUP3 ADD DUP1 MLOAD DUP5 DUP3 MSTORE PUSH1 0x20 DUP4 ADD PUSH1 0x20 DUP6 ADD KECCAK256 DUP2 DUP4 MSTORE DUP1 SWAP6 POP POP POP POP POP POP PUSH0 SWAP2 POP SLOAD SWAP1 PUSH2 0x100 EXP SWAP1 DIV PUSH1 0xFF AND DUP2 JUMP JUMPDEST PUSH0 DUP1 SLOAD SWAP1 PUSH2 0x100 EXP SWAP1 DIV PUSH20 0xFFFFFFFFFFFFFFFFFFFFFFFFFFFFFFFFFFFFFFFF AND PUSH20 0xFFFFFFFFFFFFFFFFFFFFFFFFFFFFFFFFFFFFFFFF AND CALLER PUSH20 0xFFFFFFFFFFFFFFFFFFFFFFFFFFFFFFFFFFFFFFFF AND EQ PUSH2 0x9F6 JUMPI PUSH1 0x40 MLOAD PUSH32 0x8C379A000000000000000000000000000000000000000000000000000000000 DUP2 MSTORE PUSH1 0x4 ADD PUSH2 0x9ED SWAP1 PUSH2 0x1F0E JUMP JUMPDEST PUSH1 0x40 MLOAD DUP1 SWAP2 SUB SWAP1 REVERT JUMPDEST PUSH1 0x1 DUP1 DUP3 PUSH1 0x40 MLOAD PUSH2 0xA07 SWAP2 SWAP1 PUSH2 0x1C7B JUMP JUMPDEST SWAP1 DUP2 MSTORE PUSH1 0x20 ADD PUSH1 0x40 MLOAD DUP1 SWAP2 SUB SWAP1 KECCAK256 PUSH0 PUSH2 0x100 EXP DUP2 SLOAD DUP2 PUSH1 0xFF MUL NOT AND SWAP1 DUP4 ISZERO ISZERO MUL OR SWAP1 SSTORE POP POP JUMP JUMPDEST PUSH1 0x2 PUSH0 CALLER PUSH20 0xFFFFFFFFFFFFFFFFFFFFFFFFFFFFFFFFFFFFFFFF AND PUSH20 0xFFFFFFFFFFFFFFFFFFFFFFFFFFFFFFFFFFFFFFFF AND DUP2 MSTORE PUSH1 0x20 ADD SWAP1 DUP2 MSTORE PUSH1 0x20 ADD PUSH0 KECCAK256 PUSH0 SWAP1 SLOAD SWAP1 PUSH2 0x100 EXP SWAP1 DIV PUSH1 0xFF AND PUSH2 0xAB7 JUMPI PUSH1 0x40 MLOAD PUSH32 0x8C379A000000000000000000000000000000000000000000000000000000000 DUP2 MSTORE PUSH1 0x4 ADD PUSH2 0xAAE SWAP1 PUSH2 0x1C0B JUMP JUMPDEST PUSH1 0x40 MLOAD DUP1 SWAP2 SUB SWAP1 REVERT JUMPDEST PUSH1 0x1 DUP2 PUSH1 0x40 MLOAD PUSH2 0xAC7 SWAP2 SWAP1 PUSH2 0x1C7B JUMP JUMPDEST SWAP1 DUP2 MSTORE PUSH1 0x20 ADD PUSH1 0x40 MLOAD DUP1 SWAP2 SUB SWAP1 KECCAK256 PUSH0 SWAP1 SLOAD SWAP1 PUSH2 0x100 EXP SWAP1 DIV PUSH1 0xFF AND PUSH2 0xB21 JUMPI PUSH1 0x40 MLOAD PUSH32 0x8C379A000000000000000000000000000000000000000000000000000000000 DUP2 MSTORE PUSH1 0x4 ADD PUSH2 0xB18 SWAP1 PUSH2 0x1CDB JUMP JUMPDEST PUSH1 0x40 MLOAD DUP1 SWAP2 SUB SWAP1 REVERT JUMPDEST CALLVALUE PUSH1 0x3 DUP3 PUSH1 0x40 MLOAD PUSH2 0xB32 SWAP2 SWAP1 PUSH2 0x1C7B JUMP JUMPDEST SWAP1 DUP2 MSTORE PUSH1 0x20 ADD PUSH1 0x40 MLOAD DUP1 SWAP2 SUB SWAP1 KECCAK256 PUSH0 CALLER PUSH20 0xFFFFFFFFFFFFFFFFFFFFFFFFFFFFFFFFFFFFFFFF AND PUSH20 0xFFFFFFFFFFFFFFFFFFFFFFFFFFFFFFFFFFFFFFFF AND DUP2 MSTORE PUSH1 0x20 ADD SWAP1 DUP2 MSTORE PUSH1 0x20 ADD PUSH0 KECCAK256 PUSH0 DUP3 DUP3 SLOAD PUSH2 0xB89 SWAP2 SWAP1 PUSH2 0x1E91 JUMP JUMPDEST SWAP3 POP POP DUP2 SWAP1 SSTORE POP POP JUMP JUMPDEST PUSH0 DUP1 PUSH0 SWAP1 SLOAD SWAP1 PUSH2 0x100 EXP SWAP1 DIV PUSH20 0xFFFFFFFFFFFFFFFFFFFFFFFFFFFFFFFFFFFFFFFF AND PUSH20 0xFFFFFFFFFFFFFFFFFFFFFFFFFFFFFFFFFFFFFFFF AND CALLER PUSH20 0xFFFFFFFFFFFFFFFFFFFFFFFFFFFFFFFFFFFFFFFF AND EQ PUSH2 0xC22 JUMPI PUSH1 0x40 MLOAD PUSH32 0x8C379A000000000000000000000000000000000000000000000000000000000 DUP2 MSTORE PUSH1 0x4 ADD PUSH2 0xC19 SWAP1 PUSH2 0x1F76 JUMP JUMPDEST PUSH1 0x40 MLOAD DUP1 SWAP2 SUB SWAP1 REVERT JUMPDEST PUSH0 PUSH2 0xC2B PUSH2 0x1379 JUMP JUMPDEST SWAP1 POP PUSH0 JUMPDEST DUP2 MLOAD DUP2 LT ISZERO PUSH2 0xEC8 JUMPI DUP4 PUSH1 0x3 DUP4 DUP4 DUP2 MLOAD DUP2 LT PUSH2 0xC4E JUMPI PUSH2 0xC4D PUSH2 0x1F94 JUMP JUMPDEST JUMPDEST PUSH1 0x20 MUL PUSH1 0x20 ADD ADD MLOAD PUSH1 0x40 MLOAD PUSH2 0xC63 SWAP2 SWAP1 PUSH2 0x1C7B JUMP JUMPDEST SWAP1 DUP2 MSTORE PUSH1 0x20 ADD PUSH1 0x40 MLOAD DUP1 SWAP2 SUB SWAP1 KECCAK256 PUSH0 DUP8 PUSH20 0xFFFFFFFFFFFFFFFFFFFFFFFFFFFFFFFFFFFFFFFF AND PUSH20 0xFFFFFFFFFFFFFFFFFFFFFFFFFFFFFFFFFFFFFFFF AND DUP2 MSTORE PUSH1 0x20 ADD SWAP1 DUP2 MSTORE PUSH1 0x20 ADD PUSH0 KECCAK256 SLOAD LT PUSH2 0xD46 JUMPI DUP4 PUSH1 0x3 DUP4 DUP4 DUP2 MLOAD DUP2 LT PUSH2 0xCC8 JUMPI PUSH2 0xCC7 PUSH2 0x1F94 JUMP JUMPDEST JUMPDEST PUSH1 0x20 MUL PUSH1 0x20 ADD ADD MLOAD PUSH1 0x40 MLOAD PUSH2 0xCDD SWAP2 SWAP1 PUSH2 0x1C7B JUMP JUMPDEST SWAP1 DUP2 MSTORE PUSH1 0x20 ADD PUSH1 0x40 MLOAD DUP1 SWAP2 SUB SWAP1 KECCAK256 PUSH0 DUP8 PUSH20 0xFFFFFFFFFFFFFFFFFFFFFFFFFFFFFFFFFFFFFFFF AND PUSH20 0xFFFFFFFFFFFFFFFFFFFFFFFFFFFFFFFFFFFFFFFF AND DUP2 MSTORE PUSH1 0x20 ADD SWAP1 DUP2 MSTORE PUSH1 0x20 ADD PUSH0 KECCAK256 PUSH0 DUP3 DUP3 SLOAD PUSH2 0xD34 SWAP2 SWAP1 PUSH2 0x1D8E JUMP JUMPDEST SWAP3 POP POP DUP2 SWAP1 SSTORE POP PUSH1 0x1 SWAP3 POP POP POP PUSH2 0xECE JUMP JUMPDEST PUSH0 PUSH1 0x3 DUP4 DUP4 DUP2 MLOAD DUP2 LT PUSH2 0xD5C JUMPI PUSH2 0xD5B PUSH2 0x1F94 JUMP JUMPDEST JUMPDEST PUSH1 0x20 MUL PUSH1 0x20 ADD ADD MLOAD PUSH1 0x40 MLOAD PUSH2 0xD71 SWAP2 SWAP1 PUSH2 0x1C7B JUMP JUMPDEST SWAP1 DUP2 MSTORE PUSH1 0x20 ADD PUSH1 0x40 MLOAD DUP1 SWAP2 SUB SWAP1 KECCAK256 PUSH0 DUP8 PUSH20 0xFFFFFFFFFFFFFFFFFFFFFFFFFFFFFFFFFFFFFFFF AND PUSH20 0xFFFFFFFFFFFFFFFFFFFFFFFFFFFFFFFFFFFFFFFF AND DUP2 MSTORE PUSH1 0x20 ADD SWAP1 DUP2 MSTORE PUSH1 0x20 ADD PUSH0 KECCAK256 SLOAD GT ISZERO PUSH2 0xEBB JUMPI PUSH1 0x3 DUP3 DUP3 DUP2 MLOAD DUP2 LT PUSH2 0xDD6 JUMPI PUSH2 0xDD5 PUSH2 0x1F94 JUMP JUMPDEST JUMPDEST PUSH1 0x20 MUL PUSH1 0x20 ADD ADD MLOAD PUSH1 0x40 MLOAD PUSH2 0xDEB SWAP2 SWAP1 PUSH2 0x1C7B JUMP JUMPDEST SWAP1 DUP2 MSTORE PUSH1 0x20 ADD PUSH1 0x40 MLOAD DUP1 SWAP2 SUB SWAP1 KECCAK256 PUSH0 DUP7 PUSH20 0xFFFFFFFFFFFFFFFFFFFFFFFFFFFFFFFFFFFFFFFF AND PUSH20 0xFFFFFFFFFFFFFFFFFFFFFFFFFFFFFFFFFFFFFFFF AND DUP2 MSTORE PUSH1 0x20 ADD SWAP1 DUP2 MSTORE PUSH1 0x20 ADD PUSH0 KECCAK256 SLOAD DUP5 PUSH2 0xE40 SWAP2 SWAP1 PUSH2 0x1D8E JUMP JUMPDEST SWAP4 POP PUSH0 PUSH1 0x3 DUP4 DUP4 DUP2 MLOAD DUP2 LT PUSH2 0xE58 JUMPI PUSH2 0xE57 PUSH2 0x1F94 JUMP JUMPDEST JUMPDEST PUSH1 0x20 MUL PUSH1 0x20 ADD ADD MLOAD PUSH1 0x40 MLOAD PUSH2 0xE6D SWAP2 SWAP1 PUSH2 0x1C7B JUMP JUMPDEST SWAP1 DUP2 MSTORE PUSH1 0x20 ADD PUSH1 0x40 MLOAD DUP1 SWAP2 SUB SWAP1 KECCAK256 PUSH0 DUP8 PUSH20 0xFFFFFFFFFFFFFFFFFFFFFFFFFFFFFFFFFFFFFFFF AND PUSH20 0xFFFFFFFFFFFFFFFFFFFFFFFFFFFFFFFFFFFFFFFF AND DUP2 MSTORE PUSH1 0x20 ADD SWAP1 DUP2 MSTORE PUSH1 0x20 ADD PUSH0 KECCAK256 DUP2 SWAP1 SSTORE POP JUMPDEST DUP1 DUP1 PUSH1 0x1 ADD SWAP2 POP POP PUSH2 0xC2F JUMP JUMPDEST POP PUSH0 SWAP2 POP POP JUMPDEST SWAP3 SWAP2 POP POP JUMP JUMPDEST PUSH0 DUP1 PUSH0 SWAP1 POP PUSH0 PUSH2 0xEE2 PUSH2 0x1379 JUMP JUMPDEST SWAP1 POP PUSH0 JUMPDEST DUP2 MLOAD DUP2 LT ISZERO PUSH2 0xF7D JUMPI PUSH1 0x3 DUP3 DUP3 DUP2 MLOAD DUP2 LT PUSH2 0xF04 JUMPI PUSH2 0xF03 PUSH2 0x1F94 JUMP JUMPDEST JUMPDEST PUSH1 0x20 MUL PUSH1 0x20 ADD ADD MLOAD PUSH1 0x40 MLOAD PUSH2 0xF19 SWAP2 SWAP1 PUSH2 0x1C7B JUMP JUMPDEST SWAP1 DUP2 MSTORE PUSH1 0x20 ADD PUSH1 0x40 MLOAD DUP1 SWAP2 SUB SWAP1 KECCAK256 PUSH0 DUP7 PUSH20 0xFFFFFFFFFFFFFFFFFFFFFFFFFFFFFFFFFFFFFFFF AND PUSH20 0xFFFFFFFFFFFFFFFFFFFFFFFFFFFFFFFFFFFFFFFF AND DUP2 MSTORE PUSH1 0x20 ADD SWAP1 DUP2 MSTORE PUSH1 0x20 ADD PUSH0 KECCAK256 SLOAD DUP4 PUSH2 0xF6E SWAP2 SWAP1 PUSH2 0x1E91 JUMP JUMPDEST SWAP3 POP DUP1 DUP1 PUSH1 0x1 ADD SWAP2 POP POP PUSH2 0xEE6 JUMP JUMPDEST POP DUP2 SWAP3 POP POP POP SWAP2 SWAP1 POP JUMP JUMPDEST PUSH1 0x2 PUSH0 CALLER PUSH20 0xFFFFFFFFFFFFFFFFFFFFFFFFFFFFFFFFFFFFFFFF AND PUSH20 0xFFFFFFFFFFFFFFFFFFFFFFFFFFFFFFFFFFFFFFFF AND DUP2 MSTORE PUSH1 0x20 ADD SWAP1 DUP2 MSTORE PUSH1 0x20 ADD PUSH0 KECCAK256 PUSH0 SWAP1 SLOAD SWAP1 PUSH2 0x100 EXP SWAP1 DIV PUSH1 0xFF AND PUSH2 0x1011 JUMPI PUSH1 0x40 MLOAD PUSH32 0x8C379A000000000000000000000000000000000000000000000000000000000 DUP2 MSTORE PUSH1 0x4 ADD PUSH2 0x1008 SWAP1 PUSH2 0x1C0B JUMP JUMPDEST PUSH1 0x40 MLOAD DUP1 SWAP2 SUB SWAP1 REVERT JUMPDEST PUSH1 0x1 DUP4 PUSH1 0x40 MLOAD PUSH2 0x1021 SWAP2 SWAP1 PUSH2 0x1C7B JUMP JUMPDEST SWAP1 DUP2 MSTORE PUSH1 0x20 ADD PUSH1 0x40 MLOAD DUP1 SWAP2 SUB SWAP1 KECCAK256 PUSH0 SWAP1 SLOAD SWAP1 PUSH2 0x100 EXP SWAP1 DIV PUSH1 0xFF AND DUP1 ISZERO PUSH2 0x106F JUMPI POP PUSH1 0x1 DUP3 PUSH1 0x40 MLOAD PUSH2 0x1053 SWAP2 SWAP1 PUSH2 0x1C7B JUMP JUMPDEST SWAP1 DUP2 MSTORE PUSH1 0x20 ADD PUSH1 0x40 MLOAD DUP1 SWAP2 SUB SWAP1 KECCAK256 PUSH0 SWAP1 SLOAD SWAP1 PUSH2 0x100 EXP SWAP1 DIV PUSH1 0xFF AND JUMPDEST PUSH2 0x10AE JUMPI PUSH1 0x40 MLOAD PUSH32 0x8C379A000000000000000000000000000000000000000000000000000000000 DUP2 MSTORE PUSH1 0x4 ADD PUSH2 0x10A5 SWAP1 PUSH2 0x1E73 JUMP JUMPDEST PUSH1 0x40 MLOAD DUP1 SWAP2 SUB SWAP1 REVERT JUMPDEST DUP1 PUSH1 0x3 DUP5 PUSH1 0x40 MLOAD PUSH2 0x10BF SWAP2 SWAP1 PUSH2 0x1C7B JUMP JUMPDEST SWAP1 DUP2 MSTORE PUSH1 0x20 ADD PUSH1 0x40 MLOAD DUP1 SWAP2 SUB SWAP1 KECCAK256 PUSH0 CALLER PUSH20 0xFFFFFFFFFFFFFFFFFFFFFFFFFFFFFFFFFFFFFFFF AND PUSH20 0xFFFFFFFFFFFFFFFFFFFFFFFFFFFFFFFFFFFFFFFF AND DUP2 MSTORE PUSH1 0x20 ADD SWAP1 DUP2 MSTORE PUSH1 0x20 ADD PUSH0 KECCAK256 SLOAD LT ISZERO PUSH2 0x114A JUMPI PUSH1 0x40 MLOAD PUSH32 0x8C379A000000000000000000000000000000000000000000000000000000000 DUP2 MSTORE PUSH1 0x4 ADD PUSH2 0x1141 SWAP1 PUSH2 0x1D43 JUMP JUMPDEST PUSH1 0x40 MLOAD DUP1 SWAP2 SUB SWAP1 REVERT JUMPDEST DUP1 PUSH1 0x3 DUP5 PUSH1 0x40 MLOAD PUSH2 0x115B SWAP2 SWAP1 PUSH2 0x1C7B JUMP JUMPDEST SWAP1 DUP2 MSTORE PUSH1 0x20 ADD PUSH1 0x40 MLOAD DUP1 SWAP2 SUB SWAP1 KECCAK256 PUSH0 CALLER PUSH20 0xFFFFFFFFFFFFFFFFFFFFFFFFFFFFFFFFFFFFFFFF AND PUSH20 0xFFFFFFFFFFFFFFFFFFFFFFFFFFFFFFFFFFFFFFFF AND DUP2 MSTORE PUSH1 0x20 ADD SWAP1 DUP2 MSTORE PUSH1 0x20 ADD PUSH0 KECCAK256 PUSH0 DUP3 DUP3 SLOAD PUSH2 0x11B2 SWAP2 SWAP1 PUSH2 0x1D8E JUMP JUMPDEST SWAP3 POP POP DUP2 SWAP1 SSTORE POP DUP1 PUSH1 0x3 DUP4 PUSH1 0x40 MLOAD PUSH2 0x11CA SWAP2 SWAP1 PUSH2 0x1C7B JUMP JUMPDEST SWAP1 DUP2 MSTORE PUSH1 0x20 ADD PUSH1 0x40 MLOAD DUP1 SWAP2 SUB SWAP1 KECCAK256 PUSH0 CALLER PUSH20 0xFFFFFFFFFFFFFFFFFFFFFFFFFFFFFFFFFFFFFFFF AND PUSH20 0xFFFFFFFFFFFFFFFFFFFFFFFFFFFFFFFFFFFFFFFF AND DUP2 MSTORE PUSH1 0x20 ADD SWAP1 DUP2 MSTORE PUSH1 0x20 ADD PUSH0 KECCAK256 PUSH0 DUP3 DUP3 SLOAD PUSH2 0x1221 SWAP2 SWAP1 PUSH2 0x1E91 JUMP JUMPDEST SWAP3 POP POP DUP2 SWAP1 SSTORE POP POP POP POP JUMP JUMPDEST PUSH1 0x1 DUP2 PUSH1 0x40 MLOAD PUSH2 0x123D SWAP2 SWAP1 PUSH2 0x1C7B JUMP JUMPDEST SWAP1 DUP2 MSTORE PUSH1 0x20 ADD PUSH1 0x40 MLOAD DUP1 SWAP2 SUB SWAP1 KECCAK256 PUSH0 SWAP1 SLOAD SWAP1 PUSH2 0x100 EXP SWAP1 DIV PUSH1 0xFF AND PUSH2 0x1297 JUMPI PUSH1 0x40 MLOAD PUSH32 0x8C379A000000000000000000000000000000000000000000000000000000000 DUP2 MSTORE PUSH1 0x4 ADD PUSH2 0x128E SWAP1 PUSH2 0x1CDB JUMP JUMPDEST PUSH1 0x40 MLOAD DUP1 SWAP2 SUB SWAP1 REVERT JUMPDEST PUSH1 0x2 PUSH0 CALLER PUSH20 0xFFFFFFFFFFFFFFFFFFFFFFFFFFFFFFFFFFFFFFFF AND PUSH20 0xFFFFFFFFFFFFFFFFFFFFFFFFFFFFFFFFFFFFFFFF AND DUP2 MSTORE PUSH1 0x20 ADD SWAP1 DUP2 MSTORE PUSH1 0x20 ADD PUSH0 KECCAK256 PUSH0 SWAP1 SLOAD SWAP1 PUSH2 0x100 EXP SWAP1 DIV PUSH1 0xFF AND ISZERO PUSH2 0x1321 JUMPI PUSH1 0x40 MLOAD PUSH32 0x8C379A000000000000000000000000000000000000000000000000000000000 DUP2 MSTORE PUSH1 0x4 ADD PUSH2 0x1318 SWAP1 PUSH2 0x200B JUMP JUMPDEST PUSH1 0x40 MLOAD DUP1 SWAP2 SUB SWAP1 REVERT JUMPDEST PUSH1 0x1 PUSH1 0x2 PUSH0 CALLER PUSH20 0xFFFFFFFFFFFFFFFFFFFFFFFFFFFFFFFFFFFFFFFF AND PUSH20 0xFFFFFFFFFFFFFFFFFFFFFFFFFFFFFFFFFFFFFFFF AND DUP2 MSTORE PUSH1 0x20 ADD SWAP1 DUP2 MSTORE PUSH1 0x20 ADD PUSH0 KECCAK256 PUSH0 PUSH2 0x100 EXP DUP2 SLOAD DUP2 PUSH1 0xFF MUL NOT AND SWAP1 DUP4 ISZERO ISZERO MUL OR SWAP1 SSTORE POP POP JUMP JUMPDEST PUSH1 0x60 PUSH0 DUP1 JUMPDEST PUSH1 0x64 DUP2 LT ISZERO PUSH2 0x13DB JUMPI PUSH1 0x1 PUSH2 0x1392 DUP3 PUSH2 0x14BB JUMP JUMPDEST PUSH1 0x40 MLOAD PUSH2 0x139F SWAP2 SWAP1 PUSH2 0x1C7B JUMP JUMPDEST SWAP1 DUP2 MSTORE PUSH1 0x20 ADD PUSH1 0x40 MLOAD DUP1 SWAP2 SUB SWAP1 KECCAK256 PUSH0 SWAP1 SLOAD SWAP1 PUSH2 0x100 EXP SWAP1 DIV PUSH1 0xFF AND ISZERO PUSH2 0x13CE JUMPI DUP2 DUP1 PUSH2 0x13CA SWAP1 PUSH2 0x2029 JUMP JUMPDEST SWAP3 POP POP JUMPDEST DUP1 DUP1 PUSH1 0x1 ADD SWAP2 POP POP PUSH2 0x137E JUMP JUMPDEST POP PUSH0 DUP2 PUSH8 0xFFFFFFFFFFFFFFFF DUP2 GT ISZERO PUSH2 0x13F7 JUMPI PUSH2 0x13F6 PUSH2 0x17AD JUMP JUMPDEST JUMPDEST PUSH1 0x40 MLOAD SWAP1 DUP1 DUP3 MSTORE DUP1 PUSH1 0x20 MUL PUSH1 0x20 ADD DUP3 ADD PUSH1 0x40 MSTORE DUP1 ISZERO PUSH2 0x142A JUMPI DUP2 PUSH1 0x20 ADD JUMPDEST PUSH1 0x60 DUP2 MSTORE PUSH1 0x20 ADD SWAP1 PUSH1 0x1 SWAP1 SUB SWAP1 DUP2 PUSH2 0x1415 JUMPI SWAP1 POP JUMPDEST POP SWAP1 POP PUSH0 DUP1 JUMPDEST PUSH1 0x64 DUP2 LT ISZERO PUSH2 0x14B1 JUMPI PUSH0 PUSH2 0x1443 DUP3 PUSH2 0x14BB JUMP JUMPDEST SWAP1 POP PUSH1 0x1 DUP2 PUSH1 0x40 MLOAD PUSH2 0x1455 SWAP2 SWAP1 PUSH2 0x1C7B JUMP JUMPDEST SWAP1 DUP2 MSTORE PUSH1 0x20 ADD PUSH1 0x40 MLOAD DUP1 SWAP2 SUB SWAP1 KECCAK256 PUSH0 SWAP1 SLOAD SWAP1 PUSH2 0x100 EXP SWAP1 DIV PUSH1 0xFF AND ISZERO PUSH2 0x14A3 JUMPI DUP1 DUP5 DUP5 DUP2 MLOAD DUP2 LT PUSH2 0x1489 JUMPI PUSH2 0x1488 PUSH2 0x1F94 JUMP JUMPDEST JUMPDEST PUSH1 0x20 MUL PUSH1 0x20 ADD ADD DUP2 SWAP1 MSTORE POP DUP3 DUP1 PUSH2 0x149F SWAP1 PUSH2 0x2029 JUMP JUMPDEST SWAP4 POP POP JUMPDEST POP DUP1 DUP1 PUSH1 0x1 ADD SWAP2 POP POP PUSH2 0x1430 JUMP JUMPDEST POP DUP2 SWAP4 POP POP POP POP SWAP1 JUMP JUMPDEST PUSH1 0x60 PUSH0 DUP3 SUB PUSH2 0x1501 JUMPI PUSH1 0x40 MLOAD DUP1 PUSH1 0x40 ADD PUSH1 0x40 MSTORE DUP1 PUSH1 0x1 DUP2 MSTORE PUSH1 0x20 ADD PUSH32 0x3000000000000000000000000000000000000000000000000000000000000000 DUP2 MSTORE POP SWAP1 POP PUSH2 0x16C7 JUMP JUMPDEST PUSH0 PUSH1 0x64 SWAP1 POP PUSH0 DUP2 PUSH8 0xFFFFFFFFFFFFFFFF DUP2 GT ISZERO PUSH2 0x1521 JUMPI PUSH2 0x1520 PUSH2 0x17AD JUMP JUMPDEST JUMPDEST PUSH1 0x40 MLOAD SWAP1 DUP1 DUP3 MSTORE DUP1 PUSH1 0x1F ADD PUSH1 0x1F NOT AND PUSH1 0x20 ADD DUP3 ADD PUSH1 0x40 MSTORE DUP1 ISZERO PUSH2 0x1553 JUMPI DUP2 PUSH1 0x20 ADD PUSH1 0x1 DUP3 MUL DUP1 CALLDATASIZE DUP4 CALLDATACOPY DUP1 DUP3 ADD SWAP2 POP POP SWAP1 POP JUMPDEST POP SWAP1 POP PUSH0 JUMPDEST PUSH0 DUP6 EQ PUSH2 0x15E1 JUMPI PUSH0 PUSH1 0xA DUP7 PUSH2 0x156D SWAP2 SWAP1 PUSH2 0x209D JUMP JUMPDEST SWAP1 POP PUSH1 0xA DUP7 PUSH2 0x157C SWAP2 SWAP1 PUSH2 0x20CD JUMP JUMPDEST SWAP6 POP DUP1 PUSH1 0x30 PUSH2 0x158B SWAP2 SWAP1 PUSH2 0x1E91 JUMP JUMPDEST PUSH1 0xF8 SHL DUP4 DUP4 DUP1 PUSH2 0x159A SWAP1 PUSH2 0x2029 JUMP JUMPDEST SWAP5 POP DUP2 MLOAD DUP2 LT PUSH2 0x15AD JUMPI PUSH2 0x15AC PUSH2 0x1F94 JUMP JUMPDEST JUMPDEST PUSH1 0x20 ADD ADD SWAP1 PUSH31 0xFFFFFFFFFFFFFFFFFFFFFFFFFFFFFFFFFFFFFFFFFFFFFFFFFFFFFFFFFFFFFF NOT AND SWAP1 DUP2 PUSH0 BYTE SWAP1 MSTORE8 POP POP PUSH2 0x1558 JUMP JUMPDEST PUSH0 DUP2 PUSH8 0xFFFFFFFFFFFFFFFF DUP2 GT ISZERO PUSH2 0x15FC JUMPI PUSH2 0x15FB PUSH2 0x17AD JUMP JUMPDEST JUMPDEST PUSH1 0x40 MLOAD SWAP1 DUP1 DUP3 MSTORE DUP1 PUSH1 0x1F ADD PUSH1 0x1F NOT AND PUSH1 0x20 ADD DUP3 ADD PUSH1 0x40 MSTORE DUP1 ISZERO PUSH2 0x162E JUMPI DUP2 PUSH1 0x20 ADD PUSH1 0x1 DUP3 MUL DUP1 CALLDATASIZE DUP4 CALLDATACOPY DUP1 DUP3 ADD SWAP2 POP POP SWAP1 POP JUMPDEST POP SWAP1 POP PUSH0 JUMPDEST DUP3 DUP2 LT ISZERO PUSH2 0x16BE JUMPI DUP4 PUSH1 0x1 DUP3 DUP6 PUSH2 0x164A SWAP2 SWAP1 PUSH2 0x1D8E JUMP JUMPDEST PUSH2 0x1654 SWAP2 SWAP1 PUSH2 0x1D8E JUMP JUMPDEST DUP2 MLOAD DUP2 LT PUSH2 0x1665 JUMPI PUSH2 0x1664 PUSH2 0x1F94 JUMP JUMPDEST JUMPDEST PUSH1 0x20 ADD ADD MLOAD PUSH1 0xF8 SHR PUSH1 0xF8 SHL DUP3 DUP3 DUP2 MLOAD DUP2 LT PUSH2 0x1683 JUMPI PUSH2 0x1682 PUSH2 0x1F94 JUMP JUMPDEST JUMPDEST PUSH1 0x20 ADD ADD SWAP1 PUSH31 0xFFFFFFFFFFFFFFFFFFFFFFFFFFFFFFFFFFFFFFFFFFFFFFFFFFFFFFFFFFFFFF NOT AND SWAP1 DUP2 PUSH0 BYTE SWAP1 MSTORE8 POP DUP1 DUP1 PUSH1 0x1 ADD SWAP2 POP POP PUSH2 0x1633 JUMP JUMPDEST POP DUP1 SWAP5 POP POP POP POP POP JUMPDEST SWAP2 SWAP1 POP JUMP JUMPDEST PUSH0 PUSH1 0x40 MLOAD SWAP1 POP SWAP1 JUMP JUMPDEST PUSH0 DUP1 REVERT JUMPDEST PUSH0 DUP1 REVERT JUMPDEST PUSH0 PUSH20 0xFFFFFFFFFFFFFFFFFFFFFFFFFFFFFFFFFFFFFFFF DUP3 AND SWAP1 POP SWAP2 SWAP1 POP JUMP JUMPDEST PUSH0 PUSH2 0x1706 DUP3 PUSH2 0x16DD JUMP JUMPDEST SWAP1 POP SWAP2 SWAP1 POP JUMP JUMPDEST PUSH2 0x1716 DUP2 PUSH2 0x16FC JUMP JUMPDEST DUP2 EQ PUSH2 0x1720 JUMPI PUSH0 DUP1 REVERT JUMPDEST POP JUMP JUMPDEST PUSH0 DUP2 CALLDATALOAD SWAP1 POP PUSH2 0x1731 DUP2 PUSH2 0x170D JUMP JUMPDEST SWAP3 SWAP2 POP POP JUMP JUMPDEST PUSH0 PUSH1 0x20 DUP3 DUP5 SUB SLT ISZERO PUSH2 0x174C JUMPI PUSH2 0x174B PUSH2 0x16D5 JUMP JUMPDEST JUMPDEST PUSH0 PUSH2 0x1759 DUP5 DUP3 DUP6 ADD PUSH2 0x1723 JUMP JUMPDEST SWAP2 POP POP SWAP3 SWAP2 POP POP JUMP JUMPDEST PUSH0 DUP2 ISZERO ISZERO SWAP1 POP SWAP2 SWAP1 POP JUMP JUMPDEST PUSH2 0x1776 DUP2 PUSH2 0x1762 JUMP JUMPDEST DUP3 MSTORE POP POP JUMP JUMPDEST PUSH0 PUSH1 0x20 DUP3 ADD SWAP1 POP PUSH2 0x178F PUSH0 DUP4 ADD DUP5 PUSH2 0x176D JUMP JUMPDEST SWAP3 SWAP2 POP POP JUMP JUMPDEST PUSH0 DUP1 REVERT JUMPDEST PUSH0 DUP1 REVERT JUMPDEST PUSH0 PUSH1 0x1F NOT PUSH1 0x1F DUP4 ADD AND SWAP1 POP SWAP2 SWAP1 POP JUMP JUMPDEST PUSH32 0x4E487B7100000000000000000000000000000000000000000000000000000000 PUSH0 MSTORE PUSH1 0x41 PUSH1 0x4 MSTORE PUSH1 0x24 PUSH0 REVERT JUMPDEST PUSH2 0x17E3 DUP3 PUSH2 0x179D JUMP JUMPDEST DUP2 ADD DUP2 DUP2 LT PUSH8 0xFFFFFFFFFFFFFFFF DUP3 GT OR ISZERO PUSH2 0x1802 JUMPI PUSH2 0x1801 PUSH2 0x17AD JUMP JUMPDEST JUMPDEST DUP1 PUSH1 0x40 MSTORE POP POP POP JUMP JUMPDEST PUSH0 PUSH2 0x1814 PUSH2 0x16CC JUMP JUMPDEST SWAP1 POP PUSH2 0x1820 DUP3 DUP3 PUSH2 0x17DA JUMP JUMPDEST SWAP2 SWAP1 POP JUMP JUMPDEST PUSH0 PUSH8 0xFFFFFFFFFFFFFFFF DUP3 GT ISZERO PUSH2 0x183F JUMPI PUSH2 0x183E PUSH2 0x17AD JUMP JUMPDEST JUMPDEST PUSH2 0x1848 DUP3 PUSH2 0x179D JUMP JUMPDEST SWAP1 POP PUSH1 0x20 DUP2 ADD SWAP1 POP SWAP2 SWAP1 POP JUMP JUMPDEST DUP3 DUP2 DUP4 CALLDATACOPY PUSH0 DUP4 DUP4 ADD MSTORE POP POP POP JUMP JUMPDEST PUSH0 PUSH2 0x1875 PUSH2 0x1870 DUP5 PUSH2 0x1825 JUMP JUMPDEST PUSH2 0x180B JUMP JUMPDEST SWAP1 POP DUP3 DUP2 MSTORE PUSH1 0x20 DUP2 ADD DUP5 DUP5 DUP5 ADD GT ISZERO PUSH2 0x1891 JUMPI PUSH2 0x1890 PUSH2 0x1799 JUMP JUMPDEST JUMPDEST PUSH2 0x189C DUP5 DUP3 DUP6 PUSH2 0x1855 JUMP JUMPDEST POP SWAP4 SWAP3 POP POP POP JUMP JUMPDEST PUSH0 DUP3 PUSH1 0x1F DUP4 ADD SLT PUSH2 0x18B8 JUMPI PUSH2 0x18B7 PUSH2 0x1795 JUMP JUMPDEST JUMPDEST DUP2 CALLDATALOAD PUSH2 0x18C8 DUP5 DUP3 PUSH1 0x20 DUP7 ADD PUSH2 0x1863 JUMP JUMPDEST SWAP2 POP POP SWAP3 SWAP2 POP POP JUMP JUMPDEST PUSH0 DUP2 SWAP1 POP SWAP2 SWAP1 POP JUMP JUMPDEST PUSH2 0x18E3 DUP2 PUSH2 0x18D1 JUMP JUMPDEST DUP2 EQ PUSH2 0x18ED JUMPI PUSH0 DUP1 REVERT JUMPDEST POP JUMP JUMPDEST PUSH0 DUP2 CALLDATALOAD SWAP1 POP PUSH2 0x18FE DUP2 PUSH2 0x18DA JUMP JUMPDEST SWAP3 SWAP2 POP POP JUMP JUMPDEST PUSH0 DUP1 PUSH1 0x40 DUP4 DUP6 SUB SLT ISZERO PUSH2 0x191A JUMPI PUSH2 0x1919 PUSH2 0x16D5 JUMP JUMPDEST JUMPDEST PUSH0 DUP4 ADD CALLDATALOAD PUSH8 0xFFFFFFFFFFFFFFFF DUP2 GT ISZERO PUSH2 0x1937 JUMPI PUSH2 0x1936 PUSH2 0x16D9 JUMP JUMPDEST JUMPDEST PUSH2 0x1943 DUP6 DUP3 DUP7 ADD PUSH2 0x18A4 JUMP JUMPDEST SWAP3 POP POP PUSH1 0x20 PUSH2 0x1954 DUP6 DUP3 DUP7 ADD PUSH2 0x18F0 JUMP JUMPDEST SWAP2 POP POP SWAP3 POP SWAP3 SWAP1 POP JUMP JUMPDEST PUSH2 0x1967 DUP2 PUSH2 0x16FC JUMP JUMPDEST DUP3 MSTORE POP POP JUMP JUMPDEST PUSH0 PUSH1 0x20 DUP3 ADD SWAP1 POP PUSH2 0x1980 PUSH0 DUP4 ADD DUP5 PUSH2 0x195E JUMP JUMPDEST SWAP3 SWAP2 POP POP JUMP JUMPDEST PUSH0 DUP1 PUSH1 0x40 DUP4 DUP6 SUB SLT ISZERO PUSH2 0x199C JUMPI PUSH2 0x199B PUSH2 0x16D5 JUMP JUMPDEST JUMPDEST PUSH0 DUP4 ADD CALLDATALOAD PUSH8 0xFFFFFFFFFFFFFFFF DUP2 GT ISZERO PUSH2 0x19B9 JUMPI PUSH2 0x19B8 PUSH2 0x16D9 JUMP JUMPDEST JUMPDEST PUSH2 0x19C5 DUP6 DUP3 DUP7 ADD PUSH2 0x18A4 JUMP JUMPDEST SWAP3 POP POP PUSH1 0x20 PUSH2 0x19D6 DUP6 DUP3 DUP7 ADD PUSH2 0x1723 JUMP JUMPDEST SWAP2 POP POP SWAP3 POP SWAP3 SWAP1 POP JUMP JUMPDEST PUSH2 0x19E9 DUP2 PUSH2 0x18D1 JUMP JUMPDEST DUP3 MSTORE POP POP JUMP JUMPDEST PUSH0 PUSH1 0x20 DUP3 ADD SWAP1 POP PUSH2 0x1A02 PUSH0 DUP4 ADD DUP5 PUSH2 0x19E0 JUMP JUMPDEST SWAP3 SWAP2 POP POP JUMP JUMPDEST PUSH0 DUP1 PUSH0 DUP1 PUSH1 0x80 DUP6 DUP8 SUB SLT ISZERO PUSH2 0x1A20 JUMPI PUSH2 0x1A1F PUSH2 0x16D5 JUMP JUMPDEST JUMPDEST PUSH0 DUP6 ADD CALLDATALOAD PUSH8 0xFFFFFFFFFFFFFFFF DUP2 GT ISZERO PUSH2 0x1A3D JUMPI PUSH2 0x1A3C PUSH2 0x16D9 JUMP JUMPDEST JUMPDEST PUSH2 0x1A49 DUP8 DUP3 DUP9 ADD PUSH2 0x18A4 JUMP JUMPDEST SWAP5 POP POP PUSH1 0x20 DUP6 ADD CALLDATALOAD PUSH8 0xFFFFFFFFFFFFFFFF DUP2 GT ISZERO PUSH2 0x1A6A JUMPI PUSH2 0x1A69 PUSH2 0x16D9 JUMP JUMPDEST JUMPDEST PUSH2 0x1A76 DUP8 DUP3 DUP9 ADD PUSH2 0x18A4 JUMP JUMPDEST SWAP4 POP POP PUSH1 0x40 PUSH2 0x1A87 DUP8 DUP3 DUP9 ADD PUSH2 0x1723 JUMP JUMPDEST SWAP3 POP POP PUSH1 0x60 PUSH2 0x1A98 DUP8 DUP3 DUP9 ADD PUSH2 0x18F0 JUMP JUMPDEST SWAP2 POP POP SWAP3 SWAP6 SWAP2 SWAP5 POP SWAP3 POP JUMP JUMPDEST PUSH0 PUSH1 0x20 DUP3 DUP5 SUB SLT ISZERO PUSH2 0x1AB9 JUMPI PUSH2 0x1AB8 PUSH2 0x16D5 JUMP JUMPDEST JUMPDEST PUSH0 DUP3 ADD CALLDATALOAD PUSH8 0xFFFFFFFFFFFFFFFF DUP2 GT ISZERO PUSH2 0x1AD6 JUMPI PUSH2 0x1AD5 PUSH2 0x16D9 JUMP JUMPDEST JUMPDEST PUSH2 0x1AE2 DUP5 DUP3 DUP6 ADD PUSH2 0x18A4 JUMP JUMPDEST SWAP2 POP POP SWAP3 SWAP2 POP POP JUMP JUMPDEST PUSH0 DUP1 PUSH1 0x40 DUP4 DUP6 SUB SLT ISZERO PUSH2 0x1B01 JUMPI PUSH2 0x1B00 PUSH2 0x16D5 JUMP JUMPDEST JUMPDEST PUSH0 PUSH2 0x1B0E DUP6 DUP3 DUP7 ADD PUSH2 0x1723 JUMP JUMPDEST SWAP3 POP POP PUSH1 0x20 PUSH2 0x1B1F DUP6 DUP3 DUP7 ADD PUSH2 0x18F0 JUMP JUMPDEST SWAP2 POP POP SWAP3 POP SWAP3 SWAP1 POP JUMP JUMPDEST PUSH0 DUP1 PUSH0 PUSH1 0x60 DUP5 DUP7 SUB SLT ISZERO PUSH2 0x1B40 JUMPI PUSH2 0x1B3F PUSH2 0x16D5 JUMP JUMPDEST JUMPDEST PUSH0 DUP5 ADD CALLDATALOAD PUSH8 0xFFFFFFFFFFFFFFFF DUP2 GT ISZERO PUSH2 0x1B5D JUMPI PUSH2 0x1B5C PUSH2 0x16D9 JUMP JUMPDEST JUMPDEST PUSH2 0x1B69 DUP7 DUP3 DUP8 ADD PUSH2 0x18A4 JUMP JUMPDEST SWAP4 POP POP PUSH1 0x20 DUP5 ADD CALLDATALOAD PUSH8 0xFFFFFFFFFFFFFFFF DUP2 GT ISZERO PUSH2 0x1B8A JUMPI PUSH2 0x1B89 PUSH2 0x16D9 JUMP JUMPDEST JUMPDEST PUSH2 0x1B96 DUP7 DUP3 DUP8 ADD PUSH2 0x18A4 JUMP JUMPDEST SWAP3 POP POP PUSH1 0x40 PUSH2 0x1BA7 DUP7 DUP3 DUP8 ADD PUSH2 0x18F0 JUMP JUMPDEST SWAP2 POP POP SWAP3 POP SWAP3 POP SWAP3 JUMP JUMPDEST PUSH0 DUP3 DUP3 MSTORE PUSH1 0x20 DUP3 ADD SWAP1 POP SWAP3 SWAP2 POP POP JUMP JUMPDEST PUSH32 0x55736572206E6F74207265676973746572656400000000000000000000000000 PUSH0 DUP3 ADD MSTORE POP JUMP JUMPDEST PUSH0 PUSH2 0x1BF5 PUSH1 0x13 DUP4 PUSH2 0x1BB1 JUMP JUMPDEST SWAP2 POP PUSH2 0x1C00 DUP3 PUSH2 0x1BC1 JUMP JUMPDEST PUSH1 0x20 DUP3 ADD SWAP1 POP SWAP2 SWAP1 POP JUMP JUMPDEST PUSH0 PUSH1 0x20 DUP3 ADD SWAP1 POP DUP2 DUP2 SUB PUSH0 DUP4 ADD MSTORE PUSH2 0x1C22 DUP2 PUSH2 0x1BE9 JUMP JUMPDEST SWAP1 POP SWAP2 SWAP1 POP JUMP JUMPDEST PUSH0 DUP2 MLOAD SWAP1 POP SWAP2 SWAP1 POP JUMP JUMPDEST PUSH0 DUP2 SWAP1 POP SWAP3 SWAP2 POP POP JUMP JUMPDEST DUP3 DUP2 DUP4 MCOPY PUSH0 DUP4 DUP4 ADD MSTORE POP POP POP JUMP JUMPDEST PUSH0 PUSH2 0x1C55 DUP3 PUSH2 0x1C29 JUMP JUMPDEST PUSH2 0x1C5F DUP2 DUP6 PUSH2 0x1C33 JUMP JUMPDEST SWAP4 POP PUSH2 0x1C6F DUP2 DUP6 PUSH1 0x20 DUP7 ADD PUSH2 0x1C3D JUMP JUMPDEST DUP1 DUP5 ADD SWAP2 POP POP SWAP3 SWAP2 POP POP JUMP JUMPDEST PUSH0 PUSH2 0x1C86 DUP3 DUP5 PUSH2 0x1C4B JUMP JUMPDEST SWAP2 POP DUP2 SWAP1 POP SWAP3 SWAP2 POP POP JUMP JUMPDEST PUSH32 0x42616E6B20646F6573206E6F7420657869737400000000000000000000000000 PUSH0 DUP3 ADD MSTORE POP JUMP JUMPDEST PUSH0 PUSH2 0x1CC5 PUSH1 0x13 DUP4 PUSH2 0x1BB1 JUMP JUMPDEST SWAP2 POP PUSH2 0x1CD0 DUP3 PUSH2 0x1C91 JUMP JUMPDEST PUSH1 0x20 DUP3 ADD SWAP1 POP SWAP2 SWAP1 POP JUMP JUMPDEST PUSH0 PUSH1 0x20 DUP3 ADD SWAP1 POP DUP2 DUP2 SUB PUSH0 DUP4 ADD MSTORE PUSH2 0x1CF2 DUP2 PUSH2 0x1CB9 JUMP JUMPDEST SWAP1 POP SWAP2 SWAP1 POP JUMP JUMPDEST PUSH32 0x496E73756666696369656E742062616C616E6365000000000000000000000000 PUSH0 DUP3 ADD MSTORE POP JUMP JUMPDEST PUSH0 PUSH2 0x1D2D PUSH1 0x14 DUP4 PUSH2 0x1BB1 JUMP JUMPDEST SWAP2 POP PUSH2 0x1D38 DUP3 PUSH2 0x1CF9 JUMP JUMPDEST PUSH1 0x20 DUP3 ADD SWAP1 POP SWAP2 SWAP1 POP JUMP JUMPDEST PUSH0 PUSH1 0x20 DUP3 ADD SWAP1 POP DUP2 DUP2 SUB PUSH0 DUP4 ADD MSTORE PUSH2 0x1D5A DUP2 PUSH2 0x1D21 JUMP JUMPDEST SWAP1 POP SWAP2 SWAP1 POP JUMP JUMPDEST PUSH32 0x4E487B7100000000000000000000000000000000000000000000000000000000 PUSH0 MSTORE PUSH1 0x11 PUSH1 0x4 MSTORE PUSH1 0x24 PUSH0 REVERT JUMPDEST PUSH0 PUSH2 0x1D98 DUP3 PUSH2 0x18D1 JUMP JUMPDEST SWAP2 POP PUSH2 0x1DA3 DUP4 PUSH2 0x18D1 JUMP JUMPDEST SWAP3 POP DUP3 DUP3 SUB SWAP1 POP DUP2 DUP2 GT ISZERO PUSH2 0x1DBB JUMPI PUSH2 0x1DBA PUSH2 0x1D61 JUMP JUMPDEST JUMPDEST SWAP3 SWAP2 POP POP JUMP JUMPDEST PUSH32 0x55736572287329206E6F74207265676973746572656400000000000000000000 PUSH0 DUP3 ADD MSTORE POP JUMP JUMPDEST PUSH0 PUSH2 0x1DF5 PUSH1 0x16 DUP4 PUSH2 0x1BB1 JUMP JUMPDEST SWAP2 POP PUSH2 0x1E00 DUP3 PUSH2 0x1DC1 JUMP JUMPDEST PUSH1 0x20 DUP3 ADD SWAP1 POP SWAP2 SWAP1 POP JUMP JUMPDEST PUSH0 PUSH1 0x20 DUP3 ADD SWAP1 POP DUP2 DUP2 SUB PUSH0 DUP4 ADD MSTORE PUSH2 0x1E22 DUP2 PUSH2 0x1DE9 JUMP JUMPDEST SWAP1 POP SWAP2 SWAP1 POP JUMP JUMPDEST PUSH32 0x496E76616C69642062616E6B2873290000000000000000000000000000000000 PUSH0 DUP3 ADD MSTORE POP JUMP JUMPDEST PUSH0 PUSH2 0x1E5D PUSH1 0xF DUP4 PUSH2 0x1BB1 JUMP JUMPDEST SWAP2 POP PUSH2 0x1E68 DUP3 PUSH2 0x1E29 JUMP JUMPDEST PUSH1 0x20 DUP3 ADD SWAP1 POP SWAP2 SWAP1 POP JUMP JUMPDEST PUSH0 PUSH1 0x20 DUP3 ADD SWAP1 POP DUP2 DUP2 SUB PUSH0 DUP4 ADD MSTORE PUSH2 0x1E8A DUP2 PUSH2 0x1E51 JUMP JUMPDEST SWAP1 POP SWAP2 SWAP1 POP JUMP JUMPDEST PUSH0 PUSH2 0x1E9B DUP3 PUSH2 0x18D1 JUMP JUMPDEST SWAP2 POP PUSH2 0x1EA6 DUP4 PUSH2 0x18D1 JUMP JUMPDEST SWAP3 POP DUP3 DUP3 ADD SWAP1 POP DUP1 DUP3 GT ISZERO PUSH2 0x1EBE JUMPI PUSH2 0x1EBD PUSH2 0x1D61 JUMP JUMPDEST JUMPDEST SWAP3 SWAP2 POP POP JUMP JUMPDEST PUSH32 0x4F6E6C7920746178206F66666963652063616E206164642062616E6B73000000 PUSH0 DUP3 ADD MSTORE POP JUMP JUMPDEST PUSH0 PUSH2 0x1EF8 PUSH1 0x1D DUP4 PUSH2 0x1BB1 JUMP JUMPDEST SWAP2 POP PUSH2 0x1F03 DUP3 PUSH2 0x1EC4 JUMP JUMPDEST PUSH1 0x20 DUP3 ADD SWAP1 POP SWAP2 SWAP1 POP JUMP JUMPDEST PUSH0 PUSH1 0x20 DUP3 ADD SWAP1 POP DUP2 DUP2 SUB PUSH0 DUP4 ADD MSTORE PUSH2 0x1F25 DUP2 PUSH2 0x1EEC JUMP JUMPDEST SWAP1 POP SWAP2 SWAP1 POP JUMP JUMPDEST PUSH32 0x4F6E6C7920746178206F66666963652063616E2063616C6C2074686973000000 PUSH0 DUP3 ADD MSTORE POP JUMP JUMPDEST PUSH0 PUSH2 0x1F60 PUSH1 0x1D DUP4 PUSH2 0x1BB1 JUMP JUMPDEST SWAP2 POP PUSH2 0x1F6B DUP3 PUSH2 0x1F2C JUMP JUMPDEST PUSH1 0x20 DUP3 ADD SWAP1 POP SWAP2 SWAP1 POP JUMP JUMPDEST PUSH0 PUSH1 0x20 DUP3 ADD SWAP1 POP DUP2 DUP2 SUB PUSH0 DUP4 ADD MSTORE PUSH2 0x1F8D DUP2 PUSH2 0x1F54 JUMP JUMPDEST SWAP1 POP SWAP2 SWAP1 POP JUMP JUMPDEST PUSH32 0x4E487B7100000000000000000000000000000000000000000000000000000000 PUSH0 MSTORE PUSH1 0x32 PUSH1 0x4 MSTORE PUSH1 0x24 PUSH0 REVERT JUMPDEST PUSH32 0x5573657220616C72656164792072656769737465726564000000000000000000 PUSH0 DUP3 ADD MSTORE POP JUMP JUMPDEST PUSH0 PUSH2 0x1FF5 PUSH1 0x17 DUP4 PUSH2 0x1BB1 JUMP JUMPDEST SWAP2 POP PUSH2 0x2000 DUP3 PUSH2 0x1FC1 JUMP JUMPDEST PUSH1 0x20 DUP3 ADD SWAP1 POP SWAP2 SWAP1 POP JUMP JUMPDEST PUSH0 PUSH1 0x20 DUP3 ADD SWAP1 POP DUP2 DUP2 SUB PUSH0 DUP4 ADD MSTORE PUSH2 0x2022 DUP2 PUSH2 0x1FE9 JUMP JUMPDEST SWAP1 POP SWAP2 SWAP1 POP JUMP JUMPDEST PUSH0 PUSH2 0x2033 DUP3 PUSH2 0x18D1 JUMP JUMPDEST SWAP2 POP PUSH32 0xFFFFFFFFFFFFFFFFFFFFFFFFFFFFFFFFFFFFFFFFFFFFFFFFFFFFFFFFFFFFFFFF DUP3 SUB PUSH2 0x2065 JUMPI PUSH2 0x2064 PUSH2 0x1D61 JUMP JUMPDEST JUMPDEST PUSH1 0x1 DUP3 ADD SWAP1 POP SWAP2 SWAP1 POP JUMP JUMPDEST PUSH32 0x4E487B7100000000000000000000000000000000000000000000000000000000 PUSH0 MSTORE PUSH1 0x12 PUSH1 0x4 MSTORE PUSH1 0x24 PUSH0 REVERT JUMPDEST PUSH0 PUSH2 0x20A7 DUP3 PUSH2 0x18D1 JUMP JUMPDEST SWAP2 POP PUSH2 0x20B2 DUP4 PUSH2 0x18D1 JUMP JUMPDEST SWAP3 POP DUP3 PUSH2 0x20C2 JUMPI PUSH2 0x20C1 PUSH2 0x2070 JUMP JUMPDEST JUMPDEST DUP3 DUP3 MOD SWAP1 POP SWAP3 SWAP2 POP POP JUMP JUMPDEST PUSH0 PUSH2 0x20D7 DUP3 PUSH2 0x18D1 JUMP JUMPDEST SWAP2 POP PUSH2 0x20E2 DUP4 PUSH2 0x18D1 JUMP JUMPDEST SWAP3 POP DUP3 PUSH2 0x20F2 JUMPI PUSH2 0x20F1 PUSH2 0x2070 JUMP JUMPDEST JUMPDEST DUP3 DUP3 DIV SWAP1 POP SWAP3 SWAP2 POP POP JUMP INVALID LOG2 PUSH5 0x6970667358 0x22 SLT KECCAK256 CALLER SWAP9 EQ EXTCODECOPY 0xC7 0x26 0xAC LOG4 CODESIZE 0xEB 0x1E ADD PUSH10 0x3A81E62BA0E08DE726DD 0xC6 SWAP7 0xDB PUSH4 0x49F9A2C2 0xB4 PUSH5 0x736F6C6343 STOP ADDMOD BYTE STOP CALLER "
				},
				"gasEstimates": {
					"creation": {
						"codeDepositCost": "1699800",
						"executionCost": "infinite",
						"totalCost": "infinite"
					},
					"external": {
						"addBank(string)": "infinite",
						"balances(string,address)": "infinite",
						"banks(string)": "infinite",
						"deposit(string)": "infinite",
						"getTotalBalance(address)": "infinite",
						"register(string)": "infinite",
						"registeredUsers(address)": "2834",
						"taxOfficeAddress()": "2550",
						"transferBetweenBanks(string,string,uint256)": "infinite",
						"transferToOtherUser(string,string,address,uint256)": "infinite",
						"transferToTaxOffice(address,uint256)": "infinite",
						"withdraw(string,uint256)": "infinite"
					},
					"internal": {
						"getBankNames()": "infinite",
						"uintToString(uint256)": "infinite"
					}
				},
				"methodIdentifiers": {
					"addBank(string)": "96ed5d86",
					"balances(string,address)": "8892ebce",
					"banks(string)": "9262556d",
					"deposit(string)": "a26e1186",
					"getTotalBalance(address)": "d3d38193",
					"register(string)": "f2c298be",
					"registeredUsers(address)": "0e50cee5",
					"taxOfficeAddress()": "609380a2",
					"transferBetweenBanks(string,string,uint256)": "f049123e",
					"transferToOtherUser(string,string,address,uint256)": "8c7c7ce7",
					"transferToTaxOffice(address,uint256)": "ab4f049a",
					"withdraw(string,uint256)": "30b39a62"
				}
			},
			"storageLayout": {
				"storage": [
					{
						"astId": 168,
						"contract": "cordingtest/cordingtest10.sol:BankSystem",
						"label": "taxOfficeAddress",
						"offset": 0,
						"slot": "0",
						"type": "t_address"
					},
					{
						"astId": 172,
						"contract": "cordingtest/cordingtest10.sol:BankSystem",
						"label": "banks",
						"offset": 0,
						"slot": "1",
						"type": "t_mapping(t_string_memory_ptr,t_bool)"
					},
					{
						"astId": 176,
						"contract": "cordingtest/cordingtest10.sol:BankSystem",
						"label": "registeredUsers",
						"offset": 0,
						"slot": "2",
						"type": "t_mapping(t_address,t_bool)"
					},
					{
						"astId": 182,
						"contract": "cordingtest/cordingtest10.sol:BankSystem",
						"label": "balances",
						"offset": 0,
						"slot": "3",
						"type": "t_mapping(t_string_memory_ptr,t_mapping(t_address,t_uint256))"
					}
				],
				"types": {
					"t_address": {
						"encoding": "inplace",
						"label": "address",
						"numberOfBytes": "20"
					},
					"t_bool": {
						"encoding": "inplace",
						"label": "bool",
						"numberOfBytes": "1"
					},
					"t_mapping(t_address,t_bool)": {
						"encoding": "mapping",
						"key": "t_address",
						"label": "mapping(address => bool)",
						"numberOfBytes": "32",
						"value": "t_bool"
					},
					"t_mapping(t_address,t_uint256)": {
						"encoding": "mapping",
						"key": "t_address",
						"label": "mapping(address => uint256)",
						"numberOfBytes": "32",
						"value": "t_uint256"
					},
					"t_mapping(t_string_memory_ptr,t_bool)": {
						"encoding": "mapping",
						"key": "t_string_memory_ptr",
						"label": "mapping(string => bool)",
						"numberOfBytes": "32",
						"value": "t_bool"
					},
					"t_mapping(t_string_memory_ptr,t_mapping(t_address,t_uint256))": {
						"encoding": "mapping",
						"key": "t_string_memory_ptr",
						"label": "mapping(string => mapping(address => uint256))",
						"numberOfBytes": "32",
						"value": "t_mapping(t_address,t_uint256)"
					},
					"t_string_memory_ptr": {
						"encoding": "bytes",
						"label": "string",
						"numberOfBytes": "32"
					},
					"t_uint256": {
						"encoding": "inplace",
						"label": "uint256",
						"numberOfBytes": "32"
					}
				}
			},
			"userdoc": {
				"kind": "user",
				"methods": {},
				"version": 1
			}
		}
	}
}