{
	"data": {
		"bytecode": {
			"linkReferences": {},
			"object": "6080604052348015600e575f80fd5b506040516102fe3803806102fe8339818101604052810190602e91906081565b828282825f81905550816001819055508060028190555050505050505060c8565b5f80fd5b5f819050919050565b6063816053565b8114606c575f80fd5b50565b5f81519050607b81605c565b92915050565b5f805f606084860312156095576094604f565b5b5f60a086828701606f565b935050602060af86828701606f565b925050604060be86828701606f565b9150509250925092565b610229806100d55f395ff3fe608060405234801561000f575f80fd5b5060043610610060575f3560e01c80630110b949146100645780638f2db12514610080578063a1c519151461009c578063a2375d1e146100ba578063c3da42b8146100d8578063d46300fd146100f6575b5f80fd5b61007e600480360381019061007991906101a0565b610114565b005b61009a600480360381019061009591906101a0565b610126565b005b6100a4610130565b6040516100b191906101da565b60405180910390f35b6100c2610139565b6040516100cf91906101da565b60405180910390f35b6100e0610142565b6040516100ed91906101da565b60405180910390f35b6100fe610148565b60405161010b91906101da565b60405180910390f35b61012381600154600254610150565b50565b8060018190555050565b5f600154905090565b5f600254905090565b60025481565b5f8054905090565b825f819055508160018190555080600281905550505050565b5f80fd5b5f819050919050565b61017f8161016d565b8114610189575f80fd5b50565b5f8135905061019a81610176565b92915050565b5f602082840312156101b5576101b4610169565b5b5f6101c28482850161018c565b91505092915050565b6101d48161016d565b82525050565b5f6020820190506101ed5f8301846101cb565b9291505056fea264697066735822122077c717dcacc23d1b287dfefd479712a0dab171d78465b6c8ff6d7f7a511ead7e64736f6c634300081a0033",
			"opcodes": "PUSH1 0x80 PUSH1 0x40 MSTORE CALLVALUE DUP1 ISZERO PUSH1 0xE JUMPI PUSH0 DUP1 REVERT JUMPDEST POP PUSH1 0x40 MLOAD PUSH2 0x2FE CODESIZE SUB DUP1 PUSH2 0x2FE DUP4 CODECOPY DUP2 DUP2 ADD PUSH1 0x40 MSTORE DUP2 ADD SWAP1 PUSH1 0x2E SWAP2 SWAP1 PUSH1 0x81 JUMP JUMPDEST DUP3 DUP3 DUP3 DUP3 PUSH0 DUP2 SWAP1 SSTORE POP DUP2 PUSH1 0x1 DUP2 SWAP1 SSTORE POP DUP1 PUSH1 0x2 DUP2 SWAP1 SSTORE POP POP POP POP POP POP POP PUSH1 0xC8 JUMP JUMPDEST PUSH0 DUP1 REVERT JUMPDEST PUSH0 DUP2 SWAP1 POP SWAP2 SWAP1 POP JUMP JUMPDEST PUSH1 0x63 DUP2 PUSH1 0x53 JUMP JUMPDEST DUP2 EQ PUSH1 0x6C JUMPI PUSH0 DUP1 REVERT JUMPDEST POP JUMP JUMPDEST PUSH0 DUP2 MLOAD SWAP1 POP PUSH1 0x7B DUP2 PUSH1 0x5C JUMP JUMPDEST SWAP3 SWAP2 POP POP JUMP JUMPDEST PUSH0 DUP1 PUSH0 PUSH1 0x60 DUP5 DUP7 SUB SLT ISZERO PUSH1 0x95 JUMPI PUSH1 0x94 PUSH1 0x4F JUMP JUMPDEST JUMPDEST PUSH0 PUSH1 0xA0 DUP7 DUP3 DUP8 ADD PUSH1 0x6F JUMP JUMPDEST SWAP4 POP POP PUSH1 0x20 PUSH1 0xAF DUP7 DUP3 DUP8 ADD PUSH1 0x6F JUMP JUMPDEST SWAP3 POP POP PUSH1 0x40 PUSH1 0xBE DUP7 DUP3 DUP8 ADD PUSH1 0x6F JUMP JUMPDEST SWAP2 POP POP SWAP3 POP SWAP3 POP SWAP3 JUMP JUMPDEST PUSH2 0x229 DUP1 PUSH2 0xD5 PUSH0 CODECOPY PUSH0 RETURN INVALID PUSH1 0x80 PUSH1 0x40 MSTORE CALLVALUE DUP1 ISZERO PUSH2 0xF JUMPI PUSH0 DUP1 REVERT JUMPDEST POP PUSH1 0x4 CALLDATASIZE LT PUSH2 0x60 JUMPI PUSH0 CALLDATALOAD PUSH1 0xE0 SHR DUP1 PUSH4 0x110B949 EQ PUSH2 0x64 JUMPI DUP1 PUSH4 0x8F2DB125 EQ PUSH2 0x80 JUMPI DUP1 PUSH4 0xA1C51915 EQ PUSH2 0x9C JUMPI DUP1 PUSH4 0xA2375D1E EQ PUSH2 0xBA JUMPI DUP1 PUSH4 0xC3DA42B8 EQ PUSH2 0xD8 JUMPI DUP1 PUSH4 0xD46300FD EQ PUSH2 0xF6 JUMPI JUMPDEST PUSH0 DUP1 REVERT JUMPDEST PUSH2 0x7E PUSH1 0x4 DUP1 CALLDATASIZE SUB DUP2 ADD SWAP1 PUSH2 0x79 SWAP2 SWAP1 PUSH2 0x1A0 JUMP JUMPDEST PUSH2 0x114 JUMP JUMPDEST STOP JUMPDEST PUSH2 0x9A PUSH1 0x4 DUP1 CALLDATASIZE SUB DUP2 ADD SWAP1 PUSH2 0x95 SWAP2 SWAP1 PUSH2 0x1A0 JUMP JUMPDEST PUSH2 0x126 JUMP JUMPDEST STOP JUMPDEST PUSH2 0xA4 PUSH2 0x130 JUMP JUMPDEST PUSH1 0x40 MLOAD PUSH2 0xB1 SWAP2 SWAP1 PUSH2 0x1DA JUMP JUMPDEST PUSH1 0x40 MLOAD DUP1 SWAP2 SUB SWAP1 RETURN JUMPDEST PUSH2 0xC2 PUSH2 0x139 JUMP JUMPDEST PUSH1 0x40 MLOAD PUSH2 0xCF SWAP2 SWAP1 PUSH2 0x1DA JUMP JUMPDEST PUSH1 0x40 MLOAD DUP1 SWAP2 SUB SWAP1 RETURN JUMPDEST PUSH2 0xE0 PUSH2 0x142 JUMP JUMPDEST PUSH1 0x40 MLOAD PUSH2 0xED SWAP2 SWAP1 PUSH2 0x1DA JUMP JUMPDEST PUSH1 0x40 MLOAD DUP1 SWAP2 SUB SWAP1 RETURN JUMPDEST PUSH2 0xFE PUSH2 0x148 JUMP JUMPDEST PUSH1 0x40 MLOAD PUSH2 0x10B SWAP2 SWAP1 PUSH2 0x1DA JUMP JUMPDEST PUSH1 0x40 MLOAD DUP1 SWAP2 SUB SWAP1 RETURN JUMPDEST PUSH2 0x123 DUP2 PUSH1 0x1 SLOAD PUSH1 0x2 SLOAD PUSH2 0x150 JUMP JUMPDEST POP JUMP JUMPDEST DUP1 PUSH1 0x1 DUP2 SWAP1 SSTORE POP POP JUMP JUMPDEST PUSH0 PUSH1 0x1 SLOAD SWAP1 POP SWAP1 JUMP JUMPDEST PUSH0 PUSH1 0x2 SLOAD SWAP1 POP SWAP1 JUMP JUMPDEST PUSH1 0x2 SLOAD DUP2 JUMP JUMPDEST PUSH0 DUP1 SLOAD SWAP1 POP SWAP1 JUMP JUMPDEST DUP3 PUSH0 DUP2 SWAP1 SSTORE POP DUP2 PUSH1 0x1 DUP2 SWAP1 SSTORE POP DUP1 PUSH1 0x2 DUP2 SWAP1 SSTORE POP POP POP POP JUMP JUMPDEST PUSH0 DUP1 REVERT JUMPDEST PUSH0 DUP2 SWAP1 POP SWAP2 SWAP1 POP JUMP JUMPDEST PUSH2 0x17F DUP2 PUSH2 0x16D JUMP JUMPDEST DUP2 EQ PUSH2 0x189 JUMPI PUSH0 DUP1 REVERT JUMPDEST POP JUMP JUMPDEST PUSH0 DUP2 CALLDATALOAD SWAP1 POP PUSH2 0x19A DUP2 PUSH2 0x176 JUMP JUMPDEST SWAP3 SWAP2 POP POP JUMP JUMPDEST PUSH0 PUSH1 0x20 DUP3 DUP5 SUB SLT ISZERO PUSH2 0x1B5 JUMPI PUSH2 0x1B4 PUSH2 0x169 JUMP JUMPDEST JUMPDEST PUSH0 PUSH2 0x1C2 DUP5 DUP3 DUP6 ADD PUSH2 0x18C JUMP JUMPDEST SWAP2 POP POP SWAP3 SWAP2 POP POP JUMP JUMPDEST PUSH2 0x1D4 DUP2 PUSH2 0x16D JUMP JUMPDEST DUP3 MSTORE POP POP JUMP JUMPDEST PUSH0 PUSH1 0x20 DUP3 ADD SWAP1 POP PUSH2 0x1ED PUSH0 DUP4 ADD DUP5 PUSH2 0x1CB JUMP JUMPDEST SWAP3 SWAP2 POP POP JUMP INVALID LOG2 PUSH5 0x6970667358 0x22 SLT KECCAK256 PUSH24 0xC717DCACC23D1B287DFEFD479712A0DAB171D78465B6C8FF PUSH14 0x7F7A511EAD7E64736F6C63430008 BYTE STOP CALLER "
		},
		"gasEstimates": {
			"creation": {
				"codeDepositCost": "110600",
				"executionCost": "infinite",
				"totalCost": "infinite"
			},
			"external": {
				"c()": "2491",
				"getA()": "2520",
				"getB()": "2454",
				"getC()": "2476",
				"modifyA(uint256)": "70959",
				"modifyB(uint256)": "22515"
			}
		},
		"methodIdentifiers": {
			"c()": "c3da42b8",
			"getA()": "d46300fd",
			"getB()": "a1c51915",
			"getC()": "a2375d1e",
			"modifyA(uint256)": "0110b949",
			"modifyB(uint256)": "8f2db125"
		}
	},
	"abi": [
		{
			"inputs": [
				{
					"internalType": "uint256",
					"name": "_a",
					"type": "uint256"
				},
				{
					"internalType": "uint256",
					"name": "_b",
					"type": "uint256"
				},
				{
					"internalType": "uint256",
					"name": "_c",
					"type": "uint256"
				}
			],
			"stateMutability": "nonpayable",
			"type": "constructor"
		},
		{
			"inputs": [],
			"name": "c",
			"outputs": [
				{
					"internalType": "uint256",
					"name": "",
					"type": "uint256"
				}
			],
			"stateMutability": "view",
			"type": "function"
		},
		{
			"inputs": [],
			"name": "getA",
			"outputs": [
				{
					"internalType": "uint256",
					"name": "",
					"type": "uint256"
				}
			],
			"stateMutability": "view",
			"type": "function"
		},
		{
			"inputs": [],
			"name": "getB",
			"outputs": [
				{
					"internalType": "uint256",
					"name": "",
					"type": "uint256"
				}
			],
			"stateMutability": "view",
			"type": "function"
		},
		{
			"inputs": [],
			"name": "getC",
			"outputs": [
				{
					"internalType": "uint256",
					"name": "",
					"type": "uint256"
				}
			],
			"stateMutability": "view",
			"type": "function"
		},
		{
			"inputs": [
				{
					"internalType": "uint256",
					"name": "_a",
					"type": "uint256"
				}
			],
			"name": "modifyA",
			"outputs": [],
			"stateMutability": "nonpayable",
			"type": "function"
		},
		{
			"inputs": [
				{
					"internalType": "uint256",
					"name": "_b",
					"type": "uint256"
				}
			],
			"name": "modifyB",
			"outputs": [],
			"stateMutability": "nonpayable",
			"type": "function"
		}
	]
}