{
	"data": {
		"bytecode": {
			"linkReferences": {},
			"object": "6080604052348015600e575f80fd5b506106c08061001c5f395ff3fe608060405234801561000f575f80fd5b5060043610610060575f3560e01c80631ec9c2c0146100645780633a08e7241461009457806360953744146100c45780637afbe4f1146100f45780639a03fe1d14610124578063de36af6f14610155575b5f80fd5b61007e6004803603810190610079919061024a565b610185565b60405161008b9190610297565b60405180910390f35b6100ae60048036038101906100a991906102e3565b61019a565b6040516100bb9190610330565b60405180910390f35b6100de60048036038101906100d9919061024a565b6101af565b6040516100eb9190610297565b60405180910390f35b61010e6004803603810190610109919061024a565b6101c4565b60405161011b9190610297565b60405180910390f35b61013e6004803603810190610139919061024a565b6101d9565b60405161014c929190610349565b60405180910390f35b61016f600480360381019061016a919061024a565b6101fe565b60405161017c9190610297565b60405180910390f35b5f8183610192919061039d565b905092915050565b5f81836101a791906103d0565b905092915050565b5f81836101bc9190610410565b905092915050565b5f81836101d19190610451565b905092915050565b5f8082846101e791906104b1565b83856101f391906104e1565b915091509250929050565b5f818361020b9190610640565b905092915050565b5f80fd5b5f819050919050565b61022981610217565b8114610233575f80fd5b50565b5f8135905061024481610220565b92915050565b5f80604083850312156102605761025f610213565b5b5f61026d85828601610236565b925050602061027e85828601610236565b9150509250929050565b61029181610217565b82525050565b5f6020820190506102aa5f830184610288565b92915050565b5f819050919050565b6102c2816102b0565b81146102cc575f80fd5b50565b5f813590506102dd816102b9565b92915050565b5f80604083850312156102f9576102f8610213565b5b5f610306858286016102cf565b9250506020610317858286016102cf565b9150509250929050565b61032a816102b0565b82525050565b5f6020820190506103435f830184610321565b92915050565b5f60408201905061035c5f830185610288565b6103696020830184610288565b9392505050565b7f4e487b71000000000000000000000000000000000000000000000000000000005f52601160045260245ffd5b5f6103a782610217565b91506103b283610217565b92508282039050818111156103ca576103c9610370565b5b92915050565b5f6103da826102b0565b91506103e5836102b0565b925082820390508181125f8412168282135f85121516171561040a57610409610370565b5b92915050565b5f61041a82610217565b915061042583610217565b925082820261043381610217565b9150828204841483151761044a57610449610370565b5b5092915050565b5f61045b82610217565b915061046683610217565b925082820190508082111561047e5761047d610370565b5b92915050565b7f4e487b71000000000000000000000000000000000000000000000000000000005f52601260045260245ffd5b5f6104bb82610217565b91506104c683610217565b9250826104d6576104d5610484565b5b828204905092915050565b5f6104eb82610217565b91506104f683610217565b92508261050657610505610484565b5b828206905092915050565b5f8160011c9050919050565b5f808291508390505b60018511156105665780860481111561054257610541610370565b5b60018516156105515780820291505b808102905061055f85610511565b9450610526565b94509492505050565b5f8261057e5760019050610639565b8161058b575f9050610639565b81600181146105a157600281146105ab576105da565b6001915050610639565b60ff8411156105bd576105bc610370565b5b8360020a9150848211156105d4576105d3610370565b5b50610639565b5060208310610133831016604e8410600b841016171561060f5782820a90508381111561060a57610609610370565b5b610639565b61061c848484600161051d565b9250905081840481111561063357610632610370565b5b81810290505b9392505050565b5f61064a82610217565b915061065583610217565b92506106827fffffffffffffffffffffffffffffffffffffffffffffffffffffffffffffffff848461056f565b90509291505056fea2646970667358221220ae454f752b3cd81a8d8610884a4fdcb9e23c8fa776212d5d10833e1fa7c8d73f64736f6c634300081a0033",
			"opcodes": "PUSH1 0x80 PUSH1 0x40 MSTORE CALLVALUE DUP1 ISZERO PUSH1 0xE JUMPI PUSH0 DUP1 REVERT JUMPDEST POP PUSH2 0x6C0 DUP1 PUSH2 0x1C PUSH0 CODECOPY PUSH0 RETURN INVALID PUSH1 0x80 PUSH1 0x40 MSTORE CALLVALUE DUP1 ISZERO PUSH2 0xF JUMPI PUSH0 DUP1 REVERT JUMPDEST POP PUSH1 0x4 CALLDATASIZE LT PUSH2 0x60 JUMPI PUSH0 CALLDATALOAD PUSH1 0xE0 SHR DUP1 PUSH4 0x1EC9C2C0 EQ PUSH2 0x64 JUMPI DUP1 PUSH4 0x3A08E724 EQ PUSH2 0x94 JUMPI DUP1 PUSH4 0x60953744 EQ PUSH2 0xC4 JUMPI DUP1 PUSH4 0x7AFBE4F1 EQ PUSH2 0xF4 JUMPI DUP1 PUSH4 0x9A03FE1D EQ PUSH2 0x124 JUMPI DUP1 PUSH4 0xDE36AF6F EQ PUSH2 0x155 JUMPI JUMPDEST PUSH0 DUP1 REVERT JUMPDEST PUSH2 0x7E PUSH1 0x4 DUP1 CALLDATASIZE SUB DUP2 ADD SWAP1 PUSH2 0x79 SWAP2 SWAP1 PUSH2 0x24A JUMP JUMPDEST PUSH2 0x185 JUMP JUMPDEST PUSH1 0x40 MLOAD PUSH2 0x8B SWAP2 SWAP1 PUSH2 0x297 JUMP JUMPDEST PUSH1 0x40 MLOAD DUP1 SWAP2 SUB SWAP1 RETURN JUMPDEST PUSH2 0xAE PUSH1 0x4 DUP1 CALLDATASIZE SUB DUP2 ADD SWAP1 PUSH2 0xA9 SWAP2 SWAP1 PUSH2 0x2E3 JUMP JUMPDEST PUSH2 0x19A JUMP JUMPDEST PUSH1 0x40 MLOAD PUSH2 0xBB SWAP2 SWAP1 PUSH2 0x330 JUMP JUMPDEST PUSH1 0x40 MLOAD DUP1 SWAP2 SUB SWAP1 RETURN JUMPDEST PUSH2 0xDE PUSH1 0x4 DUP1 CALLDATASIZE SUB DUP2 ADD SWAP1 PUSH2 0xD9 SWAP2 SWAP1 PUSH2 0x24A JUMP JUMPDEST PUSH2 0x1AF JUMP JUMPDEST PUSH1 0x40 MLOAD PUSH2 0xEB SWAP2 SWAP1 PUSH2 0x297 JUMP JUMPDEST PUSH1 0x40 MLOAD DUP1 SWAP2 SUB SWAP1 RETURN JUMPDEST PUSH2 0x10E PUSH1 0x4 DUP1 CALLDATASIZE SUB DUP2 ADD SWAP1 PUSH2 0x109 SWAP2 SWAP1 PUSH2 0x24A JUMP JUMPDEST PUSH2 0x1C4 JUMP JUMPDEST PUSH1 0x40 MLOAD PUSH2 0x11B SWAP2 SWAP1 PUSH2 0x297 JUMP JUMPDEST PUSH1 0x40 MLOAD DUP1 SWAP2 SUB SWAP1 RETURN JUMPDEST PUSH2 0x13E PUSH1 0x4 DUP1 CALLDATASIZE SUB DUP2 ADD SWAP1 PUSH2 0x139 SWAP2 SWAP1 PUSH2 0x24A JUMP JUMPDEST PUSH2 0x1D9 JUMP JUMPDEST PUSH1 0x40 MLOAD PUSH2 0x14C SWAP3 SWAP2 SWAP1 PUSH2 0x349 JUMP JUMPDEST PUSH1 0x40 MLOAD DUP1 SWAP2 SUB SWAP1 RETURN JUMPDEST PUSH2 0x16F PUSH1 0x4 DUP1 CALLDATASIZE SUB DUP2 ADD SWAP1 PUSH2 0x16A SWAP2 SWAP1 PUSH2 0x24A JUMP JUMPDEST PUSH2 0x1FE JUMP JUMPDEST PUSH1 0x40 MLOAD PUSH2 0x17C SWAP2 SWAP1 PUSH2 0x297 JUMP JUMPDEST PUSH1 0x40 MLOAD DUP1 SWAP2 SUB SWAP1 RETURN JUMPDEST PUSH0 DUP2 DUP4 PUSH2 0x192 SWAP2 SWAP1 PUSH2 0x39D JUMP JUMPDEST SWAP1 POP SWAP3 SWAP2 POP POP JUMP JUMPDEST PUSH0 DUP2 DUP4 PUSH2 0x1A7 SWAP2 SWAP1 PUSH2 0x3D0 JUMP JUMPDEST SWAP1 POP SWAP3 SWAP2 POP POP JUMP JUMPDEST PUSH0 DUP2 DUP4 PUSH2 0x1BC SWAP2 SWAP1 PUSH2 0x410 JUMP JUMPDEST SWAP1 POP SWAP3 SWAP2 POP POP JUMP JUMPDEST PUSH0 DUP2 DUP4 PUSH2 0x1D1 SWAP2 SWAP1 PUSH2 0x451 JUMP JUMPDEST SWAP1 POP SWAP3 SWAP2 POP POP JUMP JUMPDEST PUSH0 DUP1 DUP3 DUP5 PUSH2 0x1E7 SWAP2 SWAP1 PUSH2 0x4B1 JUMP JUMPDEST DUP4 DUP6 PUSH2 0x1F3 SWAP2 SWAP1 PUSH2 0x4E1 JUMP JUMPDEST SWAP2 POP SWAP2 POP SWAP3 POP SWAP3 SWAP1 POP JUMP JUMPDEST PUSH0 DUP2 DUP4 PUSH2 0x20B SWAP2 SWAP1 PUSH2 0x640 JUMP JUMPDEST SWAP1 POP SWAP3 SWAP2 POP POP JUMP JUMPDEST PUSH0 DUP1 REVERT JUMPDEST PUSH0 DUP2 SWAP1 POP SWAP2 SWAP1 POP JUMP JUMPDEST PUSH2 0x229 DUP2 PUSH2 0x217 JUMP JUMPDEST DUP2 EQ PUSH2 0x233 JUMPI PUSH0 DUP1 REVERT JUMPDEST POP JUMP JUMPDEST PUSH0 DUP2 CALLDATALOAD SWAP1 POP PUSH2 0x244 DUP2 PUSH2 0x220 JUMP JUMPDEST SWAP3 SWAP2 POP POP JUMP JUMPDEST PUSH0 DUP1 PUSH1 0x40 DUP4 DUP6 SUB SLT ISZERO PUSH2 0x260 JUMPI PUSH2 0x25F PUSH2 0x213 JUMP JUMPDEST JUMPDEST PUSH0 PUSH2 0x26D DUP6 DUP3 DUP7 ADD PUSH2 0x236 JUMP JUMPDEST SWAP3 POP POP PUSH1 0x20 PUSH2 0x27E DUP6 DUP3 DUP7 ADD PUSH2 0x236 JUMP JUMPDEST SWAP2 POP POP SWAP3 POP SWAP3 SWAP1 POP JUMP JUMPDEST PUSH2 0x291 DUP2 PUSH2 0x217 JUMP JUMPDEST DUP3 MSTORE POP POP JUMP JUMPDEST PUSH0 PUSH1 0x20 DUP3 ADD SWAP1 POP PUSH2 0x2AA PUSH0 DUP4 ADD DUP5 PUSH2 0x288 JUMP JUMPDEST SWAP3 SWAP2 POP POP JUMP JUMPDEST PUSH0 DUP2 SWAP1 POP SWAP2 SWAP1 POP JUMP JUMPDEST PUSH2 0x2C2 DUP2 PUSH2 0x2B0 JUMP JUMPDEST DUP2 EQ PUSH2 0x2CC JUMPI PUSH0 DUP1 REVERT JUMPDEST POP JUMP JUMPDEST PUSH0 DUP2 CALLDATALOAD SWAP1 POP PUSH2 0x2DD DUP2 PUSH2 0x2B9 JUMP JUMPDEST SWAP3 SWAP2 POP POP JUMP JUMPDEST PUSH0 DUP1 PUSH1 0x40 DUP4 DUP6 SUB SLT ISZERO PUSH2 0x2F9 JUMPI PUSH2 0x2F8 PUSH2 0x213 JUMP JUMPDEST JUMPDEST PUSH0 PUSH2 0x306 DUP6 DUP3 DUP7 ADD PUSH2 0x2CF JUMP JUMPDEST SWAP3 POP POP PUSH1 0x20 PUSH2 0x317 DUP6 DUP3 DUP7 ADD PUSH2 0x2CF JUMP JUMPDEST SWAP2 POP POP SWAP3 POP SWAP3 SWAP1 POP JUMP JUMPDEST PUSH2 0x32A DUP2 PUSH2 0x2B0 JUMP JUMPDEST DUP3 MSTORE POP POP JUMP JUMPDEST PUSH0 PUSH1 0x20 DUP3 ADD SWAP1 POP PUSH2 0x343 PUSH0 DUP4 ADD DUP5 PUSH2 0x321 JUMP JUMPDEST SWAP3 SWAP2 POP POP JUMP JUMPDEST PUSH0 PUSH1 0x40 DUP3 ADD SWAP1 POP PUSH2 0x35C PUSH0 DUP4 ADD DUP6 PUSH2 0x288 JUMP JUMPDEST PUSH2 0x369 PUSH1 0x20 DUP4 ADD DUP5 PUSH2 0x288 JUMP JUMPDEST SWAP4 SWAP3 POP POP POP JUMP JUMPDEST PUSH32 0x4E487B7100000000000000000000000000000000000000000000000000000000 PUSH0 MSTORE PUSH1 0x11 PUSH1 0x4 MSTORE PUSH1 0x24 PUSH0 REVERT JUMPDEST PUSH0 PUSH2 0x3A7 DUP3 PUSH2 0x217 JUMP JUMPDEST SWAP2 POP PUSH2 0x3B2 DUP4 PUSH2 0x217 JUMP JUMPDEST SWAP3 POP DUP3 DUP3 SUB SWAP1 POP DUP2 DUP2 GT ISZERO PUSH2 0x3CA JUMPI PUSH2 0x3C9 PUSH2 0x370 JUMP JUMPDEST JUMPDEST SWAP3 SWAP2 POP POP JUMP JUMPDEST PUSH0 PUSH2 0x3DA DUP3 PUSH2 0x2B0 JUMP JUMPDEST SWAP2 POP PUSH2 0x3E5 DUP4 PUSH2 0x2B0 JUMP JUMPDEST SWAP3 POP DUP3 DUP3 SUB SWAP1 POP DUP2 DUP2 SLT PUSH0 DUP5 SLT AND DUP3 DUP3 SGT PUSH0 DUP6 SLT ISZERO AND OR ISZERO PUSH2 0x40A JUMPI PUSH2 0x409 PUSH2 0x370 JUMP JUMPDEST JUMPDEST SWAP3 SWAP2 POP POP JUMP JUMPDEST PUSH0 PUSH2 0x41A DUP3 PUSH2 0x217 JUMP JUMPDEST SWAP2 POP PUSH2 0x425 DUP4 PUSH2 0x217 JUMP JUMPDEST SWAP3 POP DUP3 DUP3 MUL PUSH2 0x433 DUP2 PUSH2 0x217 JUMP JUMPDEST SWAP2 POP DUP3 DUP3 DIV DUP5 EQ DUP4 ISZERO OR PUSH2 0x44A JUMPI PUSH2 0x449 PUSH2 0x370 JUMP JUMPDEST JUMPDEST POP SWAP3 SWAP2 POP POP JUMP JUMPDEST PUSH0 PUSH2 0x45B DUP3 PUSH2 0x217 JUMP JUMPDEST SWAP2 POP PUSH2 0x466 DUP4 PUSH2 0x217 JUMP JUMPDEST SWAP3 POP DUP3 DUP3 ADD SWAP1 POP DUP1 DUP3 GT ISZERO PUSH2 0x47E JUMPI PUSH2 0x47D PUSH2 0x370 JUMP JUMPDEST JUMPDEST SWAP3 SWAP2 POP POP JUMP JUMPDEST PUSH32 0x4E487B7100000000000000000000000000000000000000000000000000000000 PUSH0 MSTORE PUSH1 0x12 PUSH1 0x4 MSTORE PUSH1 0x24 PUSH0 REVERT JUMPDEST PUSH0 PUSH2 0x4BB DUP3 PUSH2 0x217 JUMP JUMPDEST SWAP2 POP PUSH2 0x4C6 DUP4 PUSH2 0x217 JUMP JUMPDEST SWAP3 POP DUP3 PUSH2 0x4D6 JUMPI PUSH2 0x4D5 PUSH2 0x484 JUMP JUMPDEST JUMPDEST DUP3 DUP3 DIV SWAP1 POP SWAP3 SWAP2 POP POP JUMP JUMPDEST PUSH0 PUSH2 0x4EB DUP3 PUSH2 0x217 JUMP JUMPDEST SWAP2 POP PUSH2 0x4F6 DUP4 PUSH2 0x217 JUMP JUMPDEST SWAP3 POP DUP3 PUSH2 0x506 JUMPI PUSH2 0x505 PUSH2 0x484 JUMP JUMPDEST JUMPDEST DUP3 DUP3 MOD SWAP1 POP SWAP3 SWAP2 POP POP JUMP JUMPDEST PUSH0 DUP2 PUSH1 0x1 SHR SWAP1 POP SWAP2 SWAP1 POP JUMP JUMPDEST PUSH0 DUP1 DUP3 SWAP2 POP DUP4 SWAP1 POP JUMPDEST PUSH1 0x1 DUP6 GT ISZERO PUSH2 0x566 JUMPI DUP1 DUP7 DIV DUP2 GT ISZERO PUSH2 0x542 JUMPI PUSH2 0x541 PUSH2 0x370 JUMP JUMPDEST JUMPDEST PUSH1 0x1 DUP6 AND ISZERO PUSH2 0x551 JUMPI DUP1 DUP3 MUL SWAP2 POP JUMPDEST DUP1 DUP2 MUL SWAP1 POP PUSH2 0x55F DUP6 PUSH2 0x511 JUMP JUMPDEST SWAP5 POP PUSH2 0x526 JUMP JUMPDEST SWAP5 POP SWAP5 SWAP3 POP POP POP JUMP JUMPDEST PUSH0 DUP3 PUSH2 0x57E JUMPI PUSH1 0x1 SWAP1 POP PUSH2 0x639 JUMP JUMPDEST DUP2 PUSH2 0x58B JUMPI PUSH0 SWAP1 POP PUSH2 0x639 JUMP JUMPDEST DUP2 PUSH1 0x1 DUP2 EQ PUSH2 0x5A1 JUMPI PUSH1 0x2 DUP2 EQ PUSH2 0x5AB JUMPI PUSH2 0x5DA JUMP JUMPDEST PUSH1 0x1 SWAP2 POP POP PUSH2 0x639 JUMP JUMPDEST PUSH1 0xFF DUP5 GT ISZERO PUSH2 0x5BD JUMPI PUSH2 0x5BC PUSH2 0x370 JUMP JUMPDEST JUMPDEST DUP4 PUSH1 0x2 EXP SWAP2 POP DUP5 DUP3 GT ISZERO PUSH2 0x5D4 JUMPI PUSH2 0x5D3 PUSH2 0x370 JUMP JUMPDEST JUMPDEST POP PUSH2 0x639 JUMP JUMPDEST POP PUSH1 0x20 DUP4 LT PUSH2 0x133 DUP4 LT AND PUSH1 0x4E DUP5 LT PUSH1 0xB DUP5 LT AND OR ISZERO PUSH2 0x60F JUMPI DUP3 DUP3 EXP SWAP1 POP DUP4 DUP2 GT ISZERO PUSH2 0x60A JUMPI PUSH2 0x609 PUSH2 0x370 JUMP JUMPDEST JUMPDEST PUSH2 0x639 JUMP JUMPDEST PUSH2 0x61C DUP5 DUP5 DUP5 PUSH1 0x1 PUSH2 0x51D JUMP JUMPDEST SWAP3 POP SWAP1 POP DUP2 DUP5 DIV DUP2 GT ISZERO PUSH2 0x633 JUMPI PUSH2 0x632 PUSH2 0x370 JUMP JUMPDEST JUMPDEST DUP2 DUP2 MUL SWAP1 POP JUMPDEST SWAP4 SWAP3 POP POP POP JUMP JUMPDEST PUSH0 PUSH2 0x64A DUP3 PUSH2 0x217 JUMP JUMPDEST SWAP2 POP PUSH2 0x655 DUP4 PUSH2 0x217 JUMP JUMPDEST SWAP3 POP PUSH2 0x682 PUSH32 0xFFFFFFFFFFFFFFFFFFFFFFFFFFFFFFFFFFFFFFFFFFFFFFFFFFFFFFFFFFFFFFFF DUP5 DUP5 PUSH2 0x56F JUMP JUMPDEST SWAP1 POP SWAP3 SWAP2 POP POP JUMP INVALID LOG2 PUSH5 0x6970667358 0x22 SLT KECCAK256 0xAE GASLIMIT 0x4F PUSH22 0x2B3CD81A8D8610884A4FDCB9E23C8FA776212D5D1083 RETURNDATACOPY 0x1F 0xA7 0xC8 0xD7 EXTCODEHASH PUSH5 0x736F6C6343 STOP ADDMOD BYTE STOP CALLER "
		},
		"gasEstimates": {
			"creation": {
				"codeDepositCost": "345600",
				"executionCost": "378",
				"totalCost": "345978"
			},
			"external": {
				"Add(uint256,uint256)": "infinite",
				"Div(uint256,uint256)": "infinite",
				"Mul(uint256,uint256)": "infinite",
				"Pow(uint256,uint256)": "infinite",
				"Sub(uint256,uint256)": "infinite",
				"Sub2(int256,int256)": "infinite"
			}
		},
		"methodIdentifiers": {
			"Add(uint256,uint256)": "7afbe4f1",
			"Div(uint256,uint256)": "9a03fe1d",
			"Mul(uint256,uint256)": "60953744",
			"Pow(uint256,uint256)": "de36af6f",
			"Sub(uint256,uint256)": "1ec9c2c0",
			"Sub2(int256,int256)": "3a08e724"
		}
	},
	"abi": [
		{
			"inputs": [
				{
					"internalType": "uint256",
					"name": "_a",
					"type": "uint256"
				},
				{
					"internalType": "uint256",
					"name": "_b",
					"type": "uint256"
				}
			],
			"name": "Add",
			"outputs": [
				{
					"internalType": "uint256",
					"name": "",
					"type": "uint256"
				}
			],
			"stateMutability": "pure",
			"type": "function"
		},
		{
			"inputs": [
				{
					"internalType": "uint256",
					"name": "_a",
					"type": "uint256"
				},
				{
					"internalType": "uint256",
					"name": "_b",
					"type": "uint256"
				}
			],
			"name": "Div",
			"outputs": [
				{
					"internalType": "uint256",
					"name": "",
					"type": "uint256"
				},
				{
					"internalType": "uint256",
					"name": "",
					"type": "uint256"
				}
			],
			"stateMutability": "pure",
			"type": "function"
		},
		{
			"inputs": [
				{
					"internalType": "uint256",
					"name": "_a",
					"type": "uint256"
				},
				{
					"internalType": "uint256",
					"name": "_b",
					"type": "uint256"
				}
			],
			"name": "Mul",
			"outputs": [
				{
					"internalType": "uint256",
					"name": "",
					"type": "uint256"
				}
			],
			"stateMutability": "pure",
			"type": "function"
		},
		{
			"inputs": [
				{
					"internalType": "uint256",
					"name": "_a",
					"type": "uint256"
				},
				{
					"internalType": "uint256",
					"name": "_b",
					"type": "uint256"
				}
			],
			"name": "Pow",
			"outputs": [
				{
					"internalType": "uint256",
					"name": "",
					"type": "uint256"
				}
			],
			"stateMutability": "pure",
			"type": "function"
		},
		{
			"inputs": [
				{
					"internalType": "uint256",
					"name": "_a",
					"type": "uint256"
				},
				{
					"internalType": "uint256",
					"name": "_b",
					"type": "uint256"
				}
			],
			"name": "Sub",
			"outputs": [
				{
					"internalType": "uint256",
					"name": "",
					"type": "uint256"
				}
			],
			"stateMutability": "pure",
			"type": "function"
		},
		{
			"inputs": [
				{
					"internalType": "int256",
					"name": "_a",
					"type": "int256"
				},
				{
					"internalType": "int256",
					"name": "_b",
					"type": "int256"
				}
			],
			"name": "Sub2",
			"outputs": [
				{
					"internalType": "int256",
					"name": "",
					"type": "int256"
				}
			],
			"stateMutability": "pure",
			"type": "function"
		}
	]
}