{
	"data": {
		"bytecode": {
			"linkReferences": {},
			"object": "6080604052348015600e575f80fd5b506101d48061001c5f395ff3fe608060405234801561000f575f80fd5b5060043610610029575f3560e01c806398e64d1e1461002d575b5f80fd5b61004760048036038101906100429190610104565b61005e565b604051610055929190610177565b60405180910390f35b5f80608086815285602082015284604082015283606082015280518151825b608084018110156100ae57805183811115610096578093505b828110156100a2578092505b5060208101905061007d565b50816080528060a052608051945060a051935050505094509492505050565b5f80fd5b5f819050919050565b6100e3816100d1565b81146100ed575f80fd5b50565b5f813590506100fe816100da565b92915050565b5f805f806080858703121561011c5761011b6100cd565b5b5f610129878288016100f0565b945050602061013a878288016100f0565b935050604061014b878288016100f0565b925050606061015c878288016100f0565b91505092959194509250565b610171816100d1565b82525050565b5f60408201905061018a5f830185610168565b6101976020830184610168565b939250505056fea264697066735822122014566f33b067e939e389f981fda8c5cabd3ed902c022bc0d28fbc8496172f95364736f6c634300081a0033",
			"opcodes": "PUSH1 0x80 PUSH1 0x40 MSTORE CALLVALUE DUP1 ISZERO PUSH1 0xE JUMPI PUSH0 DUP1 REVERT JUMPDEST POP PUSH2 0x1D4 DUP1 PUSH2 0x1C PUSH0 CODECOPY PUSH0 RETURN INVALID PUSH1 0x80 PUSH1 0x40 MSTORE CALLVALUE DUP1 ISZERO PUSH2 0xF JUMPI PUSH0 DUP1 REVERT JUMPDEST POP PUSH1 0x4 CALLDATASIZE LT PUSH2 0x29 JUMPI PUSH0 CALLDATALOAD PUSH1 0xE0 SHR DUP1 PUSH4 0x98E64D1E EQ PUSH2 0x2D JUMPI JUMPDEST PUSH0 DUP1 REVERT JUMPDEST PUSH2 0x47 PUSH1 0x4 DUP1 CALLDATASIZE SUB DUP2 ADD SWAP1 PUSH2 0x42 SWAP2 SWAP1 PUSH2 0x104 JUMP JUMPDEST PUSH2 0x5E JUMP JUMPDEST PUSH1 0x40 MLOAD PUSH2 0x55 SWAP3 SWAP2 SWAP1 PUSH2 0x177 JUMP JUMPDEST PUSH1 0x40 MLOAD DUP1 SWAP2 SUB SWAP1 RETURN JUMPDEST PUSH0 DUP1 PUSH1 0x80 DUP7 DUP2 MSTORE DUP6 PUSH1 0x20 DUP3 ADD MSTORE DUP5 PUSH1 0x40 DUP3 ADD MSTORE DUP4 PUSH1 0x60 DUP3 ADD MSTORE DUP1 MLOAD DUP2 MLOAD DUP3 JUMPDEST PUSH1 0x80 DUP5 ADD DUP2 LT ISZERO PUSH2 0xAE JUMPI DUP1 MLOAD DUP4 DUP2 GT ISZERO PUSH2 0x96 JUMPI DUP1 SWAP4 POP JUMPDEST DUP3 DUP2 LT ISZERO PUSH2 0xA2 JUMPI DUP1 SWAP3 POP JUMPDEST POP PUSH1 0x20 DUP2 ADD SWAP1 POP PUSH2 0x7D JUMP JUMPDEST POP DUP2 PUSH1 0x80 MSTORE DUP1 PUSH1 0xA0 MSTORE PUSH1 0x80 MLOAD SWAP5 POP PUSH1 0xA0 MLOAD SWAP4 POP POP POP POP SWAP5 POP SWAP5 SWAP3 POP POP POP JUMP JUMPDEST PUSH0 DUP1 REVERT JUMPDEST PUSH0 DUP2 SWAP1 POP SWAP2 SWAP1 POP JUMP JUMPDEST PUSH2 0xE3 DUP2 PUSH2 0xD1 JUMP JUMPDEST DUP2 EQ PUSH2 0xED JUMPI PUSH0 DUP1 REVERT JUMPDEST POP JUMP JUMPDEST PUSH0 DUP2 CALLDATALOAD SWAP1 POP PUSH2 0xFE DUP2 PUSH2 0xDA JUMP JUMPDEST SWAP3 SWAP2 POP POP JUMP JUMPDEST PUSH0 DUP1 PUSH0 DUP1 PUSH1 0x80 DUP6 DUP8 SUB SLT ISZERO PUSH2 0x11C JUMPI PUSH2 0x11B PUSH2 0xCD JUMP JUMPDEST JUMPDEST PUSH0 PUSH2 0x129 DUP8 DUP3 DUP9 ADD PUSH2 0xF0 JUMP JUMPDEST SWAP5 POP POP PUSH1 0x20 PUSH2 0x13A DUP8 DUP3 DUP9 ADD PUSH2 0xF0 JUMP JUMPDEST SWAP4 POP POP PUSH1 0x40 PUSH2 0x14B DUP8 DUP3 DUP9 ADD PUSH2 0xF0 JUMP JUMPDEST SWAP3 POP POP PUSH1 0x60 PUSH2 0x15C DUP8 DUP3 DUP9 ADD PUSH2 0xF0 JUMP JUMPDEST SWAP2 POP POP SWAP3 SWAP6 SWAP2 SWAP5 POP SWAP3 POP JUMP JUMPDEST PUSH2 0x171 DUP2 PUSH2 0xD1 JUMP JUMPDEST DUP3 MSTORE POP POP JUMP JUMPDEST PUSH0 PUSH1 0x40 DUP3 ADD SWAP1 POP PUSH2 0x18A PUSH0 DUP4 ADD DUP6 PUSH2 0x168 JUMP JUMPDEST PUSH2 0x197 PUSH1 0x20 DUP4 ADD DUP5 PUSH2 0x168 JUMP JUMPDEST SWAP4 SWAP3 POP POP POP JUMP INVALID LOG2 PUSH5 0x6970667358 0x22 SLT KECCAK256 EQ JUMP PUSH16 0x33B067E939E389F981FDA8C5CABD3ED9 MUL 0xC0 0x22 0xBC 0xD 0x28 0xFB 0xC8 BLOBHASH PUSH2 0x72F9 MSTORE8 PUSH5 0x736F6C6343 STOP ADDMOD BYTE STOP CALLER "
		},
		"gasEstimates": {
			"creation": {
				"codeDepositCost": "93600",
				"executionCost": "139",
				"totalCost": "93739"
			},
			"external": {
				"findMaxMin(uint256,uint256,uint256,uint256)": "infinite"
			}
		},
		"methodIdentifiers": {
			"findMaxMin(uint256,uint256,uint256,uint256)": "98e64d1e"
		}
	},
	"abi": [
		{
			"inputs": [
				{
					"internalType": "uint256",
					"name": "_a",
					"type": "uint256"
				},
				{
					"internalType": "uint256",
					"name": "_b",
					"type": "uint256"
				},
				{
					"internalType": "uint256",
					"name": "_c",
					"type": "uint256"
				},
				{
					"internalType": "uint256",
					"name": "_d",
					"type": "uint256"
				}
			],
			"name": "findMaxMin",
			"outputs": [
				{
					"internalType": "uint256",
					"name": "_max",
					"type": "uint256"
				},
				{
					"internalType": "uint256",
					"name": "_min",
					"type": "uint256"
				}
			],
			"stateMutability": "pure",
			"type": "function"
		}
	]
}