{
	"data": {
		"bytecode": {
			"linkReferences": {},
			"object": "6080604052348015600e575f80fd5b5061039d8061001c5f395ff3fe608060405234801561000f575f80fd5b5060043610610029575f3560e01c806378c665371461002d575b5f80fd5b610047600480360381019061004291906101a1565b610060565b60405161005794939291906101db565b60405180910390f35b5f805f805f85116100a6576040517f08c379a000000000000000000000000000000000000000000000000000000000815260040161009d90610278565b60405180910390fd5b5f805f805f600190505b898111610152575f6002826100c591906102c3565b036100d95784806100d590610320565b9550505b5f6003826100e791906102c3565b036100fb5783806100f790610320565b9450505b5f60058261010991906102c3565b0361011d57828061011990610320565b9350505b5f60078261012b91906102c3565b0361013f57818061013b90610320565b9250505b808061014a90610320565b9150506100b0565b50838383839750975097509750505050509193509193565b5f80fd5b5f819050919050565b6101808161016e565b811461018a575f80fd5b50565b5f8135905061019b81610177565b92915050565b5f602082840312156101b6576101b561016a565b5b5f6101c38482850161018d565b91505092915050565b6101d58161016e565b82525050565b5f6080820190506101ee5f8301876101cc565b6101fb60208301866101cc565b61020860408301856101cc565b61021560608301846101cc565b95945050505050565b5f82825260208201905092915050565b7f496e707574206d757374206265206120706f736974697665206e756d626572005f82015250565b5f610262601f8361021e565b915061026d8261022e565b602082019050919050565b5f6020820190508181035f83015261028f81610256565b9050919050565b7f4e487b71000000000000000000000000000000000000000000000000000000005f52601260045260245ffd5b5f6102cd8261016e565b91506102d88361016e565b9250826102e8576102e7610296565b5b828206905092915050565b7f4e487b71000000000000000000000000000000000000000000000000000000005f52601160045260245ffd5b5f61032a8261016e565b91507fffffffffffffffffffffffffffffffffffffffffffffffffffffffffffffffff820361035c5761035b6102f3565b5b60018201905091905056fea26469706673582212206cfcf262edd888c45977506afe37d47ab72761d8f309fc5f82fc9a513f72c0c864736f6c634300081a0033",
			"opcodes": "PUSH1 0x80 PUSH1 0x40 MSTORE CALLVALUE DUP1 ISZERO PUSH1 0xE JUMPI PUSH0 DUP1 REVERT JUMPDEST POP PUSH2 0x39D DUP1 PUSH2 0x1C PUSH0 CODECOPY PUSH0 RETURN INVALID PUSH1 0x80 PUSH1 0x40 MSTORE CALLVALUE DUP1 ISZERO PUSH2 0xF JUMPI PUSH0 DUP1 REVERT JUMPDEST POP PUSH1 0x4 CALLDATASIZE LT PUSH2 0x29 JUMPI PUSH0 CALLDATALOAD PUSH1 0xE0 SHR DUP1 PUSH4 0x78C66537 EQ PUSH2 0x2D JUMPI JUMPDEST PUSH0 DUP1 REVERT JUMPDEST PUSH2 0x47 PUSH1 0x4 DUP1 CALLDATASIZE SUB DUP2 ADD SWAP1 PUSH2 0x42 SWAP2 SWAP1 PUSH2 0x1A1 JUMP JUMPDEST PUSH2 0x60 JUMP JUMPDEST PUSH1 0x40 MLOAD PUSH2 0x57 SWAP5 SWAP4 SWAP3 SWAP2 SWAP1 PUSH2 0x1DB JUMP JUMPDEST PUSH1 0x40 MLOAD DUP1 SWAP2 SUB SWAP1 RETURN JUMPDEST PUSH0 DUP1 PUSH0 DUP1 PUSH0 DUP6 GT PUSH2 0xA6 JUMPI PUSH1 0x40 MLOAD PUSH32 0x8C379A000000000000000000000000000000000000000000000000000000000 DUP2 MSTORE PUSH1 0x4 ADD PUSH2 0x9D SWAP1 PUSH2 0x278 JUMP JUMPDEST PUSH1 0x40 MLOAD DUP1 SWAP2 SUB SWAP1 REVERT JUMPDEST PUSH0 DUP1 PUSH0 DUP1 PUSH0 PUSH1 0x1 SWAP1 POP JUMPDEST DUP10 DUP2 GT PUSH2 0x152 JUMPI PUSH0 PUSH1 0x2 DUP3 PUSH2 0xC5 SWAP2 SWAP1 PUSH2 0x2C3 JUMP JUMPDEST SUB PUSH2 0xD9 JUMPI DUP5 DUP1 PUSH2 0xD5 SWAP1 PUSH2 0x320 JUMP JUMPDEST SWAP6 POP POP JUMPDEST PUSH0 PUSH1 0x3 DUP3 PUSH2 0xE7 SWAP2 SWAP1 PUSH2 0x2C3 JUMP JUMPDEST SUB PUSH2 0xFB JUMPI DUP4 DUP1 PUSH2 0xF7 SWAP1 PUSH2 0x320 JUMP JUMPDEST SWAP5 POP POP JUMPDEST PUSH0 PUSH1 0x5 DUP3 PUSH2 0x109 SWAP2 SWAP1 PUSH2 0x2C3 JUMP JUMPDEST SUB PUSH2 0x11D JUMPI DUP3 DUP1 PUSH2 0x119 SWAP1 PUSH2 0x320 JUMP JUMPDEST SWAP4 POP POP JUMPDEST PUSH0 PUSH1 0x7 DUP3 PUSH2 0x12B SWAP2 SWAP1 PUSH2 0x2C3 JUMP JUMPDEST SUB PUSH2 0x13F JUMPI DUP2 DUP1 PUSH2 0x13B SWAP1 PUSH2 0x320 JUMP JUMPDEST SWAP3 POP POP JUMPDEST DUP1 DUP1 PUSH2 0x14A SWAP1 PUSH2 0x320 JUMP JUMPDEST SWAP2 POP POP PUSH2 0xB0 JUMP JUMPDEST POP DUP4 DUP4 DUP4 DUP4 SWAP8 POP SWAP8 POP SWAP8 POP SWAP8 POP POP POP POP POP SWAP2 SWAP4 POP SWAP2 SWAP4 JUMP JUMPDEST PUSH0 DUP1 REVERT JUMPDEST PUSH0 DUP2 SWAP1 POP SWAP2 SWAP1 POP JUMP JUMPDEST PUSH2 0x180 DUP2 PUSH2 0x16E JUMP JUMPDEST DUP2 EQ PUSH2 0x18A JUMPI PUSH0 DUP1 REVERT JUMPDEST POP JUMP JUMPDEST PUSH0 DUP2 CALLDATALOAD SWAP1 POP PUSH2 0x19B DUP2 PUSH2 0x177 JUMP JUMPDEST SWAP3 SWAP2 POP POP JUMP JUMPDEST PUSH0 PUSH1 0x20 DUP3 DUP5 SUB SLT ISZERO PUSH2 0x1B6 JUMPI PUSH2 0x1B5 PUSH2 0x16A JUMP JUMPDEST JUMPDEST PUSH0 PUSH2 0x1C3 DUP5 DUP3 DUP6 ADD PUSH2 0x18D JUMP JUMPDEST SWAP2 POP POP SWAP3 SWAP2 POP POP JUMP JUMPDEST PUSH2 0x1D5 DUP2 PUSH2 0x16E JUMP JUMPDEST DUP3 MSTORE POP POP JUMP JUMPDEST PUSH0 PUSH1 0x80 DUP3 ADD SWAP1 POP PUSH2 0x1EE PUSH0 DUP4 ADD DUP8 PUSH2 0x1CC JUMP JUMPDEST PUSH2 0x1FB PUSH1 0x20 DUP4 ADD DUP7 PUSH2 0x1CC JUMP JUMPDEST PUSH2 0x208 PUSH1 0x40 DUP4 ADD DUP6 PUSH2 0x1CC JUMP JUMPDEST PUSH2 0x215 PUSH1 0x60 DUP4 ADD DUP5 PUSH2 0x1CC JUMP JUMPDEST SWAP6 SWAP5 POP POP POP POP POP JUMP JUMPDEST PUSH0 DUP3 DUP3 MSTORE PUSH1 0x20 DUP3 ADD SWAP1 POP SWAP3 SWAP2 POP POP JUMP JUMPDEST PUSH32 0x496E707574206D757374206265206120706F736974697665206E756D62657200 PUSH0 DUP3 ADD MSTORE POP JUMP JUMPDEST PUSH0 PUSH2 0x262 PUSH1 0x1F DUP4 PUSH2 0x21E JUMP JUMPDEST SWAP2 POP PUSH2 0x26D DUP3 PUSH2 0x22E JUMP JUMPDEST PUSH1 0x20 DUP3 ADD SWAP1 POP SWAP2 SWAP1 POP JUMP JUMPDEST PUSH0 PUSH1 0x20 DUP3 ADD SWAP1 POP DUP2 DUP2 SUB PUSH0 DUP4 ADD MSTORE PUSH2 0x28F DUP2 PUSH2 0x256 JUMP JUMPDEST SWAP1 POP SWAP2 SWAP1 POP JUMP JUMPDEST PUSH32 0x4E487B7100000000000000000000000000000000000000000000000000000000 PUSH0 MSTORE PUSH1 0x12 PUSH1 0x4 MSTORE PUSH1 0x24 PUSH0 REVERT JUMPDEST PUSH0 PUSH2 0x2CD DUP3 PUSH2 0x16E JUMP JUMPDEST SWAP2 POP PUSH2 0x2D8 DUP4 PUSH2 0x16E JUMP JUMPDEST SWAP3 POP DUP3 PUSH2 0x2E8 JUMPI PUSH2 0x2E7 PUSH2 0x296 JUMP JUMPDEST JUMPDEST DUP3 DUP3 MOD SWAP1 POP SWAP3 SWAP2 POP POP JUMP JUMPDEST PUSH32 0x4E487B7100000000000000000000000000000000000000000000000000000000 PUSH0 MSTORE PUSH1 0x11 PUSH1 0x4 MSTORE PUSH1 0x24 PUSH0 REVERT JUMPDEST PUSH0 PUSH2 0x32A DUP3 PUSH2 0x16E JUMP JUMPDEST SWAP2 POP PUSH32 0xFFFFFFFFFFFFFFFFFFFFFFFFFFFFFFFFFFFFFFFFFFFFFFFFFFFFFFFFFFFFFFFF DUP3 SUB PUSH2 0x35C JUMPI PUSH2 0x35B PUSH2 0x2F3 JUMP JUMPDEST JUMPDEST PUSH1 0x1 DUP3 ADD SWAP1 POP SWAP2 SWAP1 POP JUMP INVALID LOG2 PUSH5 0x6970667358 0x22 SLT KECCAK256 PUSH13 0xFCF262EDD888C45977506AFE37 0xD4 PUSH27 0xB72761D8F309FC5F82FC9A513F72C0C864736F6C634300081A0033 "
		},
		"gasEstimates": {
			"creation": {
				"codeDepositCost": "185000",
				"executionCost": "224",
				"totalCost": "185224"
			},
			"external": {
				"countMultiples(uint256)": "infinite"
			}
		},
		"methodIdentifiers": {
			"countMultiples(uint256)": "78c66537"
		}
	},
	"abi": [
		{
			"inputs": [
				{
					"internalType": "uint256",
					"name": "_n",
					"type": "uint256"
				}
			],
			"name": "countMultiples",
			"outputs": [
				{
					"internalType": "uint256",
					"name": "",
					"type": "uint256"
				},
				{
					"internalType": "uint256",
					"name": "",
					"type": "uint256"
				},
				{
					"internalType": "uint256",
					"name": "",
					"type": "uint256"
				},
				{
					"internalType": "uint256",
					"name": "",
					"type": "uint256"
				}
			],
			"stateMutability": "pure",
			"type": "function"
		}
	]
}