{
	"data": {
		"bytecode": {
			"linkReferences": {},
			"object": "6080604052348015600e575f80fd5b506107188061001c5f395ff3fe608060405234801561000f575f80fd5b5060043610610029575f3560e01c8063e65c9e751461002d575b5f80fd5b6100476004803603810190610042919061032b565b610049565b005b60058351101561008e576040517f08c379a0000000000000000000000000000000000000000000000000000000008152600401610085906103f1565b60405180910390fd5b5f60405180606001604052808581526020018481526020018373ffffffffffffffffffffffffffffffffffffffff16815250908060018154018082558091505060019003905f5260205f2090600302015f909190919091505f820151815f0190816100f99190610613565b50602082015181600101556040820151816002015f6101000a81548173ffffffffffffffffffffffffffffffffffffffff021916908373ffffffffffffffffffffffffffffffffffffffff1602179055505050505050565b5f604051905090565b5f80fd5b5f80fd5b5f80fd5b5f80fd5b5f601f19601f8301169050919050565b7f4e487b71000000000000000000000000000000000000000000000000000000005f52604160045260245ffd5b6101b08261016a565b810181811067ffffffffffffffff821117156101cf576101ce61017a565b5b80604052505050565b5f6101e1610151565b90506101ed82826101a7565b919050565b5f67ffffffffffffffff82111561020c5761020b61017a565b5b6102158261016a565b9050602081019050919050565b828183375f83830152505050565b5f61024261023d846101f2565b6101d8565b90508281526020810184848401111561025e5761025d610166565b5b610269848285610222565b509392505050565b5f82601f83011261028557610284610162565b5b8135610295848260208601610230565b91505092915050565b5f819050919050565b6102b08161029e565b81146102ba575f80fd5b50565b5f813590506102cb816102a7565b92915050565b5f73ffffffffffffffffffffffffffffffffffffffff82169050919050565b5f6102fa826102d1565b9050919050565b61030a816102f0565b8114610314575f80fd5b50565b5f8135905061032581610301565b92915050565b5f805f606084860312156103425761034161015a565b5b5f84013567ffffffffffffffff81111561035f5761035e61015e565b5b61036b86828701610271565b935050602061037c868287016102bd565b925050604061038d86828701610317565b9150509250925092565b5f82825260208201905092915050565b7f4e616d65206d757374206265206174206c6561737420350000000000000000005f82015250565b5f6103db601783610397565b91506103e6826103a7565b602082019050919050565b5f6020820190508181035f830152610408816103cf565b9050919050565b5f81519050919050565b7f4e487b71000000000000000000000000000000000000000000000000000000005f52602260045260245ffd5b5f600282049050600182168061045d57607f821691505b6020821081036104705761046f610419565b5b50919050565b5f819050815f5260205f209050919050565b5f6020601f8301049050919050565b5f82821b905092915050565b5f600883026104d27fffffffffffffffffffffffffffffffffffffffffffffffffffffffffffffffff82610497565b6104dc8683610497565b95508019841693508086168417925050509392505050565b5f819050919050565b5f61051761051261050d8461029e565b6104f4565b61029e565b9050919050565b5f819050919050565b610530836104fd565b61054461053c8261051e565b8484546104a3565b825550505050565b5f90565b61055861054c565b610563818484610527565b505050565b5b818110156105865761057b5f82610550565b600181019050610569565b5050565b601f8211156105cb5761059c81610476565b6105a584610488565b810160208510156105b4578190505b6105c86105c085610488565b830182610568565b50505b505050565b5f82821c905092915050565b5f6105eb5f19846008026105d0565b1980831691505092915050565b5f61060383836105dc565b9150826002028217905092915050565b61061c8261040f565b67ffffffffffffffff8111156106355761063461017a565b5b61063f8254610446565b61064a82828561058a565b5f60209050601f83116001811461067b575f8415610669578287015190505b61067385826105f8565b8655506106da565b601f19841661068986610476565b5f5b828110156106b05784890151825560018201915060208501945060208101905061068b565b868310156106cd57848901516106c9601f8916826105dc565b8355505b6001600288020188555050505b50505050505056fea264697066735822122006a486da751cc6d76dc06bd401bace884d1d075429000386251b2c14cf4b7efb64736f6c634300081a0033",
			"opcodes": "PUSH1 0x80 PUSH1 0x40 MSTORE CALLVALUE DUP1 ISZERO PUSH1 0xE JUMPI PUSH0 DUP1 REVERT JUMPDEST POP PUSH2 0x718 DUP1 PUSH2 0x1C PUSH0 CODECOPY PUSH0 RETURN INVALID PUSH1 0x80 PUSH1 0x40 MSTORE CALLVALUE DUP1 ISZERO PUSH2 0xF JUMPI PUSH0 DUP1 REVERT JUMPDEST POP PUSH1 0x4 CALLDATASIZE LT PUSH2 0x29 JUMPI PUSH0 CALLDATALOAD PUSH1 0xE0 SHR DUP1 PUSH4 0xE65C9E75 EQ PUSH2 0x2D JUMPI JUMPDEST PUSH0 DUP1 REVERT JUMPDEST PUSH2 0x47 PUSH1 0x4 DUP1 CALLDATASIZE SUB DUP2 ADD SWAP1 PUSH2 0x42 SWAP2 SWAP1 PUSH2 0x32B JUMP JUMPDEST PUSH2 0x49 JUMP JUMPDEST STOP JUMPDEST PUSH1 0x5 DUP4 MLOAD LT ISZERO PUSH2 0x8E JUMPI PUSH1 0x40 MLOAD PUSH32 0x8C379A000000000000000000000000000000000000000000000000000000000 DUP2 MSTORE PUSH1 0x4 ADD PUSH2 0x85 SWAP1 PUSH2 0x3F1 JUMP JUMPDEST PUSH1 0x40 MLOAD DUP1 SWAP2 SUB SWAP1 REVERT JUMPDEST PUSH0 PUSH1 0x40 MLOAD DUP1 PUSH1 0x60 ADD PUSH1 0x40 MSTORE DUP1 DUP6 DUP2 MSTORE PUSH1 0x20 ADD DUP5 DUP2 MSTORE PUSH1 0x20 ADD DUP4 PUSH20 0xFFFFFFFFFFFFFFFFFFFFFFFFFFFFFFFFFFFFFFFF AND DUP2 MSTORE POP SWAP1 DUP1 PUSH1 0x1 DUP2 SLOAD ADD DUP1 DUP3 SSTORE DUP1 SWAP2 POP POP PUSH1 0x1 SWAP1 SUB SWAP1 PUSH0 MSTORE PUSH1 0x20 PUSH0 KECCAK256 SWAP1 PUSH1 0x3 MUL ADD PUSH0 SWAP1 SWAP2 SWAP1 SWAP2 SWAP1 SWAP2 POP PUSH0 DUP3 ADD MLOAD DUP2 PUSH0 ADD SWAP1 DUP2 PUSH2 0xF9 SWAP2 SWAP1 PUSH2 0x613 JUMP JUMPDEST POP PUSH1 0x20 DUP3 ADD MLOAD DUP2 PUSH1 0x1 ADD SSTORE PUSH1 0x40 DUP3 ADD MLOAD DUP2 PUSH1 0x2 ADD PUSH0 PUSH2 0x100 EXP DUP2 SLOAD DUP2 PUSH20 0xFFFFFFFFFFFFFFFFFFFFFFFFFFFFFFFFFFFFFFFF MUL NOT AND SWAP1 DUP4 PUSH20 0xFFFFFFFFFFFFFFFFFFFFFFFFFFFFFFFFFFFFFFFF AND MUL OR SWAP1 SSTORE POP POP POP POP POP POP JUMP JUMPDEST PUSH0 PUSH1 0x40 MLOAD SWAP1 POP SWAP1 JUMP JUMPDEST PUSH0 DUP1 REVERT JUMPDEST PUSH0 DUP1 REVERT JUMPDEST PUSH0 DUP1 REVERT JUMPDEST PUSH0 DUP1 REVERT JUMPDEST PUSH0 PUSH1 0x1F NOT PUSH1 0x1F DUP4 ADD AND SWAP1 POP SWAP2 SWAP1 POP JUMP JUMPDEST PUSH32 0x4E487B7100000000000000000000000000000000000000000000000000000000 PUSH0 MSTORE PUSH1 0x41 PUSH1 0x4 MSTORE PUSH1 0x24 PUSH0 REVERT JUMPDEST PUSH2 0x1B0 DUP3 PUSH2 0x16A JUMP JUMPDEST DUP2 ADD DUP2 DUP2 LT PUSH8 0xFFFFFFFFFFFFFFFF DUP3 GT OR ISZERO PUSH2 0x1CF JUMPI PUSH2 0x1CE PUSH2 0x17A JUMP JUMPDEST JUMPDEST DUP1 PUSH1 0x40 MSTORE POP POP POP JUMP JUMPDEST PUSH0 PUSH2 0x1E1 PUSH2 0x151 JUMP JUMPDEST SWAP1 POP PUSH2 0x1ED DUP3 DUP3 PUSH2 0x1A7 JUMP JUMPDEST SWAP2 SWAP1 POP JUMP JUMPDEST PUSH0 PUSH8 0xFFFFFFFFFFFFFFFF DUP3 GT ISZERO PUSH2 0x20C JUMPI PUSH2 0x20B PUSH2 0x17A JUMP JUMPDEST JUMPDEST PUSH2 0x215 DUP3 PUSH2 0x16A JUMP JUMPDEST SWAP1 POP PUSH1 0x20 DUP2 ADD SWAP1 POP SWAP2 SWAP1 POP JUMP JUMPDEST DUP3 DUP2 DUP4 CALLDATACOPY PUSH0 DUP4 DUP4 ADD MSTORE POP POP POP JUMP JUMPDEST PUSH0 PUSH2 0x242 PUSH2 0x23D DUP5 PUSH2 0x1F2 JUMP JUMPDEST PUSH2 0x1D8 JUMP JUMPDEST SWAP1 POP DUP3 DUP2 MSTORE PUSH1 0x20 DUP2 ADD DUP5 DUP5 DUP5 ADD GT ISZERO PUSH2 0x25E JUMPI PUSH2 0x25D PUSH2 0x166 JUMP JUMPDEST JUMPDEST PUSH2 0x269 DUP5 DUP3 DUP6 PUSH2 0x222 JUMP JUMPDEST POP SWAP4 SWAP3 POP POP POP JUMP JUMPDEST PUSH0 DUP3 PUSH1 0x1F DUP4 ADD SLT PUSH2 0x285 JUMPI PUSH2 0x284 PUSH2 0x162 JUMP JUMPDEST JUMPDEST DUP2 CALLDATALOAD PUSH2 0x295 DUP5 DUP3 PUSH1 0x20 DUP7 ADD PUSH2 0x230 JUMP JUMPDEST SWAP2 POP POP SWAP3 SWAP2 POP POP JUMP JUMPDEST PUSH0 DUP2 SWAP1 POP SWAP2 SWAP1 POP JUMP JUMPDEST PUSH2 0x2B0 DUP2 PUSH2 0x29E JUMP JUMPDEST DUP2 EQ PUSH2 0x2BA JUMPI PUSH0 DUP1 REVERT JUMPDEST POP JUMP JUMPDEST PUSH0 DUP2 CALLDATALOAD SWAP1 POP PUSH2 0x2CB DUP2 PUSH2 0x2A7 JUMP JUMPDEST SWAP3 SWAP2 POP POP JUMP JUMPDEST PUSH0 PUSH20 0xFFFFFFFFFFFFFFFFFFFFFFFFFFFFFFFFFFFFFFFF DUP3 AND SWAP1 POP SWAP2 SWAP1 POP JUMP JUMPDEST PUSH0 PUSH2 0x2FA DUP3 PUSH2 0x2D1 JUMP JUMPDEST SWAP1 POP SWAP2 SWAP1 POP JUMP JUMPDEST PUSH2 0x30A DUP2 PUSH2 0x2F0 JUMP JUMPDEST DUP2 EQ PUSH2 0x314 JUMPI PUSH0 DUP1 REVERT JUMPDEST POP JUMP JUMPDEST PUSH0 DUP2 CALLDATALOAD SWAP1 POP PUSH2 0x325 DUP2 PUSH2 0x301 JUMP JUMPDEST SWAP3 SWAP2 POP POP JUMP JUMPDEST PUSH0 DUP1 PUSH0 PUSH1 0x60 DUP5 DUP7 SUB SLT ISZERO PUSH2 0x342 JUMPI PUSH2 0x341 PUSH2 0x15A JUMP JUMPDEST JUMPDEST PUSH0 DUP5 ADD CALLDATALOAD PUSH8 0xFFFFFFFFFFFFFFFF DUP2 GT ISZERO PUSH2 0x35F JUMPI PUSH2 0x35E PUSH2 0x15E JUMP JUMPDEST JUMPDEST PUSH2 0x36B DUP7 DUP3 DUP8 ADD PUSH2 0x271 JUMP JUMPDEST SWAP4 POP POP PUSH1 0x20 PUSH2 0x37C DUP7 DUP3 DUP8 ADD PUSH2 0x2BD JUMP JUMPDEST SWAP3 POP POP PUSH1 0x40 PUSH2 0x38D DUP7 DUP3 DUP8 ADD PUSH2 0x317 JUMP JUMPDEST SWAP2 POP POP SWAP3 POP SWAP3 POP SWAP3 JUMP JUMPDEST PUSH0 DUP3 DUP3 MSTORE PUSH1 0x20 DUP3 ADD SWAP1 POP SWAP3 SWAP2 POP POP JUMP JUMPDEST PUSH32 0x4E616D65206D757374206265206174206C656173742035000000000000000000 PUSH0 DUP3 ADD MSTORE POP JUMP JUMPDEST PUSH0 PUSH2 0x3DB PUSH1 0x17 DUP4 PUSH2 0x397 JUMP JUMPDEST SWAP2 POP PUSH2 0x3E6 DUP3 PUSH2 0x3A7 JUMP JUMPDEST PUSH1 0x20 DUP3 ADD SWAP1 POP SWAP2 SWAP1 POP JUMP JUMPDEST PUSH0 PUSH1 0x20 DUP3 ADD SWAP1 POP DUP2 DUP2 SUB PUSH0 DUP4 ADD MSTORE PUSH2 0x408 DUP2 PUSH2 0x3CF JUMP JUMPDEST SWAP1 POP SWAP2 SWAP1 POP JUMP JUMPDEST PUSH0 DUP2 MLOAD SWAP1 POP SWAP2 SWAP1 POP JUMP JUMPDEST PUSH32 0x4E487B7100000000000000000000000000000000000000000000000000000000 PUSH0 MSTORE PUSH1 0x22 PUSH1 0x4 MSTORE PUSH1 0x24 PUSH0 REVERT JUMPDEST PUSH0 PUSH1 0x2 DUP3 DIV SWAP1 POP PUSH1 0x1 DUP3 AND DUP1 PUSH2 0x45D JUMPI PUSH1 0x7F DUP3 AND SWAP2 POP JUMPDEST PUSH1 0x20 DUP3 LT DUP2 SUB PUSH2 0x470 JUMPI PUSH2 0x46F PUSH2 0x419 JUMP JUMPDEST JUMPDEST POP SWAP2 SWAP1 POP JUMP JUMPDEST PUSH0 DUP2 SWAP1 POP DUP2 PUSH0 MSTORE PUSH1 0x20 PUSH0 KECCAK256 SWAP1 POP SWAP2 SWAP1 POP JUMP JUMPDEST PUSH0 PUSH1 0x20 PUSH1 0x1F DUP4 ADD DIV SWAP1 POP SWAP2 SWAP1 POP JUMP JUMPDEST PUSH0 DUP3 DUP3 SHL SWAP1 POP SWAP3 SWAP2 POP POP JUMP JUMPDEST PUSH0 PUSH1 0x8 DUP4 MUL PUSH2 0x4D2 PUSH32 0xFFFFFFFFFFFFFFFFFFFFFFFFFFFFFFFFFFFFFFFFFFFFFFFFFFFFFFFFFFFFFFFF DUP3 PUSH2 0x497 JUMP JUMPDEST PUSH2 0x4DC DUP7 DUP4 PUSH2 0x497 JUMP JUMPDEST SWAP6 POP DUP1 NOT DUP5 AND SWAP4 POP DUP1 DUP7 AND DUP5 OR SWAP3 POP POP POP SWAP4 SWAP3 POP POP POP JUMP JUMPDEST PUSH0 DUP2 SWAP1 POP SWAP2 SWAP1 POP JUMP JUMPDEST PUSH0 PUSH2 0x517 PUSH2 0x512 PUSH2 0x50D DUP5 PUSH2 0x29E JUMP JUMPDEST PUSH2 0x4F4 JUMP JUMPDEST PUSH2 0x29E JUMP JUMPDEST SWAP1 POP SWAP2 SWAP1 POP JUMP JUMPDEST PUSH0 DUP2 SWAP1 POP SWAP2 SWAP1 POP JUMP JUMPDEST PUSH2 0x530 DUP4 PUSH2 0x4FD JUMP JUMPDEST PUSH2 0x544 PUSH2 0x53C DUP3 PUSH2 0x51E JUMP JUMPDEST DUP5 DUP5 SLOAD PUSH2 0x4A3 JUMP JUMPDEST DUP3 SSTORE POP POP POP POP JUMP JUMPDEST PUSH0 SWAP1 JUMP JUMPDEST PUSH2 0x558 PUSH2 0x54C JUMP JUMPDEST PUSH2 0x563 DUP2 DUP5 DUP5 PUSH2 0x527 JUMP JUMPDEST POP POP POP JUMP JUMPDEST JUMPDEST DUP2 DUP2 LT ISZERO PUSH2 0x586 JUMPI PUSH2 0x57B PUSH0 DUP3 PUSH2 0x550 JUMP JUMPDEST PUSH1 0x1 DUP2 ADD SWAP1 POP PUSH2 0x569 JUMP JUMPDEST POP POP JUMP JUMPDEST PUSH1 0x1F DUP3 GT ISZERO PUSH2 0x5CB JUMPI PUSH2 0x59C DUP2 PUSH2 0x476 JUMP JUMPDEST PUSH2 0x5A5 DUP5 PUSH2 0x488 JUMP JUMPDEST DUP2 ADD PUSH1 0x20 DUP6 LT ISZERO PUSH2 0x5B4 JUMPI DUP2 SWAP1 POP JUMPDEST PUSH2 0x5C8 PUSH2 0x5C0 DUP6 PUSH2 0x488 JUMP JUMPDEST DUP4 ADD DUP3 PUSH2 0x568 JUMP JUMPDEST POP POP JUMPDEST POP POP POP JUMP JUMPDEST PUSH0 DUP3 DUP3 SHR SWAP1 POP SWAP3 SWAP2 POP POP JUMP JUMPDEST PUSH0 PUSH2 0x5EB PUSH0 NOT DUP5 PUSH1 0x8 MUL PUSH2 0x5D0 JUMP JUMPDEST NOT DUP1 DUP4 AND SWAP2 POP POP SWAP3 SWAP2 POP POP JUMP JUMPDEST PUSH0 PUSH2 0x603 DUP4 DUP4 PUSH2 0x5DC JUMP JUMPDEST SWAP2 POP DUP3 PUSH1 0x2 MUL DUP3 OR SWAP1 POP SWAP3 SWAP2 POP POP JUMP JUMPDEST PUSH2 0x61C DUP3 PUSH2 0x40F JUMP JUMPDEST PUSH8 0xFFFFFFFFFFFFFFFF DUP2 GT ISZERO PUSH2 0x635 JUMPI PUSH2 0x634 PUSH2 0x17A JUMP JUMPDEST JUMPDEST PUSH2 0x63F DUP3 SLOAD PUSH2 0x446 JUMP JUMPDEST PUSH2 0x64A DUP3 DUP3 DUP6 PUSH2 0x58A JUMP JUMPDEST PUSH0 PUSH1 0x20 SWAP1 POP PUSH1 0x1F DUP4 GT PUSH1 0x1 DUP2 EQ PUSH2 0x67B JUMPI PUSH0 DUP5 ISZERO PUSH2 0x669 JUMPI DUP3 DUP8 ADD MLOAD SWAP1 POP JUMPDEST PUSH2 0x673 DUP6 DUP3 PUSH2 0x5F8 JUMP JUMPDEST DUP7 SSTORE POP PUSH2 0x6DA JUMP JUMPDEST PUSH1 0x1F NOT DUP5 AND PUSH2 0x689 DUP7 PUSH2 0x476 JUMP JUMPDEST PUSH0 JUMPDEST DUP3 DUP2 LT ISZERO PUSH2 0x6B0 JUMPI DUP5 DUP10 ADD MLOAD DUP3 SSTORE PUSH1 0x1 DUP3 ADD SWAP2 POP PUSH1 0x20 DUP6 ADD SWAP5 POP PUSH1 0x20 DUP2 ADD SWAP1 POP PUSH2 0x68B JUMP JUMPDEST DUP7 DUP4 LT ISZERO PUSH2 0x6CD JUMPI DUP5 DUP10 ADD MLOAD PUSH2 0x6C9 PUSH1 0x1F DUP10 AND DUP3 PUSH2 0x5DC JUMP JUMPDEST DUP4 SSTORE POP JUMPDEST PUSH1 0x1 PUSH1 0x2 DUP9 MUL ADD DUP9 SSTORE POP POP POP JUMPDEST POP POP POP POP POP POP JUMP INVALID LOG2 PUSH5 0x6970667358 0x22 SLT KECCAK256 MOD LOG4 DUP7 0xDA PUSH22 0x1CC6D76DC06BD401BACE884D1D075429000386251B2C EQ 0xCF 0x4B PUSH31 0xFB64736F6C634300081A003300000000000000000000000000000000000000 "
		},
		"gasEstimates": {
			"creation": {
				"codeDepositCost": "363200",
				"executionCost": "397",
				"totalCost": "363597"
			},
			"external": {
				"addCustomer(string,uint256,address)": "infinite"
			}
		},
		"methodIdentifiers": {
			"addCustomer(string,uint256,address)": "e65c9e75"
		}
	},
	"abi": [
		{
			"inputs": [
				{
					"internalType": "string",
					"name": "_name",
					"type": "string"
				},
				{
					"internalType": "uint256",
					"name": "_id",
					"type": "uint256"
				},
				{
					"internalType": "address",
					"name": "_wallet",
					"type": "address"
				}
			],
			"name": "addCustomer",
			"outputs": [],
			"stateMutability": "nonpayable",
			"type": "function"
		}
	]
}