{
	"data": {
		"bytecode": {
			"linkReferences": {},
			"object": "6080604052348015600e575f80fd5b5060a680601a5f395ff3fe6080604052348015600e575f80fd5b50600436106026575f3560e01c8063ac3afa4314602a575b5f80fd5b60306032565b005b5f5b600a811015606d575f81908060018154018082558091505060019003905f5260205f20015f909190919091505580806001019150506034565b5056fea2646970667358221220c13b845c8404eebcfbe71c71e9cb51030a3810ef00251582416f270314406ea464736f6c634300081a0033",
			"opcodes": "PUSH1 0x80 PUSH1 0x40 MSTORE CALLVALUE DUP1 ISZERO PUSH1 0xE JUMPI PUSH0 DUP1 REVERT JUMPDEST POP PUSH1 0xA6 DUP1 PUSH1 0x1A PUSH0 CODECOPY PUSH0 RETURN INVALID PUSH1 0x80 PUSH1 0x40 MSTORE CALLVALUE DUP1 ISZERO PUSH1 0xE JUMPI PUSH0 DUP1 REVERT JUMPDEST POP PUSH1 0x4 CALLDATASIZE LT PUSH1 0x26 JUMPI PUSH0 CALLDATALOAD PUSH1 0xE0 SHR DUP1 PUSH4 0xAC3AFA43 EQ PUSH1 0x2A JUMPI JUMPDEST PUSH0 DUP1 REVERT JUMPDEST PUSH1 0x30 PUSH1 0x32 JUMP JUMPDEST STOP JUMPDEST PUSH0 JUMPDEST PUSH1 0xA DUP2 LT ISZERO PUSH1 0x6D JUMPI PUSH0 DUP2 SWAP1 DUP1 PUSH1 0x1 DUP2 SLOAD ADD DUP1 DUP3 SSTORE DUP1 SWAP2 POP POP PUSH1 0x1 SWAP1 SUB SWAP1 PUSH0 MSTORE PUSH1 0x20 PUSH0 KECCAK256 ADD PUSH0 SWAP1 SWAP2 SWAP1 SWAP2 SWAP1 SWAP2 POP SSTORE DUP1 DUP1 PUSH1 0x1 ADD SWAP2 POP POP PUSH1 0x34 JUMP JUMPDEST POP JUMP INVALID LOG2 PUSH5 0x6970667358 0x22 SLT KECCAK256 0xC1 EXTCODESIZE DUP5 TLOAD DUP5 DIV 0xEE 0xBC 0xFB 0xE7 SHR PUSH18 0xE9CB51030A3810EF00251582416F27031440 PUSH15 0xA464736F6C634300081A0033000000 "
		},
		"gasEstimates": {
			"creation": {
				"codeDepositCost": "33200",
				"executionCost": "85",
				"totalCost": "33285"
			},
			"external": {
				"setNum()": "infinite"
			}
		},
		"methodIdentifiers": {
			"setNum()": "ac3afa43"
		}
	},
	"abi": [
		{
			"inputs": [],
			"name": "setNum",
			"outputs": [],
			"stateMutability": "nonpayable",
			"type": "function"
		}
	]
}