{
	"data": {
		"bytecode": {
			"linkReferences": {},
			"object": "6080604052348015600e575f80fd5b506102d98061001c5f395ff3fe608060405234801561000f575f80fd5b5060043610610029575f3560e01c8063c04f01fc1461002d575b5f80fd5b6100476004803603810190610042919061010f565b61005d565b604051610054919061015c565b60405180910390f35b5f80820361006e57600190506100d2565b5f60028361007c91906101a2565b036100ae575f6100988460028561009391906101ff565b61005d565b905080816100a6919061022f565b9150506100d2565b6100c4836001846100bf9190610270565b61005d565b836100cf919061022f565b90505b92915050565b5f80fd5b5f819050919050565b6100ee816100dc565b81146100f8575f80fd5b50565b5f81359050610109816100e5565b92915050565b5f8060408385031215610125576101246100d8565b5b5f610132858286016100fb565b9250506020610143858286016100fb565b9150509250929050565b610156816100dc565b82525050565b5f60208201905061016f5f83018461014d565b92915050565b7f4e487b71000000000000000000000000000000000000000000000000000000005f52601260045260245ffd5b5f6101ac826100dc565b91506101b7836100dc565b9250826101c7576101c6610175565b5b828206905092915050565b7f4e487b71000000000000000000000000000000000000000000000000000000005f52601160045260245ffd5b5f610209826100dc565b9150610214836100dc565b92508261022457610223610175565b5b828204905092915050565b5f610239826100dc565b9150610244836100dc565b9250828202610252816100dc565b91508282048414831517610269576102686101d2565b5b5092915050565b5f61027a826100dc565b9150610285836100dc565b925082820390508181111561029d5761029c6101d2565b5b9291505056fea2646970667358221220d87e8ef5c77023e229992eb241641bb61c9118b2c81a1eff97d2a5699b55a09464736f6c634300081a0033",
			"opcodes": "PUSH1 0x80 PUSH1 0x40 MSTORE CALLVALUE DUP1 ISZERO PUSH1 0xE JUMPI PUSH0 DUP1 REVERT JUMPDEST POP PUSH2 0x2D9 DUP1 PUSH2 0x1C PUSH0 CODECOPY PUSH0 RETURN INVALID PUSH1 0x80 PUSH1 0x40 MSTORE CALLVALUE DUP1 ISZERO PUSH2 0xF JUMPI PUSH0 DUP1 REVERT JUMPDEST POP PUSH1 0x4 CALLDATASIZE LT PUSH2 0x29 JUMPI PUSH0 CALLDATALOAD PUSH1 0xE0 SHR DUP1 PUSH4 0xC04F01FC EQ PUSH2 0x2D JUMPI JUMPDEST PUSH0 DUP1 REVERT JUMPDEST PUSH2 0x47 PUSH1 0x4 DUP1 CALLDATASIZE SUB DUP2 ADD SWAP1 PUSH2 0x42 SWAP2 SWAP1 PUSH2 0x10F JUMP JUMPDEST PUSH2 0x5D JUMP JUMPDEST PUSH1 0x40 MLOAD PUSH2 0x54 SWAP2 SWAP1 PUSH2 0x15C JUMP JUMPDEST PUSH1 0x40 MLOAD DUP1 SWAP2 SUB SWAP1 RETURN JUMPDEST PUSH0 DUP1 DUP3 SUB PUSH2 0x6E JUMPI PUSH1 0x1 SWAP1 POP PUSH2 0xD2 JUMP JUMPDEST PUSH0 PUSH1 0x2 DUP4 PUSH2 0x7C SWAP2 SWAP1 PUSH2 0x1A2 JUMP JUMPDEST SUB PUSH2 0xAE JUMPI PUSH0 PUSH2 0x98 DUP5 PUSH1 0x2 DUP6 PUSH2 0x93 SWAP2 SWAP1 PUSH2 0x1FF JUMP JUMPDEST PUSH2 0x5D JUMP JUMPDEST SWAP1 POP DUP1 DUP2 PUSH2 0xA6 SWAP2 SWAP1 PUSH2 0x22F JUMP JUMPDEST SWAP2 POP POP PUSH2 0xD2 JUMP JUMPDEST PUSH2 0xC4 DUP4 PUSH1 0x1 DUP5 PUSH2 0xBF SWAP2 SWAP1 PUSH2 0x270 JUMP JUMPDEST PUSH2 0x5D JUMP JUMPDEST DUP4 PUSH2 0xCF SWAP2 SWAP1 PUSH2 0x22F JUMP JUMPDEST SWAP1 POP JUMPDEST SWAP3 SWAP2 POP POP JUMP JUMPDEST PUSH0 DUP1 REVERT JUMPDEST PUSH0 DUP2 SWAP1 POP SWAP2 SWAP1 POP JUMP JUMPDEST PUSH2 0xEE DUP2 PUSH2 0xDC JUMP JUMPDEST DUP2 EQ PUSH2 0xF8 JUMPI PUSH0 DUP1 REVERT JUMPDEST POP JUMP JUMPDEST PUSH0 DUP2 CALLDATALOAD SWAP1 POP PUSH2 0x109 DUP2 PUSH2 0xE5 JUMP JUMPDEST SWAP3 SWAP2 POP POP JUMP JUMPDEST PUSH0 DUP1 PUSH1 0x40 DUP4 DUP6 SUB SLT ISZERO PUSH2 0x125 JUMPI PUSH2 0x124 PUSH2 0xD8 JUMP JUMPDEST JUMPDEST PUSH0 PUSH2 0x132 DUP6 DUP3 DUP7 ADD PUSH2 0xFB JUMP JUMPDEST SWAP3 POP POP PUSH1 0x20 PUSH2 0x143 DUP6 DUP3 DUP7 ADD PUSH2 0xFB JUMP JUMPDEST SWAP2 POP POP SWAP3 POP SWAP3 SWAP1 POP JUMP JUMPDEST PUSH2 0x156 DUP2 PUSH2 0xDC JUMP JUMPDEST DUP3 MSTORE POP POP JUMP JUMPDEST PUSH0 PUSH1 0x20 DUP3 ADD SWAP1 POP PUSH2 0x16F PUSH0 DUP4 ADD DUP5 PUSH2 0x14D JUMP JUMPDEST SWAP3 SWAP2 POP POP JUMP JUMPDEST PUSH32 0x4E487B7100000000000000000000000000000000000000000000000000000000 PUSH0 MSTORE PUSH1 0x12 PUSH1 0x4 MSTORE PUSH1 0x24 PUSH0 REVERT JUMPDEST PUSH0 PUSH2 0x1AC DUP3 PUSH2 0xDC JUMP JUMPDEST SWAP2 POP PUSH2 0x1B7 DUP4 PUSH2 0xDC JUMP JUMPDEST SWAP3 POP DUP3 PUSH2 0x1C7 JUMPI PUSH2 0x1C6 PUSH2 0x175 JUMP JUMPDEST JUMPDEST DUP3 DUP3 MOD SWAP1 POP SWAP3 SWAP2 POP POP JUMP JUMPDEST PUSH32 0x4E487B7100000000000000000000000000000000000000000000000000000000 PUSH0 MSTORE PUSH1 0x11 PUSH1 0x4 MSTORE PUSH1 0x24 PUSH0 REVERT JUMPDEST PUSH0 PUSH2 0x209 DUP3 PUSH2 0xDC JUMP JUMPDEST SWAP2 POP PUSH2 0x214 DUP4 PUSH2 0xDC JUMP JUMPDEST SWAP3 POP DUP3 PUSH2 0x224 JUMPI PUSH2 0x223 PUSH2 0x175 JUMP JUMPDEST JUMPDEST DUP3 DUP3 DIV SWAP1 POP SWAP3 SWAP2 POP POP JUMP JUMPDEST PUSH0 PUSH2 0x239 DUP3 PUSH2 0xDC JUMP JUMPDEST SWAP2 POP PUSH2 0x244 DUP4 PUSH2 0xDC JUMP JUMPDEST SWAP3 POP DUP3 DUP3 MUL PUSH2 0x252 DUP2 PUSH2 0xDC JUMP JUMPDEST SWAP2 POP DUP3 DUP3 DIV DUP5 EQ DUP4 ISZERO OR PUSH2 0x269 JUMPI PUSH2 0x268 PUSH2 0x1D2 JUMP JUMPDEST JUMPDEST POP SWAP3 SWAP2 POP POP JUMP JUMPDEST PUSH0 PUSH2 0x27A DUP3 PUSH2 0xDC JUMP JUMPDEST SWAP2 POP PUSH2 0x285 DUP4 PUSH2 0xDC JUMP JUMPDEST SWAP3 POP DUP3 DUP3 SUB SWAP1 POP DUP2 DUP2 GT ISZERO PUSH2 0x29D JUMPI PUSH2 0x29C PUSH2 0x1D2 JUMP JUMPDEST JUMPDEST SWAP3 SWAP2 POP POP JUMP INVALID LOG2 PUSH5 0x6970667358 0x22 SLT KECCAK256 0xD8 PUSH31 0x8EF5C77023E229992EB241641BB61C9118B2C81A1EFF97D2A5699B55A09464 PUSH20 0x6F6C634300081A00330000000000000000000000 "
		},
		"gasEstimates": {
			"creation": {
				"codeDepositCost": "145800",
				"executionCost": "188",
				"totalCost": "145988"
			},
			"external": {
				"power(uint256,uint256)": "infinite"
			}
		},
		"methodIdentifiers": {
			"power(uint256,uint256)": "c04f01fc"
		}
	},
	"abi": [
		{
			"inputs": [
				{
					"internalType": "uint256",
					"name": "_a",
					"type": "uint256"
				},
				{
					"internalType": "uint256",
					"name": "_b",
					"type": "uint256"
				}
			],
			"name": "power",
			"outputs": [
				{
					"internalType": "uint256",
					"name": "",
					"type": "uint256"
				}
			],
			"stateMutability": "pure",
			"type": "function"
		}
	]
}