{
	"data": {
		"bytecode": {
			"linkReferences": {},
			"object": "6080604052348015600e575f80fd5b506105768061001c5f395ff3fe608060405234801561000f575f80fd5b506004361061003f575f3560e01c8063165c4a1614610043578063771602f714610073578063c04f01fc146100a3575b5f80fd5b61005d60048036038101906100589190610248565b6100d3565b60405161006a9190610295565b60405180910390f35b61008d60048036038101906100889190610248565b61013d565b60405161009a9190610295565b60405180910390f35b6100bd60048036038101906100b89190610248565b6101a7565b6040516100ca9190610295565b60405180910390f35b5f8282600a82111580156100e85750600a8111155b610127576040517f08c379a000000000000000000000000000000000000000000000000000000000815260040161011e90610308565b60405180910390fd5b83856101339190610353565b9250505092915050565b5f8282600a82111580156101525750600a8111155b610191576040517f08c379a000000000000000000000000000000000000000000000000000000000815260040161018890610308565b60405180910390fd5b838561019d9190610394565b9250505092915050565b5f8282600a82111580156101bc5750600a8111155b6101fb576040517f08c379a00000000000000000000000000000000000000000000000000000000081526004016101f290610308565b60405180910390fd5b838561020791906104f6565b9250505092915050565b5f80fd5b5f819050919050565b61022781610215565b8114610231575f80fd5b50565b5f813590506102428161021e565b92915050565b5f806040838503121561025e5761025d610211565b5b5f61026b85828601610234565b925050602061027c85828601610234565b9150509250929050565b61028f81610215565b82525050565b5f6020820190506102a85f830184610286565b92915050565b5f82825260208201905092915050565b7f496e70757473206d757374206265206265747765656e203020616e64203130005f82015250565b5f6102f2601f836102ae565b91506102fd826102be565b602082019050919050565b5f6020820190508181035f83015261031f816102e6565b9050919050565b7f4e487b71000000000000000000000000000000000000000000000000000000005f52601160045260245ffd5b5f61035d82610215565b915061036883610215565b925082820261037681610215565b9150828204841483151761038d5761038c610326565b5b5092915050565b5f61039e82610215565b91506103a983610215565b92508282019050808211156103c1576103c0610326565b5b92915050565b5f8160011c9050919050565b5f808291508390505b600185111561041c578086048111156103f8576103f7610326565b5b60018516156104075780820291505b8081029050610415856103c7565b94506103dc565b94509492505050565b5f8261043457600190506104ef565b81610441575f90506104ef565b8160018114610457576002811461046157610490565b60019150506104ef565b60ff84111561047357610472610326565b5b8360020a91508482111561048a57610489610326565b5b506104ef565b5060208310610133831016604e8410600b84101617156104c55782820a9050838111156104c0576104bf610326565b5b6104ef565b6104d284848460016103d3565b925090508184048111156104e9576104e8610326565b5b81810290505b9392505050565b5f61050082610215565b915061050b83610215565b92506105387fffffffffffffffffffffffffffffffffffffffffffffffffffffffffffffffff8484610425565b90509291505056fea26469706673582212200116f6e03d7182a3776d920da5bb9cfb1166cac7be2b9ca463cee68188e4097964736f6c634300081a0033",
			"opcodes": "PUSH1 0x80 PUSH1 0x40 MSTORE CALLVALUE DUP1 ISZERO PUSH1 0xE JUMPI PUSH0 DUP1 REVERT JUMPDEST POP PUSH2 0x576 DUP1 PUSH2 0x1C PUSH0 CODECOPY PUSH0 RETURN INVALID PUSH1 0x80 PUSH1 0x40 MSTORE CALLVALUE DUP1 ISZERO PUSH2 0xF JUMPI PUSH0 DUP1 REVERT JUMPDEST POP PUSH1 0x4 CALLDATASIZE LT PUSH2 0x3F JUMPI PUSH0 CALLDATALOAD PUSH1 0xE0 SHR DUP1 PUSH4 0x165C4A16 EQ PUSH2 0x43 JUMPI DUP1 PUSH4 0x771602F7 EQ PUSH2 0x73 JUMPI DUP1 PUSH4 0xC04F01FC EQ PUSH2 0xA3 JUMPI JUMPDEST PUSH0 DUP1 REVERT JUMPDEST PUSH2 0x5D PUSH1 0x4 DUP1 CALLDATASIZE SUB DUP2 ADD SWAP1 PUSH2 0x58 SWAP2 SWAP1 PUSH2 0x248 JUMP JUMPDEST PUSH2 0xD3 JUMP JUMPDEST PUSH1 0x40 MLOAD PUSH2 0x6A SWAP2 SWAP1 PUSH2 0x295 JUMP JUMPDEST PUSH1 0x40 MLOAD DUP1 SWAP2 SUB SWAP1 RETURN JUMPDEST PUSH2 0x8D PUSH1 0x4 DUP1 CALLDATASIZE SUB DUP2 ADD SWAP1 PUSH2 0x88 SWAP2 SWAP1 PUSH2 0x248 JUMP JUMPDEST PUSH2 0x13D JUMP JUMPDEST PUSH1 0x40 MLOAD PUSH2 0x9A SWAP2 SWAP1 PUSH2 0x295 JUMP JUMPDEST PUSH1 0x40 MLOAD DUP1 SWAP2 SUB SWAP1 RETURN JUMPDEST PUSH2 0xBD PUSH1 0x4 DUP1 CALLDATASIZE SUB DUP2 ADD SWAP1 PUSH2 0xB8 SWAP2 SWAP1 PUSH2 0x248 JUMP JUMPDEST PUSH2 0x1A7 JUMP JUMPDEST PUSH1 0x40 MLOAD PUSH2 0xCA SWAP2 SWAP1 PUSH2 0x295 JUMP JUMPDEST PUSH1 0x40 MLOAD DUP1 SWAP2 SUB SWAP1 RETURN JUMPDEST PUSH0 DUP3 DUP3 PUSH1 0xA DUP3 GT ISZERO DUP1 ISZERO PUSH2 0xE8 JUMPI POP PUSH1 0xA DUP2 GT ISZERO JUMPDEST PUSH2 0x127 JUMPI PUSH1 0x40 MLOAD PUSH32 0x8C379A000000000000000000000000000000000000000000000000000000000 DUP2 MSTORE PUSH1 0x4 ADD PUSH2 0x11E SWAP1 PUSH2 0x308 JUMP JUMPDEST PUSH1 0x40 MLOAD DUP1 SWAP2 SUB SWAP1 REVERT JUMPDEST DUP4 DUP6 PUSH2 0x133 SWAP2 SWAP1 PUSH2 0x353 JUMP JUMPDEST SWAP3 POP POP POP SWAP3 SWAP2 POP POP JUMP JUMPDEST PUSH0 DUP3 DUP3 PUSH1 0xA DUP3 GT ISZERO DUP1 ISZERO PUSH2 0x152 JUMPI POP PUSH1 0xA DUP2 GT ISZERO JUMPDEST PUSH2 0x191 JUMPI PUSH1 0x40 MLOAD PUSH32 0x8C379A000000000000000000000000000000000000000000000000000000000 DUP2 MSTORE PUSH1 0x4 ADD PUSH2 0x188 SWAP1 PUSH2 0x308 JUMP JUMPDEST PUSH1 0x40 MLOAD DUP1 SWAP2 SUB SWAP1 REVERT JUMPDEST DUP4 DUP6 PUSH2 0x19D SWAP2 SWAP1 PUSH2 0x394 JUMP JUMPDEST SWAP3 POP POP POP SWAP3 SWAP2 POP POP JUMP JUMPDEST PUSH0 DUP3 DUP3 PUSH1 0xA DUP3 GT ISZERO DUP1 ISZERO PUSH2 0x1BC JUMPI POP PUSH1 0xA DUP2 GT ISZERO JUMPDEST PUSH2 0x1FB JUMPI PUSH1 0x40 MLOAD PUSH32 0x8C379A000000000000000000000000000000000000000000000000000000000 DUP2 MSTORE PUSH1 0x4 ADD PUSH2 0x1F2 SWAP1 PUSH2 0x308 JUMP JUMPDEST PUSH1 0x40 MLOAD DUP1 SWAP2 SUB SWAP1 REVERT JUMPDEST DUP4 DUP6 PUSH2 0x207 SWAP2 SWAP1 PUSH2 0x4F6 JUMP JUMPDEST SWAP3 POP POP POP SWAP3 SWAP2 POP POP JUMP JUMPDEST PUSH0 DUP1 REVERT JUMPDEST PUSH0 DUP2 SWAP1 POP SWAP2 SWAP1 POP JUMP JUMPDEST PUSH2 0x227 DUP2 PUSH2 0x215 JUMP JUMPDEST DUP2 EQ PUSH2 0x231 JUMPI PUSH0 DUP1 REVERT JUMPDEST POP JUMP JUMPDEST PUSH0 DUP2 CALLDATALOAD SWAP1 POP PUSH2 0x242 DUP2 PUSH2 0x21E JUMP JUMPDEST SWAP3 SWAP2 POP POP JUMP JUMPDEST PUSH0 DUP1 PUSH1 0x40 DUP4 DUP6 SUB SLT ISZERO PUSH2 0x25E JUMPI PUSH2 0x25D PUSH2 0x211 JUMP JUMPDEST JUMPDEST PUSH0 PUSH2 0x26B DUP6 DUP3 DUP7 ADD PUSH2 0x234 JUMP JUMPDEST SWAP3 POP POP PUSH1 0x20 PUSH2 0x27C DUP6 DUP3 DUP7 ADD PUSH2 0x234 JUMP JUMPDEST SWAP2 POP POP SWAP3 POP SWAP3 SWAP1 POP JUMP JUMPDEST PUSH2 0x28F DUP2 PUSH2 0x215 JUMP JUMPDEST DUP3 MSTORE POP POP JUMP JUMPDEST PUSH0 PUSH1 0x20 DUP3 ADD SWAP1 POP PUSH2 0x2A8 PUSH0 DUP4 ADD DUP5 PUSH2 0x286 JUMP JUMPDEST SWAP3 SWAP2 POP POP JUMP JUMPDEST PUSH0 DUP3 DUP3 MSTORE PUSH1 0x20 DUP3 ADD SWAP1 POP SWAP3 SWAP2 POP POP JUMP JUMPDEST PUSH32 0x496E70757473206D757374206265206265747765656E203020616E6420313000 PUSH0 DUP3 ADD MSTORE POP JUMP JUMPDEST PUSH0 PUSH2 0x2F2 PUSH1 0x1F DUP4 PUSH2 0x2AE JUMP JUMPDEST SWAP2 POP PUSH2 0x2FD DUP3 PUSH2 0x2BE JUMP JUMPDEST PUSH1 0x20 DUP3 ADD SWAP1 POP SWAP2 SWAP1 POP JUMP JUMPDEST PUSH0 PUSH1 0x20 DUP3 ADD SWAP1 POP DUP2 DUP2 SUB PUSH0 DUP4 ADD MSTORE PUSH2 0x31F DUP2 PUSH2 0x2E6 JUMP JUMPDEST SWAP1 POP SWAP2 SWAP1 POP JUMP JUMPDEST PUSH32 0x4E487B7100000000000000000000000000000000000000000000000000000000 PUSH0 MSTORE PUSH1 0x11 PUSH1 0x4 MSTORE PUSH1 0x24 PUSH0 REVERT JUMPDEST PUSH0 PUSH2 0x35D DUP3 PUSH2 0x215 JUMP JUMPDEST SWAP2 POP PUSH2 0x368 DUP4 PUSH2 0x215 JUMP JUMPDEST SWAP3 POP DUP3 DUP3 MUL PUSH2 0x376 DUP2 PUSH2 0x215 JUMP JUMPDEST SWAP2 POP DUP3 DUP3 DIV DUP5 EQ DUP4 ISZERO OR PUSH2 0x38D JUMPI PUSH2 0x38C PUSH2 0x326 JUMP JUMPDEST JUMPDEST POP SWAP3 SWAP2 POP POP JUMP JUMPDEST PUSH0 PUSH2 0x39E DUP3 PUSH2 0x215 JUMP JUMPDEST SWAP2 POP PUSH2 0x3A9 DUP4 PUSH2 0x215 JUMP JUMPDEST SWAP3 POP DUP3 DUP3 ADD SWAP1 POP DUP1 DUP3 GT ISZERO PUSH2 0x3C1 JUMPI PUSH2 0x3C0 PUSH2 0x326 JUMP JUMPDEST JUMPDEST SWAP3 SWAP2 POP POP JUMP JUMPDEST PUSH0 DUP2 PUSH1 0x1 SHR SWAP1 POP SWAP2 SWAP1 POP JUMP JUMPDEST PUSH0 DUP1 DUP3 SWAP2 POP DUP4 SWAP1 POP JUMPDEST PUSH1 0x1 DUP6 GT ISZERO PUSH2 0x41C JUMPI DUP1 DUP7 DIV DUP2 GT ISZERO PUSH2 0x3F8 JUMPI PUSH2 0x3F7 PUSH2 0x326 JUMP JUMPDEST JUMPDEST PUSH1 0x1 DUP6 AND ISZERO PUSH2 0x407 JUMPI DUP1 DUP3 MUL SWAP2 POP JUMPDEST DUP1 DUP2 MUL SWAP1 POP PUSH2 0x415 DUP6 PUSH2 0x3C7 JUMP JUMPDEST SWAP5 POP PUSH2 0x3DC JUMP JUMPDEST SWAP5 POP SWAP5 SWAP3 POP POP POP JUMP JUMPDEST PUSH0 DUP3 PUSH2 0x434 JUMPI PUSH1 0x1 SWAP1 POP PUSH2 0x4EF JUMP JUMPDEST DUP2 PUSH2 0x441 JUMPI PUSH0 SWAP1 POP PUSH2 0x4EF JUMP JUMPDEST DUP2 PUSH1 0x1 DUP2 EQ PUSH2 0x457 JUMPI PUSH1 0x2 DUP2 EQ PUSH2 0x461 JUMPI PUSH2 0x490 JUMP JUMPDEST PUSH1 0x1 SWAP2 POP POP PUSH2 0x4EF JUMP JUMPDEST PUSH1 0xFF DUP5 GT ISZERO PUSH2 0x473 JUMPI PUSH2 0x472 PUSH2 0x326 JUMP JUMPDEST JUMPDEST DUP4 PUSH1 0x2 EXP SWAP2 POP DUP5 DUP3 GT ISZERO PUSH2 0x48A JUMPI PUSH2 0x489 PUSH2 0x326 JUMP JUMPDEST JUMPDEST POP PUSH2 0x4EF JUMP JUMPDEST POP PUSH1 0x20 DUP4 LT PUSH2 0x133 DUP4 LT AND PUSH1 0x4E DUP5 LT PUSH1 0xB DUP5 LT AND OR ISZERO PUSH2 0x4C5 JUMPI DUP3 DUP3 EXP SWAP1 POP DUP4 DUP2 GT ISZERO PUSH2 0x4C0 JUMPI PUSH2 0x4BF PUSH2 0x326 JUMP JUMPDEST JUMPDEST PUSH2 0x4EF JUMP JUMPDEST PUSH2 0x4D2 DUP5 DUP5 DUP5 PUSH1 0x1 PUSH2 0x3D3 JUMP JUMPDEST SWAP3 POP SWAP1 POP DUP2 DUP5 DIV DUP2 GT ISZERO PUSH2 0x4E9 JUMPI PUSH2 0x4E8 PUSH2 0x326 JUMP JUMPDEST JUMPDEST DUP2 DUP2 MUL SWAP1 POP JUMPDEST SWAP4 SWAP3 POP POP POP JUMP JUMPDEST PUSH0 PUSH2 0x500 DUP3 PUSH2 0x215 JUMP JUMPDEST SWAP2 POP PUSH2 0x50B DUP4 PUSH2 0x215 JUMP JUMPDEST SWAP3 POP PUSH2 0x538 PUSH32 0xFFFFFFFFFFFFFFFFFFFFFFFFFFFFFFFFFFFFFFFFFFFFFFFFFFFFFFFFFFFFFFFF DUP5 DUP5 PUSH2 0x425 JUMP JUMPDEST SWAP1 POP SWAP3 SWAP2 POP POP JUMP INVALID LOG2 PUSH5 0x6970667358 0x22 SLT KECCAK256 ADD AND 0xF6 0xE0 RETURNDATASIZE PUSH18 0x82A3776D920DA5BB9CFB1166CAC7BE2B9CA4 PUSH4 0xCEE68188 0xE4 MULMOD PUSH26 0x64736F6C634300081A0033000000000000000000000000000000 "
		},
		"gasEstimates": {
			"creation": {
				"codeDepositCost": "279600",
				"executionCost": "316",
				"totalCost": "279916"
			},
			"external": {
				"add(uint256,uint256)": "infinite",
				"multiply(uint256,uint256)": "infinite",
				"power(uint256,uint256)": "infinite"
			}
		},
		"methodIdentifiers": {
			"add(uint256,uint256)": "771602f7",
			"multiply(uint256,uint256)": "165c4a16",
			"power(uint256,uint256)": "c04f01fc"
		}
	},
	"abi": [
		{
			"inputs": [
				{
					"internalType": "uint256",
					"name": "_a",
					"type": "uint256"
				},
				{
					"internalType": "uint256",
					"name": "_b",
					"type": "uint256"
				}
			],
			"name": "add",
			"outputs": [
				{
					"internalType": "uint256",
					"name": "",
					"type": "uint256"
				}
			],
			"stateMutability": "pure",
			"type": "function"
		},
		{
			"inputs": [
				{
					"internalType": "uint256",
					"name": "_a",
					"type": "uint256"
				},
				{
					"internalType": "uint256",
					"name": "_b",
					"type": "uint256"
				}
			],
			"name": "multiply",
			"outputs": [
				{
					"internalType": "uint256",
					"name": "",
					"type": "uint256"
				}
			],
			"stateMutability": "pure",
			"type": "function"
		},
		{
			"inputs": [
				{
					"internalType": "uint256",
					"name": "_a",
					"type": "uint256"
				},
				{
					"internalType": "uint256",
					"name": "_b",
					"type": "uint256"
				}
			],
			"name": "power",
			"outputs": [
				{
					"internalType": "uint256",
					"name": "",
					"type": "uint256"
				}
			],
			"stateMutability": "pure",
			"type": "function"
		}
	]
}