{
	"data": {
		"bytecode": {
			"linkReferences": {},
			"object": "6080604052348015600e575f80fd5b506104bb8061001c5f395ff3fe608060405234801561000f575f80fd5b5060043610610029575f3560e01c8063e93956791461002d575b5f80fd5b610047600480360381019061004291906101fc565b61005d565b6040516100549190610297565b60405180910390f35b60605f82036100a3576040518060400160405280600181526020017f300000000000000000000000000000000000000000000000000000000000000081525090506101c0565b5f8290505f5b5f82146100d25780806100bb906102e4565b915050600a826100cb9190610358565b91506100a9565b5f8167ffffffffffffffff8111156100ed576100ec610388565b5b6040519080825280601f01601f19166020018201604052801561011f5781602001600182028036833780820191505090505b5090505f8290505b5f86146101b85760018161013b91906103b5565b90505f600a8761014b91906103e8565b60306101579190610424565b90505f8160f81b90508084848151811061017457610173610458565b5b60200101907effffffffffffffffffffffffffffffffffffffffffffffffffffffffffffff191690815f1a905350600a886101af9190610358565b97505050610127565b819450505050505b919050565b5f80fd5b5f819050919050565b6101db816101c9565b81146101e5575f80fd5b50565b5f813590506101f6816101d2565b92915050565b5f60208284031215610211576102106101c5565b5b5f61021e848285016101e8565b91505092915050565b5f81519050919050565b5f82825260208201905092915050565b8281835e5f83830152505050565b5f601f19601f8301169050919050565b5f61026982610227565b6102738185610231565b9350610283818560208601610241565b61028c8161024f565b840191505092915050565b5f6020820190508181035f8301526102af818461025f565b905092915050565b7f4e487b71000000000000000000000000000000000000000000000000000000005f52601160045260245ffd5b5f6102ee826101c9565b91507fffffffffffffffffffffffffffffffffffffffffffffffffffffffffffffffff82036103205761031f6102b7565b5b600182019050919050565b7f4e487b71000000000000000000000000000000000000000000000000000000005f52601260045260245ffd5b5f610362826101c9565b915061036d836101c9565b92508261037d5761037c61032b565b5b828204905092915050565b7f4e487b71000000000000000000000000000000000000000000000000000000005f52604160045260245ffd5b5f6103bf826101c9565b91506103ca836101c9565b92508282039050818111156103e2576103e16102b7565b5b92915050565b5f6103f2826101c9565b91506103fd836101c9565b92508261040d5761040c61032b565b5b828206905092915050565b5f60ff82169050919050565b5f61042e82610418565b915061043983610418565b9250828201905060ff811115610452576104516102b7565b5b92915050565b7f4e487b71000000000000000000000000000000000000000000000000000000005f52603260045260245ffdfea2646970667358221220abf0a601e581d22b62e85270ac99657f176b049231fbeb57c76e5323c58b3a5664736f6c634300081a0033",
			"opcodes": "PUSH1 0x80 PUSH1 0x40 MSTORE CALLVALUE DUP1 ISZERO PUSH1 0xE JUMPI PUSH0 DUP1 REVERT JUMPDEST POP PUSH2 0x4BB DUP1 PUSH2 0x1C PUSH0 CODECOPY PUSH0 RETURN INVALID PUSH1 0x80 PUSH1 0x40 MSTORE CALLVALUE DUP1 ISZERO PUSH2 0xF JUMPI PUSH0 DUP1 REVERT JUMPDEST POP PUSH1 0x4 CALLDATASIZE LT PUSH2 0x29 JUMPI PUSH0 CALLDATALOAD PUSH1 0xE0 SHR DUP1 PUSH4 0xE9395679 EQ PUSH2 0x2D JUMPI JUMPDEST PUSH0 DUP1 REVERT JUMPDEST PUSH2 0x47 PUSH1 0x4 DUP1 CALLDATASIZE SUB DUP2 ADD SWAP1 PUSH2 0x42 SWAP2 SWAP1 PUSH2 0x1FC JUMP JUMPDEST PUSH2 0x5D JUMP JUMPDEST PUSH1 0x40 MLOAD PUSH2 0x54 SWAP2 SWAP1 PUSH2 0x297 JUMP JUMPDEST PUSH1 0x40 MLOAD DUP1 SWAP2 SUB SWAP1 RETURN JUMPDEST PUSH1 0x60 PUSH0 DUP3 SUB PUSH2 0xA3 JUMPI PUSH1 0x40 MLOAD DUP1 PUSH1 0x40 ADD PUSH1 0x40 MSTORE DUP1 PUSH1 0x1 DUP2 MSTORE PUSH1 0x20 ADD PUSH32 0x3000000000000000000000000000000000000000000000000000000000000000 DUP2 MSTORE POP SWAP1 POP PUSH2 0x1C0 JUMP JUMPDEST PUSH0 DUP3 SWAP1 POP PUSH0 JUMPDEST PUSH0 DUP3 EQ PUSH2 0xD2 JUMPI DUP1 DUP1 PUSH2 0xBB SWAP1 PUSH2 0x2E4 JUMP JUMPDEST SWAP2 POP POP PUSH1 0xA DUP3 PUSH2 0xCB SWAP2 SWAP1 PUSH2 0x358 JUMP JUMPDEST SWAP2 POP PUSH2 0xA9 JUMP JUMPDEST PUSH0 DUP2 PUSH8 0xFFFFFFFFFFFFFFFF DUP2 GT ISZERO PUSH2 0xED JUMPI PUSH2 0xEC PUSH2 0x388 JUMP JUMPDEST JUMPDEST PUSH1 0x40 MLOAD SWAP1 DUP1 DUP3 MSTORE DUP1 PUSH1 0x1F ADD PUSH1 0x1F NOT AND PUSH1 0x20 ADD DUP3 ADD PUSH1 0x40 MSTORE DUP1 ISZERO PUSH2 0x11F JUMPI DUP2 PUSH1 0x20 ADD PUSH1 0x1 DUP3 MUL DUP1 CALLDATASIZE DUP4 CALLDATACOPY DUP1 DUP3 ADD SWAP2 POP POP SWAP1 POP JUMPDEST POP SWAP1 POP PUSH0 DUP3 SWAP1 POP JUMPDEST PUSH0 DUP7 EQ PUSH2 0x1B8 JUMPI PUSH1 0x1 DUP2 PUSH2 0x13B SWAP2 SWAP1 PUSH2 0x3B5 JUMP JUMPDEST SWAP1 POP PUSH0 PUSH1 0xA DUP8 PUSH2 0x14B SWAP2 SWAP1 PUSH2 0x3E8 JUMP JUMPDEST PUSH1 0x30 PUSH2 0x157 SWAP2 SWAP1 PUSH2 0x424 JUMP JUMPDEST SWAP1 POP PUSH0 DUP2 PUSH1 0xF8 SHL SWAP1 POP DUP1 DUP5 DUP5 DUP2 MLOAD DUP2 LT PUSH2 0x174 JUMPI PUSH2 0x173 PUSH2 0x458 JUMP JUMPDEST JUMPDEST PUSH1 0x20 ADD ADD SWAP1 PUSH31 0xFFFFFFFFFFFFFFFFFFFFFFFFFFFFFFFFFFFFFFFFFFFFFFFFFFFFFFFFFFFFFF NOT AND SWAP1 DUP2 PUSH0 BYTE SWAP1 MSTORE8 POP PUSH1 0xA DUP9 PUSH2 0x1AF SWAP2 SWAP1 PUSH2 0x358 JUMP JUMPDEST SWAP8 POP POP POP PUSH2 0x127 JUMP JUMPDEST DUP2 SWAP5 POP POP POP POP POP JUMPDEST SWAP2 SWAP1 POP JUMP JUMPDEST PUSH0 DUP1 REVERT JUMPDEST PUSH0 DUP2 SWAP1 POP SWAP2 SWAP1 POP JUMP JUMPDEST PUSH2 0x1DB DUP2 PUSH2 0x1C9 JUMP JUMPDEST DUP2 EQ PUSH2 0x1E5 JUMPI PUSH0 DUP1 REVERT JUMPDEST POP JUMP JUMPDEST PUSH0 DUP2 CALLDATALOAD SWAP1 POP PUSH2 0x1F6 DUP2 PUSH2 0x1D2 JUMP JUMPDEST SWAP3 SWAP2 POP POP JUMP JUMPDEST PUSH0 PUSH1 0x20 DUP3 DUP5 SUB SLT ISZERO PUSH2 0x211 JUMPI PUSH2 0x210 PUSH2 0x1C5 JUMP JUMPDEST JUMPDEST PUSH0 PUSH2 0x21E DUP5 DUP3 DUP6 ADD PUSH2 0x1E8 JUMP JUMPDEST SWAP2 POP POP SWAP3 SWAP2 POP POP JUMP JUMPDEST PUSH0 DUP2 MLOAD SWAP1 POP SWAP2 SWAP1 POP JUMP JUMPDEST PUSH0 DUP3 DUP3 MSTORE PUSH1 0x20 DUP3 ADD SWAP1 POP SWAP3 SWAP2 POP POP JUMP JUMPDEST DUP3 DUP2 DUP4 MCOPY PUSH0 DUP4 DUP4 ADD MSTORE POP POP POP JUMP JUMPDEST PUSH0 PUSH1 0x1F NOT PUSH1 0x1F DUP4 ADD AND SWAP1 POP SWAP2 SWAP1 POP JUMP JUMPDEST PUSH0 PUSH2 0x269 DUP3 PUSH2 0x227 JUMP JUMPDEST PUSH2 0x273 DUP2 DUP6 PUSH2 0x231 JUMP JUMPDEST SWAP4 POP PUSH2 0x283 DUP2 DUP6 PUSH1 0x20 DUP7 ADD PUSH2 0x241 JUMP JUMPDEST PUSH2 0x28C DUP2 PUSH2 0x24F JUMP JUMPDEST DUP5 ADD SWAP2 POP POP SWAP3 SWAP2 POP POP JUMP JUMPDEST PUSH0 PUSH1 0x20 DUP3 ADD SWAP1 POP DUP2 DUP2 SUB PUSH0 DUP4 ADD MSTORE PUSH2 0x2AF DUP2 DUP5 PUSH2 0x25F JUMP JUMPDEST SWAP1 POP SWAP3 SWAP2 POP POP JUMP JUMPDEST PUSH32 0x4E487B7100000000000000000000000000000000000000000000000000000000 PUSH0 MSTORE PUSH1 0x11 PUSH1 0x4 MSTORE PUSH1 0x24 PUSH0 REVERT JUMPDEST PUSH0 PUSH2 0x2EE DUP3 PUSH2 0x1C9 JUMP JUMPDEST SWAP2 POP PUSH32 0xFFFFFFFFFFFFFFFFFFFFFFFFFFFFFFFFFFFFFFFFFFFFFFFFFFFFFFFFFFFFFFFF DUP3 SUB PUSH2 0x320 JUMPI PUSH2 0x31F PUSH2 0x2B7 JUMP JUMPDEST JUMPDEST PUSH1 0x1 DUP3 ADD SWAP1 POP SWAP2 SWAP1 POP JUMP JUMPDEST PUSH32 0x4E487B7100000000000000000000000000000000000000000000000000000000 PUSH0 MSTORE PUSH1 0x12 PUSH1 0x4 MSTORE PUSH1 0x24 PUSH0 REVERT JUMPDEST PUSH0 PUSH2 0x362 DUP3 PUSH2 0x1C9 JUMP JUMPDEST SWAP2 POP PUSH2 0x36D DUP4 PUSH2 0x1C9 JUMP JUMPDEST SWAP3 POP DUP3 PUSH2 0x37D JUMPI PUSH2 0x37C PUSH2 0x32B JUMP JUMPDEST JUMPDEST DUP3 DUP3 DIV SWAP1 POP SWAP3 SWAP2 POP POP JUMP JUMPDEST PUSH32 0x4E487B7100000000000000000000000000000000000000000000000000000000 PUSH0 MSTORE PUSH1 0x41 PUSH1 0x4 MSTORE PUSH1 0x24 PUSH0 REVERT JUMPDEST PUSH0 PUSH2 0x3BF DUP3 PUSH2 0x1C9 JUMP JUMPDEST SWAP2 POP PUSH2 0x3CA DUP4 PUSH2 0x1C9 JUMP JUMPDEST SWAP3 POP DUP3 DUP3 SUB SWAP1 POP DUP2 DUP2 GT ISZERO PUSH2 0x3E2 JUMPI PUSH2 0x3E1 PUSH2 0x2B7 JUMP JUMPDEST JUMPDEST SWAP3 SWAP2 POP POP JUMP JUMPDEST PUSH0 PUSH2 0x3F2 DUP3 PUSH2 0x1C9 JUMP JUMPDEST SWAP2 POP PUSH2 0x3FD DUP4 PUSH2 0x1C9 JUMP JUMPDEST SWAP3 POP DUP3 PUSH2 0x40D JUMPI PUSH2 0x40C PUSH2 0x32B JUMP JUMPDEST JUMPDEST DUP3 DUP3 MOD SWAP1 POP SWAP3 SWAP2 POP POP JUMP JUMPDEST PUSH0 PUSH1 0xFF DUP3 AND SWAP1 POP SWAP2 SWAP1 POP JUMP JUMPDEST PUSH0 PUSH2 0x42E DUP3 PUSH2 0x418 JUMP JUMPDEST SWAP2 POP PUSH2 0x439 DUP4 PUSH2 0x418 JUMP JUMPDEST SWAP3 POP DUP3 DUP3 ADD SWAP1 POP PUSH1 0xFF DUP2 GT ISZERO PUSH2 0x452 JUMPI PUSH2 0x451 PUSH2 0x2B7 JUMP JUMPDEST JUMPDEST SWAP3 SWAP2 POP POP JUMP JUMPDEST PUSH32 0x4E487B7100000000000000000000000000000000000000000000000000000000 PUSH0 MSTORE PUSH1 0x32 PUSH1 0x4 MSTORE PUSH1 0x24 PUSH0 REVERT INVALID LOG2 PUSH5 0x6970667358 0x22 SLT KECCAK256 0xAB CREATE 0xA6 ADD 0xE5 DUP2 0xD2 0x2B PUSH3 0xE85270 0xAC SWAP10 PUSH6 0x7F176B049231 0xFB 0xEB JUMPI 0xC7 PUSH15 0x5323C58B3A5664736F6C634300081A STOP CALLER "
		},
		"gasEstimates": {
			"creation": {
				"codeDepositCost": "242200",
				"executionCost": "279",
				"totalCost": "242479"
			},
			"external": {
				"uintToString(uint256)": "infinite"
			}
		},
		"methodIdentifiers": {
			"uintToString(uint256)": "e9395679"
		}
	},
	"abi": [
		{
			"inputs": [
				{
					"internalType": "uint256",
					"name": "_i",
					"type": "uint256"
				}
			],
			"name": "uintToString",
			"outputs": [
				{
					"internalType": "string",
					"name": "",
					"type": "string"
				}
			],
			"stateMutability": "pure",
			"type": "function"
		}
	]
}