{
	"data": {
		"bytecode": {
			"linkReferences": {},
			"object": "6080604052348015600e575f80fd5b506101aa8061001c5f395ff3fe608060405234801561000f575f80fd5b506004361061003f575f3560e01c80634e0101e91461004357806368af37df1461005f578063b599dd851461007d575b5f80fd5b61005d60048036038101906100589190610121565b61009b565b005b6100676100a4565b604051610074919061015b565b60405180910390f35b6100856100b4565b604051610092919061015b565b60405180910390f35b5f548181555050565b5f8054906101000a900460f81b81565b5f805f9054906101000a900460f81b905090565b5f80fd5b5f7fff0000000000000000000000000000000000000000000000000000000000000082169050919050565b610100816100cc565b811461010a575f80fd5b50565b5f8135905061011b816100f7565b92915050565b5f60208284031215610136576101356100c8565b5b5f6101438482850161010d565b91505092915050565b610155816100cc565b82525050565b5f60208201905061016e5f83018461014c565b9291505056fea264697066735822122038ebbec4b29c6b40b168eb986a0f11155d57e0b82a3c26428782b676be959db364736f6c634300081a0033",
			"opcodes": "PUSH1 0x80 PUSH1 0x40 MSTORE CALLVALUE DUP1 ISZERO PUSH1 0xE JUMPI PUSH0 DUP1 REVERT JUMPDEST POP PUSH2 0x1AA DUP1 PUSH2 0x1C PUSH0 CODECOPY PUSH0 RETURN INVALID PUSH1 0x80 PUSH1 0x40 MSTORE CALLVALUE DUP1 ISZERO PUSH2 0xF JUMPI PUSH0 DUP1 REVERT JUMPDEST POP PUSH1 0x4 CALLDATASIZE LT PUSH2 0x3F JUMPI PUSH0 CALLDATALOAD PUSH1 0xE0 SHR DUP1 PUSH4 0x4E0101E9 EQ PUSH2 0x43 JUMPI DUP1 PUSH4 0x68AF37DF EQ PUSH2 0x5F JUMPI DUP1 PUSH4 0xB599DD85 EQ PUSH2 0x7D JUMPI JUMPDEST PUSH0 DUP1 REVERT JUMPDEST PUSH2 0x5D PUSH1 0x4 DUP1 CALLDATASIZE SUB DUP2 ADD SWAP1 PUSH2 0x58 SWAP2 SWAP1 PUSH2 0x121 JUMP JUMPDEST PUSH2 0x9B JUMP JUMPDEST STOP JUMPDEST PUSH2 0x67 PUSH2 0xA4 JUMP JUMPDEST PUSH1 0x40 MLOAD PUSH2 0x74 SWAP2 SWAP1 PUSH2 0x15B JUMP JUMPDEST PUSH1 0x40 MLOAD DUP1 SWAP2 SUB SWAP1 RETURN JUMPDEST PUSH2 0x85 PUSH2 0xB4 JUMP JUMPDEST PUSH1 0x40 MLOAD PUSH2 0x92 SWAP2 SWAP1 PUSH2 0x15B JUMP JUMPDEST PUSH1 0x40 MLOAD DUP1 SWAP2 SUB SWAP1 RETURN JUMPDEST PUSH0 SLOAD DUP2 DUP2 SSTORE POP POP JUMP JUMPDEST PUSH0 DUP1 SLOAD SWAP1 PUSH2 0x100 EXP SWAP1 DIV PUSH1 0xF8 SHL DUP2 JUMP JUMPDEST PUSH0 DUP1 PUSH0 SWAP1 SLOAD SWAP1 PUSH2 0x100 EXP SWAP1 DIV PUSH1 0xF8 SHL SWAP1 POP SWAP1 JUMP JUMPDEST PUSH0 DUP1 REVERT JUMPDEST PUSH0 PUSH32 0xFF00000000000000000000000000000000000000000000000000000000000000 DUP3 AND SWAP1 POP SWAP2 SWAP1 POP JUMP JUMPDEST PUSH2 0x100 DUP2 PUSH2 0xCC JUMP JUMPDEST DUP2 EQ PUSH2 0x10A JUMPI PUSH0 DUP1 REVERT JUMPDEST POP JUMP JUMPDEST PUSH0 DUP2 CALLDATALOAD SWAP1 POP PUSH2 0x11B DUP2 PUSH2 0xF7 JUMP JUMPDEST SWAP3 SWAP2 POP POP JUMP JUMPDEST PUSH0 PUSH1 0x20 DUP3 DUP5 SUB SLT ISZERO PUSH2 0x136 JUMPI PUSH2 0x135 PUSH2 0xC8 JUMP JUMPDEST JUMPDEST PUSH0 PUSH2 0x143 DUP5 DUP3 DUP6 ADD PUSH2 0x10D JUMP JUMPDEST SWAP2 POP POP SWAP3 SWAP2 POP POP JUMP JUMPDEST PUSH2 0x155 DUP2 PUSH2 0xCC JUMP JUMPDEST DUP3 MSTORE POP POP JUMP JUMPDEST PUSH0 PUSH1 0x20 DUP3 ADD SWAP1 POP PUSH2 0x16E PUSH0 DUP4 ADD DUP5 PUSH2 0x14C JUMP JUMPDEST SWAP3 SWAP2 POP POP JUMP INVALID LOG2 PUSH5 0x6970667358 0x22 SLT KECCAK256 CODESIZE 0xEB 0xBE 0xC4 0xB2 SWAP13 PUSH12 0x40B168EB986A0F11155D57E0 0xB8 0x2A EXTCODECOPY 0x26 TIMESTAMP DUP8 DUP3 0xB6 PUSH23 0xBE959DB364736F6C634300081A00330000000000000000 "
		},
		"gasEstimates": {
			"creation": {
				"codeDepositCost": "85200",
				"executionCost": "133",
				"totalCost": "85333"
			},
			"external": {
				"getLetter()": "2495",
				"letter()": "2463",
				"setLetter(bytes1)": "24595"
			}
		},
		"methodIdentifiers": {
			"getLetter()": "b599dd85",
			"letter()": "68af37df",
			"setLetter(bytes1)": "4e0101e9"
		}
	},
	"abi": [
		{
			"inputs": [],
			"name": "getLetter",
			"outputs": [
				{
					"internalType": "bytes1",
					"name": "",
					"type": "bytes1"
				}
			],
			"stateMutability": "view",
			"type": "function"
		},
		{
			"inputs": [],
			"name": "letter",
			"outputs": [
				{
					"internalType": "bytes1",
					"name": "",
					"type": "bytes1"
				}
			],
			"stateMutability": "view",
			"type": "function"
		},
		{
			"inputs": [
				{
					"internalType": "bytes1",
					"name": "_letter",
					"type": "bytes1"
				}
			],
			"name": "setLetter",
			"outputs": [],
			"stateMutability": "nonpayable",
			"type": "function"
		}
	]
}