{
	"solidity/solidity61~70.sol": {
		"Q69": {
			"abi": [
				{
					"inputs": [
						{
							"internalType": "uint256",
							"name": "_a",
							"type": "uint256"
						},
						{
							"internalType": "uint256",
							"name": "_b",
							"type": "uint256"
						},
						{
							"internalType": "uint256",
							"name": "_c",
							"type": "uint256"
						}
					],
					"name": "convertToString",
					"outputs": [
						{
							"internalType": "string",
							"name": "",
							"type": "string"
						}
					],
					"stateMutability": "pure",
					"type": "function"
				}
			],
			"devdoc": {
				"kind": "dev",
				"methods": {},
				"version": 1
			},
			"evm": {
				"assembly": "    /* \"solidity/solidity61~70.sol\":5035:5980  contract Q69 {... */\n  mstore(0x40, 0x80)\n  callvalue\n  dup1\n  iszero\n  tag_1\n  jumpi\n  0x00\n  dup1\n  revert\ntag_1:\n  pop\n  dataSize(sub_0)\n  dup1\n  dataOffset(sub_0)\n  0x00\n  codecopy\n  0x00\n  return\nstop\n\nsub_0: assembly {\n        /* \"solidity/solidity61~70.sol\":5035:5980  contract Q69 {... */\n      mstore(0x40, 0x80)\n      callvalue\n      dup1\n      iszero\n      tag_1\n      jumpi\n      0x00\n      dup1\n      revert\n    tag_1:\n      pop\n      jumpi(tag_2, lt(calldatasize, 0x04))\n      shr(0xe0, calldataload(0x00))\n      dup1\n      0xabb060b9\n      eq\n      tag_3\n      jumpi\n    tag_2:\n      0x00\n      dup1\n      revert\n        /* \"solidity/solidity61~70.sol\":5198:5463  function convertToString(uint _a, uint _b, uint _c) public pure returns (string memory) {... */\n    tag_3:\n      tag_4\n      0x04\n      dup1\n      calldatasize\n      sub\n      dup2\n      add\n      swap1\n      tag_5\n      swap2\n      swap1\n      tag_6\n      jump\t// in\n    tag_5:\n      tag_7\n      jump\t// in\n    tag_4:\n      mload(0x40)\n      tag_8\n      swap2\n      swap1\n      tag_9\n      jump\t// in\n    tag_8:\n      mload(0x40)\n      dup1\n      swap2\n      sub\n      swap1\n      return\n    tag_7:\n        /* \"solidity/solidity61~70.sol\":5271:5284  string memory */\n      0x60\n        /* \"solidity/solidity61~70.sol\":5340:5352  toString(_a) */\n      tag_11\n        /* \"solidity/solidity61~70.sol\":5349:5351  _a */\n      dup5\n        /* \"solidity/solidity61~70.sol\":5340:5348  toString */\n      tag_12\n        /* \"solidity/solidity61~70.sol\":5340:5352  toString(_a) */\n      jump\t// in\n    tag_11:\n        /* \"solidity/solidity61~70.sol\":5387:5399  toString(_b) */\n      tag_13\n        /* \"solidity/solidity61~70.sol\":5396:5398  _b */\n      dup5\n        /* \"solidity/solidity61~70.sol\":5387:5395  toString */\n      tag_12\n        /* \"solidity/solidity61~70.sol\":5387:5399  toString(_b) */\n      jump\t// in\n    tag_13:\n        /* \"solidity/solidity61~70.sol\":5433:5445  toString(_c) */\n      tag_14\n        /* \"solidity/solidity61~70.sol\":5442:5444  _c */\n      dup5\n        /* \"solidity/solidity61~70.sol\":5433:5441  toString */\n      tag_12\n        /* \"solidity/solidity61~70.sol\":5433:5445  toString(_c) */\n      jump\t// in\n    tag_14:\n        /* \"solidity/solidity61~70.sol\":5310:5455  abi.encodePacked(... */\n      add(0x20, mload(0x40))\n      tag_15\n      swap4\n      swap3\n      swap2\n      swap1\n      tag_16\n      jump\t// in\n    tag_15:\n      mload(0x40)\n      0x20\n      dup2\n      dup4\n      sub\n      sub\n      dup2\n      mstore\n      swap1\n      0x40\n      mstore\n        /* \"solidity/solidity61~70.sol\":5296:5456  return string(abi.encodePacked(... */\n      swap1\n      pop\n        /* \"solidity/solidity61~70.sol\":5198:5463  function convertToString(uint _a, uint _b, uint _c) public pure returns (string memory) {... */\n      swap4\n      swap3\n      pop\n      pop\n      pop\n      jump\t// out\n        /* \"solidity/solidity61~70.sol\":5469:5978  function toString(uint _value) internal pure returns (string memory) {... */\n    tag_12:\n        /* \"solidity/solidity61~70.sol\":5523:5536  string memory */\n      0x60\n        /* \"solidity/solidity61~70.sol\":5562:5563  0 */\n      0x00\n        /* \"solidity/solidity61~70.sol\":5552:5558  _value */\n      dup3\n        /* \"solidity/solidity61~70.sol\":5552:5563  _value == 0 */\n      sub\n        /* \"solidity/solidity61~70.sol\":5548:5600  if (_value == 0) {... */\n      tag_18\n      jumpi\n        /* \"solidity/solidity61~70.sol\":5579:5589  return \"0\" */\n      mload(0x40)\n      dup1\n      0x40\n      add\n      0x40\n      mstore\n      dup1\n      0x01\n      dup2\n      mstore\n      0x20\n      add\n      0x3000000000000000000000000000000000000000000000000000000000000000\n      dup2\n      mstore\n      pop\n      swap1\n      pop\n      jump(tag_17)\n        /* \"solidity/solidity61~70.sol\":5548:5600  if (_value == 0) {... */\n    tag_18:\n        /* \"solidity/solidity61~70.sol\":5609:5618  uint temp */\n      0x00\n        /* \"solidity/solidity61~70.sol\":5621:5627  _value */\n      dup3\n        /* \"solidity/solidity61~70.sol\":5609:5627  uint temp = _value */\n      swap1\n      pop\n        /* \"solidity/solidity61~70.sol\":5637:5648  uint digits */\n      0x00\n        /* \"solidity/solidity61~70.sol\":5658:5733  while (temp != 0) {... */\n    tag_19:\n        /* \"solidity/solidity61~70.sol\":5673:5674  0 */\n      0x00\n        /* \"solidity/solidity61~70.sol\":5665:5669  temp */\n      dup3\n        /* \"solidity/solidity61~70.sol\":5665:5674  temp != 0 */\n      eq\n        /* \"solidity/solidity61~70.sol\":5658:5733  while (temp != 0) {... */\n      tag_20\n      jumpi\n        /* \"solidity/solidity61~70.sol\":5690:5698  digits++ */\n      dup1\n      dup1\n      tag_21\n      swap1\n      tag_22\n      jump\t// in\n    tag_21:\n      swap2\n      pop\n      pop\n        /* \"solidity/solidity61~70.sol\":5720:5722  10 */\n      0x0a\n        /* \"solidity/solidity61~70.sol\":5712:5722  temp /= 10 */\n      dup3\n      tag_23\n      swap2\n      swap1\n      tag_24\n      jump\t// in\n    tag_23:\n      swap2\n      pop\n        /* \"solidity/solidity61~70.sol\":5658:5733  while (temp != 0) {... */\n      jump(tag_19)\n    tag_20:\n        /* \"solidity/solidity61~70.sol\":5742:5761  bytes memory buffer */\n      0x00\n        /* \"solidity/solidity61~70.sol\":5774:5780  digits */\n      dup2\n        /* \"solidity/solidity61~70.sol\":5764:5781  new bytes(digits) */\n      0xffffffffffffffff\n      dup2\n      gt\n      iszero\n      tag_25\n      jumpi\n      tag_26\n      tag_27\n      jump\t// in\n    tag_26:\n    tag_25:\n      mload(0x40)\n      swap1\n      dup1\n      dup3\n      mstore\n      dup1\n      0x1f\n      add\n      not(0x1f)\n      and\n      0x20\n      add\n      dup3\n      add\n      0x40\n      mstore\n      dup1\n      iszero\n      tag_28\n      jumpi\n      dup2\n      0x20\n      add\n      0x01\n      dup3\n      mul\n      dup1\n      calldatasize\n      dup4\n      calldatacopy\n      dup1\n      dup3\n      add\n      swap2\n      pop\n      pop\n      swap1\n      pop\n    tag_28:\n      pop\n        /* \"solidity/solidity61~70.sol\":5742:5781  bytes memory buffer = new bytes(digits) */\n      swap1\n      pop\n        /* \"solidity/solidity61~70.sol\":5791:5941  while (_value != 0) {... */\n    tag_29:\n        /* \"solidity/solidity61~70.sol\":5808:5809  0 */\n      0x00\n        /* \"solidity/solidity61~70.sol\":5798:5804  _value */\n      dup6\n        /* \"solidity/solidity61~70.sol\":5798:5809  _value != 0 */\n      eq\n        /* \"solidity/solidity61~70.sol\":5791:5941  while (_value != 0) {... */\n      tag_30\n      jumpi\n        /* \"solidity/solidity61~70.sol\":5835:5836  1 */\n      0x01\n        /* \"solidity/solidity61~70.sol\":5825:5836  digits -= 1 */\n      dup3\n      tag_31\n      swap2\n      swap1\n      tag_32\n      jump\t// in\n    tag_31:\n      swap2\n      pop\n        /* \"solidity/solidity61~70.sol\":5899:5901  10 */\n      0x0a\n        /* \"solidity/solidity61~70.sol\":5890:5896  _value */\n      dup6\n        /* \"solidity/solidity61~70.sol\":5890:5901  _value % 10 */\n      tag_33\n      swap2\n      swap1\n      tag_34\n      jump\t// in\n    tag_33:\n        /* \"solidity/solidity61~70.sol\":5880:5882  48 */\n      0x30\n        /* \"solidity/solidity61~70.sol\":5880:5902  48 + uint(_value % 10) */\n      tag_35\n      swap2\n      swap1\n      tag_36\n      jump\t// in\n    tag_35:\n        /* \"solidity/solidity61~70.sol\":5867:5904  bytes1(uint8(48 + uint(_value % 10))) */\n      0xf8\n      shl\n        /* \"solidity/solidity61~70.sol\":5850:5856  buffer */\n      dup2\n        /* \"solidity/solidity61~70.sol\":5857:5863  digits */\n      dup4\n        /* \"solidity/solidity61~70.sol\":5850:5864  buffer[digits] */\n      dup2\n      mload\n      dup2\n      lt\n      tag_37\n      jumpi\n      tag_38\n      tag_39\n      jump\t// in\n    tag_38:\n    tag_37:\n      0x20\n      add\n      add\n        /* \"solidity/solidity61~70.sol\":5850:5904  buffer[digits] = bytes1(uint8(48 + uint(_value % 10))) */\n      swap1\n      not(0xffffffffffffffffffffffffffffffffffffffffffffffffffffffffffffff)\n      and\n      swap1\n      dup2\n      0x00\n      byte\n      swap1\n      mstore8\n      pop\n        /* \"solidity/solidity61~70.sol\":5928:5930  10 */\n      0x0a\n        /* \"solidity/solidity61~70.sol\":5918:5930  _value /= 10 */\n      dup6\n      tag_40\n      swap2\n      swap1\n      tag_24\n      jump\t// in\n    tag_40:\n      swap5\n      pop\n        /* \"solidity/solidity61~70.sol\":5791:5941  while (_value != 0) {... */\n      jump(tag_29)\n    tag_30:\n        /* \"solidity/solidity61~70.sol\":5964:5970  buffer */\n      dup1\n        /* \"solidity/solidity61~70.sol\":5950:5971  return string(buffer) */\n      swap4\n      pop\n      pop\n      pop\n      pop\n        /* \"solidity/solidity61~70.sol\":5469:5978  function toString(uint _value) internal pure returns (string memory) {... */\n    tag_17:\n      swap2\n      swap1\n      pop\n      jump\t// out\n        /* \"#utility.yul\":88:205   */\n    tag_42:\n        /* \"#utility.yul\":197:198   */\n      0x00\n        /* \"#utility.yul\":194:195   */\n      dup1\n        /* \"#utility.yul\":187:199   */\n      revert\n        /* \"#utility.yul\":334:411   */\n    tag_44:\n        /* \"#utility.yul\":371:378   */\n      0x00\n        /* \"#utility.yul\":400:405   */\n      dup2\n        /* \"#utility.yul\":389:405   */\n      swap1\n      pop\n        /* \"#utility.yul\":334:411   */\n      swap2\n      swap1\n      pop\n      jump\t// out\n        /* \"#utility.yul\":417:539   */\n    tag_45:\n        /* \"#utility.yul\":490:514   */\n      tag_66\n        /* \"#utility.yul\":508:513   */\n      dup2\n        /* \"#utility.yul\":490:514   */\n      tag_44\n      jump\t// in\n    tag_66:\n        /* \"#utility.yul\":483:488   */\n      dup2\n        /* \"#utility.yul\":480:515   */\n      eq\n        /* \"#utility.yul\":470:533   */\n      tag_67\n      jumpi\n        /* \"#utility.yul\":529:530   */\n      0x00\n        /* \"#utility.yul\":526:527   */\n      dup1\n        /* \"#utility.yul\":519:531   */\n      revert\n        /* \"#utility.yul\":470:533   */\n    tag_67:\n        /* \"#utility.yul\":417:539   */\n      pop\n      jump\t// out\n        /* \"#utility.yul\":545:684   */\n    tag_46:\n        /* \"#utility.yul\":591:596   */\n      0x00\n        /* \"#utility.yul\":629:635   */\n      dup2\n        /* \"#utility.yul\":616:636   */\n      calldataload\n        /* \"#utility.yul\":607:636   */\n      swap1\n      pop\n        /* \"#utility.yul\":645:678   */\n      tag_69\n        /* \"#utility.yul\":672:677   */\n      dup2\n        /* \"#utility.yul\":645:678   */\n      tag_45\n      jump\t// in\n    tag_69:\n        /* \"#utility.yul\":545:684   */\n      swap3\n      swap2\n      pop\n      pop\n      jump\t// out\n        /* \"#utility.yul\":690:1309   */\n    tag_6:\n        /* \"#utility.yul\":767:773   */\n      0x00\n        /* \"#utility.yul\":775:781   */\n      dup1\n        /* \"#utility.yul\":783:789   */\n      0x00\n        /* \"#utility.yul\":832:834   */\n      0x60\n        /* \"#utility.yul\":820:829   */\n      dup5\n        /* \"#utility.yul\":811:818   */\n      dup7\n        /* \"#utility.yul\":807:830   */\n      sub\n        /* \"#utility.yul\":803:835   */\n      slt\n        /* \"#utility.yul\":800:919   */\n      iszero\n      tag_71\n      jumpi\n        /* \"#utility.yul\":838:917   */\n      tag_72\n      tag_42\n      jump\t// in\n    tag_72:\n        /* \"#utility.yul\":800:919   */\n    tag_71:\n        /* \"#utility.yul\":958:959   */\n      0x00\n        /* \"#utility.yul\":983:1036   */\n      tag_73\n        /* \"#utility.yul\":1028:1035   */\n      dup7\n        /* \"#utility.yul\":1019:1025   */\n      dup3\n        /* \"#utility.yul\":1008:1017   */\n      dup8\n        /* \"#utility.yul\":1004:1026   */\n      add\n        /* \"#utility.yul\":983:1036   */\n      tag_46\n      jump\t// in\n    tag_73:\n        /* \"#utility.yul\":973:1036   */\n      swap4\n      pop\n        /* \"#utility.yul\":929:1046   */\n      pop\n        /* \"#utility.yul\":1085:1087   */\n      0x20\n        /* \"#utility.yul\":1111:1164   */\n      tag_74\n        /* \"#utility.yul\":1156:1163   */\n      dup7\n        /* \"#utility.yul\":1147:1153   */\n      dup3\n        /* \"#utility.yul\":1136:1145   */\n      dup8\n        /* \"#utility.yul\":1132:1154   */\n      add\n        /* \"#utility.yul\":1111:1164   */\n      tag_46\n      jump\t// in\n    tag_74:\n        /* \"#utility.yul\":1101:1164   */\n      swap3\n      pop\n        /* \"#utility.yul\":1056:1174   */\n      pop\n        /* \"#utility.yul\":1213:1215   */\n      0x40\n        /* \"#utility.yul\":1239:1292   */\n      tag_75\n        /* \"#utility.yul\":1284:1291   */\n      dup7\n        /* \"#utility.yul\":1275:1281   */\n      dup3\n        /* \"#utility.yul\":1264:1273   */\n      dup8\n        /* \"#utility.yul\":1260:1282   */\n      add\n        /* \"#utility.yul\":1239:1292   */\n      tag_46\n      jump\t// in\n    tag_75:\n        /* \"#utility.yul\":1229:1292   */\n      swap2\n      pop\n        /* \"#utility.yul\":1184:1302   */\n      pop\n        /* \"#utility.yul\":690:1309   */\n      swap3\n      pop\n      swap3\n      pop\n      swap3\n      jump\t// out\n        /* \"#utility.yul\":1315:1414   */\n    tag_47:\n        /* \"#utility.yul\":1367:1373   */\n      0x00\n        /* \"#utility.yul\":1401:1406   */\n      dup2\n        /* \"#utility.yul\":1395:1407   */\n      mload\n        /* \"#utility.yul\":1385:1407   */\n      swap1\n      pop\n        /* \"#utility.yul\":1315:1414   */\n      swap2\n      swap1\n      pop\n      jump\t// out\n        /* \"#utility.yul\":1420:1589   */\n    tag_48:\n        /* \"#utility.yul\":1504:1515   */\n      0x00\n        /* \"#utility.yul\":1538:1544   */\n      dup3\n        /* \"#utility.yul\":1533:1536   */\n      dup3\n        /* \"#utility.yul\":1526:1545   */\n      mstore\n        /* \"#utility.yul\":1578:1582   */\n      0x20\n        /* \"#utility.yul\":1573:1576   */\n      dup3\n        /* \"#utility.yul\":1569:1583   */\n      add\n        /* \"#utility.yul\":1554:1583   */\n      swap1\n      pop\n        /* \"#utility.yul\":1420:1589   */\n      swap3\n      swap2\n      pop\n      pop\n      jump\t// out\n        /* \"#utility.yul\":1595:1734   */\n    tag_49:\n        /* \"#utility.yul\":1684:1690   */\n      dup3\n        /* \"#utility.yul\":1679:1682   */\n      dup2\n        /* \"#utility.yul\":1674:1677   */\n      dup4\n        /* \"#utility.yul\":1668:1691   */\n      mcopy\n        /* \"#utility.yul\":1725:1726   */\n      0x00\n        /* \"#utility.yul\":1716:1722   */\n      dup4\n        /* \"#utility.yul\":1711:1714   */\n      dup4\n        /* \"#utility.yul\":1707:1723   */\n      add\n        /* \"#utility.yul\":1700:1727   */\n      mstore\n        /* \"#utility.yul\":1595:1734   */\n      pop\n      pop\n      pop\n      jump\t// out\n        /* \"#utility.yul\":1740:1842   */\n    tag_50:\n        /* \"#utility.yul\":1781:1787   */\n      0x00\n        /* \"#utility.yul\":1832:1834   */\n      0x1f\n        /* \"#utility.yul\":1828:1835   */\n      not\n        /* \"#utility.yul\":1823:1825   */\n      0x1f\n        /* \"#utility.yul\":1816:1821   */\n      dup4\n        /* \"#utility.yul\":1812:1826   */\n      add\n        /* \"#utility.yul\":1808:1836   */\n      and\n        /* \"#utility.yul\":1798:1836   */\n      swap1\n      pop\n        /* \"#utility.yul\":1740:1842   */\n      swap2\n      swap1\n      pop\n      jump\t// out\n        /* \"#utility.yul\":1848:2225   */\n    tag_51:\n        /* \"#utility.yul\":1936:1939   */\n      0x00\n        /* \"#utility.yul\":1964:2003   */\n      tag_81\n        /* \"#utility.yul\":1997:2002   */\n      dup3\n        /* \"#utility.yul\":1964:2003   */\n      tag_47\n      jump\t// in\n    tag_81:\n        /* \"#utility.yul\":2019:2090   */\n      tag_82\n        /* \"#utility.yul\":2083:2089   */\n      dup2\n        /* \"#utility.yul\":2078:2081   */\n      dup6\n        /* \"#utility.yul\":2019:2090   */\n      tag_48\n      jump\t// in\n    tag_82:\n        /* \"#utility.yul\":2012:2090   */\n      swap4\n      pop\n        /* \"#utility.yul\":2099:2164   */\n      tag_83\n        /* \"#utility.yul\":2157:2163   */\n      dup2\n        /* \"#utility.yul\":2152:2155   */\n      dup6\n        /* \"#utility.yul\":2145:2149   */\n      0x20\n        /* \"#utility.yul\":2138:2143   */\n      dup7\n        /* \"#utility.yul\":2134:2150   */\n      add\n        /* \"#utility.yul\":2099:2164   */\n      tag_49\n      jump\t// in\n    tag_83:\n        /* \"#utility.yul\":2189:2218   */\n      tag_84\n        /* \"#utility.yul\":2211:2217   */\n      dup2\n        /* \"#utility.yul\":2189:2218   */\n      tag_50\n      jump\t// in\n    tag_84:\n        /* \"#utility.yul\":2184:2187   */\n      dup5\n        /* \"#utility.yul\":2180:2219   */\n      add\n        /* \"#utility.yul\":2173:2219   */\n      swap2\n      pop\n        /* \"#utility.yul\":1940:2225   */\n      pop\n        /* \"#utility.yul\":1848:2225   */\n      swap3\n      swap2\n      pop\n      pop\n      jump\t// out\n        /* \"#utility.yul\":2231:2544   */\n    tag_9:\n        /* \"#utility.yul\":2344:2348   */\n      0x00\n        /* \"#utility.yul\":2382:2384   */\n      0x20\n        /* \"#utility.yul\":2371:2380   */\n      dup3\n        /* \"#utility.yul\":2367:2385   */\n      add\n        /* \"#utility.yul\":2359:2385   */\n      swap1\n      pop\n        /* \"#utility.yul\":2431:2440   */\n      dup2\n        /* \"#utility.yul\":2425:2429   */\n      dup2\n        /* \"#utility.yul\":2421:2441   */\n      sub\n        /* \"#utility.yul\":2417:2418   */\n      0x00\n        /* \"#utility.yul\":2406:2415   */\n      dup4\n        /* \"#utility.yul\":2402:2419   */\n      add\n        /* \"#utility.yul\":2395:2442   */\n      mstore\n        /* \"#utility.yul\":2459:2537   */\n      tag_86\n        /* \"#utility.yul\":2532:2536   */\n      dup2\n        /* \"#utility.yul\":2523:2529   */\n      dup5\n        /* \"#utility.yul\":2459:2537   */\n      tag_51\n      jump\t// in\n    tag_86:\n        /* \"#utility.yul\":2451:2537   */\n      swap1\n      pop\n        /* \"#utility.yul\":2231:2544   */\n      swap3\n      swap2\n      pop\n      pop\n      jump\t// out\n        /* \"#utility.yul\":2550:2698   */\n    tag_52:\n        /* \"#utility.yul\":2652:2663   */\n      0x00\n        /* \"#utility.yul\":2689:2692   */\n      dup2\n        /* \"#utility.yul\":2674:2692   */\n      swap1\n      pop\n        /* \"#utility.yul\":2550:2698   */\n      swap3\n      swap2\n      pop\n      pop\n      jump\t// out\n        /* \"#utility.yul\":2704:3094   */\n    tag_53:\n        /* \"#utility.yul\":2810:2813   */\n      0x00\n        /* \"#utility.yul\":2838:2877   */\n      tag_89\n        /* \"#utility.yul\":2871:2876   */\n      dup3\n        /* \"#utility.yul\":2838:2877   */\n      tag_47\n      jump\t// in\n    tag_89:\n        /* \"#utility.yul\":2893:2982   */\n      tag_90\n        /* \"#utility.yul\":2975:2981   */\n      dup2\n        /* \"#utility.yul\":2970:2973   */\n      dup6\n        /* \"#utility.yul\":2893:2982   */\n      tag_52\n      jump\t// in\n    tag_90:\n        /* \"#utility.yul\":2886:2982   */\n      swap4\n      pop\n        /* \"#utility.yul\":2991:3056   */\n      tag_91\n        /* \"#utility.yul\":3049:3055   */\n      dup2\n        /* \"#utility.yul\":3044:3047   */\n      dup6\n        /* \"#utility.yul\":3037:3041   */\n      0x20\n        /* \"#utility.yul\":3030:3035   */\n      dup7\n        /* \"#utility.yul\":3026:3042   */\n      add\n        /* \"#utility.yul\":2991:3056   */\n      tag_49\n      jump\t// in\n    tag_91:\n        /* \"#utility.yul\":3081:3087   */\n      dup1\n        /* \"#utility.yul\":3076:3079   */\n      dup5\n        /* \"#utility.yul\":3072:3088   */\n      add\n        /* \"#utility.yul\":3065:3088   */\n      swap2\n      pop\n        /* \"#utility.yul\":2814:3094   */\n      pop\n        /* \"#utility.yul\":2704:3094   */\n      swap3\n      swap2\n      pop\n      pop\n      jump\t// out\n        /* \"#utility.yul\":3100:3255   */\n    tag_54:\n        /* \"#utility.yul\":3240:3247   */\n      0x20616e6420000000000000000000000000000000000000000000000000000000\n        /* \"#utility.yul\":3236:3237   */\n      0x00\n        /* \"#utility.yul\":3228:3234   */\n      dup3\n        /* \"#utility.yul\":3224:3238   */\n      add\n        /* \"#utility.yul\":3217:3248   */\n      mstore\n        /* \"#utility.yul\":3100:3255   */\n      pop\n      jump\t// out\n        /* \"#utility.yul\":3261:3661   */\n    tag_55:\n        /* \"#utility.yul\":3421:3424   */\n      0x00\n        /* \"#utility.yul\":3442:3526   */\n      tag_94\n        /* \"#utility.yul\":3524:3525   */\n      0x05\n        /* \"#utility.yul\":3519:3522   */\n      dup4\n        /* \"#utility.yul\":3442:3526   */\n      tag_52\n      jump\t// in\n    tag_94:\n        /* \"#utility.yul\":3435:3526   */\n      swap2\n      pop\n        /* \"#utility.yul\":3535:3628   */\n      tag_95\n        /* \"#utility.yul\":3624:3627   */\n      dup3\n        /* \"#utility.yul\":3535:3628   */\n      tag_54\n      jump\t// in\n    tag_95:\n        /* \"#utility.yul\":3653:3654   */\n      0x05\n        /* \"#utility.yul\":3648:3651   */\n      dup3\n        /* \"#utility.yul\":3644:3655   */\n      add\n        /* \"#utility.yul\":3637:3655   */\n      swap1\n      pop\n        /* \"#utility.yul\":3261:3661   */\n      swap2\n      swap1\n      pop\n      jump\t// out\n        /* \"#utility.yul\":3667:3821   */\n    tag_56:\n        /* \"#utility.yul\":3807:3813   */\n      0x206f722000000000000000000000000000000000000000000000000000000000\n        /* \"#utility.yul\":3803:3804   */\n      0x00\n        /* \"#utility.yul\":3795:3801   */\n      dup3\n        /* \"#utility.yul\":3791:3805   */\n      add\n        /* \"#utility.yul\":3784:3814   */\n      mstore\n        /* \"#utility.yul\":3667:3821   */\n      pop\n      jump\t// out\n        /* \"#utility.yul\":3827:4227   */\n    tag_57:\n        /* \"#utility.yul\":3987:3990   */\n      0x00\n        /* \"#utility.yul\":4008:4092   */\n      tag_98\n        /* \"#utility.yul\":4090:4091   */\n      0x04\n        /* \"#utility.yul\":4085:4088   */\n      dup4\n        /* \"#utility.yul\":4008:4092   */\n      tag_52\n      jump\t// in\n    tag_98:\n        /* \"#utility.yul\":4001:4092   */\n      swap2\n      pop\n        /* \"#utility.yul\":4101:4194   */\n      tag_99\n        /* \"#utility.yul\":4190:4193   */\n      dup3\n        /* \"#utility.yul\":4101:4194   */\n      tag_56\n      jump\t// in\n    tag_99:\n        /* \"#utility.yul\":4219:4220   */\n      0x04\n        /* \"#utility.yul\":4214:4217   */\n      dup3\n        /* \"#utility.yul\":4210:4221   */\n      add\n        /* \"#utility.yul\":4203:4221   */\n      swap1\n      pop\n        /* \"#utility.yul\":3827:4227   */\n      swap2\n      swap1\n      pop\n      jump\t// out\n        /* \"#utility.yul\":4233:5360   */\n    tag_16:\n        /* \"#utility.yul\":4663:4666   */\n      0x00\n        /* \"#utility.yul\":4685:4780   */\n      tag_101\n        /* \"#utility.yul\":4776:4779   */\n      dup3\n        /* \"#utility.yul\":4767:4773   */\n      dup7\n        /* \"#utility.yul\":4685:4780   */\n      tag_53\n      jump\t// in\n    tag_101:\n        /* \"#utility.yul\":4678:4780   */\n      swap2\n      pop\n        /* \"#utility.yul\":4797:4945   */\n      tag_102\n        /* \"#utility.yul\":4941:4944   */\n      dup3\n        /* \"#utility.yul\":4797:4945   */\n      tag_55\n      jump\t// in\n    tag_102:\n        /* \"#utility.yul\":4790:4945   */\n      swap2\n      pop\n        /* \"#utility.yul\":4962:5057   */\n      tag_103\n        /* \"#utility.yul\":5053:5056   */\n      dup3\n        /* \"#utility.yul\":5044:5050   */\n      dup6\n        /* \"#utility.yul\":4962:5057   */\n      tag_53\n      jump\t// in\n    tag_103:\n        /* \"#utility.yul\":4955:5057   */\n      swap2\n      pop\n        /* \"#utility.yul\":5074:5222   */\n      tag_104\n        /* \"#utility.yul\":5218:5221   */\n      dup3\n        /* \"#utility.yul\":5074:5222   */\n      tag_57\n      jump\t// in\n    tag_104:\n        /* \"#utility.yul\":5067:5222   */\n      swap2\n      pop\n        /* \"#utility.yul\":5239:5334   */\n      tag_105\n        /* \"#utility.yul\":5330:5333   */\n      dup3\n        /* \"#utility.yul\":5321:5327   */\n      dup5\n        /* \"#utility.yul\":5239:5334   */\n      tag_53\n      jump\t// in\n    tag_105:\n        /* \"#utility.yul\":5232:5334   */\n      swap2\n      pop\n        /* \"#utility.yul\":5351:5354   */\n      dup2\n        /* \"#utility.yul\":5344:5354   */\n      swap1\n      pop\n        /* \"#utility.yul\":4233:5360   */\n      swap5\n      swap4\n      pop\n      pop\n      pop\n      pop\n      jump\t// out\n        /* \"#utility.yul\":5366:5546   */\n    tag_58:\n        /* \"#utility.yul\":5414:5491   */\n      0x4e487b7100000000000000000000000000000000000000000000000000000000\n        /* \"#utility.yul\":5411:5412   */\n      0x00\n        /* \"#utility.yul\":5404:5492   */\n      mstore\n        /* \"#utility.yul\":5511:5515   */\n      0x11\n        /* \"#utility.yul\":5508:5509   */\n      0x04\n        /* \"#utility.yul\":5501:5516   */\n      mstore\n        /* \"#utility.yul\":5535:5539   */\n      0x24\n        /* \"#utility.yul\":5532:5533   */\n      0x00\n        /* \"#utility.yul\":5525:5540   */\n      revert\n        /* \"#utility.yul\":5552:5785   */\n    tag_22:\n        /* \"#utility.yul\":5591:5594   */\n      0x00\n        /* \"#utility.yul\":5614:5638   */\n      tag_108\n        /* \"#utility.yul\":5632:5637   */\n      dup3\n        /* \"#utility.yul\":5614:5638   */\n      tag_44\n      jump\t// in\n    tag_108:\n        /* \"#utility.yul\":5605:5638   */\n      swap2\n      pop\n        /* \"#utility.yul\":5660:5726   */\n      0xffffffffffffffffffffffffffffffffffffffffffffffffffffffffffffffff\n        /* \"#utility.yul\":5653:5658   */\n      dup3\n        /* \"#utility.yul\":5650:5727   */\n      sub\n        /* \"#utility.yul\":5647:5750   */\n      tag_109\n      jumpi\n        /* \"#utility.yul\":5730:5748   */\n      tag_110\n      tag_58\n      jump\t// in\n    tag_110:\n        /* \"#utility.yul\":5647:5750   */\n    tag_109:\n        /* \"#utility.yul\":5777:5778   */\n      0x01\n        /* \"#utility.yul\":5770:5775   */\n      dup3\n        /* \"#utility.yul\":5766:5779   */\n      add\n        /* \"#utility.yul\":5759:5779   */\n      swap1\n      pop\n        /* \"#utility.yul\":5552:5785   */\n      swap2\n      swap1\n      pop\n      jump\t// out\n        /* \"#utility.yul\":5791:5971   */\n    tag_59:\n        /* \"#utility.yul\":5839:5916   */\n      0x4e487b7100000000000000000000000000000000000000000000000000000000\n        /* \"#utility.yul\":5836:5837   */\n      0x00\n        /* \"#utility.yul\":5829:5917   */\n      mstore\n        /* \"#utility.yul\":5936:5940   */\n      0x12\n        /* \"#utility.yul\":5933:5934   */\n      0x04\n        /* \"#utility.yul\":5926:5941   */\n      mstore\n        /* \"#utility.yul\":5960:5964   */\n      0x24\n        /* \"#utility.yul\":5957:5958   */\n      0x00\n        /* \"#utility.yul\":5950:5965   */\n      revert\n        /* \"#utility.yul\":5977:6162   */\n    tag_24:\n        /* \"#utility.yul\":6017:6018   */\n      0x00\n        /* \"#utility.yul\":6034:6054   */\n      tag_113\n        /* \"#utility.yul\":6052:6053   */\n      dup3\n        /* \"#utility.yul\":6034:6054   */\n      tag_44\n      jump\t// in\n    tag_113:\n        /* \"#utility.yul\":6029:6054   */\n      swap2\n      pop\n        /* \"#utility.yul\":6068:6088   */\n      tag_114\n        /* \"#utility.yul\":6086:6087   */\n      dup4\n        /* \"#utility.yul\":6068:6088   */\n      tag_44\n      jump\t// in\n    tag_114:\n        /* \"#utility.yul\":6063:6088   */\n      swap3\n      pop\n        /* \"#utility.yul\":6107:6108   */\n      dup3\n        /* \"#utility.yul\":6097:6132   */\n      tag_115\n      jumpi\n        /* \"#utility.yul\":6112:6130   */\n      tag_116\n      tag_59\n      jump\t// in\n    tag_116:\n        /* \"#utility.yul\":6097:6132   */\n    tag_115:\n        /* \"#utility.yul\":6154:6155   */\n      dup3\n        /* \"#utility.yul\":6151:6152   */\n      dup3\n        /* \"#utility.yul\":6147:6156   */\n      div\n        /* \"#utility.yul\":6142:6156   */\n      swap1\n      pop\n        /* \"#utility.yul\":5977:6162   */\n      swap3\n      swap2\n      pop\n      pop\n      jump\t// out\n        /* \"#utility.yul\":6168:6348   */\n    tag_27:\n        /* \"#utility.yul\":6216:6293   */\n      0x4e487b7100000000000000000000000000000000000000000000000000000000\n        /* \"#utility.yul\":6213:6214   */\n      0x00\n        /* \"#utility.yul\":6206:6294   */\n      mstore\n        /* \"#utility.yul\":6313:6317   */\n      0x41\n        /* \"#utility.yul\":6310:6311   */\n      0x04\n        /* \"#utility.yul\":6303:6318   */\n      mstore\n        /* \"#utility.yul\":6337:6341   */\n      0x24\n        /* \"#utility.yul\":6334:6335   */\n      0x00\n        /* \"#utility.yul\":6327:6342   */\n      revert\n        /* \"#utility.yul\":6354:6548   */\n    tag_32:\n        /* \"#utility.yul\":6394:6398   */\n      0x00\n        /* \"#utility.yul\":6414:6434   */\n      tag_119\n        /* \"#utility.yul\":6432:6433   */\n      dup3\n        /* \"#utility.yul\":6414:6434   */\n      tag_44\n      jump\t// in\n    tag_119:\n        /* \"#utility.yul\":6409:6434   */\n      swap2\n      pop\n        /* \"#utility.yul\":6448:6468   */\n      tag_120\n        /* \"#utility.yul\":6466:6467   */\n      dup4\n        /* \"#utility.yul\":6448:6468   */\n      tag_44\n      jump\t// in\n    tag_120:\n        /* \"#utility.yul\":6443:6468   */\n      swap3\n      pop\n        /* \"#utility.yul\":6492:6493   */\n      dup3\n        /* \"#utility.yul\":6489:6490   */\n      dup3\n        /* \"#utility.yul\":6485:6494   */\n      sub\n        /* \"#utility.yul\":6477:6494   */\n      swap1\n      pop\n        /* \"#utility.yul\":6516:6517   */\n      dup2\n        /* \"#utility.yul\":6510:6514   */\n      dup2\n        /* \"#utility.yul\":6507:6518   */\n      gt\n        /* \"#utility.yul\":6504:6541   */\n      iszero\n      tag_121\n      jumpi\n        /* \"#utility.yul\":6521:6539   */\n      tag_122\n      tag_58\n      jump\t// in\n    tag_122:\n        /* \"#utility.yul\":6504:6541   */\n    tag_121:\n        /* \"#utility.yul\":6354:6548   */\n      swap3\n      swap2\n      pop\n      pop\n      jump\t// out\n        /* \"#utility.yul\":6554:6730   */\n    tag_34:\n        /* \"#utility.yul\":6586:6587   */\n      0x00\n        /* \"#utility.yul\":6603:6623   */\n      tag_124\n        /* \"#utility.yul\":6621:6622   */\n      dup3\n        /* \"#utility.yul\":6603:6623   */\n      tag_44\n      jump\t// in\n    tag_124:\n        /* \"#utility.yul\":6598:6623   */\n      swap2\n      pop\n        /* \"#utility.yul\":6637:6657   */\n      tag_125\n        /* \"#utility.yul\":6655:6656   */\n      dup4\n        /* \"#utility.yul\":6637:6657   */\n      tag_44\n      jump\t// in\n    tag_125:\n        /* \"#utility.yul\":6632:6657   */\n      swap3\n      pop\n        /* \"#utility.yul\":6676:6677   */\n      dup3\n        /* \"#utility.yul\":6666:6701   */\n      tag_126\n      jumpi\n        /* \"#utility.yul\":6681:6699   */\n      tag_127\n      tag_59\n      jump\t// in\n    tag_127:\n        /* \"#utility.yul\":6666:6701   */\n    tag_126:\n        /* \"#utility.yul\":6722:6723   */\n      dup3\n        /* \"#utility.yul\":6719:6720   */\n      dup3\n        /* \"#utility.yul\":6715:6724   */\n      mod\n        /* \"#utility.yul\":6710:6724   */\n      swap1\n      pop\n        /* \"#utility.yul\":6554:6730   */\n      swap3\n      swap2\n      pop\n      pop\n      jump\t// out\n        /* \"#utility.yul\":6736:6927   */\n    tag_36:\n        /* \"#utility.yul\":6776:6779   */\n      0x00\n        /* \"#utility.yul\":6795:6815   */\n      tag_129\n        /* \"#utility.yul\":6813:6814   */\n      dup3\n        /* \"#utility.yul\":6795:6815   */\n      tag_44\n      jump\t// in\n    tag_129:\n        /* \"#utility.yul\":6790:6815   */\n      swap2\n      pop\n        /* \"#utility.yul\":6829:6849   */\n      tag_130\n        /* \"#utility.yul\":6847:6848   */\n      dup4\n        /* \"#utility.yul\":6829:6849   */\n      tag_44\n      jump\t// in\n    tag_130:\n        /* \"#utility.yul\":6824:6849   */\n      swap3\n      pop\n        /* \"#utility.yul\":6872:6873   */\n      dup3\n        /* \"#utility.yul\":6869:6870   */\n      dup3\n        /* \"#utility.yul\":6865:6874   */\n      add\n        /* \"#utility.yul\":6858:6874   */\n      swap1\n      pop\n        /* \"#utility.yul\":6893:6896   */\n      dup1\n        /* \"#utility.yul\":6890:6891   */\n      dup3\n        /* \"#utility.yul\":6887:6897   */\n      gt\n        /* \"#utility.yul\":6884:6920   */\n      iszero\n      tag_131\n      jumpi\n        /* \"#utility.yul\":6900:6918   */\n      tag_132\n      tag_58\n      jump\t// in\n    tag_132:\n        /* \"#utility.yul\":6884:6920   */\n    tag_131:\n        /* \"#utility.yul\":6736:6927   */\n      swap3\n      swap2\n      pop\n      pop\n      jump\t// out\n        /* \"#utility.yul\":6933:7113   */\n    tag_39:\n        /* \"#utility.yul\":6981:7058   */\n      0x4e487b7100000000000000000000000000000000000000000000000000000000\n        /* \"#utility.yul\":6978:6979   */\n      0x00\n        /* \"#utility.yul\":6971:7059   */\n      mstore\n        /* \"#utility.yul\":7078:7082   */\n      0x32\n        /* \"#utility.yul\":7075:7076   */\n      0x04\n        /* \"#utility.yul\":7068:7083   */\n      mstore\n        /* \"#utility.yul\":7102:7106   */\n      0x24\n        /* \"#utility.yul\":7099:7100   */\n      0x00\n        /* \"#utility.yul\":7092:7107   */\n      revert\n\n    auxdata: 0xa2646970667358221220b11e082e1bd8671c7f5039a0a903bd3a044226e781c8b77a1bbb38e35934eb6b64736f6c634300081a0033\n}\n",
				"bytecode": {
					"linkReferences": {},
					"object": "6080604052348015600e575f80fd5b5061061f8061001c5f395ff3fe608060405234801561000f575f80fd5b5060043610610029575f3560e01c8063abb060b91461002d575b5f80fd5b61004760048036038101906100429190610234565b61005d565b60405161005491906102f4565b60405180910390f35b6060610068846100a4565b610071846100a4565b61007a846100a4565b60405160200161008c939291906103e2565b60405160208183030381529060405290509392505050565b60605f82036100ea576040518060400160405280600181526020017f300000000000000000000000000000000000000000000000000000000000000081525090506101f8565b5f8290505f5b5f821461011957808061010290610455565b915050600a8261011291906104c9565b91506100f0565b5f8167ffffffffffffffff811115610134576101336104f9565b5b6040519080825280601f01601f1916602001820160405280156101665781602001600182028036833780820191505090505b5090505b5f85146101f15760018261017e9190610526565b9150600a8561018d9190610559565b60306101999190610589565b60f81b8183815181106101af576101ae6105bc565b5b60200101907effffffffffffffffffffffffffffffffffffffffffffffffffffffffffffff191690815f1a905350600a856101ea91906104c9565b945061016a565b8093505050505b919050565b5f80fd5b5f819050919050565b61021381610201565b811461021d575f80fd5b50565b5f8135905061022e8161020a565b92915050565b5f805f6060848603121561024b5761024a6101fd565b5b5f61025886828701610220565b935050602061026986828701610220565b925050604061027a86828701610220565b9150509250925092565b5f81519050919050565b5f82825260208201905092915050565b8281835e5f83830152505050565b5f601f19601f8301169050919050565b5f6102c682610284565b6102d0818561028e565b93506102e081856020860161029e565b6102e9816102ac565b840191505092915050565b5f6020820190508181035f83015261030c81846102bc565b905092915050565b5f81905092915050565b5f61032882610284565b6103328185610314565b935061034281856020860161029e565b80840191505092915050565b7f20616e64200000000000000000000000000000000000000000000000000000005f82015250565b5f610382600583610314565b915061038d8261034e565b600582019050919050565b7f206f7220000000000000000000000000000000000000000000000000000000005f82015250565b5f6103cc600483610314565b91506103d782610398565b600482019050919050565b5f6103ed828661031e565b91506103f882610376565b9150610404828561031e565b915061040f826103c0565b915061041b828461031e565b9150819050949350505050565b7f4e487b71000000000000000000000000000000000000000000000000000000005f52601160045260245ffd5b5f61045f82610201565b91507fffffffffffffffffffffffffffffffffffffffffffffffffffffffffffffffff820361049157610490610428565b5b600182019050919050565b7f4e487b71000000000000000000000000000000000000000000000000000000005f52601260045260245ffd5b5f6104d382610201565b91506104de83610201565b9250826104ee576104ed61049c565b5b828204905092915050565b7f4e487b71000000000000000000000000000000000000000000000000000000005f52604160045260245ffd5b5f61053082610201565b915061053b83610201565b925082820390508181111561055357610552610428565b5b92915050565b5f61056382610201565b915061056e83610201565b92508261057e5761057d61049c565b5b828206905092915050565b5f61059382610201565b915061059e83610201565b92508282019050808211156105b6576105b5610428565b5b92915050565b7f4e487b71000000000000000000000000000000000000000000000000000000005f52603260045260245ffdfea2646970667358221220b11e082e1bd8671c7f5039a0a903bd3a044226e781c8b77a1bbb38e35934eb6b64736f6c634300081a0033",
					"opcodes": "PUSH1 0x80 PUSH1 0x40 MSTORE CALLVALUE DUP1 ISZERO PUSH1 0xE JUMPI PUSH0 DUP1 REVERT JUMPDEST POP PUSH2 0x61F DUP1 PUSH2 0x1C PUSH0 CODECOPY PUSH0 RETURN INVALID PUSH1 0x80 PUSH1 0x40 MSTORE CALLVALUE DUP1 ISZERO PUSH2 0xF JUMPI PUSH0 DUP1 REVERT JUMPDEST POP PUSH1 0x4 CALLDATASIZE LT PUSH2 0x29 JUMPI PUSH0 CALLDATALOAD PUSH1 0xE0 SHR DUP1 PUSH4 0xABB060B9 EQ PUSH2 0x2D JUMPI JUMPDEST PUSH0 DUP1 REVERT JUMPDEST PUSH2 0x47 PUSH1 0x4 DUP1 CALLDATASIZE SUB DUP2 ADD SWAP1 PUSH2 0x42 SWAP2 SWAP1 PUSH2 0x234 JUMP JUMPDEST PUSH2 0x5D JUMP JUMPDEST PUSH1 0x40 MLOAD PUSH2 0x54 SWAP2 SWAP1 PUSH2 0x2F4 JUMP JUMPDEST PUSH1 0x40 MLOAD DUP1 SWAP2 SUB SWAP1 RETURN JUMPDEST PUSH1 0x60 PUSH2 0x68 DUP5 PUSH2 0xA4 JUMP JUMPDEST PUSH2 0x71 DUP5 PUSH2 0xA4 JUMP JUMPDEST PUSH2 0x7A DUP5 PUSH2 0xA4 JUMP JUMPDEST PUSH1 0x40 MLOAD PUSH1 0x20 ADD PUSH2 0x8C SWAP4 SWAP3 SWAP2 SWAP1 PUSH2 0x3E2 JUMP JUMPDEST PUSH1 0x40 MLOAD PUSH1 0x20 DUP2 DUP4 SUB SUB DUP2 MSTORE SWAP1 PUSH1 0x40 MSTORE SWAP1 POP SWAP4 SWAP3 POP POP POP JUMP JUMPDEST PUSH1 0x60 PUSH0 DUP3 SUB PUSH2 0xEA JUMPI PUSH1 0x40 MLOAD DUP1 PUSH1 0x40 ADD PUSH1 0x40 MSTORE DUP1 PUSH1 0x1 DUP2 MSTORE PUSH1 0x20 ADD PUSH32 0x3000000000000000000000000000000000000000000000000000000000000000 DUP2 MSTORE POP SWAP1 POP PUSH2 0x1F8 JUMP JUMPDEST PUSH0 DUP3 SWAP1 POP PUSH0 JUMPDEST PUSH0 DUP3 EQ PUSH2 0x119 JUMPI DUP1 DUP1 PUSH2 0x102 SWAP1 PUSH2 0x455 JUMP JUMPDEST SWAP2 POP POP PUSH1 0xA DUP3 PUSH2 0x112 SWAP2 SWAP1 PUSH2 0x4C9 JUMP JUMPDEST SWAP2 POP PUSH2 0xF0 JUMP JUMPDEST PUSH0 DUP2 PUSH8 0xFFFFFFFFFFFFFFFF DUP2 GT ISZERO PUSH2 0x134 JUMPI PUSH2 0x133 PUSH2 0x4F9 JUMP JUMPDEST JUMPDEST PUSH1 0x40 MLOAD SWAP1 DUP1 DUP3 MSTORE DUP1 PUSH1 0x1F ADD PUSH1 0x1F NOT AND PUSH1 0x20 ADD DUP3 ADD PUSH1 0x40 MSTORE DUP1 ISZERO PUSH2 0x166 JUMPI DUP2 PUSH1 0x20 ADD PUSH1 0x1 DUP3 MUL DUP1 CALLDATASIZE DUP4 CALLDATACOPY DUP1 DUP3 ADD SWAP2 POP POP SWAP1 POP JUMPDEST POP SWAP1 POP JUMPDEST PUSH0 DUP6 EQ PUSH2 0x1F1 JUMPI PUSH1 0x1 DUP3 PUSH2 0x17E SWAP2 SWAP1 PUSH2 0x526 JUMP JUMPDEST SWAP2 POP PUSH1 0xA DUP6 PUSH2 0x18D SWAP2 SWAP1 PUSH2 0x559 JUMP JUMPDEST PUSH1 0x30 PUSH2 0x199 SWAP2 SWAP1 PUSH2 0x589 JUMP JUMPDEST PUSH1 0xF8 SHL DUP2 DUP4 DUP2 MLOAD DUP2 LT PUSH2 0x1AF JUMPI PUSH2 0x1AE PUSH2 0x5BC JUMP JUMPDEST JUMPDEST PUSH1 0x20 ADD ADD SWAP1 PUSH31 0xFFFFFFFFFFFFFFFFFFFFFFFFFFFFFFFFFFFFFFFFFFFFFFFFFFFFFFFFFFFFFF NOT AND SWAP1 DUP2 PUSH0 BYTE SWAP1 MSTORE8 POP PUSH1 0xA DUP6 PUSH2 0x1EA SWAP2 SWAP1 PUSH2 0x4C9 JUMP JUMPDEST SWAP5 POP PUSH2 0x16A JUMP JUMPDEST DUP1 SWAP4 POP POP POP POP JUMPDEST SWAP2 SWAP1 POP JUMP JUMPDEST PUSH0 DUP1 REVERT JUMPDEST PUSH0 DUP2 SWAP1 POP SWAP2 SWAP1 POP JUMP JUMPDEST PUSH2 0x213 DUP2 PUSH2 0x201 JUMP JUMPDEST DUP2 EQ PUSH2 0x21D JUMPI PUSH0 DUP1 REVERT JUMPDEST POP JUMP JUMPDEST PUSH0 DUP2 CALLDATALOAD SWAP1 POP PUSH2 0x22E DUP2 PUSH2 0x20A JUMP JUMPDEST SWAP3 SWAP2 POP POP JUMP JUMPDEST PUSH0 DUP1 PUSH0 PUSH1 0x60 DUP5 DUP7 SUB SLT ISZERO PUSH2 0x24B JUMPI PUSH2 0x24A PUSH2 0x1FD JUMP JUMPDEST JUMPDEST PUSH0 PUSH2 0x258 DUP7 DUP3 DUP8 ADD PUSH2 0x220 JUMP JUMPDEST SWAP4 POP POP PUSH1 0x20 PUSH2 0x269 DUP7 DUP3 DUP8 ADD PUSH2 0x220 JUMP JUMPDEST SWAP3 POP POP PUSH1 0x40 PUSH2 0x27A DUP7 DUP3 DUP8 ADD PUSH2 0x220 JUMP JUMPDEST SWAP2 POP POP SWAP3 POP SWAP3 POP SWAP3 JUMP JUMPDEST PUSH0 DUP2 MLOAD SWAP1 POP SWAP2 SWAP1 POP JUMP JUMPDEST PUSH0 DUP3 DUP3 MSTORE PUSH1 0x20 DUP3 ADD SWAP1 POP SWAP3 SWAP2 POP POP JUMP JUMPDEST DUP3 DUP2 DUP4 MCOPY PUSH0 DUP4 DUP4 ADD MSTORE POP POP POP JUMP JUMPDEST PUSH0 PUSH1 0x1F NOT PUSH1 0x1F DUP4 ADD AND SWAP1 POP SWAP2 SWAP1 POP JUMP JUMPDEST PUSH0 PUSH2 0x2C6 DUP3 PUSH2 0x284 JUMP JUMPDEST PUSH2 0x2D0 DUP2 DUP6 PUSH2 0x28E JUMP JUMPDEST SWAP4 POP PUSH2 0x2E0 DUP2 DUP6 PUSH1 0x20 DUP7 ADD PUSH2 0x29E JUMP JUMPDEST PUSH2 0x2E9 DUP2 PUSH2 0x2AC JUMP JUMPDEST DUP5 ADD SWAP2 POP POP SWAP3 SWAP2 POP POP JUMP JUMPDEST PUSH0 PUSH1 0x20 DUP3 ADD SWAP1 POP DUP2 DUP2 SUB PUSH0 DUP4 ADD MSTORE PUSH2 0x30C DUP2 DUP5 PUSH2 0x2BC JUMP JUMPDEST SWAP1 POP SWAP3 SWAP2 POP POP JUMP JUMPDEST PUSH0 DUP2 SWAP1 POP SWAP3 SWAP2 POP POP JUMP JUMPDEST PUSH0 PUSH2 0x328 DUP3 PUSH2 0x284 JUMP JUMPDEST PUSH2 0x332 DUP2 DUP6 PUSH2 0x314 JUMP JUMPDEST SWAP4 POP PUSH2 0x342 DUP2 DUP6 PUSH1 0x20 DUP7 ADD PUSH2 0x29E JUMP JUMPDEST DUP1 DUP5 ADD SWAP2 POP POP SWAP3 SWAP2 POP POP JUMP JUMPDEST PUSH32 0x20616E6420000000000000000000000000000000000000000000000000000000 PUSH0 DUP3 ADD MSTORE POP JUMP JUMPDEST PUSH0 PUSH2 0x382 PUSH1 0x5 DUP4 PUSH2 0x314 JUMP JUMPDEST SWAP2 POP PUSH2 0x38D DUP3 PUSH2 0x34E JUMP JUMPDEST PUSH1 0x5 DUP3 ADD SWAP1 POP SWAP2 SWAP1 POP JUMP JUMPDEST PUSH32 0x206F722000000000000000000000000000000000000000000000000000000000 PUSH0 DUP3 ADD MSTORE POP JUMP JUMPDEST PUSH0 PUSH2 0x3CC PUSH1 0x4 DUP4 PUSH2 0x314 JUMP JUMPDEST SWAP2 POP PUSH2 0x3D7 DUP3 PUSH2 0x398 JUMP JUMPDEST PUSH1 0x4 DUP3 ADD SWAP1 POP SWAP2 SWAP1 POP JUMP JUMPDEST PUSH0 PUSH2 0x3ED DUP3 DUP7 PUSH2 0x31E JUMP JUMPDEST SWAP2 POP PUSH2 0x3F8 DUP3 PUSH2 0x376 JUMP JUMPDEST SWAP2 POP PUSH2 0x404 DUP3 DUP6 PUSH2 0x31E JUMP JUMPDEST SWAP2 POP PUSH2 0x40F DUP3 PUSH2 0x3C0 JUMP JUMPDEST SWAP2 POP PUSH2 0x41B DUP3 DUP5 PUSH2 0x31E JUMP JUMPDEST SWAP2 POP DUP2 SWAP1 POP SWAP5 SWAP4 POP POP POP POP JUMP JUMPDEST PUSH32 0x4E487B7100000000000000000000000000000000000000000000000000000000 PUSH0 MSTORE PUSH1 0x11 PUSH1 0x4 MSTORE PUSH1 0x24 PUSH0 REVERT JUMPDEST PUSH0 PUSH2 0x45F DUP3 PUSH2 0x201 JUMP JUMPDEST SWAP2 POP PUSH32 0xFFFFFFFFFFFFFFFFFFFFFFFFFFFFFFFFFFFFFFFFFFFFFFFFFFFFFFFFFFFFFFFF DUP3 SUB PUSH2 0x491 JUMPI PUSH2 0x490 PUSH2 0x428 JUMP JUMPDEST JUMPDEST PUSH1 0x1 DUP3 ADD SWAP1 POP SWAP2 SWAP1 POP JUMP JUMPDEST PUSH32 0x4E487B7100000000000000000000000000000000000000000000000000000000 PUSH0 MSTORE PUSH1 0x12 PUSH1 0x4 MSTORE PUSH1 0x24 PUSH0 REVERT JUMPDEST PUSH0 PUSH2 0x4D3 DUP3 PUSH2 0x201 JUMP JUMPDEST SWAP2 POP PUSH2 0x4DE DUP4 PUSH2 0x201 JUMP JUMPDEST SWAP3 POP DUP3 PUSH2 0x4EE JUMPI PUSH2 0x4ED PUSH2 0x49C JUMP JUMPDEST JUMPDEST DUP3 DUP3 DIV SWAP1 POP SWAP3 SWAP2 POP POP JUMP JUMPDEST PUSH32 0x4E487B7100000000000000000000000000000000000000000000000000000000 PUSH0 MSTORE PUSH1 0x41 PUSH1 0x4 MSTORE PUSH1 0x24 PUSH0 REVERT JUMPDEST PUSH0 PUSH2 0x530 DUP3 PUSH2 0x201 JUMP JUMPDEST SWAP2 POP PUSH2 0x53B DUP4 PUSH2 0x201 JUMP JUMPDEST SWAP3 POP DUP3 DUP3 SUB SWAP1 POP DUP2 DUP2 GT ISZERO PUSH2 0x553 JUMPI PUSH2 0x552 PUSH2 0x428 JUMP JUMPDEST JUMPDEST SWAP3 SWAP2 POP POP JUMP JUMPDEST PUSH0 PUSH2 0x563 DUP3 PUSH2 0x201 JUMP JUMPDEST SWAP2 POP PUSH2 0x56E DUP4 PUSH2 0x201 JUMP JUMPDEST SWAP3 POP DUP3 PUSH2 0x57E JUMPI PUSH2 0x57D PUSH2 0x49C JUMP JUMPDEST JUMPDEST DUP3 DUP3 MOD SWAP1 POP SWAP3 SWAP2 POP POP JUMP JUMPDEST PUSH0 PUSH2 0x593 DUP3 PUSH2 0x201 JUMP JUMPDEST SWAP2 POP PUSH2 0x59E DUP4 PUSH2 0x201 JUMP JUMPDEST SWAP3 POP DUP3 DUP3 ADD SWAP1 POP DUP1 DUP3 GT ISZERO PUSH2 0x5B6 JUMPI PUSH2 0x5B5 PUSH2 0x428 JUMP JUMPDEST JUMPDEST SWAP3 SWAP2 POP POP JUMP JUMPDEST PUSH32 0x4E487B7100000000000000000000000000000000000000000000000000000000 PUSH0 MSTORE PUSH1 0x32 PUSH1 0x4 MSTORE PUSH1 0x24 PUSH0 REVERT INVALID LOG2 PUSH5 0x6970667358 0x22 SLT KECCAK256 0xB1 0x1E ADDMOD 0x2E SHL 0xD8 PUSH8 0x1C7F5039A0A903BD GASPRICE DIV TIMESTAMP 0x26 0xE7 DUP2 0xC8 0xB7 PUSH27 0x1BBB38E35934EB6B64736F6C634300081A00330000000000000000 "
				},
				"gasEstimates": {
					"creation": {
						"codeDepositCost": "313400",
						"executionCost": "347",
						"totalCost": "313747"
					},
					"external": {
						"convertToString(uint256,uint256,uint256)": "infinite"
					},
					"internal": {
						"toString(uint256)": "infinite"
					}
				},
				"methodIdentifiers": {
					"convertToString(uint256,uint256,uint256)": "abb060b9"
				}
			},
			"storageLayout": {
				"storage": [],
				"types": null
			},
			"userdoc": {
				"kind": "user",
				"methods": {},
				"version": 1
			}
		}
	}
}