{
	"solidity/solidity61~70.sol": {
		"Q64": {
			"abi": [
				{
					"inputs": [
						{
							"internalType": "address",
							"name": "_addr",
							"type": "address"
						}
					],
					"name": "splitAddress",
					"outputs": [
						{
							"internalType": "bytes4[]",
							"name": "",
							"type": "bytes4[]"
						}
					],
					"stateMutability": "pure",
					"type": "function"
				}
			],
			"devdoc": {
				"kind": "dev",
				"methods": {},
				"version": 1
			},
			"evm": {
				"assembly": "    /* \"solidity/solidity61~70.sol\":1509:2072  contract Q64 {... */\n  mstore(0x40, 0x80)\n  callvalue\n  dup1\n  iszero\n  tag_1\n  jumpi\n  0x00\n  dup1\n  revert\ntag_1:\n  pop\n  dataSize(sub_0)\n  dup1\n  dataOffset(sub_0)\n  0x00\n  codecopy\n  0x00\n  return\nstop\n\nsub_0: assembly {\n        /* \"solidity/solidity61~70.sol\":1509:2072  contract Q64 {... */\n      mstore(0x40, 0x80)\n      callvalue\n      dup1\n      iszero\n      tag_1\n      jumpi\n      0x00\n      dup1\n      revert\n    tag_1:\n      pop\n      jumpi(tag_2, lt(calldatasize, 0x04))\n      shr(0xe0, calldataload(0x00))\n      dup1\n      0xb9584514\n      eq\n      tag_3\n      jumpi\n    tag_2:\n      0x00\n      dup1\n      revert\n        /* \"solidity/solidity61~70.sol\":1635:2070  function splitAddress(address _addr) public pure returns (bytes4[] memory) {... */\n    tag_3:\n      tag_4\n      0x04\n      dup1\n      calldatasize\n      sub\n      dup2\n      add\n      swap1\n      tag_5\n      swap2\n      swap1\n      tag_6\n      jump\t// in\n    tag_5:\n      tag_7\n      jump\t// in\n    tag_4:\n      mload(0x40)\n      tag_8\n      swap2\n      swap1\n      tag_9\n      jump\t// in\n    tag_8:\n      mload(0x40)\n      dup1\n      swap2\n      sub\n      swap1\n      return\n    tag_7:\n        /* \"solidity/solidity61~70.sol\":1693:1708  bytes4[] memory */\n      0x60\n        /* \"solidity/solidity61~70.sol\":1720:1746  bytes memory packedAddress */\n      0x00\n        /* \"solidity/solidity61~70.sol\":1766:1771  _addr */\n      dup3\n        /* \"solidity/solidity61~70.sol\":1749:1772  abi.encodePacked(_addr) */\n      add(0x20, mload(0x40))\n      tag_11\n      swap2\n      swap1\n      tag_12\n      jump\t// in\n    tag_11:\n      mload(0x40)\n      0x20\n      dup2\n      dup4\n      sub\n      sub\n      dup2\n      mstore\n      swap1\n      0x40\n      mstore\n        /* \"solidity/solidity61~70.sol\":1720:1772  bytes memory packedAddress = abi.encodePacked(_addr) */\n      swap1\n      pop\n        /* \"solidity/solidity61~70.sol\":1782:1804  bytes4[] memory result */\n      0x00\n        /* \"solidity/solidity61~70.sol\":1820:1821  5 */\n      0x05\n        /* \"solidity/solidity61~70.sol\":1807:1822  new bytes4[](5) */\n      0xffffffffffffffff\n      dup2\n      gt\n      iszero\n      tag_13\n      jumpi\n      tag_14\n      tag_15\n      jump\t// in\n    tag_14:\n    tag_13:\n      mload(0x40)\n      swap1\n      dup1\n      dup3\n      mstore\n      dup1\n      0x20\n      mul\n      0x20\n      add\n      dup3\n      add\n      0x40\n      mstore\n      dup1\n      iszero\n      tag_16\n      jumpi\n      dup2\n      0x20\n      add\n      0x20\n      dup3\n      mul\n      dup1\n      calldatasize\n      dup4\n      calldatacopy\n      dup1\n      dup3\n      add\n      swap2\n      pop\n      pop\n      swap1\n      pop\n    tag_16:\n      pop\n        /* \"solidity/solidity61~70.sol\":1782:1822  bytes4[] memory result = new bytes4[](5) */\n      swap1\n      pop\n        /* \"solidity/solidity61~70.sol\":1838:1844  uint i */\n      0x00\n        /* \"solidity/solidity61~70.sol\":1833:2040  for (uint i = 0; i < 5; i++) {... */\n    tag_17:\n        /* \"solidity/solidity61~70.sol\":1854:1855  5 */\n      0x05\n        /* \"solidity/solidity61~70.sol\":1850:1851  i */\n      dup2\n        /* \"solidity/solidity61~70.sol\":1850:1855  i < 5 */\n      lt\n        /* \"solidity/solidity61~70.sol\":1833:2040  for (uint i = 0; i < 5; i++) {... */\n      iszero\n      tag_18\n      jumpi\n        /* \"solidity/solidity61~70.sol\":1876:1888  bytes4 chunk */\n      0x00\n        /* \"solidity/solidity61~70.sol\":1981:1982  4 */\n      0x04\n        /* \"solidity/solidity61~70.sol\":1978:1979  i */\n      dup3\n        /* \"solidity/solidity61~70.sol\":1974:1983  mul(i, 4) */\n      mul\n        /* \"solidity/solidity61~70.sol\":1967:1971  0x20 */\n      0x20\n        /* \"solidity/solidity61~70.sol\":1952:1965  packedAddress */\n      dup6\n        /* \"solidity/solidity61~70.sol\":1948:1972  add(packedAddress, 0x20) */\n      add\n        /* \"solidity/solidity61~70.sol\":1944:1984  add(add(packedAddress, 0x20), mul(i, 4)) */\n      add\n        /* \"solidity/solidity61~70.sol\":1938:1985  mload(add(add(packedAddress, 0x20), mul(i, 4))) */\n      mload\n        /* \"solidity/solidity61~70.sol\":1929:1985  chunk := mload(add(add(packedAddress, 0x20), mul(i, 4))) */\n      swap1\n      pop\n        /* \"solidity/solidity61~70.sol\":2024:2029  chunk */\n      dup1\n        /* \"solidity/solidity61~70.sol\":2012:2018  result */\n      dup4\n        /* \"solidity/solidity61~70.sol\":2019:2020  i */\n      dup4\n        /* \"solidity/solidity61~70.sol\":2012:2021  result[i] */\n      dup2\n      mload\n      dup2\n      lt\n      tag_20\n      jumpi\n      tag_21\n      tag_22\n      jump\t// in\n    tag_21:\n    tag_20:\n      0x20\n      mul\n      0x20\n      add\n      add\n        /* \"solidity/solidity61~70.sol\":2012:2029  result[i] = chunk */\n      swap1\n      not(0xffffffffffffffffffffffffffffffffffffffffffffffffffffffff)\n      and\n      swap1\n      dup2\n      not(0xffffffffffffffffffffffffffffffffffffffffffffffffffffffff)\n      and\n      dup2\n      mstore\n      pop\n      pop\n        /* \"solidity/solidity61~70.sol\":1862:2040  {... */\n      pop\n        /* \"solidity/solidity61~70.sol\":1857:1860  i++ */\n      dup1\n      dup1\n      0x01\n      add\n      swap2\n      pop\n      pop\n        /* \"solidity/solidity61~70.sol\":1833:2040  for (uint i = 0; i < 5; i++) {... */\n      jump(tag_17)\n    tag_18:\n      pop\n        /* \"solidity/solidity61~70.sol\":2057:2063  result */\n      dup1\n        /* \"solidity/solidity61~70.sol\":2050:2063  return result */\n      swap3\n      pop\n      pop\n      pop\n        /* \"solidity/solidity61~70.sol\":1635:2070  function splitAddress(address _addr) public pure returns (bytes4[] memory) {... */\n      swap2\n      swap1\n      pop\n      jump\t// out\n        /* \"#utility.yul\":88:205   */\n    tag_24:\n        /* \"#utility.yul\":197:198   */\n      0x00\n        /* \"#utility.yul\":194:195   */\n      dup1\n        /* \"#utility.yul\":187:199   */\n      revert\n        /* \"#utility.yul\":334:460   */\n    tag_26:\n        /* \"#utility.yul\":371:378   */\n      0x00\n        /* \"#utility.yul\":411:453   */\n      0xffffffffffffffffffffffffffffffffffffffff\n        /* \"#utility.yul\":404:409   */\n      dup3\n        /* \"#utility.yul\":400:454   */\n      and\n        /* \"#utility.yul\":389:454   */\n      swap1\n      pop\n        /* \"#utility.yul\":334:460   */\n      swap2\n      swap1\n      pop\n      jump\t// out\n        /* \"#utility.yul\":466:562   */\n    tag_27:\n        /* \"#utility.yul\":503:510   */\n      0x00\n        /* \"#utility.yul\":532:556   */\n      tag_48\n        /* \"#utility.yul\":550:555   */\n      dup3\n        /* \"#utility.yul\":532:556   */\n      tag_26\n      jump\t// in\n    tag_48:\n        /* \"#utility.yul\":521:556   */\n      swap1\n      pop\n        /* \"#utility.yul\":466:562   */\n      swap2\n      swap1\n      pop\n      jump\t// out\n        /* \"#utility.yul\":568:690   */\n    tag_28:\n        /* \"#utility.yul\":641:665   */\n      tag_50\n        /* \"#utility.yul\":659:664   */\n      dup2\n        /* \"#utility.yul\":641:665   */\n      tag_27\n      jump\t// in\n    tag_50:\n        /* \"#utility.yul\":634:639   */\n      dup2\n        /* \"#utility.yul\":631:666   */\n      eq\n        /* \"#utility.yul\":621:684   */\n      tag_51\n      jumpi\n        /* \"#utility.yul\":680:681   */\n      0x00\n        /* \"#utility.yul\":677:678   */\n      dup1\n        /* \"#utility.yul\":670:682   */\n      revert\n        /* \"#utility.yul\":621:684   */\n    tag_51:\n        /* \"#utility.yul\":568:690   */\n      pop\n      jump\t// out\n        /* \"#utility.yul\":696:835   */\n    tag_29:\n        /* \"#utility.yul\":742:747   */\n      0x00\n        /* \"#utility.yul\":780:786   */\n      dup2\n        /* \"#utility.yul\":767:787   */\n      calldataload\n        /* \"#utility.yul\":758:787   */\n      swap1\n      pop\n        /* \"#utility.yul\":796:829   */\n      tag_53\n        /* \"#utility.yul\":823:828   */\n      dup2\n        /* \"#utility.yul\":796:829   */\n      tag_28\n      jump\t// in\n    tag_53:\n        /* \"#utility.yul\":696:835   */\n      swap3\n      swap2\n      pop\n      pop\n      jump\t// out\n        /* \"#utility.yul\":841:1170   */\n    tag_6:\n        /* \"#utility.yul\":900:906   */\n      0x00\n        /* \"#utility.yul\":949:951   */\n      0x20\n        /* \"#utility.yul\":937:946   */\n      dup3\n        /* \"#utility.yul\":928:935   */\n      dup5\n        /* \"#utility.yul\":924:947   */\n      sub\n        /* \"#utility.yul\":920:952   */\n      slt\n        /* \"#utility.yul\":917:1036   */\n      iszero\n      tag_55\n      jumpi\n        /* \"#utility.yul\":955:1034   */\n      tag_56\n      tag_24\n      jump\t// in\n    tag_56:\n        /* \"#utility.yul\":917:1036   */\n    tag_55:\n        /* \"#utility.yul\":1075:1076   */\n      0x00\n        /* \"#utility.yul\":1100:1153   */\n      tag_57\n        /* \"#utility.yul\":1145:1152   */\n      dup5\n        /* \"#utility.yul\":1136:1142   */\n      dup3\n        /* \"#utility.yul\":1125:1134   */\n      dup6\n        /* \"#utility.yul\":1121:1143   */\n      add\n        /* \"#utility.yul\":1100:1153   */\n      tag_29\n      jump\t// in\n    tag_57:\n        /* \"#utility.yul\":1090:1153   */\n      swap2\n      pop\n        /* \"#utility.yul\":1046:1163   */\n      pop\n        /* \"#utility.yul\":841:1170   */\n      swap3\n      swap2\n      pop\n      pop\n      jump\t// out\n        /* \"#utility.yul\":1176:1289   */\n    tag_30:\n        /* \"#utility.yul\":1242:1248   */\n      0x00\n        /* \"#utility.yul\":1276:1281   */\n      dup2\n        /* \"#utility.yul\":1270:1282   */\n      mload\n        /* \"#utility.yul\":1260:1282   */\n      swap1\n      pop\n        /* \"#utility.yul\":1176:1289   */\n      swap2\n      swap1\n      pop\n      jump\t// out\n        /* \"#utility.yul\":1295:1478   */\n    tag_31:\n        /* \"#utility.yul\":1393:1404   */\n      0x00\n        /* \"#utility.yul\":1427:1433   */\n      dup3\n        /* \"#utility.yul\":1422:1425   */\n      dup3\n        /* \"#utility.yul\":1415:1434   */\n      mstore\n        /* \"#utility.yul\":1467:1471   */\n      0x20\n        /* \"#utility.yul\":1462:1465   */\n      dup3\n        /* \"#utility.yul\":1458:1472   */\n      add\n        /* \"#utility.yul\":1443:1472   */\n      swap1\n      pop\n        /* \"#utility.yul\":1295:1478   */\n      swap3\n      swap2\n      pop\n      pop\n      jump\t// out\n        /* \"#utility.yul\":1484:1615   */\n    tag_32:\n        /* \"#utility.yul\":1550:1554   */\n      0x00\n        /* \"#utility.yul\":1573:1576   */\n      dup2\n        /* \"#utility.yul\":1565:1576   */\n      swap1\n      pop\n        /* \"#utility.yul\":1603:1607   */\n      0x20\n        /* \"#utility.yul\":1598:1601   */\n      dup3\n        /* \"#utility.yul\":1594:1608   */\n      add\n        /* \"#utility.yul\":1586:1608   */\n      swap1\n      pop\n        /* \"#utility.yul\":1484:1615   */\n      swap2\n      swap1\n      pop\n      jump\t// out\n        /* \"#utility.yul\":1621:1770   */\n    tag_33:\n        /* \"#utility.yul\":1657:1664   */\n      0x00\n        /* \"#utility.yul\":1697:1763   */\n      0xffffffff00000000000000000000000000000000000000000000000000000000\n        /* \"#utility.yul\":1690:1695   */\n      dup3\n        /* \"#utility.yul\":1686:1764   */\n      and\n        /* \"#utility.yul\":1675:1764   */\n      swap1\n      pop\n        /* \"#utility.yul\":1621:1770   */\n      swap2\n      swap1\n      pop\n      jump\t// out\n        /* \"#utility.yul\":1776:1881   */\n    tag_34:\n        /* \"#utility.yul\":1851:1874   */\n      tag_63\n        /* \"#utility.yul\":1868:1873   */\n      dup2\n        /* \"#utility.yul\":1851:1874   */\n      tag_33\n      jump\t// in\n    tag_63:\n        /* \"#utility.yul\":1846:1849   */\n      dup3\n        /* \"#utility.yul\":1839:1875   */\n      mstore\n        /* \"#utility.yul\":1776:1881   */\n      pop\n      pop\n      jump\t// out\n        /* \"#utility.yul\":1887:2062   */\n    tag_35:\n        /* \"#utility.yul\":1954:1964   */\n      0x00\n        /* \"#utility.yul\":1975:2019   */\n      tag_65\n        /* \"#utility.yul\":2015:2018   */\n      dup4\n        /* \"#utility.yul\":2007:2013   */\n      dup4\n        /* \"#utility.yul\":1975:2019   */\n      tag_34\n      jump\t// in\n    tag_65:\n        /* \"#utility.yul\":2051:2055   */\n      0x20\n        /* \"#utility.yul\":2046:2049   */\n      dup4\n        /* \"#utility.yul\":2042:2056   */\n      add\n        /* \"#utility.yul\":2028:2056   */\n      swap1\n      pop\n        /* \"#utility.yul\":1887:2062   */\n      swap3\n      swap2\n      pop\n      pop\n      jump\t// out\n        /* \"#utility.yul\":2068:2180   */\n    tag_36:\n        /* \"#utility.yul\":2137:2141   */\n      0x00\n        /* \"#utility.yul\":2169:2173   */\n      0x20\n        /* \"#utility.yul\":2164:2167   */\n      dup3\n        /* \"#utility.yul\":2160:2174   */\n      add\n        /* \"#utility.yul\":2152:2174   */\n      swap1\n      pop\n        /* \"#utility.yul\":2068:2180   */\n      swap2\n      swap1\n      pop\n      jump\t// out\n        /* \"#utility.yul\":2214:2938   */\n    tag_37:\n        /* \"#utility.yul\":2331:2334   */\n      0x00\n        /* \"#utility.yul\":2360:2413   */\n      tag_68\n        /* \"#utility.yul\":2407:2412   */\n      dup3\n        /* \"#utility.yul\":2360:2413   */\n      tag_30\n      jump\t// in\n    tag_68:\n        /* \"#utility.yul\":2429:2514   */\n      tag_69\n        /* \"#utility.yul\":2507:2513   */\n      dup2\n        /* \"#utility.yul\":2502:2505   */\n      dup6\n        /* \"#utility.yul\":2429:2514   */\n      tag_31\n      jump\t// in\n    tag_69:\n        /* \"#utility.yul\":2422:2514   */\n      swap4\n      pop\n        /* \"#utility.yul\":2538:2593   */\n      tag_70\n        /* \"#utility.yul\":2587:2592   */\n      dup4\n        /* \"#utility.yul\":2538:2593   */\n      tag_32\n      jump\t// in\n    tag_70:\n        /* \"#utility.yul\":2616:2623   */\n      dup1\n        /* \"#utility.yul\":2647:2648   */\n      0x00\n        /* \"#utility.yul\":2632:2913   */\n    tag_71:\n        /* \"#utility.yul\":2657:2663   */\n      dup4\n        /* \"#utility.yul\":2654:2655   */\n      dup2\n        /* \"#utility.yul\":2651:2664   */\n      lt\n        /* \"#utility.yul\":2632:2913   */\n      iszero\n      tag_73\n      jumpi\n        /* \"#utility.yul\":2733:2739   */\n      dup2\n        /* \"#utility.yul\":2727:2740   */\n      mload\n        /* \"#utility.yul\":2760:2821   */\n      tag_74\n        /* \"#utility.yul\":2817:2820   */\n      dup9\n        /* \"#utility.yul\":2802:2815   */\n      dup3\n        /* \"#utility.yul\":2760:2821   */\n      tag_35\n      jump\t// in\n    tag_74:\n        /* \"#utility.yul\":2753:2821   */\n      swap8\n      pop\n        /* \"#utility.yul\":2844:2903   */\n      tag_75\n        /* \"#utility.yul\":2896:2902   */\n      dup4\n        /* \"#utility.yul\":2844:2903   */\n      tag_36\n      jump\t// in\n    tag_75:\n        /* \"#utility.yul\":2834:2903   */\n      swap3\n      pop\n        /* \"#utility.yul\":2692:2913   */\n      pop\n        /* \"#utility.yul\":2679:2680   */\n      0x01\n        /* \"#utility.yul\":2676:2677   */\n      dup2\n        /* \"#utility.yul\":2672:2681   */\n      add\n        /* \"#utility.yul\":2667:2681   */\n      swap1\n      pop\n        /* \"#utility.yul\":2632:2913   */\n      jump(tag_71)\n    tag_73:\n        /* \"#utility.yul\":2636:2650   */\n      pop\n        /* \"#utility.yul\":2929:2932   */\n      dup6\n        /* \"#utility.yul\":2922:2932   */\n      swap4\n      pop\n        /* \"#utility.yul\":2336:2938   */\n      pop\n      pop\n      pop\n        /* \"#utility.yul\":2214:2938   */\n      swap3\n      swap2\n      pop\n      pop\n      jump\t// out\n        /* \"#utility.yul\":2944:3313   */\n    tag_9:\n        /* \"#utility.yul\":3085:3089   */\n      0x00\n        /* \"#utility.yul\":3123:3125   */\n      0x20\n        /* \"#utility.yul\":3112:3121   */\n      dup3\n        /* \"#utility.yul\":3108:3126   */\n      add\n        /* \"#utility.yul\":3100:3126   */\n      swap1\n      pop\n        /* \"#utility.yul\":3172:3181   */\n      dup2\n        /* \"#utility.yul\":3166:3170   */\n      dup2\n        /* \"#utility.yul\":3162:3182   */\n      sub\n        /* \"#utility.yul\":3158:3159   */\n      0x00\n        /* \"#utility.yul\":3147:3156   */\n      dup4\n        /* \"#utility.yul\":3143:3160   */\n      add\n        /* \"#utility.yul\":3136:3183   */\n      mstore\n        /* \"#utility.yul\":3200:3306   */\n      tag_77\n        /* \"#utility.yul\":3301:3305   */\n      dup2\n        /* \"#utility.yul\":3292:3298   */\n      dup5\n        /* \"#utility.yul\":3200:3306   */\n      tag_37\n      jump\t// in\n    tag_77:\n        /* \"#utility.yul\":3192:3306   */\n      swap1\n      pop\n        /* \"#utility.yul\":2944:3313   */\n      swap3\n      swap2\n      pop\n      pop\n      jump\t// out\n        /* \"#utility.yul\":3319:3413   */\n    tag_38:\n        /* \"#utility.yul\":3352:3360   */\n      0x00\n        /* \"#utility.yul\":3400:3405   */\n      dup2\n        /* \"#utility.yul\":3396:3398   */\n      0x60\n        /* \"#utility.yul\":3392:3406   */\n      shl\n        /* \"#utility.yul\":3371:3406   */\n      swap1\n      pop\n        /* \"#utility.yul\":3319:3413   */\n      swap2\n      swap1\n      pop\n      jump\t// out\n        /* \"#utility.yul\":3419:3513   */\n    tag_39:\n        /* \"#utility.yul\":3458:3465   */\n      0x00\n        /* \"#utility.yul\":3487:3507   */\n      tag_80\n        /* \"#utility.yul\":3501:3506   */\n      dup3\n        /* \"#utility.yul\":3487:3507   */\n      tag_38\n      jump\t// in\n    tag_80:\n        /* \"#utility.yul\":3476:3507   */\n      swap1\n      pop\n        /* \"#utility.yul\":3419:3513   */\n      swap2\n      swap1\n      pop\n      jump\t// out\n        /* \"#utility.yul\":3519:3619   */\n    tag_40:\n        /* \"#utility.yul\":3558:3565   */\n      0x00\n        /* \"#utility.yul\":3587:3613   */\n      tag_82\n        /* \"#utility.yul\":3607:3612   */\n      dup3\n        /* \"#utility.yul\":3587:3613   */\n      tag_39\n      jump\t// in\n    tag_82:\n        /* \"#utility.yul\":3576:3613   */\n      swap1\n      pop\n        /* \"#utility.yul\":3519:3619   */\n      swap2\n      swap1\n      pop\n      jump\t// out\n        /* \"#utility.yul\":3625:3782   */\n    tag_41:\n        /* \"#utility.yul\":3730:3775   */\n      tag_84\n        /* \"#utility.yul\":3750:3774   */\n      tag_85\n        /* \"#utility.yul\":3768:3773   */\n      dup3\n        /* \"#utility.yul\":3750:3774   */\n      tag_27\n      jump\t// in\n    tag_85:\n        /* \"#utility.yul\":3730:3775   */\n      tag_40\n      jump\t// in\n    tag_84:\n        /* \"#utility.yul\":3725:3728   */\n      dup3\n        /* \"#utility.yul\":3718:3776   */\n      mstore\n        /* \"#utility.yul\":3625:3782   */\n      pop\n      pop\n      jump\t// out\n        /* \"#utility.yul\":3788:4044   */\n    tag_12:\n        /* \"#utility.yul\":3900:3903   */\n      0x00\n        /* \"#utility.yul\":3915:3990   */\n      tag_87\n        /* \"#utility.yul\":3986:3989   */\n      dup3\n        /* \"#utility.yul\":3977:3983   */\n      dup5\n        /* \"#utility.yul\":3915:3990   */\n      tag_41\n      jump\t// in\n    tag_87:\n        /* \"#utility.yul\":4015:4017   */\n      0x14\n        /* \"#utility.yul\":4010:4013   */\n      dup3\n        /* \"#utility.yul\":4006:4018   */\n      add\n        /* \"#utility.yul\":3999:4018   */\n      swap2\n      pop\n        /* \"#utility.yul\":4035:4038   */\n      dup2\n        /* \"#utility.yul\":4028:4038   */\n      swap1\n      pop\n        /* \"#utility.yul\":3788:4044   */\n      swap3\n      swap2\n      pop\n      pop\n      jump\t// out\n        /* \"#utility.yul\":4050:4230   */\n    tag_15:\n        /* \"#utility.yul\":4098:4175   */\n      0x4e487b7100000000000000000000000000000000000000000000000000000000\n        /* \"#utility.yul\":4095:4096   */\n      0x00\n        /* \"#utility.yul\":4088:4176   */\n      mstore\n        /* \"#utility.yul\":4195:4199   */\n      0x41\n        /* \"#utility.yul\":4192:4193   */\n      0x04\n        /* \"#utility.yul\":4185:4200   */\n      mstore\n        /* \"#utility.yul\":4219:4223   */\n      0x24\n        /* \"#utility.yul\":4216:4217   */\n      0x00\n        /* \"#utility.yul\":4209:4224   */\n      revert\n        /* \"#utility.yul\":4236:4416   */\n    tag_22:\n        /* \"#utility.yul\":4284:4361   */\n      0x4e487b7100000000000000000000000000000000000000000000000000000000\n        /* \"#utility.yul\":4281:4282   */\n      0x00\n        /* \"#utility.yul\":4274:4362   */\n      mstore\n        /* \"#utility.yul\":4381:4385   */\n      0x32\n        /* \"#utility.yul\":4378:4379   */\n      0x04\n        /* \"#utility.yul\":4371:4386   */\n      mstore\n        /* \"#utility.yul\":4405:4409   */\n      0x24\n        /* \"#utility.yul\":4402:4403   */\n      0x00\n        /* \"#utility.yul\":4395:4410   */\n      revert\n\n    auxdata: 0xa2646970667358221220c4631625065a7a857582168cfcc859bd3ea11e9abf8b6c9e3bc1e93e7d57923a64736f6c634300081a0033\n}\n",
				"bytecode": {
					"linkReferences": {},
					"object": "6080604052348015600e575f80fd5b506103da8061001c5f395ff3fe608060405234801561000f575f80fd5b5060043610610029575f3560e01c8063b95845141461002d575b5f80fd5b610047600480360381019061004291906101be565b61005d565b60405161005491906102cb565b60405180910390f35b60605f826040516020016100719190610330565b60405160208183030381529060405290505f600567ffffffffffffffff81111561009e5761009d61034a565b5b6040519080825280602002602001820160405280156100cc5781602001602082028036833780820191505090505b5090505f5b6005811015610155575f600482026020850101519050808383815181106100fb576100fa610377565b5b60200260200101907bffffffffffffffffffffffffffffffffffffffffffffffffffffffff191690817bffffffffffffffffffffffffffffffffffffffffffffffffffffffff1916815250505080806001019150506100d1565b508092505050919050565b5f80fd5b5f73ffffffffffffffffffffffffffffffffffffffff82169050919050565b5f61018d82610164565b9050919050565b61019d81610183565b81146101a7575f80fd5b50565b5f813590506101b881610194565b92915050565b5f602082840312156101d3576101d2610160565b5b5f6101e0848285016101aa565b91505092915050565b5f81519050919050565b5f82825260208201905092915050565b5f819050602082019050919050565b5f7fffffffff0000000000000000000000000000000000000000000000000000000082169050919050565b61024681610212565b82525050565b5f610257838361023d565b60208301905092915050565b5f602082019050919050565b5f610279826101e9565b61028381856101f3565b935061028e83610203565b805f5b838110156102be5781516102a5888261024c565b97506102b083610263565b925050600181019050610291565b5085935050505092915050565b5f6020820190508181035f8301526102e3818461026f565b905092915050565b5f8160601b9050919050565b5f610301826102eb565b9050919050565b5f610312826102f7565b9050919050565b61032a61032582610183565b610308565b82525050565b5f61033b8284610319565b60148201915081905092915050565b7f4e487b71000000000000000000000000000000000000000000000000000000005f52604160045260245ffd5b7f4e487b71000000000000000000000000000000000000000000000000000000005f52603260045260245ffdfea2646970667358221220c4631625065a7a857582168cfcc859bd3ea11e9abf8b6c9e3bc1e93e7d57923a64736f6c634300081a0033",
					"opcodes": "PUSH1 0x80 PUSH1 0x40 MSTORE CALLVALUE DUP1 ISZERO PUSH1 0xE JUMPI PUSH0 DUP1 REVERT JUMPDEST POP PUSH2 0x3DA DUP1 PUSH2 0x1C PUSH0 CODECOPY PUSH0 RETURN INVALID PUSH1 0x80 PUSH1 0x40 MSTORE CALLVALUE DUP1 ISZERO PUSH2 0xF JUMPI PUSH0 DUP1 REVERT JUMPDEST POP PUSH1 0x4 CALLDATASIZE LT PUSH2 0x29 JUMPI PUSH0 CALLDATALOAD PUSH1 0xE0 SHR DUP1 PUSH4 0xB9584514 EQ PUSH2 0x2D JUMPI JUMPDEST PUSH0 DUP1 REVERT JUMPDEST PUSH2 0x47 PUSH1 0x4 DUP1 CALLDATASIZE SUB DUP2 ADD SWAP1 PUSH2 0x42 SWAP2 SWAP1 PUSH2 0x1BE JUMP JUMPDEST PUSH2 0x5D JUMP JUMPDEST PUSH1 0x40 MLOAD PUSH2 0x54 SWAP2 SWAP1 PUSH2 0x2CB JUMP JUMPDEST PUSH1 0x40 MLOAD DUP1 SWAP2 SUB SWAP1 RETURN JUMPDEST PUSH1 0x60 PUSH0 DUP3 PUSH1 0x40 MLOAD PUSH1 0x20 ADD PUSH2 0x71 SWAP2 SWAP1 PUSH2 0x330 JUMP JUMPDEST PUSH1 0x40 MLOAD PUSH1 0x20 DUP2 DUP4 SUB SUB DUP2 MSTORE SWAP1 PUSH1 0x40 MSTORE SWAP1 POP PUSH0 PUSH1 0x5 PUSH8 0xFFFFFFFFFFFFFFFF DUP2 GT ISZERO PUSH2 0x9E JUMPI PUSH2 0x9D PUSH2 0x34A JUMP JUMPDEST JUMPDEST PUSH1 0x40 MLOAD SWAP1 DUP1 DUP3 MSTORE DUP1 PUSH1 0x20 MUL PUSH1 0x20 ADD DUP3 ADD PUSH1 0x40 MSTORE DUP1 ISZERO PUSH2 0xCC JUMPI DUP2 PUSH1 0x20 ADD PUSH1 0x20 DUP3 MUL DUP1 CALLDATASIZE DUP4 CALLDATACOPY DUP1 DUP3 ADD SWAP2 POP POP SWAP1 POP JUMPDEST POP SWAP1 POP PUSH0 JUMPDEST PUSH1 0x5 DUP2 LT ISZERO PUSH2 0x155 JUMPI PUSH0 PUSH1 0x4 DUP3 MUL PUSH1 0x20 DUP6 ADD ADD MLOAD SWAP1 POP DUP1 DUP4 DUP4 DUP2 MLOAD DUP2 LT PUSH2 0xFB JUMPI PUSH2 0xFA PUSH2 0x377 JUMP JUMPDEST JUMPDEST PUSH1 0x20 MUL PUSH1 0x20 ADD ADD SWAP1 PUSH28 0xFFFFFFFFFFFFFFFFFFFFFFFFFFFFFFFFFFFFFFFFFFFFFFFFFFFFFFFF NOT AND SWAP1 DUP2 PUSH28 0xFFFFFFFFFFFFFFFFFFFFFFFFFFFFFFFFFFFFFFFFFFFFFFFFFFFFFFFF NOT AND DUP2 MSTORE POP POP POP DUP1 DUP1 PUSH1 0x1 ADD SWAP2 POP POP PUSH2 0xD1 JUMP JUMPDEST POP DUP1 SWAP3 POP POP POP SWAP2 SWAP1 POP JUMP JUMPDEST PUSH0 DUP1 REVERT JUMPDEST PUSH0 PUSH20 0xFFFFFFFFFFFFFFFFFFFFFFFFFFFFFFFFFFFFFFFF DUP3 AND SWAP1 POP SWAP2 SWAP1 POP JUMP JUMPDEST PUSH0 PUSH2 0x18D DUP3 PUSH2 0x164 JUMP JUMPDEST SWAP1 POP SWAP2 SWAP1 POP JUMP JUMPDEST PUSH2 0x19D DUP2 PUSH2 0x183 JUMP JUMPDEST DUP2 EQ PUSH2 0x1A7 JUMPI PUSH0 DUP1 REVERT JUMPDEST POP JUMP JUMPDEST PUSH0 DUP2 CALLDATALOAD SWAP1 POP PUSH2 0x1B8 DUP2 PUSH2 0x194 JUMP JUMPDEST SWAP3 SWAP2 POP POP JUMP JUMPDEST PUSH0 PUSH1 0x20 DUP3 DUP5 SUB SLT ISZERO PUSH2 0x1D3 JUMPI PUSH2 0x1D2 PUSH2 0x160 JUMP JUMPDEST JUMPDEST PUSH0 PUSH2 0x1E0 DUP5 DUP3 DUP6 ADD PUSH2 0x1AA JUMP JUMPDEST SWAP2 POP POP SWAP3 SWAP2 POP POP JUMP JUMPDEST PUSH0 DUP2 MLOAD SWAP1 POP SWAP2 SWAP1 POP JUMP JUMPDEST PUSH0 DUP3 DUP3 MSTORE PUSH1 0x20 DUP3 ADD SWAP1 POP SWAP3 SWAP2 POP POP JUMP JUMPDEST PUSH0 DUP2 SWAP1 POP PUSH1 0x20 DUP3 ADD SWAP1 POP SWAP2 SWAP1 POP JUMP JUMPDEST PUSH0 PUSH32 0xFFFFFFFF00000000000000000000000000000000000000000000000000000000 DUP3 AND SWAP1 POP SWAP2 SWAP1 POP JUMP JUMPDEST PUSH2 0x246 DUP2 PUSH2 0x212 JUMP JUMPDEST DUP3 MSTORE POP POP JUMP JUMPDEST PUSH0 PUSH2 0x257 DUP4 DUP4 PUSH2 0x23D JUMP JUMPDEST PUSH1 0x20 DUP4 ADD SWAP1 POP SWAP3 SWAP2 POP POP JUMP JUMPDEST PUSH0 PUSH1 0x20 DUP3 ADD SWAP1 POP SWAP2 SWAP1 POP JUMP JUMPDEST PUSH0 PUSH2 0x279 DUP3 PUSH2 0x1E9 JUMP JUMPDEST PUSH2 0x283 DUP2 DUP6 PUSH2 0x1F3 JUMP JUMPDEST SWAP4 POP PUSH2 0x28E DUP4 PUSH2 0x203 JUMP JUMPDEST DUP1 PUSH0 JUMPDEST DUP4 DUP2 LT ISZERO PUSH2 0x2BE JUMPI DUP2 MLOAD PUSH2 0x2A5 DUP9 DUP3 PUSH2 0x24C JUMP JUMPDEST SWAP8 POP PUSH2 0x2B0 DUP4 PUSH2 0x263 JUMP JUMPDEST SWAP3 POP POP PUSH1 0x1 DUP2 ADD SWAP1 POP PUSH2 0x291 JUMP JUMPDEST POP DUP6 SWAP4 POP POP POP POP SWAP3 SWAP2 POP POP JUMP JUMPDEST PUSH0 PUSH1 0x20 DUP3 ADD SWAP1 POP DUP2 DUP2 SUB PUSH0 DUP4 ADD MSTORE PUSH2 0x2E3 DUP2 DUP5 PUSH2 0x26F JUMP JUMPDEST SWAP1 POP SWAP3 SWAP2 POP POP JUMP JUMPDEST PUSH0 DUP2 PUSH1 0x60 SHL SWAP1 POP SWAP2 SWAP1 POP JUMP JUMPDEST PUSH0 PUSH2 0x301 DUP3 PUSH2 0x2EB JUMP JUMPDEST SWAP1 POP SWAP2 SWAP1 POP JUMP JUMPDEST PUSH0 PUSH2 0x312 DUP3 PUSH2 0x2F7 JUMP JUMPDEST SWAP1 POP SWAP2 SWAP1 POP JUMP JUMPDEST PUSH2 0x32A PUSH2 0x325 DUP3 PUSH2 0x183 JUMP JUMPDEST PUSH2 0x308 JUMP JUMPDEST DUP3 MSTORE POP POP JUMP JUMPDEST PUSH0 PUSH2 0x33B DUP3 DUP5 PUSH2 0x319 JUMP JUMPDEST PUSH1 0x14 DUP3 ADD SWAP2 POP DUP2 SWAP1 POP SWAP3 SWAP2 POP POP JUMP JUMPDEST PUSH32 0x4E487B7100000000000000000000000000000000000000000000000000000000 PUSH0 MSTORE PUSH1 0x41 PUSH1 0x4 MSTORE PUSH1 0x24 PUSH0 REVERT JUMPDEST PUSH32 0x4E487B7100000000000000000000000000000000000000000000000000000000 PUSH0 MSTORE PUSH1 0x32 PUSH1 0x4 MSTORE PUSH1 0x24 PUSH0 REVERT INVALID LOG2 PUSH5 0x6970667358 0x22 SLT KECCAK256 0xC4 PUSH4 0x1625065A PUSH27 0x857582168CFCC859BD3EA11E9ABF8B6C9E3BC1E93E7D57923A6473 PUSH16 0x6C634300081A00330000000000000000 "
				},
				"gasEstimates": {
					"creation": {
						"codeDepositCost": "197200",
						"executionCost": "236",
						"totalCost": "197436"
					},
					"external": {
						"splitAddress(address)": "infinite"
					}
				},
				"methodIdentifiers": {
					"splitAddress(address)": "b9584514"
				}
			},
			"storageLayout": {
				"storage": [],
				"types": null
			},
			"userdoc": {
				"kind": "user",
				"methods": {},
				"version": 1
			}
		}
	}
}