{
	"solidity/solidity11~20.sol": {
		"Q14": {
			"abi": [
				{
					"inputs": [
						{
							"internalType": "string",
							"name": "_name",
							"type": "string"
						},
						{
							"internalType": "string[]",
							"name": "_class",
							"type": "string[]"
						}
					],
					"name": "addStudent",
					"outputs": [],
					"stateMutability": "nonpayable",
					"type": "function"
				},
				{
					"inputs": [],
					"name": "getAllStudents",
					"outputs": [
						{
							"components": [
								{
									"internalType": "uint256",
									"name": "number",
									"type": "uint256"
								},
								{
									"internalType": "string",
									"name": "name",
									"type": "string"
								},
								{
									"internalType": "string[]",
									"name": "class",
									"type": "string[]"
								}
							],
							"internalType": "struct Q14.Student[]",
							"name": "",
							"type": "tuple[]"
						}
					],
					"stateMutability": "view",
					"type": "function"
				}
			],
			"devdoc": {
				"kind": "dev",
				"methods": {},
				"version": 1
			},
			"evm": {
				"assembly": "    /* \"solidity/solidity11~20.sol\":1377:2117  contract Q14 {... */\n  mstore(0x40, 0x80)\n  callvalue\n  dup1\n  iszero\n  tag_1\n  jumpi\n  0x00\n  dup1\n  revert\ntag_1:\n  pop\n  dataSize(sub_0)\n  dup1\n  dataOffset(sub_0)\n  0x00\n  codecopy\n  0x00\n  return\nstop\n\nsub_0: assembly {\n        /* \"solidity/solidity11~20.sol\":1377:2117  contract Q14 {... */\n      mstore(0x40, 0x80)\n      callvalue\n      dup1\n      iszero\n      tag_1\n      jumpi\n      0x00\n      dup1\n      revert\n    tag_1:\n      pop\n      jumpi(tag_2, lt(calldatasize, 0x04))\n      shr(0xe0, calldataload(0x00))\n      dup1\n      0x70d5e2fb\n      eq\n      tag_3\n      jumpi\n      dup1\n      0xe9e30927\n      eq\n      tag_4\n      jumpi\n    tag_2:\n      0x00\n      dup1\n      revert\n        /* \"solidity/solidity11~20.sol\":1868:2013  function addStudent(string memory _name, string[] memory _class) public {... */\n    tag_3:\n      tag_5\n      0x04\n      dup1\n      calldatasize\n      sub\n      dup2\n      add\n      swap1\n      tag_6\n      swap2\n      swap1\n      tag_7\n      jump\t// in\n    tag_6:\n      tag_8\n      jump\t// in\n    tag_5:\n      stop\n        /* \"solidity/solidity11~20.sol\":2018:2115  function getAllStudents() public view returns (Student[] memory) {... */\n    tag_4:\n      tag_9\n      tag_10\n      jump\t// in\n    tag_9:\n      mload(0x40)\n      tag_11\n      swap2\n      swap1\n      tag_12\n      jump\t// in\n    tag_11:\n      mload(0x40)\n      dup1\n      swap2\n      sub\n      swap1\n      return\n        /* \"solidity/solidity11~20.sol\":1868:2013  function addStudent(string memory _name, string[] memory _class) public {... */\n    tag_8:\n        /* \"solidity/solidity11~20.sol\":1950:1958  students */\n      0x00\n        /* \"solidity/solidity11~20.sol\":1964:2005  Student(students.length+1, _name, _class) */\n      mload(0x40)\n      dup1\n      0x60\n      add\n      0x40\n      mstore\n      dup1\n        /* \"solidity/solidity11~20.sol\":1988:1989  1 */\n      0x01\n        /* \"solidity/solidity11~20.sol\":1972:1980  students */\n      0x00\n        /* \"solidity/solidity11~20.sol\":1972:1987  students.length */\n      dup1\n      sload\n      swap1\n      pop\n        /* \"solidity/solidity11~20.sol\":1972:1989  students.length+1 */\n      tag_14\n      swap2\n      swap1\n      tag_15\n      jump\t// in\n    tag_14:\n        /* \"solidity/solidity11~20.sol\":1964:2005  Student(students.length+1, _name, _class) */\n      dup2\n      mstore\n      0x20\n      add\n        /* \"solidity/solidity11~20.sol\":1991:1996  _name */\n      dup5\n        /* \"solidity/solidity11~20.sol\":1964:2005  Student(students.length+1, _name, _class) */\n      dup2\n      mstore\n      0x20\n      add\n        /* \"solidity/solidity11~20.sol\":1998:2004  _class */\n      dup4\n        /* \"solidity/solidity11~20.sol\":1964:2005  Student(students.length+1, _name, _class) */\n      dup2\n      mstore\n      pop\n        /* \"solidity/solidity11~20.sol\":1950:2006  students.push(Student(students.length+1, _name, _class)) */\n      swap1\n      dup1\n      0x01\n      dup2\n      sload\n      add\n      dup1\n      dup3\n      sstore\n      dup1\n      swap2\n      pop\n      pop\n      0x01\n      swap1\n      sub\n      swap1\n      0x00\n      mstore\n      keccak256(0x00, 0x20)\n      swap1\n      0x03\n      mul\n      add\n      0x00\n      swap1\n      swap2\n      swap1\n      swap2\n      swap1\n      swap2\n      pop\n      0x00\n      dup3\n      add\n      mload\n      dup2\n      0x00\n      add\n      sstore\n      0x20\n      dup3\n      add\n      mload\n      dup2\n      0x01\n      add\n      swap1\n      dup2\n      tag_17\n      swap2\n      swap1\n      tag_18\n      jump\t// in\n    tag_17:\n      pop\n      0x40\n      dup3\n      add\n      mload\n      dup2\n      0x02\n      add\n      swap1\n      dup1\n      mload\n      swap1\n      0x20\n      add\n      swap1\n      tag_19\n      swap3\n      swap2\n      swap1\n      tag_20\n      jump\t// in\n    tag_19:\n      pop\n      pop\n      pop\n        /* \"solidity/solidity11~20.sol\":1868:2013  function addStudent(string memory _name, string[] memory _class) public {... */\n      pop\n      pop\n      jump\t// out\n        /* \"solidity/solidity11~20.sol\":2018:2115  function getAllStudents() public view returns (Student[] memory) {... */\n    tag_10:\n        /* \"solidity/solidity11~20.sol\":2065:2081  Student[] memory */\n      0x60\n        /* \"solidity/solidity11~20.sol\":2100:2108  students */\n      0x00\n        /* \"solidity/solidity11~20.sol\":2093:2108  return students */\n      dup1\n      sload\n      dup1\n      0x20\n      mul\n      0x20\n      add\n      mload(0x40)\n      swap1\n      dup2\n      add\n      0x40\n      mstore\n      dup1\n      swap3\n      swap2\n      swap1\n      dup2\n      dup2\n      mstore\n      0x20\n      add\n      0x00\n      swap1\n    tag_22:\n      dup3\n      dup3\n      lt\n      iszero\n      tag_23\n      jumpi\n      dup4\n      dup3\n      swap1\n      0x00\n      mstore\n      keccak256(0x00, 0x20)\n      swap1\n      0x03\n      mul\n      add\n      mload(0x40)\n      dup1\n      0x60\n      add\n      0x40\n      mstore\n      swap1\n      dup2\n      0x00\n      dup3\n      add\n      sload\n      dup2\n      mstore\n      0x20\n      add\n      0x01\n      dup3\n      add\n      dup1\n      sload\n      tag_25\n      swap1\n      tag_26\n      jump\t// in\n    tag_25:\n      dup1\n      0x1f\n      add\n      0x20\n      dup1\n      swap2\n      div\n      mul\n      0x20\n      add\n      mload(0x40)\n      swap1\n      dup2\n      add\n      0x40\n      mstore\n      dup1\n      swap3\n      swap2\n      swap1\n      dup2\n      dup2\n      mstore\n      0x20\n      add\n      dup3\n      dup1\n      sload\n      tag_27\n      swap1\n      tag_26\n      jump\t// in\n    tag_27:\n      dup1\n      iszero\n      tag_28\n      jumpi\n      dup1\n      0x1f\n      lt\n      tag_29\n      jumpi\n      0x0100\n      dup1\n      dup4\n      sload\n      div\n      mul\n      dup4\n      mstore\n      swap2\n      0x20\n      add\n      swap2\n      jump(tag_28)\n    tag_29:\n      dup3\n      add\n      swap2\n      swap1\n      0x00\n      mstore\n      keccak256(0x00, 0x20)\n      swap1\n    tag_30:\n      dup2\n      sload\n      dup2\n      mstore\n      swap1\n      0x01\n      add\n      swap1\n      0x20\n      add\n      dup1\n      dup4\n      gt\n      tag_30\n      jumpi\n      dup3\n      swap1\n      sub\n      0x1f\n      and\n      dup3\n      add\n      swap2\n    tag_28:\n      pop\n      pop\n      pop\n      pop\n      pop\n      dup2\n      mstore\n      0x20\n      add\n      0x02\n      dup3\n      add\n      dup1\n      sload\n      dup1\n      0x20\n      mul\n      0x20\n      add\n      mload(0x40)\n      swap1\n      dup2\n      add\n      0x40\n      mstore\n      dup1\n      swap3\n      swap2\n      swap1\n      dup2\n      dup2\n      mstore\n      0x20\n      add\n      0x00\n      swap1\n    tag_31:\n      dup3\n      dup3\n      lt\n      iszero\n      tag_32\n      jumpi\n      dup4\n      dup3\n      swap1\n      0x00\n      mstore\n      keccak256(0x00, 0x20)\n      add\n      dup1\n      sload\n      tag_34\n      swap1\n      tag_26\n      jump\t// in\n    tag_34:\n      dup1\n      0x1f\n      add\n      0x20\n      dup1\n      swap2\n      div\n      mul\n      0x20\n      add\n      mload(0x40)\n      swap1\n      dup2\n      add\n      0x40\n      mstore\n      dup1\n      swap3\n      swap2\n      swap1\n      dup2\n      dup2\n      mstore\n      0x20\n      add\n      dup3\n      dup1\n      sload\n      tag_35\n      swap1\n      tag_26\n      jump\t// in\n    tag_35:\n      dup1\n      iszero\n      tag_36\n      jumpi\n      dup1\n      0x1f\n      lt\n      tag_37\n      jumpi\n      0x0100\n      dup1\n      dup4\n      sload\n      div\n      mul\n      dup4\n      mstore\n      swap2\n      0x20\n      add\n      swap2\n      jump(tag_36)\n    tag_37:\n      dup3\n      add\n      swap2\n      swap1\n      0x00\n      mstore\n      keccak256(0x00, 0x20)\n      swap1\n    tag_38:\n      dup2\n      sload\n      dup2\n      mstore\n      swap1\n      0x01\n      add\n      swap1\n      0x20\n      add\n      dup1\n      dup4\n      gt\n      tag_38\n      jumpi\n      dup3\n      swap1\n      sub\n      0x1f\n      and\n      dup3\n      add\n      swap2\n    tag_36:\n      pop\n      pop\n      pop\n      pop\n      pop\n      dup2\n      mstore\n      0x20\n      add\n      swap1\n      0x01\n      add\n      swap1\n      jump(tag_31)\n    tag_32:\n      pop\n      pop\n      pop\n      pop\n      dup2\n      mstore\n      pop\n      pop\n      dup2\n      mstore\n      0x20\n      add\n      swap1\n      0x01\n      add\n      swap1\n      jump(tag_22)\n    tag_23:\n      pop\n      pop\n      pop\n      pop\n      swap1\n      pop\n        /* \"solidity/solidity11~20.sol\":2018:2115  function getAllStudents() public view returns (Student[] memory) {... */\n      swap1\n      jump\t// out\n    tag_20:\n      dup3\n      dup1\n      sload\n      dup3\n      dup3\n      sstore\n      swap1\n      0x00\n      mstore\n      keccak256(0x00, 0x20)\n      swap1\n      dup2\n      add\n      swap3\n      dup3\n      iszero\n      tag_39\n      jumpi\n      swap2\n      0x20\n      mul\n      dup3\n      add\n    tag_40:\n      dup3\n      dup2\n      gt\n      iszero\n      tag_41\n      jumpi\n      dup3\n      mload\n      dup3\n      swap1\n      dup2\n      tag_42\n      swap2\n      swap1\n      tag_18\n      jump\t// in\n    tag_42:\n      pop\n      swap2\n      0x20\n      add\n      swap2\n      swap1\n      0x01\n      add\n      swap1\n      jump(tag_40)\n    tag_41:\n    tag_39:\n      pop\n      swap1\n      pop\n      tag_43\n      swap2\n      swap1\n      tag_44\n      jump\t// in\n    tag_43:\n      pop\n      swap1\n      jump\t// out\n    tag_44:\n    tag_45:\n      dup1\n      dup3\n      gt\n      iszero\n      tag_46\n      jumpi\n      0x00\n      dup2\n      dup2\n      tag_47\n      swap2\n      swap1\n      tag_48\n      jump\t// in\n    tag_47:\n      pop\n      0x01\n      add\n      jump(tag_45)\n    tag_46:\n      pop\n      swap1\n      jump\t// out\n    tag_48:\n      pop\n      dup1\n      sload\n      tag_49\n      swap1\n      tag_26\n      jump\t// in\n    tag_49:\n      0x00\n      dup3\n      sstore\n      dup1\n      0x1f\n      lt\n      tag_51\n      jumpi\n      pop\n      jump(tag_50)\n    tag_51:\n      0x1f\n      add\n      0x20\n      swap1\n      div\n      swap1\n      0x00\n      mstore\n      keccak256(0x00, 0x20)\n      swap1\n      dup2\n      add\n      swap1\n      tag_52\n      swap2\n      swap1\n      tag_53\n      jump\t// in\n    tag_52:\n    tag_50:\n      pop\n      jump\t// out\n    tag_53:\n    tag_54:\n      dup1\n      dup3\n      gt\n      iszero\n      tag_55\n      jumpi\n      0x00\n      dup2\n      0x00\n      swap1\n      sstore\n      pop\n      0x01\n      add\n      jump(tag_54)\n    tag_55:\n      pop\n      swap1\n      jump\t// out\n        /* \"#utility.yul\":7:82   */\n    tag_56:\n        /* \"#utility.yul\":40:46   */\n      0x00\n        /* \"#utility.yul\":73:75   */\n      0x40\n        /* \"#utility.yul\":67:76   */\n      mload\n        /* \"#utility.yul\":57:76   */\n      swap1\n      pop\n        /* \"#utility.yul\":7:82   */\n      swap1\n      jump\t// out\n        /* \"#utility.yul\":88:205   */\n    tag_57:\n        /* \"#utility.yul\":197:198   */\n      0x00\n        /* \"#utility.yul\":194:195   */\n      dup1\n        /* \"#utility.yul\":187:199   */\n      revert\n        /* \"#utility.yul\":211:328   */\n    tag_58:\n        /* \"#utility.yul\":320:321   */\n      0x00\n        /* \"#utility.yul\":317:318   */\n      dup1\n        /* \"#utility.yul\":310:322   */\n      revert\n        /* \"#utility.yul\":334:451   */\n    tag_59:\n        /* \"#utility.yul\":443:444   */\n      0x00\n        /* \"#utility.yul\":440:441   */\n      dup1\n        /* \"#utility.yul\":433:445   */\n      revert\n        /* \"#utility.yul\":457:574   */\n    tag_60:\n        /* \"#utility.yul\":566:567   */\n      0x00\n        /* \"#utility.yul\":563:564   */\n      dup1\n        /* \"#utility.yul\":556:568   */\n      revert\n        /* \"#utility.yul\":580:682   */\n    tag_61:\n        /* \"#utility.yul\":621:627   */\n      0x00\n        /* \"#utility.yul\":672:674   */\n      0x1f\n        /* \"#utility.yul\":668:675   */\n      not\n        /* \"#utility.yul\":663:665   */\n      0x1f\n        /* \"#utility.yul\":656:661   */\n      dup4\n        /* \"#utility.yul\":652:666   */\n      add\n        /* \"#utility.yul\":648:676   */\n      and\n        /* \"#utility.yul\":638:676   */\n      swap1\n      pop\n        /* \"#utility.yul\":580:682   */\n      swap2\n      swap1\n      pop\n      jump\t// out\n        /* \"#utility.yul\":688:868   */\n    tag_62:\n        /* \"#utility.yul\":736:813   */\n      0x4e487b7100000000000000000000000000000000000000000000000000000000\n        /* \"#utility.yul\":733:734   */\n      0x00\n        /* \"#utility.yul\":726:814   */\n      mstore\n        /* \"#utility.yul\":833:837   */\n      0x41\n        /* \"#utility.yul\":830:831   */\n      0x04\n        /* \"#utility.yul\":823:838   */\n      mstore\n        /* \"#utility.yul\":857:861   */\n      0x24\n        /* \"#utility.yul\":854:855   */\n      0x00\n        /* \"#utility.yul\":847:862   */\n      revert\n        /* \"#utility.yul\":874:1155   */\n    tag_63:\n        /* \"#utility.yul\":957:984   */\n      tag_118\n        /* \"#utility.yul\":979:983   */\n      dup3\n        /* \"#utility.yul\":957:984   */\n      tag_61\n      jump\t// in\n    tag_118:\n        /* \"#utility.yul\":949:955   */\n      dup2\n        /* \"#utility.yul\":945:985   */\n      add\n        /* \"#utility.yul\":1087:1093   */\n      dup2\n        /* \"#utility.yul\":1075:1085   */\n      dup2\n        /* \"#utility.yul\":1072:1094   */\n      lt\n        /* \"#utility.yul\":1051:1069   */\n      0xffffffffffffffff\n        /* \"#utility.yul\":1039:1049   */\n      dup3\n        /* \"#utility.yul\":1036:1070   */\n      gt\n        /* \"#utility.yul\":1033:1095   */\n      or\n        /* \"#utility.yul\":1030:1118   */\n      iszero\n      tag_119\n      jumpi\n        /* \"#utility.yul\":1098:1116   */\n      tag_120\n      tag_62\n      jump\t// in\n    tag_120:\n        /* \"#utility.yul\":1030:1118   */\n    tag_119:\n        /* \"#utility.yul\":1138:1148   */\n      dup1\n        /* \"#utility.yul\":1134:1136   */\n      0x40\n        /* \"#utility.yul\":1127:1149   */\n      mstore\n        /* \"#utility.yul\":917:1155   */\n      pop\n        /* \"#utility.yul\":874:1155   */\n      pop\n      pop\n      jump\t// out\n        /* \"#utility.yul\":1161:1290   */\n    tag_64:\n        /* \"#utility.yul\":1195:1201   */\n      0x00\n        /* \"#utility.yul\":1222:1242   */\n      tag_122\n      tag_56\n      jump\t// in\n    tag_122:\n        /* \"#utility.yul\":1212:1242   */\n      swap1\n      pop\n        /* \"#utility.yul\":1251:1284   */\n      tag_123\n        /* \"#utility.yul\":1279:1283   */\n      dup3\n        /* \"#utility.yul\":1271:1277   */\n      dup3\n        /* \"#utility.yul\":1251:1284   */\n      tag_63\n      jump\t// in\n    tag_123:\n        /* \"#utility.yul\":1161:1290   */\n      swap2\n      swap1\n      pop\n      jump\t// out\n        /* \"#utility.yul\":1296:1604   */\n    tag_65:\n        /* \"#utility.yul\":1358:1362   */\n      0x00\n        /* \"#utility.yul\":1448:1466   */\n      0xffffffffffffffff\n        /* \"#utility.yul\":1440:1446   */\n      dup3\n        /* \"#utility.yul\":1437:1467   */\n      gt\n        /* \"#utility.yul\":1434:1490   */\n      iszero\n      tag_125\n      jumpi\n        /* \"#utility.yul\":1470:1488   */\n      tag_126\n      tag_62\n      jump\t// in\n    tag_126:\n        /* \"#utility.yul\":1434:1490   */\n    tag_125:\n        /* \"#utility.yul\":1508:1537   */\n      tag_127\n        /* \"#utility.yul\":1530:1536   */\n      dup3\n        /* \"#utility.yul\":1508:1537   */\n      tag_61\n      jump\t// in\n    tag_127:\n        /* \"#utility.yul\":1500:1537   */\n      swap1\n      pop\n        /* \"#utility.yul\":1592:1596   */\n      0x20\n        /* \"#utility.yul\":1586:1590   */\n      dup2\n        /* \"#utility.yul\":1582:1597   */\n      add\n        /* \"#utility.yul\":1574:1597   */\n      swap1\n      pop\n        /* \"#utility.yul\":1296:1604   */\n      swap2\n      swap1\n      pop\n      jump\t// out\n        /* \"#utility.yul\":1610:1758   */\n    tag_66:\n        /* \"#utility.yul\":1708:1714   */\n      dup3\n        /* \"#utility.yul\":1703:1706   */\n      dup2\n        /* \"#utility.yul\":1698:1701   */\n      dup4\n        /* \"#utility.yul\":1685:1715   */\n      calldatacopy\n        /* \"#utility.yul\":1749:1750   */\n      0x00\n        /* \"#utility.yul\":1740:1746   */\n      dup4\n        /* \"#utility.yul\":1735:1738   */\n      dup4\n        /* \"#utility.yul\":1731:1747   */\n      add\n        /* \"#utility.yul\":1724:1751   */\n      mstore\n        /* \"#utility.yul\":1610:1758   */\n      pop\n      pop\n      pop\n      jump\t// out\n        /* \"#utility.yul\":1764:2189   */\n    tag_67:\n        /* \"#utility.yul\":1842:1847   */\n      0x00\n        /* \"#utility.yul\":1867:1933   */\n      tag_130\n        /* \"#utility.yul\":1883:1932   */\n      tag_131\n        /* \"#utility.yul\":1925:1931   */\n      dup5\n        /* \"#utility.yul\":1883:1932   */\n      tag_65\n      jump\t// in\n    tag_131:\n        /* \"#utility.yul\":1867:1933   */\n      tag_64\n      jump\t// in\n    tag_130:\n        /* \"#utility.yul\":1858:1933   */\n      swap1\n      pop\n        /* \"#utility.yul\":1956:1962   */\n      dup3\n        /* \"#utility.yul\":1949:1954   */\n      dup2\n        /* \"#utility.yul\":1942:1963   */\n      mstore\n        /* \"#utility.yul\":1994:1998   */\n      0x20\n        /* \"#utility.yul\":1987:1992   */\n      dup2\n        /* \"#utility.yul\":1983:1999   */\n      add\n        /* \"#utility.yul\":2032:2035   */\n      dup5\n        /* \"#utility.yul\":2023:2029   */\n      dup5\n        /* \"#utility.yul\":2018:2021   */\n      dup5\n        /* \"#utility.yul\":2014:2030   */\n      add\n        /* \"#utility.yul\":2011:2036   */\n      gt\n        /* \"#utility.yul\":2008:2120   */\n      iszero\n      tag_132\n      jumpi\n        /* \"#utility.yul\":2039:2118   */\n      tag_133\n      tag_60\n      jump\t// in\n    tag_133:\n        /* \"#utility.yul\":2008:2120   */\n    tag_132:\n        /* \"#utility.yul\":2129:2183   */\n      tag_134\n        /* \"#utility.yul\":2176:2182   */\n      dup5\n        /* \"#utility.yul\":2171:2174   */\n      dup3\n        /* \"#utility.yul\":2166:2169   */\n      dup6\n        /* \"#utility.yul\":2129:2183   */\n      tag_66\n      jump\t// in\n    tag_134:\n        /* \"#utility.yul\":1848:2189   */\n      pop\n        /* \"#utility.yul\":1764:2189   */\n      swap4\n      swap3\n      pop\n      pop\n      pop\n      jump\t// out\n        /* \"#utility.yul\":2209:2549   */\n    tag_68:\n        /* \"#utility.yul\":2265:2270   */\n      0x00\n        /* \"#utility.yul\":2314:2317   */\n      dup3\n        /* \"#utility.yul\":2307:2311   */\n      0x1f\n        /* \"#utility.yul\":2299:2305   */\n      dup4\n        /* \"#utility.yul\":2295:2312   */\n      add\n        /* \"#utility.yul\":2291:2318   */\n      slt\n        /* \"#utility.yul\":2281:2403   */\n      tag_136\n      jumpi\n        /* \"#utility.yul\":2322:2401   */\n      tag_137\n      tag_59\n      jump\t// in\n    tag_137:\n        /* \"#utility.yul\":2281:2403   */\n    tag_136:\n        /* \"#utility.yul\":2439:2445   */\n      dup2\n        /* \"#utility.yul\":2426:2446   */\n      calldataload\n        /* \"#utility.yul\":2464:2543   */\n      tag_138\n        /* \"#utility.yul\":2539:2542   */\n      dup5\n        /* \"#utility.yul\":2531:2537   */\n      dup3\n        /* \"#utility.yul\":2524:2528   */\n      0x20\n        /* \"#utility.yul\":2516:2522   */\n      dup7\n        /* \"#utility.yul\":2512:2529   */\n      add\n        /* \"#utility.yul\":2464:2543   */\n      tag_67\n      jump\t// in\n    tag_138:\n        /* \"#utility.yul\":2455:2543   */\n      swap2\n      pop\n        /* \"#utility.yul\":2271:2549   */\n      pop\n        /* \"#utility.yul\":2209:2549   */\n      swap3\n      swap2\n      pop\n      pop\n      jump\t// out\n        /* \"#utility.yul\":2555:2876   */\n    tag_69:\n        /* \"#utility.yul\":2642:2646   */\n      0x00\n        /* \"#utility.yul\":2732:2750   */\n      0xffffffffffffffff\n        /* \"#utility.yul\":2724:2730   */\n      dup3\n        /* \"#utility.yul\":2721:2751   */\n      gt\n        /* \"#utility.yul\":2718:2774   */\n      iszero\n      tag_140\n      jumpi\n        /* \"#utility.yul\":2754:2772   */\n      tag_141\n      tag_62\n      jump\t// in\n    tag_141:\n        /* \"#utility.yul\":2718:2774   */\n    tag_140:\n        /* \"#utility.yul\":2804:2808   */\n      0x20\n        /* \"#utility.yul\":2796:2802   */\n      dup3\n        /* \"#utility.yul\":2792:2809   */\n      mul\n        /* \"#utility.yul\":2784:2809   */\n      swap1\n      pop\n        /* \"#utility.yul\":2864:2868   */\n      0x20\n        /* \"#utility.yul\":2858:2862   */\n      dup2\n        /* \"#utility.yul\":2854:2869   */\n      add\n        /* \"#utility.yul\":2846:2869   */\n      swap1\n      pop\n        /* \"#utility.yul\":2555:2876   */\n      swap2\n      swap1\n      pop\n      jump\t// out\n        /* \"#utility.yul\":2882:2999   */\n    tag_70:\n        /* \"#utility.yul\":2991:2992   */\n      0x00\n        /* \"#utility.yul\":2988:2989   */\n      dup1\n        /* \"#utility.yul\":2981:2993   */\n      revert\n        /* \"#utility.yul\":3021:3966   */\n    tag_71:\n        /* \"#utility.yul\":3127:3132   */\n      0x00\n        /* \"#utility.yul\":3152:3243   */\n      tag_144\n        /* \"#utility.yul\":3168:3242   */\n      tag_145\n        /* \"#utility.yul\":3235:3241   */\n      dup5\n        /* \"#utility.yul\":3168:3242   */\n      tag_69\n      jump\t// in\n    tag_145:\n        /* \"#utility.yul\":3152:3243   */\n      tag_64\n      jump\t// in\n    tag_144:\n        /* \"#utility.yul\":3143:3243   */\n      swap1\n      pop\n        /* \"#utility.yul\":3263:3268   */\n      dup1\n        /* \"#utility.yul\":3292:3298   */\n      dup4\n        /* \"#utility.yul\":3285:3290   */\n      dup3\n        /* \"#utility.yul\":3278:3299   */\n      mstore\n        /* \"#utility.yul\":3326:3330   */\n      0x20\n        /* \"#utility.yul\":3319:3324   */\n      dup3\n        /* \"#utility.yul\":3315:3331   */\n      add\n        /* \"#utility.yul\":3308:3331   */\n      swap1\n      pop\n        /* \"#utility.yul\":3379:3383   */\n      0x20\n        /* \"#utility.yul\":3371:3377   */\n      dup5\n        /* \"#utility.yul\":3367:3384   */\n      mul\n        /* \"#utility.yul\":3359:3365   */\n      dup4\n        /* \"#utility.yul\":3355:3385   */\n      add\n        /* \"#utility.yul\":3408:3411   */\n      dup6\n        /* \"#utility.yul\":3400:3406   */\n      dup2\n        /* \"#utility.yul\":3397:3412   */\n      gt\n        /* \"#utility.yul\":3394:3516   */\n      iszero\n      tag_146\n      jumpi\n        /* \"#utility.yul\":3427:3506   */\n      tag_147\n      tag_70\n      jump\t// in\n    tag_147:\n        /* \"#utility.yul\":3394:3516   */\n    tag_146:\n        /* \"#utility.yul\":3542:3548   */\n      dup4\n        /* \"#utility.yul\":3525:3960   */\n    tag_148:\n        /* \"#utility.yul\":3559:3565   */\n      dup2\n        /* \"#utility.yul\":3554:3557   */\n      dup2\n        /* \"#utility.yul\":3551:3566   */\n      lt\n        /* \"#utility.yul\":3525:3960   */\n      iszero\n      tag_150\n      jumpi\n        /* \"#utility.yul\":3648:3651   */\n      dup1\n        /* \"#utility.yul\":3635:3652   */\n      calldataload\n        /* \"#utility.yul\":3684:3702   */\n      0xffffffffffffffff\n        /* \"#utility.yul\":3671:3682   */\n      dup2\n        /* \"#utility.yul\":3668:3703   */\n      gt\n        /* \"#utility.yul\":3665:3787   */\n      iszero\n      tag_151\n      jumpi\n        /* \"#utility.yul\":3706:3785   */\n      tag_152\n      tag_59\n      jump\t// in\n    tag_152:\n        /* \"#utility.yul\":3665:3787   */\n    tag_151:\n        /* \"#utility.yul\":3830:3841   */\n      dup1\n        /* \"#utility.yul\":3822:3828   */\n      dup7\n        /* \"#utility.yul\":3818:3842   */\n      add\n        /* \"#utility.yul\":3868:3915   */\n      tag_153\n        /* \"#utility.yul\":3911:3914   */\n      dup10\n        /* \"#utility.yul\":3899:3909   */\n      dup3\n        /* \"#utility.yul\":3868:3915   */\n      tag_68\n      jump\t// in\n    tag_153:\n        /* \"#utility.yul\":3863:3866   */\n      dup6\n        /* \"#utility.yul\":3856:3916   */\n      mstore\n        /* \"#utility.yul\":3945:3949   */\n      0x20\n        /* \"#utility.yul\":3940:3943   */\n      dup6\n        /* \"#utility.yul\":3936:3950   */\n      add\n        /* \"#utility.yul\":3929:3950   */\n      swap5\n      pop\n        /* \"#utility.yul\":3601:3960   */\n      pop\n      pop\n        /* \"#utility.yul\":3585:3589   */\n      0x20\n        /* \"#utility.yul\":3580:3583   */\n      dup2\n        /* \"#utility.yul\":3576:3590   */\n      add\n        /* \"#utility.yul\":3569:3590   */\n      swap1\n      pop\n        /* \"#utility.yul\":3525:3960   */\n      jump(tag_148)\n    tag_150:\n        /* \"#utility.yul\":3529:3550   */\n      pop\n        /* \"#utility.yul\":3133:3966   */\n      pop\n      pop\n        /* \"#utility.yul\":3021:3966   */\n      swap4\n      swap3\n      pop\n      pop\n      pop\n      jump\t// out\n        /* \"#utility.yul\":3988:4378   */\n    tag_72:\n        /* \"#utility.yul\":4069:4074   */\n      0x00\n        /* \"#utility.yul\":4118:4121   */\n      dup3\n        /* \"#utility.yul\":4111:4115   */\n      0x1f\n        /* \"#utility.yul\":4103:4109   */\n      dup4\n        /* \"#utility.yul\":4099:4116   */\n      add\n        /* \"#utility.yul\":4095:4122   */\n      slt\n        /* \"#utility.yul\":4085:4207   */\n      tag_155\n      jumpi\n        /* \"#utility.yul\":4126:4205   */\n      tag_156\n      tag_59\n      jump\t// in\n    tag_156:\n        /* \"#utility.yul\":4085:4207   */\n    tag_155:\n        /* \"#utility.yul\":4243:4249   */\n      dup2\n        /* \"#utility.yul\":4230:4250   */\n      calldataload\n        /* \"#utility.yul\":4268:4372   */\n      tag_157\n        /* \"#utility.yul\":4368:4371   */\n      dup5\n        /* \"#utility.yul\":4360:4366   */\n      dup3\n        /* \"#utility.yul\":4353:4357   */\n      0x20\n        /* \"#utility.yul\":4345:4351   */\n      dup7\n        /* \"#utility.yul\":4341:4358   */\n      add\n        /* \"#utility.yul\":4268:4372   */\n      tag_71\n      jump\t// in\n    tag_157:\n        /* \"#utility.yul\":4259:4372   */\n      swap2\n      pop\n        /* \"#utility.yul\":4075:4378   */\n      pop\n        /* \"#utility.yul\":3988:4378   */\n      swap3\n      swap2\n      pop\n      pop\n      jump\t// out\n        /* \"#utility.yul\":4384:5268   */\n    tag_7:\n        /* \"#utility.yul\":4497:4503   */\n      0x00\n        /* \"#utility.yul\":4505:4511   */\n      dup1\n        /* \"#utility.yul\":4554:4556   */\n      0x40\n        /* \"#utility.yul\":4542:4551   */\n      dup4\n        /* \"#utility.yul\":4533:4540   */\n      dup6\n        /* \"#utility.yul\":4529:4552   */\n      sub\n        /* \"#utility.yul\":4525:4557   */\n      slt\n        /* \"#utility.yul\":4522:4641   */\n      iszero\n      tag_159\n      jumpi\n        /* \"#utility.yul\":4560:4639   */\n      tag_160\n      tag_57\n      jump\t// in\n    tag_160:\n        /* \"#utility.yul\":4522:4641   */\n    tag_159:\n        /* \"#utility.yul\":4708:4709   */\n      0x00\n        /* \"#utility.yul\":4697:4706   */\n      dup4\n        /* \"#utility.yul\":4693:4710   */\n      add\n        /* \"#utility.yul\":4680:4711   */\n      calldataload\n        /* \"#utility.yul\":4738:4756   */\n      0xffffffffffffffff\n        /* \"#utility.yul\":4730:4736   */\n      dup2\n        /* \"#utility.yul\":4727:4757   */\n      gt\n        /* \"#utility.yul\":4724:4841   */\n      iszero\n      tag_161\n      jumpi\n        /* \"#utility.yul\":4760:4839   */\n      tag_162\n      tag_58\n      jump\t// in\n    tag_162:\n        /* \"#utility.yul\":4724:4841   */\n    tag_161:\n        /* \"#utility.yul\":4865:4928   */\n      tag_163\n        /* \"#utility.yul\":4920:4927   */\n      dup6\n        /* \"#utility.yul\":4911:4917   */\n      dup3\n        /* \"#utility.yul\":4900:4909   */\n      dup7\n        /* \"#utility.yul\":4896:4918   */\n      add\n        /* \"#utility.yul\":4865:4928   */\n      tag_68\n      jump\t// in\n    tag_163:\n        /* \"#utility.yul\":4855:4928   */\n      swap3\n      pop\n        /* \"#utility.yul\":4651:4938   */\n      pop\n        /* \"#utility.yul\":5005:5007   */\n      0x20\n        /* \"#utility.yul\":4994:5003   */\n      dup4\n        /* \"#utility.yul\":4990:5008   */\n      add\n        /* \"#utility.yul\":4977:5009   */\n      calldataload\n        /* \"#utility.yul\":5036:5054   */\n      0xffffffffffffffff\n        /* \"#utility.yul\":5028:5034   */\n      dup2\n        /* \"#utility.yul\":5025:5055   */\n      gt\n        /* \"#utility.yul\":5022:5139   */\n      iszero\n      tag_164\n      jumpi\n        /* \"#utility.yul\":5058:5137   */\n      tag_165\n      tag_58\n      jump\t// in\n    tag_165:\n        /* \"#utility.yul\":5022:5139   */\n    tag_164:\n        /* \"#utility.yul\":5163:5251   */\n      tag_166\n        /* \"#utility.yul\":5243:5250   */\n      dup6\n        /* \"#utility.yul\":5234:5240   */\n      dup3\n        /* \"#utility.yul\":5223:5232   */\n      dup7\n        /* \"#utility.yul\":5219:5241   */\n      add\n        /* \"#utility.yul\":5163:5251   */\n      tag_72\n      jump\t// in\n    tag_166:\n        /* \"#utility.yul\":5153:5251   */\n      swap2\n      pop\n        /* \"#utility.yul\":4948:5261   */\n      pop\n        /* \"#utility.yul\":4384:5268   */\n      swap3\n      pop\n      swap3\n      swap1\n      pop\n      jump\t// out\n        /* \"#utility.yul\":5274:5412   */\n    tag_73:\n        /* \"#utility.yul\":5365:5371   */\n      0x00\n        /* \"#utility.yul\":5399:5404   */\n      dup2\n        /* \"#utility.yul\":5393:5405   */\n      mload\n        /* \"#utility.yul\":5383:5405   */\n      swap1\n      pop\n        /* \"#utility.yul\":5274:5412   */\n      swap2\n      swap1\n      pop\n      jump\t// out\n        /* \"#utility.yul\":5418:5626   */\n    tag_74:\n        /* \"#utility.yul\":5541:5552   */\n      0x00\n        /* \"#utility.yul\":5575:5581   */\n      dup3\n        /* \"#utility.yul\":5570:5573   */\n      dup3\n        /* \"#utility.yul\":5563:5582   */\n      mstore\n        /* \"#utility.yul\":5615:5619   */\n      0x20\n        /* \"#utility.yul\":5610:5613   */\n      dup3\n        /* \"#utility.yul\":5606:5620   */\n      add\n        /* \"#utility.yul\":5591:5620   */\n      swap1\n      pop\n        /* \"#utility.yul\":5418:5626   */\n      swap3\n      swap2\n      pop\n      pop\n      jump\t// out\n        /* \"#utility.yul\":5632:5788   */\n    tag_75:\n        /* \"#utility.yul\":5723:5727   */\n      0x00\n        /* \"#utility.yul\":5746:5749   */\n      dup2\n        /* \"#utility.yul\":5738:5749   */\n      swap1\n      pop\n        /* \"#utility.yul\":5776:5780   */\n      0x20\n        /* \"#utility.yul\":5771:5774   */\n      dup3\n        /* \"#utility.yul\":5767:5781   */\n      add\n        /* \"#utility.yul\":5759:5781   */\n      swap1\n      pop\n        /* \"#utility.yul\":5632:5788   */\n      swap2\n      swap1\n      pop\n      jump\t// out\n        /* \"#utility.yul\":5794:5871   */\n    tag_76:\n        /* \"#utility.yul\":5831:5838   */\n      0x00\n        /* \"#utility.yul\":5860:5865   */\n      dup2\n        /* \"#utility.yul\":5849:5865   */\n      swap1\n      pop\n        /* \"#utility.yul\":5794:5871   */\n      swap2\n      swap1\n      pop\n      jump\t// out\n        /* \"#utility.yul\":5877:5985   */\n    tag_77:\n        /* \"#utility.yul\":5954:5978   */\n      tag_172\n        /* \"#utility.yul\":5972:5977   */\n      dup2\n        /* \"#utility.yul\":5954:5978   */\n      tag_76\n      jump\t// in\n    tag_172:\n        /* \"#utility.yul\":5949:5952   */\n      dup3\n        /* \"#utility.yul\":5942:5979   */\n      mstore\n        /* \"#utility.yul\":5877:5985   */\n      pop\n      pop\n      jump\t// out\n        /* \"#utility.yul\":5991:6090   */\n    tag_78:\n        /* \"#utility.yul\":6043:6049   */\n      0x00\n        /* \"#utility.yul\":6077:6082   */\n      dup2\n        /* \"#utility.yul\":6071:6083   */\n      mload\n        /* \"#utility.yul\":6061:6083   */\n      swap1\n      pop\n        /* \"#utility.yul\":5991:6090   */\n      swap2\n      swap1\n      pop\n      jump\t// out\n        /* \"#utility.yul\":6096:6255   */\n    tag_79:\n        /* \"#utility.yul\":6170:6181   */\n      0x00\n        /* \"#utility.yul\":6204:6210   */\n      dup3\n        /* \"#utility.yul\":6199:6202   */\n      dup3\n        /* \"#utility.yul\":6192:6211   */\n      mstore\n        /* \"#utility.yul\":6244:6248   */\n      0x20\n        /* \"#utility.yul\":6239:6242   */\n      dup3\n        /* \"#utility.yul\":6235:6249   */\n      add\n        /* \"#utility.yul\":6220:6249   */\n      swap1\n      pop\n        /* \"#utility.yul\":6096:6255   */\n      swap3\n      swap2\n      pop\n      pop\n      jump\t// out\n        /* \"#utility.yul\":6261:6400   */\n    tag_80:\n        /* \"#utility.yul\":6350:6356   */\n      dup3\n        /* \"#utility.yul\":6345:6348   */\n      dup2\n        /* \"#utility.yul\":6340:6343   */\n      dup4\n        /* \"#utility.yul\":6334:6357   */\n      mcopy\n        /* \"#utility.yul\":6391:6392   */\n      0x00\n        /* \"#utility.yul\":6382:6388   */\n      dup4\n        /* \"#utility.yul\":6377:6380   */\n      dup4\n        /* \"#utility.yul\":6373:6389   */\n      add\n        /* \"#utility.yul\":6366:6393   */\n      mstore\n        /* \"#utility.yul\":6261:6400   */\n      pop\n      pop\n      pop\n      jump\t// out\n        /* \"#utility.yul\":6406:6763   */\n    tag_81:\n        /* \"#utility.yul\":6484:6487   */\n      0x00\n        /* \"#utility.yul\":6512:6551   */\n      tag_177\n        /* \"#utility.yul\":6545:6550   */\n      dup3\n        /* \"#utility.yul\":6512:6551   */\n      tag_78\n      jump\t// in\n    tag_177:\n        /* \"#utility.yul\":6567:6628   */\n      tag_178\n        /* \"#utility.yul\":6621:6627   */\n      dup2\n        /* \"#utility.yul\":6616:6619   */\n      dup6\n        /* \"#utility.yul\":6567:6628   */\n      tag_79\n      jump\t// in\n    tag_178:\n        /* \"#utility.yul\":6560:6628   */\n      swap4\n      pop\n        /* \"#utility.yul\":6637:6702   */\n      tag_179\n        /* \"#utility.yul\":6695:6701   */\n      dup2\n        /* \"#utility.yul\":6690:6693   */\n      dup6\n        /* \"#utility.yul\":6683:6687   */\n      0x20\n        /* \"#utility.yul\":6676:6681   */\n      dup7\n        /* \"#utility.yul\":6672:6688   */\n      add\n        /* \"#utility.yul\":6637:6702   */\n      tag_80\n      jump\t// in\n    tag_179:\n        /* \"#utility.yul\":6727:6756   */\n      tag_180\n        /* \"#utility.yul\":6749:6755   */\n      dup2\n        /* \"#utility.yul\":6727:6756   */\n      tag_61\n      jump\t// in\n    tag_180:\n        /* \"#utility.yul\":6722:6725   */\n      dup5\n        /* \"#utility.yul\":6718:6757   */\n      add\n        /* \"#utility.yul\":6711:6757   */\n      swap2\n      pop\n        /* \"#utility.yul\":6488:6763   */\n      pop\n        /* \"#utility.yul\":6406:6763   */\n      swap3\n      swap2\n      pop\n      pop\n      jump\t// out\n        /* \"#utility.yul\":6769:6893   */\n    tag_82:\n        /* \"#utility.yul\":6846:6852   */\n      0x00\n        /* \"#utility.yul\":6880:6885   */\n      dup2\n        /* \"#utility.yul\":6874:6886   */\n      mload\n        /* \"#utility.yul\":6864:6886   */\n      swap1\n      pop\n        /* \"#utility.yul\":6769:6893   */\n      swap2\n      swap1\n      pop\n      jump\t// out\n        /* \"#utility.yul\":6899:7083   */\n    tag_83:\n        /* \"#utility.yul\":6998:7009   */\n      0x00\n        /* \"#utility.yul\":7032:7038   */\n      dup3\n        /* \"#utility.yul\":7027:7030   */\n      dup3\n        /* \"#utility.yul\":7020:7039   */\n      mstore\n        /* \"#utility.yul\":7072:7076   */\n      0x20\n        /* \"#utility.yul\":7067:7070   */\n      dup3\n        /* \"#utility.yul\":7063:7077   */\n      add\n        /* \"#utility.yul\":7048:7077   */\n      swap1\n      pop\n        /* \"#utility.yul\":6899:7083   */\n      swap3\n      swap2\n      pop\n      pop\n      jump\t// out\n        /* \"#utility.yul\":7089:7231   */\n    tag_84:\n        /* \"#utility.yul\":7166:7170   */\n      0x00\n        /* \"#utility.yul\":7189:7192   */\n      dup2\n        /* \"#utility.yul\":7181:7192   */\n      swap1\n      pop\n        /* \"#utility.yul\":7219:7223   */\n      0x20\n        /* \"#utility.yul\":7214:7217   */\n      dup3\n        /* \"#utility.yul\":7210:7224   */\n      add\n        /* \"#utility.yul\":7202:7224   */\n      swap1\n      pop\n        /* \"#utility.yul\":7089:7231   */\n      swap2\n      swap1\n      pop\n      jump\t// out\n        /* \"#utility.yul\":7237:7433   */\n    tag_85:\n        /* \"#utility.yul\":7326:7336   */\n      0x00\n        /* \"#utility.yul\":7361:7427   */\n      tag_185\n        /* \"#utility.yul\":7423:7426   */\n      dup4\n        /* \"#utility.yul\":7415:7421   */\n      dup4\n        /* \"#utility.yul\":7361:7427   */\n      tag_81\n      jump\t// in\n    tag_185:\n        /* \"#utility.yul\":7347:7427   */\n      swap1\n      pop\n        /* \"#utility.yul\":7237:7433   */\n      swap3\n      swap2\n      pop\n      pop\n      jump\t// out\n        /* \"#utility.yul\":7439:7562   */\n    tag_86:\n        /* \"#utility.yul\":7519:7523   */\n      0x00\n        /* \"#utility.yul\":7551:7555   */\n      0x20\n        /* \"#utility.yul\":7546:7549   */\n      dup3\n        /* \"#utility.yul\":7542:7556   */\n      add\n        /* \"#utility.yul\":7534:7556   */\n      swap1\n      pop\n        /* \"#utility.yul\":7439:7562   */\n      swap2\n      swap1\n      pop\n      jump\t// out\n        /* \"#utility.yul\":7596:8567   */\n    tag_87:\n        /* \"#utility.yul\":7725:7728   */\n      0x00\n        /* \"#utility.yul\":7754:7818   */\n      tag_188\n        /* \"#utility.yul\":7812:7817   */\n      dup3\n        /* \"#utility.yul\":7754:7818   */\n      tag_82\n      jump\t// in\n    tag_188:\n        /* \"#utility.yul\":7834:7920   */\n      tag_189\n        /* \"#utility.yul\":7913:7919   */\n      dup2\n        /* \"#utility.yul\":7908:7911   */\n      dup6\n        /* \"#utility.yul\":7834:7920   */\n      tag_83\n      jump\t// in\n    tag_189:\n        /* \"#utility.yul\":7827:7920   */\n      swap4\n      pop\n        /* \"#utility.yul\":7946:7949   */\n      dup4\n        /* \"#utility.yul\":7991:7995   */\n      0x20\n        /* \"#utility.yul\":7983:7989   */\n      dup3\n        /* \"#utility.yul\":7979:7996   */\n      mul\n        /* \"#utility.yul\":7974:7977   */\n      dup6\n        /* \"#utility.yul\":7970:7997   */\n      add\n        /* \"#utility.yul\":8021:8087   */\n      tag_190\n        /* \"#utility.yul\":8081:8086   */\n      dup6\n        /* \"#utility.yul\":8021:8087   */\n      tag_84\n      jump\t// in\n    tag_190:\n        /* \"#utility.yul\":8110:8117   */\n      dup1\n        /* \"#utility.yul\":8141:8142   */\n      0x00\n        /* \"#utility.yul\":8126:8522   */\n    tag_191:\n        /* \"#utility.yul\":8151:8157   */\n      dup6\n        /* \"#utility.yul\":8148:8149   */\n      dup2\n        /* \"#utility.yul\":8145:8158   */\n      lt\n        /* \"#utility.yul\":8126:8522   */\n      iszero\n      tag_193\n      jumpi\n        /* \"#utility.yul\":8222:8231   */\n      dup5\n        /* \"#utility.yul\":8216:8220   */\n      dup5\n        /* \"#utility.yul\":8212:8232   */\n      sub\n        /* \"#utility.yul\":8207:8210   */\n      dup10\n        /* \"#utility.yul\":8200:8233   */\n      mstore\n        /* \"#utility.yul\":8273:8279   */\n      dup2\n        /* \"#utility.yul\":8267:8280   */\n      mload\n        /* \"#utility.yul\":8301:8385   */\n      tag_194\n        /* \"#utility.yul\":8380:8384   */\n      dup6\n        /* \"#utility.yul\":8365:8378   */\n      dup3\n        /* \"#utility.yul\":8301:8385   */\n      tag_85\n      jump\t// in\n    tag_194:\n        /* \"#utility.yul\":8293:8385   */\n      swap5\n      pop\n        /* \"#utility.yul\":8408:8478   */\n      tag_195\n        /* \"#utility.yul\":8471:8477   */\n      dup4\n        /* \"#utility.yul\":8408:8478   */\n      tag_86\n      jump\t// in\n    tag_195:\n        /* \"#utility.yul\":8398:8478   */\n      swap3\n      pop\n        /* \"#utility.yul\":8507:8511   */\n      0x20\n        /* \"#utility.yul\":8502:8505   */\n      dup11\n        /* \"#utility.yul\":8498:8512   */\n      add\n        /* \"#utility.yul\":8491:8512   */\n      swap10\n      pop\n        /* \"#utility.yul\":8186:8522   */\n      pop\n        /* \"#utility.yul\":8173:8174   */\n      0x01\n        /* \"#utility.yul\":8170:8171   */\n      dup2\n        /* \"#utility.yul\":8166:8175   */\n      add\n        /* \"#utility.yul\":8161:8175   */\n      swap1\n      pop\n        /* \"#utility.yul\":8126:8522   */\n      jump(tag_191)\n    tag_193:\n        /* \"#utility.yul\":8130:8144   */\n      pop\n        /* \"#utility.yul\":8538:8542   */\n      dup3\n        /* \"#utility.yul\":8531:8542   */\n      swap8\n      pop\n        /* \"#utility.yul\":8558:8561   */\n      dup8\n        /* \"#utility.yul\":8551:8561   */\n      swap6\n      pop\n        /* \"#utility.yul\":7730:8567   */\n      pop\n      pop\n      pop\n      pop\n      pop\n        /* \"#utility.yul\":7596:8567   */\n      swap3\n      swap2\n      pop\n      pop\n      jump\t// out\n        /* \"#utility.yul\":8621:9513   */\n    tag_88:\n        /* \"#utility.yul\":8728:8731   */\n      0x00\n        /* \"#utility.yul\":8764:8768   */\n      0x60\n        /* \"#utility.yul\":8759:8762   */\n      dup4\n        /* \"#utility.yul\":8755:8769   */\n      add\n        /* \"#utility.yul\":8853:8857   */\n      0x00\n        /* \"#utility.yul\":8846:8851   */\n      dup4\n        /* \"#utility.yul\":8842:8858   */\n      add\n        /* \"#utility.yul\":8836:8859   */\n      mload\n        /* \"#utility.yul\":8872:8935   */\n      tag_197\n        /* \"#utility.yul\":8929:8933   */\n      0x00\n        /* \"#utility.yul\":8924:8927   */\n      dup7\n        /* \"#utility.yul\":8920:8934   */\n      add\n        /* \"#utility.yul\":8906:8918   */\n      dup3\n        /* \"#utility.yul\":8872:8935   */\n      tag_77\n      jump\t// in\n    tag_197:\n        /* \"#utility.yul\":8779:8945   */\n      pop\n        /* \"#utility.yul\":9027:9031   */\n      0x20\n        /* \"#utility.yul\":9020:9025   */\n      dup4\n        /* \"#utility.yul\":9016:9032   */\n      add\n        /* \"#utility.yul\":9010:9033   */\n      mload\n        /* \"#utility.yul\":9080:9083   */\n      dup5\n        /* \"#utility.yul\":9074:9078   */\n      dup3\n        /* \"#utility.yul\":9070:9084   */\n      sub\n        /* \"#utility.yul\":9063:9067   */\n      0x20\n        /* \"#utility.yul\":9058:9061   */\n      dup7\n        /* \"#utility.yul\":9054:9068   */\n      add\n        /* \"#utility.yul\":9047:9085   */\n      mstore\n        /* \"#utility.yul\":9106:9179   */\n      tag_198\n        /* \"#utility.yul\":9174:9178   */\n      dup3\n        /* \"#utility.yul\":9160:9172   */\n      dup3\n        /* \"#utility.yul\":9106:9179   */\n      tag_81\n      jump\t// in\n    tag_198:\n        /* \"#utility.yul\":9098:9179   */\n      swap2\n      pop\n        /* \"#utility.yul\":8955:9190   */\n      pop\n        /* \"#utility.yul\":9273:9277   */\n      0x40\n        /* \"#utility.yul\":9266:9271   */\n      dup4\n        /* \"#utility.yul\":9262:9278   */\n      add\n        /* \"#utility.yul\":9256:9279   */\n      mload\n        /* \"#utility.yul\":9326:9329   */\n      dup5\n        /* \"#utility.yul\":9320:9324   */\n      dup3\n        /* \"#utility.yul\":9316:9330   */\n      sub\n        /* \"#utility.yul\":9309:9313   */\n      0x40\n        /* \"#utility.yul\":9304:9307   */\n      dup7\n        /* \"#utility.yul\":9300:9314   */\n      add\n        /* \"#utility.yul\":9293:9331   */\n      mstore\n        /* \"#utility.yul\":9352:9475   */\n      tag_199\n        /* \"#utility.yul\":9470:9474   */\n      dup3\n        /* \"#utility.yul\":9456:9468   */\n      dup3\n        /* \"#utility.yul\":9352:9475   */\n      tag_87\n      jump\t// in\n    tag_199:\n        /* \"#utility.yul\":9344:9475   */\n      swap2\n      pop\n        /* \"#utility.yul\":9200:9486   */\n      pop\n        /* \"#utility.yul\":9503:9507   */\n      dup1\n        /* \"#utility.yul\":9496:9507   */\n      swap2\n      pop\n        /* \"#utility.yul\":8733:9513   */\n      pop\n        /* \"#utility.yul\":8621:9513   */\n      swap3\n      swap2\n      pop\n      pop\n      jump\t// out\n        /* \"#utility.yul\":9519:9771   */\n    tag_89:\n        /* \"#utility.yul\":9636:9646   */\n      0x00\n        /* \"#utility.yul\":9671:9765   */\n      tag_201\n        /* \"#utility.yul\":9761:9764   */\n      dup4\n        /* \"#utility.yul\":9753:9759   */\n      dup4\n        /* \"#utility.yul\":9671:9765   */\n      tag_88\n      jump\t// in\n    tag_201:\n        /* \"#utility.yul\":9657:9765   */\n      swap1\n      pop\n        /* \"#utility.yul\":9519:9771   */\n      swap3\n      swap2\n      pop\n      pop\n      jump\t// out\n        /* \"#utility.yul\":9777:9914   */\n    tag_90:\n        /* \"#utility.yul\":9871:9875   */\n      0x00\n        /* \"#utility.yul\":9903:9907   */\n      0x20\n        /* \"#utility.yul\":9898:9901   */\n      dup3\n        /* \"#utility.yul\":9894:9908   */\n      add\n        /* \"#utility.yul\":9886:9908   */\n      swap1\n      pop\n        /* \"#utility.yul\":9777:9914   */\n      swap2\n      swap1\n      pop\n      jump\t// out\n        /* \"#utility.yul\":9972:11075   */\n    tag_91:\n        /* \"#utility.yul\":10139:10142   */\n      0x00\n        /* \"#utility.yul\":10168:10246   */\n      tag_204\n        /* \"#utility.yul\":10240:10245   */\n      dup3\n        /* \"#utility.yul\":10168:10246   */\n      tag_73\n      jump\t// in\n    tag_204:\n        /* \"#utility.yul\":10262:10372   */\n      tag_205\n        /* \"#utility.yul\":10365:10371   */\n      dup2\n        /* \"#utility.yul\":10360:10363   */\n      dup6\n        /* \"#utility.yul\":10262:10372   */\n      tag_74\n      jump\t// in\n    tag_205:\n        /* \"#utility.yul\":10255:10372   */\n      swap4\n      pop\n        /* \"#utility.yul\":10398:10401   */\n      dup4\n        /* \"#utility.yul\":10443:10447   */\n      0x20\n        /* \"#utility.yul\":10435:10441   */\n      dup3\n        /* \"#utility.yul\":10431:10448   */\n      mul\n        /* \"#utility.yul\":10426:10429   */\n      dup6\n        /* \"#utility.yul\":10422:10449   */\n      add\n        /* \"#utility.yul\":10473:10553   */\n      tag_206\n        /* \"#utility.yul\":10547:10552   */\n      dup6\n        /* \"#utility.yul\":10473:10553   */\n      tag_75\n      jump\t// in\n    tag_206:\n        /* \"#utility.yul\":10576:10583   */\n      dup1\n        /* \"#utility.yul\":10607:10608   */\n      0x00\n        /* \"#utility.yul\":10592:11030   */\n    tag_207:\n        /* \"#utility.yul\":10617:10623   */\n      dup6\n        /* \"#utility.yul\":10614:10615   */\n      dup2\n        /* \"#utility.yul\":10611:10624   */\n      lt\n        /* \"#utility.yul\":10592:11030   */\n      iszero\n      tag_209\n      jumpi\n        /* \"#utility.yul\":10688:10697   */\n      dup5\n        /* \"#utility.yul\":10682:10686   */\n      dup5\n        /* \"#utility.yul\":10678:10698   */\n      sub\n        /* \"#utility.yul\":10673:10676   */\n      dup10\n        /* \"#utility.yul\":10666:10699   */\n      mstore\n        /* \"#utility.yul\":10739:10745   */\n      dup2\n        /* \"#utility.yul\":10733:10746   */\n      mload\n        /* \"#utility.yul\":10767:10879   */\n      tag_210\n        /* \"#utility.yul\":10874:10878   */\n      dup6\n        /* \"#utility.yul\":10859:10872   */\n      dup3\n        /* \"#utility.yul\":10767:10879   */\n      tag_89\n      jump\t// in\n    tag_210:\n        /* \"#utility.yul\":10759:10879   */\n      swap5\n      pop\n        /* \"#utility.yul\":10902:10986   */\n      tag_211\n        /* \"#utility.yul\":10979:10985   */\n      dup4\n        /* \"#utility.yul\":10902:10986   */\n      tag_90\n      jump\t// in\n    tag_211:\n        /* \"#utility.yul\":10892:10986   */\n      swap3\n      pop\n        /* \"#utility.yul\":11015:11019   */\n      0x20\n        /* \"#utility.yul\":11010:11013   */\n      dup11\n        /* \"#utility.yul\":11006:11020   */\n      add\n        /* \"#utility.yul\":10999:11020   */\n      swap10\n      pop\n        /* \"#utility.yul\":10652:11030   */\n      pop\n        /* \"#utility.yul\":10639:10640   */\n      0x01\n        /* \"#utility.yul\":10636:10637   */\n      dup2\n        /* \"#utility.yul\":10632:10641   */\n      add\n        /* \"#utility.yul\":10627:10641   */\n      swap1\n      pop\n        /* \"#utility.yul\":10592:11030   */\n      jump(tag_207)\n    tag_209:\n        /* \"#utility.yul\":10596:10610   */\n      pop\n        /* \"#utility.yul\":11046:11050   */\n      dup3\n        /* \"#utility.yul\":11039:11050   */\n      swap8\n      pop\n        /* \"#utility.yul\":11066:11069   */\n      dup8\n        /* \"#utility.yul\":11059:11069   */\n      swap6\n      pop\n        /* \"#utility.yul\":10144:11075   */\n      pop\n      pop\n      pop\n      pop\n      pop\n        /* \"#utility.yul\":9972:11075   */\n      swap3\n      swap2\n      pop\n      pop\n      jump\t// out\n        /* \"#utility.yul\":11081:11550   */\n    tag_12:\n        /* \"#utility.yul\":11272:11276   */\n      0x00\n        /* \"#utility.yul\":11310:11312   */\n      0x20\n        /* \"#utility.yul\":11299:11308   */\n      dup3\n        /* \"#utility.yul\":11295:11313   */\n      add\n        /* \"#utility.yul\":11287:11313   */\n      swap1\n      pop\n        /* \"#utility.yul\":11359:11368   */\n      dup2\n        /* \"#utility.yul\":11353:11357   */\n      dup2\n        /* \"#utility.yul\":11349:11369   */\n      sub\n        /* \"#utility.yul\":11345:11346   */\n      0x00\n        /* \"#utility.yul\":11334:11343   */\n      dup4\n        /* \"#utility.yul\":11330:11347   */\n      add\n        /* \"#utility.yul\":11323:11370   */\n      mstore\n        /* \"#utility.yul\":11387:11543   */\n      tag_213\n        /* \"#utility.yul\":11538:11542   */\n      dup2\n        /* \"#utility.yul\":11529:11535   */\n      dup5\n        /* \"#utility.yul\":11387:11543   */\n      tag_91\n      jump\t// in\n    tag_213:\n        /* \"#utility.yul\":11379:11543   */\n      swap1\n      pop\n        /* \"#utility.yul\":11081:11550   */\n      swap3\n      swap2\n      pop\n      pop\n      jump\t// out\n        /* \"#utility.yul\":11556:11736   */\n    tag_92:\n        /* \"#utility.yul\":11604:11681   */\n      0x4e487b7100000000000000000000000000000000000000000000000000000000\n        /* \"#utility.yul\":11601:11602   */\n      0x00\n        /* \"#utility.yul\":11594:11682   */\n      mstore\n        /* \"#utility.yul\":11701:11705   */\n      0x11\n        /* \"#utility.yul\":11698:11699   */\n      0x04\n        /* \"#utility.yul\":11691:11706   */\n      mstore\n        /* \"#utility.yul\":11725:11729   */\n      0x24\n        /* \"#utility.yul\":11722:11723   */\n      0x00\n        /* \"#utility.yul\":11715:11730   */\n      revert\n        /* \"#utility.yul\":11742:11933   */\n    tag_15:\n        /* \"#utility.yul\":11782:11785   */\n      0x00\n        /* \"#utility.yul\":11801:11821   */\n      tag_216\n        /* \"#utility.yul\":11819:11820   */\n      dup3\n        /* \"#utility.yul\":11801:11821   */\n      tag_76\n      jump\t// in\n    tag_216:\n        /* \"#utility.yul\":11796:11821   */\n      swap2\n      pop\n        /* \"#utility.yul\":11835:11855   */\n      tag_217\n        /* \"#utility.yul\":11853:11854   */\n      dup4\n        /* \"#utility.yul\":11835:11855   */\n      tag_76\n      jump\t// in\n    tag_217:\n        /* \"#utility.yul\":11830:11855   */\n      swap3\n      pop\n        /* \"#utility.yul\":11878:11879   */\n      dup3\n        /* \"#utility.yul\":11875:11876   */\n      dup3\n        /* \"#utility.yul\":11871:11880   */\n      add\n        /* \"#utility.yul\":11864:11880   */\n      swap1\n      pop\n        /* \"#utility.yul\":11899:11902   */\n      dup1\n        /* \"#utility.yul\":11896:11897   */\n      dup3\n        /* \"#utility.yul\":11893:11903   */\n      gt\n        /* \"#utility.yul\":11890:11926   */\n      iszero\n      tag_218\n      jumpi\n        /* \"#utility.yul\":11906:11924   */\n      tag_219\n      tag_92\n      jump\t// in\n    tag_219:\n        /* \"#utility.yul\":11890:11926   */\n    tag_218:\n        /* \"#utility.yul\":11742:11933   */\n      swap3\n      swap2\n      pop\n      pop\n      jump\t// out\n        /* \"#utility.yul\":11939:12119   */\n    tag_93:\n        /* \"#utility.yul\":11987:12064   */\n      0x4e487b7100000000000000000000000000000000000000000000000000000000\n        /* \"#utility.yul\":11984:11985   */\n      0x00\n        /* \"#utility.yul\":11977:12065   */\n      mstore\n        /* \"#utility.yul\":12084:12088   */\n      0x22\n        /* \"#utility.yul\":12081:12082   */\n      0x04\n        /* \"#utility.yul\":12074:12089   */\n      mstore\n        /* \"#utility.yul\":12108:12112   */\n      0x24\n        /* \"#utility.yul\":12105:12106   */\n      0x00\n        /* \"#utility.yul\":12098:12113   */\n      revert\n        /* \"#utility.yul\":12125:12445   */\n    tag_26:\n        /* \"#utility.yul\":12169:12175   */\n      0x00\n        /* \"#utility.yul\":12206:12207   */\n      0x02\n        /* \"#utility.yul\":12200:12204   */\n      dup3\n        /* \"#utility.yul\":12196:12208   */\n      div\n        /* \"#utility.yul\":12186:12208   */\n      swap1\n      pop\n        /* \"#utility.yul\":12253:12254   */\n      0x01\n        /* \"#utility.yul\":12247:12251   */\n      dup3\n        /* \"#utility.yul\":12243:12255   */\n      and\n        /* \"#utility.yul\":12274:12292   */\n      dup1\n        /* \"#utility.yul\":12264:12345   */\n      tag_222\n      jumpi\n        /* \"#utility.yul\":12330:12334   */\n      0x7f\n        /* \"#utility.yul\":12322:12328   */\n      dup3\n        /* \"#utility.yul\":12318:12335   */\n      and\n        /* \"#utility.yul\":12308:12335   */\n      swap2\n      pop\n        /* \"#utility.yul\":12264:12345   */\n    tag_222:\n        /* \"#utility.yul\":12392:12394   */\n      0x20\n        /* \"#utility.yul\":12384:12390   */\n      dup3\n        /* \"#utility.yul\":12381:12395   */\n      lt\n        /* \"#utility.yul\":12361:12379   */\n      dup2\n        /* \"#utility.yul\":12358:12396   */\n      sub\n        /* \"#utility.yul\":12355:12439   */\n      tag_223\n      jumpi\n        /* \"#utility.yul\":12411:12429   */\n      tag_224\n      tag_93\n      jump\t// in\n    tag_224:\n        /* \"#utility.yul\":12355:12439   */\n    tag_223:\n        /* \"#utility.yul\":12176:12445   */\n      pop\n        /* \"#utility.yul\":12125:12445   */\n      swap2\n      swap1\n      pop\n      jump\t// out\n        /* \"#utility.yul\":12451:12592   */\n    tag_94:\n        /* \"#utility.yul\":12500:12504   */\n      0x00\n        /* \"#utility.yul\":12523:12526   */\n      dup2\n        /* \"#utility.yul\":12515:12526   */\n      swap1\n      pop\n        /* \"#utility.yul\":12546:12549   */\n      dup2\n        /* \"#utility.yul\":12543:12544   */\n      0x00\n        /* \"#utility.yul\":12536:12550   */\n      mstore\n        /* \"#utility.yul\":12580:12584   */\n      0x20\n        /* \"#utility.yul\":12577:12578   */\n      0x00\n        /* \"#utility.yul\":12567:12585   */\n      keccak256\n        /* \"#utility.yul\":12559:12585   */\n      swap1\n      pop\n        /* \"#utility.yul\":12451:12592   */\n      swap2\n      swap1\n      pop\n      jump\t// out\n        /* \"#utility.yul\":12598:12691   */\n    tag_95:\n        /* \"#utility.yul\":12635:12641   */\n      0x00\n        /* \"#utility.yul\":12682:12684   */\n      0x20\n        /* \"#utility.yul\":12677:12679   */\n      0x1f\n        /* \"#utility.yul\":12670:12675   */\n      dup4\n        /* \"#utility.yul\":12666:12680   */\n      add\n        /* \"#utility.yul\":12662:12685   */\n      div\n        /* \"#utility.yul\":12652:12685   */\n      swap1\n      pop\n        /* \"#utility.yul\":12598:12691   */\n      swap2\n      swap1\n      pop\n      jump\t// out\n        /* \"#utility.yul\":12697:12804   */\n    tag_96:\n        /* \"#utility.yul\":12741:12749   */\n      0x00\n        /* \"#utility.yul\":12791:12796   */\n      dup3\n        /* \"#utility.yul\":12785:12789   */\n      dup3\n        /* \"#utility.yul\":12781:12797   */\n      shl\n        /* \"#utility.yul\":12760:12797   */\n      swap1\n      pop\n        /* \"#utility.yul\":12697:12804   */\n      swap3\n      swap2\n      pop\n      pop\n      jump\t// out\n        /* \"#utility.yul\":12810:13203   */\n    tag_97:\n        /* \"#utility.yul\":12879:12885   */\n      0x00\n        /* \"#utility.yul\":12929:12930   */\n      0x08\n        /* \"#utility.yul\":12917:12927   */\n      dup4\n        /* \"#utility.yul\":12913:12931   */\n      mul\n        /* \"#utility.yul\":12952:13049   */\n      tag_229\n        /* \"#utility.yul\":12982:13048   */\n      0xffffffffffffffffffffffffffffffffffffffffffffffffffffffffffffffff\n        /* \"#utility.yul\":12971:12980   */\n      dup3\n        /* \"#utility.yul\":12952:13049   */\n      tag_96\n      jump\t// in\n    tag_229:\n        /* \"#utility.yul\":13070:13109   */\n      tag_230\n        /* \"#utility.yul\":13100:13108   */\n      dup7\n        /* \"#utility.yul\":13089:13098   */\n      dup4\n        /* \"#utility.yul\":13070:13109   */\n      tag_96\n      jump\t// in\n    tag_230:\n        /* \"#utility.yul\":13058:13109   */\n      swap6\n      pop\n        /* \"#utility.yul\":13142:13146   */\n      dup1\n        /* \"#utility.yul\":13138:13147   */\n      not\n        /* \"#utility.yul\":13131:13136   */\n      dup5\n        /* \"#utility.yul\":13127:13148   */\n      and\n        /* \"#utility.yul\":13118:13148   */\n      swap4\n      pop\n        /* \"#utility.yul\":13191:13195   */\n      dup1\n        /* \"#utility.yul\":13181:13189   */\n      dup7\n        /* \"#utility.yul\":13177:13196   */\n      and\n        /* \"#utility.yul\":13170:13175   */\n      dup5\n        /* \"#utility.yul\":13167:13197   */\n      or\n        /* \"#utility.yul\":13157:13197   */\n      swap3\n      pop\n        /* \"#utility.yul\":12886:13203   */\n      pop\n      pop\n        /* \"#utility.yul\":12810:13203   */\n      swap4\n      swap3\n      pop\n      pop\n      pop\n      jump\t// out\n        /* \"#utility.yul\":13209:13269   */\n    tag_98:\n        /* \"#utility.yul\":13237:13240   */\n      0x00\n        /* \"#utility.yul\":13258:13263   */\n      dup2\n        /* \"#utility.yul\":13251:13263   */\n      swap1\n      pop\n        /* \"#utility.yul\":13209:13269   */\n      swap2\n      swap1\n      pop\n      jump\t// out\n        /* \"#utility.yul\":13275:13417   */\n    tag_99:\n        /* \"#utility.yul\":13325:13334   */\n      0x00\n        /* \"#utility.yul\":13358:13411   */\n      tag_233\n        /* \"#utility.yul\":13376:13410   */\n      tag_234\n        /* \"#utility.yul\":13385:13409   */\n      tag_235\n        /* \"#utility.yul\":13403:13408   */\n      dup5\n        /* \"#utility.yul\":13385:13409   */\n      tag_76\n      jump\t// in\n    tag_235:\n        /* \"#utility.yul\":13376:13410   */\n      tag_98\n      jump\t// in\n    tag_234:\n        /* \"#utility.yul\":13358:13411   */\n      tag_76\n      jump\t// in\n    tag_233:\n        /* \"#utility.yul\":13345:13411   */\n      swap1\n      pop\n        /* \"#utility.yul\":13275:13417   */\n      swap2\n      swap1\n      pop\n      jump\t// out\n        /* \"#utility.yul\":13423:13498   */\n    tag_100:\n        /* \"#utility.yul\":13466:13469   */\n      0x00\n        /* \"#utility.yul\":13487:13492   */\n      dup2\n        /* \"#utility.yul\":13480:13492   */\n      swap1\n      pop\n        /* \"#utility.yul\":13423:13498   */\n      swap2\n      swap1\n      pop\n      jump\t// out\n        /* \"#utility.yul\":13504:13773   */\n    tag_101:\n        /* \"#utility.yul\":13614:13653   */\n      tag_238\n        /* \"#utility.yul\":13645:13652   */\n      dup4\n        /* \"#utility.yul\":13614:13653   */\n      tag_99\n      jump\t// in\n    tag_238:\n        /* \"#utility.yul\":13675:13766   */\n      tag_239\n        /* \"#utility.yul\":13724:13765   */\n      tag_240\n        /* \"#utility.yul\":13748:13764   */\n      dup3\n        /* \"#utility.yul\":13724:13765   */\n      tag_100\n      jump\t// in\n    tag_240:\n        /* \"#utility.yul\":13716:13722   */\n      dup5\n        /* \"#utility.yul\":13709:13713   */\n      dup5\n        /* \"#utility.yul\":13703:13714   */\n      sload\n        /* \"#utility.yul\":13675:13766   */\n      tag_97\n      jump\t// in\n    tag_239:\n        /* \"#utility.yul\":13669:13673   */\n      dup3\n        /* \"#utility.yul\":13662:13767   */\n      sstore\n        /* \"#utility.yul\":13580:13773   */\n      pop\n        /* \"#utility.yul\":13504:13773   */\n      pop\n      pop\n      pop\n      jump\t// out\n        /* \"#utility.yul\":13779:13852   */\n    tag_102:\n        /* \"#utility.yul\":13824:13827   */\n      0x00\n        /* \"#utility.yul\":13779:13852   */\n      swap1\n      jump\t// out\n        /* \"#utility.yul\":13858:14047   */\n    tag_103:\n        /* \"#utility.yul\":13935:13967   */\n      tag_243\n      tag_102\n      jump\t// in\n    tag_243:\n        /* \"#utility.yul\":13976:14041   */\n      tag_244\n        /* \"#utility.yul\":14034:14040   */\n      dup2\n        /* \"#utility.yul\":14026:14032   */\n      dup5\n        /* \"#utility.yul\":14020:14024   */\n      dup5\n        /* \"#utility.yul\":13976:14041   */\n      tag_101\n      jump\t// in\n    tag_244:\n        /* \"#utility.yul\":13911:14047   */\n      pop\n        /* \"#utility.yul\":13858:14047   */\n      pop\n      pop\n      jump\t// out\n        /* \"#utility.yul\":14053:14239   */\n    tag_104:\n        /* \"#utility.yul\":14113:14233   */\n    tag_246:\n        /* \"#utility.yul\":14130:14133   */\n      dup2\n        /* \"#utility.yul\":14123:14128   */\n      dup2\n        /* \"#utility.yul\":14120:14134   */\n      lt\n        /* \"#utility.yul\":14113:14233   */\n      iszero\n      tag_248\n      jumpi\n        /* \"#utility.yul\":14184:14223   */\n      tag_249\n        /* \"#utility.yul\":14221:14222   */\n      0x00\n        /* \"#utility.yul\":14214:14219   */\n      dup3\n        /* \"#utility.yul\":14184:14223   */\n      tag_103\n      jump\t// in\n    tag_249:\n        /* \"#utility.yul\":14157:14158   */\n      0x01\n        /* \"#utility.yul\":14150:14155   */\n      dup2\n        /* \"#utility.yul\":14146:14159   */\n      add\n        /* \"#utility.yul\":14137:14159   */\n      swap1\n      pop\n        /* \"#utility.yul\":14113:14233   */\n      jump(tag_246)\n    tag_248:\n        /* \"#utility.yul\":14053:14239   */\n      pop\n      pop\n      jump\t// out\n        /* \"#utility.yul\":14245:14788   */\n    tag_105:\n        /* \"#utility.yul\":14346:14348   */\n      0x1f\n        /* \"#utility.yul\":14341:14344   */\n      dup3\n        /* \"#utility.yul\":14338:14349   */\n      gt\n        /* \"#utility.yul\":14335:14781   */\n      iszero\n      tag_251\n      jumpi\n        /* \"#utility.yul\":14380:14418   */\n      tag_252\n        /* \"#utility.yul\":14412:14417   */\n      dup2\n        /* \"#utility.yul\":14380:14418   */\n      tag_94\n      jump\t// in\n    tag_252:\n        /* \"#utility.yul\":14464:14493   */\n      tag_253\n        /* \"#utility.yul\":14482:14492   */\n      dup5\n        /* \"#utility.yul\":14464:14493   */\n      tag_95\n      jump\t// in\n    tag_253:\n        /* \"#utility.yul\":14454:14462   */\n      dup2\n        /* \"#utility.yul\":14450:14494   */\n      add\n        /* \"#utility.yul\":14647:14649   */\n      0x20\n        /* \"#utility.yul\":14635:14645   */\n      dup6\n        /* \"#utility.yul\":14632:14650   */\n      lt\n        /* \"#utility.yul\":14629:14678   */\n      iszero\n      tag_254\n      jumpi\n        /* \"#utility.yul\":14668:14676   */\n      dup2\n        /* \"#utility.yul\":14653:14676   */\n      swap1\n      pop\n        /* \"#utility.yul\":14629:14678   */\n    tag_254:\n        /* \"#utility.yul\":14691:14771   */\n      tag_255\n        /* \"#utility.yul\":14747:14769   */\n      tag_256\n        /* \"#utility.yul\":14765:14768   */\n      dup6\n        /* \"#utility.yul\":14747:14769   */\n      tag_95\n      jump\t// in\n    tag_256:\n        /* \"#utility.yul\":14737:14745   */\n      dup4\n        /* \"#utility.yul\":14733:14770   */\n      add\n        /* \"#utility.yul\":14720:14731   */\n      dup3\n        /* \"#utility.yul\":14691:14771   */\n      tag_104\n      jump\t// in\n    tag_255:\n        /* \"#utility.yul\":14350:14781   */\n      pop\n      pop\n        /* \"#utility.yul\":14335:14781   */\n    tag_251:\n        /* \"#utility.yul\":14245:14788   */\n      pop\n      pop\n      pop\n      jump\t// out\n        /* \"#utility.yul\":14794:14911   */\n    tag_106:\n        /* \"#utility.yul\":14848:14856   */\n      0x00\n        /* \"#utility.yul\":14898:14903   */\n      dup3\n        /* \"#utility.yul\":14892:14896   */\n      dup3\n        /* \"#utility.yul\":14888:14904   */\n      shr\n        /* \"#utility.yul\":14867:14904   */\n      swap1\n      pop\n        /* \"#utility.yul\":14794:14911   */\n      swap3\n      swap2\n      pop\n      pop\n      jump\t// out\n        /* \"#utility.yul\":14917:15086   */\n    tag_107:\n        /* \"#utility.yul\":14961:14967   */\n      0x00\n        /* \"#utility.yul\":14994:15045   */\n      tag_259\n        /* \"#utility.yul\":15042:15043   */\n      0x00\n        /* \"#utility.yul\":15038:15044   */\n      not\n        /* \"#utility.yul\":15030:15035   */\n      dup5\n        /* \"#utility.yul\":15027:15028   */\n      0x08\n        /* \"#utility.yul\":15023:15036   */\n      mul\n        /* \"#utility.yul\":14994:15045   */\n      tag_106\n      jump\t// in\n    tag_259:\n        /* \"#utility.yul\":14990:15046   */\n      not\n        /* \"#utility.yul\":15075:15079   */\n      dup1\n        /* \"#utility.yul\":15069:15073   */\n      dup4\n        /* \"#utility.yul\":15065:15080   */\n      and\n        /* \"#utility.yul\":15055:15080   */\n      swap2\n      pop\n        /* \"#utility.yul\":14968:15086   */\n      pop\n        /* \"#utility.yul\":14917:15086   */\n      swap3\n      swap2\n      pop\n      pop\n      jump\t// out\n        /* \"#utility.yul\":15091:15386   */\n    tag_108:\n        /* \"#utility.yul\":15167:15171   */\n      0x00\n        /* \"#utility.yul\":15313:15342   */\n      tag_261\n        /* \"#utility.yul\":15338:15341   */\n      dup4\n        /* \"#utility.yul\":15332:15336   */\n      dup4\n        /* \"#utility.yul\":15313:15342   */\n      tag_107\n      jump\t// in\n    tag_261:\n        /* \"#utility.yul\":15305:15342   */\n      swap2\n      pop\n        /* \"#utility.yul\":15375:15378   */\n      dup3\n        /* \"#utility.yul\":15372:15373   */\n      0x02\n        /* \"#utility.yul\":15368:15379   */\n      mul\n        /* \"#utility.yul\":15362:15366   */\n      dup3\n        /* \"#utility.yul\":15359:15380   */\n      or\n        /* \"#utility.yul\":15351:15380   */\n      swap1\n      pop\n        /* \"#utility.yul\":15091:15386   */\n      swap3\n      swap2\n      pop\n      pop\n      jump\t// out\n        /* \"#utility.yul\":15391:16786   */\n    tag_18:\n        /* \"#utility.yul\":15508:15545   */\n      tag_263\n        /* \"#utility.yul\":15541:15544   */\n      dup3\n        /* \"#utility.yul\":15508:15545   */\n      tag_78\n      jump\t// in\n    tag_263:\n        /* \"#utility.yul\":15610:15628   */\n      0xffffffffffffffff\n        /* \"#utility.yul\":15602:15608   */\n      dup2\n        /* \"#utility.yul\":15599:15629   */\n      gt\n        /* \"#utility.yul\":15596:15652   */\n      iszero\n      tag_264\n      jumpi\n        /* \"#utility.yul\":15632:15650   */\n      tag_265\n      tag_62\n      jump\t// in\n    tag_265:\n        /* \"#utility.yul\":15596:15652   */\n    tag_264:\n        /* \"#utility.yul\":15676:15714   */\n      tag_266\n        /* \"#utility.yul\":15708:15712   */\n      dup3\n        /* \"#utility.yul\":15702:15713   */\n      sload\n        /* \"#utility.yul\":15676:15714   */\n      tag_26\n      jump\t// in\n    tag_266:\n        /* \"#utility.yul\":15761:15828   */\n      tag_267\n        /* \"#utility.yul\":15821:15827   */\n      dup3\n        /* \"#utility.yul\":15813:15819   */\n      dup3\n        /* \"#utility.yul\":15807:15811   */\n      dup6\n        /* \"#utility.yul\":15761:15828   */\n      tag_105\n      jump\t// in\n    tag_267:\n        /* \"#utility.yul\":15855:15856   */\n      0x00\n        /* \"#utility.yul\":15879:15883   */\n      0x20\n        /* \"#utility.yul\":15866:15883   */\n      swap1\n      pop\n        /* \"#utility.yul\":15911:15913   */\n      0x1f\n        /* \"#utility.yul\":15903:15909   */\n      dup4\n        /* \"#utility.yul\":15900:15914   */\n      gt\n        /* \"#utility.yul\":15928:15929   */\n      0x01\n        /* \"#utility.yul\":15923:16541   */\n      dup2\n      eq\n      tag_269\n      jumpi\n        /* \"#utility.yul\":16585:16586   */\n      0x00\n        /* \"#utility.yul\":16602:16608   */\n      dup5\n        /* \"#utility.yul\":16599:16676   */\n      iszero\n      tag_270\n      jumpi\n        /* \"#utility.yul\":16651:16660   */\n      dup3\n        /* \"#utility.yul\":16646:16649   */\n      dup8\n        /* \"#utility.yul\":16642:16661   */\n      add\n        /* \"#utility.yul\":16636:16662   */\n      mload\n        /* \"#utility.yul\":16627:16662   */\n      swap1\n      pop\n        /* \"#utility.yul\":16599:16676   */\n    tag_270:\n        /* \"#utility.yul\":16702:16769   */\n      tag_271\n        /* \"#utility.yul\":16762:16768   */\n      dup6\n        /* \"#utility.yul\":16755:16760   */\n      dup3\n        /* \"#utility.yul\":16702:16769   */\n      tag_108\n      jump\t// in\n    tag_271:\n        /* \"#utility.yul\":16696:16700   */\n      dup7\n        /* \"#utility.yul\":16689:16770   */\n      sstore\n        /* \"#utility.yul\":16558:16780   */\n      pop\n        /* \"#utility.yul\":15893:16780   */\n      jump(tag_268)\n        /* \"#utility.yul\":15923:16541   */\n    tag_269:\n        /* \"#utility.yul\":15975:15979   */\n      0x1f\n        /* \"#utility.yul\":15971:15980   */\n      not\n        /* \"#utility.yul\":15963:15969   */\n      dup5\n        /* \"#utility.yul\":15959:15981   */\n      and\n        /* \"#utility.yul\":16009:16046   */\n      tag_272\n        /* \"#utility.yul\":16041:16045   */\n      dup7\n        /* \"#utility.yul\":16009:16046   */\n      tag_94\n      jump\t// in\n    tag_272:\n        /* \"#utility.yul\":16068:16069   */\n      0x00\n        /* \"#utility.yul\":16082:16290   */\n    tag_273:\n        /* \"#utility.yul\":16096:16103   */\n      dup3\n        /* \"#utility.yul\":16093:16094   */\n      dup2\n        /* \"#utility.yul\":16090:16104   */\n      lt\n        /* \"#utility.yul\":16082:16290   */\n      iszero\n      tag_275\n      jumpi\n        /* \"#utility.yul\":16175:16184   */\n      dup5\n        /* \"#utility.yul\":16170:16173   */\n      dup10\n        /* \"#utility.yul\":16166:16185   */\n      add\n        /* \"#utility.yul\":16160:16186   */\n      mload\n        /* \"#utility.yul\":16152:16158   */\n      dup3\n        /* \"#utility.yul\":16145:16187   */\n      sstore\n        /* \"#utility.yul\":16226:16227   */\n      0x01\n        /* \"#utility.yul\":16218:16224   */\n      dup3\n        /* \"#utility.yul\":16214:16228   */\n      add\n        /* \"#utility.yul\":16204:16228   */\n      swap2\n      pop\n        /* \"#utility.yul\":16273:16275   */\n      0x20\n        /* \"#utility.yul\":16262:16271   */\n      dup6\n        /* \"#utility.yul\":16258:16276   */\n      add\n        /* \"#utility.yul\":16245:16276   */\n      swap5\n      pop\n        /* \"#utility.yul\":16119:16123   */\n      0x20\n        /* \"#utility.yul\":16116:16117   */\n      dup2\n        /* \"#utility.yul\":16112:16124   */\n      add\n        /* \"#utility.yul\":16107:16124   */\n      swap1\n      pop\n        /* \"#utility.yul\":16082:16290   */\n      jump(tag_273)\n    tag_275:\n        /* \"#utility.yul\":16318:16324   */\n      dup7\n        /* \"#utility.yul\":16309:16316   */\n      dup4\n        /* \"#utility.yul\":16306:16325   */\n      lt\n        /* \"#utility.yul\":16303:16482   */\n      iszero\n      tag_276\n      jumpi\n        /* \"#utility.yul\":16376:16385   */\n      dup5\n        /* \"#utility.yul\":16371:16374   */\n      dup10\n        /* \"#utility.yul\":16367:16386   */\n      add\n        /* \"#utility.yul\":16361:16387   */\n      mload\n        /* \"#utility.yul\":16419:16467   */\n      tag_277\n        /* \"#utility.yul\":16461:16465   */\n      0x1f\n        /* \"#utility.yul\":16453:16459   */\n      dup10\n        /* \"#utility.yul\":16449:16466   */\n      and\n        /* \"#utility.yul\":16438:16447   */\n      dup3\n        /* \"#utility.yul\":16419:16467   */\n      tag_107\n      jump\t// in\n    tag_277:\n        /* \"#utility.yul\":16411:16417   */\n      dup4\n        /* \"#utility.yul\":16404:16468   */\n      sstore\n        /* \"#utility.yul\":16326:16482   */\n      pop\n        /* \"#utility.yul\":16303:16482   */\n    tag_276:\n        /* \"#utility.yul\":16528:16529   */\n      0x01\n        /* \"#utility.yul\":16524:16525   */\n      0x02\n        /* \"#utility.yul\":16516:16522   */\n      dup9\n        /* \"#utility.yul\":16512:16526   */\n      mul\n        /* \"#utility.yul\":16508:16530   */\n      add\n        /* \"#utility.yul\":16502:16506   */\n      dup9\n        /* \"#utility.yul\":16495:16531   */\n      sstore\n        /* \"#utility.yul\":15930:16541   */\n      pop\n      pop\n      pop\n        /* \"#utility.yul\":15893:16780   */\n    tag_268:\n      pop\n        /* \"#utility.yul\":15483:16786   */\n      pop\n      pop\n      pop\n        /* \"#utility.yul\":15391:16786   */\n      pop\n      pop\n      jump\t// out\n\n    auxdata: 0xa26469706673582212200d4284cab60cb3a361613f0f3b16d49fa034c878d3a9f7777ab6bf8cc0d7212764736f6c634300081a0033\n}\n",
				"bytecode": {
					"linkReferences": {},
					"object": "6080604052348015600e575f80fd5b50610c058061001c5f395ff3fe608060405234801561000f575f80fd5b5060043610610034575f3560e01c806370d5e2fb14610038578063e9e3092714610054575b5f80fd5b610052600480360381019061004d91906105ce565b610072565b005b61005c610105565b6040516100699190610886565b60405180910390f35b5f604051806060016040528060015f8054905061008f91906108d3565b815260200184815260200183815250908060018154018082558091505060019003905f5260205f2090600302015f909190919091505f820151815f015560208201518160010190816100e19190610b00565b5060408201518160020190805190602001906100fe9291906102cd565b5050505050565b60605f805480602002602001604051908101604052809291908181526020015f905b828210156102c4578382905f5260205f2090600302016040518060600160405290815f820154815260200160018201805461016190610933565b80601f016020809104026020016040519081016040528092919081815260200182805461018d90610933565b80156101d85780601f106101af576101008083540402835291602001916101d8565b820191905f5260205f20905b8154815290600101906020018083116101bb57829003601f168201915b5050505050815260200160028201805480602002602001604051908101604052809291908181526020015f905b828210156102ad578382905f5260205f2001805461022290610933565b80601f016020809104026020016040519081016040528092919081815260200182805461024e90610933565b80156102995780601f1061027057610100808354040283529160200191610299565b820191905f5260205f20905b81548152906001019060200180831161027c57829003601f168201915b505050505081526020019060010190610205565b505050508152505081526020019060010190610127565b50505050905090565b828054828255905f5260205f20908101928215610313579160200282015b828111156103125782518290816103029190610b00565b50916020019190600101906102eb565b5b5090506103209190610324565b5090565b5b80821115610343575f818161033a9190610347565b50600101610325565b5090565b50805461035390610933565b5f825580601f106103645750610381565b601f0160209004905f5260205f20908101906103809190610384565b5b50565b5b8082111561039b575f815f905550600101610385565b5090565b5f604051905090565b5f80fd5b5f80fd5b5f80fd5b5f80fd5b5f601f19601f8301169050919050565b7f4e487b71000000000000000000000000000000000000000000000000000000005f52604160045260245ffd5b6103fe826103b8565b810181811067ffffffffffffffff8211171561041d5761041c6103c8565b5b80604052505050565b5f61042f61039f565b905061043b82826103f5565b919050565b5f67ffffffffffffffff82111561045a576104596103c8565b5b610463826103b8565b9050602081019050919050565b828183375f83830152505050565b5f61049061048b84610440565b610426565b9050828152602081018484840111156104ac576104ab6103b4565b5b6104b7848285610470565b509392505050565b5f82601f8301126104d3576104d26103b0565b5b81356104e384826020860161047e565b91505092915050565b5f67ffffffffffffffff821115610506576105056103c8565b5b602082029050602081019050919050565b5f80fd5b5f61052d610528846104ec565b610426565b905080838252602082019050602084028301858111156105505761054f610517565b5b835b8181101561059757803567ffffffffffffffff811115610575576105746103b0565b5b80860161058289826104bf565b85526020850194505050602081019050610552565b5050509392505050565b5f82601f8301126105b5576105b46103b0565b5b81356105c584826020860161051b565b91505092915050565b5f80604083850312156105e4576105e36103a8565b5b5f83013567ffffffffffffffff811115610601576106006103ac565b5b61060d858286016104bf565b925050602083013567ffffffffffffffff81111561062e5761062d6103ac565b5b61063a858286016105a1565b9150509250929050565b5f81519050919050565b5f82825260208201905092915050565b5f819050602082019050919050565b5f819050919050565b61067f8161066d565b82525050565b5f81519050919050565b5f82825260208201905092915050565b8281835e5f83830152505050565b5f6106b782610685565b6106c1818561068f565b93506106d181856020860161069f565b6106da816103b8565b840191505092915050565b5f81519050919050565b5f82825260208201905092915050565b5f819050602082019050919050565b5f61071983836106ad565b905092915050565b5f602082019050919050565b5f610737826106e5565b61074181856106ef565b935083602082028501610753856106ff565b805f5b8581101561078e578484038952815161076f858261070e565b945061077a83610721565b925060208a01995050600181019050610756565b50829750879550505050505092915050565b5f606083015f8301516107b55f860182610676565b50602083015184820360208601526107cd82826106ad565b915050604083015184820360408601526107e7828261072d565b9150508091505092915050565b5f6107ff83836107a0565b905092915050565b5f602082019050919050565b5f61081d82610644565b610827818561064e565b9350836020820285016108398561065e565b805f5b85811015610874578484038952815161085585826107f4565b945061086083610807565b925060208a0199505060018101905061083c565b50829750879550505050505092915050565b5f6020820190508181035f83015261089e8184610813565b905092915050565b7f4e487b71000000000000000000000000000000000000000000000000000000005f52601160045260245ffd5b5f6108dd8261066d565b91506108e88361066d565b9250828201905080821115610900576108ff6108a6565b5b92915050565b7f4e487b71000000000000000000000000000000000000000000000000000000005f52602260045260245ffd5b5f600282049050600182168061094a57607f821691505b60208210810361095d5761095c610906565b5b50919050565b5f819050815f5260205f209050919050565b5f6020601f8301049050919050565b5f82821b905092915050565b5f600883026109bf7fffffffffffffffffffffffffffffffffffffffffffffffffffffffffffffffff82610984565b6109c98683610984565b95508019841693508086168417925050509392505050565b5f819050919050565b5f610a046109ff6109fa8461066d565b6109e1565b61066d565b9050919050565b5f819050919050565b610a1d836109ea565b610a31610a2982610a0b565b848454610990565b825550505050565b5f90565b610a45610a39565b610a50818484610a14565b505050565b5b81811015610a7357610a685f82610a3d565b600181019050610a56565b5050565b601f821115610ab857610a8981610963565b610a9284610975565b81016020851015610aa1578190505b610ab5610aad85610975565b830182610a55565b50505b505050565b5f82821c905092915050565b5f610ad85f1984600802610abd565b1980831691505092915050565b5f610af08383610ac9565b9150826002028217905092915050565b610b0982610685565b67ffffffffffffffff811115610b2257610b216103c8565b5b610b2c8254610933565b610b37828285610a77565b5f60209050601f831160018114610b68575f8415610b56578287015190505b610b608582610ae5565b865550610bc7565b601f198416610b7686610963565b5f5b82811015610b9d57848901518255600182019150602085019450602081019050610b78565b86831015610bba5784890151610bb6601f891682610ac9565b8355505b6001600288020188555050505b50505050505056fea26469706673582212200d4284cab60cb3a361613f0f3b16d49fa034c878d3a9f7777ab6bf8cc0d7212764736f6c634300081a0033",
					"opcodes": "PUSH1 0x80 PUSH1 0x40 MSTORE CALLVALUE DUP1 ISZERO PUSH1 0xE JUMPI PUSH0 DUP1 REVERT JUMPDEST POP PUSH2 0xC05 DUP1 PUSH2 0x1C PUSH0 CODECOPY PUSH0 RETURN INVALID PUSH1 0x80 PUSH1 0x40 MSTORE CALLVALUE DUP1 ISZERO PUSH2 0xF JUMPI PUSH0 DUP1 REVERT JUMPDEST POP PUSH1 0x4 CALLDATASIZE LT PUSH2 0x34 JUMPI PUSH0 CALLDATALOAD PUSH1 0xE0 SHR DUP1 PUSH4 0x70D5E2FB EQ PUSH2 0x38 JUMPI DUP1 PUSH4 0xE9E30927 EQ PUSH2 0x54 JUMPI JUMPDEST PUSH0 DUP1 REVERT JUMPDEST PUSH2 0x52 PUSH1 0x4 DUP1 CALLDATASIZE SUB DUP2 ADD SWAP1 PUSH2 0x4D SWAP2 SWAP1 PUSH2 0x5CE JUMP JUMPDEST PUSH2 0x72 JUMP JUMPDEST STOP JUMPDEST PUSH2 0x5C PUSH2 0x105 JUMP JUMPDEST PUSH1 0x40 MLOAD PUSH2 0x69 SWAP2 SWAP1 PUSH2 0x886 JUMP JUMPDEST PUSH1 0x40 MLOAD DUP1 SWAP2 SUB SWAP1 RETURN JUMPDEST PUSH0 PUSH1 0x40 MLOAD DUP1 PUSH1 0x60 ADD PUSH1 0x40 MSTORE DUP1 PUSH1 0x1 PUSH0 DUP1 SLOAD SWAP1 POP PUSH2 0x8F SWAP2 SWAP1 PUSH2 0x8D3 JUMP JUMPDEST DUP2 MSTORE PUSH1 0x20 ADD DUP5 DUP2 MSTORE PUSH1 0x20 ADD DUP4 DUP2 MSTORE POP SWAP1 DUP1 PUSH1 0x1 DUP2 SLOAD ADD DUP1 DUP3 SSTORE DUP1 SWAP2 POP POP PUSH1 0x1 SWAP1 SUB SWAP1 PUSH0 MSTORE PUSH1 0x20 PUSH0 KECCAK256 SWAP1 PUSH1 0x3 MUL ADD PUSH0 SWAP1 SWAP2 SWAP1 SWAP2 SWAP1 SWAP2 POP PUSH0 DUP3 ADD MLOAD DUP2 PUSH0 ADD SSTORE PUSH1 0x20 DUP3 ADD MLOAD DUP2 PUSH1 0x1 ADD SWAP1 DUP2 PUSH2 0xE1 SWAP2 SWAP1 PUSH2 0xB00 JUMP JUMPDEST POP PUSH1 0x40 DUP3 ADD MLOAD DUP2 PUSH1 0x2 ADD SWAP1 DUP1 MLOAD SWAP1 PUSH1 0x20 ADD SWAP1 PUSH2 0xFE SWAP3 SWAP2 SWAP1 PUSH2 0x2CD JUMP JUMPDEST POP POP POP POP POP JUMP JUMPDEST PUSH1 0x60 PUSH0 DUP1 SLOAD DUP1 PUSH1 0x20 MUL PUSH1 0x20 ADD PUSH1 0x40 MLOAD SWAP1 DUP2 ADD PUSH1 0x40 MSTORE DUP1 SWAP3 SWAP2 SWAP1 DUP2 DUP2 MSTORE PUSH1 0x20 ADD PUSH0 SWAP1 JUMPDEST DUP3 DUP3 LT ISZERO PUSH2 0x2C4 JUMPI DUP4 DUP3 SWAP1 PUSH0 MSTORE PUSH1 0x20 PUSH0 KECCAK256 SWAP1 PUSH1 0x3 MUL ADD PUSH1 0x40 MLOAD DUP1 PUSH1 0x60 ADD PUSH1 0x40 MSTORE SWAP1 DUP2 PUSH0 DUP3 ADD SLOAD DUP2 MSTORE PUSH1 0x20 ADD PUSH1 0x1 DUP3 ADD DUP1 SLOAD PUSH2 0x161 SWAP1 PUSH2 0x933 JUMP JUMPDEST DUP1 PUSH1 0x1F ADD PUSH1 0x20 DUP1 SWAP2 DIV MUL PUSH1 0x20 ADD PUSH1 0x40 MLOAD SWAP1 DUP2 ADD PUSH1 0x40 MSTORE DUP1 SWAP3 SWAP2 SWAP1 DUP2 DUP2 MSTORE PUSH1 0x20 ADD DUP3 DUP1 SLOAD PUSH2 0x18D SWAP1 PUSH2 0x933 JUMP JUMPDEST DUP1 ISZERO PUSH2 0x1D8 JUMPI DUP1 PUSH1 0x1F LT PUSH2 0x1AF JUMPI PUSH2 0x100 DUP1 DUP4 SLOAD DIV MUL DUP4 MSTORE SWAP2 PUSH1 0x20 ADD SWAP2 PUSH2 0x1D8 JUMP JUMPDEST DUP3 ADD SWAP2 SWAP1 PUSH0 MSTORE PUSH1 0x20 PUSH0 KECCAK256 SWAP1 JUMPDEST DUP2 SLOAD DUP2 MSTORE SWAP1 PUSH1 0x1 ADD SWAP1 PUSH1 0x20 ADD DUP1 DUP4 GT PUSH2 0x1BB JUMPI DUP3 SWAP1 SUB PUSH1 0x1F AND DUP3 ADD SWAP2 JUMPDEST POP POP POP POP POP DUP2 MSTORE PUSH1 0x20 ADD PUSH1 0x2 DUP3 ADD DUP1 SLOAD DUP1 PUSH1 0x20 MUL PUSH1 0x20 ADD PUSH1 0x40 MLOAD SWAP1 DUP2 ADD PUSH1 0x40 MSTORE DUP1 SWAP3 SWAP2 SWAP1 DUP2 DUP2 MSTORE PUSH1 0x20 ADD PUSH0 SWAP1 JUMPDEST DUP3 DUP3 LT ISZERO PUSH2 0x2AD JUMPI DUP4 DUP3 SWAP1 PUSH0 MSTORE PUSH1 0x20 PUSH0 KECCAK256 ADD DUP1 SLOAD PUSH2 0x222 SWAP1 PUSH2 0x933 JUMP JUMPDEST DUP1 PUSH1 0x1F ADD PUSH1 0x20 DUP1 SWAP2 DIV MUL PUSH1 0x20 ADD PUSH1 0x40 MLOAD SWAP1 DUP2 ADD PUSH1 0x40 MSTORE DUP1 SWAP3 SWAP2 SWAP1 DUP2 DUP2 MSTORE PUSH1 0x20 ADD DUP3 DUP1 SLOAD PUSH2 0x24E SWAP1 PUSH2 0x933 JUMP JUMPDEST DUP1 ISZERO PUSH2 0x299 JUMPI DUP1 PUSH1 0x1F LT PUSH2 0x270 JUMPI PUSH2 0x100 DUP1 DUP4 SLOAD DIV MUL DUP4 MSTORE SWAP2 PUSH1 0x20 ADD SWAP2 PUSH2 0x299 JUMP JUMPDEST DUP3 ADD SWAP2 SWAP1 PUSH0 MSTORE PUSH1 0x20 PUSH0 KECCAK256 SWAP1 JUMPDEST DUP2 SLOAD DUP2 MSTORE SWAP1 PUSH1 0x1 ADD SWAP1 PUSH1 0x20 ADD DUP1 DUP4 GT PUSH2 0x27C JUMPI DUP3 SWAP1 SUB PUSH1 0x1F AND DUP3 ADD SWAP2 JUMPDEST POP POP POP POP POP DUP2 MSTORE PUSH1 0x20 ADD SWAP1 PUSH1 0x1 ADD SWAP1 PUSH2 0x205 JUMP JUMPDEST POP POP POP POP DUP2 MSTORE POP POP DUP2 MSTORE PUSH1 0x20 ADD SWAP1 PUSH1 0x1 ADD SWAP1 PUSH2 0x127 JUMP JUMPDEST POP POP POP POP SWAP1 POP SWAP1 JUMP JUMPDEST DUP3 DUP1 SLOAD DUP3 DUP3 SSTORE SWAP1 PUSH0 MSTORE PUSH1 0x20 PUSH0 KECCAK256 SWAP1 DUP2 ADD SWAP3 DUP3 ISZERO PUSH2 0x313 JUMPI SWAP2 PUSH1 0x20 MUL DUP3 ADD JUMPDEST DUP3 DUP2 GT ISZERO PUSH2 0x312 JUMPI DUP3 MLOAD DUP3 SWAP1 DUP2 PUSH2 0x302 SWAP2 SWAP1 PUSH2 0xB00 JUMP JUMPDEST POP SWAP2 PUSH1 0x20 ADD SWAP2 SWAP1 PUSH1 0x1 ADD SWAP1 PUSH2 0x2EB JUMP JUMPDEST JUMPDEST POP SWAP1 POP PUSH2 0x320 SWAP2 SWAP1 PUSH2 0x324 JUMP JUMPDEST POP SWAP1 JUMP JUMPDEST JUMPDEST DUP1 DUP3 GT ISZERO PUSH2 0x343 JUMPI PUSH0 DUP2 DUP2 PUSH2 0x33A SWAP2 SWAP1 PUSH2 0x347 JUMP JUMPDEST POP PUSH1 0x1 ADD PUSH2 0x325 JUMP JUMPDEST POP SWAP1 JUMP JUMPDEST POP DUP1 SLOAD PUSH2 0x353 SWAP1 PUSH2 0x933 JUMP JUMPDEST PUSH0 DUP3 SSTORE DUP1 PUSH1 0x1F LT PUSH2 0x364 JUMPI POP PUSH2 0x381 JUMP JUMPDEST PUSH1 0x1F ADD PUSH1 0x20 SWAP1 DIV SWAP1 PUSH0 MSTORE PUSH1 0x20 PUSH0 KECCAK256 SWAP1 DUP2 ADD SWAP1 PUSH2 0x380 SWAP2 SWAP1 PUSH2 0x384 JUMP JUMPDEST JUMPDEST POP JUMP JUMPDEST JUMPDEST DUP1 DUP3 GT ISZERO PUSH2 0x39B JUMPI PUSH0 DUP2 PUSH0 SWAP1 SSTORE POP PUSH1 0x1 ADD PUSH2 0x385 JUMP JUMPDEST POP SWAP1 JUMP JUMPDEST PUSH0 PUSH1 0x40 MLOAD SWAP1 POP SWAP1 JUMP JUMPDEST PUSH0 DUP1 REVERT JUMPDEST PUSH0 DUP1 REVERT JUMPDEST PUSH0 DUP1 REVERT JUMPDEST PUSH0 DUP1 REVERT JUMPDEST PUSH0 PUSH1 0x1F NOT PUSH1 0x1F DUP4 ADD AND SWAP1 POP SWAP2 SWAP1 POP JUMP JUMPDEST PUSH32 0x4E487B7100000000000000000000000000000000000000000000000000000000 PUSH0 MSTORE PUSH1 0x41 PUSH1 0x4 MSTORE PUSH1 0x24 PUSH0 REVERT JUMPDEST PUSH2 0x3FE DUP3 PUSH2 0x3B8 JUMP JUMPDEST DUP2 ADD DUP2 DUP2 LT PUSH8 0xFFFFFFFFFFFFFFFF DUP3 GT OR ISZERO PUSH2 0x41D JUMPI PUSH2 0x41C PUSH2 0x3C8 JUMP JUMPDEST JUMPDEST DUP1 PUSH1 0x40 MSTORE POP POP POP JUMP JUMPDEST PUSH0 PUSH2 0x42F PUSH2 0x39F JUMP JUMPDEST SWAP1 POP PUSH2 0x43B DUP3 DUP3 PUSH2 0x3F5 JUMP JUMPDEST SWAP2 SWAP1 POP JUMP JUMPDEST PUSH0 PUSH8 0xFFFFFFFFFFFFFFFF DUP3 GT ISZERO PUSH2 0x45A JUMPI PUSH2 0x459 PUSH2 0x3C8 JUMP JUMPDEST JUMPDEST PUSH2 0x463 DUP3 PUSH2 0x3B8 JUMP JUMPDEST SWAP1 POP PUSH1 0x20 DUP2 ADD SWAP1 POP SWAP2 SWAP1 POP JUMP JUMPDEST DUP3 DUP2 DUP4 CALLDATACOPY PUSH0 DUP4 DUP4 ADD MSTORE POP POP POP JUMP JUMPDEST PUSH0 PUSH2 0x490 PUSH2 0x48B DUP5 PUSH2 0x440 JUMP JUMPDEST PUSH2 0x426 JUMP JUMPDEST SWAP1 POP DUP3 DUP2 MSTORE PUSH1 0x20 DUP2 ADD DUP5 DUP5 DUP5 ADD GT ISZERO PUSH2 0x4AC JUMPI PUSH2 0x4AB PUSH2 0x3B4 JUMP JUMPDEST JUMPDEST PUSH2 0x4B7 DUP5 DUP3 DUP6 PUSH2 0x470 JUMP JUMPDEST POP SWAP4 SWAP3 POP POP POP JUMP JUMPDEST PUSH0 DUP3 PUSH1 0x1F DUP4 ADD SLT PUSH2 0x4D3 JUMPI PUSH2 0x4D2 PUSH2 0x3B0 JUMP JUMPDEST JUMPDEST DUP2 CALLDATALOAD PUSH2 0x4E3 DUP5 DUP3 PUSH1 0x20 DUP7 ADD PUSH2 0x47E JUMP JUMPDEST SWAP2 POP POP SWAP3 SWAP2 POP POP JUMP JUMPDEST PUSH0 PUSH8 0xFFFFFFFFFFFFFFFF DUP3 GT ISZERO PUSH2 0x506 JUMPI PUSH2 0x505 PUSH2 0x3C8 JUMP JUMPDEST JUMPDEST PUSH1 0x20 DUP3 MUL SWAP1 POP PUSH1 0x20 DUP2 ADD SWAP1 POP SWAP2 SWAP1 POP JUMP JUMPDEST PUSH0 DUP1 REVERT JUMPDEST PUSH0 PUSH2 0x52D PUSH2 0x528 DUP5 PUSH2 0x4EC JUMP JUMPDEST PUSH2 0x426 JUMP JUMPDEST SWAP1 POP DUP1 DUP4 DUP3 MSTORE PUSH1 0x20 DUP3 ADD SWAP1 POP PUSH1 0x20 DUP5 MUL DUP4 ADD DUP6 DUP2 GT ISZERO PUSH2 0x550 JUMPI PUSH2 0x54F PUSH2 0x517 JUMP JUMPDEST JUMPDEST DUP4 JUMPDEST DUP2 DUP2 LT ISZERO PUSH2 0x597 JUMPI DUP1 CALLDATALOAD PUSH8 0xFFFFFFFFFFFFFFFF DUP2 GT ISZERO PUSH2 0x575 JUMPI PUSH2 0x574 PUSH2 0x3B0 JUMP JUMPDEST JUMPDEST DUP1 DUP7 ADD PUSH2 0x582 DUP10 DUP3 PUSH2 0x4BF JUMP JUMPDEST DUP6 MSTORE PUSH1 0x20 DUP6 ADD SWAP5 POP POP POP PUSH1 0x20 DUP2 ADD SWAP1 POP PUSH2 0x552 JUMP JUMPDEST POP POP POP SWAP4 SWAP3 POP POP POP JUMP JUMPDEST PUSH0 DUP3 PUSH1 0x1F DUP4 ADD SLT PUSH2 0x5B5 JUMPI PUSH2 0x5B4 PUSH2 0x3B0 JUMP JUMPDEST JUMPDEST DUP2 CALLDATALOAD PUSH2 0x5C5 DUP5 DUP3 PUSH1 0x20 DUP7 ADD PUSH2 0x51B JUMP JUMPDEST SWAP2 POP POP SWAP3 SWAP2 POP POP JUMP JUMPDEST PUSH0 DUP1 PUSH1 0x40 DUP4 DUP6 SUB SLT ISZERO PUSH2 0x5E4 JUMPI PUSH2 0x5E3 PUSH2 0x3A8 JUMP JUMPDEST JUMPDEST PUSH0 DUP4 ADD CALLDATALOAD PUSH8 0xFFFFFFFFFFFFFFFF DUP2 GT ISZERO PUSH2 0x601 JUMPI PUSH2 0x600 PUSH2 0x3AC JUMP JUMPDEST JUMPDEST PUSH2 0x60D DUP6 DUP3 DUP7 ADD PUSH2 0x4BF JUMP JUMPDEST SWAP3 POP POP PUSH1 0x20 DUP4 ADD CALLDATALOAD PUSH8 0xFFFFFFFFFFFFFFFF DUP2 GT ISZERO PUSH2 0x62E JUMPI PUSH2 0x62D PUSH2 0x3AC JUMP JUMPDEST JUMPDEST PUSH2 0x63A DUP6 DUP3 DUP7 ADD PUSH2 0x5A1 JUMP JUMPDEST SWAP2 POP POP SWAP3 POP SWAP3 SWAP1 POP JUMP JUMPDEST PUSH0 DUP2 MLOAD SWAP1 POP SWAP2 SWAP1 POP JUMP JUMPDEST PUSH0 DUP3 DUP3 MSTORE PUSH1 0x20 DUP3 ADD SWAP1 POP SWAP3 SWAP2 POP POP JUMP JUMPDEST PUSH0 DUP2 SWAP1 POP PUSH1 0x20 DUP3 ADD SWAP1 POP SWAP2 SWAP1 POP JUMP JUMPDEST PUSH0 DUP2 SWAP1 POP SWAP2 SWAP1 POP JUMP JUMPDEST PUSH2 0x67F DUP2 PUSH2 0x66D JUMP JUMPDEST DUP3 MSTORE POP POP JUMP JUMPDEST PUSH0 DUP2 MLOAD SWAP1 POP SWAP2 SWAP1 POP JUMP JUMPDEST PUSH0 DUP3 DUP3 MSTORE PUSH1 0x20 DUP3 ADD SWAP1 POP SWAP3 SWAP2 POP POP JUMP JUMPDEST DUP3 DUP2 DUP4 MCOPY PUSH0 DUP4 DUP4 ADD MSTORE POP POP POP JUMP JUMPDEST PUSH0 PUSH2 0x6B7 DUP3 PUSH2 0x685 JUMP JUMPDEST PUSH2 0x6C1 DUP2 DUP6 PUSH2 0x68F JUMP JUMPDEST SWAP4 POP PUSH2 0x6D1 DUP2 DUP6 PUSH1 0x20 DUP7 ADD PUSH2 0x69F JUMP JUMPDEST PUSH2 0x6DA DUP2 PUSH2 0x3B8 JUMP JUMPDEST DUP5 ADD SWAP2 POP POP SWAP3 SWAP2 POP POP JUMP JUMPDEST PUSH0 DUP2 MLOAD SWAP1 POP SWAP2 SWAP1 POP JUMP JUMPDEST PUSH0 DUP3 DUP3 MSTORE PUSH1 0x20 DUP3 ADD SWAP1 POP SWAP3 SWAP2 POP POP JUMP JUMPDEST PUSH0 DUP2 SWAP1 POP PUSH1 0x20 DUP3 ADD SWAP1 POP SWAP2 SWAP1 POP JUMP JUMPDEST PUSH0 PUSH2 0x719 DUP4 DUP4 PUSH2 0x6AD JUMP JUMPDEST SWAP1 POP SWAP3 SWAP2 POP POP JUMP JUMPDEST PUSH0 PUSH1 0x20 DUP3 ADD SWAP1 POP SWAP2 SWAP1 POP JUMP JUMPDEST PUSH0 PUSH2 0x737 DUP3 PUSH2 0x6E5 JUMP JUMPDEST PUSH2 0x741 DUP2 DUP6 PUSH2 0x6EF JUMP JUMPDEST SWAP4 POP DUP4 PUSH1 0x20 DUP3 MUL DUP6 ADD PUSH2 0x753 DUP6 PUSH2 0x6FF JUMP JUMPDEST DUP1 PUSH0 JUMPDEST DUP6 DUP2 LT ISZERO PUSH2 0x78E JUMPI DUP5 DUP5 SUB DUP10 MSTORE DUP2 MLOAD PUSH2 0x76F DUP6 DUP3 PUSH2 0x70E JUMP JUMPDEST SWAP5 POP PUSH2 0x77A DUP4 PUSH2 0x721 JUMP JUMPDEST SWAP3 POP PUSH1 0x20 DUP11 ADD SWAP10 POP POP PUSH1 0x1 DUP2 ADD SWAP1 POP PUSH2 0x756 JUMP JUMPDEST POP DUP3 SWAP8 POP DUP8 SWAP6 POP POP POP POP POP POP SWAP3 SWAP2 POP POP JUMP JUMPDEST PUSH0 PUSH1 0x60 DUP4 ADD PUSH0 DUP4 ADD MLOAD PUSH2 0x7B5 PUSH0 DUP7 ADD DUP3 PUSH2 0x676 JUMP JUMPDEST POP PUSH1 0x20 DUP4 ADD MLOAD DUP5 DUP3 SUB PUSH1 0x20 DUP7 ADD MSTORE PUSH2 0x7CD DUP3 DUP3 PUSH2 0x6AD JUMP JUMPDEST SWAP2 POP POP PUSH1 0x40 DUP4 ADD MLOAD DUP5 DUP3 SUB PUSH1 0x40 DUP7 ADD MSTORE PUSH2 0x7E7 DUP3 DUP3 PUSH2 0x72D JUMP JUMPDEST SWAP2 POP POP DUP1 SWAP2 POP POP SWAP3 SWAP2 POP POP JUMP JUMPDEST PUSH0 PUSH2 0x7FF DUP4 DUP4 PUSH2 0x7A0 JUMP JUMPDEST SWAP1 POP SWAP3 SWAP2 POP POP JUMP JUMPDEST PUSH0 PUSH1 0x20 DUP3 ADD SWAP1 POP SWAP2 SWAP1 POP JUMP JUMPDEST PUSH0 PUSH2 0x81D DUP3 PUSH2 0x644 JUMP JUMPDEST PUSH2 0x827 DUP2 DUP6 PUSH2 0x64E JUMP JUMPDEST SWAP4 POP DUP4 PUSH1 0x20 DUP3 MUL DUP6 ADD PUSH2 0x839 DUP6 PUSH2 0x65E JUMP JUMPDEST DUP1 PUSH0 JUMPDEST DUP6 DUP2 LT ISZERO PUSH2 0x874 JUMPI DUP5 DUP5 SUB DUP10 MSTORE DUP2 MLOAD PUSH2 0x855 DUP6 DUP3 PUSH2 0x7F4 JUMP JUMPDEST SWAP5 POP PUSH2 0x860 DUP4 PUSH2 0x807 JUMP JUMPDEST SWAP3 POP PUSH1 0x20 DUP11 ADD SWAP10 POP POP PUSH1 0x1 DUP2 ADD SWAP1 POP PUSH2 0x83C JUMP JUMPDEST POP DUP3 SWAP8 POP DUP8 SWAP6 POP POP POP POP POP POP SWAP3 SWAP2 POP POP JUMP JUMPDEST PUSH0 PUSH1 0x20 DUP3 ADD SWAP1 POP DUP2 DUP2 SUB PUSH0 DUP4 ADD MSTORE PUSH2 0x89E DUP2 DUP5 PUSH2 0x813 JUMP JUMPDEST SWAP1 POP SWAP3 SWAP2 POP POP JUMP JUMPDEST PUSH32 0x4E487B7100000000000000000000000000000000000000000000000000000000 PUSH0 MSTORE PUSH1 0x11 PUSH1 0x4 MSTORE PUSH1 0x24 PUSH0 REVERT JUMPDEST PUSH0 PUSH2 0x8DD DUP3 PUSH2 0x66D JUMP JUMPDEST SWAP2 POP PUSH2 0x8E8 DUP4 PUSH2 0x66D JUMP JUMPDEST SWAP3 POP DUP3 DUP3 ADD SWAP1 POP DUP1 DUP3 GT ISZERO PUSH2 0x900 JUMPI PUSH2 0x8FF PUSH2 0x8A6 JUMP JUMPDEST JUMPDEST SWAP3 SWAP2 POP POP JUMP JUMPDEST PUSH32 0x4E487B7100000000000000000000000000000000000000000000000000000000 PUSH0 MSTORE PUSH1 0x22 PUSH1 0x4 MSTORE PUSH1 0x24 PUSH0 REVERT JUMPDEST PUSH0 PUSH1 0x2 DUP3 DIV SWAP1 POP PUSH1 0x1 DUP3 AND DUP1 PUSH2 0x94A JUMPI PUSH1 0x7F DUP3 AND SWAP2 POP JUMPDEST PUSH1 0x20 DUP3 LT DUP2 SUB PUSH2 0x95D JUMPI PUSH2 0x95C PUSH2 0x906 JUMP JUMPDEST JUMPDEST POP SWAP2 SWAP1 POP JUMP JUMPDEST PUSH0 DUP2 SWAP1 POP DUP2 PUSH0 MSTORE PUSH1 0x20 PUSH0 KECCAK256 SWAP1 POP SWAP2 SWAP1 POP JUMP JUMPDEST PUSH0 PUSH1 0x20 PUSH1 0x1F DUP4 ADD DIV SWAP1 POP SWAP2 SWAP1 POP JUMP JUMPDEST PUSH0 DUP3 DUP3 SHL SWAP1 POP SWAP3 SWAP2 POP POP JUMP JUMPDEST PUSH0 PUSH1 0x8 DUP4 MUL PUSH2 0x9BF PUSH32 0xFFFFFFFFFFFFFFFFFFFFFFFFFFFFFFFFFFFFFFFFFFFFFFFFFFFFFFFFFFFFFFFF DUP3 PUSH2 0x984 JUMP JUMPDEST PUSH2 0x9C9 DUP7 DUP4 PUSH2 0x984 JUMP JUMPDEST SWAP6 POP DUP1 NOT DUP5 AND SWAP4 POP DUP1 DUP7 AND DUP5 OR SWAP3 POP POP POP SWAP4 SWAP3 POP POP POP JUMP JUMPDEST PUSH0 DUP2 SWAP1 POP SWAP2 SWAP1 POP JUMP JUMPDEST PUSH0 PUSH2 0xA04 PUSH2 0x9FF PUSH2 0x9FA DUP5 PUSH2 0x66D JUMP JUMPDEST PUSH2 0x9E1 JUMP JUMPDEST PUSH2 0x66D JUMP JUMPDEST SWAP1 POP SWAP2 SWAP1 POP JUMP JUMPDEST PUSH0 DUP2 SWAP1 POP SWAP2 SWAP1 POP JUMP JUMPDEST PUSH2 0xA1D DUP4 PUSH2 0x9EA JUMP JUMPDEST PUSH2 0xA31 PUSH2 0xA29 DUP3 PUSH2 0xA0B JUMP JUMPDEST DUP5 DUP5 SLOAD PUSH2 0x990 JUMP JUMPDEST DUP3 SSTORE POP POP POP POP JUMP JUMPDEST PUSH0 SWAP1 JUMP JUMPDEST PUSH2 0xA45 PUSH2 0xA39 JUMP JUMPDEST PUSH2 0xA50 DUP2 DUP5 DUP5 PUSH2 0xA14 JUMP JUMPDEST POP POP POP JUMP JUMPDEST JUMPDEST DUP2 DUP2 LT ISZERO PUSH2 0xA73 JUMPI PUSH2 0xA68 PUSH0 DUP3 PUSH2 0xA3D JUMP JUMPDEST PUSH1 0x1 DUP2 ADD SWAP1 POP PUSH2 0xA56 JUMP JUMPDEST POP POP JUMP JUMPDEST PUSH1 0x1F DUP3 GT ISZERO PUSH2 0xAB8 JUMPI PUSH2 0xA89 DUP2 PUSH2 0x963 JUMP JUMPDEST PUSH2 0xA92 DUP5 PUSH2 0x975 JUMP JUMPDEST DUP2 ADD PUSH1 0x20 DUP6 LT ISZERO PUSH2 0xAA1 JUMPI DUP2 SWAP1 POP JUMPDEST PUSH2 0xAB5 PUSH2 0xAAD DUP6 PUSH2 0x975 JUMP JUMPDEST DUP4 ADD DUP3 PUSH2 0xA55 JUMP JUMPDEST POP POP JUMPDEST POP POP POP JUMP JUMPDEST PUSH0 DUP3 DUP3 SHR SWAP1 POP SWAP3 SWAP2 POP POP JUMP JUMPDEST PUSH0 PUSH2 0xAD8 PUSH0 NOT DUP5 PUSH1 0x8 MUL PUSH2 0xABD JUMP JUMPDEST NOT DUP1 DUP4 AND SWAP2 POP POP SWAP3 SWAP2 POP POP JUMP JUMPDEST PUSH0 PUSH2 0xAF0 DUP4 DUP4 PUSH2 0xAC9 JUMP JUMPDEST SWAP2 POP DUP3 PUSH1 0x2 MUL DUP3 OR SWAP1 POP SWAP3 SWAP2 POP POP JUMP JUMPDEST PUSH2 0xB09 DUP3 PUSH2 0x685 JUMP JUMPDEST PUSH8 0xFFFFFFFFFFFFFFFF DUP2 GT ISZERO PUSH2 0xB22 JUMPI PUSH2 0xB21 PUSH2 0x3C8 JUMP JUMPDEST JUMPDEST PUSH2 0xB2C DUP3 SLOAD PUSH2 0x933 JUMP JUMPDEST PUSH2 0xB37 DUP3 DUP3 DUP6 PUSH2 0xA77 JUMP JUMPDEST PUSH0 PUSH1 0x20 SWAP1 POP PUSH1 0x1F DUP4 GT PUSH1 0x1 DUP2 EQ PUSH2 0xB68 JUMPI PUSH0 DUP5 ISZERO PUSH2 0xB56 JUMPI DUP3 DUP8 ADD MLOAD SWAP1 POP JUMPDEST PUSH2 0xB60 DUP6 DUP3 PUSH2 0xAE5 JUMP JUMPDEST DUP7 SSTORE POP PUSH2 0xBC7 JUMP JUMPDEST PUSH1 0x1F NOT DUP5 AND PUSH2 0xB76 DUP7 PUSH2 0x963 JUMP JUMPDEST PUSH0 JUMPDEST DUP3 DUP2 LT ISZERO PUSH2 0xB9D JUMPI DUP5 DUP10 ADD MLOAD DUP3 SSTORE PUSH1 0x1 DUP3 ADD SWAP2 POP PUSH1 0x20 DUP6 ADD SWAP5 POP PUSH1 0x20 DUP2 ADD SWAP1 POP PUSH2 0xB78 JUMP JUMPDEST DUP7 DUP4 LT ISZERO PUSH2 0xBBA JUMPI DUP5 DUP10 ADD MLOAD PUSH2 0xBB6 PUSH1 0x1F DUP10 AND DUP3 PUSH2 0xAC9 JUMP JUMPDEST DUP4 SSTORE POP JUMPDEST PUSH1 0x1 PUSH1 0x2 DUP9 MUL ADD DUP9 SSTORE POP POP POP JUMPDEST POP POP POP POP POP POP JUMP INVALID LOG2 PUSH5 0x6970667358 0x22 SLT KECCAK256 0xD TIMESTAMP DUP5 0xCA 0xB6 0xC 0xB3 LOG3 PUSH2 0x613F 0xF EXTCODESIZE AND 0xD4 SWAP16 LOG0 CALLVALUE 0xC8 PUSH25 0xD3A9F7777AB6BF8CC0D7212764736F6C634300081A00330000 "
				},
				"gasEstimates": {
					"creation": {
						"codeDepositCost": "615400",
						"executionCost": "649",
						"totalCost": "616049"
					},
					"external": {
						"addStudent(string,string[])": "infinite",
						"getAllStudents()": "infinite"
					}
				},
				"methodIdentifiers": {
					"addStudent(string,string[])": "70d5e2fb",
					"getAllStudents()": "e9e30927"
				}
			},
			"storageLayout": {
				"storage": [
					{
						"astId": 133,
						"contract": "solidity/solidity11~20.sol:Q14",
						"label": "students",
						"offset": 0,
						"slot": "0",
						"type": "t_array(t_struct(Student)129_storage)dyn_storage"
					}
				],
				"types": {
					"t_array(t_string_storage)dyn_storage": {
						"base": "t_string_storage",
						"encoding": "dynamic_array",
						"label": "string[]",
						"numberOfBytes": "32"
					},
					"t_array(t_struct(Student)129_storage)dyn_storage": {
						"base": "t_struct(Student)129_storage",
						"encoding": "dynamic_array",
						"label": "struct Q14.Student[]",
						"numberOfBytes": "32"
					},
					"t_string_storage": {
						"encoding": "bytes",
						"label": "string",
						"numberOfBytes": "32"
					},
					"t_struct(Student)129_storage": {
						"encoding": "inplace",
						"label": "struct Q14.Student",
						"members": [
							{
								"astId": 123,
								"contract": "solidity/solidity11~20.sol:Q14",
								"label": "number",
								"offset": 0,
								"slot": "0",
								"type": "t_uint256"
							},
							{
								"astId": 125,
								"contract": "solidity/solidity11~20.sol:Q14",
								"label": "name",
								"offset": 0,
								"slot": "1",
								"type": "t_string_storage"
							},
							{
								"astId": 128,
								"contract": "solidity/solidity11~20.sol:Q14",
								"label": "class",
								"offset": 0,
								"slot": "2",
								"type": "t_array(t_string_storage)dyn_storage"
							}
						],
						"numberOfBytes": "96"
					},
					"t_uint256": {
						"encoding": "inplace",
						"label": "uint256",
						"numberOfBytes": "32"
					}
				}
			},
			"userdoc": {
				"kind": "user",
				"methods": {},
				"version": 1
			}
		}
	}
}