{
	"solidity/solidity11~20.sol": {
		"Q18": {
			"abi": [
				{
					"inputs": [
						{
							"internalType": "string",
							"name": "_name",
							"type": "string"
						}
					],
					"name": "get",
					"outputs": [
						{
							"internalType": "uint256",
							"name": "",
							"type": "uint256"
						}
					],
					"stateMutability": "view",
					"type": "function"
				},
				{
					"inputs": [
						{
							"internalType": "string",
							"name": "_name",
							"type": "string"
						},
						{
							"internalType": "uint256",
							"name": "_birth",
							"type": "uint256"
						}
					],
					"name": "push",
					"outputs": [],
					"stateMutability": "nonpayable",
					"type": "function"
				}
			],
			"devdoc": {
				"kind": "dev",
				"methods": {},
				"version": 1
			},
			"evm": {
				"assembly": "    /* \"solidity/solidity11~20.sol\":3271:3761  contract Q18 {... */\n  mstore(0x40, 0x80)\n  callvalue\n  dup1\n  iszero\n  tag_1\n  jumpi\n  0x00\n  dup1\n  revert\ntag_1:\n  pop\n  dataSize(sub_0)\n  dup1\n  dataOffset(sub_0)\n  0x00\n  codecopy\n  0x00\n  return\nstop\n\nsub_0: assembly {\n        /* \"solidity/solidity11~20.sol\":3271:3761  contract Q18 {... */\n      mstore(0x40, 0x80)\n      callvalue\n      dup1\n      iszero\n      tag_1\n      jumpi\n      0x00\n      dup1\n      revert\n    tag_1:\n      pop\n      jumpi(tag_2, lt(calldatasize, 0x04))\n      shr(0xe0, calldataload(0x00))\n      dup1\n      0x693ec85e\n      eq\n      tag_3\n      jumpi\n      dup1\n      0xf806ab5a\n      eq\n      tag_4\n      jumpi\n    tag_2:\n      0x00\n      dup1\n      revert\n        /* \"solidity/solidity11~20.sol\":3656:3759  function get(string memory _name) public view returns(uint) {... */\n    tag_3:\n      tag_5\n      0x04\n      dup1\n      calldatasize\n      sub\n      dup2\n      add\n      swap1\n      tag_6\n      swap2\n      swap1\n      tag_7\n      jump\t// in\n    tag_6:\n      tag_8\n      jump\t// in\n    tag_5:\n      mload(0x40)\n      tag_9\n      swap2\n      swap1\n      tag_10\n      jump\t// in\n    tag_9:\n      mload(0x40)\n      dup1\n      swap2\n      sub\n      swap1\n      return\n        /* \"solidity/solidity11~20.sol\":3550:3650  function push(string memory _name, uint _birth) public {... */\n    tag_4:\n      tag_11\n      0x04\n      dup1\n      calldatasize\n      sub\n      dup2\n      add\n      swap1\n      tag_12\n      swap2\n      swap1\n      tag_13\n      jump\t// in\n    tag_12:\n      tag_14\n      jump\t// in\n    tag_11:\n      stop\n        /* \"solidity/solidity11~20.sol\":3656:3759  function get(string memory _name) public view returns(uint) {... */\n    tag_8:\n        /* \"solidity/solidity11~20.sol\":3710:3714  uint */\n      0x00\n        /* \"solidity/solidity11~20.sol\":3733:3745  map_Birthday */\n      dup1\n        /* \"solidity/solidity11~20.sol\":3746:3751  _name */\n      dup3\n        /* \"solidity/solidity11~20.sol\":3733:3752  map_Birthday[_name] */\n      mload(0x40)\n      tag_16\n      swap2\n      swap1\n      tag_17\n      jump\t// in\n    tag_16:\n      swap1\n      dup2\n      mstore\n      0x20\n      add\n      mload(0x40)\n      dup1\n      swap2\n      sub\n      swap1\n      keccak256\n      sload\n        /* \"solidity/solidity11~20.sol\":3726:3752  return map_Birthday[_name] */\n      swap1\n      pop\n        /* \"solidity/solidity11~20.sol\":3656:3759  function get(string memory _name) public view returns(uint) {... */\n      swap2\n      swap1\n      pop\n      jump\t// out\n        /* \"solidity/solidity11~20.sol\":3550:3650  function push(string memory _name, uint _birth) public {... */\n    tag_14:\n        /* \"solidity/solidity11~20.sol\":3637:3643  _birth */\n      dup1\n        /* \"solidity/solidity11~20.sol\":3615:3627  map_Birthday */\n      0x00\n        /* \"solidity/solidity11~20.sol\":3628:3633  _name */\n      dup4\n        /* \"solidity/solidity11~20.sol\":3615:3634  map_Birthday[_name] */\n      mload(0x40)\n      tag_19\n      swap2\n      swap1\n      tag_17\n      jump\t// in\n    tag_19:\n      swap1\n      dup2\n      mstore\n      0x20\n      add\n      mload(0x40)\n      dup1\n      swap2\n      sub\n      swap1\n      keccak256\n        /* \"solidity/solidity11~20.sol\":3615:3643  map_Birthday[_name] = _birth */\n      dup2\n      swap1\n      sstore\n      pop\n        /* \"solidity/solidity11~20.sol\":3550:3650  function push(string memory _name, uint _birth) public {... */\n      pop\n      pop\n      jump\t// out\n        /* \"#utility.yul\":7:82   */\n    tag_20:\n        /* \"#utility.yul\":40:46   */\n      0x00\n        /* \"#utility.yul\":73:75   */\n      0x40\n        /* \"#utility.yul\":67:76   */\n      mload\n        /* \"#utility.yul\":57:76   */\n      swap1\n      pop\n        /* \"#utility.yul\":7:82   */\n      swap1\n      jump\t// out\n        /* \"#utility.yul\":88:205   */\n    tag_21:\n        /* \"#utility.yul\":197:198   */\n      0x00\n        /* \"#utility.yul\":194:195   */\n      dup1\n        /* \"#utility.yul\":187:199   */\n      revert\n        /* \"#utility.yul\":211:328   */\n    tag_22:\n        /* \"#utility.yul\":320:321   */\n      0x00\n        /* \"#utility.yul\":317:318   */\n      dup1\n        /* \"#utility.yul\":310:322   */\n      revert\n        /* \"#utility.yul\":334:451   */\n    tag_23:\n        /* \"#utility.yul\":443:444   */\n      0x00\n        /* \"#utility.yul\":440:441   */\n      dup1\n        /* \"#utility.yul\":433:445   */\n      revert\n        /* \"#utility.yul\":457:574   */\n    tag_24:\n        /* \"#utility.yul\":566:567   */\n      0x00\n        /* \"#utility.yul\":563:564   */\n      dup1\n        /* \"#utility.yul\":556:568   */\n      revert\n        /* \"#utility.yul\":580:682   */\n    tag_25:\n        /* \"#utility.yul\":621:627   */\n      0x00\n        /* \"#utility.yul\":672:674   */\n      0x1f\n        /* \"#utility.yul\":668:675   */\n      not\n        /* \"#utility.yul\":663:665   */\n      0x1f\n        /* \"#utility.yul\":656:661   */\n      dup4\n        /* \"#utility.yul\":652:666   */\n      add\n        /* \"#utility.yul\":648:676   */\n      and\n        /* \"#utility.yul\":638:676   */\n      swap1\n      pop\n        /* \"#utility.yul\":580:682   */\n      swap2\n      swap1\n      pop\n      jump\t// out\n        /* \"#utility.yul\":688:868   */\n    tag_26:\n        /* \"#utility.yul\":736:813   */\n      0x4e487b7100000000000000000000000000000000000000000000000000000000\n        /* \"#utility.yul\":733:734   */\n      0x00\n        /* \"#utility.yul\":726:814   */\n      mstore\n        /* \"#utility.yul\":833:837   */\n      0x41\n        /* \"#utility.yul\":830:831   */\n      0x04\n        /* \"#utility.yul\":823:838   */\n      mstore\n        /* \"#utility.yul\":857:861   */\n      0x24\n        /* \"#utility.yul\":854:855   */\n      0x00\n        /* \"#utility.yul\":847:862   */\n      revert\n        /* \"#utility.yul\":874:1155   */\n    tag_27:\n        /* \"#utility.yul\":957:984   */\n      tag_50\n        /* \"#utility.yul\":979:983   */\n      dup3\n        /* \"#utility.yul\":957:984   */\n      tag_25\n      jump\t// in\n    tag_50:\n        /* \"#utility.yul\":949:955   */\n      dup2\n        /* \"#utility.yul\":945:985   */\n      add\n        /* \"#utility.yul\":1087:1093   */\n      dup2\n        /* \"#utility.yul\":1075:1085   */\n      dup2\n        /* \"#utility.yul\":1072:1094   */\n      lt\n        /* \"#utility.yul\":1051:1069   */\n      0xffffffffffffffff\n        /* \"#utility.yul\":1039:1049   */\n      dup3\n        /* \"#utility.yul\":1036:1070   */\n      gt\n        /* \"#utility.yul\":1033:1095   */\n      or\n        /* \"#utility.yul\":1030:1118   */\n      iszero\n      tag_51\n      jumpi\n        /* \"#utility.yul\":1098:1116   */\n      tag_52\n      tag_26\n      jump\t// in\n    tag_52:\n        /* \"#utility.yul\":1030:1118   */\n    tag_51:\n        /* \"#utility.yul\":1138:1148   */\n      dup1\n        /* \"#utility.yul\":1134:1136   */\n      0x40\n        /* \"#utility.yul\":1127:1149   */\n      mstore\n        /* \"#utility.yul\":917:1155   */\n      pop\n        /* \"#utility.yul\":874:1155   */\n      pop\n      pop\n      jump\t// out\n        /* \"#utility.yul\":1161:1290   */\n    tag_28:\n        /* \"#utility.yul\":1195:1201   */\n      0x00\n        /* \"#utility.yul\":1222:1242   */\n      tag_54\n      tag_20\n      jump\t// in\n    tag_54:\n        /* \"#utility.yul\":1212:1242   */\n      swap1\n      pop\n        /* \"#utility.yul\":1251:1284   */\n      tag_55\n        /* \"#utility.yul\":1279:1283   */\n      dup3\n        /* \"#utility.yul\":1271:1277   */\n      dup3\n        /* \"#utility.yul\":1251:1284   */\n      tag_27\n      jump\t// in\n    tag_55:\n        /* \"#utility.yul\":1161:1290   */\n      swap2\n      swap1\n      pop\n      jump\t// out\n        /* \"#utility.yul\":1296:1604   */\n    tag_29:\n        /* \"#utility.yul\":1358:1362   */\n      0x00\n        /* \"#utility.yul\":1448:1466   */\n      0xffffffffffffffff\n        /* \"#utility.yul\":1440:1446   */\n      dup3\n        /* \"#utility.yul\":1437:1467   */\n      gt\n        /* \"#utility.yul\":1434:1490   */\n      iszero\n      tag_57\n      jumpi\n        /* \"#utility.yul\":1470:1488   */\n      tag_58\n      tag_26\n      jump\t// in\n    tag_58:\n        /* \"#utility.yul\":1434:1490   */\n    tag_57:\n        /* \"#utility.yul\":1508:1537   */\n      tag_59\n        /* \"#utility.yul\":1530:1536   */\n      dup3\n        /* \"#utility.yul\":1508:1537   */\n      tag_25\n      jump\t// in\n    tag_59:\n        /* \"#utility.yul\":1500:1537   */\n      swap1\n      pop\n        /* \"#utility.yul\":1592:1596   */\n      0x20\n        /* \"#utility.yul\":1586:1590   */\n      dup2\n        /* \"#utility.yul\":1582:1597   */\n      add\n        /* \"#utility.yul\":1574:1597   */\n      swap1\n      pop\n        /* \"#utility.yul\":1296:1604   */\n      swap2\n      swap1\n      pop\n      jump\t// out\n        /* \"#utility.yul\":1610:1758   */\n    tag_30:\n        /* \"#utility.yul\":1708:1714   */\n      dup3\n        /* \"#utility.yul\":1703:1706   */\n      dup2\n        /* \"#utility.yul\":1698:1701   */\n      dup4\n        /* \"#utility.yul\":1685:1715   */\n      calldatacopy\n        /* \"#utility.yul\":1749:1750   */\n      0x00\n        /* \"#utility.yul\":1740:1746   */\n      dup4\n        /* \"#utility.yul\":1735:1738   */\n      dup4\n        /* \"#utility.yul\":1731:1747   */\n      add\n        /* \"#utility.yul\":1724:1751   */\n      mstore\n        /* \"#utility.yul\":1610:1758   */\n      pop\n      pop\n      pop\n      jump\t// out\n        /* \"#utility.yul\":1764:2189   */\n    tag_31:\n        /* \"#utility.yul\":1842:1847   */\n      0x00\n        /* \"#utility.yul\":1867:1933   */\n      tag_62\n        /* \"#utility.yul\":1883:1932   */\n      tag_63\n        /* \"#utility.yul\":1925:1931   */\n      dup5\n        /* \"#utility.yul\":1883:1932   */\n      tag_29\n      jump\t// in\n    tag_63:\n        /* \"#utility.yul\":1867:1933   */\n      tag_28\n      jump\t// in\n    tag_62:\n        /* \"#utility.yul\":1858:1933   */\n      swap1\n      pop\n        /* \"#utility.yul\":1956:1962   */\n      dup3\n        /* \"#utility.yul\":1949:1954   */\n      dup2\n        /* \"#utility.yul\":1942:1963   */\n      mstore\n        /* \"#utility.yul\":1994:1998   */\n      0x20\n        /* \"#utility.yul\":1987:1992   */\n      dup2\n        /* \"#utility.yul\":1983:1999   */\n      add\n        /* \"#utility.yul\":2032:2035   */\n      dup5\n        /* \"#utility.yul\":2023:2029   */\n      dup5\n        /* \"#utility.yul\":2018:2021   */\n      dup5\n        /* \"#utility.yul\":2014:2030   */\n      add\n        /* \"#utility.yul\":2011:2036   */\n      gt\n        /* \"#utility.yul\":2008:2120   */\n      iszero\n      tag_64\n      jumpi\n        /* \"#utility.yul\":2039:2118   */\n      tag_65\n      tag_24\n      jump\t// in\n    tag_65:\n        /* \"#utility.yul\":2008:2120   */\n    tag_64:\n        /* \"#utility.yul\":2129:2183   */\n      tag_66\n        /* \"#utility.yul\":2176:2182   */\n      dup5\n        /* \"#utility.yul\":2171:2174   */\n      dup3\n        /* \"#utility.yul\":2166:2169   */\n      dup6\n        /* \"#utility.yul\":2129:2183   */\n      tag_30\n      jump\t// in\n    tag_66:\n        /* \"#utility.yul\":1848:2189   */\n      pop\n        /* \"#utility.yul\":1764:2189   */\n      swap4\n      swap3\n      pop\n      pop\n      pop\n      jump\t// out\n        /* \"#utility.yul\":2209:2549   */\n    tag_32:\n        /* \"#utility.yul\":2265:2270   */\n      0x00\n        /* \"#utility.yul\":2314:2317   */\n      dup3\n        /* \"#utility.yul\":2307:2311   */\n      0x1f\n        /* \"#utility.yul\":2299:2305   */\n      dup4\n        /* \"#utility.yul\":2295:2312   */\n      add\n        /* \"#utility.yul\":2291:2318   */\n      slt\n        /* \"#utility.yul\":2281:2403   */\n      tag_68\n      jumpi\n        /* \"#utility.yul\":2322:2401   */\n      tag_69\n      tag_23\n      jump\t// in\n    tag_69:\n        /* \"#utility.yul\":2281:2403   */\n    tag_68:\n        /* \"#utility.yul\":2439:2445   */\n      dup2\n        /* \"#utility.yul\":2426:2446   */\n      calldataload\n        /* \"#utility.yul\":2464:2543   */\n      tag_70\n        /* \"#utility.yul\":2539:2542   */\n      dup5\n        /* \"#utility.yul\":2531:2537   */\n      dup3\n        /* \"#utility.yul\":2524:2528   */\n      0x20\n        /* \"#utility.yul\":2516:2522   */\n      dup7\n        /* \"#utility.yul\":2512:2529   */\n      add\n        /* \"#utility.yul\":2464:2543   */\n      tag_31\n      jump\t// in\n    tag_70:\n        /* \"#utility.yul\":2455:2543   */\n      swap2\n      pop\n        /* \"#utility.yul\":2271:2549   */\n      pop\n        /* \"#utility.yul\":2209:2549   */\n      swap3\n      swap2\n      pop\n      pop\n      jump\t// out\n        /* \"#utility.yul\":2555:3064   */\n    tag_7:\n        /* \"#utility.yul\":2624:2630   */\n      0x00\n        /* \"#utility.yul\":2673:2675   */\n      0x20\n        /* \"#utility.yul\":2661:2670   */\n      dup3\n        /* \"#utility.yul\":2652:2659   */\n      dup5\n        /* \"#utility.yul\":2648:2671   */\n      sub\n        /* \"#utility.yul\":2644:2676   */\n      slt\n        /* \"#utility.yul\":2641:2760   */\n      iszero\n      tag_72\n      jumpi\n        /* \"#utility.yul\":2679:2758   */\n      tag_73\n      tag_21\n      jump\t// in\n    tag_73:\n        /* \"#utility.yul\":2641:2760   */\n    tag_72:\n        /* \"#utility.yul\":2827:2828   */\n      0x00\n        /* \"#utility.yul\":2816:2825   */\n      dup3\n        /* \"#utility.yul\":2812:2829   */\n      add\n        /* \"#utility.yul\":2799:2830   */\n      calldataload\n        /* \"#utility.yul\":2857:2875   */\n      0xffffffffffffffff\n        /* \"#utility.yul\":2849:2855   */\n      dup2\n        /* \"#utility.yul\":2846:2876   */\n      gt\n        /* \"#utility.yul\":2843:2960   */\n      iszero\n      tag_74\n      jumpi\n        /* \"#utility.yul\":2879:2958   */\n      tag_75\n      tag_22\n      jump\t// in\n    tag_75:\n        /* \"#utility.yul\":2843:2960   */\n    tag_74:\n        /* \"#utility.yul\":2984:3047   */\n      tag_76\n        /* \"#utility.yul\":3039:3046   */\n      dup5\n        /* \"#utility.yul\":3030:3036   */\n      dup3\n        /* \"#utility.yul\":3019:3028   */\n      dup6\n        /* \"#utility.yul\":3015:3037   */\n      add\n        /* \"#utility.yul\":2984:3047   */\n      tag_32\n      jump\t// in\n    tag_76:\n        /* \"#utility.yul\":2974:3047   */\n      swap2\n      pop\n        /* \"#utility.yul\":2770:3057   */\n      pop\n        /* \"#utility.yul\":2555:3064   */\n      swap3\n      swap2\n      pop\n      pop\n      jump\t// out\n        /* \"#utility.yul\":3070:3147   */\n    tag_33:\n        /* \"#utility.yul\":3107:3114   */\n      0x00\n        /* \"#utility.yul\":3136:3141   */\n      dup2\n        /* \"#utility.yul\":3125:3141   */\n      swap1\n      pop\n        /* \"#utility.yul\":3070:3147   */\n      swap2\n      swap1\n      pop\n      jump\t// out\n        /* \"#utility.yul\":3153:3271   */\n    tag_34:\n        /* \"#utility.yul\":3240:3264   */\n      tag_79\n        /* \"#utility.yul\":3258:3263   */\n      dup2\n        /* \"#utility.yul\":3240:3264   */\n      tag_33\n      jump\t// in\n    tag_79:\n        /* \"#utility.yul\":3235:3238   */\n      dup3\n        /* \"#utility.yul\":3228:3265   */\n      mstore\n        /* \"#utility.yul\":3153:3271   */\n      pop\n      pop\n      jump\t// out\n        /* \"#utility.yul\":3277:3499   */\n    tag_10:\n        /* \"#utility.yul\":3370:3374   */\n      0x00\n        /* \"#utility.yul\":3408:3410   */\n      0x20\n        /* \"#utility.yul\":3397:3406   */\n      dup3\n        /* \"#utility.yul\":3393:3411   */\n      add\n        /* \"#utility.yul\":3385:3411   */\n      swap1\n      pop\n        /* \"#utility.yul\":3421:3492   */\n      tag_81\n        /* \"#utility.yul\":3489:3490   */\n      0x00\n        /* \"#utility.yul\":3478:3487   */\n      dup4\n        /* \"#utility.yul\":3474:3491   */\n      add\n        /* \"#utility.yul\":3465:3471   */\n      dup5\n        /* \"#utility.yul\":3421:3492   */\n      tag_34\n      jump\t// in\n    tag_81:\n        /* \"#utility.yul\":3277:3499   */\n      swap3\n      swap2\n      pop\n      pop\n      jump\t// out\n        /* \"#utility.yul\":3505:3627   */\n    tag_35:\n        /* \"#utility.yul\":3578:3602   */\n      tag_83\n        /* \"#utility.yul\":3596:3601   */\n      dup2\n        /* \"#utility.yul\":3578:3602   */\n      tag_33\n      jump\t// in\n    tag_83:\n        /* \"#utility.yul\":3571:3576   */\n      dup2\n        /* \"#utility.yul\":3568:3603   */\n      eq\n        /* \"#utility.yul\":3558:3621   */\n      tag_84\n      jumpi\n        /* \"#utility.yul\":3617:3618   */\n      0x00\n        /* \"#utility.yul\":3614:3615   */\n      dup1\n        /* \"#utility.yul\":3607:3619   */\n      revert\n        /* \"#utility.yul\":3558:3621   */\n    tag_84:\n        /* \"#utility.yul\":3505:3627   */\n      pop\n      jump\t// out\n        /* \"#utility.yul\":3633:3772   */\n    tag_36:\n        /* \"#utility.yul\":3679:3684   */\n      0x00\n        /* \"#utility.yul\":3717:3723   */\n      dup2\n        /* \"#utility.yul\":3704:3724   */\n      calldataload\n        /* \"#utility.yul\":3695:3724   */\n      swap1\n      pop\n        /* \"#utility.yul\":3733:3766   */\n      tag_86\n        /* \"#utility.yul\":3760:3765   */\n      dup2\n        /* \"#utility.yul\":3733:3766   */\n      tag_35\n      jump\t// in\n    tag_86:\n        /* \"#utility.yul\":3633:3772   */\n      swap3\n      swap2\n      pop\n      pop\n      jump\t// out\n        /* \"#utility.yul\":3778:4432   */\n    tag_13:\n        /* \"#utility.yul\":3856:3862   */\n      0x00\n        /* \"#utility.yul\":3864:3870   */\n      dup1\n        /* \"#utility.yul\":3913:3915   */\n      0x40\n        /* \"#utility.yul\":3901:3910   */\n      dup4\n        /* \"#utility.yul\":3892:3899   */\n      dup6\n        /* \"#utility.yul\":3888:3911   */\n      sub\n        /* \"#utility.yul\":3884:3916   */\n      slt\n        /* \"#utility.yul\":3881:4000   */\n      iszero\n      tag_88\n      jumpi\n        /* \"#utility.yul\":3919:3998   */\n      tag_89\n      tag_21\n      jump\t// in\n    tag_89:\n        /* \"#utility.yul\":3881:4000   */\n    tag_88:\n        /* \"#utility.yul\":4067:4068   */\n      0x00\n        /* \"#utility.yul\":4056:4065   */\n      dup4\n        /* \"#utility.yul\":4052:4069   */\n      add\n        /* \"#utility.yul\":4039:4070   */\n      calldataload\n        /* \"#utility.yul\":4097:4115   */\n      0xffffffffffffffff\n        /* \"#utility.yul\":4089:4095   */\n      dup2\n        /* \"#utility.yul\":4086:4116   */\n      gt\n        /* \"#utility.yul\":4083:4200   */\n      iszero\n      tag_90\n      jumpi\n        /* \"#utility.yul\":4119:4198   */\n      tag_91\n      tag_22\n      jump\t// in\n    tag_91:\n        /* \"#utility.yul\":4083:4200   */\n    tag_90:\n        /* \"#utility.yul\":4224:4287   */\n      tag_92\n        /* \"#utility.yul\":4279:4286   */\n      dup6\n        /* \"#utility.yul\":4270:4276   */\n      dup3\n        /* \"#utility.yul\":4259:4268   */\n      dup7\n        /* \"#utility.yul\":4255:4277   */\n      add\n        /* \"#utility.yul\":4224:4287   */\n      tag_32\n      jump\t// in\n    tag_92:\n        /* \"#utility.yul\":4214:4287   */\n      swap3\n      pop\n        /* \"#utility.yul\":4010:4297   */\n      pop\n        /* \"#utility.yul\":4336:4338   */\n      0x20\n        /* \"#utility.yul\":4362:4415   */\n      tag_93\n        /* \"#utility.yul\":4407:4414   */\n      dup6\n        /* \"#utility.yul\":4398:4404   */\n      dup3\n        /* \"#utility.yul\":4387:4396   */\n      dup7\n        /* \"#utility.yul\":4383:4405   */\n      add\n        /* \"#utility.yul\":4362:4415   */\n      tag_36\n      jump\t// in\n    tag_93:\n        /* \"#utility.yul\":4352:4415   */\n      swap2\n      pop\n        /* \"#utility.yul\":4307:4425   */\n      pop\n        /* \"#utility.yul\":3778:4432   */\n      swap3\n      pop\n      swap3\n      swap1\n      pop\n      jump\t// out\n        /* \"#utility.yul\":4438:4537   */\n    tag_37:\n        /* \"#utility.yul\":4490:4496   */\n      0x00\n        /* \"#utility.yul\":4524:4529   */\n      dup2\n        /* \"#utility.yul\":4518:4530   */\n      mload\n        /* \"#utility.yul\":4508:4530   */\n      swap1\n      pop\n        /* \"#utility.yul\":4438:4537   */\n      swap2\n      swap1\n      pop\n      jump\t// out\n        /* \"#utility.yul\":4543:4691   */\n    tag_38:\n        /* \"#utility.yul\":4645:4656   */\n      0x00\n        /* \"#utility.yul\":4682:4685   */\n      dup2\n        /* \"#utility.yul\":4667:4685   */\n      swap1\n      pop\n        /* \"#utility.yul\":4543:4691   */\n      swap3\n      swap2\n      pop\n      pop\n      jump\t// out\n        /* \"#utility.yul\":4697:4836   */\n    tag_39:\n        /* \"#utility.yul\":4786:4792   */\n      dup3\n        /* \"#utility.yul\":4781:4784   */\n      dup2\n        /* \"#utility.yul\":4776:4779   */\n      dup4\n        /* \"#utility.yul\":4770:4793   */\n      mcopy\n        /* \"#utility.yul\":4827:4828   */\n      0x00\n        /* \"#utility.yul\":4818:4824   */\n      dup4\n        /* \"#utility.yul\":4813:4816   */\n      dup4\n        /* \"#utility.yul\":4809:4825   */\n      add\n        /* \"#utility.yul\":4802:4829   */\n      mstore\n        /* \"#utility.yul\":4697:4836   */\n      pop\n      pop\n      pop\n      jump\t// out\n        /* \"#utility.yul\":4842:5232   */\n    tag_40:\n        /* \"#utility.yul\":4948:4951   */\n      0x00\n        /* \"#utility.yul\":4976:5015   */\n      tag_98\n        /* \"#utility.yul\":5009:5014   */\n      dup3\n        /* \"#utility.yul\":4976:5015   */\n      tag_37\n      jump\t// in\n    tag_98:\n        /* \"#utility.yul\":5031:5120   */\n      tag_99\n        /* \"#utility.yul\":5113:5119   */\n      dup2\n        /* \"#utility.yul\":5108:5111   */\n      dup6\n        /* \"#utility.yul\":5031:5120   */\n      tag_38\n      jump\t// in\n    tag_99:\n        /* \"#utility.yul\":5024:5120   */\n      swap4\n      pop\n        /* \"#utility.yul\":5129:5194   */\n      tag_100\n        /* \"#utility.yul\":5187:5193   */\n      dup2\n        /* \"#utility.yul\":5182:5185   */\n      dup6\n        /* \"#utility.yul\":5175:5179   */\n      0x20\n        /* \"#utility.yul\":5168:5173   */\n      dup7\n        /* \"#utility.yul\":5164:5180   */\n      add\n        /* \"#utility.yul\":5129:5194   */\n      tag_39\n      jump\t// in\n    tag_100:\n        /* \"#utility.yul\":5219:5225   */\n      dup1\n        /* \"#utility.yul\":5214:5217   */\n      dup5\n        /* \"#utility.yul\":5210:5226   */\n      add\n        /* \"#utility.yul\":5203:5226   */\n      swap2\n      pop\n        /* \"#utility.yul\":4952:5232   */\n      pop\n        /* \"#utility.yul\":4842:5232   */\n      swap3\n      swap2\n      pop\n      pop\n      jump\t// out\n        /* \"#utility.yul\":5238:5513   */\n    tag_17:\n        /* \"#utility.yul\":5370:5373   */\n      0x00\n        /* \"#utility.yul\":5392:5487   */\n      tag_102\n        /* \"#utility.yul\":5483:5486   */\n      dup3\n        /* \"#utility.yul\":5474:5480   */\n      dup5\n        /* \"#utility.yul\":5392:5487   */\n      tag_40\n      jump\t// in\n    tag_102:\n        /* \"#utility.yul\":5385:5487   */\n      swap2\n      pop\n        /* \"#utility.yul\":5504:5507   */\n      dup2\n        /* \"#utility.yul\":5497:5507   */\n      swap1\n      pop\n        /* \"#utility.yul\":5238:5513   */\n      swap3\n      swap2\n      pop\n      pop\n      jump\t// out\n\n    auxdata: 0xa264697066735822122087dddbdc2b0dc4a053c42b7d552c72deb2fd1d55db87e1e4bb71fda490d7357b64736f6c634300081a0033\n}\n",
				"bytecode": {
					"linkReferences": {},
					"object": "6080604052348015600e575f80fd5b506103b78061001c5f395ff3fe608060405234801561000f575f80fd5b5060043610610034575f3560e01c8063693ec85e14610038578063f806ab5a14610068575b5f80fd5b610052600480360381019061004d919061021d565b610084565b60405161005f919061027c565b60405180910390f35b610082600480360381019061007d91906102bf565b6100aa565b005b5f8082604051610094919061036b565b9081526020016040518091039020549050919050565b805f836040516100ba919061036b565b9081526020016040518091039020819055505050565b5f604051905090565b5f80fd5b5f80fd5b5f80fd5b5f80fd5b5f601f19601f8301169050919050565b7f4e487b71000000000000000000000000000000000000000000000000000000005f52604160045260245ffd5b61012f826100e9565b810181811067ffffffffffffffff8211171561014e5761014d6100f9565b5b80604052505050565b5f6101606100d0565b905061016c8282610126565b919050565b5f67ffffffffffffffff82111561018b5761018a6100f9565b5b610194826100e9565b9050602081019050919050565b828183375f83830152505050565b5f6101c16101bc84610171565b610157565b9050828152602081018484840111156101dd576101dc6100e5565b5b6101e88482856101a1565b509392505050565b5f82601f830112610204576102036100e1565b5b81356102148482602086016101af565b91505092915050565b5f60208284031215610232576102316100d9565b5b5f82013567ffffffffffffffff81111561024f5761024e6100dd565b5b61025b848285016101f0565b91505092915050565b5f819050919050565b61027681610264565b82525050565b5f60208201905061028f5f83018461026d565b92915050565b61029e81610264565b81146102a8575f80fd5b50565b5f813590506102b981610295565b92915050565b5f80604083850312156102d5576102d46100d9565b5b5f83013567ffffffffffffffff8111156102f2576102f16100dd565b5b6102fe858286016101f0565b925050602061030f858286016102ab565b9150509250929050565b5f81519050919050565b5f81905092915050565b8281835e5f83830152505050565b5f61034582610319565b61034f8185610323565b935061035f81856020860161032d565b80840191505092915050565b5f610376828461033b565b91508190509291505056fea264697066735822122087dddbdc2b0dc4a053c42b7d552c72deb2fd1d55db87e1e4bb71fda490d7357b64736f6c634300081a0033",
					"opcodes": "PUSH1 0x80 PUSH1 0x40 MSTORE CALLVALUE DUP1 ISZERO PUSH1 0xE JUMPI PUSH0 DUP1 REVERT JUMPDEST POP PUSH2 0x3B7 DUP1 PUSH2 0x1C PUSH0 CODECOPY PUSH0 RETURN INVALID PUSH1 0x80 PUSH1 0x40 MSTORE CALLVALUE DUP1 ISZERO PUSH2 0xF JUMPI PUSH0 DUP1 REVERT JUMPDEST POP PUSH1 0x4 CALLDATASIZE LT PUSH2 0x34 JUMPI PUSH0 CALLDATALOAD PUSH1 0xE0 SHR DUP1 PUSH4 0x693EC85E EQ PUSH2 0x38 JUMPI DUP1 PUSH4 0xF806AB5A EQ PUSH2 0x68 JUMPI JUMPDEST PUSH0 DUP1 REVERT JUMPDEST PUSH2 0x52 PUSH1 0x4 DUP1 CALLDATASIZE SUB DUP2 ADD SWAP1 PUSH2 0x4D SWAP2 SWAP1 PUSH2 0x21D JUMP JUMPDEST PUSH2 0x84 JUMP JUMPDEST PUSH1 0x40 MLOAD PUSH2 0x5F SWAP2 SWAP1 PUSH2 0x27C JUMP JUMPDEST PUSH1 0x40 MLOAD DUP1 SWAP2 SUB SWAP1 RETURN JUMPDEST PUSH2 0x82 PUSH1 0x4 DUP1 CALLDATASIZE SUB DUP2 ADD SWAP1 PUSH2 0x7D SWAP2 SWAP1 PUSH2 0x2BF JUMP JUMPDEST PUSH2 0xAA JUMP JUMPDEST STOP JUMPDEST PUSH0 DUP1 DUP3 PUSH1 0x40 MLOAD PUSH2 0x94 SWAP2 SWAP1 PUSH2 0x36B JUMP JUMPDEST SWAP1 DUP2 MSTORE PUSH1 0x20 ADD PUSH1 0x40 MLOAD DUP1 SWAP2 SUB SWAP1 KECCAK256 SLOAD SWAP1 POP SWAP2 SWAP1 POP JUMP JUMPDEST DUP1 PUSH0 DUP4 PUSH1 0x40 MLOAD PUSH2 0xBA SWAP2 SWAP1 PUSH2 0x36B JUMP JUMPDEST SWAP1 DUP2 MSTORE PUSH1 0x20 ADD PUSH1 0x40 MLOAD DUP1 SWAP2 SUB SWAP1 KECCAK256 DUP2 SWAP1 SSTORE POP POP POP JUMP JUMPDEST PUSH0 PUSH1 0x40 MLOAD SWAP1 POP SWAP1 JUMP JUMPDEST PUSH0 DUP1 REVERT JUMPDEST PUSH0 DUP1 REVERT JUMPDEST PUSH0 DUP1 REVERT JUMPDEST PUSH0 DUP1 REVERT JUMPDEST PUSH0 PUSH1 0x1F NOT PUSH1 0x1F DUP4 ADD AND SWAP1 POP SWAP2 SWAP1 POP JUMP JUMPDEST PUSH32 0x4E487B7100000000000000000000000000000000000000000000000000000000 PUSH0 MSTORE PUSH1 0x41 PUSH1 0x4 MSTORE PUSH1 0x24 PUSH0 REVERT JUMPDEST PUSH2 0x12F DUP3 PUSH2 0xE9 JUMP JUMPDEST DUP2 ADD DUP2 DUP2 LT PUSH8 0xFFFFFFFFFFFFFFFF DUP3 GT OR ISZERO PUSH2 0x14E JUMPI PUSH2 0x14D PUSH2 0xF9 JUMP JUMPDEST JUMPDEST DUP1 PUSH1 0x40 MSTORE POP POP POP JUMP JUMPDEST PUSH0 PUSH2 0x160 PUSH2 0xD0 JUMP JUMPDEST SWAP1 POP PUSH2 0x16C DUP3 DUP3 PUSH2 0x126 JUMP JUMPDEST SWAP2 SWAP1 POP JUMP JUMPDEST PUSH0 PUSH8 0xFFFFFFFFFFFFFFFF DUP3 GT ISZERO PUSH2 0x18B JUMPI PUSH2 0x18A PUSH2 0xF9 JUMP JUMPDEST JUMPDEST PUSH2 0x194 DUP3 PUSH2 0xE9 JUMP JUMPDEST SWAP1 POP PUSH1 0x20 DUP2 ADD SWAP1 POP SWAP2 SWAP1 POP JUMP JUMPDEST DUP3 DUP2 DUP4 CALLDATACOPY PUSH0 DUP4 DUP4 ADD MSTORE POP POP POP JUMP JUMPDEST PUSH0 PUSH2 0x1C1 PUSH2 0x1BC DUP5 PUSH2 0x171 JUMP JUMPDEST PUSH2 0x157 JUMP JUMPDEST SWAP1 POP DUP3 DUP2 MSTORE PUSH1 0x20 DUP2 ADD DUP5 DUP5 DUP5 ADD GT ISZERO PUSH2 0x1DD JUMPI PUSH2 0x1DC PUSH2 0xE5 JUMP JUMPDEST JUMPDEST PUSH2 0x1E8 DUP5 DUP3 DUP6 PUSH2 0x1A1 JUMP JUMPDEST POP SWAP4 SWAP3 POP POP POP JUMP JUMPDEST PUSH0 DUP3 PUSH1 0x1F DUP4 ADD SLT PUSH2 0x204 JUMPI PUSH2 0x203 PUSH2 0xE1 JUMP JUMPDEST JUMPDEST DUP2 CALLDATALOAD PUSH2 0x214 DUP5 DUP3 PUSH1 0x20 DUP7 ADD PUSH2 0x1AF JUMP JUMPDEST SWAP2 POP POP SWAP3 SWAP2 POP POP JUMP JUMPDEST PUSH0 PUSH1 0x20 DUP3 DUP5 SUB SLT ISZERO PUSH2 0x232 JUMPI PUSH2 0x231 PUSH2 0xD9 JUMP JUMPDEST JUMPDEST PUSH0 DUP3 ADD CALLDATALOAD PUSH8 0xFFFFFFFFFFFFFFFF DUP2 GT ISZERO PUSH2 0x24F JUMPI PUSH2 0x24E PUSH2 0xDD JUMP JUMPDEST JUMPDEST PUSH2 0x25B DUP5 DUP3 DUP6 ADD PUSH2 0x1F0 JUMP JUMPDEST SWAP2 POP POP SWAP3 SWAP2 POP POP JUMP JUMPDEST PUSH0 DUP2 SWAP1 POP SWAP2 SWAP1 POP JUMP JUMPDEST PUSH2 0x276 DUP2 PUSH2 0x264 JUMP JUMPDEST DUP3 MSTORE POP POP JUMP JUMPDEST PUSH0 PUSH1 0x20 DUP3 ADD SWAP1 POP PUSH2 0x28F PUSH0 DUP4 ADD DUP5 PUSH2 0x26D JUMP JUMPDEST SWAP3 SWAP2 POP POP JUMP JUMPDEST PUSH2 0x29E DUP2 PUSH2 0x264 JUMP JUMPDEST DUP2 EQ PUSH2 0x2A8 JUMPI PUSH0 DUP1 REVERT JUMPDEST POP JUMP JUMPDEST PUSH0 DUP2 CALLDATALOAD SWAP1 POP PUSH2 0x2B9 DUP2 PUSH2 0x295 JUMP JUMPDEST SWAP3 SWAP2 POP POP JUMP JUMPDEST PUSH0 DUP1 PUSH1 0x40 DUP4 DUP6 SUB SLT ISZERO PUSH2 0x2D5 JUMPI PUSH2 0x2D4 PUSH2 0xD9 JUMP JUMPDEST JUMPDEST PUSH0 DUP4 ADD CALLDATALOAD PUSH8 0xFFFFFFFFFFFFFFFF DUP2 GT ISZERO PUSH2 0x2F2 JUMPI PUSH2 0x2F1 PUSH2 0xDD JUMP JUMPDEST JUMPDEST PUSH2 0x2FE DUP6 DUP3 DUP7 ADD PUSH2 0x1F0 JUMP JUMPDEST SWAP3 POP POP PUSH1 0x20 PUSH2 0x30F DUP6 DUP3 DUP7 ADD PUSH2 0x2AB JUMP JUMPDEST SWAP2 POP POP SWAP3 POP SWAP3 SWAP1 POP JUMP JUMPDEST PUSH0 DUP2 MLOAD SWAP1 POP SWAP2 SWAP1 POP JUMP JUMPDEST PUSH0 DUP2 SWAP1 POP SWAP3 SWAP2 POP POP JUMP JUMPDEST DUP3 DUP2 DUP4 MCOPY PUSH0 DUP4 DUP4 ADD MSTORE POP POP POP JUMP JUMPDEST PUSH0 PUSH2 0x345 DUP3 PUSH2 0x319 JUMP JUMPDEST PUSH2 0x34F DUP2 DUP6 PUSH2 0x323 JUMP JUMPDEST SWAP4 POP PUSH2 0x35F DUP2 DUP6 PUSH1 0x20 DUP7 ADD PUSH2 0x32D JUMP JUMPDEST DUP1 DUP5 ADD SWAP2 POP POP SWAP3 SWAP2 POP POP JUMP JUMPDEST PUSH0 PUSH2 0x376 DUP3 DUP5 PUSH2 0x33B JUMP JUMPDEST SWAP2 POP DUP2 SWAP1 POP SWAP3 SWAP2 POP POP JUMP INVALID LOG2 PUSH5 0x6970667358 0x22 SLT KECCAK256 DUP8 0xDD 0xDB 0xDC 0x2B 0xD 0xC4 LOG0 MSTORE8 0xC4 0x2B PUSH30 0x552C72DEB2FD1D55DB87E1E4BB71FDA490D7357B64736F6C634300081A00 CALLER "
				},
				"gasEstimates": {
					"creation": {
						"codeDepositCost": "190200",
						"executionCost": "230",
						"totalCost": "190430"
					},
					"external": {
						"get(string)": "infinite",
						"push(string,uint256)": "infinite"
					}
				},
				"methodIdentifiers": {
					"get(string)": "693ec85e",
					"push(string,uint256)": "f806ab5a"
				}
			},
			"storageLayout": {
				"storage": [
					{
						"astId": 267,
						"contract": "solidity/solidity11~20.sol:Q18",
						"label": "map_Birthday",
						"offset": 0,
						"slot": "0",
						"type": "t_mapping(t_string_memory_ptr,t_uint256)"
					}
				],
				"types": {
					"t_mapping(t_string_memory_ptr,t_uint256)": {
						"encoding": "mapping",
						"key": "t_string_memory_ptr",
						"label": "mapping(string => uint256)",
						"numberOfBytes": "32",
						"value": "t_uint256"
					},
					"t_string_memory_ptr": {
						"encoding": "bytes",
						"label": "string",
						"numberOfBytes": "32"
					},
					"t_uint256": {
						"encoding": "inplace",
						"label": "uint256",
						"numberOfBytes": "32"
					}
				}
			},
			"userdoc": {
				"kind": "user",
				"methods": {},
				"version": 1
			}
		}
	}
}