{
	"solidity/solidity31~40.sol": {
		"Q39": {
			"abi": [
				{
					"inputs": [
						{
							"internalType": "uint256",
							"name": "_n",
							"type": "uint256"
						}
					],
					"name": "countMultiples",
					"outputs": [
						{
							"internalType": "uint256",
							"name": "",
							"type": "uint256"
						},
						{
							"internalType": "uint256",
							"name": "",
							"type": "uint256"
						},
						{
							"internalType": "uint256",
							"name": "",
							"type": "uint256"
						},
						{
							"internalType": "uint256",
							"name": "",
							"type": "uint256"
						}
					],
					"stateMutability": "pure",
					"type": "function"
				}
			],
			"devdoc": {
				"kind": "dev",
				"methods": {},
				"version": 1
			},
			"evm": {
				"assembly": "    /* \"solidity/solidity31~40.sol\":5769:6399  contract Q39 {... */\n  mstore(0x40, 0x80)\n  callvalue\n  dup1\n  iszero\n  tag_1\n  jumpi\n  0x00\n  dup1\n  revert\ntag_1:\n  pop\n  dataSize(sub_0)\n  dup1\n  dataOffset(sub_0)\n  0x00\n  codecopy\n  0x00\n  return\nstop\n\nsub_0: assembly {\n        /* \"solidity/solidity31~40.sol\":5769:6399  contract Q39 {... */\n      mstore(0x40, 0x80)\n      callvalue\n      dup1\n      iszero\n      tag_1\n      jumpi\n      0x00\n      dup1\n      revert\n    tag_1:\n      pop\n      jumpi(tag_2, lt(calldatasize, 0x04))\n      shr(0xe0, calldataload(0x00))\n      dup1\n      0x78c66537\n      eq\n      tag_3\n      jumpi\n    tag_2:\n      0x00\n      dup1\n      revert\n        /* \"solidity/solidity31~40.sol\":6136:6397  function countMultiples(uint _n) public pure returns (uint, uint, uint, uint) {... */\n    tag_3:\n      tag_4\n      0x04\n      dup1\n      calldatasize\n      sub\n      dup2\n      add\n      swap1\n      tag_5\n      swap2\n      swap1\n      tag_6\n      jump\t// in\n    tag_5:\n      tag_7\n      jump\t// in\n    tag_4:\n      mload(0x40)\n      tag_8\n      swap5\n      swap4\n      swap3\n      swap2\n      swap1\n      tag_9\n      jump\t// in\n    tag_8:\n      mload(0x40)\n      dup1\n      swap2\n      sub\n      swap1\n      return\n    tag_7:\n        /* \"solidity/solidity31~40.sol\":6190:6194  uint */\n      0x00\n        /* \"solidity/solidity31~40.sol\":6196:6200  uint */\n      dup1\n        /* \"solidity/solidity31~40.sol\":6202:6206  uint */\n      0x00\n        /* \"solidity/solidity31~40.sol\":6208:6212  uint */\n      dup1\n        /* \"solidity/solidity31~40.sol\":6230:6241  uint count2 */\n      0x00\n        /* \"solidity/solidity31~40.sol\":6249:6250  2 */\n      0x02\n        /* \"solidity/solidity31~40.sol\":6244:6246  _n */\n      dup7\n        /* \"solidity/solidity31~40.sol\":6244:6250  _n / 2 */\n      tag_11\n      swap2\n      swap1\n      tag_12\n      jump\t// in\n    tag_11:\n        /* \"solidity/solidity31~40.sol\":6230:6250  uint count2 = _n / 2 */\n      swap1\n      pop\n        /* \"solidity/solidity31~40.sol\":6260:6271  uint count3 */\n      0x00\n        /* \"solidity/solidity31~40.sol\":6279:6280  3 */\n      0x03\n        /* \"solidity/solidity31~40.sol\":6274:6276  _n */\n      dup8\n        /* \"solidity/solidity31~40.sol\":6274:6280  _n / 3 */\n      tag_13\n      swap2\n      swap1\n      tag_12\n      jump\t// in\n    tag_13:\n        /* \"solidity/solidity31~40.sol\":6260:6280  uint count3 = _n / 3 */\n      swap1\n      pop\n        /* \"solidity/solidity31~40.sol\":6290:6301  uint count5 */\n      0x00\n        /* \"solidity/solidity31~40.sol\":6309:6310  5 */\n      0x05\n        /* \"solidity/solidity31~40.sol\":6304:6306  _n */\n      dup9\n        /* \"solidity/solidity31~40.sol\":6304:6310  _n / 5 */\n      tag_14\n      swap2\n      swap1\n      tag_12\n      jump\t// in\n    tag_14:\n        /* \"solidity/solidity31~40.sol\":6290:6310  uint count5 = _n / 5 */\n      swap1\n      pop\n        /* \"solidity/solidity31~40.sol\":6320:6331  uint count7 */\n      0x00\n        /* \"solidity/solidity31~40.sol\":6339:6340  7 */\n      0x07\n        /* \"solidity/solidity31~40.sol\":6334:6336  _n */\n      dup10\n        /* \"solidity/solidity31~40.sol\":6334:6340  _n / 7 */\n      tag_15\n      swap2\n      swap1\n      tag_12\n      jump\t// in\n    tag_15:\n        /* \"solidity/solidity31~40.sol\":6320:6340  uint count7 = _n / 7 */\n      swap1\n      pop\n        /* \"solidity/solidity31~40.sol\":6359:6365  count2 */\n      dup4\n        /* \"solidity/solidity31~40.sol\":6367:6373  count3 */\n      dup4\n        /* \"solidity/solidity31~40.sol\":6375:6381  count5 */\n      dup4\n        /* \"solidity/solidity31~40.sol\":6383:6389  count7 */\n      dup4\n        /* \"solidity/solidity31~40.sol\":6351:6390  return (count2, count3, count5, count7) */\n      swap8\n      pop\n      swap8\n      pop\n      swap8\n      pop\n      swap8\n      pop\n      pop\n      pop\n      pop\n      pop\n        /* \"solidity/solidity31~40.sol\":6136:6397  function countMultiples(uint _n) public pure returns (uint, uint, uint, uint) {... */\n      swap2\n      swap4\n      pop\n      swap2\n      swap4\n      jump\t// out\n        /* \"#utility.yul\":88:205   */\n    tag_17:\n        /* \"#utility.yul\":197:198   */\n      0x00\n        /* \"#utility.yul\":194:195   */\n      dup1\n        /* \"#utility.yul\":187:199   */\n      revert\n        /* \"#utility.yul\":334:411   */\n    tag_19:\n        /* \"#utility.yul\":371:378   */\n      0x00\n        /* \"#utility.yul\":400:405   */\n      dup2\n        /* \"#utility.yul\":389:405   */\n      swap1\n      pop\n        /* \"#utility.yul\":334:411   */\n      swap2\n      swap1\n      pop\n      jump\t// out\n        /* \"#utility.yul\":417:539   */\n    tag_20:\n        /* \"#utility.yul\":490:514   */\n      tag_31\n        /* \"#utility.yul\":508:513   */\n      dup2\n        /* \"#utility.yul\":490:514   */\n      tag_19\n      jump\t// in\n    tag_31:\n        /* \"#utility.yul\":483:488   */\n      dup2\n        /* \"#utility.yul\":480:515   */\n      eq\n        /* \"#utility.yul\":470:533   */\n      tag_32\n      jumpi\n        /* \"#utility.yul\":529:530   */\n      0x00\n        /* \"#utility.yul\":526:527   */\n      dup1\n        /* \"#utility.yul\":519:531   */\n      revert\n        /* \"#utility.yul\":470:533   */\n    tag_32:\n        /* \"#utility.yul\":417:539   */\n      pop\n      jump\t// out\n        /* \"#utility.yul\":545:684   */\n    tag_21:\n        /* \"#utility.yul\":591:596   */\n      0x00\n        /* \"#utility.yul\":629:635   */\n      dup2\n        /* \"#utility.yul\":616:636   */\n      calldataload\n        /* \"#utility.yul\":607:636   */\n      swap1\n      pop\n        /* \"#utility.yul\":645:678   */\n      tag_34\n        /* \"#utility.yul\":672:677   */\n      dup2\n        /* \"#utility.yul\":645:678   */\n      tag_20\n      jump\t// in\n    tag_34:\n        /* \"#utility.yul\":545:684   */\n      swap3\n      swap2\n      pop\n      pop\n      jump\t// out\n        /* \"#utility.yul\":690:1019   */\n    tag_6:\n        /* \"#utility.yul\":749:755   */\n      0x00\n        /* \"#utility.yul\":798:800   */\n      0x20\n        /* \"#utility.yul\":786:795   */\n      dup3\n        /* \"#utility.yul\":777:784   */\n      dup5\n        /* \"#utility.yul\":773:796   */\n      sub\n        /* \"#utility.yul\":769:801   */\n      slt\n        /* \"#utility.yul\":766:885   */\n      iszero\n      tag_36\n      jumpi\n        /* \"#utility.yul\":804:883   */\n      tag_37\n      tag_17\n      jump\t// in\n    tag_37:\n        /* \"#utility.yul\":766:885   */\n    tag_36:\n        /* \"#utility.yul\":924:925   */\n      0x00\n        /* \"#utility.yul\":949:1002   */\n      tag_38\n        /* \"#utility.yul\":994:1001   */\n      dup5\n        /* \"#utility.yul\":985:991   */\n      dup3\n        /* \"#utility.yul\":974:983   */\n      dup6\n        /* \"#utility.yul\":970:992   */\n      add\n        /* \"#utility.yul\":949:1002   */\n      tag_21\n      jump\t// in\n    tag_38:\n        /* \"#utility.yul\":939:1002   */\n      swap2\n      pop\n        /* \"#utility.yul\":895:1012   */\n      pop\n        /* \"#utility.yul\":690:1019   */\n      swap3\n      swap2\n      pop\n      pop\n      jump\t// out\n        /* \"#utility.yul\":1025:1143   */\n    tag_22:\n        /* \"#utility.yul\":1112:1136   */\n      tag_40\n        /* \"#utility.yul\":1130:1135   */\n      dup2\n        /* \"#utility.yul\":1112:1136   */\n      tag_19\n      jump\t// in\n    tag_40:\n        /* \"#utility.yul\":1107:1110   */\n      dup3\n        /* \"#utility.yul\":1100:1137   */\n      mstore\n        /* \"#utility.yul\":1025:1143   */\n      pop\n      pop\n      jump\t// out\n        /* \"#utility.yul\":1149:1702   */\n    tag_9:\n        /* \"#utility.yul\":1326:1330   */\n      0x00\n        /* \"#utility.yul\":1364:1367   */\n      0x80\n        /* \"#utility.yul\":1353:1362   */\n      dup3\n        /* \"#utility.yul\":1349:1368   */\n      add\n        /* \"#utility.yul\":1341:1368   */\n      swap1\n      pop\n        /* \"#utility.yul\":1378:1449   */\n      tag_42\n        /* \"#utility.yul\":1446:1447   */\n      0x00\n        /* \"#utility.yul\":1435:1444   */\n      dup4\n        /* \"#utility.yul\":1431:1448   */\n      add\n        /* \"#utility.yul\":1422:1428   */\n      dup8\n        /* \"#utility.yul\":1378:1449   */\n      tag_22\n      jump\t// in\n    tag_42:\n        /* \"#utility.yul\":1459:1531   */\n      tag_43\n        /* \"#utility.yul\":1527:1529   */\n      0x20\n        /* \"#utility.yul\":1516:1525   */\n      dup4\n        /* \"#utility.yul\":1512:1530   */\n      add\n        /* \"#utility.yul\":1503:1509   */\n      dup7\n        /* \"#utility.yul\":1459:1531   */\n      tag_22\n      jump\t// in\n    tag_43:\n        /* \"#utility.yul\":1541:1613   */\n      tag_44\n        /* \"#utility.yul\":1609:1611   */\n      0x40\n        /* \"#utility.yul\":1598:1607   */\n      dup4\n        /* \"#utility.yul\":1594:1612   */\n      add\n        /* \"#utility.yul\":1585:1591   */\n      dup6\n        /* \"#utility.yul\":1541:1613   */\n      tag_22\n      jump\t// in\n    tag_44:\n        /* \"#utility.yul\":1623:1695   */\n      tag_45\n        /* \"#utility.yul\":1691:1693   */\n      0x60\n        /* \"#utility.yul\":1680:1689   */\n      dup4\n        /* \"#utility.yul\":1676:1694   */\n      add\n        /* \"#utility.yul\":1667:1673   */\n      dup5\n        /* \"#utility.yul\":1623:1695   */\n      tag_22\n      jump\t// in\n    tag_45:\n        /* \"#utility.yul\":1149:1702   */\n      swap6\n      swap5\n      pop\n      pop\n      pop\n      pop\n      pop\n      jump\t// out\n        /* \"#utility.yul\":1708:1888   */\n    tag_23:\n        /* \"#utility.yul\":1756:1833   */\n      0x4e487b7100000000000000000000000000000000000000000000000000000000\n        /* \"#utility.yul\":1753:1754   */\n      0x00\n        /* \"#utility.yul\":1746:1834   */\n      mstore\n        /* \"#utility.yul\":1853:1857   */\n      0x12\n        /* \"#utility.yul\":1850:1851   */\n      0x04\n        /* \"#utility.yul\":1843:1858   */\n      mstore\n        /* \"#utility.yul\":1877:1881   */\n      0x24\n        /* \"#utility.yul\":1874:1875   */\n      0x00\n        /* \"#utility.yul\":1867:1882   */\n      revert\n        /* \"#utility.yul\":2080:2265   */\n    tag_12:\n        /* \"#utility.yul\":2120:2121   */\n      0x00\n        /* \"#utility.yul\":2137:2157   */\n      tag_49\n        /* \"#utility.yul\":2155:2156   */\n      dup3\n        /* \"#utility.yul\":2137:2157   */\n      tag_19\n      jump\t// in\n    tag_49:\n        /* \"#utility.yul\":2132:2157   */\n      swap2\n      pop\n        /* \"#utility.yul\":2171:2191   */\n      tag_50\n        /* \"#utility.yul\":2189:2190   */\n      dup4\n        /* \"#utility.yul\":2171:2191   */\n      tag_19\n      jump\t// in\n    tag_50:\n        /* \"#utility.yul\":2166:2191   */\n      swap3\n      pop\n        /* \"#utility.yul\":2210:2211   */\n      dup3\n        /* \"#utility.yul\":2200:2235   */\n      tag_51\n      jumpi\n        /* \"#utility.yul\":2215:2233   */\n      tag_52\n      tag_23\n      jump\t// in\n    tag_52:\n        /* \"#utility.yul\":2200:2235   */\n    tag_51:\n        /* \"#utility.yul\":2257:2258   */\n      dup3\n        /* \"#utility.yul\":2254:2255   */\n      dup3\n        /* \"#utility.yul\":2250:2259   */\n      div\n        /* \"#utility.yul\":2245:2259   */\n      swap1\n      pop\n        /* \"#utility.yul\":2080:2265   */\n      swap3\n      swap2\n      pop\n      pop\n      jump\t// out\n\n    auxdata: 0xa2646970667358221220524057a433a359b65bb0a5c07c16b34a9689f77462f2c391c5db7f8098d10ae964736f6c634300081a0033\n}\n",
				"bytecode": {
					"linkReferences": {},
					"object": "6080604052348015600e575f80fd5b506102028061001c5f395ff3fe608060405234801561000f575f80fd5b5060043610610029575f3560e01c806378c665371461002d575b5f80fd5b610047600480360381019061004291906100f2565b610060565b604051610057949392919061012c565b60405180910390f35b5f805f805f600286610072919061019c565b90505f600387610082919061019c565b90505f600588610092919061019c565b90505f6007896100a2919061019c565b9050838383839750975097509750505050509193509193565b5f80fd5b5f819050919050565b6100d1816100bf565b81146100db575f80fd5b50565b5f813590506100ec816100c8565b92915050565b5f60208284031215610107576101066100bb565b5b5f610114848285016100de565b91505092915050565b610126816100bf565b82525050565b5f60808201905061013f5f83018761011d565b61014c602083018661011d565b610159604083018561011d565b610166606083018461011d565b95945050505050565b7f4e487b71000000000000000000000000000000000000000000000000000000005f52601260045260245ffd5b5f6101a6826100bf565b91506101b1836100bf565b9250826101c1576101c061016f565b5b82820490509291505056fea2646970667358221220524057a433a359b65bb0a5c07c16b34a9689f77462f2c391c5db7f8098d10ae964736f6c634300081a0033",
					"opcodes": "PUSH1 0x80 PUSH1 0x40 MSTORE CALLVALUE DUP1 ISZERO PUSH1 0xE JUMPI PUSH0 DUP1 REVERT JUMPDEST POP PUSH2 0x202 DUP1 PUSH2 0x1C PUSH0 CODECOPY PUSH0 RETURN INVALID PUSH1 0x80 PUSH1 0x40 MSTORE CALLVALUE DUP1 ISZERO PUSH2 0xF JUMPI PUSH0 DUP1 REVERT JUMPDEST POP PUSH1 0x4 CALLDATASIZE LT PUSH2 0x29 JUMPI PUSH0 CALLDATALOAD PUSH1 0xE0 SHR DUP1 PUSH4 0x78C66537 EQ PUSH2 0x2D JUMPI JUMPDEST PUSH0 DUP1 REVERT JUMPDEST PUSH2 0x47 PUSH1 0x4 DUP1 CALLDATASIZE SUB DUP2 ADD SWAP1 PUSH2 0x42 SWAP2 SWAP1 PUSH2 0xF2 JUMP JUMPDEST PUSH2 0x60 JUMP JUMPDEST PUSH1 0x40 MLOAD PUSH2 0x57 SWAP5 SWAP4 SWAP3 SWAP2 SWAP1 PUSH2 0x12C JUMP JUMPDEST PUSH1 0x40 MLOAD DUP1 SWAP2 SUB SWAP1 RETURN JUMPDEST PUSH0 DUP1 PUSH0 DUP1 PUSH0 PUSH1 0x2 DUP7 PUSH2 0x72 SWAP2 SWAP1 PUSH2 0x19C JUMP JUMPDEST SWAP1 POP PUSH0 PUSH1 0x3 DUP8 PUSH2 0x82 SWAP2 SWAP1 PUSH2 0x19C JUMP JUMPDEST SWAP1 POP PUSH0 PUSH1 0x5 DUP9 PUSH2 0x92 SWAP2 SWAP1 PUSH2 0x19C JUMP JUMPDEST SWAP1 POP PUSH0 PUSH1 0x7 DUP10 PUSH2 0xA2 SWAP2 SWAP1 PUSH2 0x19C JUMP JUMPDEST SWAP1 POP DUP4 DUP4 DUP4 DUP4 SWAP8 POP SWAP8 POP SWAP8 POP SWAP8 POP POP POP POP POP SWAP2 SWAP4 POP SWAP2 SWAP4 JUMP JUMPDEST PUSH0 DUP1 REVERT JUMPDEST PUSH0 DUP2 SWAP1 POP SWAP2 SWAP1 POP JUMP JUMPDEST PUSH2 0xD1 DUP2 PUSH2 0xBF JUMP JUMPDEST DUP2 EQ PUSH2 0xDB JUMPI PUSH0 DUP1 REVERT JUMPDEST POP JUMP JUMPDEST PUSH0 DUP2 CALLDATALOAD SWAP1 POP PUSH2 0xEC DUP2 PUSH2 0xC8 JUMP JUMPDEST SWAP3 SWAP2 POP POP JUMP JUMPDEST PUSH0 PUSH1 0x20 DUP3 DUP5 SUB SLT ISZERO PUSH2 0x107 JUMPI PUSH2 0x106 PUSH2 0xBB JUMP JUMPDEST JUMPDEST PUSH0 PUSH2 0x114 DUP5 DUP3 DUP6 ADD PUSH2 0xDE JUMP JUMPDEST SWAP2 POP POP SWAP3 SWAP2 POP POP JUMP JUMPDEST PUSH2 0x126 DUP2 PUSH2 0xBF JUMP JUMPDEST DUP3 MSTORE POP POP JUMP JUMPDEST PUSH0 PUSH1 0x80 DUP3 ADD SWAP1 POP PUSH2 0x13F PUSH0 DUP4 ADD DUP8 PUSH2 0x11D JUMP JUMPDEST PUSH2 0x14C PUSH1 0x20 DUP4 ADD DUP7 PUSH2 0x11D JUMP JUMPDEST PUSH2 0x159 PUSH1 0x40 DUP4 ADD DUP6 PUSH2 0x11D JUMP JUMPDEST PUSH2 0x166 PUSH1 0x60 DUP4 ADD DUP5 PUSH2 0x11D JUMP JUMPDEST SWAP6 SWAP5 POP POP POP POP POP JUMP JUMPDEST PUSH32 0x4E487B7100000000000000000000000000000000000000000000000000000000 PUSH0 MSTORE PUSH1 0x12 PUSH1 0x4 MSTORE PUSH1 0x24 PUSH0 REVERT JUMPDEST PUSH0 PUSH2 0x1A6 DUP3 PUSH2 0xBF JUMP JUMPDEST SWAP2 POP PUSH2 0x1B1 DUP4 PUSH2 0xBF JUMP JUMPDEST SWAP3 POP DUP3 PUSH2 0x1C1 JUMPI PUSH2 0x1C0 PUSH2 0x16F JUMP JUMPDEST JUMPDEST DUP3 DUP3 DIV SWAP1 POP SWAP3 SWAP2 POP POP JUMP INVALID LOG2 PUSH5 0x6970667358 0x22 SLT KECCAK256 MSTORE BLOCKHASH JUMPI LOG4 CALLER LOG3 MSIZE 0xB6 JUMPDEST 0xB0 0xA5 0xC0 PUSH29 0x16B34A9689F77462F2C391C5DB7F8098D10AE964736F6C634300081A00 CALLER "
				},
				"gasEstimates": {
					"creation": {
						"codeDepositCost": "102800",
						"executionCost": "151",
						"totalCost": "102951"
					},
					"external": {
						"countMultiples(uint256)": "infinite"
					}
				},
				"methodIdentifiers": {
					"countMultiples(uint256)": "78c66537"
				}
			},
			"storageLayout": {
				"storage": [],
				"types": null
			},
			"userdoc": {
				"kind": "user",
				"methods": {},
				"version": 1
			}
		}
	}
}