{
	"solidity/solidity31~40.sol": {
		"Q31": {
			"abi": [
				{
					"inputs": [
						{
							"internalType": "string",
							"name": "_name",
							"type": "string"
						}
					],
					"name": "isAliceOrBob",
					"outputs": [
						{
							"internalType": "bool",
							"name": "",
							"type": "bool"
						}
					],
					"stateMutability": "pure",
					"type": "function"
				}
			],
			"devdoc": {
				"kind": "dev",
				"methods": {},
				"version": 1
			},
			"evm": {
				"assembly": "    /* \"solidity/solidity31~40.sol\":72:475  contract Q31 {... */\n  mstore(0x40, 0x80)\n  callvalue\n  dup1\n  iszero\n  tag_1\n  jumpi\n  0x00\n  dup1\n  revert\ntag_1:\n  pop\n  dataSize(sub_0)\n  dup1\n  dataOffset(sub_0)\n  0x00\n  codecopy\n  0x00\n  return\nstop\n\nsub_0: assembly {\n        /* \"solidity/solidity31~40.sol\":72:475  contract Q31 {... */\n      mstore(0x40, 0x80)\n      callvalue\n      dup1\n      iszero\n      tag_1\n      jumpi\n      0x00\n      dup1\n      revert\n    tag_1:\n      pop\n      jumpi(tag_2, lt(calldatasize, 0x04))\n      shr(0xe0, calldataload(0x00))\n      dup1\n      0xf66b9680\n      eq\n      tag_3\n      jumpi\n    tag_2:\n      0x00\n      dup1\n      revert\n        /* \"solidity/solidity31~40.sol\":210:473  function isAliceOrBob(string memory _name) public pure returns (bool) {... */\n    tag_3:\n      tag_4\n      0x04\n      dup1\n      calldatasize\n      sub\n      dup2\n      add\n      swap1\n      tag_5\n      swap2\n      swap1\n      tag_6\n      jump\t// in\n    tag_5:\n      tag_7\n      jump\t// in\n    tag_4:\n      mload(0x40)\n      tag_8\n      swap2\n      swap1\n      tag_9\n      jump\t// in\n    tag_8:\n      mload(0x40)\n      dup1\n      swap2\n      sub\n      swap1\n      return\n    tag_7:\n        /* \"solidity/solidity31~40.sol\":274:278  bool */\n      0x00\n        /* \"solidity/solidity31~40.sol\":346:371  abi.encodePacked(\"Alice\") */\n      add(0x20, mload(0x40))\n      tag_11\n      swap1\n      tag_12\n      jump\t// in\n    tag_11:\n      mload(0x40)\n      0x20\n      dup2\n      dup4\n      sub\n      sub\n      dup2\n      mstore\n      swap1\n      0x40\n      mstore\n        /* \"solidity/solidity31~40.sol\":336:372  keccak256(abi.encodePacked(\"Alice\")) */\n      dup1\n      mload\n      swap1\n      0x20\n      add\n      keccak256\n        /* \"solidity/solidity31~40.sol\":325:330  _name */\n      dup3\n        /* \"solidity/solidity31~40.sol\":308:331  abi.encodePacked(_name) */\n      add(0x20, mload(0x40))\n      tag_13\n      swap2\n      swap1\n      tag_14\n      jump\t// in\n    tag_13:\n      mload(0x40)\n      0x20\n      dup2\n      dup4\n      sub\n      sub\n      dup2\n      mstore\n      swap1\n      0x40\n      mstore\n        /* \"solidity/solidity31~40.sol\":298:332  keccak256(abi.encodePacked(_name)) */\n      dup1\n      mload\n      swap1\n      0x20\n      add\n      keccak256\n        /* \"solidity/solidity31~40.sol\":298:372  keccak256(abi.encodePacked(_name)) == keccak256(abi.encodePacked(\"Alice\")) */\n      eq\n        /* \"solidity/solidity31~40.sol\":298:465  keccak256(abi.encodePacked(_name)) == keccak256(abi.encodePacked(\"Alice\")) || ... */\n      dup1\n      tag_15\n      jumpi\n      pop\n        /* \"solidity/solidity31~40.sol\":441:464  abi.encodePacked(\"Bob\") */\n      add(0x20, mload(0x40))\n      tag_16\n      swap1\n      tag_17\n      jump\t// in\n    tag_16:\n      mload(0x40)\n      0x20\n      dup2\n      dup4\n      sub\n      sub\n      dup2\n      mstore\n      swap1\n      0x40\n      mstore\n        /* \"solidity/solidity31~40.sol\":431:465  keccak256(abi.encodePacked(\"Bob\")) */\n      dup1\n      mload\n      swap1\n      0x20\n      add\n      keccak256\n        /* \"solidity/solidity31~40.sol\":420:425  _name */\n      dup3\n        /* \"solidity/solidity31~40.sol\":403:426  abi.encodePacked(_name) */\n      add(0x20, mload(0x40))\n      tag_18\n      swap2\n      swap1\n      tag_14\n      jump\t// in\n    tag_18:\n      mload(0x40)\n      0x20\n      dup2\n      dup4\n      sub\n      sub\n      dup2\n      mstore\n      swap1\n      0x40\n      mstore\n        /* \"solidity/solidity31~40.sol\":393:427  keccak256(abi.encodePacked(_name)) */\n      dup1\n      mload\n      swap1\n      0x20\n      add\n      keccak256\n        /* \"solidity/solidity31~40.sol\":393:465  keccak256(abi.encodePacked(_name)) == keccak256(abi.encodePacked(\"Bob\")) */\n      eq\n        /* \"solidity/solidity31~40.sol\":298:465  keccak256(abi.encodePacked(_name)) == keccak256(abi.encodePacked(\"Alice\")) || ... */\n    tag_15:\n        /* \"solidity/solidity31~40.sol\":290:466  return (keccak256(abi.encodePacked(_name)) == keccak256(abi.encodePacked(\"Alice\")) || ... */\n      swap1\n      pop\n        /* \"solidity/solidity31~40.sol\":210:473  function isAliceOrBob(string memory _name) public pure returns (bool) {... */\n      swap2\n      swap1\n      pop\n      jump\t// out\n        /* \"#utility.yul\":7:82   */\n    tag_19:\n        /* \"#utility.yul\":40:46   */\n      0x00\n        /* \"#utility.yul\":73:75   */\n      0x40\n        /* \"#utility.yul\":67:76   */\n      mload\n        /* \"#utility.yul\":57:76   */\n      swap1\n      pop\n        /* \"#utility.yul\":7:82   */\n      swap1\n      jump\t// out\n        /* \"#utility.yul\":88:205   */\n    tag_20:\n        /* \"#utility.yul\":197:198   */\n      0x00\n        /* \"#utility.yul\":194:195   */\n      dup1\n        /* \"#utility.yul\":187:199   */\n      revert\n        /* \"#utility.yul\":211:328   */\n    tag_21:\n        /* \"#utility.yul\":320:321   */\n      0x00\n        /* \"#utility.yul\":317:318   */\n      dup1\n        /* \"#utility.yul\":310:322   */\n      revert\n        /* \"#utility.yul\":334:451   */\n    tag_22:\n        /* \"#utility.yul\":443:444   */\n      0x00\n        /* \"#utility.yul\":440:441   */\n      dup1\n        /* \"#utility.yul\":433:445   */\n      revert\n        /* \"#utility.yul\":457:574   */\n    tag_23:\n        /* \"#utility.yul\":566:567   */\n      0x00\n        /* \"#utility.yul\":563:564   */\n      dup1\n        /* \"#utility.yul\":556:568   */\n      revert\n        /* \"#utility.yul\":580:682   */\n    tag_24:\n        /* \"#utility.yul\":621:627   */\n      0x00\n        /* \"#utility.yul\":672:674   */\n      0x1f\n        /* \"#utility.yul\":668:675   */\n      not\n        /* \"#utility.yul\":663:665   */\n      0x1f\n        /* \"#utility.yul\":656:661   */\n      dup4\n        /* \"#utility.yul\":652:666   */\n      add\n        /* \"#utility.yul\":648:676   */\n      and\n        /* \"#utility.yul\":638:676   */\n      swap1\n      pop\n        /* \"#utility.yul\":580:682   */\n      swap2\n      swap1\n      pop\n      jump\t// out\n        /* \"#utility.yul\":688:868   */\n    tag_25:\n        /* \"#utility.yul\":736:813   */\n      0x4e487b7100000000000000000000000000000000000000000000000000000000\n        /* \"#utility.yul\":733:734   */\n      0x00\n        /* \"#utility.yul\":726:814   */\n      mstore\n        /* \"#utility.yul\":833:837   */\n      0x41\n        /* \"#utility.yul\":830:831   */\n      0x04\n        /* \"#utility.yul\":823:838   */\n      mstore\n        /* \"#utility.yul\":857:861   */\n      0x24\n        /* \"#utility.yul\":854:855   */\n      0x00\n        /* \"#utility.yul\":847:862   */\n      revert\n        /* \"#utility.yul\":874:1155   */\n    tag_26:\n        /* \"#utility.yul\":957:984   */\n      tag_51\n        /* \"#utility.yul\":979:983   */\n      dup3\n        /* \"#utility.yul\":957:984   */\n      tag_24\n      jump\t// in\n    tag_51:\n        /* \"#utility.yul\":949:955   */\n      dup2\n        /* \"#utility.yul\":945:985   */\n      add\n        /* \"#utility.yul\":1087:1093   */\n      dup2\n        /* \"#utility.yul\":1075:1085   */\n      dup2\n        /* \"#utility.yul\":1072:1094   */\n      lt\n        /* \"#utility.yul\":1051:1069   */\n      0xffffffffffffffff\n        /* \"#utility.yul\":1039:1049   */\n      dup3\n        /* \"#utility.yul\":1036:1070   */\n      gt\n        /* \"#utility.yul\":1033:1095   */\n      or\n        /* \"#utility.yul\":1030:1118   */\n      iszero\n      tag_52\n      jumpi\n        /* \"#utility.yul\":1098:1116   */\n      tag_53\n      tag_25\n      jump\t// in\n    tag_53:\n        /* \"#utility.yul\":1030:1118   */\n    tag_52:\n        /* \"#utility.yul\":1138:1148   */\n      dup1\n        /* \"#utility.yul\":1134:1136   */\n      0x40\n        /* \"#utility.yul\":1127:1149   */\n      mstore\n        /* \"#utility.yul\":917:1155   */\n      pop\n        /* \"#utility.yul\":874:1155   */\n      pop\n      pop\n      jump\t// out\n        /* \"#utility.yul\":1161:1290   */\n    tag_27:\n        /* \"#utility.yul\":1195:1201   */\n      0x00\n        /* \"#utility.yul\":1222:1242   */\n      tag_55\n      tag_19\n      jump\t// in\n    tag_55:\n        /* \"#utility.yul\":1212:1242   */\n      swap1\n      pop\n        /* \"#utility.yul\":1251:1284   */\n      tag_56\n        /* \"#utility.yul\":1279:1283   */\n      dup3\n        /* \"#utility.yul\":1271:1277   */\n      dup3\n        /* \"#utility.yul\":1251:1284   */\n      tag_26\n      jump\t// in\n    tag_56:\n        /* \"#utility.yul\":1161:1290   */\n      swap2\n      swap1\n      pop\n      jump\t// out\n        /* \"#utility.yul\":1296:1604   */\n    tag_28:\n        /* \"#utility.yul\":1358:1362   */\n      0x00\n        /* \"#utility.yul\":1448:1466   */\n      0xffffffffffffffff\n        /* \"#utility.yul\":1440:1446   */\n      dup3\n        /* \"#utility.yul\":1437:1467   */\n      gt\n        /* \"#utility.yul\":1434:1490   */\n      iszero\n      tag_58\n      jumpi\n        /* \"#utility.yul\":1470:1488   */\n      tag_59\n      tag_25\n      jump\t// in\n    tag_59:\n        /* \"#utility.yul\":1434:1490   */\n    tag_58:\n        /* \"#utility.yul\":1508:1537   */\n      tag_60\n        /* \"#utility.yul\":1530:1536   */\n      dup3\n        /* \"#utility.yul\":1508:1537   */\n      tag_24\n      jump\t// in\n    tag_60:\n        /* \"#utility.yul\":1500:1537   */\n      swap1\n      pop\n        /* \"#utility.yul\":1592:1596   */\n      0x20\n        /* \"#utility.yul\":1586:1590   */\n      dup2\n        /* \"#utility.yul\":1582:1597   */\n      add\n        /* \"#utility.yul\":1574:1597   */\n      swap1\n      pop\n        /* \"#utility.yul\":1296:1604   */\n      swap2\n      swap1\n      pop\n      jump\t// out\n        /* \"#utility.yul\":1610:1758   */\n    tag_29:\n        /* \"#utility.yul\":1708:1714   */\n      dup3\n        /* \"#utility.yul\":1703:1706   */\n      dup2\n        /* \"#utility.yul\":1698:1701   */\n      dup4\n        /* \"#utility.yul\":1685:1715   */\n      calldatacopy\n        /* \"#utility.yul\":1749:1750   */\n      0x00\n        /* \"#utility.yul\":1740:1746   */\n      dup4\n        /* \"#utility.yul\":1735:1738   */\n      dup4\n        /* \"#utility.yul\":1731:1747   */\n      add\n        /* \"#utility.yul\":1724:1751   */\n      mstore\n        /* \"#utility.yul\":1610:1758   */\n      pop\n      pop\n      pop\n      jump\t// out\n        /* \"#utility.yul\":1764:2189   */\n    tag_30:\n        /* \"#utility.yul\":1842:1847   */\n      0x00\n        /* \"#utility.yul\":1867:1933   */\n      tag_63\n        /* \"#utility.yul\":1883:1932   */\n      tag_64\n        /* \"#utility.yul\":1925:1931   */\n      dup5\n        /* \"#utility.yul\":1883:1932   */\n      tag_28\n      jump\t// in\n    tag_64:\n        /* \"#utility.yul\":1867:1933   */\n      tag_27\n      jump\t// in\n    tag_63:\n        /* \"#utility.yul\":1858:1933   */\n      swap1\n      pop\n        /* \"#utility.yul\":1956:1962   */\n      dup3\n        /* \"#utility.yul\":1949:1954   */\n      dup2\n        /* \"#utility.yul\":1942:1963   */\n      mstore\n        /* \"#utility.yul\":1994:1998   */\n      0x20\n        /* \"#utility.yul\":1987:1992   */\n      dup2\n        /* \"#utility.yul\":1983:1999   */\n      add\n        /* \"#utility.yul\":2032:2035   */\n      dup5\n        /* \"#utility.yul\":2023:2029   */\n      dup5\n        /* \"#utility.yul\":2018:2021   */\n      dup5\n        /* \"#utility.yul\":2014:2030   */\n      add\n        /* \"#utility.yul\":2011:2036   */\n      gt\n        /* \"#utility.yul\":2008:2120   */\n      iszero\n      tag_65\n      jumpi\n        /* \"#utility.yul\":2039:2118   */\n      tag_66\n      tag_23\n      jump\t// in\n    tag_66:\n        /* \"#utility.yul\":2008:2120   */\n    tag_65:\n        /* \"#utility.yul\":2129:2183   */\n      tag_67\n        /* \"#utility.yul\":2176:2182   */\n      dup5\n        /* \"#utility.yul\":2171:2174   */\n      dup3\n        /* \"#utility.yul\":2166:2169   */\n      dup6\n        /* \"#utility.yul\":2129:2183   */\n      tag_29\n      jump\t// in\n    tag_67:\n        /* \"#utility.yul\":1848:2189   */\n      pop\n        /* \"#utility.yul\":1764:2189   */\n      swap4\n      swap3\n      pop\n      pop\n      pop\n      jump\t// out\n        /* \"#utility.yul\":2209:2549   */\n    tag_31:\n        /* \"#utility.yul\":2265:2270   */\n      0x00\n        /* \"#utility.yul\":2314:2317   */\n      dup3\n        /* \"#utility.yul\":2307:2311   */\n      0x1f\n        /* \"#utility.yul\":2299:2305   */\n      dup4\n        /* \"#utility.yul\":2295:2312   */\n      add\n        /* \"#utility.yul\":2291:2318   */\n      slt\n        /* \"#utility.yul\":2281:2403   */\n      tag_69\n      jumpi\n        /* \"#utility.yul\":2322:2401   */\n      tag_70\n      tag_22\n      jump\t// in\n    tag_70:\n        /* \"#utility.yul\":2281:2403   */\n    tag_69:\n        /* \"#utility.yul\":2439:2445   */\n      dup2\n        /* \"#utility.yul\":2426:2446   */\n      calldataload\n        /* \"#utility.yul\":2464:2543   */\n      tag_71\n        /* \"#utility.yul\":2539:2542   */\n      dup5\n        /* \"#utility.yul\":2531:2537   */\n      dup3\n        /* \"#utility.yul\":2524:2528   */\n      0x20\n        /* \"#utility.yul\":2516:2522   */\n      dup7\n        /* \"#utility.yul\":2512:2529   */\n      add\n        /* \"#utility.yul\":2464:2543   */\n      tag_30\n      jump\t// in\n    tag_71:\n        /* \"#utility.yul\":2455:2543   */\n      swap2\n      pop\n        /* \"#utility.yul\":2271:2549   */\n      pop\n        /* \"#utility.yul\":2209:2549   */\n      swap3\n      swap2\n      pop\n      pop\n      jump\t// out\n        /* \"#utility.yul\":2555:3064   */\n    tag_6:\n        /* \"#utility.yul\":2624:2630   */\n      0x00\n        /* \"#utility.yul\":2673:2675   */\n      0x20\n        /* \"#utility.yul\":2661:2670   */\n      dup3\n        /* \"#utility.yul\":2652:2659   */\n      dup5\n        /* \"#utility.yul\":2648:2671   */\n      sub\n        /* \"#utility.yul\":2644:2676   */\n      slt\n        /* \"#utility.yul\":2641:2760   */\n      iszero\n      tag_73\n      jumpi\n        /* \"#utility.yul\":2679:2758   */\n      tag_74\n      tag_20\n      jump\t// in\n    tag_74:\n        /* \"#utility.yul\":2641:2760   */\n    tag_73:\n        /* \"#utility.yul\":2827:2828   */\n      0x00\n        /* \"#utility.yul\":2816:2825   */\n      dup3\n        /* \"#utility.yul\":2812:2829   */\n      add\n        /* \"#utility.yul\":2799:2830   */\n      calldataload\n        /* \"#utility.yul\":2857:2875   */\n      0xffffffffffffffff\n        /* \"#utility.yul\":2849:2855   */\n      dup2\n        /* \"#utility.yul\":2846:2876   */\n      gt\n        /* \"#utility.yul\":2843:2960   */\n      iszero\n      tag_75\n      jumpi\n        /* \"#utility.yul\":2879:2958   */\n      tag_76\n      tag_21\n      jump\t// in\n    tag_76:\n        /* \"#utility.yul\":2843:2960   */\n    tag_75:\n        /* \"#utility.yul\":2984:3047   */\n      tag_77\n        /* \"#utility.yul\":3039:3046   */\n      dup5\n        /* \"#utility.yul\":3030:3036   */\n      dup3\n        /* \"#utility.yul\":3019:3028   */\n      dup6\n        /* \"#utility.yul\":3015:3037   */\n      add\n        /* \"#utility.yul\":2984:3047   */\n      tag_31\n      jump\t// in\n    tag_77:\n        /* \"#utility.yul\":2974:3047   */\n      swap2\n      pop\n        /* \"#utility.yul\":2770:3057   */\n      pop\n        /* \"#utility.yul\":2555:3064   */\n      swap3\n      swap2\n      pop\n      pop\n      jump\t// out\n        /* \"#utility.yul\":3070:3160   */\n    tag_32:\n        /* \"#utility.yul\":3104:3111   */\n      0x00\n        /* \"#utility.yul\":3147:3152   */\n      dup2\n        /* \"#utility.yul\":3140:3153   */\n      iszero\n        /* \"#utility.yul\":3133:3154   */\n      iszero\n        /* \"#utility.yul\":3122:3154   */\n      swap1\n      pop\n        /* \"#utility.yul\":3070:3160   */\n      swap2\n      swap1\n      pop\n      jump\t// out\n        /* \"#utility.yul\":3166:3275   */\n    tag_33:\n        /* \"#utility.yul\":3247:3268   */\n      tag_80\n        /* \"#utility.yul\":3262:3267   */\n      dup2\n        /* \"#utility.yul\":3247:3268   */\n      tag_32\n      jump\t// in\n    tag_80:\n        /* \"#utility.yul\":3242:3245   */\n      dup3\n        /* \"#utility.yul\":3235:3269   */\n      mstore\n        /* \"#utility.yul\":3166:3275   */\n      pop\n      pop\n      jump\t// out\n        /* \"#utility.yul\":3281:3491   */\n    tag_9:\n        /* \"#utility.yul\":3368:3372   */\n      0x00\n        /* \"#utility.yul\":3406:3408   */\n      0x20\n        /* \"#utility.yul\":3395:3404   */\n      dup3\n        /* \"#utility.yul\":3391:3409   */\n      add\n        /* \"#utility.yul\":3383:3409   */\n      swap1\n      pop\n        /* \"#utility.yul\":3419:3484   */\n      tag_82\n        /* \"#utility.yul\":3481:3482   */\n      0x00\n        /* \"#utility.yul\":3470:3479   */\n      dup4\n        /* \"#utility.yul\":3466:3483   */\n      add\n        /* \"#utility.yul\":3457:3463   */\n      dup5\n        /* \"#utility.yul\":3419:3484   */\n      tag_33\n      jump\t// in\n    tag_82:\n        /* \"#utility.yul\":3281:3491   */\n      swap3\n      swap2\n      pop\n      pop\n      jump\t// out\n        /* \"#utility.yul\":3497:3645   */\n    tag_34:\n        /* \"#utility.yul\":3599:3610   */\n      0x00\n        /* \"#utility.yul\":3636:3639   */\n      dup2\n        /* \"#utility.yul\":3621:3639   */\n      swap1\n      pop\n        /* \"#utility.yul\":3497:3645   */\n      swap3\n      swap2\n      pop\n      pop\n      jump\t// out\n        /* \"#utility.yul\":3651:3806   */\n    tag_35:\n        /* \"#utility.yul\":3791:3798   */\n      0x416c696365000000000000000000000000000000000000000000000000000000\n        /* \"#utility.yul\":3787:3788   */\n      0x00\n        /* \"#utility.yul\":3779:3785   */\n      dup3\n        /* \"#utility.yul\":3775:3789   */\n      add\n        /* \"#utility.yul\":3768:3799   */\n      mstore\n        /* \"#utility.yul\":3651:3806   */\n      pop\n      jump\t// out\n        /* \"#utility.yul\":3812:4212   */\n    tag_36:\n        /* \"#utility.yul\":3972:3975   */\n      0x00\n        /* \"#utility.yul\":3993:4077   */\n      tag_86\n        /* \"#utility.yul\":4075:4076   */\n      0x05\n        /* \"#utility.yul\":4070:4073   */\n      dup4\n        /* \"#utility.yul\":3993:4077   */\n      tag_34\n      jump\t// in\n    tag_86:\n        /* \"#utility.yul\":3986:4077   */\n      swap2\n      pop\n        /* \"#utility.yul\":4086:4179   */\n      tag_87\n        /* \"#utility.yul\":4175:4178   */\n      dup3\n        /* \"#utility.yul\":4086:4179   */\n      tag_35\n      jump\t// in\n    tag_87:\n        /* \"#utility.yul\":4204:4205   */\n      0x05\n        /* \"#utility.yul\":4199:4202   */\n      dup3\n        /* \"#utility.yul\":4195:4206   */\n      add\n        /* \"#utility.yul\":4188:4206   */\n      swap1\n      pop\n        /* \"#utility.yul\":3812:4212   */\n      swap2\n      swap1\n      pop\n      jump\t// out\n        /* \"#utility.yul\":4218:4599   */\n    tag_12:\n        /* \"#utility.yul\":4403:4406   */\n      0x00\n        /* \"#utility.yul\":4425:4573   */\n      tag_89\n        /* \"#utility.yul\":4569:4572   */\n      dup3\n        /* \"#utility.yul\":4425:4573   */\n      tag_36\n      jump\t// in\n    tag_89:\n        /* \"#utility.yul\":4418:4573   */\n      swap2\n      pop\n        /* \"#utility.yul\":4590:4593   */\n      dup2\n        /* \"#utility.yul\":4583:4593   */\n      swap1\n      pop\n        /* \"#utility.yul\":4218:4599   */\n      swap2\n      swap1\n      pop\n      jump\t// out\n        /* \"#utility.yul\":4605:4704   */\n    tag_37:\n        /* \"#utility.yul\":4657:4663   */\n      0x00\n        /* \"#utility.yul\":4691:4696   */\n      dup2\n        /* \"#utility.yul\":4685:4697   */\n      mload\n        /* \"#utility.yul\":4675:4697   */\n      swap1\n      pop\n        /* \"#utility.yul\":4605:4704   */\n      swap2\n      swap1\n      pop\n      jump\t// out\n        /* \"#utility.yul\":4710:4849   */\n    tag_38:\n        /* \"#utility.yul\":4799:4805   */\n      dup3\n        /* \"#utility.yul\":4794:4797   */\n      dup2\n        /* \"#utility.yul\":4789:4792   */\n      dup4\n        /* \"#utility.yul\":4783:4806   */\n      mcopy\n        /* \"#utility.yul\":4840:4841   */\n      0x00\n        /* \"#utility.yul\":4831:4837   */\n      dup4\n        /* \"#utility.yul\":4826:4829   */\n      dup4\n        /* \"#utility.yul\":4822:4838   */\n      add\n        /* \"#utility.yul\":4815:4842   */\n      mstore\n        /* \"#utility.yul\":4710:4849   */\n      pop\n      pop\n      pop\n      jump\t// out\n        /* \"#utility.yul\":4855:5245   */\n    tag_39:\n        /* \"#utility.yul\":4961:4964   */\n      0x00\n        /* \"#utility.yul\":4989:5028   */\n      tag_93\n        /* \"#utility.yul\":5022:5027   */\n      dup3\n        /* \"#utility.yul\":4989:5028   */\n      tag_37\n      jump\t// in\n    tag_93:\n        /* \"#utility.yul\":5044:5133   */\n      tag_94\n        /* \"#utility.yul\":5126:5132   */\n      dup2\n        /* \"#utility.yul\":5121:5124   */\n      dup6\n        /* \"#utility.yul\":5044:5133   */\n      tag_34\n      jump\t// in\n    tag_94:\n        /* \"#utility.yul\":5037:5133   */\n      swap4\n      pop\n        /* \"#utility.yul\":5142:5207   */\n      tag_95\n        /* \"#utility.yul\":5200:5206   */\n      dup2\n        /* \"#utility.yul\":5195:5198   */\n      dup6\n        /* \"#utility.yul\":5188:5192   */\n      0x20\n        /* \"#utility.yul\":5181:5186   */\n      dup7\n        /* \"#utility.yul\":5177:5193   */\n      add\n        /* \"#utility.yul\":5142:5207   */\n      tag_38\n      jump\t// in\n    tag_95:\n        /* \"#utility.yul\":5232:5238   */\n      dup1\n        /* \"#utility.yul\":5227:5230   */\n      dup5\n        /* \"#utility.yul\":5223:5239   */\n      add\n        /* \"#utility.yul\":5216:5239   */\n      swap2\n      pop\n        /* \"#utility.yul\":4965:5245   */\n      pop\n        /* \"#utility.yul\":4855:5245   */\n      swap3\n      swap2\n      pop\n      pop\n      jump\t// out\n        /* \"#utility.yul\":5251:5526   */\n    tag_14:\n        /* \"#utility.yul\":5383:5386   */\n      0x00\n        /* \"#utility.yul\":5405:5500   */\n      tag_97\n        /* \"#utility.yul\":5496:5499   */\n      dup3\n        /* \"#utility.yul\":5487:5493   */\n      dup5\n        /* \"#utility.yul\":5405:5500   */\n      tag_39\n      jump\t// in\n    tag_97:\n        /* \"#utility.yul\":5398:5500   */\n      swap2\n      pop\n        /* \"#utility.yul\":5517:5520   */\n      dup2\n        /* \"#utility.yul\":5510:5520   */\n      swap1\n      pop\n        /* \"#utility.yul\":5251:5526   */\n      swap3\n      swap2\n      pop\n      pop\n      jump\t// out\n        /* \"#utility.yul\":5532:5685   */\n    tag_40:\n        /* \"#utility.yul\":5672:5677   */\n      0x426f620000000000000000000000000000000000000000000000000000000000\n        /* \"#utility.yul\":5668:5669   */\n      0x00\n        /* \"#utility.yul\":5660:5666   */\n      dup3\n        /* \"#utility.yul\":5656:5670   */\n      add\n        /* \"#utility.yul\":5649:5678   */\n      mstore\n        /* \"#utility.yul\":5532:5685   */\n      pop\n      jump\t// out\n        /* \"#utility.yul\":5691:6091   */\n    tag_41:\n        /* \"#utility.yul\":5851:5854   */\n      0x00\n        /* \"#utility.yul\":5872:5956   */\n      tag_100\n        /* \"#utility.yul\":5954:5955   */\n      0x03\n        /* \"#utility.yul\":5949:5952   */\n      dup4\n        /* \"#utility.yul\":5872:5956   */\n      tag_34\n      jump\t// in\n    tag_100:\n        /* \"#utility.yul\":5865:5956   */\n      swap2\n      pop\n        /* \"#utility.yul\":5965:6058   */\n      tag_101\n        /* \"#utility.yul\":6054:6057   */\n      dup3\n        /* \"#utility.yul\":5965:6058   */\n      tag_40\n      jump\t// in\n    tag_101:\n        /* \"#utility.yul\":6083:6084   */\n      0x03\n        /* \"#utility.yul\":6078:6081   */\n      dup3\n        /* \"#utility.yul\":6074:6085   */\n      add\n        /* \"#utility.yul\":6067:6085   */\n      swap1\n      pop\n        /* \"#utility.yul\":5691:6091   */\n      swap2\n      swap1\n      pop\n      jump\t// out\n        /* \"#utility.yul\":6097:6478   */\n    tag_17:\n        /* \"#utility.yul\":6282:6285   */\n      0x00\n        /* \"#utility.yul\":6304:6452   */\n      tag_103\n        /* \"#utility.yul\":6448:6451   */\n      dup3\n        /* \"#utility.yul\":6304:6452   */\n      tag_41\n      jump\t// in\n    tag_103:\n        /* \"#utility.yul\":6297:6452   */\n      swap2\n      pop\n        /* \"#utility.yul\":6469:6472   */\n      dup2\n        /* \"#utility.yul\":6462:6472   */\n      swap1\n      pop\n        /* \"#utility.yul\":6097:6478   */\n      swap2\n      swap1\n      pop\n      jump\t// out\n\n    auxdata: 0xa264697066735822122047c912e7ab92d7a2587cab6a0a16a5c9937ac9f77d43764e1a5c0174a95df7cb64736f6c634300081a0033\n}\n",
				"bytecode": {
					"linkReferences": {},
					"object": "6080604052348015600e575f80fd5b506104278061001c5f395ff3fe608060405234801561000f575f80fd5b5060043610610029575f3560e01c8063f66b96801461002d575b5f80fd5b61004760048036038101906100429190610253565b61005d565b60405161005491906102b4565b60405180910390f35b5f60405160200161006d90610321565b6040516020818303038152906040528051906020012082604051602001610094919061037d565b6040516020818303038152906040528051906020012014806100ff57506040516020016100c0906103dd565b60405160208183030381529060405280519060200120826040516020016100e7919061037d565b60405160208183030381529060405280519060200120145b9050919050565b5f604051905090565b5f80fd5b5f80fd5b5f80fd5b5f80fd5b5f601f19601f8301169050919050565b7f4e487b71000000000000000000000000000000000000000000000000000000005f52604160045260245ffd5b6101658261011f565b810181811067ffffffffffffffff821117156101845761018361012f565b5b80604052505050565b5f610196610106565b90506101a2828261015c565b919050565b5f67ffffffffffffffff8211156101c1576101c061012f565b5b6101ca8261011f565b9050602081019050919050565b828183375f83830152505050565b5f6101f76101f2846101a7565b61018d565b9050828152602081018484840111156102135761021261011b565b5b61021e8482856101d7565b509392505050565b5f82601f83011261023a57610239610117565b5b813561024a8482602086016101e5565b91505092915050565b5f602082840312156102685761026761010f565b5b5f82013567ffffffffffffffff81111561028557610284610113565b5b61029184828501610226565b91505092915050565b5f8115159050919050565b6102ae8161029a565b82525050565b5f6020820190506102c75f8301846102a5565b92915050565b5f81905092915050565b7f416c6963650000000000000000000000000000000000000000000000000000005f82015250565b5f61030b6005836102cd565b9150610316826102d7565b600582019050919050565b5f61032b826102ff565b9150819050919050565b5f81519050919050565b8281835e5f83830152505050565b5f61035782610335565b61036181856102cd565b935061037181856020860161033f565b80840191505092915050565b5f610388828461034d565b915081905092915050565b7f426f6200000000000000000000000000000000000000000000000000000000005f82015250565b5f6103c76003836102cd565b91506103d282610393565b600382019050919050565b5f6103e7826103bb565b915081905091905056fea264697066735822122047c912e7ab92d7a2587cab6a0a16a5c9937ac9f77d43764e1a5c0174a95df7cb64736f6c634300081a0033",
					"opcodes": "PUSH1 0x80 PUSH1 0x40 MSTORE CALLVALUE DUP1 ISZERO PUSH1 0xE JUMPI PUSH0 DUP1 REVERT JUMPDEST POP PUSH2 0x427 DUP1 PUSH2 0x1C PUSH0 CODECOPY PUSH0 RETURN INVALID PUSH1 0x80 PUSH1 0x40 MSTORE CALLVALUE DUP1 ISZERO PUSH2 0xF JUMPI PUSH0 DUP1 REVERT JUMPDEST POP PUSH1 0x4 CALLDATASIZE LT PUSH2 0x29 JUMPI PUSH0 CALLDATALOAD PUSH1 0xE0 SHR DUP1 PUSH4 0xF66B9680 EQ PUSH2 0x2D JUMPI JUMPDEST PUSH0 DUP1 REVERT JUMPDEST PUSH2 0x47 PUSH1 0x4 DUP1 CALLDATASIZE SUB DUP2 ADD SWAP1 PUSH2 0x42 SWAP2 SWAP1 PUSH2 0x253 JUMP JUMPDEST PUSH2 0x5D JUMP JUMPDEST PUSH1 0x40 MLOAD PUSH2 0x54 SWAP2 SWAP1 PUSH2 0x2B4 JUMP JUMPDEST PUSH1 0x40 MLOAD DUP1 SWAP2 SUB SWAP1 RETURN JUMPDEST PUSH0 PUSH1 0x40 MLOAD PUSH1 0x20 ADD PUSH2 0x6D SWAP1 PUSH2 0x321 JUMP JUMPDEST PUSH1 0x40 MLOAD PUSH1 0x20 DUP2 DUP4 SUB SUB DUP2 MSTORE SWAP1 PUSH1 0x40 MSTORE DUP1 MLOAD SWAP1 PUSH1 0x20 ADD KECCAK256 DUP3 PUSH1 0x40 MLOAD PUSH1 0x20 ADD PUSH2 0x94 SWAP2 SWAP1 PUSH2 0x37D JUMP JUMPDEST PUSH1 0x40 MLOAD PUSH1 0x20 DUP2 DUP4 SUB SUB DUP2 MSTORE SWAP1 PUSH1 0x40 MSTORE DUP1 MLOAD SWAP1 PUSH1 0x20 ADD KECCAK256 EQ DUP1 PUSH2 0xFF JUMPI POP PUSH1 0x40 MLOAD PUSH1 0x20 ADD PUSH2 0xC0 SWAP1 PUSH2 0x3DD JUMP JUMPDEST PUSH1 0x40 MLOAD PUSH1 0x20 DUP2 DUP4 SUB SUB DUP2 MSTORE SWAP1 PUSH1 0x40 MSTORE DUP1 MLOAD SWAP1 PUSH1 0x20 ADD KECCAK256 DUP3 PUSH1 0x40 MLOAD PUSH1 0x20 ADD PUSH2 0xE7 SWAP2 SWAP1 PUSH2 0x37D JUMP JUMPDEST PUSH1 0x40 MLOAD PUSH1 0x20 DUP2 DUP4 SUB SUB DUP2 MSTORE SWAP1 PUSH1 0x40 MSTORE DUP1 MLOAD SWAP1 PUSH1 0x20 ADD KECCAK256 EQ JUMPDEST SWAP1 POP SWAP2 SWAP1 POP JUMP JUMPDEST PUSH0 PUSH1 0x40 MLOAD SWAP1 POP SWAP1 JUMP JUMPDEST PUSH0 DUP1 REVERT JUMPDEST PUSH0 DUP1 REVERT JUMPDEST PUSH0 DUP1 REVERT JUMPDEST PUSH0 DUP1 REVERT JUMPDEST PUSH0 PUSH1 0x1F NOT PUSH1 0x1F DUP4 ADD AND SWAP1 POP SWAP2 SWAP1 POP JUMP JUMPDEST PUSH32 0x4E487B7100000000000000000000000000000000000000000000000000000000 PUSH0 MSTORE PUSH1 0x41 PUSH1 0x4 MSTORE PUSH1 0x24 PUSH0 REVERT JUMPDEST PUSH2 0x165 DUP3 PUSH2 0x11F JUMP JUMPDEST DUP2 ADD DUP2 DUP2 LT PUSH8 0xFFFFFFFFFFFFFFFF DUP3 GT OR ISZERO PUSH2 0x184 JUMPI PUSH2 0x183 PUSH2 0x12F JUMP JUMPDEST JUMPDEST DUP1 PUSH1 0x40 MSTORE POP POP POP JUMP JUMPDEST PUSH0 PUSH2 0x196 PUSH2 0x106 JUMP JUMPDEST SWAP1 POP PUSH2 0x1A2 DUP3 DUP3 PUSH2 0x15C JUMP JUMPDEST SWAP2 SWAP1 POP JUMP JUMPDEST PUSH0 PUSH8 0xFFFFFFFFFFFFFFFF DUP3 GT ISZERO PUSH2 0x1C1 JUMPI PUSH2 0x1C0 PUSH2 0x12F JUMP JUMPDEST JUMPDEST PUSH2 0x1CA DUP3 PUSH2 0x11F JUMP JUMPDEST SWAP1 POP PUSH1 0x20 DUP2 ADD SWAP1 POP SWAP2 SWAP1 POP JUMP JUMPDEST DUP3 DUP2 DUP4 CALLDATACOPY PUSH0 DUP4 DUP4 ADD MSTORE POP POP POP JUMP JUMPDEST PUSH0 PUSH2 0x1F7 PUSH2 0x1F2 DUP5 PUSH2 0x1A7 JUMP JUMPDEST PUSH2 0x18D JUMP JUMPDEST SWAP1 POP DUP3 DUP2 MSTORE PUSH1 0x20 DUP2 ADD DUP5 DUP5 DUP5 ADD GT ISZERO PUSH2 0x213 JUMPI PUSH2 0x212 PUSH2 0x11B JUMP JUMPDEST JUMPDEST PUSH2 0x21E DUP5 DUP3 DUP6 PUSH2 0x1D7 JUMP JUMPDEST POP SWAP4 SWAP3 POP POP POP JUMP JUMPDEST PUSH0 DUP3 PUSH1 0x1F DUP4 ADD SLT PUSH2 0x23A JUMPI PUSH2 0x239 PUSH2 0x117 JUMP JUMPDEST JUMPDEST DUP2 CALLDATALOAD PUSH2 0x24A DUP5 DUP3 PUSH1 0x20 DUP7 ADD PUSH2 0x1E5 JUMP JUMPDEST SWAP2 POP POP SWAP3 SWAP2 POP POP JUMP JUMPDEST PUSH0 PUSH1 0x20 DUP3 DUP5 SUB SLT ISZERO PUSH2 0x268 JUMPI PUSH2 0x267 PUSH2 0x10F JUMP JUMPDEST JUMPDEST PUSH0 DUP3 ADD CALLDATALOAD PUSH8 0xFFFFFFFFFFFFFFFF DUP2 GT ISZERO PUSH2 0x285 JUMPI PUSH2 0x284 PUSH2 0x113 JUMP JUMPDEST JUMPDEST PUSH2 0x291 DUP5 DUP3 DUP6 ADD PUSH2 0x226 JUMP JUMPDEST SWAP2 POP POP SWAP3 SWAP2 POP POP JUMP JUMPDEST PUSH0 DUP2 ISZERO ISZERO SWAP1 POP SWAP2 SWAP1 POP JUMP JUMPDEST PUSH2 0x2AE DUP2 PUSH2 0x29A JUMP JUMPDEST DUP3 MSTORE POP POP JUMP JUMPDEST PUSH0 PUSH1 0x20 DUP3 ADD SWAP1 POP PUSH2 0x2C7 PUSH0 DUP4 ADD DUP5 PUSH2 0x2A5 JUMP JUMPDEST SWAP3 SWAP2 POP POP JUMP JUMPDEST PUSH0 DUP2 SWAP1 POP SWAP3 SWAP2 POP POP JUMP JUMPDEST PUSH32 0x416C696365000000000000000000000000000000000000000000000000000000 PUSH0 DUP3 ADD MSTORE POP JUMP JUMPDEST PUSH0 PUSH2 0x30B PUSH1 0x5 DUP4 PUSH2 0x2CD JUMP JUMPDEST SWAP2 POP PUSH2 0x316 DUP3 PUSH2 0x2D7 JUMP JUMPDEST PUSH1 0x5 DUP3 ADD SWAP1 POP SWAP2 SWAP1 POP JUMP JUMPDEST PUSH0 PUSH2 0x32B DUP3 PUSH2 0x2FF JUMP JUMPDEST SWAP2 POP DUP2 SWAP1 POP SWAP2 SWAP1 POP JUMP JUMPDEST PUSH0 DUP2 MLOAD SWAP1 POP SWAP2 SWAP1 POP JUMP JUMPDEST DUP3 DUP2 DUP4 MCOPY PUSH0 DUP4 DUP4 ADD MSTORE POP POP POP JUMP JUMPDEST PUSH0 PUSH2 0x357 DUP3 PUSH2 0x335 JUMP JUMPDEST PUSH2 0x361 DUP2 DUP6 PUSH2 0x2CD JUMP JUMPDEST SWAP4 POP PUSH2 0x371 DUP2 DUP6 PUSH1 0x20 DUP7 ADD PUSH2 0x33F JUMP JUMPDEST DUP1 DUP5 ADD SWAP2 POP POP SWAP3 SWAP2 POP POP JUMP JUMPDEST PUSH0 PUSH2 0x388 DUP3 DUP5 PUSH2 0x34D JUMP JUMPDEST SWAP2 POP DUP2 SWAP1 POP SWAP3 SWAP2 POP POP JUMP JUMPDEST PUSH32 0x426F620000000000000000000000000000000000000000000000000000000000 PUSH0 DUP3 ADD MSTORE POP JUMP JUMPDEST PUSH0 PUSH2 0x3C7 PUSH1 0x3 DUP4 PUSH2 0x2CD JUMP JUMPDEST SWAP2 POP PUSH2 0x3D2 DUP3 PUSH2 0x393 JUMP JUMPDEST PUSH1 0x3 DUP3 ADD SWAP1 POP SWAP2 SWAP1 POP JUMP JUMPDEST PUSH0 PUSH2 0x3E7 DUP3 PUSH2 0x3BB JUMP JUMPDEST SWAP2 POP DUP2 SWAP1 POP SWAP2 SWAP1 POP JUMP INVALID LOG2 PUSH5 0x6970667358 0x22 SLT KECCAK256 SELFBALANCE 0xC9 SLT 0xE7 0xAB SWAP3 0xD7 LOG2 PC PUSH29 0xAB6A0A16A5C9937AC9F77D43764E1A5C0174A95DF7CB64736F6C634300 ADDMOD BYTE STOP CALLER "
				},
				"gasEstimates": {
					"creation": {
						"codeDepositCost": "212600",
						"executionCost": "255",
						"totalCost": "212855"
					},
					"external": {
						"isAliceOrBob(string)": "infinite"
					}
				},
				"methodIdentifiers": {
					"isAliceOrBob(string)": "f66b9680"
				}
			},
			"storageLayout": {
				"storage": [],
				"types": null
			},
			"userdoc": {
				"kind": "user",
				"methods": {},
				"version": 1
			}
		}
	}
}