{
	"solidity/solidity31~40.sol": {
		"Q40": {
			"abi": [
				{
					"inputs": [
						{
							"internalType": "uint256[]",
							"name": "numbers",
							"type": "uint256[]"
						}
					],
					"name": "findMedianAndSort",
					"outputs": [
						{
							"internalType": "uint256[]",
							"name": "",
							"type": "uint256[]"
						},
						{
							"internalType": "uint256[]",
							"name": "",
							"type": "uint256[]"
						}
					],
					"stateMutability": "pure",
					"type": "function"
				}
			],
			"devdoc": {
				"kind": "dev",
				"methods": {},
				"version": 1
			},
			"evm": {
				"assembly": "    /* \"solidity/solidity31~40.sol\":6402:7544  contract Q40 {... */\n  mstore(0x40, 0x80)\n  callvalue\n  dup1\n  iszero\n  tag_1\n  jumpi\n  0x00\n  dup1\n  revert\ntag_1:\n  pop\n  dataSize(sub_0)\n  dup1\n  dataOffset(sub_0)\n  0x00\n  codecopy\n  0x00\n  return\nstop\n\nsub_0: assembly {\n        /* \"solidity/solidity31~40.sol\":6402:7544  contract Q40 {... */\n      mstore(0x40, 0x80)\n      callvalue\n      dup1\n      iszero\n      tag_1\n      jumpi\n      0x00\n      dup1\n      revert\n    tag_1:\n      pop\n      jumpi(tag_2, lt(calldatasize, 0x04))\n      shr(0xe0, calldataload(0x00))\n      dup1\n      0x502e8bd8\n      eq\n      tag_3\n      jumpi\n    tag_2:\n      0x00\n      dup1\n      revert\n        /* \"solidity/solidity31~40.sol\":6790:7542  function findMedianAndSort(uint[] memory numbers) public pure returns (uint[] memory, uint[] memory) {... */\n    tag_3:\n      tag_4\n      0x04\n      dup1\n      calldatasize\n      sub\n      dup2\n      add\n      swap1\n      tag_5\n      swap2\n      swap1\n      tag_6\n      jump\t// in\n    tag_5:\n      tag_7\n      jump\t// in\n    tag_4:\n      mload(0x40)\n      tag_8\n      swap3\n      swap2\n      swap1\n      tag_9\n      jump\t// in\n    tag_8:\n      mload(0x40)\n      dup1\n      swap2\n      sub\n      swap1\n      return\n    tag_7:\n        /* \"solidity/solidity31~40.sol\":6861:6874  uint[] memory */\n      0x60\n        /* \"solidity/solidity31~40.sol\":6876:6889  uint[] memory */\n      dup1\n        /* \"solidity/solidity31~40.sol\":6907:6913  uint i */\n      0x00\n        /* \"solidity/solidity31~40.sol\":6902:7167  for (uint i = 0; i < numbers.length; i++) {... */\n    tag_11:\n        /* \"solidity/solidity31~40.sol\":6923:6930  numbers */\n      dup4\n        /* \"solidity/solidity31~40.sol\":6923:6937  numbers.length */\n      mload\n        /* \"solidity/solidity31~40.sol\":6919:6920  i */\n      dup2\n        /* \"solidity/solidity31~40.sol\":6919:6937  i < numbers.length */\n      lt\n        /* \"solidity/solidity31~40.sol\":6902:7167  for (uint i = 0; i < numbers.length; i++) {... */\n      iszero\n      tag_12\n      jumpi\n        /* \"solidity/solidity31~40.sol\":6963:6969  uint j */\n      0x00\n        /* \"solidity/solidity31~40.sol\":6976:6977  1 */\n      0x01\n        /* \"solidity/solidity31~40.sol\":6972:6973  i */\n      dup3\n        /* \"solidity/solidity31~40.sol\":6972:6977  i + 1 */\n      tag_17\n      swap2\n      swap1\n      tag_18\n      jump\t// in\n    tag_17:\n        /* \"solidity/solidity31~40.sol\":6963:6977  uint j = i + 1 */\n      swap1\n      pop\n        /* \"solidity/solidity31~40.sol\":6958:7157  for (uint j = i + 1; j < numbers.length; j++) {... */\n    tag_14:\n        /* \"solidity/solidity31~40.sol\":6983:6990  numbers */\n      dup5\n        /* \"solidity/solidity31~40.sol\":6983:6997  numbers.length */\n      mload\n        /* \"solidity/solidity31~40.sol\":6979:6980  j */\n      dup2\n        /* \"solidity/solidity31~40.sol\":6979:6997  j < numbers.length */\n      lt\n        /* \"solidity/solidity31~40.sol\":6958:7157  for (uint j = i + 1; j < numbers.length; j++) {... */\n      iszero\n      tag_15\n      jumpi\n        /* \"solidity/solidity31~40.sol\":7039:7046  numbers */\n      dup5\n        /* \"solidity/solidity31~40.sol\":7047:7048  j */\n      dup2\n        /* \"solidity/solidity31~40.sol\":7039:7049  numbers[j] */\n      dup2\n      mload\n      dup2\n      lt\n      tag_19\n      jumpi\n      tag_20\n      tag_21\n      jump\t// in\n    tag_20:\n    tag_19:\n      0x20\n      mul\n      0x20\n      add\n      add\n      mload\n        /* \"solidity/solidity31~40.sol\":7026:7033  numbers */\n      dup6\n        /* \"solidity/solidity31~40.sol\":7034:7035  i */\n      dup4\n        /* \"solidity/solidity31~40.sol\":7026:7036  numbers[i] */\n      dup2\n      mload\n      dup2\n      lt\n      tag_22\n      jumpi\n      tag_23\n      tag_21\n      jump\t// in\n    tag_23:\n    tag_22:\n      0x20\n      mul\n      0x20\n      add\n      add\n      mload\n        /* \"solidity/solidity31~40.sol\":7026:7049  numbers[i] < numbers[j] */\n      lt\n        /* \"solidity/solidity31~40.sol\":7022:7143  if (numbers[i] < numbers[j]) {... */\n      iszero\n      tag_24\n      jumpi\n        /* \"solidity/solidity31~40.sol\":7101:7108  numbers */\n      dup5\n        /* \"solidity/solidity31~40.sol\":7109:7110  j */\n      dup2\n        /* \"solidity/solidity31~40.sol\":7101:7111  numbers[j] */\n      dup2\n      mload\n      dup2\n      lt\n      tag_25\n      jumpi\n      tag_26\n      tag_21\n      jump\t// in\n    tag_26:\n    tag_25:\n      0x20\n      mul\n      0x20\n      add\n      add\n      mload\n        /* \"solidity/solidity31~40.sol\":7113:7120  numbers */\n      dup6\n        /* \"solidity/solidity31~40.sol\":7121:7122  i */\n      dup4\n        /* \"solidity/solidity31~40.sol\":7113:7123  numbers[i] */\n      dup2\n      mload\n      dup2\n      lt\n      tag_27\n      jumpi\n      tag_28\n      tag_21\n      jump\t// in\n    tag_28:\n    tag_27:\n      0x20\n      mul\n      0x20\n      add\n      add\n      mload\n        /* \"solidity/solidity31~40.sol\":7074:7081  numbers */\n      dup7\n        /* \"solidity/solidity31~40.sol\":7082:7083  i */\n      dup5\n        /* \"solidity/solidity31~40.sol\":7074:7084  numbers[i] */\n      dup2\n      mload\n      dup2\n      lt\n      tag_29\n      jumpi\n      tag_30\n      tag_21\n      jump\t// in\n    tag_30:\n    tag_29:\n      0x20\n      mul\n      0x20\n      add\n      add\n        /* \"solidity/solidity31~40.sol\":7086:7093  numbers */\n      dup8\n        /* \"solidity/solidity31~40.sol\":7094:7095  j */\n      dup5\n        /* \"solidity/solidity31~40.sol\":7086:7096  numbers[j] */\n      dup2\n      mload\n      dup2\n      lt\n      tag_31\n      jumpi\n      tag_32\n      tag_21\n      jump\t// in\n    tag_32:\n    tag_31:\n      0x20\n      mul\n      0x20\n      add\n      add\n        /* \"solidity/solidity31~40.sol\":7073:7124  (numbers[i], numbers[j]) = (numbers[j], numbers[i]) */\n      dup3\n      dup2\n      mstore\n      pop\n      dup3\n      dup2\n      mstore\n      pop\n      pop\n      pop\n        /* \"solidity/solidity31~40.sol\":7022:7143  if (numbers[i] < numbers[j]) {... */\n    tag_24:\n        /* \"solidity/solidity31~40.sol\":6999:7002  j++ */\n      dup1\n      dup1\n      0x01\n      add\n      swap2\n      pop\n      pop\n        /* \"solidity/solidity31~40.sol\":6958:7157  for (uint j = i + 1; j < numbers.length; j++) {... */\n      jump(tag_14)\n    tag_15:\n      pop\n        /* \"solidity/solidity31~40.sol\":6939:6942  i++ */\n      dup1\n      dup1\n      0x01\n      add\n      swap2\n      pop\n      pop\n        /* \"solidity/solidity31~40.sol\":6902:7167  for (uint i = 0; i < numbers.length; i++) {... */\n      jump(tag_11)\n    tag_12:\n      pop\n        /* \"solidity/solidity31~40.sol\":7177:7198  uint[] memory medians */\n      0x60\n        /* \"solidity/solidity31~40.sol\":7208:7216  uint mid */\n      0x00\n        /* \"solidity/solidity31~40.sol\":7236:7237  2 */\n      0x02\n        /* \"solidity/solidity31~40.sol\":7219:7226  numbers */\n      dup6\n        /* \"solidity/solidity31~40.sol\":7219:7233  numbers.length */\n      mload\n        /* \"solidity/solidity31~40.sol\":7219:7237  numbers.length / 2 */\n      tag_33\n      swap2\n      swap1\n      tag_34\n      jump\t// in\n    tag_33:\n        /* \"solidity/solidity31~40.sol\":7208:7237  uint mid = numbers.length / 2 */\n      swap1\n      pop\n        /* \"solidity/solidity31~40.sol\":7274:7275  0 */\n      0x00\n        /* \"solidity/solidity31~40.sol\":7269:7270  2 */\n      0x02\n        /* \"solidity/solidity31~40.sol\":7252:7259  numbers */\n      dup7\n        /* \"solidity/solidity31~40.sol\":7252:7266  numbers.length */\n      mload\n        /* \"solidity/solidity31~40.sol\":7252:7270  numbers.length % 2 */\n      tag_35\n      swap2\n      swap1\n      tag_36\n      jump\t// in\n    tag_35:\n        /* \"solidity/solidity31~40.sol\":7252:7275  numbers.length % 2 == 0 */\n      sub\n        /* \"solidity/solidity31~40.sol\":7248:7500  if (numbers.length % 2 == 0) {... */\n      tag_37\n      jumpi\n        /* \"solidity/solidity31~40.sol\":7312:7313  2 */\n      0x02\n        /* \"solidity/solidity31~40.sol\":7301:7314  new uint[](2) */\n      0xffffffffffffffff\n      dup2\n      gt\n      iszero\n      tag_38\n      jumpi\n      tag_39\n      tag_40\n      jump\t// in\n    tag_39:\n    tag_38:\n      mload(0x40)\n      swap1\n      dup1\n      dup3\n      mstore\n      dup1\n      0x20\n      mul\n      0x20\n      add\n      dup3\n      add\n      0x40\n      mstore\n      dup1\n      iszero\n      tag_41\n      jumpi\n      dup2\n      0x20\n      add\n      0x20\n      dup3\n      mul\n      dup1\n      calldatasize\n      dup4\n      calldatacopy\n      dup1\n      dup3\n      add\n      swap2\n      pop\n      pop\n      swap1\n      pop\n    tag_41:\n      pop\n        /* \"solidity/solidity31~40.sol\":7291:7314  medians = new uint[](2) */\n      swap2\n      pop\n        /* \"solidity/solidity31~40.sol\":7341:7348  numbers */\n      dup5\n        /* \"solidity/solidity31~40.sol\":7355:7356  1 */\n      0x01\n        /* \"solidity/solidity31~40.sol\":7349:7352  mid */\n      dup3\n        /* \"solidity/solidity31~40.sol\":7349:7356  mid - 1 */\n      tag_42\n      swap2\n      swap1\n      tag_43\n      jump\t// in\n    tag_42:\n        /* \"solidity/solidity31~40.sol\":7341:7357  numbers[mid - 1] */\n      dup2\n      mload\n      dup2\n      lt\n      tag_44\n      jumpi\n      tag_45\n      tag_21\n      jump\t// in\n    tag_45:\n    tag_44:\n      0x20\n      mul\n      0x20\n      add\n      add\n      mload\n        /* \"solidity/solidity31~40.sol\":7328:7335  medians */\n      dup3\n        /* \"solidity/solidity31~40.sol\":7336:7337  0 */\n      0x00\n        /* \"solidity/solidity31~40.sol\":7328:7338  medians[0] */\n      dup2\n      mload\n      dup2\n      lt\n      tag_46\n      jumpi\n      tag_47\n      tag_21\n      jump\t// in\n    tag_47:\n    tag_46:\n      0x20\n      mul\n      0x20\n      add\n      add\n        /* \"solidity/solidity31~40.sol\":7328:7357  medians[0] = numbers[mid - 1] */\n      dup2\n      dup2\n      mstore\n      pop\n      pop\n        /* \"solidity/solidity31~40.sol\":7384:7391  numbers */\n      dup5\n        /* \"solidity/solidity31~40.sol\":7392:7395  mid */\n      dup2\n        /* \"solidity/solidity31~40.sol\":7384:7396  numbers[mid] */\n      dup2\n      mload\n      dup2\n      lt\n      tag_48\n      jumpi\n      tag_49\n      tag_21\n      jump\t// in\n    tag_49:\n    tag_48:\n      0x20\n      mul\n      0x20\n      add\n      add\n      mload\n        /* \"solidity/solidity31~40.sol\":7371:7378  medians */\n      dup3\n        /* \"solidity/solidity31~40.sol\":7379:7380  1 */\n      0x01\n        /* \"solidity/solidity31~40.sol\":7371:7381  medians[1] */\n      dup2\n      mload\n      dup2\n      lt\n      tag_50\n      jumpi\n      tag_51\n      tag_21\n      jump\t// in\n    tag_51:\n    tag_50:\n      0x20\n      mul\n      0x20\n      add\n      add\n        /* \"solidity/solidity31~40.sol\":7371:7396  medians[1] = numbers[mid] */\n      dup2\n      dup2\n      mstore\n      pop\n      pop\n        /* \"solidity/solidity31~40.sol\":7248:7500  if (numbers.length % 2 == 0) {... */\n      jump(tag_52)\n    tag_37:\n        /* \"solidity/solidity31~40.sol\":7448:7449  1 */\n      0x01\n        /* \"solidity/solidity31~40.sol\":7437:7450  new uint[](1) */\n      0xffffffffffffffff\n      dup2\n      gt\n      iszero\n      tag_53\n      jumpi\n      tag_54\n      tag_40\n      jump\t// in\n    tag_54:\n    tag_53:\n      mload(0x40)\n      swap1\n      dup1\n      dup3\n      mstore\n      dup1\n      0x20\n      mul\n      0x20\n      add\n      dup3\n      add\n      0x40\n      mstore\n      dup1\n      iszero\n      tag_55\n      jumpi\n      dup2\n      0x20\n      add\n      0x20\n      dup3\n      mul\n      dup1\n      calldatasize\n      dup4\n      calldatacopy\n      dup1\n      dup3\n      add\n      swap2\n      pop\n      pop\n      swap1\n      pop\n    tag_55:\n      pop\n        /* \"solidity/solidity31~40.sol\":7427:7450  medians = new uint[](1) */\n      swap2\n      pop\n        /* \"solidity/solidity31~40.sol\":7477:7484  numbers */\n      dup5\n        /* \"solidity/solidity31~40.sol\":7485:7488  mid */\n      dup2\n        /* \"solidity/solidity31~40.sol\":7477:7489  numbers[mid] */\n      dup2\n      mload\n      dup2\n      lt\n      tag_56\n      jumpi\n      tag_57\n      tag_21\n      jump\t// in\n    tag_57:\n    tag_56:\n      0x20\n      mul\n      0x20\n      add\n      add\n      mload\n        /* \"solidity/solidity31~40.sol\":7464:7471  medians */\n      dup3\n        /* \"solidity/solidity31~40.sol\":7472:7473  0 */\n      0x00\n        /* \"solidity/solidity31~40.sol\":7464:7474  medians[0] */\n      dup2\n      mload\n      dup2\n      lt\n      tag_58\n      jumpi\n      tag_59\n      tag_21\n      jump\t// in\n    tag_59:\n    tag_58:\n      0x20\n      mul\n      0x20\n      add\n      add\n        /* \"solidity/solidity31~40.sol\":7464:7489  medians[0] = numbers[mid] */\n      dup2\n      dup2\n      mstore\n      pop\n      pop\n        /* \"solidity/solidity31~40.sol\":7248:7500  if (numbers.length % 2 == 0) {... */\n    tag_52:\n        /* \"solidity/solidity31~40.sol\":7518:7525  numbers */\n      dup5\n        /* \"solidity/solidity31~40.sol\":7527:7534  medians */\n      dup3\n        /* \"solidity/solidity31~40.sol\":7510:7535  return (numbers, medians) */\n      swap4\n      pop\n      swap4\n      pop\n      pop\n      pop\n        /* \"solidity/solidity31~40.sol\":6790:7542  function findMedianAndSort(uint[] memory numbers) public pure returns (uint[] memory, uint[] memory) {... */\n      swap2\n      pop\n      swap2\n      jump\t// out\n        /* \"#utility.yul\":7:82   */\n    tag_60:\n        /* \"#utility.yul\":40:46   */\n      0x00\n        /* \"#utility.yul\":73:75   */\n      0x40\n        /* \"#utility.yul\":67:76   */\n      mload\n        /* \"#utility.yul\":57:76   */\n      swap1\n      pop\n        /* \"#utility.yul\":7:82   */\n      swap1\n      jump\t// out\n        /* \"#utility.yul\":88:205   */\n    tag_61:\n        /* \"#utility.yul\":197:198   */\n      0x00\n        /* \"#utility.yul\":194:195   */\n      dup1\n        /* \"#utility.yul\":187:199   */\n      revert\n        /* \"#utility.yul\":211:328   */\n    tag_62:\n        /* \"#utility.yul\":320:321   */\n      0x00\n        /* \"#utility.yul\":317:318   */\n      dup1\n        /* \"#utility.yul\":310:322   */\n      revert\n        /* \"#utility.yul\":334:451   */\n    tag_63:\n        /* \"#utility.yul\":443:444   */\n      0x00\n        /* \"#utility.yul\":440:441   */\n      dup1\n        /* \"#utility.yul\":433:445   */\n      revert\n        /* \"#utility.yul\":457:559   */\n    tag_64:\n        /* \"#utility.yul\":498:504   */\n      0x00\n        /* \"#utility.yul\":549:551   */\n      0x1f\n        /* \"#utility.yul\":545:552   */\n      not\n        /* \"#utility.yul\":540:542   */\n      0x1f\n        /* \"#utility.yul\":533:538   */\n      dup4\n        /* \"#utility.yul\":529:543   */\n      add\n        /* \"#utility.yul\":525:553   */\n      and\n        /* \"#utility.yul\":515:553   */\n      swap1\n      pop\n        /* \"#utility.yul\":457:559   */\n      swap2\n      swap1\n      pop\n      jump\t// out\n        /* \"#utility.yul\":565:745   */\n    tag_40:\n        /* \"#utility.yul\":613:690   */\n      0x4e487b7100000000000000000000000000000000000000000000000000000000\n        /* \"#utility.yul\":610:611   */\n      0x00\n        /* \"#utility.yul\":603:691   */\n      mstore\n        /* \"#utility.yul\":710:714   */\n      0x41\n        /* \"#utility.yul\":707:708   */\n      0x04\n        /* \"#utility.yul\":700:715   */\n      mstore\n        /* \"#utility.yul\":734:738   */\n      0x24\n        /* \"#utility.yul\":731:732   */\n      0x00\n        /* \"#utility.yul\":724:739   */\n      revert\n        /* \"#utility.yul\":751:1032   */\n    tag_65:\n        /* \"#utility.yul\":834:861   */\n      tag_91\n        /* \"#utility.yul\":856:860   */\n      dup3\n        /* \"#utility.yul\":834:861   */\n      tag_64\n      jump\t// in\n    tag_91:\n        /* \"#utility.yul\":826:832   */\n      dup2\n        /* \"#utility.yul\":822:862   */\n      add\n        /* \"#utility.yul\":964:970   */\n      dup2\n        /* \"#utility.yul\":952:962   */\n      dup2\n        /* \"#utility.yul\":949:971   */\n      lt\n        /* \"#utility.yul\":928:946   */\n      0xffffffffffffffff\n        /* \"#utility.yul\":916:926   */\n      dup3\n        /* \"#utility.yul\":913:947   */\n      gt\n        /* \"#utility.yul\":910:972   */\n      or\n        /* \"#utility.yul\":907:995   */\n      iszero\n      tag_92\n      jumpi\n        /* \"#utility.yul\":975:993   */\n      tag_93\n      tag_40\n      jump\t// in\n    tag_93:\n        /* \"#utility.yul\":907:995   */\n    tag_92:\n        /* \"#utility.yul\":1015:1025   */\n      dup1\n        /* \"#utility.yul\":1011:1013   */\n      0x40\n        /* \"#utility.yul\":1004:1026   */\n      mstore\n        /* \"#utility.yul\":794:1032   */\n      pop\n        /* \"#utility.yul\":751:1032   */\n      pop\n      pop\n      jump\t// out\n        /* \"#utility.yul\":1038:1167   */\n    tag_66:\n        /* \"#utility.yul\":1072:1078   */\n      0x00\n        /* \"#utility.yul\":1099:1119   */\n      tag_95\n      tag_60\n      jump\t// in\n    tag_95:\n        /* \"#utility.yul\":1089:1119   */\n      swap1\n      pop\n        /* \"#utility.yul\":1128:1161   */\n      tag_96\n        /* \"#utility.yul\":1156:1160   */\n      dup3\n        /* \"#utility.yul\":1148:1154   */\n      dup3\n        /* \"#utility.yul\":1128:1161   */\n      tag_65\n      jump\t// in\n    tag_96:\n        /* \"#utility.yul\":1038:1167   */\n      swap2\n      swap1\n      pop\n      jump\t// out\n        /* \"#utility.yul\":1173:1484   */\n    tag_67:\n        /* \"#utility.yul\":1250:1254   */\n      0x00\n        /* \"#utility.yul\":1340:1358   */\n      0xffffffffffffffff\n        /* \"#utility.yul\":1332:1338   */\n      dup3\n        /* \"#utility.yul\":1329:1359   */\n      gt\n        /* \"#utility.yul\":1326:1382   */\n      iszero\n      tag_98\n      jumpi\n        /* \"#utility.yul\":1362:1380   */\n      tag_99\n      tag_40\n      jump\t// in\n    tag_99:\n        /* \"#utility.yul\":1326:1382   */\n    tag_98:\n        /* \"#utility.yul\":1412:1416   */\n      0x20\n        /* \"#utility.yul\":1404:1410   */\n      dup3\n        /* \"#utility.yul\":1400:1417   */\n      mul\n        /* \"#utility.yul\":1392:1417   */\n      swap1\n      pop\n        /* \"#utility.yul\":1472:1476   */\n      0x20\n        /* \"#utility.yul\":1466:1470   */\n      dup2\n        /* \"#utility.yul\":1462:1477   */\n      add\n        /* \"#utility.yul\":1454:1477   */\n      swap1\n      pop\n        /* \"#utility.yul\":1173:1484   */\n      swap2\n      swap1\n      pop\n      jump\t// out\n        /* \"#utility.yul\":1490:1607   */\n    tag_68:\n        /* \"#utility.yul\":1599:1600   */\n      0x00\n        /* \"#utility.yul\":1596:1597   */\n      dup1\n        /* \"#utility.yul\":1589:1601   */\n      revert\n        /* \"#utility.yul\":1613:1690   */\n    tag_69:\n        /* \"#utility.yul\":1650:1657   */\n      0x00\n        /* \"#utility.yul\":1679:1684   */\n      dup2\n        /* \"#utility.yul\":1668:1684   */\n      swap1\n      pop\n        /* \"#utility.yul\":1613:1690   */\n      swap2\n      swap1\n      pop\n      jump\t// out\n        /* \"#utility.yul\":1696:1818   */\n    tag_70:\n        /* \"#utility.yul\":1769:1793   */\n      tag_103\n        /* \"#utility.yul\":1787:1792   */\n      dup2\n        /* \"#utility.yul\":1769:1793   */\n      tag_69\n      jump\t// in\n    tag_103:\n        /* \"#utility.yul\":1762:1767   */\n      dup2\n        /* \"#utility.yul\":1759:1794   */\n      eq\n        /* \"#utility.yul\":1749:1812   */\n      tag_104\n      jumpi\n        /* \"#utility.yul\":1808:1809   */\n      0x00\n        /* \"#utility.yul\":1805:1806   */\n      dup1\n        /* \"#utility.yul\":1798:1810   */\n      revert\n        /* \"#utility.yul\":1749:1812   */\n    tag_104:\n        /* \"#utility.yul\":1696:1818   */\n      pop\n      jump\t// out\n        /* \"#utility.yul\":1824:1963   */\n    tag_71:\n        /* \"#utility.yul\":1870:1875   */\n      0x00\n        /* \"#utility.yul\":1908:1914   */\n      dup2\n        /* \"#utility.yul\":1895:1915   */\n      calldataload\n        /* \"#utility.yul\":1886:1915   */\n      swap1\n      pop\n        /* \"#utility.yul\":1924:1957   */\n      tag_106\n        /* \"#utility.yul\":1951:1956   */\n      dup2\n        /* \"#utility.yul\":1924:1957   */\n      tag_70\n      jump\t// in\n    tag_106:\n        /* \"#utility.yul\":1824:1963   */\n      swap3\n      swap2\n      pop\n      pop\n      jump\t// out\n        /* \"#utility.yul\":1986:2696   */\n    tag_72:\n        /* \"#utility.yul\":2082:2087   */\n      0x00\n        /* \"#utility.yul\":2107:2188   */\n      tag_108\n        /* \"#utility.yul\":2123:2187   */\n      tag_109\n        /* \"#utility.yul\":2180:2186   */\n      dup5\n        /* \"#utility.yul\":2123:2187   */\n      tag_67\n      jump\t// in\n    tag_109:\n        /* \"#utility.yul\":2107:2188   */\n      tag_66\n      jump\t// in\n    tag_108:\n        /* \"#utility.yul\":2098:2188   */\n      swap1\n      pop\n        /* \"#utility.yul\":2208:2213   */\n      dup1\n        /* \"#utility.yul\":2237:2243   */\n      dup4\n        /* \"#utility.yul\":2230:2235   */\n      dup3\n        /* \"#utility.yul\":2223:2244   */\n      mstore\n        /* \"#utility.yul\":2271:2275   */\n      0x20\n        /* \"#utility.yul\":2264:2269   */\n      dup3\n        /* \"#utility.yul\":2260:2276   */\n      add\n        /* \"#utility.yul\":2253:2276   */\n      swap1\n      pop\n        /* \"#utility.yul\":2324:2328   */\n      0x20\n        /* \"#utility.yul\":2316:2322   */\n      dup5\n        /* \"#utility.yul\":2312:2329   */\n      mul\n        /* \"#utility.yul\":2304:2310   */\n      dup4\n        /* \"#utility.yul\":2300:2330   */\n      add\n        /* \"#utility.yul\":2353:2356   */\n      dup6\n        /* \"#utility.yul\":2345:2351   */\n      dup2\n        /* \"#utility.yul\":2342:2357   */\n      gt\n        /* \"#utility.yul\":2339:2461   */\n      iszero\n      tag_110\n      jumpi\n        /* \"#utility.yul\":2372:2451   */\n      tag_111\n      tag_68\n      jump\t// in\n    tag_111:\n        /* \"#utility.yul\":2339:2461   */\n    tag_110:\n        /* \"#utility.yul\":2487:2493   */\n      dup4\n        /* \"#utility.yul\":2470:2690   */\n    tag_112:\n        /* \"#utility.yul\":2504:2510   */\n      dup2\n        /* \"#utility.yul\":2499:2502   */\n      dup2\n        /* \"#utility.yul\":2496:2511   */\n      lt\n        /* \"#utility.yul\":2470:2690   */\n      iszero\n      tag_114\n      jumpi\n        /* \"#utility.yul\":2579:2582   */\n      dup1\n        /* \"#utility.yul\":2608:2645   */\n      tag_115\n        /* \"#utility.yul\":2641:2644   */\n      dup9\n        /* \"#utility.yul\":2629:2639   */\n      dup3\n        /* \"#utility.yul\":2608:2645   */\n      tag_71\n      jump\t// in\n    tag_115:\n        /* \"#utility.yul\":2603:2606   */\n      dup5\n        /* \"#utility.yul\":2596:2646   */\n      mstore\n        /* \"#utility.yul\":2675:2679   */\n      0x20\n        /* \"#utility.yul\":2670:2673   */\n      dup5\n        /* \"#utility.yul\":2666:2680   */\n      add\n        /* \"#utility.yul\":2659:2680   */\n      swap4\n      pop\n        /* \"#utility.yul\":2546:2690   */\n      pop\n        /* \"#utility.yul\":2530:2534   */\n      0x20\n        /* \"#utility.yul\":2525:2528   */\n      dup2\n        /* \"#utility.yul\":2521:2535   */\n      add\n        /* \"#utility.yul\":2514:2535   */\n      swap1\n      pop\n        /* \"#utility.yul\":2470:2690   */\n      jump(tag_112)\n    tag_114:\n        /* \"#utility.yul\":2474:2495   */\n      pop\n        /* \"#utility.yul\":2088:2696   */\n      pop\n      pop\n        /* \"#utility.yul\":1986:2696   */\n      swap4\n      swap3\n      pop\n      pop\n      pop\n      jump\t// out\n        /* \"#utility.yul\":2719:3089   */\n    tag_73:\n        /* \"#utility.yul\":2790:2795   */\n      0x00\n        /* \"#utility.yul\":2839:2842   */\n      dup3\n        /* \"#utility.yul\":2832:2836   */\n      0x1f\n        /* \"#utility.yul\":2824:2830   */\n      dup4\n        /* \"#utility.yul\":2820:2837   */\n      add\n        /* \"#utility.yul\":2816:2843   */\n      slt\n        /* \"#utility.yul\":2806:2928   */\n      tag_117\n      jumpi\n        /* \"#utility.yul\":2847:2926   */\n      tag_118\n      tag_63\n      jump\t// in\n    tag_118:\n        /* \"#utility.yul\":2806:2928   */\n    tag_117:\n        /* \"#utility.yul\":2964:2970   */\n      dup2\n        /* \"#utility.yul\":2951:2971   */\n      calldataload\n        /* \"#utility.yul\":2989:3083   */\n      tag_119\n        /* \"#utility.yul\":3079:3082   */\n      dup5\n        /* \"#utility.yul\":3071:3077   */\n      dup3\n        /* \"#utility.yul\":3064:3068   */\n      0x20\n        /* \"#utility.yul\":3056:3062   */\n      dup7\n        /* \"#utility.yul\":3052:3069   */\n      add\n        /* \"#utility.yul\":2989:3083   */\n      tag_72\n      jump\t// in\n    tag_119:\n        /* \"#utility.yul\":2980:3083   */\n      swap2\n      pop\n        /* \"#utility.yul\":2796:3089   */\n      pop\n        /* \"#utility.yul\":2719:3089   */\n      swap3\n      swap2\n      pop\n      pop\n      jump\t// out\n        /* \"#utility.yul\":3095:3634   */\n    tag_6:\n        /* \"#utility.yul\":3179:3185   */\n      0x00\n        /* \"#utility.yul\":3228:3230   */\n      0x20\n        /* \"#utility.yul\":3216:3225   */\n      dup3\n        /* \"#utility.yul\":3207:3214   */\n      dup5\n        /* \"#utility.yul\":3203:3226   */\n      sub\n        /* \"#utility.yul\":3199:3231   */\n      slt\n        /* \"#utility.yul\":3196:3315   */\n      iszero\n      tag_121\n      jumpi\n        /* \"#utility.yul\":3234:3313   */\n      tag_122\n      tag_61\n      jump\t// in\n    tag_122:\n        /* \"#utility.yul\":3196:3315   */\n    tag_121:\n        /* \"#utility.yul\":3382:3383   */\n      0x00\n        /* \"#utility.yul\":3371:3380   */\n      dup3\n        /* \"#utility.yul\":3367:3384   */\n      add\n        /* \"#utility.yul\":3354:3385   */\n      calldataload\n        /* \"#utility.yul\":3412:3430   */\n      0xffffffffffffffff\n        /* \"#utility.yul\":3404:3410   */\n      dup2\n        /* \"#utility.yul\":3401:3431   */\n      gt\n        /* \"#utility.yul\":3398:3515   */\n      iszero\n      tag_123\n      jumpi\n        /* \"#utility.yul\":3434:3513   */\n      tag_124\n      tag_62\n      jump\t// in\n    tag_124:\n        /* \"#utility.yul\":3398:3515   */\n    tag_123:\n        /* \"#utility.yul\":3539:3617   */\n      tag_125\n        /* \"#utility.yul\":3609:3616   */\n      dup5\n        /* \"#utility.yul\":3600:3606   */\n      dup3\n        /* \"#utility.yul\":3589:3598   */\n      dup6\n        /* \"#utility.yul\":3585:3607   */\n      add\n        /* \"#utility.yul\":3539:3617   */\n      tag_73\n      jump\t// in\n    tag_125:\n        /* \"#utility.yul\":3529:3617   */\n      swap2\n      pop\n        /* \"#utility.yul\":3325:3627   */\n      pop\n        /* \"#utility.yul\":3095:3634   */\n      swap3\n      swap2\n      pop\n      pop\n      jump\t// out\n        /* \"#utility.yul\":3640:3754   */\n    tag_74:\n        /* \"#utility.yul\":3707:3713   */\n      0x00\n        /* \"#utility.yul\":3741:3746   */\n      dup2\n        /* \"#utility.yul\":3735:3747   */\n      mload\n        /* \"#utility.yul\":3725:3747   */\n      swap1\n      pop\n        /* \"#utility.yul\":3640:3754   */\n      swap2\n      swap1\n      pop\n      jump\t// out\n        /* \"#utility.yul\":3760:3944   */\n    tag_75:\n        /* \"#utility.yul\":3859:3870   */\n      0x00\n        /* \"#utility.yul\":3893:3899   */\n      dup3\n        /* \"#utility.yul\":3888:3891   */\n      dup3\n        /* \"#utility.yul\":3881:3900   */\n      mstore\n        /* \"#utility.yul\":3933:3937   */\n      0x20\n        /* \"#utility.yul\":3928:3931   */\n      dup3\n        /* \"#utility.yul\":3924:3938   */\n      add\n        /* \"#utility.yul\":3909:3938   */\n      swap1\n      pop\n        /* \"#utility.yul\":3760:3944   */\n      swap3\n      swap2\n      pop\n      pop\n      jump\t// out\n        /* \"#utility.yul\":3950:4082   */\n    tag_76:\n        /* \"#utility.yul\":4017:4021   */\n      0x00\n        /* \"#utility.yul\":4040:4043   */\n      dup2\n        /* \"#utility.yul\":4032:4043   */\n      swap1\n      pop\n        /* \"#utility.yul\":4070:4074   */\n      0x20\n        /* \"#utility.yul\":4065:4068   */\n      dup3\n        /* \"#utility.yul\":4061:4075   */\n      add\n        /* \"#utility.yul\":4053:4075   */\n      swap1\n      pop\n        /* \"#utility.yul\":3950:4082   */\n      swap2\n      swap1\n      pop\n      jump\t// out\n        /* \"#utility.yul\":4088:4196   */\n    tag_77:\n        /* \"#utility.yul\":4165:4189   */\n      tag_130\n        /* \"#utility.yul\":4183:4188   */\n      dup2\n        /* \"#utility.yul\":4165:4189   */\n      tag_69\n      jump\t// in\n    tag_130:\n        /* \"#utility.yul\":4160:4163   */\n      dup3\n        /* \"#utility.yul\":4153:4190   */\n      mstore\n        /* \"#utility.yul\":4088:4196   */\n      pop\n      pop\n      jump\t// out\n        /* \"#utility.yul\":4202:4381   */\n    tag_78:\n        /* \"#utility.yul\":4271:4281   */\n      0x00\n        /* \"#utility.yul\":4292:4338   */\n      tag_132\n        /* \"#utility.yul\":4334:4337   */\n      dup4\n        /* \"#utility.yul\":4326:4332   */\n      dup4\n        /* \"#utility.yul\":4292:4338   */\n      tag_77\n      jump\t// in\n    tag_132:\n        /* \"#utility.yul\":4370:4374   */\n      0x20\n        /* \"#utility.yul\":4365:4368   */\n      dup4\n        /* \"#utility.yul\":4361:4375   */\n      add\n        /* \"#utility.yul\":4347:4375   */\n      swap1\n      pop\n        /* \"#utility.yul\":4202:4381   */\n      swap3\n      swap2\n      pop\n      pop\n      jump\t// out\n        /* \"#utility.yul\":4387:4500   */\n    tag_79:\n        /* \"#utility.yul\":4457:4461   */\n      0x00\n        /* \"#utility.yul\":4489:4493   */\n      0x20\n        /* \"#utility.yul\":4484:4487   */\n      dup3\n        /* \"#utility.yul\":4480:4494   */\n      add\n        /* \"#utility.yul\":4472:4494   */\n      swap1\n      pop\n        /* \"#utility.yul\":4387:4500   */\n      swap2\n      swap1\n      pop\n      jump\t// out\n        /* \"#utility.yul\":4536:5268   */\n    tag_80:\n        /* \"#utility.yul\":4655:4658   */\n      0x00\n        /* \"#utility.yul\":4684:4738   */\n      tag_135\n        /* \"#utility.yul\":4732:4737   */\n      dup3\n        /* \"#utility.yul\":4684:4738   */\n      tag_74\n      jump\t// in\n    tag_135:\n        /* \"#utility.yul\":4754:4840   */\n      tag_136\n        /* \"#utility.yul\":4833:4839   */\n      dup2\n        /* \"#utility.yul\":4828:4831   */\n      dup6\n        /* \"#utility.yul\":4754:4840   */\n      tag_75\n      jump\t// in\n    tag_136:\n        /* \"#utility.yul\":4747:4840   */\n      swap4\n      pop\n        /* \"#utility.yul\":4864:4920   */\n      tag_137\n        /* \"#utility.yul\":4914:4919   */\n      dup4\n        /* \"#utility.yul\":4864:4920   */\n      tag_76\n      jump\t// in\n    tag_137:\n        /* \"#utility.yul\":4943:4950   */\n      dup1\n        /* \"#utility.yul\":4974:4975   */\n      0x00\n        /* \"#utility.yul\":4959:5243   */\n    tag_138:\n        /* \"#utility.yul\":4984:4990   */\n      dup4\n        /* \"#utility.yul\":4981:4982   */\n      dup2\n        /* \"#utility.yul\":4978:4991   */\n      lt\n        /* \"#utility.yul\":4959:5243   */\n      iszero\n      tag_140\n      jumpi\n        /* \"#utility.yul\":5060:5066   */\n      dup2\n        /* \"#utility.yul\":5054:5067   */\n      mload\n        /* \"#utility.yul\":5087:5150   */\n      tag_141\n        /* \"#utility.yul\":5146:5149   */\n      dup9\n        /* \"#utility.yul\":5131:5144   */\n      dup3\n        /* \"#utility.yul\":5087:5150   */\n      tag_78\n      jump\t// in\n    tag_141:\n        /* \"#utility.yul\":5080:5150   */\n      swap8\n      pop\n        /* \"#utility.yul\":5173:5233   */\n      tag_142\n        /* \"#utility.yul\":5226:5232   */\n      dup4\n        /* \"#utility.yul\":5173:5233   */\n      tag_79\n      jump\t// in\n    tag_142:\n        /* \"#utility.yul\":5163:5233   */\n      swap3\n      pop\n        /* \"#utility.yul\":5019:5243   */\n      pop\n        /* \"#utility.yul\":5006:5007   */\n      0x01\n        /* \"#utility.yul\":5003:5004   */\n      dup2\n        /* \"#utility.yul\":4999:5008   */\n      add\n        /* \"#utility.yul\":4994:5008   */\n      swap1\n      pop\n        /* \"#utility.yul\":4959:5243   */\n      jump(tag_138)\n    tag_140:\n        /* \"#utility.yul\":4963:4977   */\n      pop\n        /* \"#utility.yul\":5259:5262   */\n      dup6\n        /* \"#utility.yul\":5252:5262   */\n      swap4\n      pop\n        /* \"#utility.yul\":4660:5268   */\n      pop\n      pop\n      pop\n        /* \"#utility.yul\":4536:5268   */\n      swap3\n      swap2\n      pop\n      pop\n      jump\t// out\n        /* \"#utility.yul\":5274:5908   */\n    tag_9:\n        /* \"#utility.yul\":5495:5499   */\n      0x00\n        /* \"#utility.yul\":5533:5535   */\n      0x40\n        /* \"#utility.yul\":5522:5531   */\n      dup3\n        /* \"#utility.yul\":5518:5536   */\n      add\n        /* \"#utility.yul\":5510:5536   */\n      swap1\n      pop\n        /* \"#utility.yul\":5582:5591   */\n      dup2\n        /* \"#utility.yul\":5576:5580   */\n      dup2\n        /* \"#utility.yul\":5572:5592   */\n      sub\n        /* \"#utility.yul\":5568:5569   */\n      0x00\n        /* \"#utility.yul\":5557:5566   */\n      dup4\n        /* \"#utility.yul\":5553:5570   */\n      add\n        /* \"#utility.yul\":5546:5593   */\n      mstore\n        /* \"#utility.yul\":5610:5718   */\n      tag_144\n        /* \"#utility.yul\":5713:5717   */\n      dup2\n        /* \"#utility.yul\":5704:5710   */\n      dup6\n        /* \"#utility.yul\":5610:5718   */\n      tag_80\n      jump\t// in\n    tag_144:\n        /* \"#utility.yul\":5602:5718   */\n      swap1\n      pop\n        /* \"#utility.yul\":5765:5774   */\n      dup2\n        /* \"#utility.yul\":5759:5763   */\n      dup2\n        /* \"#utility.yul\":5755:5775   */\n      sub\n        /* \"#utility.yul\":5750:5752   */\n      0x20\n        /* \"#utility.yul\":5739:5748   */\n      dup4\n        /* \"#utility.yul\":5735:5753   */\n      add\n        /* \"#utility.yul\":5728:5776   */\n      mstore\n        /* \"#utility.yul\":5793:5901   */\n      tag_145\n        /* \"#utility.yul\":5896:5900   */\n      dup2\n        /* \"#utility.yul\":5887:5893   */\n      dup5\n        /* \"#utility.yul\":5793:5901   */\n      tag_80\n      jump\t// in\n    tag_145:\n        /* \"#utility.yul\":5785:5901   */\n      swap1\n      pop\n        /* \"#utility.yul\":5274:5908   */\n      swap4\n      swap3\n      pop\n      pop\n      pop\n      jump\t// out\n        /* \"#utility.yul\":5914:6094   */\n    tag_81:\n        /* \"#utility.yul\":5962:6039   */\n      0x4e487b7100000000000000000000000000000000000000000000000000000000\n        /* \"#utility.yul\":5959:5960   */\n      0x00\n        /* \"#utility.yul\":5952:6040   */\n      mstore\n        /* \"#utility.yul\":6059:6063   */\n      0x11\n        /* \"#utility.yul\":6056:6057   */\n      0x04\n        /* \"#utility.yul\":6049:6064   */\n      mstore\n        /* \"#utility.yul\":6083:6087   */\n      0x24\n        /* \"#utility.yul\":6080:6081   */\n      0x00\n        /* \"#utility.yul\":6073:6088   */\n      revert\n        /* \"#utility.yul\":6100:6291   */\n    tag_18:\n        /* \"#utility.yul\":6140:6143   */\n      0x00\n        /* \"#utility.yul\":6159:6179   */\n      tag_148\n        /* \"#utility.yul\":6177:6178   */\n      dup3\n        /* \"#utility.yul\":6159:6179   */\n      tag_69\n      jump\t// in\n    tag_148:\n        /* \"#utility.yul\":6154:6179   */\n      swap2\n      pop\n        /* \"#utility.yul\":6193:6213   */\n      tag_149\n        /* \"#utility.yul\":6211:6212   */\n      dup4\n        /* \"#utility.yul\":6193:6213   */\n      tag_69\n      jump\t// in\n    tag_149:\n        /* \"#utility.yul\":6188:6213   */\n      swap3\n      pop\n        /* \"#utility.yul\":6236:6237   */\n      dup3\n        /* \"#utility.yul\":6233:6234   */\n      dup3\n        /* \"#utility.yul\":6229:6238   */\n      add\n        /* \"#utility.yul\":6222:6238   */\n      swap1\n      pop\n        /* \"#utility.yul\":6257:6260   */\n      dup1\n        /* \"#utility.yul\":6254:6255   */\n      dup3\n        /* \"#utility.yul\":6251:6261   */\n      gt\n        /* \"#utility.yul\":6248:6284   */\n      iszero\n      tag_150\n      jumpi\n        /* \"#utility.yul\":6264:6282   */\n      tag_151\n      tag_81\n      jump\t// in\n    tag_151:\n        /* \"#utility.yul\":6248:6284   */\n    tag_150:\n        /* \"#utility.yul\":6100:6291   */\n      swap3\n      swap2\n      pop\n      pop\n      jump\t// out\n        /* \"#utility.yul\":6297:6477   */\n    tag_21:\n        /* \"#utility.yul\":6345:6422   */\n      0x4e487b7100000000000000000000000000000000000000000000000000000000\n        /* \"#utility.yul\":6342:6343   */\n      0x00\n        /* \"#utility.yul\":6335:6423   */\n      mstore\n        /* \"#utility.yul\":6442:6446   */\n      0x32\n        /* \"#utility.yul\":6439:6440   */\n      0x04\n        /* \"#utility.yul\":6432:6447   */\n      mstore\n        /* \"#utility.yul\":6466:6470   */\n      0x24\n        /* \"#utility.yul\":6463:6464   */\n      0x00\n        /* \"#utility.yul\":6456:6471   */\n      revert\n        /* \"#utility.yul\":6483:6663   */\n    tag_82:\n        /* \"#utility.yul\":6531:6608   */\n      0x4e487b7100000000000000000000000000000000000000000000000000000000\n        /* \"#utility.yul\":6528:6529   */\n      0x00\n        /* \"#utility.yul\":6521:6609   */\n      mstore\n        /* \"#utility.yul\":6628:6632   */\n      0x12\n        /* \"#utility.yul\":6625:6626   */\n      0x04\n        /* \"#utility.yul\":6618:6633   */\n      mstore\n        /* \"#utility.yul\":6652:6656   */\n      0x24\n        /* \"#utility.yul\":6649:6650   */\n      0x00\n        /* \"#utility.yul\":6642:6657   */\n      revert\n        /* \"#utility.yul\":6669:6854   */\n    tag_34:\n        /* \"#utility.yul\":6709:6710   */\n      0x00\n        /* \"#utility.yul\":6726:6746   */\n      tag_155\n        /* \"#utility.yul\":6744:6745   */\n      dup3\n        /* \"#utility.yul\":6726:6746   */\n      tag_69\n      jump\t// in\n    tag_155:\n        /* \"#utility.yul\":6721:6746   */\n      swap2\n      pop\n        /* \"#utility.yul\":6760:6780   */\n      tag_156\n        /* \"#utility.yul\":6778:6779   */\n      dup4\n        /* \"#utility.yul\":6760:6780   */\n      tag_69\n      jump\t// in\n    tag_156:\n        /* \"#utility.yul\":6755:6780   */\n      swap3\n      pop\n        /* \"#utility.yul\":6799:6800   */\n      dup3\n        /* \"#utility.yul\":6789:6824   */\n      tag_157\n      jumpi\n        /* \"#utility.yul\":6804:6822   */\n      tag_158\n      tag_82\n      jump\t// in\n    tag_158:\n        /* \"#utility.yul\":6789:6824   */\n    tag_157:\n        /* \"#utility.yul\":6846:6847   */\n      dup3\n        /* \"#utility.yul\":6843:6844   */\n      dup3\n        /* \"#utility.yul\":6839:6848   */\n      div\n        /* \"#utility.yul\":6834:6848   */\n      swap1\n      pop\n        /* \"#utility.yul\":6669:6854   */\n      swap3\n      swap2\n      pop\n      pop\n      jump\t// out\n        /* \"#utility.yul\":6860:7036   */\n    tag_36:\n        /* \"#utility.yul\":6892:6893   */\n      0x00\n        /* \"#utility.yul\":6909:6929   */\n      tag_160\n        /* \"#utility.yul\":6927:6928   */\n      dup3\n        /* \"#utility.yul\":6909:6929   */\n      tag_69\n      jump\t// in\n    tag_160:\n        /* \"#utility.yul\":6904:6929   */\n      swap2\n      pop\n        /* \"#utility.yul\":6943:6963   */\n      tag_161\n        /* \"#utility.yul\":6961:6962   */\n      dup4\n        /* \"#utility.yul\":6943:6963   */\n      tag_69\n      jump\t// in\n    tag_161:\n        /* \"#utility.yul\":6938:6963   */\n      swap3\n      pop\n        /* \"#utility.yul\":6982:6983   */\n      dup3\n        /* \"#utility.yul\":6972:7007   */\n      tag_162\n      jumpi\n        /* \"#utility.yul\":6987:7005   */\n      tag_163\n      tag_82\n      jump\t// in\n    tag_163:\n        /* \"#utility.yul\":6972:7007   */\n    tag_162:\n        /* \"#utility.yul\":7028:7029   */\n      dup3\n        /* \"#utility.yul\":7025:7026   */\n      dup3\n        /* \"#utility.yul\":7021:7030   */\n      mod\n        /* \"#utility.yul\":7016:7030   */\n      swap1\n      pop\n        /* \"#utility.yul\":6860:7036   */\n      swap3\n      swap2\n      pop\n      pop\n      jump\t// out\n        /* \"#utility.yul\":7042:7236   */\n    tag_43:\n        /* \"#utility.yul\":7082:7086   */\n      0x00\n        /* \"#utility.yul\":7102:7122   */\n      tag_165\n        /* \"#utility.yul\":7120:7121   */\n      dup3\n        /* \"#utility.yul\":7102:7122   */\n      tag_69\n      jump\t// in\n    tag_165:\n        /* \"#utility.yul\":7097:7122   */\n      swap2\n      pop\n        /* \"#utility.yul\":7136:7156   */\n      tag_166\n        /* \"#utility.yul\":7154:7155   */\n      dup4\n        /* \"#utility.yul\":7136:7156   */\n      tag_69\n      jump\t// in\n    tag_166:\n        /* \"#utility.yul\":7131:7156   */\n      swap3\n      pop\n        /* \"#utility.yul\":7180:7181   */\n      dup3\n        /* \"#utility.yul\":7177:7178   */\n      dup3\n        /* \"#utility.yul\":7173:7182   */\n      sub\n        /* \"#utility.yul\":7165:7182   */\n      swap1\n      pop\n        /* \"#utility.yul\":7204:7205   */\n      dup2\n        /* \"#utility.yul\":7198:7202   */\n      dup2\n        /* \"#utility.yul\":7195:7206   */\n      gt\n        /* \"#utility.yul\":7192:7229   */\n      iszero\n      tag_167\n      jumpi\n        /* \"#utility.yul\":7209:7227   */\n      tag_168\n      tag_81\n      jump\t// in\n    tag_168:\n        /* \"#utility.yul\":7192:7229   */\n    tag_167:\n        /* \"#utility.yul\":7042:7236   */\n      swap3\n      swap2\n      pop\n      pop\n      jump\t// out\n\n    auxdata: 0xa264697066735822122062c4a97db586753e5bf190e838dac1a5f1e311bf5a5667cae0ea8e5c2f6e938a64736f6c634300081a0033\n}\n",
				"bytecode": {
					"linkReferences": {},
					"object": "6080604052348015600e575f80fd5b5061072a8061001c5f395ff3fe608060405234801561000f575f80fd5b5060043610610029575f3560e01c8063502e8bd81461002d575b5f80fd5b61004760048036038101906100429190610474565b61005e565b604051610055929190610572565b60405180910390f35b6060805f5b8351811015610152575f60018261007a91906105d4565b90505b84518110156101445784818151811061009957610098610607565b5b60200260200101518583815181106100b4576100b3610607565b5b60200260200101511015610137578481815181106100d5576100d4610607565b5b60200260200101518583815181106100f0576100ef610607565b5b602002602001015186848151811061010b5761010a610607565b5b6020026020010187848151811061012557610124610607565b5b60200260200101828152508281525050505b808060010191505061007d565b508080600101915050610063565b5060605f600285516101649190610661565b90505f600286516101759190610691565b0361024c57600267ffffffffffffffff81111561019557610194610305565b5b6040519080825280602002602001820160405280156101c35781602001602082028036833780820191505090505b509150846001826101d491906106c1565b815181106101e5576101e4610607565b5b6020026020010151825f81518110610200576101ff610607565b5b60200260200101818152505084818151811061021f5761021e610607565b5b60200260200101518260018151811061023b5761023a610607565b5b6020026020010181815250506102d3565b600167ffffffffffffffff81111561026757610266610305565b5b6040519080825280602002602001820160405280156102955781602001602082028036833780820191505090505b5091508481815181106102ab576102aa610607565b5b6020026020010151825f815181106102c6576102c5610607565b5b6020026020010181815250505b8482935093505050915091565b5f604051905090565b5f80fd5b5f80fd5b5f80fd5b5f601f19601f8301169050919050565b7f4e487b71000000000000000000000000000000000000000000000000000000005f52604160045260245ffd5b61033b826102f5565b810181811067ffffffffffffffff8211171561035a57610359610305565b5b80604052505050565b5f61036c6102e0565b90506103788282610332565b919050565b5f67ffffffffffffffff82111561039757610396610305565b5b602082029050602081019050919050565b5f80fd5b5f819050919050565b6103be816103ac565b81146103c8575f80fd5b50565b5f813590506103d9816103b5565b92915050565b5f6103f16103ec8461037d565b610363565b90508083825260208201905060208402830185811115610414576104136103a8565b5b835b8181101561043d578061042988826103cb565b845260208401935050602081019050610416565b5050509392505050565b5f82601f83011261045b5761045a6102f1565b5b813561046b8482602086016103df565b91505092915050565b5f60208284031215610489576104886102e9565b5b5f82013567ffffffffffffffff8111156104a6576104a56102ed565b5b6104b284828501610447565b91505092915050565b5f81519050919050565b5f82825260208201905092915050565b5f819050602082019050919050565b6104ed816103ac565b82525050565b5f6104fe83836104e4565b60208301905092915050565b5f602082019050919050565b5f610520826104bb565b61052a81856104c5565b9350610535836104d5565b805f5b8381101561056557815161054c88826104f3565b97506105578361050a565b925050600181019050610538565b5085935050505092915050565b5f6040820190508181035f83015261058a8185610516565b9050818103602083015261059e8184610516565b90509392505050565b7f4e487b71000000000000000000000000000000000000000000000000000000005f52601160045260245ffd5b5f6105de826103ac565b91506105e9836103ac565b9250828201905080821115610601576106006105a7565b5b92915050565b7f4e487b71000000000000000000000000000000000000000000000000000000005f52603260045260245ffd5b7f4e487b71000000000000000000000000000000000000000000000000000000005f52601260045260245ffd5b5f61066b826103ac565b9150610676836103ac565b92508261068657610685610634565b5b828204905092915050565b5f61069b826103ac565b91506106a6836103ac565b9250826106b6576106b5610634565b5b828206905092915050565b5f6106cb826103ac565b91506106d6836103ac565b92508282039050818111156106ee576106ed6105a7565b5b9291505056fea264697066735822122062c4a97db586753e5bf190e838dac1a5f1e311bf5a5667cae0ea8e5c2f6e938a64736f6c634300081a0033",
					"opcodes": "PUSH1 0x80 PUSH1 0x40 MSTORE CALLVALUE DUP1 ISZERO PUSH1 0xE JUMPI PUSH0 DUP1 REVERT JUMPDEST POP PUSH2 0x72A DUP1 PUSH2 0x1C PUSH0 CODECOPY PUSH0 RETURN INVALID PUSH1 0x80 PUSH1 0x40 MSTORE CALLVALUE DUP1 ISZERO PUSH2 0xF JUMPI PUSH0 DUP1 REVERT JUMPDEST POP PUSH1 0x4 CALLDATASIZE LT PUSH2 0x29 JUMPI PUSH0 CALLDATALOAD PUSH1 0xE0 SHR DUP1 PUSH4 0x502E8BD8 EQ PUSH2 0x2D JUMPI JUMPDEST PUSH0 DUP1 REVERT JUMPDEST PUSH2 0x47 PUSH1 0x4 DUP1 CALLDATASIZE SUB DUP2 ADD SWAP1 PUSH2 0x42 SWAP2 SWAP1 PUSH2 0x474 JUMP JUMPDEST PUSH2 0x5E JUMP JUMPDEST PUSH1 0x40 MLOAD PUSH2 0x55 SWAP3 SWAP2 SWAP1 PUSH2 0x572 JUMP JUMPDEST PUSH1 0x40 MLOAD DUP1 SWAP2 SUB SWAP1 RETURN JUMPDEST PUSH1 0x60 DUP1 PUSH0 JUMPDEST DUP4 MLOAD DUP2 LT ISZERO PUSH2 0x152 JUMPI PUSH0 PUSH1 0x1 DUP3 PUSH2 0x7A SWAP2 SWAP1 PUSH2 0x5D4 JUMP JUMPDEST SWAP1 POP JUMPDEST DUP5 MLOAD DUP2 LT ISZERO PUSH2 0x144 JUMPI DUP5 DUP2 DUP2 MLOAD DUP2 LT PUSH2 0x99 JUMPI PUSH2 0x98 PUSH2 0x607 JUMP JUMPDEST JUMPDEST PUSH1 0x20 MUL PUSH1 0x20 ADD ADD MLOAD DUP6 DUP4 DUP2 MLOAD DUP2 LT PUSH2 0xB4 JUMPI PUSH2 0xB3 PUSH2 0x607 JUMP JUMPDEST JUMPDEST PUSH1 0x20 MUL PUSH1 0x20 ADD ADD MLOAD LT ISZERO PUSH2 0x137 JUMPI DUP5 DUP2 DUP2 MLOAD DUP2 LT PUSH2 0xD5 JUMPI PUSH2 0xD4 PUSH2 0x607 JUMP JUMPDEST JUMPDEST PUSH1 0x20 MUL PUSH1 0x20 ADD ADD MLOAD DUP6 DUP4 DUP2 MLOAD DUP2 LT PUSH2 0xF0 JUMPI PUSH2 0xEF PUSH2 0x607 JUMP JUMPDEST JUMPDEST PUSH1 0x20 MUL PUSH1 0x20 ADD ADD MLOAD DUP7 DUP5 DUP2 MLOAD DUP2 LT PUSH2 0x10B JUMPI PUSH2 0x10A PUSH2 0x607 JUMP JUMPDEST JUMPDEST PUSH1 0x20 MUL PUSH1 0x20 ADD ADD DUP8 DUP5 DUP2 MLOAD DUP2 LT PUSH2 0x125 JUMPI PUSH2 0x124 PUSH2 0x607 JUMP JUMPDEST JUMPDEST PUSH1 0x20 MUL PUSH1 0x20 ADD ADD DUP3 DUP2 MSTORE POP DUP3 DUP2 MSTORE POP POP POP JUMPDEST DUP1 DUP1 PUSH1 0x1 ADD SWAP2 POP POP PUSH2 0x7D JUMP JUMPDEST POP DUP1 DUP1 PUSH1 0x1 ADD SWAP2 POP POP PUSH2 0x63 JUMP JUMPDEST POP PUSH1 0x60 PUSH0 PUSH1 0x2 DUP6 MLOAD PUSH2 0x164 SWAP2 SWAP1 PUSH2 0x661 JUMP JUMPDEST SWAP1 POP PUSH0 PUSH1 0x2 DUP7 MLOAD PUSH2 0x175 SWAP2 SWAP1 PUSH2 0x691 JUMP JUMPDEST SUB PUSH2 0x24C JUMPI PUSH1 0x2 PUSH8 0xFFFFFFFFFFFFFFFF DUP2 GT ISZERO PUSH2 0x195 JUMPI PUSH2 0x194 PUSH2 0x305 JUMP JUMPDEST JUMPDEST PUSH1 0x40 MLOAD SWAP1 DUP1 DUP3 MSTORE DUP1 PUSH1 0x20 MUL PUSH1 0x20 ADD DUP3 ADD PUSH1 0x40 MSTORE DUP1 ISZERO PUSH2 0x1C3 JUMPI DUP2 PUSH1 0x20 ADD PUSH1 0x20 DUP3 MUL DUP1 CALLDATASIZE DUP4 CALLDATACOPY DUP1 DUP3 ADD SWAP2 POP POP SWAP1 POP JUMPDEST POP SWAP2 POP DUP5 PUSH1 0x1 DUP3 PUSH2 0x1D4 SWAP2 SWAP1 PUSH2 0x6C1 JUMP JUMPDEST DUP2 MLOAD DUP2 LT PUSH2 0x1E5 JUMPI PUSH2 0x1E4 PUSH2 0x607 JUMP JUMPDEST JUMPDEST PUSH1 0x20 MUL PUSH1 0x20 ADD ADD MLOAD DUP3 PUSH0 DUP2 MLOAD DUP2 LT PUSH2 0x200 JUMPI PUSH2 0x1FF PUSH2 0x607 JUMP JUMPDEST JUMPDEST PUSH1 0x20 MUL PUSH1 0x20 ADD ADD DUP2 DUP2 MSTORE POP POP DUP5 DUP2 DUP2 MLOAD DUP2 LT PUSH2 0x21F JUMPI PUSH2 0x21E PUSH2 0x607 JUMP JUMPDEST JUMPDEST PUSH1 0x20 MUL PUSH1 0x20 ADD ADD MLOAD DUP3 PUSH1 0x1 DUP2 MLOAD DUP2 LT PUSH2 0x23B JUMPI PUSH2 0x23A PUSH2 0x607 JUMP JUMPDEST JUMPDEST PUSH1 0x20 MUL PUSH1 0x20 ADD ADD DUP2 DUP2 MSTORE POP POP PUSH2 0x2D3 JUMP JUMPDEST PUSH1 0x1 PUSH8 0xFFFFFFFFFFFFFFFF DUP2 GT ISZERO PUSH2 0x267 JUMPI PUSH2 0x266 PUSH2 0x305 JUMP JUMPDEST JUMPDEST PUSH1 0x40 MLOAD SWAP1 DUP1 DUP3 MSTORE DUP1 PUSH1 0x20 MUL PUSH1 0x20 ADD DUP3 ADD PUSH1 0x40 MSTORE DUP1 ISZERO PUSH2 0x295 JUMPI DUP2 PUSH1 0x20 ADD PUSH1 0x20 DUP3 MUL DUP1 CALLDATASIZE DUP4 CALLDATACOPY DUP1 DUP3 ADD SWAP2 POP POP SWAP1 POP JUMPDEST POP SWAP2 POP DUP5 DUP2 DUP2 MLOAD DUP2 LT PUSH2 0x2AB JUMPI PUSH2 0x2AA PUSH2 0x607 JUMP JUMPDEST JUMPDEST PUSH1 0x20 MUL PUSH1 0x20 ADD ADD MLOAD DUP3 PUSH0 DUP2 MLOAD DUP2 LT PUSH2 0x2C6 JUMPI PUSH2 0x2C5 PUSH2 0x607 JUMP JUMPDEST JUMPDEST PUSH1 0x20 MUL PUSH1 0x20 ADD ADD DUP2 DUP2 MSTORE POP POP JUMPDEST DUP5 DUP3 SWAP4 POP SWAP4 POP POP POP SWAP2 POP SWAP2 JUMP JUMPDEST PUSH0 PUSH1 0x40 MLOAD SWAP1 POP SWAP1 JUMP JUMPDEST PUSH0 DUP1 REVERT JUMPDEST PUSH0 DUP1 REVERT JUMPDEST PUSH0 DUP1 REVERT JUMPDEST PUSH0 PUSH1 0x1F NOT PUSH1 0x1F DUP4 ADD AND SWAP1 POP SWAP2 SWAP1 POP JUMP JUMPDEST PUSH32 0x4E487B7100000000000000000000000000000000000000000000000000000000 PUSH0 MSTORE PUSH1 0x41 PUSH1 0x4 MSTORE PUSH1 0x24 PUSH0 REVERT JUMPDEST PUSH2 0x33B DUP3 PUSH2 0x2F5 JUMP JUMPDEST DUP2 ADD DUP2 DUP2 LT PUSH8 0xFFFFFFFFFFFFFFFF DUP3 GT OR ISZERO PUSH2 0x35A JUMPI PUSH2 0x359 PUSH2 0x305 JUMP JUMPDEST JUMPDEST DUP1 PUSH1 0x40 MSTORE POP POP POP JUMP JUMPDEST PUSH0 PUSH2 0x36C PUSH2 0x2E0 JUMP JUMPDEST SWAP1 POP PUSH2 0x378 DUP3 DUP3 PUSH2 0x332 JUMP JUMPDEST SWAP2 SWAP1 POP JUMP JUMPDEST PUSH0 PUSH8 0xFFFFFFFFFFFFFFFF DUP3 GT ISZERO PUSH2 0x397 JUMPI PUSH2 0x396 PUSH2 0x305 JUMP JUMPDEST JUMPDEST PUSH1 0x20 DUP3 MUL SWAP1 POP PUSH1 0x20 DUP2 ADD SWAP1 POP SWAP2 SWAP1 POP JUMP JUMPDEST PUSH0 DUP1 REVERT JUMPDEST PUSH0 DUP2 SWAP1 POP SWAP2 SWAP1 POP JUMP JUMPDEST PUSH2 0x3BE DUP2 PUSH2 0x3AC JUMP JUMPDEST DUP2 EQ PUSH2 0x3C8 JUMPI PUSH0 DUP1 REVERT JUMPDEST POP JUMP JUMPDEST PUSH0 DUP2 CALLDATALOAD SWAP1 POP PUSH2 0x3D9 DUP2 PUSH2 0x3B5 JUMP JUMPDEST SWAP3 SWAP2 POP POP JUMP JUMPDEST PUSH0 PUSH2 0x3F1 PUSH2 0x3EC DUP5 PUSH2 0x37D JUMP JUMPDEST PUSH2 0x363 JUMP JUMPDEST SWAP1 POP DUP1 DUP4 DUP3 MSTORE PUSH1 0x20 DUP3 ADD SWAP1 POP PUSH1 0x20 DUP5 MUL DUP4 ADD DUP6 DUP2 GT ISZERO PUSH2 0x414 JUMPI PUSH2 0x413 PUSH2 0x3A8 JUMP JUMPDEST JUMPDEST DUP4 JUMPDEST DUP2 DUP2 LT ISZERO PUSH2 0x43D JUMPI DUP1 PUSH2 0x429 DUP9 DUP3 PUSH2 0x3CB JUMP JUMPDEST DUP5 MSTORE PUSH1 0x20 DUP5 ADD SWAP4 POP POP PUSH1 0x20 DUP2 ADD SWAP1 POP PUSH2 0x416 JUMP JUMPDEST POP POP POP SWAP4 SWAP3 POP POP POP JUMP JUMPDEST PUSH0 DUP3 PUSH1 0x1F DUP4 ADD SLT PUSH2 0x45B JUMPI PUSH2 0x45A PUSH2 0x2F1 JUMP JUMPDEST JUMPDEST DUP2 CALLDATALOAD PUSH2 0x46B DUP5 DUP3 PUSH1 0x20 DUP7 ADD PUSH2 0x3DF JUMP JUMPDEST SWAP2 POP POP SWAP3 SWAP2 POP POP JUMP JUMPDEST PUSH0 PUSH1 0x20 DUP3 DUP5 SUB SLT ISZERO PUSH2 0x489 JUMPI PUSH2 0x488 PUSH2 0x2E9 JUMP JUMPDEST JUMPDEST PUSH0 DUP3 ADD CALLDATALOAD PUSH8 0xFFFFFFFFFFFFFFFF DUP2 GT ISZERO PUSH2 0x4A6 JUMPI PUSH2 0x4A5 PUSH2 0x2ED JUMP JUMPDEST JUMPDEST PUSH2 0x4B2 DUP5 DUP3 DUP6 ADD PUSH2 0x447 JUMP JUMPDEST SWAP2 POP POP SWAP3 SWAP2 POP POP JUMP JUMPDEST PUSH0 DUP2 MLOAD SWAP1 POP SWAP2 SWAP1 POP JUMP JUMPDEST PUSH0 DUP3 DUP3 MSTORE PUSH1 0x20 DUP3 ADD SWAP1 POP SWAP3 SWAP2 POP POP JUMP JUMPDEST PUSH0 DUP2 SWAP1 POP PUSH1 0x20 DUP3 ADD SWAP1 POP SWAP2 SWAP1 POP JUMP JUMPDEST PUSH2 0x4ED DUP2 PUSH2 0x3AC JUMP JUMPDEST DUP3 MSTORE POP POP JUMP JUMPDEST PUSH0 PUSH2 0x4FE DUP4 DUP4 PUSH2 0x4E4 JUMP JUMPDEST PUSH1 0x20 DUP4 ADD SWAP1 POP SWAP3 SWAP2 POP POP JUMP JUMPDEST PUSH0 PUSH1 0x20 DUP3 ADD SWAP1 POP SWAP2 SWAP1 POP JUMP JUMPDEST PUSH0 PUSH2 0x520 DUP3 PUSH2 0x4BB JUMP JUMPDEST PUSH2 0x52A DUP2 DUP6 PUSH2 0x4C5 JUMP JUMPDEST SWAP4 POP PUSH2 0x535 DUP4 PUSH2 0x4D5 JUMP JUMPDEST DUP1 PUSH0 JUMPDEST DUP4 DUP2 LT ISZERO PUSH2 0x565 JUMPI DUP2 MLOAD PUSH2 0x54C DUP9 DUP3 PUSH2 0x4F3 JUMP JUMPDEST SWAP8 POP PUSH2 0x557 DUP4 PUSH2 0x50A JUMP JUMPDEST SWAP3 POP POP PUSH1 0x1 DUP2 ADD SWAP1 POP PUSH2 0x538 JUMP JUMPDEST POP DUP6 SWAP4 POP POP POP POP SWAP3 SWAP2 POP POP JUMP JUMPDEST PUSH0 PUSH1 0x40 DUP3 ADD SWAP1 POP DUP2 DUP2 SUB PUSH0 DUP4 ADD MSTORE PUSH2 0x58A DUP2 DUP6 PUSH2 0x516 JUMP JUMPDEST SWAP1 POP DUP2 DUP2 SUB PUSH1 0x20 DUP4 ADD MSTORE PUSH2 0x59E DUP2 DUP5 PUSH2 0x516 JUMP JUMPDEST SWAP1 POP SWAP4 SWAP3 POP POP POP JUMP JUMPDEST PUSH32 0x4E487B7100000000000000000000000000000000000000000000000000000000 PUSH0 MSTORE PUSH1 0x11 PUSH1 0x4 MSTORE PUSH1 0x24 PUSH0 REVERT JUMPDEST PUSH0 PUSH2 0x5DE DUP3 PUSH2 0x3AC JUMP JUMPDEST SWAP2 POP PUSH2 0x5E9 DUP4 PUSH2 0x3AC JUMP JUMPDEST SWAP3 POP DUP3 DUP3 ADD SWAP1 POP DUP1 DUP3 GT ISZERO PUSH2 0x601 JUMPI PUSH2 0x600 PUSH2 0x5A7 JUMP JUMPDEST JUMPDEST SWAP3 SWAP2 POP POP JUMP JUMPDEST PUSH32 0x4E487B7100000000000000000000000000000000000000000000000000000000 PUSH0 MSTORE PUSH1 0x32 PUSH1 0x4 MSTORE PUSH1 0x24 PUSH0 REVERT JUMPDEST PUSH32 0x4E487B7100000000000000000000000000000000000000000000000000000000 PUSH0 MSTORE PUSH1 0x12 PUSH1 0x4 MSTORE PUSH1 0x24 PUSH0 REVERT JUMPDEST PUSH0 PUSH2 0x66B DUP3 PUSH2 0x3AC JUMP JUMPDEST SWAP2 POP PUSH2 0x676 DUP4 PUSH2 0x3AC JUMP JUMPDEST SWAP3 POP DUP3 PUSH2 0x686 JUMPI PUSH2 0x685 PUSH2 0x634 JUMP JUMPDEST JUMPDEST DUP3 DUP3 DIV SWAP1 POP SWAP3 SWAP2 POP POP JUMP JUMPDEST PUSH0 PUSH2 0x69B DUP3 PUSH2 0x3AC JUMP JUMPDEST SWAP2 POP PUSH2 0x6A6 DUP4 PUSH2 0x3AC JUMP JUMPDEST SWAP3 POP DUP3 PUSH2 0x6B6 JUMPI PUSH2 0x6B5 PUSH2 0x634 JUMP JUMPDEST JUMPDEST DUP3 DUP3 MOD SWAP1 POP SWAP3 SWAP2 POP POP JUMP JUMPDEST PUSH0 PUSH2 0x6CB DUP3 PUSH2 0x3AC JUMP JUMPDEST SWAP2 POP PUSH2 0x6D6 DUP4 PUSH2 0x3AC JUMP JUMPDEST SWAP3 POP DUP3 DUP3 SUB SWAP1 POP DUP2 DUP2 GT ISZERO PUSH2 0x6EE JUMPI PUSH2 0x6ED PUSH2 0x5A7 JUMP JUMPDEST JUMPDEST SWAP3 SWAP2 POP POP JUMP INVALID LOG2 PUSH5 0x6970667358 0x22 SLT KECCAK256 PUSH3 0xC4A97D 0xB5 DUP7 PUSH22 0x3E5BF190E838DAC1A5F1E311BF5A5667CAE0EA8E5C2F PUSH15 0x938A64736F6C634300081A00330000 "
				},
				"gasEstimates": {
					"creation": {
						"codeDepositCost": "366800",
						"executionCost": "403",
						"totalCost": "367203"
					},
					"external": {
						"findMedianAndSort(uint256[])": "infinite"
					}
				},
				"methodIdentifiers": {
					"findMedianAndSort(uint256[])": "502e8bd8"
				}
			},
			"storageLayout": {
				"storage": [],
				"types": null
			},
			"userdoc": {
				"kind": "user",
				"methods": {},
				"version": 1
			}
		}
	}
}