{
	"solidity/solidity31~40.sol": {
		"Q33": {
			"abi": [
				{
					"inputs": [
						{
							"internalType": "string",
							"name": "_name",
							"type": "string"
						},
						{
							"internalType": "uint256",
							"name": "_number",
							"type": "uint256"
						},
						{
							"internalType": "address",
							"name": "_wallet",
							"type": "address"
						},
						{
							"internalType": "string",
							"name": "_birthday",
							"type": "string"
						}
					],
					"name": "addCustomer",
					"outputs": [],
					"stateMutability": "nonpayable",
					"type": "function"
				},
				{
					"inputs": [
						{
							"internalType": "string",
							"name": "_name",
							"type": "string"
						}
					],
					"name": "getName",
					"outputs": [
						{
							"components": [
								{
									"internalType": "string",
									"name": "name",
									"type": "string"
								},
								{
									"internalType": "uint256",
									"name": "number",
									"type": "uint256"
								},
								{
									"internalType": "address",
									"name": "wallet",
									"type": "address"
								},
								{
									"internalType": "string",
									"name": "birthday",
									"type": "string"
								}
							],
							"internalType": "struct Q33.Customer",
							"name": "",
							"type": "tuple"
						}
					],
					"stateMutability": "view",
					"type": "function"
				}
			],
			"devdoc": {
				"kind": "dev",
				"methods": {},
				"version": 1
			},
			"evm": {
				"assembly": "    /* \"solidity/solidity31~40.sol\":985:1782  contract Q33 {... */\n  mstore(0x40, 0x80)\n  callvalue\n  dup1\n  iszero\n  tag_1\n  jumpi\n  0x00\n  dup1\n  revert\ntag_1:\n  pop\n  dataSize(sub_0)\n  dup1\n  dataOffset(sub_0)\n  0x00\n  codecopy\n  0x00\n  return\nstop\n\nsub_0: assembly {\n        /* \"solidity/solidity31~40.sol\":985:1782  contract Q33 {... */\n      mstore(0x40, 0x80)\n      callvalue\n      dup1\n      iszero\n      tag_1\n      jumpi\n      0x00\n      dup1\n      revert\n    tag_1:\n      pop\n      jumpi(tag_2, lt(calldatasize, 0x04))\n      shr(0xe0, calldataload(0x00))\n      dup1\n      0x452fd03c\n      eq\n      tag_3\n      jumpi\n      dup1\n      0x6932cf81\n      eq\n      tag_4\n      jumpi\n    tag_2:\n      0x00\n      dup1\n      revert\n        /* \"solidity/solidity31~40.sol\":1428:1613  function addCustomer(string memory _name, uint _number, address _wallet, string memory _birthday) public {... */\n    tag_3:\n      tag_5\n      0x04\n      dup1\n      calldatasize\n      sub\n      dup2\n      add\n      swap1\n      tag_6\n      swap2\n      swap1\n      tag_7\n      jump\t// in\n    tag_6:\n      tag_8\n      jump\t// in\n    tag_5:\n      stop\n        /* \"solidity/solidity31~40.sol\":1619:1780  function getName(string memory _name) public view returns (Customer memory) {... */\n    tag_4:\n      tag_9\n      0x04\n      dup1\n      calldatasize\n      sub\n      dup2\n      add\n      swap1\n      tag_10\n      swap2\n      swap1\n      tag_11\n      jump\t// in\n    tag_10:\n      tag_12\n      jump\t// in\n    tag_9:\n      mload(0x40)\n      tag_13\n      swap2\n      swap1\n      tag_14\n      jump\t// in\n    tag_13:\n      mload(0x40)\n      dup1\n      swap2\n      sub\n      swap1\n      return\n        /* \"solidity/solidity31~40.sol\":1428:1613  function addCustomer(string memory _name, uint _number, address _wallet, string memory _birthday) public {... */\n    tag_8:\n        /* \"solidity/solidity31~40.sol\":1562:1606  Customer(_name, _number, _wallet, _birthday) */\n      mload(0x40)\n      dup1\n      0x80\n      add\n      0x40\n      mstore\n      dup1\n        /* \"solidity/solidity31~40.sol\":1571:1576  _name */\n      dup6\n        /* \"solidity/solidity31~40.sol\":1562:1606  Customer(_name, _number, _wallet, _birthday) */\n      dup2\n      mstore\n      0x20\n      add\n        /* \"solidity/solidity31~40.sol\":1578:1585  _number */\n      dup5\n        /* \"solidity/solidity31~40.sol\":1562:1606  Customer(_name, _number, _wallet, _birthday) */\n      dup2\n      mstore\n      0x20\n      add\n        /* \"solidity/solidity31~40.sol\":1587:1594  _wallet */\n      dup4\n        /* \"solidity/solidity31~40.sol\":1562:1606  Customer(_name, _number, _wallet, _birthday) */\n      0xffffffffffffffffffffffffffffffffffffffff\n      and\n      dup2\n      mstore\n      0x20\n      add\n        /* \"solidity/solidity31~40.sol\":1596:1605  _birthday */\n      dup3\n        /* \"solidity/solidity31~40.sol\":1562:1606  Customer(_name, _number, _wallet, _birthday) */\n      dup2\n      mstore\n      pop\n        /* \"solidity/solidity31~40.sol\":1543:1552  customers */\n      0x00\n        /* \"solidity/solidity31~40.sol\":1553:1558  _name */\n      dup6\n        /* \"solidity/solidity31~40.sol\":1543:1559  customers[_name] */\n      mload(0x40)\n      tag_16\n      swap2\n      swap1\n      tag_17\n      jump\t// in\n    tag_16:\n      swap1\n      dup2\n      mstore\n      0x20\n      add\n      mload(0x40)\n      dup1\n      swap2\n      sub\n      swap1\n      keccak256\n        /* \"solidity/solidity31~40.sol\":1543:1606  customers[_name] = Customer(_name, _number, _wallet, _birthday) */\n      0x00\n      dup3\n      add\n      mload\n      dup2\n      0x00\n      add\n      swap1\n      dup2\n      tag_18\n      swap2\n      swap1\n      tag_19\n      jump\t// in\n    tag_18:\n      pop\n      0x20\n      dup3\n      add\n      mload\n      dup2\n      0x01\n      add\n      sstore\n      0x40\n      dup3\n      add\n      mload\n      dup2\n      0x02\n      add\n      exp(0x0100, 0x00)\n      dup2\n      sload\n      dup2\n      0xffffffffffffffffffffffffffffffffffffffff\n      mul\n      not\n      and\n      swap1\n      dup4\n      0xffffffffffffffffffffffffffffffffffffffff\n      and\n      mul\n      or\n      swap1\n      sstore\n      pop\n      0x60\n      dup3\n      add\n      mload\n      dup2\n      0x03\n      add\n      swap1\n      dup2\n      tag_20\n      swap2\n      swap1\n      tag_19\n      jump\t// in\n    tag_20:\n      pop\n      swap1\n      pop\n      pop\n        /* \"solidity/solidity31~40.sol\":1428:1613  function addCustomer(string memory _name, uint _number, address _wallet, string memory _birthday) public {... */\n      pop\n      pop\n      pop\n      pop\n      jump\t// out\n        /* \"solidity/solidity31~40.sol\":1619:1780  function getName(string memory _name) public view returns (Customer memory) {... */\n    tag_12:\n        /* \"solidity/solidity31~40.sol\":1678:1693  Customer memory */\n      tag_21\n      tag_22\n      jump\t// in\n    tag_21:\n        /* \"solidity/solidity31~40.sol\":1705:1729  Customer memory customer */\n      0x00\n        /* \"solidity/solidity31~40.sol\":1732:1741  customers */\n      dup1\n        /* \"solidity/solidity31~40.sol\":1742:1747  _name */\n      dup4\n        /* \"solidity/solidity31~40.sol\":1732:1748  customers[_name] */\n      mload(0x40)\n      tag_24\n      swap2\n      swap1\n      tag_17\n      jump\t// in\n    tag_24:\n      swap1\n      dup2\n      mstore\n      0x20\n      add\n      mload(0x40)\n      dup1\n      swap2\n      sub\n      swap1\n      keccak256\n        /* \"solidity/solidity31~40.sol\":1705:1748  Customer memory customer = customers[_name] */\n      mload(0x40)\n      dup1\n      0x80\n      add\n      0x40\n      mstore\n      swap1\n      dup2\n      0x00\n      dup3\n      add\n      dup1\n      sload\n      tag_25\n      swap1\n      tag_26\n      jump\t// in\n    tag_25:\n      dup1\n      0x1f\n      add\n      0x20\n      dup1\n      swap2\n      div\n      mul\n      0x20\n      add\n      mload(0x40)\n      swap1\n      dup2\n      add\n      0x40\n      mstore\n      dup1\n      swap3\n      swap2\n      swap1\n      dup2\n      dup2\n      mstore\n      0x20\n      add\n      dup3\n      dup1\n      sload\n      tag_27\n      swap1\n      tag_26\n      jump\t// in\n    tag_27:\n      dup1\n      iszero\n      tag_28\n      jumpi\n      dup1\n      0x1f\n      lt\n      tag_29\n      jumpi\n      0x0100\n      dup1\n      dup4\n      sload\n      div\n      mul\n      dup4\n      mstore\n      swap2\n      0x20\n      add\n      swap2\n      jump(tag_28)\n    tag_29:\n      dup3\n      add\n      swap2\n      swap1\n      0x00\n      mstore\n      keccak256(0x00, 0x20)\n      swap1\n    tag_30:\n      dup2\n      sload\n      dup2\n      mstore\n      swap1\n      0x01\n      add\n      swap1\n      0x20\n      add\n      dup1\n      dup4\n      gt\n      tag_30\n      jumpi\n      dup3\n      swap1\n      sub\n      0x1f\n      and\n      dup3\n      add\n      swap2\n    tag_28:\n      pop\n      pop\n      pop\n      pop\n      pop\n      dup2\n      mstore\n      0x20\n      add\n      0x01\n      dup3\n      add\n      sload\n      dup2\n      mstore\n      0x20\n      add\n      0x02\n      dup3\n      add\n      0x00\n      swap1\n      sload\n      swap1\n      0x0100\n      exp\n      swap1\n      div\n      0xffffffffffffffffffffffffffffffffffffffff\n      and\n      0xffffffffffffffffffffffffffffffffffffffff\n      and\n      0xffffffffffffffffffffffffffffffffffffffff\n      and\n      dup2\n      mstore\n      0x20\n      add\n      0x03\n      dup3\n      add\n      dup1\n      sload\n      tag_31\n      swap1\n      tag_26\n      jump\t// in\n    tag_31:\n      dup1\n      0x1f\n      add\n      0x20\n      dup1\n      swap2\n      div\n      mul\n      0x20\n      add\n      mload(0x40)\n      swap1\n      dup2\n      add\n      0x40\n      mstore\n      dup1\n      swap3\n      swap2\n      swap1\n      dup2\n      dup2\n      mstore\n      0x20\n      add\n      dup3\n      dup1\n      sload\n      tag_32\n      swap1\n      tag_26\n      jump\t// in\n    tag_32:\n      dup1\n      iszero\n      tag_33\n      jumpi\n      dup1\n      0x1f\n      lt\n      tag_34\n      jumpi\n      0x0100\n      dup1\n      dup4\n      sload\n      div\n      mul\n      dup4\n      mstore\n      swap2\n      0x20\n      add\n      swap2\n      jump(tag_33)\n    tag_34:\n      dup3\n      add\n      swap2\n      swap1\n      0x00\n      mstore\n      keccak256(0x00, 0x20)\n      swap1\n    tag_35:\n      dup2\n      sload\n      dup2\n      mstore\n      swap1\n      0x01\n      add\n      swap1\n      0x20\n      add\n      dup1\n      dup4\n      gt\n      tag_35\n      jumpi\n      dup3\n      swap1\n      sub\n      0x1f\n      and\n      dup3\n      add\n      swap2\n    tag_33:\n      pop\n      pop\n      pop\n      pop\n      pop\n      dup2\n      mstore\n      pop\n      pop\n      swap1\n      pop\n        /* \"solidity/solidity31~40.sol\":1765:1773  customer */\n      dup1\n        /* \"solidity/solidity31~40.sol\":1758:1773  return customer */\n      swap2\n      pop\n      pop\n        /* \"solidity/solidity31~40.sol\":1619:1780  function getName(string memory _name) public view returns (Customer memory) {... */\n      swap2\n      swap1\n      pop\n      jump\t// out\n    tag_22:\n      mload(0x40)\n      dup1\n      0x80\n      add\n      0x40\n      mstore\n      dup1\n      0x60\n      dup2\n      mstore\n      0x20\n      add\n      0x00\n      dup2\n      mstore\n      0x20\n      add\n      and(0xffffffffffffffffffffffffffffffffffffffff, 0x00)\n      dup2\n      mstore\n      0x20\n      add\n      0x60\n      dup2\n      mstore\n      pop\n      swap1\n      jump\t// out\n        /* \"#utility.yul\":7:82   */\n    tag_36:\n        /* \"#utility.yul\":40:46   */\n      0x00\n        /* \"#utility.yul\":73:75   */\n      0x40\n        /* \"#utility.yul\":67:76   */\n      mload\n        /* \"#utility.yul\":57:76   */\n      swap1\n      pop\n        /* \"#utility.yul\":7:82   */\n      swap1\n      jump\t// out\n        /* \"#utility.yul\":88:205   */\n    tag_37:\n        /* \"#utility.yul\":197:198   */\n      0x00\n        /* \"#utility.yul\":194:195   */\n      dup1\n        /* \"#utility.yul\":187:199   */\n      revert\n        /* \"#utility.yul\":211:328   */\n    tag_38:\n        /* \"#utility.yul\":320:321   */\n      0x00\n        /* \"#utility.yul\":317:318   */\n      dup1\n        /* \"#utility.yul\":310:322   */\n      revert\n        /* \"#utility.yul\":334:451   */\n    tag_39:\n        /* \"#utility.yul\":443:444   */\n      0x00\n        /* \"#utility.yul\":440:441   */\n      dup1\n        /* \"#utility.yul\":433:445   */\n      revert\n        /* \"#utility.yul\":457:574   */\n    tag_40:\n        /* \"#utility.yul\":566:567   */\n      0x00\n        /* \"#utility.yul\":563:564   */\n      dup1\n        /* \"#utility.yul\":556:568   */\n      revert\n        /* \"#utility.yul\":580:682   */\n    tag_41:\n        /* \"#utility.yul\":621:627   */\n      0x00\n        /* \"#utility.yul\":672:674   */\n      0x1f\n        /* \"#utility.yul\":668:675   */\n      not\n        /* \"#utility.yul\":663:665   */\n      0x1f\n        /* \"#utility.yul\":656:661   */\n      dup4\n        /* \"#utility.yul\":652:666   */\n      add\n        /* \"#utility.yul\":648:676   */\n      and\n        /* \"#utility.yul\":638:676   */\n      swap1\n      pop\n        /* \"#utility.yul\":580:682   */\n      swap2\n      swap1\n      pop\n      jump\t// out\n        /* \"#utility.yul\":688:868   */\n    tag_42:\n        /* \"#utility.yul\":736:813   */\n      0x4e487b7100000000000000000000000000000000000000000000000000000000\n        /* \"#utility.yul\":733:734   */\n      0x00\n        /* \"#utility.yul\":726:814   */\n      mstore\n        /* \"#utility.yul\":833:837   */\n      0x41\n        /* \"#utility.yul\":830:831   */\n      0x04\n        /* \"#utility.yul\":823:838   */\n      mstore\n        /* \"#utility.yul\":857:861   */\n      0x24\n        /* \"#utility.yul\":854:855   */\n      0x00\n        /* \"#utility.yul\":847:862   */\n      revert\n        /* \"#utility.yul\":874:1155   */\n    tag_43:\n        /* \"#utility.yul\":957:984   */\n      tag_90\n        /* \"#utility.yul\":979:983   */\n      dup3\n        /* \"#utility.yul\":957:984   */\n      tag_41\n      jump\t// in\n    tag_90:\n        /* \"#utility.yul\":949:955   */\n      dup2\n        /* \"#utility.yul\":945:985   */\n      add\n        /* \"#utility.yul\":1087:1093   */\n      dup2\n        /* \"#utility.yul\":1075:1085   */\n      dup2\n        /* \"#utility.yul\":1072:1094   */\n      lt\n        /* \"#utility.yul\":1051:1069   */\n      0xffffffffffffffff\n        /* \"#utility.yul\":1039:1049   */\n      dup3\n        /* \"#utility.yul\":1036:1070   */\n      gt\n        /* \"#utility.yul\":1033:1095   */\n      or\n        /* \"#utility.yul\":1030:1118   */\n      iszero\n      tag_91\n      jumpi\n        /* \"#utility.yul\":1098:1116   */\n      tag_92\n      tag_42\n      jump\t// in\n    tag_92:\n        /* \"#utility.yul\":1030:1118   */\n    tag_91:\n        /* \"#utility.yul\":1138:1148   */\n      dup1\n        /* \"#utility.yul\":1134:1136   */\n      0x40\n        /* \"#utility.yul\":1127:1149   */\n      mstore\n        /* \"#utility.yul\":917:1155   */\n      pop\n        /* \"#utility.yul\":874:1155   */\n      pop\n      pop\n      jump\t// out\n        /* \"#utility.yul\":1161:1290   */\n    tag_44:\n        /* \"#utility.yul\":1195:1201   */\n      0x00\n        /* \"#utility.yul\":1222:1242   */\n      tag_94\n      tag_36\n      jump\t// in\n    tag_94:\n        /* \"#utility.yul\":1212:1242   */\n      swap1\n      pop\n        /* \"#utility.yul\":1251:1284   */\n      tag_95\n        /* \"#utility.yul\":1279:1283   */\n      dup3\n        /* \"#utility.yul\":1271:1277   */\n      dup3\n        /* \"#utility.yul\":1251:1284   */\n      tag_43\n      jump\t// in\n    tag_95:\n        /* \"#utility.yul\":1161:1290   */\n      swap2\n      swap1\n      pop\n      jump\t// out\n        /* \"#utility.yul\":1296:1604   */\n    tag_45:\n        /* \"#utility.yul\":1358:1362   */\n      0x00\n        /* \"#utility.yul\":1448:1466   */\n      0xffffffffffffffff\n        /* \"#utility.yul\":1440:1446   */\n      dup3\n        /* \"#utility.yul\":1437:1467   */\n      gt\n        /* \"#utility.yul\":1434:1490   */\n      iszero\n      tag_97\n      jumpi\n        /* \"#utility.yul\":1470:1488   */\n      tag_98\n      tag_42\n      jump\t// in\n    tag_98:\n        /* \"#utility.yul\":1434:1490   */\n    tag_97:\n        /* \"#utility.yul\":1508:1537   */\n      tag_99\n        /* \"#utility.yul\":1530:1536   */\n      dup3\n        /* \"#utility.yul\":1508:1537   */\n      tag_41\n      jump\t// in\n    tag_99:\n        /* \"#utility.yul\":1500:1537   */\n      swap1\n      pop\n        /* \"#utility.yul\":1592:1596   */\n      0x20\n        /* \"#utility.yul\":1586:1590   */\n      dup2\n        /* \"#utility.yul\":1582:1597   */\n      add\n        /* \"#utility.yul\":1574:1597   */\n      swap1\n      pop\n        /* \"#utility.yul\":1296:1604   */\n      swap2\n      swap1\n      pop\n      jump\t// out\n        /* \"#utility.yul\":1610:1758   */\n    tag_46:\n        /* \"#utility.yul\":1708:1714   */\n      dup3\n        /* \"#utility.yul\":1703:1706   */\n      dup2\n        /* \"#utility.yul\":1698:1701   */\n      dup4\n        /* \"#utility.yul\":1685:1715   */\n      calldatacopy\n        /* \"#utility.yul\":1749:1750   */\n      0x00\n        /* \"#utility.yul\":1740:1746   */\n      dup4\n        /* \"#utility.yul\":1735:1738   */\n      dup4\n        /* \"#utility.yul\":1731:1747   */\n      add\n        /* \"#utility.yul\":1724:1751   */\n      mstore\n        /* \"#utility.yul\":1610:1758   */\n      pop\n      pop\n      pop\n      jump\t// out\n        /* \"#utility.yul\":1764:2189   */\n    tag_47:\n        /* \"#utility.yul\":1842:1847   */\n      0x00\n        /* \"#utility.yul\":1867:1933   */\n      tag_102\n        /* \"#utility.yul\":1883:1932   */\n      tag_103\n        /* \"#utility.yul\":1925:1931   */\n      dup5\n        /* \"#utility.yul\":1883:1932   */\n      tag_45\n      jump\t// in\n    tag_103:\n        /* \"#utility.yul\":1867:1933   */\n      tag_44\n      jump\t// in\n    tag_102:\n        /* \"#utility.yul\":1858:1933   */\n      swap1\n      pop\n        /* \"#utility.yul\":1956:1962   */\n      dup3\n        /* \"#utility.yul\":1949:1954   */\n      dup2\n        /* \"#utility.yul\":1942:1963   */\n      mstore\n        /* \"#utility.yul\":1994:1998   */\n      0x20\n        /* \"#utility.yul\":1987:1992   */\n      dup2\n        /* \"#utility.yul\":1983:1999   */\n      add\n        /* \"#utility.yul\":2032:2035   */\n      dup5\n        /* \"#utility.yul\":2023:2029   */\n      dup5\n        /* \"#utility.yul\":2018:2021   */\n      dup5\n        /* \"#utility.yul\":2014:2030   */\n      add\n        /* \"#utility.yul\":2011:2036   */\n      gt\n        /* \"#utility.yul\":2008:2120   */\n      iszero\n      tag_104\n      jumpi\n        /* \"#utility.yul\":2039:2118   */\n      tag_105\n      tag_40\n      jump\t// in\n    tag_105:\n        /* \"#utility.yul\":2008:2120   */\n    tag_104:\n        /* \"#utility.yul\":2129:2183   */\n      tag_106\n        /* \"#utility.yul\":2176:2182   */\n      dup5\n        /* \"#utility.yul\":2171:2174   */\n      dup3\n        /* \"#utility.yul\":2166:2169   */\n      dup6\n        /* \"#utility.yul\":2129:2183   */\n      tag_46\n      jump\t// in\n    tag_106:\n        /* \"#utility.yul\":1848:2189   */\n      pop\n        /* \"#utility.yul\":1764:2189   */\n      swap4\n      swap3\n      pop\n      pop\n      pop\n      jump\t// out\n        /* \"#utility.yul\":2209:2549   */\n    tag_48:\n        /* \"#utility.yul\":2265:2270   */\n      0x00\n        /* \"#utility.yul\":2314:2317   */\n      dup3\n        /* \"#utility.yul\":2307:2311   */\n      0x1f\n        /* \"#utility.yul\":2299:2305   */\n      dup4\n        /* \"#utility.yul\":2295:2312   */\n      add\n        /* \"#utility.yul\":2291:2318   */\n      slt\n        /* \"#utility.yul\":2281:2403   */\n      tag_108\n      jumpi\n        /* \"#utility.yul\":2322:2401   */\n      tag_109\n      tag_39\n      jump\t// in\n    tag_109:\n        /* \"#utility.yul\":2281:2403   */\n    tag_108:\n        /* \"#utility.yul\":2439:2445   */\n      dup2\n        /* \"#utility.yul\":2426:2446   */\n      calldataload\n        /* \"#utility.yul\":2464:2543   */\n      tag_110\n        /* \"#utility.yul\":2539:2542   */\n      dup5\n        /* \"#utility.yul\":2531:2537   */\n      dup3\n        /* \"#utility.yul\":2524:2528   */\n      0x20\n        /* \"#utility.yul\":2516:2522   */\n      dup7\n        /* \"#utility.yul\":2512:2529   */\n      add\n        /* \"#utility.yul\":2464:2543   */\n      tag_47\n      jump\t// in\n    tag_110:\n        /* \"#utility.yul\":2455:2543   */\n      swap2\n      pop\n        /* \"#utility.yul\":2271:2549   */\n      pop\n        /* \"#utility.yul\":2209:2549   */\n      swap3\n      swap2\n      pop\n      pop\n      jump\t// out\n        /* \"#utility.yul\":2555:2632   */\n    tag_49:\n        /* \"#utility.yul\":2592:2599   */\n      0x00\n        /* \"#utility.yul\":2621:2626   */\n      dup2\n        /* \"#utility.yul\":2610:2626   */\n      swap1\n      pop\n        /* \"#utility.yul\":2555:2632   */\n      swap2\n      swap1\n      pop\n      jump\t// out\n        /* \"#utility.yul\":2638:2760   */\n    tag_50:\n        /* \"#utility.yul\":2711:2735   */\n      tag_113\n        /* \"#utility.yul\":2729:2734   */\n      dup2\n        /* \"#utility.yul\":2711:2735   */\n      tag_49\n      jump\t// in\n    tag_113:\n        /* \"#utility.yul\":2704:2709   */\n      dup2\n        /* \"#utility.yul\":2701:2736   */\n      eq\n        /* \"#utility.yul\":2691:2754   */\n      tag_114\n      jumpi\n        /* \"#utility.yul\":2750:2751   */\n      0x00\n        /* \"#utility.yul\":2747:2748   */\n      dup1\n        /* \"#utility.yul\":2740:2752   */\n      revert\n        /* \"#utility.yul\":2691:2754   */\n    tag_114:\n        /* \"#utility.yul\":2638:2760   */\n      pop\n      jump\t// out\n        /* \"#utility.yul\":2766:2905   */\n    tag_51:\n        /* \"#utility.yul\":2812:2817   */\n      0x00\n        /* \"#utility.yul\":2850:2856   */\n      dup2\n        /* \"#utility.yul\":2837:2857   */\n      calldataload\n        /* \"#utility.yul\":2828:2857   */\n      swap1\n      pop\n        /* \"#utility.yul\":2866:2899   */\n      tag_116\n        /* \"#utility.yul\":2893:2898   */\n      dup2\n        /* \"#utility.yul\":2866:2899   */\n      tag_50\n      jump\t// in\n    tag_116:\n        /* \"#utility.yul\":2766:2905   */\n      swap3\n      swap2\n      pop\n      pop\n      jump\t// out\n        /* \"#utility.yul\":2911:3037   */\n    tag_52:\n        /* \"#utility.yul\":2948:2955   */\n      0x00\n        /* \"#utility.yul\":2988:3030   */\n      0xffffffffffffffffffffffffffffffffffffffff\n        /* \"#utility.yul\":2981:2986   */\n      dup3\n        /* \"#utility.yul\":2977:3031   */\n      and\n        /* \"#utility.yul\":2966:3031   */\n      swap1\n      pop\n        /* \"#utility.yul\":2911:3037   */\n      swap2\n      swap1\n      pop\n      jump\t// out\n        /* \"#utility.yul\":3043:3139   */\n    tag_53:\n        /* \"#utility.yul\":3080:3087   */\n      0x00\n        /* \"#utility.yul\":3109:3133   */\n      tag_119\n        /* \"#utility.yul\":3127:3132   */\n      dup3\n        /* \"#utility.yul\":3109:3133   */\n      tag_52\n      jump\t// in\n    tag_119:\n        /* \"#utility.yul\":3098:3133   */\n      swap1\n      pop\n        /* \"#utility.yul\":3043:3139   */\n      swap2\n      swap1\n      pop\n      jump\t// out\n        /* \"#utility.yul\":3145:3267   */\n    tag_54:\n        /* \"#utility.yul\":3218:3242   */\n      tag_121\n        /* \"#utility.yul\":3236:3241   */\n      dup2\n        /* \"#utility.yul\":3218:3242   */\n      tag_53\n      jump\t// in\n    tag_121:\n        /* \"#utility.yul\":3211:3216   */\n      dup2\n        /* \"#utility.yul\":3208:3243   */\n      eq\n        /* \"#utility.yul\":3198:3261   */\n      tag_122\n      jumpi\n        /* \"#utility.yul\":3257:3258   */\n      0x00\n        /* \"#utility.yul\":3254:3255   */\n      dup1\n        /* \"#utility.yul\":3247:3259   */\n      revert\n        /* \"#utility.yul\":3198:3261   */\n    tag_122:\n        /* \"#utility.yul\":3145:3267   */\n      pop\n      jump\t// out\n        /* \"#utility.yul\":3273:3412   */\n    tag_55:\n        /* \"#utility.yul\":3319:3324   */\n      0x00\n        /* \"#utility.yul\":3357:3363   */\n      dup2\n        /* \"#utility.yul\":3344:3364   */\n      calldataload\n        /* \"#utility.yul\":3335:3364   */\n      swap1\n      pop\n        /* \"#utility.yul\":3373:3406   */\n      tag_124\n        /* \"#utility.yul\":3400:3405   */\n      dup2\n        /* \"#utility.yul\":3373:3406   */\n      tag_54\n      jump\t// in\n    tag_124:\n        /* \"#utility.yul\":3273:3412   */\n      swap3\n      swap2\n      pop\n      pop\n      jump\t// out\n        /* \"#utility.yul\":3418:4543   */\n    tag_7:\n        /* \"#utility.yul\":3524:3530   */\n      0x00\n        /* \"#utility.yul\":3532:3538   */\n      dup1\n        /* \"#utility.yul\":3540:3546   */\n      0x00\n        /* \"#utility.yul\":3548:3554   */\n      dup1\n        /* \"#utility.yul\":3597:3600   */\n      0x80\n        /* \"#utility.yul\":3585:3594   */\n      dup6\n        /* \"#utility.yul\":3576:3583   */\n      dup8\n        /* \"#utility.yul\":3572:3595   */\n      sub\n        /* \"#utility.yul\":3568:3601   */\n      slt\n        /* \"#utility.yul\":3565:3685   */\n      iszero\n      tag_126\n      jumpi\n        /* \"#utility.yul\":3604:3683   */\n      tag_127\n      tag_37\n      jump\t// in\n    tag_127:\n        /* \"#utility.yul\":3565:3685   */\n    tag_126:\n        /* \"#utility.yul\":3752:3753   */\n      0x00\n        /* \"#utility.yul\":3741:3750   */\n      dup6\n        /* \"#utility.yul\":3737:3754   */\n      add\n        /* \"#utility.yul\":3724:3755   */\n      calldataload\n        /* \"#utility.yul\":3782:3800   */\n      0xffffffffffffffff\n        /* \"#utility.yul\":3774:3780   */\n      dup2\n        /* \"#utility.yul\":3771:3801   */\n      gt\n        /* \"#utility.yul\":3768:3885   */\n      iszero\n      tag_128\n      jumpi\n        /* \"#utility.yul\":3804:3883   */\n      tag_129\n      tag_38\n      jump\t// in\n    tag_129:\n        /* \"#utility.yul\":3768:3885   */\n    tag_128:\n        /* \"#utility.yul\":3909:3972   */\n      tag_130\n        /* \"#utility.yul\":3964:3971   */\n      dup8\n        /* \"#utility.yul\":3955:3961   */\n      dup3\n        /* \"#utility.yul\":3944:3953   */\n      dup9\n        /* \"#utility.yul\":3940:3962   */\n      add\n        /* \"#utility.yul\":3909:3972   */\n      tag_48\n      jump\t// in\n    tag_130:\n        /* \"#utility.yul\":3899:3972   */\n      swap5\n      pop\n        /* \"#utility.yul\":3695:3982   */\n      pop\n        /* \"#utility.yul\":4021:4023   */\n      0x20\n        /* \"#utility.yul\":4047:4100   */\n      tag_131\n        /* \"#utility.yul\":4092:4099   */\n      dup8\n        /* \"#utility.yul\":4083:4089   */\n      dup3\n        /* \"#utility.yul\":4072:4081   */\n      dup9\n        /* \"#utility.yul\":4068:4090   */\n      add\n        /* \"#utility.yul\":4047:4100   */\n      tag_51\n      jump\t// in\n    tag_131:\n        /* \"#utility.yul\":4037:4100   */\n      swap4\n      pop\n        /* \"#utility.yul\":3992:4110   */\n      pop\n        /* \"#utility.yul\":4149:4151   */\n      0x40\n        /* \"#utility.yul\":4175:4228   */\n      tag_132\n        /* \"#utility.yul\":4220:4227   */\n      dup8\n        /* \"#utility.yul\":4211:4217   */\n      dup3\n        /* \"#utility.yul\":4200:4209   */\n      dup9\n        /* \"#utility.yul\":4196:4218   */\n      add\n        /* \"#utility.yul\":4175:4228   */\n      tag_55\n      jump\t// in\n    tag_132:\n        /* \"#utility.yul\":4165:4228   */\n      swap3\n      pop\n        /* \"#utility.yul\":4120:4238   */\n      pop\n        /* \"#utility.yul\":4305:4307   */\n      0x60\n        /* \"#utility.yul\":4294:4303   */\n      dup6\n        /* \"#utility.yul\":4290:4308   */\n      add\n        /* \"#utility.yul\":4277:4309   */\n      calldataload\n        /* \"#utility.yul\":4336:4354   */\n      0xffffffffffffffff\n        /* \"#utility.yul\":4328:4334   */\n      dup2\n        /* \"#utility.yul\":4325:4355   */\n      gt\n        /* \"#utility.yul\":4322:4439   */\n      iszero\n      tag_133\n      jumpi\n        /* \"#utility.yul\":4358:4437   */\n      tag_134\n      tag_38\n      jump\t// in\n    tag_134:\n        /* \"#utility.yul\":4322:4439   */\n    tag_133:\n        /* \"#utility.yul\":4463:4526   */\n      tag_135\n        /* \"#utility.yul\":4518:4525   */\n      dup8\n        /* \"#utility.yul\":4509:4515   */\n      dup3\n        /* \"#utility.yul\":4498:4507   */\n      dup9\n        /* \"#utility.yul\":4494:4516   */\n      add\n        /* \"#utility.yul\":4463:4526   */\n      tag_48\n      jump\t// in\n    tag_135:\n        /* \"#utility.yul\":4453:4526   */\n      swap2\n      pop\n        /* \"#utility.yul\":4248:4536   */\n      pop\n        /* \"#utility.yul\":3418:4543   */\n      swap3\n      swap6\n      swap2\n      swap5\n      pop\n      swap3\n      pop\n      jump\t// out\n        /* \"#utility.yul\":4549:5058   */\n    tag_11:\n        /* \"#utility.yul\":4618:4624   */\n      0x00\n        /* \"#utility.yul\":4667:4669   */\n      0x20\n        /* \"#utility.yul\":4655:4664   */\n      dup3\n        /* \"#utility.yul\":4646:4653   */\n      dup5\n        /* \"#utility.yul\":4642:4665   */\n      sub\n        /* \"#utility.yul\":4638:4670   */\n      slt\n        /* \"#utility.yul\":4635:4754   */\n      iszero\n      tag_137\n      jumpi\n        /* \"#utility.yul\":4673:4752   */\n      tag_138\n      tag_37\n      jump\t// in\n    tag_138:\n        /* \"#utility.yul\":4635:4754   */\n    tag_137:\n        /* \"#utility.yul\":4821:4822   */\n      0x00\n        /* \"#utility.yul\":4810:4819   */\n      dup3\n        /* \"#utility.yul\":4806:4823   */\n      add\n        /* \"#utility.yul\":4793:4824   */\n      calldataload\n        /* \"#utility.yul\":4851:4869   */\n      0xffffffffffffffff\n        /* \"#utility.yul\":4843:4849   */\n      dup2\n        /* \"#utility.yul\":4840:4870   */\n      gt\n        /* \"#utility.yul\":4837:4954   */\n      iszero\n      tag_139\n      jumpi\n        /* \"#utility.yul\":4873:4952   */\n      tag_140\n      tag_38\n      jump\t// in\n    tag_140:\n        /* \"#utility.yul\":4837:4954   */\n    tag_139:\n        /* \"#utility.yul\":4978:5041   */\n      tag_141\n        /* \"#utility.yul\":5033:5040   */\n      dup5\n        /* \"#utility.yul\":5024:5030   */\n      dup3\n        /* \"#utility.yul\":5013:5022   */\n      dup6\n        /* \"#utility.yul\":5009:5031   */\n      add\n        /* \"#utility.yul\":4978:5041   */\n      tag_48\n      jump\t// in\n    tag_141:\n        /* \"#utility.yul\":4968:5041   */\n      swap2\n      pop\n        /* \"#utility.yul\":4764:5051   */\n      pop\n        /* \"#utility.yul\":4549:5058   */\n      swap3\n      swap2\n      pop\n      pop\n      jump\t// out\n        /* \"#utility.yul\":5064:5163   */\n    tag_56:\n        /* \"#utility.yul\":5116:5122   */\n      0x00\n        /* \"#utility.yul\":5150:5155   */\n      dup2\n        /* \"#utility.yul\":5144:5156   */\n      mload\n        /* \"#utility.yul\":5134:5156   */\n      swap1\n      pop\n        /* \"#utility.yul\":5064:5163   */\n      swap2\n      swap1\n      pop\n      jump\t// out\n        /* \"#utility.yul\":5169:5328   */\n    tag_57:\n        /* \"#utility.yul\":5243:5254   */\n      0x00\n        /* \"#utility.yul\":5277:5283   */\n      dup3\n        /* \"#utility.yul\":5272:5275   */\n      dup3\n        /* \"#utility.yul\":5265:5284   */\n      mstore\n        /* \"#utility.yul\":5317:5321   */\n      0x20\n        /* \"#utility.yul\":5312:5315   */\n      dup3\n        /* \"#utility.yul\":5308:5322   */\n      add\n        /* \"#utility.yul\":5293:5322   */\n      swap1\n      pop\n        /* \"#utility.yul\":5169:5328   */\n      swap3\n      swap2\n      pop\n      pop\n      jump\t// out\n        /* \"#utility.yul\":5334:5473   */\n    tag_58:\n        /* \"#utility.yul\":5423:5429   */\n      dup3\n        /* \"#utility.yul\":5418:5421   */\n      dup2\n        /* \"#utility.yul\":5413:5416   */\n      dup4\n        /* \"#utility.yul\":5407:5430   */\n      mcopy\n        /* \"#utility.yul\":5464:5465   */\n      0x00\n        /* \"#utility.yul\":5455:5461   */\n      dup4\n        /* \"#utility.yul\":5450:5453   */\n      dup4\n        /* \"#utility.yul\":5446:5462   */\n      add\n        /* \"#utility.yul\":5439:5466   */\n      mstore\n        /* \"#utility.yul\":5334:5473   */\n      pop\n      pop\n      pop\n      jump\t// out\n        /* \"#utility.yul\":5479:5836   */\n    tag_59:\n        /* \"#utility.yul\":5557:5560   */\n      0x00\n        /* \"#utility.yul\":5585:5624   */\n      tag_146\n        /* \"#utility.yul\":5618:5623   */\n      dup3\n        /* \"#utility.yul\":5585:5624   */\n      tag_56\n      jump\t// in\n    tag_146:\n        /* \"#utility.yul\":5640:5701   */\n      tag_147\n        /* \"#utility.yul\":5694:5700   */\n      dup2\n        /* \"#utility.yul\":5689:5692   */\n      dup6\n        /* \"#utility.yul\":5640:5701   */\n      tag_57\n      jump\t// in\n    tag_147:\n        /* \"#utility.yul\":5633:5701   */\n      swap4\n      pop\n        /* \"#utility.yul\":5710:5775   */\n      tag_148\n        /* \"#utility.yul\":5768:5774   */\n      dup2\n        /* \"#utility.yul\":5763:5766   */\n      dup6\n        /* \"#utility.yul\":5756:5760   */\n      0x20\n        /* \"#utility.yul\":5749:5754   */\n      dup7\n        /* \"#utility.yul\":5745:5761   */\n      add\n        /* \"#utility.yul\":5710:5775   */\n      tag_58\n      jump\t// in\n    tag_148:\n        /* \"#utility.yul\":5800:5829   */\n      tag_149\n        /* \"#utility.yul\":5822:5828   */\n      dup2\n        /* \"#utility.yul\":5800:5829   */\n      tag_41\n      jump\t// in\n    tag_149:\n        /* \"#utility.yul\":5795:5798   */\n      dup5\n        /* \"#utility.yul\":5791:5830   */\n      add\n        /* \"#utility.yul\":5784:5830   */\n      swap2\n      pop\n        /* \"#utility.yul\":5561:5836   */\n      pop\n        /* \"#utility.yul\":5479:5836   */\n      swap3\n      swap2\n      pop\n      pop\n      jump\t// out\n        /* \"#utility.yul\":5842:5950   */\n    tag_60:\n        /* \"#utility.yul\":5919:5943   */\n      tag_151\n        /* \"#utility.yul\":5937:5942   */\n      dup2\n        /* \"#utility.yul\":5919:5943   */\n      tag_49\n      jump\t// in\n    tag_151:\n        /* \"#utility.yul\":5914:5917   */\n      dup3\n        /* \"#utility.yul\":5907:5944   */\n      mstore\n        /* \"#utility.yul\":5842:5950   */\n      pop\n      pop\n      jump\t// out\n        /* \"#utility.yul\":5956:6064   */\n    tag_61:\n        /* \"#utility.yul\":6033:6057   */\n      tag_153\n        /* \"#utility.yul\":6051:6056   */\n      dup2\n        /* \"#utility.yul\":6033:6057   */\n      tag_53\n      jump\t// in\n    tag_153:\n        /* \"#utility.yul\":6028:6031   */\n      dup3\n        /* \"#utility.yul\":6021:6058   */\n      mstore\n        /* \"#utility.yul\":5956:6064   */\n      pop\n      pop\n      jump\t// out\n        /* \"#utility.yul\":6120:7151   */\n    tag_62:\n        /* \"#utility.yul\":6237:6240   */\n      0x00\n        /* \"#utility.yul\":6273:6277   */\n      0x80\n        /* \"#utility.yul\":6268:6271   */\n      dup4\n        /* \"#utility.yul\":6264:6278   */\n      add\n        /* \"#utility.yul\":6360:6364   */\n      0x00\n        /* \"#utility.yul\":6353:6358   */\n      dup4\n        /* \"#utility.yul\":6349:6365   */\n      add\n        /* \"#utility.yul\":6343:6366   */\n      mload\n        /* \"#utility.yul\":6413:6416   */\n      dup5\n        /* \"#utility.yul\":6407:6411   */\n      dup3\n        /* \"#utility.yul\":6403:6417   */\n      sub\n        /* \"#utility.yul\":6396:6400   */\n      0x00\n        /* \"#utility.yul\":6391:6394   */\n      dup7\n        /* \"#utility.yul\":6387:6401   */\n      add\n        /* \"#utility.yul\":6380:6418   */\n      mstore\n        /* \"#utility.yul\":6439:6512   */\n      tag_155\n        /* \"#utility.yul\":6507:6511   */\n      dup3\n        /* \"#utility.yul\":6493:6505   */\n      dup3\n        /* \"#utility.yul\":6439:6512   */\n      tag_59\n      jump\t// in\n    tag_155:\n        /* \"#utility.yul\":6431:6512   */\n      swap2\n      pop\n        /* \"#utility.yul\":6288:6523   */\n      pop\n        /* \"#utility.yul\":6607:6611   */\n      0x20\n        /* \"#utility.yul\":6600:6605   */\n      dup4\n        /* \"#utility.yul\":6596:6612   */\n      add\n        /* \"#utility.yul\":6590:6613   */\n      mload\n        /* \"#utility.yul\":6626:6689   */\n      tag_156\n        /* \"#utility.yul\":6683:6687   */\n      0x20\n        /* \"#utility.yul\":6678:6681   */\n      dup7\n        /* \"#utility.yul\":6674:6688   */\n      add\n        /* \"#utility.yul\":6660:6672   */\n      dup3\n        /* \"#utility.yul\":6626:6689   */\n      tag_60\n      jump\t// in\n    tag_156:\n        /* \"#utility.yul\":6533:6699   */\n      pop\n        /* \"#utility.yul\":6783:6787   */\n      0x40\n        /* \"#utility.yul\":6776:6781   */\n      dup4\n        /* \"#utility.yul\":6772:6788   */\n      add\n        /* \"#utility.yul\":6766:6789   */\n      mload\n        /* \"#utility.yul\":6802:6865   */\n      tag_157\n        /* \"#utility.yul\":6859:6863   */\n      0x40\n        /* \"#utility.yul\":6854:6857   */\n      dup7\n        /* \"#utility.yul\":6850:6864   */\n      add\n        /* \"#utility.yul\":6836:6848   */\n      dup3\n        /* \"#utility.yul\":6802:6865   */\n      tag_61\n      jump\t// in\n    tag_157:\n        /* \"#utility.yul\":6709:6875   */\n      pop\n        /* \"#utility.yul\":6961:6965   */\n      0x60\n        /* \"#utility.yul\":6954:6959   */\n      dup4\n        /* \"#utility.yul\":6950:6966   */\n      add\n        /* \"#utility.yul\":6944:6967   */\n      mload\n        /* \"#utility.yul\":7014:7017   */\n      dup5\n        /* \"#utility.yul\":7008:7012   */\n      dup3\n        /* \"#utility.yul\":7004:7018   */\n      sub\n        /* \"#utility.yul\":6997:7001   */\n      0x60\n        /* \"#utility.yul\":6992:6995   */\n      dup7\n        /* \"#utility.yul\":6988:7002   */\n      add\n        /* \"#utility.yul\":6981:7019   */\n      mstore\n        /* \"#utility.yul\":7040:7113   */\n      tag_158\n        /* \"#utility.yul\":7108:7112   */\n      dup3\n        /* \"#utility.yul\":7094:7106   */\n      dup3\n        /* \"#utility.yul\":7040:7113   */\n      tag_59\n      jump\t// in\n    tag_158:\n        /* \"#utility.yul\":7032:7113   */\n      swap2\n      pop\n        /* \"#utility.yul\":6885:7124   */\n      pop\n        /* \"#utility.yul\":7141:7145   */\n      dup1\n        /* \"#utility.yul\":7134:7145   */\n      swap2\n      pop\n        /* \"#utility.yul\":6242:7151   */\n      pop\n        /* \"#utility.yul\":6120:7151   */\n      swap3\n      swap2\n      pop\n      pop\n      jump\t// out\n        /* \"#utility.yul\":7157:7526   */\n    tag_14:\n        /* \"#utility.yul\":7298:7302   */\n      0x00\n        /* \"#utility.yul\":7336:7338   */\n      0x20\n        /* \"#utility.yul\":7325:7334   */\n      dup3\n        /* \"#utility.yul\":7321:7339   */\n      add\n        /* \"#utility.yul\":7313:7339   */\n      swap1\n      pop\n        /* \"#utility.yul\":7385:7394   */\n      dup2\n        /* \"#utility.yul\":7379:7383   */\n      dup2\n        /* \"#utility.yul\":7375:7395   */\n      sub\n        /* \"#utility.yul\":7371:7372   */\n      0x00\n        /* \"#utility.yul\":7360:7369   */\n      dup4\n        /* \"#utility.yul\":7356:7373   */\n      add\n        /* \"#utility.yul\":7349:7396   */\n      mstore\n        /* \"#utility.yul\":7413:7519   */\n      tag_160\n        /* \"#utility.yul\":7514:7518   */\n      dup2\n        /* \"#utility.yul\":7505:7511   */\n      dup5\n        /* \"#utility.yul\":7413:7519   */\n      tag_62\n      jump\t// in\n    tag_160:\n        /* \"#utility.yul\":7405:7519   */\n      swap1\n      pop\n        /* \"#utility.yul\":7157:7526   */\n      swap3\n      swap2\n      pop\n      pop\n      jump\t// out\n        /* \"#utility.yul\":7532:7680   */\n    tag_63:\n        /* \"#utility.yul\":7634:7645   */\n      0x00\n        /* \"#utility.yul\":7671:7674   */\n      dup2\n        /* \"#utility.yul\":7656:7674   */\n      swap1\n      pop\n        /* \"#utility.yul\":7532:7680   */\n      swap3\n      swap2\n      pop\n      pop\n      jump\t// out\n        /* \"#utility.yul\":7686:8076   */\n    tag_64:\n        /* \"#utility.yul\":7792:7795   */\n      0x00\n        /* \"#utility.yul\":7820:7859   */\n      tag_163\n        /* \"#utility.yul\":7853:7858   */\n      dup3\n        /* \"#utility.yul\":7820:7859   */\n      tag_56\n      jump\t// in\n    tag_163:\n        /* \"#utility.yul\":7875:7964   */\n      tag_164\n        /* \"#utility.yul\":7957:7963   */\n      dup2\n        /* \"#utility.yul\":7952:7955   */\n      dup6\n        /* \"#utility.yul\":7875:7964   */\n      tag_63\n      jump\t// in\n    tag_164:\n        /* \"#utility.yul\":7868:7964   */\n      swap4\n      pop\n        /* \"#utility.yul\":7973:8038   */\n      tag_165\n        /* \"#utility.yul\":8031:8037   */\n      dup2\n        /* \"#utility.yul\":8026:8029   */\n      dup6\n        /* \"#utility.yul\":8019:8023   */\n      0x20\n        /* \"#utility.yul\":8012:8017   */\n      dup7\n        /* \"#utility.yul\":8008:8024   */\n      add\n        /* \"#utility.yul\":7973:8038   */\n      tag_58\n      jump\t// in\n    tag_165:\n        /* \"#utility.yul\":8063:8069   */\n      dup1\n        /* \"#utility.yul\":8058:8061   */\n      dup5\n        /* \"#utility.yul\":8054:8070   */\n      add\n        /* \"#utility.yul\":8047:8070   */\n      swap2\n      pop\n        /* \"#utility.yul\":7796:8076   */\n      pop\n        /* \"#utility.yul\":7686:8076   */\n      swap3\n      swap2\n      pop\n      pop\n      jump\t// out\n        /* \"#utility.yul\":8082:8357   */\n    tag_17:\n        /* \"#utility.yul\":8214:8217   */\n      0x00\n        /* \"#utility.yul\":8236:8331   */\n      tag_167\n        /* \"#utility.yul\":8327:8330   */\n      dup3\n        /* \"#utility.yul\":8318:8324   */\n      dup5\n        /* \"#utility.yul\":8236:8331   */\n      tag_64\n      jump\t// in\n    tag_167:\n        /* \"#utility.yul\":8229:8331   */\n      swap2\n      pop\n        /* \"#utility.yul\":8348:8351   */\n      dup2\n        /* \"#utility.yul\":8341:8351   */\n      swap1\n      pop\n        /* \"#utility.yul\":8082:8357   */\n      swap3\n      swap2\n      pop\n      pop\n      jump\t// out\n        /* \"#utility.yul\":8363:8543   */\n    tag_65:\n        /* \"#utility.yul\":8411:8488   */\n      0x4e487b7100000000000000000000000000000000000000000000000000000000\n        /* \"#utility.yul\":8408:8409   */\n      0x00\n        /* \"#utility.yul\":8401:8489   */\n      mstore\n        /* \"#utility.yul\":8508:8512   */\n      0x22\n        /* \"#utility.yul\":8505:8506   */\n      0x04\n        /* \"#utility.yul\":8498:8513   */\n      mstore\n        /* \"#utility.yul\":8532:8536   */\n      0x24\n        /* \"#utility.yul\":8529:8530   */\n      0x00\n        /* \"#utility.yul\":8522:8537   */\n      revert\n        /* \"#utility.yul\":8549:8869   */\n    tag_26:\n        /* \"#utility.yul\":8593:8599   */\n      0x00\n        /* \"#utility.yul\":8630:8631   */\n      0x02\n        /* \"#utility.yul\":8624:8628   */\n      dup3\n        /* \"#utility.yul\":8620:8632   */\n      div\n        /* \"#utility.yul\":8610:8632   */\n      swap1\n      pop\n        /* \"#utility.yul\":8677:8678   */\n      0x01\n        /* \"#utility.yul\":8671:8675   */\n      dup3\n        /* \"#utility.yul\":8667:8679   */\n      and\n        /* \"#utility.yul\":8698:8716   */\n      dup1\n        /* \"#utility.yul\":8688:8769   */\n      tag_170\n      jumpi\n        /* \"#utility.yul\":8754:8758   */\n      0x7f\n        /* \"#utility.yul\":8746:8752   */\n      dup3\n        /* \"#utility.yul\":8742:8759   */\n      and\n        /* \"#utility.yul\":8732:8759   */\n      swap2\n      pop\n        /* \"#utility.yul\":8688:8769   */\n    tag_170:\n        /* \"#utility.yul\":8816:8818   */\n      0x20\n        /* \"#utility.yul\":8808:8814   */\n      dup3\n        /* \"#utility.yul\":8805:8819   */\n      lt\n        /* \"#utility.yul\":8785:8803   */\n      dup2\n        /* \"#utility.yul\":8782:8820   */\n      sub\n        /* \"#utility.yul\":8779:8863   */\n      tag_171\n      jumpi\n        /* \"#utility.yul\":8835:8853   */\n      tag_172\n      tag_65\n      jump\t// in\n    tag_172:\n        /* \"#utility.yul\":8779:8863   */\n    tag_171:\n        /* \"#utility.yul\":8600:8869   */\n      pop\n        /* \"#utility.yul\":8549:8869   */\n      swap2\n      swap1\n      pop\n      jump\t// out\n        /* \"#utility.yul\":8875:9016   */\n    tag_66:\n        /* \"#utility.yul\":8924:8928   */\n      0x00\n        /* \"#utility.yul\":8947:8950   */\n      dup2\n        /* \"#utility.yul\":8939:8950   */\n      swap1\n      pop\n        /* \"#utility.yul\":8970:8973   */\n      dup2\n        /* \"#utility.yul\":8967:8968   */\n      0x00\n        /* \"#utility.yul\":8960:8974   */\n      mstore\n        /* \"#utility.yul\":9004:9008   */\n      0x20\n        /* \"#utility.yul\":9001:9002   */\n      0x00\n        /* \"#utility.yul\":8991:9009   */\n      keccak256\n        /* \"#utility.yul\":8983:9009   */\n      swap1\n      pop\n        /* \"#utility.yul\":8875:9016   */\n      swap2\n      swap1\n      pop\n      jump\t// out\n        /* \"#utility.yul\":9022:9115   */\n    tag_67:\n        /* \"#utility.yul\":9059:9065   */\n      0x00\n        /* \"#utility.yul\":9106:9108   */\n      0x20\n        /* \"#utility.yul\":9101:9103   */\n      0x1f\n        /* \"#utility.yul\":9094:9099   */\n      dup4\n        /* \"#utility.yul\":9090:9104   */\n      add\n        /* \"#utility.yul\":9086:9109   */\n      div\n        /* \"#utility.yul\":9076:9109   */\n      swap1\n      pop\n        /* \"#utility.yul\":9022:9115   */\n      swap2\n      swap1\n      pop\n      jump\t// out\n        /* \"#utility.yul\":9121:9228   */\n    tag_68:\n        /* \"#utility.yul\":9165:9173   */\n      0x00\n        /* \"#utility.yul\":9215:9220   */\n      dup3\n        /* \"#utility.yul\":9209:9213   */\n      dup3\n        /* \"#utility.yul\":9205:9221   */\n      shl\n        /* \"#utility.yul\":9184:9221   */\n      swap1\n      pop\n        /* \"#utility.yul\":9121:9228   */\n      swap3\n      swap2\n      pop\n      pop\n      jump\t// out\n        /* \"#utility.yul\":9234:9627   */\n    tag_69:\n        /* \"#utility.yul\":9303:9309   */\n      0x00\n        /* \"#utility.yul\":9353:9354   */\n      0x08\n        /* \"#utility.yul\":9341:9351   */\n      dup4\n        /* \"#utility.yul\":9337:9355   */\n      mul\n        /* \"#utility.yul\":9376:9473   */\n      tag_177\n        /* \"#utility.yul\":9406:9472   */\n      0xffffffffffffffffffffffffffffffffffffffffffffffffffffffffffffffff\n        /* \"#utility.yul\":9395:9404   */\n      dup3\n        /* \"#utility.yul\":9376:9473   */\n      tag_68\n      jump\t// in\n    tag_177:\n        /* \"#utility.yul\":9494:9533   */\n      tag_178\n        /* \"#utility.yul\":9524:9532   */\n      dup7\n        /* \"#utility.yul\":9513:9522   */\n      dup4\n        /* \"#utility.yul\":9494:9533   */\n      tag_68\n      jump\t// in\n    tag_178:\n        /* \"#utility.yul\":9482:9533   */\n      swap6\n      pop\n        /* \"#utility.yul\":9566:9570   */\n      dup1\n        /* \"#utility.yul\":9562:9571   */\n      not\n        /* \"#utility.yul\":9555:9560   */\n      dup5\n        /* \"#utility.yul\":9551:9572   */\n      and\n        /* \"#utility.yul\":9542:9572   */\n      swap4\n      pop\n        /* \"#utility.yul\":9615:9619   */\n      dup1\n        /* \"#utility.yul\":9605:9613   */\n      dup7\n        /* \"#utility.yul\":9601:9620   */\n      and\n        /* \"#utility.yul\":9594:9599   */\n      dup5\n        /* \"#utility.yul\":9591:9621   */\n      or\n        /* \"#utility.yul\":9581:9621   */\n      swap3\n      pop\n        /* \"#utility.yul\":9310:9627   */\n      pop\n      pop\n        /* \"#utility.yul\":9234:9627   */\n      swap4\n      swap3\n      pop\n      pop\n      pop\n      jump\t// out\n        /* \"#utility.yul\":9633:9693   */\n    tag_70:\n        /* \"#utility.yul\":9661:9664   */\n      0x00\n        /* \"#utility.yul\":9682:9687   */\n      dup2\n        /* \"#utility.yul\":9675:9687   */\n      swap1\n      pop\n        /* \"#utility.yul\":9633:9693   */\n      swap2\n      swap1\n      pop\n      jump\t// out\n        /* \"#utility.yul\":9699:9841   */\n    tag_71:\n        /* \"#utility.yul\":9749:9758   */\n      0x00\n        /* \"#utility.yul\":9782:9835   */\n      tag_181\n        /* \"#utility.yul\":9800:9834   */\n      tag_182\n        /* \"#utility.yul\":9809:9833   */\n      tag_183\n        /* \"#utility.yul\":9827:9832   */\n      dup5\n        /* \"#utility.yul\":9809:9833   */\n      tag_49\n      jump\t// in\n    tag_183:\n        /* \"#utility.yul\":9800:9834   */\n      tag_70\n      jump\t// in\n    tag_182:\n        /* \"#utility.yul\":9782:9835   */\n      tag_49\n      jump\t// in\n    tag_181:\n        /* \"#utility.yul\":9769:9835   */\n      swap1\n      pop\n        /* \"#utility.yul\":9699:9841   */\n      swap2\n      swap1\n      pop\n      jump\t// out\n        /* \"#utility.yul\":9847:9922   */\n    tag_72:\n        /* \"#utility.yul\":9890:9893   */\n      0x00\n        /* \"#utility.yul\":9911:9916   */\n      dup2\n        /* \"#utility.yul\":9904:9916   */\n      swap1\n      pop\n        /* \"#utility.yul\":9847:9922   */\n      swap2\n      swap1\n      pop\n      jump\t// out\n        /* \"#utility.yul\":9928:10197   */\n    tag_73:\n        /* \"#utility.yul\":10038:10077   */\n      tag_186\n        /* \"#utility.yul\":10069:10076   */\n      dup4\n        /* \"#utility.yul\":10038:10077   */\n      tag_71\n      jump\t// in\n    tag_186:\n        /* \"#utility.yul\":10099:10190   */\n      tag_187\n        /* \"#utility.yul\":10148:10189   */\n      tag_188\n        /* \"#utility.yul\":10172:10188   */\n      dup3\n        /* \"#utility.yul\":10148:10189   */\n      tag_72\n      jump\t// in\n    tag_188:\n        /* \"#utility.yul\":10140:10146   */\n      dup5\n        /* \"#utility.yul\":10133:10137   */\n      dup5\n        /* \"#utility.yul\":10127:10138   */\n      sload\n        /* \"#utility.yul\":10099:10190   */\n      tag_69\n      jump\t// in\n    tag_187:\n        /* \"#utility.yul\":10093:10097   */\n      dup3\n        /* \"#utility.yul\":10086:10191   */\n      sstore\n        /* \"#utility.yul\":10004:10197   */\n      pop\n        /* \"#utility.yul\":9928:10197   */\n      pop\n      pop\n      pop\n      jump\t// out\n        /* \"#utility.yul\":10203:10276   */\n    tag_74:\n        /* \"#utility.yul\":10248:10251   */\n      0x00\n        /* \"#utility.yul\":10203:10276   */\n      swap1\n      jump\t// out\n        /* \"#utility.yul\":10282:10471   */\n    tag_75:\n        /* \"#utility.yul\":10359:10391   */\n      tag_191\n      tag_74\n      jump\t// in\n    tag_191:\n        /* \"#utility.yul\":10400:10465   */\n      tag_192\n        /* \"#utility.yul\":10458:10464   */\n      dup2\n        /* \"#utility.yul\":10450:10456   */\n      dup5\n        /* \"#utility.yul\":10444:10448   */\n      dup5\n        /* \"#utility.yul\":10400:10465   */\n      tag_73\n      jump\t// in\n    tag_192:\n        /* \"#utility.yul\":10335:10471   */\n      pop\n        /* \"#utility.yul\":10282:10471   */\n      pop\n      pop\n      jump\t// out\n        /* \"#utility.yul\":10477:10663   */\n    tag_76:\n        /* \"#utility.yul\":10537:10657   */\n    tag_194:\n        /* \"#utility.yul\":10554:10557   */\n      dup2\n        /* \"#utility.yul\":10547:10552   */\n      dup2\n        /* \"#utility.yul\":10544:10558   */\n      lt\n        /* \"#utility.yul\":10537:10657   */\n      iszero\n      tag_196\n      jumpi\n        /* \"#utility.yul\":10608:10647   */\n      tag_197\n        /* \"#utility.yul\":10645:10646   */\n      0x00\n        /* \"#utility.yul\":10638:10643   */\n      dup3\n        /* \"#utility.yul\":10608:10647   */\n      tag_75\n      jump\t// in\n    tag_197:\n        /* \"#utility.yul\":10581:10582   */\n      0x01\n        /* \"#utility.yul\":10574:10579   */\n      dup2\n        /* \"#utility.yul\":10570:10583   */\n      add\n        /* \"#utility.yul\":10561:10583   */\n      swap1\n      pop\n        /* \"#utility.yul\":10537:10657   */\n      jump(tag_194)\n    tag_196:\n        /* \"#utility.yul\":10477:10663   */\n      pop\n      pop\n      jump\t// out\n        /* \"#utility.yul\":10669:11212   */\n    tag_77:\n        /* \"#utility.yul\":10770:10772   */\n      0x1f\n        /* \"#utility.yul\":10765:10768   */\n      dup3\n        /* \"#utility.yul\":10762:10773   */\n      gt\n        /* \"#utility.yul\":10759:11205   */\n      iszero\n      tag_199\n      jumpi\n        /* \"#utility.yul\":10804:10842   */\n      tag_200\n        /* \"#utility.yul\":10836:10841   */\n      dup2\n        /* \"#utility.yul\":10804:10842   */\n      tag_66\n      jump\t// in\n    tag_200:\n        /* \"#utility.yul\":10888:10917   */\n      tag_201\n        /* \"#utility.yul\":10906:10916   */\n      dup5\n        /* \"#utility.yul\":10888:10917   */\n      tag_67\n      jump\t// in\n    tag_201:\n        /* \"#utility.yul\":10878:10886   */\n      dup2\n        /* \"#utility.yul\":10874:10918   */\n      add\n        /* \"#utility.yul\":11071:11073   */\n      0x20\n        /* \"#utility.yul\":11059:11069   */\n      dup6\n        /* \"#utility.yul\":11056:11074   */\n      lt\n        /* \"#utility.yul\":11053:11102   */\n      iszero\n      tag_202\n      jumpi\n        /* \"#utility.yul\":11092:11100   */\n      dup2\n        /* \"#utility.yul\":11077:11100   */\n      swap1\n      pop\n        /* \"#utility.yul\":11053:11102   */\n    tag_202:\n        /* \"#utility.yul\":11115:11195   */\n      tag_203\n        /* \"#utility.yul\":11171:11193   */\n      tag_204\n        /* \"#utility.yul\":11189:11192   */\n      dup6\n        /* \"#utility.yul\":11171:11193   */\n      tag_67\n      jump\t// in\n    tag_204:\n        /* \"#utility.yul\":11161:11169   */\n      dup4\n        /* \"#utility.yul\":11157:11194   */\n      add\n        /* \"#utility.yul\":11144:11155   */\n      dup3\n        /* \"#utility.yul\":11115:11195   */\n      tag_76\n      jump\t// in\n    tag_203:\n        /* \"#utility.yul\":10774:11205   */\n      pop\n      pop\n        /* \"#utility.yul\":10759:11205   */\n    tag_199:\n        /* \"#utility.yul\":10669:11212   */\n      pop\n      pop\n      pop\n      jump\t// out\n        /* \"#utility.yul\":11218:11335   */\n    tag_78:\n        /* \"#utility.yul\":11272:11280   */\n      0x00\n        /* \"#utility.yul\":11322:11327   */\n      dup3\n        /* \"#utility.yul\":11316:11320   */\n      dup3\n        /* \"#utility.yul\":11312:11328   */\n      shr\n        /* \"#utility.yul\":11291:11328   */\n      swap1\n      pop\n        /* \"#utility.yul\":11218:11335   */\n      swap3\n      swap2\n      pop\n      pop\n      jump\t// out\n        /* \"#utility.yul\":11341:11510   */\n    tag_79:\n        /* \"#utility.yul\":11385:11391   */\n      0x00\n        /* \"#utility.yul\":11418:11469   */\n      tag_207\n        /* \"#utility.yul\":11466:11467   */\n      0x00\n        /* \"#utility.yul\":11462:11468   */\n      not\n        /* \"#utility.yul\":11454:11459   */\n      dup5\n        /* \"#utility.yul\":11451:11452   */\n      0x08\n        /* \"#utility.yul\":11447:11460   */\n      mul\n        /* \"#utility.yul\":11418:11469   */\n      tag_78\n      jump\t// in\n    tag_207:\n        /* \"#utility.yul\":11414:11470   */\n      not\n        /* \"#utility.yul\":11499:11503   */\n      dup1\n        /* \"#utility.yul\":11493:11497   */\n      dup4\n        /* \"#utility.yul\":11489:11504   */\n      and\n        /* \"#utility.yul\":11479:11504   */\n      swap2\n      pop\n        /* \"#utility.yul\":11392:11510   */\n      pop\n        /* \"#utility.yul\":11341:11510   */\n      swap3\n      swap2\n      pop\n      pop\n      jump\t// out\n        /* \"#utility.yul\":11515:11810   */\n    tag_80:\n        /* \"#utility.yul\":11591:11595   */\n      0x00\n        /* \"#utility.yul\":11737:11766   */\n      tag_209\n        /* \"#utility.yul\":11762:11765   */\n      dup4\n        /* \"#utility.yul\":11756:11760   */\n      dup4\n        /* \"#utility.yul\":11737:11766   */\n      tag_79\n      jump\t// in\n    tag_209:\n        /* \"#utility.yul\":11729:11766   */\n      swap2\n      pop\n        /* \"#utility.yul\":11799:11802   */\n      dup3\n        /* \"#utility.yul\":11796:11797   */\n      0x02\n        /* \"#utility.yul\":11792:11803   */\n      mul\n        /* \"#utility.yul\":11786:11790   */\n      dup3\n        /* \"#utility.yul\":11783:11804   */\n      or\n        /* \"#utility.yul\":11775:11804   */\n      swap1\n      pop\n        /* \"#utility.yul\":11515:11810   */\n      swap3\n      swap2\n      pop\n      pop\n      jump\t// out\n        /* \"#utility.yul\":11815:13210   */\n    tag_19:\n        /* \"#utility.yul\":11932:11969   */\n      tag_211\n        /* \"#utility.yul\":11965:11968   */\n      dup3\n        /* \"#utility.yul\":11932:11969   */\n      tag_56\n      jump\t// in\n    tag_211:\n        /* \"#utility.yul\":12034:12052   */\n      0xffffffffffffffff\n        /* \"#utility.yul\":12026:12032   */\n      dup2\n        /* \"#utility.yul\":12023:12053   */\n      gt\n        /* \"#utility.yul\":12020:12076   */\n      iszero\n      tag_212\n      jumpi\n        /* \"#utility.yul\":12056:12074   */\n      tag_213\n      tag_42\n      jump\t// in\n    tag_213:\n        /* \"#utility.yul\":12020:12076   */\n    tag_212:\n        /* \"#utility.yul\":12100:12138   */\n      tag_214\n        /* \"#utility.yul\":12132:12136   */\n      dup3\n        /* \"#utility.yul\":12126:12137   */\n      sload\n        /* \"#utility.yul\":12100:12138   */\n      tag_26\n      jump\t// in\n    tag_214:\n        /* \"#utility.yul\":12185:12252   */\n      tag_215\n        /* \"#utility.yul\":12245:12251   */\n      dup3\n        /* \"#utility.yul\":12237:12243   */\n      dup3\n        /* \"#utility.yul\":12231:12235   */\n      dup6\n        /* \"#utility.yul\":12185:12252   */\n      tag_77\n      jump\t// in\n    tag_215:\n        /* \"#utility.yul\":12279:12280   */\n      0x00\n        /* \"#utility.yul\":12303:12307   */\n      0x20\n        /* \"#utility.yul\":12290:12307   */\n      swap1\n      pop\n        /* \"#utility.yul\":12335:12337   */\n      0x1f\n        /* \"#utility.yul\":12327:12333   */\n      dup4\n        /* \"#utility.yul\":12324:12338   */\n      gt\n        /* \"#utility.yul\":12352:12353   */\n      0x01\n        /* \"#utility.yul\":12347:12965   */\n      dup2\n      eq\n      tag_217\n      jumpi\n        /* \"#utility.yul\":13009:13010   */\n      0x00\n        /* \"#utility.yul\":13026:13032   */\n      dup5\n        /* \"#utility.yul\":13023:13100   */\n      iszero\n      tag_218\n      jumpi\n        /* \"#utility.yul\":13075:13084   */\n      dup3\n        /* \"#utility.yul\":13070:13073   */\n      dup8\n        /* \"#utility.yul\":13066:13085   */\n      add\n        /* \"#utility.yul\":13060:13086   */\n      mload\n        /* \"#utility.yul\":13051:13086   */\n      swap1\n      pop\n        /* \"#utility.yul\":13023:13100   */\n    tag_218:\n        /* \"#utility.yul\":13126:13193   */\n      tag_219\n        /* \"#utility.yul\":13186:13192   */\n      dup6\n        /* \"#utility.yul\":13179:13184   */\n      dup3\n        /* \"#utility.yul\":13126:13193   */\n      tag_80\n      jump\t// in\n    tag_219:\n        /* \"#utility.yul\":13120:13124   */\n      dup7\n        /* \"#utility.yul\":13113:13194   */\n      sstore\n        /* \"#utility.yul\":12982:13204   */\n      pop\n        /* \"#utility.yul\":12317:13204   */\n      jump(tag_216)\n        /* \"#utility.yul\":12347:12965   */\n    tag_217:\n        /* \"#utility.yul\":12399:12403   */\n      0x1f\n        /* \"#utility.yul\":12395:12404   */\n      not\n        /* \"#utility.yul\":12387:12393   */\n      dup5\n        /* \"#utility.yul\":12383:12405   */\n      and\n        /* \"#utility.yul\":12433:12470   */\n      tag_220\n        /* \"#utility.yul\":12465:12469   */\n      dup7\n        /* \"#utility.yul\":12433:12470   */\n      tag_66\n      jump\t// in\n    tag_220:\n        /* \"#utility.yul\":12492:12493   */\n      0x00\n        /* \"#utility.yul\":12506:12714   */\n    tag_221:\n        /* \"#utility.yul\":12520:12527   */\n      dup3\n        /* \"#utility.yul\":12517:12518   */\n      dup2\n        /* \"#utility.yul\":12514:12528   */\n      lt\n        /* \"#utility.yul\":12506:12714   */\n      iszero\n      tag_223\n      jumpi\n        /* \"#utility.yul\":12599:12608   */\n      dup5\n        /* \"#utility.yul\":12594:12597   */\n      dup10\n        /* \"#utility.yul\":12590:12609   */\n      add\n        /* \"#utility.yul\":12584:12610   */\n      mload\n        /* \"#utility.yul\":12576:12582   */\n      dup3\n        /* \"#utility.yul\":12569:12611   */\n      sstore\n        /* \"#utility.yul\":12650:12651   */\n      0x01\n        /* \"#utility.yul\":12642:12648   */\n      dup3\n        /* \"#utility.yul\":12638:12652   */\n      add\n        /* \"#utility.yul\":12628:12652   */\n      swap2\n      pop\n        /* \"#utility.yul\":12697:12699   */\n      0x20\n        /* \"#utility.yul\":12686:12695   */\n      dup6\n        /* \"#utility.yul\":12682:12700   */\n      add\n        /* \"#utility.yul\":12669:12700   */\n      swap5\n      pop\n        /* \"#utility.yul\":12543:12547   */\n      0x20\n        /* \"#utility.yul\":12540:12541   */\n      dup2\n        /* \"#utility.yul\":12536:12548   */\n      add\n        /* \"#utility.yul\":12531:12548   */\n      swap1\n      pop\n        /* \"#utility.yul\":12506:12714   */\n      jump(tag_221)\n    tag_223:\n        /* \"#utility.yul\":12742:12748   */\n      dup7\n        /* \"#utility.yul\":12733:12740   */\n      dup4\n        /* \"#utility.yul\":12730:12749   */\n      lt\n        /* \"#utility.yul\":12727:12906   */\n      iszero\n      tag_224\n      jumpi\n        /* \"#utility.yul\":12800:12809   */\n      dup5\n        /* \"#utility.yul\":12795:12798   */\n      dup10\n        /* \"#utility.yul\":12791:12810   */\n      add\n        /* \"#utility.yul\":12785:12811   */\n      mload\n        /* \"#utility.yul\":12843:12891   */\n      tag_225\n        /* \"#utility.yul\":12885:12889   */\n      0x1f\n        /* \"#utility.yul\":12877:12883   */\n      dup10\n        /* \"#utility.yul\":12873:12890   */\n      and\n        /* \"#utility.yul\":12862:12871   */\n      dup3\n        /* \"#utility.yul\":12843:12891   */\n      tag_79\n      jump\t// in\n    tag_225:\n        /* \"#utility.yul\":12835:12841   */\n      dup4\n        /* \"#utility.yul\":12828:12892   */\n      sstore\n        /* \"#utility.yul\":12750:12906   */\n      pop\n        /* \"#utility.yul\":12727:12906   */\n    tag_224:\n        /* \"#utility.yul\":12952:12953   */\n      0x01\n        /* \"#utility.yul\":12948:12949   */\n      0x02\n        /* \"#utility.yul\":12940:12946   */\n      dup9\n        /* \"#utility.yul\":12936:12950   */\n      mul\n        /* \"#utility.yul\":12932:12954   */\n      add\n        /* \"#utility.yul\":12926:12930   */\n      dup9\n        /* \"#utility.yul\":12919:12955   */\n      sstore\n        /* \"#utility.yul\":12354:12965   */\n      pop\n      pop\n      pop\n        /* \"#utility.yul\":12317:13204   */\n    tag_216:\n      pop\n        /* \"#utility.yul\":11907:13210   */\n      pop\n      pop\n      pop\n        /* \"#utility.yul\":11815:13210   */\n      pop\n      pop\n      jump\t// out\n\n    auxdata: 0xa2646970667358221220a8a1dad3904d12f758519e832c1bbe6da3a124e9c8ea8e1da92b7b99e77e5b8564736f6c634300081a0033\n}\n",
				"bytecode": {
					"linkReferences": {},
					"object": "6080604052348015600e575f80fd5b50610a628061001c5f395ff3fe608060405234801561000f575f80fd5b5060043610610034575f3560e01c8063452fd03c146100385780636932cf8114610054575b5f80fd5b610052600480360381019061004d919061052b565b610084565b005b61006e600480360381019061006991906105c7565b61015b565b60405161007b91906106f3565b60405180910390f35b60405180608001604052808581526020018481526020018373ffffffffffffffffffffffffffffffffffffffff168152602001828152505f856040516100ca919061074d565b90815260200160405180910390205f820151815f0190816100eb919061095d565b50602082015181600101556040820151816002015f6101000a81548173ffffffffffffffffffffffffffffffffffffffff021916908373ffffffffffffffffffffffffffffffffffffffff1602179055506060820151816003019081610151919061095d565b5090505050505050565b610163610315565b5f8083604051610173919061074d565b90815260200160405180910390206040518060800160405290815f8201805461019b90610790565b80601f01602080910402602001604051908101604052809291908181526020018280546101c790610790565b80156102125780601f106101e957610100808354040283529160200191610212565b820191905f5260205f20905b8154815290600101906020018083116101f557829003601f168201915b5050505050815260200160018201548152602001600282015f9054906101000a900473ffffffffffffffffffffffffffffffffffffffff1673ffffffffffffffffffffffffffffffffffffffff1673ffffffffffffffffffffffffffffffffffffffff16815260200160038201805461028a90610790565b80601f01602080910402602001604051908101604052809291908181526020018280546102b690610790565b80156103015780601f106102d857610100808354040283529160200191610301565b820191905f5260205f20905b8154815290600101906020018083116102e457829003601f168201915b505050505081525050905080915050919050565b6040518060800160405280606081526020015f81526020015f73ffffffffffffffffffffffffffffffffffffffff168152602001606081525090565b5f604051905090565b5f80fd5b5f80fd5b5f80fd5b5f80fd5b5f601f19601f8301169050919050565b7f4e487b71000000000000000000000000000000000000000000000000000000005f52604160045260245ffd5b6103b08261036a565b810181811067ffffffffffffffff821117156103cf576103ce61037a565b5b80604052505050565b5f6103e1610351565b90506103ed82826103a7565b919050565b5f67ffffffffffffffff82111561040c5761040b61037a565b5b6104158261036a565b9050602081019050919050565b828183375f83830152505050565b5f61044261043d846103f2565b6103d8565b90508281526020810184848401111561045e5761045d610366565b5b610469848285610422565b509392505050565b5f82601f83011261048557610484610362565b5b8135610495848260208601610430565b91505092915050565b5f819050919050565b6104b08161049e565b81146104ba575f80fd5b50565b5f813590506104cb816104a7565b92915050565b5f73ffffffffffffffffffffffffffffffffffffffff82169050919050565b5f6104fa826104d1565b9050919050565b61050a816104f0565b8114610514575f80fd5b50565b5f8135905061052581610501565b92915050565b5f805f80608085870312156105435761054261035a565b5b5f85013567ffffffffffffffff8111156105605761055f61035e565b5b61056c87828801610471565b945050602061057d878288016104bd565b935050604061058e87828801610517565b925050606085013567ffffffffffffffff8111156105af576105ae61035e565b5b6105bb87828801610471565b91505092959194509250565b5f602082840312156105dc576105db61035a565b5b5f82013567ffffffffffffffff8111156105f9576105f861035e565b5b61060584828501610471565b91505092915050565b5f81519050919050565b5f82825260208201905092915050565b8281835e5f83830152505050565b5f6106408261060e565b61064a8185610618565b935061065a818560208601610628565b6106638161036a565b840191505092915050565b6106778161049e565b82525050565b610686816104f0565b82525050565b5f608083015f8301518482035f8601526106a68282610636565b91505060208301516106bb602086018261066e565b5060408301516106ce604086018261067d565b50606083015184820360608601526106e68282610636565b9150508091505092915050565b5f6020820190508181035f83015261070b818461068c565b905092915050565b5f81905092915050565b5f6107278261060e565b6107318185610713565b9350610741818560208601610628565b80840191505092915050565b5f610758828461071d565b915081905092915050565b7f4e487b71000000000000000000000000000000000000000000000000000000005f52602260045260245ffd5b5f60028204905060018216806107a757607f821691505b6020821081036107ba576107b9610763565b5b50919050565b5f819050815f5260205f209050919050565b5f6020601f8301049050919050565b5f82821b905092915050565b5f6008830261081c7fffffffffffffffffffffffffffffffffffffffffffffffffffffffffffffffff826107e1565b61082686836107e1565b95508019841693508086168417925050509392505050565b5f819050919050565b5f61086161085c6108578461049e565b61083e565b61049e565b9050919050565b5f819050919050565b61087a83610847565b61088e61088682610868565b8484546107ed565b825550505050565b5f90565b6108a2610896565b6108ad818484610871565b505050565b5b818110156108d0576108c55f8261089a565b6001810190506108b3565b5050565b601f821115610915576108e6816107c0565b6108ef846107d2565b810160208510156108fe578190505b61091261090a856107d2565b8301826108b2565b50505b505050565b5f82821c905092915050565b5f6109355f198460080261091a565b1980831691505092915050565b5f61094d8383610926565b9150826002028217905092915050565b6109668261060e565b67ffffffffffffffff81111561097f5761097e61037a565b5b6109898254610790565b6109948282856108d4565b5f60209050601f8311600181146109c5575f84156109b3578287015190505b6109bd8582610942565b865550610a24565b601f1984166109d3866107c0565b5f5b828110156109fa578489015182556001820191506020850194506020810190506109d5565b86831015610a175784890151610a13601f891682610926565b8355505b6001600288020188555050505b50505050505056fea2646970667358221220a8a1dad3904d12f758519e832c1bbe6da3a124e9c8ea8e1da92b7b99e77e5b8564736f6c634300081a0033",
					"opcodes": "PUSH1 0x80 PUSH1 0x40 MSTORE CALLVALUE DUP1 ISZERO PUSH1 0xE JUMPI PUSH0 DUP1 REVERT JUMPDEST POP PUSH2 0xA62 DUP1 PUSH2 0x1C PUSH0 CODECOPY PUSH0 RETURN INVALID PUSH1 0x80 PUSH1 0x40 MSTORE CALLVALUE DUP1 ISZERO PUSH2 0xF JUMPI PUSH0 DUP1 REVERT JUMPDEST POP PUSH1 0x4 CALLDATASIZE LT PUSH2 0x34 JUMPI PUSH0 CALLDATALOAD PUSH1 0xE0 SHR DUP1 PUSH4 0x452FD03C EQ PUSH2 0x38 JUMPI DUP1 PUSH4 0x6932CF81 EQ PUSH2 0x54 JUMPI JUMPDEST PUSH0 DUP1 REVERT JUMPDEST PUSH2 0x52 PUSH1 0x4 DUP1 CALLDATASIZE SUB DUP2 ADD SWAP1 PUSH2 0x4D SWAP2 SWAP1 PUSH2 0x52B JUMP JUMPDEST PUSH2 0x84 JUMP JUMPDEST STOP JUMPDEST PUSH2 0x6E PUSH1 0x4 DUP1 CALLDATASIZE SUB DUP2 ADD SWAP1 PUSH2 0x69 SWAP2 SWAP1 PUSH2 0x5C7 JUMP JUMPDEST PUSH2 0x15B JUMP JUMPDEST PUSH1 0x40 MLOAD PUSH2 0x7B SWAP2 SWAP1 PUSH2 0x6F3 JUMP JUMPDEST PUSH1 0x40 MLOAD DUP1 SWAP2 SUB SWAP1 RETURN JUMPDEST PUSH1 0x40 MLOAD DUP1 PUSH1 0x80 ADD PUSH1 0x40 MSTORE DUP1 DUP6 DUP2 MSTORE PUSH1 0x20 ADD DUP5 DUP2 MSTORE PUSH1 0x20 ADD DUP4 PUSH20 0xFFFFFFFFFFFFFFFFFFFFFFFFFFFFFFFFFFFFFFFF AND DUP2 MSTORE PUSH1 0x20 ADD DUP3 DUP2 MSTORE POP PUSH0 DUP6 PUSH1 0x40 MLOAD PUSH2 0xCA SWAP2 SWAP1 PUSH2 0x74D JUMP JUMPDEST SWAP1 DUP2 MSTORE PUSH1 0x20 ADD PUSH1 0x40 MLOAD DUP1 SWAP2 SUB SWAP1 KECCAK256 PUSH0 DUP3 ADD MLOAD DUP2 PUSH0 ADD SWAP1 DUP2 PUSH2 0xEB SWAP2 SWAP1 PUSH2 0x95D JUMP JUMPDEST POP PUSH1 0x20 DUP3 ADD MLOAD DUP2 PUSH1 0x1 ADD SSTORE PUSH1 0x40 DUP3 ADD MLOAD DUP2 PUSH1 0x2 ADD PUSH0 PUSH2 0x100 EXP DUP2 SLOAD DUP2 PUSH20 0xFFFFFFFFFFFFFFFFFFFFFFFFFFFFFFFFFFFFFFFF MUL NOT AND SWAP1 DUP4 PUSH20 0xFFFFFFFFFFFFFFFFFFFFFFFFFFFFFFFFFFFFFFFF AND MUL OR SWAP1 SSTORE POP PUSH1 0x60 DUP3 ADD MLOAD DUP2 PUSH1 0x3 ADD SWAP1 DUP2 PUSH2 0x151 SWAP2 SWAP1 PUSH2 0x95D JUMP JUMPDEST POP SWAP1 POP POP POP POP POP POP JUMP JUMPDEST PUSH2 0x163 PUSH2 0x315 JUMP JUMPDEST PUSH0 DUP1 DUP4 PUSH1 0x40 MLOAD PUSH2 0x173 SWAP2 SWAP1 PUSH2 0x74D JUMP JUMPDEST SWAP1 DUP2 MSTORE PUSH1 0x20 ADD PUSH1 0x40 MLOAD DUP1 SWAP2 SUB SWAP1 KECCAK256 PUSH1 0x40 MLOAD DUP1 PUSH1 0x80 ADD PUSH1 0x40 MSTORE SWAP1 DUP2 PUSH0 DUP3 ADD DUP1 SLOAD PUSH2 0x19B SWAP1 PUSH2 0x790 JUMP JUMPDEST DUP1 PUSH1 0x1F ADD PUSH1 0x20 DUP1 SWAP2 DIV MUL PUSH1 0x20 ADD PUSH1 0x40 MLOAD SWAP1 DUP2 ADD PUSH1 0x40 MSTORE DUP1 SWAP3 SWAP2 SWAP1 DUP2 DUP2 MSTORE PUSH1 0x20 ADD DUP3 DUP1 SLOAD PUSH2 0x1C7 SWAP1 PUSH2 0x790 JUMP JUMPDEST DUP1 ISZERO PUSH2 0x212 JUMPI DUP1 PUSH1 0x1F LT PUSH2 0x1E9 JUMPI PUSH2 0x100 DUP1 DUP4 SLOAD DIV MUL DUP4 MSTORE SWAP2 PUSH1 0x20 ADD SWAP2 PUSH2 0x212 JUMP JUMPDEST DUP3 ADD SWAP2 SWAP1 PUSH0 MSTORE PUSH1 0x20 PUSH0 KECCAK256 SWAP1 JUMPDEST DUP2 SLOAD DUP2 MSTORE SWAP1 PUSH1 0x1 ADD SWAP1 PUSH1 0x20 ADD DUP1 DUP4 GT PUSH2 0x1F5 JUMPI DUP3 SWAP1 SUB PUSH1 0x1F AND DUP3 ADD SWAP2 JUMPDEST POP POP POP POP POP DUP2 MSTORE PUSH1 0x20 ADD PUSH1 0x1 DUP3 ADD SLOAD DUP2 MSTORE PUSH1 0x20 ADD PUSH1 0x2 DUP3 ADD PUSH0 SWAP1 SLOAD SWAP1 PUSH2 0x100 EXP SWAP1 DIV PUSH20 0xFFFFFFFFFFFFFFFFFFFFFFFFFFFFFFFFFFFFFFFF AND PUSH20 0xFFFFFFFFFFFFFFFFFFFFFFFFFFFFFFFFFFFFFFFF AND PUSH20 0xFFFFFFFFFFFFFFFFFFFFFFFFFFFFFFFFFFFFFFFF AND DUP2 MSTORE PUSH1 0x20 ADD PUSH1 0x3 DUP3 ADD DUP1 SLOAD PUSH2 0x28A SWAP1 PUSH2 0x790 JUMP JUMPDEST DUP1 PUSH1 0x1F ADD PUSH1 0x20 DUP1 SWAP2 DIV MUL PUSH1 0x20 ADD PUSH1 0x40 MLOAD SWAP1 DUP2 ADD PUSH1 0x40 MSTORE DUP1 SWAP3 SWAP2 SWAP1 DUP2 DUP2 MSTORE PUSH1 0x20 ADD DUP3 DUP1 SLOAD PUSH2 0x2B6 SWAP1 PUSH2 0x790 JUMP JUMPDEST DUP1 ISZERO PUSH2 0x301 JUMPI DUP1 PUSH1 0x1F LT PUSH2 0x2D8 JUMPI PUSH2 0x100 DUP1 DUP4 SLOAD DIV MUL DUP4 MSTORE SWAP2 PUSH1 0x20 ADD SWAP2 PUSH2 0x301 JUMP JUMPDEST DUP3 ADD SWAP2 SWAP1 PUSH0 MSTORE PUSH1 0x20 PUSH0 KECCAK256 SWAP1 JUMPDEST DUP2 SLOAD DUP2 MSTORE SWAP1 PUSH1 0x1 ADD SWAP1 PUSH1 0x20 ADD DUP1 DUP4 GT PUSH2 0x2E4 JUMPI DUP3 SWAP1 SUB PUSH1 0x1F AND DUP3 ADD SWAP2 JUMPDEST POP POP POP POP POP DUP2 MSTORE POP POP SWAP1 POP DUP1 SWAP2 POP POP SWAP2 SWAP1 POP JUMP JUMPDEST PUSH1 0x40 MLOAD DUP1 PUSH1 0x80 ADD PUSH1 0x40 MSTORE DUP1 PUSH1 0x60 DUP2 MSTORE PUSH1 0x20 ADD PUSH0 DUP2 MSTORE PUSH1 0x20 ADD PUSH0 PUSH20 0xFFFFFFFFFFFFFFFFFFFFFFFFFFFFFFFFFFFFFFFF AND DUP2 MSTORE PUSH1 0x20 ADD PUSH1 0x60 DUP2 MSTORE POP SWAP1 JUMP JUMPDEST PUSH0 PUSH1 0x40 MLOAD SWAP1 POP SWAP1 JUMP JUMPDEST PUSH0 DUP1 REVERT JUMPDEST PUSH0 DUP1 REVERT JUMPDEST PUSH0 DUP1 REVERT JUMPDEST PUSH0 DUP1 REVERT JUMPDEST PUSH0 PUSH1 0x1F NOT PUSH1 0x1F DUP4 ADD AND SWAP1 POP SWAP2 SWAP1 POP JUMP JUMPDEST PUSH32 0x4E487B7100000000000000000000000000000000000000000000000000000000 PUSH0 MSTORE PUSH1 0x41 PUSH1 0x4 MSTORE PUSH1 0x24 PUSH0 REVERT JUMPDEST PUSH2 0x3B0 DUP3 PUSH2 0x36A JUMP JUMPDEST DUP2 ADD DUP2 DUP2 LT PUSH8 0xFFFFFFFFFFFFFFFF DUP3 GT OR ISZERO PUSH2 0x3CF JUMPI PUSH2 0x3CE PUSH2 0x37A JUMP JUMPDEST JUMPDEST DUP1 PUSH1 0x40 MSTORE POP POP POP JUMP JUMPDEST PUSH0 PUSH2 0x3E1 PUSH2 0x351 JUMP JUMPDEST SWAP1 POP PUSH2 0x3ED DUP3 DUP3 PUSH2 0x3A7 JUMP JUMPDEST SWAP2 SWAP1 POP JUMP JUMPDEST PUSH0 PUSH8 0xFFFFFFFFFFFFFFFF DUP3 GT ISZERO PUSH2 0x40C JUMPI PUSH2 0x40B PUSH2 0x37A JUMP JUMPDEST JUMPDEST PUSH2 0x415 DUP3 PUSH2 0x36A JUMP JUMPDEST SWAP1 POP PUSH1 0x20 DUP2 ADD SWAP1 POP SWAP2 SWAP1 POP JUMP JUMPDEST DUP3 DUP2 DUP4 CALLDATACOPY PUSH0 DUP4 DUP4 ADD MSTORE POP POP POP JUMP JUMPDEST PUSH0 PUSH2 0x442 PUSH2 0x43D DUP5 PUSH2 0x3F2 JUMP JUMPDEST PUSH2 0x3D8 JUMP JUMPDEST SWAP1 POP DUP3 DUP2 MSTORE PUSH1 0x20 DUP2 ADD DUP5 DUP5 DUP5 ADD GT ISZERO PUSH2 0x45E JUMPI PUSH2 0x45D PUSH2 0x366 JUMP JUMPDEST JUMPDEST PUSH2 0x469 DUP5 DUP3 DUP6 PUSH2 0x422 JUMP JUMPDEST POP SWAP4 SWAP3 POP POP POP JUMP JUMPDEST PUSH0 DUP3 PUSH1 0x1F DUP4 ADD SLT PUSH2 0x485 JUMPI PUSH2 0x484 PUSH2 0x362 JUMP JUMPDEST JUMPDEST DUP2 CALLDATALOAD PUSH2 0x495 DUP5 DUP3 PUSH1 0x20 DUP7 ADD PUSH2 0x430 JUMP JUMPDEST SWAP2 POP POP SWAP3 SWAP2 POP POP JUMP JUMPDEST PUSH0 DUP2 SWAP1 POP SWAP2 SWAP1 POP JUMP JUMPDEST PUSH2 0x4B0 DUP2 PUSH2 0x49E JUMP JUMPDEST DUP2 EQ PUSH2 0x4BA JUMPI PUSH0 DUP1 REVERT JUMPDEST POP JUMP JUMPDEST PUSH0 DUP2 CALLDATALOAD SWAP1 POP PUSH2 0x4CB DUP2 PUSH2 0x4A7 JUMP JUMPDEST SWAP3 SWAP2 POP POP JUMP JUMPDEST PUSH0 PUSH20 0xFFFFFFFFFFFFFFFFFFFFFFFFFFFFFFFFFFFFFFFF DUP3 AND SWAP1 POP SWAP2 SWAP1 POP JUMP JUMPDEST PUSH0 PUSH2 0x4FA DUP3 PUSH2 0x4D1 JUMP JUMPDEST SWAP1 POP SWAP2 SWAP1 POP JUMP JUMPDEST PUSH2 0x50A DUP2 PUSH2 0x4F0 JUMP JUMPDEST DUP2 EQ PUSH2 0x514 JUMPI PUSH0 DUP1 REVERT JUMPDEST POP JUMP JUMPDEST PUSH0 DUP2 CALLDATALOAD SWAP1 POP PUSH2 0x525 DUP2 PUSH2 0x501 JUMP JUMPDEST SWAP3 SWAP2 POP POP JUMP JUMPDEST PUSH0 DUP1 PUSH0 DUP1 PUSH1 0x80 DUP6 DUP8 SUB SLT ISZERO PUSH2 0x543 JUMPI PUSH2 0x542 PUSH2 0x35A JUMP JUMPDEST JUMPDEST PUSH0 DUP6 ADD CALLDATALOAD PUSH8 0xFFFFFFFFFFFFFFFF DUP2 GT ISZERO PUSH2 0x560 JUMPI PUSH2 0x55F PUSH2 0x35E JUMP JUMPDEST JUMPDEST PUSH2 0x56C DUP8 DUP3 DUP9 ADD PUSH2 0x471 JUMP JUMPDEST SWAP5 POP POP PUSH1 0x20 PUSH2 0x57D DUP8 DUP3 DUP9 ADD PUSH2 0x4BD JUMP JUMPDEST SWAP4 POP POP PUSH1 0x40 PUSH2 0x58E DUP8 DUP3 DUP9 ADD PUSH2 0x517 JUMP JUMPDEST SWAP3 POP POP PUSH1 0x60 DUP6 ADD CALLDATALOAD PUSH8 0xFFFFFFFFFFFFFFFF DUP2 GT ISZERO PUSH2 0x5AF JUMPI PUSH2 0x5AE PUSH2 0x35E JUMP JUMPDEST JUMPDEST PUSH2 0x5BB DUP8 DUP3 DUP9 ADD PUSH2 0x471 JUMP JUMPDEST SWAP2 POP POP SWAP3 SWAP6 SWAP2 SWAP5 POP SWAP3 POP JUMP JUMPDEST PUSH0 PUSH1 0x20 DUP3 DUP5 SUB SLT ISZERO PUSH2 0x5DC JUMPI PUSH2 0x5DB PUSH2 0x35A JUMP JUMPDEST JUMPDEST PUSH0 DUP3 ADD CALLDATALOAD PUSH8 0xFFFFFFFFFFFFFFFF DUP2 GT ISZERO PUSH2 0x5F9 JUMPI PUSH2 0x5F8 PUSH2 0x35E JUMP JUMPDEST JUMPDEST PUSH2 0x605 DUP5 DUP3 DUP6 ADD PUSH2 0x471 JUMP JUMPDEST SWAP2 POP POP SWAP3 SWAP2 POP POP JUMP JUMPDEST PUSH0 DUP2 MLOAD SWAP1 POP SWAP2 SWAP1 POP JUMP JUMPDEST PUSH0 DUP3 DUP3 MSTORE PUSH1 0x20 DUP3 ADD SWAP1 POP SWAP3 SWAP2 POP POP JUMP JUMPDEST DUP3 DUP2 DUP4 MCOPY PUSH0 DUP4 DUP4 ADD MSTORE POP POP POP JUMP JUMPDEST PUSH0 PUSH2 0x640 DUP3 PUSH2 0x60E JUMP JUMPDEST PUSH2 0x64A DUP2 DUP6 PUSH2 0x618 JUMP JUMPDEST SWAP4 POP PUSH2 0x65A DUP2 DUP6 PUSH1 0x20 DUP7 ADD PUSH2 0x628 JUMP JUMPDEST PUSH2 0x663 DUP2 PUSH2 0x36A JUMP JUMPDEST DUP5 ADD SWAP2 POP POP SWAP3 SWAP2 POP POP JUMP JUMPDEST PUSH2 0x677 DUP2 PUSH2 0x49E JUMP JUMPDEST DUP3 MSTORE POP POP JUMP JUMPDEST PUSH2 0x686 DUP2 PUSH2 0x4F0 JUMP JUMPDEST DUP3 MSTORE POP POP JUMP JUMPDEST PUSH0 PUSH1 0x80 DUP4 ADD PUSH0 DUP4 ADD MLOAD DUP5 DUP3 SUB PUSH0 DUP7 ADD MSTORE PUSH2 0x6A6 DUP3 DUP3 PUSH2 0x636 JUMP JUMPDEST SWAP2 POP POP PUSH1 0x20 DUP4 ADD MLOAD PUSH2 0x6BB PUSH1 0x20 DUP7 ADD DUP3 PUSH2 0x66E JUMP JUMPDEST POP PUSH1 0x40 DUP4 ADD MLOAD PUSH2 0x6CE PUSH1 0x40 DUP7 ADD DUP3 PUSH2 0x67D JUMP JUMPDEST POP PUSH1 0x60 DUP4 ADD MLOAD DUP5 DUP3 SUB PUSH1 0x60 DUP7 ADD MSTORE PUSH2 0x6E6 DUP3 DUP3 PUSH2 0x636 JUMP JUMPDEST SWAP2 POP POP DUP1 SWAP2 POP POP SWAP3 SWAP2 POP POP JUMP JUMPDEST PUSH0 PUSH1 0x20 DUP3 ADD SWAP1 POP DUP2 DUP2 SUB PUSH0 DUP4 ADD MSTORE PUSH2 0x70B DUP2 DUP5 PUSH2 0x68C JUMP JUMPDEST SWAP1 POP SWAP3 SWAP2 POP POP JUMP JUMPDEST PUSH0 DUP2 SWAP1 POP SWAP3 SWAP2 POP POP JUMP JUMPDEST PUSH0 PUSH2 0x727 DUP3 PUSH2 0x60E JUMP JUMPDEST PUSH2 0x731 DUP2 DUP6 PUSH2 0x713 JUMP JUMPDEST SWAP4 POP PUSH2 0x741 DUP2 DUP6 PUSH1 0x20 DUP7 ADD PUSH2 0x628 JUMP JUMPDEST DUP1 DUP5 ADD SWAP2 POP POP SWAP3 SWAP2 POP POP JUMP JUMPDEST PUSH0 PUSH2 0x758 DUP3 DUP5 PUSH2 0x71D JUMP JUMPDEST SWAP2 POP DUP2 SWAP1 POP SWAP3 SWAP2 POP POP JUMP JUMPDEST PUSH32 0x4E487B7100000000000000000000000000000000000000000000000000000000 PUSH0 MSTORE PUSH1 0x22 PUSH1 0x4 MSTORE PUSH1 0x24 PUSH0 REVERT JUMPDEST PUSH0 PUSH1 0x2 DUP3 DIV SWAP1 POP PUSH1 0x1 DUP3 AND DUP1 PUSH2 0x7A7 JUMPI PUSH1 0x7F DUP3 AND SWAP2 POP JUMPDEST PUSH1 0x20 DUP3 LT DUP2 SUB PUSH2 0x7BA JUMPI PUSH2 0x7B9 PUSH2 0x763 JUMP JUMPDEST JUMPDEST POP SWAP2 SWAP1 POP JUMP JUMPDEST PUSH0 DUP2 SWAP1 POP DUP2 PUSH0 MSTORE PUSH1 0x20 PUSH0 KECCAK256 SWAP1 POP SWAP2 SWAP1 POP JUMP JUMPDEST PUSH0 PUSH1 0x20 PUSH1 0x1F DUP4 ADD DIV SWAP1 POP SWAP2 SWAP1 POP JUMP JUMPDEST PUSH0 DUP3 DUP3 SHL SWAP1 POP SWAP3 SWAP2 POP POP JUMP JUMPDEST PUSH0 PUSH1 0x8 DUP4 MUL PUSH2 0x81C PUSH32 0xFFFFFFFFFFFFFFFFFFFFFFFFFFFFFFFFFFFFFFFFFFFFFFFFFFFFFFFFFFFFFFFF DUP3 PUSH2 0x7E1 JUMP JUMPDEST PUSH2 0x826 DUP7 DUP4 PUSH2 0x7E1 JUMP JUMPDEST SWAP6 POP DUP1 NOT DUP5 AND SWAP4 POP DUP1 DUP7 AND DUP5 OR SWAP3 POP POP POP SWAP4 SWAP3 POP POP POP JUMP JUMPDEST PUSH0 DUP2 SWAP1 POP SWAP2 SWAP1 POP JUMP JUMPDEST PUSH0 PUSH2 0x861 PUSH2 0x85C PUSH2 0x857 DUP5 PUSH2 0x49E JUMP JUMPDEST PUSH2 0x83E JUMP JUMPDEST PUSH2 0x49E JUMP JUMPDEST SWAP1 POP SWAP2 SWAP1 POP JUMP JUMPDEST PUSH0 DUP2 SWAP1 POP SWAP2 SWAP1 POP JUMP JUMPDEST PUSH2 0x87A DUP4 PUSH2 0x847 JUMP JUMPDEST PUSH2 0x88E PUSH2 0x886 DUP3 PUSH2 0x868 JUMP JUMPDEST DUP5 DUP5 SLOAD PUSH2 0x7ED JUMP JUMPDEST DUP3 SSTORE POP POP POP POP JUMP JUMPDEST PUSH0 SWAP1 JUMP JUMPDEST PUSH2 0x8A2 PUSH2 0x896 JUMP JUMPDEST PUSH2 0x8AD DUP2 DUP5 DUP5 PUSH2 0x871 JUMP JUMPDEST POP POP POP JUMP JUMPDEST JUMPDEST DUP2 DUP2 LT ISZERO PUSH2 0x8D0 JUMPI PUSH2 0x8C5 PUSH0 DUP3 PUSH2 0x89A JUMP JUMPDEST PUSH1 0x1 DUP2 ADD SWAP1 POP PUSH2 0x8B3 JUMP JUMPDEST POP POP JUMP JUMPDEST PUSH1 0x1F DUP3 GT ISZERO PUSH2 0x915 JUMPI PUSH2 0x8E6 DUP2 PUSH2 0x7C0 JUMP JUMPDEST PUSH2 0x8EF DUP5 PUSH2 0x7D2 JUMP JUMPDEST DUP2 ADD PUSH1 0x20 DUP6 LT ISZERO PUSH2 0x8FE JUMPI DUP2 SWAP1 POP JUMPDEST PUSH2 0x912 PUSH2 0x90A DUP6 PUSH2 0x7D2 JUMP JUMPDEST DUP4 ADD DUP3 PUSH2 0x8B2 JUMP JUMPDEST POP POP JUMPDEST POP POP POP JUMP JUMPDEST PUSH0 DUP3 DUP3 SHR SWAP1 POP SWAP3 SWAP2 POP POP JUMP JUMPDEST PUSH0 PUSH2 0x935 PUSH0 NOT DUP5 PUSH1 0x8 MUL PUSH2 0x91A JUMP JUMPDEST NOT DUP1 DUP4 AND SWAP2 POP POP SWAP3 SWAP2 POP POP JUMP JUMPDEST PUSH0 PUSH2 0x94D DUP4 DUP4 PUSH2 0x926 JUMP JUMPDEST SWAP2 POP DUP3 PUSH1 0x2 MUL DUP3 OR SWAP1 POP SWAP3 SWAP2 POP POP JUMP JUMPDEST PUSH2 0x966 DUP3 PUSH2 0x60E JUMP JUMPDEST PUSH8 0xFFFFFFFFFFFFFFFF DUP2 GT ISZERO PUSH2 0x97F JUMPI PUSH2 0x97E PUSH2 0x37A JUMP JUMPDEST JUMPDEST PUSH2 0x989 DUP3 SLOAD PUSH2 0x790 JUMP JUMPDEST PUSH2 0x994 DUP3 DUP3 DUP6 PUSH2 0x8D4 JUMP JUMPDEST PUSH0 PUSH1 0x20 SWAP1 POP PUSH1 0x1F DUP4 GT PUSH1 0x1 DUP2 EQ PUSH2 0x9C5 JUMPI PUSH0 DUP5 ISZERO PUSH2 0x9B3 JUMPI DUP3 DUP8 ADD MLOAD SWAP1 POP JUMPDEST PUSH2 0x9BD DUP6 DUP3 PUSH2 0x942 JUMP JUMPDEST DUP7 SSTORE POP PUSH2 0xA24 JUMP JUMPDEST PUSH1 0x1F NOT DUP5 AND PUSH2 0x9D3 DUP7 PUSH2 0x7C0 JUMP JUMPDEST PUSH0 JUMPDEST DUP3 DUP2 LT ISZERO PUSH2 0x9FA JUMPI DUP5 DUP10 ADD MLOAD DUP3 SSTORE PUSH1 0x1 DUP3 ADD SWAP2 POP PUSH1 0x20 DUP6 ADD SWAP5 POP PUSH1 0x20 DUP2 ADD SWAP1 POP PUSH2 0x9D5 JUMP JUMPDEST DUP7 DUP4 LT ISZERO PUSH2 0xA17 JUMPI DUP5 DUP10 ADD MLOAD PUSH2 0xA13 PUSH1 0x1F DUP10 AND DUP3 PUSH2 0x926 JUMP JUMPDEST DUP4 SSTORE POP JUMPDEST PUSH1 0x1 PUSH1 0x2 DUP9 MUL ADD DUP9 SSTORE POP POP POP JUMPDEST POP POP POP POP POP POP JUMP INVALID LOG2 PUSH5 0x6970667358 0x22 SLT KECCAK256 0xA8 LOG1 0xDA 0xD3 SWAP1 0x4D SLT 0xF7 PC MLOAD SWAP15 DUP4 0x2C SHL 0xBE PUSH14 0xA3A124E9C8EA8E1DA92B7B99E77E JUMPDEST DUP6 PUSH5 0x736F6C6343 STOP ADDMOD BYTE STOP CALLER "
				},
				"gasEstimates": {
					"creation": {
						"codeDepositCost": "531600",
						"executionCost": "566",
						"totalCost": "532166"
					},
					"external": {
						"addCustomer(string,uint256,address,string)": "infinite",
						"getName(string)": "infinite"
					}
				},
				"methodIdentifiers": {
					"addCustomer(string,uint256,address,string)": "452fd03c",
					"getName(string)": "6932cf81"
				}
			},
			"storageLayout": {
				"storage": [
					{
						"astId": 91,
						"contract": "solidity/solidity31~40.sol:Q33",
						"label": "customers",
						"offset": 0,
						"slot": "0",
						"type": "t_mapping(t_string_memory_ptr,t_struct(Customer)86_storage)"
					}
				],
				"types": {
					"t_address": {
						"encoding": "inplace",
						"label": "address",
						"numberOfBytes": "20"
					},
					"t_mapping(t_string_memory_ptr,t_struct(Customer)86_storage)": {
						"encoding": "mapping",
						"key": "t_string_memory_ptr",
						"label": "mapping(string => struct Q33.Customer)",
						"numberOfBytes": "32",
						"value": "t_struct(Customer)86_storage"
					},
					"t_string_memory_ptr": {
						"encoding": "bytes",
						"label": "string",
						"numberOfBytes": "32"
					},
					"t_string_storage": {
						"encoding": "bytes",
						"label": "string",
						"numberOfBytes": "32"
					},
					"t_struct(Customer)86_storage": {
						"encoding": "inplace",
						"label": "struct Q33.Customer",
						"members": [
							{
								"astId": 79,
								"contract": "solidity/solidity31~40.sol:Q33",
								"label": "name",
								"offset": 0,
								"slot": "0",
								"type": "t_string_storage"
							},
							{
								"astId": 81,
								"contract": "solidity/solidity31~40.sol:Q33",
								"label": "number",
								"offset": 0,
								"slot": "1",
								"type": "t_uint256"
							},
							{
								"astId": 83,
								"contract": "solidity/solidity31~40.sol:Q33",
								"label": "wallet",
								"offset": 0,
								"slot": "2",
								"type": "t_address"
							},
							{
								"astId": 85,
								"contract": "solidity/solidity31~40.sol:Q33",
								"label": "birthday",
								"offset": 0,
								"slot": "3",
								"type": "t_string_storage"
							}
						],
						"numberOfBytes": "128"
					},
					"t_uint256": {
						"encoding": "inplace",
						"label": "uint256",
						"numberOfBytes": "32"
					}
				}
			},
			"userdoc": {
				"kind": "user",
				"methods": {},
				"version": 1
			}
		}
	}
}