{
	"solidity/solidity31~40.sol": {
		"Q37": {
			"abi": [
				{
					"inputs": [],
					"stateMutability": "nonpayable",
					"type": "constructor"
				},
				{
					"inputs": [],
					"name": "donate1Ether",
					"outputs": [],
					"stateMutability": "payable",
					"type": "function"
				},
				{
					"inputs": [],
					"name": "donate1Finney",
					"outputs": [],
					"stateMutability": "payable",
					"type": "function"
				},
				{
					"inputs": [],
					"name": "donate1Wei",
					"outputs": [],
					"stateMutability": "payable",
					"type": "function"
				},
				{
					"inputs": [],
					"name": "owner",
					"outputs": [
						{
							"internalType": "address",
							"name": "",
							"type": "address"
						}
					],
					"stateMutability": "view",
					"type": "function"
				},
				{
					"inputs": [],
					"name": "withdraw",
					"outputs": [],
					"stateMutability": "nonpayable",
					"type": "function"
				}
			],
			"devdoc": {
				"kind": "dev",
				"methods": {},
				"version": 1
			},
			"evm": {
				"assembly": "    /* \"solidity/solidity31~40.sol\":3682:4695  contract Q37 {... */\n  mstore(0x40, 0x80)\n    /* \"solidity/solidity31~40.sol\":4130:4179  constructor() {... */\n  callvalue\n  dup1\n  iszero\n  tag_1\n  jumpi\n  0x00\n  dup1\n  revert\ntag_1:\n  pop\n    /* \"solidity/solidity31~40.sol\":4162:4172  msg.sender */\n  caller\n    /* \"solidity/solidity31~40.sol\":4154:4159  owner */\n  0x00\n  dup1\n    /* \"solidity/solidity31~40.sol\":4154:4172  owner = msg.sender */\n  0x0100\n  exp\n  dup2\n  sload\n  dup2\n  0xffffffffffffffffffffffffffffffffffffffff\n  mul\n  not\n  and\n  swap1\n  dup4\n  0xffffffffffffffffffffffffffffffffffffffff\n  and\n  mul\n  or\n  swap1\n  sstore\n  pop\n    /* \"solidity/solidity31~40.sol\":3682:4695  contract Q37 {... */\n  dataSize(sub_0)\n  dup1\n  dataOffset(sub_0)\n  0x00\n  codecopy\n  0x00\n  return\nstop\n\nsub_0: assembly {\n        /* \"solidity/solidity31~40.sol\":3682:4695  contract Q37 {... */\n      mstore(0x40, 0x80)\n      jumpi(tag_1, lt(calldatasize, 0x04))\n      shr(0xe0, calldataload(0x00))\n      dup1\n      0x3ccfd60b\n      eq\n      tag_2\n      jumpi\n      dup1\n      0x8da5cb5b\n      eq\n      tag_3\n      jumpi\n      dup1\n      0xac0583ee\n      eq\n      tag_4\n      jumpi\n      dup1\n      0xb6c564e7\n      eq\n      tag_5\n      jumpi\n      dup1\n      0xe56cdccb\n      eq\n      tag_6\n      jumpi\n    tag_1:\n      0x00\n      dup1\n      revert\n        /* \"solidity/solidity31~40.sol\":4532:4693  function withdraw() external {... */\n    tag_2:\n      callvalue\n      dup1\n      iszero\n      tag_7\n      jumpi\n      0x00\n      dup1\n      revert\n    tag_7:\n      pop\n      tag_8\n      tag_9\n      jump\t// in\n    tag_8:\n      stop\n        /* \"solidity/solidity31~40.sol\":4103:4123  address public owner */\n    tag_3:\n      callvalue\n      dup1\n      iszero\n      tag_10\n      jumpi\n      0x00\n      dup1\n      revert\n    tag_10:\n      pop\n      tag_11\n      tag_12\n      jump\t// in\n    tag_11:\n      mload(0x40)\n      tag_13\n      swap2\n      swap1\n      tag_14\n      jump\t// in\n    tag_13:\n      mload(0x40)\n      dup1\n      swap2\n      sub\n      swap1\n      return\n        /* \"solidity/solidity31~40.sol\":4297:4408  function donate1Finney() external payable {... */\n    tag_4:\n      tag_15\n      tag_16\n      jump\t// in\n    tag_15:\n      stop\n        /* \"solidity/solidity31~40.sol\":4414:4526  function donate1Ether() external payable {... */\n    tag_5:\n      tag_17\n      tag_18\n      jump\t// in\n    tag_17:\n      stop\n        /* \"solidity/solidity31~40.sol\":4185:4291  function donate1Wei() external payable {... */\n    tag_6:\n      tag_19\n      tag_20\n      jump\t// in\n    tag_19:\n      stop\n        /* \"solidity/solidity31~40.sol\":4532:4693  function withdraw() external {... */\n    tag_9:\n        /* \"solidity/solidity31~40.sol\":4593:4598  owner */\n      0x00\n      dup1\n      sload\n      swap1\n      0x0100\n      exp\n      swap1\n      div\n      0xffffffffffffffffffffffffffffffffffffffff\n      and\n        /* \"solidity/solidity31~40.sol\":4579:4598  msg.sender == owner */\n      0xffffffffffffffffffffffffffffffffffffffff\n      and\n        /* \"solidity/solidity31~40.sol\":4579:4589  msg.sender */\n      caller\n        /* \"solidity/solidity31~40.sol\":4579:4598  msg.sender == owner */\n      0xffffffffffffffffffffffffffffffffffffffff\n      and\n      eq\n        /* \"solidity/solidity31~40.sol\":4571:4630  require(msg.sender == owner, \"Only the owner can withdraw\") */\n      tag_22\n      jumpi\n      mload(0x40)\n      0x08c379a000000000000000000000000000000000000000000000000000000000\n      dup2\n      mstore\n      0x04\n      add\n      tag_23\n      swap1\n      tag_24\n      jump\t// in\n    tag_23:\n      mload(0x40)\n      dup1\n      swap2\n      sub\n      swap1\n      revert\n    tag_22:\n        /* \"solidity/solidity31~40.sol\":4648:4653  owner */\n      0x00\n      dup1\n      sload\n      swap1\n      0x0100\n      exp\n      swap1\n      div\n      0xffffffffffffffffffffffffffffffffffffffff\n      and\n        /* \"solidity/solidity31~40.sol\":4640:4663  payable(owner).transfer */\n      0xffffffffffffffffffffffffffffffffffffffff\n      and\n        /* \"solidity/solidity31~40.sol\":4640:4686  payable(owner).transfer(address(this).balance) */\n      0x08fc\n        /* \"solidity/solidity31~40.sol\":4664:4685  address(this).balance */\n      selfbalance\n        /* \"solidity/solidity31~40.sol\":4640:4686  payable(owner).transfer(address(this).balance) */\n      swap1\n      dup2\n      iszero\n      mul\n      swap1\n      mload(0x40)\n      0x00\n      mload(0x40)\n      dup1\n      dup4\n      sub\n      dup2\n      dup6\n      dup9\n      dup9\n      call\n      swap4\n      pop\n      pop\n      pop\n      pop\n      iszero\n      dup1\n      iszero\n      tag_26\n      jumpi\n      returndatasize\n      0x00\n      dup1\n      returndatacopy\n      revert(0x00, returndatasize)\n    tag_26:\n      pop\n        /* \"solidity/solidity31~40.sol\":4532:4693  function withdraw() external {... */\n      jump\t// out\n        /* \"solidity/solidity31~40.sol\":4103:4123  address public owner */\n    tag_12:\n      0x00\n      dup1\n      sload\n      swap1\n      0x0100\n      exp\n      swap1\n      div\n      0xffffffffffffffffffffffffffffffffffffffff\n      and\n      dup2\n      jump\t// out\n        /* \"solidity/solidity31~40.sol\":4297:4408  function donate1Finney() external payable {... */\n    tag_16:\n        /* \"solidity/solidity31~40.sol\":4370:4374  1e15 */\n      0x038d7ea4c68000\n        /* \"solidity/solidity31~40.sol\":4357:4366  msg.value */\n      callvalue\n        /* \"solidity/solidity31~40.sol\":4357:4374  msg.value == 1e15 */\n      eq\n        /* \"solidity/solidity31~40.sol\":4349:4401  require(msg.value == 1e15, \"You must send 1 finney\") */\n      tag_28\n      jumpi\n      mload(0x40)\n      0x08c379a000000000000000000000000000000000000000000000000000000000\n      dup2\n      mstore\n      0x04\n      add\n      tag_29\n      swap1\n      tag_30\n      jump\t// in\n    tag_29:\n      mload(0x40)\n      dup1\n      swap2\n      sub\n      swap1\n      revert\n    tag_28:\n        /* \"solidity/solidity31~40.sol\":4297:4408  function donate1Finney() external payable {... */\n      jump\t// out\n        /* \"solidity/solidity31~40.sol\":4414:4526  function donate1Ether() external payable {... */\n    tag_18:\n        /* \"solidity/solidity31~40.sol\":4486:4493  1 ether */\n      0x0de0b6b3a7640000\n        /* \"solidity/solidity31~40.sol\":4473:4482  msg.value */\n      callvalue\n        /* \"solidity/solidity31~40.sol\":4473:4493  msg.value == 1 ether */\n      eq\n        /* \"solidity/solidity31~40.sol\":4465:4519  require(msg.value == 1 ether, \"You must send 1 ether\") */\n      tag_32\n      jumpi\n      mload(0x40)\n      0x08c379a000000000000000000000000000000000000000000000000000000000\n      dup2\n      mstore\n      0x04\n      add\n      tag_33\n      swap1\n      tag_34\n      jump\t// in\n    tag_33:\n      mload(0x40)\n      dup1\n      swap2\n      sub\n      swap1\n      revert\n    tag_32:\n        /* \"solidity/solidity31~40.sol\":4414:4526  function donate1Ether() external payable {... */\n      jump\t// out\n        /* \"solidity/solidity31~40.sol\":4185:4291  function donate1Wei() external payable {... */\n    tag_20:\n        /* \"solidity/solidity31~40.sol\":4255:4260  1 wei */\n      0x01\n        /* \"solidity/solidity31~40.sol\":4242:4251  msg.value */\n      callvalue\n        /* \"solidity/solidity31~40.sol\":4242:4260  msg.value == 1 wei */\n      eq\n        /* \"solidity/solidity31~40.sol\":4234:4284  require(msg.value == 1 wei, \"You must send 1 wei\") */\n      tag_36\n      jumpi\n      mload(0x40)\n      0x08c379a000000000000000000000000000000000000000000000000000000000\n      dup2\n      mstore\n      0x04\n      add\n      tag_37\n      swap1\n      tag_38\n      jump\t// in\n    tag_37:\n      mload(0x40)\n      dup1\n      swap2\n      sub\n      swap1\n      revert\n    tag_36:\n        /* \"solidity/solidity31~40.sol\":4185:4291  function donate1Wei() external payable {... */\n      jump\t// out\n        /* \"#utility.yul\":7:133   */\n    tag_39:\n        /* \"#utility.yul\":44:51   */\n      0x00\n        /* \"#utility.yul\":84:126   */\n      0xffffffffffffffffffffffffffffffffffffffff\n        /* \"#utility.yul\":77:82   */\n      dup3\n        /* \"#utility.yul\":73:127   */\n      and\n        /* \"#utility.yul\":62:127   */\n      swap1\n      pop\n        /* \"#utility.yul\":7:133   */\n      swap2\n      swap1\n      pop\n      jump\t// out\n        /* \"#utility.yul\":139:235   */\n    tag_40:\n        /* \"#utility.yul\":176:183   */\n      0x00\n        /* \"#utility.yul\":205:229   */\n      tag_54\n        /* \"#utility.yul\":223:228   */\n      dup3\n        /* \"#utility.yul\":205:229   */\n      tag_39\n      jump\t// in\n    tag_54:\n        /* \"#utility.yul\":194:229   */\n      swap1\n      pop\n        /* \"#utility.yul\":139:235   */\n      swap2\n      swap1\n      pop\n      jump\t// out\n        /* \"#utility.yul\":241:359   */\n    tag_41:\n        /* \"#utility.yul\":328:352   */\n      tag_56\n        /* \"#utility.yul\":346:351   */\n      dup2\n        /* \"#utility.yul\":328:352   */\n      tag_40\n      jump\t// in\n    tag_56:\n        /* \"#utility.yul\":323:326   */\n      dup3\n        /* \"#utility.yul\":316:353   */\n      mstore\n        /* \"#utility.yul\":241:359   */\n      pop\n      pop\n      jump\t// out\n        /* \"#utility.yul\":365:587   */\n    tag_14:\n        /* \"#utility.yul\":458:462   */\n      0x00\n        /* \"#utility.yul\":496:498   */\n      0x20\n        /* \"#utility.yul\":485:494   */\n      dup3\n        /* \"#utility.yul\":481:499   */\n      add\n        /* \"#utility.yul\":473:499   */\n      swap1\n      pop\n        /* \"#utility.yul\":509:580   */\n      tag_58\n        /* \"#utility.yul\":577:578   */\n      0x00\n        /* \"#utility.yul\":566:575   */\n      dup4\n        /* \"#utility.yul\":562:579   */\n      add\n        /* \"#utility.yul\":553:559   */\n      dup5\n        /* \"#utility.yul\":509:580   */\n      tag_41\n      jump\t// in\n    tag_58:\n        /* \"#utility.yul\":365:587   */\n      swap3\n      swap2\n      pop\n      pop\n      jump\t// out\n        /* \"#utility.yul\":593:762   */\n    tag_42:\n        /* \"#utility.yul\":677:688   */\n      0x00\n        /* \"#utility.yul\":711:717   */\n      dup3\n        /* \"#utility.yul\":706:709   */\n      dup3\n        /* \"#utility.yul\":699:718   */\n      mstore\n        /* \"#utility.yul\":751:755   */\n      0x20\n        /* \"#utility.yul\":746:749   */\n      dup3\n        /* \"#utility.yul\":742:756   */\n      add\n        /* \"#utility.yul\":727:756   */\n      swap1\n      pop\n        /* \"#utility.yul\":593:762   */\n      swap3\n      swap2\n      pop\n      pop\n      jump\t// out\n        /* \"#utility.yul\":768:945   */\n    tag_43:\n        /* \"#utility.yul\":908:937   */\n      0x4f6e6c7920746865206f776e65722063616e2077697468647261770000000000\n        /* \"#utility.yul\":904:905   */\n      0x00\n        /* \"#utility.yul\":896:902   */\n      dup3\n        /* \"#utility.yul\":892:906   */\n      add\n        /* \"#utility.yul\":885:938   */\n      mstore\n        /* \"#utility.yul\":768:945   */\n      pop\n      jump\t// out\n        /* \"#utility.yul\":951:1317   */\n    tag_44:\n        /* \"#utility.yul\":1093:1096   */\n      0x00\n        /* \"#utility.yul\":1114:1181   */\n      tag_62\n        /* \"#utility.yul\":1178:1180   */\n      0x1b\n        /* \"#utility.yul\":1173:1176   */\n      dup4\n        /* \"#utility.yul\":1114:1181   */\n      tag_42\n      jump\t// in\n    tag_62:\n        /* \"#utility.yul\":1107:1181   */\n      swap2\n      pop\n        /* \"#utility.yul\":1190:1283   */\n      tag_63\n        /* \"#utility.yul\":1279:1282   */\n      dup3\n        /* \"#utility.yul\":1190:1283   */\n      tag_43\n      jump\t// in\n    tag_63:\n        /* \"#utility.yul\":1308:1310   */\n      0x20\n        /* \"#utility.yul\":1303:1306   */\n      dup3\n        /* \"#utility.yul\":1299:1311   */\n      add\n        /* \"#utility.yul\":1292:1311   */\n      swap1\n      pop\n        /* \"#utility.yul\":951:1317   */\n      swap2\n      swap1\n      pop\n      jump\t// out\n        /* \"#utility.yul\":1323:1742   */\n    tag_24:\n        /* \"#utility.yul\":1489:1493   */\n      0x00\n        /* \"#utility.yul\":1527:1529   */\n      0x20\n        /* \"#utility.yul\":1516:1525   */\n      dup3\n        /* \"#utility.yul\":1512:1530   */\n      add\n        /* \"#utility.yul\":1504:1530   */\n      swap1\n      pop\n        /* \"#utility.yul\":1576:1585   */\n      dup2\n        /* \"#utility.yul\":1570:1574   */\n      dup2\n        /* \"#utility.yul\":1566:1586   */\n      sub\n        /* \"#utility.yul\":1562:1563   */\n      0x00\n        /* \"#utility.yul\":1551:1560   */\n      dup4\n        /* \"#utility.yul\":1547:1564   */\n      add\n        /* \"#utility.yul\":1540:1587   */\n      mstore\n        /* \"#utility.yul\":1604:1735   */\n      tag_65\n        /* \"#utility.yul\":1730:1734   */\n      dup2\n        /* \"#utility.yul\":1604:1735   */\n      tag_44\n      jump\t// in\n    tag_65:\n        /* \"#utility.yul\":1596:1735   */\n      swap1\n      pop\n        /* \"#utility.yul\":1323:1742   */\n      swap2\n      swap1\n      pop\n      jump\t// out\n        /* \"#utility.yul\":1748:1920   */\n    tag_45:\n        /* \"#utility.yul\":1888:1912   */\n      0x596f75206d7573742073656e6420312066696e6e657900000000000000000000\n        /* \"#utility.yul\":1884:1885   */\n      0x00\n        /* \"#utility.yul\":1876:1882   */\n      dup3\n        /* \"#utility.yul\":1872:1886   */\n      add\n        /* \"#utility.yul\":1865:1913   */\n      mstore\n        /* \"#utility.yul\":1748:1920   */\n      pop\n      jump\t// out\n        /* \"#utility.yul\":1926:2292   */\n    tag_46:\n        /* \"#utility.yul\":2068:2071   */\n      0x00\n        /* \"#utility.yul\":2089:2156   */\n      tag_68\n        /* \"#utility.yul\":2153:2155   */\n      0x16\n        /* \"#utility.yul\":2148:2151   */\n      dup4\n        /* \"#utility.yul\":2089:2156   */\n      tag_42\n      jump\t// in\n    tag_68:\n        /* \"#utility.yul\":2082:2156   */\n      swap2\n      pop\n        /* \"#utility.yul\":2165:2258   */\n      tag_69\n        /* \"#utility.yul\":2254:2257   */\n      dup3\n        /* \"#utility.yul\":2165:2258   */\n      tag_45\n      jump\t// in\n    tag_69:\n        /* \"#utility.yul\":2283:2285   */\n      0x20\n        /* \"#utility.yul\":2278:2281   */\n      dup3\n        /* \"#utility.yul\":2274:2286   */\n      add\n        /* \"#utility.yul\":2267:2286   */\n      swap1\n      pop\n        /* \"#utility.yul\":1926:2292   */\n      swap2\n      swap1\n      pop\n      jump\t// out\n        /* \"#utility.yul\":2298:2717   */\n    tag_30:\n        /* \"#utility.yul\":2464:2468   */\n      0x00\n        /* \"#utility.yul\":2502:2504   */\n      0x20\n        /* \"#utility.yul\":2491:2500   */\n      dup3\n        /* \"#utility.yul\":2487:2505   */\n      add\n        /* \"#utility.yul\":2479:2505   */\n      swap1\n      pop\n        /* \"#utility.yul\":2551:2560   */\n      dup2\n        /* \"#utility.yul\":2545:2549   */\n      dup2\n        /* \"#utility.yul\":2541:2561   */\n      sub\n        /* \"#utility.yul\":2537:2538   */\n      0x00\n        /* \"#utility.yul\":2526:2535   */\n      dup4\n        /* \"#utility.yul\":2522:2539   */\n      add\n        /* \"#utility.yul\":2515:2562   */\n      mstore\n        /* \"#utility.yul\":2579:2710   */\n      tag_71\n        /* \"#utility.yul\":2705:2709   */\n      dup2\n        /* \"#utility.yul\":2579:2710   */\n      tag_46\n      jump\t// in\n    tag_71:\n        /* \"#utility.yul\":2571:2710   */\n      swap1\n      pop\n        /* \"#utility.yul\":2298:2717   */\n      swap2\n      swap1\n      pop\n      jump\t// out\n        /* \"#utility.yul\":2723:2894   */\n    tag_47:\n        /* \"#utility.yul\":2863:2886   */\n      0x596f75206d7573742073656e6420312065746865720000000000000000000000\n        /* \"#utility.yul\":2859:2860   */\n      0x00\n        /* \"#utility.yul\":2851:2857   */\n      dup3\n        /* \"#utility.yul\":2847:2861   */\n      add\n        /* \"#utility.yul\":2840:2887   */\n      mstore\n        /* \"#utility.yul\":2723:2894   */\n      pop\n      jump\t// out\n        /* \"#utility.yul\":2900:3266   */\n    tag_48:\n        /* \"#utility.yul\":3042:3045   */\n      0x00\n        /* \"#utility.yul\":3063:3130   */\n      tag_74\n        /* \"#utility.yul\":3127:3129   */\n      0x15\n        /* \"#utility.yul\":3122:3125   */\n      dup4\n        /* \"#utility.yul\":3063:3130   */\n      tag_42\n      jump\t// in\n    tag_74:\n        /* \"#utility.yul\":3056:3130   */\n      swap2\n      pop\n        /* \"#utility.yul\":3139:3232   */\n      tag_75\n        /* \"#utility.yul\":3228:3231   */\n      dup3\n        /* \"#utility.yul\":3139:3232   */\n      tag_47\n      jump\t// in\n    tag_75:\n        /* \"#utility.yul\":3257:3259   */\n      0x20\n        /* \"#utility.yul\":3252:3255   */\n      dup3\n        /* \"#utility.yul\":3248:3260   */\n      add\n        /* \"#utility.yul\":3241:3260   */\n      swap1\n      pop\n        /* \"#utility.yul\":2900:3266   */\n      swap2\n      swap1\n      pop\n      jump\t// out\n        /* \"#utility.yul\":3272:3691   */\n    tag_34:\n        /* \"#utility.yul\":3438:3442   */\n      0x00\n        /* \"#utility.yul\":3476:3478   */\n      0x20\n        /* \"#utility.yul\":3465:3474   */\n      dup3\n        /* \"#utility.yul\":3461:3479   */\n      add\n        /* \"#utility.yul\":3453:3479   */\n      swap1\n      pop\n        /* \"#utility.yul\":3525:3534   */\n      dup2\n        /* \"#utility.yul\":3519:3523   */\n      dup2\n        /* \"#utility.yul\":3515:3535   */\n      sub\n        /* \"#utility.yul\":3511:3512   */\n      0x00\n        /* \"#utility.yul\":3500:3509   */\n      dup4\n        /* \"#utility.yul\":3496:3513   */\n      add\n        /* \"#utility.yul\":3489:3536   */\n      mstore\n        /* \"#utility.yul\":3553:3684   */\n      tag_77\n        /* \"#utility.yul\":3679:3683   */\n      dup2\n        /* \"#utility.yul\":3553:3684   */\n      tag_48\n      jump\t// in\n    tag_77:\n        /* \"#utility.yul\":3545:3684   */\n      swap1\n      pop\n        /* \"#utility.yul\":3272:3691   */\n      swap2\n      swap1\n      pop\n      jump\t// out\n        /* \"#utility.yul\":3697:3866   */\n    tag_49:\n        /* \"#utility.yul\":3837:3858   */\n      0x596f75206d7573742073656e6420312077656900000000000000000000000000\n        /* \"#utility.yul\":3833:3834   */\n      0x00\n        /* \"#utility.yul\":3825:3831   */\n      dup3\n        /* \"#utility.yul\":3821:3835   */\n      add\n        /* \"#utility.yul\":3814:3859   */\n      mstore\n        /* \"#utility.yul\":3697:3866   */\n      pop\n      jump\t// out\n        /* \"#utility.yul\":3872:4238   */\n    tag_50:\n        /* \"#utility.yul\":4014:4017   */\n      0x00\n        /* \"#utility.yul\":4035:4102   */\n      tag_80\n        /* \"#utility.yul\":4099:4101   */\n      0x13\n        /* \"#utility.yul\":4094:4097   */\n      dup4\n        /* \"#utility.yul\":4035:4102   */\n      tag_42\n      jump\t// in\n    tag_80:\n        /* \"#utility.yul\":4028:4102   */\n      swap2\n      pop\n        /* \"#utility.yul\":4111:4204   */\n      tag_81\n        /* \"#utility.yul\":4200:4203   */\n      dup3\n        /* \"#utility.yul\":4111:4204   */\n      tag_49\n      jump\t// in\n    tag_81:\n        /* \"#utility.yul\":4229:4231   */\n      0x20\n        /* \"#utility.yul\":4224:4227   */\n      dup3\n        /* \"#utility.yul\":4220:4232   */\n      add\n        /* \"#utility.yul\":4213:4232   */\n      swap1\n      pop\n        /* \"#utility.yul\":3872:4238   */\n      swap2\n      swap1\n      pop\n      jump\t// out\n        /* \"#utility.yul\":4244:4663   */\n    tag_38:\n        /* \"#utility.yul\":4410:4414   */\n      0x00\n        /* \"#utility.yul\":4448:4450   */\n      0x20\n        /* \"#utility.yul\":4437:4446   */\n      dup3\n        /* \"#utility.yul\":4433:4451   */\n      add\n        /* \"#utility.yul\":4425:4451   */\n      swap1\n      pop\n        /* \"#utility.yul\":4497:4506   */\n      dup2\n        /* \"#utility.yul\":4491:4495   */\n      dup2\n        /* \"#utility.yul\":4487:4507   */\n      sub\n        /* \"#utility.yul\":4483:4484   */\n      0x00\n        /* \"#utility.yul\":4472:4481   */\n      dup4\n        /* \"#utility.yul\":4468:4485   */\n      add\n        /* \"#utility.yul\":4461:4508   */\n      mstore\n        /* \"#utility.yul\":4525:4656   */\n      tag_83\n        /* \"#utility.yul\":4651:4655   */\n      dup2\n        /* \"#utility.yul\":4525:4656   */\n      tag_50\n      jump\t// in\n    tag_83:\n        /* \"#utility.yul\":4517:4656   */\n      swap1\n      pop\n        /* \"#utility.yul\":4244:4663   */\n      swap2\n      swap1\n      pop\n      jump\t// out\n\n    auxdata: 0xa26469706673582212202607ac6f667dcf230e74ff6f6dcb5322903b10b550cf6c450f75b9aee6a7989064736f6c634300081a0033\n}\n",
				"bytecode": {
					"linkReferences": {},
					"object": "6080604052348015600e575f80fd5b50335f806101000a81548173ffffffffffffffffffffffffffffffffffffffff021916908373ffffffffffffffffffffffffffffffffffffffff1602179055506104da8061005b5f395ff3fe608060405260043610610049575f3560e01c80633ccfd60b1461004d5780638da5cb5b14610063578063ac0583ee1461008d578063b6c564e714610097578063e56cdccb146100a1575b5f80fd5b348015610058575f80fd5b506100616100ab565b005b34801561006e575f80fd5b5061007761019d565b60405161008491906102db565b60405180910390f35b6100956101c0565b005b61009f61020b565b005b6100a9610257565b005b5f8054906101000a900473ffffffffffffffffffffffffffffffffffffffff1673ffffffffffffffffffffffffffffffffffffffff163373ffffffffffffffffffffffffffffffffffffffff1614610138576040517f08c379a000000000000000000000000000000000000000000000000000000000815260040161012f9061034e565b60405180910390fd5b5f8054906101000a900473ffffffffffffffffffffffffffffffffffffffff1673ffffffffffffffffffffffffffffffffffffffff166108fc4790811502906040515f60405180830381858888f1935050505015801561019a573d5f803e3d5ffd5b50565b5f8054906101000a900473ffffffffffffffffffffffffffffffffffffffff1681565b66038d7ea4c680003414610209576040517f08c379a0000000000000000000000000000000000000000000000000000000008152600401610200906103b6565b60405180910390fd5b565b670de0b6b3a76400003414610255576040517f08c379a000000000000000000000000000000000000000000000000000000000815260040161024c9061041e565b60405180910390fd5b565b6001341461029a576040517f08c379a000000000000000000000000000000000000000000000000000000000815260040161029190610486565b60405180910390fd5b565b5f73ffffffffffffffffffffffffffffffffffffffff82169050919050565b5f6102c58261029c565b9050919050565b6102d5816102bb565b82525050565b5f6020820190506102ee5f8301846102cc565b92915050565b5f82825260208201905092915050565b7f4f6e6c7920746865206f776e65722063616e20776974686472617700000000005f82015250565b5f610338601b836102f4565b915061034382610304565b602082019050919050565b5f6020820190508181035f8301526103658161032c565b9050919050565b7f596f75206d7573742073656e6420312066696e6e6579000000000000000000005f82015250565b5f6103a06016836102f4565b91506103ab8261036c565b602082019050919050565b5f6020820190508181035f8301526103cd81610394565b9050919050565b7f596f75206d7573742073656e64203120657468657200000000000000000000005f82015250565b5f6104086015836102f4565b9150610413826103d4565b602082019050919050565b5f6020820190508181035f830152610435816103fc565b9050919050565b7f596f75206d7573742073656e64203120776569000000000000000000000000005f82015250565b5f6104706013836102f4565b915061047b8261043c565b602082019050919050565b5f6020820190508181035f83015261049d81610464565b905091905056fea26469706673582212202607ac6f667dcf230e74ff6f6dcb5322903b10b550cf6c450f75b9aee6a7989064736f6c634300081a0033",
					"opcodes": "PUSH1 0x80 PUSH1 0x40 MSTORE CALLVALUE DUP1 ISZERO PUSH1 0xE JUMPI PUSH0 DUP1 REVERT JUMPDEST POP CALLER PUSH0 DUP1 PUSH2 0x100 EXP DUP2 SLOAD DUP2 PUSH20 0xFFFFFFFFFFFFFFFFFFFFFFFFFFFFFFFFFFFFFFFF MUL NOT AND SWAP1 DUP4 PUSH20 0xFFFFFFFFFFFFFFFFFFFFFFFFFFFFFFFFFFFFFFFF AND MUL OR SWAP1 SSTORE POP PUSH2 0x4DA DUP1 PUSH2 0x5B PUSH0 CODECOPY PUSH0 RETURN INVALID PUSH1 0x80 PUSH1 0x40 MSTORE PUSH1 0x4 CALLDATASIZE LT PUSH2 0x49 JUMPI PUSH0 CALLDATALOAD PUSH1 0xE0 SHR DUP1 PUSH4 0x3CCFD60B EQ PUSH2 0x4D JUMPI DUP1 PUSH4 0x8DA5CB5B EQ PUSH2 0x63 JUMPI DUP1 PUSH4 0xAC0583EE EQ PUSH2 0x8D JUMPI DUP1 PUSH4 0xB6C564E7 EQ PUSH2 0x97 JUMPI DUP1 PUSH4 0xE56CDCCB EQ PUSH2 0xA1 JUMPI JUMPDEST PUSH0 DUP1 REVERT JUMPDEST CALLVALUE DUP1 ISZERO PUSH2 0x58 JUMPI PUSH0 DUP1 REVERT JUMPDEST POP PUSH2 0x61 PUSH2 0xAB JUMP JUMPDEST STOP JUMPDEST CALLVALUE DUP1 ISZERO PUSH2 0x6E JUMPI PUSH0 DUP1 REVERT JUMPDEST POP PUSH2 0x77 PUSH2 0x19D JUMP JUMPDEST PUSH1 0x40 MLOAD PUSH2 0x84 SWAP2 SWAP1 PUSH2 0x2DB JUMP JUMPDEST PUSH1 0x40 MLOAD DUP1 SWAP2 SUB SWAP1 RETURN JUMPDEST PUSH2 0x95 PUSH2 0x1C0 JUMP JUMPDEST STOP JUMPDEST PUSH2 0x9F PUSH2 0x20B JUMP JUMPDEST STOP JUMPDEST PUSH2 0xA9 PUSH2 0x257 JUMP JUMPDEST STOP JUMPDEST PUSH0 DUP1 SLOAD SWAP1 PUSH2 0x100 EXP SWAP1 DIV PUSH20 0xFFFFFFFFFFFFFFFFFFFFFFFFFFFFFFFFFFFFFFFF AND PUSH20 0xFFFFFFFFFFFFFFFFFFFFFFFFFFFFFFFFFFFFFFFF AND CALLER PUSH20 0xFFFFFFFFFFFFFFFFFFFFFFFFFFFFFFFFFFFFFFFF AND EQ PUSH2 0x138 JUMPI PUSH1 0x40 MLOAD PUSH32 0x8C379A000000000000000000000000000000000000000000000000000000000 DUP2 MSTORE PUSH1 0x4 ADD PUSH2 0x12F SWAP1 PUSH2 0x34E JUMP JUMPDEST PUSH1 0x40 MLOAD DUP1 SWAP2 SUB SWAP1 REVERT JUMPDEST PUSH0 DUP1 SLOAD SWAP1 PUSH2 0x100 EXP SWAP1 DIV PUSH20 0xFFFFFFFFFFFFFFFFFFFFFFFFFFFFFFFFFFFFFFFF AND PUSH20 0xFFFFFFFFFFFFFFFFFFFFFFFFFFFFFFFFFFFFFFFF AND PUSH2 0x8FC SELFBALANCE SWAP1 DUP2 ISZERO MUL SWAP1 PUSH1 0x40 MLOAD PUSH0 PUSH1 0x40 MLOAD DUP1 DUP4 SUB DUP2 DUP6 DUP9 DUP9 CALL SWAP4 POP POP POP POP ISZERO DUP1 ISZERO PUSH2 0x19A JUMPI RETURNDATASIZE PUSH0 DUP1 RETURNDATACOPY RETURNDATASIZE PUSH0 REVERT JUMPDEST POP JUMP JUMPDEST PUSH0 DUP1 SLOAD SWAP1 PUSH2 0x100 EXP SWAP1 DIV PUSH20 0xFFFFFFFFFFFFFFFFFFFFFFFFFFFFFFFFFFFFFFFF AND DUP2 JUMP JUMPDEST PUSH7 0x38D7EA4C68000 CALLVALUE EQ PUSH2 0x209 JUMPI PUSH1 0x40 MLOAD PUSH32 0x8C379A000000000000000000000000000000000000000000000000000000000 DUP2 MSTORE PUSH1 0x4 ADD PUSH2 0x200 SWAP1 PUSH2 0x3B6 JUMP JUMPDEST PUSH1 0x40 MLOAD DUP1 SWAP2 SUB SWAP1 REVERT JUMPDEST JUMP JUMPDEST PUSH8 0xDE0B6B3A7640000 CALLVALUE EQ PUSH2 0x255 JUMPI PUSH1 0x40 MLOAD PUSH32 0x8C379A000000000000000000000000000000000000000000000000000000000 DUP2 MSTORE PUSH1 0x4 ADD PUSH2 0x24C SWAP1 PUSH2 0x41E JUMP JUMPDEST PUSH1 0x40 MLOAD DUP1 SWAP2 SUB SWAP1 REVERT JUMPDEST JUMP JUMPDEST PUSH1 0x1 CALLVALUE EQ PUSH2 0x29A JUMPI PUSH1 0x40 MLOAD PUSH32 0x8C379A000000000000000000000000000000000000000000000000000000000 DUP2 MSTORE PUSH1 0x4 ADD PUSH2 0x291 SWAP1 PUSH2 0x486 JUMP JUMPDEST PUSH1 0x40 MLOAD DUP1 SWAP2 SUB SWAP1 REVERT JUMPDEST JUMP JUMPDEST PUSH0 PUSH20 0xFFFFFFFFFFFFFFFFFFFFFFFFFFFFFFFFFFFFFFFF DUP3 AND SWAP1 POP SWAP2 SWAP1 POP JUMP JUMPDEST PUSH0 PUSH2 0x2C5 DUP3 PUSH2 0x29C JUMP JUMPDEST SWAP1 POP SWAP2 SWAP1 POP JUMP JUMPDEST PUSH2 0x2D5 DUP2 PUSH2 0x2BB JUMP JUMPDEST DUP3 MSTORE POP POP JUMP JUMPDEST PUSH0 PUSH1 0x20 DUP3 ADD SWAP1 POP PUSH2 0x2EE PUSH0 DUP4 ADD DUP5 PUSH2 0x2CC JUMP JUMPDEST SWAP3 SWAP2 POP POP JUMP JUMPDEST PUSH0 DUP3 DUP3 MSTORE PUSH1 0x20 DUP3 ADD SWAP1 POP SWAP3 SWAP2 POP POP JUMP JUMPDEST PUSH32 0x4F6E6C7920746865206F776E65722063616E2077697468647261770000000000 PUSH0 DUP3 ADD MSTORE POP JUMP JUMPDEST PUSH0 PUSH2 0x338 PUSH1 0x1B DUP4 PUSH2 0x2F4 JUMP JUMPDEST SWAP2 POP PUSH2 0x343 DUP3 PUSH2 0x304 JUMP JUMPDEST PUSH1 0x20 DUP3 ADD SWAP1 POP SWAP2 SWAP1 POP JUMP JUMPDEST PUSH0 PUSH1 0x20 DUP3 ADD SWAP1 POP DUP2 DUP2 SUB PUSH0 DUP4 ADD MSTORE PUSH2 0x365 DUP2 PUSH2 0x32C JUMP JUMPDEST SWAP1 POP SWAP2 SWAP1 POP JUMP JUMPDEST PUSH32 0x596F75206D7573742073656E6420312066696E6E657900000000000000000000 PUSH0 DUP3 ADD MSTORE POP JUMP JUMPDEST PUSH0 PUSH2 0x3A0 PUSH1 0x16 DUP4 PUSH2 0x2F4 JUMP JUMPDEST SWAP2 POP PUSH2 0x3AB DUP3 PUSH2 0x36C JUMP JUMPDEST PUSH1 0x20 DUP3 ADD SWAP1 POP SWAP2 SWAP1 POP JUMP JUMPDEST PUSH0 PUSH1 0x20 DUP3 ADD SWAP1 POP DUP2 DUP2 SUB PUSH0 DUP4 ADD MSTORE PUSH2 0x3CD DUP2 PUSH2 0x394 JUMP JUMPDEST SWAP1 POP SWAP2 SWAP1 POP JUMP JUMPDEST PUSH32 0x596F75206D7573742073656E6420312065746865720000000000000000000000 PUSH0 DUP3 ADD MSTORE POP JUMP JUMPDEST PUSH0 PUSH2 0x408 PUSH1 0x15 DUP4 PUSH2 0x2F4 JUMP JUMPDEST SWAP2 POP PUSH2 0x413 DUP3 PUSH2 0x3D4 JUMP JUMPDEST PUSH1 0x20 DUP3 ADD SWAP1 POP SWAP2 SWAP1 POP JUMP JUMPDEST PUSH0 PUSH1 0x20 DUP3 ADD SWAP1 POP DUP2 DUP2 SUB PUSH0 DUP4 ADD MSTORE PUSH2 0x435 DUP2 PUSH2 0x3FC JUMP JUMPDEST SWAP1 POP SWAP2 SWAP1 POP JUMP JUMPDEST PUSH32 0x596F75206D7573742073656E6420312077656900000000000000000000000000 PUSH0 DUP3 ADD MSTORE POP JUMP JUMPDEST PUSH0 PUSH2 0x470 PUSH1 0x13 DUP4 PUSH2 0x2F4 JUMP JUMPDEST SWAP2 POP PUSH2 0x47B DUP3 PUSH2 0x43C JUMP JUMPDEST PUSH1 0x20 DUP3 ADD SWAP1 POP SWAP2 SWAP1 POP JUMP JUMPDEST PUSH0 PUSH1 0x20 DUP3 ADD SWAP1 POP DUP2 DUP2 SUB PUSH0 DUP4 ADD MSTORE PUSH2 0x49D DUP2 PUSH2 0x464 JUMP JUMPDEST SWAP1 POP SWAP2 SWAP1 POP JUMP INVALID LOG2 PUSH5 0x6970667358 0x22 SLT KECCAK256 0x26 SMOD 0xAC PUSH16 0x667DCF230E74FF6F6DCB5322903B10B5 POP 0xCF PUSH13 0x450F75B9AEE6A7989064736F6C PUSH4 0x4300081A STOP CALLER "
				},
				"gasEstimates": {
					"creation": {
						"codeDepositCost": "248400",
						"executionCost": "24550",
						"totalCost": "272950"
					},
					"external": {
						"donate1Ether()": "469",
						"donate1Finney()": "447",
						"donate1Wei()": "491",
						"owner()": "2505",
						"withdraw()": "infinite"
					}
				},
				"methodIdentifiers": {
					"donate1Ether()": "b6c564e7",
					"donate1Finney()": "ac0583ee",
					"donate1Wei()": "e56cdccb",
					"owner()": "8da5cb5b",
					"withdraw()": "3ccfd60b"
				}
			},
			"storageLayout": {
				"storage": [
					{
						"astId": 298,
						"contract": "solidity/solidity31~40.sol:Q37",
						"label": "owner",
						"offset": 0,
						"slot": "0",
						"type": "t_address"
					}
				],
				"types": {
					"t_address": {
						"encoding": "inplace",
						"label": "address",
						"numberOfBytes": "20"
					}
				}
			},
			"userdoc": {
				"kind": "user",
				"methods": {},
				"version": 1
			}
		}
	}
}