{
	"solidity/solidity31~40.sol": {
		"Q35": {
			"abi": [
				{
					"inputs": [
						{
							"internalType": "uint256",
							"name": "_number",
							"type": "uint256"
						}
					],
					"name": "addNumber",
					"outputs": [],
					"stateMutability": "nonpayable",
					"type": "function"
				},
				{
					"inputs": [],
					"name": "getElements",
					"outputs": [
						{
							"internalType": "uint256[]",
							"name": "",
							"type": "uint256[]"
						}
					],
					"stateMutability": "view",
					"type": "function"
				}
			],
			"devdoc": {
				"kind": "dev",
				"methods": {},
				"version": 1
			},
			"evm": {
				"assembly": "    /* \"solidity/solidity31~40.sol\":2546:3184  contract Q35 {... */\n  mstore(0x40, 0x80)\n  callvalue\n  dup1\n  iszero\n  tag_1\n  jumpi\n  0x00\n  dup1\n  revert\ntag_1:\n  pop\n  dataSize(sub_0)\n  dup1\n  dataOffset(sub_0)\n  0x00\n  codecopy\n  0x00\n  return\nstop\n\nsub_0: assembly {\n        /* \"solidity/solidity31~40.sol\":2546:3184  contract Q35 {... */\n      mstore(0x40, 0x80)\n      callvalue\n      dup1\n      iszero\n      tag_1\n      jumpi\n      0x00\n      dup1\n      revert\n    tag_1:\n      pop\n      jumpi(tag_2, lt(calldatasize, 0x04))\n      shr(0xe0, calldataload(0x00))\n      dup1\n      0xb1a18cc7\n      eq\n      tag_3\n      jumpi\n      dup1\n      0xfce68023\n      eq\n      tag_4\n      jumpi\n    tag_2:\n      0x00\n      dup1\n      revert\n        /* \"solidity/solidity31~40.sol\":2891:3182  function getElements() public view returns (uint[] memory) {... */\n    tag_3:\n      tag_5\n      tag_6\n      jump\t// in\n    tag_5:\n      mload(0x40)\n      tag_7\n      swap2\n      swap1\n      tag_8\n      jump\t// in\n    tag_7:\n      mload(0x40)\n      dup1\n      swap2\n      sub\n      swap1\n      return\n        /* \"solidity/solidity31~40.sol\":2807:2885  function addNumber(uint _number) public {... */\n    tag_4:\n      tag_9\n      0x04\n      dup1\n      calldatasize\n      sub\n      dup2\n      add\n      swap1\n      tag_10\n      swap2\n      swap1\n      tag_11\n      jump\t// in\n    tag_10:\n      tag_12\n      jump\t// in\n    tag_9:\n      stop\n        /* \"solidity/solidity31~40.sol\":2891:3182  function getElements() public view returns (uint[] memory) {... */\n    tag_6:\n        /* \"solidity/solidity31~40.sol\":2935:2948  uint[] memory */\n      0x60\n        /* \"solidity/solidity31~40.sol\":2964:2974  uint count */\n      0x00\n        /* \"solidity/solidity31~40.sol\":3000:3001  2 */\n      0x02\n        /* \"solidity/solidity31~40.sol\":2995:2996  1 */\n      0x01\n        /* \"solidity/solidity31~40.sol\":2978:2985  numbers */\n      0x00\n        /* \"solidity/solidity31~40.sol\":2978:2992  numbers.length */\n      dup1\n      sload\n      swap1\n      pop\n        /* \"solidity/solidity31~40.sol\":2978:2996  numbers.length + 1 */\n      tag_14\n      swap2\n      swap1\n      tag_15\n      jump\t// in\n    tag_14:\n        /* \"solidity/solidity31~40.sol\":2977:3001  (numbers.length + 1) / 2 */\n      tag_16\n      swap2\n      swap1\n      tag_17\n      jump\t// in\n    tag_16:\n        /* \"solidity/solidity31~40.sol\":2964:3001  uint count = (numbers.length + 1) / 2 */\n      swap1\n      pop\n        /* \"solidity/solidity31~40.sol\":3011:3033  uint[] memory Elements */\n      0x00\n        /* \"solidity/solidity31~40.sol\":3047:3052  count */\n      dup2\n        /* \"solidity/solidity31~40.sol\":3036:3053  new uint[](count) */\n      0xffffffffffffffff\n      dup2\n      gt\n      iszero\n      tag_18\n      jumpi\n      tag_19\n      tag_20\n      jump\t// in\n    tag_19:\n    tag_18:\n      mload(0x40)\n      swap1\n      dup1\n      dup3\n      mstore\n      dup1\n      0x20\n      mul\n      0x20\n      add\n      dup3\n      add\n      0x40\n      mstore\n      dup1\n      iszero\n      tag_21\n      jumpi\n      dup2\n      0x20\n      add\n      0x20\n      dup3\n      mul\n      dup1\n      calldatasize\n      dup4\n      calldatacopy\n      dup1\n      dup3\n      add\n      swap2\n      pop\n      pop\n      swap1\n      pop\n    tag_21:\n      pop\n        /* \"solidity/solidity31~40.sol\":3011:3053  uint[] memory Elements = new uint[](count) */\n      swap1\n      pop\n        /* \"solidity/solidity31~40.sol\":3069:3075  uint i */\n      0x00\n        /* \"solidity/solidity31~40.sol\":3064:3150  for (uint i = 0; i < count; i++) {... */\n    tag_22:\n        /* \"solidity/solidity31~40.sol\":3085:3090  count */\n      dup3\n        /* \"solidity/solidity31~40.sol\":3081:3082  i */\n      dup2\n        /* \"solidity/solidity31~40.sol\":3081:3090  i < count */\n      lt\n        /* \"solidity/solidity31~40.sol\":3064:3150  for (uint i = 0; i < count; i++) {... */\n      iszero\n      tag_23\n      jumpi\n        /* \"solidity/solidity31~40.sol\":3125:3132  numbers */\n      0x00\n        /* \"solidity/solidity31~40.sol\":3137:3138  2 */\n      0x02\n        /* \"solidity/solidity31~40.sol\":3133:3134  i */\n      dup3\n        /* \"solidity/solidity31~40.sol\":3133:3138  i * 2 */\n      tag_25\n      swap2\n      swap1\n      tag_26\n      jump\t// in\n    tag_25:\n        /* \"solidity/solidity31~40.sol\":3125:3139  numbers[i * 2] */\n      dup2\n      sload\n      dup2\n      lt\n      tag_27\n      jumpi\n      tag_28\n      tag_29\n      jump\t// in\n    tag_28:\n    tag_27:\n      swap1\n      0x00\n      mstore\n      keccak256(0x00, 0x20)\n      add\n      sload\n        /* \"solidity/solidity31~40.sol\":3111:3119  Elements */\n      dup3\n        /* \"solidity/solidity31~40.sol\":3120:3121  i */\n      dup3\n        /* \"solidity/solidity31~40.sol\":3111:3122  Elements[i] */\n      dup2\n      mload\n      dup2\n      lt\n      tag_31\n      jumpi\n      tag_32\n      tag_29\n      jump\t// in\n    tag_32:\n    tag_31:\n      0x20\n      mul\n      0x20\n      add\n      add\n        /* \"solidity/solidity31~40.sol\":3111:3139  Elements[i] = numbers[i * 2] */\n      dup2\n      dup2\n      mstore\n      pop\n      pop\n        /* \"solidity/solidity31~40.sol\":3092:3095  i++ */\n      dup1\n      dup1\n      0x01\n      add\n      swap2\n      pop\n      pop\n        /* \"solidity/solidity31~40.sol\":3064:3150  for (uint i = 0; i < count; i++) {... */\n      jump(tag_22)\n    tag_23:\n      pop\n        /* \"solidity/solidity31~40.sol\":3167:3175  Elements */\n      dup1\n        /* \"solidity/solidity31~40.sol\":3160:3175  return Elements */\n      swap3\n      pop\n      pop\n      pop\n        /* \"solidity/solidity31~40.sol\":2891:3182  function getElements() public view returns (uint[] memory) {... */\n      swap1\n      jump\t// out\n        /* \"solidity/solidity31~40.sol\":2807:2885  function addNumber(uint _number) public {... */\n    tag_12:\n        /* \"solidity/solidity31~40.sol\":2857:2864  numbers */\n      0x00\n        /* \"solidity/solidity31~40.sol\":2870:2877  _number */\n      dup2\n        /* \"solidity/solidity31~40.sol\":2857:2878  numbers.push(_number) */\n      swap1\n      dup1\n      0x01\n      dup2\n      sload\n      add\n      dup1\n      dup3\n      sstore\n      dup1\n      swap2\n      pop\n      pop\n      0x01\n      swap1\n      sub\n      swap1\n      0x00\n      mstore\n      keccak256(0x00, 0x20)\n      add\n      0x00\n      swap1\n      swap2\n      swap1\n      swap2\n      swap1\n      swap2\n      pop\n      sstore\n        /* \"solidity/solidity31~40.sol\":2807:2885  function addNumber(uint _number) public {... */\n      pop\n      jump\t// out\n        /* \"#utility.yul\":7:121   */\n    tag_35:\n        /* \"#utility.yul\":74:80   */\n      0x00\n        /* \"#utility.yul\":108:113   */\n      dup2\n        /* \"#utility.yul\":102:114   */\n      mload\n        /* \"#utility.yul\":92:114   */\n      swap1\n      pop\n        /* \"#utility.yul\":7:121   */\n      swap2\n      swap1\n      pop\n      jump\t// out\n        /* \"#utility.yul\":127:311   */\n    tag_36:\n        /* \"#utility.yul\":226:237   */\n      0x00\n        /* \"#utility.yul\":260:266   */\n      dup3\n        /* \"#utility.yul\":255:258   */\n      dup3\n        /* \"#utility.yul\":248:267   */\n      mstore\n        /* \"#utility.yul\":300:304   */\n      0x20\n        /* \"#utility.yul\":295:298   */\n      dup3\n        /* \"#utility.yul\":291:305   */\n      add\n        /* \"#utility.yul\":276:305   */\n      swap1\n      pop\n        /* \"#utility.yul\":127:311   */\n      swap3\n      swap2\n      pop\n      pop\n      jump\t// out\n        /* \"#utility.yul\":317:449   */\n    tag_37:\n        /* \"#utility.yul\":384:388   */\n      0x00\n        /* \"#utility.yul\":407:410   */\n      dup2\n        /* \"#utility.yul\":399:410   */\n      swap1\n      pop\n        /* \"#utility.yul\":437:441   */\n      0x20\n        /* \"#utility.yul\":432:435   */\n      dup3\n        /* \"#utility.yul\":428:442   */\n      add\n        /* \"#utility.yul\":420:442   */\n      swap1\n      pop\n        /* \"#utility.yul\":317:449   */\n      swap2\n      swap1\n      pop\n      jump\t// out\n        /* \"#utility.yul\":455:532   */\n    tag_38:\n        /* \"#utility.yul\":492:499   */\n      0x00\n        /* \"#utility.yul\":521:526   */\n      dup2\n        /* \"#utility.yul\":510:526   */\n      swap1\n      pop\n        /* \"#utility.yul\":455:532   */\n      swap2\n      swap1\n      pop\n      jump\t// out\n        /* \"#utility.yul\":538:646   */\n    tag_39:\n        /* \"#utility.yul\":615:639   */\n      tag_56\n        /* \"#utility.yul\":633:638   */\n      dup2\n        /* \"#utility.yul\":615:639   */\n      tag_38\n      jump\t// in\n    tag_56:\n        /* \"#utility.yul\":610:613   */\n      dup3\n        /* \"#utility.yul\":603:640   */\n      mstore\n        /* \"#utility.yul\":538:646   */\n      pop\n      pop\n      jump\t// out\n        /* \"#utility.yul\":652:831   */\n    tag_40:\n        /* \"#utility.yul\":721:731   */\n      0x00\n        /* \"#utility.yul\":742:788   */\n      tag_58\n        /* \"#utility.yul\":784:787   */\n      dup4\n        /* \"#utility.yul\":776:782   */\n      dup4\n        /* \"#utility.yul\":742:788   */\n      tag_39\n      jump\t// in\n    tag_58:\n        /* \"#utility.yul\":820:824   */\n      0x20\n        /* \"#utility.yul\":815:818   */\n      dup4\n        /* \"#utility.yul\":811:825   */\n      add\n        /* \"#utility.yul\":797:825   */\n      swap1\n      pop\n        /* \"#utility.yul\":652:831   */\n      swap3\n      swap2\n      pop\n      pop\n      jump\t// out\n        /* \"#utility.yul\":837:950   */\n    tag_41:\n        /* \"#utility.yul\":907:911   */\n      0x00\n        /* \"#utility.yul\":939:943   */\n      0x20\n        /* \"#utility.yul\":934:937   */\n      dup3\n        /* \"#utility.yul\":930:944   */\n      add\n        /* \"#utility.yul\":922:944   */\n      swap1\n      pop\n        /* \"#utility.yul\":837:950   */\n      swap2\n      swap1\n      pop\n      jump\t// out\n        /* \"#utility.yul\":986:1718   */\n    tag_42:\n        /* \"#utility.yul\":1105:1108   */\n      0x00\n        /* \"#utility.yul\":1134:1188   */\n      tag_61\n        /* \"#utility.yul\":1182:1187   */\n      dup3\n        /* \"#utility.yul\":1134:1188   */\n      tag_35\n      jump\t// in\n    tag_61:\n        /* \"#utility.yul\":1204:1290   */\n      tag_62\n        /* \"#utility.yul\":1283:1289   */\n      dup2\n        /* \"#utility.yul\":1278:1281   */\n      dup6\n        /* \"#utility.yul\":1204:1290   */\n      tag_36\n      jump\t// in\n    tag_62:\n        /* \"#utility.yul\":1197:1290   */\n      swap4\n      pop\n        /* \"#utility.yul\":1314:1370   */\n      tag_63\n        /* \"#utility.yul\":1364:1369   */\n      dup4\n        /* \"#utility.yul\":1314:1370   */\n      tag_37\n      jump\t// in\n    tag_63:\n        /* \"#utility.yul\":1393:1400   */\n      dup1\n        /* \"#utility.yul\":1424:1425   */\n      0x00\n        /* \"#utility.yul\":1409:1693   */\n    tag_64:\n        /* \"#utility.yul\":1434:1440   */\n      dup4\n        /* \"#utility.yul\":1431:1432   */\n      dup2\n        /* \"#utility.yul\":1428:1441   */\n      lt\n        /* \"#utility.yul\":1409:1693   */\n      iszero\n      tag_66\n      jumpi\n        /* \"#utility.yul\":1510:1516   */\n      dup2\n        /* \"#utility.yul\":1504:1517   */\n      mload\n        /* \"#utility.yul\":1537:1600   */\n      tag_67\n        /* \"#utility.yul\":1596:1599   */\n      dup9\n        /* \"#utility.yul\":1581:1594   */\n      dup3\n        /* \"#utility.yul\":1537:1600   */\n      tag_40\n      jump\t// in\n    tag_67:\n        /* \"#utility.yul\":1530:1600   */\n      swap8\n      pop\n        /* \"#utility.yul\":1623:1683   */\n      tag_68\n        /* \"#utility.yul\":1676:1682   */\n      dup4\n        /* \"#utility.yul\":1623:1683   */\n      tag_41\n      jump\t// in\n    tag_68:\n        /* \"#utility.yul\":1613:1683   */\n      swap3\n      pop\n        /* \"#utility.yul\":1469:1693   */\n      pop\n        /* \"#utility.yul\":1456:1457   */\n      0x01\n        /* \"#utility.yul\":1453:1454   */\n      dup2\n        /* \"#utility.yul\":1449:1458   */\n      add\n        /* \"#utility.yul\":1444:1458   */\n      swap1\n      pop\n        /* \"#utility.yul\":1409:1693   */\n      jump(tag_64)\n    tag_66:\n        /* \"#utility.yul\":1413:1427   */\n      pop\n        /* \"#utility.yul\":1709:1712   */\n      dup6\n        /* \"#utility.yul\":1702:1712   */\n      swap4\n      pop\n        /* \"#utility.yul\":1110:1718   */\n      pop\n      pop\n      pop\n        /* \"#utility.yul\":986:1718   */\n      swap3\n      swap2\n      pop\n      pop\n      jump\t// out\n        /* \"#utility.yul\":1724:2097   */\n    tag_8:\n        /* \"#utility.yul\":1867:1871   */\n      0x00\n        /* \"#utility.yul\":1905:1907   */\n      0x20\n        /* \"#utility.yul\":1894:1903   */\n      dup3\n        /* \"#utility.yul\":1890:1908   */\n      add\n        /* \"#utility.yul\":1882:1908   */\n      swap1\n      pop\n        /* \"#utility.yul\":1954:1963   */\n      dup2\n        /* \"#utility.yul\":1948:1952   */\n      dup2\n        /* \"#utility.yul\":1944:1964   */\n      sub\n        /* \"#utility.yul\":1940:1941   */\n      0x00\n        /* \"#utility.yul\":1929:1938   */\n      dup4\n        /* \"#utility.yul\":1925:1942   */\n      add\n        /* \"#utility.yul\":1918:1965   */\n      mstore\n        /* \"#utility.yul\":1982:2090   */\n      tag_70\n        /* \"#utility.yul\":2085:2089   */\n      dup2\n        /* \"#utility.yul\":2076:2082   */\n      dup5\n        /* \"#utility.yul\":1982:2090   */\n      tag_42\n      jump\t// in\n    tag_70:\n        /* \"#utility.yul\":1974:2090   */\n      swap1\n      pop\n        /* \"#utility.yul\":1724:2097   */\n      swap3\n      swap2\n      pop\n      pop\n      jump\t// out\n        /* \"#utility.yul\":2184:2301   */\n    tag_44:\n        /* \"#utility.yul\":2293:2294   */\n      0x00\n        /* \"#utility.yul\":2290:2291   */\n      dup1\n        /* \"#utility.yul\":2283:2295   */\n      revert\n        /* \"#utility.yul\":2430:2552   */\n    tag_46:\n        /* \"#utility.yul\":2503:2527   */\n      tag_75\n        /* \"#utility.yul\":2521:2526   */\n      dup2\n        /* \"#utility.yul\":2503:2527   */\n      tag_38\n      jump\t// in\n    tag_75:\n        /* \"#utility.yul\":2496:2501   */\n      dup2\n        /* \"#utility.yul\":2493:2528   */\n      eq\n        /* \"#utility.yul\":2483:2546   */\n      tag_76\n      jumpi\n        /* \"#utility.yul\":2542:2543   */\n      0x00\n        /* \"#utility.yul\":2539:2540   */\n      dup1\n        /* \"#utility.yul\":2532:2544   */\n      revert\n        /* \"#utility.yul\":2483:2546   */\n    tag_76:\n        /* \"#utility.yul\":2430:2552   */\n      pop\n      jump\t// out\n        /* \"#utility.yul\":2558:2697   */\n    tag_47:\n        /* \"#utility.yul\":2604:2609   */\n      0x00\n        /* \"#utility.yul\":2642:2648   */\n      dup2\n        /* \"#utility.yul\":2629:2649   */\n      calldataload\n        /* \"#utility.yul\":2620:2649   */\n      swap1\n      pop\n        /* \"#utility.yul\":2658:2691   */\n      tag_78\n        /* \"#utility.yul\":2685:2690   */\n      dup2\n        /* \"#utility.yul\":2658:2691   */\n      tag_46\n      jump\t// in\n    tag_78:\n        /* \"#utility.yul\":2558:2697   */\n      swap3\n      swap2\n      pop\n      pop\n      jump\t// out\n        /* \"#utility.yul\":2703:3032   */\n    tag_11:\n        /* \"#utility.yul\":2762:2768   */\n      0x00\n        /* \"#utility.yul\":2811:2813   */\n      0x20\n        /* \"#utility.yul\":2799:2808   */\n      dup3\n        /* \"#utility.yul\":2790:2797   */\n      dup5\n        /* \"#utility.yul\":2786:2809   */\n      sub\n        /* \"#utility.yul\":2782:2814   */\n      slt\n        /* \"#utility.yul\":2779:2898   */\n      iszero\n      tag_80\n      jumpi\n        /* \"#utility.yul\":2817:2896   */\n      tag_81\n      tag_44\n      jump\t// in\n    tag_81:\n        /* \"#utility.yul\":2779:2898   */\n    tag_80:\n        /* \"#utility.yul\":2937:2938   */\n      0x00\n        /* \"#utility.yul\":2962:3015   */\n      tag_82\n        /* \"#utility.yul\":3007:3014   */\n      dup5\n        /* \"#utility.yul\":2998:3004   */\n      dup3\n        /* \"#utility.yul\":2987:2996   */\n      dup6\n        /* \"#utility.yul\":2983:3005   */\n      add\n        /* \"#utility.yul\":2962:3015   */\n      tag_47\n      jump\t// in\n    tag_82:\n        /* \"#utility.yul\":2952:3015   */\n      swap2\n      pop\n        /* \"#utility.yul\":2908:3025   */\n      pop\n        /* \"#utility.yul\":2703:3032   */\n      swap3\n      swap2\n      pop\n      pop\n      jump\t// out\n        /* \"#utility.yul\":3038:3218   */\n    tag_48:\n        /* \"#utility.yul\":3086:3163   */\n      0x4e487b7100000000000000000000000000000000000000000000000000000000\n        /* \"#utility.yul\":3083:3084   */\n      0x00\n        /* \"#utility.yul\":3076:3164   */\n      mstore\n        /* \"#utility.yul\":3183:3187   */\n      0x11\n        /* \"#utility.yul\":3180:3181   */\n      0x04\n        /* \"#utility.yul\":3173:3188   */\n      mstore\n        /* \"#utility.yul\":3207:3211   */\n      0x24\n        /* \"#utility.yul\":3204:3205   */\n      0x00\n        /* \"#utility.yul\":3197:3212   */\n      revert\n        /* \"#utility.yul\":3224:3415   */\n    tag_15:\n        /* \"#utility.yul\":3264:3267   */\n      0x00\n        /* \"#utility.yul\":3283:3303   */\n      tag_85\n        /* \"#utility.yul\":3301:3302   */\n      dup3\n        /* \"#utility.yul\":3283:3303   */\n      tag_38\n      jump\t// in\n    tag_85:\n        /* \"#utility.yul\":3278:3303   */\n      swap2\n      pop\n        /* \"#utility.yul\":3317:3337   */\n      tag_86\n        /* \"#utility.yul\":3335:3336   */\n      dup4\n        /* \"#utility.yul\":3317:3337   */\n      tag_38\n      jump\t// in\n    tag_86:\n        /* \"#utility.yul\":3312:3337   */\n      swap3\n      pop\n        /* \"#utility.yul\":3360:3361   */\n      dup3\n        /* \"#utility.yul\":3357:3358   */\n      dup3\n        /* \"#utility.yul\":3353:3362   */\n      add\n        /* \"#utility.yul\":3346:3362   */\n      swap1\n      pop\n        /* \"#utility.yul\":3381:3384   */\n      dup1\n        /* \"#utility.yul\":3378:3379   */\n      dup3\n        /* \"#utility.yul\":3375:3385   */\n      gt\n        /* \"#utility.yul\":3372:3408   */\n      iszero\n      tag_87\n      jumpi\n        /* \"#utility.yul\":3388:3406   */\n      tag_88\n      tag_48\n      jump\t// in\n    tag_88:\n        /* \"#utility.yul\":3372:3408   */\n    tag_87:\n        /* \"#utility.yul\":3224:3415   */\n      swap3\n      swap2\n      pop\n      pop\n      jump\t// out\n        /* \"#utility.yul\":3421:3601   */\n    tag_49:\n        /* \"#utility.yul\":3469:3546   */\n      0x4e487b7100000000000000000000000000000000000000000000000000000000\n        /* \"#utility.yul\":3466:3467   */\n      0x00\n        /* \"#utility.yul\":3459:3547   */\n      mstore\n        /* \"#utility.yul\":3566:3570   */\n      0x12\n        /* \"#utility.yul\":3563:3564   */\n      0x04\n        /* \"#utility.yul\":3556:3571   */\n      mstore\n        /* \"#utility.yul\":3590:3594   */\n      0x24\n        /* \"#utility.yul\":3587:3588   */\n      0x00\n        /* \"#utility.yul\":3580:3595   */\n      revert\n        /* \"#utility.yul\":3607:3792   */\n    tag_17:\n        /* \"#utility.yul\":3647:3648   */\n      0x00\n        /* \"#utility.yul\":3664:3684   */\n      tag_91\n        /* \"#utility.yul\":3682:3683   */\n      dup3\n        /* \"#utility.yul\":3664:3684   */\n      tag_38\n      jump\t// in\n    tag_91:\n        /* \"#utility.yul\":3659:3684   */\n      swap2\n      pop\n        /* \"#utility.yul\":3698:3718   */\n      tag_92\n        /* \"#utility.yul\":3716:3717   */\n      dup4\n        /* \"#utility.yul\":3698:3718   */\n      tag_38\n      jump\t// in\n    tag_92:\n        /* \"#utility.yul\":3693:3718   */\n      swap3\n      pop\n        /* \"#utility.yul\":3737:3738   */\n      dup3\n        /* \"#utility.yul\":3727:3762   */\n      tag_93\n      jumpi\n        /* \"#utility.yul\":3742:3760   */\n      tag_94\n      tag_49\n      jump\t// in\n    tag_94:\n        /* \"#utility.yul\":3727:3762   */\n    tag_93:\n        /* \"#utility.yul\":3784:3785   */\n      dup3\n        /* \"#utility.yul\":3781:3782   */\n      dup3\n        /* \"#utility.yul\":3777:3786   */\n      div\n        /* \"#utility.yul\":3772:3786   */\n      swap1\n      pop\n        /* \"#utility.yul\":3607:3792   */\n      swap3\n      swap2\n      pop\n      pop\n      jump\t// out\n        /* \"#utility.yul\":3798:3978   */\n    tag_20:\n        /* \"#utility.yul\":3846:3923   */\n      0x4e487b7100000000000000000000000000000000000000000000000000000000\n        /* \"#utility.yul\":3843:3844   */\n      0x00\n        /* \"#utility.yul\":3836:3924   */\n      mstore\n        /* \"#utility.yul\":3943:3947   */\n      0x41\n        /* \"#utility.yul\":3940:3941   */\n      0x04\n        /* \"#utility.yul\":3933:3948   */\n      mstore\n        /* \"#utility.yul\":3967:3971   */\n      0x24\n        /* \"#utility.yul\":3964:3965   */\n      0x00\n        /* \"#utility.yul\":3957:3972   */\n      revert\n        /* \"#utility.yul\":3984:4394   */\n    tag_26:\n        /* \"#utility.yul\":4024:4031   */\n      0x00\n        /* \"#utility.yul\":4047:4067   */\n      tag_97\n        /* \"#utility.yul\":4065:4066   */\n      dup3\n        /* \"#utility.yul\":4047:4067   */\n      tag_38\n      jump\t// in\n    tag_97:\n        /* \"#utility.yul\":4042:4067   */\n      swap2\n      pop\n        /* \"#utility.yul\":4081:4101   */\n      tag_98\n        /* \"#utility.yul\":4099:4100   */\n      dup4\n        /* \"#utility.yul\":4081:4101   */\n      tag_38\n      jump\t// in\n    tag_98:\n        /* \"#utility.yul\":4076:4101   */\n      swap3\n      pop\n        /* \"#utility.yul\":4136:4137   */\n      dup3\n        /* \"#utility.yul\":4133:4134   */\n      dup3\n        /* \"#utility.yul\":4129:4138   */\n      mul\n        /* \"#utility.yul\":4158:4188   */\n      tag_99\n        /* \"#utility.yul\":4176:4187   */\n      dup2\n        /* \"#utility.yul\":4158:4188   */\n      tag_38\n      jump\t// in\n    tag_99:\n        /* \"#utility.yul\":4147:4188   */\n      swap2\n      pop\n        /* \"#utility.yul\":4337:4338   */\n      dup3\n        /* \"#utility.yul\":4328:4335   */\n      dup3\n        /* \"#utility.yul\":4324:4339   */\n      div\n        /* \"#utility.yul\":4321:4322   */\n      dup5\n        /* \"#utility.yul\":4318:4340   */\n      eq\n        /* \"#utility.yul\":4298:4299   */\n      dup4\n        /* \"#utility.yul\":4291:4300   */\n      iszero\n        /* \"#utility.yul\":4271:4354   */\n      or\n        /* \"#utility.yul\":4248:4387   */\n      tag_100\n      jumpi\n        /* \"#utility.yul\":4367:4385   */\n      tag_101\n      tag_48\n      jump\t// in\n    tag_101:\n        /* \"#utility.yul\":4248:4387   */\n    tag_100:\n        /* \"#utility.yul\":4032:4394   */\n      pop\n        /* \"#utility.yul\":3984:4394   */\n      swap3\n      swap2\n      pop\n      pop\n      jump\t// out\n        /* \"#utility.yul\":4400:4580   */\n    tag_29:\n        /* \"#utility.yul\":4448:4525   */\n      0x4e487b7100000000000000000000000000000000000000000000000000000000\n        /* \"#utility.yul\":4445:4446   */\n      0x00\n        /* \"#utility.yul\":4438:4526   */\n      mstore\n        /* \"#utility.yul\":4545:4549   */\n      0x32\n        /* \"#utility.yul\":4542:4543   */\n      0x04\n        /* \"#utility.yul\":4535:4550   */\n      mstore\n        /* \"#utility.yul\":4569:4573   */\n      0x24\n        /* \"#utility.yul\":4566:4567   */\n      0x00\n        /* \"#utility.yul\":4559:4574   */\n      revert\n\n    auxdata: 0xa2646970667358221220ae0ae0c67e315ee80fe3482a5bb0e235b79ab4ba21148c4ee0c382d074889ce864736f6c634300081a0033\n}\n",
				"bytecode": {
					"linkReferences": {},
					"object": "6080604052348015600e575f80fd5b506104368061001c5f395ff3fe608060405234801561000f575f80fd5b5060043610610034575f3560e01c8063b1a18cc714610038578063fce6802314610056575b5f80fd5b610040610072565b60405161004d919061022f565b60405180910390f35b610070600480360381019061006b919061027d565b610147565b005b60605f600260015f8054905061008891906102d5565b6100929190610335565b90505f8167ffffffffffffffff8111156100af576100ae610365565b5b6040519080825280602002602001820160405280156100dd5781602001602082028036833780820191505090505b5090505f5b8281101561013e575f6002826100f89190610392565b81548110610109576101086103d3565b5b905f5260205f200154828281518110610125576101246103d3565b5b60200260200101818152505080806001019150506100e2565b50809250505090565b5f81908060018154018082558091505060019003905f5260205f20015f909190919091505550565b5f81519050919050565b5f82825260208201905092915050565b5f819050602082019050919050565b5f819050919050565b6101aa81610198565b82525050565b5f6101bb83836101a1565b60208301905092915050565b5f602082019050919050565b5f6101dd8261016f565b6101e78185610179565b93506101f283610189565b805f5b8381101561022257815161020988826101b0565b9750610214836101c7565b9250506001810190506101f5565b5085935050505092915050565b5f6020820190508181035f83015261024781846101d3565b905092915050565b5f80fd5b61025c81610198565b8114610266575f80fd5b50565b5f8135905061027781610253565b92915050565b5f602082840312156102925761029161024f565b5b5f61029f84828501610269565b91505092915050565b7f4e487b71000000000000000000000000000000000000000000000000000000005f52601160045260245ffd5b5f6102df82610198565b91506102ea83610198565b9250828201905080821115610302576103016102a8565b5b92915050565b7f4e487b71000000000000000000000000000000000000000000000000000000005f52601260045260245ffd5b5f61033f82610198565b915061034a83610198565b92508261035a57610359610308565b5b828204905092915050565b7f4e487b71000000000000000000000000000000000000000000000000000000005f52604160045260245ffd5b5f61039c82610198565b91506103a783610198565b92508282026103b581610198565b915082820484148315176103cc576103cb6102a8565b5b5092915050565b7f4e487b71000000000000000000000000000000000000000000000000000000005f52603260045260245ffdfea2646970667358221220ae0ae0c67e315ee80fe3482a5bb0e235b79ab4ba21148c4ee0c382d074889ce864736f6c634300081a0033",
					"opcodes": "PUSH1 0x80 PUSH1 0x40 MSTORE CALLVALUE DUP1 ISZERO PUSH1 0xE JUMPI PUSH0 DUP1 REVERT JUMPDEST POP PUSH2 0x436 DUP1 PUSH2 0x1C PUSH0 CODECOPY PUSH0 RETURN INVALID PUSH1 0x80 PUSH1 0x40 MSTORE CALLVALUE DUP1 ISZERO PUSH2 0xF JUMPI PUSH0 DUP1 REVERT JUMPDEST POP PUSH1 0x4 CALLDATASIZE LT PUSH2 0x34 JUMPI PUSH0 CALLDATALOAD PUSH1 0xE0 SHR DUP1 PUSH4 0xB1A18CC7 EQ PUSH2 0x38 JUMPI DUP1 PUSH4 0xFCE68023 EQ PUSH2 0x56 JUMPI JUMPDEST PUSH0 DUP1 REVERT JUMPDEST PUSH2 0x40 PUSH2 0x72 JUMP JUMPDEST PUSH1 0x40 MLOAD PUSH2 0x4D SWAP2 SWAP1 PUSH2 0x22F JUMP JUMPDEST PUSH1 0x40 MLOAD DUP1 SWAP2 SUB SWAP1 RETURN JUMPDEST PUSH2 0x70 PUSH1 0x4 DUP1 CALLDATASIZE SUB DUP2 ADD SWAP1 PUSH2 0x6B SWAP2 SWAP1 PUSH2 0x27D JUMP JUMPDEST PUSH2 0x147 JUMP JUMPDEST STOP JUMPDEST PUSH1 0x60 PUSH0 PUSH1 0x2 PUSH1 0x1 PUSH0 DUP1 SLOAD SWAP1 POP PUSH2 0x88 SWAP2 SWAP1 PUSH2 0x2D5 JUMP JUMPDEST PUSH2 0x92 SWAP2 SWAP1 PUSH2 0x335 JUMP JUMPDEST SWAP1 POP PUSH0 DUP2 PUSH8 0xFFFFFFFFFFFFFFFF DUP2 GT ISZERO PUSH2 0xAF JUMPI PUSH2 0xAE PUSH2 0x365 JUMP JUMPDEST JUMPDEST PUSH1 0x40 MLOAD SWAP1 DUP1 DUP3 MSTORE DUP1 PUSH1 0x20 MUL PUSH1 0x20 ADD DUP3 ADD PUSH1 0x40 MSTORE DUP1 ISZERO PUSH2 0xDD JUMPI DUP2 PUSH1 0x20 ADD PUSH1 0x20 DUP3 MUL DUP1 CALLDATASIZE DUP4 CALLDATACOPY DUP1 DUP3 ADD SWAP2 POP POP SWAP1 POP JUMPDEST POP SWAP1 POP PUSH0 JUMPDEST DUP3 DUP2 LT ISZERO PUSH2 0x13E JUMPI PUSH0 PUSH1 0x2 DUP3 PUSH2 0xF8 SWAP2 SWAP1 PUSH2 0x392 JUMP JUMPDEST DUP2 SLOAD DUP2 LT PUSH2 0x109 JUMPI PUSH2 0x108 PUSH2 0x3D3 JUMP JUMPDEST JUMPDEST SWAP1 PUSH0 MSTORE PUSH1 0x20 PUSH0 KECCAK256 ADD SLOAD DUP3 DUP3 DUP2 MLOAD DUP2 LT PUSH2 0x125 JUMPI PUSH2 0x124 PUSH2 0x3D3 JUMP JUMPDEST JUMPDEST PUSH1 0x20 MUL PUSH1 0x20 ADD ADD DUP2 DUP2 MSTORE POP POP DUP1 DUP1 PUSH1 0x1 ADD SWAP2 POP POP PUSH2 0xE2 JUMP JUMPDEST POP DUP1 SWAP3 POP POP POP SWAP1 JUMP JUMPDEST PUSH0 DUP2 SWAP1 DUP1 PUSH1 0x1 DUP2 SLOAD ADD DUP1 DUP3 SSTORE DUP1 SWAP2 POP POP PUSH1 0x1 SWAP1 SUB SWAP1 PUSH0 MSTORE PUSH1 0x20 PUSH0 KECCAK256 ADD PUSH0 SWAP1 SWAP2 SWAP1 SWAP2 SWAP1 SWAP2 POP SSTORE POP JUMP JUMPDEST PUSH0 DUP2 MLOAD SWAP1 POP SWAP2 SWAP1 POP JUMP JUMPDEST PUSH0 DUP3 DUP3 MSTORE PUSH1 0x20 DUP3 ADD SWAP1 POP SWAP3 SWAP2 POP POP JUMP JUMPDEST PUSH0 DUP2 SWAP1 POP PUSH1 0x20 DUP3 ADD SWAP1 POP SWAP2 SWAP1 POP JUMP JUMPDEST PUSH0 DUP2 SWAP1 POP SWAP2 SWAP1 POP JUMP JUMPDEST PUSH2 0x1AA DUP2 PUSH2 0x198 JUMP JUMPDEST DUP3 MSTORE POP POP JUMP JUMPDEST PUSH0 PUSH2 0x1BB DUP4 DUP4 PUSH2 0x1A1 JUMP JUMPDEST PUSH1 0x20 DUP4 ADD SWAP1 POP SWAP3 SWAP2 POP POP JUMP JUMPDEST PUSH0 PUSH1 0x20 DUP3 ADD SWAP1 POP SWAP2 SWAP1 POP JUMP JUMPDEST PUSH0 PUSH2 0x1DD DUP3 PUSH2 0x16F JUMP JUMPDEST PUSH2 0x1E7 DUP2 DUP6 PUSH2 0x179 JUMP JUMPDEST SWAP4 POP PUSH2 0x1F2 DUP4 PUSH2 0x189 JUMP JUMPDEST DUP1 PUSH0 JUMPDEST DUP4 DUP2 LT ISZERO PUSH2 0x222 JUMPI DUP2 MLOAD PUSH2 0x209 DUP9 DUP3 PUSH2 0x1B0 JUMP JUMPDEST SWAP8 POP PUSH2 0x214 DUP4 PUSH2 0x1C7 JUMP JUMPDEST SWAP3 POP POP PUSH1 0x1 DUP2 ADD SWAP1 POP PUSH2 0x1F5 JUMP JUMPDEST POP DUP6 SWAP4 POP POP POP POP SWAP3 SWAP2 POP POP JUMP JUMPDEST PUSH0 PUSH1 0x20 DUP3 ADD SWAP1 POP DUP2 DUP2 SUB PUSH0 DUP4 ADD MSTORE PUSH2 0x247 DUP2 DUP5 PUSH2 0x1D3 JUMP JUMPDEST SWAP1 POP SWAP3 SWAP2 POP POP JUMP JUMPDEST PUSH0 DUP1 REVERT JUMPDEST PUSH2 0x25C DUP2 PUSH2 0x198 JUMP JUMPDEST DUP2 EQ PUSH2 0x266 JUMPI PUSH0 DUP1 REVERT JUMPDEST POP JUMP JUMPDEST PUSH0 DUP2 CALLDATALOAD SWAP1 POP PUSH2 0x277 DUP2 PUSH2 0x253 JUMP JUMPDEST SWAP3 SWAP2 POP POP JUMP JUMPDEST PUSH0 PUSH1 0x20 DUP3 DUP5 SUB SLT ISZERO PUSH2 0x292 JUMPI PUSH2 0x291 PUSH2 0x24F JUMP JUMPDEST JUMPDEST PUSH0 PUSH2 0x29F DUP5 DUP3 DUP6 ADD PUSH2 0x269 JUMP JUMPDEST SWAP2 POP POP SWAP3 SWAP2 POP POP JUMP JUMPDEST PUSH32 0x4E487B7100000000000000000000000000000000000000000000000000000000 PUSH0 MSTORE PUSH1 0x11 PUSH1 0x4 MSTORE PUSH1 0x24 PUSH0 REVERT JUMPDEST PUSH0 PUSH2 0x2DF DUP3 PUSH2 0x198 JUMP JUMPDEST SWAP2 POP PUSH2 0x2EA DUP4 PUSH2 0x198 JUMP JUMPDEST SWAP3 POP DUP3 DUP3 ADD SWAP1 POP DUP1 DUP3 GT ISZERO PUSH2 0x302 JUMPI PUSH2 0x301 PUSH2 0x2A8 JUMP JUMPDEST JUMPDEST SWAP3 SWAP2 POP POP JUMP JUMPDEST PUSH32 0x4E487B7100000000000000000000000000000000000000000000000000000000 PUSH0 MSTORE PUSH1 0x12 PUSH1 0x4 MSTORE PUSH1 0x24 PUSH0 REVERT JUMPDEST PUSH0 PUSH2 0x33F DUP3 PUSH2 0x198 JUMP JUMPDEST SWAP2 POP PUSH2 0x34A DUP4 PUSH2 0x198 JUMP JUMPDEST SWAP3 POP DUP3 PUSH2 0x35A JUMPI PUSH2 0x359 PUSH2 0x308 JUMP JUMPDEST JUMPDEST DUP3 DUP3 DIV SWAP1 POP SWAP3 SWAP2 POP POP JUMP JUMPDEST PUSH32 0x4E487B7100000000000000000000000000000000000000000000000000000000 PUSH0 MSTORE PUSH1 0x41 PUSH1 0x4 MSTORE PUSH1 0x24 PUSH0 REVERT JUMPDEST PUSH0 PUSH2 0x39C DUP3 PUSH2 0x198 JUMP JUMPDEST SWAP2 POP PUSH2 0x3A7 DUP4 PUSH2 0x198 JUMP JUMPDEST SWAP3 POP DUP3 DUP3 MUL PUSH2 0x3B5 DUP2 PUSH2 0x198 JUMP JUMPDEST SWAP2 POP DUP3 DUP3 DIV DUP5 EQ DUP4 ISZERO OR PUSH2 0x3CC JUMPI PUSH2 0x3CB PUSH2 0x2A8 JUMP JUMPDEST JUMPDEST POP SWAP3 SWAP2 POP POP JUMP JUMPDEST PUSH32 0x4E487B7100000000000000000000000000000000000000000000000000000000 PUSH0 MSTORE PUSH1 0x32 PUSH1 0x4 MSTORE PUSH1 0x24 PUSH0 REVERT INVALID LOG2 PUSH5 0x6970667358 0x22 SLT KECCAK256 0xAE EXP 0xE0 0xC6 PUSH31 0x315EE80FE3482A5BB0E235B79AB4BA21148C4EE0C382D074889CE864736F6C PUSH4 0x4300081A STOP CALLER "
				},
				"gasEstimates": {
					"creation": {
						"codeDepositCost": "215600",
						"executionCost": "255",
						"totalCost": "215855"
					},
					"external": {
						"addNumber(uint256)": "46820",
						"getElements()": "infinite"
					}
				},
				"methodIdentifiers": {
					"addNumber(uint256)": "fce68023",
					"getElements()": "b1a18cc7"
				}
			},
			"storageLayout": {
				"storage": [
					{
						"astId": 199,
						"contract": "solidity/solidity31~40.sol:Q35",
						"label": "numbers",
						"offset": 0,
						"slot": "0",
						"type": "t_array(t_uint256)dyn_storage"
					}
				],
				"types": {
					"t_array(t_uint256)dyn_storage": {
						"base": "t_uint256",
						"encoding": "dynamic_array",
						"label": "uint256[]",
						"numberOfBytes": "32"
					},
					"t_uint256": {
						"encoding": "inplace",
						"label": "uint256",
						"numberOfBytes": "32"
					}
				}
			},
			"userdoc": {
				"kind": "user",
				"methods": {},
				"version": 1
			}
		}
	}
}