{
	"solidity/solidity31~40.sol": {
		"Q40": {
			"abi": [
				{
					"inputs": [
						{
							"internalType": "uint256[]",
							"name": "array",
							"type": "uint256[]"
						}
					],
					"name": "findMedian",
					"outputs": [
						{
							"internalType": "uint256[]",
							"name": "",
							"type": "uint256[]"
						}
					],
					"stateMutability": "pure",
					"type": "function"
				}
			],
			"devdoc": {
				"kind": "dev",
				"methods": {},
				"version": 1
			},
			"evm": {
				"assembly": "    /* \"solidity/solidity31~40.sol\":6517:7598  contract Q40 {... */\n  mstore(0x40, 0x80)\n  callvalue\n  dup1\n  iszero\n  tag_1\n  jumpi\n  0x00\n  dup1\n  revert\ntag_1:\n  pop\n  dataSize(sub_0)\n  dup1\n  dataOffset(sub_0)\n  0x00\n  codecopy\n  0x00\n  return\nstop\n\nsub_0: assembly {\n        /* \"solidity/solidity31~40.sol\":6517:7598  contract Q40 {... */\n      mstore(0x40, 0x80)\n      callvalue\n      dup1\n      iszero\n      tag_1\n      jumpi\n      0x00\n      dup1\n      revert\n    tag_1:\n      pop\n      jumpi(tag_2, lt(calldatasize, 0x04))\n      shr(0xe0, calldataload(0x00))\n      dup1\n      0x3a238841\n      eq\n      tag_3\n      jumpi\n    tag_2:\n      0x00\n      dup1\n      revert\n        /* \"solidity/solidity31~40.sol\":6910:7596  function findMedian(uint[] memory array) public pure returns (uint[] memory) {... */\n    tag_3:\n      tag_4\n      0x04\n      dup1\n      calldatasize\n      sub\n      dup2\n      add\n      swap1\n      tag_5\n      swap2\n      swap1\n      tag_6\n      jump\t// in\n    tag_5:\n      tag_7\n      jump\t// in\n    tag_4:\n      mload(0x40)\n      tag_8\n      swap2\n      swap1\n      tag_9\n      jump\t// in\n    tag_8:\n      mload(0x40)\n      dup1\n      swap2\n      sub\n      swap1\n      return\n    tag_7:\n        /* \"solidity/solidity31~40.sol\":6972:6985  uint[] memory */\n      0x60\n        /* \"solidity/solidity31~40.sol\":6997:7008  uint length */\n      0x00\n        /* \"solidity/solidity31~40.sol\":7011:7016  array */\n      dup3\n        /* \"solidity/solidity31~40.sol\":7011:7023  array.length */\n      mload\n        /* \"solidity/solidity31~40.sol\":6997:7023  uint length = array.length */\n      swap1\n      pop\n        /* \"solidity/solidity31~40.sol\":7039:7045  uint i */\n      0x00\n        /* \"solidity/solidity31~40.sol\":7034:7342  for (uint i = 0; i < length; i++) {... */\n    tag_11:\n        /* \"solidity/solidity31~40.sol\":7055:7061  length */\n      dup2\n        /* \"solidity/solidity31~40.sol\":7051:7052  i */\n      dup2\n        /* \"solidity/solidity31~40.sol\":7051:7061  i < length */\n      lt\n        /* \"solidity/solidity31~40.sol\":7034:7342  for (uint i = 0; i < length; i++) {... */\n      iszero\n      tag_12\n      jumpi\n        /* \"solidity/solidity31~40.sol\":7087:7093  uint j */\n      0x00\n        /* \"solidity/solidity31~40.sol\":7082:7332  for (uint j = 0; j < length - 1 - i; j++) {... */\n    tag_14:\n        /* \"solidity/solidity31~40.sol\":7116:7117  i */\n      dup2\n        /* \"solidity/solidity31~40.sol\":7112:7113  1 */\n      0x01\n        /* \"solidity/solidity31~40.sol\":7103:7109  length */\n      dup5\n        /* \"solidity/solidity31~40.sol\":7103:7113  length - 1 */\n      tag_17\n      swap2\n      swap1\n      tag_18\n      jump\t// in\n    tag_17:\n        /* \"solidity/solidity31~40.sol\":7103:7117  length - 1 - i */\n      tag_19\n      swap2\n      swap1\n      tag_18\n      jump\t// in\n    tag_19:\n        /* \"solidity/solidity31~40.sol\":7099:7100  j */\n      dup2\n        /* \"solidity/solidity31~40.sol\":7099:7117  j < length - 1 - i */\n      lt\n        /* \"solidity/solidity31~40.sol\":7082:7332  for (uint j = 0; j < length - 1 - i; j++) {... */\n      iszero\n      tag_15\n      jumpi\n        /* \"solidity/solidity31~40.sol\":7157:7162  array */\n      dup5\n        /* \"solidity/solidity31~40.sol\":7167:7168  1 */\n      0x01\n        /* \"solidity/solidity31~40.sol\":7163:7164  j */\n      dup3\n        /* \"solidity/solidity31~40.sol\":7163:7168  j + 1 */\n      tag_20\n      swap2\n      swap1\n      tag_21\n      jump\t// in\n    tag_20:\n        /* \"solidity/solidity31~40.sol\":7157:7169  array[j + 1] */\n      dup2\n      mload\n      dup2\n      lt\n      tag_22\n      jumpi\n      tag_23\n      tag_24\n      jump\t// in\n    tag_23:\n    tag_22:\n      0x20\n      mul\n      0x20\n      add\n      add\n      mload\n        /* \"solidity/solidity31~40.sol\":7146:7151  array */\n      dup6\n        /* \"solidity/solidity31~40.sol\":7152:7153  j */\n      dup3\n        /* \"solidity/solidity31~40.sol\":7146:7154  array[j] */\n      dup2\n      mload\n      dup2\n      lt\n      tag_25\n      jumpi\n      tag_26\n      tag_24\n      jump\t// in\n    tag_26:\n    tag_25:\n      0x20\n      mul\n      0x20\n      add\n      add\n      mload\n        /* \"solidity/solidity31~40.sol\":7146:7169  array[j] < array[j + 1] */\n      lt\n        /* \"solidity/solidity31~40.sol\":7142:7318  if (array[j] < array[j + 1]) {... */\n      iszero\n      tag_27\n      jumpi\n        /* \"solidity/solidity31~40.sol\":7193:7202  uint temp */\n      0x00\n        /* \"solidity/solidity31~40.sol\":7205:7210  array */\n      dup6\n        /* \"solidity/solidity31~40.sol\":7211:7212  j */\n      dup3\n        /* \"solidity/solidity31~40.sol\":7205:7213  array[j] */\n      dup2\n      mload\n      dup2\n      lt\n      tag_28\n      jumpi\n      tag_29\n      tag_24\n      jump\t// in\n    tag_29:\n    tag_28:\n      0x20\n      mul\n      0x20\n      add\n      add\n      mload\n        /* \"solidity/solidity31~40.sol\":7193:7213  uint temp = array[j] */\n      swap1\n      pop\n        /* \"solidity/solidity31~40.sol\":7246:7251  array */\n      dup6\n        /* \"solidity/solidity31~40.sol\":7256:7257  1 */\n      0x01\n        /* \"solidity/solidity31~40.sol\":7252:7253  j */\n      dup4\n        /* \"solidity/solidity31~40.sol\":7252:7257  j + 1 */\n      tag_30\n      swap2\n      swap1\n      tag_21\n      jump\t// in\n    tag_30:\n        /* \"solidity/solidity31~40.sol\":7246:7258  array[j + 1] */\n      dup2\n      mload\n      dup2\n      lt\n      tag_31\n      jumpi\n      tag_32\n      tag_24\n      jump\t// in\n    tag_32:\n    tag_31:\n      0x20\n      mul\n      0x20\n      add\n      add\n      mload\n        /* \"solidity/solidity31~40.sol\":7235:7240  array */\n      dup7\n        /* \"solidity/solidity31~40.sol\":7241:7242  j */\n      dup4\n        /* \"solidity/solidity31~40.sol\":7235:7243  array[j] */\n      dup2\n      mload\n      dup2\n      lt\n      tag_33\n      jumpi\n      tag_34\n      tag_24\n      jump\t// in\n    tag_34:\n    tag_33:\n      0x20\n      mul\n      0x20\n      add\n      add\n        /* \"solidity/solidity31~40.sol\":7235:7258  array[j] = array[j + 1] */\n      dup2\n      dup2\n      mstore\n      pop\n      pop\n        /* \"solidity/solidity31~40.sol\":7295:7299  temp */\n      dup1\n        /* \"solidity/solidity31~40.sol\":7280:7285  array */\n      dup7\n        /* \"solidity/solidity31~40.sol\":7290:7291  1 */\n      0x01\n        /* \"solidity/solidity31~40.sol\":7286:7287  j */\n      dup5\n        /* \"solidity/solidity31~40.sol\":7286:7291  j + 1 */\n      tag_35\n      swap2\n      swap1\n      tag_21\n      jump\t// in\n    tag_35:\n        /* \"solidity/solidity31~40.sol\":7280:7292  array[j + 1] */\n      dup2\n      mload\n      dup2\n      lt\n      tag_36\n      jumpi\n      tag_37\n      tag_24\n      jump\t// in\n    tag_37:\n    tag_36:\n      0x20\n      mul\n      0x20\n      add\n      add\n        /* \"solidity/solidity31~40.sol\":7280:7299  array[j + 1] = temp */\n      dup2\n      dup2\n      mstore\n      pop\n      pop\n        /* \"solidity/solidity31~40.sol\":7171:7318  {... */\n      pop\n        /* \"solidity/solidity31~40.sol\":7142:7318  if (array[j] < array[j + 1]) {... */\n    tag_27:\n        /* \"solidity/solidity31~40.sol\":7119:7122  j++ */\n      dup1\n      dup1\n      0x01\n      add\n      swap2\n      pop\n      pop\n        /* \"solidity/solidity31~40.sol\":7082:7332  for (uint j = 0; j < length - 1 - i; j++) {... */\n      jump(tag_14)\n    tag_15:\n      pop\n        /* \"solidity/solidity31~40.sol\":7063:7066  i++ */\n      dup1\n      dup1\n      0x01\n      add\n      swap2\n      pop\n      pop\n        /* \"solidity/solidity31~40.sol\":7034:7342  for (uint i = 0; i < length; i++) {... */\n      jump(tag_11)\n    tag_12:\n      pop\n        /* \"solidity/solidity31~40.sol\":7352:7372  uint[] memory result */\n      0x60\n        /* \"solidity/solidity31~40.sol\":7400:7401  1 */\n      0x01\n        /* \"solidity/solidity31~40.sol\":7395:7396  2 */\n      0x02\n        /* \"solidity/solidity31~40.sol\":7386:7392  length */\n      dup4\n        /* \"solidity/solidity31~40.sol\":7386:7396  length % 2 */\n      tag_38\n      swap2\n      swap1\n      tag_39\n      jump\t// in\n    tag_38:\n        /* \"solidity/solidity31~40.sol\":7386:7401  length % 2 == 1 */\n      sub\n        /* \"solidity/solidity31~40.sol\":7382:7566  if (length % 2 == 1) {... */\n      tag_40\n      jumpi\n        /* \"solidity/solidity31~40.sol\":7429:7434  array */\n      dup4\n        /* \"solidity/solidity31~40.sol\":7444:7445  2 */\n      0x02\n        /* \"solidity/solidity31~40.sol\":7435:7441  length */\n      dup4\n        /* \"solidity/solidity31~40.sol\":7435:7445  length / 2 */\n      tag_41\n      swap2\n      swap1\n      tag_42\n      jump\t// in\n    tag_41:\n        /* \"solidity/solidity31~40.sol\":7429:7446  array[length / 2] */\n      dup2\n      mload\n      dup2\n      lt\n      tag_43\n      jumpi\n      tag_44\n      tag_24\n      jump\t// in\n    tag_44:\n    tag_43:\n      0x20\n      mul\n      0x20\n      add\n      add\n      mload\n        /* \"solidity/solidity31~40.sol\":7417:7423  result */\n      dup2\n        /* \"solidity/solidity31~40.sol\":7424:7425  0 */\n      0x00\n        /* \"solidity/solidity31~40.sol\":7417:7426  result[0] */\n      dup2\n      mload\n      dup2\n      lt\n      tag_45\n      jumpi\n      tag_46\n      tag_24\n      jump\t// in\n    tag_46:\n    tag_45:\n      0x20\n      mul\n      0x20\n      add\n      add\n        /* \"solidity/solidity31~40.sol\":7417:7446  result[0] = array[length / 2] */\n      dup2\n      dup2\n      mstore\n      pop\n      pop\n        /* \"solidity/solidity31~40.sol\":7382:7566  if (length % 2 == 1) {... */\n      jump(tag_47)\n    tag_40:\n        /* \"solidity/solidity31~40.sol\":7489:7494  array */\n      dup4\n        /* \"solidity/solidity31~40.sol\":7510:7511  1 */\n      0x01\n        /* \"solidity/solidity31~40.sol\":7505:7506  2 */\n      0x02\n        /* \"solidity/solidity31~40.sol\":7496:7502  length */\n      dup5\n        /* \"solidity/solidity31~40.sol\":7496:7506  length / 2 */\n      tag_48\n      swap2\n      swap1\n      tag_42\n      jump\t// in\n    tag_48:\n        /* \"solidity/solidity31~40.sol\":7495:7511  (length / 2) - 1 */\n      tag_49\n      swap2\n      swap1\n      tag_18\n      jump\t// in\n    tag_49:\n        /* \"solidity/solidity31~40.sol\":7489:7512  array[(length / 2) - 1] */\n      dup2\n      mload\n      dup2\n      lt\n      tag_50\n      jumpi\n      tag_51\n      tag_24\n      jump\t// in\n    tag_51:\n    tag_50:\n      0x20\n      mul\n      0x20\n      add\n      add\n      mload\n        /* \"solidity/solidity31~40.sol\":7477:7483  result */\n      dup2\n        /* \"solidity/solidity31~40.sol\":7484:7485  0 */\n      0x00\n        /* \"solidity/solidity31~40.sol\":7477:7486  result[0] */\n      dup2\n      mload\n      dup2\n      lt\n      tag_52\n      jumpi\n      tag_53\n      tag_24\n      jump\t// in\n    tag_53:\n    tag_52:\n      0x20\n      mul\n      0x20\n      add\n      add\n        /* \"solidity/solidity31~40.sol\":7477:7512  result[0] = array[(length / 2) - 1] */\n      dup2\n      dup2\n      mstore\n      pop\n      pop\n        /* \"solidity/solidity31~40.sol\":7538:7543  array */\n      dup4\n        /* \"solidity/solidity31~40.sol\":7553:7554  2 */\n      0x02\n        /* \"solidity/solidity31~40.sol\":7544:7550  length */\n      dup4\n        /* \"solidity/solidity31~40.sol\":7544:7554  length / 2 */\n      tag_54\n      swap2\n      swap1\n      tag_42\n      jump\t// in\n    tag_54:\n        /* \"solidity/solidity31~40.sol\":7538:7555  array[length / 2] */\n      dup2\n      mload\n      dup2\n      lt\n      tag_55\n      jumpi\n      tag_56\n      tag_24\n      jump\t// in\n    tag_56:\n    tag_55:\n      0x20\n      mul\n      0x20\n      add\n      add\n      mload\n        /* \"solidity/solidity31~40.sol\":7526:7532  result */\n      dup2\n        /* \"solidity/solidity31~40.sol\":7533:7534  1 */\n      0x01\n        /* \"solidity/solidity31~40.sol\":7526:7535  result[1] */\n      dup2\n      mload\n      dup2\n      lt\n      tag_57\n      jumpi\n      tag_58\n      tag_24\n      jump\t// in\n    tag_58:\n    tag_57:\n      0x20\n      mul\n      0x20\n      add\n      add\n        /* \"solidity/solidity31~40.sol\":7526:7555  result[1] = array[length / 2] */\n      dup2\n      dup2\n      mstore\n      pop\n      pop\n        /* \"solidity/solidity31~40.sol\":7382:7566  if (length % 2 == 1) {... */\n    tag_47:\n        /* \"solidity/solidity31~40.sol\":7583:7589  result */\n      dup1\n        /* \"solidity/solidity31~40.sol\":7576:7589  return result */\n      swap3\n      pop\n      pop\n      pop\n        /* \"solidity/solidity31~40.sol\":6910:7596  function findMedian(uint[] memory array) public pure returns (uint[] memory) {... */\n      swap2\n      swap1\n      pop\n      jump\t// out\n        /* \"#utility.yul\":7:82   */\n    tag_59:\n        /* \"#utility.yul\":40:46   */\n      0x00\n        /* \"#utility.yul\":73:75   */\n      0x40\n        /* \"#utility.yul\":67:76   */\n      mload\n        /* \"#utility.yul\":57:76   */\n      swap1\n      pop\n        /* \"#utility.yul\":7:82   */\n      swap1\n      jump\t// out\n        /* \"#utility.yul\":88:205   */\n    tag_60:\n        /* \"#utility.yul\":197:198   */\n      0x00\n        /* \"#utility.yul\":194:195   */\n      dup1\n        /* \"#utility.yul\":187:199   */\n      revert\n        /* \"#utility.yul\":211:328   */\n    tag_61:\n        /* \"#utility.yul\":320:321   */\n      0x00\n        /* \"#utility.yul\":317:318   */\n      dup1\n        /* \"#utility.yul\":310:322   */\n      revert\n        /* \"#utility.yul\":334:451   */\n    tag_62:\n        /* \"#utility.yul\":443:444   */\n      0x00\n        /* \"#utility.yul\":440:441   */\n      dup1\n        /* \"#utility.yul\":433:445   */\n      revert\n        /* \"#utility.yul\":457:559   */\n    tag_63:\n        /* \"#utility.yul\":498:504   */\n      0x00\n        /* \"#utility.yul\":549:551   */\n      0x1f\n        /* \"#utility.yul\":545:552   */\n      not\n        /* \"#utility.yul\":540:542   */\n      0x1f\n        /* \"#utility.yul\":533:538   */\n      dup4\n        /* \"#utility.yul\":529:543   */\n      add\n        /* \"#utility.yul\":525:553   */\n      and\n        /* \"#utility.yul\":515:553   */\n      swap1\n      pop\n        /* \"#utility.yul\":457:559   */\n      swap2\n      swap1\n      pop\n      jump\t// out\n        /* \"#utility.yul\":565:745   */\n    tag_64:\n        /* \"#utility.yul\":613:690   */\n      0x4e487b7100000000000000000000000000000000000000000000000000000000\n        /* \"#utility.yul\":610:611   */\n      0x00\n        /* \"#utility.yul\":603:691   */\n      mstore\n        /* \"#utility.yul\":710:714   */\n      0x41\n        /* \"#utility.yul\":707:708   */\n      0x04\n        /* \"#utility.yul\":700:715   */\n      mstore\n        /* \"#utility.yul\":734:738   */\n      0x24\n        /* \"#utility.yul\":731:732   */\n      0x00\n        /* \"#utility.yul\":724:739   */\n      revert\n        /* \"#utility.yul\":751:1032   */\n    tag_65:\n        /* \"#utility.yul\":834:861   */\n      tag_91\n        /* \"#utility.yul\":856:860   */\n      dup3\n        /* \"#utility.yul\":834:861   */\n      tag_63\n      jump\t// in\n    tag_91:\n        /* \"#utility.yul\":826:832   */\n      dup2\n        /* \"#utility.yul\":822:862   */\n      add\n        /* \"#utility.yul\":964:970   */\n      dup2\n        /* \"#utility.yul\":952:962   */\n      dup2\n        /* \"#utility.yul\":949:971   */\n      lt\n        /* \"#utility.yul\":928:946   */\n      0xffffffffffffffff\n        /* \"#utility.yul\":916:926   */\n      dup3\n        /* \"#utility.yul\":913:947   */\n      gt\n        /* \"#utility.yul\":910:972   */\n      or\n        /* \"#utility.yul\":907:995   */\n      iszero\n      tag_92\n      jumpi\n        /* \"#utility.yul\":975:993   */\n      tag_93\n      tag_64\n      jump\t// in\n    tag_93:\n        /* \"#utility.yul\":907:995   */\n    tag_92:\n        /* \"#utility.yul\":1015:1025   */\n      dup1\n        /* \"#utility.yul\":1011:1013   */\n      0x40\n        /* \"#utility.yul\":1004:1026   */\n      mstore\n        /* \"#utility.yul\":794:1032   */\n      pop\n        /* \"#utility.yul\":751:1032   */\n      pop\n      pop\n      jump\t// out\n        /* \"#utility.yul\":1038:1167   */\n    tag_66:\n        /* \"#utility.yul\":1072:1078   */\n      0x00\n        /* \"#utility.yul\":1099:1119   */\n      tag_95\n      tag_59\n      jump\t// in\n    tag_95:\n        /* \"#utility.yul\":1089:1119   */\n      swap1\n      pop\n        /* \"#utility.yul\":1128:1161   */\n      tag_96\n        /* \"#utility.yul\":1156:1160   */\n      dup3\n        /* \"#utility.yul\":1148:1154   */\n      dup3\n        /* \"#utility.yul\":1128:1161   */\n      tag_65\n      jump\t// in\n    tag_96:\n        /* \"#utility.yul\":1038:1167   */\n      swap2\n      swap1\n      pop\n      jump\t// out\n        /* \"#utility.yul\":1173:1484   */\n    tag_67:\n        /* \"#utility.yul\":1250:1254   */\n      0x00\n        /* \"#utility.yul\":1340:1358   */\n      0xffffffffffffffff\n        /* \"#utility.yul\":1332:1338   */\n      dup3\n        /* \"#utility.yul\":1329:1359   */\n      gt\n        /* \"#utility.yul\":1326:1382   */\n      iszero\n      tag_98\n      jumpi\n        /* \"#utility.yul\":1362:1380   */\n      tag_99\n      tag_64\n      jump\t// in\n    tag_99:\n        /* \"#utility.yul\":1326:1382   */\n    tag_98:\n        /* \"#utility.yul\":1412:1416   */\n      0x20\n        /* \"#utility.yul\":1404:1410   */\n      dup3\n        /* \"#utility.yul\":1400:1417   */\n      mul\n        /* \"#utility.yul\":1392:1417   */\n      swap1\n      pop\n        /* \"#utility.yul\":1472:1476   */\n      0x20\n        /* \"#utility.yul\":1466:1470   */\n      dup2\n        /* \"#utility.yul\":1462:1477   */\n      add\n        /* \"#utility.yul\":1454:1477   */\n      swap1\n      pop\n        /* \"#utility.yul\":1173:1484   */\n      swap2\n      swap1\n      pop\n      jump\t// out\n        /* \"#utility.yul\":1490:1607   */\n    tag_68:\n        /* \"#utility.yul\":1599:1600   */\n      0x00\n        /* \"#utility.yul\":1596:1597   */\n      dup1\n        /* \"#utility.yul\":1589:1601   */\n      revert\n        /* \"#utility.yul\":1613:1690   */\n    tag_69:\n        /* \"#utility.yul\":1650:1657   */\n      0x00\n        /* \"#utility.yul\":1679:1684   */\n      dup2\n        /* \"#utility.yul\":1668:1684   */\n      swap1\n      pop\n        /* \"#utility.yul\":1613:1690   */\n      swap2\n      swap1\n      pop\n      jump\t// out\n        /* \"#utility.yul\":1696:1818   */\n    tag_70:\n        /* \"#utility.yul\":1769:1793   */\n      tag_103\n        /* \"#utility.yul\":1787:1792   */\n      dup2\n        /* \"#utility.yul\":1769:1793   */\n      tag_69\n      jump\t// in\n    tag_103:\n        /* \"#utility.yul\":1762:1767   */\n      dup2\n        /* \"#utility.yul\":1759:1794   */\n      eq\n        /* \"#utility.yul\":1749:1812   */\n      tag_104\n      jumpi\n        /* \"#utility.yul\":1808:1809   */\n      0x00\n        /* \"#utility.yul\":1805:1806   */\n      dup1\n        /* \"#utility.yul\":1798:1810   */\n      revert\n        /* \"#utility.yul\":1749:1812   */\n    tag_104:\n        /* \"#utility.yul\":1696:1818   */\n      pop\n      jump\t// out\n        /* \"#utility.yul\":1824:1963   */\n    tag_71:\n        /* \"#utility.yul\":1870:1875   */\n      0x00\n        /* \"#utility.yul\":1908:1914   */\n      dup2\n        /* \"#utility.yul\":1895:1915   */\n      calldataload\n        /* \"#utility.yul\":1886:1915   */\n      swap1\n      pop\n        /* \"#utility.yul\":1924:1957   */\n      tag_106\n        /* \"#utility.yul\":1951:1956   */\n      dup2\n        /* \"#utility.yul\":1924:1957   */\n      tag_70\n      jump\t// in\n    tag_106:\n        /* \"#utility.yul\":1824:1963   */\n      swap3\n      swap2\n      pop\n      pop\n      jump\t// out\n        /* \"#utility.yul\":1986:2696   */\n    tag_72:\n        /* \"#utility.yul\":2082:2087   */\n      0x00\n        /* \"#utility.yul\":2107:2188   */\n      tag_108\n        /* \"#utility.yul\":2123:2187   */\n      tag_109\n        /* \"#utility.yul\":2180:2186   */\n      dup5\n        /* \"#utility.yul\":2123:2187   */\n      tag_67\n      jump\t// in\n    tag_109:\n        /* \"#utility.yul\":2107:2188   */\n      tag_66\n      jump\t// in\n    tag_108:\n        /* \"#utility.yul\":2098:2188   */\n      swap1\n      pop\n        /* \"#utility.yul\":2208:2213   */\n      dup1\n        /* \"#utility.yul\":2237:2243   */\n      dup4\n        /* \"#utility.yul\":2230:2235   */\n      dup3\n        /* \"#utility.yul\":2223:2244   */\n      mstore\n        /* \"#utility.yul\":2271:2275   */\n      0x20\n        /* \"#utility.yul\":2264:2269   */\n      dup3\n        /* \"#utility.yul\":2260:2276   */\n      add\n        /* \"#utility.yul\":2253:2276   */\n      swap1\n      pop\n        /* \"#utility.yul\":2324:2328   */\n      0x20\n        /* \"#utility.yul\":2316:2322   */\n      dup5\n        /* \"#utility.yul\":2312:2329   */\n      mul\n        /* \"#utility.yul\":2304:2310   */\n      dup4\n        /* \"#utility.yul\":2300:2330   */\n      add\n        /* \"#utility.yul\":2353:2356   */\n      dup6\n        /* \"#utility.yul\":2345:2351   */\n      dup2\n        /* \"#utility.yul\":2342:2357   */\n      gt\n        /* \"#utility.yul\":2339:2461   */\n      iszero\n      tag_110\n      jumpi\n        /* \"#utility.yul\":2372:2451   */\n      tag_111\n      tag_68\n      jump\t// in\n    tag_111:\n        /* \"#utility.yul\":2339:2461   */\n    tag_110:\n        /* \"#utility.yul\":2487:2493   */\n      dup4\n        /* \"#utility.yul\":2470:2690   */\n    tag_112:\n        /* \"#utility.yul\":2504:2510   */\n      dup2\n        /* \"#utility.yul\":2499:2502   */\n      dup2\n        /* \"#utility.yul\":2496:2511   */\n      lt\n        /* \"#utility.yul\":2470:2690   */\n      iszero\n      tag_114\n      jumpi\n        /* \"#utility.yul\":2579:2582   */\n      dup1\n        /* \"#utility.yul\":2608:2645   */\n      tag_115\n        /* \"#utility.yul\":2641:2644   */\n      dup9\n        /* \"#utility.yul\":2629:2639   */\n      dup3\n        /* \"#utility.yul\":2608:2645   */\n      tag_71\n      jump\t// in\n    tag_115:\n        /* \"#utility.yul\":2603:2606   */\n      dup5\n        /* \"#utility.yul\":2596:2646   */\n      mstore\n        /* \"#utility.yul\":2675:2679   */\n      0x20\n        /* \"#utility.yul\":2670:2673   */\n      dup5\n        /* \"#utility.yul\":2666:2680   */\n      add\n        /* \"#utility.yul\":2659:2680   */\n      swap4\n      pop\n        /* \"#utility.yul\":2546:2690   */\n      pop\n        /* \"#utility.yul\":2530:2534   */\n      0x20\n        /* \"#utility.yul\":2525:2528   */\n      dup2\n        /* \"#utility.yul\":2521:2535   */\n      add\n        /* \"#utility.yul\":2514:2535   */\n      swap1\n      pop\n        /* \"#utility.yul\":2470:2690   */\n      jump(tag_112)\n    tag_114:\n        /* \"#utility.yul\":2474:2495   */\n      pop\n        /* \"#utility.yul\":2088:2696   */\n      pop\n      pop\n        /* \"#utility.yul\":1986:2696   */\n      swap4\n      swap3\n      pop\n      pop\n      pop\n      jump\t// out\n        /* \"#utility.yul\":2719:3089   */\n    tag_73:\n        /* \"#utility.yul\":2790:2795   */\n      0x00\n        /* \"#utility.yul\":2839:2842   */\n      dup3\n        /* \"#utility.yul\":2832:2836   */\n      0x1f\n        /* \"#utility.yul\":2824:2830   */\n      dup4\n        /* \"#utility.yul\":2820:2837   */\n      add\n        /* \"#utility.yul\":2816:2843   */\n      slt\n        /* \"#utility.yul\":2806:2928   */\n      tag_117\n      jumpi\n        /* \"#utility.yul\":2847:2926   */\n      tag_118\n      tag_62\n      jump\t// in\n    tag_118:\n        /* \"#utility.yul\":2806:2928   */\n    tag_117:\n        /* \"#utility.yul\":2964:2970   */\n      dup2\n        /* \"#utility.yul\":2951:2971   */\n      calldataload\n        /* \"#utility.yul\":2989:3083   */\n      tag_119\n        /* \"#utility.yul\":3079:3082   */\n      dup5\n        /* \"#utility.yul\":3071:3077   */\n      dup3\n        /* \"#utility.yul\":3064:3068   */\n      0x20\n        /* \"#utility.yul\":3056:3062   */\n      dup7\n        /* \"#utility.yul\":3052:3069   */\n      add\n        /* \"#utility.yul\":2989:3083   */\n      tag_72\n      jump\t// in\n    tag_119:\n        /* \"#utility.yul\":2980:3083   */\n      swap2\n      pop\n        /* \"#utility.yul\":2796:3089   */\n      pop\n        /* \"#utility.yul\":2719:3089   */\n      swap3\n      swap2\n      pop\n      pop\n      jump\t// out\n        /* \"#utility.yul\":3095:3634   */\n    tag_6:\n        /* \"#utility.yul\":3179:3185   */\n      0x00\n        /* \"#utility.yul\":3228:3230   */\n      0x20\n        /* \"#utility.yul\":3216:3225   */\n      dup3\n        /* \"#utility.yul\":3207:3214   */\n      dup5\n        /* \"#utility.yul\":3203:3226   */\n      sub\n        /* \"#utility.yul\":3199:3231   */\n      slt\n        /* \"#utility.yul\":3196:3315   */\n      iszero\n      tag_121\n      jumpi\n        /* \"#utility.yul\":3234:3313   */\n      tag_122\n      tag_60\n      jump\t// in\n    tag_122:\n        /* \"#utility.yul\":3196:3315   */\n    tag_121:\n        /* \"#utility.yul\":3382:3383   */\n      0x00\n        /* \"#utility.yul\":3371:3380   */\n      dup3\n        /* \"#utility.yul\":3367:3384   */\n      add\n        /* \"#utility.yul\":3354:3385   */\n      calldataload\n        /* \"#utility.yul\":3412:3430   */\n      0xffffffffffffffff\n        /* \"#utility.yul\":3404:3410   */\n      dup2\n        /* \"#utility.yul\":3401:3431   */\n      gt\n        /* \"#utility.yul\":3398:3515   */\n      iszero\n      tag_123\n      jumpi\n        /* \"#utility.yul\":3434:3513   */\n      tag_124\n      tag_61\n      jump\t// in\n    tag_124:\n        /* \"#utility.yul\":3398:3515   */\n    tag_123:\n        /* \"#utility.yul\":3539:3617   */\n      tag_125\n        /* \"#utility.yul\":3609:3616   */\n      dup5\n        /* \"#utility.yul\":3600:3606   */\n      dup3\n        /* \"#utility.yul\":3589:3598   */\n      dup6\n        /* \"#utility.yul\":3585:3607   */\n      add\n        /* \"#utility.yul\":3539:3617   */\n      tag_73\n      jump\t// in\n    tag_125:\n        /* \"#utility.yul\":3529:3617   */\n      swap2\n      pop\n        /* \"#utility.yul\":3325:3627   */\n      pop\n        /* \"#utility.yul\":3095:3634   */\n      swap3\n      swap2\n      pop\n      pop\n      jump\t// out\n        /* \"#utility.yul\":3640:3754   */\n    tag_74:\n        /* \"#utility.yul\":3707:3713   */\n      0x00\n        /* \"#utility.yul\":3741:3746   */\n      dup2\n        /* \"#utility.yul\":3735:3747   */\n      mload\n        /* \"#utility.yul\":3725:3747   */\n      swap1\n      pop\n        /* \"#utility.yul\":3640:3754   */\n      swap2\n      swap1\n      pop\n      jump\t// out\n        /* \"#utility.yul\":3760:3944   */\n    tag_75:\n        /* \"#utility.yul\":3859:3870   */\n      0x00\n        /* \"#utility.yul\":3893:3899   */\n      dup3\n        /* \"#utility.yul\":3888:3891   */\n      dup3\n        /* \"#utility.yul\":3881:3900   */\n      mstore\n        /* \"#utility.yul\":3933:3937   */\n      0x20\n        /* \"#utility.yul\":3928:3931   */\n      dup3\n        /* \"#utility.yul\":3924:3938   */\n      add\n        /* \"#utility.yul\":3909:3938   */\n      swap1\n      pop\n        /* \"#utility.yul\":3760:3944   */\n      swap3\n      swap2\n      pop\n      pop\n      jump\t// out\n        /* \"#utility.yul\":3950:4082   */\n    tag_76:\n        /* \"#utility.yul\":4017:4021   */\n      0x00\n        /* \"#utility.yul\":4040:4043   */\n      dup2\n        /* \"#utility.yul\":4032:4043   */\n      swap1\n      pop\n        /* \"#utility.yul\":4070:4074   */\n      0x20\n        /* \"#utility.yul\":4065:4068   */\n      dup3\n        /* \"#utility.yul\":4061:4075   */\n      add\n        /* \"#utility.yul\":4053:4075   */\n      swap1\n      pop\n        /* \"#utility.yul\":3950:4082   */\n      swap2\n      swap1\n      pop\n      jump\t// out\n        /* \"#utility.yul\":4088:4196   */\n    tag_77:\n        /* \"#utility.yul\":4165:4189   */\n      tag_130\n        /* \"#utility.yul\":4183:4188   */\n      dup2\n        /* \"#utility.yul\":4165:4189   */\n      tag_69\n      jump\t// in\n    tag_130:\n        /* \"#utility.yul\":4160:4163   */\n      dup3\n        /* \"#utility.yul\":4153:4190   */\n      mstore\n        /* \"#utility.yul\":4088:4196   */\n      pop\n      pop\n      jump\t// out\n        /* \"#utility.yul\":4202:4381   */\n    tag_78:\n        /* \"#utility.yul\":4271:4281   */\n      0x00\n        /* \"#utility.yul\":4292:4338   */\n      tag_132\n        /* \"#utility.yul\":4334:4337   */\n      dup4\n        /* \"#utility.yul\":4326:4332   */\n      dup4\n        /* \"#utility.yul\":4292:4338   */\n      tag_77\n      jump\t// in\n    tag_132:\n        /* \"#utility.yul\":4370:4374   */\n      0x20\n        /* \"#utility.yul\":4365:4368   */\n      dup4\n        /* \"#utility.yul\":4361:4375   */\n      add\n        /* \"#utility.yul\":4347:4375   */\n      swap1\n      pop\n        /* \"#utility.yul\":4202:4381   */\n      swap3\n      swap2\n      pop\n      pop\n      jump\t// out\n        /* \"#utility.yul\":4387:4500   */\n    tag_79:\n        /* \"#utility.yul\":4457:4461   */\n      0x00\n        /* \"#utility.yul\":4489:4493   */\n      0x20\n        /* \"#utility.yul\":4484:4487   */\n      dup3\n        /* \"#utility.yul\":4480:4494   */\n      add\n        /* \"#utility.yul\":4472:4494   */\n      swap1\n      pop\n        /* \"#utility.yul\":4387:4500   */\n      swap2\n      swap1\n      pop\n      jump\t// out\n        /* \"#utility.yul\":4536:5268   */\n    tag_80:\n        /* \"#utility.yul\":4655:4658   */\n      0x00\n        /* \"#utility.yul\":4684:4738   */\n      tag_135\n        /* \"#utility.yul\":4732:4737   */\n      dup3\n        /* \"#utility.yul\":4684:4738   */\n      tag_74\n      jump\t// in\n    tag_135:\n        /* \"#utility.yul\":4754:4840   */\n      tag_136\n        /* \"#utility.yul\":4833:4839   */\n      dup2\n        /* \"#utility.yul\":4828:4831   */\n      dup6\n        /* \"#utility.yul\":4754:4840   */\n      tag_75\n      jump\t// in\n    tag_136:\n        /* \"#utility.yul\":4747:4840   */\n      swap4\n      pop\n        /* \"#utility.yul\":4864:4920   */\n      tag_137\n        /* \"#utility.yul\":4914:4919   */\n      dup4\n        /* \"#utility.yul\":4864:4920   */\n      tag_76\n      jump\t// in\n    tag_137:\n        /* \"#utility.yul\":4943:4950   */\n      dup1\n        /* \"#utility.yul\":4974:4975   */\n      0x00\n        /* \"#utility.yul\":4959:5243   */\n    tag_138:\n        /* \"#utility.yul\":4984:4990   */\n      dup4\n        /* \"#utility.yul\":4981:4982   */\n      dup2\n        /* \"#utility.yul\":4978:4991   */\n      lt\n        /* \"#utility.yul\":4959:5243   */\n      iszero\n      tag_140\n      jumpi\n        /* \"#utility.yul\":5060:5066   */\n      dup2\n        /* \"#utility.yul\":5054:5067   */\n      mload\n        /* \"#utility.yul\":5087:5150   */\n      tag_141\n        /* \"#utility.yul\":5146:5149   */\n      dup9\n        /* \"#utility.yul\":5131:5144   */\n      dup3\n        /* \"#utility.yul\":5087:5150   */\n      tag_78\n      jump\t// in\n    tag_141:\n        /* \"#utility.yul\":5080:5150   */\n      swap8\n      pop\n        /* \"#utility.yul\":5173:5233   */\n      tag_142\n        /* \"#utility.yul\":5226:5232   */\n      dup4\n        /* \"#utility.yul\":5173:5233   */\n      tag_79\n      jump\t// in\n    tag_142:\n        /* \"#utility.yul\":5163:5233   */\n      swap3\n      pop\n        /* \"#utility.yul\":5019:5243   */\n      pop\n        /* \"#utility.yul\":5006:5007   */\n      0x01\n        /* \"#utility.yul\":5003:5004   */\n      dup2\n        /* \"#utility.yul\":4999:5008   */\n      add\n        /* \"#utility.yul\":4994:5008   */\n      swap1\n      pop\n        /* \"#utility.yul\":4959:5243   */\n      jump(tag_138)\n    tag_140:\n        /* \"#utility.yul\":4963:4977   */\n      pop\n        /* \"#utility.yul\":5259:5262   */\n      dup6\n        /* \"#utility.yul\":5252:5262   */\n      swap4\n      pop\n        /* \"#utility.yul\":4660:5268   */\n      pop\n      pop\n      pop\n        /* \"#utility.yul\":4536:5268   */\n      swap3\n      swap2\n      pop\n      pop\n      jump\t// out\n        /* \"#utility.yul\":5274:5647   */\n    tag_9:\n        /* \"#utility.yul\":5417:5421   */\n      0x00\n        /* \"#utility.yul\":5455:5457   */\n      0x20\n        /* \"#utility.yul\":5444:5453   */\n      dup3\n        /* \"#utility.yul\":5440:5458   */\n      add\n        /* \"#utility.yul\":5432:5458   */\n      swap1\n      pop\n        /* \"#utility.yul\":5504:5513   */\n      dup2\n        /* \"#utility.yul\":5498:5502   */\n      dup2\n        /* \"#utility.yul\":5494:5514   */\n      sub\n        /* \"#utility.yul\":5490:5491   */\n      0x00\n        /* \"#utility.yul\":5479:5488   */\n      dup4\n        /* \"#utility.yul\":5475:5492   */\n      add\n        /* \"#utility.yul\":5468:5515   */\n      mstore\n        /* \"#utility.yul\":5532:5640   */\n      tag_144\n        /* \"#utility.yul\":5635:5639   */\n      dup2\n        /* \"#utility.yul\":5626:5632   */\n      dup5\n        /* \"#utility.yul\":5532:5640   */\n      tag_80\n      jump\t// in\n    tag_144:\n        /* \"#utility.yul\":5524:5640   */\n      swap1\n      pop\n        /* \"#utility.yul\":5274:5647   */\n      swap3\n      swap2\n      pop\n      pop\n      jump\t// out\n        /* \"#utility.yul\":5653:5833   */\n    tag_81:\n        /* \"#utility.yul\":5701:5778   */\n      0x4e487b7100000000000000000000000000000000000000000000000000000000\n        /* \"#utility.yul\":5698:5699   */\n      0x00\n        /* \"#utility.yul\":5691:5779   */\n      mstore\n        /* \"#utility.yul\":5798:5802   */\n      0x11\n        /* \"#utility.yul\":5795:5796   */\n      0x04\n        /* \"#utility.yul\":5788:5803   */\n      mstore\n        /* \"#utility.yul\":5822:5826   */\n      0x24\n        /* \"#utility.yul\":5819:5820   */\n      0x00\n        /* \"#utility.yul\":5812:5827   */\n      revert\n        /* \"#utility.yul\":5839:6033   */\n    tag_18:\n        /* \"#utility.yul\":5879:5883   */\n      0x00\n        /* \"#utility.yul\":5899:5919   */\n      tag_147\n        /* \"#utility.yul\":5917:5918   */\n      dup3\n        /* \"#utility.yul\":5899:5919   */\n      tag_69\n      jump\t// in\n    tag_147:\n        /* \"#utility.yul\":5894:5919   */\n      swap2\n      pop\n        /* \"#utility.yul\":5933:5953   */\n      tag_148\n        /* \"#utility.yul\":5951:5952   */\n      dup4\n        /* \"#utility.yul\":5933:5953   */\n      tag_69\n      jump\t// in\n    tag_148:\n        /* \"#utility.yul\":5928:5953   */\n      swap3\n      pop\n        /* \"#utility.yul\":5977:5978   */\n      dup3\n        /* \"#utility.yul\":5974:5975   */\n      dup3\n        /* \"#utility.yul\":5970:5979   */\n      sub\n        /* \"#utility.yul\":5962:5979   */\n      swap1\n      pop\n        /* \"#utility.yul\":6001:6002   */\n      dup2\n        /* \"#utility.yul\":5995:5999   */\n      dup2\n        /* \"#utility.yul\":5992:6003   */\n      gt\n        /* \"#utility.yul\":5989:6026   */\n      iszero\n      tag_149\n      jumpi\n        /* \"#utility.yul\":6006:6024   */\n      tag_150\n      tag_81\n      jump\t// in\n    tag_150:\n        /* \"#utility.yul\":5989:6026   */\n    tag_149:\n        /* \"#utility.yul\":5839:6033   */\n      swap3\n      swap2\n      pop\n      pop\n      jump\t// out\n        /* \"#utility.yul\":6039:6230   */\n    tag_21:\n        /* \"#utility.yul\":6079:6082   */\n      0x00\n        /* \"#utility.yul\":6098:6118   */\n      tag_152\n        /* \"#utility.yul\":6116:6117   */\n      dup3\n        /* \"#utility.yul\":6098:6118   */\n      tag_69\n      jump\t// in\n    tag_152:\n        /* \"#utility.yul\":6093:6118   */\n      swap2\n      pop\n        /* \"#utility.yul\":6132:6152   */\n      tag_153\n        /* \"#utility.yul\":6150:6151   */\n      dup4\n        /* \"#utility.yul\":6132:6152   */\n      tag_69\n      jump\t// in\n    tag_153:\n        /* \"#utility.yul\":6127:6152   */\n      swap3\n      pop\n        /* \"#utility.yul\":6175:6176   */\n      dup3\n        /* \"#utility.yul\":6172:6173   */\n      dup3\n        /* \"#utility.yul\":6168:6177   */\n      add\n        /* \"#utility.yul\":6161:6177   */\n      swap1\n      pop\n        /* \"#utility.yul\":6196:6199   */\n      dup1\n        /* \"#utility.yul\":6193:6194   */\n      dup3\n        /* \"#utility.yul\":6190:6200   */\n      gt\n        /* \"#utility.yul\":6187:6223   */\n      iszero\n      tag_154\n      jumpi\n        /* \"#utility.yul\":6203:6221   */\n      tag_155\n      tag_81\n      jump\t// in\n    tag_155:\n        /* \"#utility.yul\":6187:6223   */\n    tag_154:\n        /* \"#utility.yul\":6039:6230   */\n      swap3\n      swap2\n      pop\n      pop\n      jump\t// out\n        /* \"#utility.yul\":6236:6416   */\n    tag_24:\n        /* \"#utility.yul\":6284:6361   */\n      0x4e487b7100000000000000000000000000000000000000000000000000000000\n        /* \"#utility.yul\":6281:6282   */\n      0x00\n        /* \"#utility.yul\":6274:6362   */\n      mstore\n        /* \"#utility.yul\":6381:6385   */\n      0x32\n        /* \"#utility.yul\":6378:6379   */\n      0x04\n        /* \"#utility.yul\":6371:6386   */\n      mstore\n        /* \"#utility.yul\":6405:6409   */\n      0x24\n        /* \"#utility.yul\":6402:6403   */\n      0x00\n        /* \"#utility.yul\":6395:6410   */\n      revert\n        /* \"#utility.yul\":6422:6602   */\n    tag_82:\n        /* \"#utility.yul\":6470:6547   */\n      0x4e487b7100000000000000000000000000000000000000000000000000000000\n        /* \"#utility.yul\":6467:6468   */\n      0x00\n        /* \"#utility.yul\":6460:6548   */\n      mstore\n        /* \"#utility.yul\":6567:6571   */\n      0x12\n        /* \"#utility.yul\":6564:6565   */\n      0x04\n        /* \"#utility.yul\":6557:6572   */\n      mstore\n        /* \"#utility.yul\":6591:6595   */\n      0x24\n        /* \"#utility.yul\":6588:6589   */\n      0x00\n        /* \"#utility.yul\":6581:6596   */\n      revert\n        /* \"#utility.yul\":6608:6784   */\n    tag_39:\n        /* \"#utility.yul\":6640:6641   */\n      0x00\n        /* \"#utility.yul\":6657:6677   */\n      tag_159\n        /* \"#utility.yul\":6675:6676   */\n      dup3\n        /* \"#utility.yul\":6657:6677   */\n      tag_69\n      jump\t// in\n    tag_159:\n        /* \"#utility.yul\":6652:6677   */\n      swap2\n      pop\n        /* \"#utility.yul\":6691:6711   */\n      tag_160\n        /* \"#utility.yul\":6709:6710   */\n      dup4\n        /* \"#utility.yul\":6691:6711   */\n      tag_69\n      jump\t// in\n    tag_160:\n        /* \"#utility.yul\":6686:6711   */\n      swap3\n      pop\n        /* \"#utility.yul\":6730:6731   */\n      dup3\n        /* \"#utility.yul\":6720:6755   */\n      tag_161\n      jumpi\n        /* \"#utility.yul\":6735:6753   */\n      tag_162\n      tag_82\n      jump\t// in\n    tag_162:\n        /* \"#utility.yul\":6720:6755   */\n    tag_161:\n        /* \"#utility.yul\":6776:6777   */\n      dup3\n        /* \"#utility.yul\":6773:6774   */\n      dup3\n        /* \"#utility.yul\":6769:6778   */\n      mod\n        /* \"#utility.yul\":6764:6778   */\n      swap1\n      pop\n        /* \"#utility.yul\":6608:6784   */\n      swap3\n      swap2\n      pop\n      pop\n      jump\t// out\n        /* \"#utility.yul\":6790:6975   */\n    tag_42:\n        /* \"#utility.yul\":6830:6831   */\n      0x00\n        /* \"#utility.yul\":6847:6867   */\n      tag_164\n        /* \"#utility.yul\":6865:6866   */\n      dup3\n        /* \"#utility.yul\":6847:6867   */\n      tag_69\n      jump\t// in\n    tag_164:\n        /* \"#utility.yul\":6842:6867   */\n      swap2\n      pop\n        /* \"#utility.yul\":6881:6901   */\n      tag_165\n        /* \"#utility.yul\":6899:6900   */\n      dup4\n        /* \"#utility.yul\":6881:6901   */\n      tag_69\n      jump\t// in\n    tag_165:\n        /* \"#utility.yul\":6876:6901   */\n      swap3\n      pop\n        /* \"#utility.yul\":6920:6921   */\n      dup3\n        /* \"#utility.yul\":6910:6945   */\n      tag_166\n      jumpi\n        /* \"#utility.yul\":6925:6943   */\n      tag_167\n      tag_82\n      jump\t// in\n    tag_167:\n        /* \"#utility.yul\":6910:6945   */\n    tag_166:\n        /* \"#utility.yul\":6967:6968   */\n      dup3\n        /* \"#utility.yul\":6964:6965   */\n      dup3\n        /* \"#utility.yul\":6960:6969   */\n      div\n        /* \"#utility.yul\":6955:6969   */\n      swap1\n      pop\n        /* \"#utility.yul\":6790:6975   */\n      swap3\n      swap2\n      pop\n      pop\n      jump\t// out\n\n    auxdata: 0xa264697066735822122076481ff205dd55fefc02473e42be2d86c4fadd198c45e9d0f294f3a7990bcd9c64736f6c634300081a0033\n}\n",
				"bytecode": {
					"linkReferences": {},
					"object": "6080604052348015600e575f80fd5b506106bf8061001c5f395ff3fe608060405234801561000f575f80fd5b5060043610610029575f3560e01c80633a2388411461002d575b5f80fd5b6100476004803603810190610042919061041e565b61005d565b604051610054919061051c565b60405180910390f35b60605f825190505f5b81811015610184575f5b8160018461007e9190610569565b6100889190610569565b811015610176578460018261009d919061059c565b815181106100ae576100ad6105cf565b5b60200260200101518582815181106100c9576100c86105cf565b5b60200260200101511015610169575f8582815181106100eb576100ea6105cf565b5b6020026020010151905085600183610103919061059c565b81518110610114576101136105cf565b5b602002602001015186838151811061012f5761012e6105cf565b5b602002602001018181525050808660018461014a919061059c565b8151811061015b5761015a6105cf565b5b602002602001018181525050505b8080600101915050610070565b508080600101915050610066565b50606060016002836101969190610629565b036101e657836002836101a99190610659565b815181106101ba576101b96105cf565b5b6020026020010151815f815181106101d5576101d46105cf565b5b602002602001018181525050610280565b8360016002846101f69190610659565b6102009190610569565b81518110610211576102106105cf565b5b6020026020010151815f8151811061022c5761022b6105cf565b5b602002602001018181525050836002836102469190610659565b81518110610257576102566105cf565b5b602002602001015181600181518110610273576102726105cf565b5b6020026020010181815250505b8092505050919050565b5f604051905090565b5f80fd5b5f80fd5b5f80fd5b5f601f19601f8301169050919050565b7f4e487b71000000000000000000000000000000000000000000000000000000005f52604160045260245ffd5b6102e58261029f565b810181811067ffffffffffffffff82111715610304576103036102af565b5b80604052505050565b5f61031661028a565b905061032282826102dc565b919050565b5f67ffffffffffffffff821115610341576103406102af565b5b602082029050602081019050919050565b5f80fd5b5f819050919050565b61036881610356565b8114610372575f80fd5b50565b5f813590506103838161035f565b92915050565b5f61039b61039684610327565b61030d565b905080838252602082019050602084028301858111156103be576103bd610352565b5b835b818110156103e757806103d38882610375565b8452602084019350506020810190506103c0565b5050509392505050565b5f82601f8301126104055761040461029b565b5b8135610415848260208601610389565b91505092915050565b5f6020828403121561043357610432610293565b5b5f82013567ffffffffffffffff8111156104505761044f610297565b5b61045c848285016103f1565b91505092915050565b5f81519050919050565b5f82825260208201905092915050565b5f819050602082019050919050565b61049781610356565b82525050565b5f6104a8838361048e565b60208301905092915050565b5f602082019050919050565b5f6104ca82610465565b6104d4818561046f565b93506104df8361047f565b805f5b8381101561050f5781516104f6888261049d565b9750610501836104b4565b9250506001810190506104e2565b5085935050505092915050565b5f6020820190508181035f83015261053481846104c0565b905092915050565b7f4e487b71000000000000000000000000000000000000000000000000000000005f52601160045260245ffd5b5f61057382610356565b915061057e83610356565b92508282039050818111156105965761059561053c565b5b92915050565b5f6105a682610356565b91506105b183610356565b92508282019050808211156105c9576105c861053c565b5b92915050565b7f4e487b71000000000000000000000000000000000000000000000000000000005f52603260045260245ffd5b7f4e487b71000000000000000000000000000000000000000000000000000000005f52601260045260245ffd5b5f61063382610356565b915061063e83610356565b92508261064e5761064d6105fc565b5b828206905092915050565b5f61066382610356565b915061066e83610356565b92508261067e5761067d6105fc565b5b82820490509291505056fea264697066735822122076481ff205dd55fefc02473e42be2d86c4fadd198c45e9d0f294f3a7990bcd9c64736f6c634300081a0033",
					"opcodes": "PUSH1 0x80 PUSH1 0x40 MSTORE CALLVALUE DUP1 ISZERO PUSH1 0xE JUMPI PUSH0 DUP1 REVERT JUMPDEST POP PUSH2 0x6BF DUP1 PUSH2 0x1C PUSH0 CODECOPY PUSH0 RETURN INVALID PUSH1 0x80 PUSH1 0x40 MSTORE CALLVALUE DUP1 ISZERO PUSH2 0xF JUMPI PUSH0 DUP1 REVERT JUMPDEST POP PUSH1 0x4 CALLDATASIZE LT PUSH2 0x29 JUMPI PUSH0 CALLDATALOAD PUSH1 0xE0 SHR DUP1 PUSH4 0x3A238841 EQ PUSH2 0x2D JUMPI JUMPDEST PUSH0 DUP1 REVERT JUMPDEST PUSH2 0x47 PUSH1 0x4 DUP1 CALLDATASIZE SUB DUP2 ADD SWAP1 PUSH2 0x42 SWAP2 SWAP1 PUSH2 0x41E JUMP JUMPDEST PUSH2 0x5D JUMP JUMPDEST PUSH1 0x40 MLOAD PUSH2 0x54 SWAP2 SWAP1 PUSH2 0x51C JUMP JUMPDEST PUSH1 0x40 MLOAD DUP1 SWAP2 SUB SWAP1 RETURN JUMPDEST PUSH1 0x60 PUSH0 DUP3 MLOAD SWAP1 POP PUSH0 JUMPDEST DUP2 DUP2 LT ISZERO PUSH2 0x184 JUMPI PUSH0 JUMPDEST DUP2 PUSH1 0x1 DUP5 PUSH2 0x7E SWAP2 SWAP1 PUSH2 0x569 JUMP JUMPDEST PUSH2 0x88 SWAP2 SWAP1 PUSH2 0x569 JUMP JUMPDEST DUP2 LT ISZERO PUSH2 0x176 JUMPI DUP5 PUSH1 0x1 DUP3 PUSH2 0x9D SWAP2 SWAP1 PUSH2 0x59C JUMP JUMPDEST DUP2 MLOAD DUP2 LT PUSH2 0xAE JUMPI PUSH2 0xAD PUSH2 0x5CF JUMP JUMPDEST JUMPDEST PUSH1 0x20 MUL PUSH1 0x20 ADD ADD MLOAD DUP6 DUP3 DUP2 MLOAD DUP2 LT PUSH2 0xC9 JUMPI PUSH2 0xC8 PUSH2 0x5CF JUMP JUMPDEST JUMPDEST PUSH1 0x20 MUL PUSH1 0x20 ADD ADD MLOAD LT ISZERO PUSH2 0x169 JUMPI PUSH0 DUP6 DUP3 DUP2 MLOAD DUP2 LT PUSH2 0xEB JUMPI PUSH2 0xEA PUSH2 0x5CF JUMP JUMPDEST JUMPDEST PUSH1 0x20 MUL PUSH1 0x20 ADD ADD MLOAD SWAP1 POP DUP6 PUSH1 0x1 DUP4 PUSH2 0x103 SWAP2 SWAP1 PUSH2 0x59C JUMP JUMPDEST DUP2 MLOAD DUP2 LT PUSH2 0x114 JUMPI PUSH2 0x113 PUSH2 0x5CF JUMP JUMPDEST JUMPDEST PUSH1 0x20 MUL PUSH1 0x20 ADD ADD MLOAD DUP7 DUP4 DUP2 MLOAD DUP2 LT PUSH2 0x12F JUMPI PUSH2 0x12E PUSH2 0x5CF JUMP JUMPDEST JUMPDEST PUSH1 0x20 MUL PUSH1 0x20 ADD ADD DUP2 DUP2 MSTORE POP POP DUP1 DUP7 PUSH1 0x1 DUP5 PUSH2 0x14A SWAP2 SWAP1 PUSH2 0x59C JUMP JUMPDEST DUP2 MLOAD DUP2 LT PUSH2 0x15B JUMPI PUSH2 0x15A PUSH2 0x5CF JUMP JUMPDEST JUMPDEST PUSH1 0x20 MUL PUSH1 0x20 ADD ADD DUP2 DUP2 MSTORE POP POP POP JUMPDEST DUP1 DUP1 PUSH1 0x1 ADD SWAP2 POP POP PUSH2 0x70 JUMP JUMPDEST POP DUP1 DUP1 PUSH1 0x1 ADD SWAP2 POP POP PUSH2 0x66 JUMP JUMPDEST POP PUSH1 0x60 PUSH1 0x1 PUSH1 0x2 DUP4 PUSH2 0x196 SWAP2 SWAP1 PUSH2 0x629 JUMP JUMPDEST SUB PUSH2 0x1E6 JUMPI DUP4 PUSH1 0x2 DUP4 PUSH2 0x1A9 SWAP2 SWAP1 PUSH2 0x659 JUMP JUMPDEST DUP2 MLOAD DUP2 LT PUSH2 0x1BA JUMPI PUSH2 0x1B9 PUSH2 0x5CF JUMP JUMPDEST JUMPDEST PUSH1 0x20 MUL PUSH1 0x20 ADD ADD MLOAD DUP2 PUSH0 DUP2 MLOAD DUP2 LT PUSH2 0x1D5 JUMPI PUSH2 0x1D4 PUSH2 0x5CF JUMP JUMPDEST JUMPDEST PUSH1 0x20 MUL PUSH1 0x20 ADD ADD DUP2 DUP2 MSTORE POP POP PUSH2 0x280 JUMP JUMPDEST DUP4 PUSH1 0x1 PUSH1 0x2 DUP5 PUSH2 0x1F6 SWAP2 SWAP1 PUSH2 0x659 JUMP JUMPDEST PUSH2 0x200 SWAP2 SWAP1 PUSH2 0x569 JUMP JUMPDEST DUP2 MLOAD DUP2 LT PUSH2 0x211 JUMPI PUSH2 0x210 PUSH2 0x5CF JUMP JUMPDEST JUMPDEST PUSH1 0x20 MUL PUSH1 0x20 ADD ADD MLOAD DUP2 PUSH0 DUP2 MLOAD DUP2 LT PUSH2 0x22C JUMPI PUSH2 0x22B PUSH2 0x5CF JUMP JUMPDEST JUMPDEST PUSH1 0x20 MUL PUSH1 0x20 ADD ADD DUP2 DUP2 MSTORE POP POP DUP4 PUSH1 0x2 DUP4 PUSH2 0x246 SWAP2 SWAP1 PUSH2 0x659 JUMP JUMPDEST DUP2 MLOAD DUP2 LT PUSH2 0x257 JUMPI PUSH2 0x256 PUSH2 0x5CF JUMP JUMPDEST JUMPDEST PUSH1 0x20 MUL PUSH1 0x20 ADD ADD MLOAD DUP2 PUSH1 0x1 DUP2 MLOAD DUP2 LT PUSH2 0x273 JUMPI PUSH2 0x272 PUSH2 0x5CF JUMP JUMPDEST JUMPDEST PUSH1 0x20 MUL PUSH1 0x20 ADD ADD DUP2 DUP2 MSTORE POP POP JUMPDEST DUP1 SWAP3 POP POP POP SWAP2 SWAP1 POP JUMP JUMPDEST PUSH0 PUSH1 0x40 MLOAD SWAP1 POP SWAP1 JUMP JUMPDEST PUSH0 DUP1 REVERT JUMPDEST PUSH0 DUP1 REVERT JUMPDEST PUSH0 DUP1 REVERT JUMPDEST PUSH0 PUSH1 0x1F NOT PUSH1 0x1F DUP4 ADD AND SWAP1 POP SWAP2 SWAP1 POP JUMP JUMPDEST PUSH32 0x4E487B7100000000000000000000000000000000000000000000000000000000 PUSH0 MSTORE PUSH1 0x41 PUSH1 0x4 MSTORE PUSH1 0x24 PUSH0 REVERT JUMPDEST PUSH2 0x2E5 DUP3 PUSH2 0x29F JUMP JUMPDEST DUP2 ADD DUP2 DUP2 LT PUSH8 0xFFFFFFFFFFFFFFFF DUP3 GT OR ISZERO PUSH2 0x304 JUMPI PUSH2 0x303 PUSH2 0x2AF JUMP JUMPDEST JUMPDEST DUP1 PUSH1 0x40 MSTORE POP POP POP JUMP JUMPDEST PUSH0 PUSH2 0x316 PUSH2 0x28A JUMP JUMPDEST SWAP1 POP PUSH2 0x322 DUP3 DUP3 PUSH2 0x2DC JUMP JUMPDEST SWAP2 SWAP1 POP JUMP JUMPDEST PUSH0 PUSH8 0xFFFFFFFFFFFFFFFF DUP3 GT ISZERO PUSH2 0x341 JUMPI PUSH2 0x340 PUSH2 0x2AF JUMP JUMPDEST JUMPDEST PUSH1 0x20 DUP3 MUL SWAP1 POP PUSH1 0x20 DUP2 ADD SWAP1 POP SWAP2 SWAP1 POP JUMP JUMPDEST PUSH0 DUP1 REVERT JUMPDEST PUSH0 DUP2 SWAP1 POP SWAP2 SWAP1 POP JUMP JUMPDEST PUSH2 0x368 DUP2 PUSH2 0x356 JUMP JUMPDEST DUP2 EQ PUSH2 0x372 JUMPI PUSH0 DUP1 REVERT JUMPDEST POP JUMP JUMPDEST PUSH0 DUP2 CALLDATALOAD SWAP1 POP PUSH2 0x383 DUP2 PUSH2 0x35F JUMP JUMPDEST SWAP3 SWAP2 POP POP JUMP JUMPDEST PUSH0 PUSH2 0x39B PUSH2 0x396 DUP5 PUSH2 0x327 JUMP JUMPDEST PUSH2 0x30D JUMP JUMPDEST SWAP1 POP DUP1 DUP4 DUP3 MSTORE PUSH1 0x20 DUP3 ADD SWAP1 POP PUSH1 0x20 DUP5 MUL DUP4 ADD DUP6 DUP2 GT ISZERO PUSH2 0x3BE JUMPI PUSH2 0x3BD PUSH2 0x352 JUMP JUMPDEST JUMPDEST DUP4 JUMPDEST DUP2 DUP2 LT ISZERO PUSH2 0x3E7 JUMPI DUP1 PUSH2 0x3D3 DUP9 DUP3 PUSH2 0x375 JUMP JUMPDEST DUP5 MSTORE PUSH1 0x20 DUP5 ADD SWAP4 POP POP PUSH1 0x20 DUP2 ADD SWAP1 POP PUSH2 0x3C0 JUMP JUMPDEST POP POP POP SWAP4 SWAP3 POP POP POP JUMP JUMPDEST PUSH0 DUP3 PUSH1 0x1F DUP4 ADD SLT PUSH2 0x405 JUMPI PUSH2 0x404 PUSH2 0x29B JUMP JUMPDEST JUMPDEST DUP2 CALLDATALOAD PUSH2 0x415 DUP5 DUP3 PUSH1 0x20 DUP7 ADD PUSH2 0x389 JUMP JUMPDEST SWAP2 POP POP SWAP3 SWAP2 POP POP JUMP JUMPDEST PUSH0 PUSH1 0x20 DUP3 DUP5 SUB SLT ISZERO PUSH2 0x433 JUMPI PUSH2 0x432 PUSH2 0x293 JUMP JUMPDEST JUMPDEST PUSH0 DUP3 ADD CALLDATALOAD PUSH8 0xFFFFFFFFFFFFFFFF DUP2 GT ISZERO PUSH2 0x450 JUMPI PUSH2 0x44F PUSH2 0x297 JUMP JUMPDEST JUMPDEST PUSH2 0x45C DUP5 DUP3 DUP6 ADD PUSH2 0x3F1 JUMP JUMPDEST SWAP2 POP POP SWAP3 SWAP2 POP POP JUMP JUMPDEST PUSH0 DUP2 MLOAD SWAP1 POP SWAP2 SWAP1 POP JUMP JUMPDEST PUSH0 DUP3 DUP3 MSTORE PUSH1 0x20 DUP3 ADD SWAP1 POP SWAP3 SWAP2 POP POP JUMP JUMPDEST PUSH0 DUP2 SWAP1 POP PUSH1 0x20 DUP3 ADD SWAP1 POP SWAP2 SWAP1 POP JUMP JUMPDEST PUSH2 0x497 DUP2 PUSH2 0x356 JUMP JUMPDEST DUP3 MSTORE POP POP JUMP JUMPDEST PUSH0 PUSH2 0x4A8 DUP4 DUP4 PUSH2 0x48E JUMP JUMPDEST PUSH1 0x20 DUP4 ADD SWAP1 POP SWAP3 SWAP2 POP POP JUMP JUMPDEST PUSH0 PUSH1 0x20 DUP3 ADD SWAP1 POP SWAP2 SWAP1 POP JUMP JUMPDEST PUSH0 PUSH2 0x4CA DUP3 PUSH2 0x465 JUMP JUMPDEST PUSH2 0x4D4 DUP2 DUP6 PUSH2 0x46F JUMP JUMPDEST SWAP4 POP PUSH2 0x4DF DUP4 PUSH2 0x47F JUMP JUMPDEST DUP1 PUSH0 JUMPDEST DUP4 DUP2 LT ISZERO PUSH2 0x50F JUMPI DUP2 MLOAD PUSH2 0x4F6 DUP9 DUP3 PUSH2 0x49D JUMP JUMPDEST SWAP8 POP PUSH2 0x501 DUP4 PUSH2 0x4B4 JUMP JUMPDEST SWAP3 POP POP PUSH1 0x1 DUP2 ADD SWAP1 POP PUSH2 0x4E2 JUMP JUMPDEST POP DUP6 SWAP4 POP POP POP POP SWAP3 SWAP2 POP POP JUMP JUMPDEST PUSH0 PUSH1 0x20 DUP3 ADD SWAP1 POP DUP2 DUP2 SUB PUSH0 DUP4 ADD MSTORE PUSH2 0x534 DUP2 DUP5 PUSH2 0x4C0 JUMP JUMPDEST SWAP1 POP SWAP3 SWAP2 POP POP JUMP JUMPDEST PUSH32 0x4E487B7100000000000000000000000000000000000000000000000000000000 PUSH0 MSTORE PUSH1 0x11 PUSH1 0x4 MSTORE PUSH1 0x24 PUSH0 REVERT JUMPDEST PUSH0 PUSH2 0x573 DUP3 PUSH2 0x356 JUMP JUMPDEST SWAP2 POP PUSH2 0x57E DUP4 PUSH2 0x356 JUMP JUMPDEST SWAP3 POP DUP3 DUP3 SUB SWAP1 POP DUP2 DUP2 GT ISZERO PUSH2 0x596 JUMPI PUSH2 0x595 PUSH2 0x53C JUMP JUMPDEST JUMPDEST SWAP3 SWAP2 POP POP JUMP JUMPDEST PUSH0 PUSH2 0x5A6 DUP3 PUSH2 0x356 JUMP JUMPDEST SWAP2 POP PUSH2 0x5B1 DUP4 PUSH2 0x356 JUMP JUMPDEST SWAP3 POP DUP3 DUP3 ADD SWAP1 POP DUP1 DUP3 GT ISZERO PUSH2 0x5C9 JUMPI PUSH2 0x5C8 PUSH2 0x53C JUMP JUMPDEST JUMPDEST SWAP3 SWAP2 POP POP JUMP JUMPDEST PUSH32 0x4E487B7100000000000000000000000000000000000000000000000000000000 PUSH0 MSTORE PUSH1 0x32 PUSH1 0x4 MSTORE PUSH1 0x24 PUSH0 REVERT JUMPDEST PUSH32 0x4E487B7100000000000000000000000000000000000000000000000000000000 PUSH0 MSTORE PUSH1 0x12 PUSH1 0x4 MSTORE PUSH1 0x24 PUSH0 REVERT JUMPDEST PUSH0 PUSH2 0x633 DUP3 PUSH2 0x356 JUMP JUMPDEST SWAP2 POP PUSH2 0x63E DUP4 PUSH2 0x356 JUMP JUMPDEST SWAP3 POP DUP3 PUSH2 0x64E JUMPI PUSH2 0x64D PUSH2 0x5FC JUMP JUMPDEST JUMPDEST DUP3 DUP3 MOD SWAP1 POP SWAP3 SWAP2 POP POP JUMP JUMPDEST PUSH0 PUSH2 0x663 DUP3 PUSH2 0x356 JUMP JUMPDEST SWAP2 POP PUSH2 0x66E DUP4 PUSH2 0x356 JUMP JUMPDEST SWAP3 POP DUP3 PUSH2 0x67E JUMPI PUSH2 0x67D PUSH2 0x5FC JUMP JUMPDEST JUMPDEST DUP3 DUP3 DIV SWAP1 POP SWAP3 SWAP2 POP POP JUMP INVALID LOG2 PUSH5 0x6970667358 0x22 SLT KECCAK256 PUSH23 0x481FF205DD55FEFC02473E42BE2D86C4FADD198C45E9D0 CALLCODE SWAP5 RETURN 0xA7 SWAP10 SIGNEXTEND 0xCD SWAP13 PUSH5 0x736F6C6343 STOP ADDMOD BYTE STOP CALLER "
				},
				"gasEstimates": {
					"creation": {
						"codeDepositCost": "345400",
						"executionCost": "378",
						"totalCost": "345778"
					},
					"external": {
						"findMedian(uint256[])": "infinite"
					}
				},
				"methodIdentifiers": {
					"findMedian(uint256[])": "3a238841"
				}
			},
			"storageLayout": {
				"storage": [],
				"types": null
			},
			"userdoc": {
				"kind": "user",
				"methods": {},
				"version": 1
			}
		}
	}
}