{
	"solidity/solidity31~40.sol": {
		"Q36": {
			"abi": [
				{
					"inputs": [],
					"name": "currentStatus",
					"outputs": [
						{
							"internalType": "string",
							"name": "",
							"type": "string"
						}
					],
					"stateMutability": "view",
					"type": "function"
				},
				{
					"inputs": [
						{
							"internalType": "uint256",
							"name": "_a",
							"type": "uint256"
						}
					],
					"name": "setStatus",
					"outputs": [],
					"stateMutability": "nonpayable",
					"type": "function"
				}
			],
			"devdoc": {
				"kind": "dev",
				"methods": {},
				"version": 1
			},
			"evm": {
				"assembly": "    /* \"solidity/solidity31~40.sol\":3187:3678  contract Q36 {... */\n  mstore(0x40, 0x80)\n  callvalue\n  dup1\n  iszero\n  tag_1\n  jumpi\n  0x00\n  dup1\n  revert\ntag_1:\n  pop\n  dataSize(sub_0)\n  dup1\n  dataOffset(sub_0)\n  0x00\n  codecopy\n  0x00\n  return\nstop\n\nsub_0: assembly {\n        /* \"solidity/solidity31~40.sol\":3187:3678  contract Q36 {... */\n      mstore(0x40, 0x80)\n      callvalue\n      dup1\n      iszero\n      tag_1\n      jumpi\n      0x00\n      dup1\n      revert\n    tag_1:\n      pop\n      jumpi(tag_2, lt(calldatasize, 0x04))\n      shr(0xe0, calldataload(0x00))\n      dup1\n      0x69ba1a75\n      eq\n      tag_3\n      jumpi\n      dup1\n      0xef8a9235\n      eq\n      tag_4\n      jumpi\n    tag_2:\n      0x00\n      dup1\n      revert\n        /* \"solidity/solidity31~40.sol\":3444:3676  function setStatus(uint _a) public {... */\n    tag_3:\n      tag_5\n      0x04\n      dup1\n      calldatasize\n      sub\n      dup2\n      add\n      swap1\n      tag_6\n      swap2\n      swap1\n      tag_7\n      jump\t// in\n    tag_6:\n      tag_8\n      jump\t// in\n    tag_5:\n      stop\n        /* \"solidity/solidity31~40.sol\":3409:3436  string public currentStatus */\n    tag_4:\n      tag_9\n      tag_10\n      jump\t// in\n    tag_9:\n      mload(0x40)\n      tag_11\n      swap2\n      swap1\n      tag_12\n      jump\t// in\n    tag_11:\n      mload(0x40)\n      dup1\n      swap2\n      sub\n      swap1\n      return\n        /* \"solidity/solidity31~40.sol\":3444:3676  function setStatus(uint _a) public {... */\n    tag_8:\n        /* \"solidity/solidity31~40.sol\":3499:3500  7 */\n      0x07\n        /* \"solidity/solidity31~40.sol\":3493:3495  _a */\n      dup2\n        /* \"solidity/solidity31~40.sol\":3493:3500  _a >= 7 */\n      lt\n        /* \"solidity/solidity31~40.sol\":3489:3670  if (_a >= 7) {... */\n      tag_14\n      jumpi\n        /* \"solidity/solidity31~40.sol\":3516:3538  currentStatus = \"high\" */\n      mload(0x40)\n      dup1\n      0x40\n      add\n      0x40\n      mstore\n      dup1\n      0x04\n      dup2\n      mstore\n      0x20\n      add\n      0x6869676800000000000000000000000000000000000000000000000000000000\n      dup2\n      mstore\n      pop\n        /* \"solidity/solidity31~40.sol\":3516:3529  currentStatus */\n      0x00\n        /* \"solidity/solidity31~40.sol\":3516:3538  currentStatus = \"high\" */\n      swap1\n      dup2\n      tag_15\n      swap2\n      swap1\n      tag_16\n      jump\t// in\n    tag_15:\n      pop\n        /* \"solidity/solidity31~40.sol\":3489:3670  if (_a >= 7) {... */\n      jump(tag_17)\n    tag_14:\n        /* \"solidity/solidity31~40.sol\":3565:3566  4 */\n      0x04\n        /* \"solidity/solidity31~40.sol\":3559:3561  _a */\n      dup2\n        /* \"solidity/solidity31~40.sol\":3559:3566  _a >= 4 */\n      lt\n        /* \"solidity/solidity31~40.sol\":3555:3670  if (_a >= 4) {... */\n      tag_18\n      jumpi\n        /* \"solidity/solidity31~40.sol\":3582:3607  currentStatus = \"neutral\" */\n      mload(0x40)\n      dup1\n      0x40\n      add\n      0x40\n      mstore\n      dup1\n      0x07\n      dup2\n      mstore\n      0x20\n      add\n      0x6e65757472616c00000000000000000000000000000000000000000000000000\n      dup2\n      mstore\n      pop\n        /* \"solidity/solidity31~40.sol\":3582:3595  currentStatus */\n      0x00\n        /* \"solidity/solidity31~40.sol\":3582:3607  currentStatus = \"neutral\" */\n      swap1\n      dup2\n      tag_19\n      swap2\n      swap1\n      tag_16\n      jump\t// in\n    tag_19:\n      pop\n        /* \"solidity/solidity31~40.sol\":3555:3670  if (_a >= 4) {... */\n      jump(tag_20)\n    tag_18:\n        /* \"solidity/solidity31~40.sol\":3638:3659  currentStatus = \"low\" */\n      mload(0x40)\n      dup1\n      0x40\n      add\n      0x40\n      mstore\n      dup1\n      0x03\n      dup2\n      mstore\n      0x20\n      add\n      0x6c6f770000000000000000000000000000000000000000000000000000000000\n      dup2\n      mstore\n      pop\n        /* \"solidity/solidity31~40.sol\":3638:3651  currentStatus */\n      0x00\n        /* \"solidity/solidity31~40.sol\":3638:3659  currentStatus = \"low\" */\n      swap1\n      dup2\n      tag_21\n      swap2\n      swap1\n      tag_16\n      jump\t// in\n    tag_21:\n      pop\n        /* \"solidity/solidity31~40.sol\":3555:3670  if (_a >= 4) {... */\n    tag_20:\n        /* \"solidity/solidity31~40.sol\":3489:3670  if (_a >= 7) {... */\n    tag_17:\n        /* \"solidity/solidity31~40.sol\":3444:3676  function setStatus(uint _a) public {... */\n      pop\n      jump\t// out\n        /* \"solidity/solidity31~40.sol\":3409:3436  string public currentStatus */\n    tag_10:\n      0x00\n      dup1\n      sload\n      tag_22\n      swap1\n      tag_23\n      jump\t// in\n    tag_22:\n      dup1\n      0x1f\n      add\n      0x20\n      dup1\n      swap2\n      div\n      mul\n      0x20\n      add\n      mload(0x40)\n      swap1\n      dup2\n      add\n      0x40\n      mstore\n      dup1\n      swap3\n      swap2\n      swap1\n      dup2\n      dup2\n      mstore\n      0x20\n      add\n      dup3\n      dup1\n      sload\n      tag_24\n      swap1\n      tag_23\n      jump\t// in\n    tag_24:\n      dup1\n      iszero\n      tag_25\n      jumpi\n      dup1\n      0x1f\n      lt\n      tag_26\n      jumpi\n      0x0100\n      dup1\n      dup4\n      sload\n      div\n      mul\n      dup4\n      mstore\n      swap2\n      0x20\n      add\n      swap2\n      jump(tag_25)\n    tag_26:\n      dup3\n      add\n      swap2\n      swap1\n      0x00\n      mstore\n      keccak256(0x00, 0x20)\n      swap1\n    tag_27:\n      dup2\n      sload\n      dup2\n      mstore\n      swap1\n      0x01\n      add\n      swap1\n      0x20\n      add\n      dup1\n      dup4\n      gt\n      tag_27\n      jumpi\n      dup3\n      swap1\n      sub\n      0x1f\n      and\n      dup3\n      add\n      swap2\n    tag_25:\n      pop\n      pop\n      pop\n      pop\n      pop\n      dup2\n      jump\t// out\n        /* \"#utility.yul\":88:205   */\n    tag_29:\n        /* \"#utility.yul\":197:198   */\n      0x00\n        /* \"#utility.yul\":194:195   */\n      dup1\n        /* \"#utility.yul\":187:199   */\n      revert\n        /* \"#utility.yul\":334:411   */\n    tag_31:\n        /* \"#utility.yul\":371:378   */\n      0x00\n        /* \"#utility.yul\":400:405   */\n      dup2\n        /* \"#utility.yul\":389:405   */\n      swap1\n      pop\n        /* \"#utility.yul\":334:411   */\n      swap2\n      swap1\n      pop\n      jump\t// out\n        /* \"#utility.yul\":417:539   */\n    tag_32:\n        /* \"#utility.yul\":490:514   */\n      tag_62\n        /* \"#utility.yul\":508:513   */\n      dup2\n        /* \"#utility.yul\":490:514   */\n      tag_31\n      jump\t// in\n    tag_62:\n        /* \"#utility.yul\":483:488   */\n      dup2\n        /* \"#utility.yul\":480:515   */\n      eq\n        /* \"#utility.yul\":470:533   */\n      tag_63\n      jumpi\n        /* \"#utility.yul\":529:530   */\n      0x00\n        /* \"#utility.yul\":526:527   */\n      dup1\n        /* \"#utility.yul\":519:531   */\n      revert\n        /* \"#utility.yul\":470:533   */\n    tag_63:\n        /* \"#utility.yul\":417:539   */\n      pop\n      jump\t// out\n        /* \"#utility.yul\":545:684   */\n    tag_33:\n        /* \"#utility.yul\":591:596   */\n      0x00\n        /* \"#utility.yul\":629:635   */\n      dup2\n        /* \"#utility.yul\":616:636   */\n      calldataload\n        /* \"#utility.yul\":607:636   */\n      swap1\n      pop\n        /* \"#utility.yul\":645:678   */\n      tag_65\n        /* \"#utility.yul\":672:677   */\n      dup2\n        /* \"#utility.yul\":645:678   */\n      tag_32\n      jump\t// in\n    tag_65:\n        /* \"#utility.yul\":545:684   */\n      swap3\n      swap2\n      pop\n      pop\n      jump\t// out\n        /* \"#utility.yul\":690:1019   */\n    tag_7:\n        /* \"#utility.yul\":749:755   */\n      0x00\n        /* \"#utility.yul\":798:800   */\n      0x20\n        /* \"#utility.yul\":786:795   */\n      dup3\n        /* \"#utility.yul\":777:784   */\n      dup5\n        /* \"#utility.yul\":773:796   */\n      sub\n        /* \"#utility.yul\":769:801   */\n      slt\n        /* \"#utility.yul\":766:885   */\n      iszero\n      tag_67\n      jumpi\n        /* \"#utility.yul\":804:883   */\n      tag_68\n      tag_29\n      jump\t// in\n    tag_68:\n        /* \"#utility.yul\":766:885   */\n    tag_67:\n        /* \"#utility.yul\":924:925   */\n      0x00\n        /* \"#utility.yul\":949:1002   */\n      tag_69\n        /* \"#utility.yul\":994:1001   */\n      dup5\n        /* \"#utility.yul\":985:991   */\n      dup3\n        /* \"#utility.yul\":974:983   */\n      dup6\n        /* \"#utility.yul\":970:992   */\n      add\n        /* \"#utility.yul\":949:1002   */\n      tag_33\n      jump\t// in\n    tag_69:\n        /* \"#utility.yul\":939:1002   */\n      swap2\n      pop\n        /* \"#utility.yul\":895:1012   */\n      pop\n        /* \"#utility.yul\":690:1019   */\n      swap3\n      swap2\n      pop\n      pop\n      jump\t// out\n        /* \"#utility.yul\":1025:1124   */\n    tag_34:\n        /* \"#utility.yul\":1077:1083   */\n      0x00\n        /* \"#utility.yul\":1111:1116   */\n      dup2\n        /* \"#utility.yul\":1105:1117   */\n      mload\n        /* \"#utility.yul\":1095:1117   */\n      swap1\n      pop\n        /* \"#utility.yul\":1025:1124   */\n      swap2\n      swap1\n      pop\n      jump\t// out\n        /* \"#utility.yul\":1130:1299   */\n    tag_35:\n        /* \"#utility.yul\":1214:1225   */\n      0x00\n        /* \"#utility.yul\":1248:1254   */\n      dup3\n        /* \"#utility.yul\":1243:1246   */\n      dup3\n        /* \"#utility.yul\":1236:1255   */\n      mstore\n        /* \"#utility.yul\":1288:1292   */\n      0x20\n        /* \"#utility.yul\":1283:1286   */\n      dup3\n        /* \"#utility.yul\":1279:1293   */\n      add\n        /* \"#utility.yul\":1264:1293   */\n      swap1\n      pop\n        /* \"#utility.yul\":1130:1299   */\n      swap3\n      swap2\n      pop\n      pop\n      jump\t// out\n        /* \"#utility.yul\":1305:1444   */\n    tag_36:\n        /* \"#utility.yul\":1394:1400   */\n      dup3\n        /* \"#utility.yul\":1389:1392   */\n      dup2\n        /* \"#utility.yul\":1384:1387   */\n      dup4\n        /* \"#utility.yul\":1378:1401   */\n      mcopy\n        /* \"#utility.yul\":1435:1436   */\n      0x00\n        /* \"#utility.yul\":1426:1432   */\n      dup4\n        /* \"#utility.yul\":1421:1424   */\n      dup4\n        /* \"#utility.yul\":1417:1433   */\n      add\n        /* \"#utility.yul\":1410:1437   */\n      mstore\n        /* \"#utility.yul\":1305:1444   */\n      pop\n      pop\n      pop\n      jump\t// out\n        /* \"#utility.yul\":1450:1552   */\n    tag_37:\n        /* \"#utility.yul\":1491:1497   */\n      0x00\n        /* \"#utility.yul\":1542:1544   */\n      0x1f\n        /* \"#utility.yul\":1538:1545   */\n      not\n        /* \"#utility.yul\":1533:1535   */\n      0x1f\n        /* \"#utility.yul\":1526:1531   */\n      dup4\n        /* \"#utility.yul\":1522:1536   */\n      add\n        /* \"#utility.yul\":1518:1546   */\n      and\n        /* \"#utility.yul\":1508:1546   */\n      swap1\n      pop\n        /* \"#utility.yul\":1450:1552   */\n      swap2\n      swap1\n      pop\n      jump\t// out\n        /* \"#utility.yul\":1558:1935   */\n    tag_38:\n        /* \"#utility.yul\":1646:1649   */\n      0x00\n        /* \"#utility.yul\":1674:1713   */\n      tag_75\n        /* \"#utility.yul\":1707:1712   */\n      dup3\n        /* \"#utility.yul\":1674:1713   */\n      tag_34\n      jump\t// in\n    tag_75:\n        /* \"#utility.yul\":1729:1800   */\n      tag_76\n        /* \"#utility.yul\":1793:1799   */\n      dup2\n        /* \"#utility.yul\":1788:1791   */\n      dup6\n        /* \"#utility.yul\":1729:1800   */\n      tag_35\n      jump\t// in\n    tag_76:\n        /* \"#utility.yul\":1722:1800   */\n      swap4\n      pop\n        /* \"#utility.yul\":1809:1874   */\n      tag_77\n        /* \"#utility.yul\":1867:1873   */\n      dup2\n        /* \"#utility.yul\":1862:1865   */\n      dup6\n        /* \"#utility.yul\":1855:1859   */\n      0x20\n        /* \"#utility.yul\":1848:1853   */\n      dup7\n        /* \"#utility.yul\":1844:1860   */\n      add\n        /* \"#utility.yul\":1809:1874   */\n      tag_36\n      jump\t// in\n    tag_77:\n        /* \"#utility.yul\":1899:1928   */\n      tag_78\n        /* \"#utility.yul\":1921:1927   */\n      dup2\n        /* \"#utility.yul\":1899:1928   */\n      tag_37\n      jump\t// in\n    tag_78:\n        /* \"#utility.yul\":1894:1897   */\n      dup5\n        /* \"#utility.yul\":1890:1929   */\n      add\n        /* \"#utility.yul\":1883:1929   */\n      swap2\n      pop\n        /* \"#utility.yul\":1650:1935   */\n      pop\n        /* \"#utility.yul\":1558:1935   */\n      swap3\n      swap2\n      pop\n      pop\n      jump\t// out\n        /* \"#utility.yul\":1941:2254   */\n    tag_12:\n        /* \"#utility.yul\":2054:2058   */\n      0x00\n        /* \"#utility.yul\":2092:2094   */\n      0x20\n        /* \"#utility.yul\":2081:2090   */\n      dup3\n        /* \"#utility.yul\":2077:2095   */\n      add\n        /* \"#utility.yul\":2069:2095   */\n      swap1\n      pop\n        /* \"#utility.yul\":2141:2150   */\n      dup2\n        /* \"#utility.yul\":2135:2139   */\n      dup2\n        /* \"#utility.yul\":2131:2151   */\n      sub\n        /* \"#utility.yul\":2127:2128   */\n      0x00\n        /* \"#utility.yul\":2116:2125   */\n      dup4\n        /* \"#utility.yul\":2112:2129   */\n      add\n        /* \"#utility.yul\":2105:2152   */\n      mstore\n        /* \"#utility.yul\":2169:2247   */\n      tag_80\n        /* \"#utility.yul\":2242:2246   */\n      dup2\n        /* \"#utility.yul\":2233:2239   */\n      dup5\n        /* \"#utility.yul\":2169:2247   */\n      tag_38\n      jump\t// in\n    tag_80:\n        /* \"#utility.yul\":2161:2247   */\n      swap1\n      pop\n        /* \"#utility.yul\":1941:2254   */\n      swap3\n      swap2\n      pop\n      pop\n      jump\t// out\n        /* \"#utility.yul\":2260:2440   */\n    tag_39:\n        /* \"#utility.yul\":2308:2385   */\n      0x4e487b7100000000000000000000000000000000000000000000000000000000\n        /* \"#utility.yul\":2305:2306   */\n      0x00\n        /* \"#utility.yul\":2298:2386   */\n      mstore\n        /* \"#utility.yul\":2405:2409   */\n      0x41\n        /* \"#utility.yul\":2402:2403   */\n      0x04\n        /* \"#utility.yul\":2395:2410   */\n      mstore\n        /* \"#utility.yul\":2429:2433   */\n      0x24\n        /* \"#utility.yul\":2426:2427   */\n      0x00\n        /* \"#utility.yul\":2419:2434   */\n      revert\n        /* \"#utility.yul\":2446:2626   */\n    tag_40:\n        /* \"#utility.yul\":2494:2571   */\n      0x4e487b7100000000000000000000000000000000000000000000000000000000\n        /* \"#utility.yul\":2491:2492   */\n      0x00\n        /* \"#utility.yul\":2484:2572   */\n      mstore\n        /* \"#utility.yul\":2591:2595   */\n      0x22\n        /* \"#utility.yul\":2588:2589   */\n      0x04\n        /* \"#utility.yul\":2581:2596   */\n      mstore\n        /* \"#utility.yul\":2615:2619   */\n      0x24\n        /* \"#utility.yul\":2612:2613   */\n      0x00\n        /* \"#utility.yul\":2605:2620   */\n      revert\n        /* \"#utility.yul\":2632:2952   */\n    tag_23:\n        /* \"#utility.yul\":2676:2682   */\n      0x00\n        /* \"#utility.yul\":2713:2714   */\n      0x02\n        /* \"#utility.yul\":2707:2711   */\n      dup3\n        /* \"#utility.yul\":2703:2715   */\n      div\n        /* \"#utility.yul\":2693:2715   */\n      swap1\n      pop\n        /* \"#utility.yul\":2760:2761   */\n      0x01\n        /* \"#utility.yul\":2754:2758   */\n      dup3\n        /* \"#utility.yul\":2750:2762   */\n      and\n        /* \"#utility.yul\":2781:2799   */\n      dup1\n        /* \"#utility.yul\":2771:2852   */\n      tag_84\n      jumpi\n        /* \"#utility.yul\":2837:2841   */\n      0x7f\n        /* \"#utility.yul\":2829:2835   */\n      dup3\n        /* \"#utility.yul\":2825:2842   */\n      and\n        /* \"#utility.yul\":2815:2842   */\n      swap2\n      pop\n        /* \"#utility.yul\":2771:2852   */\n    tag_84:\n        /* \"#utility.yul\":2899:2901   */\n      0x20\n        /* \"#utility.yul\":2891:2897   */\n      dup3\n        /* \"#utility.yul\":2888:2902   */\n      lt\n        /* \"#utility.yul\":2868:2886   */\n      dup2\n        /* \"#utility.yul\":2865:2903   */\n      sub\n        /* \"#utility.yul\":2862:2946   */\n      tag_85\n      jumpi\n        /* \"#utility.yul\":2918:2936   */\n      tag_86\n      tag_40\n      jump\t// in\n    tag_86:\n        /* \"#utility.yul\":2862:2946   */\n    tag_85:\n        /* \"#utility.yul\":2683:2952   */\n      pop\n        /* \"#utility.yul\":2632:2952   */\n      swap2\n      swap1\n      pop\n      jump\t// out\n        /* \"#utility.yul\":2958:3099   */\n    tag_41:\n        /* \"#utility.yul\":3007:3011   */\n      0x00\n        /* \"#utility.yul\":3030:3033   */\n      dup2\n        /* \"#utility.yul\":3022:3033   */\n      swap1\n      pop\n        /* \"#utility.yul\":3053:3056   */\n      dup2\n        /* \"#utility.yul\":3050:3051   */\n      0x00\n        /* \"#utility.yul\":3043:3057   */\n      mstore\n        /* \"#utility.yul\":3087:3091   */\n      0x20\n        /* \"#utility.yul\":3084:3085   */\n      0x00\n        /* \"#utility.yul\":3074:3092   */\n      keccak256\n        /* \"#utility.yul\":3066:3092   */\n      swap1\n      pop\n        /* \"#utility.yul\":2958:3099   */\n      swap2\n      swap1\n      pop\n      jump\t// out\n        /* \"#utility.yul\":3105:3198   */\n    tag_42:\n        /* \"#utility.yul\":3142:3148   */\n      0x00\n        /* \"#utility.yul\":3189:3191   */\n      0x20\n        /* \"#utility.yul\":3184:3186   */\n      0x1f\n        /* \"#utility.yul\":3177:3182   */\n      dup4\n        /* \"#utility.yul\":3173:3187   */\n      add\n        /* \"#utility.yul\":3169:3192   */\n      div\n        /* \"#utility.yul\":3159:3192   */\n      swap1\n      pop\n        /* \"#utility.yul\":3105:3198   */\n      swap2\n      swap1\n      pop\n      jump\t// out\n        /* \"#utility.yul\":3204:3311   */\n    tag_43:\n        /* \"#utility.yul\":3248:3256   */\n      0x00\n        /* \"#utility.yul\":3298:3303   */\n      dup3\n        /* \"#utility.yul\":3292:3296   */\n      dup3\n        /* \"#utility.yul\":3288:3304   */\n      shl\n        /* \"#utility.yul\":3267:3304   */\n      swap1\n      pop\n        /* \"#utility.yul\":3204:3311   */\n      swap3\n      swap2\n      pop\n      pop\n      jump\t// out\n        /* \"#utility.yul\":3317:3710   */\n    tag_44:\n        /* \"#utility.yul\":3386:3392   */\n      0x00\n        /* \"#utility.yul\":3436:3437   */\n      0x08\n        /* \"#utility.yul\":3424:3434   */\n      dup4\n        /* \"#utility.yul\":3420:3438   */\n      mul\n        /* \"#utility.yul\":3459:3556   */\n      tag_91\n        /* \"#utility.yul\":3489:3555   */\n      0xffffffffffffffffffffffffffffffffffffffffffffffffffffffffffffffff\n        /* \"#utility.yul\":3478:3487   */\n      dup3\n        /* \"#utility.yul\":3459:3556   */\n      tag_43\n      jump\t// in\n    tag_91:\n        /* \"#utility.yul\":3577:3616   */\n      tag_92\n        /* \"#utility.yul\":3607:3615   */\n      dup7\n        /* \"#utility.yul\":3596:3605   */\n      dup4\n        /* \"#utility.yul\":3577:3616   */\n      tag_43\n      jump\t// in\n    tag_92:\n        /* \"#utility.yul\":3565:3616   */\n      swap6\n      pop\n        /* \"#utility.yul\":3649:3653   */\n      dup1\n        /* \"#utility.yul\":3645:3654   */\n      not\n        /* \"#utility.yul\":3638:3643   */\n      dup5\n        /* \"#utility.yul\":3634:3655   */\n      and\n        /* \"#utility.yul\":3625:3655   */\n      swap4\n      pop\n        /* \"#utility.yul\":3698:3702   */\n      dup1\n        /* \"#utility.yul\":3688:3696   */\n      dup7\n        /* \"#utility.yul\":3684:3703   */\n      and\n        /* \"#utility.yul\":3677:3682   */\n      dup5\n        /* \"#utility.yul\":3674:3704   */\n      or\n        /* \"#utility.yul\":3664:3704   */\n      swap3\n      pop\n        /* \"#utility.yul\":3393:3710   */\n      pop\n      pop\n        /* \"#utility.yul\":3317:3710   */\n      swap4\n      swap3\n      pop\n      pop\n      pop\n      jump\t// out\n        /* \"#utility.yul\":3716:3776   */\n    tag_45:\n        /* \"#utility.yul\":3744:3747   */\n      0x00\n        /* \"#utility.yul\":3765:3770   */\n      dup2\n        /* \"#utility.yul\":3758:3770   */\n      swap1\n      pop\n        /* \"#utility.yul\":3716:3776   */\n      swap2\n      swap1\n      pop\n      jump\t// out\n        /* \"#utility.yul\":3782:3924   */\n    tag_46:\n        /* \"#utility.yul\":3832:3841   */\n      0x00\n        /* \"#utility.yul\":3865:3918   */\n      tag_95\n        /* \"#utility.yul\":3883:3917   */\n      tag_96\n        /* \"#utility.yul\":3892:3916   */\n      tag_97\n        /* \"#utility.yul\":3910:3915   */\n      dup5\n        /* \"#utility.yul\":3892:3916   */\n      tag_31\n      jump\t// in\n    tag_97:\n        /* \"#utility.yul\":3883:3917   */\n      tag_45\n      jump\t// in\n    tag_96:\n        /* \"#utility.yul\":3865:3918   */\n      tag_31\n      jump\t// in\n    tag_95:\n        /* \"#utility.yul\":3852:3918   */\n      swap1\n      pop\n        /* \"#utility.yul\":3782:3924   */\n      swap2\n      swap1\n      pop\n      jump\t// out\n        /* \"#utility.yul\":3930:4005   */\n    tag_47:\n        /* \"#utility.yul\":3973:3976   */\n      0x00\n        /* \"#utility.yul\":3994:3999   */\n      dup2\n        /* \"#utility.yul\":3987:3999   */\n      swap1\n      pop\n        /* \"#utility.yul\":3930:4005   */\n      swap2\n      swap1\n      pop\n      jump\t// out\n        /* \"#utility.yul\":4011:4280   */\n    tag_48:\n        /* \"#utility.yul\":4121:4160   */\n      tag_100\n        /* \"#utility.yul\":4152:4159   */\n      dup4\n        /* \"#utility.yul\":4121:4160   */\n      tag_46\n      jump\t// in\n    tag_100:\n        /* \"#utility.yul\":4182:4273   */\n      tag_101\n        /* \"#utility.yul\":4231:4272   */\n      tag_102\n        /* \"#utility.yul\":4255:4271   */\n      dup3\n        /* \"#utility.yul\":4231:4272   */\n      tag_47\n      jump\t// in\n    tag_102:\n        /* \"#utility.yul\":4223:4229   */\n      dup5\n        /* \"#utility.yul\":4216:4220   */\n      dup5\n        /* \"#utility.yul\":4210:4221   */\n      sload\n        /* \"#utility.yul\":4182:4273   */\n      tag_44\n      jump\t// in\n    tag_101:\n        /* \"#utility.yul\":4176:4180   */\n      dup3\n        /* \"#utility.yul\":4169:4274   */\n      sstore\n        /* \"#utility.yul\":4087:4280   */\n      pop\n        /* \"#utility.yul\":4011:4280   */\n      pop\n      pop\n      pop\n      jump\t// out\n        /* \"#utility.yul\":4286:4359   */\n    tag_49:\n        /* \"#utility.yul\":4331:4334   */\n      0x00\n        /* \"#utility.yul\":4286:4359   */\n      swap1\n      jump\t// out\n        /* \"#utility.yul\":4365:4554   */\n    tag_50:\n        /* \"#utility.yul\":4442:4474   */\n      tag_105\n      tag_49\n      jump\t// in\n    tag_105:\n        /* \"#utility.yul\":4483:4548   */\n      tag_106\n        /* \"#utility.yul\":4541:4547   */\n      dup2\n        /* \"#utility.yul\":4533:4539   */\n      dup5\n        /* \"#utility.yul\":4527:4531   */\n      dup5\n        /* \"#utility.yul\":4483:4548   */\n      tag_48\n      jump\t// in\n    tag_106:\n        /* \"#utility.yul\":4418:4554   */\n      pop\n        /* \"#utility.yul\":4365:4554   */\n      pop\n      pop\n      jump\t// out\n        /* \"#utility.yul\":4560:4746   */\n    tag_51:\n        /* \"#utility.yul\":4620:4740   */\n    tag_108:\n        /* \"#utility.yul\":4637:4640   */\n      dup2\n        /* \"#utility.yul\":4630:4635   */\n      dup2\n        /* \"#utility.yul\":4627:4641   */\n      lt\n        /* \"#utility.yul\":4620:4740   */\n      iszero\n      tag_110\n      jumpi\n        /* \"#utility.yul\":4691:4730   */\n      tag_111\n        /* \"#utility.yul\":4728:4729   */\n      0x00\n        /* \"#utility.yul\":4721:4726   */\n      dup3\n        /* \"#utility.yul\":4691:4730   */\n      tag_50\n      jump\t// in\n    tag_111:\n        /* \"#utility.yul\":4664:4665   */\n      0x01\n        /* \"#utility.yul\":4657:4662   */\n      dup2\n        /* \"#utility.yul\":4653:4666   */\n      add\n        /* \"#utility.yul\":4644:4666   */\n      swap1\n      pop\n        /* \"#utility.yul\":4620:4740   */\n      jump(tag_108)\n    tag_110:\n        /* \"#utility.yul\":4560:4746   */\n      pop\n      pop\n      jump\t// out\n        /* \"#utility.yul\":4752:5295   */\n    tag_52:\n        /* \"#utility.yul\":4853:4855   */\n      0x1f\n        /* \"#utility.yul\":4848:4851   */\n      dup3\n        /* \"#utility.yul\":4845:4856   */\n      gt\n        /* \"#utility.yul\":4842:5288   */\n      iszero\n      tag_113\n      jumpi\n        /* \"#utility.yul\":4887:4925   */\n      tag_114\n        /* \"#utility.yul\":4919:4924   */\n      dup2\n        /* \"#utility.yul\":4887:4925   */\n      tag_41\n      jump\t// in\n    tag_114:\n        /* \"#utility.yul\":4971:5000   */\n      tag_115\n        /* \"#utility.yul\":4989:4999   */\n      dup5\n        /* \"#utility.yul\":4971:5000   */\n      tag_42\n      jump\t// in\n    tag_115:\n        /* \"#utility.yul\":4961:4969   */\n      dup2\n        /* \"#utility.yul\":4957:5001   */\n      add\n        /* \"#utility.yul\":5154:5156   */\n      0x20\n        /* \"#utility.yul\":5142:5152   */\n      dup6\n        /* \"#utility.yul\":5139:5157   */\n      lt\n        /* \"#utility.yul\":5136:5185   */\n      iszero\n      tag_116\n      jumpi\n        /* \"#utility.yul\":5175:5183   */\n      dup2\n        /* \"#utility.yul\":5160:5183   */\n      swap1\n      pop\n        /* \"#utility.yul\":5136:5185   */\n    tag_116:\n        /* \"#utility.yul\":5198:5278   */\n      tag_117\n        /* \"#utility.yul\":5254:5276   */\n      tag_118\n        /* \"#utility.yul\":5272:5275   */\n      dup6\n        /* \"#utility.yul\":5254:5276   */\n      tag_42\n      jump\t// in\n    tag_118:\n        /* \"#utility.yul\":5244:5252   */\n      dup4\n        /* \"#utility.yul\":5240:5277   */\n      add\n        /* \"#utility.yul\":5227:5238   */\n      dup3\n        /* \"#utility.yul\":5198:5278   */\n      tag_51\n      jump\t// in\n    tag_117:\n        /* \"#utility.yul\":4857:5288   */\n      pop\n      pop\n        /* \"#utility.yul\":4842:5288   */\n    tag_113:\n        /* \"#utility.yul\":4752:5295   */\n      pop\n      pop\n      pop\n      jump\t// out\n        /* \"#utility.yul\":5301:5418   */\n    tag_53:\n        /* \"#utility.yul\":5355:5363   */\n      0x00\n        /* \"#utility.yul\":5405:5410   */\n      dup3\n        /* \"#utility.yul\":5399:5403   */\n      dup3\n        /* \"#utility.yul\":5395:5411   */\n      shr\n        /* \"#utility.yul\":5374:5411   */\n      swap1\n      pop\n        /* \"#utility.yul\":5301:5418   */\n      swap3\n      swap2\n      pop\n      pop\n      jump\t// out\n        /* \"#utility.yul\":5424:5593   */\n    tag_54:\n        /* \"#utility.yul\":5468:5474   */\n      0x00\n        /* \"#utility.yul\":5501:5552   */\n      tag_121\n        /* \"#utility.yul\":5549:5550   */\n      0x00\n        /* \"#utility.yul\":5545:5551   */\n      not\n        /* \"#utility.yul\":5537:5542   */\n      dup5\n        /* \"#utility.yul\":5534:5535   */\n      0x08\n        /* \"#utility.yul\":5530:5543   */\n      mul\n        /* \"#utility.yul\":5501:5552   */\n      tag_53\n      jump\t// in\n    tag_121:\n        /* \"#utility.yul\":5497:5553   */\n      not\n        /* \"#utility.yul\":5582:5586   */\n      dup1\n        /* \"#utility.yul\":5576:5580   */\n      dup4\n        /* \"#utility.yul\":5572:5587   */\n      and\n        /* \"#utility.yul\":5562:5587   */\n      swap2\n      pop\n        /* \"#utility.yul\":5475:5593   */\n      pop\n        /* \"#utility.yul\":5424:5593   */\n      swap3\n      swap2\n      pop\n      pop\n      jump\t// out\n        /* \"#utility.yul\":5598:5893   */\n    tag_55:\n        /* \"#utility.yul\":5674:5678   */\n      0x00\n        /* \"#utility.yul\":5820:5849   */\n      tag_123\n        /* \"#utility.yul\":5845:5848   */\n      dup4\n        /* \"#utility.yul\":5839:5843   */\n      dup4\n        /* \"#utility.yul\":5820:5849   */\n      tag_54\n      jump\t// in\n    tag_123:\n        /* \"#utility.yul\":5812:5849   */\n      swap2\n      pop\n        /* \"#utility.yul\":5882:5885   */\n      dup3\n        /* \"#utility.yul\":5879:5880   */\n      0x02\n        /* \"#utility.yul\":5875:5886   */\n      mul\n        /* \"#utility.yul\":5869:5873   */\n      dup3\n        /* \"#utility.yul\":5866:5887   */\n      or\n        /* \"#utility.yul\":5858:5887   */\n      swap1\n      pop\n        /* \"#utility.yul\":5598:5893   */\n      swap3\n      swap2\n      pop\n      pop\n      jump\t// out\n        /* \"#utility.yul\":5898:7293   */\n    tag_16:\n        /* \"#utility.yul\":6015:6052   */\n      tag_125\n        /* \"#utility.yul\":6048:6051   */\n      dup3\n        /* \"#utility.yul\":6015:6052   */\n      tag_34\n      jump\t// in\n    tag_125:\n        /* \"#utility.yul\":6117:6135   */\n      0xffffffffffffffff\n        /* \"#utility.yul\":6109:6115   */\n      dup2\n        /* \"#utility.yul\":6106:6136   */\n      gt\n        /* \"#utility.yul\":6103:6159   */\n      iszero\n      tag_126\n      jumpi\n        /* \"#utility.yul\":6139:6157   */\n      tag_127\n      tag_39\n      jump\t// in\n    tag_127:\n        /* \"#utility.yul\":6103:6159   */\n    tag_126:\n        /* \"#utility.yul\":6183:6221   */\n      tag_128\n        /* \"#utility.yul\":6215:6219   */\n      dup3\n        /* \"#utility.yul\":6209:6220   */\n      sload\n        /* \"#utility.yul\":6183:6221   */\n      tag_23\n      jump\t// in\n    tag_128:\n        /* \"#utility.yul\":6268:6335   */\n      tag_129\n        /* \"#utility.yul\":6328:6334   */\n      dup3\n        /* \"#utility.yul\":6320:6326   */\n      dup3\n        /* \"#utility.yul\":6314:6318   */\n      dup6\n        /* \"#utility.yul\":6268:6335   */\n      tag_52\n      jump\t// in\n    tag_129:\n        /* \"#utility.yul\":6362:6363   */\n      0x00\n        /* \"#utility.yul\":6386:6390   */\n      0x20\n        /* \"#utility.yul\":6373:6390   */\n      swap1\n      pop\n        /* \"#utility.yul\":6418:6420   */\n      0x1f\n        /* \"#utility.yul\":6410:6416   */\n      dup4\n        /* \"#utility.yul\":6407:6421   */\n      gt\n        /* \"#utility.yul\":6435:6436   */\n      0x01\n        /* \"#utility.yul\":6430:7048   */\n      dup2\n      eq\n      tag_131\n      jumpi\n        /* \"#utility.yul\":7092:7093   */\n      0x00\n        /* \"#utility.yul\":7109:7115   */\n      dup5\n        /* \"#utility.yul\":7106:7183   */\n      iszero\n      tag_132\n      jumpi\n        /* \"#utility.yul\":7158:7167   */\n      dup3\n        /* \"#utility.yul\":7153:7156   */\n      dup8\n        /* \"#utility.yul\":7149:7168   */\n      add\n        /* \"#utility.yul\":7143:7169   */\n      mload\n        /* \"#utility.yul\":7134:7169   */\n      swap1\n      pop\n        /* \"#utility.yul\":7106:7183   */\n    tag_132:\n        /* \"#utility.yul\":7209:7276   */\n      tag_133\n        /* \"#utility.yul\":7269:7275   */\n      dup6\n        /* \"#utility.yul\":7262:7267   */\n      dup3\n        /* \"#utility.yul\":7209:7276   */\n      tag_55\n      jump\t// in\n    tag_133:\n        /* \"#utility.yul\":7203:7207   */\n      dup7\n        /* \"#utility.yul\":7196:7277   */\n      sstore\n        /* \"#utility.yul\":7065:7287   */\n      pop\n        /* \"#utility.yul\":6400:7287   */\n      jump(tag_130)\n        /* \"#utility.yul\":6430:7048   */\n    tag_131:\n        /* \"#utility.yul\":6482:6486   */\n      0x1f\n        /* \"#utility.yul\":6478:6487   */\n      not\n        /* \"#utility.yul\":6470:6476   */\n      dup5\n        /* \"#utility.yul\":6466:6488   */\n      and\n        /* \"#utility.yul\":6516:6553   */\n      tag_134\n        /* \"#utility.yul\":6548:6552   */\n      dup7\n        /* \"#utility.yul\":6516:6553   */\n      tag_41\n      jump\t// in\n    tag_134:\n        /* \"#utility.yul\":6575:6576   */\n      0x00\n        /* \"#utility.yul\":6589:6797   */\n    tag_135:\n        /* \"#utility.yul\":6603:6610   */\n      dup3\n        /* \"#utility.yul\":6600:6601   */\n      dup2\n        /* \"#utility.yul\":6597:6611   */\n      lt\n        /* \"#utility.yul\":6589:6797   */\n      iszero\n      tag_137\n      jumpi\n        /* \"#utility.yul\":6682:6691   */\n      dup5\n        /* \"#utility.yul\":6677:6680   */\n      dup10\n        /* \"#utility.yul\":6673:6692   */\n      add\n        /* \"#utility.yul\":6667:6693   */\n      mload\n        /* \"#utility.yul\":6659:6665   */\n      dup3\n        /* \"#utility.yul\":6652:6694   */\n      sstore\n        /* \"#utility.yul\":6733:6734   */\n      0x01\n        /* \"#utility.yul\":6725:6731   */\n      dup3\n        /* \"#utility.yul\":6721:6735   */\n      add\n        /* \"#utility.yul\":6711:6735   */\n      swap2\n      pop\n        /* \"#utility.yul\":6780:6782   */\n      0x20\n        /* \"#utility.yul\":6769:6778   */\n      dup6\n        /* \"#utility.yul\":6765:6783   */\n      add\n        /* \"#utility.yul\":6752:6783   */\n      swap5\n      pop\n        /* \"#utility.yul\":6626:6630   */\n      0x20\n        /* \"#utility.yul\":6623:6624   */\n      dup2\n        /* \"#utility.yul\":6619:6631   */\n      add\n        /* \"#utility.yul\":6614:6631   */\n      swap1\n      pop\n        /* \"#utility.yul\":6589:6797   */\n      jump(tag_135)\n    tag_137:\n        /* \"#utility.yul\":6825:6831   */\n      dup7\n        /* \"#utility.yul\":6816:6823   */\n      dup4\n        /* \"#utility.yul\":6813:6832   */\n      lt\n        /* \"#utility.yul\":6810:6989   */\n      iszero\n      tag_138\n      jumpi\n        /* \"#utility.yul\":6883:6892   */\n      dup5\n        /* \"#utility.yul\":6878:6881   */\n      dup10\n        /* \"#utility.yul\":6874:6893   */\n      add\n        /* \"#utility.yul\":6868:6894   */\n      mload\n        /* \"#utility.yul\":6926:6974   */\n      tag_139\n        /* \"#utility.yul\":6968:6972   */\n      0x1f\n        /* \"#utility.yul\":6960:6966   */\n      dup10\n        /* \"#utility.yul\":6956:6973   */\n      and\n        /* \"#utility.yul\":6945:6954   */\n      dup3\n        /* \"#utility.yul\":6926:6974   */\n      tag_54\n      jump\t// in\n    tag_139:\n        /* \"#utility.yul\":6918:6924   */\n      dup4\n        /* \"#utility.yul\":6911:6975   */\n      sstore\n        /* \"#utility.yul\":6833:6989   */\n      pop\n        /* \"#utility.yul\":6810:6989   */\n    tag_138:\n        /* \"#utility.yul\":7035:7036   */\n      0x01\n        /* \"#utility.yul\":7031:7032   */\n      0x02\n        /* \"#utility.yul\":7023:7029   */\n      dup9\n        /* \"#utility.yul\":7019:7033   */\n      mul\n        /* \"#utility.yul\":7015:7037   */\n      add\n        /* \"#utility.yul\":7009:7013   */\n      dup9\n        /* \"#utility.yul\":7002:7038   */\n      sstore\n        /* \"#utility.yul\":6437:7048   */\n      pop\n      pop\n      pop\n        /* \"#utility.yul\":6400:7287   */\n    tag_130:\n      pop\n        /* \"#utility.yul\":5990:7293   */\n      pop\n      pop\n      pop\n        /* \"#utility.yul\":5898:7293   */\n      pop\n      pop\n      jump\t// out\n\n    auxdata: 0xa26469706673582212207d0ed95dde56ce2190fef87aa8e5ac30ce52e3fea55779687e64e07cd034f82964736f6c634300081a0033\n}\n",
				"bytecode": {
					"linkReferences": {},
					"object": "6080604052348015600e575f80fd5b506106068061001c5f395ff3fe608060405234801561000f575f80fd5b5060043610610034575f3560e01c806369ba1a7514610038578063ef8a923514610054575b5f80fd5b610052600480360381019061004d919061021f565b610072565b005b61005c61015d565b60405161006991906102ba565b60405180910390f35b600781106100c3576040518060400160405280600481526020017f68696768000000000000000000000000000000000000000000000000000000008152505f90816100bd9190610501565b5061015a565b60048110610114576040518060400160405280600781526020017f6e65757472616c000000000000000000000000000000000000000000000000008152505f908161010e9190610501565b50610159565b6040518060400160405280600381526020017f6c6f7700000000000000000000000000000000000000000000000000000000008152505f90816101579190610501565b505b5b50565b5f805461016990610334565b80601f016020809104026020016040519081016040528092919081815260200182805461019590610334565b80156101e05780601f106101b7576101008083540402835291602001916101e0565b820191905f5260205f20905b8154815290600101906020018083116101c357829003601f168201915b505050505081565b5f80fd5b5f819050919050565b6101fe816101ec565b8114610208575f80fd5b50565b5f81359050610219816101f5565b92915050565b5f60208284031215610234576102336101e8565b5b5f6102418482850161020b565b91505092915050565b5f81519050919050565b5f82825260208201905092915050565b8281835e5f83830152505050565b5f601f19601f8301169050919050565b5f61028c8261024a565b6102968185610254565b93506102a6818560208601610264565b6102af81610272565b840191505092915050565b5f6020820190508181035f8301526102d28184610282565b905092915050565b7f4e487b71000000000000000000000000000000000000000000000000000000005f52604160045260245ffd5b7f4e487b71000000000000000000000000000000000000000000000000000000005f52602260045260245ffd5b5f600282049050600182168061034b57607f821691505b60208210810361035e5761035d610307565b5b50919050565b5f819050815f5260205f209050919050565b5f6020601f8301049050919050565b5f82821b905092915050565b5f600883026103c07fffffffffffffffffffffffffffffffffffffffffffffffffffffffffffffffff82610385565b6103ca8683610385565b95508019841693508086168417925050509392505050565b5f819050919050565b5f6104056104006103fb846101ec565b6103e2565b6101ec565b9050919050565b5f819050919050565b61041e836103eb565b61043261042a8261040c565b848454610391565b825550505050565b5f90565b61044661043a565b610451818484610415565b505050565b5b81811015610474576104695f8261043e565b600181019050610457565b5050565b601f8211156104b95761048a81610364565b61049384610376565b810160208510156104a2578190505b6104b66104ae85610376565b830182610456565b50505b505050565b5f82821c905092915050565b5f6104d95f19846008026104be565b1980831691505092915050565b5f6104f183836104ca565b9150826002028217905092915050565b61050a8261024a565b67ffffffffffffffff811115610523576105226102da565b5b61052d8254610334565b610538828285610478565b5f60209050601f831160018114610569575f8415610557578287015190505b61056185826104e6565b8655506105c8565b601f19841661057786610364565b5f5b8281101561059e57848901518255600182019150602085019450602081019050610579565b868310156105bb57848901516105b7601f8916826104ca565b8355505b6001600288020188555050505b50505050505056fea26469706673582212207d0ed95dde56ce2190fef87aa8e5ac30ce52e3fea55779687e64e07cd034f82964736f6c634300081a0033",
					"opcodes": "PUSH1 0x80 PUSH1 0x40 MSTORE CALLVALUE DUP1 ISZERO PUSH1 0xE JUMPI PUSH0 DUP1 REVERT JUMPDEST POP PUSH2 0x606 DUP1 PUSH2 0x1C PUSH0 CODECOPY PUSH0 RETURN INVALID PUSH1 0x80 PUSH1 0x40 MSTORE CALLVALUE DUP1 ISZERO PUSH2 0xF JUMPI PUSH0 DUP1 REVERT JUMPDEST POP PUSH1 0x4 CALLDATASIZE LT PUSH2 0x34 JUMPI PUSH0 CALLDATALOAD PUSH1 0xE0 SHR DUP1 PUSH4 0x69BA1A75 EQ PUSH2 0x38 JUMPI DUP1 PUSH4 0xEF8A9235 EQ PUSH2 0x54 JUMPI JUMPDEST PUSH0 DUP1 REVERT JUMPDEST PUSH2 0x52 PUSH1 0x4 DUP1 CALLDATASIZE SUB DUP2 ADD SWAP1 PUSH2 0x4D SWAP2 SWAP1 PUSH2 0x21F JUMP JUMPDEST PUSH2 0x72 JUMP JUMPDEST STOP JUMPDEST PUSH2 0x5C PUSH2 0x15D JUMP JUMPDEST PUSH1 0x40 MLOAD PUSH2 0x69 SWAP2 SWAP1 PUSH2 0x2BA JUMP JUMPDEST PUSH1 0x40 MLOAD DUP1 SWAP2 SUB SWAP1 RETURN JUMPDEST PUSH1 0x7 DUP2 LT PUSH2 0xC3 JUMPI PUSH1 0x40 MLOAD DUP1 PUSH1 0x40 ADD PUSH1 0x40 MSTORE DUP1 PUSH1 0x4 DUP2 MSTORE PUSH1 0x20 ADD PUSH32 0x6869676800000000000000000000000000000000000000000000000000000000 DUP2 MSTORE POP PUSH0 SWAP1 DUP2 PUSH2 0xBD SWAP2 SWAP1 PUSH2 0x501 JUMP JUMPDEST POP PUSH2 0x15A JUMP JUMPDEST PUSH1 0x4 DUP2 LT PUSH2 0x114 JUMPI PUSH1 0x40 MLOAD DUP1 PUSH1 0x40 ADD PUSH1 0x40 MSTORE DUP1 PUSH1 0x7 DUP2 MSTORE PUSH1 0x20 ADD PUSH32 0x6E65757472616C00000000000000000000000000000000000000000000000000 DUP2 MSTORE POP PUSH0 SWAP1 DUP2 PUSH2 0x10E SWAP2 SWAP1 PUSH2 0x501 JUMP JUMPDEST POP PUSH2 0x159 JUMP JUMPDEST PUSH1 0x40 MLOAD DUP1 PUSH1 0x40 ADD PUSH1 0x40 MSTORE DUP1 PUSH1 0x3 DUP2 MSTORE PUSH1 0x20 ADD PUSH32 0x6C6F770000000000000000000000000000000000000000000000000000000000 DUP2 MSTORE POP PUSH0 SWAP1 DUP2 PUSH2 0x157 SWAP2 SWAP1 PUSH2 0x501 JUMP JUMPDEST POP JUMPDEST JUMPDEST POP JUMP JUMPDEST PUSH0 DUP1 SLOAD PUSH2 0x169 SWAP1 PUSH2 0x334 JUMP JUMPDEST DUP1 PUSH1 0x1F ADD PUSH1 0x20 DUP1 SWAP2 DIV MUL PUSH1 0x20 ADD PUSH1 0x40 MLOAD SWAP1 DUP2 ADD PUSH1 0x40 MSTORE DUP1 SWAP3 SWAP2 SWAP1 DUP2 DUP2 MSTORE PUSH1 0x20 ADD DUP3 DUP1 SLOAD PUSH2 0x195 SWAP1 PUSH2 0x334 JUMP JUMPDEST DUP1 ISZERO PUSH2 0x1E0 JUMPI DUP1 PUSH1 0x1F LT PUSH2 0x1B7 JUMPI PUSH2 0x100 DUP1 DUP4 SLOAD DIV MUL DUP4 MSTORE SWAP2 PUSH1 0x20 ADD SWAP2 PUSH2 0x1E0 JUMP JUMPDEST DUP3 ADD SWAP2 SWAP1 PUSH0 MSTORE PUSH1 0x20 PUSH0 KECCAK256 SWAP1 JUMPDEST DUP2 SLOAD DUP2 MSTORE SWAP1 PUSH1 0x1 ADD SWAP1 PUSH1 0x20 ADD DUP1 DUP4 GT PUSH2 0x1C3 JUMPI DUP3 SWAP1 SUB PUSH1 0x1F AND DUP3 ADD SWAP2 JUMPDEST POP POP POP POP POP DUP2 JUMP JUMPDEST PUSH0 DUP1 REVERT JUMPDEST PUSH0 DUP2 SWAP1 POP SWAP2 SWAP1 POP JUMP JUMPDEST PUSH2 0x1FE DUP2 PUSH2 0x1EC JUMP JUMPDEST DUP2 EQ PUSH2 0x208 JUMPI PUSH0 DUP1 REVERT JUMPDEST POP JUMP JUMPDEST PUSH0 DUP2 CALLDATALOAD SWAP1 POP PUSH2 0x219 DUP2 PUSH2 0x1F5 JUMP JUMPDEST SWAP3 SWAP2 POP POP JUMP JUMPDEST PUSH0 PUSH1 0x20 DUP3 DUP5 SUB SLT ISZERO PUSH2 0x234 JUMPI PUSH2 0x233 PUSH2 0x1E8 JUMP JUMPDEST JUMPDEST PUSH0 PUSH2 0x241 DUP5 DUP3 DUP6 ADD PUSH2 0x20B JUMP JUMPDEST SWAP2 POP POP SWAP3 SWAP2 POP POP JUMP JUMPDEST PUSH0 DUP2 MLOAD SWAP1 POP SWAP2 SWAP1 POP JUMP JUMPDEST PUSH0 DUP3 DUP3 MSTORE PUSH1 0x20 DUP3 ADD SWAP1 POP SWAP3 SWAP2 POP POP JUMP JUMPDEST DUP3 DUP2 DUP4 MCOPY PUSH0 DUP4 DUP4 ADD MSTORE POP POP POP JUMP JUMPDEST PUSH0 PUSH1 0x1F NOT PUSH1 0x1F DUP4 ADD AND SWAP1 POP SWAP2 SWAP1 POP JUMP JUMPDEST PUSH0 PUSH2 0x28C DUP3 PUSH2 0x24A JUMP JUMPDEST PUSH2 0x296 DUP2 DUP6 PUSH2 0x254 JUMP JUMPDEST SWAP4 POP PUSH2 0x2A6 DUP2 DUP6 PUSH1 0x20 DUP7 ADD PUSH2 0x264 JUMP JUMPDEST PUSH2 0x2AF DUP2 PUSH2 0x272 JUMP JUMPDEST DUP5 ADD SWAP2 POP POP SWAP3 SWAP2 POP POP JUMP JUMPDEST PUSH0 PUSH1 0x20 DUP3 ADD SWAP1 POP DUP2 DUP2 SUB PUSH0 DUP4 ADD MSTORE PUSH2 0x2D2 DUP2 DUP5 PUSH2 0x282 JUMP JUMPDEST SWAP1 POP SWAP3 SWAP2 POP POP JUMP JUMPDEST PUSH32 0x4E487B7100000000000000000000000000000000000000000000000000000000 PUSH0 MSTORE PUSH1 0x41 PUSH1 0x4 MSTORE PUSH1 0x24 PUSH0 REVERT JUMPDEST PUSH32 0x4E487B7100000000000000000000000000000000000000000000000000000000 PUSH0 MSTORE PUSH1 0x22 PUSH1 0x4 MSTORE PUSH1 0x24 PUSH0 REVERT JUMPDEST PUSH0 PUSH1 0x2 DUP3 DIV SWAP1 POP PUSH1 0x1 DUP3 AND DUP1 PUSH2 0x34B JUMPI PUSH1 0x7F DUP3 AND SWAP2 POP JUMPDEST PUSH1 0x20 DUP3 LT DUP2 SUB PUSH2 0x35E JUMPI PUSH2 0x35D PUSH2 0x307 JUMP JUMPDEST JUMPDEST POP SWAP2 SWAP1 POP JUMP JUMPDEST PUSH0 DUP2 SWAP1 POP DUP2 PUSH0 MSTORE PUSH1 0x20 PUSH0 KECCAK256 SWAP1 POP SWAP2 SWAP1 POP JUMP JUMPDEST PUSH0 PUSH1 0x20 PUSH1 0x1F DUP4 ADD DIV SWAP1 POP SWAP2 SWAP1 POP JUMP JUMPDEST PUSH0 DUP3 DUP3 SHL SWAP1 POP SWAP3 SWAP2 POP POP JUMP JUMPDEST PUSH0 PUSH1 0x8 DUP4 MUL PUSH2 0x3C0 PUSH32 0xFFFFFFFFFFFFFFFFFFFFFFFFFFFFFFFFFFFFFFFFFFFFFFFFFFFFFFFFFFFFFFFF DUP3 PUSH2 0x385 JUMP JUMPDEST PUSH2 0x3CA DUP7 DUP4 PUSH2 0x385 JUMP JUMPDEST SWAP6 POP DUP1 NOT DUP5 AND SWAP4 POP DUP1 DUP7 AND DUP5 OR SWAP3 POP POP POP SWAP4 SWAP3 POP POP POP JUMP JUMPDEST PUSH0 DUP2 SWAP1 POP SWAP2 SWAP1 POP JUMP JUMPDEST PUSH0 PUSH2 0x405 PUSH2 0x400 PUSH2 0x3FB DUP5 PUSH2 0x1EC JUMP JUMPDEST PUSH2 0x3E2 JUMP JUMPDEST PUSH2 0x1EC JUMP JUMPDEST SWAP1 POP SWAP2 SWAP1 POP JUMP JUMPDEST PUSH0 DUP2 SWAP1 POP SWAP2 SWAP1 POP JUMP JUMPDEST PUSH2 0x41E DUP4 PUSH2 0x3EB JUMP JUMPDEST PUSH2 0x432 PUSH2 0x42A DUP3 PUSH2 0x40C JUMP JUMPDEST DUP5 DUP5 SLOAD PUSH2 0x391 JUMP JUMPDEST DUP3 SSTORE POP POP POP POP JUMP JUMPDEST PUSH0 SWAP1 JUMP JUMPDEST PUSH2 0x446 PUSH2 0x43A JUMP JUMPDEST PUSH2 0x451 DUP2 DUP5 DUP5 PUSH2 0x415 JUMP JUMPDEST POP POP POP JUMP JUMPDEST JUMPDEST DUP2 DUP2 LT ISZERO PUSH2 0x474 JUMPI PUSH2 0x469 PUSH0 DUP3 PUSH2 0x43E JUMP JUMPDEST PUSH1 0x1 DUP2 ADD SWAP1 POP PUSH2 0x457 JUMP JUMPDEST POP POP JUMP JUMPDEST PUSH1 0x1F DUP3 GT ISZERO PUSH2 0x4B9 JUMPI PUSH2 0x48A DUP2 PUSH2 0x364 JUMP JUMPDEST PUSH2 0x493 DUP5 PUSH2 0x376 JUMP JUMPDEST DUP2 ADD PUSH1 0x20 DUP6 LT ISZERO PUSH2 0x4A2 JUMPI DUP2 SWAP1 POP JUMPDEST PUSH2 0x4B6 PUSH2 0x4AE DUP6 PUSH2 0x376 JUMP JUMPDEST DUP4 ADD DUP3 PUSH2 0x456 JUMP JUMPDEST POP POP JUMPDEST POP POP POP JUMP JUMPDEST PUSH0 DUP3 DUP3 SHR SWAP1 POP SWAP3 SWAP2 POP POP JUMP JUMPDEST PUSH0 PUSH2 0x4D9 PUSH0 NOT DUP5 PUSH1 0x8 MUL PUSH2 0x4BE JUMP JUMPDEST NOT DUP1 DUP4 AND SWAP2 POP POP SWAP3 SWAP2 POP POP JUMP JUMPDEST PUSH0 PUSH2 0x4F1 DUP4 DUP4 PUSH2 0x4CA JUMP JUMPDEST SWAP2 POP DUP3 PUSH1 0x2 MUL DUP3 OR SWAP1 POP SWAP3 SWAP2 POP POP JUMP JUMPDEST PUSH2 0x50A DUP3 PUSH2 0x24A JUMP JUMPDEST PUSH8 0xFFFFFFFFFFFFFFFF DUP2 GT ISZERO PUSH2 0x523 JUMPI PUSH2 0x522 PUSH2 0x2DA JUMP JUMPDEST JUMPDEST PUSH2 0x52D DUP3 SLOAD PUSH2 0x334 JUMP JUMPDEST PUSH2 0x538 DUP3 DUP3 DUP6 PUSH2 0x478 JUMP JUMPDEST PUSH0 PUSH1 0x20 SWAP1 POP PUSH1 0x1F DUP4 GT PUSH1 0x1 DUP2 EQ PUSH2 0x569 JUMPI PUSH0 DUP5 ISZERO PUSH2 0x557 JUMPI DUP3 DUP8 ADD MLOAD SWAP1 POP JUMPDEST PUSH2 0x561 DUP6 DUP3 PUSH2 0x4E6 JUMP JUMPDEST DUP7 SSTORE POP PUSH2 0x5C8 JUMP JUMPDEST PUSH1 0x1F NOT DUP5 AND PUSH2 0x577 DUP7 PUSH2 0x364 JUMP JUMPDEST PUSH0 JUMPDEST DUP3 DUP2 LT ISZERO PUSH2 0x59E JUMPI DUP5 DUP10 ADD MLOAD DUP3 SSTORE PUSH1 0x1 DUP3 ADD SWAP2 POP PUSH1 0x20 DUP6 ADD SWAP5 POP PUSH1 0x20 DUP2 ADD SWAP1 POP PUSH2 0x579 JUMP JUMPDEST DUP7 DUP4 LT ISZERO PUSH2 0x5BB JUMPI DUP5 DUP10 ADD MLOAD PUSH2 0x5B7 PUSH1 0x1F DUP10 AND DUP3 PUSH2 0x4CA JUMP JUMPDEST DUP4 SSTORE POP JUMPDEST PUSH1 0x1 PUSH1 0x2 DUP9 MUL ADD DUP9 SSTORE POP POP POP JUMPDEST POP POP POP POP POP POP JUMP INVALID LOG2 PUSH5 0x6970667358 0x22 SLT KECCAK256 PUSH30 0xED95DDE56CE2190FEF87AA8E5AC30CE52E3FEA55779687E64E07CD034F8 0x29 PUSH5 0x736F6C6343 STOP ADDMOD BYTE STOP CALLER "
				},
				"gasEstimates": {
					"creation": {
						"codeDepositCost": "308400",
						"executionCost": "347",
						"totalCost": "308747"
					},
					"external": {
						"currentStatus()": "infinite",
						"setStatus(uint256)": "infinite"
					}
				},
				"methodIdentifiers": {
					"currentStatus()": "ef8a9235",
					"setStatus(uint256)": "69ba1a75"
				}
			},
			"storageLayout": {
				"storage": [
					{
						"astId": 266,
						"contract": "solidity/solidity31~40.sol:Q36",
						"label": "currentStatus",
						"offset": 0,
						"slot": "0",
						"type": "t_string_storage"
					}
				],
				"types": {
					"t_string_storage": {
						"encoding": "bytes",
						"label": "string",
						"numberOfBytes": "32"
					}
				}
			},
			"userdoc": {
				"kind": "user",
				"methods": {},
				"version": 1
			}
		}
	}
}