{
	"solidity/solidity31~40.sol": {
		"Q34": {
			"abi": [
				{
					"inputs": [
						{
							"internalType": "uint256",
							"name": "id",
							"type": "uint256"
						},
						{
							"internalType": "string",
							"name": "name",
							"type": "string"
						},
						{
							"internalType": "uint256",
							"name": "score",
							"type": "uint256"
						}
					],
					"name": "addStudent",
					"outputs": [],
					"stateMutability": "nonpayable",
					"type": "function"
				},
				{
					"inputs": [],
					"name": "getAverage",
					"outputs": [
						{
							"internalType": "uint256",
							"name": "",
							"type": "uint256"
						}
					],
					"stateMutability": "view",
					"type": "function"
				}
			],
			"devdoc": {
				"kind": "dev",
				"methods": {},
				"version": 1
			},
			"evm": {
				"assembly": "    /* \"solidity/solidity31~40.sol\":1797:2542  contract Q34 {... */\n  mstore(0x40, 0x80)\n  callvalue\n  dup1\n  iszero\n  tag_1\n  jumpi\n  0x00\n  dup1\n  revert\ntag_1:\n  pop\n  dataSize(sub_0)\n  dup1\n  dataOffset(sub_0)\n  0x00\n  codecopy\n  0x00\n  return\nstop\n\nsub_0: assembly {\n        /* \"solidity/solidity31~40.sol\":1797:2542  contract Q34 {... */\n      mstore(0x40, 0x80)\n      callvalue\n      dup1\n      iszero\n      tag_1\n      jumpi\n      0x00\n      dup1\n      revert\n    tag_1:\n      pop\n      jumpi(tag_2, lt(calldatasize, 0x04))\n      shr(0xe0, calldataload(0x00))\n      dup1\n      0x21055acb\n      eq\n      tag_3\n      jumpi\n      dup1\n      0xc1bea1db\n      eq\n      tag_4\n      jumpi\n    tag_2:\n      0x00\n      dup1\n      revert\n        /* \"solidity/solidity31~40.sol\":2442:2540  function getAverage() public view returns (uint) {... */\n    tag_3:\n      tag_5\n      tag_6\n      jump\t// in\n    tag_5:\n      mload(0x40)\n      tag_7\n      swap2\n      swap1\n      tag_8\n      jump\t// in\n    tag_7:\n      mload(0x40)\n      dup1\n      swap2\n      sub\n      swap1\n      return\n        /* \"solidity/solidity31~40.sol\":2229:2436  function addStudent(uint id, string memory name, uint score) public {... */\n    tag_4:\n      tag_9\n      0x04\n      dup1\n      calldatasize\n      sub\n      dup2\n      add\n      swap1\n      tag_10\n      swap2\n      swap1\n      tag_11\n      jump\t// in\n    tag_10:\n      tag_12\n      jump\t// in\n    tag_9:\n      stop\n        /* \"solidity/solidity31~40.sol\":2442:2540  function getAverage() public view returns (uint) {... */\n    tag_6:\n        /* \"solidity/solidity31~40.sol\":2485:2489  uint */\n      0x00\n        /* \"solidity/solidity31~40.sol\":2521:2533  studentCount */\n      sload(0x03)\n        /* \"solidity/solidity31~40.sol\":2508:2518  totalScore */\n      sload(0x02)\n        /* \"solidity/solidity31~40.sol\":2508:2533  totalScore / studentCount */\n      tag_14\n      swap2\n      swap1\n      tag_15\n      jump\t// in\n    tag_14:\n        /* \"solidity/solidity31~40.sol\":2501:2533  return totalScore / studentCount */\n      swap1\n      pop\n        /* \"solidity/solidity31~40.sol\":2442:2540  function getAverage() public view returns (uint) {... */\n      swap1\n      jump\t// out\n        /* \"solidity/solidity31~40.sol\":2229:2436  function addStudent(uint id, string memory name, uint score) public {... */\n    tag_12:\n        /* \"solidity/solidity31~40.sol\":2323:2347  Student(name, id, score) */\n      mload(0x40)\n      dup1\n      0x60\n      add\n      0x40\n      mstore\n      dup1\n        /* \"solidity/solidity31~40.sol\":2331:2335  name */\n      dup4\n        /* \"solidity/solidity31~40.sol\":2323:2347  Student(name, id, score) */\n      dup2\n      mstore\n      0x20\n      add\n        /* \"solidity/solidity31~40.sol\":2337:2339  id */\n      dup5\n        /* \"solidity/solidity31~40.sol\":2323:2347  Student(name, id, score) */\n      dup2\n      mstore\n      0x20\n      add\n        /* \"solidity/solidity31~40.sol\":2341:2346  score */\n      dup3\n        /* \"solidity/solidity31~40.sol\":2323:2347  Student(name, id, score) */\n      dup2\n      mstore\n      pop\n        /* \"solidity/solidity31~40.sol\":2308:2316  students */\n      0x00\n        /* \"solidity/solidity31~40.sol\":2308:2320  students[id] */\n      dup1\n        /* \"solidity/solidity31~40.sol\":2317:2319  id */\n      dup6\n        /* \"solidity/solidity31~40.sol\":2308:2320  students[id] */\n      dup2\n      mstore\n      0x20\n      add\n      swap1\n      dup2\n      mstore\n      0x20\n      add\n      0x00\n      keccak256\n        /* \"solidity/solidity31~40.sol\":2308:2347  students[id] = Student(name, id, score) */\n      0x00\n      dup3\n      add\n      mload\n      dup2\n      0x00\n      add\n      swap1\n      dup2\n      tag_17\n      swap2\n      swap1\n      tag_18\n      jump\t// in\n    tag_17:\n      pop\n      0x20\n      dup3\n      add\n      mload\n      dup2\n      0x01\n      add\n      sstore\n      0x40\n      dup3\n      add\n      mload\n      dup2\n      0x02\n      add\n      sstore\n      swap1\n      pop\n      pop\n        /* \"solidity/solidity31~40.sol\":2357:2367  studentIds */\n      0x01\n        /* \"solidity/solidity31~40.sol\":2373:2375  id */\n      dup4\n        /* \"solidity/solidity31~40.sol\":2357:2376  studentIds.push(id) */\n      swap1\n      dup1\n      0x01\n      dup2\n      sload\n      add\n      dup1\n      dup3\n      sstore\n      dup1\n      swap2\n      pop\n      pop\n      0x01\n      swap1\n      sub\n      swap1\n      0x00\n      mstore\n      keccak256(0x00, 0x20)\n      add\n      0x00\n      swap1\n      swap2\n      swap1\n      swap2\n      swap1\n      swap2\n      pop\n      sstore\n        /* \"solidity/solidity31~40.sol\":2400:2405  score */\n      dup1\n        /* \"solidity/solidity31~40.sol\":2386:2396  totalScore */\n      0x02\n      0x00\n        /* \"solidity/solidity31~40.sol\":2386:2405  totalScore += score */\n      dup3\n      dup3\n      sload\n      tag_20\n      swap2\n      swap1\n      tag_21\n      jump\t// in\n    tag_20:\n      swap3\n      pop\n      pop\n      dup2\n      swap1\n      sstore\n      pop\n        /* \"solidity/solidity31~40.sol\":2415:2427  studentCount */\n      0x03\n      0x00\n        /* \"solidity/solidity31~40.sol\":2415:2429  studentCount++ */\n      dup2\n      sload\n      dup1\n      swap3\n      swap2\n      swap1\n      tag_22\n      swap1\n      tag_23\n      jump\t// in\n    tag_22:\n      swap2\n      swap1\n      pop\n      sstore\n      pop\n        /* \"solidity/solidity31~40.sol\":2229:2436  function addStudent(uint id, string memory name, uint score) public {... */\n      pop\n      pop\n      pop\n      jump\t// out\n        /* \"#utility.yul\":7:84   */\n    tag_24:\n        /* \"#utility.yul\":44:51   */\n      0x00\n        /* \"#utility.yul\":73:78   */\n      dup2\n        /* \"#utility.yul\":62:78   */\n      swap1\n      pop\n        /* \"#utility.yul\":7:84   */\n      swap2\n      swap1\n      pop\n      jump\t// out\n        /* \"#utility.yul\":90:208   */\n    tag_25:\n        /* \"#utility.yul\":177:201   */\n      tag_64\n        /* \"#utility.yul\":195:200   */\n      dup2\n        /* \"#utility.yul\":177:201   */\n      tag_24\n      jump\t// in\n    tag_64:\n        /* \"#utility.yul\":172:175   */\n      dup3\n        /* \"#utility.yul\":165:202   */\n      mstore\n        /* \"#utility.yul\":90:208   */\n      pop\n      pop\n      jump\t// out\n        /* \"#utility.yul\":214:436   */\n    tag_8:\n        /* \"#utility.yul\":307:311   */\n      0x00\n        /* \"#utility.yul\":345:347   */\n      0x20\n        /* \"#utility.yul\":334:343   */\n      dup3\n        /* \"#utility.yul\":330:348   */\n      add\n        /* \"#utility.yul\":322:348   */\n      swap1\n      pop\n        /* \"#utility.yul\":358:429   */\n      tag_66\n        /* \"#utility.yul\":426:427   */\n      0x00\n        /* \"#utility.yul\":415:424   */\n      dup4\n        /* \"#utility.yul\":411:428   */\n      add\n        /* \"#utility.yul\":402:408   */\n      dup5\n        /* \"#utility.yul\":358:429   */\n      tag_25\n      jump\t// in\n    tag_66:\n        /* \"#utility.yul\":214:436   */\n      swap3\n      swap2\n      pop\n      pop\n      jump\t// out\n        /* \"#utility.yul\":442:517   */\n    tag_26:\n        /* \"#utility.yul\":475:481   */\n      0x00\n        /* \"#utility.yul\":508:510   */\n      0x40\n        /* \"#utility.yul\":502:511   */\n      mload\n        /* \"#utility.yul\":492:511   */\n      swap1\n      pop\n        /* \"#utility.yul\":442:517   */\n      swap1\n      jump\t// out\n        /* \"#utility.yul\":523:640   */\n    tag_27:\n        /* \"#utility.yul\":632:633   */\n      0x00\n        /* \"#utility.yul\":629:630   */\n      dup1\n        /* \"#utility.yul\":622:634   */\n      revert\n        /* \"#utility.yul\":646:763   */\n    tag_28:\n        /* \"#utility.yul\":755:756   */\n      0x00\n        /* \"#utility.yul\":752:753   */\n      dup1\n        /* \"#utility.yul\":745:757   */\n      revert\n        /* \"#utility.yul\":769:891   */\n    tag_29:\n        /* \"#utility.yul\":842:866   */\n      tag_71\n        /* \"#utility.yul\":860:865   */\n      dup2\n        /* \"#utility.yul\":842:866   */\n      tag_24\n      jump\t// in\n    tag_71:\n        /* \"#utility.yul\":835:840   */\n      dup2\n        /* \"#utility.yul\":832:867   */\n      eq\n        /* \"#utility.yul\":822:885   */\n      tag_72\n      jumpi\n        /* \"#utility.yul\":881:882   */\n      0x00\n        /* \"#utility.yul\":878:879   */\n      dup1\n        /* \"#utility.yul\":871:883   */\n      revert\n        /* \"#utility.yul\":822:885   */\n    tag_72:\n        /* \"#utility.yul\":769:891   */\n      pop\n      jump\t// out\n        /* \"#utility.yul\":897:1036   */\n    tag_30:\n        /* \"#utility.yul\":943:948   */\n      0x00\n        /* \"#utility.yul\":981:987   */\n      dup2\n        /* \"#utility.yul\":968:988   */\n      calldataload\n        /* \"#utility.yul\":959:988   */\n      swap1\n      pop\n        /* \"#utility.yul\":997:1030   */\n      tag_74\n        /* \"#utility.yul\":1024:1029   */\n      dup2\n        /* \"#utility.yul\":997:1030   */\n      tag_29\n      jump\t// in\n    tag_74:\n        /* \"#utility.yul\":897:1036   */\n      swap3\n      swap2\n      pop\n      pop\n      jump\t// out\n        /* \"#utility.yul\":1042:1159   */\n    tag_31:\n        /* \"#utility.yul\":1151:1152   */\n      0x00\n        /* \"#utility.yul\":1148:1149   */\n      dup1\n        /* \"#utility.yul\":1141:1153   */\n      revert\n        /* \"#utility.yul\":1165:1282   */\n    tag_32:\n        /* \"#utility.yul\":1274:1275   */\n      0x00\n        /* \"#utility.yul\":1271:1272   */\n      dup1\n        /* \"#utility.yul\":1264:1276   */\n      revert\n        /* \"#utility.yul\":1288:1390   */\n    tag_33:\n        /* \"#utility.yul\":1329:1335   */\n      0x00\n        /* \"#utility.yul\":1380:1382   */\n      0x1f\n        /* \"#utility.yul\":1376:1383   */\n      not\n        /* \"#utility.yul\":1371:1373   */\n      0x1f\n        /* \"#utility.yul\":1364:1369   */\n      dup4\n        /* \"#utility.yul\":1360:1374   */\n      add\n        /* \"#utility.yul\":1356:1384   */\n      and\n        /* \"#utility.yul\":1346:1384   */\n      swap1\n      pop\n        /* \"#utility.yul\":1288:1390   */\n      swap2\n      swap1\n      pop\n      jump\t// out\n        /* \"#utility.yul\":1396:1576   */\n    tag_34:\n        /* \"#utility.yul\":1444:1521   */\n      0x4e487b7100000000000000000000000000000000000000000000000000000000\n        /* \"#utility.yul\":1441:1442   */\n      0x00\n        /* \"#utility.yul\":1434:1522   */\n      mstore\n        /* \"#utility.yul\":1541:1545   */\n      0x41\n        /* \"#utility.yul\":1538:1539   */\n      0x04\n        /* \"#utility.yul\":1531:1546   */\n      mstore\n        /* \"#utility.yul\":1565:1569   */\n      0x24\n        /* \"#utility.yul\":1562:1563   */\n      0x00\n        /* \"#utility.yul\":1555:1570   */\n      revert\n        /* \"#utility.yul\":1582:1863   */\n    tag_35:\n        /* \"#utility.yul\":1665:1692   */\n      tag_80\n        /* \"#utility.yul\":1687:1691   */\n      dup3\n        /* \"#utility.yul\":1665:1692   */\n      tag_33\n      jump\t// in\n    tag_80:\n        /* \"#utility.yul\":1657:1663   */\n      dup2\n        /* \"#utility.yul\":1653:1693   */\n      add\n        /* \"#utility.yul\":1795:1801   */\n      dup2\n        /* \"#utility.yul\":1783:1793   */\n      dup2\n        /* \"#utility.yul\":1780:1802   */\n      lt\n        /* \"#utility.yul\":1759:1777   */\n      0xffffffffffffffff\n        /* \"#utility.yul\":1747:1757   */\n      dup3\n        /* \"#utility.yul\":1744:1778   */\n      gt\n        /* \"#utility.yul\":1741:1803   */\n      or\n        /* \"#utility.yul\":1738:1826   */\n      iszero\n      tag_81\n      jumpi\n        /* \"#utility.yul\":1806:1824   */\n      tag_82\n      tag_34\n      jump\t// in\n    tag_82:\n        /* \"#utility.yul\":1738:1826   */\n    tag_81:\n        /* \"#utility.yul\":1846:1856   */\n      dup1\n        /* \"#utility.yul\":1842:1844   */\n      0x40\n        /* \"#utility.yul\":1835:1857   */\n      mstore\n        /* \"#utility.yul\":1625:1863   */\n      pop\n        /* \"#utility.yul\":1582:1863   */\n      pop\n      pop\n      jump\t// out\n        /* \"#utility.yul\":1869:1998   */\n    tag_36:\n        /* \"#utility.yul\":1903:1909   */\n      0x00\n        /* \"#utility.yul\":1930:1950   */\n      tag_84\n      tag_26\n      jump\t// in\n    tag_84:\n        /* \"#utility.yul\":1920:1950   */\n      swap1\n      pop\n        /* \"#utility.yul\":1959:1992   */\n      tag_85\n        /* \"#utility.yul\":1987:1991   */\n      dup3\n        /* \"#utility.yul\":1979:1985   */\n      dup3\n        /* \"#utility.yul\":1959:1992   */\n      tag_35\n      jump\t// in\n    tag_85:\n        /* \"#utility.yul\":1869:1998   */\n      swap2\n      swap1\n      pop\n      jump\t// out\n        /* \"#utility.yul\":2004:2312   */\n    tag_37:\n        /* \"#utility.yul\":2066:2070   */\n      0x00\n        /* \"#utility.yul\":2156:2174   */\n      0xffffffffffffffff\n        /* \"#utility.yul\":2148:2154   */\n      dup3\n        /* \"#utility.yul\":2145:2175   */\n      gt\n        /* \"#utility.yul\":2142:2198   */\n      iszero\n      tag_87\n      jumpi\n        /* \"#utility.yul\":2178:2196   */\n      tag_88\n      tag_34\n      jump\t// in\n    tag_88:\n        /* \"#utility.yul\":2142:2198   */\n    tag_87:\n        /* \"#utility.yul\":2216:2245   */\n      tag_89\n        /* \"#utility.yul\":2238:2244   */\n      dup3\n        /* \"#utility.yul\":2216:2245   */\n      tag_33\n      jump\t// in\n    tag_89:\n        /* \"#utility.yul\":2208:2245   */\n      swap1\n      pop\n        /* \"#utility.yul\":2300:2304   */\n      0x20\n        /* \"#utility.yul\":2294:2298   */\n      dup2\n        /* \"#utility.yul\":2290:2305   */\n      add\n        /* \"#utility.yul\":2282:2305   */\n      swap1\n      pop\n        /* \"#utility.yul\":2004:2312   */\n      swap2\n      swap1\n      pop\n      jump\t// out\n        /* \"#utility.yul\":2318:2466   */\n    tag_38:\n        /* \"#utility.yul\":2416:2422   */\n      dup3\n        /* \"#utility.yul\":2411:2414   */\n      dup2\n        /* \"#utility.yul\":2406:2409   */\n      dup4\n        /* \"#utility.yul\":2393:2423   */\n      calldatacopy\n        /* \"#utility.yul\":2457:2458   */\n      0x00\n        /* \"#utility.yul\":2448:2454   */\n      dup4\n        /* \"#utility.yul\":2443:2446   */\n      dup4\n        /* \"#utility.yul\":2439:2455   */\n      add\n        /* \"#utility.yul\":2432:2459   */\n      mstore\n        /* \"#utility.yul\":2318:2466   */\n      pop\n      pop\n      pop\n      jump\t// out\n        /* \"#utility.yul\":2472:2897   */\n    tag_39:\n        /* \"#utility.yul\":2550:2555   */\n      0x00\n        /* \"#utility.yul\":2575:2641   */\n      tag_92\n        /* \"#utility.yul\":2591:2640   */\n      tag_93\n        /* \"#utility.yul\":2633:2639   */\n      dup5\n        /* \"#utility.yul\":2591:2640   */\n      tag_37\n      jump\t// in\n    tag_93:\n        /* \"#utility.yul\":2575:2641   */\n      tag_36\n      jump\t// in\n    tag_92:\n        /* \"#utility.yul\":2566:2641   */\n      swap1\n      pop\n        /* \"#utility.yul\":2664:2670   */\n      dup3\n        /* \"#utility.yul\":2657:2662   */\n      dup2\n        /* \"#utility.yul\":2650:2671   */\n      mstore\n        /* \"#utility.yul\":2702:2706   */\n      0x20\n        /* \"#utility.yul\":2695:2700   */\n      dup2\n        /* \"#utility.yul\":2691:2707   */\n      add\n        /* \"#utility.yul\":2740:2743   */\n      dup5\n        /* \"#utility.yul\":2731:2737   */\n      dup5\n        /* \"#utility.yul\":2726:2729   */\n      dup5\n        /* \"#utility.yul\":2722:2738   */\n      add\n        /* \"#utility.yul\":2719:2744   */\n      gt\n        /* \"#utility.yul\":2716:2828   */\n      iszero\n      tag_94\n      jumpi\n        /* \"#utility.yul\":2747:2826   */\n      tag_95\n      tag_32\n      jump\t// in\n    tag_95:\n        /* \"#utility.yul\":2716:2828   */\n    tag_94:\n        /* \"#utility.yul\":2837:2891   */\n      tag_96\n        /* \"#utility.yul\":2884:2890   */\n      dup5\n        /* \"#utility.yul\":2879:2882   */\n      dup3\n        /* \"#utility.yul\":2874:2877   */\n      dup6\n        /* \"#utility.yul\":2837:2891   */\n      tag_38\n      jump\t// in\n    tag_96:\n        /* \"#utility.yul\":2556:2897   */\n      pop\n        /* \"#utility.yul\":2472:2897   */\n      swap4\n      swap3\n      pop\n      pop\n      pop\n      jump\t// out\n        /* \"#utility.yul\":2917:3257   */\n    tag_40:\n        /* \"#utility.yul\":2973:2978   */\n      0x00\n        /* \"#utility.yul\":3022:3025   */\n      dup3\n        /* \"#utility.yul\":3015:3019   */\n      0x1f\n        /* \"#utility.yul\":3007:3013   */\n      dup4\n        /* \"#utility.yul\":3003:3020   */\n      add\n        /* \"#utility.yul\":2999:3026   */\n      slt\n        /* \"#utility.yul\":2989:3111   */\n      tag_98\n      jumpi\n        /* \"#utility.yul\":3030:3109   */\n      tag_99\n      tag_31\n      jump\t// in\n    tag_99:\n        /* \"#utility.yul\":2989:3111   */\n    tag_98:\n        /* \"#utility.yul\":3147:3153   */\n      dup2\n        /* \"#utility.yul\":3134:3154   */\n      calldataload\n        /* \"#utility.yul\":3172:3251   */\n      tag_100\n        /* \"#utility.yul\":3247:3250   */\n      dup5\n        /* \"#utility.yul\":3239:3245   */\n      dup3\n        /* \"#utility.yul\":3232:3236   */\n      0x20\n        /* \"#utility.yul\":3224:3230   */\n      dup7\n        /* \"#utility.yul\":3220:3237   */\n      add\n        /* \"#utility.yul\":3172:3251   */\n      tag_39\n      jump\t// in\n    tag_100:\n        /* \"#utility.yul\":3163:3251   */\n      swap2\n      pop\n        /* \"#utility.yul\":2979:3257   */\n      pop\n        /* \"#utility.yul\":2917:3257   */\n      swap3\n      swap2\n      pop\n      pop\n      jump\t// out\n        /* \"#utility.yul\":3263:4062   */\n    tag_11:\n        /* \"#utility.yul\":3350:3356   */\n      0x00\n        /* \"#utility.yul\":3358:3364   */\n      dup1\n        /* \"#utility.yul\":3366:3372   */\n      0x00\n        /* \"#utility.yul\":3415:3417   */\n      0x60\n        /* \"#utility.yul\":3403:3412   */\n      dup5\n        /* \"#utility.yul\":3394:3401   */\n      dup7\n        /* \"#utility.yul\":3390:3413   */\n      sub\n        /* \"#utility.yul\":3386:3418   */\n      slt\n        /* \"#utility.yul\":3383:3502   */\n      iszero\n      tag_102\n      jumpi\n        /* \"#utility.yul\":3421:3500   */\n      tag_103\n      tag_27\n      jump\t// in\n    tag_103:\n        /* \"#utility.yul\":3383:3502   */\n    tag_102:\n        /* \"#utility.yul\":3541:3542   */\n      0x00\n        /* \"#utility.yul\":3566:3619   */\n      tag_104\n        /* \"#utility.yul\":3611:3618   */\n      dup7\n        /* \"#utility.yul\":3602:3608   */\n      dup3\n        /* \"#utility.yul\":3591:3600   */\n      dup8\n        /* \"#utility.yul\":3587:3609   */\n      add\n        /* \"#utility.yul\":3566:3619   */\n      tag_30\n      jump\t// in\n    tag_104:\n        /* \"#utility.yul\":3556:3619   */\n      swap4\n      pop\n        /* \"#utility.yul\":3512:3629   */\n      pop\n        /* \"#utility.yul\":3696:3698   */\n      0x20\n        /* \"#utility.yul\":3685:3694   */\n      dup5\n        /* \"#utility.yul\":3681:3699   */\n      add\n        /* \"#utility.yul\":3668:3700   */\n      calldataload\n        /* \"#utility.yul\":3727:3745   */\n      0xffffffffffffffff\n        /* \"#utility.yul\":3719:3725   */\n      dup2\n        /* \"#utility.yul\":3716:3746   */\n      gt\n        /* \"#utility.yul\":3713:3830   */\n      iszero\n      tag_105\n      jumpi\n        /* \"#utility.yul\":3749:3828   */\n      tag_106\n      tag_28\n      jump\t// in\n    tag_106:\n        /* \"#utility.yul\":3713:3830   */\n    tag_105:\n        /* \"#utility.yul\":3854:3917   */\n      tag_107\n        /* \"#utility.yul\":3909:3916   */\n      dup7\n        /* \"#utility.yul\":3900:3906   */\n      dup3\n        /* \"#utility.yul\":3889:3898   */\n      dup8\n        /* \"#utility.yul\":3885:3907   */\n      add\n        /* \"#utility.yul\":3854:3917   */\n      tag_40\n      jump\t// in\n    tag_107:\n        /* \"#utility.yul\":3844:3917   */\n      swap3\n      pop\n        /* \"#utility.yul\":3639:3927   */\n      pop\n        /* \"#utility.yul\":3966:3968   */\n      0x40\n        /* \"#utility.yul\":3992:4045   */\n      tag_108\n        /* \"#utility.yul\":4037:4044   */\n      dup7\n        /* \"#utility.yul\":4028:4034   */\n      dup3\n        /* \"#utility.yul\":4017:4026   */\n      dup8\n        /* \"#utility.yul\":4013:4035   */\n      add\n        /* \"#utility.yul\":3992:4045   */\n      tag_30\n      jump\t// in\n    tag_108:\n        /* \"#utility.yul\":3982:4045   */\n      swap2\n      pop\n        /* \"#utility.yul\":3937:4055   */\n      pop\n        /* \"#utility.yul\":3263:4062   */\n      swap3\n      pop\n      swap3\n      pop\n      swap3\n      jump\t// out\n        /* \"#utility.yul\":4068:4248   */\n    tag_41:\n        /* \"#utility.yul\":4116:4193   */\n      0x4e487b7100000000000000000000000000000000000000000000000000000000\n        /* \"#utility.yul\":4113:4114   */\n      0x00\n        /* \"#utility.yul\":4106:4194   */\n      mstore\n        /* \"#utility.yul\":4213:4217   */\n      0x12\n        /* \"#utility.yul\":4210:4211   */\n      0x04\n        /* \"#utility.yul\":4203:4218   */\n      mstore\n        /* \"#utility.yul\":4237:4241   */\n      0x24\n        /* \"#utility.yul\":4234:4235   */\n      0x00\n        /* \"#utility.yul\":4227:4242   */\n      revert\n        /* \"#utility.yul\":4254:4434   */\n    tag_42:\n        /* \"#utility.yul\":4302:4379   */\n      0x4e487b7100000000000000000000000000000000000000000000000000000000\n        /* \"#utility.yul\":4299:4300   */\n      0x00\n        /* \"#utility.yul\":4292:4380   */\n      mstore\n        /* \"#utility.yul\":4399:4403   */\n      0x11\n        /* \"#utility.yul\":4396:4397   */\n      0x04\n        /* \"#utility.yul\":4389:4404   */\n      mstore\n        /* \"#utility.yul\":4423:4427   */\n      0x24\n        /* \"#utility.yul\":4420:4421   */\n      0x00\n        /* \"#utility.yul\":4413:4428   */\n      revert\n        /* \"#utility.yul\":4440:4625   */\n    tag_15:\n        /* \"#utility.yul\":4480:4481   */\n      0x00\n        /* \"#utility.yul\":4497:4517   */\n      tag_112\n        /* \"#utility.yul\":4515:4516   */\n      dup3\n        /* \"#utility.yul\":4497:4517   */\n      tag_24\n      jump\t// in\n    tag_112:\n        /* \"#utility.yul\":4492:4517   */\n      swap2\n      pop\n        /* \"#utility.yul\":4531:4551   */\n      tag_113\n        /* \"#utility.yul\":4549:4550   */\n      dup4\n        /* \"#utility.yul\":4531:4551   */\n      tag_24\n      jump\t// in\n    tag_113:\n        /* \"#utility.yul\":4526:4551   */\n      swap3\n      pop\n        /* \"#utility.yul\":4570:4571   */\n      dup3\n        /* \"#utility.yul\":4560:4595   */\n      tag_114\n      jumpi\n        /* \"#utility.yul\":4575:4593   */\n      tag_115\n      tag_41\n      jump\t// in\n    tag_115:\n        /* \"#utility.yul\":4560:4595   */\n    tag_114:\n        /* \"#utility.yul\":4617:4618   */\n      dup3\n        /* \"#utility.yul\":4614:4615   */\n      dup3\n        /* \"#utility.yul\":4610:4619   */\n      div\n        /* \"#utility.yul\":4605:4619   */\n      swap1\n      pop\n        /* \"#utility.yul\":4440:4625   */\n      swap3\n      swap2\n      pop\n      pop\n      jump\t// out\n        /* \"#utility.yul\":4631:4730   */\n    tag_43:\n        /* \"#utility.yul\":4683:4689   */\n      0x00\n        /* \"#utility.yul\":4717:4722   */\n      dup2\n        /* \"#utility.yul\":4711:4723   */\n      mload\n        /* \"#utility.yul\":4701:4723   */\n      swap1\n      pop\n        /* \"#utility.yul\":4631:4730   */\n      swap2\n      swap1\n      pop\n      jump\t// out\n        /* \"#utility.yul\":4736:4916   */\n    tag_44:\n        /* \"#utility.yul\":4784:4861   */\n      0x4e487b7100000000000000000000000000000000000000000000000000000000\n        /* \"#utility.yul\":4781:4782   */\n      0x00\n        /* \"#utility.yul\":4774:4862   */\n      mstore\n        /* \"#utility.yul\":4881:4885   */\n      0x22\n        /* \"#utility.yul\":4878:4879   */\n      0x04\n        /* \"#utility.yul\":4871:4886   */\n      mstore\n        /* \"#utility.yul\":4905:4909   */\n      0x24\n        /* \"#utility.yul\":4902:4903   */\n      0x00\n        /* \"#utility.yul\":4895:4910   */\n      revert\n        /* \"#utility.yul\":4922:5242   */\n    tag_45:\n        /* \"#utility.yul\":4966:4972   */\n      0x00\n        /* \"#utility.yul\":5003:5004   */\n      0x02\n        /* \"#utility.yul\":4997:5001   */\n      dup3\n        /* \"#utility.yul\":4993:5005   */\n      div\n        /* \"#utility.yul\":4983:5005   */\n      swap1\n      pop\n        /* \"#utility.yul\":5050:5051   */\n      0x01\n        /* \"#utility.yul\":5044:5048   */\n      dup3\n        /* \"#utility.yul\":5040:5052   */\n      and\n        /* \"#utility.yul\":5071:5089   */\n      dup1\n        /* \"#utility.yul\":5061:5142   */\n      tag_119\n      jumpi\n        /* \"#utility.yul\":5127:5131   */\n      0x7f\n        /* \"#utility.yul\":5119:5125   */\n      dup3\n        /* \"#utility.yul\":5115:5132   */\n      and\n        /* \"#utility.yul\":5105:5132   */\n      swap2\n      pop\n        /* \"#utility.yul\":5061:5142   */\n    tag_119:\n        /* \"#utility.yul\":5189:5191   */\n      0x20\n        /* \"#utility.yul\":5181:5187   */\n      dup3\n        /* \"#utility.yul\":5178:5192   */\n      lt\n        /* \"#utility.yul\":5158:5176   */\n      dup2\n        /* \"#utility.yul\":5155:5193   */\n      sub\n        /* \"#utility.yul\":5152:5236   */\n      tag_120\n      jumpi\n        /* \"#utility.yul\":5208:5226   */\n      tag_121\n      tag_44\n      jump\t// in\n    tag_121:\n        /* \"#utility.yul\":5152:5236   */\n    tag_120:\n        /* \"#utility.yul\":4973:5242   */\n      pop\n        /* \"#utility.yul\":4922:5242   */\n      swap2\n      swap1\n      pop\n      jump\t// out\n        /* \"#utility.yul\":5248:5389   */\n    tag_46:\n        /* \"#utility.yul\":5297:5301   */\n      0x00\n        /* \"#utility.yul\":5320:5323   */\n      dup2\n        /* \"#utility.yul\":5312:5323   */\n      swap1\n      pop\n        /* \"#utility.yul\":5343:5346   */\n      dup2\n        /* \"#utility.yul\":5340:5341   */\n      0x00\n        /* \"#utility.yul\":5333:5347   */\n      mstore\n        /* \"#utility.yul\":5377:5381   */\n      0x20\n        /* \"#utility.yul\":5374:5375   */\n      0x00\n        /* \"#utility.yul\":5364:5382   */\n      keccak256\n        /* \"#utility.yul\":5356:5382   */\n      swap1\n      pop\n        /* \"#utility.yul\":5248:5389   */\n      swap2\n      swap1\n      pop\n      jump\t// out\n        /* \"#utility.yul\":5395:5488   */\n    tag_47:\n        /* \"#utility.yul\":5432:5438   */\n      0x00\n        /* \"#utility.yul\":5479:5481   */\n      0x20\n        /* \"#utility.yul\":5474:5476   */\n      0x1f\n        /* \"#utility.yul\":5467:5472   */\n      dup4\n        /* \"#utility.yul\":5463:5477   */\n      add\n        /* \"#utility.yul\":5459:5482   */\n      div\n        /* \"#utility.yul\":5449:5482   */\n      swap1\n      pop\n        /* \"#utility.yul\":5395:5488   */\n      swap2\n      swap1\n      pop\n      jump\t// out\n        /* \"#utility.yul\":5494:5601   */\n    tag_48:\n        /* \"#utility.yul\":5538:5546   */\n      0x00\n        /* \"#utility.yul\":5588:5593   */\n      dup3\n        /* \"#utility.yul\":5582:5586   */\n      dup3\n        /* \"#utility.yul\":5578:5594   */\n      shl\n        /* \"#utility.yul\":5557:5594   */\n      swap1\n      pop\n        /* \"#utility.yul\":5494:5601   */\n      swap3\n      swap2\n      pop\n      pop\n      jump\t// out\n        /* \"#utility.yul\":5607:6000   */\n    tag_49:\n        /* \"#utility.yul\":5676:5682   */\n      0x00\n        /* \"#utility.yul\":5726:5727   */\n      0x08\n        /* \"#utility.yul\":5714:5724   */\n      dup4\n        /* \"#utility.yul\":5710:5728   */\n      mul\n        /* \"#utility.yul\":5749:5846   */\n      tag_126\n        /* \"#utility.yul\":5779:5845   */\n      0xffffffffffffffffffffffffffffffffffffffffffffffffffffffffffffffff\n        /* \"#utility.yul\":5768:5777   */\n      dup3\n        /* \"#utility.yul\":5749:5846   */\n      tag_48\n      jump\t// in\n    tag_126:\n        /* \"#utility.yul\":5867:5906   */\n      tag_127\n        /* \"#utility.yul\":5897:5905   */\n      dup7\n        /* \"#utility.yul\":5886:5895   */\n      dup4\n        /* \"#utility.yul\":5867:5906   */\n      tag_48\n      jump\t// in\n    tag_127:\n        /* \"#utility.yul\":5855:5906   */\n      swap6\n      pop\n        /* \"#utility.yul\":5939:5943   */\n      dup1\n        /* \"#utility.yul\":5935:5944   */\n      not\n        /* \"#utility.yul\":5928:5933   */\n      dup5\n        /* \"#utility.yul\":5924:5945   */\n      and\n        /* \"#utility.yul\":5915:5945   */\n      swap4\n      pop\n        /* \"#utility.yul\":5988:5992   */\n      dup1\n        /* \"#utility.yul\":5978:5986   */\n      dup7\n        /* \"#utility.yul\":5974:5993   */\n      and\n        /* \"#utility.yul\":5967:5972   */\n      dup5\n        /* \"#utility.yul\":5964:5994   */\n      or\n        /* \"#utility.yul\":5954:5994   */\n      swap3\n      pop\n        /* \"#utility.yul\":5683:6000   */\n      pop\n      pop\n        /* \"#utility.yul\":5607:6000   */\n      swap4\n      swap3\n      pop\n      pop\n      pop\n      jump\t// out\n        /* \"#utility.yul\":6006:6066   */\n    tag_50:\n        /* \"#utility.yul\":6034:6037   */\n      0x00\n        /* \"#utility.yul\":6055:6060   */\n      dup2\n        /* \"#utility.yul\":6048:6060   */\n      swap1\n      pop\n        /* \"#utility.yul\":6006:6066   */\n      swap2\n      swap1\n      pop\n      jump\t// out\n        /* \"#utility.yul\":6072:6214   */\n    tag_51:\n        /* \"#utility.yul\":6122:6131   */\n      0x00\n        /* \"#utility.yul\":6155:6208   */\n      tag_130\n        /* \"#utility.yul\":6173:6207   */\n      tag_131\n        /* \"#utility.yul\":6182:6206   */\n      tag_132\n        /* \"#utility.yul\":6200:6205   */\n      dup5\n        /* \"#utility.yul\":6182:6206   */\n      tag_24\n      jump\t// in\n    tag_132:\n        /* \"#utility.yul\":6173:6207   */\n      tag_50\n      jump\t// in\n    tag_131:\n        /* \"#utility.yul\":6155:6208   */\n      tag_24\n      jump\t// in\n    tag_130:\n        /* \"#utility.yul\":6142:6208   */\n      swap1\n      pop\n        /* \"#utility.yul\":6072:6214   */\n      swap2\n      swap1\n      pop\n      jump\t// out\n        /* \"#utility.yul\":6220:6295   */\n    tag_52:\n        /* \"#utility.yul\":6263:6266   */\n      0x00\n        /* \"#utility.yul\":6284:6289   */\n      dup2\n        /* \"#utility.yul\":6277:6289   */\n      swap1\n      pop\n        /* \"#utility.yul\":6220:6295   */\n      swap2\n      swap1\n      pop\n      jump\t// out\n        /* \"#utility.yul\":6301:6570   */\n    tag_53:\n        /* \"#utility.yul\":6411:6450   */\n      tag_135\n        /* \"#utility.yul\":6442:6449   */\n      dup4\n        /* \"#utility.yul\":6411:6450   */\n      tag_51\n      jump\t// in\n    tag_135:\n        /* \"#utility.yul\":6472:6563   */\n      tag_136\n        /* \"#utility.yul\":6521:6562   */\n      tag_137\n        /* \"#utility.yul\":6545:6561   */\n      dup3\n        /* \"#utility.yul\":6521:6562   */\n      tag_52\n      jump\t// in\n    tag_137:\n        /* \"#utility.yul\":6513:6519   */\n      dup5\n        /* \"#utility.yul\":6506:6510   */\n      dup5\n        /* \"#utility.yul\":6500:6511   */\n      sload\n        /* \"#utility.yul\":6472:6563   */\n      tag_49\n      jump\t// in\n    tag_136:\n        /* \"#utility.yul\":6466:6470   */\n      dup3\n        /* \"#utility.yul\":6459:6564   */\n      sstore\n        /* \"#utility.yul\":6377:6570   */\n      pop\n        /* \"#utility.yul\":6301:6570   */\n      pop\n      pop\n      pop\n      jump\t// out\n        /* \"#utility.yul\":6576:6649   */\n    tag_54:\n        /* \"#utility.yul\":6621:6624   */\n      0x00\n        /* \"#utility.yul\":6576:6649   */\n      swap1\n      jump\t// out\n        /* \"#utility.yul\":6655:6844   */\n    tag_55:\n        /* \"#utility.yul\":6732:6764   */\n      tag_140\n      tag_54\n      jump\t// in\n    tag_140:\n        /* \"#utility.yul\":6773:6838   */\n      tag_141\n        /* \"#utility.yul\":6831:6837   */\n      dup2\n        /* \"#utility.yul\":6823:6829   */\n      dup5\n        /* \"#utility.yul\":6817:6821   */\n      dup5\n        /* \"#utility.yul\":6773:6838   */\n      tag_53\n      jump\t// in\n    tag_141:\n        /* \"#utility.yul\":6708:6844   */\n      pop\n        /* \"#utility.yul\":6655:6844   */\n      pop\n      pop\n      jump\t// out\n        /* \"#utility.yul\":6850:7036   */\n    tag_56:\n        /* \"#utility.yul\":6910:7030   */\n    tag_143:\n        /* \"#utility.yul\":6927:6930   */\n      dup2\n        /* \"#utility.yul\":6920:6925   */\n      dup2\n        /* \"#utility.yul\":6917:6931   */\n      lt\n        /* \"#utility.yul\":6910:7030   */\n      iszero\n      tag_145\n      jumpi\n        /* \"#utility.yul\":6981:7020   */\n      tag_146\n        /* \"#utility.yul\":7018:7019   */\n      0x00\n        /* \"#utility.yul\":7011:7016   */\n      dup3\n        /* \"#utility.yul\":6981:7020   */\n      tag_55\n      jump\t// in\n    tag_146:\n        /* \"#utility.yul\":6954:6955   */\n      0x01\n        /* \"#utility.yul\":6947:6952   */\n      dup2\n        /* \"#utility.yul\":6943:6956   */\n      add\n        /* \"#utility.yul\":6934:6956   */\n      swap1\n      pop\n        /* \"#utility.yul\":6910:7030   */\n      jump(tag_143)\n    tag_145:\n        /* \"#utility.yul\":6850:7036   */\n      pop\n      pop\n      jump\t// out\n        /* \"#utility.yul\":7042:7585   */\n    tag_57:\n        /* \"#utility.yul\":7143:7145   */\n      0x1f\n        /* \"#utility.yul\":7138:7141   */\n      dup3\n        /* \"#utility.yul\":7135:7146   */\n      gt\n        /* \"#utility.yul\":7132:7578   */\n      iszero\n      tag_148\n      jumpi\n        /* \"#utility.yul\":7177:7215   */\n      tag_149\n        /* \"#utility.yul\":7209:7214   */\n      dup2\n        /* \"#utility.yul\":7177:7215   */\n      tag_46\n      jump\t// in\n    tag_149:\n        /* \"#utility.yul\":7261:7290   */\n      tag_150\n        /* \"#utility.yul\":7279:7289   */\n      dup5\n        /* \"#utility.yul\":7261:7290   */\n      tag_47\n      jump\t// in\n    tag_150:\n        /* \"#utility.yul\":7251:7259   */\n      dup2\n        /* \"#utility.yul\":7247:7291   */\n      add\n        /* \"#utility.yul\":7444:7446   */\n      0x20\n        /* \"#utility.yul\":7432:7442   */\n      dup6\n        /* \"#utility.yul\":7429:7447   */\n      lt\n        /* \"#utility.yul\":7426:7475   */\n      iszero\n      tag_151\n      jumpi\n        /* \"#utility.yul\":7465:7473   */\n      dup2\n        /* \"#utility.yul\":7450:7473   */\n      swap1\n      pop\n        /* \"#utility.yul\":7426:7475   */\n    tag_151:\n        /* \"#utility.yul\":7488:7568   */\n      tag_152\n        /* \"#utility.yul\":7544:7566   */\n      tag_153\n        /* \"#utility.yul\":7562:7565   */\n      dup6\n        /* \"#utility.yul\":7544:7566   */\n      tag_47\n      jump\t// in\n    tag_153:\n        /* \"#utility.yul\":7534:7542   */\n      dup4\n        /* \"#utility.yul\":7530:7567   */\n      add\n        /* \"#utility.yul\":7517:7528   */\n      dup3\n        /* \"#utility.yul\":7488:7568   */\n      tag_56\n      jump\t// in\n    tag_152:\n        /* \"#utility.yul\":7147:7578   */\n      pop\n      pop\n        /* \"#utility.yul\":7132:7578   */\n    tag_148:\n        /* \"#utility.yul\":7042:7585   */\n      pop\n      pop\n      pop\n      jump\t// out\n        /* \"#utility.yul\":7591:7708   */\n    tag_58:\n        /* \"#utility.yul\":7645:7653   */\n      0x00\n        /* \"#utility.yul\":7695:7700   */\n      dup3\n        /* \"#utility.yul\":7689:7693   */\n      dup3\n        /* \"#utility.yul\":7685:7701   */\n      shr\n        /* \"#utility.yul\":7664:7701   */\n      swap1\n      pop\n        /* \"#utility.yul\":7591:7708   */\n      swap3\n      swap2\n      pop\n      pop\n      jump\t// out\n        /* \"#utility.yul\":7714:7883   */\n    tag_59:\n        /* \"#utility.yul\":7758:7764   */\n      0x00\n        /* \"#utility.yul\":7791:7842   */\n      tag_156\n        /* \"#utility.yul\":7839:7840   */\n      0x00\n        /* \"#utility.yul\":7835:7841   */\n      not\n        /* \"#utility.yul\":7827:7832   */\n      dup5\n        /* \"#utility.yul\":7824:7825   */\n      0x08\n        /* \"#utility.yul\":7820:7833   */\n      mul\n        /* \"#utility.yul\":7791:7842   */\n      tag_58\n      jump\t// in\n    tag_156:\n        /* \"#utility.yul\":7787:7843   */\n      not\n        /* \"#utility.yul\":7872:7876   */\n      dup1\n        /* \"#utility.yul\":7866:7870   */\n      dup4\n        /* \"#utility.yul\":7862:7877   */\n      and\n        /* \"#utility.yul\":7852:7877   */\n      swap2\n      pop\n        /* \"#utility.yul\":7765:7883   */\n      pop\n        /* \"#utility.yul\":7714:7883   */\n      swap3\n      swap2\n      pop\n      pop\n      jump\t// out\n        /* \"#utility.yul\":7888:8183   */\n    tag_60:\n        /* \"#utility.yul\":7964:7968   */\n      0x00\n        /* \"#utility.yul\":8110:8139   */\n      tag_158\n        /* \"#utility.yul\":8135:8138   */\n      dup4\n        /* \"#utility.yul\":8129:8133   */\n      dup4\n        /* \"#utility.yul\":8110:8139   */\n      tag_59\n      jump\t// in\n    tag_158:\n        /* \"#utility.yul\":8102:8139   */\n      swap2\n      pop\n        /* \"#utility.yul\":8172:8175   */\n      dup3\n        /* \"#utility.yul\":8169:8170   */\n      0x02\n        /* \"#utility.yul\":8165:8176   */\n      mul\n        /* \"#utility.yul\":8159:8163   */\n      dup3\n        /* \"#utility.yul\":8156:8177   */\n      or\n        /* \"#utility.yul\":8148:8177   */\n      swap1\n      pop\n        /* \"#utility.yul\":7888:8183   */\n      swap3\n      swap2\n      pop\n      pop\n      jump\t// out\n        /* \"#utility.yul\":8188:9583   */\n    tag_18:\n        /* \"#utility.yul\":8305:8342   */\n      tag_160\n        /* \"#utility.yul\":8338:8341   */\n      dup3\n        /* \"#utility.yul\":8305:8342   */\n      tag_43\n      jump\t// in\n    tag_160:\n        /* \"#utility.yul\":8407:8425   */\n      0xffffffffffffffff\n        /* \"#utility.yul\":8399:8405   */\n      dup2\n        /* \"#utility.yul\":8396:8426   */\n      gt\n        /* \"#utility.yul\":8393:8449   */\n      iszero\n      tag_161\n      jumpi\n        /* \"#utility.yul\":8429:8447   */\n      tag_162\n      tag_34\n      jump\t// in\n    tag_162:\n        /* \"#utility.yul\":8393:8449   */\n    tag_161:\n        /* \"#utility.yul\":8473:8511   */\n      tag_163\n        /* \"#utility.yul\":8505:8509   */\n      dup3\n        /* \"#utility.yul\":8499:8510   */\n      sload\n        /* \"#utility.yul\":8473:8511   */\n      tag_45\n      jump\t// in\n    tag_163:\n        /* \"#utility.yul\":8558:8625   */\n      tag_164\n        /* \"#utility.yul\":8618:8624   */\n      dup3\n        /* \"#utility.yul\":8610:8616   */\n      dup3\n        /* \"#utility.yul\":8604:8608   */\n      dup6\n        /* \"#utility.yul\":8558:8625   */\n      tag_57\n      jump\t// in\n    tag_164:\n        /* \"#utility.yul\":8652:8653   */\n      0x00\n        /* \"#utility.yul\":8676:8680   */\n      0x20\n        /* \"#utility.yul\":8663:8680   */\n      swap1\n      pop\n        /* \"#utility.yul\":8708:8710   */\n      0x1f\n        /* \"#utility.yul\":8700:8706   */\n      dup4\n        /* \"#utility.yul\":8697:8711   */\n      gt\n        /* \"#utility.yul\":8725:8726   */\n      0x01\n        /* \"#utility.yul\":8720:9338   */\n      dup2\n      eq\n      tag_166\n      jumpi\n        /* \"#utility.yul\":9382:9383   */\n      0x00\n        /* \"#utility.yul\":9399:9405   */\n      dup5\n        /* \"#utility.yul\":9396:9473   */\n      iszero\n      tag_167\n      jumpi\n        /* \"#utility.yul\":9448:9457   */\n      dup3\n        /* \"#utility.yul\":9443:9446   */\n      dup8\n        /* \"#utility.yul\":9439:9458   */\n      add\n        /* \"#utility.yul\":9433:9459   */\n      mload\n        /* \"#utility.yul\":9424:9459   */\n      swap1\n      pop\n        /* \"#utility.yul\":9396:9473   */\n    tag_167:\n        /* \"#utility.yul\":9499:9566   */\n      tag_168\n        /* \"#utility.yul\":9559:9565   */\n      dup6\n        /* \"#utility.yul\":9552:9557   */\n      dup3\n        /* \"#utility.yul\":9499:9566   */\n      tag_60\n      jump\t// in\n    tag_168:\n        /* \"#utility.yul\":9493:9497   */\n      dup7\n        /* \"#utility.yul\":9486:9567   */\n      sstore\n        /* \"#utility.yul\":9355:9577   */\n      pop\n        /* \"#utility.yul\":8690:9577   */\n      jump(tag_165)\n        /* \"#utility.yul\":8720:9338   */\n    tag_166:\n        /* \"#utility.yul\":8772:8776   */\n      0x1f\n        /* \"#utility.yul\":8768:8777   */\n      not\n        /* \"#utility.yul\":8760:8766   */\n      dup5\n        /* \"#utility.yul\":8756:8778   */\n      and\n        /* \"#utility.yul\":8806:8843   */\n      tag_169\n        /* \"#utility.yul\":8838:8842   */\n      dup7\n        /* \"#utility.yul\":8806:8843   */\n      tag_46\n      jump\t// in\n    tag_169:\n        /* \"#utility.yul\":8865:8866   */\n      0x00\n        /* \"#utility.yul\":8879:9087   */\n    tag_170:\n        /* \"#utility.yul\":8893:8900   */\n      dup3\n        /* \"#utility.yul\":8890:8891   */\n      dup2\n        /* \"#utility.yul\":8887:8901   */\n      lt\n        /* \"#utility.yul\":8879:9087   */\n      iszero\n      tag_172\n      jumpi\n        /* \"#utility.yul\":8972:8981   */\n      dup5\n        /* \"#utility.yul\":8967:8970   */\n      dup10\n        /* \"#utility.yul\":8963:8982   */\n      add\n        /* \"#utility.yul\":8957:8983   */\n      mload\n        /* \"#utility.yul\":8949:8955   */\n      dup3\n        /* \"#utility.yul\":8942:8984   */\n      sstore\n        /* \"#utility.yul\":9023:9024   */\n      0x01\n        /* \"#utility.yul\":9015:9021   */\n      dup3\n        /* \"#utility.yul\":9011:9025   */\n      add\n        /* \"#utility.yul\":9001:9025   */\n      swap2\n      pop\n        /* \"#utility.yul\":9070:9072   */\n      0x20\n        /* \"#utility.yul\":9059:9068   */\n      dup6\n        /* \"#utility.yul\":9055:9073   */\n      add\n        /* \"#utility.yul\":9042:9073   */\n      swap5\n      pop\n        /* \"#utility.yul\":8916:8920   */\n      0x20\n        /* \"#utility.yul\":8913:8914   */\n      dup2\n        /* \"#utility.yul\":8909:8921   */\n      add\n        /* \"#utility.yul\":8904:8921   */\n      swap1\n      pop\n        /* \"#utility.yul\":8879:9087   */\n      jump(tag_170)\n    tag_172:\n        /* \"#utility.yul\":9115:9121   */\n      dup7\n        /* \"#utility.yul\":9106:9113   */\n      dup4\n        /* \"#utility.yul\":9103:9122   */\n      lt\n        /* \"#utility.yul\":9100:9279   */\n      iszero\n      tag_173\n      jumpi\n        /* \"#utility.yul\":9173:9182   */\n      dup5\n        /* \"#utility.yul\":9168:9171   */\n      dup10\n        /* \"#utility.yul\":9164:9183   */\n      add\n        /* \"#utility.yul\":9158:9184   */\n      mload\n        /* \"#utility.yul\":9216:9264   */\n      tag_174\n        /* \"#utility.yul\":9258:9262   */\n      0x1f\n        /* \"#utility.yul\":9250:9256   */\n      dup10\n        /* \"#utility.yul\":9246:9263   */\n      and\n        /* \"#utility.yul\":9235:9244   */\n      dup3\n        /* \"#utility.yul\":9216:9264   */\n      tag_59\n      jump\t// in\n    tag_174:\n        /* \"#utility.yul\":9208:9214   */\n      dup4\n        /* \"#utility.yul\":9201:9265   */\n      sstore\n        /* \"#utility.yul\":9123:9279   */\n      pop\n        /* \"#utility.yul\":9100:9279   */\n    tag_173:\n        /* \"#utility.yul\":9325:9326   */\n      0x01\n        /* \"#utility.yul\":9321:9322   */\n      0x02\n        /* \"#utility.yul\":9313:9319   */\n      dup9\n        /* \"#utility.yul\":9309:9323   */\n      mul\n        /* \"#utility.yul\":9305:9327   */\n      add\n        /* \"#utility.yul\":9299:9303   */\n      dup9\n        /* \"#utility.yul\":9292:9328   */\n      sstore\n        /* \"#utility.yul\":8727:9338   */\n      pop\n      pop\n      pop\n        /* \"#utility.yul\":8690:9577   */\n    tag_165:\n      pop\n        /* \"#utility.yul\":8280:9583   */\n      pop\n      pop\n      pop\n        /* \"#utility.yul\":8188:9583   */\n      pop\n      pop\n      jump\t// out\n        /* \"#utility.yul\":9589:9780   */\n    tag_21:\n        /* \"#utility.yul\":9629:9632   */\n      0x00\n        /* \"#utility.yul\":9648:9668   */\n      tag_176\n        /* \"#utility.yul\":9666:9667   */\n      dup3\n        /* \"#utility.yul\":9648:9668   */\n      tag_24\n      jump\t// in\n    tag_176:\n        /* \"#utility.yul\":9643:9668   */\n      swap2\n      pop\n        /* \"#utility.yul\":9682:9702   */\n      tag_177\n        /* \"#utility.yul\":9700:9701   */\n      dup4\n        /* \"#utility.yul\":9682:9702   */\n      tag_24\n      jump\t// in\n    tag_177:\n        /* \"#utility.yul\":9677:9702   */\n      swap3\n      pop\n        /* \"#utility.yul\":9725:9726   */\n      dup3\n        /* \"#utility.yul\":9722:9723   */\n      dup3\n        /* \"#utility.yul\":9718:9727   */\n      add\n        /* \"#utility.yul\":9711:9727   */\n      swap1\n      pop\n        /* \"#utility.yul\":9746:9749   */\n      dup1\n        /* \"#utility.yul\":9743:9744   */\n      dup3\n        /* \"#utility.yul\":9740:9750   */\n      gt\n        /* \"#utility.yul\":9737:9773   */\n      iszero\n      tag_178\n      jumpi\n        /* \"#utility.yul\":9753:9771   */\n      tag_179\n      tag_42\n      jump\t// in\n    tag_179:\n        /* \"#utility.yul\":9737:9773   */\n    tag_178:\n        /* \"#utility.yul\":9589:9780   */\n      swap3\n      swap2\n      pop\n      pop\n      jump\t// out\n        /* \"#utility.yul\":9786:10019   */\n    tag_23:\n        /* \"#utility.yul\":9825:9828   */\n      0x00\n        /* \"#utility.yul\":9848:9872   */\n      tag_181\n        /* \"#utility.yul\":9866:9871   */\n      dup3\n        /* \"#utility.yul\":9848:9872   */\n      tag_24\n      jump\t// in\n    tag_181:\n        /* \"#utility.yul\":9839:9872   */\n      swap2\n      pop\n        /* \"#utility.yul\":9894:9960   */\n      0xffffffffffffffffffffffffffffffffffffffffffffffffffffffffffffffff\n        /* \"#utility.yul\":9887:9892   */\n      dup3\n        /* \"#utility.yul\":9884:9961   */\n      sub\n        /* \"#utility.yul\":9881:9984   */\n      tag_182\n      jumpi\n        /* \"#utility.yul\":9964:9982   */\n      tag_183\n      tag_42\n      jump\t// in\n    tag_183:\n        /* \"#utility.yul\":9881:9984   */\n    tag_182:\n        /* \"#utility.yul\":10011:10012   */\n      0x01\n        /* \"#utility.yul\":10004:10009   */\n      dup3\n        /* \"#utility.yul\":10000:10013   */\n      add\n        /* \"#utility.yul\":9993:10013   */\n      swap1\n      pop\n        /* \"#utility.yul\":9786:10019   */\n      swap2\n      swap1\n      pop\n      jump\t// out\n\n    auxdata: 0xa26469706673582212200b2cd2d327efc46c5b5dd77691377984bc7bba0ad1b213c43936ba08f33dbfaf64736f6c634300081a0033\n}\n",
				"bytecode": {
					"linkReferences": {},
					"object": "6080604052348015600e575f80fd5b506107598061001c5f395ff3fe608060405234801561000f575f80fd5b5060043610610034575f3560e01c806321055acb14610038578063c1bea1db14610056575b5f80fd5b610040610072565b60405161004d9190610150565b60405180910390f35b610070600480360381019061006b91906102e0565b610088565b005b5f60035460025461008391906103a6565b905090565b6040518060600160405280838152602001848152602001828152505f808581526020019081526020015f205f820151815f0190816100c691906105da565b506020820151816001015560408201518160020155905050600183908060018154018082558091505060019003905f5260205f20015f90919091909150558060025f82825461011591906106a9565b9250508190555060035f81548092919061012e906106dc565b9190505550505050565b5f819050919050565b61014a81610138565b82525050565b5f6020820190506101635f830184610141565b92915050565b5f604051905090565b5f80fd5b5f80fd5b61018381610138565b811461018d575f80fd5b50565b5f8135905061019e8161017a565b92915050565b5f80fd5b5f80fd5b5f601f19601f8301169050919050565b7f4e487b71000000000000000000000000000000000000000000000000000000005f52604160045260245ffd5b6101f2826101ac565b810181811067ffffffffffffffff82111715610211576102106101bc565b5b80604052505050565b5f610223610169565b905061022f82826101e9565b919050565b5f67ffffffffffffffff82111561024e5761024d6101bc565b5b610257826101ac565b9050602081019050919050565b828183375f83830152505050565b5f61028461027f84610234565b61021a565b9050828152602081018484840111156102a05761029f6101a8565b5b6102ab848285610264565b509392505050565b5f82601f8301126102c7576102c66101a4565b5b81356102d7848260208601610272565b91505092915050565b5f805f606084860312156102f7576102f6610172565b5b5f61030486828701610190565b935050602084013567ffffffffffffffff81111561032557610324610176565b5b610331868287016102b3565b925050604061034286828701610190565b9150509250925092565b7f4e487b71000000000000000000000000000000000000000000000000000000005f52601260045260245ffd5b7f4e487b71000000000000000000000000000000000000000000000000000000005f52601160045260245ffd5b5f6103b082610138565b91506103bb83610138565b9250826103cb576103ca61034c565b5b828204905092915050565b5f81519050919050565b7f4e487b71000000000000000000000000000000000000000000000000000000005f52602260045260245ffd5b5f600282049050600182168061042457607f821691505b602082108103610437576104366103e0565b5b50919050565b5f819050815f5260205f209050919050565b5f6020601f8301049050919050565b5f82821b905092915050565b5f600883026104997fffffffffffffffffffffffffffffffffffffffffffffffffffffffffffffffff8261045e565b6104a3868361045e565b95508019841693508086168417925050509392505050565b5f819050919050565b5f6104de6104d96104d484610138565b6104bb565b610138565b9050919050565b5f819050919050565b6104f7836104c4565b61050b610503826104e5565b84845461046a565b825550505050565b5f90565b61051f610513565b61052a8184846104ee565b505050565b5b8181101561054d576105425f82610517565b600181019050610530565b5050565b601f821115610592576105638161043d565b61056c8461044f565b8101602085101561057b578190505b61058f6105878561044f565b83018261052f565b50505b505050565b5f82821c905092915050565b5f6105b25f1984600802610597565b1980831691505092915050565b5f6105ca83836105a3565b9150826002028217905092915050565b6105e3826103d6565b67ffffffffffffffff8111156105fc576105fb6101bc565b5b610606825461040d565b610611828285610551565b5f60209050601f831160018114610642575f8415610630578287015190505b61063a85826105bf565b8655506106a1565b601f1984166106508661043d565b5f5b8281101561067757848901518255600182019150602085019450602081019050610652565b868310156106945784890151610690601f8916826105a3565b8355505b6001600288020188555050505b505050505050565b5f6106b382610138565b91506106be83610138565b92508282019050808211156106d6576106d5610379565b5b92915050565b5f6106e682610138565b91507fffffffffffffffffffffffffffffffffffffffffffffffffffffffffffffffff820361071857610717610379565b5b60018201905091905056fea26469706673582212200b2cd2d327efc46c5b5dd77691377984bc7bba0ad1b213c43936ba08f33dbfaf64736f6c634300081a0033",
					"opcodes": "PUSH1 0x80 PUSH1 0x40 MSTORE CALLVALUE DUP1 ISZERO PUSH1 0xE JUMPI PUSH0 DUP1 REVERT JUMPDEST POP PUSH2 0x759 DUP1 PUSH2 0x1C PUSH0 CODECOPY PUSH0 RETURN INVALID PUSH1 0x80 PUSH1 0x40 MSTORE CALLVALUE DUP1 ISZERO PUSH2 0xF JUMPI PUSH0 DUP1 REVERT JUMPDEST POP PUSH1 0x4 CALLDATASIZE LT PUSH2 0x34 JUMPI PUSH0 CALLDATALOAD PUSH1 0xE0 SHR DUP1 PUSH4 0x21055ACB EQ PUSH2 0x38 JUMPI DUP1 PUSH4 0xC1BEA1DB EQ PUSH2 0x56 JUMPI JUMPDEST PUSH0 DUP1 REVERT JUMPDEST PUSH2 0x40 PUSH2 0x72 JUMP JUMPDEST PUSH1 0x40 MLOAD PUSH2 0x4D SWAP2 SWAP1 PUSH2 0x150 JUMP JUMPDEST PUSH1 0x40 MLOAD DUP1 SWAP2 SUB SWAP1 RETURN JUMPDEST PUSH2 0x70 PUSH1 0x4 DUP1 CALLDATASIZE SUB DUP2 ADD SWAP1 PUSH2 0x6B SWAP2 SWAP1 PUSH2 0x2E0 JUMP JUMPDEST PUSH2 0x88 JUMP JUMPDEST STOP JUMPDEST PUSH0 PUSH1 0x3 SLOAD PUSH1 0x2 SLOAD PUSH2 0x83 SWAP2 SWAP1 PUSH2 0x3A6 JUMP JUMPDEST SWAP1 POP SWAP1 JUMP JUMPDEST PUSH1 0x40 MLOAD DUP1 PUSH1 0x60 ADD PUSH1 0x40 MSTORE DUP1 DUP4 DUP2 MSTORE PUSH1 0x20 ADD DUP5 DUP2 MSTORE PUSH1 0x20 ADD DUP3 DUP2 MSTORE POP PUSH0 DUP1 DUP6 DUP2 MSTORE PUSH1 0x20 ADD SWAP1 DUP2 MSTORE PUSH1 0x20 ADD PUSH0 KECCAK256 PUSH0 DUP3 ADD MLOAD DUP2 PUSH0 ADD SWAP1 DUP2 PUSH2 0xC6 SWAP2 SWAP1 PUSH2 0x5DA JUMP JUMPDEST POP PUSH1 0x20 DUP3 ADD MLOAD DUP2 PUSH1 0x1 ADD SSTORE PUSH1 0x40 DUP3 ADD MLOAD DUP2 PUSH1 0x2 ADD SSTORE SWAP1 POP POP PUSH1 0x1 DUP4 SWAP1 DUP1 PUSH1 0x1 DUP2 SLOAD ADD DUP1 DUP3 SSTORE DUP1 SWAP2 POP POP PUSH1 0x1 SWAP1 SUB SWAP1 PUSH0 MSTORE PUSH1 0x20 PUSH0 KECCAK256 ADD PUSH0 SWAP1 SWAP2 SWAP1 SWAP2 SWAP1 SWAP2 POP SSTORE DUP1 PUSH1 0x2 PUSH0 DUP3 DUP3 SLOAD PUSH2 0x115 SWAP2 SWAP1 PUSH2 0x6A9 JUMP JUMPDEST SWAP3 POP POP DUP2 SWAP1 SSTORE POP PUSH1 0x3 PUSH0 DUP2 SLOAD DUP1 SWAP3 SWAP2 SWAP1 PUSH2 0x12E SWAP1 PUSH2 0x6DC JUMP JUMPDEST SWAP2 SWAP1 POP SSTORE POP POP POP POP JUMP JUMPDEST PUSH0 DUP2 SWAP1 POP SWAP2 SWAP1 POP JUMP JUMPDEST PUSH2 0x14A DUP2 PUSH2 0x138 JUMP JUMPDEST DUP3 MSTORE POP POP JUMP JUMPDEST PUSH0 PUSH1 0x20 DUP3 ADD SWAP1 POP PUSH2 0x163 PUSH0 DUP4 ADD DUP5 PUSH2 0x141 JUMP JUMPDEST SWAP3 SWAP2 POP POP JUMP JUMPDEST PUSH0 PUSH1 0x40 MLOAD SWAP1 POP SWAP1 JUMP JUMPDEST PUSH0 DUP1 REVERT JUMPDEST PUSH0 DUP1 REVERT JUMPDEST PUSH2 0x183 DUP2 PUSH2 0x138 JUMP JUMPDEST DUP2 EQ PUSH2 0x18D JUMPI PUSH0 DUP1 REVERT JUMPDEST POP JUMP JUMPDEST PUSH0 DUP2 CALLDATALOAD SWAP1 POP PUSH2 0x19E DUP2 PUSH2 0x17A JUMP JUMPDEST SWAP3 SWAP2 POP POP JUMP JUMPDEST PUSH0 DUP1 REVERT JUMPDEST PUSH0 DUP1 REVERT JUMPDEST PUSH0 PUSH1 0x1F NOT PUSH1 0x1F DUP4 ADD AND SWAP1 POP SWAP2 SWAP1 POP JUMP JUMPDEST PUSH32 0x4E487B7100000000000000000000000000000000000000000000000000000000 PUSH0 MSTORE PUSH1 0x41 PUSH1 0x4 MSTORE PUSH1 0x24 PUSH0 REVERT JUMPDEST PUSH2 0x1F2 DUP3 PUSH2 0x1AC JUMP JUMPDEST DUP2 ADD DUP2 DUP2 LT PUSH8 0xFFFFFFFFFFFFFFFF DUP3 GT OR ISZERO PUSH2 0x211 JUMPI PUSH2 0x210 PUSH2 0x1BC JUMP JUMPDEST JUMPDEST DUP1 PUSH1 0x40 MSTORE POP POP POP JUMP JUMPDEST PUSH0 PUSH2 0x223 PUSH2 0x169 JUMP JUMPDEST SWAP1 POP PUSH2 0x22F DUP3 DUP3 PUSH2 0x1E9 JUMP JUMPDEST SWAP2 SWAP1 POP JUMP JUMPDEST PUSH0 PUSH8 0xFFFFFFFFFFFFFFFF DUP3 GT ISZERO PUSH2 0x24E JUMPI PUSH2 0x24D PUSH2 0x1BC JUMP JUMPDEST JUMPDEST PUSH2 0x257 DUP3 PUSH2 0x1AC JUMP JUMPDEST SWAP1 POP PUSH1 0x20 DUP2 ADD SWAP1 POP SWAP2 SWAP1 POP JUMP JUMPDEST DUP3 DUP2 DUP4 CALLDATACOPY PUSH0 DUP4 DUP4 ADD MSTORE POP POP POP JUMP JUMPDEST PUSH0 PUSH2 0x284 PUSH2 0x27F DUP5 PUSH2 0x234 JUMP JUMPDEST PUSH2 0x21A JUMP JUMPDEST SWAP1 POP DUP3 DUP2 MSTORE PUSH1 0x20 DUP2 ADD DUP5 DUP5 DUP5 ADD GT ISZERO PUSH2 0x2A0 JUMPI PUSH2 0x29F PUSH2 0x1A8 JUMP JUMPDEST JUMPDEST PUSH2 0x2AB DUP5 DUP3 DUP6 PUSH2 0x264 JUMP JUMPDEST POP SWAP4 SWAP3 POP POP POP JUMP JUMPDEST PUSH0 DUP3 PUSH1 0x1F DUP4 ADD SLT PUSH2 0x2C7 JUMPI PUSH2 0x2C6 PUSH2 0x1A4 JUMP JUMPDEST JUMPDEST DUP2 CALLDATALOAD PUSH2 0x2D7 DUP5 DUP3 PUSH1 0x20 DUP7 ADD PUSH2 0x272 JUMP JUMPDEST SWAP2 POP POP SWAP3 SWAP2 POP POP JUMP JUMPDEST PUSH0 DUP1 PUSH0 PUSH1 0x60 DUP5 DUP7 SUB SLT ISZERO PUSH2 0x2F7 JUMPI PUSH2 0x2F6 PUSH2 0x172 JUMP JUMPDEST JUMPDEST PUSH0 PUSH2 0x304 DUP7 DUP3 DUP8 ADD PUSH2 0x190 JUMP JUMPDEST SWAP4 POP POP PUSH1 0x20 DUP5 ADD CALLDATALOAD PUSH8 0xFFFFFFFFFFFFFFFF DUP2 GT ISZERO PUSH2 0x325 JUMPI PUSH2 0x324 PUSH2 0x176 JUMP JUMPDEST JUMPDEST PUSH2 0x331 DUP7 DUP3 DUP8 ADD PUSH2 0x2B3 JUMP JUMPDEST SWAP3 POP POP PUSH1 0x40 PUSH2 0x342 DUP7 DUP3 DUP8 ADD PUSH2 0x190 JUMP JUMPDEST SWAP2 POP POP SWAP3 POP SWAP3 POP SWAP3 JUMP JUMPDEST PUSH32 0x4E487B7100000000000000000000000000000000000000000000000000000000 PUSH0 MSTORE PUSH1 0x12 PUSH1 0x4 MSTORE PUSH1 0x24 PUSH0 REVERT JUMPDEST PUSH32 0x4E487B7100000000000000000000000000000000000000000000000000000000 PUSH0 MSTORE PUSH1 0x11 PUSH1 0x4 MSTORE PUSH1 0x24 PUSH0 REVERT JUMPDEST PUSH0 PUSH2 0x3B0 DUP3 PUSH2 0x138 JUMP JUMPDEST SWAP2 POP PUSH2 0x3BB DUP4 PUSH2 0x138 JUMP JUMPDEST SWAP3 POP DUP3 PUSH2 0x3CB JUMPI PUSH2 0x3CA PUSH2 0x34C JUMP JUMPDEST JUMPDEST DUP3 DUP3 DIV SWAP1 POP SWAP3 SWAP2 POP POP JUMP JUMPDEST PUSH0 DUP2 MLOAD SWAP1 POP SWAP2 SWAP1 POP JUMP JUMPDEST PUSH32 0x4E487B7100000000000000000000000000000000000000000000000000000000 PUSH0 MSTORE PUSH1 0x22 PUSH1 0x4 MSTORE PUSH1 0x24 PUSH0 REVERT JUMPDEST PUSH0 PUSH1 0x2 DUP3 DIV SWAP1 POP PUSH1 0x1 DUP3 AND DUP1 PUSH2 0x424 JUMPI PUSH1 0x7F DUP3 AND SWAP2 POP JUMPDEST PUSH1 0x20 DUP3 LT DUP2 SUB PUSH2 0x437 JUMPI PUSH2 0x436 PUSH2 0x3E0 JUMP JUMPDEST JUMPDEST POP SWAP2 SWAP1 POP JUMP JUMPDEST PUSH0 DUP2 SWAP1 POP DUP2 PUSH0 MSTORE PUSH1 0x20 PUSH0 KECCAK256 SWAP1 POP SWAP2 SWAP1 POP JUMP JUMPDEST PUSH0 PUSH1 0x20 PUSH1 0x1F DUP4 ADD DIV SWAP1 POP SWAP2 SWAP1 POP JUMP JUMPDEST PUSH0 DUP3 DUP3 SHL SWAP1 POP SWAP3 SWAP2 POP POP JUMP JUMPDEST PUSH0 PUSH1 0x8 DUP4 MUL PUSH2 0x499 PUSH32 0xFFFFFFFFFFFFFFFFFFFFFFFFFFFFFFFFFFFFFFFFFFFFFFFFFFFFFFFFFFFFFFFF DUP3 PUSH2 0x45E JUMP JUMPDEST PUSH2 0x4A3 DUP7 DUP4 PUSH2 0x45E JUMP JUMPDEST SWAP6 POP DUP1 NOT DUP5 AND SWAP4 POP DUP1 DUP7 AND DUP5 OR SWAP3 POP POP POP SWAP4 SWAP3 POP POP POP JUMP JUMPDEST PUSH0 DUP2 SWAP1 POP SWAP2 SWAP1 POP JUMP JUMPDEST PUSH0 PUSH2 0x4DE PUSH2 0x4D9 PUSH2 0x4D4 DUP5 PUSH2 0x138 JUMP JUMPDEST PUSH2 0x4BB JUMP JUMPDEST PUSH2 0x138 JUMP JUMPDEST SWAP1 POP SWAP2 SWAP1 POP JUMP JUMPDEST PUSH0 DUP2 SWAP1 POP SWAP2 SWAP1 POP JUMP JUMPDEST PUSH2 0x4F7 DUP4 PUSH2 0x4C4 JUMP JUMPDEST PUSH2 0x50B PUSH2 0x503 DUP3 PUSH2 0x4E5 JUMP JUMPDEST DUP5 DUP5 SLOAD PUSH2 0x46A JUMP JUMPDEST DUP3 SSTORE POP POP POP POP JUMP JUMPDEST PUSH0 SWAP1 JUMP JUMPDEST PUSH2 0x51F PUSH2 0x513 JUMP JUMPDEST PUSH2 0x52A DUP2 DUP5 DUP5 PUSH2 0x4EE JUMP JUMPDEST POP POP POP JUMP JUMPDEST JUMPDEST DUP2 DUP2 LT ISZERO PUSH2 0x54D JUMPI PUSH2 0x542 PUSH0 DUP3 PUSH2 0x517 JUMP JUMPDEST PUSH1 0x1 DUP2 ADD SWAP1 POP PUSH2 0x530 JUMP JUMPDEST POP POP JUMP JUMPDEST PUSH1 0x1F DUP3 GT ISZERO PUSH2 0x592 JUMPI PUSH2 0x563 DUP2 PUSH2 0x43D JUMP JUMPDEST PUSH2 0x56C DUP5 PUSH2 0x44F JUMP JUMPDEST DUP2 ADD PUSH1 0x20 DUP6 LT ISZERO PUSH2 0x57B JUMPI DUP2 SWAP1 POP JUMPDEST PUSH2 0x58F PUSH2 0x587 DUP6 PUSH2 0x44F JUMP JUMPDEST DUP4 ADD DUP3 PUSH2 0x52F JUMP JUMPDEST POP POP JUMPDEST POP POP POP JUMP JUMPDEST PUSH0 DUP3 DUP3 SHR SWAP1 POP SWAP3 SWAP2 POP POP JUMP JUMPDEST PUSH0 PUSH2 0x5B2 PUSH0 NOT DUP5 PUSH1 0x8 MUL PUSH2 0x597 JUMP JUMPDEST NOT DUP1 DUP4 AND SWAP2 POP POP SWAP3 SWAP2 POP POP JUMP JUMPDEST PUSH0 PUSH2 0x5CA DUP4 DUP4 PUSH2 0x5A3 JUMP JUMPDEST SWAP2 POP DUP3 PUSH1 0x2 MUL DUP3 OR SWAP1 POP SWAP3 SWAP2 POP POP JUMP JUMPDEST PUSH2 0x5E3 DUP3 PUSH2 0x3D6 JUMP JUMPDEST PUSH8 0xFFFFFFFFFFFFFFFF DUP2 GT ISZERO PUSH2 0x5FC JUMPI PUSH2 0x5FB PUSH2 0x1BC JUMP JUMPDEST JUMPDEST PUSH2 0x606 DUP3 SLOAD PUSH2 0x40D JUMP JUMPDEST PUSH2 0x611 DUP3 DUP3 DUP6 PUSH2 0x551 JUMP JUMPDEST PUSH0 PUSH1 0x20 SWAP1 POP PUSH1 0x1F DUP4 GT PUSH1 0x1 DUP2 EQ PUSH2 0x642 JUMPI PUSH0 DUP5 ISZERO PUSH2 0x630 JUMPI DUP3 DUP8 ADD MLOAD SWAP1 POP JUMPDEST PUSH2 0x63A DUP6 DUP3 PUSH2 0x5BF JUMP JUMPDEST DUP7 SSTORE POP PUSH2 0x6A1 JUMP JUMPDEST PUSH1 0x1F NOT DUP5 AND PUSH2 0x650 DUP7 PUSH2 0x43D JUMP JUMPDEST PUSH0 JUMPDEST DUP3 DUP2 LT ISZERO PUSH2 0x677 JUMPI DUP5 DUP10 ADD MLOAD DUP3 SSTORE PUSH1 0x1 DUP3 ADD SWAP2 POP PUSH1 0x20 DUP6 ADD SWAP5 POP PUSH1 0x20 DUP2 ADD SWAP1 POP PUSH2 0x652 JUMP JUMPDEST DUP7 DUP4 LT ISZERO PUSH2 0x694 JUMPI DUP5 DUP10 ADD MLOAD PUSH2 0x690 PUSH1 0x1F DUP10 AND DUP3 PUSH2 0x5A3 JUMP JUMPDEST DUP4 SSTORE POP JUMPDEST PUSH1 0x1 PUSH1 0x2 DUP9 MUL ADD DUP9 SSTORE POP POP POP JUMPDEST POP POP POP POP POP POP JUMP JUMPDEST PUSH0 PUSH2 0x6B3 DUP3 PUSH2 0x138 JUMP JUMPDEST SWAP2 POP PUSH2 0x6BE DUP4 PUSH2 0x138 JUMP JUMPDEST SWAP3 POP DUP3 DUP3 ADD SWAP1 POP DUP1 DUP3 GT ISZERO PUSH2 0x6D6 JUMPI PUSH2 0x6D5 PUSH2 0x379 JUMP JUMPDEST JUMPDEST SWAP3 SWAP2 POP POP JUMP JUMPDEST PUSH0 PUSH2 0x6E6 DUP3 PUSH2 0x138 JUMP JUMPDEST SWAP2 POP PUSH32 0xFFFFFFFFFFFFFFFFFFFFFFFFFFFFFFFFFFFFFFFFFFFFFFFFFFFFFFFFFFFFFFFF DUP3 SUB PUSH2 0x718 JUMPI PUSH2 0x717 PUSH2 0x379 JUMP JUMPDEST JUMPDEST PUSH1 0x1 DUP3 ADD SWAP1 POP SWAP2 SWAP1 POP JUMP INVALID LOG2 PUSH5 0x6970667358 0x22 SLT KECCAK256 SIGNEXTEND 0x2C 0xD2 0xD3 0x27 0xEF 0xC4 PUSH13 0x5B5DD77691377984BC7BBA0AD1 0xB2 SGT 0xC4 CODECOPY CALLDATASIZE 0xBA ADDMOD RETURN RETURNDATASIZE 0xBF 0xAF PUSH5 0x736F6C6343 STOP ADDMOD BYTE STOP CALLER "
				},
				"gasEstimates": {
					"creation": {
						"codeDepositCost": "376200",
						"executionCost": "409",
						"totalCost": "376609"
					},
					"external": {
						"addStudent(uint256,string,uint256)": "infinite",
						"getAverage()": "infinite"
					}
				},
				"methodIdentifiers": {
					"addStudent(uint256,string,uint256)": "c1bea1db",
					"getAverage()": "21055acb"
				}
			},
			"storageLayout": {
				"storage": [
					{
						"astId": 145,
						"contract": "solidity/solidity31~40.sol:Q34",
						"label": "students",
						"offset": 0,
						"slot": "0",
						"type": "t_mapping(t_uint256,t_struct(Student)140_storage)"
					},
					{
						"astId": 148,
						"contract": "solidity/solidity31~40.sol:Q34",
						"label": "studentIds",
						"offset": 0,
						"slot": "1",
						"type": "t_array(t_uint256)dyn_storage"
					},
					{
						"astId": 150,
						"contract": "solidity/solidity31~40.sol:Q34",
						"label": "totalScore",
						"offset": 0,
						"slot": "2",
						"type": "t_uint256"
					},
					{
						"astId": 152,
						"contract": "solidity/solidity31~40.sol:Q34",
						"label": "studentCount",
						"offset": 0,
						"slot": "3",
						"type": "t_uint256"
					}
				],
				"types": {
					"t_array(t_uint256)dyn_storage": {
						"base": "t_uint256",
						"encoding": "dynamic_array",
						"label": "uint256[]",
						"numberOfBytes": "32"
					},
					"t_mapping(t_uint256,t_struct(Student)140_storage)": {
						"encoding": "mapping",
						"key": "t_uint256",
						"label": "mapping(uint256 => struct Q34.Student)",
						"numberOfBytes": "32",
						"value": "t_struct(Student)140_storage"
					},
					"t_string_storage": {
						"encoding": "bytes",
						"label": "string",
						"numberOfBytes": "32"
					},
					"t_struct(Student)140_storage": {
						"encoding": "inplace",
						"label": "struct Q34.Student",
						"members": [
							{
								"astId": 135,
								"contract": "solidity/solidity31~40.sol:Q34",
								"label": "name",
								"offset": 0,
								"slot": "0",
								"type": "t_string_storage"
							},
							{
								"astId": 137,
								"contract": "solidity/solidity31~40.sol:Q34",
								"label": "number",
								"offset": 0,
								"slot": "1",
								"type": "t_uint256"
							},
							{
								"astId": 139,
								"contract": "solidity/solidity31~40.sol:Q34",
								"label": "score",
								"offset": 0,
								"slot": "2",
								"type": "t_uint256"
							}
						],
						"numberOfBytes": "96"
					},
					"t_uint256": {
						"encoding": "inplace",
						"label": "uint256",
						"numberOfBytes": "32"
					}
				}
			},
			"userdoc": {
				"kind": "user",
				"methods": {},
				"version": 1
			}
		}
	}
}