{
	"solidity/solidity21~30.sol": {
		"Q28": {
			"abi": [
				{
					"inputs": [
						{
							"internalType": "string",
							"name": "_id",
							"type": "string"
						},
						{
							"internalType": "string",
							"name": "_pw",
							"type": "string"
						}
					],
					"name": "hashIDPW",
					"outputs": [
						{
							"internalType": "bytes32",
							"name": "",
							"type": "bytes32"
						}
					],
					"stateMutability": "pure",
					"type": "function"
				}
			],
			"devdoc": {
				"kind": "dev",
				"methods": {},
				"version": 1
			},
			"evm": {
				"assembly": "    /* \"solidity/solidity21~30.sol\":3188:3539  contract Q28 {... */\n  mstore(0x40, 0x80)\n  callvalue\n  dup1\n  iszero\n  tag_1\n  jumpi\n  0x00\n  dup1\n  revert\ntag_1:\n  pop\n  dataSize(sub_0)\n  dup1\n  dataOffset(sub_0)\n  0x00\n  codecopy\n  0x00\n  return\nstop\n\nsub_0: assembly {\n        /* \"solidity/solidity21~30.sol\":3188:3539  contract Q28 {... */\n      mstore(0x40, 0x80)\n      callvalue\n      dup1\n      iszero\n      tag_1\n      jumpi\n      0x00\n      dup1\n      revert\n    tag_1:\n      pop\n      jumpi(tag_2, lt(calldatasize, 0x04))\n      shr(0xe0, calldataload(0x00))\n      dup1\n      0x408eb1c5\n      eq\n      tag_3\n      jumpi\n    tag_2:\n      0x00\n      dup1\n      revert\n        /* \"solidity/solidity21~30.sol\":3351:3537  function hashIDPW(string memory _id, string memory _pw) public pure returns (bytes32) {... */\n    tag_3:\n      tag_4\n      0x04\n      dup1\n      calldatasize\n      sub\n      dup2\n      add\n      swap1\n      tag_5\n      swap2\n      swap1\n      tag_6\n      jump\t// in\n    tag_5:\n      tag_7\n      jump\t// in\n    tag_4:\n      mload(0x40)\n      tag_8\n      swap2\n      swap1\n      tag_9\n      jump\t// in\n    tag_8:\n      mload(0x40)\n      dup1\n      swap2\n      sub\n      swap1\n      return\n    tag_7:\n        /* \"solidity/solidity21~30.sol\":3428:3435  bytes32 */\n      0x00\n        /* \"solidity/solidity21~30.sol\":3447:3464  bytes32 hashValue */\n      dup1\n        /* \"solidity/solidity21~30.sol\":3494:3497  _id */\n      dup4\n        /* \"solidity/solidity21~30.sol\":3499:3502  _pw */\n      dup4\n        /* \"solidity/solidity21~30.sol\":3477:3503  abi.encodePacked(_id, _pw) */\n      add(0x20, mload(0x40))\n      tag_11\n      swap3\n      swap2\n      swap1\n      tag_12\n      jump\t// in\n    tag_11:\n      mload(0x40)\n      0x20\n      dup2\n      dup4\n      sub\n      sub\n      dup2\n      mstore\n      swap1\n      0x40\n      mstore\n        /* \"solidity/solidity21~30.sol\":3467:3504  keccak256(abi.encodePacked(_id, _pw)) */\n      dup1\n      mload\n      swap1\n      0x20\n      add\n      keccak256\n        /* \"solidity/solidity21~30.sol\":3447:3504  bytes32 hashValue = keccak256(abi.encodePacked(_id, _pw)) */\n      swap1\n      pop\n        /* \"solidity/solidity21~30.sol\":3521:3530  hashValue */\n      dup1\n        /* \"solidity/solidity21~30.sol\":3514:3530  return hashValue */\n      swap2\n      pop\n      pop\n        /* \"solidity/solidity21~30.sol\":3351:3537  function hashIDPW(string memory _id, string memory _pw) public pure returns (bytes32) {... */\n      swap3\n      swap2\n      pop\n      pop\n      jump\t// out\n        /* \"#utility.yul\":7:82   */\n    tag_13:\n        /* \"#utility.yul\":40:46   */\n      0x00\n        /* \"#utility.yul\":73:75   */\n      0x40\n        /* \"#utility.yul\":67:76   */\n      mload\n        /* \"#utility.yul\":57:76   */\n      swap1\n      pop\n        /* \"#utility.yul\":7:82   */\n      swap1\n      jump\t// out\n        /* \"#utility.yul\":88:205   */\n    tag_14:\n        /* \"#utility.yul\":197:198   */\n      0x00\n        /* \"#utility.yul\":194:195   */\n      dup1\n        /* \"#utility.yul\":187:199   */\n      revert\n        /* \"#utility.yul\":211:328   */\n    tag_15:\n        /* \"#utility.yul\":320:321   */\n      0x00\n        /* \"#utility.yul\":317:318   */\n      dup1\n        /* \"#utility.yul\":310:322   */\n      revert\n        /* \"#utility.yul\":334:451   */\n    tag_16:\n        /* \"#utility.yul\":443:444   */\n      0x00\n        /* \"#utility.yul\":440:441   */\n      dup1\n        /* \"#utility.yul\":433:445   */\n      revert\n        /* \"#utility.yul\":457:574   */\n    tag_17:\n        /* \"#utility.yul\":566:567   */\n      0x00\n        /* \"#utility.yul\":563:564   */\n      dup1\n        /* \"#utility.yul\":556:568   */\n      revert\n        /* \"#utility.yul\":580:682   */\n    tag_18:\n        /* \"#utility.yul\":621:627   */\n      0x00\n        /* \"#utility.yul\":672:674   */\n      0x1f\n        /* \"#utility.yul\":668:675   */\n      not\n        /* \"#utility.yul\":663:665   */\n      0x1f\n        /* \"#utility.yul\":656:661   */\n      dup4\n        /* \"#utility.yul\":652:666   */\n      add\n        /* \"#utility.yul\":648:676   */\n      and\n        /* \"#utility.yul\":638:676   */\n      swap1\n      pop\n        /* \"#utility.yul\":580:682   */\n      swap2\n      swap1\n      pop\n      jump\t// out\n        /* \"#utility.yul\":688:868   */\n    tag_19:\n        /* \"#utility.yul\":736:813   */\n      0x4e487b7100000000000000000000000000000000000000000000000000000000\n        /* \"#utility.yul\":733:734   */\n      0x00\n        /* \"#utility.yul\":726:814   */\n      mstore\n        /* \"#utility.yul\":833:837   */\n      0x41\n        /* \"#utility.yul\":830:831   */\n      0x04\n        /* \"#utility.yul\":823:838   */\n      mstore\n        /* \"#utility.yul\":857:861   */\n      0x24\n        /* \"#utility.yul\":854:855   */\n      0x00\n        /* \"#utility.yul\":847:862   */\n      revert\n        /* \"#utility.yul\":874:1155   */\n    tag_20:\n        /* \"#utility.yul\":957:984   */\n      tag_41\n        /* \"#utility.yul\":979:983   */\n      dup3\n        /* \"#utility.yul\":957:984   */\n      tag_18\n      jump\t// in\n    tag_41:\n        /* \"#utility.yul\":949:955   */\n      dup2\n        /* \"#utility.yul\":945:985   */\n      add\n        /* \"#utility.yul\":1087:1093   */\n      dup2\n        /* \"#utility.yul\":1075:1085   */\n      dup2\n        /* \"#utility.yul\":1072:1094   */\n      lt\n        /* \"#utility.yul\":1051:1069   */\n      0xffffffffffffffff\n        /* \"#utility.yul\":1039:1049   */\n      dup3\n        /* \"#utility.yul\":1036:1070   */\n      gt\n        /* \"#utility.yul\":1033:1095   */\n      or\n        /* \"#utility.yul\":1030:1118   */\n      iszero\n      tag_42\n      jumpi\n        /* \"#utility.yul\":1098:1116   */\n      tag_43\n      tag_19\n      jump\t// in\n    tag_43:\n        /* \"#utility.yul\":1030:1118   */\n    tag_42:\n        /* \"#utility.yul\":1138:1148   */\n      dup1\n        /* \"#utility.yul\":1134:1136   */\n      0x40\n        /* \"#utility.yul\":1127:1149   */\n      mstore\n        /* \"#utility.yul\":917:1155   */\n      pop\n        /* \"#utility.yul\":874:1155   */\n      pop\n      pop\n      jump\t// out\n        /* \"#utility.yul\":1161:1290   */\n    tag_21:\n        /* \"#utility.yul\":1195:1201   */\n      0x00\n        /* \"#utility.yul\":1222:1242   */\n      tag_45\n      tag_13\n      jump\t// in\n    tag_45:\n        /* \"#utility.yul\":1212:1242   */\n      swap1\n      pop\n        /* \"#utility.yul\":1251:1284   */\n      tag_46\n        /* \"#utility.yul\":1279:1283   */\n      dup3\n        /* \"#utility.yul\":1271:1277   */\n      dup3\n        /* \"#utility.yul\":1251:1284   */\n      tag_20\n      jump\t// in\n    tag_46:\n        /* \"#utility.yul\":1161:1290   */\n      swap2\n      swap1\n      pop\n      jump\t// out\n        /* \"#utility.yul\":1296:1604   */\n    tag_22:\n        /* \"#utility.yul\":1358:1362   */\n      0x00\n        /* \"#utility.yul\":1448:1466   */\n      0xffffffffffffffff\n        /* \"#utility.yul\":1440:1446   */\n      dup3\n        /* \"#utility.yul\":1437:1467   */\n      gt\n        /* \"#utility.yul\":1434:1490   */\n      iszero\n      tag_48\n      jumpi\n        /* \"#utility.yul\":1470:1488   */\n      tag_49\n      tag_19\n      jump\t// in\n    tag_49:\n        /* \"#utility.yul\":1434:1490   */\n    tag_48:\n        /* \"#utility.yul\":1508:1537   */\n      tag_50\n        /* \"#utility.yul\":1530:1536   */\n      dup3\n        /* \"#utility.yul\":1508:1537   */\n      tag_18\n      jump\t// in\n    tag_50:\n        /* \"#utility.yul\":1500:1537   */\n      swap1\n      pop\n        /* \"#utility.yul\":1592:1596   */\n      0x20\n        /* \"#utility.yul\":1586:1590   */\n      dup2\n        /* \"#utility.yul\":1582:1597   */\n      add\n        /* \"#utility.yul\":1574:1597   */\n      swap1\n      pop\n        /* \"#utility.yul\":1296:1604   */\n      swap2\n      swap1\n      pop\n      jump\t// out\n        /* \"#utility.yul\":1610:1758   */\n    tag_23:\n        /* \"#utility.yul\":1708:1714   */\n      dup3\n        /* \"#utility.yul\":1703:1706   */\n      dup2\n        /* \"#utility.yul\":1698:1701   */\n      dup4\n        /* \"#utility.yul\":1685:1715   */\n      calldatacopy\n        /* \"#utility.yul\":1749:1750   */\n      0x00\n        /* \"#utility.yul\":1740:1746   */\n      dup4\n        /* \"#utility.yul\":1735:1738   */\n      dup4\n        /* \"#utility.yul\":1731:1747   */\n      add\n        /* \"#utility.yul\":1724:1751   */\n      mstore\n        /* \"#utility.yul\":1610:1758   */\n      pop\n      pop\n      pop\n      jump\t// out\n        /* \"#utility.yul\":1764:2189   */\n    tag_24:\n        /* \"#utility.yul\":1842:1847   */\n      0x00\n        /* \"#utility.yul\":1867:1933   */\n      tag_53\n        /* \"#utility.yul\":1883:1932   */\n      tag_54\n        /* \"#utility.yul\":1925:1931   */\n      dup5\n        /* \"#utility.yul\":1883:1932   */\n      tag_22\n      jump\t// in\n    tag_54:\n        /* \"#utility.yul\":1867:1933   */\n      tag_21\n      jump\t// in\n    tag_53:\n        /* \"#utility.yul\":1858:1933   */\n      swap1\n      pop\n        /* \"#utility.yul\":1956:1962   */\n      dup3\n        /* \"#utility.yul\":1949:1954   */\n      dup2\n        /* \"#utility.yul\":1942:1963   */\n      mstore\n        /* \"#utility.yul\":1994:1998   */\n      0x20\n        /* \"#utility.yul\":1987:1992   */\n      dup2\n        /* \"#utility.yul\":1983:1999   */\n      add\n        /* \"#utility.yul\":2032:2035   */\n      dup5\n        /* \"#utility.yul\":2023:2029   */\n      dup5\n        /* \"#utility.yul\":2018:2021   */\n      dup5\n        /* \"#utility.yul\":2014:2030   */\n      add\n        /* \"#utility.yul\":2011:2036   */\n      gt\n        /* \"#utility.yul\":2008:2120   */\n      iszero\n      tag_55\n      jumpi\n        /* \"#utility.yul\":2039:2118   */\n      tag_56\n      tag_17\n      jump\t// in\n    tag_56:\n        /* \"#utility.yul\":2008:2120   */\n    tag_55:\n        /* \"#utility.yul\":2129:2183   */\n      tag_57\n        /* \"#utility.yul\":2176:2182   */\n      dup5\n        /* \"#utility.yul\":2171:2174   */\n      dup3\n        /* \"#utility.yul\":2166:2169   */\n      dup6\n        /* \"#utility.yul\":2129:2183   */\n      tag_23\n      jump\t// in\n    tag_57:\n        /* \"#utility.yul\":1848:2189   */\n      pop\n        /* \"#utility.yul\":1764:2189   */\n      swap4\n      swap3\n      pop\n      pop\n      pop\n      jump\t// out\n        /* \"#utility.yul\":2209:2549   */\n    tag_25:\n        /* \"#utility.yul\":2265:2270   */\n      0x00\n        /* \"#utility.yul\":2314:2317   */\n      dup3\n        /* \"#utility.yul\":2307:2311   */\n      0x1f\n        /* \"#utility.yul\":2299:2305   */\n      dup4\n        /* \"#utility.yul\":2295:2312   */\n      add\n        /* \"#utility.yul\":2291:2318   */\n      slt\n        /* \"#utility.yul\":2281:2403   */\n      tag_59\n      jumpi\n        /* \"#utility.yul\":2322:2401   */\n      tag_60\n      tag_16\n      jump\t// in\n    tag_60:\n        /* \"#utility.yul\":2281:2403   */\n    tag_59:\n        /* \"#utility.yul\":2439:2445   */\n      dup2\n        /* \"#utility.yul\":2426:2446   */\n      calldataload\n        /* \"#utility.yul\":2464:2543   */\n      tag_61\n        /* \"#utility.yul\":2539:2542   */\n      dup5\n        /* \"#utility.yul\":2531:2537   */\n      dup3\n        /* \"#utility.yul\":2524:2528   */\n      0x20\n        /* \"#utility.yul\":2516:2522   */\n      dup7\n        /* \"#utility.yul\":2512:2529   */\n      add\n        /* \"#utility.yul\":2464:2543   */\n      tag_24\n      jump\t// in\n    tag_61:\n        /* \"#utility.yul\":2455:2543   */\n      swap2\n      pop\n        /* \"#utility.yul\":2271:2549   */\n      pop\n        /* \"#utility.yul\":2209:2549   */\n      swap3\n      swap2\n      pop\n      pop\n      jump\t// out\n        /* \"#utility.yul\":2555:3389   */\n    tag_6:\n        /* \"#utility.yul\":2643:2649   */\n      0x00\n        /* \"#utility.yul\":2651:2657   */\n      dup1\n        /* \"#utility.yul\":2700:2702   */\n      0x40\n        /* \"#utility.yul\":2688:2697   */\n      dup4\n        /* \"#utility.yul\":2679:2686   */\n      dup6\n        /* \"#utility.yul\":2675:2698   */\n      sub\n        /* \"#utility.yul\":2671:2703   */\n      slt\n        /* \"#utility.yul\":2668:2787   */\n      iszero\n      tag_63\n      jumpi\n        /* \"#utility.yul\":2706:2785   */\n      tag_64\n      tag_14\n      jump\t// in\n    tag_64:\n        /* \"#utility.yul\":2668:2787   */\n    tag_63:\n        /* \"#utility.yul\":2854:2855   */\n      0x00\n        /* \"#utility.yul\":2843:2852   */\n      dup4\n        /* \"#utility.yul\":2839:2856   */\n      add\n        /* \"#utility.yul\":2826:2857   */\n      calldataload\n        /* \"#utility.yul\":2884:2902   */\n      0xffffffffffffffff\n        /* \"#utility.yul\":2876:2882   */\n      dup2\n        /* \"#utility.yul\":2873:2903   */\n      gt\n        /* \"#utility.yul\":2870:2987   */\n      iszero\n      tag_65\n      jumpi\n        /* \"#utility.yul\":2906:2985   */\n      tag_66\n      tag_15\n      jump\t// in\n    tag_66:\n        /* \"#utility.yul\":2870:2987   */\n    tag_65:\n        /* \"#utility.yul\":3011:3074   */\n      tag_67\n        /* \"#utility.yul\":3066:3073   */\n      dup6\n        /* \"#utility.yul\":3057:3063   */\n      dup3\n        /* \"#utility.yul\":3046:3055   */\n      dup7\n        /* \"#utility.yul\":3042:3064   */\n      add\n        /* \"#utility.yul\":3011:3074   */\n      tag_25\n      jump\t// in\n    tag_67:\n        /* \"#utility.yul\":3001:3074   */\n      swap3\n      pop\n        /* \"#utility.yul\":2797:3084   */\n      pop\n        /* \"#utility.yul\":3151:3153   */\n      0x20\n        /* \"#utility.yul\":3140:3149   */\n      dup4\n        /* \"#utility.yul\":3136:3154   */\n      add\n        /* \"#utility.yul\":3123:3155   */\n      calldataload\n        /* \"#utility.yul\":3182:3200   */\n      0xffffffffffffffff\n        /* \"#utility.yul\":3174:3180   */\n      dup2\n        /* \"#utility.yul\":3171:3201   */\n      gt\n        /* \"#utility.yul\":3168:3285   */\n      iszero\n      tag_68\n      jumpi\n        /* \"#utility.yul\":3204:3283   */\n      tag_69\n      tag_15\n      jump\t// in\n    tag_69:\n        /* \"#utility.yul\":3168:3285   */\n    tag_68:\n        /* \"#utility.yul\":3309:3372   */\n      tag_70\n        /* \"#utility.yul\":3364:3371   */\n      dup6\n        /* \"#utility.yul\":3355:3361   */\n      dup3\n        /* \"#utility.yul\":3344:3353   */\n      dup7\n        /* \"#utility.yul\":3340:3362   */\n      add\n        /* \"#utility.yul\":3309:3372   */\n      tag_25\n      jump\t// in\n    tag_70:\n        /* \"#utility.yul\":3299:3372   */\n      swap2\n      pop\n        /* \"#utility.yul\":3094:3382   */\n      pop\n        /* \"#utility.yul\":2555:3389   */\n      swap3\n      pop\n      swap3\n      swap1\n      pop\n      jump\t// out\n        /* \"#utility.yul\":3395:3472   */\n    tag_26:\n        /* \"#utility.yul\":3432:3439   */\n      0x00\n        /* \"#utility.yul\":3461:3466   */\n      dup2\n        /* \"#utility.yul\":3450:3466   */\n      swap1\n      pop\n        /* \"#utility.yul\":3395:3472   */\n      swap2\n      swap1\n      pop\n      jump\t// out\n        /* \"#utility.yul\":3478:3596   */\n    tag_27:\n        /* \"#utility.yul\":3565:3589   */\n      tag_73\n        /* \"#utility.yul\":3583:3588   */\n      dup2\n        /* \"#utility.yul\":3565:3589   */\n      tag_26\n      jump\t// in\n    tag_73:\n        /* \"#utility.yul\":3560:3563   */\n      dup3\n        /* \"#utility.yul\":3553:3590   */\n      mstore\n        /* \"#utility.yul\":3478:3596   */\n      pop\n      pop\n      jump\t// out\n        /* \"#utility.yul\":3602:3824   */\n    tag_9:\n        /* \"#utility.yul\":3695:3699   */\n      0x00\n        /* \"#utility.yul\":3733:3735   */\n      0x20\n        /* \"#utility.yul\":3722:3731   */\n      dup3\n        /* \"#utility.yul\":3718:3736   */\n      add\n        /* \"#utility.yul\":3710:3736   */\n      swap1\n      pop\n        /* \"#utility.yul\":3746:3817   */\n      tag_75\n        /* \"#utility.yul\":3814:3815   */\n      0x00\n        /* \"#utility.yul\":3803:3812   */\n      dup4\n        /* \"#utility.yul\":3799:3816   */\n      add\n        /* \"#utility.yul\":3790:3796   */\n      dup5\n        /* \"#utility.yul\":3746:3817   */\n      tag_27\n      jump\t// in\n    tag_75:\n        /* \"#utility.yul\":3602:3824   */\n      swap3\n      swap2\n      pop\n      pop\n      jump\t// out\n        /* \"#utility.yul\":3830:3929   */\n    tag_28:\n        /* \"#utility.yul\":3882:3888   */\n      0x00\n        /* \"#utility.yul\":3916:3921   */\n      dup2\n        /* \"#utility.yul\":3910:3922   */\n      mload\n        /* \"#utility.yul\":3900:3922   */\n      swap1\n      pop\n        /* \"#utility.yul\":3830:3929   */\n      swap2\n      swap1\n      pop\n      jump\t// out\n        /* \"#utility.yul\":3935:4083   */\n    tag_29:\n        /* \"#utility.yul\":4037:4048   */\n      0x00\n        /* \"#utility.yul\":4074:4077   */\n      dup2\n        /* \"#utility.yul\":4059:4077   */\n      swap1\n      pop\n        /* \"#utility.yul\":3935:4083   */\n      swap3\n      swap2\n      pop\n      pop\n      jump\t// out\n        /* \"#utility.yul\":4089:4228   */\n    tag_30:\n        /* \"#utility.yul\":4178:4184   */\n      dup3\n        /* \"#utility.yul\":4173:4176   */\n      dup2\n        /* \"#utility.yul\":4168:4171   */\n      dup4\n        /* \"#utility.yul\":4162:4185   */\n      mcopy\n        /* \"#utility.yul\":4219:4220   */\n      0x00\n        /* \"#utility.yul\":4210:4216   */\n      dup4\n        /* \"#utility.yul\":4205:4208   */\n      dup4\n        /* \"#utility.yul\":4201:4217   */\n      add\n        /* \"#utility.yul\":4194:4221   */\n      mstore\n        /* \"#utility.yul\":4089:4228   */\n      pop\n      pop\n      pop\n      jump\t// out\n        /* \"#utility.yul\":4234:4624   */\n    tag_31:\n        /* \"#utility.yul\":4340:4343   */\n      0x00\n        /* \"#utility.yul\":4368:4407   */\n      tag_80\n        /* \"#utility.yul\":4401:4406   */\n      dup3\n        /* \"#utility.yul\":4368:4407   */\n      tag_28\n      jump\t// in\n    tag_80:\n        /* \"#utility.yul\":4423:4512   */\n      tag_81\n        /* \"#utility.yul\":4505:4511   */\n      dup2\n        /* \"#utility.yul\":4500:4503   */\n      dup6\n        /* \"#utility.yul\":4423:4512   */\n      tag_29\n      jump\t// in\n    tag_81:\n        /* \"#utility.yul\":4416:4512   */\n      swap4\n      pop\n        /* \"#utility.yul\":4521:4586   */\n      tag_82\n        /* \"#utility.yul\":4579:4585   */\n      dup2\n        /* \"#utility.yul\":4574:4577   */\n      dup6\n        /* \"#utility.yul\":4567:4571   */\n      0x20\n        /* \"#utility.yul\":4560:4565   */\n      dup7\n        /* \"#utility.yul\":4556:4572   */\n      add\n        /* \"#utility.yul\":4521:4586   */\n      tag_30\n      jump\t// in\n    tag_82:\n        /* \"#utility.yul\":4611:4617   */\n      dup1\n        /* \"#utility.yul\":4606:4609   */\n      dup5\n        /* \"#utility.yul\":4602:4618   */\n      add\n        /* \"#utility.yul\":4595:4618   */\n      swap2\n      pop\n        /* \"#utility.yul\":4344:4624   */\n      pop\n        /* \"#utility.yul\":4234:4624   */\n      swap3\n      swap2\n      pop\n      pop\n      jump\t// out\n        /* \"#utility.yul\":4630:5065   */\n    tag_12:\n        /* \"#utility.yul\":4810:4813   */\n      0x00\n        /* \"#utility.yul\":4832:4927   */\n      tag_84\n        /* \"#utility.yul\":4923:4926   */\n      dup3\n        /* \"#utility.yul\":4914:4920   */\n      dup6\n        /* \"#utility.yul\":4832:4927   */\n      tag_31\n      jump\t// in\n    tag_84:\n        /* \"#utility.yul\":4825:4927   */\n      swap2\n      pop\n        /* \"#utility.yul\":4944:5039   */\n      tag_85\n        /* \"#utility.yul\":5035:5038   */\n      dup3\n        /* \"#utility.yul\":5026:5032   */\n      dup5\n        /* \"#utility.yul\":4944:5039   */\n      tag_31\n      jump\t// in\n    tag_85:\n        /* \"#utility.yul\":4937:5039   */\n      swap2\n      pop\n        /* \"#utility.yul\":5056:5059   */\n      dup2\n        /* \"#utility.yul\":5049:5059   */\n      swap1\n      pop\n        /* \"#utility.yul\":4630:5065   */\n      swap4\n      swap3\n      pop\n      pop\n      pop\n      jump\t// out\n\n    auxdata: 0xa2646970667358221220a86dc79a64db03b56f588bfca2dede77a2ab48d43af3d7b71870e0b149302c5364736f6c634300081a0033\n}\n",
				"bytecode": {
					"linkReferences": {},
					"object": "6080604052348015600e575f80fd5b506103338061001c5f395ff3fe608060405234801561000f575f80fd5b5060043610610029575f3560e01c8063408eb1c51461002d575b5f80fd5b610047600480360381019061004291906101e1565b61005d565b604051610054919061026f565b60405180910390f35b5f8083836040516020016100729291906102da565b6040516020818303038152906040528051906020012090508091505092915050565b5f604051905090565b5f80fd5b5f80fd5b5f80fd5b5f80fd5b5f601f19601f8301169050919050565b7f4e487b71000000000000000000000000000000000000000000000000000000005f52604160045260245ffd5b6100f3826100ad565b810181811067ffffffffffffffff82111715610112576101116100bd565b5b80604052505050565b5f610124610094565b905061013082826100ea565b919050565b5f67ffffffffffffffff82111561014f5761014e6100bd565b5b610158826100ad565b9050602081019050919050565b828183375f83830152505050565b5f61018561018084610135565b61011b565b9050828152602081018484840111156101a1576101a06100a9565b5b6101ac848285610165565b509392505050565b5f82601f8301126101c8576101c76100a5565b5b81356101d8848260208601610173565b91505092915050565b5f80604083850312156101f7576101f661009d565b5b5f83013567ffffffffffffffff811115610214576102136100a1565b5b610220858286016101b4565b925050602083013567ffffffffffffffff811115610241576102406100a1565b5b61024d858286016101b4565b9150509250929050565b5f819050919050565b61026981610257565b82525050565b5f6020820190506102825f830184610260565b92915050565b5f81519050919050565b5f81905092915050565b8281835e5f83830152505050565b5f6102b482610288565b6102be8185610292565b93506102ce81856020860161029c565b80840191505092915050565b5f6102e582856102aa565b91506102f182846102aa565b9150819050939250505056fea2646970667358221220a86dc79a64db03b56f588bfca2dede77a2ab48d43af3d7b71870e0b149302c5364736f6c634300081a0033",
					"opcodes": "PUSH1 0x80 PUSH1 0x40 MSTORE CALLVALUE DUP1 ISZERO PUSH1 0xE JUMPI PUSH0 DUP1 REVERT JUMPDEST POP PUSH2 0x333 DUP1 PUSH2 0x1C PUSH0 CODECOPY PUSH0 RETURN INVALID PUSH1 0x80 PUSH1 0x40 MSTORE CALLVALUE DUP1 ISZERO PUSH2 0xF JUMPI PUSH0 DUP1 REVERT JUMPDEST POP PUSH1 0x4 CALLDATASIZE LT PUSH2 0x29 JUMPI PUSH0 CALLDATALOAD PUSH1 0xE0 SHR DUP1 PUSH4 0x408EB1C5 EQ PUSH2 0x2D JUMPI JUMPDEST PUSH0 DUP1 REVERT JUMPDEST PUSH2 0x47 PUSH1 0x4 DUP1 CALLDATASIZE SUB DUP2 ADD SWAP1 PUSH2 0x42 SWAP2 SWAP1 PUSH2 0x1E1 JUMP JUMPDEST PUSH2 0x5D JUMP JUMPDEST PUSH1 0x40 MLOAD PUSH2 0x54 SWAP2 SWAP1 PUSH2 0x26F JUMP JUMPDEST PUSH1 0x40 MLOAD DUP1 SWAP2 SUB SWAP1 RETURN JUMPDEST PUSH0 DUP1 DUP4 DUP4 PUSH1 0x40 MLOAD PUSH1 0x20 ADD PUSH2 0x72 SWAP3 SWAP2 SWAP1 PUSH2 0x2DA JUMP JUMPDEST PUSH1 0x40 MLOAD PUSH1 0x20 DUP2 DUP4 SUB SUB DUP2 MSTORE SWAP1 PUSH1 0x40 MSTORE DUP1 MLOAD SWAP1 PUSH1 0x20 ADD KECCAK256 SWAP1 POP DUP1 SWAP2 POP POP SWAP3 SWAP2 POP POP JUMP JUMPDEST PUSH0 PUSH1 0x40 MLOAD SWAP1 POP SWAP1 JUMP JUMPDEST PUSH0 DUP1 REVERT JUMPDEST PUSH0 DUP1 REVERT JUMPDEST PUSH0 DUP1 REVERT JUMPDEST PUSH0 DUP1 REVERT JUMPDEST PUSH0 PUSH1 0x1F NOT PUSH1 0x1F DUP4 ADD AND SWAP1 POP SWAP2 SWAP1 POP JUMP JUMPDEST PUSH32 0x4E487B7100000000000000000000000000000000000000000000000000000000 PUSH0 MSTORE PUSH1 0x41 PUSH1 0x4 MSTORE PUSH1 0x24 PUSH0 REVERT JUMPDEST PUSH2 0xF3 DUP3 PUSH2 0xAD JUMP JUMPDEST DUP2 ADD DUP2 DUP2 LT PUSH8 0xFFFFFFFFFFFFFFFF DUP3 GT OR ISZERO PUSH2 0x112 JUMPI PUSH2 0x111 PUSH2 0xBD JUMP JUMPDEST JUMPDEST DUP1 PUSH1 0x40 MSTORE POP POP POP JUMP JUMPDEST PUSH0 PUSH2 0x124 PUSH2 0x94 JUMP JUMPDEST SWAP1 POP PUSH2 0x130 DUP3 DUP3 PUSH2 0xEA JUMP JUMPDEST SWAP2 SWAP1 POP JUMP JUMPDEST PUSH0 PUSH8 0xFFFFFFFFFFFFFFFF DUP3 GT ISZERO PUSH2 0x14F JUMPI PUSH2 0x14E PUSH2 0xBD JUMP JUMPDEST JUMPDEST PUSH2 0x158 DUP3 PUSH2 0xAD JUMP JUMPDEST SWAP1 POP PUSH1 0x20 DUP2 ADD SWAP1 POP SWAP2 SWAP1 POP JUMP JUMPDEST DUP3 DUP2 DUP4 CALLDATACOPY PUSH0 DUP4 DUP4 ADD MSTORE POP POP POP JUMP JUMPDEST PUSH0 PUSH2 0x185 PUSH2 0x180 DUP5 PUSH2 0x135 JUMP JUMPDEST PUSH2 0x11B JUMP JUMPDEST SWAP1 POP DUP3 DUP2 MSTORE PUSH1 0x20 DUP2 ADD DUP5 DUP5 DUP5 ADD GT ISZERO PUSH2 0x1A1 JUMPI PUSH2 0x1A0 PUSH2 0xA9 JUMP JUMPDEST JUMPDEST PUSH2 0x1AC DUP5 DUP3 DUP6 PUSH2 0x165 JUMP JUMPDEST POP SWAP4 SWAP3 POP POP POP JUMP JUMPDEST PUSH0 DUP3 PUSH1 0x1F DUP4 ADD SLT PUSH2 0x1C8 JUMPI PUSH2 0x1C7 PUSH2 0xA5 JUMP JUMPDEST JUMPDEST DUP2 CALLDATALOAD PUSH2 0x1D8 DUP5 DUP3 PUSH1 0x20 DUP7 ADD PUSH2 0x173 JUMP JUMPDEST SWAP2 POP POP SWAP3 SWAP2 POP POP JUMP JUMPDEST PUSH0 DUP1 PUSH1 0x40 DUP4 DUP6 SUB SLT ISZERO PUSH2 0x1F7 JUMPI PUSH2 0x1F6 PUSH2 0x9D JUMP JUMPDEST JUMPDEST PUSH0 DUP4 ADD CALLDATALOAD PUSH8 0xFFFFFFFFFFFFFFFF DUP2 GT ISZERO PUSH2 0x214 JUMPI PUSH2 0x213 PUSH2 0xA1 JUMP JUMPDEST JUMPDEST PUSH2 0x220 DUP6 DUP3 DUP7 ADD PUSH2 0x1B4 JUMP JUMPDEST SWAP3 POP POP PUSH1 0x20 DUP4 ADD CALLDATALOAD PUSH8 0xFFFFFFFFFFFFFFFF DUP2 GT ISZERO PUSH2 0x241 JUMPI PUSH2 0x240 PUSH2 0xA1 JUMP JUMPDEST JUMPDEST PUSH2 0x24D DUP6 DUP3 DUP7 ADD PUSH2 0x1B4 JUMP JUMPDEST SWAP2 POP POP SWAP3 POP SWAP3 SWAP1 POP JUMP JUMPDEST PUSH0 DUP2 SWAP1 POP SWAP2 SWAP1 POP JUMP JUMPDEST PUSH2 0x269 DUP2 PUSH2 0x257 JUMP JUMPDEST DUP3 MSTORE POP POP JUMP JUMPDEST PUSH0 PUSH1 0x20 DUP3 ADD SWAP1 POP PUSH2 0x282 PUSH0 DUP4 ADD DUP5 PUSH2 0x260 JUMP JUMPDEST SWAP3 SWAP2 POP POP JUMP JUMPDEST PUSH0 DUP2 MLOAD SWAP1 POP SWAP2 SWAP1 POP JUMP JUMPDEST PUSH0 DUP2 SWAP1 POP SWAP3 SWAP2 POP POP JUMP JUMPDEST DUP3 DUP2 DUP4 MCOPY PUSH0 DUP4 DUP4 ADD MSTORE POP POP POP JUMP JUMPDEST PUSH0 PUSH2 0x2B4 DUP3 PUSH2 0x288 JUMP JUMPDEST PUSH2 0x2BE DUP2 DUP6 PUSH2 0x292 JUMP JUMPDEST SWAP4 POP PUSH2 0x2CE DUP2 DUP6 PUSH1 0x20 DUP7 ADD PUSH2 0x29C JUMP JUMPDEST DUP1 DUP5 ADD SWAP2 POP POP SWAP3 SWAP2 POP POP JUMP JUMPDEST PUSH0 PUSH2 0x2E5 DUP3 DUP6 PUSH2 0x2AA JUMP JUMPDEST SWAP2 POP PUSH2 0x2F1 DUP3 DUP5 PUSH2 0x2AA JUMP JUMPDEST SWAP2 POP DUP2 SWAP1 POP SWAP4 SWAP3 POP POP POP JUMP INVALID LOG2 PUSH5 0x6970667358 0x22 SLT KECCAK256 0xA8 PUSH14 0xC79A64DB03B56F588BFCA2DEDE77 LOG2 0xAB BASEFEE 0xD4 GASPRICE RETURN 0xD7 0xB7 XOR PUSH17 0xE0B149302C5364736F6C634300081A0033 "
				},
				"gasEstimates": {
					"creation": {
						"codeDepositCost": "163800",
						"executionCost": "206",
						"totalCost": "164006"
					},
					"external": {
						"hashIDPW(string,string)": "infinite"
					}
				},
				"methodIdentifiers": {
					"hashIDPW(string,string)": "408eb1c5"
				}
			},
			"storageLayout": {
				"storage": [],
				"types": null
			},
			"userdoc": {
				"kind": "user",
				"methods": {},
				"version": 1
			}
		}
	}
}