{
	"solidity/solidity21~30.sol": {
		"Q25": {
			"abi": [
				{
					"inputs": [
						{
							"internalType": "uint256",
							"name": "_n",
							"type": "uint256"
						}
					],
					"name": "array",
					"outputs": [
						{
							"internalType": "uint256[]",
							"name": "",
							"type": "uint256[]"
						}
					],
					"stateMutability": "pure",
					"type": "function"
				}
			],
			"devdoc": {
				"kind": "dev",
				"methods": {},
				"version": 1
			},
			"evm": {
				"assembly": "    /* \"solidity/solidity21~30.sol\":1518:1873  contract Q25 {... */\n  mstore(0x40, 0x80)\n  callvalue\n  dup1\n  iszero\n  tag_1\n  jumpi\n  0x00\n  dup1\n  revert\ntag_1:\n  pop\n  dataSize(sub_0)\n  dup1\n  dataOffset(sub_0)\n  0x00\n  codecopy\n  0x00\n  return\nstop\n\nsub_0: assembly {\n        /* \"solidity/solidity21~30.sol\":1518:1873  contract Q25 {... */\n      mstore(0x40, 0x80)\n      callvalue\n      dup1\n      iszero\n      tag_1\n      jumpi\n      0x00\n      dup1\n      revert\n    tag_1:\n      pop\n      jumpi(tag_2, lt(calldatasize, 0x04))\n      shr(0xe0, calldataload(0x00))\n      dup1\n      0x38d94193\n      eq\n      tag_3\n      jumpi\n    tag_2:\n      0x00\n      dup1\n      revert\n        /* \"solidity/solidity21~30.sol\":1668:1871  function array(uint _n) public pure returns (uint[] memory) {... */\n    tag_3:\n      tag_4\n      0x04\n      dup1\n      calldatasize\n      sub\n      dup2\n      add\n      swap1\n      tag_5\n      swap2\n      swap1\n      tag_6\n      jump\t// in\n    tag_5:\n      tag_7\n      jump\t// in\n    tag_4:\n      mload(0x40)\n      tag_8\n      swap2\n      swap1\n      tag_9\n      jump\t// in\n    tag_8:\n      mload(0x40)\n      dup1\n      swap2\n      sub\n      swap1\n      return\n    tag_7:\n        /* \"solidity/solidity21~30.sol\":1713:1726  uint[] memory */\n      0x60\n        /* \"solidity/solidity21~30.sol\":1738:1753  uint[] memory A */\n      0x00\n        /* \"solidity/solidity21~30.sol\":1770:1771  1 */\n      0x01\n        /* \"solidity/solidity21~30.sol\":1767:1769  _n */\n      dup4\n        /* \"solidity/solidity21~30.sol\":1767:1771  _n+1 */\n      tag_11\n      swap2\n      swap1\n      tag_12\n      jump\t// in\n    tag_11:\n        /* \"solidity/solidity21~30.sol\":1756:1772  new uint[](_n+1) */\n      0xffffffffffffffff\n      dup2\n      gt\n      iszero\n      tag_13\n      jumpi\n      tag_14\n      tag_15\n      jump\t// in\n    tag_14:\n    tag_13:\n      mload(0x40)\n      swap1\n      dup1\n      dup3\n      mstore\n      dup1\n      0x20\n      mul\n      0x20\n      add\n      dup3\n      add\n      0x40\n      mstore\n      dup1\n      iszero\n      tag_16\n      jumpi\n      dup2\n      0x20\n      add\n      0x20\n      dup3\n      mul\n      dup1\n      calldatasize\n      dup4\n      calldatacopy\n      dup1\n      dup3\n      add\n      swap2\n      pop\n      pop\n      swap1\n      pop\n    tag_16:\n      pop\n        /* \"solidity/solidity21~30.sol\":1738:1772  uint[] memory A = new uint[](_n+1) */\n      swap1\n      pop\n        /* \"solidity/solidity21~30.sol\":1788:1794  uint i */\n      0x00\n        /* \"solidity/solidity21~30.sol\":1783:1846  for (uint i=0; i<=_n; i++) {... */\n    tag_17:\n        /* \"solidity/solidity21~30.sol\":1801:1803  _n */\n      dup4\n        /* \"solidity/solidity21~30.sol\":1798:1799  i */\n      dup2\n        /* \"solidity/solidity21~30.sol\":1798:1803  i<=_n */\n      gt\n        /* \"solidity/solidity21~30.sol\":1783:1846  for (uint i=0; i<=_n; i++) {... */\n      tag_18\n      jumpi\n        /* \"solidity/solidity21~30.sol\":1834:1835  i */\n      dup1\n        /* \"solidity/solidity21~30.sol\":1831:1833  _n */\n      dup5\n        /* \"solidity/solidity21~30.sol\":1831:1835  _n-i */\n      tag_20\n      swap2\n      swap1\n      tag_21\n      jump\t// in\n    tag_20:\n        /* \"solidity/solidity21~30.sol\":1824:1825  A */\n      dup3\n        /* \"solidity/solidity21~30.sol\":1826:1827  i */\n      dup3\n        /* \"solidity/solidity21~30.sol\":1824:1828  A[i] */\n      dup2\n      mload\n      dup2\n      lt\n      tag_22\n      jumpi\n      tag_23\n      tag_24\n      jump\t// in\n    tag_23:\n    tag_22:\n      0x20\n      mul\n      0x20\n      add\n      add\n        /* \"solidity/solidity21~30.sol\":1824:1835  A[i] = _n-i */\n      dup2\n      dup2\n      mstore\n      pop\n      pop\n        /* \"solidity/solidity21~30.sol\":1805:1808  i++ */\n      dup1\n      dup1\n      tag_25\n      swap1\n      tag_26\n      jump\t// in\n    tag_25:\n      swap2\n      pop\n      pop\n        /* \"solidity/solidity21~30.sol\":1783:1846  for (uint i=0; i<=_n; i++) {... */\n      jump(tag_17)\n    tag_18:\n      pop\n        /* \"solidity/solidity21~30.sol\":1863:1864  A */\n      dup1\n        /* \"solidity/solidity21~30.sol\":1856:1864  return A */\n      swap2\n      pop\n      pop\n        /* \"solidity/solidity21~30.sol\":1668:1871  function array(uint _n) public pure returns (uint[] memory) {... */\n      swap2\n      swap1\n      pop\n      jump\t// out\n        /* \"#utility.yul\":88:205   */\n    tag_28:\n        /* \"#utility.yul\":197:198   */\n      0x00\n        /* \"#utility.yul\":194:195   */\n      dup1\n        /* \"#utility.yul\":187:199   */\n      revert\n        /* \"#utility.yul\":334:411   */\n    tag_30:\n        /* \"#utility.yul\":371:378   */\n      0x00\n        /* \"#utility.yul\":400:405   */\n      dup2\n        /* \"#utility.yul\":389:405   */\n      swap1\n      pop\n        /* \"#utility.yul\":334:411   */\n      swap2\n      swap1\n      pop\n      jump\t// out\n        /* \"#utility.yul\":417:539   */\n    tag_31:\n        /* \"#utility.yul\":490:514   */\n      tag_47\n        /* \"#utility.yul\":508:513   */\n      dup2\n        /* \"#utility.yul\":490:514   */\n      tag_30\n      jump\t// in\n    tag_47:\n        /* \"#utility.yul\":483:488   */\n      dup2\n        /* \"#utility.yul\":480:515   */\n      eq\n        /* \"#utility.yul\":470:533   */\n      tag_48\n      jumpi\n        /* \"#utility.yul\":529:530   */\n      0x00\n        /* \"#utility.yul\":526:527   */\n      dup1\n        /* \"#utility.yul\":519:531   */\n      revert\n        /* \"#utility.yul\":470:533   */\n    tag_48:\n        /* \"#utility.yul\":417:539   */\n      pop\n      jump\t// out\n        /* \"#utility.yul\":545:684   */\n    tag_32:\n        /* \"#utility.yul\":591:596   */\n      0x00\n        /* \"#utility.yul\":629:635   */\n      dup2\n        /* \"#utility.yul\":616:636   */\n      calldataload\n        /* \"#utility.yul\":607:636   */\n      swap1\n      pop\n        /* \"#utility.yul\":645:678   */\n      tag_50\n        /* \"#utility.yul\":672:677   */\n      dup2\n        /* \"#utility.yul\":645:678   */\n      tag_31\n      jump\t// in\n    tag_50:\n        /* \"#utility.yul\":545:684   */\n      swap3\n      swap2\n      pop\n      pop\n      jump\t// out\n        /* \"#utility.yul\":690:1019   */\n    tag_6:\n        /* \"#utility.yul\":749:755   */\n      0x00\n        /* \"#utility.yul\":798:800   */\n      0x20\n        /* \"#utility.yul\":786:795   */\n      dup3\n        /* \"#utility.yul\":777:784   */\n      dup5\n        /* \"#utility.yul\":773:796   */\n      sub\n        /* \"#utility.yul\":769:801   */\n      slt\n        /* \"#utility.yul\":766:885   */\n      iszero\n      tag_52\n      jumpi\n        /* \"#utility.yul\":804:883   */\n      tag_53\n      tag_28\n      jump\t// in\n    tag_53:\n        /* \"#utility.yul\":766:885   */\n    tag_52:\n        /* \"#utility.yul\":924:925   */\n      0x00\n        /* \"#utility.yul\":949:1002   */\n      tag_54\n        /* \"#utility.yul\":994:1001   */\n      dup5\n        /* \"#utility.yul\":985:991   */\n      dup3\n        /* \"#utility.yul\":974:983   */\n      dup6\n        /* \"#utility.yul\":970:992   */\n      add\n        /* \"#utility.yul\":949:1002   */\n      tag_32\n      jump\t// in\n    tag_54:\n        /* \"#utility.yul\":939:1002   */\n      swap2\n      pop\n        /* \"#utility.yul\":895:1012   */\n      pop\n        /* \"#utility.yul\":690:1019   */\n      swap3\n      swap2\n      pop\n      pop\n      jump\t// out\n        /* \"#utility.yul\":1025:1139   */\n    tag_33:\n        /* \"#utility.yul\":1092:1098   */\n      0x00\n        /* \"#utility.yul\":1126:1131   */\n      dup2\n        /* \"#utility.yul\":1120:1132   */\n      mload\n        /* \"#utility.yul\":1110:1132   */\n      swap1\n      pop\n        /* \"#utility.yul\":1025:1139   */\n      swap2\n      swap1\n      pop\n      jump\t// out\n        /* \"#utility.yul\":1145:1329   */\n    tag_34:\n        /* \"#utility.yul\":1244:1255   */\n      0x00\n        /* \"#utility.yul\":1278:1284   */\n      dup3\n        /* \"#utility.yul\":1273:1276   */\n      dup3\n        /* \"#utility.yul\":1266:1285   */\n      mstore\n        /* \"#utility.yul\":1318:1322   */\n      0x20\n        /* \"#utility.yul\":1313:1316   */\n      dup3\n        /* \"#utility.yul\":1309:1323   */\n      add\n        /* \"#utility.yul\":1294:1323   */\n      swap1\n      pop\n        /* \"#utility.yul\":1145:1329   */\n      swap3\n      swap2\n      pop\n      pop\n      jump\t// out\n        /* \"#utility.yul\":1335:1467   */\n    tag_35:\n        /* \"#utility.yul\":1402:1406   */\n      0x00\n        /* \"#utility.yul\":1425:1428   */\n      dup2\n        /* \"#utility.yul\":1417:1428   */\n      swap1\n      pop\n        /* \"#utility.yul\":1455:1459   */\n      0x20\n        /* \"#utility.yul\":1450:1453   */\n      dup3\n        /* \"#utility.yul\":1446:1460   */\n      add\n        /* \"#utility.yul\":1438:1460   */\n      swap1\n      pop\n        /* \"#utility.yul\":1335:1467   */\n      swap2\n      swap1\n      pop\n      jump\t// out\n        /* \"#utility.yul\":1473:1581   */\n    tag_36:\n        /* \"#utility.yul\":1550:1574   */\n      tag_59\n        /* \"#utility.yul\":1568:1573   */\n      dup2\n        /* \"#utility.yul\":1550:1574   */\n      tag_30\n      jump\t// in\n    tag_59:\n        /* \"#utility.yul\":1545:1548   */\n      dup3\n        /* \"#utility.yul\":1538:1575   */\n      mstore\n        /* \"#utility.yul\":1473:1581   */\n      pop\n      pop\n      jump\t// out\n        /* \"#utility.yul\":1587:1766   */\n    tag_37:\n        /* \"#utility.yul\":1656:1666   */\n      0x00\n        /* \"#utility.yul\":1677:1723   */\n      tag_61\n        /* \"#utility.yul\":1719:1722   */\n      dup4\n        /* \"#utility.yul\":1711:1717   */\n      dup4\n        /* \"#utility.yul\":1677:1723   */\n      tag_36\n      jump\t// in\n    tag_61:\n        /* \"#utility.yul\":1755:1759   */\n      0x20\n        /* \"#utility.yul\":1750:1753   */\n      dup4\n        /* \"#utility.yul\":1746:1760   */\n      add\n        /* \"#utility.yul\":1732:1760   */\n      swap1\n      pop\n        /* \"#utility.yul\":1587:1766   */\n      swap3\n      swap2\n      pop\n      pop\n      jump\t// out\n        /* \"#utility.yul\":1772:1885   */\n    tag_38:\n        /* \"#utility.yul\":1842:1846   */\n      0x00\n        /* \"#utility.yul\":1874:1878   */\n      0x20\n        /* \"#utility.yul\":1869:1872   */\n      dup3\n        /* \"#utility.yul\":1865:1879   */\n      add\n        /* \"#utility.yul\":1857:1879   */\n      swap1\n      pop\n        /* \"#utility.yul\":1772:1885   */\n      swap2\n      swap1\n      pop\n      jump\t// out\n        /* \"#utility.yul\":1921:2653   */\n    tag_39:\n        /* \"#utility.yul\":2040:2043   */\n      0x00\n        /* \"#utility.yul\":2069:2123   */\n      tag_64\n        /* \"#utility.yul\":2117:2122   */\n      dup3\n        /* \"#utility.yul\":2069:2123   */\n      tag_33\n      jump\t// in\n    tag_64:\n        /* \"#utility.yul\":2139:2225   */\n      tag_65\n        /* \"#utility.yul\":2218:2224   */\n      dup2\n        /* \"#utility.yul\":2213:2216   */\n      dup6\n        /* \"#utility.yul\":2139:2225   */\n      tag_34\n      jump\t// in\n    tag_65:\n        /* \"#utility.yul\":2132:2225   */\n      swap4\n      pop\n        /* \"#utility.yul\":2249:2305   */\n      tag_66\n        /* \"#utility.yul\":2299:2304   */\n      dup4\n        /* \"#utility.yul\":2249:2305   */\n      tag_35\n      jump\t// in\n    tag_66:\n        /* \"#utility.yul\":2328:2335   */\n      dup1\n        /* \"#utility.yul\":2359:2360   */\n      0x00\n        /* \"#utility.yul\":2344:2628   */\n    tag_67:\n        /* \"#utility.yul\":2369:2375   */\n      dup4\n        /* \"#utility.yul\":2366:2367   */\n      dup2\n        /* \"#utility.yul\":2363:2376   */\n      lt\n        /* \"#utility.yul\":2344:2628   */\n      iszero\n      tag_69\n      jumpi\n        /* \"#utility.yul\":2445:2451   */\n      dup2\n        /* \"#utility.yul\":2439:2452   */\n      mload\n        /* \"#utility.yul\":2472:2535   */\n      tag_70\n        /* \"#utility.yul\":2531:2534   */\n      dup9\n        /* \"#utility.yul\":2516:2529   */\n      dup3\n        /* \"#utility.yul\":2472:2535   */\n      tag_37\n      jump\t// in\n    tag_70:\n        /* \"#utility.yul\":2465:2535   */\n      swap8\n      pop\n        /* \"#utility.yul\":2558:2618   */\n      tag_71\n        /* \"#utility.yul\":2611:2617   */\n      dup4\n        /* \"#utility.yul\":2558:2618   */\n      tag_38\n      jump\t// in\n    tag_71:\n        /* \"#utility.yul\":2548:2618   */\n      swap3\n      pop\n        /* \"#utility.yul\":2404:2628   */\n      pop\n        /* \"#utility.yul\":2391:2392   */\n      0x01\n        /* \"#utility.yul\":2388:2389   */\n      dup2\n        /* \"#utility.yul\":2384:2393   */\n      add\n        /* \"#utility.yul\":2379:2393   */\n      swap1\n      pop\n        /* \"#utility.yul\":2344:2628   */\n      jump(tag_67)\n    tag_69:\n        /* \"#utility.yul\":2348:2362   */\n      pop\n        /* \"#utility.yul\":2644:2647   */\n      dup6\n        /* \"#utility.yul\":2637:2647   */\n      swap4\n      pop\n        /* \"#utility.yul\":2045:2653   */\n      pop\n      pop\n      pop\n        /* \"#utility.yul\":1921:2653   */\n      swap3\n      swap2\n      pop\n      pop\n      jump\t// out\n        /* \"#utility.yul\":2659:3032   */\n    tag_9:\n        /* \"#utility.yul\":2802:2806   */\n      0x00\n        /* \"#utility.yul\":2840:2842   */\n      0x20\n        /* \"#utility.yul\":2829:2838   */\n      dup3\n        /* \"#utility.yul\":2825:2843   */\n      add\n        /* \"#utility.yul\":2817:2843   */\n      swap1\n      pop\n        /* \"#utility.yul\":2889:2898   */\n      dup2\n        /* \"#utility.yul\":2883:2887   */\n      dup2\n        /* \"#utility.yul\":2879:2899   */\n      sub\n        /* \"#utility.yul\":2875:2876   */\n      0x00\n        /* \"#utility.yul\":2864:2873   */\n      dup4\n        /* \"#utility.yul\":2860:2877   */\n      add\n        /* \"#utility.yul\":2853:2900   */\n      mstore\n        /* \"#utility.yul\":2917:3025   */\n      tag_73\n        /* \"#utility.yul\":3020:3024   */\n      dup2\n        /* \"#utility.yul\":3011:3017   */\n      dup5\n        /* \"#utility.yul\":2917:3025   */\n      tag_39\n      jump\t// in\n    tag_73:\n        /* \"#utility.yul\":2909:3025   */\n      swap1\n      pop\n        /* \"#utility.yul\":2659:3032   */\n      swap3\n      swap2\n      pop\n      pop\n      jump\t// out\n        /* \"#utility.yul\":3038:3218   */\n    tag_40:\n        /* \"#utility.yul\":3086:3163   */\n      0x4e487b7100000000000000000000000000000000000000000000000000000000\n        /* \"#utility.yul\":3083:3084   */\n      0x00\n        /* \"#utility.yul\":3076:3164   */\n      mstore\n        /* \"#utility.yul\":3183:3187   */\n      0x11\n        /* \"#utility.yul\":3180:3181   */\n      0x04\n        /* \"#utility.yul\":3173:3188   */\n      mstore\n        /* \"#utility.yul\":3207:3211   */\n      0x24\n        /* \"#utility.yul\":3204:3205   */\n      0x00\n        /* \"#utility.yul\":3197:3212   */\n      revert\n        /* \"#utility.yul\":3224:3415   */\n    tag_12:\n        /* \"#utility.yul\":3264:3267   */\n      0x00\n        /* \"#utility.yul\":3283:3303   */\n      tag_76\n        /* \"#utility.yul\":3301:3302   */\n      dup3\n        /* \"#utility.yul\":3283:3303   */\n      tag_30\n      jump\t// in\n    tag_76:\n        /* \"#utility.yul\":3278:3303   */\n      swap2\n      pop\n        /* \"#utility.yul\":3317:3337   */\n      tag_77\n        /* \"#utility.yul\":3335:3336   */\n      dup4\n        /* \"#utility.yul\":3317:3337   */\n      tag_30\n      jump\t// in\n    tag_77:\n        /* \"#utility.yul\":3312:3337   */\n      swap3\n      pop\n        /* \"#utility.yul\":3360:3361   */\n      dup3\n        /* \"#utility.yul\":3357:3358   */\n      dup3\n        /* \"#utility.yul\":3353:3362   */\n      add\n        /* \"#utility.yul\":3346:3362   */\n      swap1\n      pop\n        /* \"#utility.yul\":3381:3384   */\n      dup1\n        /* \"#utility.yul\":3378:3379   */\n      dup3\n        /* \"#utility.yul\":3375:3385   */\n      gt\n        /* \"#utility.yul\":3372:3408   */\n      iszero\n      tag_78\n      jumpi\n        /* \"#utility.yul\":3388:3406   */\n      tag_79\n      tag_40\n      jump\t// in\n    tag_79:\n        /* \"#utility.yul\":3372:3408   */\n    tag_78:\n        /* \"#utility.yul\":3224:3415   */\n      swap3\n      swap2\n      pop\n      pop\n      jump\t// out\n        /* \"#utility.yul\":3421:3601   */\n    tag_15:\n        /* \"#utility.yul\":3469:3546   */\n      0x4e487b7100000000000000000000000000000000000000000000000000000000\n        /* \"#utility.yul\":3466:3467   */\n      0x00\n        /* \"#utility.yul\":3459:3547   */\n      mstore\n        /* \"#utility.yul\":3566:3570   */\n      0x41\n        /* \"#utility.yul\":3563:3564   */\n      0x04\n        /* \"#utility.yul\":3556:3571   */\n      mstore\n        /* \"#utility.yul\":3590:3594   */\n      0x24\n        /* \"#utility.yul\":3587:3588   */\n      0x00\n        /* \"#utility.yul\":3580:3595   */\n      revert\n        /* \"#utility.yul\":3607:3801   */\n    tag_21:\n        /* \"#utility.yul\":3647:3651   */\n      0x00\n        /* \"#utility.yul\":3667:3687   */\n      tag_82\n        /* \"#utility.yul\":3685:3686   */\n      dup3\n        /* \"#utility.yul\":3667:3687   */\n      tag_30\n      jump\t// in\n    tag_82:\n        /* \"#utility.yul\":3662:3687   */\n      swap2\n      pop\n        /* \"#utility.yul\":3701:3721   */\n      tag_83\n        /* \"#utility.yul\":3719:3720   */\n      dup4\n        /* \"#utility.yul\":3701:3721   */\n      tag_30\n      jump\t// in\n    tag_83:\n        /* \"#utility.yul\":3696:3721   */\n      swap3\n      pop\n        /* \"#utility.yul\":3745:3746   */\n      dup3\n        /* \"#utility.yul\":3742:3743   */\n      dup3\n        /* \"#utility.yul\":3738:3747   */\n      sub\n        /* \"#utility.yul\":3730:3747   */\n      swap1\n      pop\n        /* \"#utility.yul\":3769:3770   */\n      dup2\n        /* \"#utility.yul\":3763:3767   */\n      dup2\n        /* \"#utility.yul\":3760:3771   */\n      gt\n        /* \"#utility.yul\":3757:3794   */\n      iszero\n      tag_84\n      jumpi\n        /* \"#utility.yul\":3774:3792   */\n      tag_85\n      tag_40\n      jump\t// in\n    tag_85:\n        /* \"#utility.yul\":3757:3794   */\n    tag_84:\n        /* \"#utility.yul\":3607:3801   */\n      swap3\n      swap2\n      pop\n      pop\n      jump\t// out\n        /* \"#utility.yul\":3807:3987   */\n    tag_24:\n        /* \"#utility.yul\":3855:3932   */\n      0x4e487b7100000000000000000000000000000000000000000000000000000000\n        /* \"#utility.yul\":3852:3853   */\n      0x00\n        /* \"#utility.yul\":3845:3933   */\n      mstore\n        /* \"#utility.yul\":3952:3956   */\n      0x32\n        /* \"#utility.yul\":3949:3950   */\n      0x04\n        /* \"#utility.yul\":3942:3957   */\n      mstore\n        /* \"#utility.yul\":3976:3980   */\n      0x24\n        /* \"#utility.yul\":3973:3974   */\n      0x00\n        /* \"#utility.yul\":3966:3981   */\n      revert\n        /* \"#utility.yul\":3993:4226   */\n    tag_26:\n        /* \"#utility.yul\":4032:4035   */\n      0x00\n        /* \"#utility.yul\":4055:4079   */\n      tag_88\n        /* \"#utility.yul\":4073:4078   */\n      dup3\n        /* \"#utility.yul\":4055:4079   */\n      tag_30\n      jump\t// in\n    tag_88:\n        /* \"#utility.yul\":4046:4079   */\n      swap2\n      pop\n        /* \"#utility.yul\":4101:4167   */\n      0xffffffffffffffffffffffffffffffffffffffffffffffffffffffffffffffff\n        /* \"#utility.yul\":4094:4099   */\n      dup3\n        /* \"#utility.yul\":4091:4168   */\n      sub\n        /* \"#utility.yul\":4088:4191   */\n      tag_89\n      jumpi\n        /* \"#utility.yul\":4171:4189   */\n      tag_90\n      tag_40\n      jump\t// in\n    tag_90:\n        /* \"#utility.yul\":4088:4191   */\n    tag_89:\n        /* \"#utility.yul\":4218:4219   */\n      0x01\n        /* \"#utility.yul\":4211:4216   */\n      dup3\n        /* \"#utility.yul\":4207:4220   */\n      add\n        /* \"#utility.yul\":4200:4220   */\n      swap1\n      pop\n        /* \"#utility.yul\":3993:4226   */\n      swap2\n      swap1\n      pop\n      jump\t// out\n\n    auxdata: 0xa26469706673582212205e49ed1e5a96b12aaf23d9f07e2e743d7fac5728bcbadad88aea5b0ddbe62b7164736f6c634300081a0033\n}\n",
				"bytecode": {
					"linkReferences": {},
					"object": "6080604052348015600e575f80fd5b506103ab8061001c5f395ff3fe608060405234801561000f575f80fd5b5060043610610029575f3560e01c806338d941931461002d575b5f80fd5b6100476004803603810190610042919061013f565b61005d565b6040516100549190610221565b60405180910390f35b60605f60018361006d919061026e565b67ffffffffffffffff811115610086576100856102a1565b5b6040519080825280602002602001820160405280156100b45781602001602082028036833780820191505090505b5090505f5b8381116100fe5780846100cc91906102ce565b8282815181106100df576100de610301565b5b60200260200101818152505080806100f69061032e565b9150506100b9565b5080915050919050565b5f80fd5b5f819050919050565b61011e8161010c565b8114610128575f80fd5b50565b5f8135905061013981610115565b92915050565b5f6020828403121561015457610153610108565b5b5f6101618482850161012b565b91505092915050565b5f81519050919050565b5f82825260208201905092915050565b5f819050602082019050919050565b61019c8161010c565b82525050565b5f6101ad8383610193565b60208301905092915050565b5f602082019050919050565b5f6101cf8261016a565b6101d98185610174565b93506101e483610184565b805f5b838110156102145781516101fb88826101a2565b9750610206836101b9565b9250506001810190506101e7565b5085935050505092915050565b5f6020820190508181035f83015261023981846101c5565b905092915050565b7f4e487b71000000000000000000000000000000000000000000000000000000005f52601160045260245ffd5b5f6102788261010c565b91506102838361010c565b925082820190508082111561029b5761029a610241565b5b92915050565b7f4e487b71000000000000000000000000000000000000000000000000000000005f52604160045260245ffd5b5f6102d88261010c565b91506102e38361010c565b92508282039050818111156102fb576102fa610241565b5b92915050565b7f4e487b71000000000000000000000000000000000000000000000000000000005f52603260045260245ffd5b5f6103388261010c565b91507fffffffffffffffffffffffffffffffffffffffffffffffffffffffffffffffff820361036a57610369610241565b5b60018201905091905056fea26469706673582212205e49ed1e5a96b12aaf23d9f07e2e743d7fac5728bcbadad88aea5b0ddbe62b7164736f6c634300081a0033",
					"opcodes": "PUSH1 0x80 PUSH1 0x40 MSTORE CALLVALUE DUP1 ISZERO PUSH1 0xE JUMPI PUSH0 DUP1 REVERT JUMPDEST POP PUSH2 0x3AB DUP1 PUSH2 0x1C PUSH0 CODECOPY PUSH0 RETURN INVALID PUSH1 0x80 PUSH1 0x40 MSTORE CALLVALUE DUP1 ISZERO PUSH2 0xF JUMPI PUSH0 DUP1 REVERT JUMPDEST POP PUSH1 0x4 CALLDATASIZE LT PUSH2 0x29 JUMPI PUSH0 CALLDATALOAD PUSH1 0xE0 SHR DUP1 PUSH4 0x38D94193 EQ PUSH2 0x2D JUMPI JUMPDEST PUSH0 DUP1 REVERT JUMPDEST PUSH2 0x47 PUSH1 0x4 DUP1 CALLDATASIZE SUB DUP2 ADD SWAP1 PUSH2 0x42 SWAP2 SWAP1 PUSH2 0x13F JUMP JUMPDEST PUSH2 0x5D JUMP JUMPDEST PUSH1 0x40 MLOAD PUSH2 0x54 SWAP2 SWAP1 PUSH2 0x221 JUMP JUMPDEST PUSH1 0x40 MLOAD DUP1 SWAP2 SUB SWAP1 RETURN JUMPDEST PUSH1 0x60 PUSH0 PUSH1 0x1 DUP4 PUSH2 0x6D SWAP2 SWAP1 PUSH2 0x26E JUMP JUMPDEST PUSH8 0xFFFFFFFFFFFFFFFF DUP2 GT ISZERO PUSH2 0x86 JUMPI PUSH2 0x85 PUSH2 0x2A1 JUMP JUMPDEST JUMPDEST PUSH1 0x40 MLOAD SWAP1 DUP1 DUP3 MSTORE DUP1 PUSH1 0x20 MUL PUSH1 0x20 ADD DUP3 ADD PUSH1 0x40 MSTORE DUP1 ISZERO PUSH2 0xB4 JUMPI DUP2 PUSH1 0x20 ADD PUSH1 0x20 DUP3 MUL DUP1 CALLDATASIZE DUP4 CALLDATACOPY DUP1 DUP3 ADD SWAP2 POP POP SWAP1 POP JUMPDEST POP SWAP1 POP PUSH0 JUMPDEST DUP4 DUP2 GT PUSH2 0xFE JUMPI DUP1 DUP5 PUSH2 0xCC SWAP2 SWAP1 PUSH2 0x2CE JUMP JUMPDEST DUP3 DUP3 DUP2 MLOAD DUP2 LT PUSH2 0xDF JUMPI PUSH2 0xDE PUSH2 0x301 JUMP JUMPDEST JUMPDEST PUSH1 0x20 MUL PUSH1 0x20 ADD ADD DUP2 DUP2 MSTORE POP POP DUP1 DUP1 PUSH2 0xF6 SWAP1 PUSH2 0x32E JUMP JUMPDEST SWAP2 POP POP PUSH2 0xB9 JUMP JUMPDEST POP DUP1 SWAP2 POP POP SWAP2 SWAP1 POP JUMP JUMPDEST PUSH0 DUP1 REVERT JUMPDEST PUSH0 DUP2 SWAP1 POP SWAP2 SWAP1 POP JUMP JUMPDEST PUSH2 0x11E DUP2 PUSH2 0x10C JUMP JUMPDEST DUP2 EQ PUSH2 0x128 JUMPI PUSH0 DUP1 REVERT JUMPDEST POP JUMP JUMPDEST PUSH0 DUP2 CALLDATALOAD SWAP1 POP PUSH2 0x139 DUP2 PUSH2 0x115 JUMP JUMPDEST SWAP3 SWAP2 POP POP JUMP JUMPDEST PUSH0 PUSH1 0x20 DUP3 DUP5 SUB SLT ISZERO PUSH2 0x154 JUMPI PUSH2 0x153 PUSH2 0x108 JUMP JUMPDEST JUMPDEST PUSH0 PUSH2 0x161 DUP5 DUP3 DUP6 ADD PUSH2 0x12B JUMP JUMPDEST SWAP2 POP POP SWAP3 SWAP2 POP POP JUMP JUMPDEST PUSH0 DUP2 MLOAD SWAP1 POP SWAP2 SWAP1 POP JUMP JUMPDEST PUSH0 DUP3 DUP3 MSTORE PUSH1 0x20 DUP3 ADD SWAP1 POP SWAP3 SWAP2 POP POP JUMP JUMPDEST PUSH0 DUP2 SWAP1 POP PUSH1 0x20 DUP3 ADD SWAP1 POP SWAP2 SWAP1 POP JUMP JUMPDEST PUSH2 0x19C DUP2 PUSH2 0x10C JUMP JUMPDEST DUP3 MSTORE POP POP JUMP JUMPDEST PUSH0 PUSH2 0x1AD DUP4 DUP4 PUSH2 0x193 JUMP JUMPDEST PUSH1 0x20 DUP4 ADD SWAP1 POP SWAP3 SWAP2 POP POP JUMP JUMPDEST PUSH0 PUSH1 0x20 DUP3 ADD SWAP1 POP SWAP2 SWAP1 POP JUMP JUMPDEST PUSH0 PUSH2 0x1CF DUP3 PUSH2 0x16A JUMP JUMPDEST PUSH2 0x1D9 DUP2 DUP6 PUSH2 0x174 JUMP JUMPDEST SWAP4 POP PUSH2 0x1E4 DUP4 PUSH2 0x184 JUMP JUMPDEST DUP1 PUSH0 JUMPDEST DUP4 DUP2 LT ISZERO PUSH2 0x214 JUMPI DUP2 MLOAD PUSH2 0x1FB DUP9 DUP3 PUSH2 0x1A2 JUMP JUMPDEST SWAP8 POP PUSH2 0x206 DUP4 PUSH2 0x1B9 JUMP JUMPDEST SWAP3 POP POP PUSH1 0x1 DUP2 ADD SWAP1 POP PUSH2 0x1E7 JUMP JUMPDEST POP DUP6 SWAP4 POP POP POP POP SWAP3 SWAP2 POP POP JUMP JUMPDEST PUSH0 PUSH1 0x20 DUP3 ADD SWAP1 POP DUP2 DUP2 SUB PUSH0 DUP4 ADD MSTORE PUSH2 0x239 DUP2 DUP5 PUSH2 0x1C5 JUMP JUMPDEST SWAP1 POP SWAP3 SWAP2 POP POP JUMP JUMPDEST PUSH32 0x4E487B7100000000000000000000000000000000000000000000000000000000 PUSH0 MSTORE PUSH1 0x11 PUSH1 0x4 MSTORE PUSH1 0x24 PUSH0 REVERT JUMPDEST PUSH0 PUSH2 0x278 DUP3 PUSH2 0x10C JUMP JUMPDEST SWAP2 POP PUSH2 0x283 DUP4 PUSH2 0x10C JUMP JUMPDEST SWAP3 POP DUP3 DUP3 ADD SWAP1 POP DUP1 DUP3 GT ISZERO PUSH2 0x29B JUMPI PUSH2 0x29A PUSH2 0x241 JUMP JUMPDEST JUMPDEST SWAP3 SWAP2 POP POP JUMP JUMPDEST PUSH32 0x4E487B7100000000000000000000000000000000000000000000000000000000 PUSH0 MSTORE PUSH1 0x41 PUSH1 0x4 MSTORE PUSH1 0x24 PUSH0 REVERT JUMPDEST PUSH0 PUSH2 0x2D8 DUP3 PUSH2 0x10C JUMP JUMPDEST SWAP2 POP PUSH2 0x2E3 DUP4 PUSH2 0x10C JUMP JUMPDEST SWAP3 POP DUP3 DUP3 SUB SWAP1 POP DUP2 DUP2 GT ISZERO PUSH2 0x2FB JUMPI PUSH2 0x2FA PUSH2 0x241 JUMP JUMPDEST JUMPDEST SWAP3 SWAP2 POP POP JUMP JUMPDEST PUSH32 0x4E487B7100000000000000000000000000000000000000000000000000000000 PUSH0 MSTORE PUSH1 0x32 PUSH1 0x4 MSTORE PUSH1 0x24 PUSH0 REVERT JUMPDEST PUSH0 PUSH2 0x338 DUP3 PUSH2 0x10C JUMP JUMPDEST SWAP2 POP PUSH32 0xFFFFFFFFFFFFFFFFFFFFFFFFFFFFFFFFFFFFFFFFFFFFFFFFFFFFFFFFFFFFFFFF DUP3 SUB PUSH2 0x36A JUMPI PUSH2 0x369 PUSH2 0x241 JUMP JUMPDEST JUMPDEST PUSH1 0x1 DUP3 ADD SWAP1 POP SWAP2 SWAP1 POP JUMP INVALID LOG2 PUSH5 0x6970667358 0x22 SLT KECCAK256 MCOPY BLOBHASH 0xED 0x1E GAS SWAP7 0xB1 0x2A 0xAF 0x23 0xD9 CREATE PUSH31 0x2E743D7FAC5728BCBADAD88AEA5B0DDBE62B7164736F6C634300081A003300 "
				},
				"gasEstimates": {
					"creation": {
						"codeDepositCost": "187800",
						"executionCost": "230",
						"totalCost": "188030"
					},
					"external": {
						"array(uint256)": "infinite"
					}
				},
				"methodIdentifiers": {
					"array(uint256)": "38d94193"
				}
			},
			"storageLayout": {
				"storage": [],
				"types": null
			},
			"userdoc": {
				"kind": "user",
				"methods": {},
				"version": 1
			}
		}
	}
}