{
	"solidity/solidity1~10.sol": {
		"Q5": {
			"abi": [
				{
					"inputs": [
						{
							"internalType": "uint256",
							"name": "_n",
							"type": "uint256"
						}
					],
					"name": "Return",
					"outputs": [
						{
							"internalType": "uint256",
							"name": "",
							"type": "uint256"
						}
					],
					"stateMutability": "pure",
					"type": "function"
				}
			],
			"devdoc": {
				"kind": "dev",
				"methods": {},
				"version": 1
			},
			"evm": {
				"assembly": "    /* \"solidity/solidity1~10.sol\":2089:2688  contract Q5 {... */\n  mstore(0x40, 0x80)\n  callvalue\n  dup1\n  iszero\n  tag_1\n  jumpi\n  0x00\n  dup1\n  revert\ntag_1:\n  pop\n  dataSize(sub_0)\n  dup1\n  dataOffset(sub_0)\n  0x00\n  codecopy\n  0x00\n  return\nstop\n\nsub_0: assembly {\n        /* \"solidity/solidity1~10.sol\":2089:2688  contract Q5 {... */\n      mstore(0x40, 0x80)\n      callvalue\n      dup1\n      iszero\n      tag_1\n      jumpi\n      0x00\n      dup1\n      revert\n    tag_1:\n      pop\n      jumpi(tag_2, lt(calldatasize, 0x04))\n      shr(0xe0, calldataload(0x00))\n      dup1\n      0x336bea1c\n      eq\n      tag_3\n      jumpi\n    tag_2:\n      0x00\n      dup1\n      revert\n        /* \"solidity/solidity1~10.sol\":2405:2686  function Return(uint _n) public pure returns(uint) {... */\n    tag_3:\n      tag_4\n      0x04\n      dup1\n      calldatasize\n      sub\n      dup2\n      add\n      swap1\n      tag_5\n      swap2\n      swap1\n      tag_6\n      jump\t// in\n    tag_5:\n      tag_7\n      jump\t// in\n    tag_4:\n      mload(0x40)\n      tag_8\n      swap2\n      swap1\n      tag_9\n      jump\t// in\n    tag_8:\n      mload(0x40)\n      dup1\n      swap2\n      sub\n      swap1\n      return\n    tag_7:\n        /* \"solidity/solidity1~10.sol\":2450:2454  uint */\n      0x00\n        /* \"solidity/solidity1~10.sol\":2472:2473  0 */\n      dup1\n        /* \"solidity/solidity1~10.sol\":2469:2471  _n */\n      dup3\n        /* \"solidity/solidity1~10.sol\":2469:2473  _n>0 */\n      gt\n        /* \"solidity/solidity1~10.sol\":2469:2482  _n>0 && _n<=3 */\n      dup1\n      iszero\n      tag_11\n      jumpi\n      pop\n        /* \"solidity/solidity1~10.sol\":2481:2482  3 */\n      0x03\n        /* \"solidity/solidity1~10.sol\":2477:2479  _n */\n      dup3\n        /* \"solidity/solidity1~10.sol\":2477:2482  _n<=3 */\n      gt\n      iszero\n        /* \"solidity/solidity1~10.sol\":2469:2482  _n>0 && _n<=3 */\n    tag_11:\n        /* \"solidity/solidity1~10.sol\":2466:2680  if(_n>0 && _n<=3) {... */\n      iszero\n      tag_12\n      jumpi\n        /* \"solidity/solidity1~10.sol\":2509:2510  2 */\n      0x02\n        /* \"solidity/solidity1~10.sol\":2505:2507  _n */\n      dup3\n        /* \"solidity/solidity1~10.sol\":2505:2510  _n**2 */\n      tag_13\n      swap2\n      swap1\n      tag_14\n      jump\t// in\n    tag_13:\n        /* \"solidity/solidity1~10.sol\":2498:2510  return _n**2 */\n      swap1\n      pop\n      jump(tag_10)\n        /* \"solidity/solidity1~10.sol\":2466:2680  if(_n>0 && _n<=3) {... */\n    tag_12:\n        /* \"solidity/solidity1~10.sol\":2533:2534  3 */\n      0x03\n        /* \"solidity/solidity1~10.sol\":2530:2532  _n */\n      dup3\n        /* \"solidity/solidity1~10.sol\":2530:2534  _n>3 */\n      gt\n        /* \"solidity/solidity1~10.sol\":2530:2543  _n>3 && _n<=6 */\n      dup1\n      iszero\n      tag_16\n      jumpi\n      pop\n        /* \"solidity/solidity1~10.sol\":2542:2543  6 */\n      0x06\n        /* \"solidity/solidity1~10.sol\":2538:2540  _n */\n      dup3\n        /* \"solidity/solidity1~10.sol\":2538:2543  _n<=6 */\n      gt\n      iszero\n        /* \"solidity/solidity1~10.sol\":2530:2543  _n>3 && _n<=6 */\n    tag_16:\n        /* \"solidity/solidity1~10.sol\":2527:2680  if(_n>3 && _n<=6) {... */\n      iszero\n      tag_17\n      jumpi\n        /* \"solidity/solidity1~10.sol\":2569:2570  2 */\n      0x02\n        /* \"solidity/solidity1~10.sol\":2566:2568  _n */\n      dup3\n        /* \"solidity/solidity1~10.sol\":2566:2570  _n*2 */\n      tag_18\n      swap2\n      swap1\n      tag_19\n      jump\t// in\n    tag_18:\n        /* \"solidity/solidity1~10.sol\":2559:2570  return _n*2 */\n      swap1\n      pop\n      jump(tag_10)\n        /* \"solidity/solidity1~10.sol\":2527:2680  if(_n>3 && _n<=6) {... */\n    tag_17:\n        /* \"solidity/solidity1~10.sol\":2593:2594  6 */\n      0x06\n        /* \"solidity/solidity1~10.sol\":2590:2592  _n */\n      dup3\n        /* \"solidity/solidity1~10.sol\":2590:2594  _n>6 */\n      gt\n        /* \"solidity/solidity1~10.sol\":2590:2603  _n>6 && _n<=9 */\n      dup1\n      iszero\n      tag_21\n      jumpi\n      pop\n        /* \"solidity/solidity1~10.sol\":2602:2603  9 */\n      0x09\n        /* \"solidity/solidity1~10.sol\":2598:2600  _n */\n      dup3\n        /* \"solidity/solidity1~10.sol\":2598:2603  _n<=9 */\n      gt\n      iszero\n        /* \"solidity/solidity1~10.sol\":2590:2603  _n>6 && _n<=9 */\n    tag_21:\n        /* \"solidity/solidity1~10.sol\":2587:2680  if(_n>6 && _n<=9) {... */\n      iszero\n      tag_22\n      jumpi\n        /* \"solidity/solidity1~10.sol\":2629:2630  3 */\n      0x03\n        /* \"solidity/solidity1~10.sol\":2626:2628  _n */\n      dup3\n        /* \"solidity/solidity1~10.sol\":2626:2630  _n%3 */\n      tag_23\n      swap2\n      swap1\n      tag_24\n      jump\t// in\n    tag_23:\n        /* \"solidity/solidity1~10.sol\":2619:2630  return _n%3 */\n      swap1\n      pop\n      jump(tag_10)\n        /* \"solidity/solidity1~10.sol\":2587:2680  if(_n>6 && _n<=9) {... */\n    tag_22:\n        /* \"solidity/solidity1~10.sol\":2668:2669  0 */\n      0x00\n        /* \"solidity/solidity1~10.sol\":2661:2669  return 0 */\n      swap1\n      pop\n        /* \"solidity/solidity1~10.sol\":2405:2686  function Return(uint _n) public pure returns(uint) {... */\n    tag_10:\n      swap2\n      swap1\n      pop\n      jump\t// out\n        /* \"#utility.yul\":88:205   */\n    tag_27:\n        /* \"#utility.yul\":197:198   */\n      0x00\n        /* \"#utility.yul\":194:195   */\n      dup1\n        /* \"#utility.yul\":187:199   */\n      revert\n        /* \"#utility.yul\":334:411   */\n    tag_29:\n        /* \"#utility.yul\":371:378   */\n      0x00\n        /* \"#utility.yul\":400:405   */\n      dup2\n        /* \"#utility.yul\":389:405   */\n      swap1\n      pop\n        /* \"#utility.yul\":334:411   */\n      swap2\n      swap1\n      pop\n      jump\t// out\n        /* \"#utility.yul\":417:539   */\n    tag_30:\n        /* \"#utility.yul\":490:514   */\n      tag_45\n        /* \"#utility.yul\":508:513   */\n      dup2\n        /* \"#utility.yul\":490:514   */\n      tag_29\n      jump\t// in\n    tag_45:\n        /* \"#utility.yul\":483:488   */\n      dup2\n        /* \"#utility.yul\":480:515   */\n      eq\n        /* \"#utility.yul\":470:533   */\n      tag_46\n      jumpi\n        /* \"#utility.yul\":529:530   */\n      0x00\n        /* \"#utility.yul\":526:527   */\n      dup1\n        /* \"#utility.yul\":519:531   */\n      revert\n        /* \"#utility.yul\":470:533   */\n    tag_46:\n        /* \"#utility.yul\":417:539   */\n      pop\n      jump\t// out\n        /* \"#utility.yul\":545:684   */\n    tag_31:\n        /* \"#utility.yul\":591:596   */\n      0x00\n        /* \"#utility.yul\":629:635   */\n      dup2\n        /* \"#utility.yul\":616:636   */\n      calldataload\n        /* \"#utility.yul\":607:636   */\n      swap1\n      pop\n        /* \"#utility.yul\":645:678   */\n      tag_48\n        /* \"#utility.yul\":672:677   */\n      dup2\n        /* \"#utility.yul\":645:678   */\n      tag_30\n      jump\t// in\n    tag_48:\n        /* \"#utility.yul\":545:684   */\n      swap3\n      swap2\n      pop\n      pop\n      jump\t// out\n        /* \"#utility.yul\":690:1019   */\n    tag_6:\n        /* \"#utility.yul\":749:755   */\n      0x00\n        /* \"#utility.yul\":798:800   */\n      0x20\n        /* \"#utility.yul\":786:795   */\n      dup3\n        /* \"#utility.yul\":777:784   */\n      dup5\n        /* \"#utility.yul\":773:796   */\n      sub\n        /* \"#utility.yul\":769:801   */\n      slt\n        /* \"#utility.yul\":766:885   */\n      iszero\n      tag_50\n      jumpi\n        /* \"#utility.yul\":804:883   */\n      tag_51\n      tag_27\n      jump\t// in\n    tag_51:\n        /* \"#utility.yul\":766:885   */\n    tag_50:\n        /* \"#utility.yul\":924:925   */\n      0x00\n        /* \"#utility.yul\":949:1002   */\n      tag_52\n        /* \"#utility.yul\":994:1001   */\n      dup5\n        /* \"#utility.yul\":985:991   */\n      dup3\n        /* \"#utility.yul\":974:983   */\n      dup6\n        /* \"#utility.yul\":970:992   */\n      add\n        /* \"#utility.yul\":949:1002   */\n      tag_31\n      jump\t// in\n    tag_52:\n        /* \"#utility.yul\":939:1002   */\n      swap2\n      pop\n        /* \"#utility.yul\":895:1012   */\n      pop\n        /* \"#utility.yul\":690:1019   */\n      swap3\n      swap2\n      pop\n      pop\n      jump\t// out\n        /* \"#utility.yul\":1025:1143   */\n    tag_32:\n        /* \"#utility.yul\":1112:1136   */\n      tag_54\n        /* \"#utility.yul\":1130:1135   */\n      dup2\n        /* \"#utility.yul\":1112:1136   */\n      tag_29\n      jump\t// in\n    tag_54:\n        /* \"#utility.yul\":1107:1110   */\n      dup3\n        /* \"#utility.yul\":1100:1137   */\n      mstore\n        /* \"#utility.yul\":1025:1143   */\n      pop\n      pop\n      jump\t// out\n        /* \"#utility.yul\":1149:1371   */\n    tag_9:\n        /* \"#utility.yul\":1242:1246   */\n      0x00\n        /* \"#utility.yul\":1280:1282   */\n      0x20\n        /* \"#utility.yul\":1269:1278   */\n      dup3\n        /* \"#utility.yul\":1265:1283   */\n      add\n        /* \"#utility.yul\":1257:1283   */\n      swap1\n      pop\n        /* \"#utility.yul\":1293:1364   */\n      tag_56\n        /* \"#utility.yul\":1361:1362   */\n      0x00\n        /* \"#utility.yul\":1350:1359   */\n      dup4\n        /* \"#utility.yul\":1346:1363   */\n      add\n        /* \"#utility.yul\":1337:1343   */\n      dup5\n        /* \"#utility.yul\":1293:1364   */\n      tag_32\n      jump\t// in\n    tag_56:\n        /* \"#utility.yul\":1149:1371   */\n      swap3\n      swap2\n      pop\n      pop\n      jump\t// out\n        /* \"#utility.yul\":1377:1557   */\n    tag_33:\n        /* \"#utility.yul\":1425:1502   */\n      0x4e487b7100000000000000000000000000000000000000000000000000000000\n        /* \"#utility.yul\":1422:1423   */\n      0x00\n        /* \"#utility.yul\":1415:1503   */\n      mstore\n        /* \"#utility.yul\":1522:1526   */\n      0x11\n        /* \"#utility.yul\":1519:1520   */\n      0x04\n        /* \"#utility.yul\":1512:1527   */\n      mstore\n        /* \"#utility.yul\":1546:1550   */\n      0x24\n        /* \"#utility.yul\":1543:1544   */\n      0x00\n        /* \"#utility.yul\":1536:1551   */\n      revert\n        /* \"#utility.yul\":1563:1665   */\n    tag_34:\n        /* \"#utility.yul\":1605:1613   */\n      0x00\n        /* \"#utility.yul\":1652:1657   */\n      dup2\n        /* \"#utility.yul\":1649:1650   */\n      0x01\n        /* \"#utility.yul\":1645:1658   */\n      shr\n        /* \"#utility.yul\":1624:1658   */\n      swap1\n      pop\n        /* \"#utility.yul\":1563:1665   */\n      swap2\n      swap1\n      pop\n      jump\t// out\n        /* \"#utility.yul\":1671:2519   */\n    tag_35:\n        /* \"#utility.yul\":1732:1737   */\n      0x00\n        /* \"#utility.yul\":1739:1743   */\n      dup1\n        /* \"#utility.yul\":1763:1769   */\n      dup3\n        /* \"#utility.yul\":1754:1769   */\n      swap2\n      pop\n        /* \"#utility.yul\":1787:1792   */\n      dup4\n        /* \"#utility.yul\":1778:1792   */\n      swap1\n      pop\n        /* \"#utility.yul\":1801:2513   */\n    tag_60:\n        /* \"#utility.yul\":1822:1823   */\n      0x01\n        /* \"#utility.yul\":1812:1820   */\n      dup6\n        /* \"#utility.yul\":1809:1824   */\n      gt\n        /* \"#utility.yul\":1801:2513   */\n      iszero\n      tag_62\n      jumpi\n        /* \"#utility.yul\":1917:1921   */\n      dup1\n        /* \"#utility.yul\":1912:1915   */\n      dup7\n        /* \"#utility.yul\":1908:1922   */\n      div\n        /* \"#utility.yul\":1902:1906   */\n      dup2\n        /* \"#utility.yul\":1899:1923   */\n      gt\n        /* \"#utility.yul\":1896:1946   */\n      iszero\n      tag_63\n      jumpi\n        /* \"#utility.yul\":1926:1944   */\n      tag_64\n      tag_33\n      jump\t// in\n    tag_64:\n        /* \"#utility.yul\":1896:1946   */\n    tag_63:\n        /* \"#utility.yul\":1976:1977   */\n      0x01\n        /* \"#utility.yul\":1966:1974   */\n      dup6\n        /* \"#utility.yul\":1962:1978   */\n      and\n        /* \"#utility.yul\":1959:2410   */\n      iszero\n      tag_65\n      jumpi\n        /* \"#utility.yul\":2391:2395   */\n      dup1\n        /* \"#utility.yul\":2384:2389   */\n      dup3\n        /* \"#utility.yul\":2380:2396   */\n      mul\n        /* \"#utility.yul\":2371:2396   */\n      swap2\n      pop\n        /* \"#utility.yul\":1959:2410   */\n    tag_65:\n        /* \"#utility.yul\":2441:2445   */\n      dup1\n        /* \"#utility.yul\":2435:2439   */\n      dup2\n        /* \"#utility.yul\":2431:2446   */\n      mul\n        /* \"#utility.yul\":2423:2446   */\n      swap1\n      pop\n        /* \"#utility.yul\":2471:2503   */\n      tag_66\n        /* \"#utility.yul\":2494:2502   */\n      dup6\n        /* \"#utility.yul\":2471:2503   */\n      tag_34\n      jump\t// in\n    tag_66:\n        /* \"#utility.yul\":2459:2503   */\n      swap5\n      pop\n        /* \"#utility.yul\":1801:2513   */\n      jump(tag_60)\n    tag_62:\n        /* \"#utility.yul\":1671:2519   */\n      swap5\n      pop\n      swap5\n      swap3\n      pop\n      pop\n      pop\n      jump\t// out\n        /* \"#utility.yul\":2525:3598   */\n    tag_36:\n        /* \"#utility.yul\":2579:2584   */\n      0x00\n        /* \"#utility.yul\":2770:2778   */\n      dup3\n        /* \"#utility.yul\":2760:2800   */\n      tag_68\n      jumpi\n        /* \"#utility.yul\":2791:2792   */\n      0x01\n        /* \"#utility.yul\":2782:2792   */\n      swap1\n      pop\n        /* \"#utility.yul\":2793:2798   */\n      jump(tag_67)\n        /* \"#utility.yul\":2760:2800   */\n    tag_68:\n        /* \"#utility.yul\":2819:2823   */\n      dup2\n        /* \"#utility.yul\":2809:2845   */\n      tag_69\n      jumpi\n        /* \"#utility.yul\":2836:2837   */\n      0x00\n        /* \"#utility.yul\":2827:2837   */\n      swap1\n      pop\n        /* \"#utility.yul\":2838:2843   */\n      jump(tag_67)\n        /* \"#utility.yul\":2809:2845   */\n    tag_69:\n        /* \"#utility.yul\":2905:2909   */\n      dup2\n        /* \"#utility.yul\":2953:2954   */\n      0x01\n        /* \"#utility.yul\":2948:2975   */\n      dup2\n      eq\n      tag_71\n      jumpi\n        /* \"#utility.yul\":2989:2990   */\n      0x02\n        /* \"#utility.yul\":2984:3175   */\n      dup2\n      eq\n      tag_72\n      jumpi\n        /* \"#utility.yul\":2898:3175   */\n      jump(tag_70)\n        /* \"#utility.yul\":2948:2975   */\n    tag_71:\n        /* \"#utility.yul\":2966:2967   */\n      0x01\n        /* \"#utility.yul\":2957:2967   */\n      swap2\n      pop\n        /* \"#utility.yul\":2968:2973   */\n      pop\n      jump(tag_67)\n        /* \"#utility.yul\":2984:3175   */\n    tag_72:\n        /* \"#utility.yul\":3029:3032   */\n      0xff\n        /* \"#utility.yul\":3019:3027   */\n      dup5\n        /* \"#utility.yul\":3016:3033   */\n      gt\n        /* \"#utility.yul\":3013:3056   */\n      iszero\n      tag_73\n      jumpi\n        /* \"#utility.yul\":3036:3054   */\n      tag_74\n      tag_33\n      jump\t// in\n    tag_74:\n        /* \"#utility.yul\":3013:3056   */\n    tag_73:\n        /* \"#utility.yul\":3085:3093   */\n      dup4\n        /* \"#utility.yul\":3082:3083   */\n      0x02\n        /* \"#utility.yul\":3078:3094   */\n      exp\n        /* \"#utility.yul\":3069:3094   */\n      swap2\n      pop\n        /* \"#utility.yul\":3120:3123   */\n      dup5\n        /* \"#utility.yul\":3113:3118   */\n      dup3\n        /* \"#utility.yul\":3110:3124   */\n      gt\n        /* \"#utility.yul\":3107:3147   */\n      iszero\n      tag_75\n      jumpi\n        /* \"#utility.yul\":3127:3145   */\n      tag_76\n      tag_33\n      jump\t// in\n    tag_76:\n        /* \"#utility.yul\":3107:3147   */\n    tag_75:\n        /* \"#utility.yul\":3160:3165   */\n      pop\n      jump(tag_67)\n        /* \"#utility.yul\":2898:3175   */\n    tag_70:\n      pop\n        /* \"#utility.yul\":3284:3286   */\n      0x20\n        /* \"#utility.yul\":3274:3282   */\n      dup4\n        /* \"#utility.yul\":3271:3287   */\n      lt\n        /* \"#utility.yul\":3265:3268   */\n      0x0133\n        /* \"#utility.yul\":3259:3263   */\n      dup4\n        /* \"#utility.yul\":3256:3269   */\n      lt\n        /* \"#utility.yul\":3252:3288   */\n      and\n        /* \"#utility.yul\":3234:3236   */\n      0x4e\n        /* \"#utility.yul\":3224:3232   */\n      dup5\n        /* \"#utility.yul\":3221:3237   */\n      lt\n        /* \"#utility.yul\":3216:3218   */\n      0x0b\n        /* \"#utility.yul\":3210:3214   */\n      dup5\n        /* \"#utility.yul\":3207:3219   */\n      lt\n        /* \"#utility.yul\":3203:3238   */\n      and\n        /* \"#utility.yul\":3187:3298   */\n      or\n        /* \"#utility.yul\":3184:3430   */\n      iszero\n      tag_77\n      jumpi\n        /* \"#utility.yul\":3340:3348   */\n      dup3\n        /* \"#utility.yul\":3334:3338   */\n      dup3\n        /* \"#utility.yul\":3330:3349   */\n      exp\n        /* \"#utility.yul\":3321:3349   */\n      swap1\n      pop\n        /* \"#utility.yul\":3375:3378   */\n      dup4\n        /* \"#utility.yul\":3368:3373   */\n      dup2\n        /* \"#utility.yul\":3365:3379   */\n      gt\n        /* \"#utility.yul\":3362:3402   */\n      iszero\n      tag_78\n      jumpi\n        /* \"#utility.yul\":3382:3400   */\n      tag_79\n      tag_33\n      jump\t// in\n    tag_79:\n        /* \"#utility.yul\":3362:3402   */\n    tag_78:\n        /* \"#utility.yul\":3415:3420   */\n      jump(tag_67)\n        /* \"#utility.yul\":3184:3430   */\n    tag_77:\n        /* \"#utility.yul\":3455:3497   */\n      tag_80\n        /* \"#utility.yul\":3493:3496   */\n      dup5\n        /* \"#utility.yul\":3483:3491   */\n      dup5\n        /* \"#utility.yul\":3477:3481   */\n      dup5\n        /* \"#utility.yul\":3474:3475   */\n      0x01\n        /* \"#utility.yul\":3455:3497   */\n      tag_35\n      jump\t// in\n    tag_80:\n        /* \"#utility.yul\":3440:3497   */\n      swap3\n      pop\n      swap1\n      pop\n        /* \"#utility.yul\":3529:3533   */\n      dup2\n        /* \"#utility.yul\":3524:3527   */\n      dup5\n        /* \"#utility.yul\":3520:3534   */\n      div\n        /* \"#utility.yul\":3513:3518   */\n      dup2\n        /* \"#utility.yul\":3510:3535   */\n      gt\n        /* \"#utility.yul\":3507:3558   */\n      iszero\n      tag_81\n      jumpi\n        /* \"#utility.yul\":3538:3556   */\n      tag_82\n      tag_33\n      jump\t// in\n    tag_82:\n        /* \"#utility.yul\":3507:3558   */\n    tag_81:\n        /* \"#utility.yul\":3587:3591   */\n      dup2\n        /* \"#utility.yul\":3580:3585   */\n      dup2\n        /* \"#utility.yul\":3576:3592   */\n      mul\n        /* \"#utility.yul\":3567:3592   */\n      swap1\n      pop\n        /* \"#utility.yul\":2525:3598   */\n    tag_67:\n      swap4\n      swap3\n      pop\n      pop\n      pop\n      jump\t// out\n        /* \"#utility.yul\":3604:3690   */\n    tag_37:\n        /* \"#utility.yul\":3639:3646   */\n      0x00\n        /* \"#utility.yul\":3679:3683   */\n      0xff\n        /* \"#utility.yul\":3672:3677   */\n      dup3\n        /* \"#utility.yul\":3668:3684   */\n      and\n        /* \"#utility.yul\":3657:3684   */\n      swap1\n      pop\n        /* \"#utility.yul\":3604:3690   */\n      swap2\n      swap1\n      pop\n      jump\t// out\n        /* \"#utility.yul\":3696:3977   */\n    tag_14:\n        /* \"#utility.yul\":3754:3759   */\n      0x00\n        /* \"#utility.yul\":3778:3801   */\n      tag_85\n        /* \"#utility.yul\":3796:3800   */\n      dup3\n        /* \"#utility.yul\":3778:3801   */\n      tag_29\n      jump\t// in\n    tag_85:\n        /* \"#utility.yul\":3770:3801   */\n      swap2\n      pop\n        /* \"#utility.yul\":3822:3847   */\n      tag_86\n        /* \"#utility.yul\":3838:3846   */\n      dup4\n        /* \"#utility.yul\":3822:3847   */\n      tag_37\n      jump\t// in\n    tag_86:\n        /* \"#utility.yul\":3810:3847   */\n      swap3\n      pop\n        /* \"#utility.yul\":3866:3970   */\n      tag_87\n        /* \"#utility.yul\":3903:3969   */\n      0xffffffffffffffffffffffffffffffffffffffffffffffffffffffffffffffff\n        /* \"#utility.yul\":3893:3901   */\n      dup5\n        /* \"#utility.yul\":3887:3891   */\n      dup5\n        /* \"#utility.yul\":3866:3970   */\n      tag_36\n      jump\t// in\n    tag_87:\n        /* \"#utility.yul\":3857:3970   */\n      swap1\n      pop\n        /* \"#utility.yul\":3696:3977   */\n      swap3\n      swap2\n      pop\n      pop\n      jump\t// out\n        /* \"#utility.yul\":3983:4393   */\n    tag_19:\n        /* \"#utility.yul\":4023:4030   */\n      0x00\n        /* \"#utility.yul\":4046:4066   */\n      tag_89\n        /* \"#utility.yul\":4064:4065   */\n      dup3\n        /* \"#utility.yul\":4046:4066   */\n      tag_29\n      jump\t// in\n    tag_89:\n        /* \"#utility.yul\":4041:4066   */\n      swap2\n      pop\n        /* \"#utility.yul\":4080:4100   */\n      tag_90\n        /* \"#utility.yul\":4098:4099   */\n      dup4\n        /* \"#utility.yul\":4080:4100   */\n      tag_29\n      jump\t// in\n    tag_90:\n        /* \"#utility.yul\":4075:4100   */\n      swap3\n      pop\n        /* \"#utility.yul\":4135:4136   */\n      dup3\n        /* \"#utility.yul\":4132:4133   */\n      dup3\n        /* \"#utility.yul\":4128:4137   */\n      mul\n        /* \"#utility.yul\":4157:4187   */\n      tag_91\n        /* \"#utility.yul\":4175:4186   */\n      dup2\n        /* \"#utility.yul\":4157:4187   */\n      tag_29\n      jump\t// in\n    tag_91:\n        /* \"#utility.yul\":4146:4187   */\n      swap2\n      pop\n        /* \"#utility.yul\":4336:4337   */\n      dup3\n        /* \"#utility.yul\":4327:4334   */\n      dup3\n        /* \"#utility.yul\":4323:4338   */\n      div\n        /* \"#utility.yul\":4320:4321   */\n      dup5\n        /* \"#utility.yul\":4317:4339   */\n      eq\n        /* \"#utility.yul\":4297:4298   */\n      dup4\n        /* \"#utility.yul\":4290:4299   */\n      iszero\n        /* \"#utility.yul\":4270:4353   */\n      or\n        /* \"#utility.yul\":4247:4386   */\n      tag_92\n      jumpi\n        /* \"#utility.yul\":4366:4384   */\n      tag_93\n      tag_33\n      jump\t// in\n    tag_93:\n        /* \"#utility.yul\":4247:4386   */\n    tag_92:\n        /* \"#utility.yul\":4031:4393   */\n      pop\n        /* \"#utility.yul\":3983:4393   */\n      swap3\n      swap2\n      pop\n      pop\n      jump\t// out\n        /* \"#utility.yul\":4399:4579   */\n    tag_38:\n        /* \"#utility.yul\":4447:4524   */\n      0x4e487b7100000000000000000000000000000000000000000000000000000000\n        /* \"#utility.yul\":4444:4445   */\n      0x00\n        /* \"#utility.yul\":4437:4525   */\n      mstore\n        /* \"#utility.yul\":4544:4548   */\n      0x12\n        /* \"#utility.yul\":4541:4542   */\n      0x04\n        /* \"#utility.yul\":4534:4549   */\n      mstore\n        /* \"#utility.yul\":4568:4572   */\n      0x24\n        /* \"#utility.yul\":4565:4566   */\n      0x00\n        /* \"#utility.yul\":4558:4573   */\n      revert\n        /* \"#utility.yul\":4585:4761   */\n    tag_24:\n        /* \"#utility.yul\":4617:4618   */\n      0x00\n        /* \"#utility.yul\":4634:4654   */\n      tag_96\n        /* \"#utility.yul\":4652:4653   */\n      dup3\n        /* \"#utility.yul\":4634:4654   */\n      tag_29\n      jump\t// in\n    tag_96:\n        /* \"#utility.yul\":4629:4654   */\n      swap2\n      pop\n        /* \"#utility.yul\":4668:4688   */\n      tag_97\n        /* \"#utility.yul\":4686:4687   */\n      dup4\n        /* \"#utility.yul\":4668:4688   */\n      tag_29\n      jump\t// in\n    tag_97:\n        /* \"#utility.yul\":4663:4688   */\n      swap3\n      pop\n        /* \"#utility.yul\":4707:4708   */\n      dup3\n        /* \"#utility.yul\":4697:4732   */\n      tag_98\n      jumpi\n        /* \"#utility.yul\":4712:4730   */\n      tag_99\n      tag_38\n      jump\t// in\n    tag_99:\n        /* \"#utility.yul\":4697:4732   */\n    tag_98:\n        /* \"#utility.yul\":4753:4754   */\n      dup3\n        /* \"#utility.yul\":4750:4751   */\n      dup3\n        /* \"#utility.yul\":4746:4755   */\n      mod\n        /* \"#utility.yul\":4741:4755   */\n      swap1\n      pop\n        /* \"#utility.yul\":4585:4761   */\n      swap3\n      swap2\n      pop\n      pop\n      jump\t// out\n\n    auxdata: 0xa26469706673582212203f2f2c98382a5258c46b1a4afc18a63970b9a8d0f8e0e338d850787d487c561c64736f6c634300081a0033\n}\n",
				"bytecode": {
					"linkReferences": {},
					"object": "6080604052348015600e575f80fd5b506103f48061001c5f395ff3fe608060405234801561000f575f80fd5b5060043610610029575f3560e01c8063336bea1c1461002d575b5f80fd5b6100476004803603810190610042919061011b565b61005d565b6040516100549190610155565b60405180910390f35b5f808211801561006e575060038211155b156100875760028261008091906102d6565b90506100df565b600382118015610098575060068211155b156100b1576002826100aa9190610320565b90506100df565b6006821180156100c2575060098211155b156100db576003826100d4919061038e565b90506100df565b5f90505b919050565b5f80fd5b5f819050919050565b6100fa816100e8565b8114610104575f80fd5b50565b5f81359050610115816100f1565b92915050565b5f602082840312156101305761012f6100e4565b5b5f61013d84828501610107565b91505092915050565b61014f816100e8565b82525050565b5f6020820190506101685f830184610146565b92915050565b7f4e487b71000000000000000000000000000000000000000000000000000000005f52601160045260245ffd5b5f8160011c9050919050565b5f808291508390505b60018511156101f0578086048111156101cc576101cb61016e565b5b60018516156101db5780820291505b80810290506101e98561019b565b94506101b0565b94509492505050565b5f8261020857600190506102c3565b81610215575f90506102c3565b816001811461022b576002811461023557610264565b60019150506102c3565b60ff8411156102475761024661016e565b5b8360020a91508482111561025e5761025d61016e565b5b506102c3565b5060208310610133831016604e8410600b84101617156102995782820a9050838111156102945761029361016e565b5b6102c3565b6102a684848460016101a7565b925090508184048111156102bd576102bc61016e565b5b81810290505b9392505050565b5f60ff82169050919050565b5f6102e0826100e8565b91506102eb836102ca565b92506103187fffffffffffffffffffffffffffffffffffffffffffffffffffffffffffffffff84846101f9565b905092915050565b5f61032a826100e8565b9150610335836100e8565b9250828202610343816100e8565b9150828204841483151761035a5761035961016e565b5b5092915050565b7f4e487b71000000000000000000000000000000000000000000000000000000005f52601260045260245ffd5b5f610398826100e8565b91506103a3836100e8565b9250826103b3576103b2610361565b5b82820690509291505056fea26469706673582212203f2f2c98382a5258c46b1a4afc18a63970b9a8d0f8e0e338d850787d487c561c64736f6c634300081a0033",
					"opcodes": "PUSH1 0x80 PUSH1 0x40 MSTORE CALLVALUE DUP1 ISZERO PUSH1 0xE JUMPI PUSH0 DUP1 REVERT JUMPDEST POP PUSH2 0x3F4 DUP1 PUSH2 0x1C PUSH0 CODECOPY PUSH0 RETURN INVALID PUSH1 0x80 PUSH1 0x40 MSTORE CALLVALUE DUP1 ISZERO PUSH2 0xF JUMPI PUSH0 DUP1 REVERT JUMPDEST POP PUSH1 0x4 CALLDATASIZE LT PUSH2 0x29 JUMPI PUSH0 CALLDATALOAD PUSH1 0xE0 SHR DUP1 PUSH4 0x336BEA1C EQ PUSH2 0x2D JUMPI JUMPDEST PUSH0 DUP1 REVERT JUMPDEST PUSH2 0x47 PUSH1 0x4 DUP1 CALLDATASIZE SUB DUP2 ADD SWAP1 PUSH2 0x42 SWAP2 SWAP1 PUSH2 0x11B JUMP JUMPDEST PUSH2 0x5D JUMP JUMPDEST PUSH1 0x40 MLOAD PUSH2 0x54 SWAP2 SWAP1 PUSH2 0x155 JUMP JUMPDEST PUSH1 0x40 MLOAD DUP1 SWAP2 SUB SWAP1 RETURN JUMPDEST PUSH0 DUP1 DUP3 GT DUP1 ISZERO PUSH2 0x6E JUMPI POP PUSH1 0x3 DUP3 GT ISZERO JUMPDEST ISZERO PUSH2 0x87 JUMPI PUSH1 0x2 DUP3 PUSH2 0x80 SWAP2 SWAP1 PUSH2 0x2D6 JUMP JUMPDEST SWAP1 POP PUSH2 0xDF JUMP JUMPDEST PUSH1 0x3 DUP3 GT DUP1 ISZERO PUSH2 0x98 JUMPI POP PUSH1 0x6 DUP3 GT ISZERO JUMPDEST ISZERO PUSH2 0xB1 JUMPI PUSH1 0x2 DUP3 PUSH2 0xAA SWAP2 SWAP1 PUSH2 0x320 JUMP JUMPDEST SWAP1 POP PUSH2 0xDF JUMP JUMPDEST PUSH1 0x6 DUP3 GT DUP1 ISZERO PUSH2 0xC2 JUMPI POP PUSH1 0x9 DUP3 GT ISZERO JUMPDEST ISZERO PUSH2 0xDB JUMPI PUSH1 0x3 DUP3 PUSH2 0xD4 SWAP2 SWAP1 PUSH2 0x38E JUMP JUMPDEST SWAP1 POP PUSH2 0xDF JUMP JUMPDEST PUSH0 SWAP1 POP JUMPDEST SWAP2 SWAP1 POP JUMP JUMPDEST PUSH0 DUP1 REVERT JUMPDEST PUSH0 DUP2 SWAP1 POP SWAP2 SWAP1 POP JUMP JUMPDEST PUSH2 0xFA DUP2 PUSH2 0xE8 JUMP JUMPDEST DUP2 EQ PUSH2 0x104 JUMPI PUSH0 DUP1 REVERT JUMPDEST POP JUMP JUMPDEST PUSH0 DUP2 CALLDATALOAD SWAP1 POP PUSH2 0x115 DUP2 PUSH2 0xF1 JUMP JUMPDEST SWAP3 SWAP2 POP POP JUMP JUMPDEST PUSH0 PUSH1 0x20 DUP3 DUP5 SUB SLT ISZERO PUSH2 0x130 JUMPI PUSH2 0x12F PUSH2 0xE4 JUMP JUMPDEST JUMPDEST PUSH0 PUSH2 0x13D DUP5 DUP3 DUP6 ADD PUSH2 0x107 JUMP JUMPDEST SWAP2 POP POP SWAP3 SWAP2 POP POP JUMP JUMPDEST PUSH2 0x14F DUP2 PUSH2 0xE8 JUMP JUMPDEST DUP3 MSTORE POP POP JUMP JUMPDEST PUSH0 PUSH1 0x20 DUP3 ADD SWAP1 POP PUSH2 0x168 PUSH0 DUP4 ADD DUP5 PUSH2 0x146 JUMP JUMPDEST SWAP3 SWAP2 POP POP JUMP JUMPDEST PUSH32 0x4E487B7100000000000000000000000000000000000000000000000000000000 PUSH0 MSTORE PUSH1 0x11 PUSH1 0x4 MSTORE PUSH1 0x24 PUSH0 REVERT JUMPDEST PUSH0 DUP2 PUSH1 0x1 SHR SWAP1 POP SWAP2 SWAP1 POP JUMP JUMPDEST PUSH0 DUP1 DUP3 SWAP2 POP DUP4 SWAP1 POP JUMPDEST PUSH1 0x1 DUP6 GT ISZERO PUSH2 0x1F0 JUMPI DUP1 DUP7 DIV DUP2 GT ISZERO PUSH2 0x1CC JUMPI PUSH2 0x1CB PUSH2 0x16E JUMP JUMPDEST JUMPDEST PUSH1 0x1 DUP6 AND ISZERO PUSH2 0x1DB JUMPI DUP1 DUP3 MUL SWAP2 POP JUMPDEST DUP1 DUP2 MUL SWAP1 POP PUSH2 0x1E9 DUP6 PUSH2 0x19B JUMP JUMPDEST SWAP5 POP PUSH2 0x1B0 JUMP JUMPDEST SWAP5 POP SWAP5 SWAP3 POP POP POP JUMP JUMPDEST PUSH0 DUP3 PUSH2 0x208 JUMPI PUSH1 0x1 SWAP1 POP PUSH2 0x2C3 JUMP JUMPDEST DUP2 PUSH2 0x215 JUMPI PUSH0 SWAP1 POP PUSH2 0x2C3 JUMP JUMPDEST DUP2 PUSH1 0x1 DUP2 EQ PUSH2 0x22B JUMPI PUSH1 0x2 DUP2 EQ PUSH2 0x235 JUMPI PUSH2 0x264 JUMP JUMPDEST PUSH1 0x1 SWAP2 POP POP PUSH2 0x2C3 JUMP JUMPDEST PUSH1 0xFF DUP5 GT ISZERO PUSH2 0x247 JUMPI PUSH2 0x246 PUSH2 0x16E JUMP JUMPDEST JUMPDEST DUP4 PUSH1 0x2 EXP SWAP2 POP DUP5 DUP3 GT ISZERO PUSH2 0x25E JUMPI PUSH2 0x25D PUSH2 0x16E JUMP JUMPDEST JUMPDEST POP PUSH2 0x2C3 JUMP JUMPDEST POP PUSH1 0x20 DUP4 LT PUSH2 0x133 DUP4 LT AND PUSH1 0x4E DUP5 LT PUSH1 0xB DUP5 LT AND OR ISZERO PUSH2 0x299 JUMPI DUP3 DUP3 EXP SWAP1 POP DUP4 DUP2 GT ISZERO PUSH2 0x294 JUMPI PUSH2 0x293 PUSH2 0x16E JUMP JUMPDEST JUMPDEST PUSH2 0x2C3 JUMP JUMPDEST PUSH2 0x2A6 DUP5 DUP5 DUP5 PUSH1 0x1 PUSH2 0x1A7 JUMP JUMPDEST SWAP3 POP SWAP1 POP DUP2 DUP5 DIV DUP2 GT ISZERO PUSH2 0x2BD JUMPI PUSH2 0x2BC PUSH2 0x16E JUMP JUMPDEST JUMPDEST DUP2 DUP2 MUL SWAP1 POP JUMPDEST SWAP4 SWAP3 POP POP POP JUMP JUMPDEST PUSH0 PUSH1 0xFF DUP3 AND SWAP1 POP SWAP2 SWAP1 POP JUMP JUMPDEST PUSH0 PUSH2 0x2E0 DUP3 PUSH2 0xE8 JUMP JUMPDEST SWAP2 POP PUSH2 0x2EB DUP4 PUSH2 0x2CA JUMP JUMPDEST SWAP3 POP PUSH2 0x318 PUSH32 0xFFFFFFFFFFFFFFFFFFFFFFFFFFFFFFFFFFFFFFFFFFFFFFFFFFFFFFFFFFFFFFFF DUP5 DUP5 PUSH2 0x1F9 JUMP JUMPDEST SWAP1 POP SWAP3 SWAP2 POP POP JUMP JUMPDEST PUSH0 PUSH2 0x32A DUP3 PUSH2 0xE8 JUMP JUMPDEST SWAP2 POP PUSH2 0x335 DUP4 PUSH2 0xE8 JUMP JUMPDEST SWAP3 POP DUP3 DUP3 MUL PUSH2 0x343 DUP2 PUSH2 0xE8 JUMP JUMPDEST SWAP2 POP DUP3 DUP3 DIV DUP5 EQ DUP4 ISZERO OR PUSH2 0x35A JUMPI PUSH2 0x359 PUSH2 0x16E JUMP JUMPDEST JUMPDEST POP SWAP3 SWAP2 POP POP JUMP JUMPDEST PUSH32 0x4E487B7100000000000000000000000000000000000000000000000000000000 PUSH0 MSTORE PUSH1 0x12 PUSH1 0x4 MSTORE PUSH1 0x24 PUSH0 REVERT JUMPDEST PUSH0 PUSH2 0x398 DUP3 PUSH2 0xE8 JUMP JUMPDEST SWAP2 POP PUSH2 0x3A3 DUP4 PUSH2 0xE8 JUMP JUMPDEST SWAP3 POP DUP3 PUSH2 0x3B3 JUMPI PUSH2 0x3B2 PUSH2 0x361 JUMP JUMPDEST JUMPDEST DUP3 DUP3 MOD SWAP1 POP SWAP3 SWAP2 POP POP JUMP INVALID LOG2 PUSH5 0x6970667358 0x22 SLT KECCAK256 EXTCODEHASH 0x2F 0x2C SWAP9 CODESIZE 0x2A MSTORE PC 0xC4 PUSH12 0x1A4AFC18A63970B9A8D0F8E0 0xE3 CODESIZE 0xD8 POP PUSH25 0x7D487C561C64736F6C634300081A0033000000000000000000 "
				},
				"gasEstimates": {
					"creation": {
						"codeDepositCost": "202400",
						"executionCost": "243",
						"totalCost": "202643"
					},
					"external": {
						"Return(uint256)": "infinite"
					}
				},
				"methodIdentifiers": {
					"Return(uint256)": "336bea1c"
				}
			},
			"storageLayout": {
				"storage": [],
				"types": null
			},
			"userdoc": {
				"kind": "user",
				"methods": {},
				"version": 1
			}
		}
	}
}