{
	"solidity/solidity1~10.sol": {
		"Q7": {
			"abi": [
				{
					"inputs": [],
					"name": "allNum",
					"outputs": [
						{
							"internalType": "uint256",
							"name": "",
							"type": "uint256"
						}
					],
					"stateMutability": "view",
					"type": "function"
				},
				{
					"inputs": [],
					"name": "setNumbers",
					"outputs": [],
					"stateMutability": "nonpayable",
					"type": "function"
				}
			],
			"devdoc": {
				"kind": "dev",
				"methods": {},
				"version": 1
			},
			"evm": {
				"assembly": "    /* \"solidity/solidity1~10.sol\":3123:3711  contract Q7 {... */\n  mstore(0x40, 0x80)\n  callvalue\n  dup1\n  iszero\n  tag_1\n  jumpi\n  0x00\n  dup1\n  revert\ntag_1:\n  pop\n  dataSize(sub_0)\n  dup1\n  dataOffset(sub_0)\n  0x00\n  codecopy\n  0x00\n  return\nstop\n\nsub_0: assembly {\n        /* \"solidity/solidity1~10.sol\":3123:3711  contract Q7 {... */\n      mstore(0x40, 0x80)\n      callvalue\n      dup1\n      iszero\n      tag_1\n      jumpi\n      0x00\n      dup1\n      revert\n    tag_1:\n      pop\n      jumpi(tag_2, lt(calldatasize, 0x04))\n      shr(0xe0, calldataload(0x00))\n      dup1\n      0x10c66e17\n      eq\n      tag_3\n      jumpi\n      dup1\n      0x2985f6ac\n      eq\n      tag_4\n      jumpi\n    tag_2:\n      0x00\n      dup1\n      revert\n        /* \"solidity/solidity1~10.sol\":3417:3526  function setNumbers() public {... */\n    tag_3:\n      tag_5\n      tag_6\n      jump\t// in\n    tag_5:\n      stop\n        /* \"solidity/solidity1~10.sol\":3532:3709  function allNum() public view returns(uint) {... */\n    tag_4:\n      tag_7\n      tag_8\n      jump\t// in\n    tag_7:\n      mload(0x40)\n      tag_9\n      swap2\n      swap1\n      tag_10\n      jump\t// in\n    tag_9:\n      mload(0x40)\n      dup1\n      swap2\n      sub\n      swap1\n      return\n        /* \"solidity/solidity1~10.sol\":3417:3526  function setNumbers() public {... */\n    tag_6:\n        /* \"solidity/solidity1~10.sol\":3460:3466  uint i */\n      0x00\n        /* \"solidity/solidity1~10.sol\":3456:3520  for(uint i=0; i<6; i++) {... */\n    tag_12:\n        /* \"solidity/solidity1~10.sol\":3472:3473  6 */\n      0x06\n        /* \"solidity/solidity1~10.sol\":3470:3471  i */\n      dup2\n        /* \"solidity/solidity1~10.sol\":3470:3473  i<6 */\n      lt\n        /* \"solidity/solidity1~10.sol\":3456:3520  for(uint i=0; i<6; i++) {... */\n      iszero\n      tag_13\n      jumpi\n        /* \"solidity/solidity1~10.sol\":3494:3501  numbers */\n      0x00\n        /* \"solidity/solidity1~10.sol\":3507:3508  i */\n      dup2\n        /* \"solidity/solidity1~10.sol\":3494:3509  numbers.push(i) */\n      swap1\n      dup1\n      0x01\n      dup2\n      sload\n      add\n      dup1\n      dup3\n      sstore\n      dup1\n      swap2\n      pop\n      pop\n      0x01\n      swap1\n      sub\n      swap1\n      0x00\n      mstore\n      keccak256(0x00, 0x20)\n      add\n      0x00\n      swap1\n      swap2\n      swap1\n      swap2\n      swap1\n      swap2\n      pop\n      sstore\n        /* \"solidity/solidity1~10.sol\":3475:3478  i++ */\n      dup1\n      dup1\n      0x01\n      add\n      swap2\n      pop\n      pop\n        /* \"solidity/solidity1~10.sol\":3456:3520  for(uint i=0; i<6; i++) {... */\n      jump(tag_12)\n    tag_13:\n      pop\n        /* \"solidity/solidity1~10.sol\":3417:3526  function setNumbers() public {... */\n      jump\t// out\n        /* \"solidity/solidity1~10.sol\":3532:3709  function allNum() public view returns(uint) {... */\n    tag_8:\n        /* \"solidity/solidity1~10.sol\":3570:3574  uint */\n      0x00\n        /* \"solidity/solidity1~10.sol\":3586:3594  uint all */\n      dup1\n        /* \"solidity/solidity1~10.sol\":3608:3614  uint i */\n      0x00\n        /* \"solidity/solidity1~10.sol\":3604:3683  for(uint i=0; i<numbers.length; i++) {... */\n    tag_17:\n        /* \"solidity/solidity1~10.sol\":3620:3627  numbers */\n      0x00\n        /* \"solidity/solidity1~10.sol\":3620:3634  numbers.length */\n      dup1\n      sload\n      swap1\n      pop\n        /* \"solidity/solidity1~10.sol\":3618:3619  i */\n      dup2\n        /* \"solidity/solidity1~10.sol\":3618:3634  i<numbers.length */\n      lt\n        /* \"solidity/solidity1~10.sol\":3604:3683  for(uint i=0; i<numbers.length; i++) {... */\n      iszero\n      tag_18\n      jumpi\n        /* \"solidity/solidity1~10.sol\":3662:3669  numbers */\n      0x00\n        /* \"solidity/solidity1~10.sol\":3670:3671  i */\n      dup2\n        /* \"solidity/solidity1~10.sol\":3662:3672  numbers[i] */\n      dup2\n      sload\n      dup2\n      lt\n      tag_20\n      jumpi\n      tag_21\n      tag_22\n      jump\t// in\n    tag_21:\n    tag_20:\n      swap1\n      0x00\n      mstore\n      keccak256(0x00, 0x20)\n      add\n      sload\n        /* \"solidity/solidity1~10.sol\":3655:3672  all += numbers[i] */\n      dup3\n      tag_24\n      swap2\n      swap1\n      tag_25\n      jump\t// in\n    tag_24:\n      swap2\n      pop\n        /* \"solidity/solidity1~10.sol\":3636:3639  i++ */\n      dup1\n      dup1\n      0x01\n      add\n      swap2\n      pop\n      pop\n        /* \"solidity/solidity1~10.sol\":3604:3683  for(uint i=0; i<numbers.length; i++) {... */\n      jump(tag_17)\n    tag_18:\n      pop\n        /* \"solidity/solidity1~10.sol\":3699:3702  all */\n      dup1\n        /* \"solidity/solidity1~10.sol\":3692:3702  return all */\n      swap2\n      pop\n      pop\n        /* \"solidity/solidity1~10.sol\":3532:3709  function allNum() public view returns(uint) {... */\n      swap1\n      jump\t// out\n        /* \"#utility.yul\":7:84   */\n    tag_26:\n        /* \"#utility.yul\":44:51   */\n      0x00\n        /* \"#utility.yul\":73:78   */\n      dup2\n        /* \"#utility.yul\":62:78   */\n      swap1\n      pop\n        /* \"#utility.yul\":7:84   */\n      swap2\n      swap1\n      pop\n      jump\t// out\n        /* \"#utility.yul\":90:208   */\n    tag_27:\n        /* \"#utility.yul\":177:201   */\n      tag_32\n        /* \"#utility.yul\":195:200   */\n      dup2\n        /* \"#utility.yul\":177:201   */\n      tag_26\n      jump\t// in\n    tag_32:\n        /* \"#utility.yul\":172:175   */\n      dup3\n        /* \"#utility.yul\":165:202   */\n      mstore\n        /* \"#utility.yul\":90:208   */\n      pop\n      pop\n      jump\t// out\n        /* \"#utility.yul\":214:436   */\n    tag_10:\n        /* \"#utility.yul\":307:311   */\n      0x00\n        /* \"#utility.yul\":345:347   */\n      0x20\n        /* \"#utility.yul\":334:343   */\n      dup3\n        /* \"#utility.yul\":330:348   */\n      add\n        /* \"#utility.yul\":322:348   */\n      swap1\n      pop\n        /* \"#utility.yul\":358:429   */\n      tag_34\n        /* \"#utility.yul\":426:427   */\n      0x00\n        /* \"#utility.yul\":415:424   */\n      dup4\n        /* \"#utility.yul\":411:428   */\n      add\n        /* \"#utility.yul\":402:408   */\n      dup5\n        /* \"#utility.yul\":358:429   */\n      tag_27\n      jump\t// in\n    tag_34:\n        /* \"#utility.yul\":214:436   */\n      swap3\n      swap2\n      pop\n      pop\n      jump\t// out\n        /* \"#utility.yul\":442:622   */\n    tag_22:\n        /* \"#utility.yul\":490:567   */\n      0x4e487b7100000000000000000000000000000000000000000000000000000000\n        /* \"#utility.yul\":487:488   */\n      0x00\n        /* \"#utility.yul\":480:568   */\n      mstore\n        /* \"#utility.yul\":587:591   */\n      0x32\n        /* \"#utility.yul\":584:585   */\n      0x04\n        /* \"#utility.yul\":577:592   */\n      mstore\n        /* \"#utility.yul\":611:615   */\n      0x24\n        /* \"#utility.yul\":608:609   */\n      0x00\n        /* \"#utility.yul\":601:616   */\n      revert\n        /* \"#utility.yul\":628:808   */\n    tag_28:\n        /* \"#utility.yul\":676:753   */\n      0x4e487b7100000000000000000000000000000000000000000000000000000000\n        /* \"#utility.yul\":673:674   */\n      0x00\n        /* \"#utility.yul\":666:754   */\n      mstore\n        /* \"#utility.yul\":773:777   */\n      0x11\n        /* \"#utility.yul\":770:771   */\n      0x04\n        /* \"#utility.yul\":763:778   */\n      mstore\n        /* \"#utility.yul\":797:801   */\n      0x24\n        /* \"#utility.yul\":794:795   */\n      0x00\n        /* \"#utility.yul\":787:802   */\n      revert\n        /* \"#utility.yul\":814:1005   */\n    tag_25:\n        /* \"#utility.yul\":854:857   */\n      0x00\n        /* \"#utility.yul\":873:893   */\n      tag_38\n        /* \"#utility.yul\":891:892   */\n      dup3\n        /* \"#utility.yul\":873:893   */\n      tag_26\n      jump\t// in\n    tag_38:\n        /* \"#utility.yul\":868:893   */\n      swap2\n      pop\n        /* \"#utility.yul\":907:927   */\n      tag_39\n        /* \"#utility.yul\":925:926   */\n      dup4\n        /* \"#utility.yul\":907:927   */\n      tag_26\n      jump\t// in\n    tag_39:\n        /* \"#utility.yul\":902:927   */\n      swap3\n      pop\n        /* \"#utility.yul\":950:951   */\n      dup3\n        /* \"#utility.yul\":947:948   */\n      dup3\n        /* \"#utility.yul\":943:952   */\n      add\n        /* \"#utility.yul\":936:952   */\n      swap1\n      pop\n        /* \"#utility.yul\":971:974   */\n      dup1\n        /* \"#utility.yul\":968:969   */\n      dup3\n        /* \"#utility.yul\":965:975   */\n      gt\n        /* \"#utility.yul\":962:998   */\n      iszero\n      tag_40\n      jumpi\n        /* \"#utility.yul\":978:996   */\n      tag_41\n      tag_28\n      jump\t// in\n    tag_41:\n        /* \"#utility.yul\":962:998   */\n    tag_40:\n        /* \"#utility.yul\":814:1005   */\n      swap3\n      swap2\n      pop\n      pop\n      jump\t// out\n\n    auxdata: 0xa2646970667358221220db610ee25683037b500c7f6571121e738e54054459ca584b4f6225168a09a4c464736f6c634300081a0033\n}\n",
				"bytecode": {
					"linkReferences": {},
					"object": "6080604052348015600e575f80fd5b506101e28061001c5f395ff3fe608060405234801561000f575f80fd5b5060043610610034575f3560e01c806310c66e17146100385780632985f6ac14610042575b5f80fd5b610040610060565b005b61004a6100a0565b6040516100579190610106565b60405180910390f35b5f5b600681101561009d575f81908060018154018082558091505060019003905f5260205f20015f90919091909150558080600101915050610062565b50565b5f805f5b5f805490508110156100e6575f81815481106100c3576100c261011f565b5b905f5260205f200154826100d79190610179565b915080806001019150506100a4565b508091505090565b5f819050919050565b610100816100ee565b82525050565b5f6020820190506101195f8301846100f7565b92915050565b7f4e487b71000000000000000000000000000000000000000000000000000000005f52603260045260245ffd5b7f4e487b71000000000000000000000000000000000000000000000000000000005f52601160045260245ffd5b5f610183826100ee565b915061018e836100ee565b92508282019050808211156101a6576101a561014c565b5b9291505056fea2646970667358221220db610ee25683037b500c7f6571121e738e54054459ca584b4f6225168a09a4c464736f6c634300081a0033",
					"opcodes": "PUSH1 0x80 PUSH1 0x40 MSTORE CALLVALUE DUP1 ISZERO PUSH1 0xE JUMPI PUSH0 DUP1 REVERT JUMPDEST POP PUSH2 0x1E2 DUP1 PUSH2 0x1C PUSH0 CODECOPY PUSH0 RETURN INVALID PUSH1 0x80 PUSH1 0x40 MSTORE CALLVALUE DUP1 ISZERO PUSH2 0xF JUMPI PUSH0 DUP1 REVERT JUMPDEST POP PUSH1 0x4 CALLDATASIZE LT PUSH2 0x34 JUMPI PUSH0 CALLDATALOAD PUSH1 0xE0 SHR DUP1 PUSH4 0x10C66E17 EQ PUSH2 0x38 JUMPI DUP1 PUSH4 0x2985F6AC EQ PUSH2 0x42 JUMPI JUMPDEST PUSH0 DUP1 REVERT JUMPDEST PUSH2 0x40 PUSH2 0x60 JUMP JUMPDEST STOP JUMPDEST PUSH2 0x4A PUSH2 0xA0 JUMP JUMPDEST PUSH1 0x40 MLOAD PUSH2 0x57 SWAP2 SWAP1 PUSH2 0x106 JUMP JUMPDEST PUSH1 0x40 MLOAD DUP1 SWAP2 SUB SWAP1 RETURN JUMPDEST PUSH0 JUMPDEST PUSH1 0x6 DUP2 LT ISZERO PUSH2 0x9D JUMPI PUSH0 DUP2 SWAP1 DUP1 PUSH1 0x1 DUP2 SLOAD ADD DUP1 DUP3 SSTORE DUP1 SWAP2 POP POP PUSH1 0x1 SWAP1 SUB SWAP1 PUSH0 MSTORE PUSH1 0x20 PUSH0 KECCAK256 ADD PUSH0 SWAP1 SWAP2 SWAP1 SWAP2 SWAP1 SWAP2 POP SSTORE DUP1 DUP1 PUSH1 0x1 ADD SWAP2 POP POP PUSH2 0x62 JUMP JUMPDEST POP JUMP JUMPDEST PUSH0 DUP1 PUSH0 JUMPDEST PUSH0 DUP1 SLOAD SWAP1 POP DUP2 LT ISZERO PUSH2 0xE6 JUMPI PUSH0 DUP2 DUP2 SLOAD DUP2 LT PUSH2 0xC3 JUMPI PUSH2 0xC2 PUSH2 0x11F JUMP JUMPDEST JUMPDEST SWAP1 PUSH0 MSTORE PUSH1 0x20 PUSH0 KECCAK256 ADD SLOAD DUP3 PUSH2 0xD7 SWAP2 SWAP1 PUSH2 0x179 JUMP JUMPDEST SWAP2 POP DUP1 DUP1 PUSH1 0x1 ADD SWAP2 POP POP PUSH2 0xA4 JUMP JUMPDEST POP DUP1 SWAP2 POP POP SWAP1 JUMP JUMPDEST PUSH0 DUP2 SWAP1 POP SWAP2 SWAP1 POP JUMP JUMPDEST PUSH2 0x100 DUP2 PUSH2 0xEE JUMP JUMPDEST DUP3 MSTORE POP POP JUMP JUMPDEST PUSH0 PUSH1 0x20 DUP3 ADD SWAP1 POP PUSH2 0x119 PUSH0 DUP4 ADD DUP5 PUSH2 0xF7 JUMP JUMPDEST SWAP3 SWAP2 POP POP JUMP JUMPDEST PUSH32 0x4E487B7100000000000000000000000000000000000000000000000000000000 PUSH0 MSTORE PUSH1 0x32 PUSH1 0x4 MSTORE PUSH1 0x24 PUSH0 REVERT JUMPDEST PUSH32 0x4E487B7100000000000000000000000000000000000000000000000000000000 PUSH0 MSTORE PUSH1 0x11 PUSH1 0x4 MSTORE PUSH1 0x24 PUSH0 REVERT JUMPDEST PUSH0 PUSH2 0x183 DUP3 PUSH2 0xEE JUMP JUMPDEST SWAP2 POP PUSH2 0x18E DUP4 PUSH2 0xEE JUMP JUMPDEST SWAP3 POP DUP3 DUP3 ADD SWAP1 POP DUP1 DUP3 GT ISZERO PUSH2 0x1A6 JUMPI PUSH2 0x1A5 PUSH2 0x14C JUMP JUMPDEST JUMPDEST SWAP3 SWAP2 POP POP JUMP INVALID LOG2 PUSH5 0x6970667358 0x22 SLT KECCAK256 0xDB PUSH2 0xEE2 JUMP DUP4 SUB PUSH28 0x500C7F6571121E738E54054459CA584B4F6225168A09A4C464736F6C PUSH4 0x4300081A STOP CALLER "
				},
				"gasEstimates": {
					"creation": {
						"codeDepositCost": "96400",
						"executionCost": "145",
						"totalCost": "96545"
					},
					"external": {
						"allNum()": "infinite",
						"setNumbers()": "infinite"
					}
				},
				"methodIdentifiers": {
					"allNum()": "2985f6ac",
					"setNumbers()": "10c66e17"
				}
			},
			"storageLayout": {
				"storage": [
					{
						"astId": 280,
						"contract": "solidity/solidity1~10.sol:Q7",
						"label": "numbers",
						"offset": 0,
						"slot": "0",
						"type": "t_array(t_uint256)dyn_storage"
					}
				],
				"types": {
					"t_array(t_uint256)dyn_storage": {
						"base": "t_uint256",
						"encoding": "dynamic_array",
						"label": "uint256[]",
						"numberOfBytes": "32"
					},
					"t_uint256": {
						"encoding": "inplace",
						"label": "uint256",
						"numberOfBytes": "32"
					}
				}
			},
			"userdoc": {
				"kind": "user",
				"methods": {},
				"version": 1
			}
		}
	}
}