{
	"solidity/solidity51~60.sol": {
		"Q60": {
			"abi": [
				{
					"inputs": [
						{
							"internalType": "uint256",
							"name": "roomNumber",
							"type": "uint256"
						},
						{
							"internalType": "uint256",
							"name": "date",
							"type": "uint256"
						},
						{
							"internalType": "string[]",
							"name": "guests",
							"type": "string[]"
						}
					],
					"name": "bookRoom",
					"outputs": [],
					"stateMutability": "nonpayable",
					"type": "function"
				},
				{
					"inputs": [
						{
							"internalType": "uint256",
							"name": "roomNumber",
							"type": "uint256"
						},
						{
							"internalType": "uint256",
							"name": "date",
							"type": "uint256"
						}
					],
					"name": "getGuests",
					"outputs": [
						{
							"internalType": "string[]",
							"name": "",
							"type": "string[]"
						}
					],
					"stateMutability": "view",
					"type": "function"
				}
			],
			"devdoc": {
				"kind": "dev",
				"methods": {},
				"version": 1
			},
			"evm": {
				"assembly": "    /* \"solidity/solidity51~60.sol\":5508:6585  contract Q60 {... */\n  mstore(0x40, 0x80)\n  callvalue\n  dup1\n  iszero\n  tag_1\n  jumpi\n  0x00\n  dup1\n  revert\ntag_1:\n  pop\n  dataSize(sub_0)\n  dup1\n  dataOffset(sub_0)\n  0x00\n  codecopy\n  0x00\n  return\nstop\n\nsub_0: assembly {\n        /* \"solidity/solidity51~60.sol\":5508:6585  contract Q60 {... */\n      mstore(0x40, 0x80)\n      callvalue\n      dup1\n      iszero\n      tag_1\n      jumpi\n      0x00\n      dup1\n      revert\n    tag_1:\n      pop\n      jumpi(tag_2, lt(calldatasize, 0x04))\n      shr(0xe0, calldataload(0x00))\n      dup1\n      0x6b0a6e6f\n      eq\n      tag_3\n      jumpi\n      dup1\n      0xec0a0930\n      eq\n      tag_4\n      jumpi\n    tag_2:\n      0x00\n      dup1\n      revert\n        /* \"solidity/solidity51~60.sol\":6199:6438  function bookRoom(uint roomNumber, uint date, string[] memory guests) public {... */\n    tag_3:\n      tag_5\n      0x04\n      dup1\n      calldatasize\n      sub\n      dup2\n      add\n      swap1\n      tag_6\n      swap2\n      swap1\n      tag_7\n      jump\t// in\n    tag_6:\n      tag_8\n      jump\t// in\n    tag_5:\n      stop\n        /* \"solidity/solidity51~60.sol\":6444:6583  function getGuests(uint roomNumber, uint date) public view returns (string[] memory) {... */\n    tag_4:\n      tag_9\n      0x04\n      dup1\n      calldatasize\n      sub\n      dup2\n      add\n      swap1\n      tag_10\n      swap2\n      swap1\n      tag_11\n      jump\t// in\n    tag_10:\n      tag_12\n      jump\t// in\n    tag_9:\n      mload(0x40)\n      tag_13\n      swap2\n      swap1\n      tag_14\n      jump\t// in\n    tag_13:\n      mload(0x40)\n      dup1\n      swap2\n      sub\n      swap1\n      return\n        /* \"solidity/solidity51~60.sol\":6199:6438  function bookRoom(uint roomNumber, uint date, string[] memory guests) public {... */\n    tag_8:\n        /* \"solidity/solidity51~60.sol\":6310:6311  0 */\n      0x00\n        /* \"solidity/solidity51~60.sol\":6294:6300  guests */\n      dup2\n        /* \"solidity/solidity51~60.sol\":6294:6307  guests.length */\n      mload\n        /* \"solidity/solidity51~60.sol\":6294:6311  guests.length > 0 */\n      gt\n        /* \"solidity/solidity51~60.sol\":6294:6342  guests.length > 0 && guests.length <= MAX_GUESTS */\n      dup1\n      iszero\n      tag_16\n      jumpi\n      pop\n        /* \"solidity/solidity51~60.sol\":6191:6192  3 */\n      0x03\n        /* \"solidity/solidity51~60.sol\":6315:6321  guests */\n      dup2\n        /* \"solidity/solidity51~60.sol\":6315:6328  guests.length */\n      mload\n        /* \"solidity/solidity51~60.sol\":6315:6342  guests.length <= MAX_GUESTS */\n      gt\n      iszero\n        /* \"solidity/solidity51~60.sol\":6294:6342  guests.length > 0 && guests.length <= MAX_GUESTS */\n    tag_16:\n        /* \"solidity/solidity51~60.sol\":6286:6373  require(guests.length > 0 && guests.length <= MAX_GUESTS, \"Guests must be less than 4\") */\n      tag_17\n      jumpi\n      mload(0x40)\n      0x08c379a000000000000000000000000000000000000000000000000000000000\n      dup2\n      mstore\n      0x04\n      add\n      tag_18\n      swap1\n      tag_19\n      jump\t// in\n    tag_18:\n      mload(0x40)\n      dup1\n      swap2\n      sub\n      swap1\n      revert\n    tag_17:\n        /* \"solidity/solidity51~60.sol\":6425:6431  guests */\n      dup1\n        /* \"solidity/solidity51~60.sol\":6392:6404  roomBookings */\n      0x00\n        /* \"solidity/solidity51~60.sol\":6392:6416  roomBookings[roomNumber] */\n      dup1\n        /* \"solidity/solidity51~60.sol\":6405:6415  roomNumber */\n      dup6\n        /* \"solidity/solidity51~60.sol\":6392:6416  roomBookings[roomNumber] */\n      dup2\n      mstore\n      0x20\n      add\n      swap1\n      dup2\n      mstore\n      0x20\n      add\n      0x00\n      keccak256\n        /* \"solidity/solidity51~60.sol\":6392:6422  roomBookings[roomNumber][date] */\n      0x00\n        /* \"solidity/solidity51~60.sol\":6417:6421  date */\n      dup5\n        /* \"solidity/solidity51~60.sol\":6392:6422  roomBookings[roomNumber][date] */\n      dup2\n      mstore\n      0x20\n      add\n      swap1\n      dup2\n      mstore\n      0x20\n      add\n      0x00\n      keccak256\n        /* \"solidity/solidity51~60.sol\":6392:6431  roomBookings[roomNumber][date] = guests */\n      swap1\n      dup1\n      mload\n      swap1\n      0x20\n      add\n      swap1\n      tag_20\n      swap3\n      swap2\n      swap1\n      tag_21\n      jump\t// in\n    tag_20:\n      pop\n        /* \"solidity/solidity51~60.sol\":6199:6438  function bookRoom(uint roomNumber, uint date, string[] memory guests) public {... */\n      pop\n      pop\n      pop\n      jump\t// out\n        /* \"solidity/solidity51~60.sol\":6444:6583  function getGuests(uint roomNumber, uint date) public view returns (string[] memory) {... */\n    tag_12:\n        /* \"solidity/solidity51~60.sol\":6512:6527  string[] memory */\n      0x60\n        /* \"solidity/solidity51~60.sol\":6546:6558  roomBookings */\n      0x00\n        /* \"solidity/solidity51~60.sol\":6546:6570  roomBookings[roomNumber] */\n      dup1\n        /* \"solidity/solidity51~60.sol\":6559:6569  roomNumber */\n      dup5\n        /* \"solidity/solidity51~60.sol\":6546:6570  roomBookings[roomNumber] */\n      dup2\n      mstore\n      0x20\n      add\n      swap1\n      dup2\n      mstore\n      0x20\n      add\n      0x00\n      keccak256\n        /* \"solidity/solidity51~60.sol\":6546:6576  roomBookings[roomNumber][date] */\n      0x00\n        /* \"solidity/solidity51~60.sol\":6571:6575  date */\n      dup4\n        /* \"solidity/solidity51~60.sol\":6546:6576  roomBookings[roomNumber][date] */\n      dup2\n      mstore\n      0x20\n      add\n      swap1\n      dup2\n      mstore\n      0x20\n      add\n      0x00\n      keccak256\n        /* \"solidity/solidity51~60.sol\":6539:6576  return roomBookings[roomNumber][date] */\n      dup1\n      sload\n      dup1\n      0x20\n      mul\n      0x20\n      add\n      mload(0x40)\n      swap1\n      dup2\n      add\n      0x40\n      mstore\n      dup1\n      swap3\n      swap2\n      swap1\n      dup2\n      dup2\n      mstore\n      0x20\n      add\n      0x00\n      swap1\n    tag_23:\n      dup3\n      dup3\n      lt\n      iszero\n      tag_24\n      jumpi\n      dup4\n      dup3\n      swap1\n      0x00\n      mstore\n      keccak256(0x00, 0x20)\n      add\n      dup1\n      sload\n      tag_26\n      swap1\n      tag_27\n      jump\t// in\n    tag_26:\n      dup1\n      0x1f\n      add\n      0x20\n      dup1\n      swap2\n      div\n      mul\n      0x20\n      add\n      mload(0x40)\n      swap1\n      dup2\n      add\n      0x40\n      mstore\n      dup1\n      swap3\n      swap2\n      swap1\n      dup2\n      dup2\n      mstore\n      0x20\n      add\n      dup3\n      dup1\n      sload\n      tag_28\n      swap1\n      tag_27\n      jump\t// in\n    tag_28:\n      dup1\n      iszero\n      tag_29\n      jumpi\n      dup1\n      0x1f\n      lt\n      tag_30\n      jumpi\n      0x0100\n      dup1\n      dup4\n      sload\n      div\n      mul\n      dup4\n      mstore\n      swap2\n      0x20\n      add\n      swap2\n      jump(tag_29)\n    tag_30:\n      dup3\n      add\n      swap2\n      swap1\n      0x00\n      mstore\n      keccak256(0x00, 0x20)\n      swap1\n    tag_31:\n      dup2\n      sload\n      dup2\n      mstore\n      swap1\n      0x01\n      add\n      swap1\n      0x20\n      add\n      dup1\n      dup4\n      gt\n      tag_31\n      jumpi\n      dup3\n      swap1\n      sub\n      0x1f\n      and\n      dup3\n      add\n      swap2\n    tag_29:\n      pop\n      pop\n      pop\n      pop\n      pop\n      dup2\n      mstore\n      0x20\n      add\n      swap1\n      0x01\n      add\n      swap1\n      jump(tag_23)\n    tag_24:\n      pop\n      pop\n      pop\n      pop\n      swap1\n      pop\n        /* \"solidity/solidity51~60.sol\":6444:6583  function getGuests(uint roomNumber, uint date) public view returns (string[] memory) {... */\n      swap3\n      swap2\n      pop\n      pop\n      jump\t// out\n    tag_21:\n      dup3\n      dup1\n      sload\n      dup3\n      dup3\n      sstore\n      swap1\n      0x00\n      mstore\n      keccak256(0x00, 0x20)\n      swap1\n      dup2\n      add\n      swap3\n      dup3\n      iszero\n      tag_32\n      jumpi\n      swap2\n      0x20\n      mul\n      dup3\n      add\n    tag_33:\n      dup3\n      dup2\n      gt\n      iszero\n      tag_34\n      jumpi\n      dup3\n      mload\n      dup3\n      swap1\n      dup2\n      tag_35\n      swap2\n      swap1\n      tag_36\n      jump\t// in\n    tag_35:\n      pop\n      swap2\n      0x20\n      add\n      swap2\n      swap1\n      0x01\n      add\n      swap1\n      jump(tag_33)\n    tag_34:\n    tag_32:\n      pop\n      swap1\n      pop\n      tag_37\n      swap2\n      swap1\n      tag_38\n      jump\t// in\n    tag_37:\n      pop\n      swap1\n      jump\t// out\n    tag_38:\n    tag_39:\n      dup1\n      dup3\n      gt\n      iszero\n      tag_40\n      jumpi\n      0x00\n      dup2\n      dup2\n      tag_41\n      swap2\n      swap1\n      tag_42\n      jump\t// in\n    tag_41:\n      pop\n      0x01\n      add\n      jump(tag_39)\n    tag_40:\n      pop\n      swap1\n      jump\t// out\n    tag_42:\n      pop\n      dup1\n      sload\n      tag_43\n      swap1\n      tag_27\n      jump\t// in\n    tag_43:\n      0x00\n      dup3\n      sstore\n      dup1\n      0x1f\n      lt\n      tag_45\n      jumpi\n      pop\n      jump(tag_44)\n    tag_45:\n      0x1f\n      add\n      0x20\n      swap1\n      div\n      swap1\n      0x00\n      mstore\n      keccak256(0x00, 0x20)\n      swap1\n      dup2\n      add\n      swap1\n      tag_46\n      swap2\n      swap1\n      tag_47\n      jump\t// in\n    tag_46:\n    tag_44:\n      pop\n      jump\t// out\n    tag_47:\n    tag_48:\n      dup1\n      dup3\n      gt\n      iszero\n      tag_49\n      jumpi\n      0x00\n      dup2\n      0x00\n      swap1\n      sstore\n      pop\n      0x01\n      add\n      jump(tag_48)\n    tag_49:\n      pop\n      swap1\n      jump\t// out\n        /* \"#utility.yul\":7:82   */\n    tag_50:\n        /* \"#utility.yul\":40:46   */\n      0x00\n        /* \"#utility.yul\":73:75   */\n      0x40\n        /* \"#utility.yul\":67:76   */\n      mload\n        /* \"#utility.yul\":57:76   */\n      swap1\n      pop\n        /* \"#utility.yul\":7:82   */\n      swap1\n      jump\t// out\n        /* \"#utility.yul\":88:205   */\n    tag_51:\n        /* \"#utility.yul\":197:198   */\n      0x00\n        /* \"#utility.yul\":194:195   */\n      dup1\n        /* \"#utility.yul\":187:199   */\n      revert\n        /* \"#utility.yul\":211:328   */\n    tag_52:\n        /* \"#utility.yul\":320:321   */\n      0x00\n        /* \"#utility.yul\":317:318   */\n      dup1\n        /* \"#utility.yul\":310:322   */\n      revert\n        /* \"#utility.yul\":334:411   */\n    tag_53:\n        /* \"#utility.yul\":371:378   */\n      0x00\n        /* \"#utility.yul\":400:405   */\n      dup2\n        /* \"#utility.yul\":389:405   */\n      swap1\n      pop\n        /* \"#utility.yul\":334:411   */\n      swap2\n      swap1\n      pop\n      jump\t// out\n        /* \"#utility.yul\":417:539   */\n    tag_54:\n        /* \"#utility.yul\":490:514   */\n      tag_105\n        /* \"#utility.yul\":508:513   */\n      dup2\n        /* \"#utility.yul\":490:514   */\n      tag_53\n      jump\t// in\n    tag_105:\n        /* \"#utility.yul\":483:488   */\n      dup2\n        /* \"#utility.yul\":480:515   */\n      eq\n        /* \"#utility.yul\":470:533   */\n      tag_106\n      jumpi\n        /* \"#utility.yul\":529:530   */\n      0x00\n        /* \"#utility.yul\":526:527   */\n      dup1\n        /* \"#utility.yul\":519:531   */\n      revert\n        /* \"#utility.yul\":470:533   */\n    tag_106:\n        /* \"#utility.yul\":417:539   */\n      pop\n      jump\t// out\n        /* \"#utility.yul\":545:684   */\n    tag_55:\n        /* \"#utility.yul\":591:596   */\n      0x00\n        /* \"#utility.yul\":629:635   */\n      dup2\n        /* \"#utility.yul\":616:636   */\n      calldataload\n        /* \"#utility.yul\":607:636   */\n      swap1\n      pop\n        /* \"#utility.yul\":645:678   */\n      tag_108\n        /* \"#utility.yul\":672:677   */\n      dup2\n        /* \"#utility.yul\":645:678   */\n      tag_54\n      jump\t// in\n    tag_108:\n        /* \"#utility.yul\":545:684   */\n      swap3\n      swap2\n      pop\n      pop\n      jump\t// out\n        /* \"#utility.yul\":690:807   */\n    tag_56:\n        /* \"#utility.yul\":799:800   */\n      0x00\n        /* \"#utility.yul\":796:797   */\n      dup1\n        /* \"#utility.yul\":789:801   */\n      revert\n        /* \"#utility.yul\":813:915   */\n    tag_57:\n        /* \"#utility.yul\":854:860   */\n      0x00\n        /* \"#utility.yul\":905:907   */\n      0x1f\n        /* \"#utility.yul\":901:908   */\n      not\n        /* \"#utility.yul\":896:898   */\n      0x1f\n        /* \"#utility.yul\":889:894   */\n      dup4\n        /* \"#utility.yul\":885:899   */\n      add\n        /* \"#utility.yul\":881:909   */\n      and\n        /* \"#utility.yul\":871:909   */\n      swap1\n      pop\n        /* \"#utility.yul\":813:915   */\n      swap2\n      swap1\n      pop\n      jump\t// out\n        /* \"#utility.yul\":921:1101   */\n    tag_58:\n        /* \"#utility.yul\":969:1046   */\n      0x4e487b7100000000000000000000000000000000000000000000000000000000\n        /* \"#utility.yul\":966:967   */\n      0x00\n        /* \"#utility.yul\":959:1047   */\n      mstore\n        /* \"#utility.yul\":1066:1070   */\n      0x41\n        /* \"#utility.yul\":1063:1064   */\n      0x04\n        /* \"#utility.yul\":1056:1071   */\n      mstore\n        /* \"#utility.yul\":1090:1094   */\n      0x24\n        /* \"#utility.yul\":1087:1088   */\n      0x00\n        /* \"#utility.yul\":1080:1095   */\n      revert\n        /* \"#utility.yul\":1107:1388   */\n    tag_59:\n        /* \"#utility.yul\":1190:1217   */\n      tag_113\n        /* \"#utility.yul\":1212:1216   */\n      dup3\n        /* \"#utility.yul\":1190:1217   */\n      tag_57\n      jump\t// in\n    tag_113:\n        /* \"#utility.yul\":1182:1188   */\n      dup2\n        /* \"#utility.yul\":1178:1218   */\n      add\n        /* \"#utility.yul\":1320:1326   */\n      dup2\n        /* \"#utility.yul\":1308:1318   */\n      dup2\n        /* \"#utility.yul\":1305:1327   */\n      lt\n        /* \"#utility.yul\":1284:1302   */\n      0xffffffffffffffff\n        /* \"#utility.yul\":1272:1282   */\n      dup3\n        /* \"#utility.yul\":1269:1303   */\n      gt\n        /* \"#utility.yul\":1266:1328   */\n      or\n        /* \"#utility.yul\":1263:1351   */\n      iszero\n      tag_114\n      jumpi\n        /* \"#utility.yul\":1331:1349   */\n      tag_115\n      tag_58\n      jump\t// in\n    tag_115:\n        /* \"#utility.yul\":1263:1351   */\n    tag_114:\n        /* \"#utility.yul\":1371:1381   */\n      dup1\n        /* \"#utility.yul\":1367:1369   */\n      0x40\n        /* \"#utility.yul\":1360:1382   */\n      mstore\n        /* \"#utility.yul\":1150:1388   */\n      pop\n        /* \"#utility.yul\":1107:1388   */\n      pop\n      pop\n      jump\t// out\n        /* \"#utility.yul\":1394:1523   */\n    tag_60:\n        /* \"#utility.yul\":1428:1434   */\n      0x00\n        /* \"#utility.yul\":1455:1475   */\n      tag_117\n      tag_50\n      jump\t// in\n    tag_117:\n        /* \"#utility.yul\":1445:1475   */\n      swap1\n      pop\n        /* \"#utility.yul\":1484:1517   */\n      tag_118\n        /* \"#utility.yul\":1512:1516   */\n      dup3\n        /* \"#utility.yul\":1504:1510   */\n      dup3\n        /* \"#utility.yul\":1484:1517   */\n      tag_59\n      jump\t// in\n    tag_118:\n        /* \"#utility.yul\":1394:1523   */\n      swap2\n      swap1\n      pop\n      jump\t// out\n        /* \"#utility.yul\":1529:1850   */\n    tag_61:\n        /* \"#utility.yul\":1616:1620   */\n      0x00\n        /* \"#utility.yul\":1706:1724   */\n      0xffffffffffffffff\n        /* \"#utility.yul\":1698:1704   */\n      dup3\n        /* \"#utility.yul\":1695:1725   */\n      gt\n        /* \"#utility.yul\":1692:1748   */\n      iszero\n      tag_120\n      jumpi\n        /* \"#utility.yul\":1728:1746   */\n      tag_121\n      tag_58\n      jump\t// in\n    tag_121:\n        /* \"#utility.yul\":1692:1748   */\n    tag_120:\n        /* \"#utility.yul\":1778:1782   */\n      0x20\n        /* \"#utility.yul\":1770:1776   */\n      dup3\n        /* \"#utility.yul\":1766:1783   */\n      mul\n        /* \"#utility.yul\":1758:1783   */\n      swap1\n      pop\n        /* \"#utility.yul\":1838:1842   */\n      0x20\n        /* \"#utility.yul\":1832:1836   */\n      dup2\n        /* \"#utility.yul\":1828:1843   */\n      add\n        /* \"#utility.yul\":1820:1843   */\n      swap1\n      pop\n        /* \"#utility.yul\":1529:1850   */\n      swap2\n      swap1\n      pop\n      jump\t// out\n        /* \"#utility.yul\":1856:1973   */\n    tag_62:\n        /* \"#utility.yul\":1965:1966   */\n      0x00\n        /* \"#utility.yul\":1962:1963   */\n      dup1\n        /* \"#utility.yul\":1955:1967   */\n      revert\n        /* \"#utility.yul\":1979:2096   */\n    tag_63:\n        /* \"#utility.yul\":2088:2089   */\n      0x00\n        /* \"#utility.yul\":2085:2086   */\n      dup1\n        /* \"#utility.yul\":2078:2090   */\n      revert\n        /* \"#utility.yul\":2102:2410   */\n    tag_64:\n        /* \"#utility.yul\":2164:2168   */\n      0x00\n        /* \"#utility.yul\":2254:2272   */\n      0xffffffffffffffff\n        /* \"#utility.yul\":2246:2252   */\n      dup3\n        /* \"#utility.yul\":2243:2273   */\n      gt\n        /* \"#utility.yul\":2240:2296   */\n      iszero\n      tag_125\n      jumpi\n        /* \"#utility.yul\":2276:2294   */\n      tag_126\n      tag_58\n      jump\t// in\n    tag_126:\n        /* \"#utility.yul\":2240:2296   */\n    tag_125:\n        /* \"#utility.yul\":2314:2343   */\n      tag_127\n        /* \"#utility.yul\":2336:2342   */\n      dup3\n        /* \"#utility.yul\":2314:2343   */\n      tag_57\n      jump\t// in\n    tag_127:\n        /* \"#utility.yul\":2306:2343   */\n      swap1\n      pop\n        /* \"#utility.yul\":2398:2402   */\n      0x20\n        /* \"#utility.yul\":2392:2396   */\n      dup2\n        /* \"#utility.yul\":2388:2403   */\n      add\n        /* \"#utility.yul\":2380:2403   */\n      swap1\n      pop\n        /* \"#utility.yul\":2102:2410   */\n      swap2\n      swap1\n      pop\n      jump\t// out\n        /* \"#utility.yul\":2416:2564   */\n    tag_65:\n        /* \"#utility.yul\":2514:2520   */\n      dup3\n        /* \"#utility.yul\":2509:2512   */\n      dup2\n        /* \"#utility.yul\":2504:2507   */\n      dup4\n        /* \"#utility.yul\":2491:2521   */\n      calldatacopy\n        /* \"#utility.yul\":2555:2556   */\n      0x00\n        /* \"#utility.yul\":2546:2552   */\n      dup4\n        /* \"#utility.yul\":2541:2544   */\n      dup4\n        /* \"#utility.yul\":2537:2553   */\n      add\n        /* \"#utility.yul\":2530:2557   */\n      mstore\n        /* \"#utility.yul\":2416:2564   */\n      pop\n      pop\n      pop\n      jump\t// out\n        /* \"#utility.yul\":2570:2995   */\n    tag_66:\n        /* \"#utility.yul\":2648:2653   */\n      0x00\n        /* \"#utility.yul\":2673:2739   */\n      tag_130\n        /* \"#utility.yul\":2689:2738   */\n      tag_131\n        /* \"#utility.yul\":2731:2737   */\n      dup5\n        /* \"#utility.yul\":2689:2738   */\n      tag_64\n      jump\t// in\n    tag_131:\n        /* \"#utility.yul\":2673:2739   */\n      tag_60\n      jump\t// in\n    tag_130:\n        /* \"#utility.yul\":2664:2739   */\n      swap1\n      pop\n        /* \"#utility.yul\":2762:2768   */\n      dup3\n        /* \"#utility.yul\":2755:2760   */\n      dup2\n        /* \"#utility.yul\":2748:2769   */\n      mstore\n        /* \"#utility.yul\":2800:2804   */\n      0x20\n        /* \"#utility.yul\":2793:2798   */\n      dup2\n        /* \"#utility.yul\":2789:2805   */\n      add\n        /* \"#utility.yul\":2838:2841   */\n      dup5\n        /* \"#utility.yul\":2829:2835   */\n      dup5\n        /* \"#utility.yul\":2824:2827   */\n      dup5\n        /* \"#utility.yul\":2820:2836   */\n      add\n        /* \"#utility.yul\":2817:2842   */\n      gt\n        /* \"#utility.yul\":2814:2926   */\n      iszero\n      tag_132\n      jumpi\n        /* \"#utility.yul\":2845:2924   */\n      tag_133\n      tag_63\n      jump\t// in\n    tag_133:\n        /* \"#utility.yul\":2814:2926   */\n    tag_132:\n        /* \"#utility.yul\":2935:2989   */\n      tag_134\n        /* \"#utility.yul\":2982:2988   */\n      dup5\n        /* \"#utility.yul\":2977:2980   */\n      dup3\n        /* \"#utility.yul\":2972:2975   */\n      dup6\n        /* \"#utility.yul\":2935:2989   */\n      tag_65\n      jump\t// in\n    tag_134:\n        /* \"#utility.yul\":2654:2995   */\n      pop\n        /* \"#utility.yul\":2570:2995   */\n      swap4\n      swap3\n      pop\n      pop\n      pop\n      jump\t// out\n        /* \"#utility.yul\":3015:3355   */\n    tag_67:\n        /* \"#utility.yul\":3071:3076   */\n      0x00\n        /* \"#utility.yul\":3120:3123   */\n      dup3\n        /* \"#utility.yul\":3113:3117   */\n      0x1f\n        /* \"#utility.yul\":3105:3111   */\n      dup4\n        /* \"#utility.yul\":3101:3118   */\n      add\n        /* \"#utility.yul\":3097:3124   */\n      slt\n        /* \"#utility.yul\":3087:3209   */\n      tag_136\n      jumpi\n        /* \"#utility.yul\":3128:3207   */\n      tag_137\n      tag_56\n      jump\t// in\n    tag_137:\n        /* \"#utility.yul\":3087:3209   */\n    tag_136:\n        /* \"#utility.yul\":3245:3251   */\n      dup2\n        /* \"#utility.yul\":3232:3252   */\n      calldataload\n        /* \"#utility.yul\":3270:3349   */\n      tag_138\n        /* \"#utility.yul\":3345:3348   */\n      dup5\n        /* \"#utility.yul\":3337:3343   */\n      dup3\n        /* \"#utility.yul\":3330:3334   */\n      0x20\n        /* \"#utility.yul\":3322:3328   */\n      dup7\n        /* \"#utility.yul\":3318:3335   */\n      add\n        /* \"#utility.yul\":3270:3349   */\n      tag_66\n      jump\t// in\n    tag_138:\n        /* \"#utility.yul\":3261:3349   */\n      swap2\n      pop\n        /* \"#utility.yul\":3077:3355   */\n      pop\n        /* \"#utility.yul\":3015:3355   */\n      swap3\n      swap2\n      pop\n      pop\n      jump\t// out\n        /* \"#utility.yul\":3377:4322   */\n    tag_68:\n        /* \"#utility.yul\":3483:3488   */\n      0x00\n        /* \"#utility.yul\":3508:3599   */\n      tag_140\n        /* \"#utility.yul\":3524:3598   */\n      tag_141\n        /* \"#utility.yul\":3591:3597   */\n      dup5\n        /* \"#utility.yul\":3524:3598   */\n      tag_61\n      jump\t// in\n    tag_141:\n        /* \"#utility.yul\":3508:3599   */\n      tag_60\n      jump\t// in\n    tag_140:\n        /* \"#utility.yul\":3499:3599   */\n      swap1\n      pop\n        /* \"#utility.yul\":3619:3624   */\n      dup1\n        /* \"#utility.yul\":3648:3654   */\n      dup4\n        /* \"#utility.yul\":3641:3646   */\n      dup3\n        /* \"#utility.yul\":3634:3655   */\n      mstore\n        /* \"#utility.yul\":3682:3686   */\n      0x20\n        /* \"#utility.yul\":3675:3680   */\n      dup3\n        /* \"#utility.yul\":3671:3687   */\n      add\n        /* \"#utility.yul\":3664:3687   */\n      swap1\n      pop\n        /* \"#utility.yul\":3735:3739   */\n      0x20\n        /* \"#utility.yul\":3727:3733   */\n      dup5\n        /* \"#utility.yul\":3723:3740   */\n      mul\n        /* \"#utility.yul\":3715:3721   */\n      dup4\n        /* \"#utility.yul\":3711:3741   */\n      add\n        /* \"#utility.yul\":3764:3767   */\n      dup6\n        /* \"#utility.yul\":3756:3762   */\n      dup2\n        /* \"#utility.yul\":3753:3768   */\n      gt\n        /* \"#utility.yul\":3750:3872   */\n      iszero\n      tag_142\n      jumpi\n        /* \"#utility.yul\":3783:3862   */\n      tag_143\n      tag_62\n      jump\t// in\n    tag_143:\n        /* \"#utility.yul\":3750:3872   */\n    tag_142:\n        /* \"#utility.yul\":3898:3904   */\n      dup4\n        /* \"#utility.yul\":3881:4316   */\n    tag_144:\n        /* \"#utility.yul\":3915:3921   */\n      dup2\n        /* \"#utility.yul\":3910:3913   */\n      dup2\n        /* \"#utility.yul\":3907:3922   */\n      lt\n        /* \"#utility.yul\":3881:4316   */\n      iszero\n      tag_146\n      jumpi\n        /* \"#utility.yul\":4004:4007   */\n      dup1\n        /* \"#utility.yul\":3991:4008   */\n      calldataload\n        /* \"#utility.yul\":4040:4058   */\n      0xffffffffffffffff\n        /* \"#utility.yul\":4027:4038   */\n      dup2\n        /* \"#utility.yul\":4024:4059   */\n      gt\n        /* \"#utility.yul\":4021:4143   */\n      iszero\n      tag_147\n      jumpi\n        /* \"#utility.yul\":4062:4141   */\n      tag_148\n      tag_56\n      jump\t// in\n    tag_148:\n        /* \"#utility.yul\":4021:4143   */\n    tag_147:\n        /* \"#utility.yul\":4186:4197   */\n      dup1\n        /* \"#utility.yul\":4178:4184   */\n      dup7\n        /* \"#utility.yul\":4174:4198   */\n      add\n        /* \"#utility.yul\":4224:4271   */\n      tag_149\n        /* \"#utility.yul\":4267:4270   */\n      dup10\n        /* \"#utility.yul\":4255:4265   */\n      dup3\n        /* \"#utility.yul\":4224:4271   */\n      tag_67\n      jump\t// in\n    tag_149:\n        /* \"#utility.yul\":4219:4222   */\n      dup6\n        /* \"#utility.yul\":4212:4272   */\n      mstore\n        /* \"#utility.yul\":4301:4305   */\n      0x20\n        /* \"#utility.yul\":4296:4299   */\n      dup6\n        /* \"#utility.yul\":4292:4306   */\n      add\n        /* \"#utility.yul\":4285:4306   */\n      swap5\n      pop\n        /* \"#utility.yul\":3957:4316   */\n      pop\n      pop\n        /* \"#utility.yul\":3941:3945   */\n      0x20\n        /* \"#utility.yul\":3936:3939   */\n      dup2\n        /* \"#utility.yul\":3932:3946   */\n      add\n        /* \"#utility.yul\":3925:3946   */\n      swap1\n      pop\n        /* \"#utility.yul\":3881:4316   */\n      jump(tag_144)\n    tag_146:\n        /* \"#utility.yul\":3885:3906   */\n      pop\n        /* \"#utility.yul\":3489:4322   */\n      pop\n      pop\n        /* \"#utility.yul\":3377:4322   */\n      swap4\n      swap3\n      pop\n      pop\n      pop\n      jump\t// out\n        /* \"#utility.yul\":4344:4734   */\n    tag_69:\n        /* \"#utility.yul\":4425:4430   */\n      0x00\n        /* \"#utility.yul\":4474:4477   */\n      dup3\n        /* \"#utility.yul\":4467:4471   */\n      0x1f\n        /* \"#utility.yul\":4459:4465   */\n      dup4\n        /* \"#utility.yul\":4455:4472   */\n      add\n        /* \"#utility.yul\":4451:4478   */\n      slt\n        /* \"#utility.yul\":4441:4563   */\n      tag_151\n      jumpi\n        /* \"#utility.yul\":4482:4561   */\n      tag_152\n      tag_56\n      jump\t// in\n    tag_152:\n        /* \"#utility.yul\":4441:4563   */\n    tag_151:\n        /* \"#utility.yul\":4599:4605   */\n      dup2\n        /* \"#utility.yul\":4586:4606   */\n      calldataload\n        /* \"#utility.yul\":4624:4728   */\n      tag_153\n        /* \"#utility.yul\":4724:4727   */\n      dup5\n        /* \"#utility.yul\":4716:4722   */\n      dup3\n        /* \"#utility.yul\":4709:4713   */\n      0x20\n        /* \"#utility.yul\":4701:4707   */\n      dup7\n        /* \"#utility.yul\":4697:4714   */\n      add\n        /* \"#utility.yul\":4624:4728   */\n      tag_68\n      jump\t// in\n    tag_153:\n        /* \"#utility.yul\":4615:4728   */\n      swap2\n      pop\n        /* \"#utility.yul\":4431:4734   */\n      pop\n        /* \"#utility.yul\":4344:4734   */\n      swap3\n      swap2\n      pop\n      pop\n      jump\t// out\n        /* \"#utility.yul\":4740:5589   */\n    tag_7:\n        /* \"#utility.yul\":4852:4858   */\n      0x00\n        /* \"#utility.yul\":4860:4866   */\n      dup1\n        /* \"#utility.yul\":4868:4874   */\n      0x00\n        /* \"#utility.yul\":4917:4919   */\n      0x60\n        /* \"#utility.yul\":4905:4914   */\n      dup5\n        /* \"#utility.yul\":4896:4903   */\n      dup7\n        /* \"#utility.yul\":4892:4915   */\n      sub\n        /* \"#utility.yul\":4888:4920   */\n      slt\n        /* \"#utility.yul\":4885:5004   */\n      iszero\n      tag_155\n      jumpi\n        /* \"#utility.yul\":4923:5002   */\n      tag_156\n      tag_51\n      jump\t// in\n    tag_156:\n        /* \"#utility.yul\":4885:5004   */\n    tag_155:\n        /* \"#utility.yul\":5043:5044   */\n      0x00\n        /* \"#utility.yul\":5068:5121   */\n      tag_157\n        /* \"#utility.yul\":5113:5120   */\n      dup7\n        /* \"#utility.yul\":5104:5110   */\n      dup3\n        /* \"#utility.yul\":5093:5102   */\n      dup8\n        /* \"#utility.yul\":5089:5111   */\n      add\n        /* \"#utility.yul\":5068:5121   */\n      tag_55\n      jump\t// in\n    tag_157:\n        /* \"#utility.yul\":5058:5121   */\n      swap4\n      pop\n        /* \"#utility.yul\":5014:5131   */\n      pop\n        /* \"#utility.yul\":5170:5172   */\n      0x20\n        /* \"#utility.yul\":5196:5249   */\n      tag_158\n        /* \"#utility.yul\":5241:5248   */\n      dup7\n        /* \"#utility.yul\":5232:5238   */\n      dup3\n        /* \"#utility.yul\":5221:5230   */\n      dup8\n        /* \"#utility.yul\":5217:5239   */\n      add\n        /* \"#utility.yul\":5196:5249   */\n      tag_55\n      jump\t// in\n    tag_158:\n        /* \"#utility.yul\":5186:5249   */\n      swap3\n      pop\n        /* \"#utility.yul\":5141:5259   */\n      pop\n        /* \"#utility.yul\":5326:5328   */\n      0x40\n        /* \"#utility.yul\":5315:5324   */\n      dup5\n        /* \"#utility.yul\":5311:5329   */\n      add\n        /* \"#utility.yul\":5298:5330   */\n      calldataload\n        /* \"#utility.yul\":5357:5375   */\n      0xffffffffffffffff\n        /* \"#utility.yul\":5349:5355   */\n      dup2\n        /* \"#utility.yul\":5346:5376   */\n      gt\n        /* \"#utility.yul\":5343:5460   */\n      iszero\n      tag_159\n      jumpi\n        /* \"#utility.yul\":5379:5458   */\n      tag_160\n      tag_52\n      jump\t// in\n    tag_160:\n        /* \"#utility.yul\":5343:5460   */\n    tag_159:\n        /* \"#utility.yul\":5484:5572   */\n      tag_161\n        /* \"#utility.yul\":5564:5571   */\n      dup7\n        /* \"#utility.yul\":5555:5561   */\n      dup3\n        /* \"#utility.yul\":5544:5553   */\n      dup8\n        /* \"#utility.yul\":5540:5562   */\n      add\n        /* \"#utility.yul\":5484:5572   */\n      tag_69\n      jump\t// in\n    tag_161:\n        /* \"#utility.yul\":5474:5572   */\n      swap2\n      pop\n        /* \"#utility.yul\":5269:5582   */\n      pop\n        /* \"#utility.yul\":4740:5589   */\n      swap3\n      pop\n      swap3\n      pop\n      swap3\n      jump\t// out\n        /* \"#utility.yul\":5595:6069   */\n    tag_11:\n        /* \"#utility.yul\":5663:5669   */\n      0x00\n        /* \"#utility.yul\":5671:5677   */\n      dup1\n        /* \"#utility.yul\":5720:5722   */\n      0x40\n        /* \"#utility.yul\":5708:5717   */\n      dup4\n        /* \"#utility.yul\":5699:5706   */\n      dup6\n        /* \"#utility.yul\":5695:5718   */\n      sub\n        /* \"#utility.yul\":5691:5723   */\n      slt\n        /* \"#utility.yul\":5688:5807   */\n      iszero\n      tag_163\n      jumpi\n        /* \"#utility.yul\":5726:5805   */\n      tag_164\n      tag_51\n      jump\t// in\n    tag_164:\n        /* \"#utility.yul\":5688:5807   */\n    tag_163:\n        /* \"#utility.yul\":5846:5847   */\n      0x00\n        /* \"#utility.yul\":5871:5924   */\n      tag_165\n        /* \"#utility.yul\":5916:5923   */\n      dup6\n        /* \"#utility.yul\":5907:5913   */\n      dup3\n        /* \"#utility.yul\":5896:5905   */\n      dup7\n        /* \"#utility.yul\":5892:5914   */\n      add\n        /* \"#utility.yul\":5871:5924   */\n      tag_55\n      jump\t// in\n    tag_165:\n        /* \"#utility.yul\":5861:5924   */\n      swap3\n      pop\n        /* \"#utility.yul\":5817:5934   */\n      pop\n        /* \"#utility.yul\":5973:5975   */\n      0x20\n        /* \"#utility.yul\":5999:6052   */\n      tag_166\n        /* \"#utility.yul\":6044:6051   */\n      dup6\n        /* \"#utility.yul\":6035:6041   */\n      dup3\n        /* \"#utility.yul\":6024:6033   */\n      dup7\n        /* \"#utility.yul\":6020:6042   */\n      add\n        /* \"#utility.yul\":5999:6052   */\n      tag_55\n      jump\t// in\n    tag_166:\n        /* \"#utility.yul\":5989:6052   */\n      swap2\n      pop\n        /* \"#utility.yul\":5944:6062   */\n      pop\n        /* \"#utility.yul\":5595:6069   */\n      swap3\n      pop\n      swap3\n      swap1\n      pop\n      jump\t// out\n        /* \"#utility.yul\":6075:6199   */\n    tag_70:\n        /* \"#utility.yul\":6152:6158   */\n      0x00\n        /* \"#utility.yul\":6186:6191   */\n      dup2\n        /* \"#utility.yul\":6180:6192   */\n      mload\n        /* \"#utility.yul\":6170:6192   */\n      swap1\n      pop\n        /* \"#utility.yul\":6075:6199   */\n      swap2\n      swap1\n      pop\n      jump\t// out\n        /* \"#utility.yul\":6205:6399   */\n    tag_71:\n        /* \"#utility.yul\":6314:6325   */\n      0x00\n        /* \"#utility.yul\":6348:6354   */\n      dup3\n        /* \"#utility.yul\":6343:6346   */\n      dup3\n        /* \"#utility.yul\":6336:6355   */\n      mstore\n        /* \"#utility.yul\":6388:6392   */\n      0x20\n        /* \"#utility.yul\":6383:6386   */\n      dup3\n        /* \"#utility.yul\":6379:6393   */\n      add\n        /* \"#utility.yul\":6364:6393   */\n      swap1\n      pop\n        /* \"#utility.yul\":6205:6399   */\n      swap3\n      swap2\n      pop\n      pop\n      jump\t// out\n        /* \"#utility.yul\":6405:6547   */\n    tag_72:\n        /* \"#utility.yul\":6482:6486   */\n      0x00\n        /* \"#utility.yul\":6505:6508   */\n      dup2\n        /* \"#utility.yul\":6497:6508   */\n      swap1\n      pop\n        /* \"#utility.yul\":6535:6539   */\n      0x20\n        /* \"#utility.yul\":6530:6533   */\n      dup3\n        /* \"#utility.yul\":6526:6540   */\n      add\n        /* \"#utility.yul\":6518:6540   */\n      swap1\n      pop\n        /* \"#utility.yul\":6405:6547   */\n      swap2\n      swap1\n      pop\n      jump\t// out\n        /* \"#utility.yul\":6553:6652   */\n    tag_73:\n        /* \"#utility.yul\":6605:6611   */\n      0x00\n        /* \"#utility.yul\":6639:6644   */\n      dup2\n        /* \"#utility.yul\":6633:6645   */\n      mload\n        /* \"#utility.yul\":6623:6645   */\n      swap1\n      pop\n        /* \"#utility.yul\":6553:6652   */\n      swap2\n      swap1\n      pop\n      jump\t// out\n        /* \"#utility.yul\":6658:6817   */\n    tag_74:\n        /* \"#utility.yul\":6732:6743   */\n      0x00\n        /* \"#utility.yul\":6766:6772   */\n      dup3\n        /* \"#utility.yul\":6761:6764   */\n      dup3\n        /* \"#utility.yul\":6754:6773   */\n      mstore\n        /* \"#utility.yul\":6806:6810   */\n      0x20\n        /* \"#utility.yul\":6801:6804   */\n      dup3\n        /* \"#utility.yul\":6797:6811   */\n      add\n        /* \"#utility.yul\":6782:6811   */\n      swap1\n      pop\n        /* \"#utility.yul\":6658:6817   */\n      swap3\n      swap2\n      pop\n      pop\n      jump\t// out\n        /* \"#utility.yul\":6823:6962   */\n    tag_75:\n        /* \"#utility.yul\":6912:6918   */\n      dup3\n        /* \"#utility.yul\":6907:6910   */\n      dup2\n        /* \"#utility.yul\":6902:6905   */\n      dup4\n        /* \"#utility.yul\":6896:6919   */\n      mcopy\n        /* \"#utility.yul\":6953:6954   */\n      0x00\n        /* \"#utility.yul\":6944:6950   */\n      dup4\n        /* \"#utility.yul\":6939:6942   */\n      dup4\n        /* \"#utility.yul\":6935:6951   */\n      add\n        /* \"#utility.yul\":6928:6955   */\n      mstore\n        /* \"#utility.yul\":6823:6962   */\n      pop\n      pop\n      pop\n      jump\t// out\n        /* \"#utility.yul\":6968:7325   */\n    tag_76:\n        /* \"#utility.yul\":7046:7049   */\n      0x00\n        /* \"#utility.yul\":7074:7113   */\n      tag_174\n        /* \"#utility.yul\":7107:7112   */\n      dup3\n        /* \"#utility.yul\":7074:7113   */\n      tag_73\n      jump\t// in\n    tag_174:\n        /* \"#utility.yul\":7129:7190   */\n      tag_175\n        /* \"#utility.yul\":7183:7189   */\n      dup2\n        /* \"#utility.yul\":7178:7181   */\n      dup6\n        /* \"#utility.yul\":7129:7190   */\n      tag_74\n      jump\t// in\n    tag_175:\n        /* \"#utility.yul\":7122:7190   */\n      swap4\n      pop\n        /* \"#utility.yul\":7199:7264   */\n      tag_176\n        /* \"#utility.yul\":7257:7263   */\n      dup2\n        /* \"#utility.yul\":7252:7255   */\n      dup6\n        /* \"#utility.yul\":7245:7249   */\n      0x20\n        /* \"#utility.yul\":7238:7243   */\n      dup7\n        /* \"#utility.yul\":7234:7250   */\n      add\n        /* \"#utility.yul\":7199:7264   */\n      tag_75\n      jump\t// in\n    tag_176:\n        /* \"#utility.yul\":7289:7318   */\n      tag_177\n        /* \"#utility.yul\":7311:7317   */\n      dup2\n        /* \"#utility.yul\":7289:7318   */\n      tag_57\n      jump\t// in\n    tag_177:\n        /* \"#utility.yul\":7284:7287   */\n      dup5\n        /* \"#utility.yul\":7280:7319   */\n      add\n        /* \"#utility.yul\":7273:7319   */\n      swap2\n      pop\n        /* \"#utility.yul\":7050:7325   */\n      pop\n        /* \"#utility.yul\":6968:7325   */\n      swap3\n      swap2\n      pop\n      pop\n      jump\t// out\n        /* \"#utility.yul\":7331:7527   */\n    tag_77:\n        /* \"#utility.yul\":7420:7430   */\n      0x00\n        /* \"#utility.yul\":7455:7521   */\n      tag_179\n        /* \"#utility.yul\":7517:7520   */\n      dup4\n        /* \"#utility.yul\":7509:7515   */\n      dup4\n        /* \"#utility.yul\":7455:7521   */\n      tag_76\n      jump\t// in\n    tag_179:\n        /* \"#utility.yul\":7441:7521   */\n      swap1\n      pop\n        /* \"#utility.yul\":7331:7527   */\n      swap3\n      swap2\n      pop\n      pop\n      jump\t// out\n        /* \"#utility.yul\":7533:7656   */\n    tag_78:\n        /* \"#utility.yul\":7613:7617   */\n      0x00\n        /* \"#utility.yul\":7645:7649   */\n      0x20\n        /* \"#utility.yul\":7640:7643   */\n      dup3\n        /* \"#utility.yul\":7636:7650   */\n      add\n        /* \"#utility.yul\":7628:7650   */\n      swap1\n      pop\n        /* \"#utility.yul\":7533:7656   */\n      swap2\n      swap1\n      pop\n      jump\t// out\n        /* \"#utility.yul\":7690:8681   */\n    tag_79:\n        /* \"#utility.yul\":7829:7832   */\n      0x00\n        /* \"#utility.yul\":7858:7922   */\n      tag_182\n        /* \"#utility.yul\":7916:7921   */\n      dup3\n        /* \"#utility.yul\":7858:7922   */\n      tag_70\n      jump\t// in\n    tag_182:\n        /* \"#utility.yul\":7938:8034   */\n      tag_183\n        /* \"#utility.yul\":8027:8033   */\n      dup2\n        /* \"#utility.yul\":8022:8025   */\n      dup6\n        /* \"#utility.yul\":7938:8034   */\n      tag_71\n      jump\t// in\n    tag_183:\n        /* \"#utility.yul\":7931:8034   */\n      swap4\n      pop\n        /* \"#utility.yul\":8060:8063   */\n      dup4\n        /* \"#utility.yul\":8105:8109   */\n      0x20\n        /* \"#utility.yul\":8097:8103   */\n      dup3\n        /* \"#utility.yul\":8093:8110   */\n      mul\n        /* \"#utility.yul\":8088:8091   */\n      dup6\n        /* \"#utility.yul\":8084:8111   */\n      add\n        /* \"#utility.yul\":8135:8201   */\n      tag_184\n        /* \"#utility.yul\":8195:8200   */\n      dup6\n        /* \"#utility.yul\":8135:8201   */\n      tag_72\n      jump\t// in\n    tag_184:\n        /* \"#utility.yul\":8224:8231   */\n      dup1\n        /* \"#utility.yul\":8255:8256   */\n      0x00\n        /* \"#utility.yul\":8240:8636   */\n    tag_185:\n        /* \"#utility.yul\":8265:8271   */\n      dup6\n        /* \"#utility.yul\":8262:8263   */\n      dup2\n        /* \"#utility.yul\":8259:8272   */\n      lt\n        /* \"#utility.yul\":8240:8636   */\n      iszero\n      tag_187\n      jumpi\n        /* \"#utility.yul\":8336:8345   */\n      dup5\n        /* \"#utility.yul\":8330:8334   */\n      dup5\n        /* \"#utility.yul\":8326:8346   */\n      sub\n        /* \"#utility.yul\":8321:8324   */\n      dup10\n        /* \"#utility.yul\":8314:8347   */\n      mstore\n        /* \"#utility.yul\":8387:8393   */\n      dup2\n        /* \"#utility.yul\":8381:8394   */\n      mload\n        /* \"#utility.yul\":8415:8499   */\n      tag_188\n        /* \"#utility.yul\":8494:8498   */\n      dup6\n        /* \"#utility.yul\":8479:8492   */\n      dup3\n        /* \"#utility.yul\":8415:8499   */\n      tag_77\n      jump\t// in\n    tag_188:\n        /* \"#utility.yul\":8407:8499   */\n      swap5\n      pop\n        /* \"#utility.yul\":8522:8592   */\n      tag_189\n        /* \"#utility.yul\":8585:8591   */\n      dup4\n        /* \"#utility.yul\":8522:8592   */\n      tag_78\n      jump\t// in\n    tag_189:\n        /* \"#utility.yul\":8512:8592   */\n      swap3\n      pop\n        /* \"#utility.yul\":8621:8625   */\n      0x20\n        /* \"#utility.yul\":8616:8619   */\n      dup11\n        /* \"#utility.yul\":8612:8626   */\n      add\n        /* \"#utility.yul\":8605:8626   */\n      swap10\n      pop\n        /* \"#utility.yul\":8300:8636   */\n      pop\n        /* \"#utility.yul\":8287:8288   */\n      0x01\n        /* \"#utility.yul\":8284:8285   */\n      dup2\n        /* \"#utility.yul\":8280:8289   */\n      add\n        /* \"#utility.yul\":8275:8289   */\n      swap1\n      pop\n        /* \"#utility.yul\":8240:8636   */\n      jump(tag_185)\n    tag_187:\n        /* \"#utility.yul\":8244:8258   */\n      pop\n        /* \"#utility.yul\":8652:8656   */\n      dup3\n        /* \"#utility.yul\":8645:8656   */\n      swap8\n      pop\n        /* \"#utility.yul\":8672:8675   */\n      dup8\n        /* \"#utility.yul\":8665:8675   */\n      swap6\n      pop\n        /* \"#utility.yul\":7834:8681   */\n      pop\n      pop\n      pop\n      pop\n      pop\n        /* \"#utility.yul\":7690:8681   */\n      swap3\n      swap2\n      pop\n      pop\n      jump\t// out\n        /* \"#utility.yul\":8687:9100   */\n    tag_14:\n        /* \"#utility.yul\":8850:8854   */\n      0x00\n        /* \"#utility.yul\":8888:8890   */\n      0x20\n        /* \"#utility.yul\":8877:8886   */\n      dup3\n        /* \"#utility.yul\":8873:8891   */\n      add\n        /* \"#utility.yul\":8865:8891   */\n      swap1\n      pop\n        /* \"#utility.yul\":8937:8946   */\n      dup2\n        /* \"#utility.yul\":8931:8935   */\n      dup2\n        /* \"#utility.yul\":8927:8947   */\n      sub\n        /* \"#utility.yul\":8923:8924   */\n      0x00\n        /* \"#utility.yul\":8912:8921   */\n      dup4\n        /* \"#utility.yul\":8908:8925   */\n      add\n        /* \"#utility.yul\":8901:8948   */\n      mstore\n        /* \"#utility.yul\":8965:9093   */\n      tag_191\n        /* \"#utility.yul\":9088:9092   */\n      dup2\n        /* \"#utility.yul\":9079:9085   */\n      dup5\n        /* \"#utility.yul\":8965:9093   */\n      tag_79\n      jump\t// in\n    tag_191:\n        /* \"#utility.yul\":8957:9093   */\n      swap1\n      pop\n        /* \"#utility.yul\":8687:9100   */\n      swap3\n      swap2\n      pop\n      pop\n      jump\t// out\n        /* \"#utility.yul\":9106:9275   */\n    tag_80:\n        /* \"#utility.yul\":9190:9201   */\n      0x00\n        /* \"#utility.yul\":9224:9230   */\n      dup3\n        /* \"#utility.yul\":9219:9222   */\n      dup3\n        /* \"#utility.yul\":9212:9231   */\n      mstore\n        /* \"#utility.yul\":9264:9268   */\n      0x20\n        /* \"#utility.yul\":9259:9262   */\n      dup3\n        /* \"#utility.yul\":9255:9269   */\n      add\n        /* \"#utility.yul\":9240:9269   */\n      swap1\n      pop\n        /* \"#utility.yul\":9106:9275   */\n      swap3\n      swap2\n      pop\n      pop\n      jump\t// out\n        /* \"#utility.yul\":9281:9457   */\n    tag_81:\n        /* \"#utility.yul\":9421:9449   */\n      0x477565737473206d757374206265206c657373207468616e2034000000000000\n        /* \"#utility.yul\":9417:9418   */\n      0x00\n        /* \"#utility.yul\":9409:9415   */\n      dup3\n        /* \"#utility.yul\":9405:9419   */\n      add\n        /* \"#utility.yul\":9398:9450   */\n      mstore\n        /* \"#utility.yul\":9281:9457   */\n      pop\n      jump\t// out\n        /* \"#utility.yul\":9463:9829   */\n    tag_82:\n        /* \"#utility.yul\":9605:9608   */\n      0x00\n        /* \"#utility.yul\":9626:9693   */\n      tag_195\n        /* \"#utility.yul\":9690:9692   */\n      0x1a\n        /* \"#utility.yul\":9685:9688   */\n      dup4\n        /* \"#utility.yul\":9626:9693   */\n      tag_80\n      jump\t// in\n    tag_195:\n        /* \"#utility.yul\":9619:9693   */\n      swap2\n      pop\n        /* \"#utility.yul\":9702:9795   */\n      tag_196\n        /* \"#utility.yul\":9791:9794   */\n      dup3\n        /* \"#utility.yul\":9702:9795   */\n      tag_81\n      jump\t// in\n    tag_196:\n        /* \"#utility.yul\":9820:9822   */\n      0x20\n        /* \"#utility.yul\":9815:9818   */\n      dup3\n        /* \"#utility.yul\":9811:9823   */\n      add\n        /* \"#utility.yul\":9804:9823   */\n      swap1\n      pop\n        /* \"#utility.yul\":9463:9829   */\n      swap2\n      swap1\n      pop\n      jump\t// out\n        /* \"#utility.yul\":9835:10254   */\n    tag_19:\n        /* \"#utility.yul\":10001:10005   */\n      0x00\n        /* \"#utility.yul\":10039:10041   */\n      0x20\n        /* \"#utility.yul\":10028:10037   */\n      dup3\n        /* \"#utility.yul\":10024:10042   */\n      add\n        /* \"#utility.yul\":10016:10042   */\n      swap1\n      pop\n        /* \"#utility.yul\":10088:10097   */\n      dup2\n        /* \"#utility.yul\":10082:10086   */\n      dup2\n        /* \"#utility.yul\":10078:10098   */\n      sub\n        /* \"#utility.yul\":10074:10075   */\n      0x00\n        /* \"#utility.yul\":10063:10072   */\n      dup4\n        /* \"#utility.yul\":10059:10076   */\n      add\n        /* \"#utility.yul\":10052:10099   */\n      mstore\n        /* \"#utility.yul\":10116:10247   */\n      tag_198\n        /* \"#utility.yul\":10242:10246   */\n      dup2\n        /* \"#utility.yul\":10116:10247   */\n      tag_82\n      jump\t// in\n    tag_198:\n        /* \"#utility.yul\":10108:10247   */\n      swap1\n      pop\n        /* \"#utility.yul\":9835:10254   */\n      swap2\n      swap1\n      pop\n      jump\t// out\n        /* \"#utility.yul\":10260:10440   */\n    tag_83:\n        /* \"#utility.yul\":10308:10385   */\n      0x4e487b7100000000000000000000000000000000000000000000000000000000\n        /* \"#utility.yul\":10305:10306   */\n      0x00\n        /* \"#utility.yul\":10298:10386   */\n      mstore\n        /* \"#utility.yul\":10405:10409   */\n      0x22\n        /* \"#utility.yul\":10402:10403   */\n      0x04\n        /* \"#utility.yul\":10395:10410   */\n      mstore\n        /* \"#utility.yul\":10429:10433   */\n      0x24\n        /* \"#utility.yul\":10426:10427   */\n      0x00\n        /* \"#utility.yul\":10419:10434   */\n      revert\n        /* \"#utility.yul\":10446:10766   */\n    tag_27:\n        /* \"#utility.yul\":10490:10496   */\n      0x00\n        /* \"#utility.yul\":10527:10528   */\n      0x02\n        /* \"#utility.yul\":10521:10525   */\n      dup3\n        /* \"#utility.yul\":10517:10529   */\n      div\n        /* \"#utility.yul\":10507:10529   */\n      swap1\n      pop\n        /* \"#utility.yul\":10574:10575   */\n      0x01\n        /* \"#utility.yul\":10568:10572   */\n      dup3\n        /* \"#utility.yul\":10564:10576   */\n      and\n        /* \"#utility.yul\":10595:10613   */\n      dup1\n        /* \"#utility.yul\":10585:10666   */\n      tag_201\n      jumpi\n        /* \"#utility.yul\":10651:10655   */\n      0x7f\n        /* \"#utility.yul\":10643:10649   */\n      dup3\n        /* \"#utility.yul\":10639:10656   */\n      and\n        /* \"#utility.yul\":10629:10656   */\n      swap2\n      pop\n        /* \"#utility.yul\":10585:10666   */\n    tag_201:\n        /* \"#utility.yul\":10713:10715   */\n      0x20\n        /* \"#utility.yul\":10705:10711   */\n      dup3\n        /* \"#utility.yul\":10702:10716   */\n      lt\n        /* \"#utility.yul\":10682:10700   */\n      dup2\n        /* \"#utility.yul\":10679:10717   */\n      sub\n        /* \"#utility.yul\":10676:10760   */\n      tag_202\n      jumpi\n        /* \"#utility.yul\":10732:10750   */\n      tag_203\n      tag_83\n      jump\t// in\n    tag_203:\n        /* \"#utility.yul\":10676:10760   */\n    tag_202:\n        /* \"#utility.yul\":10497:10766   */\n      pop\n        /* \"#utility.yul\":10446:10766   */\n      swap2\n      swap1\n      pop\n      jump\t// out\n        /* \"#utility.yul\":10772:10913   */\n    tag_84:\n        /* \"#utility.yul\":10821:10825   */\n      0x00\n        /* \"#utility.yul\":10844:10847   */\n      dup2\n        /* \"#utility.yul\":10836:10847   */\n      swap1\n      pop\n        /* \"#utility.yul\":10867:10870   */\n      dup2\n        /* \"#utility.yul\":10864:10865   */\n      0x00\n        /* \"#utility.yul\":10857:10871   */\n      mstore\n        /* \"#utility.yul\":10901:10905   */\n      0x20\n        /* \"#utility.yul\":10898:10899   */\n      0x00\n        /* \"#utility.yul\":10888:10906   */\n      keccak256\n        /* \"#utility.yul\":10880:10906   */\n      swap1\n      pop\n        /* \"#utility.yul\":10772:10913   */\n      swap2\n      swap1\n      pop\n      jump\t// out\n        /* \"#utility.yul\":10919:11012   */\n    tag_85:\n        /* \"#utility.yul\":10956:10962   */\n      0x00\n        /* \"#utility.yul\":11003:11005   */\n      0x20\n        /* \"#utility.yul\":10998:11000   */\n      0x1f\n        /* \"#utility.yul\":10991:10996   */\n      dup4\n        /* \"#utility.yul\":10987:11001   */\n      add\n        /* \"#utility.yul\":10983:11006   */\n      div\n        /* \"#utility.yul\":10973:11006   */\n      swap1\n      pop\n        /* \"#utility.yul\":10919:11012   */\n      swap2\n      swap1\n      pop\n      jump\t// out\n        /* \"#utility.yul\":11018:11125   */\n    tag_86:\n        /* \"#utility.yul\":11062:11070   */\n      0x00\n        /* \"#utility.yul\":11112:11117   */\n      dup3\n        /* \"#utility.yul\":11106:11110   */\n      dup3\n        /* \"#utility.yul\":11102:11118   */\n      shl\n        /* \"#utility.yul\":11081:11118   */\n      swap1\n      pop\n        /* \"#utility.yul\":11018:11125   */\n      swap3\n      swap2\n      pop\n      pop\n      jump\t// out\n        /* \"#utility.yul\":11131:11524   */\n    tag_87:\n        /* \"#utility.yul\":11200:11206   */\n      0x00\n        /* \"#utility.yul\":11250:11251   */\n      0x08\n        /* \"#utility.yul\":11238:11248   */\n      dup4\n        /* \"#utility.yul\":11234:11252   */\n      mul\n        /* \"#utility.yul\":11273:11370   */\n      tag_208\n        /* \"#utility.yul\":11303:11369   */\n      0xffffffffffffffffffffffffffffffffffffffffffffffffffffffffffffffff\n        /* \"#utility.yul\":11292:11301   */\n      dup3\n        /* \"#utility.yul\":11273:11370   */\n      tag_86\n      jump\t// in\n    tag_208:\n        /* \"#utility.yul\":11391:11430   */\n      tag_209\n        /* \"#utility.yul\":11421:11429   */\n      dup7\n        /* \"#utility.yul\":11410:11419   */\n      dup4\n        /* \"#utility.yul\":11391:11430   */\n      tag_86\n      jump\t// in\n    tag_209:\n        /* \"#utility.yul\":11379:11430   */\n      swap6\n      pop\n        /* \"#utility.yul\":11463:11467   */\n      dup1\n        /* \"#utility.yul\":11459:11468   */\n      not\n        /* \"#utility.yul\":11452:11457   */\n      dup5\n        /* \"#utility.yul\":11448:11469   */\n      and\n        /* \"#utility.yul\":11439:11469   */\n      swap4\n      pop\n        /* \"#utility.yul\":11512:11516   */\n      dup1\n        /* \"#utility.yul\":11502:11510   */\n      dup7\n        /* \"#utility.yul\":11498:11517   */\n      and\n        /* \"#utility.yul\":11491:11496   */\n      dup5\n        /* \"#utility.yul\":11488:11518   */\n      or\n        /* \"#utility.yul\":11478:11518   */\n      swap3\n      pop\n        /* \"#utility.yul\":11207:11524   */\n      pop\n      pop\n        /* \"#utility.yul\":11131:11524   */\n      swap4\n      swap3\n      pop\n      pop\n      pop\n      jump\t// out\n        /* \"#utility.yul\":11530:11590   */\n    tag_88:\n        /* \"#utility.yul\":11558:11561   */\n      0x00\n        /* \"#utility.yul\":11579:11584   */\n      dup2\n        /* \"#utility.yul\":11572:11584   */\n      swap1\n      pop\n        /* \"#utility.yul\":11530:11590   */\n      swap2\n      swap1\n      pop\n      jump\t// out\n        /* \"#utility.yul\":11596:11738   */\n    tag_89:\n        /* \"#utility.yul\":11646:11655   */\n      0x00\n        /* \"#utility.yul\":11679:11732   */\n      tag_212\n        /* \"#utility.yul\":11697:11731   */\n      tag_213\n        /* \"#utility.yul\":11706:11730   */\n      tag_214\n        /* \"#utility.yul\":11724:11729   */\n      dup5\n        /* \"#utility.yul\":11706:11730   */\n      tag_53\n      jump\t// in\n    tag_214:\n        /* \"#utility.yul\":11697:11731   */\n      tag_88\n      jump\t// in\n    tag_213:\n        /* \"#utility.yul\":11679:11732   */\n      tag_53\n      jump\t// in\n    tag_212:\n        /* \"#utility.yul\":11666:11732   */\n      swap1\n      pop\n        /* \"#utility.yul\":11596:11738   */\n      swap2\n      swap1\n      pop\n      jump\t// out\n        /* \"#utility.yul\":11744:11819   */\n    tag_90:\n        /* \"#utility.yul\":11787:11790   */\n      0x00\n        /* \"#utility.yul\":11808:11813   */\n      dup2\n        /* \"#utility.yul\":11801:11813   */\n      swap1\n      pop\n        /* \"#utility.yul\":11744:11819   */\n      swap2\n      swap1\n      pop\n      jump\t// out\n        /* \"#utility.yul\":11825:12094   */\n    tag_91:\n        /* \"#utility.yul\":11935:11974   */\n      tag_217\n        /* \"#utility.yul\":11966:11973   */\n      dup4\n        /* \"#utility.yul\":11935:11974   */\n      tag_89\n      jump\t// in\n    tag_217:\n        /* \"#utility.yul\":11996:12087   */\n      tag_218\n        /* \"#utility.yul\":12045:12086   */\n      tag_219\n        /* \"#utility.yul\":12069:12085   */\n      dup3\n        /* \"#utility.yul\":12045:12086   */\n      tag_90\n      jump\t// in\n    tag_219:\n        /* \"#utility.yul\":12037:12043   */\n      dup5\n        /* \"#utility.yul\":12030:12034   */\n      dup5\n        /* \"#utility.yul\":12024:12035   */\n      sload\n        /* \"#utility.yul\":11996:12087   */\n      tag_87\n      jump\t// in\n    tag_218:\n        /* \"#utility.yul\":11990:11994   */\n      dup3\n        /* \"#utility.yul\":11983:12088   */\n      sstore\n        /* \"#utility.yul\":11901:12094   */\n      pop\n        /* \"#utility.yul\":11825:12094   */\n      pop\n      pop\n      pop\n      jump\t// out\n        /* \"#utility.yul\":12100:12173   */\n    tag_92:\n        /* \"#utility.yul\":12145:12148   */\n      0x00\n        /* \"#utility.yul\":12100:12173   */\n      swap1\n      jump\t// out\n        /* \"#utility.yul\":12179:12368   */\n    tag_93:\n        /* \"#utility.yul\":12256:12288   */\n      tag_222\n      tag_92\n      jump\t// in\n    tag_222:\n        /* \"#utility.yul\":12297:12362   */\n      tag_223\n        /* \"#utility.yul\":12355:12361   */\n      dup2\n        /* \"#utility.yul\":12347:12353   */\n      dup5\n        /* \"#utility.yul\":12341:12345   */\n      dup5\n        /* \"#utility.yul\":12297:12362   */\n      tag_91\n      jump\t// in\n    tag_223:\n        /* \"#utility.yul\":12232:12368   */\n      pop\n        /* \"#utility.yul\":12179:12368   */\n      pop\n      pop\n      jump\t// out\n        /* \"#utility.yul\":12374:12560   */\n    tag_94:\n        /* \"#utility.yul\":12434:12554   */\n    tag_225:\n        /* \"#utility.yul\":12451:12454   */\n      dup2\n        /* \"#utility.yul\":12444:12449   */\n      dup2\n        /* \"#utility.yul\":12441:12455   */\n      lt\n        /* \"#utility.yul\":12434:12554   */\n      iszero\n      tag_227\n      jumpi\n        /* \"#utility.yul\":12505:12544   */\n      tag_228\n        /* \"#utility.yul\":12542:12543   */\n      0x00\n        /* \"#utility.yul\":12535:12540   */\n      dup3\n        /* \"#utility.yul\":12505:12544   */\n      tag_93\n      jump\t// in\n    tag_228:\n        /* \"#utility.yul\":12478:12479   */\n      0x01\n        /* \"#utility.yul\":12471:12476   */\n      dup2\n        /* \"#utility.yul\":12467:12480   */\n      add\n        /* \"#utility.yul\":12458:12480   */\n      swap1\n      pop\n        /* \"#utility.yul\":12434:12554   */\n      jump(tag_225)\n    tag_227:\n        /* \"#utility.yul\":12374:12560   */\n      pop\n      pop\n      jump\t// out\n        /* \"#utility.yul\":12566:13109   */\n    tag_95:\n        /* \"#utility.yul\":12667:12669   */\n      0x1f\n        /* \"#utility.yul\":12662:12665   */\n      dup3\n        /* \"#utility.yul\":12659:12670   */\n      gt\n        /* \"#utility.yul\":12656:13102   */\n      iszero\n      tag_230\n      jumpi\n        /* \"#utility.yul\":12701:12739   */\n      tag_231\n        /* \"#utility.yul\":12733:12738   */\n      dup2\n        /* \"#utility.yul\":12701:12739   */\n      tag_84\n      jump\t// in\n    tag_231:\n        /* \"#utility.yul\":12785:12814   */\n      tag_232\n        /* \"#utility.yul\":12803:12813   */\n      dup5\n        /* \"#utility.yul\":12785:12814   */\n      tag_85\n      jump\t// in\n    tag_232:\n        /* \"#utility.yul\":12775:12783   */\n      dup2\n        /* \"#utility.yul\":12771:12815   */\n      add\n        /* \"#utility.yul\":12968:12970   */\n      0x20\n        /* \"#utility.yul\":12956:12966   */\n      dup6\n        /* \"#utility.yul\":12953:12971   */\n      lt\n        /* \"#utility.yul\":12950:12999   */\n      iszero\n      tag_233\n      jumpi\n        /* \"#utility.yul\":12989:12997   */\n      dup2\n        /* \"#utility.yul\":12974:12997   */\n      swap1\n      pop\n        /* \"#utility.yul\":12950:12999   */\n    tag_233:\n        /* \"#utility.yul\":13012:13092   */\n      tag_234\n        /* \"#utility.yul\":13068:13090   */\n      tag_235\n        /* \"#utility.yul\":13086:13089   */\n      dup6\n        /* \"#utility.yul\":13068:13090   */\n      tag_85\n      jump\t// in\n    tag_235:\n        /* \"#utility.yul\":13058:13066   */\n      dup4\n        /* \"#utility.yul\":13054:13091   */\n      add\n        /* \"#utility.yul\":13041:13052   */\n      dup3\n        /* \"#utility.yul\":13012:13092   */\n      tag_94\n      jump\t// in\n    tag_234:\n        /* \"#utility.yul\":12671:13102   */\n      pop\n      pop\n        /* \"#utility.yul\":12656:13102   */\n    tag_230:\n        /* \"#utility.yul\":12566:13109   */\n      pop\n      pop\n      pop\n      jump\t// out\n        /* \"#utility.yul\":13115:13232   */\n    tag_96:\n        /* \"#utility.yul\":13169:13177   */\n      0x00\n        /* \"#utility.yul\":13219:13224   */\n      dup3\n        /* \"#utility.yul\":13213:13217   */\n      dup3\n        /* \"#utility.yul\":13209:13225   */\n      shr\n        /* \"#utility.yul\":13188:13225   */\n      swap1\n      pop\n        /* \"#utility.yul\":13115:13232   */\n      swap3\n      swap2\n      pop\n      pop\n      jump\t// out\n        /* \"#utility.yul\":13238:13407   */\n    tag_97:\n        /* \"#utility.yul\":13282:13288   */\n      0x00\n        /* \"#utility.yul\":13315:13366   */\n      tag_238\n        /* \"#utility.yul\":13363:13364   */\n      0x00\n        /* \"#utility.yul\":13359:13365   */\n      not\n        /* \"#utility.yul\":13351:13356   */\n      dup5\n        /* \"#utility.yul\":13348:13349   */\n      0x08\n        /* \"#utility.yul\":13344:13357   */\n      mul\n        /* \"#utility.yul\":13315:13366   */\n      tag_96\n      jump\t// in\n    tag_238:\n        /* \"#utility.yul\":13311:13367   */\n      not\n        /* \"#utility.yul\":13396:13400   */\n      dup1\n        /* \"#utility.yul\":13390:13394   */\n      dup4\n        /* \"#utility.yul\":13386:13401   */\n      and\n        /* \"#utility.yul\":13376:13401   */\n      swap2\n      pop\n        /* \"#utility.yul\":13289:13407   */\n      pop\n        /* \"#utility.yul\":13238:13407   */\n      swap3\n      swap2\n      pop\n      pop\n      jump\t// out\n        /* \"#utility.yul\":13412:13707   */\n    tag_98:\n        /* \"#utility.yul\":13488:13492   */\n      0x00\n        /* \"#utility.yul\":13634:13663   */\n      tag_240\n        /* \"#utility.yul\":13659:13662   */\n      dup4\n        /* \"#utility.yul\":13653:13657   */\n      dup4\n        /* \"#utility.yul\":13634:13663   */\n      tag_97\n      jump\t// in\n    tag_240:\n        /* \"#utility.yul\":13626:13663   */\n      swap2\n      pop\n        /* \"#utility.yul\":13696:13699   */\n      dup3\n        /* \"#utility.yul\":13693:13694   */\n      0x02\n        /* \"#utility.yul\":13689:13700   */\n      mul\n        /* \"#utility.yul\":13683:13687   */\n      dup3\n        /* \"#utility.yul\":13680:13701   */\n      or\n        /* \"#utility.yul\":13672:13701   */\n      swap1\n      pop\n        /* \"#utility.yul\":13412:13707   */\n      swap3\n      swap2\n      pop\n      pop\n      jump\t// out\n        /* \"#utility.yul\":13712:15107   */\n    tag_36:\n        /* \"#utility.yul\":13829:13866   */\n      tag_242\n        /* \"#utility.yul\":13862:13865   */\n      dup3\n        /* \"#utility.yul\":13829:13866   */\n      tag_73\n      jump\t// in\n    tag_242:\n        /* \"#utility.yul\":13931:13949   */\n      0xffffffffffffffff\n        /* \"#utility.yul\":13923:13929   */\n      dup2\n        /* \"#utility.yul\":13920:13950   */\n      gt\n        /* \"#utility.yul\":13917:13973   */\n      iszero\n      tag_243\n      jumpi\n        /* \"#utility.yul\":13953:13971   */\n      tag_244\n      tag_58\n      jump\t// in\n    tag_244:\n        /* \"#utility.yul\":13917:13973   */\n    tag_243:\n        /* \"#utility.yul\":13997:14035   */\n      tag_245\n        /* \"#utility.yul\":14029:14033   */\n      dup3\n        /* \"#utility.yul\":14023:14034   */\n      sload\n        /* \"#utility.yul\":13997:14035   */\n      tag_27\n      jump\t// in\n    tag_245:\n        /* \"#utility.yul\":14082:14149   */\n      tag_246\n        /* \"#utility.yul\":14142:14148   */\n      dup3\n        /* \"#utility.yul\":14134:14140   */\n      dup3\n        /* \"#utility.yul\":14128:14132   */\n      dup6\n        /* \"#utility.yul\":14082:14149   */\n      tag_95\n      jump\t// in\n    tag_246:\n        /* \"#utility.yul\":14176:14177   */\n      0x00\n        /* \"#utility.yul\":14200:14204   */\n      0x20\n        /* \"#utility.yul\":14187:14204   */\n      swap1\n      pop\n        /* \"#utility.yul\":14232:14234   */\n      0x1f\n        /* \"#utility.yul\":14224:14230   */\n      dup4\n        /* \"#utility.yul\":14221:14235   */\n      gt\n        /* \"#utility.yul\":14249:14250   */\n      0x01\n        /* \"#utility.yul\":14244:14862   */\n      dup2\n      eq\n      tag_248\n      jumpi\n        /* \"#utility.yul\":14906:14907   */\n      0x00\n        /* \"#utility.yul\":14923:14929   */\n      dup5\n        /* \"#utility.yul\":14920:14997   */\n      iszero\n      tag_249\n      jumpi\n        /* \"#utility.yul\":14972:14981   */\n      dup3\n        /* \"#utility.yul\":14967:14970   */\n      dup8\n        /* \"#utility.yul\":14963:14982   */\n      add\n        /* \"#utility.yul\":14957:14983   */\n      mload\n        /* \"#utility.yul\":14948:14983   */\n      swap1\n      pop\n        /* \"#utility.yul\":14920:14997   */\n    tag_249:\n        /* \"#utility.yul\":15023:15090   */\n      tag_250\n        /* \"#utility.yul\":15083:15089   */\n      dup6\n        /* \"#utility.yul\":15076:15081   */\n      dup3\n        /* \"#utility.yul\":15023:15090   */\n      tag_98\n      jump\t// in\n    tag_250:\n        /* \"#utility.yul\":15017:15021   */\n      dup7\n        /* \"#utility.yul\":15010:15091   */\n      sstore\n        /* \"#utility.yul\":14879:15101   */\n      pop\n        /* \"#utility.yul\":14214:15101   */\n      jump(tag_247)\n        /* \"#utility.yul\":14244:14862   */\n    tag_248:\n        /* \"#utility.yul\":14296:14300   */\n      0x1f\n        /* \"#utility.yul\":14292:14301   */\n      not\n        /* \"#utility.yul\":14284:14290   */\n      dup5\n        /* \"#utility.yul\":14280:14302   */\n      and\n        /* \"#utility.yul\":14330:14367   */\n      tag_251\n        /* \"#utility.yul\":14362:14366   */\n      dup7\n        /* \"#utility.yul\":14330:14367   */\n      tag_84\n      jump\t// in\n    tag_251:\n        /* \"#utility.yul\":14389:14390   */\n      0x00\n        /* \"#utility.yul\":14403:14611   */\n    tag_252:\n        /* \"#utility.yul\":14417:14424   */\n      dup3\n        /* \"#utility.yul\":14414:14415   */\n      dup2\n        /* \"#utility.yul\":14411:14425   */\n      lt\n        /* \"#utility.yul\":14403:14611   */\n      iszero\n      tag_254\n      jumpi\n        /* \"#utility.yul\":14496:14505   */\n      dup5\n        /* \"#utility.yul\":14491:14494   */\n      dup10\n        /* \"#utility.yul\":14487:14506   */\n      add\n        /* \"#utility.yul\":14481:14507   */\n      mload\n        /* \"#utility.yul\":14473:14479   */\n      dup3\n        /* \"#utility.yul\":14466:14508   */\n      sstore\n        /* \"#utility.yul\":14547:14548   */\n      0x01\n        /* \"#utility.yul\":14539:14545   */\n      dup3\n        /* \"#utility.yul\":14535:14549   */\n      add\n        /* \"#utility.yul\":14525:14549   */\n      swap2\n      pop\n        /* \"#utility.yul\":14594:14596   */\n      0x20\n        /* \"#utility.yul\":14583:14592   */\n      dup6\n        /* \"#utility.yul\":14579:14597   */\n      add\n        /* \"#utility.yul\":14566:14597   */\n      swap5\n      pop\n        /* \"#utility.yul\":14440:14444   */\n      0x20\n        /* \"#utility.yul\":14437:14438   */\n      dup2\n        /* \"#utility.yul\":14433:14445   */\n      add\n        /* \"#utility.yul\":14428:14445   */\n      swap1\n      pop\n        /* \"#utility.yul\":14403:14611   */\n      jump(tag_252)\n    tag_254:\n        /* \"#utility.yul\":14639:14645   */\n      dup7\n        /* \"#utility.yul\":14630:14637   */\n      dup4\n        /* \"#utility.yul\":14627:14646   */\n      lt\n        /* \"#utility.yul\":14624:14803   */\n      iszero\n      tag_255\n      jumpi\n        /* \"#utility.yul\":14697:14706   */\n      dup5\n        /* \"#utility.yul\":14692:14695   */\n      dup10\n        /* \"#utility.yul\":14688:14707   */\n      add\n        /* \"#utility.yul\":14682:14708   */\n      mload\n        /* \"#utility.yul\":14740:14788   */\n      tag_256\n        /* \"#utility.yul\":14782:14786   */\n      0x1f\n        /* \"#utility.yul\":14774:14780   */\n      dup10\n        /* \"#utility.yul\":14770:14787   */\n      and\n        /* \"#utility.yul\":14759:14768   */\n      dup3\n        /* \"#utility.yul\":14740:14788   */\n      tag_97\n      jump\t// in\n    tag_256:\n        /* \"#utility.yul\":14732:14738   */\n      dup4\n        /* \"#utility.yul\":14725:14789   */\n      sstore\n        /* \"#utility.yul\":14647:14803   */\n      pop\n        /* \"#utility.yul\":14624:14803   */\n    tag_255:\n        /* \"#utility.yul\":14849:14850   */\n      0x01\n        /* \"#utility.yul\":14845:14846   */\n      0x02\n        /* \"#utility.yul\":14837:14843   */\n      dup9\n        /* \"#utility.yul\":14833:14847   */\n      mul\n        /* \"#utility.yul\":14829:14851   */\n      add\n        /* \"#utility.yul\":14823:14827   */\n      dup9\n        /* \"#utility.yul\":14816:14852   */\n      sstore\n        /* \"#utility.yul\":14251:14862   */\n      pop\n      pop\n      pop\n        /* \"#utility.yul\":14214:15101   */\n    tag_247:\n      pop\n        /* \"#utility.yul\":13804:15107   */\n      pop\n      pop\n      pop\n        /* \"#utility.yul\":13712:15107   */\n      pop\n      pop\n      jump\t// out\n\n    auxdata: 0xa264697066735822122042a62ba75c22b2e0aea0365d3bb4fc85d8088f67d856abaa5208dbea6139c39b64736f6c634300081a0033\n}\n",
				"bytecode": {
					"linkReferences": {},
					"object": "6080604052348015600e575f80fd5b50610a928061001c5f395ff3fe608060405234801561000f575f80fd5b5060043610610034575f3560e01c80636b0a6e6f14610038578063ec0a093014610054575b5f80fd5b610052600480360381019061004d9190610536565b610084565b005b61006e600480360381019061006991906105a2565b61010e565b60405161007b91906106fb565b60405180910390f35b5f815111801561009657506003815111155b6100d5576040517f08c379a00000000000000000000000000000000000000000000000000000000081526004016100cc90610775565b60405180910390fd5b805f808581526020019081526020015f205f8481526020019081526020015f209080519060200190610108929190610202565b50505050565b60605f808481526020019081526020015f205f8381526020019081526020015f20805480602002602001604051908101604052809291908181526020015f905b828210156101f6578382905f5260205f2001805461016b906107c0565b80601f0160208091040260200160405190810160405280929190818152602001828054610197906107c0565b80156101e25780601f106101b9576101008083540402835291602001916101e2565b820191905f5260205f20905b8154815290600101906020018083116101c557829003601f168201915b50505050508152602001906001019061014e565b50505050905092915050565b828054828255905f5260205f20908101928215610248579160200282015b82811115610247578251829081610237919061098d565b5091602001919060010190610220565b5b5090506102559190610259565b5090565b5b80821115610278575f818161026f919061027c565b5060010161025a565b5090565b508054610288906107c0565b5f825580601f1061029957506102b6565b601f0160209004905f5260205f20908101906102b591906102b9565b5b50565b5b808211156102d0575f815f9055506001016102ba565b5090565b5f604051905090565b5f80fd5b5f80fd5b5f819050919050565b6102f7816102e5565b8114610301575f80fd5b50565b5f81359050610312816102ee565b92915050565b5f80fd5b5f601f19601f8301169050919050565b7f4e487b71000000000000000000000000000000000000000000000000000000005f52604160045260245ffd5b6103628261031c565b810181811067ffffffffffffffff821117156103815761038061032c565b5b80604052505050565b5f6103936102d4565b905061039f8282610359565b919050565b5f67ffffffffffffffff8211156103be576103bd61032c565b5b602082029050602081019050919050565b5f80fd5b5f80fd5b5f67ffffffffffffffff8211156103f1576103f061032c565b5b6103fa8261031c565b9050602081019050919050565b828183375f83830152505050565b5f610427610422846103d7565b61038a565b905082815260208101848484011115610443576104426103d3565b5b61044e848285610407565b509392505050565b5f82601f83011261046a57610469610318565b5b813561047a848260208601610415565b91505092915050565b5f610495610490846103a4565b61038a565b905080838252602082019050602084028301858111156104b8576104b76103cf565b5b835b818110156104ff57803567ffffffffffffffff8111156104dd576104dc610318565b5b8086016104ea8982610456565b855260208501945050506020810190506104ba565b5050509392505050565b5f82601f83011261051d5761051c610318565b5b813561052d848260208601610483565b91505092915050565b5f805f6060848603121561054d5761054c6102dd565b5b5f61055a86828701610304565b935050602061056b86828701610304565b925050604084013567ffffffffffffffff81111561058c5761058b6102e1565b5b61059886828701610509565b9150509250925092565b5f80604083850312156105b8576105b76102dd565b5b5f6105c585828601610304565b92505060206105d685828601610304565b9150509250929050565b5f81519050919050565b5f82825260208201905092915050565b5f819050602082019050919050565b5f81519050919050565b5f82825260208201905092915050565b8281835e5f83830152505050565b5f61063b82610609565b6106458185610613565b9350610655818560208601610623565b61065e8161031c565b840191505092915050565b5f6106748383610631565b905092915050565b5f602082019050919050565b5f610692826105e0565b61069c81856105ea565b9350836020820285016106ae856105fa565b805f5b858110156106e957848403895281516106ca8582610669565b94506106d58361067c565b925060208a019950506001810190506106b1565b50829750879550505050505092915050565b5f6020820190508181035f8301526107138184610688565b905092915050565b5f82825260208201905092915050565b7f477565737473206d757374206265206c657373207468616e20340000000000005f82015250565b5f61075f601a8361071b565b915061076a8261072b565b602082019050919050565b5f6020820190508181035f83015261078c81610753565b9050919050565b7f4e487b71000000000000000000000000000000000000000000000000000000005f52602260045260245ffd5b5f60028204905060018216806107d757607f821691505b6020821081036107ea576107e9610793565b5b50919050565b5f819050815f5260205f209050919050565b5f6020601f8301049050919050565b5f82821b905092915050565b5f6008830261084c7fffffffffffffffffffffffffffffffffffffffffffffffffffffffffffffffff82610811565b6108568683610811565b95508019841693508086168417925050509392505050565b5f819050919050565b5f61089161088c610887846102e5565b61086e565b6102e5565b9050919050565b5f819050919050565b6108aa83610877565b6108be6108b682610898565b84845461081d565b825550505050565b5f90565b6108d26108c6565b6108dd8184846108a1565b505050565b5b81811015610900576108f55f826108ca565b6001810190506108e3565b5050565b601f82111561094557610916816107f0565b61091f84610802565b8101602085101561092e578190505b61094261093a85610802565b8301826108e2565b50505b505050565b5f82821c905092915050565b5f6109655f198460080261094a565b1980831691505092915050565b5f61097d8383610956565b9150826002028217905092915050565b61099682610609565b67ffffffffffffffff8111156109af576109ae61032c565b5b6109b982546107c0565b6109c4828285610904565b5f60209050601f8311600181146109f5575f84156109e3578287015190505b6109ed8582610972565b865550610a54565b601f198416610a03866107f0565b5f5b82811015610a2a57848901518255600182019150602085019450602081019050610a05565b86831015610a475784890151610a43601f891682610956565b8355505b6001600288020188555050505b50505050505056fea264697066735822122042a62ba75c22b2e0aea0365d3bb4fc85d8088f67d856abaa5208dbea6139c39b64736f6c634300081a0033",
					"opcodes": "PUSH1 0x80 PUSH1 0x40 MSTORE CALLVALUE DUP1 ISZERO PUSH1 0xE JUMPI PUSH0 DUP1 REVERT JUMPDEST POP PUSH2 0xA92 DUP1 PUSH2 0x1C PUSH0 CODECOPY PUSH0 RETURN INVALID PUSH1 0x80 PUSH1 0x40 MSTORE CALLVALUE DUP1 ISZERO PUSH2 0xF JUMPI PUSH0 DUP1 REVERT JUMPDEST POP PUSH1 0x4 CALLDATASIZE LT PUSH2 0x34 JUMPI PUSH0 CALLDATALOAD PUSH1 0xE0 SHR DUP1 PUSH4 0x6B0A6E6F EQ PUSH2 0x38 JUMPI DUP1 PUSH4 0xEC0A0930 EQ PUSH2 0x54 JUMPI JUMPDEST PUSH0 DUP1 REVERT JUMPDEST PUSH2 0x52 PUSH1 0x4 DUP1 CALLDATASIZE SUB DUP2 ADD SWAP1 PUSH2 0x4D SWAP2 SWAP1 PUSH2 0x536 JUMP JUMPDEST PUSH2 0x84 JUMP JUMPDEST STOP JUMPDEST PUSH2 0x6E PUSH1 0x4 DUP1 CALLDATASIZE SUB DUP2 ADD SWAP1 PUSH2 0x69 SWAP2 SWAP1 PUSH2 0x5A2 JUMP JUMPDEST PUSH2 0x10E JUMP JUMPDEST PUSH1 0x40 MLOAD PUSH2 0x7B SWAP2 SWAP1 PUSH2 0x6FB JUMP JUMPDEST PUSH1 0x40 MLOAD DUP1 SWAP2 SUB SWAP1 RETURN JUMPDEST PUSH0 DUP2 MLOAD GT DUP1 ISZERO PUSH2 0x96 JUMPI POP PUSH1 0x3 DUP2 MLOAD GT ISZERO JUMPDEST PUSH2 0xD5 JUMPI PUSH1 0x40 MLOAD PUSH32 0x8C379A000000000000000000000000000000000000000000000000000000000 DUP2 MSTORE PUSH1 0x4 ADD PUSH2 0xCC SWAP1 PUSH2 0x775 JUMP JUMPDEST PUSH1 0x40 MLOAD DUP1 SWAP2 SUB SWAP1 REVERT JUMPDEST DUP1 PUSH0 DUP1 DUP6 DUP2 MSTORE PUSH1 0x20 ADD SWAP1 DUP2 MSTORE PUSH1 0x20 ADD PUSH0 KECCAK256 PUSH0 DUP5 DUP2 MSTORE PUSH1 0x20 ADD SWAP1 DUP2 MSTORE PUSH1 0x20 ADD PUSH0 KECCAK256 SWAP1 DUP1 MLOAD SWAP1 PUSH1 0x20 ADD SWAP1 PUSH2 0x108 SWAP3 SWAP2 SWAP1 PUSH2 0x202 JUMP JUMPDEST POP POP POP POP JUMP JUMPDEST PUSH1 0x60 PUSH0 DUP1 DUP5 DUP2 MSTORE PUSH1 0x20 ADD SWAP1 DUP2 MSTORE PUSH1 0x20 ADD PUSH0 KECCAK256 PUSH0 DUP4 DUP2 MSTORE PUSH1 0x20 ADD SWAP1 DUP2 MSTORE PUSH1 0x20 ADD PUSH0 KECCAK256 DUP1 SLOAD DUP1 PUSH1 0x20 MUL PUSH1 0x20 ADD PUSH1 0x40 MLOAD SWAP1 DUP2 ADD PUSH1 0x40 MSTORE DUP1 SWAP3 SWAP2 SWAP1 DUP2 DUP2 MSTORE PUSH1 0x20 ADD PUSH0 SWAP1 JUMPDEST DUP3 DUP3 LT ISZERO PUSH2 0x1F6 JUMPI DUP4 DUP3 SWAP1 PUSH0 MSTORE PUSH1 0x20 PUSH0 KECCAK256 ADD DUP1 SLOAD PUSH2 0x16B SWAP1 PUSH2 0x7C0 JUMP JUMPDEST DUP1 PUSH1 0x1F ADD PUSH1 0x20 DUP1 SWAP2 DIV MUL PUSH1 0x20 ADD PUSH1 0x40 MLOAD SWAP1 DUP2 ADD PUSH1 0x40 MSTORE DUP1 SWAP3 SWAP2 SWAP1 DUP2 DUP2 MSTORE PUSH1 0x20 ADD DUP3 DUP1 SLOAD PUSH2 0x197 SWAP1 PUSH2 0x7C0 JUMP JUMPDEST DUP1 ISZERO PUSH2 0x1E2 JUMPI DUP1 PUSH1 0x1F LT PUSH2 0x1B9 JUMPI PUSH2 0x100 DUP1 DUP4 SLOAD DIV MUL DUP4 MSTORE SWAP2 PUSH1 0x20 ADD SWAP2 PUSH2 0x1E2 JUMP JUMPDEST DUP3 ADD SWAP2 SWAP1 PUSH0 MSTORE PUSH1 0x20 PUSH0 KECCAK256 SWAP1 JUMPDEST DUP2 SLOAD DUP2 MSTORE SWAP1 PUSH1 0x1 ADD SWAP1 PUSH1 0x20 ADD DUP1 DUP4 GT PUSH2 0x1C5 JUMPI DUP3 SWAP1 SUB PUSH1 0x1F AND DUP3 ADD SWAP2 JUMPDEST POP POP POP POP POP DUP2 MSTORE PUSH1 0x20 ADD SWAP1 PUSH1 0x1 ADD SWAP1 PUSH2 0x14E JUMP JUMPDEST POP POP POP POP SWAP1 POP SWAP3 SWAP2 POP POP JUMP JUMPDEST DUP3 DUP1 SLOAD DUP3 DUP3 SSTORE SWAP1 PUSH0 MSTORE PUSH1 0x20 PUSH0 KECCAK256 SWAP1 DUP2 ADD SWAP3 DUP3 ISZERO PUSH2 0x248 JUMPI SWAP2 PUSH1 0x20 MUL DUP3 ADD JUMPDEST DUP3 DUP2 GT ISZERO PUSH2 0x247 JUMPI DUP3 MLOAD DUP3 SWAP1 DUP2 PUSH2 0x237 SWAP2 SWAP1 PUSH2 0x98D JUMP JUMPDEST POP SWAP2 PUSH1 0x20 ADD SWAP2 SWAP1 PUSH1 0x1 ADD SWAP1 PUSH2 0x220 JUMP JUMPDEST JUMPDEST POP SWAP1 POP PUSH2 0x255 SWAP2 SWAP1 PUSH2 0x259 JUMP JUMPDEST POP SWAP1 JUMP JUMPDEST JUMPDEST DUP1 DUP3 GT ISZERO PUSH2 0x278 JUMPI PUSH0 DUP2 DUP2 PUSH2 0x26F SWAP2 SWAP1 PUSH2 0x27C JUMP JUMPDEST POP PUSH1 0x1 ADD PUSH2 0x25A JUMP JUMPDEST POP SWAP1 JUMP JUMPDEST POP DUP1 SLOAD PUSH2 0x288 SWAP1 PUSH2 0x7C0 JUMP JUMPDEST PUSH0 DUP3 SSTORE DUP1 PUSH1 0x1F LT PUSH2 0x299 JUMPI POP PUSH2 0x2B6 JUMP JUMPDEST PUSH1 0x1F ADD PUSH1 0x20 SWAP1 DIV SWAP1 PUSH0 MSTORE PUSH1 0x20 PUSH0 KECCAK256 SWAP1 DUP2 ADD SWAP1 PUSH2 0x2B5 SWAP2 SWAP1 PUSH2 0x2B9 JUMP JUMPDEST JUMPDEST POP JUMP JUMPDEST JUMPDEST DUP1 DUP3 GT ISZERO PUSH2 0x2D0 JUMPI PUSH0 DUP2 PUSH0 SWAP1 SSTORE POP PUSH1 0x1 ADD PUSH2 0x2BA JUMP JUMPDEST POP SWAP1 JUMP JUMPDEST PUSH0 PUSH1 0x40 MLOAD SWAP1 POP SWAP1 JUMP JUMPDEST PUSH0 DUP1 REVERT JUMPDEST PUSH0 DUP1 REVERT JUMPDEST PUSH0 DUP2 SWAP1 POP SWAP2 SWAP1 POP JUMP JUMPDEST PUSH2 0x2F7 DUP2 PUSH2 0x2E5 JUMP JUMPDEST DUP2 EQ PUSH2 0x301 JUMPI PUSH0 DUP1 REVERT JUMPDEST POP JUMP JUMPDEST PUSH0 DUP2 CALLDATALOAD SWAP1 POP PUSH2 0x312 DUP2 PUSH2 0x2EE JUMP JUMPDEST SWAP3 SWAP2 POP POP JUMP JUMPDEST PUSH0 DUP1 REVERT JUMPDEST PUSH0 PUSH1 0x1F NOT PUSH1 0x1F DUP4 ADD AND SWAP1 POP SWAP2 SWAP1 POP JUMP JUMPDEST PUSH32 0x4E487B7100000000000000000000000000000000000000000000000000000000 PUSH0 MSTORE PUSH1 0x41 PUSH1 0x4 MSTORE PUSH1 0x24 PUSH0 REVERT JUMPDEST PUSH2 0x362 DUP3 PUSH2 0x31C JUMP JUMPDEST DUP2 ADD DUP2 DUP2 LT PUSH8 0xFFFFFFFFFFFFFFFF DUP3 GT OR ISZERO PUSH2 0x381 JUMPI PUSH2 0x380 PUSH2 0x32C JUMP JUMPDEST JUMPDEST DUP1 PUSH1 0x40 MSTORE POP POP POP JUMP JUMPDEST PUSH0 PUSH2 0x393 PUSH2 0x2D4 JUMP JUMPDEST SWAP1 POP PUSH2 0x39F DUP3 DUP3 PUSH2 0x359 JUMP JUMPDEST SWAP2 SWAP1 POP JUMP JUMPDEST PUSH0 PUSH8 0xFFFFFFFFFFFFFFFF DUP3 GT ISZERO PUSH2 0x3BE JUMPI PUSH2 0x3BD PUSH2 0x32C JUMP JUMPDEST JUMPDEST PUSH1 0x20 DUP3 MUL SWAP1 POP PUSH1 0x20 DUP2 ADD SWAP1 POP SWAP2 SWAP1 POP JUMP JUMPDEST PUSH0 DUP1 REVERT JUMPDEST PUSH0 DUP1 REVERT JUMPDEST PUSH0 PUSH8 0xFFFFFFFFFFFFFFFF DUP3 GT ISZERO PUSH2 0x3F1 JUMPI PUSH2 0x3F0 PUSH2 0x32C JUMP JUMPDEST JUMPDEST PUSH2 0x3FA DUP3 PUSH2 0x31C JUMP JUMPDEST SWAP1 POP PUSH1 0x20 DUP2 ADD SWAP1 POP SWAP2 SWAP1 POP JUMP JUMPDEST DUP3 DUP2 DUP4 CALLDATACOPY PUSH0 DUP4 DUP4 ADD MSTORE POP POP POP JUMP JUMPDEST PUSH0 PUSH2 0x427 PUSH2 0x422 DUP5 PUSH2 0x3D7 JUMP JUMPDEST PUSH2 0x38A JUMP JUMPDEST SWAP1 POP DUP3 DUP2 MSTORE PUSH1 0x20 DUP2 ADD DUP5 DUP5 DUP5 ADD GT ISZERO PUSH2 0x443 JUMPI PUSH2 0x442 PUSH2 0x3D3 JUMP JUMPDEST JUMPDEST PUSH2 0x44E DUP5 DUP3 DUP6 PUSH2 0x407 JUMP JUMPDEST POP SWAP4 SWAP3 POP POP POP JUMP JUMPDEST PUSH0 DUP3 PUSH1 0x1F DUP4 ADD SLT PUSH2 0x46A JUMPI PUSH2 0x469 PUSH2 0x318 JUMP JUMPDEST JUMPDEST DUP2 CALLDATALOAD PUSH2 0x47A DUP5 DUP3 PUSH1 0x20 DUP7 ADD PUSH2 0x415 JUMP JUMPDEST SWAP2 POP POP SWAP3 SWAP2 POP POP JUMP JUMPDEST PUSH0 PUSH2 0x495 PUSH2 0x490 DUP5 PUSH2 0x3A4 JUMP JUMPDEST PUSH2 0x38A JUMP JUMPDEST SWAP1 POP DUP1 DUP4 DUP3 MSTORE PUSH1 0x20 DUP3 ADD SWAP1 POP PUSH1 0x20 DUP5 MUL DUP4 ADD DUP6 DUP2 GT ISZERO PUSH2 0x4B8 JUMPI PUSH2 0x4B7 PUSH2 0x3CF JUMP JUMPDEST JUMPDEST DUP4 JUMPDEST DUP2 DUP2 LT ISZERO PUSH2 0x4FF JUMPI DUP1 CALLDATALOAD PUSH8 0xFFFFFFFFFFFFFFFF DUP2 GT ISZERO PUSH2 0x4DD JUMPI PUSH2 0x4DC PUSH2 0x318 JUMP JUMPDEST JUMPDEST DUP1 DUP7 ADD PUSH2 0x4EA DUP10 DUP3 PUSH2 0x456 JUMP JUMPDEST DUP6 MSTORE PUSH1 0x20 DUP6 ADD SWAP5 POP POP POP PUSH1 0x20 DUP2 ADD SWAP1 POP PUSH2 0x4BA JUMP JUMPDEST POP POP POP SWAP4 SWAP3 POP POP POP JUMP JUMPDEST PUSH0 DUP3 PUSH1 0x1F DUP4 ADD SLT PUSH2 0x51D JUMPI PUSH2 0x51C PUSH2 0x318 JUMP JUMPDEST JUMPDEST DUP2 CALLDATALOAD PUSH2 0x52D DUP5 DUP3 PUSH1 0x20 DUP7 ADD PUSH2 0x483 JUMP JUMPDEST SWAP2 POP POP SWAP3 SWAP2 POP POP JUMP JUMPDEST PUSH0 DUP1 PUSH0 PUSH1 0x60 DUP5 DUP7 SUB SLT ISZERO PUSH2 0x54D JUMPI PUSH2 0x54C PUSH2 0x2DD JUMP JUMPDEST JUMPDEST PUSH0 PUSH2 0x55A DUP7 DUP3 DUP8 ADD PUSH2 0x304 JUMP JUMPDEST SWAP4 POP POP PUSH1 0x20 PUSH2 0x56B DUP7 DUP3 DUP8 ADD PUSH2 0x304 JUMP JUMPDEST SWAP3 POP POP PUSH1 0x40 DUP5 ADD CALLDATALOAD PUSH8 0xFFFFFFFFFFFFFFFF DUP2 GT ISZERO PUSH2 0x58C JUMPI PUSH2 0x58B PUSH2 0x2E1 JUMP JUMPDEST JUMPDEST PUSH2 0x598 DUP7 DUP3 DUP8 ADD PUSH2 0x509 JUMP JUMPDEST SWAP2 POP POP SWAP3 POP SWAP3 POP SWAP3 JUMP JUMPDEST PUSH0 DUP1 PUSH1 0x40 DUP4 DUP6 SUB SLT ISZERO PUSH2 0x5B8 JUMPI PUSH2 0x5B7 PUSH2 0x2DD JUMP JUMPDEST JUMPDEST PUSH0 PUSH2 0x5C5 DUP6 DUP3 DUP7 ADD PUSH2 0x304 JUMP JUMPDEST SWAP3 POP POP PUSH1 0x20 PUSH2 0x5D6 DUP6 DUP3 DUP7 ADD PUSH2 0x304 JUMP JUMPDEST SWAP2 POP POP SWAP3 POP SWAP3 SWAP1 POP JUMP JUMPDEST PUSH0 DUP2 MLOAD SWAP1 POP SWAP2 SWAP1 POP JUMP JUMPDEST PUSH0 DUP3 DUP3 MSTORE PUSH1 0x20 DUP3 ADD SWAP1 POP SWAP3 SWAP2 POP POP JUMP JUMPDEST PUSH0 DUP2 SWAP1 POP PUSH1 0x20 DUP3 ADD SWAP1 POP SWAP2 SWAP1 POP JUMP JUMPDEST PUSH0 DUP2 MLOAD SWAP1 POP SWAP2 SWAP1 POP JUMP JUMPDEST PUSH0 DUP3 DUP3 MSTORE PUSH1 0x20 DUP3 ADD SWAP1 POP SWAP3 SWAP2 POP POP JUMP JUMPDEST DUP3 DUP2 DUP4 MCOPY PUSH0 DUP4 DUP4 ADD MSTORE POP POP POP JUMP JUMPDEST PUSH0 PUSH2 0x63B DUP3 PUSH2 0x609 JUMP JUMPDEST PUSH2 0x645 DUP2 DUP6 PUSH2 0x613 JUMP JUMPDEST SWAP4 POP PUSH2 0x655 DUP2 DUP6 PUSH1 0x20 DUP7 ADD PUSH2 0x623 JUMP JUMPDEST PUSH2 0x65E DUP2 PUSH2 0x31C JUMP JUMPDEST DUP5 ADD SWAP2 POP POP SWAP3 SWAP2 POP POP JUMP JUMPDEST PUSH0 PUSH2 0x674 DUP4 DUP4 PUSH2 0x631 JUMP JUMPDEST SWAP1 POP SWAP3 SWAP2 POP POP JUMP JUMPDEST PUSH0 PUSH1 0x20 DUP3 ADD SWAP1 POP SWAP2 SWAP1 POP JUMP JUMPDEST PUSH0 PUSH2 0x692 DUP3 PUSH2 0x5E0 JUMP JUMPDEST PUSH2 0x69C DUP2 DUP6 PUSH2 0x5EA JUMP JUMPDEST SWAP4 POP DUP4 PUSH1 0x20 DUP3 MUL DUP6 ADD PUSH2 0x6AE DUP6 PUSH2 0x5FA JUMP JUMPDEST DUP1 PUSH0 JUMPDEST DUP6 DUP2 LT ISZERO PUSH2 0x6E9 JUMPI DUP5 DUP5 SUB DUP10 MSTORE DUP2 MLOAD PUSH2 0x6CA DUP6 DUP3 PUSH2 0x669 JUMP JUMPDEST SWAP5 POP PUSH2 0x6D5 DUP4 PUSH2 0x67C JUMP JUMPDEST SWAP3 POP PUSH1 0x20 DUP11 ADD SWAP10 POP POP PUSH1 0x1 DUP2 ADD SWAP1 POP PUSH2 0x6B1 JUMP JUMPDEST POP DUP3 SWAP8 POP DUP8 SWAP6 POP POP POP POP POP POP SWAP3 SWAP2 POP POP JUMP JUMPDEST PUSH0 PUSH1 0x20 DUP3 ADD SWAP1 POP DUP2 DUP2 SUB PUSH0 DUP4 ADD MSTORE PUSH2 0x713 DUP2 DUP5 PUSH2 0x688 JUMP JUMPDEST SWAP1 POP SWAP3 SWAP2 POP POP JUMP JUMPDEST PUSH0 DUP3 DUP3 MSTORE PUSH1 0x20 DUP3 ADD SWAP1 POP SWAP3 SWAP2 POP POP JUMP JUMPDEST PUSH32 0x477565737473206D757374206265206C657373207468616E2034000000000000 PUSH0 DUP3 ADD MSTORE POP JUMP JUMPDEST PUSH0 PUSH2 0x75F PUSH1 0x1A DUP4 PUSH2 0x71B JUMP JUMPDEST SWAP2 POP PUSH2 0x76A DUP3 PUSH2 0x72B JUMP JUMPDEST PUSH1 0x20 DUP3 ADD SWAP1 POP SWAP2 SWAP1 POP JUMP JUMPDEST PUSH0 PUSH1 0x20 DUP3 ADD SWAP1 POP DUP2 DUP2 SUB PUSH0 DUP4 ADD MSTORE PUSH2 0x78C DUP2 PUSH2 0x753 JUMP JUMPDEST SWAP1 POP SWAP2 SWAP1 POP JUMP JUMPDEST PUSH32 0x4E487B7100000000000000000000000000000000000000000000000000000000 PUSH0 MSTORE PUSH1 0x22 PUSH1 0x4 MSTORE PUSH1 0x24 PUSH0 REVERT JUMPDEST PUSH0 PUSH1 0x2 DUP3 DIV SWAP1 POP PUSH1 0x1 DUP3 AND DUP1 PUSH2 0x7D7 JUMPI PUSH1 0x7F DUP3 AND SWAP2 POP JUMPDEST PUSH1 0x20 DUP3 LT DUP2 SUB PUSH2 0x7EA JUMPI PUSH2 0x7E9 PUSH2 0x793 JUMP JUMPDEST JUMPDEST POP SWAP2 SWAP1 POP JUMP JUMPDEST PUSH0 DUP2 SWAP1 POP DUP2 PUSH0 MSTORE PUSH1 0x20 PUSH0 KECCAK256 SWAP1 POP SWAP2 SWAP1 POP JUMP JUMPDEST PUSH0 PUSH1 0x20 PUSH1 0x1F DUP4 ADD DIV SWAP1 POP SWAP2 SWAP1 POP JUMP JUMPDEST PUSH0 DUP3 DUP3 SHL SWAP1 POP SWAP3 SWAP2 POP POP JUMP JUMPDEST PUSH0 PUSH1 0x8 DUP4 MUL PUSH2 0x84C PUSH32 0xFFFFFFFFFFFFFFFFFFFFFFFFFFFFFFFFFFFFFFFFFFFFFFFFFFFFFFFFFFFFFFFF DUP3 PUSH2 0x811 JUMP JUMPDEST PUSH2 0x856 DUP7 DUP4 PUSH2 0x811 JUMP JUMPDEST SWAP6 POP DUP1 NOT DUP5 AND SWAP4 POP DUP1 DUP7 AND DUP5 OR SWAP3 POP POP POP SWAP4 SWAP3 POP POP POP JUMP JUMPDEST PUSH0 DUP2 SWAP1 POP SWAP2 SWAP1 POP JUMP JUMPDEST PUSH0 PUSH2 0x891 PUSH2 0x88C PUSH2 0x887 DUP5 PUSH2 0x2E5 JUMP JUMPDEST PUSH2 0x86E JUMP JUMPDEST PUSH2 0x2E5 JUMP JUMPDEST SWAP1 POP SWAP2 SWAP1 POP JUMP JUMPDEST PUSH0 DUP2 SWAP1 POP SWAP2 SWAP1 POP JUMP JUMPDEST PUSH2 0x8AA DUP4 PUSH2 0x877 JUMP JUMPDEST PUSH2 0x8BE PUSH2 0x8B6 DUP3 PUSH2 0x898 JUMP JUMPDEST DUP5 DUP5 SLOAD PUSH2 0x81D JUMP JUMPDEST DUP3 SSTORE POP POP POP POP JUMP JUMPDEST PUSH0 SWAP1 JUMP JUMPDEST PUSH2 0x8D2 PUSH2 0x8C6 JUMP JUMPDEST PUSH2 0x8DD DUP2 DUP5 DUP5 PUSH2 0x8A1 JUMP JUMPDEST POP POP POP JUMP JUMPDEST JUMPDEST DUP2 DUP2 LT ISZERO PUSH2 0x900 JUMPI PUSH2 0x8F5 PUSH0 DUP3 PUSH2 0x8CA JUMP JUMPDEST PUSH1 0x1 DUP2 ADD SWAP1 POP PUSH2 0x8E3 JUMP JUMPDEST POP POP JUMP JUMPDEST PUSH1 0x1F DUP3 GT ISZERO PUSH2 0x945 JUMPI PUSH2 0x916 DUP2 PUSH2 0x7F0 JUMP JUMPDEST PUSH2 0x91F DUP5 PUSH2 0x802 JUMP JUMPDEST DUP2 ADD PUSH1 0x20 DUP6 LT ISZERO PUSH2 0x92E JUMPI DUP2 SWAP1 POP JUMPDEST PUSH2 0x942 PUSH2 0x93A DUP6 PUSH2 0x802 JUMP JUMPDEST DUP4 ADD DUP3 PUSH2 0x8E2 JUMP JUMPDEST POP POP JUMPDEST POP POP POP JUMP JUMPDEST PUSH0 DUP3 DUP3 SHR SWAP1 POP SWAP3 SWAP2 POP POP JUMP JUMPDEST PUSH0 PUSH2 0x965 PUSH0 NOT DUP5 PUSH1 0x8 MUL PUSH2 0x94A JUMP JUMPDEST NOT DUP1 DUP4 AND SWAP2 POP POP SWAP3 SWAP2 POP POP JUMP JUMPDEST PUSH0 PUSH2 0x97D DUP4 DUP4 PUSH2 0x956 JUMP JUMPDEST SWAP2 POP DUP3 PUSH1 0x2 MUL DUP3 OR SWAP1 POP SWAP3 SWAP2 POP POP JUMP JUMPDEST PUSH2 0x996 DUP3 PUSH2 0x609 JUMP JUMPDEST PUSH8 0xFFFFFFFFFFFFFFFF DUP2 GT ISZERO PUSH2 0x9AF JUMPI PUSH2 0x9AE PUSH2 0x32C JUMP JUMPDEST JUMPDEST PUSH2 0x9B9 DUP3 SLOAD PUSH2 0x7C0 JUMP JUMPDEST PUSH2 0x9C4 DUP3 DUP3 DUP6 PUSH2 0x904 JUMP JUMPDEST PUSH0 PUSH1 0x20 SWAP1 POP PUSH1 0x1F DUP4 GT PUSH1 0x1 DUP2 EQ PUSH2 0x9F5 JUMPI PUSH0 DUP5 ISZERO PUSH2 0x9E3 JUMPI DUP3 DUP8 ADD MLOAD SWAP1 POP JUMPDEST PUSH2 0x9ED DUP6 DUP3 PUSH2 0x972 JUMP JUMPDEST DUP7 SSTORE POP PUSH2 0xA54 JUMP JUMPDEST PUSH1 0x1F NOT DUP5 AND PUSH2 0xA03 DUP7 PUSH2 0x7F0 JUMP JUMPDEST PUSH0 JUMPDEST DUP3 DUP2 LT ISZERO PUSH2 0xA2A JUMPI DUP5 DUP10 ADD MLOAD DUP3 SSTORE PUSH1 0x1 DUP3 ADD SWAP2 POP PUSH1 0x20 DUP6 ADD SWAP5 POP PUSH1 0x20 DUP2 ADD SWAP1 POP PUSH2 0xA05 JUMP JUMPDEST DUP7 DUP4 LT ISZERO PUSH2 0xA47 JUMPI DUP5 DUP10 ADD MLOAD PUSH2 0xA43 PUSH1 0x1F DUP10 AND DUP3 PUSH2 0x956 JUMP JUMPDEST DUP4 SSTORE POP JUMPDEST PUSH1 0x1 PUSH1 0x2 DUP9 MUL ADD DUP9 SSTORE POP POP POP JUMPDEST POP POP POP POP POP POP JUMP INVALID LOG2 PUSH5 0x6970667358 0x22 SLT KECCAK256 TIMESTAMP 0xA6 0x2B 0xA7 TLOAD 0x22 0xB2 0xE0 0xAE LOG0 CALLDATASIZE TSTORE EXTCODESIZE 0xB4 0xFC DUP6 0xD8 ADDMOD DUP16 PUSH8 0xD856ABAA5208DBEA PUSH2 0x39C3 SWAP12 PUSH5 0x736F6C6343 STOP ADDMOD BYTE STOP CALLER "
				},
				"gasEstimates": {
					"creation": {
						"codeDepositCost": "541200",
						"executionCost": "573",
						"totalCost": "541773"
					},
					"external": {
						"bookRoom(uint256,uint256,string[])": "infinite",
						"getGuests(uint256,uint256)": "infinite"
					}
				},
				"methodIdentifiers": {
					"bookRoom(uint256,uint256,string[])": "6b0a6e6f",
					"getGuests(uint256,uint256)": "ec0a0930"
				}
			},
			"storageLayout": {
				"storage": [
					{
						"astId": 452,
						"contract": "solidity/solidity51~60.sol:Q60",
						"label": "roomBookings",
						"offset": 0,
						"slot": "0",
						"type": "t_mapping(t_uint256,t_mapping(t_uint256,t_array(t_string_storage)dyn_storage))"
					}
				],
				"types": {
					"t_array(t_string_storage)dyn_storage": {
						"base": "t_string_storage",
						"encoding": "dynamic_array",
						"label": "string[]",
						"numberOfBytes": "32"
					},
					"t_mapping(t_uint256,t_array(t_string_storage)dyn_storage)": {
						"encoding": "mapping",
						"key": "t_uint256",
						"label": "mapping(uint256 => string[])",
						"numberOfBytes": "32",
						"value": "t_array(t_string_storage)dyn_storage"
					},
					"t_mapping(t_uint256,t_mapping(t_uint256,t_array(t_string_storage)dyn_storage))": {
						"encoding": "mapping",
						"key": "t_uint256",
						"label": "mapping(uint256 => mapping(uint256 => string[]))",
						"numberOfBytes": "32",
						"value": "t_mapping(t_uint256,t_array(t_string_storage)dyn_storage)"
					},
					"t_string_storage": {
						"encoding": "bytes",
						"label": "string",
						"numberOfBytes": "32"
					},
					"t_uint256": {
						"encoding": "inplace",
						"label": "uint256",
						"numberOfBytes": "32"
					}
				}
			},
			"userdoc": {
				"kind": "user",
				"methods": {},
				"version": 1
			}
		}
	}
}