{
	"solidity/solidity51~60.sol": {
		"Q52": {
			"abi": [
				{
					"inputs": [
						{
							"internalType": "string",
							"name": "_name",
							"type": "string"
						},
						{
							"internalType": "uint256",
							"name": "_birthdate",
							"type": "uint256"
						},
						{
							"internalType": "address",
							"name": "_wallet",
							"type": "address"
						}
					],
					"name": "generateID",
					"outputs": [
						{
							"internalType": "bytes10",
							"name": "",
							"type": "bytes10"
						}
					],
					"stateMutability": "pure",
					"type": "function"
				}
			],
			"devdoc": {
				"kind": "dev",
				"methods": {},
				"version": 1
			},
			"evm": {
				"assembly": "    /* \"solidity/solidity51~60.sol\":653:1098  contract Q52 {... */\n  mstore(0x40, 0x80)\n  callvalue\n  dup1\n  iszero\n  tag_1\n  jumpi\n  0x00\n  dup1\n  revert\ntag_1:\n  pop\n  dataSize(sub_0)\n  dup1\n  dataOffset(sub_0)\n  0x00\n  codecopy\n  0x00\n  return\nstop\n\nsub_0: assembly {\n        /* \"solidity/solidity51~60.sol\":653:1098  contract Q52 {... */\n      mstore(0x40, 0x80)\n      callvalue\n      dup1\n      iszero\n      tag_1\n      jumpi\n      0x00\n      dup1\n      revert\n    tag_1:\n      pop\n      jumpi(tag_2, lt(calldatasize, 0x04))\n      shr(0xe0, calldataload(0x00))\n      dup1\n      0xe05be33d\n      eq\n      tag_3\n      jumpi\n    tag_2:\n      0x00\n      dup1\n      revert\n        /* \"solidity/solidity51~60.sol\":871:1096  function generateID(string memory _name, uint256 _birthdate, address _wallet) public pure returns (bytes10) {... */\n    tag_3:\n      tag_4\n      0x04\n      dup1\n      calldatasize\n      sub\n      dup2\n      add\n      swap1\n      tag_5\n      swap2\n      swap1\n      tag_6\n      jump\t// in\n    tag_5:\n      tag_7\n      jump\t// in\n    tag_4:\n      mload(0x40)\n      tag_8\n      swap2\n      swap1\n      tag_9\n      jump\t// in\n    tag_8:\n      mload(0x40)\n      dup1\n      swap2\n      sub\n      swap1\n      return\n    tag_7:\n        /* \"solidity/solidity51~60.sol\":970:977  bytes10 */\n      0x00\n        /* \"solidity/solidity51~60.sol\":989:1001  bytes32 hash */\n      dup1\n        /* \"solidity/solidity51~60.sol\":1031:1036  _name */\n      dup5\n        /* \"solidity/solidity51~60.sol\":1038:1048  _birthdate */\n      dup5\n        /* \"solidity/solidity51~60.sol\":1050:1057  _wallet */\n      dup5\n        /* \"solidity/solidity51~60.sol\":1014:1058  abi.encodePacked(_name, _birthdate, _wallet) */\n      add(0x20, mload(0x40))\n      tag_11\n      swap4\n      swap3\n      swap2\n      swap1\n      tag_12\n      jump\t// in\n    tag_11:\n      mload(0x40)\n      0x20\n      dup2\n      dup4\n      sub\n      sub\n      dup2\n      mstore\n      swap1\n      0x40\n      mstore\n        /* \"solidity/solidity51~60.sol\":1004:1059  keccak256(abi.encodePacked(_name, _birthdate, _wallet)) */\n      dup1\n      mload\n      swap1\n      0x20\n      add\n      keccak256\n        /* \"solidity/solidity51~60.sol\":989:1059  bytes32 hash = keccak256(abi.encodePacked(_name, _birthdate, _wallet)) */\n      swap1\n      pop\n        /* \"solidity/solidity51~60.sol\":1084:1088  hash */\n      dup1\n        /* \"solidity/solidity51~60.sol\":1069:1089  return bytes10(hash) */\n      swap2\n      pop\n      pop\n        /* \"solidity/solidity51~60.sol\":871:1096  function generateID(string memory _name, uint256 _birthdate, address _wallet) public pure returns (bytes10) {... */\n      swap4\n      swap3\n      pop\n      pop\n      pop\n      jump\t// out\n        /* \"#utility.yul\":7:82   */\n    tag_13:\n        /* \"#utility.yul\":40:46   */\n      0x00\n        /* \"#utility.yul\":73:75   */\n      0x40\n        /* \"#utility.yul\":67:76   */\n      mload\n        /* \"#utility.yul\":57:76   */\n      swap1\n      pop\n        /* \"#utility.yul\":7:82   */\n      swap1\n      jump\t// out\n        /* \"#utility.yul\":88:205   */\n    tag_14:\n        /* \"#utility.yul\":197:198   */\n      0x00\n        /* \"#utility.yul\":194:195   */\n      dup1\n        /* \"#utility.yul\":187:199   */\n      revert\n        /* \"#utility.yul\":211:328   */\n    tag_15:\n        /* \"#utility.yul\":320:321   */\n      0x00\n        /* \"#utility.yul\":317:318   */\n      dup1\n        /* \"#utility.yul\":310:322   */\n      revert\n        /* \"#utility.yul\":334:451   */\n    tag_16:\n        /* \"#utility.yul\":443:444   */\n      0x00\n        /* \"#utility.yul\":440:441   */\n      dup1\n        /* \"#utility.yul\":433:445   */\n      revert\n        /* \"#utility.yul\":457:574   */\n    tag_17:\n        /* \"#utility.yul\":566:567   */\n      0x00\n        /* \"#utility.yul\":563:564   */\n      dup1\n        /* \"#utility.yul\":556:568   */\n      revert\n        /* \"#utility.yul\":580:682   */\n    tag_18:\n        /* \"#utility.yul\":621:627   */\n      0x00\n        /* \"#utility.yul\":672:674   */\n      0x1f\n        /* \"#utility.yul\":668:675   */\n      not\n        /* \"#utility.yul\":663:665   */\n      0x1f\n        /* \"#utility.yul\":656:661   */\n      dup4\n        /* \"#utility.yul\":652:666   */\n      add\n        /* \"#utility.yul\":648:676   */\n      and\n        /* \"#utility.yul\":638:676   */\n      swap1\n      pop\n        /* \"#utility.yul\":580:682   */\n      swap2\n      swap1\n      pop\n      jump\t// out\n        /* \"#utility.yul\":688:868   */\n    tag_19:\n        /* \"#utility.yul\":736:813   */\n      0x4e487b7100000000000000000000000000000000000000000000000000000000\n        /* \"#utility.yul\":733:734   */\n      0x00\n        /* \"#utility.yul\":726:814   */\n      mstore\n        /* \"#utility.yul\":833:837   */\n      0x41\n        /* \"#utility.yul\":830:831   */\n      0x04\n        /* \"#utility.yul\":823:838   */\n      mstore\n        /* \"#utility.yul\":857:861   */\n      0x24\n        /* \"#utility.yul\":854:855   */\n      0x00\n        /* \"#utility.yul\":847:862   */\n      revert\n        /* \"#utility.yul\":874:1155   */\n    tag_20:\n        /* \"#utility.yul\":957:984   */\n      tag_54\n        /* \"#utility.yul\":979:983   */\n      dup3\n        /* \"#utility.yul\":957:984   */\n      tag_18\n      jump\t// in\n    tag_54:\n        /* \"#utility.yul\":949:955   */\n      dup2\n        /* \"#utility.yul\":945:985   */\n      add\n        /* \"#utility.yul\":1087:1093   */\n      dup2\n        /* \"#utility.yul\":1075:1085   */\n      dup2\n        /* \"#utility.yul\":1072:1094   */\n      lt\n        /* \"#utility.yul\":1051:1069   */\n      0xffffffffffffffff\n        /* \"#utility.yul\":1039:1049   */\n      dup3\n        /* \"#utility.yul\":1036:1070   */\n      gt\n        /* \"#utility.yul\":1033:1095   */\n      or\n        /* \"#utility.yul\":1030:1118   */\n      iszero\n      tag_55\n      jumpi\n        /* \"#utility.yul\":1098:1116   */\n      tag_56\n      tag_19\n      jump\t// in\n    tag_56:\n        /* \"#utility.yul\":1030:1118   */\n    tag_55:\n        /* \"#utility.yul\":1138:1148   */\n      dup1\n        /* \"#utility.yul\":1134:1136   */\n      0x40\n        /* \"#utility.yul\":1127:1149   */\n      mstore\n        /* \"#utility.yul\":917:1155   */\n      pop\n        /* \"#utility.yul\":874:1155   */\n      pop\n      pop\n      jump\t// out\n        /* \"#utility.yul\":1161:1290   */\n    tag_21:\n        /* \"#utility.yul\":1195:1201   */\n      0x00\n        /* \"#utility.yul\":1222:1242   */\n      tag_58\n      tag_13\n      jump\t// in\n    tag_58:\n        /* \"#utility.yul\":1212:1242   */\n      swap1\n      pop\n        /* \"#utility.yul\":1251:1284   */\n      tag_59\n        /* \"#utility.yul\":1279:1283   */\n      dup3\n        /* \"#utility.yul\":1271:1277   */\n      dup3\n        /* \"#utility.yul\":1251:1284   */\n      tag_20\n      jump\t// in\n    tag_59:\n        /* \"#utility.yul\":1161:1290   */\n      swap2\n      swap1\n      pop\n      jump\t// out\n        /* \"#utility.yul\":1296:1604   */\n    tag_22:\n        /* \"#utility.yul\":1358:1362   */\n      0x00\n        /* \"#utility.yul\":1448:1466   */\n      0xffffffffffffffff\n        /* \"#utility.yul\":1440:1446   */\n      dup3\n        /* \"#utility.yul\":1437:1467   */\n      gt\n        /* \"#utility.yul\":1434:1490   */\n      iszero\n      tag_61\n      jumpi\n        /* \"#utility.yul\":1470:1488   */\n      tag_62\n      tag_19\n      jump\t// in\n    tag_62:\n        /* \"#utility.yul\":1434:1490   */\n    tag_61:\n        /* \"#utility.yul\":1508:1537   */\n      tag_63\n        /* \"#utility.yul\":1530:1536   */\n      dup3\n        /* \"#utility.yul\":1508:1537   */\n      tag_18\n      jump\t// in\n    tag_63:\n        /* \"#utility.yul\":1500:1537   */\n      swap1\n      pop\n        /* \"#utility.yul\":1592:1596   */\n      0x20\n        /* \"#utility.yul\":1586:1590   */\n      dup2\n        /* \"#utility.yul\":1582:1597   */\n      add\n        /* \"#utility.yul\":1574:1597   */\n      swap1\n      pop\n        /* \"#utility.yul\":1296:1604   */\n      swap2\n      swap1\n      pop\n      jump\t// out\n        /* \"#utility.yul\":1610:1758   */\n    tag_23:\n        /* \"#utility.yul\":1708:1714   */\n      dup3\n        /* \"#utility.yul\":1703:1706   */\n      dup2\n        /* \"#utility.yul\":1698:1701   */\n      dup4\n        /* \"#utility.yul\":1685:1715   */\n      calldatacopy\n        /* \"#utility.yul\":1749:1750   */\n      0x00\n        /* \"#utility.yul\":1740:1746   */\n      dup4\n        /* \"#utility.yul\":1735:1738   */\n      dup4\n        /* \"#utility.yul\":1731:1747   */\n      add\n        /* \"#utility.yul\":1724:1751   */\n      mstore\n        /* \"#utility.yul\":1610:1758   */\n      pop\n      pop\n      pop\n      jump\t// out\n        /* \"#utility.yul\":1764:2189   */\n    tag_24:\n        /* \"#utility.yul\":1842:1847   */\n      0x00\n        /* \"#utility.yul\":1867:1933   */\n      tag_66\n        /* \"#utility.yul\":1883:1932   */\n      tag_67\n        /* \"#utility.yul\":1925:1931   */\n      dup5\n        /* \"#utility.yul\":1883:1932   */\n      tag_22\n      jump\t// in\n    tag_67:\n        /* \"#utility.yul\":1867:1933   */\n      tag_21\n      jump\t// in\n    tag_66:\n        /* \"#utility.yul\":1858:1933   */\n      swap1\n      pop\n        /* \"#utility.yul\":1956:1962   */\n      dup3\n        /* \"#utility.yul\":1949:1954   */\n      dup2\n        /* \"#utility.yul\":1942:1963   */\n      mstore\n        /* \"#utility.yul\":1994:1998   */\n      0x20\n        /* \"#utility.yul\":1987:1992   */\n      dup2\n        /* \"#utility.yul\":1983:1999   */\n      add\n        /* \"#utility.yul\":2032:2035   */\n      dup5\n        /* \"#utility.yul\":2023:2029   */\n      dup5\n        /* \"#utility.yul\":2018:2021   */\n      dup5\n        /* \"#utility.yul\":2014:2030   */\n      add\n        /* \"#utility.yul\":2011:2036   */\n      gt\n        /* \"#utility.yul\":2008:2120   */\n      iszero\n      tag_68\n      jumpi\n        /* \"#utility.yul\":2039:2118   */\n      tag_69\n      tag_17\n      jump\t// in\n    tag_69:\n        /* \"#utility.yul\":2008:2120   */\n    tag_68:\n        /* \"#utility.yul\":2129:2183   */\n      tag_70\n        /* \"#utility.yul\":2176:2182   */\n      dup5\n        /* \"#utility.yul\":2171:2174   */\n      dup3\n        /* \"#utility.yul\":2166:2169   */\n      dup6\n        /* \"#utility.yul\":2129:2183   */\n      tag_23\n      jump\t// in\n    tag_70:\n        /* \"#utility.yul\":1848:2189   */\n      pop\n        /* \"#utility.yul\":1764:2189   */\n      swap4\n      swap3\n      pop\n      pop\n      pop\n      jump\t// out\n        /* \"#utility.yul\":2209:2549   */\n    tag_25:\n        /* \"#utility.yul\":2265:2270   */\n      0x00\n        /* \"#utility.yul\":2314:2317   */\n      dup3\n        /* \"#utility.yul\":2307:2311   */\n      0x1f\n        /* \"#utility.yul\":2299:2305   */\n      dup4\n        /* \"#utility.yul\":2295:2312   */\n      add\n        /* \"#utility.yul\":2291:2318   */\n      slt\n        /* \"#utility.yul\":2281:2403   */\n      tag_72\n      jumpi\n        /* \"#utility.yul\":2322:2401   */\n      tag_73\n      tag_16\n      jump\t// in\n    tag_73:\n        /* \"#utility.yul\":2281:2403   */\n    tag_72:\n        /* \"#utility.yul\":2439:2445   */\n      dup2\n        /* \"#utility.yul\":2426:2446   */\n      calldataload\n        /* \"#utility.yul\":2464:2543   */\n      tag_74\n        /* \"#utility.yul\":2539:2542   */\n      dup5\n        /* \"#utility.yul\":2531:2537   */\n      dup3\n        /* \"#utility.yul\":2524:2528   */\n      0x20\n        /* \"#utility.yul\":2516:2522   */\n      dup7\n        /* \"#utility.yul\":2512:2529   */\n      add\n        /* \"#utility.yul\":2464:2543   */\n      tag_24\n      jump\t// in\n    tag_74:\n        /* \"#utility.yul\":2455:2543   */\n      swap2\n      pop\n        /* \"#utility.yul\":2271:2549   */\n      pop\n        /* \"#utility.yul\":2209:2549   */\n      swap3\n      swap2\n      pop\n      pop\n      jump\t// out\n        /* \"#utility.yul\":2555:2632   */\n    tag_26:\n        /* \"#utility.yul\":2592:2599   */\n      0x00\n        /* \"#utility.yul\":2621:2626   */\n      dup2\n        /* \"#utility.yul\":2610:2626   */\n      swap1\n      pop\n        /* \"#utility.yul\":2555:2632   */\n      swap2\n      swap1\n      pop\n      jump\t// out\n        /* \"#utility.yul\":2638:2760   */\n    tag_27:\n        /* \"#utility.yul\":2711:2735   */\n      tag_77\n        /* \"#utility.yul\":2729:2734   */\n      dup2\n        /* \"#utility.yul\":2711:2735   */\n      tag_26\n      jump\t// in\n    tag_77:\n        /* \"#utility.yul\":2704:2709   */\n      dup2\n        /* \"#utility.yul\":2701:2736   */\n      eq\n        /* \"#utility.yul\":2691:2754   */\n      tag_78\n      jumpi\n        /* \"#utility.yul\":2750:2751   */\n      0x00\n        /* \"#utility.yul\":2747:2748   */\n      dup1\n        /* \"#utility.yul\":2740:2752   */\n      revert\n        /* \"#utility.yul\":2691:2754   */\n    tag_78:\n        /* \"#utility.yul\":2638:2760   */\n      pop\n      jump\t// out\n        /* \"#utility.yul\":2766:2905   */\n    tag_28:\n        /* \"#utility.yul\":2812:2817   */\n      0x00\n        /* \"#utility.yul\":2850:2856   */\n      dup2\n        /* \"#utility.yul\":2837:2857   */\n      calldataload\n        /* \"#utility.yul\":2828:2857   */\n      swap1\n      pop\n        /* \"#utility.yul\":2866:2899   */\n      tag_80\n        /* \"#utility.yul\":2893:2898   */\n      dup2\n        /* \"#utility.yul\":2866:2899   */\n      tag_27\n      jump\t// in\n    tag_80:\n        /* \"#utility.yul\":2766:2905   */\n      swap3\n      swap2\n      pop\n      pop\n      jump\t// out\n        /* \"#utility.yul\":2911:3037   */\n    tag_29:\n        /* \"#utility.yul\":2948:2955   */\n      0x00\n        /* \"#utility.yul\":2988:3030   */\n      0xffffffffffffffffffffffffffffffffffffffff\n        /* \"#utility.yul\":2981:2986   */\n      dup3\n        /* \"#utility.yul\":2977:3031   */\n      and\n        /* \"#utility.yul\":2966:3031   */\n      swap1\n      pop\n        /* \"#utility.yul\":2911:3037   */\n      swap2\n      swap1\n      pop\n      jump\t// out\n        /* \"#utility.yul\":3043:3139   */\n    tag_30:\n        /* \"#utility.yul\":3080:3087   */\n      0x00\n        /* \"#utility.yul\":3109:3133   */\n      tag_83\n        /* \"#utility.yul\":3127:3132   */\n      dup3\n        /* \"#utility.yul\":3109:3133   */\n      tag_29\n      jump\t// in\n    tag_83:\n        /* \"#utility.yul\":3098:3133   */\n      swap1\n      pop\n        /* \"#utility.yul\":3043:3139   */\n      swap2\n      swap1\n      pop\n      jump\t// out\n        /* \"#utility.yul\":3145:3267   */\n    tag_31:\n        /* \"#utility.yul\":3218:3242   */\n      tag_85\n        /* \"#utility.yul\":3236:3241   */\n      dup2\n        /* \"#utility.yul\":3218:3242   */\n      tag_30\n      jump\t// in\n    tag_85:\n        /* \"#utility.yul\":3211:3216   */\n      dup2\n        /* \"#utility.yul\":3208:3243   */\n      eq\n        /* \"#utility.yul\":3198:3261   */\n      tag_86\n      jumpi\n        /* \"#utility.yul\":3257:3258   */\n      0x00\n        /* \"#utility.yul\":3254:3255   */\n      dup1\n        /* \"#utility.yul\":3247:3259   */\n      revert\n        /* \"#utility.yul\":3198:3261   */\n    tag_86:\n        /* \"#utility.yul\":3145:3267   */\n      pop\n      jump\t// out\n        /* \"#utility.yul\":3273:3412   */\n    tag_32:\n        /* \"#utility.yul\":3319:3324   */\n      0x00\n        /* \"#utility.yul\":3357:3363   */\n      dup2\n        /* \"#utility.yul\":3344:3364   */\n      calldataload\n        /* \"#utility.yul\":3335:3364   */\n      swap1\n      pop\n        /* \"#utility.yul\":3373:3406   */\n      tag_88\n        /* \"#utility.yul\":3400:3405   */\n      dup2\n        /* \"#utility.yul\":3373:3406   */\n      tag_31\n      jump\t// in\n    tag_88:\n        /* \"#utility.yul\":3273:3412   */\n      swap3\n      swap2\n      pop\n      pop\n      jump\t// out\n        /* \"#utility.yul\":3418:4217   */\n    tag_6:\n        /* \"#utility.yul\":3505:3511   */\n      0x00\n        /* \"#utility.yul\":3513:3519   */\n      dup1\n        /* \"#utility.yul\":3521:3527   */\n      0x00\n        /* \"#utility.yul\":3570:3572   */\n      0x60\n        /* \"#utility.yul\":3558:3567   */\n      dup5\n        /* \"#utility.yul\":3549:3556   */\n      dup7\n        /* \"#utility.yul\":3545:3568   */\n      sub\n        /* \"#utility.yul\":3541:3573   */\n      slt\n        /* \"#utility.yul\":3538:3657   */\n      iszero\n      tag_90\n      jumpi\n        /* \"#utility.yul\":3576:3655   */\n      tag_91\n      tag_14\n      jump\t// in\n    tag_91:\n        /* \"#utility.yul\":3538:3657   */\n    tag_90:\n        /* \"#utility.yul\":3724:3725   */\n      0x00\n        /* \"#utility.yul\":3713:3722   */\n      dup5\n        /* \"#utility.yul\":3709:3726   */\n      add\n        /* \"#utility.yul\":3696:3727   */\n      calldataload\n        /* \"#utility.yul\":3754:3772   */\n      0xffffffffffffffff\n        /* \"#utility.yul\":3746:3752   */\n      dup2\n        /* \"#utility.yul\":3743:3773   */\n      gt\n        /* \"#utility.yul\":3740:3857   */\n      iszero\n      tag_92\n      jumpi\n        /* \"#utility.yul\":3776:3855   */\n      tag_93\n      tag_15\n      jump\t// in\n    tag_93:\n        /* \"#utility.yul\":3740:3857   */\n    tag_92:\n        /* \"#utility.yul\":3881:3944   */\n      tag_94\n        /* \"#utility.yul\":3936:3943   */\n      dup7\n        /* \"#utility.yul\":3927:3933   */\n      dup3\n        /* \"#utility.yul\":3916:3925   */\n      dup8\n        /* \"#utility.yul\":3912:3934   */\n      add\n        /* \"#utility.yul\":3881:3944   */\n      tag_25\n      jump\t// in\n    tag_94:\n        /* \"#utility.yul\":3871:3944   */\n      swap4\n      pop\n        /* \"#utility.yul\":3667:3954   */\n      pop\n        /* \"#utility.yul\":3993:3995   */\n      0x20\n        /* \"#utility.yul\":4019:4072   */\n      tag_95\n        /* \"#utility.yul\":4064:4071   */\n      dup7\n        /* \"#utility.yul\":4055:4061   */\n      dup3\n        /* \"#utility.yul\":4044:4053   */\n      dup8\n        /* \"#utility.yul\":4040:4062   */\n      add\n        /* \"#utility.yul\":4019:4072   */\n      tag_28\n      jump\t// in\n    tag_95:\n        /* \"#utility.yul\":4009:4072   */\n      swap3\n      pop\n        /* \"#utility.yul\":3964:4082   */\n      pop\n        /* \"#utility.yul\":4121:4123   */\n      0x40\n        /* \"#utility.yul\":4147:4200   */\n      tag_96\n        /* \"#utility.yul\":4192:4199   */\n      dup7\n        /* \"#utility.yul\":4183:4189   */\n      dup3\n        /* \"#utility.yul\":4172:4181   */\n      dup8\n        /* \"#utility.yul\":4168:4190   */\n      add\n        /* \"#utility.yul\":4147:4200   */\n      tag_32\n      jump\t// in\n    tag_96:\n        /* \"#utility.yul\":4137:4200   */\n      swap2\n      pop\n        /* \"#utility.yul\":4092:4210   */\n      pop\n        /* \"#utility.yul\":3418:4217   */\n      swap3\n      pop\n      swap3\n      pop\n      swap3\n      jump\t// out\n        /* \"#utility.yul\":4223:4373   */\n    tag_33:\n        /* \"#utility.yul\":4260:4267   */\n      0x00\n        /* \"#utility.yul\":4300:4366   */\n      0xffffffffffffffffffff00000000000000000000000000000000000000000000\n        /* \"#utility.yul\":4293:4298   */\n      dup3\n        /* \"#utility.yul\":4289:4367   */\n      and\n        /* \"#utility.yul\":4278:4367   */\n      swap1\n      pop\n        /* \"#utility.yul\":4223:4373   */\n      swap2\n      swap1\n      pop\n      jump\t// out\n        /* \"#utility.yul\":4379:4497   */\n    tag_34:\n        /* \"#utility.yul\":4466:4490   */\n      tag_99\n        /* \"#utility.yul\":4484:4489   */\n      dup2\n        /* \"#utility.yul\":4466:4490   */\n      tag_33\n      jump\t// in\n    tag_99:\n        /* \"#utility.yul\":4461:4464   */\n      dup3\n        /* \"#utility.yul\":4454:4491   */\n      mstore\n        /* \"#utility.yul\":4379:4497   */\n      pop\n      pop\n      jump\t// out\n        /* \"#utility.yul\":4503:4725   */\n    tag_9:\n        /* \"#utility.yul\":4596:4600   */\n      0x00\n        /* \"#utility.yul\":4634:4636   */\n      0x20\n        /* \"#utility.yul\":4623:4632   */\n      dup3\n        /* \"#utility.yul\":4619:4637   */\n      add\n        /* \"#utility.yul\":4611:4637   */\n      swap1\n      pop\n        /* \"#utility.yul\":4647:4718   */\n      tag_101\n        /* \"#utility.yul\":4715:4716   */\n      0x00\n        /* \"#utility.yul\":4704:4713   */\n      dup4\n        /* \"#utility.yul\":4700:4717   */\n      add\n        /* \"#utility.yul\":4691:4697   */\n      dup5\n        /* \"#utility.yul\":4647:4718   */\n      tag_34\n      jump\t// in\n    tag_101:\n        /* \"#utility.yul\":4503:4725   */\n      swap3\n      swap2\n      pop\n      pop\n      jump\t// out\n        /* \"#utility.yul\":4731:4830   */\n    tag_35:\n        /* \"#utility.yul\":4783:4789   */\n      0x00\n        /* \"#utility.yul\":4817:4822   */\n      dup2\n        /* \"#utility.yul\":4811:4823   */\n      mload\n        /* \"#utility.yul\":4801:4823   */\n      swap1\n      pop\n        /* \"#utility.yul\":4731:4830   */\n      swap2\n      swap1\n      pop\n      jump\t// out\n        /* \"#utility.yul\":4836:4984   */\n    tag_36:\n        /* \"#utility.yul\":4938:4949   */\n      0x00\n        /* \"#utility.yul\":4975:4978   */\n      dup2\n        /* \"#utility.yul\":4960:4978   */\n      swap1\n      pop\n        /* \"#utility.yul\":4836:4984   */\n      swap3\n      swap2\n      pop\n      pop\n      jump\t// out\n        /* \"#utility.yul\":4990:5129   */\n    tag_37:\n        /* \"#utility.yul\":5079:5085   */\n      dup3\n        /* \"#utility.yul\":5074:5077   */\n      dup2\n        /* \"#utility.yul\":5069:5072   */\n      dup4\n        /* \"#utility.yul\":5063:5086   */\n      mcopy\n        /* \"#utility.yul\":5120:5121   */\n      0x00\n        /* \"#utility.yul\":5111:5117   */\n      dup4\n        /* \"#utility.yul\":5106:5109   */\n      dup4\n        /* \"#utility.yul\":5102:5118   */\n      add\n        /* \"#utility.yul\":5095:5122   */\n      mstore\n        /* \"#utility.yul\":4990:5129   */\n      pop\n      pop\n      pop\n      jump\t// out\n        /* \"#utility.yul\":5135:5525   */\n    tag_38:\n        /* \"#utility.yul\":5241:5244   */\n      0x00\n        /* \"#utility.yul\":5269:5308   */\n      tag_106\n        /* \"#utility.yul\":5302:5307   */\n      dup3\n        /* \"#utility.yul\":5269:5308   */\n      tag_35\n      jump\t// in\n    tag_106:\n        /* \"#utility.yul\":5324:5413   */\n      tag_107\n        /* \"#utility.yul\":5406:5412   */\n      dup2\n        /* \"#utility.yul\":5401:5404   */\n      dup6\n        /* \"#utility.yul\":5324:5413   */\n      tag_36\n      jump\t// in\n    tag_107:\n        /* \"#utility.yul\":5317:5413   */\n      swap4\n      pop\n        /* \"#utility.yul\":5422:5487   */\n      tag_108\n        /* \"#utility.yul\":5480:5486   */\n      dup2\n        /* \"#utility.yul\":5475:5478   */\n      dup6\n        /* \"#utility.yul\":5468:5472   */\n      0x20\n        /* \"#utility.yul\":5461:5466   */\n      dup7\n        /* \"#utility.yul\":5457:5473   */\n      add\n        /* \"#utility.yul\":5422:5487   */\n      tag_37\n      jump\t// in\n    tag_108:\n        /* \"#utility.yul\":5512:5518   */\n      dup1\n        /* \"#utility.yul\":5507:5510   */\n      dup5\n        /* \"#utility.yul\":5503:5519   */\n      add\n        /* \"#utility.yul\":5496:5519   */\n      swap2\n      pop\n        /* \"#utility.yul\":5245:5525   */\n      pop\n        /* \"#utility.yul\":5135:5525   */\n      swap3\n      swap2\n      pop\n      pop\n      jump\t// out\n        /* \"#utility.yul\":5531:5610   */\n    tag_39:\n        /* \"#utility.yul\":5570:5577   */\n      0x00\n        /* \"#utility.yul\":5599:5604   */\n      dup2\n        /* \"#utility.yul\":5588:5604   */\n      swap1\n      pop\n        /* \"#utility.yul\":5531:5610   */\n      swap2\n      swap1\n      pop\n      jump\t// out\n        /* \"#utility.yul\":5616:5773   */\n    tag_40:\n        /* \"#utility.yul\":5721:5766   */\n      tag_111\n        /* \"#utility.yul\":5741:5765   */\n      tag_112\n        /* \"#utility.yul\":5759:5764   */\n      dup3\n        /* \"#utility.yul\":5741:5765   */\n      tag_26\n      jump\t// in\n    tag_112:\n        /* \"#utility.yul\":5721:5766   */\n      tag_39\n      jump\t// in\n    tag_111:\n        /* \"#utility.yul\":5716:5719   */\n      dup3\n        /* \"#utility.yul\":5709:5767   */\n      mstore\n        /* \"#utility.yul\":5616:5773   */\n      pop\n      pop\n      jump\t// out\n        /* \"#utility.yul\":5779:5873   */\n    tag_41:\n        /* \"#utility.yul\":5812:5820   */\n      0x00\n        /* \"#utility.yul\":5860:5865   */\n      dup2\n        /* \"#utility.yul\":5856:5858   */\n      0x60\n        /* \"#utility.yul\":5852:5866   */\n      shl\n        /* \"#utility.yul\":5831:5866   */\n      swap1\n      pop\n        /* \"#utility.yul\":5779:5873   */\n      swap2\n      swap1\n      pop\n      jump\t// out\n        /* \"#utility.yul\":5879:5973   */\n    tag_42:\n        /* \"#utility.yul\":5918:5925   */\n      0x00\n        /* \"#utility.yul\":5947:5967   */\n      tag_115\n        /* \"#utility.yul\":5961:5966   */\n      dup3\n        /* \"#utility.yul\":5947:5967   */\n      tag_41\n      jump\t// in\n    tag_115:\n        /* \"#utility.yul\":5936:5967   */\n      swap1\n      pop\n        /* \"#utility.yul\":5879:5973   */\n      swap2\n      swap1\n      pop\n      jump\t// out\n        /* \"#utility.yul\":5979:6079   */\n    tag_43:\n        /* \"#utility.yul\":6018:6025   */\n      0x00\n        /* \"#utility.yul\":6047:6073   */\n      tag_117\n        /* \"#utility.yul\":6067:6072   */\n      dup3\n        /* \"#utility.yul\":6047:6073   */\n      tag_42\n      jump\t// in\n    tag_117:\n        /* \"#utility.yul\":6036:6073   */\n      swap1\n      pop\n        /* \"#utility.yul\":5979:6079   */\n      swap2\n      swap1\n      pop\n      jump\t// out\n        /* \"#utility.yul\":6085:6242   */\n    tag_44:\n        /* \"#utility.yul\":6190:6235   */\n      tag_119\n        /* \"#utility.yul\":6210:6234   */\n      tag_120\n        /* \"#utility.yul\":6228:6233   */\n      dup3\n        /* \"#utility.yul\":6210:6234   */\n      tag_30\n      jump\t// in\n    tag_120:\n        /* \"#utility.yul\":6190:6235   */\n      tag_43\n      jump\t// in\n    tag_119:\n        /* \"#utility.yul\":6185:6188   */\n      dup3\n        /* \"#utility.yul\":6178:6236   */\n      mstore\n        /* \"#utility.yul\":6085:6242   */\n      pop\n      pop\n      jump\t// out\n        /* \"#utility.yul\":6248:6805   */\n    tag_12:\n        /* \"#utility.yul\":6436:6439   */\n      0x00\n        /* \"#utility.yul\":6458:6553   */\n      tag_122\n        /* \"#utility.yul\":6549:6552   */\n      dup3\n        /* \"#utility.yul\":6540:6546   */\n      dup7\n        /* \"#utility.yul\":6458:6553   */\n      tag_38\n      jump\t// in\n    tag_122:\n        /* \"#utility.yul\":6451:6553   */\n      swap2\n      pop\n        /* \"#utility.yul\":6563:6638   */\n      tag_123\n        /* \"#utility.yul\":6634:6637   */\n      dup3\n        /* \"#utility.yul\":6625:6631   */\n      dup6\n        /* \"#utility.yul\":6563:6638   */\n      tag_40\n      jump\t// in\n    tag_123:\n        /* \"#utility.yul\":6663:6665   */\n      0x20\n        /* \"#utility.yul\":6658:6661   */\n      dup3\n        /* \"#utility.yul\":6654:6666   */\n      add\n        /* \"#utility.yul\":6647:6666   */\n      swap2\n      pop\n        /* \"#utility.yul\":6676:6751   */\n      tag_124\n        /* \"#utility.yul\":6747:6750   */\n      dup3\n        /* \"#utility.yul\":6738:6744   */\n      dup5\n        /* \"#utility.yul\":6676:6751   */\n      tag_44\n      jump\t// in\n    tag_124:\n        /* \"#utility.yul\":6776:6778   */\n      0x14\n        /* \"#utility.yul\":6771:6774   */\n      dup3\n        /* \"#utility.yul\":6767:6779   */\n      add\n        /* \"#utility.yul\":6760:6779   */\n      swap2\n      pop\n        /* \"#utility.yul\":6796:6799   */\n      dup2\n        /* \"#utility.yul\":6789:6799   */\n      swap1\n      pop\n        /* \"#utility.yul\":6248:6805   */\n      swap5\n      swap4\n      pop\n      pop\n      pop\n      pop\n      jump\t// out\n\n    auxdata: 0xa2646970667358221220e4f52dc54df89742f11a764ea1c0962a46d6840e81ab38c8f00c7c4308f5b69164736f6c634300081a0033\n}\n",
				"bytecode": {
					"linkReferences": {},
					"object": "6080604052348015600e575f80fd5b506104558061001c5f395ff3fe608060405234801561000f575f80fd5b5060043610610029575f3560e01c8063e05be33d1461002d575b5f80fd5b61004760048036038101906100429190610271565b61005d565b6040516100549190610317565b60405180910390f35b5f80848484604051602001610074939291906103e7565b604051602081830303815290604052805190602001209050809150509392505050565b5f604051905090565b5f80fd5b5f80fd5b5f80fd5b5f80fd5b5f601f19601f8301169050919050565b7f4e487b71000000000000000000000000000000000000000000000000000000005f52604160045260245ffd5b6100f6826100b0565b810181811067ffffffffffffffff82111715610115576101146100c0565b5b80604052505050565b5f610127610097565b905061013382826100ed565b919050565b5f67ffffffffffffffff821115610152576101516100c0565b5b61015b826100b0565b9050602081019050919050565b828183375f83830152505050565b5f61018861018384610138565b61011e565b9050828152602081018484840111156101a4576101a36100ac565b5b6101af848285610168565b509392505050565b5f82601f8301126101cb576101ca6100a8565b5b81356101db848260208601610176565b91505092915050565b5f819050919050565b6101f6816101e4565b8114610200575f80fd5b50565b5f81359050610211816101ed565b92915050565b5f73ffffffffffffffffffffffffffffffffffffffff82169050919050565b5f61024082610217565b9050919050565b61025081610236565b811461025a575f80fd5b50565b5f8135905061026b81610247565b92915050565b5f805f60608486031215610288576102876100a0565b5b5f84013567ffffffffffffffff8111156102a5576102a46100a4565b5b6102b1868287016101b7565b93505060206102c286828701610203565b92505060406102d38682870161025d565b9150509250925092565b5f7fffffffffffffffffffff0000000000000000000000000000000000000000000082169050919050565b610311816102dd565b82525050565b5f60208201905061032a5f830184610308565b92915050565b5f81519050919050565b5f81905092915050565b8281835e5f83830152505050565b5f61035c82610330565b610366818561033a565b9350610376818560208601610344565b80840191505092915050565b5f819050919050565b61039c610397826101e4565b610382565b82525050565b5f8160601b9050919050565b5f6103b8826103a2565b9050919050565b5f6103c9826103ae565b9050919050565b6103e16103dc82610236565b6103bf565b82525050565b5f6103f28286610352565b91506103fe828561038b565b60208201915061040e82846103d0565b60148201915081905094935050505056fea2646970667358221220e4f52dc54df89742f11a764ea1c0962a46d6840e81ab38c8f00c7c4308f5b69164736f6c634300081a0033",
					"opcodes": "PUSH1 0x80 PUSH1 0x40 MSTORE CALLVALUE DUP1 ISZERO PUSH1 0xE JUMPI PUSH0 DUP1 REVERT JUMPDEST POP PUSH2 0x455 DUP1 PUSH2 0x1C PUSH0 CODECOPY PUSH0 RETURN INVALID PUSH1 0x80 PUSH1 0x40 MSTORE CALLVALUE DUP1 ISZERO PUSH2 0xF JUMPI PUSH0 DUP1 REVERT JUMPDEST POP PUSH1 0x4 CALLDATASIZE LT PUSH2 0x29 JUMPI PUSH0 CALLDATALOAD PUSH1 0xE0 SHR DUP1 PUSH4 0xE05BE33D EQ PUSH2 0x2D JUMPI JUMPDEST PUSH0 DUP1 REVERT JUMPDEST PUSH2 0x47 PUSH1 0x4 DUP1 CALLDATASIZE SUB DUP2 ADD SWAP1 PUSH2 0x42 SWAP2 SWAP1 PUSH2 0x271 JUMP JUMPDEST PUSH2 0x5D JUMP JUMPDEST PUSH1 0x40 MLOAD PUSH2 0x54 SWAP2 SWAP1 PUSH2 0x317 JUMP JUMPDEST PUSH1 0x40 MLOAD DUP1 SWAP2 SUB SWAP1 RETURN JUMPDEST PUSH0 DUP1 DUP5 DUP5 DUP5 PUSH1 0x40 MLOAD PUSH1 0x20 ADD PUSH2 0x74 SWAP4 SWAP3 SWAP2 SWAP1 PUSH2 0x3E7 JUMP JUMPDEST PUSH1 0x40 MLOAD PUSH1 0x20 DUP2 DUP4 SUB SUB DUP2 MSTORE SWAP1 PUSH1 0x40 MSTORE DUP1 MLOAD SWAP1 PUSH1 0x20 ADD KECCAK256 SWAP1 POP DUP1 SWAP2 POP POP SWAP4 SWAP3 POP POP POP JUMP JUMPDEST PUSH0 PUSH1 0x40 MLOAD SWAP1 POP SWAP1 JUMP JUMPDEST PUSH0 DUP1 REVERT JUMPDEST PUSH0 DUP1 REVERT JUMPDEST PUSH0 DUP1 REVERT JUMPDEST PUSH0 DUP1 REVERT JUMPDEST PUSH0 PUSH1 0x1F NOT PUSH1 0x1F DUP4 ADD AND SWAP1 POP SWAP2 SWAP1 POP JUMP JUMPDEST PUSH32 0x4E487B7100000000000000000000000000000000000000000000000000000000 PUSH0 MSTORE PUSH1 0x41 PUSH1 0x4 MSTORE PUSH1 0x24 PUSH0 REVERT JUMPDEST PUSH2 0xF6 DUP3 PUSH2 0xB0 JUMP JUMPDEST DUP2 ADD DUP2 DUP2 LT PUSH8 0xFFFFFFFFFFFFFFFF DUP3 GT OR ISZERO PUSH2 0x115 JUMPI PUSH2 0x114 PUSH2 0xC0 JUMP JUMPDEST JUMPDEST DUP1 PUSH1 0x40 MSTORE POP POP POP JUMP JUMPDEST PUSH0 PUSH2 0x127 PUSH2 0x97 JUMP JUMPDEST SWAP1 POP PUSH2 0x133 DUP3 DUP3 PUSH2 0xED JUMP JUMPDEST SWAP2 SWAP1 POP JUMP JUMPDEST PUSH0 PUSH8 0xFFFFFFFFFFFFFFFF DUP3 GT ISZERO PUSH2 0x152 JUMPI PUSH2 0x151 PUSH2 0xC0 JUMP JUMPDEST JUMPDEST PUSH2 0x15B DUP3 PUSH2 0xB0 JUMP JUMPDEST SWAP1 POP PUSH1 0x20 DUP2 ADD SWAP1 POP SWAP2 SWAP1 POP JUMP JUMPDEST DUP3 DUP2 DUP4 CALLDATACOPY PUSH0 DUP4 DUP4 ADD MSTORE POP POP POP JUMP JUMPDEST PUSH0 PUSH2 0x188 PUSH2 0x183 DUP5 PUSH2 0x138 JUMP JUMPDEST PUSH2 0x11E JUMP JUMPDEST SWAP1 POP DUP3 DUP2 MSTORE PUSH1 0x20 DUP2 ADD DUP5 DUP5 DUP5 ADD GT ISZERO PUSH2 0x1A4 JUMPI PUSH2 0x1A3 PUSH2 0xAC JUMP JUMPDEST JUMPDEST PUSH2 0x1AF DUP5 DUP3 DUP6 PUSH2 0x168 JUMP JUMPDEST POP SWAP4 SWAP3 POP POP POP JUMP JUMPDEST PUSH0 DUP3 PUSH1 0x1F DUP4 ADD SLT PUSH2 0x1CB JUMPI PUSH2 0x1CA PUSH2 0xA8 JUMP JUMPDEST JUMPDEST DUP2 CALLDATALOAD PUSH2 0x1DB DUP5 DUP3 PUSH1 0x20 DUP7 ADD PUSH2 0x176 JUMP JUMPDEST SWAP2 POP POP SWAP3 SWAP2 POP POP JUMP JUMPDEST PUSH0 DUP2 SWAP1 POP SWAP2 SWAP1 POP JUMP JUMPDEST PUSH2 0x1F6 DUP2 PUSH2 0x1E4 JUMP JUMPDEST DUP2 EQ PUSH2 0x200 JUMPI PUSH0 DUP1 REVERT JUMPDEST POP JUMP JUMPDEST PUSH0 DUP2 CALLDATALOAD SWAP1 POP PUSH2 0x211 DUP2 PUSH2 0x1ED JUMP JUMPDEST SWAP3 SWAP2 POP POP JUMP JUMPDEST PUSH0 PUSH20 0xFFFFFFFFFFFFFFFFFFFFFFFFFFFFFFFFFFFFFFFF DUP3 AND SWAP1 POP SWAP2 SWAP1 POP JUMP JUMPDEST PUSH0 PUSH2 0x240 DUP3 PUSH2 0x217 JUMP JUMPDEST SWAP1 POP SWAP2 SWAP1 POP JUMP JUMPDEST PUSH2 0x250 DUP2 PUSH2 0x236 JUMP JUMPDEST DUP2 EQ PUSH2 0x25A JUMPI PUSH0 DUP1 REVERT JUMPDEST POP JUMP JUMPDEST PUSH0 DUP2 CALLDATALOAD SWAP1 POP PUSH2 0x26B DUP2 PUSH2 0x247 JUMP JUMPDEST SWAP3 SWAP2 POP POP JUMP JUMPDEST PUSH0 DUP1 PUSH0 PUSH1 0x60 DUP5 DUP7 SUB SLT ISZERO PUSH2 0x288 JUMPI PUSH2 0x287 PUSH2 0xA0 JUMP JUMPDEST JUMPDEST PUSH0 DUP5 ADD CALLDATALOAD PUSH8 0xFFFFFFFFFFFFFFFF DUP2 GT ISZERO PUSH2 0x2A5 JUMPI PUSH2 0x2A4 PUSH2 0xA4 JUMP JUMPDEST JUMPDEST PUSH2 0x2B1 DUP7 DUP3 DUP8 ADD PUSH2 0x1B7 JUMP JUMPDEST SWAP4 POP POP PUSH1 0x20 PUSH2 0x2C2 DUP7 DUP3 DUP8 ADD PUSH2 0x203 JUMP JUMPDEST SWAP3 POP POP PUSH1 0x40 PUSH2 0x2D3 DUP7 DUP3 DUP8 ADD PUSH2 0x25D JUMP JUMPDEST SWAP2 POP POP SWAP3 POP SWAP3 POP SWAP3 JUMP JUMPDEST PUSH0 PUSH32 0xFFFFFFFFFFFFFFFFFFFF00000000000000000000000000000000000000000000 DUP3 AND SWAP1 POP SWAP2 SWAP1 POP JUMP JUMPDEST PUSH2 0x311 DUP2 PUSH2 0x2DD JUMP JUMPDEST DUP3 MSTORE POP POP JUMP JUMPDEST PUSH0 PUSH1 0x20 DUP3 ADD SWAP1 POP PUSH2 0x32A PUSH0 DUP4 ADD DUP5 PUSH2 0x308 JUMP JUMPDEST SWAP3 SWAP2 POP POP JUMP JUMPDEST PUSH0 DUP2 MLOAD SWAP1 POP SWAP2 SWAP1 POP JUMP JUMPDEST PUSH0 DUP2 SWAP1 POP SWAP3 SWAP2 POP POP JUMP JUMPDEST DUP3 DUP2 DUP4 MCOPY PUSH0 DUP4 DUP4 ADD MSTORE POP POP POP JUMP JUMPDEST PUSH0 PUSH2 0x35C DUP3 PUSH2 0x330 JUMP JUMPDEST PUSH2 0x366 DUP2 DUP6 PUSH2 0x33A JUMP JUMPDEST SWAP4 POP PUSH2 0x376 DUP2 DUP6 PUSH1 0x20 DUP7 ADD PUSH2 0x344 JUMP JUMPDEST DUP1 DUP5 ADD SWAP2 POP POP SWAP3 SWAP2 POP POP JUMP JUMPDEST PUSH0 DUP2 SWAP1 POP SWAP2 SWAP1 POP JUMP JUMPDEST PUSH2 0x39C PUSH2 0x397 DUP3 PUSH2 0x1E4 JUMP JUMPDEST PUSH2 0x382 JUMP JUMPDEST DUP3 MSTORE POP POP JUMP JUMPDEST PUSH0 DUP2 PUSH1 0x60 SHL SWAP1 POP SWAP2 SWAP1 POP JUMP JUMPDEST PUSH0 PUSH2 0x3B8 DUP3 PUSH2 0x3A2 JUMP JUMPDEST SWAP1 POP SWAP2 SWAP1 POP JUMP JUMPDEST PUSH0 PUSH2 0x3C9 DUP3 PUSH2 0x3AE JUMP JUMPDEST SWAP1 POP SWAP2 SWAP1 POP JUMP JUMPDEST PUSH2 0x3E1 PUSH2 0x3DC DUP3 PUSH2 0x236 JUMP JUMPDEST PUSH2 0x3BF JUMP JUMPDEST DUP3 MSTORE POP POP JUMP JUMPDEST PUSH0 PUSH2 0x3F2 DUP3 DUP7 PUSH2 0x352 JUMP JUMPDEST SWAP2 POP PUSH2 0x3FE DUP3 DUP6 PUSH2 0x38B JUMP JUMPDEST PUSH1 0x20 DUP3 ADD SWAP2 POP PUSH2 0x40E DUP3 DUP5 PUSH2 0x3D0 JUMP JUMPDEST PUSH1 0x14 DUP3 ADD SWAP2 POP DUP2 SWAP1 POP SWAP5 SWAP4 POP POP POP POP JUMP INVALID LOG2 PUSH5 0x6970667358 0x22 SLT KECCAK256 0xE4 CREATE2 0x2D 0xC5 0x4D 0xF8 SWAP8 TIMESTAMP CALL BYTE PUSH23 0x4EA1C0962A46D6840E81AB38C8F00C7C4308F5B6916473 PUSH16 0x6C634300081A00330000000000000000 "
				},
				"gasEstimates": {
					"creation": {
						"codeDepositCost": "221800",
						"executionCost": "261",
						"totalCost": "222061"
					},
					"external": {
						"generateID(string,uint256,address)": "infinite"
					}
				},
				"methodIdentifiers": {
					"generateID(string,uint256,address)": "e05be33d"
				}
			},
			"storageLayout": {
				"storage": [],
				"types": null
			},
			"userdoc": {
				"kind": "user",
				"methods": {},
				"version": 1
			}
		}
	}
}