{
	"solidity/solidity91~90.sol": {
		"Q87": {
			"abi": [
				{
					"inputs": [
						{
							"internalType": "uint256",
							"name": "_value",
							"type": "uint256"
						}
					],
					"name": "exampleFunction",
					"outputs": [],
					"stateMutability": "nonpayable",
					"type": "function"
				}
			],
			"devdoc": {
				"kind": "dev",
				"methods": {},
				"version": 1
			},
			"evm": {
				"assembly": "    /* \"solidity/solidity91~90.sol\":5971:6575  contract Q87 {... */\n  mstore(0x40, 0x80)\n  callvalue\n  dup1\n  iszero\n  tag_1\n  jumpi\n  0x00\n  dup1\n  revert\ntag_1:\n  pop\n  dataSize(sub_0)\n  dup1\n  dataOffset(sub_0)\n  0x00\n  codecopy\n  0x00\n  return\nstop\n\nsub_0: assembly {\n        /* \"solidity/solidity91~90.sol\":5971:6575  contract Q87 {... */\n      mstore(0x40, 0x80)\n      callvalue\n      dup1\n      iszero\n      tag_1\n      jumpi\n      0x00\n      dup1\n      revert\n    tag_1:\n      pop\n      jumpi(tag_2, lt(calldatasize, 0x04))\n      shr(0xe0, calldataload(0x00))\n      dup1\n      0x934bc29d\n      eq\n      tag_3\n      jumpi\n    tag_2:\n      0x00\n      dup1\n      revert\n        /* \"solidity/solidity91~90.sol\":6469:6573  function exampleFunction(uint256 _value) public {... */\n    tag_3:\n      tag_4\n      0x04\n      dup1\n      calldatasize\n      sub\n      dup2\n      add\n      swap1\n      tag_5\n      swap2\n      swap1\n      tag_6\n      jump\t// in\n    tag_5:\n      tag_7\n      jump\t// in\n    tag_4:\n      stop\n    tag_7:\n        /* \"solidity/solidity91~90.sol\":6527:6539  setA(_value) */\n      tag_9\n        /* \"solidity/solidity91~90.sol\":6532:6538  _value */\n      dup2\n        /* \"solidity/solidity91~90.sol\":6527:6531  setA */\n      tag_10\n        /* \"solidity/solidity91~90.sol\":6527:6539  setA(_value) */\n      jump\t// in\n    tag_9:\n        /* \"solidity/solidity91~90.sol\":6552:6564  incrementA() */\n      tag_11\n        /* \"solidity/solidity91~90.sol\":6552:6562  incrementA */\n      tag_12\n        /* \"solidity/solidity91~90.sol\":6552:6564  incrementA() */\n      jump\t// in\n    tag_11:\n        /* \"solidity/solidity91~90.sol\":6469:6573  function exampleFunction(uint256 _value) public {... */\n      pop\n      jump\t// out\n        /* \"solidity/solidity91~90.sol\":6258:6324  function setA(uint256 _value) internal {... */\n    tag_10:\n        /* \"solidity/solidity91~90.sol\":6311:6317  _value */\n      dup1\n        /* \"solidity/solidity91~90.sol\":6307:6308  a */\n      0x00\n        /* \"solidity/solidity91~90.sol\":6307:6317  a = _value */\n      dup2\n      swap1\n      sstore\n      pop\n        /* \"solidity/solidity91~90.sol\":6258:6324  function setA(uint256 _value) internal {... */\n      pop\n      jump\t// out\n        /* \"solidity/solidity91~90.sol\":6330:6384  function incrementA() internal {... */\n    tag_12:\n        /* \"solidity/solidity91~90.sol\":6376:6377  1 */\n      0x01\n        /* \"solidity/solidity91~90.sol\":6371:6372  a */\n      0x00\n      dup1\n        /* \"solidity/solidity91~90.sol\":6371:6377  a += 1 */\n      dup3\n      dup3\n      sload\n      tag_15\n      swap2\n      swap1\n      tag_16\n      jump\t// in\n    tag_15:\n      swap3\n      pop\n      pop\n      dup2\n      swap1\n      sstore\n      pop\n        /* \"solidity/solidity91~90.sol\":6330:6384  function incrementA() internal {... */\n      jump\t// out\n        /* \"#utility.yul\":88:205   */\n    tag_18:\n        /* \"#utility.yul\":197:198   */\n      0x00\n        /* \"#utility.yul\":194:195   */\n      dup1\n        /* \"#utility.yul\":187:199   */\n      revert\n        /* \"#utility.yul\":334:411   */\n    tag_20:\n        /* \"#utility.yul\":371:378   */\n      0x00\n        /* \"#utility.yul\":400:405   */\n      dup2\n        /* \"#utility.yul\":389:405   */\n      swap1\n      pop\n        /* \"#utility.yul\":334:411   */\n      swap2\n      swap1\n      pop\n      jump\t// out\n        /* \"#utility.yul\":417:539   */\n    tag_21:\n        /* \"#utility.yul\":490:514   */\n      tag_30\n        /* \"#utility.yul\":508:513   */\n      dup2\n        /* \"#utility.yul\":490:514   */\n      tag_20\n      jump\t// in\n    tag_30:\n        /* \"#utility.yul\":483:488   */\n      dup2\n        /* \"#utility.yul\":480:515   */\n      eq\n        /* \"#utility.yul\":470:533   */\n      tag_31\n      jumpi\n        /* \"#utility.yul\":529:530   */\n      0x00\n        /* \"#utility.yul\":526:527   */\n      dup1\n        /* \"#utility.yul\":519:531   */\n      revert\n        /* \"#utility.yul\":470:533   */\n    tag_31:\n        /* \"#utility.yul\":417:539   */\n      pop\n      jump\t// out\n        /* \"#utility.yul\":545:684   */\n    tag_22:\n        /* \"#utility.yul\":591:596   */\n      0x00\n        /* \"#utility.yul\":629:635   */\n      dup2\n        /* \"#utility.yul\":616:636   */\n      calldataload\n        /* \"#utility.yul\":607:636   */\n      swap1\n      pop\n        /* \"#utility.yul\":645:678   */\n      tag_33\n        /* \"#utility.yul\":672:677   */\n      dup2\n        /* \"#utility.yul\":645:678   */\n      tag_21\n      jump\t// in\n    tag_33:\n        /* \"#utility.yul\":545:684   */\n      swap3\n      swap2\n      pop\n      pop\n      jump\t// out\n        /* \"#utility.yul\":690:1019   */\n    tag_6:\n        /* \"#utility.yul\":749:755   */\n      0x00\n        /* \"#utility.yul\":798:800   */\n      0x20\n        /* \"#utility.yul\":786:795   */\n      dup3\n        /* \"#utility.yul\":777:784   */\n      dup5\n        /* \"#utility.yul\":773:796   */\n      sub\n        /* \"#utility.yul\":769:801   */\n      slt\n        /* \"#utility.yul\":766:885   */\n      iszero\n      tag_35\n      jumpi\n        /* \"#utility.yul\":804:883   */\n      tag_36\n      tag_18\n      jump\t// in\n    tag_36:\n        /* \"#utility.yul\":766:885   */\n    tag_35:\n        /* \"#utility.yul\":924:925   */\n      0x00\n        /* \"#utility.yul\":949:1002   */\n      tag_37\n        /* \"#utility.yul\":994:1001   */\n      dup5\n        /* \"#utility.yul\":985:991   */\n      dup3\n        /* \"#utility.yul\":974:983   */\n      dup6\n        /* \"#utility.yul\":970:992   */\n      add\n        /* \"#utility.yul\":949:1002   */\n      tag_22\n      jump\t// in\n    tag_37:\n        /* \"#utility.yul\":939:1002   */\n      swap2\n      pop\n        /* \"#utility.yul\":895:1012   */\n      pop\n        /* \"#utility.yul\":690:1019   */\n      swap3\n      swap2\n      pop\n      pop\n      jump\t// out\n        /* \"#utility.yul\":1025:1205   */\n    tag_23:\n        /* \"#utility.yul\":1073:1150   */\n      0x4e487b7100000000000000000000000000000000000000000000000000000000\n        /* \"#utility.yul\":1070:1071   */\n      0x00\n        /* \"#utility.yul\":1063:1151   */\n      mstore\n        /* \"#utility.yul\":1170:1174   */\n      0x11\n        /* \"#utility.yul\":1167:1168   */\n      0x04\n        /* \"#utility.yul\":1160:1175   */\n      mstore\n        /* \"#utility.yul\":1194:1198   */\n      0x24\n        /* \"#utility.yul\":1191:1192   */\n      0x00\n        /* \"#utility.yul\":1184:1199   */\n      revert\n        /* \"#utility.yul\":1211:1402   */\n    tag_16:\n        /* \"#utility.yul\":1251:1254   */\n      0x00\n        /* \"#utility.yul\":1270:1290   */\n      tag_40\n        /* \"#utility.yul\":1288:1289   */\n      dup3\n        /* \"#utility.yul\":1270:1290   */\n      tag_20\n      jump\t// in\n    tag_40:\n        /* \"#utility.yul\":1265:1290   */\n      swap2\n      pop\n        /* \"#utility.yul\":1304:1324   */\n      tag_41\n        /* \"#utility.yul\":1322:1323   */\n      dup4\n        /* \"#utility.yul\":1304:1324   */\n      tag_20\n      jump\t// in\n    tag_41:\n        /* \"#utility.yul\":1299:1324   */\n      swap3\n      pop\n        /* \"#utility.yul\":1347:1348   */\n      dup3\n        /* \"#utility.yul\":1344:1345   */\n      dup3\n        /* \"#utility.yul\":1340:1349   */\n      add\n        /* \"#utility.yul\":1333:1349   */\n      swap1\n      pop\n        /* \"#utility.yul\":1368:1371   */\n      dup1\n        /* \"#utility.yul\":1365:1366   */\n      dup3\n        /* \"#utility.yul\":1362:1372   */\n      gt\n        /* \"#utility.yul\":1359:1395   */\n      iszero\n      tag_42\n      jumpi\n        /* \"#utility.yul\":1375:1393   */\n      tag_43\n      tag_23\n      jump\t// in\n    tag_43:\n        /* \"#utility.yul\":1359:1395   */\n    tag_42:\n        /* \"#utility.yul\":1211:1402   */\n      swap3\n      swap2\n      pop\n      pop\n      jump\t// out\n\n    auxdata: 0xa264697066735822122037eed99d4d1bae6018a7818d138dfb5c1a90849d0376df77fb7109c3a435aca064736f6c634300081a0033\n}\n",
				"bytecode": {
					"linkReferences": {},
					"object": "6080604052348015600e575f80fd5b506101788061001c5f395ff3fe608060405234801561000f575f80fd5b5060043610610029575f3560e01c8063934bc29d1461002d575b5f80fd5b610047600480360381019061004291906100b7565b610049565b005b6100528161005d565b61005a610066565b50565b805f8190555050565b60015f80828254610077919061010f565b92505081905550565b5f80fd5b5f819050919050565b61009681610084565b81146100a0575f80fd5b50565b5f813590506100b18161008d565b92915050565b5f602082840312156100cc576100cb610080565b5b5f6100d9848285016100a3565b91505092915050565b7f4e487b71000000000000000000000000000000000000000000000000000000005f52601160045260245ffd5b5f61011982610084565b915061012483610084565b925082820190508082111561013c5761013b6100e2565b5b9291505056fea264697066735822122037eed99d4d1bae6018a7818d138dfb5c1a90849d0376df77fb7109c3a435aca064736f6c634300081a0033",
					"opcodes": "PUSH1 0x80 PUSH1 0x40 MSTORE CALLVALUE DUP1 ISZERO PUSH1 0xE JUMPI PUSH0 DUP1 REVERT JUMPDEST POP PUSH2 0x178 DUP1 PUSH2 0x1C PUSH0 CODECOPY PUSH0 RETURN INVALID PUSH1 0x80 PUSH1 0x40 MSTORE CALLVALUE DUP1 ISZERO PUSH2 0xF JUMPI PUSH0 DUP1 REVERT JUMPDEST POP PUSH1 0x4 CALLDATASIZE LT PUSH2 0x29 JUMPI PUSH0 CALLDATALOAD PUSH1 0xE0 SHR DUP1 PUSH4 0x934BC29D EQ PUSH2 0x2D JUMPI JUMPDEST PUSH0 DUP1 REVERT JUMPDEST PUSH2 0x47 PUSH1 0x4 DUP1 CALLDATASIZE SUB DUP2 ADD SWAP1 PUSH2 0x42 SWAP2 SWAP1 PUSH2 0xB7 JUMP JUMPDEST PUSH2 0x49 JUMP JUMPDEST STOP JUMPDEST PUSH2 0x52 DUP2 PUSH2 0x5D JUMP JUMPDEST PUSH2 0x5A PUSH2 0x66 JUMP JUMPDEST POP JUMP JUMPDEST DUP1 PUSH0 DUP2 SWAP1 SSTORE POP POP JUMP JUMPDEST PUSH1 0x1 PUSH0 DUP1 DUP3 DUP3 SLOAD PUSH2 0x77 SWAP2 SWAP1 PUSH2 0x10F JUMP JUMPDEST SWAP3 POP POP DUP2 SWAP1 SSTORE POP JUMP JUMPDEST PUSH0 DUP1 REVERT JUMPDEST PUSH0 DUP2 SWAP1 POP SWAP2 SWAP1 POP JUMP JUMPDEST PUSH2 0x96 DUP2 PUSH2 0x84 JUMP JUMPDEST DUP2 EQ PUSH2 0xA0 JUMPI PUSH0 DUP1 REVERT JUMPDEST POP JUMP JUMPDEST PUSH0 DUP2 CALLDATALOAD SWAP1 POP PUSH2 0xB1 DUP2 PUSH2 0x8D JUMP JUMPDEST SWAP3 SWAP2 POP POP JUMP JUMPDEST PUSH0 PUSH1 0x20 DUP3 DUP5 SUB SLT ISZERO PUSH2 0xCC JUMPI PUSH2 0xCB PUSH2 0x80 JUMP JUMPDEST JUMPDEST PUSH0 PUSH2 0xD9 DUP5 DUP3 DUP6 ADD PUSH2 0xA3 JUMP JUMPDEST SWAP2 POP POP SWAP3 SWAP2 POP POP JUMP JUMPDEST PUSH32 0x4E487B7100000000000000000000000000000000000000000000000000000000 PUSH0 MSTORE PUSH1 0x11 PUSH1 0x4 MSTORE PUSH1 0x24 PUSH0 REVERT JUMPDEST PUSH0 PUSH2 0x119 DUP3 PUSH2 0x84 JUMP JUMPDEST SWAP2 POP PUSH2 0x124 DUP4 PUSH2 0x84 JUMP JUMPDEST SWAP3 POP DUP3 DUP3 ADD SWAP1 POP DUP1 DUP3 GT ISZERO PUSH2 0x13C JUMPI PUSH2 0x13B PUSH2 0xE2 JUMP JUMPDEST JUMPDEST SWAP3 SWAP2 POP POP JUMP INVALID LOG2 PUSH5 0x6970667358 0x22 SLT KECCAK256 CALLDATACOPY 0xEE 0xD9 SWAP14 0x4D SHL 0xAE PUSH1 0x18 0xA7 DUP2 DUP14 SGT DUP14 0xFB TLOAD BYTE SWAP1 DUP5 SWAP14 SUB PUSH23 0xDF77FB7109C3A435ACA064736F6C634300081A00330000 "
				},
				"gasEstimates": {
					"creation": {
						"codeDepositCost": "75200",
						"executionCost": "121",
						"totalCost": "75321"
					},
					"external": {
						"exampleFunction(uint256)": "infinite"
					},
					"internal": {
						"getA()": "infinite",
						"incrementA()": "infinite",
						"setA(uint256)": "22124"
					}
				},
				"methodIdentifiers": {
					"exampleFunction(uint256)": "934bc29d"
				}
			},
			"storageLayout": {
				"storage": [
					{
						"astId": 549,
						"contract": "solidity/solidity91~90.sol:Q87",
						"label": "a",
						"offset": 0,
						"slot": "0",
						"type": "t_uint256"
					}
				],
				"types": {
					"t_uint256": {
						"encoding": "inplace",
						"label": "uint256",
						"numberOfBytes": "32"
					}
				}
			},
			"userdoc": {
				"kind": "user",
				"methods": {},
				"version": 1
			}
		}
	}
}