{
	"solidity/solidity91~90.sol": {
		"Q85": {
			"abi": [
				{
					"inputs": [],
					"stateMutability": "nonpayable",
					"type": "constructor"
				},
				{
					"inputs": [],
					"name": "endBlock",
					"outputs": [
						{
							"internalType": "uint256",
							"name": "",
							"type": "uint256"
						}
					],
					"stateMutability": "view",
					"type": "function"
				},
				{
					"inputs": [],
					"name": "getCurrentBlock",
					"outputs": [
						{
							"internalType": "uint256",
							"name": "",
							"type": "uint256"
						}
					],
					"stateMutability": "view",
					"type": "function"
				},
				{
					"inputs": [],
					"name": "isVotingPeriodOver",
					"outputs": [
						{
							"internalType": "bool",
							"name": "",
							"type": "bool"
						}
					],
					"stateMutability": "view",
					"type": "function"
				},
				{
					"inputs": [],
					"name": "startBlock",
					"outputs": [
						{
							"internalType": "uint256",
							"name": "",
							"type": "uint256"
						}
					],
					"stateMutability": "view",
					"type": "function"
				},
				{
					"inputs": [],
					"name": "voteAgainst",
					"outputs": [],
					"stateMutability": "nonpayable",
					"type": "function"
				},
				{
					"inputs": [],
					"name": "voteFor",
					"outputs": [],
					"stateMutability": "nonpayable",
					"type": "function"
				},
				{
					"inputs": [],
					"name": "votesAgainst",
					"outputs": [
						{
							"internalType": "uint256",
							"name": "",
							"type": "uint256"
						}
					],
					"stateMutability": "view",
					"type": "function"
				},
				{
					"inputs": [],
					"name": "votesFor",
					"outputs": [
						{
							"internalType": "uint256",
							"name": "",
							"type": "uint256"
						}
					],
					"stateMutability": "view",
					"type": "function"
				}
			],
			"devdoc": {
				"kind": "dev",
				"methods": {},
				"version": 1
			},
			"evm": {
				"assembly": "    /* \"solidity/solidity91~90.sol\":3777:4736  contract Q85 {... */\n  mstore(0x40, 0x80)\n    /* \"solidity/solidity91~90.sol\":4160:4253  constructor() {... */\n  callvalue\n  dup1\n  iszero\n  tag_1\n  jumpi\n  0x00\n  dup1\n  revert\ntag_1:\n  pop\n    /* \"solidity/solidity91~90.sol\":4197:4209  block.number */\n  number\n    /* \"solidity/solidity91~90.sol\":4184:4194  startBlock */\n  0x02\n    /* \"solidity/solidity91~90.sol\":4184:4209  startBlock = block.number */\n  dup2\n  swap1\n  sstore\n  pop\n    /* \"solidity/solidity91~90.sol\":4243:4245  20 */\n  0x14\n    /* \"solidity/solidity91~90.sol\":4230:4240  startBlock */\n  sload(0x02)\n    /* \"solidity/solidity91~90.sol\":4230:4245  startBlock + 20 */\n  tag_4\n  swap2\n  swap1\n  tag_5\n  jump\t// in\ntag_4:\n    /* \"solidity/solidity91~90.sol\":4219:4227  endBlock */\n  0x03\n    /* \"solidity/solidity91~90.sol\":4219:4245  endBlock = startBlock + 20 */\n  dup2\n  swap1\n  sstore\n  pop\n    /* \"solidity/solidity91~90.sol\":3777:4736  contract Q85 {... */\n  jump(tag_6)\n    /* \"#utility.yul\":7:84   */\ntag_7:\n    /* \"#utility.yul\":44:51   */\n  0x00\n    /* \"#utility.yul\":73:78   */\n  dup2\n    /* \"#utility.yul\":62:78   */\n  swap1\n  pop\n    /* \"#utility.yul\":7:84   */\n  swap2\n  swap1\n  pop\n  jump\t// out\n    /* \"#utility.yul\":90:270   */\ntag_8:\n    /* \"#utility.yul\":138:215   */\n  0x4e487b7100000000000000000000000000000000000000000000000000000000\n    /* \"#utility.yul\":135:136   */\n  0x00\n    /* \"#utility.yul\":128:216   */\n  mstore\n    /* \"#utility.yul\":235:239   */\n  0x11\n    /* \"#utility.yul\":232:233   */\n  0x04\n    /* \"#utility.yul\":225:240   */\n  mstore\n    /* \"#utility.yul\":259:263   */\n  0x24\n    /* \"#utility.yul\":256:257   */\n  0x00\n    /* \"#utility.yul\":249:264   */\n  revert\n    /* \"#utility.yul\":276:467   */\ntag_5:\n    /* \"#utility.yul\":316:319   */\n  0x00\n    /* \"#utility.yul\":335:355   */\n  tag_13\n    /* \"#utility.yul\":353:354   */\n  dup3\n    /* \"#utility.yul\":335:355   */\n  tag_7\n  jump\t// in\ntag_13:\n    /* \"#utility.yul\":330:355   */\n  swap2\n  pop\n    /* \"#utility.yul\":369:389   */\n  tag_14\n    /* \"#utility.yul\":387:388   */\n  dup4\n    /* \"#utility.yul\":369:389   */\n  tag_7\n  jump\t// in\ntag_14:\n    /* \"#utility.yul\":364:389   */\n  swap3\n  pop\n    /* \"#utility.yul\":412:413   */\n  dup3\n    /* \"#utility.yul\":409:410   */\n  dup3\n    /* \"#utility.yul\":405:414   */\n  add\n    /* \"#utility.yul\":398:414   */\n  swap1\n  pop\n    /* \"#utility.yul\":433:436   */\n  dup1\n    /* \"#utility.yul\":430:431   */\n  dup3\n    /* \"#utility.yul\":427:437   */\n  gt\n    /* \"#utility.yul\":424:460   */\n  iszero\n  tag_15\n  jumpi\n    /* \"#utility.yul\":440:458   */\n  tag_16\n  tag_8\n  jump\t// in\ntag_16:\n    /* \"#utility.yul\":424:460   */\ntag_15:\n    /* \"#utility.yul\":276:467   */\n  swap3\n  swap2\n  pop\n  pop\n  jump\t// out\n    /* \"solidity/solidity91~90.sol\":3777:4736  contract Q85 {... */\ntag_6:\n  dataSize(sub_0)\n  dup1\n  dataOffset(sub_0)\n  0x00\n  codecopy\n  0x00\n  return\nstop\n\nsub_0: assembly {\n        /* \"solidity/solidity91~90.sol\":3777:4736  contract Q85 {... */\n      mstore(0x40, 0x80)\n      callvalue\n      dup1\n      iszero\n      tag_1\n      jumpi\n      0x00\n      dup1\n      revert\n    tag_1:\n      pop\n      jumpi(tag_2, lt(calldatasize, 0x04))\n      shr(0xe0, calldataload(0x00))\n      dup1\n      0x9f396cff\n      gt\n      tag_11\n      jumpi\n      dup1\n      0x9f396cff\n      eq\n      tag_7\n      jumpi\n      dup1\n      0xafba4bef\n      eq\n      tag_8\n      jumpi\n      dup1\n      0xfd4f623c\n      eq\n      tag_9\n      jumpi\n      dup1\n      0xffaa3608\n      eq\n      tag_10\n      jumpi\n      jump(tag_2)\n    tag_11:\n      dup1\n      0x083c6323\n      eq\n      tag_3\n      jumpi\n      dup1\n      0x48cd4cb1\n      eq\n      tag_4\n      jumpi\n      dup1\n      0x672d5d3b\n      eq\n      tag_5\n      jumpi\n      dup1\n      0x91b4384d\n      eq\n      tag_6\n      jumpi\n    tag_2:\n      0x00\n      dup1\n      revert\n        /* \"solidity/solidity91~90.sol\":4130:4153  uint256 public endBlock */\n    tag_3:\n      tag_12\n      tag_13\n      jump\t// in\n    tag_12:\n      mload(0x40)\n      tag_14\n      swap2\n      swap1\n      tag_15\n      jump\t// in\n    tag_14:\n      mload(0x40)\n      dup1\n      swap2\n      sub\n      swap1\n      return\n        /* \"solidity/solidity91~90.sol\":4099:4124  uint256 public startBlock */\n    tag_4:\n      tag_16\n      tag_17\n      jump\t// in\n    tag_16:\n      mload(0x40)\n      tag_18\n      swap2\n      swap1\n      tag_15\n      jump\t// in\n    tag_18:\n      mload(0x40)\n      dup1\n      swap2\n      sub\n      swap1\n      return\n        /* \"solidity/solidity91~90.sol\":4531:4624  function getCurrentBlock() public view returns (uint256) {... */\n    tag_5:\n      tag_19\n      tag_20\n      jump\t// in\n    tag_19:\n      mload(0x40)\n      tag_21\n      swap2\n      swap1\n      tag_15\n      jump\t// in\n    tag_21:\n      mload(0x40)\n      dup1\n      swap2\n      sub\n      swap1\n      return\n        /* \"solidity/solidity91~90.sol\":4061:4088  uint256 public votesAgainst */\n    tag_6:\n      tag_22\n      tag_23\n      jump\t// in\n    tag_22:\n      mload(0x40)\n      tag_24\n      swap2\n      swap1\n      tag_15\n      jump\t// in\n    tag_24:\n      mload(0x40)\n      dup1\n      swap2\n      sub\n      swap1\n      return\n        /* \"solidity/solidity91~90.sol\":4391:4525  function voteAgainst() public {... */\n    tag_7:\n      tag_25\n      tag_26\n      jump\t// in\n    tag_25:\n      stop\n        /* \"solidity/solidity91~90.sol\":4630:4734  function isVotingPeriodOver() public view returns (bool) {... */\n    tag_8:\n      tag_27\n      tag_28\n      jump\t// in\n    tag_27:\n      mload(0x40)\n      tag_29\n      swap2\n      swap1\n      tag_30\n      jump\t// in\n    tag_29:\n      mload(0x40)\n      dup1\n      swap2\n      sub\n      swap1\n      return\n        /* \"solidity/solidity91~90.sol\":4032:4055  uint256 public votesFor */\n    tag_9:\n      tag_31\n      tag_32\n      jump\t// in\n    tag_31:\n      mload(0x40)\n      tag_33\n      swap2\n      swap1\n      tag_15\n      jump\t// in\n    tag_33:\n      mload(0x40)\n      dup1\n      swap2\n      sub\n      swap1\n      return\n        /* \"solidity/solidity91~90.sol\":4259:4385  function voteFor() public {... */\n    tag_10:\n      tag_34\n      tag_35\n      jump\t// in\n    tag_34:\n      stop\n        /* \"solidity/solidity91~90.sol\":4130:4153  uint256 public endBlock */\n    tag_13:\n      sload(0x03)\n      dup2\n      jump\t// out\n        /* \"solidity/solidity91~90.sol\":4099:4124  uint256 public startBlock */\n    tag_17:\n      sload(0x02)\n      dup2\n      jump\t// out\n        /* \"solidity/solidity91~90.sol\":4531:4624  function getCurrentBlock() public view returns (uint256) {... */\n    tag_20:\n        /* \"solidity/solidity91~90.sol\":4579:4586  uint256 */\n      0x00\n        /* \"solidity/solidity91~90.sol\":4605:4617  block.number */\n      number\n        /* \"solidity/solidity91~90.sol\":4598:4617  return block.number */\n      swap1\n      pop\n        /* \"solidity/solidity91~90.sol\":4531:4624  function getCurrentBlock() public view returns (uint256) {... */\n      swap1\n      jump\t// out\n        /* \"solidity/solidity91~90.sol\":4061:4088  uint256 public votesAgainst */\n    tag_23:\n      sload(0x01)\n      dup2\n      jump\t// out\n        /* \"solidity/solidity91~90.sol\":4391:4525  function voteAgainst() public {... */\n    tag_26:\n        /* \"solidity/solidity91~90.sol\":4455:4463  endBlock */\n      sload(0x03)\n        /* \"solidity/solidity91~90.sol\":4439:4451  block.number */\n      number\n        /* \"solidity/solidity91~90.sol\":4439:4463  block.number <= endBlock */\n      gt\n      iszero\n        /* \"solidity/solidity91~90.sol\":4431:4491  require(block.number <= endBlock, \"Voting period has ended\") */\n      tag_38\n      jumpi\n      mload(0x40)\n      0x08c379a000000000000000000000000000000000000000000000000000000000\n      dup2\n      mstore\n      0x04\n      add\n      tag_39\n      swap1\n      tag_40\n      jump\t// in\n    tag_39:\n      mload(0x40)\n      dup1\n      swap2\n      sub\n      swap1\n      revert\n    tag_38:\n        /* \"solidity/solidity91~90.sol\":4517:4518  1 */\n      0x01\n        /* \"solidity/solidity91~90.sol\":4501:4513  votesAgainst */\n      dup1\n      0x00\n        /* \"solidity/solidity91~90.sol\":4501:4518  votesAgainst += 1 */\n      dup3\n      dup3\n      sload\n      tag_41\n      swap2\n      swap1\n      tag_42\n      jump\t// in\n    tag_41:\n      swap3\n      pop\n      pop\n      dup2\n      swap1\n      sstore\n      pop\n        /* \"solidity/solidity91~90.sol\":4391:4525  function voteAgainst() public {... */\n      jump\t// out\n        /* \"solidity/solidity91~90.sol\":4630:4734  function isVotingPeriodOver() public view returns (bool) {... */\n    tag_28:\n        /* \"solidity/solidity91~90.sol\":4681:4685  bool */\n      0x00\n        /* \"solidity/solidity91~90.sol\":4719:4727  endBlock */\n      sload(0x03)\n        /* \"solidity/solidity91~90.sol\":4704:4716  block.number */\n      number\n        /* \"solidity/solidity91~90.sol\":4704:4727  block.number > endBlock */\n      gt\n        /* \"solidity/solidity91~90.sol\":4697:4727  return block.number > endBlock */\n      swap1\n      pop\n        /* \"solidity/solidity91~90.sol\":4630:4734  function isVotingPeriodOver() public view returns (bool) {... */\n      swap1\n      jump\t// out\n        /* \"solidity/solidity91~90.sol\":4032:4055  uint256 public votesFor */\n    tag_32:\n      sload(0x00)\n      dup2\n      jump\t// out\n        /* \"solidity/solidity91~90.sol\":4259:4385  function voteFor() public {... */\n    tag_35:\n        /* \"solidity/solidity91~90.sol\":4319:4327  endBlock */\n      sload(0x03)\n        /* \"solidity/solidity91~90.sol\":4303:4315  block.number */\n      number\n        /* \"solidity/solidity91~90.sol\":4303:4327  block.number <= endBlock */\n      gt\n      iszero\n        /* \"solidity/solidity91~90.sol\":4295:4355  require(block.number <= endBlock, \"Voting period has ended\") */\n      tag_45\n      jumpi\n      mload(0x40)\n      0x08c379a000000000000000000000000000000000000000000000000000000000\n      dup2\n      mstore\n      0x04\n      add\n      tag_46\n      swap1\n      tag_40\n      jump\t// in\n    tag_46:\n      mload(0x40)\n      dup1\n      swap2\n      sub\n      swap1\n      revert\n    tag_45:\n        /* \"solidity/solidity91~90.sol\":4377:4378  1 */\n      0x01\n        /* \"solidity/solidity91~90.sol\":4365:4373  votesFor */\n      0x00\n      dup1\n        /* \"solidity/solidity91~90.sol\":4365:4378  votesFor += 1 */\n      dup3\n      dup3\n      sload\n      tag_47\n      swap2\n      swap1\n      tag_42\n      jump\t// in\n    tag_47:\n      swap3\n      pop\n      pop\n      dup2\n      swap1\n      sstore\n      pop\n        /* \"solidity/solidity91~90.sol\":4259:4385  function voteFor() public {... */\n      jump\t// out\n        /* \"#utility.yul\":7:84   */\n    tag_48:\n        /* \"#utility.yul\":44:51   */\n      0x00\n        /* \"#utility.yul\":73:78   */\n      dup2\n        /* \"#utility.yul\":62:78   */\n      swap1\n      pop\n        /* \"#utility.yul\":7:84   */\n      swap2\n      swap1\n      pop\n      jump\t// out\n        /* \"#utility.yul\":90:208   */\n    tag_49:\n        /* \"#utility.yul\":177:201   */\n      tag_59\n        /* \"#utility.yul\":195:200   */\n      dup2\n        /* \"#utility.yul\":177:201   */\n      tag_48\n      jump\t// in\n    tag_59:\n        /* \"#utility.yul\":172:175   */\n      dup3\n        /* \"#utility.yul\":165:202   */\n      mstore\n        /* \"#utility.yul\":90:208   */\n      pop\n      pop\n      jump\t// out\n        /* \"#utility.yul\":214:436   */\n    tag_15:\n        /* \"#utility.yul\":307:311   */\n      0x00\n        /* \"#utility.yul\":345:347   */\n      0x20\n        /* \"#utility.yul\":334:343   */\n      dup3\n        /* \"#utility.yul\":330:348   */\n      add\n        /* \"#utility.yul\":322:348   */\n      swap1\n      pop\n        /* \"#utility.yul\":358:429   */\n      tag_61\n        /* \"#utility.yul\":426:427   */\n      0x00\n        /* \"#utility.yul\":415:424   */\n      dup4\n        /* \"#utility.yul\":411:428   */\n      add\n        /* \"#utility.yul\":402:408   */\n      dup5\n        /* \"#utility.yul\":358:429   */\n      tag_49\n      jump\t// in\n    tag_61:\n        /* \"#utility.yul\":214:436   */\n      swap3\n      swap2\n      pop\n      pop\n      jump\t// out\n        /* \"#utility.yul\":442:532   */\n    tag_50:\n        /* \"#utility.yul\":476:483   */\n      0x00\n        /* \"#utility.yul\":519:524   */\n      dup2\n        /* \"#utility.yul\":512:525   */\n      iszero\n        /* \"#utility.yul\":505:526   */\n      iszero\n        /* \"#utility.yul\":494:526   */\n      swap1\n      pop\n        /* \"#utility.yul\":442:532   */\n      swap2\n      swap1\n      pop\n      jump\t// out\n        /* \"#utility.yul\":538:647   */\n    tag_51:\n        /* \"#utility.yul\":619:640   */\n      tag_64\n        /* \"#utility.yul\":634:639   */\n      dup2\n        /* \"#utility.yul\":619:640   */\n      tag_50\n      jump\t// in\n    tag_64:\n        /* \"#utility.yul\":614:617   */\n      dup3\n        /* \"#utility.yul\":607:641   */\n      mstore\n        /* \"#utility.yul\":538:647   */\n      pop\n      pop\n      jump\t// out\n        /* \"#utility.yul\":653:863   */\n    tag_30:\n        /* \"#utility.yul\":740:744   */\n      0x00\n        /* \"#utility.yul\":778:780   */\n      0x20\n        /* \"#utility.yul\":767:776   */\n      dup3\n        /* \"#utility.yul\":763:781   */\n      add\n        /* \"#utility.yul\":755:781   */\n      swap1\n      pop\n        /* \"#utility.yul\":791:856   */\n      tag_66\n        /* \"#utility.yul\":853:854   */\n      0x00\n        /* \"#utility.yul\":842:851   */\n      dup4\n        /* \"#utility.yul\":838:855   */\n      add\n        /* \"#utility.yul\":829:835   */\n      dup5\n        /* \"#utility.yul\":791:856   */\n      tag_51\n      jump\t// in\n    tag_66:\n        /* \"#utility.yul\":653:863   */\n      swap3\n      swap2\n      pop\n      pop\n      jump\t// out\n        /* \"#utility.yul\":869:1038   */\n    tag_52:\n        /* \"#utility.yul\":953:964   */\n      0x00\n        /* \"#utility.yul\":987:993   */\n      dup3\n        /* \"#utility.yul\":982:985   */\n      dup3\n        /* \"#utility.yul\":975:994   */\n      mstore\n        /* \"#utility.yul\":1027:1031   */\n      0x20\n        /* \"#utility.yul\":1022:1025   */\n      dup3\n        /* \"#utility.yul\":1018:1032   */\n      add\n        /* \"#utility.yul\":1003:1032   */\n      swap1\n      pop\n        /* \"#utility.yul\":869:1038   */\n      swap3\n      swap2\n      pop\n      pop\n      jump\t// out\n        /* \"#utility.yul\":1044:1217   */\n    tag_53:\n        /* \"#utility.yul\":1184:1209   */\n      0x566f74696e6720706572696f642068617320656e646564000000000000000000\n        /* \"#utility.yul\":1180:1181   */\n      0x00\n        /* \"#utility.yul\":1172:1178   */\n      dup3\n        /* \"#utility.yul\":1168:1182   */\n      add\n        /* \"#utility.yul\":1161:1210   */\n      mstore\n        /* \"#utility.yul\":1044:1217   */\n      pop\n      jump\t// out\n        /* \"#utility.yul\":1223:1589   */\n    tag_54:\n        /* \"#utility.yul\":1365:1368   */\n      0x00\n        /* \"#utility.yul\":1386:1453   */\n      tag_70\n        /* \"#utility.yul\":1450:1452   */\n      0x17\n        /* \"#utility.yul\":1445:1448   */\n      dup4\n        /* \"#utility.yul\":1386:1453   */\n      tag_52\n      jump\t// in\n    tag_70:\n        /* \"#utility.yul\":1379:1453   */\n      swap2\n      pop\n        /* \"#utility.yul\":1462:1555   */\n      tag_71\n        /* \"#utility.yul\":1551:1554   */\n      dup3\n        /* \"#utility.yul\":1462:1555   */\n      tag_53\n      jump\t// in\n    tag_71:\n        /* \"#utility.yul\":1580:1582   */\n      0x20\n        /* \"#utility.yul\":1575:1578   */\n      dup3\n        /* \"#utility.yul\":1571:1583   */\n      add\n        /* \"#utility.yul\":1564:1583   */\n      swap1\n      pop\n        /* \"#utility.yul\":1223:1589   */\n      swap2\n      swap1\n      pop\n      jump\t// out\n        /* \"#utility.yul\":1595:2014   */\n    tag_40:\n        /* \"#utility.yul\":1761:1765   */\n      0x00\n        /* \"#utility.yul\":1799:1801   */\n      0x20\n        /* \"#utility.yul\":1788:1797   */\n      dup3\n        /* \"#utility.yul\":1784:1802   */\n      add\n        /* \"#utility.yul\":1776:1802   */\n      swap1\n      pop\n        /* \"#utility.yul\":1848:1857   */\n      dup2\n        /* \"#utility.yul\":1842:1846   */\n      dup2\n        /* \"#utility.yul\":1838:1858   */\n      sub\n        /* \"#utility.yul\":1834:1835   */\n      0x00\n        /* \"#utility.yul\":1823:1832   */\n      dup4\n        /* \"#utility.yul\":1819:1836   */\n      add\n        /* \"#utility.yul\":1812:1859   */\n      mstore\n        /* \"#utility.yul\":1876:2007   */\n      tag_73\n        /* \"#utility.yul\":2002:2006   */\n      dup2\n        /* \"#utility.yul\":1876:2007   */\n      tag_54\n      jump\t// in\n    tag_73:\n        /* \"#utility.yul\":1868:2007   */\n      swap1\n      pop\n        /* \"#utility.yul\":1595:2014   */\n      swap2\n      swap1\n      pop\n      jump\t// out\n        /* \"#utility.yul\":2020:2200   */\n    tag_55:\n        /* \"#utility.yul\":2068:2145   */\n      0x4e487b7100000000000000000000000000000000000000000000000000000000\n        /* \"#utility.yul\":2065:2066   */\n      0x00\n        /* \"#utility.yul\":2058:2146   */\n      mstore\n        /* \"#utility.yul\":2165:2169   */\n      0x11\n        /* \"#utility.yul\":2162:2163   */\n      0x04\n        /* \"#utility.yul\":2155:2170   */\n      mstore\n        /* \"#utility.yul\":2189:2193   */\n      0x24\n        /* \"#utility.yul\":2186:2187   */\n      0x00\n        /* \"#utility.yul\":2179:2194   */\n      revert\n        /* \"#utility.yul\":2206:2397   */\n    tag_42:\n        /* \"#utility.yul\":2246:2249   */\n      0x00\n        /* \"#utility.yul\":2265:2285   */\n      tag_76\n        /* \"#utility.yul\":2283:2284   */\n      dup3\n        /* \"#utility.yul\":2265:2285   */\n      tag_48\n      jump\t// in\n    tag_76:\n        /* \"#utility.yul\":2260:2285   */\n      swap2\n      pop\n        /* \"#utility.yul\":2299:2319   */\n      tag_77\n        /* \"#utility.yul\":2317:2318   */\n      dup4\n        /* \"#utility.yul\":2299:2319   */\n      tag_48\n      jump\t// in\n    tag_77:\n        /* \"#utility.yul\":2294:2319   */\n      swap3\n      pop\n        /* \"#utility.yul\":2342:2343   */\n      dup3\n        /* \"#utility.yul\":2339:2340   */\n      dup3\n        /* \"#utility.yul\":2335:2344   */\n      add\n        /* \"#utility.yul\":2328:2344   */\n      swap1\n      pop\n        /* \"#utility.yul\":2363:2366   */\n      dup1\n        /* \"#utility.yul\":2360:2361   */\n      dup3\n        /* \"#utility.yul\":2357:2367   */\n      gt\n        /* \"#utility.yul\":2354:2390   */\n      iszero\n      tag_78\n      jumpi\n        /* \"#utility.yul\":2370:2388   */\n      tag_79\n      tag_55\n      jump\t// in\n    tag_79:\n        /* \"#utility.yul\":2354:2390   */\n    tag_78:\n        /* \"#utility.yul\":2206:2397   */\n      swap3\n      swap2\n      pop\n      pop\n      jump\t// out\n\n    auxdata: 0xa2646970667358221220cb278a66c7ed30b0a300010e847b5324bc9053855a0c318365068a5b1aeffca364736f6c634300081a0033\n}\n",
				"bytecode": {
					"linkReferences": {},
					"object": "6080604052348015600e575f80fd5b50436002819055506014600254602391906063565b600381905550608f565b5f819050919050565b7f4e487b71000000000000000000000000000000000000000000000000000000005f52601160045260245ffd5b5f606b82602d565b9150607483602d565b925082820190508082111560895760886036565b5b92915050565b6103ab8061009c5f395ff3fe608060405234801561000f575f80fd5b5060043610610086575f3560e01c80639f396cff116100595780639f396cff14610102578063afba4bef1461010c578063fd4f623c1461012a578063ffaa36081461014857610086565b8063083c63231461008a57806348cd4cb1146100a8578063672d5d3b146100c657806391b4384d146100e4575b5f80fd5b610092610152565b60405161009f9190610251565b60405180910390f35b6100b0610158565b6040516100bd9190610251565b60405180910390f35b6100ce61015e565b6040516100db9190610251565b60405180910390f35b6100ec610165565b6040516100f99190610251565b60405180910390f35b61010a61016b565b005b6101146101ca565b6040516101219190610284565b60405180910390f35b6101326101d5565b60405161013f9190610251565b60405180910390f35b6101506101da565b005b60035481565b60025481565b5f43905090565b60015481565b6003544311156101b0576040517f08c379a00000000000000000000000000000000000000000000000000000000081526004016101a7906102f7565b60405180910390fd5b6001805f8282546101c19190610342565b92505081905550565b5f6003544311905090565b5f5481565b60035443111561021f576040517f08c379a0000000000000000000000000000000000000000000000000000000008152600401610216906102f7565b60405180910390fd5b60015f808282546102309190610342565b92505081905550565b5f819050919050565b61024b81610239565b82525050565b5f6020820190506102645f830184610242565b92915050565b5f8115159050919050565b61027e8161026a565b82525050565b5f6020820190506102975f830184610275565b92915050565b5f82825260208201905092915050565b7f566f74696e6720706572696f642068617320656e6465640000000000000000005f82015250565b5f6102e160178361029d565b91506102ec826102ad565b602082019050919050565b5f6020820190508181035f83015261030e816102d5565b9050919050565b7f4e487b71000000000000000000000000000000000000000000000000000000005f52601160045260245ffd5b5f61034c82610239565b915061035783610239565b925082820190508082111561036f5761036e610315565b5b9291505056fea2646970667358221220cb278a66c7ed30b0a300010e847b5324bc9053855a0c318365068a5b1aeffca364736f6c634300081a0033",
					"opcodes": "PUSH1 0x80 PUSH1 0x40 MSTORE CALLVALUE DUP1 ISZERO PUSH1 0xE JUMPI PUSH0 DUP1 REVERT JUMPDEST POP NUMBER PUSH1 0x2 DUP2 SWAP1 SSTORE POP PUSH1 0x14 PUSH1 0x2 SLOAD PUSH1 0x23 SWAP2 SWAP1 PUSH1 0x63 JUMP JUMPDEST PUSH1 0x3 DUP2 SWAP1 SSTORE POP PUSH1 0x8F JUMP JUMPDEST PUSH0 DUP2 SWAP1 POP SWAP2 SWAP1 POP JUMP JUMPDEST PUSH32 0x4E487B7100000000000000000000000000000000000000000000000000000000 PUSH0 MSTORE PUSH1 0x11 PUSH1 0x4 MSTORE PUSH1 0x24 PUSH0 REVERT JUMPDEST PUSH0 PUSH1 0x6B DUP3 PUSH1 0x2D JUMP JUMPDEST SWAP2 POP PUSH1 0x74 DUP4 PUSH1 0x2D JUMP JUMPDEST SWAP3 POP DUP3 DUP3 ADD SWAP1 POP DUP1 DUP3 GT ISZERO PUSH1 0x89 JUMPI PUSH1 0x88 PUSH1 0x36 JUMP JUMPDEST JUMPDEST SWAP3 SWAP2 POP POP JUMP JUMPDEST PUSH2 0x3AB DUP1 PUSH2 0x9C PUSH0 CODECOPY PUSH0 RETURN INVALID PUSH1 0x80 PUSH1 0x40 MSTORE CALLVALUE DUP1 ISZERO PUSH2 0xF JUMPI PUSH0 DUP1 REVERT JUMPDEST POP PUSH1 0x4 CALLDATASIZE LT PUSH2 0x86 JUMPI PUSH0 CALLDATALOAD PUSH1 0xE0 SHR DUP1 PUSH4 0x9F396CFF GT PUSH2 0x59 JUMPI DUP1 PUSH4 0x9F396CFF EQ PUSH2 0x102 JUMPI DUP1 PUSH4 0xAFBA4BEF EQ PUSH2 0x10C JUMPI DUP1 PUSH4 0xFD4F623C EQ PUSH2 0x12A JUMPI DUP1 PUSH4 0xFFAA3608 EQ PUSH2 0x148 JUMPI PUSH2 0x86 JUMP JUMPDEST DUP1 PUSH4 0x83C6323 EQ PUSH2 0x8A JUMPI DUP1 PUSH4 0x48CD4CB1 EQ PUSH2 0xA8 JUMPI DUP1 PUSH4 0x672D5D3B EQ PUSH2 0xC6 JUMPI DUP1 PUSH4 0x91B4384D EQ PUSH2 0xE4 JUMPI JUMPDEST PUSH0 DUP1 REVERT JUMPDEST PUSH2 0x92 PUSH2 0x152 JUMP JUMPDEST PUSH1 0x40 MLOAD PUSH2 0x9F SWAP2 SWAP1 PUSH2 0x251 JUMP JUMPDEST PUSH1 0x40 MLOAD DUP1 SWAP2 SUB SWAP1 RETURN JUMPDEST PUSH2 0xB0 PUSH2 0x158 JUMP JUMPDEST PUSH1 0x40 MLOAD PUSH2 0xBD SWAP2 SWAP1 PUSH2 0x251 JUMP JUMPDEST PUSH1 0x40 MLOAD DUP1 SWAP2 SUB SWAP1 RETURN JUMPDEST PUSH2 0xCE PUSH2 0x15E JUMP JUMPDEST PUSH1 0x40 MLOAD PUSH2 0xDB SWAP2 SWAP1 PUSH2 0x251 JUMP JUMPDEST PUSH1 0x40 MLOAD DUP1 SWAP2 SUB SWAP1 RETURN JUMPDEST PUSH2 0xEC PUSH2 0x165 JUMP JUMPDEST PUSH1 0x40 MLOAD PUSH2 0xF9 SWAP2 SWAP1 PUSH2 0x251 JUMP JUMPDEST PUSH1 0x40 MLOAD DUP1 SWAP2 SUB SWAP1 RETURN JUMPDEST PUSH2 0x10A PUSH2 0x16B JUMP JUMPDEST STOP JUMPDEST PUSH2 0x114 PUSH2 0x1CA JUMP JUMPDEST PUSH1 0x40 MLOAD PUSH2 0x121 SWAP2 SWAP1 PUSH2 0x284 JUMP JUMPDEST PUSH1 0x40 MLOAD DUP1 SWAP2 SUB SWAP1 RETURN JUMPDEST PUSH2 0x132 PUSH2 0x1D5 JUMP JUMPDEST PUSH1 0x40 MLOAD PUSH2 0x13F SWAP2 SWAP1 PUSH2 0x251 JUMP JUMPDEST PUSH1 0x40 MLOAD DUP1 SWAP2 SUB SWAP1 RETURN JUMPDEST PUSH2 0x150 PUSH2 0x1DA JUMP JUMPDEST STOP JUMPDEST PUSH1 0x3 SLOAD DUP2 JUMP JUMPDEST PUSH1 0x2 SLOAD DUP2 JUMP JUMPDEST PUSH0 NUMBER SWAP1 POP SWAP1 JUMP JUMPDEST PUSH1 0x1 SLOAD DUP2 JUMP JUMPDEST PUSH1 0x3 SLOAD NUMBER GT ISZERO PUSH2 0x1B0 JUMPI PUSH1 0x40 MLOAD PUSH32 0x8C379A000000000000000000000000000000000000000000000000000000000 DUP2 MSTORE PUSH1 0x4 ADD PUSH2 0x1A7 SWAP1 PUSH2 0x2F7 JUMP JUMPDEST PUSH1 0x40 MLOAD DUP1 SWAP2 SUB SWAP1 REVERT JUMPDEST PUSH1 0x1 DUP1 PUSH0 DUP3 DUP3 SLOAD PUSH2 0x1C1 SWAP2 SWAP1 PUSH2 0x342 JUMP JUMPDEST SWAP3 POP POP DUP2 SWAP1 SSTORE POP JUMP JUMPDEST PUSH0 PUSH1 0x3 SLOAD NUMBER GT SWAP1 POP SWAP1 JUMP JUMPDEST PUSH0 SLOAD DUP2 JUMP JUMPDEST PUSH1 0x3 SLOAD NUMBER GT ISZERO PUSH2 0x21F JUMPI PUSH1 0x40 MLOAD PUSH32 0x8C379A000000000000000000000000000000000000000000000000000000000 DUP2 MSTORE PUSH1 0x4 ADD PUSH2 0x216 SWAP1 PUSH2 0x2F7 JUMP JUMPDEST PUSH1 0x40 MLOAD DUP1 SWAP2 SUB SWAP1 REVERT JUMPDEST PUSH1 0x1 PUSH0 DUP1 DUP3 DUP3 SLOAD PUSH2 0x230 SWAP2 SWAP1 PUSH2 0x342 JUMP JUMPDEST SWAP3 POP POP DUP2 SWAP1 SSTORE POP JUMP JUMPDEST PUSH0 DUP2 SWAP1 POP SWAP2 SWAP1 POP JUMP JUMPDEST PUSH2 0x24B DUP2 PUSH2 0x239 JUMP JUMPDEST DUP3 MSTORE POP POP JUMP JUMPDEST PUSH0 PUSH1 0x20 DUP3 ADD SWAP1 POP PUSH2 0x264 PUSH0 DUP4 ADD DUP5 PUSH2 0x242 JUMP JUMPDEST SWAP3 SWAP2 POP POP JUMP JUMPDEST PUSH0 DUP2 ISZERO ISZERO SWAP1 POP SWAP2 SWAP1 POP JUMP JUMPDEST PUSH2 0x27E DUP2 PUSH2 0x26A JUMP JUMPDEST DUP3 MSTORE POP POP JUMP JUMPDEST PUSH0 PUSH1 0x20 DUP3 ADD SWAP1 POP PUSH2 0x297 PUSH0 DUP4 ADD DUP5 PUSH2 0x275 JUMP JUMPDEST SWAP3 SWAP2 POP POP JUMP JUMPDEST PUSH0 DUP3 DUP3 MSTORE PUSH1 0x20 DUP3 ADD SWAP1 POP SWAP3 SWAP2 POP POP JUMP JUMPDEST PUSH32 0x566F74696E6720706572696F642068617320656E646564000000000000000000 PUSH0 DUP3 ADD MSTORE POP JUMP JUMPDEST PUSH0 PUSH2 0x2E1 PUSH1 0x17 DUP4 PUSH2 0x29D JUMP JUMPDEST SWAP2 POP PUSH2 0x2EC DUP3 PUSH2 0x2AD JUMP JUMPDEST PUSH1 0x20 DUP3 ADD SWAP1 POP SWAP2 SWAP1 POP JUMP JUMPDEST PUSH0 PUSH1 0x20 DUP3 ADD SWAP1 POP DUP2 DUP2 SUB PUSH0 DUP4 ADD MSTORE PUSH2 0x30E DUP2 PUSH2 0x2D5 JUMP JUMPDEST SWAP1 POP SWAP2 SWAP1 POP JUMP JUMPDEST PUSH32 0x4E487B7100000000000000000000000000000000000000000000000000000000 PUSH0 MSTORE PUSH1 0x11 PUSH1 0x4 MSTORE PUSH1 0x24 PUSH0 REVERT JUMPDEST PUSH0 PUSH2 0x34C DUP3 PUSH2 0x239 JUMP JUMPDEST SWAP2 POP PUSH2 0x357 DUP4 PUSH2 0x239 JUMP JUMPDEST SWAP3 POP DUP3 DUP3 ADD SWAP1 POP DUP1 DUP3 GT ISZERO PUSH2 0x36F JUMPI PUSH2 0x36E PUSH2 0x315 JUMP JUMPDEST JUMPDEST SWAP3 SWAP2 POP POP JUMP INVALID LOG2 PUSH5 0x6970667358 0x22 SLT KECCAK256 0xCB 0x27 DUP11 PUSH7 0xC7ED30B0A30001 0xE DUP5 PUSH28 0x5324BC9053855A0C318365068A5B1AEFFCA364736F6C634300081A00 CALLER "
				},
				"gasEstimates": {
					"creation": {
						"codeDepositCost": "187800",
						"executionCost": "infinite",
						"totalCost": "infinite"
					},
					"external": {
						"endBlock()": "2426",
						"getCurrentBlock()": "376",
						"isVotingPeriodOver()": "2465",
						"startBlock()": "2448",
						"voteAgainst()": "infinite",
						"voteFor()": "infinite",
						"votesAgainst()": "2492",
						"votesFor()": "2468"
					}
				},
				"methodIdentifiers": {
					"endBlock()": "083c6323",
					"getCurrentBlock()": "672d5d3b",
					"isVotingPeriodOver()": "afba4bef",
					"startBlock()": "48cd4cb1",
					"voteAgainst()": "9f396cff",
					"voteFor()": "ffaa3608",
					"votesAgainst()": "91b4384d",
					"votesFor()": "fd4f623c"
				}
			},
			"storageLayout": {
				"storage": [
					{
						"astId": 361,
						"contract": "solidity/solidity91~90.sol:Q85",
						"label": "votesFor",
						"offset": 0,
						"slot": "0",
						"type": "t_uint256"
					},
					{
						"astId": 363,
						"contract": "solidity/solidity91~90.sol:Q85",
						"label": "votesAgainst",
						"offset": 0,
						"slot": "1",
						"type": "t_uint256"
					},
					{
						"astId": 365,
						"contract": "solidity/solidity91~90.sol:Q85",
						"label": "startBlock",
						"offset": 0,
						"slot": "2",
						"type": "t_uint256"
					},
					{
						"astId": 367,
						"contract": "solidity/solidity91~90.sol:Q85",
						"label": "endBlock",
						"offset": 0,
						"slot": "3",
						"type": "t_uint256"
					}
				],
				"types": {
					"t_uint256": {
						"encoding": "inplace",
						"label": "uint256",
						"numberOfBytes": "32"
					}
				}
			},
			"userdoc": {
				"kind": "user",
				"methods": {},
				"version": 1
			}
		}
	}
}