{
	"solidity/solidity91~90.sol": {
		"Q86": {
			"abi": [
				{
					"inputs": [],
					"name": "deposit",
					"outputs": [],
					"stateMutability": "payable",
					"type": "function"
				},
				{
					"inputs": [
						{
							"internalType": "address",
							"name": "",
							"type": "address"
						}
					],
					"name": "deposits",
					"outputs": [
						{
							"internalType": "uint256",
							"name": "",
							"type": "uint256"
						}
					],
					"stateMutability": "view",
					"type": "function"
				},
				{
					"inputs": [
						{
							"internalType": "address",
							"name": "user",
							"type": "address"
						}
					],
					"name": "getDeposit",
					"outputs": [
						{
							"internalType": "uint256",
							"name": "",
							"type": "uint256"
						}
					],
					"stateMutability": "view",
					"type": "function"
				},
				{
					"inputs": [],
					"name": "voteAgainst",
					"outputs": [],
					"stateMutability": "nonpayable",
					"type": "function"
				},
				{
					"inputs": [],
					"name": "voteFor",
					"outputs": [],
					"stateMutability": "nonpayable",
					"type": "function"
				},
				{
					"inputs": [],
					"name": "votesAgainst",
					"outputs": [
						{
							"internalType": "uint256",
							"name": "",
							"type": "uint256"
						}
					],
					"stateMutability": "view",
					"type": "function"
				},
				{
					"inputs": [],
					"name": "votesFor",
					"outputs": [
						{
							"internalType": "uint256",
							"name": "",
							"type": "uint256"
						}
					],
					"stateMutability": "view",
					"type": "function"
				},
				{
					"inputs": [
						{
							"internalType": "uint256",
							"name": "amount",
							"type": "uint256"
						}
					],
					"name": "withdraw",
					"outputs": [],
					"stateMutability": "nonpayable",
					"type": "function"
				}
			],
			"devdoc": {
				"kind": "dev",
				"methods": {},
				"version": 1
			},
			"evm": {
				"assembly": "    /* \"solidity/solidity91~90.sol\":4738:5968  contract Q86 {... */\n  mstore(0x40, 0x80)\n  callvalue\n  dup1\n  iszero\n  tag_1\n  jumpi\n  0x00\n  dup1\n  revert\ntag_1:\n  pop\n  dataSize(sub_0)\n  dup1\n  dataOffset(sub_0)\n  0x00\n  codecopy\n  0x00\n  return\nstop\n\nsub_0: assembly {\n        /* \"solidity/solidity91~90.sol\":4738:5968  contract Q86 {... */\n      mstore(0x40, 0x80)\n      jumpi(tag_1, lt(calldatasize, 0x04))\n      shr(0xe0, calldataload(0x00))\n      dup1\n      0xe1254fba\n      gt\n      tag_10\n      jumpi\n      dup1\n      0xe1254fba\n      eq\n      tag_6\n      jumpi\n      dup1\n      0xfc7e286d\n      eq\n      tag_7\n      jumpi\n      dup1\n      0xfd4f623c\n      eq\n      tag_8\n      jumpi\n      dup1\n      0xffaa3608\n      eq\n      tag_9\n      jumpi\n      jump(tag_1)\n    tag_10:\n      dup1\n      0x2e1a7d4d\n      eq\n      tag_2\n      jumpi\n      dup1\n      0x91b4384d\n      eq\n      tag_3\n      jumpi\n      dup1\n      0x9f396cff\n      eq\n      tag_4\n      jumpi\n      dup1\n      0xd0e30db0\n      eq\n      tag_5\n      jumpi\n    tag_1:\n      0x00\n      dup1\n      revert\n        /* \"solidity/solidity91~90.sol\":5651:5858  function withdraw(uint256 amount) public {... */\n    tag_2:\n      callvalue\n      dup1\n      iszero\n      tag_11\n      jumpi\n      0x00\n      dup1\n      revert\n    tag_11:\n      pop\n      tag_12\n      0x04\n      dup1\n      calldatasize\n      sub\n      dup2\n      add\n      swap1\n      tag_13\n      swap2\n      swap1\n      tag_14\n      jump\t// in\n    tag_13:\n      tag_15\n      jump\t// in\n    tag_12:\n      stop\n        /* \"solidity/solidity91~90.sol\":5029:5056  uint256 public votesAgainst */\n    tag_3:\n      callvalue\n      dup1\n      iszero\n      tag_16\n      jumpi\n      0x00\n      dup1\n      revert\n    tag_16:\n      pop\n      tag_17\n      tag_18\n      jump\t// in\n    tag_17:\n      mload(0x40)\n      tag_19\n      swap2\n      swap1\n      tag_20\n      jump\t// in\n    tag_19:\n      mload(0x40)\n      dup1\n      swap2\n      sub\n      swap1\n      return\n        /* \"solidity/solidity91~90.sol\":5482:5645  function voteAgainst() public {... */\n    tag_4:\n      callvalue\n      dup1\n      iszero\n      tag_21\n      jumpi\n      0x00\n      dup1\n      revert\n    tag_21:\n      pop\n      tag_22\n      tag_23\n      jump\t// in\n    tag_22:\n      stop\n        /* \"solidity/solidity91~90.sol\":5158:5315  function deposit() public payable {... */\n    tag_5:\n      tag_24\n      tag_25\n      jump\t// in\n    tag_24:\n      stop\n        /* \"solidity/solidity91~90.sol\":5864:5966  function getDeposit(address user) public view returns (uint256) {... */\n    tag_6:\n      callvalue\n      dup1\n      iszero\n      tag_26\n      jumpi\n      0x00\n      dup1\n      revert\n    tag_26:\n      pop\n      tag_27\n      0x04\n      dup1\n      calldatasize\n      sub\n      dup2\n      add\n      swap1\n      tag_28\n      swap2\n      swap1\n      tag_29\n      jump\t// in\n    tag_28:\n      tag_30\n      jump\t// in\n    tag_27:\n      mload(0x40)\n      tag_31\n      swap2\n      swap1\n      tag_20\n      jump\t// in\n    tag_31:\n      mload(0x40)\n      dup1\n      swap2\n      sub\n      swap1\n      return\n        /* \"solidity/solidity91~90.sol\":5063:5106  mapping(address => uint256) public deposits */\n    tag_7:\n      callvalue\n      dup1\n      iszero\n      tag_32\n      jumpi\n      0x00\n      dup1\n      revert\n    tag_32:\n      pop\n      tag_33\n      0x04\n      dup1\n      calldatasize\n      sub\n      dup2\n      add\n      swap1\n      tag_34\n      swap2\n      swap1\n      tag_29\n      jump\t// in\n    tag_34:\n      tag_35\n      jump\t// in\n    tag_33:\n      mload(0x40)\n      tag_36\n      swap2\n      swap1\n      tag_20\n      jump\t// in\n    tag_36:\n      mload(0x40)\n      dup1\n      swap2\n      sub\n      swap1\n      return\n        /* \"solidity/solidity91~90.sol\":5000:5023  uint256 public votesFor */\n    tag_8:\n      callvalue\n      dup1\n      iszero\n      tag_37\n      jumpi\n      0x00\n      dup1\n      revert\n    tag_37:\n      pop\n      tag_38\n      tag_39\n      jump\t// in\n    tag_38:\n      mload(0x40)\n      tag_40\n      swap2\n      swap1\n      tag_20\n      jump\t// in\n    tag_40:\n      mload(0x40)\n      dup1\n      swap2\n      sub\n      swap1\n      return\n        /* \"solidity/solidity91~90.sol\":5321:5476  function voteFor() public {... */\n    tag_9:\n      callvalue\n      dup1\n      iszero\n      tag_41\n      jumpi\n      0x00\n      dup1\n      revert\n    tag_41:\n      pop\n      tag_42\n      tag_43\n      jump\t// in\n    tag_42:\n      stop\n        /* \"solidity/solidity91~90.sol\":5651:5858  function withdraw(uint256 amount) public {... */\n    tag_15:\n        /* \"solidity/solidity91~90.sol\":5734:5740  amount */\n      dup1\n        /* \"solidity/solidity91~90.sol\":5710:5718  deposits */\n      0x02\n        /* \"solidity/solidity91~90.sol\":5710:5730  deposits[msg.sender] */\n      0x00\n        /* \"solidity/solidity91~90.sol\":5719:5729  msg.sender */\n      caller\n        /* \"solidity/solidity91~90.sol\":5710:5730  deposits[msg.sender] */\n      0xffffffffffffffffffffffffffffffffffffffff\n      and\n      0xffffffffffffffffffffffffffffffffffffffff\n      and\n      dup2\n      mstore\n      0x20\n      add\n      swap1\n      dup2\n      mstore\n      0x20\n      add\n      0x00\n      keccak256\n      sload\n        /* \"solidity/solidity91~90.sol\":5710:5740  deposits[msg.sender] >= amount */\n      lt\n      iszero\n        /* \"solidity/solidity91~90.sol\":5702:5765  require(deposits[msg.sender] >= amount, \"Insufficient balance\") */\n      tag_45\n      jumpi\n      mload(0x40)\n      0x08c379a000000000000000000000000000000000000000000000000000000000\n      dup2\n      mstore\n      0x04\n      add\n      tag_46\n      swap1\n      tag_47\n      jump\t// in\n    tag_46:\n      mload(0x40)\n      dup1\n      swap2\n      sub\n      swap1\n      revert\n    tag_45:\n        /* \"solidity/solidity91~90.sol\":5799:5805  amount */\n      dup1\n        /* \"solidity/solidity91~90.sol\":5775:5783  deposits */\n      0x02\n        /* \"solidity/solidity91~90.sol\":5775:5795  deposits[msg.sender] */\n      0x00\n        /* \"solidity/solidity91~90.sol\":5784:5794  msg.sender */\n      caller\n        /* \"solidity/solidity91~90.sol\":5775:5795  deposits[msg.sender] */\n      0xffffffffffffffffffffffffffffffffffffffff\n      and\n      0xffffffffffffffffffffffffffffffffffffffff\n      and\n      dup2\n      mstore\n      0x20\n      add\n      swap1\n      dup2\n      mstore\n      0x20\n      add\n      0x00\n      keccak256\n      0x00\n        /* \"solidity/solidity91~90.sol\":5775:5805  deposits[msg.sender] -= amount */\n      dup3\n      dup3\n      sload\n      tag_48\n      swap2\n      swap1\n      tag_49\n      jump\t// in\n    tag_48:\n      swap3\n      pop\n      pop\n      dup2\n      swap1\n      sstore\n      pop\n        /* \"solidity/solidity91~90.sol\":5823:5833  msg.sender */\n      caller\n        /* \"solidity/solidity91~90.sol\":5815:5843  payable(msg.sender).transfer */\n      0xffffffffffffffffffffffffffffffffffffffff\n      and\n        /* \"solidity/solidity91~90.sol\":5815:5851  payable(msg.sender).transfer(amount) */\n      0x08fc\n        /* \"solidity/solidity91~90.sol\":5844:5850  amount */\n      dup3\n        /* \"solidity/solidity91~90.sol\":5815:5851  payable(msg.sender).transfer(amount) */\n      swap1\n      dup2\n      iszero\n      mul\n      swap1\n      mload(0x40)\n      0x00\n      mload(0x40)\n      dup1\n      dup4\n      sub\n      dup2\n      dup6\n      dup9\n      dup9\n      call\n      swap4\n      pop\n      pop\n      pop\n      pop\n      iszero\n      dup1\n      iszero\n      tag_51\n      jumpi\n      returndatasize\n      0x00\n      dup1\n      returndatacopy\n      revert(0x00, returndatasize)\n    tag_51:\n      pop\n        /* \"solidity/solidity91~90.sol\":5651:5858  function withdraw(uint256 amount) public {... */\n      pop\n      jump\t// out\n        /* \"solidity/solidity91~90.sol\":5029:5056  uint256 public votesAgainst */\n    tag_18:\n      sload(0x01)\n      dup2\n      jump\t// out\n        /* \"solidity/solidity91~90.sol\":5482:5645  function voteAgainst() public {... */\n    tag_23:\n        /* \"solidity/solidity91~90.sol\":5144:5151  1 ether */\n      0x0de0b6b3a7640000\n        /* \"solidity/solidity91~90.sol\":5530:5538  deposits */\n      0x02\n        /* \"solidity/solidity91~90.sol\":5530:5550  deposits[msg.sender] */\n      0x00\n        /* \"solidity/solidity91~90.sol\":5539:5549  msg.sender */\n      caller\n        /* \"solidity/solidity91~90.sol\":5530:5550  deposits[msg.sender] */\n      0xffffffffffffffffffffffffffffffffffffffff\n      and\n      0xffffffffffffffffffffffffffffffffffffffff\n      and\n      dup2\n      mstore\n      0x20\n      add\n      swap1\n      dup2\n      mstore\n      0x20\n      add\n      0x00\n      keccak256\n      sload\n        /* \"solidity/solidity91~90.sol\":5530:5565  deposits[msg.sender] >= MIN_DEPOSIT */\n      lt\n      iszero\n        /* \"solidity/solidity91~90.sol\":5522:5611  require(deposits[msg.sender] >= MIN_DEPOSIT, \"You must deposit at least 1 ether to vote\") */\n      tag_53\n      jumpi\n      mload(0x40)\n      0x08c379a000000000000000000000000000000000000000000000000000000000\n      dup2\n      mstore\n      0x04\n      add\n      tag_54\n      swap1\n      tag_55\n      jump\t// in\n    tag_54:\n      mload(0x40)\n      dup1\n      swap2\n      sub\n      swap1\n      revert\n    tag_53:\n        /* \"solidity/solidity91~90.sol\":5637:5638  1 */\n      0x01\n        /* \"solidity/solidity91~90.sol\":5621:5633  votesAgainst */\n      dup1\n      0x00\n        /* \"solidity/solidity91~90.sol\":5621:5638  votesAgainst += 1 */\n      dup3\n      dup3\n      sload\n      tag_56\n      swap2\n      swap1\n      tag_57\n      jump\t// in\n    tag_56:\n      swap3\n      pop\n      pop\n      dup2\n      swap1\n      sstore\n      pop\n        /* \"solidity/solidity91~90.sol\":5482:5645  function voteAgainst() public {... */\n      jump\t// out\n        /* \"solidity/solidity91~90.sol\":5158:5315  function deposit() public payable {... */\n    tag_25:\n        /* \"solidity/solidity91~90.sol\":5144:5151  1 ether */\n      0x0de0b6b3a7640000\n        /* \"solidity/solidity91~90.sol\":5210:5219  msg.value */\n      callvalue\n        /* \"solidity/solidity91~90.sol\":5210:5234  msg.value >= MIN_DEPOSIT */\n      lt\n      iszero\n        /* \"solidity/solidity91~90.sol\":5202:5265  require(msg.value >= MIN_DEPOSIT, \"Minimum deposit is 1 ether\") */\n      tag_59\n      jumpi\n      mload(0x40)\n      0x08c379a000000000000000000000000000000000000000000000000000000000\n      dup2\n      mstore\n      0x04\n      add\n      tag_60\n      swap1\n      tag_61\n      jump\t// in\n    tag_60:\n      mload(0x40)\n      dup1\n      swap2\n      sub\n      swap1\n      revert\n    tag_59:\n        /* \"solidity/solidity91~90.sol\":5299:5308  msg.value */\n      callvalue\n        /* \"solidity/solidity91~90.sol\":5275:5283  deposits */\n      0x02\n        /* \"solidity/solidity91~90.sol\":5275:5295  deposits[msg.sender] */\n      0x00\n        /* \"solidity/solidity91~90.sol\":5284:5294  msg.sender */\n      caller\n        /* \"solidity/solidity91~90.sol\":5275:5295  deposits[msg.sender] */\n      0xffffffffffffffffffffffffffffffffffffffff\n      and\n      0xffffffffffffffffffffffffffffffffffffffff\n      and\n      dup2\n      mstore\n      0x20\n      add\n      swap1\n      dup2\n      mstore\n      0x20\n      add\n      0x00\n      keccak256\n      0x00\n        /* \"solidity/solidity91~90.sol\":5275:5308  deposits[msg.sender] += msg.value */\n      dup3\n      dup3\n      sload\n      tag_62\n      swap2\n      swap1\n      tag_57\n      jump\t// in\n    tag_62:\n      swap3\n      pop\n      pop\n      dup2\n      swap1\n      sstore\n      pop\n        /* \"solidity/solidity91~90.sol\":5158:5315  function deposit() public payable {... */\n      jump\t// out\n        /* \"solidity/solidity91~90.sol\":5864:5966  function getDeposit(address user) public view returns (uint256) {... */\n    tag_30:\n        /* \"solidity/solidity91~90.sol\":5919:5926  uint256 */\n      0x00\n        /* \"solidity/solidity91~90.sol\":5945:5953  deposits */\n      0x02\n        /* \"solidity/solidity91~90.sol\":5945:5959  deposits[user] */\n      0x00\n        /* \"solidity/solidity91~90.sol\":5954:5958  user */\n      dup4\n        /* \"solidity/solidity91~90.sol\":5945:5959  deposits[user] */\n      0xffffffffffffffffffffffffffffffffffffffff\n      and\n      0xffffffffffffffffffffffffffffffffffffffff\n      and\n      dup2\n      mstore\n      0x20\n      add\n      swap1\n      dup2\n      mstore\n      0x20\n      add\n      0x00\n      keccak256\n      sload\n        /* \"solidity/solidity91~90.sol\":5938:5959  return deposits[user] */\n      swap1\n      pop\n        /* \"solidity/solidity91~90.sol\":5864:5966  function getDeposit(address user) public view returns (uint256) {... */\n      swap2\n      swap1\n      pop\n      jump\t// out\n        /* \"solidity/solidity91~90.sol\":5063:5106  mapping(address => uint256) public deposits */\n    tag_35:\n      mstore(0x20, 0x02)\n      dup1\n      0x00\n      mstore\n      keccak256(0x00, 0x40)\n      0x00\n      swap2\n      pop\n      swap1\n      pop\n      sload\n      dup2\n      jump\t// out\n        /* \"solidity/solidity91~90.sol\":5000:5023  uint256 public votesFor */\n    tag_39:\n      sload(0x00)\n      dup2\n      jump\t// out\n        /* \"solidity/solidity91~90.sol\":5321:5476  function voteFor() public {... */\n    tag_43:\n        /* \"solidity/solidity91~90.sol\":5144:5151  1 ether */\n      0x0de0b6b3a7640000\n        /* \"solidity/solidity91~90.sol\":5365:5373  deposits */\n      0x02\n        /* \"solidity/solidity91~90.sol\":5365:5385  deposits[msg.sender] */\n      0x00\n        /* \"solidity/solidity91~90.sol\":5374:5384  msg.sender */\n      caller\n        /* \"solidity/solidity91~90.sol\":5365:5385  deposits[msg.sender] */\n      0xffffffffffffffffffffffffffffffffffffffff\n      and\n      0xffffffffffffffffffffffffffffffffffffffff\n      and\n      dup2\n      mstore\n      0x20\n      add\n      swap1\n      dup2\n      mstore\n      0x20\n      add\n      0x00\n      keccak256\n      sload\n        /* \"solidity/solidity91~90.sol\":5365:5400  deposits[msg.sender] >= MIN_DEPOSIT */\n      lt\n      iszero\n        /* \"solidity/solidity91~90.sol\":5357:5446  require(deposits[msg.sender] >= MIN_DEPOSIT, \"You must deposit at least 1 ether to vote\") */\n      tag_65\n      jumpi\n      mload(0x40)\n      0x08c379a000000000000000000000000000000000000000000000000000000000\n      dup2\n      mstore\n      0x04\n      add\n      tag_66\n      swap1\n      tag_55\n      jump\t// in\n    tag_66:\n      mload(0x40)\n      dup1\n      swap2\n      sub\n      swap1\n      revert\n    tag_65:\n        /* \"solidity/solidity91~90.sol\":5468:5469  1 */\n      0x01\n        /* \"solidity/solidity91~90.sol\":5456:5464  votesFor */\n      0x00\n      dup1\n        /* \"solidity/solidity91~90.sol\":5456:5469  votesFor += 1 */\n      dup3\n      dup3\n      sload\n      tag_67\n      swap2\n      swap1\n      tag_57\n      jump\t// in\n    tag_67:\n      swap3\n      pop\n      pop\n      dup2\n      swap1\n      sstore\n      pop\n        /* \"solidity/solidity91~90.sol\":5321:5476  function voteFor() public {... */\n      jump\t// out\n        /* \"#utility.yul\":88:205   */\n    tag_69:\n        /* \"#utility.yul\":197:198   */\n      0x00\n        /* \"#utility.yul\":194:195   */\n      dup1\n        /* \"#utility.yul\":187:199   */\n      revert\n        /* \"#utility.yul\":334:411   */\n    tag_71:\n        /* \"#utility.yul\":371:378   */\n      0x00\n        /* \"#utility.yul\":400:405   */\n      dup2\n        /* \"#utility.yul\":389:405   */\n      swap1\n      pop\n        /* \"#utility.yul\":334:411   */\n      swap2\n      swap1\n      pop\n      jump\t// out\n        /* \"#utility.yul\":417:539   */\n    tag_72:\n        /* \"#utility.yul\":490:514   */\n      tag_93\n        /* \"#utility.yul\":508:513   */\n      dup2\n        /* \"#utility.yul\":490:514   */\n      tag_71\n      jump\t// in\n    tag_93:\n        /* \"#utility.yul\":483:488   */\n      dup2\n        /* \"#utility.yul\":480:515   */\n      eq\n        /* \"#utility.yul\":470:533   */\n      tag_94\n      jumpi\n        /* \"#utility.yul\":529:530   */\n      0x00\n        /* \"#utility.yul\":526:527   */\n      dup1\n        /* \"#utility.yul\":519:531   */\n      revert\n        /* \"#utility.yul\":470:533   */\n    tag_94:\n        /* \"#utility.yul\":417:539   */\n      pop\n      jump\t// out\n        /* \"#utility.yul\":545:684   */\n    tag_73:\n        /* \"#utility.yul\":591:596   */\n      0x00\n        /* \"#utility.yul\":629:635   */\n      dup2\n        /* \"#utility.yul\":616:636   */\n      calldataload\n        /* \"#utility.yul\":607:636   */\n      swap1\n      pop\n        /* \"#utility.yul\":645:678   */\n      tag_96\n        /* \"#utility.yul\":672:677   */\n      dup2\n        /* \"#utility.yul\":645:678   */\n      tag_72\n      jump\t// in\n    tag_96:\n        /* \"#utility.yul\":545:684   */\n      swap3\n      swap2\n      pop\n      pop\n      jump\t// out\n        /* \"#utility.yul\":690:1019   */\n    tag_14:\n        /* \"#utility.yul\":749:755   */\n      0x00\n        /* \"#utility.yul\":798:800   */\n      0x20\n        /* \"#utility.yul\":786:795   */\n      dup3\n        /* \"#utility.yul\":777:784   */\n      dup5\n        /* \"#utility.yul\":773:796   */\n      sub\n        /* \"#utility.yul\":769:801   */\n      slt\n        /* \"#utility.yul\":766:885   */\n      iszero\n      tag_98\n      jumpi\n        /* \"#utility.yul\":804:883   */\n      tag_99\n      tag_69\n      jump\t// in\n    tag_99:\n        /* \"#utility.yul\":766:885   */\n    tag_98:\n        /* \"#utility.yul\":924:925   */\n      0x00\n        /* \"#utility.yul\":949:1002   */\n      tag_100\n        /* \"#utility.yul\":994:1001   */\n      dup5\n        /* \"#utility.yul\":985:991   */\n      dup3\n        /* \"#utility.yul\":974:983   */\n      dup6\n        /* \"#utility.yul\":970:992   */\n      add\n        /* \"#utility.yul\":949:1002   */\n      tag_73\n      jump\t// in\n    tag_100:\n        /* \"#utility.yul\":939:1002   */\n      swap2\n      pop\n        /* \"#utility.yul\":895:1012   */\n      pop\n        /* \"#utility.yul\":690:1019   */\n      swap3\n      swap2\n      pop\n      pop\n      jump\t// out\n        /* \"#utility.yul\":1025:1143   */\n    tag_74:\n        /* \"#utility.yul\":1112:1136   */\n      tag_102\n        /* \"#utility.yul\":1130:1135   */\n      dup2\n        /* \"#utility.yul\":1112:1136   */\n      tag_71\n      jump\t// in\n    tag_102:\n        /* \"#utility.yul\":1107:1110   */\n      dup3\n        /* \"#utility.yul\":1100:1137   */\n      mstore\n        /* \"#utility.yul\":1025:1143   */\n      pop\n      pop\n      jump\t// out\n        /* \"#utility.yul\":1149:1371   */\n    tag_20:\n        /* \"#utility.yul\":1242:1246   */\n      0x00\n        /* \"#utility.yul\":1280:1282   */\n      0x20\n        /* \"#utility.yul\":1269:1278   */\n      dup3\n        /* \"#utility.yul\":1265:1283   */\n      add\n        /* \"#utility.yul\":1257:1283   */\n      swap1\n      pop\n        /* \"#utility.yul\":1293:1364   */\n      tag_104\n        /* \"#utility.yul\":1361:1362   */\n      0x00\n        /* \"#utility.yul\":1350:1359   */\n      dup4\n        /* \"#utility.yul\":1346:1363   */\n      add\n        /* \"#utility.yul\":1337:1343   */\n      dup5\n        /* \"#utility.yul\":1293:1364   */\n      tag_74\n      jump\t// in\n    tag_104:\n        /* \"#utility.yul\":1149:1371   */\n      swap3\n      swap2\n      pop\n      pop\n      jump\t// out\n        /* \"#utility.yul\":1377:1503   */\n    tag_75:\n        /* \"#utility.yul\":1414:1421   */\n      0x00\n        /* \"#utility.yul\":1454:1496   */\n      0xffffffffffffffffffffffffffffffffffffffff\n        /* \"#utility.yul\":1447:1452   */\n      dup3\n        /* \"#utility.yul\":1443:1497   */\n      and\n        /* \"#utility.yul\":1432:1497   */\n      swap1\n      pop\n        /* \"#utility.yul\":1377:1503   */\n      swap2\n      swap1\n      pop\n      jump\t// out\n        /* \"#utility.yul\":1509:1605   */\n    tag_76:\n        /* \"#utility.yul\":1546:1553   */\n      0x00\n        /* \"#utility.yul\":1575:1599   */\n      tag_107\n        /* \"#utility.yul\":1593:1598   */\n      dup3\n        /* \"#utility.yul\":1575:1599   */\n      tag_75\n      jump\t// in\n    tag_107:\n        /* \"#utility.yul\":1564:1599   */\n      swap1\n      pop\n        /* \"#utility.yul\":1509:1605   */\n      swap2\n      swap1\n      pop\n      jump\t// out\n        /* \"#utility.yul\":1611:1733   */\n    tag_77:\n        /* \"#utility.yul\":1684:1708   */\n      tag_109\n        /* \"#utility.yul\":1702:1707   */\n      dup2\n        /* \"#utility.yul\":1684:1708   */\n      tag_76\n      jump\t// in\n    tag_109:\n        /* \"#utility.yul\":1677:1682   */\n      dup2\n        /* \"#utility.yul\":1674:1709   */\n      eq\n        /* \"#utility.yul\":1664:1727   */\n      tag_110\n      jumpi\n        /* \"#utility.yul\":1723:1724   */\n      0x00\n        /* \"#utility.yul\":1720:1721   */\n      dup1\n        /* \"#utility.yul\":1713:1725   */\n      revert\n        /* \"#utility.yul\":1664:1727   */\n    tag_110:\n        /* \"#utility.yul\":1611:1733   */\n      pop\n      jump\t// out\n        /* \"#utility.yul\":1739:1878   */\n    tag_78:\n        /* \"#utility.yul\":1785:1790   */\n      0x00\n        /* \"#utility.yul\":1823:1829   */\n      dup2\n        /* \"#utility.yul\":1810:1830   */\n      calldataload\n        /* \"#utility.yul\":1801:1830   */\n      swap1\n      pop\n        /* \"#utility.yul\":1839:1872   */\n      tag_112\n        /* \"#utility.yul\":1866:1871   */\n      dup2\n        /* \"#utility.yul\":1839:1872   */\n      tag_77\n      jump\t// in\n    tag_112:\n        /* \"#utility.yul\":1739:1878   */\n      swap3\n      swap2\n      pop\n      pop\n      jump\t// out\n        /* \"#utility.yul\":1884:2213   */\n    tag_29:\n        /* \"#utility.yul\":1943:1949   */\n      0x00\n        /* \"#utility.yul\":1992:1994   */\n      0x20\n        /* \"#utility.yul\":1980:1989   */\n      dup3\n        /* \"#utility.yul\":1971:1978   */\n      dup5\n        /* \"#utility.yul\":1967:1990   */\n      sub\n        /* \"#utility.yul\":1963:1995   */\n      slt\n        /* \"#utility.yul\":1960:2079   */\n      iszero\n      tag_114\n      jumpi\n        /* \"#utility.yul\":1998:2077   */\n      tag_115\n      tag_69\n      jump\t// in\n    tag_115:\n        /* \"#utility.yul\":1960:2079   */\n    tag_114:\n        /* \"#utility.yul\":2118:2119   */\n      0x00\n        /* \"#utility.yul\":2143:2196   */\n      tag_116\n        /* \"#utility.yul\":2188:2195   */\n      dup5\n        /* \"#utility.yul\":2179:2185   */\n      dup3\n        /* \"#utility.yul\":2168:2177   */\n      dup6\n        /* \"#utility.yul\":2164:2186   */\n      add\n        /* \"#utility.yul\":2143:2196   */\n      tag_78\n      jump\t// in\n    tag_116:\n        /* \"#utility.yul\":2133:2196   */\n      swap2\n      pop\n        /* \"#utility.yul\":2089:2206   */\n      pop\n        /* \"#utility.yul\":1884:2213   */\n      swap3\n      swap2\n      pop\n      pop\n      jump\t// out\n        /* \"#utility.yul\":2219:2388   */\n    tag_79:\n        /* \"#utility.yul\":2303:2314   */\n      0x00\n        /* \"#utility.yul\":2337:2343   */\n      dup3\n        /* \"#utility.yul\":2332:2335   */\n      dup3\n        /* \"#utility.yul\":2325:2344   */\n      mstore\n        /* \"#utility.yul\":2377:2381   */\n      0x20\n        /* \"#utility.yul\":2372:2375   */\n      dup3\n        /* \"#utility.yul\":2368:2382   */\n      add\n        /* \"#utility.yul\":2353:2382   */\n      swap1\n      pop\n        /* \"#utility.yul\":2219:2388   */\n      swap3\n      swap2\n      pop\n      pop\n      jump\t// out\n        /* \"#utility.yul\":2394:2564   */\n    tag_80:\n        /* \"#utility.yul\":2534:2556   */\n      0x496e73756666696369656e742062616c616e6365000000000000000000000000\n        /* \"#utility.yul\":2530:2531   */\n      0x00\n        /* \"#utility.yul\":2522:2528   */\n      dup3\n        /* \"#utility.yul\":2518:2532   */\n      add\n        /* \"#utility.yul\":2511:2557   */\n      mstore\n        /* \"#utility.yul\":2394:2564   */\n      pop\n      jump\t// out\n        /* \"#utility.yul\":2570:2936   */\n    tag_81:\n        /* \"#utility.yul\":2712:2715   */\n      0x00\n        /* \"#utility.yul\":2733:2800   */\n      tag_120\n        /* \"#utility.yul\":2797:2799   */\n      0x14\n        /* \"#utility.yul\":2792:2795   */\n      dup4\n        /* \"#utility.yul\":2733:2800   */\n      tag_79\n      jump\t// in\n    tag_120:\n        /* \"#utility.yul\":2726:2800   */\n      swap2\n      pop\n        /* \"#utility.yul\":2809:2902   */\n      tag_121\n        /* \"#utility.yul\":2898:2901   */\n      dup3\n        /* \"#utility.yul\":2809:2902   */\n      tag_80\n      jump\t// in\n    tag_121:\n        /* \"#utility.yul\":2927:2929   */\n      0x20\n        /* \"#utility.yul\":2922:2925   */\n      dup3\n        /* \"#utility.yul\":2918:2930   */\n      add\n        /* \"#utility.yul\":2911:2930   */\n      swap1\n      pop\n        /* \"#utility.yul\":2570:2936   */\n      swap2\n      swap1\n      pop\n      jump\t// out\n        /* \"#utility.yul\":2942:3361   */\n    tag_47:\n        /* \"#utility.yul\":3108:3112   */\n      0x00\n        /* \"#utility.yul\":3146:3148   */\n      0x20\n        /* \"#utility.yul\":3135:3144   */\n      dup3\n        /* \"#utility.yul\":3131:3149   */\n      add\n        /* \"#utility.yul\":3123:3149   */\n      swap1\n      pop\n        /* \"#utility.yul\":3195:3204   */\n      dup2\n        /* \"#utility.yul\":3189:3193   */\n      dup2\n        /* \"#utility.yul\":3185:3205   */\n      sub\n        /* \"#utility.yul\":3181:3182   */\n      0x00\n        /* \"#utility.yul\":3170:3179   */\n      dup4\n        /* \"#utility.yul\":3166:3183   */\n      add\n        /* \"#utility.yul\":3159:3206   */\n      mstore\n        /* \"#utility.yul\":3223:3354   */\n      tag_123\n        /* \"#utility.yul\":3349:3353   */\n      dup2\n        /* \"#utility.yul\":3223:3354   */\n      tag_81\n      jump\t// in\n    tag_123:\n        /* \"#utility.yul\":3215:3354   */\n      swap1\n      pop\n        /* \"#utility.yul\":2942:3361   */\n      swap2\n      swap1\n      pop\n      jump\t// out\n        /* \"#utility.yul\":3367:3547   */\n    tag_82:\n        /* \"#utility.yul\":3415:3492   */\n      0x4e487b7100000000000000000000000000000000000000000000000000000000\n        /* \"#utility.yul\":3412:3413   */\n      0x00\n        /* \"#utility.yul\":3405:3493   */\n      mstore\n        /* \"#utility.yul\":3512:3516   */\n      0x11\n        /* \"#utility.yul\":3509:3510   */\n      0x04\n        /* \"#utility.yul\":3502:3517   */\n      mstore\n        /* \"#utility.yul\":3536:3540   */\n      0x24\n        /* \"#utility.yul\":3533:3534   */\n      0x00\n        /* \"#utility.yul\":3526:3541   */\n      revert\n        /* \"#utility.yul\":3553:3747   */\n    tag_49:\n        /* \"#utility.yul\":3593:3597   */\n      0x00\n        /* \"#utility.yul\":3613:3633   */\n      tag_126\n        /* \"#utility.yul\":3631:3632   */\n      dup3\n        /* \"#utility.yul\":3613:3633   */\n      tag_71\n      jump\t// in\n    tag_126:\n        /* \"#utility.yul\":3608:3633   */\n      swap2\n      pop\n        /* \"#utility.yul\":3647:3667   */\n      tag_127\n        /* \"#utility.yul\":3665:3666   */\n      dup4\n        /* \"#utility.yul\":3647:3667   */\n      tag_71\n      jump\t// in\n    tag_127:\n        /* \"#utility.yul\":3642:3667   */\n      swap3\n      pop\n        /* \"#utility.yul\":3691:3692   */\n      dup3\n        /* \"#utility.yul\":3688:3689   */\n      dup3\n        /* \"#utility.yul\":3684:3693   */\n      sub\n        /* \"#utility.yul\":3676:3693   */\n      swap1\n      pop\n        /* \"#utility.yul\":3715:3716   */\n      dup2\n        /* \"#utility.yul\":3709:3713   */\n      dup2\n        /* \"#utility.yul\":3706:3717   */\n      gt\n        /* \"#utility.yul\":3703:3740   */\n      iszero\n      tag_128\n      jumpi\n        /* \"#utility.yul\":3720:3738   */\n      tag_129\n      tag_82\n      jump\t// in\n    tag_129:\n        /* \"#utility.yul\":3703:3740   */\n    tag_128:\n        /* \"#utility.yul\":3553:3747   */\n      swap3\n      swap2\n      pop\n      pop\n      jump\t// out\n        /* \"#utility.yul\":3753:3981   */\n    tag_83:\n        /* \"#utility.yul\":3893:3927   */\n      0x596f75206d757374206465706f736974206174206c6561737420312065746865\n        /* \"#utility.yul\":3889:3890   */\n      0x00\n        /* \"#utility.yul\":3881:3887   */\n      dup3\n        /* \"#utility.yul\":3877:3891   */\n      add\n        /* \"#utility.yul\":3870:3928   */\n      mstore\n        /* \"#utility.yul\":3962:3973   */\n      0x7220746f20766f74650000000000000000000000000000000000000000000000\n        /* \"#utility.yul\":3957:3959   */\n      0x20\n        /* \"#utility.yul\":3949:3955   */\n      dup3\n        /* \"#utility.yul\":3945:3960   */\n      add\n        /* \"#utility.yul\":3938:3974   */\n      mstore\n        /* \"#utility.yul\":3753:3981   */\n      pop\n      jump\t// out\n        /* \"#utility.yul\":3987:4353   */\n    tag_84:\n        /* \"#utility.yul\":4129:4132   */\n      0x00\n        /* \"#utility.yul\":4150:4217   */\n      tag_132\n        /* \"#utility.yul\":4214:4216   */\n      0x29\n        /* \"#utility.yul\":4209:4212   */\n      dup4\n        /* \"#utility.yul\":4150:4217   */\n      tag_79\n      jump\t// in\n    tag_132:\n        /* \"#utility.yul\":4143:4217   */\n      swap2\n      pop\n        /* \"#utility.yul\":4226:4319   */\n      tag_133\n        /* \"#utility.yul\":4315:4318   */\n      dup3\n        /* \"#utility.yul\":4226:4319   */\n      tag_83\n      jump\t// in\n    tag_133:\n        /* \"#utility.yul\":4344:4346   */\n      0x40\n        /* \"#utility.yul\":4339:4342   */\n      dup3\n        /* \"#utility.yul\":4335:4347   */\n      add\n        /* \"#utility.yul\":4328:4347   */\n      swap1\n      pop\n        /* \"#utility.yul\":3987:4353   */\n      swap2\n      swap1\n      pop\n      jump\t// out\n        /* \"#utility.yul\":4359:4778   */\n    tag_55:\n        /* \"#utility.yul\":4525:4529   */\n      0x00\n        /* \"#utility.yul\":4563:4565   */\n      0x20\n        /* \"#utility.yul\":4552:4561   */\n      dup3\n        /* \"#utility.yul\":4548:4566   */\n      add\n        /* \"#utility.yul\":4540:4566   */\n      swap1\n      pop\n        /* \"#utility.yul\":4612:4621   */\n      dup2\n        /* \"#utility.yul\":4606:4610   */\n      dup2\n        /* \"#utility.yul\":4602:4622   */\n      sub\n        /* \"#utility.yul\":4598:4599   */\n      0x00\n        /* \"#utility.yul\":4587:4596   */\n      dup4\n        /* \"#utility.yul\":4583:4600   */\n      add\n        /* \"#utility.yul\":4576:4623   */\n      mstore\n        /* \"#utility.yul\":4640:4771   */\n      tag_135\n        /* \"#utility.yul\":4766:4770   */\n      dup2\n        /* \"#utility.yul\":4640:4771   */\n      tag_84\n      jump\t// in\n    tag_135:\n        /* \"#utility.yul\":4632:4771   */\n      swap1\n      pop\n        /* \"#utility.yul\":4359:4778   */\n      swap2\n      swap1\n      pop\n      jump\t// out\n        /* \"#utility.yul\":4784:4975   */\n    tag_57:\n        /* \"#utility.yul\":4824:4827   */\n      0x00\n        /* \"#utility.yul\":4843:4863   */\n      tag_137\n        /* \"#utility.yul\":4861:4862   */\n      dup3\n        /* \"#utility.yul\":4843:4863   */\n      tag_71\n      jump\t// in\n    tag_137:\n        /* \"#utility.yul\":4838:4863   */\n      swap2\n      pop\n        /* \"#utility.yul\":4877:4897   */\n      tag_138\n        /* \"#utility.yul\":4895:4896   */\n      dup4\n        /* \"#utility.yul\":4877:4897   */\n      tag_71\n      jump\t// in\n    tag_138:\n        /* \"#utility.yul\":4872:4897   */\n      swap3\n      pop\n        /* \"#utility.yul\":4920:4921   */\n      dup3\n        /* \"#utility.yul\":4917:4918   */\n      dup3\n        /* \"#utility.yul\":4913:4922   */\n      add\n        /* \"#utility.yul\":4906:4922   */\n      swap1\n      pop\n        /* \"#utility.yul\":4941:4944   */\n      dup1\n        /* \"#utility.yul\":4938:4939   */\n      dup3\n        /* \"#utility.yul\":4935:4945   */\n      gt\n        /* \"#utility.yul\":4932:4968   */\n      iszero\n      tag_139\n      jumpi\n        /* \"#utility.yul\":4948:4966   */\n      tag_140\n      tag_82\n      jump\t// in\n    tag_140:\n        /* \"#utility.yul\":4932:4968   */\n    tag_139:\n        /* \"#utility.yul\":4784:4975   */\n      swap3\n      swap2\n      pop\n      pop\n      jump\t// out\n        /* \"#utility.yul\":4981:5157   */\n    tag_85:\n        /* \"#utility.yul\":5121:5149   */\n      0x4d696e696d756d206465706f7369742069732031206574686572000000000000\n        /* \"#utility.yul\":5117:5118   */\n      0x00\n        /* \"#utility.yul\":5109:5115   */\n      dup3\n        /* \"#utility.yul\":5105:5119   */\n      add\n        /* \"#utility.yul\":5098:5150   */\n      mstore\n        /* \"#utility.yul\":4981:5157   */\n      pop\n      jump\t// out\n        /* \"#utility.yul\":5163:5529   */\n    tag_86:\n        /* \"#utility.yul\":5305:5308   */\n      0x00\n        /* \"#utility.yul\":5326:5393   */\n      tag_143\n        /* \"#utility.yul\":5390:5392   */\n      0x1a\n        /* \"#utility.yul\":5385:5388   */\n      dup4\n        /* \"#utility.yul\":5326:5393   */\n      tag_79\n      jump\t// in\n    tag_143:\n        /* \"#utility.yul\":5319:5393   */\n      swap2\n      pop\n        /* \"#utility.yul\":5402:5495   */\n      tag_144\n        /* \"#utility.yul\":5491:5494   */\n      dup3\n        /* \"#utility.yul\":5402:5495   */\n      tag_85\n      jump\t// in\n    tag_144:\n        /* \"#utility.yul\":5520:5522   */\n      0x20\n        /* \"#utility.yul\":5515:5518   */\n      dup3\n        /* \"#utility.yul\":5511:5523   */\n      add\n        /* \"#utility.yul\":5504:5523   */\n      swap1\n      pop\n        /* \"#utility.yul\":5163:5529   */\n      swap2\n      swap1\n      pop\n      jump\t// out\n        /* \"#utility.yul\":5535:5954   */\n    tag_61:\n        /* \"#utility.yul\":5701:5705   */\n      0x00\n        /* \"#utility.yul\":5739:5741   */\n      0x20\n        /* \"#utility.yul\":5728:5737   */\n      dup3\n        /* \"#utility.yul\":5724:5742   */\n      add\n        /* \"#utility.yul\":5716:5742   */\n      swap1\n      pop\n        /* \"#utility.yul\":5788:5797   */\n      dup2\n        /* \"#utility.yul\":5782:5786   */\n      dup2\n        /* \"#utility.yul\":5778:5798   */\n      sub\n        /* \"#utility.yul\":5774:5775   */\n      0x00\n        /* \"#utility.yul\":5763:5772   */\n      dup4\n        /* \"#utility.yul\":5759:5776   */\n      add\n        /* \"#utility.yul\":5752:5799   */\n      mstore\n        /* \"#utility.yul\":5816:5947   */\n      tag_146\n        /* \"#utility.yul\":5942:5946   */\n      dup2\n        /* \"#utility.yul\":5816:5947   */\n      tag_86\n      jump\t// in\n    tag_146:\n        /* \"#utility.yul\":5808:5947   */\n      swap1\n      pop\n        /* \"#utility.yul\":5535:5954   */\n      swap2\n      swap1\n      pop\n      jump\t// out\n\n    auxdata: 0xa2646970667358221220fcb70b9aa435374b3513d519f68647514239eedc9e6a511d5803b70e44b34b6d64736f6c634300081a0033\n}\n",
				"bytecode": {
					"linkReferences": {},
					"object": "6080604052348015600e575f80fd5b506108528061001c5f395ff3fe60806040526004361061007a575f3560e01c8063e1254fba1161004d578063e1254fba146100f0578063fc7e286d1461012c578063fd4f623c14610168578063ffaa3608146101925761007a565b80632e1a7d4d1461007e57806391b4384d146100a65780639f396cff146100d0578063d0e30db0146100e6575b5f80fd5b348015610089575f80fd5b506100a4600480360381019061009f9190610543565b6101a8565b005b3480156100b1575f80fd5b506100ba6102c2565b6040516100c7919061057d565b60405180910390f35b3480156100db575f80fd5b506100e46102c8565b005b6100ee61036a565b005b3480156100fb575f80fd5b50610116600480360381019061011191906105f0565b61040a565b604051610123919061057d565b60405180910390f35b348015610137575f80fd5b50610152600480360381019061014d91906105f0565b610450565b60405161015f919061057d565b60405180910390f35b348015610173575f80fd5b5061017c610465565b604051610189919061057d565b60405180910390f35b34801561019d575f80fd5b506101a661046a565b005b8060025f3373ffffffffffffffffffffffffffffffffffffffff1673ffffffffffffffffffffffffffffffffffffffff1681526020019081526020015f20541015610228576040517f08c379a000000000000000000000000000000000000000000000000000000000815260040161021f90610675565b60405180910390fd5b8060025f3373ffffffffffffffffffffffffffffffffffffffff1673ffffffffffffffffffffffffffffffffffffffff1681526020019081526020015f205f82825461027491906106c0565b925050819055503373ffffffffffffffffffffffffffffffffffffffff166108fc8290811502906040515f60405180830381858888f193505050501580156102be573d5f803e3d5ffd5b5050565b60015481565b670de0b6b3a764000060025f3373ffffffffffffffffffffffffffffffffffffffff1673ffffffffffffffffffffffffffffffffffffffff1681526020019081526020015f20541015610350576040517f08c379a000000000000000000000000000000000000000000000000000000000815260040161034790610763565b60405180910390fd5b6001805f8282546103619190610781565b92505081905550565b670de0b6b3a76400003410156103b5576040517f08c379a00000000000000000000000000000000000000000000000000000000081526004016103ac906107fe565b60405180910390fd5b3460025f3373ffffffffffffffffffffffffffffffffffffffff1673ffffffffffffffffffffffffffffffffffffffff1681526020019081526020015f205f8282546104019190610781565b92505081905550565b5f60025f8373ffffffffffffffffffffffffffffffffffffffff1673ffffffffffffffffffffffffffffffffffffffff1681526020019081526020015f20549050919050565b6002602052805f5260405f205f915090505481565b5f5481565b670de0b6b3a764000060025f3373ffffffffffffffffffffffffffffffffffffffff1673ffffffffffffffffffffffffffffffffffffffff1681526020019081526020015f205410156104f2576040517f08c379a00000000000000000000000000000000000000000000000000000000081526004016104e990610763565b60405180910390fd5b60015f808282546105039190610781565b92505081905550565b5f80fd5b5f819050919050565b61052281610510565b811461052c575f80fd5b50565b5f8135905061053d81610519565b92915050565b5f602082840312156105585761055761050c565b5b5f6105658482850161052f565b91505092915050565b61057781610510565b82525050565b5f6020820190506105905f83018461056e565b92915050565b5f73ffffffffffffffffffffffffffffffffffffffff82169050919050565b5f6105bf82610596565b9050919050565b6105cf816105b5565b81146105d9575f80fd5b50565b5f813590506105ea816105c6565b92915050565b5f602082840312156106055761060461050c565b5b5f610612848285016105dc565b91505092915050565b5f82825260208201905092915050565b7f496e73756666696369656e742062616c616e63650000000000000000000000005f82015250565b5f61065f60148361061b565b915061066a8261062b565b602082019050919050565b5f6020820190508181035f83015261068c81610653565b9050919050565b7f4e487b71000000000000000000000000000000000000000000000000000000005f52601160045260245ffd5b5f6106ca82610510565b91506106d583610510565b92508282039050818111156106ed576106ec610693565b5b92915050565b7f596f75206d757374206465706f736974206174206c65617374203120657468655f8201527f7220746f20766f74650000000000000000000000000000000000000000000000602082015250565b5f61074d60298361061b565b9150610758826106f3565b604082019050919050565b5f6020820190508181035f83015261077a81610741565b9050919050565b5f61078b82610510565b915061079683610510565b92508282019050808211156107ae576107ad610693565b5b92915050565b7f4d696e696d756d206465706f73697420697320312065746865720000000000005f82015250565b5f6107e8601a8361061b565b91506107f3826107b4565b602082019050919050565b5f6020820190508181035f830152610815816107dc565b905091905056fea2646970667358221220fcb70b9aa435374b3513d519f68647514239eedc9e6a511d5803b70e44b34b6d64736f6c634300081a0033",
					"opcodes": "PUSH1 0x80 PUSH1 0x40 MSTORE CALLVALUE DUP1 ISZERO PUSH1 0xE JUMPI PUSH0 DUP1 REVERT JUMPDEST POP PUSH2 0x852 DUP1 PUSH2 0x1C PUSH0 CODECOPY PUSH0 RETURN INVALID PUSH1 0x80 PUSH1 0x40 MSTORE PUSH1 0x4 CALLDATASIZE LT PUSH2 0x7A JUMPI PUSH0 CALLDATALOAD PUSH1 0xE0 SHR DUP1 PUSH4 0xE1254FBA GT PUSH2 0x4D JUMPI DUP1 PUSH4 0xE1254FBA EQ PUSH2 0xF0 JUMPI DUP1 PUSH4 0xFC7E286D EQ PUSH2 0x12C JUMPI DUP1 PUSH4 0xFD4F623C EQ PUSH2 0x168 JUMPI DUP1 PUSH4 0xFFAA3608 EQ PUSH2 0x192 JUMPI PUSH2 0x7A JUMP JUMPDEST DUP1 PUSH4 0x2E1A7D4D EQ PUSH2 0x7E JUMPI DUP1 PUSH4 0x91B4384D EQ PUSH2 0xA6 JUMPI DUP1 PUSH4 0x9F396CFF EQ PUSH2 0xD0 JUMPI DUP1 PUSH4 0xD0E30DB0 EQ PUSH2 0xE6 JUMPI JUMPDEST PUSH0 DUP1 REVERT JUMPDEST CALLVALUE DUP1 ISZERO PUSH2 0x89 JUMPI PUSH0 DUP1 REVERT JUMPDEST POP PUSH2 0xA4 PUSH1 0x4 DUP1 CALLDATASIZE SUB DUP2 ADD SWAP1 PUSH2 0x9F SWAP2 SWAP1 PUSH2 0x543 JUMP JUMPDEST PUSH2 0x1A8 JUMP JUMPDEST STOP JUMPDEST CALLVALUE DUP1 ISZERO PUSH2 0xB1 JUMPI PUSH0 DUP1 REVERT JUMPDEST POP PUSH2 0xBA PUSH2 0x2C2 JUMP JUMPDEST PUSH1 0x40 MLOAD PUSH2 0xC7 SWAP2 SWAP1 PUSH2 0x57D JUMP JUMPDEST PUSH1 0x40 MLOAD DUP1 SWAP2 SUB SWAP1 RETURN JUMPDEST CALLVALUE DUP1 ISZERO PUSH2 0xDB JUMPI PUSH0 DUP1 REVERT JUMPDEST POP PUSH2 0xE4 PUSH2 0x2C8 JUMP JUMPDEST STOP JUMPDEST PUSH2 0xEE PUSH2 0x36A JUMP JUMPDEST STOP JUMPDEST CALLVALUE DUP1 ISZERO PUSH2 0xFB JUMPI PUSH0 DUP1 REVERT JUMPDEST POP PUSH2 0x116 PUSH1 0x4 DUP1 CALLDATASIZE SUB DUP2 ADD SWAP1 PUSH2 0x111 SWAP2 SWAP1 PUSH2 0x5F0 JUMP JUMPDEST PUSH2 0x40A JUMP JUMPDEST PUSH1 0x40 MLOAD PUSH2 0x123 SWAP2 SWAP1 PUSH2 0x57D JUMP JUMPDEST PUSH1 0x40 MLOAD DUP1 SWAP2 SUB SWAP1 RETURN JUMPDEST CALLVALUE DUP1 ISZERO PUSH2 0x137 JUMPI PUSH0 DUP1 REVERT JUMPDEST POP PUSH2 0x152 PUSH1 0x4 DUP1 CALLDATASIZE SUB DUP2 ADD SWAP1 PUSH2 0x14D SWAP2 SWAP1 PUSH2 0x5F0 JUMP JUMPDEST PUSH2 0x450 JUMP JUMPDEST PUSH1 0x40 MLOAD PUSH2 0x15F SWAP2 SWAP1 PUSH2 0x57D JUMP JUMPDEST PUSH1 0x40 MLOAD DUP1 SWAP2 SUB SWAP1 RETURN JUMPDEST CALLVALUE DUP1 ISZERO PUSH2 0x173 JUMPI PUSH0 DUP1 REVERT JUMPDEST POP PUSH2 0x17C PUSH2 0x465 JUMP JUMPDEST PUSH1 0x40 MLOAD PUSH2 0x189 SWAP2 SWAP1 PUSH2 0x57D JUMP JUMPDEST PUSH1 0x40 MLOAD DUP1 SWAP2 SUB SWAP1 RETURN JUMPDEST CALLVALUE DUP1 ISZERO PUSH2 0x19D JUMPI PUSH0 DUP1 REVERT JUMPDEST POP PUSH2 0x1A6 PUSH2 0x46A JUMP JUMPDEST STOP JUMPDEST DUP1 PUSH1 0x2 PUSH0 CALLER PUSH20 0xFFFFFFFFFFFFFFFFFFFFFFFFFFFFFFFFFFFFFFFF AND PUSH20 0xFFFFFFFFFFFFFFFFFFFFFFFFFFFFFFFFFFFFFFFF AND DUP2 MSTORE PUSH1 0x20 ADD SWAP1 DUP2 MSTORE PUSH1 0x20 ADD PUSH0 KECCAK256 SLOAD LT ISZERO PUSH2 0x228 JUMPI PUSH1 0x40 MLOAD PUSH32 0x8C379A000000000000000000000000000000000000000000000000000000000 DUP2 MSTORE PUSH1 0x4 ADD PUSH2 0x21F SWAP1 PUSH2 0x675 JUMP JUMPDEST PUSH1 0x40 MLOAD DUP1 SWAP2 SUB SWAP1 REVERT JUMPDEST DUP1 PUSH1 0x2 PUSH0 CALLER PUSH20 0xFFFFFFFFFFFFFFFFFFFFFFFFFFFFFFFFFFFFFFFF AND PUSH20 0xFFFFFFFFFFFFFFFFFFFFFFFFFFFFFFFFFFFFFFFF AND DUP2 MSTORE PUSH1 0x20 ADD SWAP1 DUP2 MSTORE PUSH1 0x20 ADD PUSH0 KECCAK256 PUSH0 DUP3 DUP3 SLOAD PUSH2 0x274 SWAP2 SWAP1 PUSH2 0x6C0 JUMP JUMPDEST SWAP3 POP POP DUP2 SWAP1 SSTORE POP CALLER PUSH20 0xFFFFFFFFFFFFFFFFFFFFFFFFFFFFFFFFFFFFFFFF AND PUSH2 0x8FC DUP3 SWAP1 DUP2 ISZERO MUL SWAP1 PUSH1 0x40 MLOAD PUSH0 PUSH1 0x40 MLOAD DUP1 DUP4 SUB DUP2 DUP6 DUP9 DUP9 CALL SWAP4 POP POP POP POP ISZERO DUP1 ISZERO PUSH2 0x2BE JUMPI RETURNDATASIZE PUSH0 DUP1 RETURNDATACOPY RETURNDATASIZE PUSH0 REVERT JUMPDEST POP POP JUMP JUMPDEST PUSH1 0x1 SLOAD DUP2 JUMP JUMPDEST PUSH8 0xDE0B6B3A7640000 PUSH1 0x2 PUSH0 CALLER PUSH20 0xFFFFFFFFFFFFFFFFFFFFFFFFFFFFFFFFFFFFFFFF AND PUSH20 0xFFFFFFFFFFFFFFFFFFFFFFFFFFFFFFFFFFFFFFFF AND DUP2 MSTORE PUSH1 0x20 ADD SWAP1 DUP2 MSTORE PUSH1 0x20 ADD PUSH0 KECCAK256 SLOAD LT ISZERO PUSH2 0x350 JUMPI PUSH1 0x40 MLOAD PUSH32 0x8C379A000000000000000000000000000000000000000000000000000000000 DUP2 MSTORE PUSH1 0x4 ADD PUSH2 0x347 SWAP1 PUSH2 0x763 JUMP JUMPDEST PUSH1 0x40 MLOAD DUP1 SWAP2 SUB SWAP1 REVERT JUMPDEST PUSH1 0x1 DUP1 PUSH0 DUP3 DUP3 SLOAD PUSH2 0x361 SWAP2 SWAP1 PUSH2 0x781 JUMP JUMPDEST SWAP3 POP POP DUP2 SWAP1 SSTORE POP JUMP JUMPDEST PUSH8 0xDE0B6B3A7640000 CALLVALUE LT ISZERO PUSH2 0x3B5 JUMPI PUSH1 0x40 MLOAD PUSH32 0x8C379A000000000000000000000000000000000000000000000000000000000 DUP2 MSTORE PUSH1 0x4 ADD PUSH2 0x3AC SWAP1 PUSH2 0x7FE JUMP JUMPDEST PUSH1 0x40 MLOAD DUP1 SWAP2 SUB SWAP1 REVERT JUMPDEST CALLVALUE PUSH1 0x2 PUSH0 CALLER PUSH20 0xFFFFFFFFFFFFFFFFFFFFFFFFFFFFFFFFFFFFFFFF AND PUSH20 0xFFFFFFFFFFFFFFFFFFFFFFFFFFFFFFFFFFFFFFFF AND DUP2 MSTORE PUSH1 0x20 ADD SWAP1 DUP2 MSTORE PUSH1 0x20 ADD PUSH0 KECCAK256 PUSH0 DUP3 DUP3 SLOAD PUSH2 0x401 SWAP2 SWAP1 PUSH2 0x781 JUMP JUMPDEST SWAP3 POP POP DUP2 SWAP1 SSTORE POP JUMP JUMPDEST PUSH0 PUSH1 0x2 PUSH0 DUP4 PUSH20 0xFFFFFFFFFFFFFFFFFFFFFFFFFFFFFFFFFFFFFFFF AND PUSH20 0xFFFFFFFFFFFFFFFFFFFFFFFFFFFFFFFFFFFFFFFF AND DUP2 MSTORE PUSH1 0x20 ADD SWAP1 DUP2 MSTORE PUSH1 0x20 ADD PUSH0 KECCAK256 SLOAD SWAP1 POP SWAP2 SWAP1 POP JUMP JUMPDEST PUSH1 0x2 PUSH1 0x20 MSTORE DUP1 PUSH0 MSTORE PUSH1 0x40 PUSH0 KECCAK256 PUSH0 SWAP2 POP SWAP1 POP SLOAD DUP2 JUMP JUMPDEST PUSH0 SLOAD DUP2 JUMP JUMPDEST PUSH8 0xDE0B6B3A7640000 PUSH1 0x2 PUSH0 CALLER PUSH20 0xFFFFFFFFFFFFFFFFFFFFFFFFFFFFFFFFFFFFFFFF AND PUSH20 0xFFFFFFFFFFFFFFFFFFFFFFFFFFFFFFFFFFFFFFFF AND DUP2 MSTORE PUSH1 0x20 ADD SWAP1 DUP2 MSTORE PUSH1 0x20 ADD PUSH0 KECCAK256 SLOAD LT ISZERO PUSH2 0x4F2 JUMPI PUSH1 0x40 MLOAD PUSH32 0x8C379A000000000000000000000000000000000000000000000000000000000 DUP2 MSTORE PUSH1 0x4 ADD PUSH2 0x4E9 SWAP1 PUSH2 0x763 JUMP JUMPDEST PUSH1 0x40 MLOAD DUP1 SWAP2 SUB SWAP1 REVERT JUMPDEST PUSH1 0x1 PUSH0 DUP1 DUP3 DUP3 SLOAD PUSH2 0x503 SWAP2 SWAP1 PUSH2 0x781 JUMP JUMPDEST SWAP3 POP POP DUP2 SWAP1 SSTORE POP JUMP JUMPDEST PUSH0 DUP1 REVERT JUMPDEST PUSH0 DUP2 SWAP1 POP SWAP2 SWAP1 POP JUMP JUMPDEST PUSH2 0x522 DUP2 PUSH2 0x510 JUMP JUMPDEST DUP2 EQ PUSH2 0x52C JUMPI PUSH0 DUP1 REVERT JUMPDEST POP JUMP JUMPDEST PUSH0 DUP2 CALLDATALOAD SWAP1 POP PUSH2 0x53D DUP2 PUSH2 0x519 JUMP JUMPDEST SWAP3 SWAP2 POP POP JUMP JUMPDEST PUSH0 PUSH1 0x20 DUP3 DUP5 SUB SLT ISZERO PUSH2 0x558 JUMPI PUSH2 0x557 PUSH2 0x50C JUMP JUMPDEST JUMPDEST PUSH0 PUSH2 0x565 DUP5 DUP3 DUP6 ADD PUSH2 0x52F JUMP JUMPDEST SWAP2 POP POP SWAP3 SWAP2 POP POP JUMP JUMPDEST PUSH2 0x577 DUP2 PUSH2 0x510 JUMP JUMPDEST DUP3 MSTORE POP POP JUMP JUMPDEST PUSH0 PUSH1 0x20 DUP3 ADD SWAP1 POP PUSH2 0x590 PUSH0 DUP4 ADD DUP5 PUSH2 0x56E JUMP JUMPDEST SWAP3 SWAP2 POP POP JUMP JUMPDEST PUSH0 PUSH20 0xFFFFFFFFFFFFFFFFFFFFFFFFFFFFFFFFFFFFFFFF DUP3 AND SWAP1 POP SWAP2 SWAP1 POP JUMP JUMPDEST PUSH0 PUSH2 0x5BF DUP3 PUSH2 0x596 JUMP JUMPDEST SWAP1 POP SWAP2 SWAP1 POP JUMP JUMPDEST PUSH2 0x5CF DUP2 PUSH2 0x5B5 JUMP JUMPDEST DUP2 EQ PUSH2 0x5D9 JUMPI PUSH0 DUP1 REVERT JUMPDEST POP JUMP JUMPDEST PUSH0 DUP2 CALLDATALOAD SWAP1 POP PUSH2 0x5EA DUP2 PUSH2 0x5C6 JUMP JUMPDEST SWAP3 SWAP2 POP POP JUMP JUMPDEST PUSH0 PUSH1 0x20 DUP3 DUP5 SUB SLT ISZERO PUSH2 0x605 JUMPI PUSH2 0x604 PUSH2 0x50C JUMP JUMPDEST JUMPDEST PUSH0 PUSH2 0x612 DUP5 DUP3 DUP6 ADD PUSH2 0x5DC JUMP JUMPDEST SWAP2 POP POP SWAP3 SWAP2 POP POP JUMP JUMPDEST PUSH0 DUP3 DUP3 MSTORE PUSH1 0x20 DUP3 ADD SWAP1 POP SWAP3 SWAP2 POP POP JUMP JUMPDEST PUSH32 0x496E73756666696369656E742062616C616E6365000000000000000000000000 PUSH0 DUP3 ADD MSTORE POP JUMP JUMPDEST PUSH0 PUSH2 0x65F PUSH1 0x14 DUP4 PUSH2 0x61B JUMP JUMPDEST SWAP2 POP PUSH2 0x66A DUP3 PUSH2 0x62B JUMP JUMPDEST PUSH1 0x20 DUP3 ADD SWAP1 POP SWAP2 SWAP1 POP JUMP JUMPDEST PUSH0 PUSH1 0x20 DUP3 ADD SWAP1 POP DUP2 DUP2 SUB PUSH0 DUP4 ADD MSTORE PUSH2 0x68C DUP2 PUSH2 0x653 JUMP JUMPDEST SWAP1 POP SWAP2 SWAP1 POP JUMP JUMPDEST PUSH32 0x4E487B7100000000000000000000000000000000000000000000000000000000 PUSH0 MSTORE PUSH1 0x11 PUSH1 0x4 MSTORE PUSH1 0x24 PUSH0 REVERT JUMPDEST PUSH0 PUSH2 0x6CA DUP3 PUSH2 0x510 JUMP JUMPDEST SWAP2 POP PUSH2 0x6D5 DUP4 PUSH2 0x510 JUMP JUMPDEST SWAP3 POP DUP3 DUP3 SUB SWAP1 POP DUP2 DUP2 GT ISZERO PUSH2 0x6ED JUMPI PUSH2 0x6EC PUSH2 0x693 JUMP JUMPDEST JUMPDEST SWAP3 SWAP2 POP POP JUMP JUMPDEST PUSH32 0x596F75206D757374206465706F736974206174206C6561737420312065746865 PUSH0 DUP3 ADD MSTORE PUSH32 0x7220746F20766F74650000000000000000000000000000000000000000000000 PUSH1 0x20 DUP3 ADD MSTORE POP JUMP JUMPDEST PUSH0 PUSH2 0x74D PUSH1 0x29 DUP4 PUSH2 0x61B JUMP JUMPDEST SWAP2 POP PUSH2 0x758 DUP3 PUSH2 0x6F3 JUMP JUMPDEST PUSH1 0x40 DUP3 ADD SWAP1 POP SWAP2 SWAP1 POP JUMP JUMPDEST PUSH0 PUSH1 0x20 DUP3 ADD SWAP1 POP DUP2 DUP2 SUB PUSH0 DUP4 ADD MSTORE PUSH2 0x77A DUP2 PUSH2 0x741 JUMP JUMPDEST SWAP1 POP SWAP2 SWAP1 POP JUMP JUMPDEST PUSH0 PUSH2 0x78B DUP3 PUSH2 0x510 JUMP JUMPDEST SWAP2 POP PUSH2 0x796 DUP4 PUSH2 0x510 JUMP JUMPDEST SWAP3 POP DUP3 DUP3 ADD SWAP1 POP DUP1 DUP3 GT ISZERO PUSH2 0x7AE JUMPI PUSH2 0x7AD PUSH2 0x693 JUMP JUMPDEST JUMPDEST SWAP3 SWAP2 POP POP JUMP JUMPDEST PUSH32 0x4D696E696D756D206465706F7369742069732031206574686572000000000000 PUSH0 DUP3 ADD MSTORE POP JUMP JUMPDEST PUSH0 PUSH2 0x7E8 PUSH1 0x1A DUP4 PUSH2 0x61B JUMP JUMPDEST SWAP2 POP PUSH2 0x7F3 DUP3 PUSH2 0x7B4 JUMP JUMPDEST PUSH1 0x20 DUP3 ADD SWAP1 POP SWAP2 SWAP1 POP JUMP JUMPDEST PUSH0 PUSH1 0x20 DUP3 ADD SWAP1 POP DUP2 DUP2 SUB PUSH0 DUP4 ADD MSTORE PUSH2 0x815 DUP2 PUSH2 0x7DC JUMP JUMPDEST SWAP1 POP SWAP2 SWAP1 POP JUMP INVALID LOG2 PUSH5 0x6970667358 0x22 SLT KECCAK256 0xFC 0xB7 SIGNEXTEND SWAP11 LOG4 CALLDATALOAD CALLDATACOPY 0x4B CALLDATALOAD SGT 0xD5 NOT 0xF6 DUP7 SELFBALANCE MLOAD TIMESTAMP CODECOPY 0xEE 0xDC SWAP15 PUSH11 0x511D5803B70E44B34B6D64 PUSH20 0x6F6C634300081A00330000000000000000000000 "
				},
				"gasEstimates": {
					"creation": {
						"codeDepositCost": "426000",
						"executionCost": "459",
						"totalCost": "426459"
					},
					"external": {
						"deposit()": "infinite",
						"deposits(address)": "2824",
						"getDeposit(address)": "2829",
						"voteAgainst()": "infinite",
						"voteFor()": "infinite",
						"votesAgainst()": "2448",
						"votesFor()": "2468",
						"withdraw(uint256)": "infinite"
					}
				},
				"methodIdentifiers": {
					"deposit()": "d0e30db0",
					"deposits(address)": "fc7e286d",
					"getDeposit(address)": "e1254fba",
					"voteAgainst()": "9f396cff",
					"voteFor()": "ffaa3608",
					"votesAgainst()": "91b4384d",
					"votesFor()": "fd4f623c",
					"withdraw(uint256)": "2e1a7d4d"
				}
			},
			"storageLayout": {
				"storage": [
					{
						"astId": 437,
						"contract": "solidity/solidity91~90.sol:Q86",
						"label": "votesFor",
						"offset": 0,
						"slot": "0",
						"type": "t_uint256"
					},
					{
						"astId": 439,
						"contract": "solidity/solidity91~90.sol:Q86",
						"label": "votesAgainst",
						"offset": 0,
						"slot": "1",
						"type": "t_uint256"
					},
					{
						"astId": 443,
						"contract": "solidity/solidity91~90.sol:Q86",
						"label": "deposits",
						"offset": 0,
						"slot": "2",
						"type": "t_mapping(t_address,t_uint256)"
					}
				],
				"types": {
					"t_address": {
						"encoding": "inplace",
						"label": "address",
						"numberOfBytes": "20"
					},
					"t_mapping(t_address,t_uint256)": {
						"encoding": "mapping",
						"key": "t_address",
						"label": "mapping(address => uint256)",
						"numberOfBytes": "32",
						"value": "t_uint256"
					},
					"t_uint256": {
						"encoding": "inplace",
						"label": "uint256",
						"numberOfBytes": "32"
					}
				}
			},
			"userdoc": {
				"kind": "user",
				"methods": {},
				"version": 1
			}
		}
	}
}