{
	"solidity/solidity61~70.sol": {
		"Q66": {
			"abi": [
				{
					"inputs": [
						{
							"internalType": "uint256",
							"name": "_num",
							"type": "uint256"
						}
					],
					"name": "getDigits",
					"outputs": [
						{
							"internalType": "uint256",
							"name": "",
							"type": "uint256"
						}
					],
					"stateMutability": "pure",
					"type": "function"
				},
				{
					"inputs": [
						{
							"internalType": "uint256",
							"name": "_num",
							"type": "uint256"
						}
					],
					"name": "getQuinaryDigits",
					"outputs": [
						{
							"internalType": "uint256",
							"name": "",
							"type": "uint256"
						}
					],
					"stateMutability": "pure",
					"type": "function"
				}
			],
			"devdoc": {
				"kind": "dev",
				"methods": {},
				"version": 1
			},
			"evm": {
				"assembly": "    /* \"solidity/solidity61~70.sol\":2822:3547  contract Q66 {... */\n  mstore(0x40, 0x80)\n  callvalue\n  dup1\n  iszero\n  tag_1\n  jumpi\n  0x00\n  dup1\n  revert\ntag_1:\n  pop\n  dataSize(sub_0)\n  dup1\n  dataOffset(sub_0)\n  0x00\n  codecopy\n  0x00\n  return\nstop\n\nsub_0: assembly {\n        /* \"solidity/solidity61~70.sol\":2822:3547  contract Q66 {... */\n      mstore(0x40, 0x80)\n      callvalue\n      dup1\n      iszero\n      tag_1\n      jumpi\n      0x00\n      dup1\n      revert\n    tag_1:\n      pop\n      jumpi(tag_2, lt(calldatasize, 0x04))\n      shr(0xe0, calldataload(0x00))\n      dup1\n      0x84b96df7\n      eq\n      tag_3\n      jumpi\n      dup1\n      0xce8bb065\n      eq\n      tag_4\n      jumpi\n    tag_2:\n      0x00\n      dup1\n      revert\n        /* \"solidity/solidity61~70.sol\":3302:3545  function getQuinaryDigits(uint _num) public pure returns (uint) {... */\n    tag_3:\n      tag_5\n      0x04\n      dup1\n      calldatasize\n      sub\n      dup2\n      add\n      swap1\n      tag_6\n      swap2\n      swap1\n      tag_7\n      jump\t// in\n    tag_6:\n      tag_8\n      jump\t// in\n    tag_5:\n      mload(0x40)\n      tag_9\n      swap2\n      swap1\n      tag_10\n      jump\t// in\n    tag_9:\n      mload(0x40)\n      dup1\n      swap2\n      sub\n      swap1\n      return\n        /* \"solidity/solidity61~70.sol\":3059:3296  function getDigits(uint _num) public pure returns (uint) {... */\n    tag_4:\n      tag_11\n      0x04\n      dup1\n      calldatasize\n      sub\n      dup2\n      add\n      swap1\n      tag_12\n      swap2\n      swap1\n      tag_7\n      jump\t// in\n    tag_12:\n      tag_13\n      jump\t// in\n    tag_11:\n      mload(0x40)\n      tag_14\n      swap2\n      swap1\n      tag_10\n      jump\t// in\n    tag_14:\n      mload(0x40)\n      dup1\n      swap2\n      sub\n      swap1\n      return\n        /* \"solidity/solidity61~70.sol\":3302:3545  function getQuinaryDigits(uint _num) public pure returns (uint) {... */\n    tag_8:\n        /* \"solidity/solidity61~70.sol\":3360:3364  uint */\n      0x00\n        /* \"solidity/solidity61~70.sol\":3388:3389  0 */\n      dup1\n        /* \"solidity/solidity61~70.sol\":3380:3384  _num */\n      dup3\n        /* \"solidity/solidity61~70.sol\":3380:3389  _num == 0 */\n      sub\n        /* \"solidity/solidity61~70.sol\":3376:3399  if (_num == 0) return 1 */\n      tag_16\n      jumpi\n        /* \"solidity/solidity61~70.sol\":3398:3399  1 */\n      0x01\n        /* \"solidity/solidity61~70.sol\":3391:3399  return 1 */\n      swap1\n      pop\n      jump(tag_15)\n        /* \"solidity/solidity61~70.sol\":3376:3399  if (_num == 0) return 1 */\n    tag_16:\n        /* \"solidity/solidity61~70.sol\":3418:3429  uint digits */\n      0x00\n        /* \"solidity/solidity61~70.sol\":3443:3516  while (_num > 0) {... */\n    tag_17:\n        /* \"solidity/solidity61~70.sol\":3457:3458  0 */\n      0x00\n        /* \"solidity/solidity61~70.sol\":3450:3454  _num */\n      dup4\n        /* \"solidity/solidity61~70.sol\":3450:3458  _num > 0 */\n      gt\n        /* \"solidity/solidity61~70.sol\":3443:3516  while (_num > 0) {... */\n      iszero\n      tag_18\n      jumpi\n        /* \"solidity/solidity61~70.sol\":3482:3483  5 */\n      0x05\n        /* \"solidity/solidity61~70.sol\":3474:3483  _num /= 5 */\n      dup4\n      tag_19\n      swap2\n      swap1\n      tag_20\n      jump\t// in\n    tag_19:\n      swap3\n      pop\n        /* \"solidity/solidity61~70.sol\":3497:3505  digits++ */\n      dup1\n      dup1\n      tag_21\n      swap1\n      tag_22\n      jump\t// in\n    tag_21:\n      swap2\n      pop\n      pop\n        /* \"solidity/solidity61~70.sol\":3443:3516  while (_num > 0) {... */\n      jump(tag_17)\n    tag_18:\n        /* \"solidity/solidity61~70.sol\":3532:3538  digits */\n      dup1\n        /* \"solidity/solidity61~70.sol\":3525:3538  return digits */\n      swap2\n      pop\n      pop\n        /* \"solidity/solidity61~70.sol\":3302:3545  function getQuinaryDigits(uint _num) public pure returns (uint) {... */\n    tag_15:\n      swap2\n      swap1\n      pop\n      jump\t// out\n        /* \"solidity/solidity61~70.sol\":3059:3296  function getDigits(uint _num) public pure returns (uint) {... */\n    tag_13:\n        /* \"solidity/solidity61~70.sol\":3110:3114  uint */\n      0x00\n        /* \"solidity/solidity61~70.sol\":3138:3139  0 */\n      dup1\n        /* \"solidity/solidity61~70.sol\":3130:3134  _num */\n      dup3\n        /* \"solidity/solidity61~70.sol\":3130:3139  _num == 0 */\n      sub\n        /* \"solidity/solidity61~70.sol\":3126:3149  if (_num == 0) return 1 */\n      tag_24\n      jumpi\n        /* \"solidity/solidity61~70.sol\":3148:3149  1 */\n      0x01\n        /* \"solidity/solidity61~70.sol\":3141:3149  return 1 */\n      swap1\n      pop\n      jump(tag_23)\n        /* \"solidity/solidity61~70.sol\":3126:3149  if (_num == 0) return 1 */\n    tag_24:\n        /* \"solidity/solidity61~70.sol\":3168:3179  uint digits */\n      0x00\n        /* \"solidity/solidity61~70.sol\":3193:3267  while (_num > 0) {... */\n    tag_25:\n        /* \"solidity/solidity61~70.sol\":3207:3208  0 */\n      0x00\n        /* \"solidity/solidity61~70.sol\":3200:3204  _num */\n      dup4\n        /* \"solidity/solidity61~70.sol\":3200:3208  _num > 0 */\n      gt\n        /* \"solidity/solidity61~70.sol\":3193:3267  while (_num > 0) {... */\n      iszero\n      tag_26\n      jumpi\n        /* \"solidity/solidity61~70.sol\":3232:3234  10 */\n      0x0a\n        /* \"solidity/solidity61~70.sol\":3224:3234  _num /= 10 */\n      dup4\n      tag_27\n      swap2\n      swap1\n      tag_20\n      jump\t// in\n    tag_27:\n      swap3\n      pop\n        /* \"solidity/solidity61~70.sol\":3248:3256  digits++ */\n      dup1\n      dup1\n      tag_28\n      swap1\n      tag_22\n      jump\t// in\n    tag_28:\n      swap2\n      pop\n      pop\n        /* \"solidity/solidity61~70.sol\":3193:3267  while (_num > 0) {... */\n      jump(tag_25)\n    tag_26:\n        /* \"solidity/solidity61~70.sol\":3283:3289  digits */\n      dup1\n        /* \"solidity/solidity61~70.sol\":3276:3289  return digits */\n      swap2\n      pop\n      pop\n        /* \"solidity/solidity61~70.sol\":3059:3296  function getDigits(uint _num) public pure returns (uint) {... */\n    tag_23:\n      swap2\n      swap1\n      pop\n      jump\t// out\n        /* \"#utility.yul\":88:205   */\n    tag_30:\n        /* \"#utility.yul\":197:198   */\n      0x00\n        /* \"#utility.yul\":194:195   */\n      dup1\n        /* \"#utility.yul\":187:199   */\n      revert\n        /* \"#utility.yul\":334:411   */\n    tag_32:\n        /* \"#utility.yul\":371:378   */\n      0x00\n        /* \"#utility.yul\":400:405   */\n      dup2\n        /* \"#utility.yul\":389:405   */\n      swap1\n      pop\n        /* \"#utility.yul\":334:411   */\n      swap2\n      swap1\n      pop\n      jump\t// out\n        /* \"#utility.yul\":417:539   */\n    tag_33:\n        /* \"#utility.yul\":490:514   */\n      tag_44\n        /* \"#utility.yul\":508:513   */\n      dup2\n        /* \"#utility.yul\":490:514   */\n      tag_32\n      jump\t// in\n    tag_44:\n        /* \"#utility.yul\":483:488   */\n      dup2\n        /* \"#utility.yul\":480:515   */\n      eq\n        /* \"#utility.yul\":470:533   */\n      tag_45\n      jumpi\n        /* \"#utility.yul\":529:530   */\n      0x00\n        /* \"#utility.yul\":526:527   */\n      dup1\n        /* \"#utility.yul\":519:531   */\n      revert\n        /* \"#utility.yul\":470:533   */\n    tag_45:\n        /* \"#utility.yul\":417:539   */\n      pop\n      jump\t// out\n        /* \"#utility.yul\":545:684   */\n    tag_34:\n        /* \"#utility.yul\":591:596   */\n      0x00\n        /* \"#utility.yul\":629:635   */\n      dup2\n        /* \"#utility.yul\":616:636   */\n      calldataload\n        /* \"#utility.yul\":607:636   */\n      swap1\n      pop\n        /* \"#utility.yul\":645:678   */\n      tag_47\n        /* \"#utility.yul\":672:677   */\n      dup2\n        /* \"#utility.yul\":645:678   */\n      tag_33\n      jump\t// in\n    tag_47:\n        /* \"#utility.yul\":545:684   */\n      swap3\n      swap2\n      pop\n      pop\n      jump\t// out\n        /* \"#utility.yul\":690:1019   */\n    tag_7:\n        /* \"#utility.yul\":749:755   */\n      0x00\n        /* \"#utility.yul\":798:800   */\n      0x20\n        /* \"#utility.yul\":786:795   */\n      dup3\n        /* \"#utility.yul\":777:784   */\n      dup5\n        /* \"#utility.yul\":773:796   */\n      sub\n        /* \"#utility.yul\":769:801   */\n      slt\n        /* \"#utility.yul\":766:885   */\n      iszero\n      tag_49\n      jumpi\n        /* \"#utility.yul\":804:883   */\n      tag_50\n      tag_30\n      jump\t// in\n    tag_50:\n        /* \"#utility.yul\":766:885   */\n    tag_49:\n        /* \"#utility.yul\":924:925   */\n      0x00\n        /* \"#utility.yul\":949:1002   */\n      tag_51\n        /* \"#utility.yul\":994:1001   */\n      dup5\n        /* \"#utility.yul\":985:991   */\n      dup3\n        /* \"#utility.yul\":974:983   */\n      dup6\n        /* \"#utility.yul\":970:992   */\n      add\n        /* \"#utility.yul\":949:1002   */\n      tag_34\n      jump\t// in\n    tag_51:\n        /* \"#utility.yul\":939:1002   */\n      swap2\n      pop\n        /* \"#utility.yul\":895:1012   */\n      pop\n        /* \"#utility.yul\":690:1019   */\n      swap3\n      swap2\n      pop\n      pop\n      jump\t// out\n        /* \"#utility.yul\":1025:1143   */\n    tag_35:\n        /* \"#utility.yul\":1112:1136   */\n      tag_53\n        /* \"#utility.yul\":1130:1135   */\n      dup2\n        /* \"#utility.yul\":1112:1136   */\n      tag_32\n      jump\t// in\n    tag_53:\n        /* \"#utility.yul\":1107:1110   */\n      dup3\n        /* \"#utility.yul\":1100:1137   */\n      mstore\n        /* \"#utility.yul\":1025:1143   */\n      pop\n      pop\n      jump\t// out\n        /* \"#utility.yul\":1149:1371   */\n    tag_10:\n        /* \"#utility.yul\":1242:1246   */\n      0x00\n        /* \"#utility.yul\":1280:1282   */\n      0x20\n        /* \"#utility.yul\":1269:1278   */\n      dup3\n        /* \"#utility.yul\":1265:1283   */\n      add\n        /* \"#utility.yul\":1257:1283   */\n      swap1\n      pop\n        /* \"#utility.yul\":1293:1364   */\n      tag_55\n        /* \"#utility.yul\":1361:1362   */\n      0x00\n        /* \"#utility.yul\":1350:1359   */\n      dup4\n        /* \"#utility.yul\":1346:1363   */\n      add\n        /* \"#utility.yul\":1337:1343   */\n      dup5\n        /* \"#utility.yul\":1293:1364   */\n      tag_35\n      jump\t// in\n    tag_55:\n        /* \"#utility.yul\":1149:1371   */\n      swap3\n      swap2\n      pop\n      pop\n      jump\t// out\n        /* \"#utility.yul\":1377:1557   */\n    tag_36:\n        /* \"#utility.yul\":1425:1502   */\n      0x4e487b7100000000000000000000000000000000000000000000000000000000\n        /* \"#utility.yul\":1422:1423   */\n      0x00\n        /* \"#utility.yul\":1415:1503   */\n      mstore\n        /* \"#utility.yul\":1522:1526   */\n      0x12\n        /* \"#utility.yul\":1519:1520   */\n      0x04\n        /* \"#utility.yul\":1512:1527   */\n      mstore\n        /* \"#utility.yul\":1546:1550   */\n      0x24\n        /* \"#utility.yul\":1543:1544   */\n      0x00\n        /* \"#utility.yul\":1536:1551   */\n      revert\n        /* \"#utility.yul\":1563:1743   */\n    tag_37:\n        /* \"#utility.yul\":1611:1688   */\n      0x4e487b7100000000000000000000000000000000000000000000000000000000\n        /* \"#utility.yul\":1608:1609   */\n      0x00\n        /* \"#utility.yul\":1601:1689   */\n      mstore\n        /* \"#utility.yul\":1708:1712   */\n      0x11\n        /* \"#utility.yul\":1705:1706   */\n      0x04\n        /* \"#utility.yul\":1698:1713   */\n      mstore\n        /* \"#utility.yul\":1732:1736   */\n      0x24\n        /* \"#utility.yul\":1729:1730   */\n      0x00\n        /* \"#utility.yul\":1722:1737   */\n      revert\n        /* \"#utility.yul\":1749:1934   */\n    tag_20:\n        /* \"#utility.yul\":1789:1790   */\n      0x00\n        /* \"#utility.yul\":1806:1826   */\n      tag_59\n        /* \"#utility.yul\":1824:1825   */\n      dup3\n        /* \"#utility.yul\":1806:1826   */\n      tag_32\n      jump\t// in\n    tag_59:\n        /* \"#utility.yul\":1801:1826   */\n      swap2\n      pop\n        /* \"#utility.yul\":1840:1860   */\n      tag_60\n        /* \"#utility.yul\":1858:1859   */\n      dup4\n        /* \"#utility.yul\":1840:1860   */\n      tag_32\n      jump\t// in\n    tag_60:\n        /* \"#utility.yul\":1835:1860   */\n      swap3\n      pop\n        /* \"#utility.yul\":1879:1880   */\n      dup3\n        /* \"#utility.yul\":1869:1904   */\n      tag_61\n      jumpi\n        /* \"#utility.yul\":1884:1902   */\n      tag_62\n      tag_36\n      jump\t// in\n    tag_62:\n        /* \"#utility.yul\":1869:1904   */\n    tag_61:\n        /* \"#utility.yul\":1926:1927   */\n      dup3\n        /* \"#utility.yul\":1923:1924   */\n      dup3\n        /* \"#utility.yul\":1919:1928   */\n      div\n        /* \"#utility.yul\":1914:1928   */\n      swap1\n      pop\n        /* \"#utility.yul\":1749:1934   */\n      swap3\n      swap2\n      pop\n      pop\n      jump\t// out\n        /* \"#utility.yul\":1940:2173   */\n    tag_22:\n        /* \"#utility.yul\":1979:1982   */\n      0x00\n        /* \"#utility.yul\":2002:2026   */\n      tag_64\n        /* \"#utility.yul\":2020:2025   */\n      dup3\n        /* \"#utility.yul\":2002:2026   */\n      tag_32\n      jump\t// in\n    tag_64:\n        /* \"#utility.yul\":1993:2026   */\n      swap2\n      pop\n        /* \"#utility.yul\":2048:2114   */\n      0xffffffffffffffffffffffffffffffffffffffffffffffffffffffffffffffff\n        /* \"#utility.yul\":2041:2046   */\n      dup3\n        /* \"#utility.yul\":2038:2115   */\n      sub\n        /* \"#utility.yul\":2035:2138   */\n      tag_65\n      jumpi\n        /* \"#utility.yul\":2118:2136   */\n      tag_66\n      tag_37\n      jump\t// in\n    tag_66:\n        /* \"#utility.yul\":2035:2138   */\n    tag_65:\n        /* \"#utility.yul\":2165:2166   */\n      0x01\n        /* \"#utility.yul\":2158:2163   */\n      dup3\n        /* \"#utility.yul\":2154:2167   */\n      add\n        /* \"#utility.yul\":2147:2167   */\n      swap1\n      pop\n        /* \"#utility.yul\":1940:2173   */\n      swap2\n      swap1\n      pop\n      jump\t// out\n\n    auxdata: 0xa26469706673582212208b74d78c8d51c5ac64f9bb8b56f3243e35a249fb3702c8495e685d72a8185a0b64736f6c634300081a0033\n}\n",
				"bytecode": {
					"linkReferences": {},
					"object": "6080604052348015600e575f80fd5b506102b78061001c5f395ff3fe608060405234801561000f575f80fd5b5060043610610034575f3560e01c806384b96df714610038578063ce8bb06514610068575b5f80fd5b610052600480360381019061004d919061015d565b610098565b60405161005f9190610197565b60405180910390f35b610082600480360381019061007d919061015d565b6100df565b60405161008f9190610197565b60405180910390f35b5f8082036100a957600190506100da565b5f5b5f8311156100d5576005836100c0919061020a565b925080806100cd9061023a565b9150506100ab565b809150505b919050565b5f8082036100f05760019050610121565b5f5b5f83111561011c57600a83610107919061020a565b925080806101149061023a565b9150506100f2565b809150505b919050565b5f80fd5b5f819050919050565b61013c8161012a565b8114610146575f80fd5b50565b5f8135905061015781610133565b92915050565b5f6020828403121561017257610171610126565b5b5f61017f84828501610149565b91505092915050565b6101918161012a565b82525050565b5f6020820190506101aa5f830184610188565b92915050565b7f4e487b71000000000000000000000000000000000000000000000000000000005f52601260045260245ffd5b7f4e487b71000000000000000000000000000000000000000000000000000000005f52601160045260245ffd5b5f6102148261012a565b915061021f8361012a565b92508261022f5761022e6101b0565b5b828204905092915050565b5f6102448261012a565b91507fffffffffffffffffffffffffffffffffffffffffffffffffffffffffffffffff8203610276576102756101dd565b5b60018201905091905056fea26469706673582212208b74d78c8d51c5ac64f9bb8b56f3243e35a249fb3702c8495e685d72a8185a0b64736f6c634300081a0033",
					"opcodes": "PUSH1 0x80 PUSH1 0x40 MSTORE CALLVALUE DUP1 ISZERO PUSH1 0xE JUMPI PUSH0 DUP1 REVERT JUMPDEST POP PUSH2 0x2B7 DUP1 PUSH2 0x1C PUSH0 CODECOPY PUSH0 RETURN INVALID PUSH1 0x80 PUSH1 0x40 MSTORE CALLVALUE DUP1 ISZERO PUSH2 0xF JUMPI PUSH0 DUP1 REVERT JUMPDEST POP PUSH1 0x4 CALLDATASIZE LT PUSH2 0x34 JUMPI PUSH0 CALLDATALOAD PUSH1 0xE0 SHR DUP1 PUSH4 0x84B96DF7 EQ PUSH2 0x38 JUMPI DUP1 PUSH4 0xCE8BB065 EQ PUSH2 0x68 JUMPI JUMPDEST PUSH0 DUP1 REVERT JUMPDEST PUSH2 0x52 PUSH1 0x4 DUP1 CALLDATASIZE SUB DUP2 ADD SWAP1 PUSH2 0x4D SWAP2 SWAP1 PUSH2 0x15D JUMP JUMPDEST PUSH2 0x98 JUMP JUMPDEST PUSH1 0x40 MLOAD PUSH2 0x5F SWAP2 SWAP1 PUSH2 0x197 JUMP JUMPDEST PUSH1 0x40 MLOAD DUP1 SWAP2 SUB SWAP1 RETURN JUMPDEST PUSH2 0x82 PUSH1 0x4 DUP1 CALLDATASIZE SUB DUP2 ADD SWAP1 PUSH2 0x7D SWAP2 SWAP1 PUSH2 0x15D JUMP JUMPDEST PUSH2 0xDF JUMP JUMPDEST PUSH1 0x40 MLOAD PUSH2 0x8F SWAP2 SWAP1 PUSH2 0x197 JUMP JUMPDEST PUSH1 0x40 MLOAD DUP1 SWAP2 SUB SWAP1 RETURN JUMPDEST PUSH0 DUP1 DUP3 SUB PUSH2 0xA9 JUMPI PUSH1 0x1 SWAP1 POP PUSH2 0xDA JUMP JUMPDEST PUSH0 JUMPDEST PUSH0 DUP4 GT ISZERO PUSH2 0xD5 JUMPI PUSH1 0x5 DUP4 PUSH2 0xC0 SWAP2 SWAP1 PUSH2 0x20A JUMP JUMPDEST SWAP3 POP DUP1 DUP1 PUSH2 0xCD SWAP1 PUSH2 0x23A JUMP JUMPDEST SWAP2 POP POP PUSH2 0xAB JUMP JUMPDEST DUP1 SWAP2 POP POP JUMPDEST SWAP2 SWAP1 POP JUMP JUMPDEST PUSH0 DUP1 DUP3 SUB PUSH2 0xF0 JUMPI PUSH1 0x1 SWAP1 POP PUSH2 0x121 JUMP JUMPDEST PUSH0 JUMPDEST PUSH0 DUP4 GT ISZERO PUSH2 0x11C JUMPI PUSH1 0xA DUP4 PUSH2 0x107 SWAP2 SWAP1 PUSH2 0x20A JUMP JUMPDEST SWAP3 POP DUP1 DUP1 PUSH2 0x114 SWAP1 PUSH2 0x23A JUMP JUMPDEST SWAP2 POP POP PUSH2 0xF2 JUMP JUMPDEST DUP1 SWAP2 POP POP JUMPDEST SWAP2 SWAP1 POP JUMP JUMPDEST PUSH0 DUP1 REVERT JUMPDEST PUSH0 DUP2 SWAP1 POP SWAP2 SWAP1 POP JUMP JUMPDEST PUSH2 0x13C DUP2 PUSH2 0x12A JUMP JUMPDEST DUP2 EQ PUSH2 0x146 JUMPI PUSH0 DUP1 REVERT JUMPDEST POP JUMP JUMPDEST PUSH0 DUP2 CALLDATALOAD SWAP1 POP PUSH2 0x157 DUP2 PUSH2 0x133 JUMP JUMPDEST SWAP3 SWAP2 POP POP JUMP JUMPDEST PUSH0 PUSH1 0x20 DUP3 DUP5 SUB SLT ISZERO PUSH2 0x172 JUMPI PUSH2 0x171 PUSH2 0x126 JUMP JUMPDEST JUMPDEST PUSH0 PUSH2 0x17F DUP5 DUP3 DUP6 ADD PUSH2 0x149 JUMP JUMPDEST SWAP2 POP POP SWAP3 SWAP2 POP POP JUMP JUMPDEST PUSH2 0x191 DUP2 PUSH2 0x12A JUMP JUMPDEST DUP3 MSTORE POP POP JUMP JUMPDEST PUSH0 PUSH1 0x20 DUP3 ADD SWAP1 POP PUSH2 0x1AA PUSH0 DUP4 ADD DUP5 PUSH2 0x188 JUMP JUMPDEST SWAP3 SWAP2 POP POP JUMP JUMPDEST PUSH32 0x4E487B7100000000000000000000000000000000000000000000000000000000 PUSH0 MSTORE PUSH1 0x12 PUSH1 0x4 MSTORE PUSH1 0x24 PUSH0 REVERT JUMPDEST PUSH32 0x4E487B7100000000000000000000000000000000000000000000000000000000 PUSH0 MSTORE PUSH1 0x11 PUSH1 0x4 MSTORE PUSH1 0x24 PUSH0 REVERT JUMPDEST PUSH0 PUSH2 0x214 DUP3 PUSH2 0x12A JUMP JUMPDEST SWAP2 POP PUSH2 0x21F DUP4 PUSH2 0x12A JUMP JUMPDEST SWAP3 POP DUP3 PUSH2 0x22F JUMPI PUSH2 0x22E PUSH2 0x1B0 JUMP JUMPDEST JUMPDEST DUP3 DUP3 DIV SWAP1 POP SWAP3 SWAP2 POP POP JUMP JUMPDEST PUSH0 PUSH2 0x244 DUP3 PUSH2 0x12A JUMP JUMPDEST SWAP2 POP PUSH32 0xFFFFFFFFFFFFFFFFFFFFFFFFFFFFFFFFFFFFFFFFFFFFFFFFFFFFFFFFFFFFFFFF DUP3 SUB PUSH2 0x276 JUMPI PUSH2 0x275 PUSH2 0x1DD JUMP JUMPDEST JUMPDEST PUSH1 0x1 DUP3 ADD SWAP1 POP SWAP2 SWAP1 POP JUMP INVALID LOG2 PUSH5 0x6970667358 0x22 SLT KECCAK256 DUP12 PUSH21 0xD78C8D51C5AC64F9BB8B56F3243E35A249FB3702C8 BLOBHASH MCOPY PUSH9 0x5D72A8185A0B64736F PUSH13 0x634300081A0033000000000000 "
				},
				"gasEstimates": {
					"creation": {
						"codeDepositCost": "139000",
						"executionCost": "181",
						"totalCost": "139181"
					},
					"external": {
						"getDigits(uint256)": "infinite",
						"getQuinaryDigits(uint256)": "infinite"
					}
				},
				"methodIdentifiers": {
					"getDigits(uint256)": "ce8bb065",
					"getQuinaryDigits(uint256)": "84b96df7"
				}
			},
			"storageLayout": {
				"storage": [],
				"types": null
			},
			"userdoc": {
				"kind": "user",
				"methods": {},
				"version": 1
			}
		}
	}
}