{
	"solidity/solidity61~70.sol": {
		"Q65": {
			"abi": [
				{
					"inputs": [
						{
							"internalType": "uint256",
							"name": "_a",
							"type": "uint256"
						},
						{
							"internalType": "uint256",
							"name": "_b",
							"type": "uint256"
						},
						{
							"internalType": "uint256",
							"name": "_c",
							"type": "uint256"
						}
					],
					"name": "getMedianSquare",
					"outputs": [
						{
							"internalType": "uint256",
							"name": "",
							"type": "uint256"
						}
					],
					"stateMutability": "pure",
					"type": "function"
				},
				{
					"inputs": [
						{
							"internalType": "uint256",
							"name": "_a",
							"type": "uint256"
						},
						{
							"internalType": "uint256",
							"name": "_b",
							"type": "uint256"
						},
						{
							"internalType": "uint256",
							"name": "_c",
							"type": "uint256"
						}
					],
					"name": "squareNumbers",
					"outputs": [
						{
							"internalType": "uint256",
							"name": "",
							"type": "uint256"
						},
						{
							"internalType": "uint256",
							"name": "",
							"type": "uint256"
						},
						{
							"internalType": "uint256",
							"name": "",
							"type": "uint256"
						}
					],
					"stateMutability": "pure",
					"type": "function"
				}
			],
			"devdoc": {
				"kind": "dev",
				"methods": {},
				"version": 1
			},
			"evm": {
				"assembly": "    /* \"solidity/solidity61~70.sol\":1895:2820  contract Q65 {... */\n  mstore(0x40, 0x80)\n  callvalue\n  dup1\n  iszero\n  tag_1\n  jumpi\n  0x00\n  dup1\n  revert\ntag_1:\n  pop\n  dataSize(sub_0)\n  dup1\n  dataOffset(sub_0)\n  0x00\n  codecopy\n  0x00\n  return\nstop\n\nsub_0: assembly {\n        /* \"solidity/solidity61~70.sol\":1895:2820  contract Q65 {... */\n      mstore(0x40, 0x80)\n      callvalue\n      dup1\n      iszero\n      tag_1\n      jumpi\n      0x00\n      dup1\n      revert\n    tag_1:\n      pop\n      jumpi(tag_2, lt(calldatasize, 0x04))\n      shr(0xe0, calldataload(0x00))\n      dup1\n      0x47977146\n      eq\n      tag_3\n      jumpi\n      dup1\n      0x5aba7767\n      eq\n      tag_4\n      jumpi\n    tag_2:\n      0x00\n      dup1\n      revert\n        /* \"solidity/solidity61~70.sol\":2329:2818  function getMedianSquare(uint _a, uint _b, uint _c) public pure returns (uint) {... */\n    tag_3:\n      tag_5\n      0x04\n      dup1\n      calldatasize\n      sub\n      dup2\n      add\n      swap1\n      tag_6\n      swap2\n      swap1\n      tag_7\n      jump\t// in\n    tag_6:\n      tag_8\n      jump\t// in\n    tag_5:\n      mload(0x40)\n      tag_9\n      swap2\n      swap1\n      tag_10\n      jump\t// in\n    tag_9:\n      mload(0x40)\n      dup1\n      swap2\n      sub\n      swap1\n      return\n        /* \"solidity/solidity61~70.sol\":2183:2323  function squareNumbers(uint _a, uint _b, uint _c) public pure returns (uint, uint, uint) {... */\n    tag_4:\n      tag_11\n      0x04\n      dup1\n      calldatasize\n      sub\n      dup2\n      add\n      swap1\n      tag_12\n      swap2\n      swap1\n      tag_7\n      jump\t// in\n    tag_12:\n      tag_13\n      jump\t// in\n    tag_11:\n      mload(0x40)\n      tag_14\n      swap4\n      swap3\n      swap2\n      swap1\n      tag_15\n      jump\t// in\n    tag_14:\n      mload(0x40)\n      dup1\n      swap2\n      sub\n      swap1\n      return\n        /* \"solidity/solidity61~70.sol\":2329:2818  function getMedianSquare(uint _a, uint _b, uint _c) public pure returns (uint) {... */\n    tag_8:\n        /* \"solidity/solidity61~70.sol\":2402:2406  uint */\n      0x00\n        /* \"solidity/solidity61~70.sol\":2418:2430  uint squareA */\n      dup1\n        /* \"solidity/solidity61~70.sol\":2438:2440  _a */\n      dup5\n        /* \"solidity/solidity61~70.sol\":2433:2435  _a */\n      dup6\n        /* \"solidity/solidity61~70.sol\":2433:2440  _a * _a */\n      tag_17\n      swap2\n      swap1\n      tag_18\n      jump\t// in\n    tag_17:\n        /* \"solidity/solidity61~70.sol\":2418:2440  uint squareA = _a * _a */\n      swap1\n      pop\n        /* \"solidity/solidity61~70.sol\":2450:2462  uint squareB */\n      0x00\n        /* \"solidity/solidity61~70.sol\":2470:2472  _b */\n      dup5\n        /* \"solidity/solidity61~70.sol\":2465:2467  _b */\n      dup6\n        /* \"solidity/solidity61~70.sol\":2465:2472  _b * _b */\n      tag_19\n      swap2\n      swap1\n      tag_18\n      jump\t// in\n    tag_19:\n        /* \"solidity/solidity61~70.sol\":2450:2472  uint squareB = _b * _b */\n      swap1\n      pop\n        /* \"solidity/solidity61~70.sol\":2482:2494  uint squareC */\n      0x00\n        /* \"solidity/solidity61~70.sol\":2502:2504  _c */\n      dup5\n        /* \"solidity/solidity61~70.sol\":2497:2499  _c */\n      dup6\n        /* \"solidity/solidity61~70.sol\":2497:2504  _c * _c */\n      tag_20\n      swap2\n      swap1\n      tag_18\n      jump\t// in\n    tag_20:\n        /* \"solidity/solidity61~70.sol\":2482:2504  uint squareC = _c * _c */\n      swap1\n      pop\n        /* \"solidity/solidity61~70.sol\":2531:2538  squareB */\n      dup2\n        /* \"solidity/solidity61~70.sol\":2520:2527  squareA */\n      dup4\n        /* \"solidity/solidity61~70.sol\":2520:2538  squareA >= squareB */\n      lt\n      iszero\n        /* \"solidity/solidity61~70.sol\":2520:2560  squareA >= squareB && squareA <= squareC */\n      dup1\n      iszero\n      tag_21\n      jumpi\n      pop\n        /* \"solidity/solidity61~70.sol\":2553:2560  squareC */\n      dup1\n        /* \"solidity/solidity61~70.sol\":2542:2549  squareA */\n      dup4\n        /* \"solidity/solidity61~70.sol\":2542:2560  squareA <= squareC */\n      gt\n      iszero\n        /* \"solidity/solidity61~70.sol\":2520:2560  squareA >= squareB && squareA <= squareC */\n    tag_21:\n        /* \"solidity/solidity61~70.sol\":2519:2607  (squareA >= squareB && squareA <= squareC) || (squareA <= squareB && squareA >= squareC) */\n      dup1\n      tag_22\n      jumpi\n      pop\n        /* \"solidity/solidity61~70.sol\":2577:2584  squareB */\n      dup2\n        /* \"solidity/solidity61~70.sol\":2566:2573  squareA */\n      dup4\n        /* \"solidity/solidity61~70.sol\":2566:2584  squareA <= squareB */\n      gt\n      iszero\n        /* \"solidity/solidity61~70.sol\":2566:2606  squareA <= squareB && squareA >= squareC */\n      dup1\n      iszero\n      tag_23\n      jumpi\n      pop\n        /* \"solidity/solidity61~70.sol\":2599:2606  squareC */\n      dup1\n        /* \"solidity/solidity61~70.sol\":2588:2595  squareA */\n      dup4\n        /* \"solidity/solidity61~70.sol\":2588:2606  squareA >= squareC */\n      lt\n      iszero\n        /* \"solidity/solidity61~70.sol\":2566:2606  squareA <= squareB && squareA >= squareC */\n    tag_23:\n        /* \"solidity/solidity61~70.sol\":2519:2607  (squareA >= squareB && squareA <= squareC) || (squareA <= squareB && squareA >= squareC) */\n    tag_22:\n        /* \"solidity/solidity61~70.sol\":2515:2811  if ((squareA >= squareB && squareA <= squareC) || (squareA <= squareB && squareA >= squareC))... */\n      iszero\n      tag_24\n      jumpi\n        /* \"solidity/solidity61~70.sol\":2628:2635  squareA */\n      dup3\n        /* \"solidity/solidity61~70.sol\":2621:2635  return squareA */\n      swap4\n      pop\n      pop\n      pop\n      pop\n      jump(tag_16)\n        /* \"solidity/solidity61~70.sol\":2515:2811  if ((squareA >= squareB && squareA <= squareC) || (squareA <= squareB && squareA >= squareC))... */\n    tag_24:\n        /* \"solidity/solidity61~70.sol\":2666:2673  squareA */\n      dup3\n        /* \"solidity/solidity61~70.sol\":2655:2662  squareB */\n      dup3\n        /* \"solidity/solidity61~70.sol\":2655:2673  squareB >= squareA */\n      lt\n      iszero\n        /* \"solidity/solidity61~70.sol\":2655:2695  squareB >= squareA && squareB <= squareC */\n      dup1\n      iszero\n      tag_26\n      jumpi\n      pop\n        /* \"solidity/solidity61~70.sol\":2688:2695  squareC */\n      dup1\n        /* \"solidity/solidity61~70.sol\":2677:2684  squareB */\n      dup3\n        /* \"solidity/solidity61~70.sol\":2677:2695  squareB <= squareC */\n      gt\n      iszero\n        /* \"solidity/solidity61~70.sol\":2655:2695  squareB >= squareA && squareB <= squareC */\n    tag_26:\n        /* \"solidity/solidity61~70.sol\":2654:2742  (squareB >= squareA && squareB <= squareC) || (squareB <= squareA && squareB >= squareC) */\n      dup1\n      tag_27\n      jumpi\n      pop\n        /* \"solidity/solidity61~70.sol\":2712:2719  squareA */\n      dup3\n        /* \"solidity/solidity61~70.sol\":2701:2708  squareB */\n      dup3\n        /* \"solidity/solidity61~70.sol\":2701:2719  squareB <= squareA */\n      gt\n      iszero\n        /* \"solidity/solidity61~70.sol\":2701:2741  squareB <= squareA && squareB >= squareC */\n      dup1\n      iszero\n      tag_28\n      jumpi\n      pop\n        /* \"solidity/solidity61~70.sol\":2734:2741  squareC */\n      dup1\n        /* \"solidity/solidity61~70.sol\":2723:2730  squareB */\n      dup3\n        /* \"solidity/solidity61~70.sol\":2723:2741  squareB >= squareC */\n      lt\n      iszero\n        /* \"solidity/solidity61~70.sol\":2701:2741  squareB <= squareA && squareB >= squareC */\n    tag_28:\n        /* \"solidity/solidity61~70.sol\":2654:2742  (squareB >= squareA && squareB <= squareC) || (squareB <= squareA && squareB >= squareC) */\n    tag_27:\n        /* \"solidity/solidity61~70.sol\":2650:2811  if ((squareB >= squareA && squareB <= squareC) || (squareB <= squareA && squareB >= squareC))... */\n      iszero\n      tag_29\n      jumpi\n        /* \"solidity/solidity61~70.sol\":2763:2770  squareB */\n      dup2\n        /* \"solidity/solidity61~70.sol\":2756:2770  return squareB */\n      swap4\n      pop\n      pop\n      pop\n      pop\n      jump(tag_16)\n        /* \"solidity/solidity61~70.sol\":2650:2811  if ((squareB >= squareA && squareB <= squareC) || (squareB <= squareA && squareB >= squareC))... */\n    tag_29:\n        /* \"solidity/solidity61~70.sol\":2804:2811  squareC */\n      dup1\n        /* \"solidity/solidity61~70.sol\":2797:2811  return squareC */\n      swap4\n      pop\n      pop\n      pop\n      pop\n        /* \"solidity/solidity61~70.sol\":2329:2818  function getMedianSquare(uint _a, uint _b, uint _c) public pure returns (uint) {... */\n    tag_16:\n      swap4\n      swap3\n      pop\n      pop\n      pop\n      jump\t// out\n        /* \"solidity/solidity61~70.sol\":2183:2323  function squareNumbers(uint _a, uint _b, uint _c) public pure returns (uint, uint, uint) {... */\n    tag_13:\n        /* \"solidity/solidity61~70.sol\":2254:2258  uint */\n      0x00\n        /* \"solidity/solidity61~70.sol\":2260:2264  uint */\n      dup1\n        /* \"solidity/solidity61~70.sol\":2266:2270  uint */\n      0x00\n        /* \"solidity/solidity61~70.sol\":2295:2297  _a */\n      dup6\n        /* \"solidity/solidity61~70.sol\":2290:2292  _a */\n      dup7\n        /* \"solidity/solidity61~70.sol\":2290:2297  _a * _a */\n      tag_32\n      swap2\n      swap1\n      tag_18\n      jump\t// in\n    tag_32:\n        /* \"solidity/solidity61~70.sol\":2304:2306  _b */\n      dup6\n        /* \"solidity/solidity61~70.sol\":2299:2301  _b */\n      dup7\n        /* \"solidity/solidity61~70.sol\":2299:2306  _b * _b */\n      tag_33\n      swap2\n      swap1\n      tag_18\n      jump\t// in\n    tag_33:\n        /* \"solidity/solidity61~70.sol\":2313:2315  _c */\n      dup6\n        /* \"solidity/solidity61~70.sol\":2308:2310  _c */\n      dup7\n        /* \"solidity/solidity61~70.sol\":2308:2315  _c * _c */\n      tag_34\n      swap2\n      swap1\n      tag_18\n      jump\t// in\n    tag_34:\n        /* \"solidity/solidity61~70.sol\":2282:2316  return (_a * _a, _b * _b, _c * _c) */\n      swap3\n      pop\n      swap3\n      pop\n      swap3\n      pop\n        /* \"solidity/solidity61~70.sol\":2183:2323  function squareNumbers(uint _a, uint _b, uint _c) public pure returns (uint, uint, uint) {... */\n      swap4\n      pop\n      swap4\n      pop\n      swap4\n      swap1\n      pop\n      jump\t// out\n        /* \"#utility.yul\":88:205   */\n    tag_36:\n        /* \"#utility.yul\":197:198   */\n      0x00\n        /* \"#utility.yul\":194:195   */\n      dup1\n        /* \"#utility.yul\":187:199   */\n      revert\n        /* \"#utility.yul\":334:411   */\n    tag_38:\n        /* \"#utility.yul\":371:378   */\n      0x00\n        /* \"#utility.yul\":400:405   */\n      dup2\n        /* \"#utility.yul\":389:405   */\n      swap1\n      pop\n        /* \"#utility.yul\":334:411   */\n      swap2\n      swap1\n      pop\n      jump\t// out\n        /* \"#utility.yul\":417:539   */\n    tag_39:\n        /* \"#utility.yul\":490:514   */\n      tag_49\n        /* \"#utility.yul\":508:513   */\n      dup2\n        /* \"#utility.yul\":490:514   */\n      tag_38\n      jump\t// in\n    tag_49:\n        /* \"#utility.yul\":483:488   */\n      dup2\n        /* \"#utility.yul\":480:515   */\n      eq\n        /* \"#utility.yul\":470:533   */\n      tag_50\n      jumpi\n        /* \"#utility.yul\":529:530   */\n      0x00\n        /* \"#utility.yul\":526:527   */\n      dup1\n        /* \"#utility.yul\":519:531   */\n      revert\n        /* \"#utility.yul\":470:533   */\n    tag_50:\n        /* \"#utility.yul\":417:539   */\n      pop\n      jump\t// out\n        /* \"#utility.yul\":545:684   */\n    tag_40:\n        /* \"#utility.yul\":591:596   */\n      0x00\n        /* \"#utility.yul\":629:635   */\n      dup2\n        /* \"#utility.yul\":616:636   */\n      calldataload\n        /* \"#utility.yul\":607:636   */\n      swap1\n      pop\n        /* \"#utility.yul\":645:678   */\n      tag_52\n        /* \"#utility.yul\":672:677   */\n      dup2\n        /* \"#utility.yul\":645:678   */\n      tag_39\n      jump\t// in\n    tag_52:\n        /* \"#utility.yul\":545:684   */\n      swap3\n      swap2\n      pop\n      pop\n      jump\t// out\n        /* \"#utility.yul\":690:1309   */\n    tag_7:\n        /* \"#utility.yul\":767:773   */\n      0x00\n        /* \"#utility.yul\":775:781   */\n      dup1\n        /* \"#utility.yul\":783:789   */\n      0x00\n        /* \"#utility.yul\":832:834   */\n      0x60\n        /* \"#utility.yul\":820:829   */\n      dup5\n        /* \"#utility.yul\":811:818   */\n      dup7\n        /* \"#utility.yul\":807:830   */\n      sub\n        /* \"#utility.yul\":803:835   */\n      slt\n        /* \"#utility.yul\":800:919   */\n      iszero\n      tag_54\n      jumpi\n        /* \"#utility.yul\":838:917   */\n      tag_55\n      tag_36\n      jump\t// in\n    tag_55:\n        /* \"#utility.yul\":800:919   */\n    tag_54:\n        /* \"#utility.yul\":958:959   */\n      0x00\n        /* \"#utility.yul\":983:1036   */\n      tag_56\n        /* \"#utility.yul\":1028:1035   */\n      dup7\n        /* \"#utility.yul\":1019:1025   */\n      dup3\n        /* \"#utility.yul\":1008:1017   */\n      dup8\n        /* \"#utility.yul\":1004:1026   */\n      add\n        /* \"#utility.yul\":983:1036   */\n      tag_40\n      jump\t// in\n    tag_56:\n        /* \"#utility.yul\":973:1036   */\n      swap4\n      pop\n        /* \"#utility.yul\":929:1046   */\n      pop\n        /* \"#utility.yul\":1085:1087   */\n      0x20\n        /* \"#utility.yul\":1111:1164   */\n      tag_57\n        /* \"#utility.yul\":1156:1163   */\n      dup7\n        /* \"#utility.yul\":1147:1153   */\n      dup3\n        /* \"#utility.yul\":1136:1145   */\n      dup8\n        /* \"#utility.yul\":1132:1154   */\n      add\n        /* \"#utility.yul\":1111:1164   */\n      tag_40\n      jump\t// in\n    tag_57:\n        /* \"#utility.yul\":1101:1164   */\n      swap3\n      pop\n        /* \"#utility.yul\":1056:1174   */\n      pop\n        /* \"#utility.yul\":1213:1215   */\n      0x40\n        /* \"#utility.yul\":1239:1292   */\n      tag_58\n        /* \"#utility.yul\":1284:1291   */\n      dup7\n        /* \"#utility.yul\":1275:1281   */\n      dup3\n        /* \"#utility.yul\":1264:1273   */\n      dup8\n        /* \"#utility.yul\":1260:1282   */\n      add\n        /* \"#utility.yul\":1239:1292   */\n      tag_40\n      jump\t// in\n    tag_58:\n        /* \"#utility.yul\":1229:1292   */\n      swap2\n      pop\n        /* \"#utility.yul\":1184:1302   */\n      pop\n        /* \"#utility.yul\":690:1309   */\n      swap3\n      pop\n      swap3\n      pop\n      swap3\n      jump\t// out\n        /* \"#utility.yul\":1315:1433   */\n    tag_41:\n        /* \"#utility.yul\":1402:1426   */\n      tag_60\n        /* \"#utility.yul\":1420:1425   */\n      dup2\n        /* \"#utility.yul\":1402:1426   */\n      tag_38\n      jump\t// in\n    tag_60:\n        /* \"#utility.yul\":1397:1400   */\n      dup3\n        /* \"#utility.yul\":1390:1427   */\n      mstore\n        /* \"#utility.yul\":1315:1433   */\n      pop\n      pop\n      jump\t// out\n        /* \"#utility.yul\":1439:1661   */\n    tag_10:\n        /* \"#utility.yul\":1532:1536   */\n      0x00\n        /* \"#utility.yul\":1570:1572   */\n      0x20\n        /* \"#utility.yul\":1559:1568   */\n      dup3\n        /* \"#utility.yul\":1555:1573   */\n      add\n        /* \"#utility.yul\":1547:1573   */\n      swap1\n      pop\n        /* \"#utility.yul\":1583:1654   */\n      tag_62\n        /* \"#utility.yul\":1651:1652   */\n      0x00\n        /* \"#utility.yul\":1640:1649   */\n      dup4\n        /* \"#utility.yul\":1636:1653   */\n      add\n        /* \"#utility.yul\":1627:1633   */\n      dup5\n        /* \"#utility.yul\":1583:1654   */\n      tag_41\n      jump\t// in\n    tag_62:\n        /* \"#utility.yul\":1439:1661   */\n      swap3\n      swap2\n      pop\n      pop\n      jump\t// out\n        /* \"#utility.yul\":1667:2109   */\n    tag_15:\n        /* \"#utility.yul\":1816:1820   */\n      0x00\n        /* \"#utility.yul\":1854:1856   */\n      0x60\n        /* \"#utility.yul\":1843:1852   */\n      dup3\n        /* \"#utility.yul\":1839:1857   */\n      add\n        /* \"#utility.yul\":1831:1857   */\n      swap1\n      pop\n        /* \"#utility.yul\":1867:1938   */\n      tag_64\n        /* \"#utility.yul\":1935:1936   */\n      0x00\n        /* \"#utility.yul\":1924:1933   */\n      dup4\n        /* \"#utility.yul\":1920:1937   */\n      add\n        /* \"#utility.yul\":1911:1917   */\n      dup7\n        /* \"#utility.yul\":1867:1938   */\n      tag_41\n      jump\t// in\n    tag_64:\n        /* \"#utility.yul\":1948:2020   */\n      tag_65\n        /* \"#utility.yul\":2016:2018   */\n      0x20\n        /* \"#utility.yul\":2005:2014   */\n      dup4\n        /* \"#utility.yul\":2001:2019   */\n      add\n        /* \"#utility.yul\":1992:1998   */\n      dup6\n        /* \"#utility.yul\":1948:2020   */\n      tag_41\n      jump\t// in\n    tag_65:\n        /* \"#utility.yul\":2030:2102   */\n      tag_66\n        /* \"#utility.yul\":2098:2100   */\n      0x40\n        /* \"#utility.yul\":2087:2096   */\n      dup4\n        /* \"#utility.yul\":2083:2101   */\n      add\n        /* \"#utility.yul\":2074:2080   */\n      dup5\n        /* \"#utility.yul\":2030:2102   */\n      tag_41\n      jump\t// in\n    tag_66:\n        /* \"#utility.yul\":1667:2109   */\n      swap5\n      swap4\n      pop\n      pop\n      pop\n      pop\n      jump\t// out\n        /* \"#utility.yul\":2115:2295   */\n    tag_42:\n        /* \"#utility.yul\":2163:2240   */\n      0x4e487b7100000000000000000000000000000000000000000000000000000000\n        /* \"#utility.yul\":2160:2161   */\n      0x00\n        /* \"#utility.yul\":2153:2241   */\n      mstore\n        /* \"#utility.yul\":2260:2264   */\n      0x11\n        /* \"#utility.yul\":2257:2258   */\n      0x04\n        /* \"#utility.yul\":2250:2265   */\n      mstore\n        /* \"#utility.yul\":2284:2288   */\n      0x24\n        /* \"#utility.yul\":2281:2282   */\n      0x00\n        /* \"#utility.yul\":2274:2289   */\n      revert\n        /* \"#utility.yul\":2301:2711   */\n    tag_18:\n        /* \"#utility.yul\":2341:2348   */\n      0x00\n        /* \"#utility.yul\":2364:2384   */\n      tag_69\n        /* \"#utility.yul\":2382:2383   */\n      dup3\n        /* \"#utility.yul\":2364:2384   */\n      tag_38\n      jump\t// in\n    tag_69:\n        /* \"#utility.yul\":2359:2384   */\n      swap2\n      pop\n        /* \"#utility.yul\":2398:2418   */\n      tag_70\n        /* \"#utility.yul\":2416:2417   */\n      dup4\n        /* \"#utility.yul\":2398:2418   */\n      tag_38\n      jump\t// in\n    tag_70:\n        /* \"#utility.yul\":2393:2418   */\n      swap3\n      pop\n        /* \"#utility.yul\":2453:2454   */\n      dup3\n        /* \"#utility.yul\":2450:2451   */\n      dup3\n        /* \"#utility.yul\":2446:2455   */\n      mul\n        /* \"#utility.yul\":2475:2505   */\n      tag_71\n        /* \"#utility.yul\":2493:2504   */\n      dup2\n        /* \"#utility.yul\":2475:2505   */\n      tag_38\n      jump\t// in\n    tag_71:\n        /* \"#utility.yul\":2464:2505   */\n      swap2\n      pop\n        /* \"#utility.yul\":2654:2655   */\n      dup3\n        /* \"#utility.yul\":2645:2652   */\n      dup3\n        /* \"#utility.yul\":2641:2656   */\n      div\n        /* \"#utility.yul\":2638:2639   */\n      dup5\n        /* \"#utility.yul\":2635:2657   */\n      eq\n        /* \"#utility.yul\":2615:2616   */\n      dup4\n        /* \"#utility.yul\":2608:2617   */\n      iszero\n        /* \"#utility.yul\":2588:2671   */\n      or\n        /* \"#utility.yul\":2565:2704   */\n      tag_72\n      jumpi\n        /* \"#utility.yul\":2684:2702   */\n      tag_73\n      tag_42\n      jump\t// in\n    tag_73:\n        /* \"#utility.yul\":2565:2704   */\n    tag_72:\n        /* \"#utility.yul\":2349:2711   */\n      pop\n        /* \"#utility.yul\":2301:2711   */\n      swap3\n      swap2\n      pop\n      pop\n      jump\t// out\n\n    auxdata: 0xa2646970667358221220b9968021a6df95b256129ff450d0e4331e33f7e462d353a5eff75613bccb24fb64736f6c634300081a0033\n}\n",
				"bytecode": {
					"linkReferences": {},
					"object": "6080604052348015600e575f80fd5b506103028061001c5f395ff3fe608060405234801561000f575f80fd5b5060043610610034575f3560e01c806347977146146100385780635aba776714610068575b5f80fd5b610052600480360381019061004d91906101b1565b61009a565b60405161005f9190610210565b60405180910390f35b610082600480360381019061007d91906101b1565b610144565b60405161009193929190610229565b60405180910390f35b5f8084856100a8919061028b565b90505f84856100b7919061028b565b90505f84856100c6919061028b565b90508183101580156100d85750808311155b806100ef57508183111580156100ee5750808310155b5b156100ff5782935050505061013d565b82821015801561010f5750808211155b8061012657508282111580156101255750808210155b5b156101365781935050505061013d565b8093505050505b9392505050565b5f805f8586610153919061028b565b858661015f919061028b565b858661016b919061028b565b92509250925093509350939050565b5f80fd5b5f819050919050565b6101908161017e565b811461019a575f80fd5b50565b5f813590506101ab81610187565b92915050565b5f805f606084860312156101c8576101c761017a565b5b5f6101d58682870161019d565b93505060206101e68682870161019d565b92505060406101f78682870161019d565b9150509250925092565b61020a8161017e565b82525050565b5f6020820190506102235f830184610201565b92915050565b5f60608201905061023c5f830186610201565b6102496020830185610201565b6102566040830184610201565b949350505050565b7f4e487b71000000000000000000000000000000000000000000000000000000005f52601160045260245ffd5b5f6102958261017e565b91506102a08361017e565b92508282026102ae8161017e565b915082820484148315176102c5576102c461025e565b5b509291505056fea2646970667358221220b9968021a6df95b256129ff450d0e4331e33f7e462d353a5eff75613bccb24fb64736f6c634300081a0033",
					"opcodes": "PUSH1 0x80 PUSH1 0x40 MSTORE CALLVALUE DUP1 ISZERO PUSH1 0xE JUMPI PUSH0 DUP1 REVERT JUMPDEST POP PUSH2 0x302 DUP1 PUSH2 0x1C PUSH0 CODECOPY PUSH0 RETURN INVALID PUSH1 0x80 PUSH1 0x40 MSTORE CALLVALUE DUP1 ISZERO PUSH2 0xF JUMPI PUSH0 DUP1 REVERT JUMPDEST POP PUSH1 0x4 CALLDATASIZE LT PUSH2 0x34 JUMPI PUSH0 CALLDATALOAD PUSH1 0xE0 SHR DUP1 PUSH4 0x47977146 EQ PUSH2 0x38 JUMPI DUP1 PUSH4 0x5ABA7767 EQ PUSH2 0x68 JUMPI JUMPDEST PUSH0 DUP1 REVERT JUMPDEST PUSH2 0x52 PUSH1 0x4 DUP1 CALLDATASIZE SUB DUP2 ADD SWAP1 PUSH2 0x4D SWAP2 SWAP1 PUSH2 0x1B1 JUMP JUMPDEST PUSH2 0x9A JUMP JUMPDEST PUSH1 0x40 MLOAD PUSH2 0x5F SWAP2 SWAP1 PUSH2 0x210 JUMP JUMPDEST PUSH1 0x40 MLOAD DUP1 SWAP2 SUB SWAP1 RETURN JUMPDEST PUSH2 0x82 PUSH1 0x4 DUP1 CALLDATASIZE SUB DUP2 ADD SWAP1 PUSH2 0x7D SWAP2 SWAP1 PUSH2 0x1B1 JUMP JUMPDEST PUSH2 0x144 JUMP JUMPDEST PUSH1 0x40 MLOAD PUSH2 0x91 SWAP4 SWAP3 SWAP2 SWAP1 PUSH2 0x229 JUMP JUMPDEST PUSH1 0x40 MLOAD DUP1 SWAP2 SUB SWAP1 RETURN JUMPDEST PUSH0 DUP1 DUP5 DUP6 PUSH2 0xA8 SWAP2 SWAP1 PUSH2 0x28B JUMP JUMPDEST SWAP1 POP PUSH0 DUP5 DUP6 PUSH2 0xB7 SWAP2 SWAP1 PUSH2 0x28B JUMP JUMPDEST SWAP1 POP PUSH0 DUP5 DUP6 PUSH2 0xC6 SWAP2 SWAP1 PUSH2 0x28B JUMP JUMPDEST SWAP1 POP DUP2 DUP4 LT ISZERO DUP1 ISZERO PUSH2 0xD8 JUMPI POP DUP1 DUP4 GT ISZERO JUMPDEST DUP1 PUSH2 0xEF JUMPI POP DUP2 DUP4 GT ISZERO DUP1 ISZERO PUSH2 0xEE JUMPI POP DUP1 DUP4 LT ISZERO JUMPDEST JUMPDEST ISZERO PUSH2 0xFF JUMPI DUP3 SWAP4 POP POP POP POP PUSH2 0x13D JUMP JUMPDEST DUP3 DUP3 LT ISZERO DUP1 ISZERO PUSH2 0x10F JUMPI POP DUP1 DUP3 GT ISZERO JUMPDEST DUP1 PUSH2 0x126 JUMPI POP DUP3 DUP3 GT ISZERO DUP1 ISZERO PUSH2 0x125 JUMPI POP DUP1 DUP3 LT ISZERO JUMPDEST JUMPDEST ISZERO PUSH2 0x136 JUMPI DUP2 SWAP4 POP POP POP POP PUSH2 0x13D JUMP JUMPDEST DUP1 SWAP4 POP POP POP POP JUMPDEST SWAP4 SWAP3 POP POP POP JUMP JUMPDEST PUSH0 DUP1 PUSH0 DUP6 DUP7 PUSH2 0x153 SWAP2 SWAP1 PUSH2 0x28B JUMP JUMPDEST DUP6 DUP7 PUSH2 0x15F SWAP2 SWAP1 PUSH2 0x28B JUMP JUMPDEST DUP6 DUP7 PUSH2 0x16B SWAP2 SWAP1 PUSH2 0x28B JUMP JUMPDEST SWAP3 POP SWAP3 POP SWAP3 POP SWAP4 POP SWAP4 POP SWAP4 SWAP1 POP JUMP JUMPDEST PUSH0 DUP1 REVERT JUMPDEST PUSH0 DUP2 SWAP1 POP SWAP2 SWAP1 POP JUMP JUMPDEST PUSH2 0x190 DUP2 PUSH2 0x17E JUMP JUMPDEST DUP2 EQ PUSH2 0x19A JUMPI PUSH0 DUP1 REVERT JUMPDEST POP JUMP JUMPDEST PUSH0 DUP2 CALLDATALOAD SWAP1 POP PUSH2 0x1AB DUP2 PUSH2 0x187 JUMP JUMPDEST SWAP3 SWAP2 POP POP JUMP JUMPDEST PUSH0 DUP1 PUSH0 PUSH1 0x60 DUP5 DUP7 SUB SLT ISZERO PUSH2 0x1C8 JUMPI PUSH2 0x1C7 PUSH2 0x17A JUMP JUMPDEST JUMPDEST PUSH0 PUSH2 0x1D5 DUP7 DUP3 DUP8 ADD PUSH2 0x19D JUMP JUMPDEST SWAP4 POP POP PUSH1 0x20 PUSH2 0x1E6 DUP7 DUP3 DUP8 ADD PUSH2 0x19D JUMP JUMPDEST SWAP3 POP POP PUSH1 0x40 PUSH2 0x1F7 DUP7 DUP3 DUP8 ADD PUSH2 0x19D JUMP JUMPDEST SWAP2 POP POP SWAP3 POP SWAP3 POP SWAP3 JUMP JUMPDEST PUSH2 0x20A DUP2 PUSH2 0x17E JUMP JUMPDEST DUP3 MSTORE POP POP JUMP JUMPDEST PUSH0 PUSH1 0x20 DUP3 ADD SWAP1 POP PUSH2 0x223 PUSH0 DUP4 ADD DUP5 PUSH2 0x201 JUMP JUMPDEST SWAP3 SWAP2 POP POP JUMP JUMPDEST PUSH0 PUSH1 0x60 DUP3 ADD SWAP1 POP PUSH2 0x23C PUSH0 DUP4 ADD DUP7 PUSH2 0x201 JUMP JUMPDEST PUSH2 0x249 PUSH1 0x20 DUP4 ADD DUP6 PUSH2 0x201 JUMP JUMPDEST PUSH2 0x256 PUSH1 0x40 DUP4 ADD DUP5 PUSH2 0x201 JUMP JUMPDEST SWAP5 SWAP4 POP POP POP POP JUMP JUMPDEST PUSH32 0x4E487B7100000000000000000000000000000000000000000000000000000000 PUSH0 MSTORE PUSH1 0x11 PUSH1 0x4 MSTORE PUSH1 0x24 PUSH0 REVERT JUMPDEST PUSH0 PUSH2 0x295 DUP3 PUSH2 0x17E JUMP JUMPDEST SWAP2 POP PUSH2 0x2A0 DUP4 PUSH2 0x17E JUMP JUMPDEST SWAP3 POP DUP3 DUP3 MUL PUSH2 0x2AE DUP2 PUSH2 0x17E JUMP JUMPDEST SWAP2 POP DUP3 DUP3 DIV DUP5 EQ DUP4 ISZERO OR PUSH2 0x2C5 JUMPI PUSH2 0x2C4 PUSH2 0x25E JUMP JUMPDEST JUMPDEST POP SWAP3 SWAP2 POP POP JUMP INVALID LOG2 PUSH5 0x6970667358 0x22 SLT KECCAK256 0xB9 SWAP7 DUP1 0x21 0xA6 0xDF SWAP6 0xB2 JUMP SLT SWAP16 DELEGATECALL POP 0xD0 0xE4 CALLER 0x1E CALLER 0xF7 0xE4 PUSH3 0xD353A5 0xEF 0xF7 JUMP SGT 0xBC 0xCB 0x24 0xFB PUSH5 0x736F6C6343 STOP ADDMOD BYTE STOP CALLER "
				},
				"gasEstimates": {
					"creation": {
						"codeDepositCost": "154000",
						"executionCost": "200",
						"totalCost": "154200"
					},
					"external": {
						"getMedianSquare(uint256,uint256,uint256)": "infinite",
						"squareNumbers(uint256,uint256,uint256)": "infinite"
					}
				},
				"methodIdentifiers": {
					"getMedianSquare(uint256,uint256,uint256)": "47977146",
					"squareNumbers(uint256,uint256,uint256)": "5aba7767"
				}
			},
			"storageLayout": {
				"storage": [],
				"types": null
			},
			"userdoc": {
				"kind": "user",
				"methods": {},
				"version": 1
			}
		}
	}
}