{
	"solidity/soidity91~100.sol": {
		"Q94": {
			"abi": [
				{
					"inputs": [
						{
							"internalType": "uint256",
							"name": "_a",
							"type": "uint256"
						},
						{
							"internalType": "uint256",
							"name": "_b",
							"type": "uint256"
						}
					],
					"name": "add",
					"outputs": [
						{
							"internalType": "uint256",
							"name": "",
							"type": "uint256"
						}
					],
					"stateMutability": "pure",
					"type": "function"
				},
				{
					"inputs": [
						{
							"internalType": "uint256",
							"name": "_a",
							"type": "uint256"
						},
						{
							"internalType": "uint256",
							"name": "_b",
							"type": "uint256"
						}
					],
					"name": "div",
					"outputs": [
						{
							"internalType": "uint256",
							"name": "",
							"type": "uint256"
						}
					],
					"stateMutability": "pure",
					"type": "function"
				},
				{
					"inputs": [
						{
							"internalType": "uint256",
							"name": "_a",
							"type": "uint256"
						},
						{
							"internalType": "uint256",
							"name": "_b",
							"type": "uint256"
						}
					],
					"name": "mul",
					"outputs": [
						{
							"internalType": "uint256",
							"name": "",
							"type": "uint256"
						}
					],
					"stateMutability": "pure",
					"type": "function"
				},
				{
					"inputs": [
						{
							"internalType": "uint256",
							"name": "_a",
							"type": "uint256"
						},
						{
							"internalType": "uint256",
							"name": "_b",
							"type": "uint256"
						}
					],
					"name": "sub",
					"outputs": [
						{
							"internalType": "uint256",
							"name": "",
							"type": "uint256"
						}
					],
					"stateMutability": "pure",
					"type": "function"
				}
			],
			"devdoc": {
				"kind": "dev",
				"methods": {},
				"version": 1
			},
			"evm": {
				"assembly": "    /* \"solidity/soidity91~100.sol\":1552:2296  contract Q94 {... */\n  mstore(0x40, 0x80)\n  callvalue\n  dup1\n  iszero\n  tag_1\n  jumpi\n  0x00\n  dup1\n  revert\ntag_1:\n  pop\n  dataSize(sub_0)\n  dup1\n  dataOffset(sub_0)\n  0x00\n  codecopy\n  0x00\n  return\nstop\n\nsub_0: assembly {\n        /* \"solidity/soidity91~100.sol\":1552:2296  contract Q94 {... */\n      mstore(0x40, 0x80)\n      callvalue\n      dup1\n      iszero\n      tag_1\n      jumpi\n      0x00\n      dup1\n      revert\n    tag_1:\n      pop\n      jumpi(tag_2, lt(calldatasize, 0x04))\n      shr(0xe0, calldataload(0x00))\n      dup1\n      0x771602f7\n      eq\n      tag_3\n      jumpi\n      dup1\n      0xa391c15b\n      eq\n      tag_4\n      jumpi\n      dup1\n      0xb67d77c5\n      eq\n      tag_5\n      jumpi\n      dup1\n      0xc8a4ac9c\n      eq\n      tag_6\n      jumpi\n    tag_2:\n      0x00\n      dup1\n      revert\n        /* \"solidity/soidity91~100.sol\":1660:1808  function add(uint _a, uint _b) public pure returns(uint) {... */\n    tag_3:\n      tag_7\n      0x04\n      dup1\n      calldatasize\n      sub\n      dup2\n      add\n      swap1\n      tag_8\n      swap2\n      swap1\n      tag_9\n      jump\t// in\n    tag_8:\n      tag_10\n      jump\t// in\n    tag_7:\n      mload(0x40)\n      tag_11\n      swap2\n      swap1\n      tag_12\n      jump\t// in\n    tag_11:\n      mload(0x40)\n      dup1\n      swap2\n      sub\n      swap1\n      return\n        /* \"solidity/soidity91~100.sol\":2134:2294  function div(uint _a, uint _b) public pure returns(uint) {... */\n    tag_4:\n      tag_13\n      0x04\n      dup1\n      calldatasize\n      sub\n      dup2\n      add\n      swap1\n      tag_14\n      swap2\n      swap1\n      tag_9\n      jump\t// in\n    tag_14:\n      tag_15\n      jump\t// in\n    tag_13:\n      mload(0x40)\n      tag_16\n      swap2\n      swap1\n      tag_12\n      jump\t// in\n    tag_16:\n      mload(0x40)\n      dup1\n      swap2\n      sub\n      swap1\n      return\n        /* \"solidity/soidity91~100.sol\":1814:1962  function sub(uint _a, uint _b) public pure returns(uint) {... */\n    tag_5:\n      tag_17\n      0x04\n      dup1\n      calldatasize\n      sub\n      dup2\n      add\n      swap1\n      tag_18\n      swap2\n      swap1\n      tag_9\n      jump\t// in\n    tag_18:\n      tag_19\n      jump\t// in\n    tag_17:\n      mload(0x40)\n      tag_20\n      swap2\n      swap1\n      tag_12\n      jump\t// in\n    tag_20:\n      mload(0x40)\n      dup1\n      swap2\n      sub\n      swap1\n      return\n        /* \"solidity/soidity91~100.sol\":1968:2128  function mul(uint _a, uint _b) public pure returns(uint) {... */\n    tag_6:\n      tag_21\n      0x04\n      dup1\n      calldatasize\n      sub\n      dup2\n      add\n      swap1\n      tag_22\n      swap2\n      swap1\n      tag_9\n      jump\t// in\n    tag_22:\n      tag_23\n      jump\t// in\n    tag_21:\n      mload(0x40)\n      tag_24\n      swap2\n      swap1\n      tag_12\n      jump\t// in\n    tag_24:\n      mload(0x40)\n      dup1\n      swap2\n      sub\n      swap1\n      return\n        /* \"solidity/soidity91~100.sol\":1660:1808  function add(uint _a, uint _b) public pure returns(uint) {... */\n    tag_10:\n        /* \"solidity/soidity91~100.sol\":1711:1715  uint */\n      0x00\n        /* \"solidity/soidity91~100.sol\":1763:1765  _b */\n      dup2\n        /* \"solidity/soidity91~100.sol\":1759:1761  _a */\n      dup4\n        /* \"solidity/soidity91~100.sol\":1755:1766  add(_a, _b) */\n      add\n        /* \"solidity/soidity91~100.sol\":1749:1753  0x80 */\n      0x80\n        /* \"solidity/soidity91~100.sol\":1742:1767  mstore(0x80, add(_a, _b)) */\n      mstore\n        /* \"solidity/soidity91~100.sol\":1789:1791  32 */\n      0x20\n        /* \"solidity/soidity91~100.sol\":1783:1787  0x80 */\n      0x80\n        /* \"solidity/soidity91~100.sol\":1776:1792  return(0x80, 32) */\n      return\n        /* \"solidity/soidity91~100.sol\":2134:2294  function div(uint _a, uint _b) public pure returns(uint) {... */\n    tag_15:\n        /* \"solidity/soidity91~100.sol\":2185:2189  uint */\n      0x00\n        /* \"solidity/soidity91~100.sol\":2245:2247  _b */\n      dup2\n        /* \"solidity/soidity91~100.sol\":2241:2243  _a */\n      dup4\n        /* \"solidity/soidity91~100.sol\":2237:2248  div(_a, _b) */\n      div\n        /* \"solidity/soidity91~100.sol\":2231:2235  0x80 */\n      0x80\n        /* \"solidity/soidity91~100.sol\":2224:2249  mstore(0x80, div(_a, _b)) */\n      mstore\n        /* \"solidity/soidity91~100.sol\":2275:2277  32 */\n      0x20\n        /* \"solidity/soidity91~100.sol\":2269:2273  0x80 */\n      0x80\n        /* \"solidity/soidity91~100.sol\":2262:2278  return(0x80, 32) */\n      return\n        /* \"solidity/soidity91~100.sol\":1814:1962  function sub(uint _a, uint _b) public pure returns(uint) {... */\n    tag_19:\n        /* \"solidity/soidity91~100.sol\":1865:1869  uint */\n      0x00\n        /* \"solidity/soidity91~100.sol\":1917:1919  _b */\n      dup2\n        /* \"solidity/soidity91~100.sol\":1913:1915  _a */\n      dup4\n        /* \"solidity/soidity91~100.sol\":1909:1920  sub(_a, _b) */\n      sub\n        /* \"solidity/soidity91~100.sol\":1903:1907  0x80 */\n      0x80\n        /* \"solidity/soidity91~100.sol\":1896:1921  mstore(0x80, sub(_a, _b)) */\n      mstore\n        /* \"solidity/soidity91~100.sol\":1943:1945  32 */\n      0x20\n        /* \"solidity/soidity91~100.sol\":1937:1941  0x80 */\n      0x80\n        /* \"solidity/soidity91~100.sol\":1930:1946  return(0x80, 32) */\n      return\n        /* \"solidity/soidity91~100.sol\":1968:2128  function mul(uint _a, uint _b) public pure returns(uint) {... */\n    tag_23:\n        /* \"solidity/soidity91~100.sol\":2019:2023  uint */\n      0x00\n        /* \"solidity/soidity91~100.sol\":2079:2081  _b */\n      dup2\n        /* \"solidity/soidity91~100.sol\":2075:2077  _a */\n      dup4\n        /* \"solidity/soidity91~100.sol\":2071:2082  mul(_a, _b) */\n      mul\n        /* \"solidity/soidity91~100.sol\":2065:2069  0x80 */\n      0x80\n        /* \"solidity/soidity91~100.sol\":2058:2083  mstore(0x80, mul(_a, _b)) */\n      mstore\n        /* \"solidity/soidity91~100.sol\":2109:2111  32 */\n      0x20\n        /* \"solidity/soidity91~100.sol\":2103:2107  0x80 */\n      0x80\n        /* \"solidity/soidity91~100.sol\":2096:2112  return(0x80, 32) */\n      return\n        /* \"#utility.yul\":88:205   */\n    tag_30:\n        /* \"#utility.yul\":197:198   */\n      0x00\n        /* \"#utility.yul\":194:195   */\n      dup1\n        /* \"#utility.yul\":187:199   */\n      revert\n        /* \"#utility.yul\":334:411   */\n    tag_32:\n        /* \"#utility.yul\":371:378   */\n      0x00\n        /* \"#utility.yul\":400:405   */\n      dup2\n        /* \"#utility.yul\":389:405   */\n      swap1\n      pop\n        /* \"#utility.yul\":334:411   */\n      swap2\n      swap1\n      pop\n      jump\t// out\n        /* \"#utility.yul\":417:539   */\n    tag_33:\n        /* \"#utility.yul\":490:514   */\n      tag_42\n        /* \"#utility.yul\":508:513   */\n      dup2\n        /* \"#utility.yul\":490:514   */\n      tag_32\n      jump\t// in\n    tag_42:\n        /* \"#utility.yul\":483:488   */\n      dup2\n        /* \"#utility.yul\":480:515   */\n      eq\n        /* \"#utility.yul\":470:533   */\n      tag_43\n      jumpi\n        /* \"#utility.yul\":529:530   */\n      0x00\n        /* \"#utility.yul\":526:527   */\n      dup1\n        /* \"#utility.yul\":519:531   */\n      revert\n        /* \"#utility.yul\":470:533   */\n    tag_43:\n        /* \"#utility.yul\":417:539   */\n      pop\n      jump\t// out\n        /* \"#utility.yul\":545:684   */\n    tag_34:\n        /* \"#utility.yul\":591:596   */\n      0x00\n        /* \"#utility.yul\":629:635   */\n      dup2\n        /* \"#utility.yul\":616:636   */\n      calldataload\n        /* \"#utility.yul\":607:636   */\n      swap1\n      pop\n        /* \"#utility.yul\":645:678   */\n      tag_45\n        /* \"#utility.yul\":672:677   */\n      dup2\n        /* \"#utility.yul\":645:678   */\n      tag_33\n      jump\t// in\n    tag_45:\n        /* \"#utility.yul\":545:684   */\n      swap3\n      swap2\n      pop\n      pop\n      jump\t// out\n        /* \"#utility.yul\":690:1164   */\n    tag_9:\n        /* \"#utility.yul\":758:764   */\n      0x00\n        /* \"#utility.yul\":766:772   */\n      dup1\n        /* \"#utility.yul\":815:817   */\n      0x40\n        /* \"#utility.yul\":803:812   */\n      dup4\n        /* \"#utility.yul\":794:801   */\n      dup6\n        /* \"#utility.yul\":790:813   */\n      sub\n        /* \"#utility.yul\":786:818   */\n      slt\n        /* \"#utility.yul\":783:902   */\n      iszero\n      tag_47\n      jumpi\n        /* \"#utility.yul\":821:900   */\n      tag_48\n      tag_30\n      jump\t// in\n    tag_48:\n        /* \"#utility.yul\":783:902   */\n    tag_47:\n        /* \"#utility.yul\":941:942   */\n      0x00\n        /* \"#utility.yul\":966:1019   */\n      tag_49\n        /* \"#utility.yul\":1011:1018   */\n      dup6\n        /* \"#utility.yul\":1002:1008   */\n      dup3\n        /* \"#utility.yul\":991:1000   */\n      dup7\n        /* \"#utility.yul\":987:1009   */\n      add\n        /* \"#utility.yul\":966:1019   */\n      tag_34\n      jump\t// in\n    tag_49:\n        /* \"#utility.yul\":956:1019   */\n      swap3\n      pop\n        /* \"#utility.yul\":912:1029   */\n      pop\n        /* \"#utility.yul\":1068:1070   */\n      0x20\n        /* \"#utility.yul\":1094:1147   */\n      tag_50\n        /* \"#utility.yul\":1139:1146   */\n      dup6\n        /* \"#utility.yul\":1130:1136   */\n      dup3\n        /* \"#utility.yul\":1119:1128   */\n      dup7\n        /* \"#utility.yul\":1115:1137   */\n      add\n        /* \"#utility.yul\":1094:1147   */\n      tag_34\n      jump\t// in\n    tag_50:\n        /* \"#utility.yul\":1084:1147   */\n      swap2\n      pop\n        /* \"#utility.yul\":1039:1157   */\n      pop\n        /* \"#utility.yul\":690:1164   */\n      swap3\n      pop\n      swap3\n      swap1\n      pop\n      jump\t// out\n        /* \"#utility.yul\":1170:1288   */\n    tag_35:\n        /* \"#utility.yul\":1257:1281   */\n      tag_52\n        /* \"#utility.yul\":1275:1280   */\n      dup2\n        /* \"#utility.yul\":1257:1281   */\n      tag_32\n      jump\t// in\n    tag_52:\n        /* \"#utility.yul\":1252:1255   */\n      dup3\n        /* \"#utility.yul\":1245:1282   */\n      mstore\n        /* \"#utility.yul\":1170:1288   */\n      pop\n      pop\n      jump\t// out\n        /* \"#utility.yul\":1294:1516   */\n    tag_12:\n        /* \"#utility.yul\":1387:1391   */\n      0x00\n        /* \"#utility.yul\":1425:1427   */\n      0x20\n        /* \"#utility.yul\":1414:1423   */\n      dup3\n        /* \"#utility.yul\":1410:1428   */\n      add\n        /* \"#utility.yul\":1402:1428   */\n      swap1\n      pop\n        /* \"#utility.yul\":1438:1509   */\n      tag_54\n        /* \"#utility.yul\":1506:1507   */\n      0x00\n        /* \"#utility.yul\":1495:1504   */\n      dup4\n        /* \"#utility.yul\":1491:1508   */\n      add\n        /* \"#utility.yul\":1482:1488   */\n      dup5\n        /* \"#utility.yul\":1438:1509   */\n      tag_35\n      jump\t// in\n    tag_54:\n        /* \"#utility.yul\":1294:1516   */\n      swap3\n      swap2\n      pop\n      pop\n      jump\t// out\n\n    auxdata: 0xa2646970667358221220106e12791e81c77e3ea1c737c4b972809da205930d500948f646decd12caeea164736f6c634300081a0033\n}\n",
				"bytecode": {
					"linkReferences": {},
					"object": "6080604052348015600e575f80fd5b506102158061001c5f395ff3fe608060405234801561000f575f80fd5b506004361061004a575f3560e01c8063771602f71461004e578063a391c15b1461007e578063b67d77c5146100ae578063c8a4ac9c146100de575b5f80fd5b61006860048036038101906100639190610179565b61010e565b60405161007591906101c6565b60405180910390f35b61009860048036038101906100939190610179565b61011b565b6040516100a591906101c6565b60405180910390f35b6100c860048036038101906100c39190610179565b610128565b6040516100d591906101c6565b60405180910390f35b6100f860048036038101906100f39190610179565b610135565b60405161010591906101c6565b60405180910390f35b5f81830160805260206080f35b5f81830460805260206080f35b5f81830360805260206080f35b5f81830260805260206080f35b5f80fd5b5f819050919050565b61015881610146565b8114610162575f80fd5b50565b5f813590506101738161014f565b92915050565b5f806040838503121561018f5761018e610142565b5b5f61019c85828601610165565b92505060206101ad85828601610165565b9150509250929050565b6101c081610146565b82525050565b5f6020820190506101d95f8301846101b7565b9291505056fea2646970667358221220106e12791e81c77e3ea1c737c4b972809da205930d500948f646decd12caeea164736f6c634300081a0033",
					"opcodes": "PUSH1 0x80 PUSH1 0x40 MSTORE CALLVALUE DUP1 ISZERO PUSH1 0xE JUMPI PUSH0 DUP1 REVERT JUMPDEST POP PUSH2 0x215 DUP1 PUSH2 0x1C PUSH0 CODECOPY PUSH0 RETURN INVALID PUSH1 0x80 PUSH1 0x40 MSTORE CALLVALUE DUP1 ISZERO PUSH2 0xF JUMPI PUSH0 DUP1 REVERT JUMPDEST POP PUSH1 0x4 CALLDATASIZE LT PUSH2 0x4A JUMPI PUSH0 CALLDATALOAD PUSH1 0xE0 SHR DUP1 PUSH4 0x771602F7 EQ PUSH2 0x4E JUMPI DUP1 PUSH4 0xA391C15B EQ PUSH2 0x7E JUMPI DUP1 PUSH4 0xB67D77C5 EQ PUSH2 0xAE JUMPI DUP1 PUSH4 0xC8A4AC9C EQ PUSH2 0xDE JUMPI JUMPDEST PUSH0 DUP1 REVERT JUMPDEST PUSH2 0x68 PUSH1 0x4 DUP1 CALLDATASIZE SUB DUP2 ADD SWAP1 PUSH2 0x63 SWAP2 SWAP1 PUSH2 0x179 JUMP JUMPDEST PUSH2 0x10E JUMP JUMPDEST PUSH1 0x40 MLOAD PUSH2 0x75 SWAP2 SWAP1 PUSH2 0x1C6 JUMP JUMPDEST PUSH1 0x40 MLOAD DUP1 SWAP2 SUB SWAP1 RETURN JUMPDEST PUSH2 0x98 PUSH1 0x4 DUP1 CALLDATASIZE SUB DUP2 ADD SWAP1 PUSH2 0x93 SWAP2 SWAP1 PUSH2 0x179 JUMP JUMPDEST PUSH2 0x11B JUMP JUMPDEST PUSH1 0x40 MLOAD PUSH2 0xA5 SWAP2 SWAP1 PUSH2 0x1C6 JUMP JUMPDEST PUSH1 0x40 MLOAD DUP1 SWAP2 SUB SWAP1 RETURN JUMPDEST PUSH2 0xC8 PUSH1 0x4 DUP1 CALLDATASIZE SUB DUP2 ADD SWAP1 PUSH2 0xC3 SWAP2 SWAP1 PUSH2 0x179 JUMP JUMPDEST PUSH2 0x128 JUMP JUMPDEST PUSH1 0x40 MLOAD PUSH2 0xD5 SWAP2 SWAP1 PUSH2 0x1C6 JUMP JUMPDEST PUSH1 0x40 MLOAD DUP1 SWAP2 SUB SWAP1 RETURN JUMPDEST PUSH2 0xF8 PUSH1 0x4 DUP1 CALLDATASIZE SUB DUP2 ADD SWAP1 PUSH2 0xF3 SWAP2 SWAP1 PUSH2 0x179 JUMP JUMPDEST PUSH2 0x135 JUMP JUMPDEST PUSH1 0x40 MLOAD PUSH2 0x105 SWAP2 SWAP1 PUSH2 0x1C6 JUMP JUMPDEST PUSH1 0x40 MLOAD DUP1 SWAP2 SUB SWAP1 RETURN JUMPDEST PUSH0 DUP2 DUP4 ADD PUSH1 0x80 MSTORE PUSH1 0x20 PUSH1 0x80 RETURN JUMPDEST PUSH0 DUP2 DUP4 DIV PUSH1 0x80 MSTORE PUSH1 0x20 PUSH1 0x80 RETURN JUMPDEST PUSH0 DUP2 DUP4 SUB PUSH1 0x80 MSTORE PUSH1 0x20 PUSH1 0x80 RETURN JUMPDEST PUSH0 DUP2 DUP4 MUL PUSH1 0x80 MSTORE PUSH1 0x20 PUSH1 0x80 RETURN JUMPDEST PUSH0 DUP1 REVERT JUMPDEST PUSH0 DUP2 SWAP1 POP SWAP2 SWAP1 POP JUMP JUMPDEST PUSH2 0x158 DUP2 PUSH2 0x146 JUMP JUMPDEST DUP2 EQ PUSH2 0x162 JUMPI PUSH0 DUP1 REVERT JUMPDEST POP JUMP JUMPDEST PUSH0 DUP2 CALLDATALOAD SWAP1 POP PUSH2 0x173 DUP2 PUSH2 0x14F JUMP JUMPDEST SWAP3 SWAP2 POP POP JUMP JUMPDEST PUSH0 DUP1 PUSH1 0x40 DUP4 DUP6 SUB SLT ISZERO PUSH2 0x18F JUMPI PUSH2 0x18E PUSH2 0x142 JUMP JUMPDEST JUMPDEST PUSH0 PUSH2 0x19C DUP6 DUP3 DUP7 ADD PUSH2 0x165 JUMP JUMPDEST SWAP3 POP POP PUSH1 0x20 PUSH2 0x1AD DUP6 DUP3 DUP7 ADD PUSH2 0x165 JUMP JUMPDEST SWAP2 POP POP SWAP3 POP SWAP3 SWAP1 POP JUMP JUMPDEST PUSH2 0x1C0 DUP2 PUSH2 0x146 JUMP JUMPDEST DUP3 MSTORE POP POP JUMP JUMPDEST PUSH0 PUSH1 0x20 DUP3 ADD SWAP1 POP PUSH2 0x1D9 PUSH0 DUP4 ADD DUP5 PUSH2 0x1B7 JUMP JUMPDEST SWAP3 SWAP2 POP POP JUMP INVALID LOG2 PUSH5 0x6970667358 0x22 SLT KECCAK256 LT PUSH15 0x12791E81C77E3EA1C737C4B972809D LOG2 SDIV SWAP4 0xD POP MULMOD BASEFEE 0xF6 CHAINID 0xDE 0xCD SLT 0xCA 0xEE LOG1 PUSH5 0x736F6C6343 STOP ADDMOD BYTE STOP CALLER "
				},
				"gasEstimates": {
					"creation": {
						"codeDepositCost": "106600",
						"executionCost": "151",
						"totalCost": "106751"
					},
					"external": {
						"add(uint256,uint256)": "infinite",
						"div(uint256,uint256)": "infinite",
						"mul(uint256,uint256)": "infinite",
						"sub(uint256,uint256)": "infinite"
					}
				},
				"methodIdentifiers": {
					"add(uint256,uint256)": "771602f7",
					"div(uint256,uint256)": "a391c15b",
					"mul(uint256,uint256)": "c8a4ac9c",
					"sub(uint256,uint256)": "b67d77c5"
				}
			},
			"storageLayout": {
				"storage": [],
				"types": null
			},
			"userdoc": {
				"kind": "user",
				"methods": {},
				"version": 1
			}
		}
	}
}