{
	"solidity/soidity91~100.sol": {
		"Q93": {
			"abi": [
				{
					"inputs": [
						{
							"internalType": "address",
							"name": "_addr",
							"type": "address"
						},
						{
							"internalType": "bytes4",
							"name": "_methodId",
							"type": "bytes4"
						},
						{
							"internalType": "uint256",
							"name": "_n",
							"type": "uint256"
						},
						{
							"internalType": "address",
							"name": "_a",
							"type": "address"
						}
					],
					"name": "useCall",
					"outputs": [],
					"stateMutability": "nonpayable",
					"type": "function"
				}
			],
			"devdoc": {
				"kind": "dev",
				"methods": {},
				"version": 1
			},
			"evm": {
				"assembly": "    /* \"solidity/soidity91~100.sol\":1080:1550  contract Q93 {... */\n  mstore(0x40, 0x80)\n  callvalue\n  dup1\n  iszero\n  tag_1\n  jumpi\n  0x00\n  dup1\n  revert\ntag_1:\n  pop\n  dataSize(sub_0)\n  dup1\n  dataOffset(sub_0)\n  0x00\n  codecopy\n  0x00\n  return\nstop\n\nsub_0: assembly {\n        /* \"solidity/soidity91~100.sol\":1080:1550  contract Q93 {... */\n      mstore(0x40, 0x80)\n      callvalue\n      dup1\n      iszero\n      tag_1\n      jumpi\n      0x00\n      dup1\n      revert\n    tag_1:\n      pop\n      jumpi(tag_2, lt(calldatasize, 0x04))\n      shr(0xe0, calldataload(0x00))\n      dup1\n      0x3108f46c\n      eq\n      tag_3\n      jumpi\n    tag_2:\n      0x00\n      dup1\n      revert\n        /* \"solidity/soidity91~100.sol\":1358:1548  function useCall(address _addr, bytes4 _methodId, uint _n, address _a) public {... */\n    tag_3:\n      tag_4\n      0x04\n      dup1\n      calldatasize\n      sub\n      dup2\n      add\n      swap1\n      tag_5\n      swap2\n      swap1\n      tag_6\n      jump\t// in\n    tag_5:\n      tag_7\n      jump\t// in\n    tag_4:\n      stop\n    tag_7:\n        /* \"solidity/soidity91~100.sol\":1447:1459  bool success */\n      0x00\n        /* \"solidity/soidity91~100.sol\":1462:1467  _addr */\n      dup5\n        /* \"solidity/soidity91~100.sol\":1462:1472  _addr.call */\n      0xffffffffffffffffffffffffffffffffffffffff\n      and\n        /* \"solidity/soidity91~100.sol\":1496:1505  _methodId */\n      dup5\n        /* \"solidity/soidity91~100.sol\":1507:1509  _n */\n      dup5\n        /* \"solidity/soidity91~100.sol\":1511:1513  _a */\n      dup5\n        /* \"solidity/soidity91~100.sol\":1473:1514  abi.encodeWithSelector(_methodId, _n, _a) */\n      add(0x24, mload(0x40))\n      tag_9\n      swap3\n      swap2\n      swap1\n      tag_10\n      jump\t// in\n    tag_9:\n      mload(0x40)\n      0x20\n      dup2\n      dup4\n      sub\n      sub\n      dup2\n      mstore\n      swap1\n      0x40\n      mstore\n      swap1\n      not(0xffffffffffffffffffffffffffffffffffffffffffffffffffffffff)\n      and\n      0x20\n      dup3\n      add\n      dup1\n      mload\n      0xffffffffffffffffffffffffffffffffffffffffffffffffffffffff\n      dup4\n      dup2\n      dup4\n      and\n      or\n      dup4\n      mstore\n      pop\n      pop\n      pop\n      pop\n        /* \"solidity/soidity91~100.sol\":1462:1515  _addr.call(abi.encodeWithSelector(_methodId, _n, _a)) */\n      mload(0x40)\n      tag_11\n      swap2\n      swap1\n      tag_12\n      jump\t// in\n    tag_11:\n      0x00\n      mload(0x40)\n      dup1\n      dup4\n      sub\n      dup2\n      0x00\n      dup7\n      gas\n      call\n      swap2\n      pop\n      pop\n      returndatasize\n      dup1\n      0x00\n      dup2\n      eq\n      tag_15\n      jumpi\n      mload(0x40)\n      swap2\n      pop\n      and(add(returndatasize, 0x3f), not(0x1f))\n      dup3\n      add\n      0x40\n      mstore\n      returndatasize\n      dup3\n      mstore\n      returndatasize\n      0x00\n      0x20\n      dup5\n      add\n      returndatacopy\n      jump(tag_14)\n    tag_15:\n      0x60\n      swap2\n      pop\n    tag_14:\n      pop\n        /* \"solidity/soidity91~100.sol\":1446:1515  (bool success,)=_addr.call(abi.encodeWithSelector(_methodId, _n, _a)) */\n      pop\n      swap1\n      pop\n        /* \"solidity/soidity91~100.sol\":1533:1540  success */\n      dup1\n        /* \"solidity/soidity91~100.sol\":1525:1541  require(success) */\n      tag_16\n      jumpi\n      0x00\n      dup1\n      revert\n    tag_16:\n        /* \"solidity/soidity91~100.sol\":1436:1548  {... */\n      pop\n        /* \"solidity/soidity91~100.sol\":1358:1548  function useCall(address _addr, bytes4 _methodId, uint _n, address _a) public {... */\n      pop\n      pop\n      pop\n      pop\n      jump\t// out\n        /* \"#utility.yul\":88:205   */\n    tag_18:\n        /* \"#utility.yul\":197:198   */\n      0x00\n        /* \"#utility.yul\":194:195   */\n      dup1\n        /* \"#utility.yul\":187:199   */\n      revert\n        /* \"#utility.yul\":334:460   */\n    tag_20:\n        /* \"#utility.yul\":371:378   */\n      0x00\n        /* \"#utility.yul\":411:453   */\n      0xffffffffffffffffffffffffffffffffffffffff\n        /* \"#utility.yul\":404:409   */\n      dup3\n        /* \"#utility.yul\":400:454   */\n      and\n        /* \"#utility.yul\":389:454   */\n      swap1\n      pop\n        /* \"#utility.yul\":334:460   */\n      swap2\n      swap1\n      pop\n      jump\t// out\n        /* \"#utility.yul\":466:562   */\n    tag_21:\n        /* \"#utility.yul\":503:510   */\n      0x00\n        /* \"#utility.yul\":532:556   */\n      tag_42\n        /* \"#utility.yul\":550:555   */\n      dup3\n        /* \"#utility.yul\":532:556   */\n      tag_20\n      jump\t// in\n    tag_42:\n        /* \"#utility.yul\":521:556   */\n      swap1\n      pop\n        /* \"#utility.yul\":466:562   */\n      swap2\n      swap1\n      pop\n      jump\t// out\n        /* \"#utility.yul\":568:690   */\n    tag_22:\n        /* \"#utility.yul\":641:665   */\n      tag_44\n        /* \"#utility.yul\":659:664   */\n      dup2\n        /* \"#utility.yul\":641:665   */\n      tag_21\n      jump\t// in\n    tag_44:\n        /* \"#utility.yul\":634:639   */\n      dup2\n        /* \"#utility.yul\":631:666   */\n      eq\n        /* \"#utility.yul\":621:684   */\n      tag_45\n      jumpi\n        /* \"#utility.yul\":680:681   */\n      0x00\n        /* \"#utility.yul\":677:678   */\n      dup1\n        /* \"#utility.yul\":670:682   */\n      revert\n        /* \"#utility.yul\":621:684   */\n    tag_45:\n        /* \"#utility.yul\":568:690   */\n      pop\n      jump\t// out\n        /* \"#utility.yul\":696:835   */\n    tag_23:\n        /* \"#utility.yul\":742:747   */\n      0x00\n        /* \"#utility.yul\":780:786   */\n      dup2\n        /* \"#utility.yul\":767:787   */\n      calldataload\n        /* \"#utility.yul\":758:787   */\n      swap1\n      pop\n        /* \"#utility.yul\":796:829   */\n      tag_47\n        /* \"#utility.yul\":823:828   */\n      dup2\n        /* \"#utility.yul\":796:829   */\n      tag_22\n      jump\t// in\n    tag_47:\n        /* \"#utility.yul\":696:835   */\n      swap3\n      swap2\n      pop\n      pop\n      jump\t// out\n        /* \"#utility.yul\":841:990   */\n    tag_24:\n        /* \"#utility.yul\":877:884   */\n      0x00\n        /* \"#utility.yul\":917:983   */\n      0xffffffff00000000000000000000000000000000000000000000000000000000\n        /* \"#utility.yul\":910:915   */\n      dup3\n        /* \"#utility.yul\":906:984   */\n      and\n        /* \"#utility.yul\":895:984   */\n      swap1\n      pop\n        /* \"#utility.yul\":841:990   */\n      swap2\n      swap1\n      pop\n      jump\t// out\n        /* \"#utility.yul\":996:1116   */\n    tag_25:\n        /* \"#utility.yul\":1068:1091   */\n      tag_50\n        /* \"#utility.yul\":1085:1090   */\n      dup2\n        /* \"#utility.yul\":1068:1091   */\n      tag_24\n      jump\t// in\n    tag_50:\n        /* \"#utility.yul\":1061:1066   */\n      dup2\n        /* \"#utility.yul\":1058:1092   */\n      eq\n        /* \"#utility.yul\":1048:1110   */\n      tag_51\n      jumpi\n        /* \"#utility.yul\":1106:1107   */\n      0x00\n        /* \"#utility.yul\":1103:1104   */\n      dup1\n        /* \"#utility.yul\":1096:1108   */\n      revert\n        /* \"#utility.yul\":1048:1110   */\n    tag_51:\n        /* \"#utility.yul\":996:1116   */\n      pop\n      jump\t// out\n        /* \"#utility.yul\":1122:1259   */\n    tag_26:\n        /* \"#utility.yul\":1167:1172   */\n      0x00\n        /* \"#utility.yul\":1205:1211   */\n      dup2\n        /* \"#utility.yul\":1192:1212   */\n      calldataload\n        /* \"#utility.yul\":1183:1212   */\n      swap1\n      pop\n        /* \"#utility.yul\":1221:1253   */\n      tag_53\n        /* \"#utility.yul\":1247:1252   */\n      dup2\n        /* \"#utility.yul\":1221:1253   */\n      tag_25\n      jump\t// in\n    tag_53:\n        /* \"#utility.yul\":1122:1259   */\n      swap3\n      swap2\n      pop\n      pop\n      jump\t// out\n        /* \"#utility.yul\":1265:1342   */\n    tag_27:\n        /* \"#utility.yul\":1302:1309   */\n      0x00\n        /* \"#utility.yul\":1331:1336   */\n      dup2\n        /* \"#utility.yul\":1320:1336   */\n      swap1\n      pop\n        /* \"#utility.yul\":1265:1342   */\n      swap2\n      swap1\n      pop\n      jump\t// out\n        /* \"#utility.yul\":1348:1470   */\n    tag_28:\n        /* \"#utility.yul\":1421:1445   */\n      tag_56\n        /* \"#utility.yul\":1439:1444   */\n      dup2\n        /* \"#utility.yul\":1421:1445   */\n      tag_27\n      jump\t// in\n    tag_56:\n        /* \"#utility.yul\":1414:1419   */\n      dup2\n        /* \"#utility.yul\":1411:1446   */\n      eq\n        /* \"#utility.yul\":1401:1464   */\n      tag_57\n      jumpi\n        /* \"#utility.yul\":1460:1461   */\n      0x00\n        /* \"#utility.yul\":1457:1458   */\n      dup1\n        /* \"#utility.yul\":1450:1462   */\n      revert\n        /* \"#utility.yul\":1401:1464   */\n    tag_57:\n        /* \"#utility.yul\":1348:1470   */\n      pop\n      jump\t// out\n        /* \"#utility.yul\":1476:1615   */\n    tag_29:\n        /* \"#utility.yul\":1522:1527   */\n      0x00\n        /* \"#utility.yul\":1560:1566   */\n      dup2\n        /* \"#utility.yul\":1547:1567   */\n      calldataload\n        /* \"#utility.yul\":1538:1567   */\n      swap1\n      pop\n        /* \"#utility.yul\":1576:1609   */\n      tag_59\n        /* \"#utility.yul\":1603:1608   */\n      dup2\n        /* \"#utility.yul\":1576:1609   */\n      tag_28\n      jump\t// in\n    tag_59:\n        /* \"#utility.yul\":1476:1615   */\n      swap3\n      swap2\n      pop\n      pop\n      jump\t// out\n        /* \"#utility.yul\":1621:2384   */\n    tag_6:\n        /* \"#utility.yul\":1706:1712   */\n      0x00\n        /* \"#utility.yul\":1714:1720   */\n      dup1\n        /* \"#utility.yul\":1722:1728   */\n      0x00\n        /* \"#utility.yul\":1730:1736   */\n      dup1\n        /* \"#utility.yul\":1779:1782   */\n      0x80\n        /* \"#utility.yul\":1767:1776   */\n      dup6\n        /* \"#utility.yul\":1758:1765   */\n      dup8\n        /* \"#utility.yul\":1754:1777   */\n      sub\n        /* \"#utility.yul\":1750:1783   */\n      slt\n        /* \"#utility.yul\":1747:1867   */\n      iszero\n      tag_61\n      jumpi\n        /* \"#utility.yul\":1786:1865   */\n      tag_62\n      tag_18\n      jump\t// in\n    tag_62:\n        /* \"#utility.yul\":1747:1867   */\n    tag_61:\n        /* \"#utility.yul\":1906:1907   */\n      0x00\n        /* \"#utility.yul\":1931:1984   */\n      tag_63\n        /* \"#utility.yul\":1976:1983   */\n      dup8\n        /* \"#utility.yul\":1967:1973   */\n      dup3\n        /* \"#utility.yul\":1956:1965   */\n      dup9\n        /* \"#utility.yul\":1952:1974   */\n      add\n        /* \"#utility.yul\":1931:1984   */\n      tag_23\n      jump\t// in\n    tag_63:\n        /* \"#utility.yul\":1921:1984   */\n      swap5\n      pop\n        /* \"#utility.yul\":1877:1994   */\n      pop\n        /* \"#utility.yul\":2033:2035   */\n      0x20\n        /* \"#utility.yul\":2059:2111   */\n      tag_64\n        /* \"#utility.yul\":2103:2110   */\n      dup8\n        /* \"#utility.yul\":2094:2100   */\n      dup3\n        /* \"#utility.yul\":2083:2092   */\n      dup9\n        /* \"#utility.yul\":2079:2101   */\n      add\n        /* \"#utility.yul\":2059:2111   */\n      tag_26\n      jump\t// in\n    tag_64:\n        /* \"#utility.yul\":2049:2111   */\n      swap4\n      pop\n        /* \"#utility.yul\":2004:2121   */\n      pop\n        /* \"#utility.yul\":2160:2162   */\n      0x40\n        /* \"#utility.yul\":2186:2239   */\n      tag_65\n        /* \"#utility.yul\":2231:2238   */\n      dup8\n        /* \"#utility.yul\":2222:2228   */\n      dup3\n        /* \"#utility.yul\":2211:2220   */\n      dup9\n        /* \"#utility.yul\":2207:2229   */\n      add\n        /* \"#utility.yul\":2186:2239   */\n      tag_29\n      jump\t// in\n    tag_65:\n        /* \"#utility.yul\":2176:2239   */\n      swap3\n      pop\n        /* \"#utility.yul\":2131:2249   */\n      pop\n        /* \"#utility.yul\":2288:2290   */\n      0x60\n        /* \"#utility.yul\":2314:2367   */\n      tag_66\n        /* \"#utility.yul\":2359:2366   */\n      dup8\n        /* \"#utility.yul\":2350:2356   */\n      dup3\n        /* \"#utility.yul\":2339:2348   */\n      dup9\n        /* \"#utility.yul\":2335:2357   */\n      add\n        /* \"#utility.yul\":2314:2367   */\n      tag_23\n      jump\t// in\n    tag_66:\n        /* \"#utility.yul\":2304:2367   */\n      swap2\n      pop\n        /* \"#utility.yul\":2259:2377   */\n      pop\n        /* \"#utility.yul\":1621:2384   */\n      swap3\n      swap6\n      swap2\n      swap5\n      pop\n      swap3\n      pop\n      jump\t// out\n        /* \"#utility.yul\":2390:2508   */\n    tag_30:\n        /* \"#utility.yul\":2477:2501   */\n      tag_68\n        /* \"#utility.yul\":2495:2500   */\n      dup2\n        /* \"#utility.yul\":2477:2501   */\n      tag_27\n      jump\t// in\n    tag_68:\n        /* \"#utility.yul\":2472:2475   */\n      dup3\n        /* \"#utility.yul\":2465:2502   */\n      mstore\n        /* \"#utility.yul\":2390:2508   */\n      pop\n      pop\n      jump\t// out\n        /* \"#utility.yul\":2514:2632   */\n    tag_31:\n        /* \"#utility.yul\":2601:2625   */\n      tag_70\n        /* \"#utility.yul\":2619:2624   */\n      dup2\n        /* \"#utility.yul\":2601:2625   */\n      tag_21\n      jump\t// in\n    tag_70:\n        /* \"#utility.yul\":2596:2599   */\n      dup3\n        /* \"#utility.yul\":2589:2626   */\n      mstore\n        /* \"#utility.yul\":2514:2632   */\n      pop\n      pop\n      jump\t// out\n        /* \"#utility.yul\":2638:2970   */\n    tag_10:\n        /* \"#utility.yul\":2759:2763   */\n      0x00\n        /* \"#utility.yul\":2797:2799   */\n      0x40\n        /* \"#utility.yul\":2786:2795   */\n      dup3\n        /* \"#utility.yul\":2782:2800   */\n      add\n        /* \"#utility.yul\":2774:2800   */\n      swap1\n      pop\n        /* \"#utility.yul\":2810:2881   */\n      tag_72\n        /* \"#utility.yul\":2878:2879   */\n      0x00\n        /* \"#utility.yul\":2867:2876   */\n      dup4\n        /* \"#utility.yul\":2863:2880   */\n      add\n        /* \"#utility.yul\":2854:2860   */\n      dup6\n        /* \"#utility.yul\":2810:2881   */\n      tag_30\n      jump\t// in\n    tag_72:\n        /* \"#utility.yul\":2891:2963   */\n      tag_73\n        /* \"#utility.yul\":2959:2961   */\n      0x20\n        /* \"#utility.yul\":2948:2957   */\n      dup4\n        /* \"#utility.yul\":2944:2962   */\n      add\n        /* \"#utility.yul\":2935:2941   */\n      dup5\n        /* \"#utility.yul\":2891:2963   */\n      tag_31\n      jump\t// in\n    tag_73:\n        /* \"#utility.yul\":2638:2970   */\n      swap4\n      swap3\n      pop\n      pop\n      pop\n      jump\t// out\n        /* \"#utility.yul\":2976:3074   */\n    tag_32:\n        /* \"#utility.yul\":3027:3033   */\n      0x00\n        /* \"#utility.yul\":3061:3066   */\n      dup2\n        /* \"#utility.yul\":3055:3067   */\n      mload\n        /* \"#utility.yul\":3045:3067   */\n      swap1\n      pop\n        /* \"#utility.yul\":2976:3074   */\n      swap2\n      swap1\n      pop\n      jump\t// out\n        /* \"#utility.yul\":3080:3227   */\n    tag_33:\n        /* \"#utility.yul\":3181:3192   */\n      0x00\n        /* \"#utility.yul\":3218:3221   */\n      dup2\n        /* \"#utility.yul\":3203:3221   */\n      swap1\n      pop\n        /* \"#utility.yul\":3080:3227   */\n      swap3\n      swap2\n      pop\n      pop\n      jump\t// out\n        /* \"#utility.yul\":3233:3372   */\n    tag_34:\n        /* \"#utility.yul\":3322:3328   */\n      dup3\n        /* \"#utility.yul\":3317:3320   */\n      dup2\n        /* \"#utility.yul\":3312:3315   */\n      dup4\n        /* \"#utility.yul\":3306:3329   */\n      mcopy\n        /* \"#utility.yul\":3363:3364   */\n      0x00\n        /* \"#utility.yul\":3354:3360   */\n      dup4\n        /* \"#utility.yul\":3349:3352   */\n      dup4\n        /* \"#utility.yul\":3345:3361   */\n      add\n        /* \"#utility.yul\":3338:3365   */\n      mstore\n        /* \"#utility.yul\":3233:3372   */\n      pop\n      pop\n      pop\n      jump\t// out\n        /* \"#utility.yul\":3378:3764   */\n    tag_35:\n        /* \"#utility.yul\":3482:3485   */\n      0x00\n        /* \"#utility.yul\":3510:3548   */\n      tag_78\n        /* \"#utility.yul\":3542:3547   */\n      dup3\n        /* \"#utility.yul\":3510:3548   */\n      tag_32\n      jump\t// in\n    tag_78:\n        /* \"#utility.yul\":3564:3652   */\n      tag_79\n        /* \"#utility.yul\":3645:3651   */\n      dup2\n        /* \"#utility.yul\":3640:3643   */\n      dup6\n        /* \"#utility.yul\":3564:3652   */\n      tag_33\n      jump\t// in\n    tag_79:\n        /* \"#utility.yul\":3557:3652   */\n      swap4\n      pop\n        /* \"#utility.yul\":3661:3726   */\n      tag_80\n        /* \"#utility.yul\":3719:3725   */\n      dup2\n        /* \"#utility.yul\":3714:3717   */\n      dup6\n        /* \"#utility.yul\":3707:3711   */\n      0x20\n        /* \"#utility.yul\":3700:3705   */\n      dup7\n        /* \"#utility.yul\":3696:3712   */\n      add\n        /* \"#utility.yul\":3661:3726   */\n      tag_34\n      jump\t// in\n    tag_80:\n        /* \"#utility.yul\":3751:3757   */\n      dup1\n        /* \"#utility.yul\":3746:3749   */\n      dup5\n        /* \"#utility.yul\":3742:3758   */\n      add\n        /* \"#utility.yul\":3735:3758   */\n      swap2\n      pop\n        /* \"#utility.yul\":3486:3764   */\n      pop\n        /* \"#utility.yul\":3378:3764   */\n      swap3\n      swap2\n      pop\n      pop\n      jump\t// out\n        /* \"#utility.yul\":3770:4041   */\n    tag_12:\n        /* \"#utility.yul\":3900:3903   */\n      0x00\n        /* \"#utility.yul\":3922:4015   */\n      tag_82\n        /* \"#utility.yul\":4011:4014   */\n      dup3\n        /* \"#utility.yul\":4002:4008   */\n      dup5\n        /* \"#utility.yul\":3922:4015   */\n      tag_35\n      jump\t// in\n    tag_82:\n        /* \"#utility.yul\":3915:4015   */\n      swap2\n      pop\n        /* \"#utility.yul\":4032:4035   */\n      dup2\n        /* \"#utility.yul\":4025:4035   */\n      swap1\n      pop\n        /* \"#utility.yul\":3770:4041   */\n      swap3\n      swap2\n      pop\n      pop\n      jump\t// out\n\n    auxdata: 0xa264697066735822122065ef150838696670b8c0a4c65cb53785c66f76df3a460031154ca891916b54f664736f6c634300081a0033\n}\n",
				"bytecode": {
					"linkReferences": {},
					"object": "6080604052348015600e575f80fd5b5061035e8061001c5f395ff3fe608060405234801561000f575f80fd5b5060043610610029575f3560e01c80633108f46c1461002d575b5f80fd5b61004760048036038101906100429190610217565b610049565b005b5f8473ffffffffffffffffffffffffffffffffffffffff16848484604051602401610075929190610299565b604051602081830303815290604052907bffffffffffffffffffffffffffffffffffffffffffffffffffffffff19166020820180517bffffffffffffffffffffffffffffffffffffffffffffffffffffffff83818316178352505050506040516100df9190610312565b5f604051808303815f865af19150503d805f8114610118576040519150601f19603f3d011682016040523d82523d5f602084013e61011d565b606091505b505090508061012a575f80fd5b5050505050565b5f80fd5b5f73ffffffffffffffffffffffffffffffffffffffff82169050919050565b5f61015e82610135565b9050919050565b61016e81610154565b8114610178575f80fd5b50565b5f8135905061018981610165565b92915050565b5f7fffffffff0000000000000000000000000000000000000000000000000000000082169050919050565b6101c38161018f565b81146101cd575f80fd5b50565b5f813590506101de816101ba565b92915050565b5f819050919050565b6101f6816101e4565b8114610200575f80fd5b50565b5f81359050610211816101ed565b92915050565b5f805f806080858703121561022f5761022e610131565b5b5f61023c8782880161017b565b945050602061024d878288016101d0565b935050604061025e87828801610203565b925050606061026f8782880161017b565b91505092959194509250565b610284816101e4565b82525050565b61029381610154565b82525050565b5f6040820190506102ac5f83018561027b565b6102b9602083018461028a565b9392505050565b5f81519050919050565b5f81905092915050565b8281835e5f83830152505050565b5f6102ec826102c0565b6102f681856102ca565b93506103068185602086016102d4565b80840191505092915050565b5f61031d82846102e2565b91508190509291505056fea264697066735822122065ef150838696670b8c0a4c65cb53785c66f76df3a460031154ca891916b54f664736f6c634300081a0033",
					"opcodes": "PUSH1 0x80 PUSH1 0x40 MSTORE CALLVALUE DUP1 ISZERO PUSH1 0xE JUMPI PUSH0 DUP1 REVERT JUMPDEST POP PUSH2 0x35E DUP1 PUSH2 0x1C PUSH0 CODECOPY PUSH0 RETURN INVALID PUSH1 0x80 PUSH1 0x40 MSTORE CALLVALUE DUP1 ISZERO PUSH2 0xF JUMPI PUSH0 DUP1 REVERT JUMPDEST POP PUSH1 0x4 CALLDATASIZE LT PUSH2 0x29 JUMPI PUSH0 CALLDATALOAD PUSH1 0xE0 SHR DUP1 PUSH4 0x3108F46C EQ PUSH2 0x2D JUMPI JUMPDEST PUSH0 DUP1 REVERT JUMPDEST PUSH2 0x47 PUSH1 0x4 DUP1 CALLDATASIZE SUB DUP2 ADD SWAP1 PUSH2 0x42 SWAP2 SWAP1 PUSH2 0x217 JUMP JUMPDEST PUSH2 0x49 JUMP JUMPDEST STOP JUMPDEST PUSH0 DUP5 PUSH20 0xFFFFFFFFFFFFFFFFFFFFFFFFFFFFFFFFFFFFFFFF AND DUP5 DUP5 DUP5 PUSH1 0x40 MLOAD PUSH1 0x24 ADD PUSH2 0x75 SWAP3 SWAP2 SWAP1 PUSH2 0x299 JUMP JUMPDEST PUSH1 0x40 MLOAD PUSH1 0x20 DUP2 DUP4 SUB SUB DUP2 MSTORE SWAP1 PUSH1 0x40 MSTORE SWAP1 PUSH28 0xFFFFFFFFFFFFFFFFFFFFFFFFFFFFFFFFFFFFFFFFFFFFFFFFFFFFFFFF NOT AND PUSH1 0x20 DUP3 ADD DUP1 MLOAD PUSH28 0xFFFFFFFFFFFFFFFFFFFFFFFFFFFFFFFFFFFFFFFFFFFFFFFFFFFFFFFF DUP4 DUP2 DUP4 AND OR DUP4 MSTORE POP POP POP POP PUSH1 0x40 MLOAD PUSH2 0xDF SWAP2 SWAP1 PUSH2 0x312 JUMP JUMPDEST PUSH0 PUSH1 0x40 MLOAD DUP1 DUP4 SUB DUP2 PUSH0 DUP7 GAS CALL SWAP2 POP POP RETURNDATASIZE DUP1 PUSH0 DUP2 EQ PUSH2 0x118 JUMPI PUSH1 0x40 MLOAD SWAP2 POP PUSH1 0x1F NOT PUSH1 0x3F RETURNDATASIZE ADD AND DUP3 ADD PUSH1 0x40 MSTORE RETURNDATASIZE DUP3 MSTORE RETURNDATASIZE PUSH0 PUSH1 0x20 DUP5 ADD RETURNDATACOPY PUSH2 0x11D JUMP JUMPDEST PUSH1 0x60 SWAP2 POP JUMPDEST POP POP SWAP1 POP DUP1 PUSH2 0x12A JUMPI PUSH0 DUP1 REVERT JUMPDEST POP POP POP POP POP JUMP JUMPDEST PUSH0 DUP1 REVERT JUMPDEST PUSH0 PUSH20 0xFFFFFFFFFFFFFFFFFFFFFFFFFFFFFFFFFFFFFFFF DUP3 AND SWAP1 POP SWAP2 SWAP1 POP JUMP JUMPDEST PUSH0 PUSH2 0x15E DUP3 PUSH2 0x135 JUMP JUMPDEST SWAP1 POP SWAP2 SWAP1 POP JUMP JUMPDEST PUSH2 0x16E DUP2 PUSH2 0x154 JUMP JUMPDEST DUP2 EQ PUSH2 0x178 JUMPI PUSH0 DUP1 REVERT JUMPDEST POP JUMP JUMPDEST PUSH0 DUP2 CALLDATALOAD SWAP1 POP PUSH2 0x189 DUP2 PUSH2 0x165 JUMP JUMPDEST SWAP3 SWAP2 POP POP JUMP JUMPDEST PUSH0 PUSH32 0xFFFFFFFF00000000000000000000000000000000000000000000000000000000 DUP3 AND SWAP1 POP SWAP2 SWAP1 POP JUMP JUMPDEST PUSH2 0x1C3 DUP2 PUSH2 0x18F JUMP JUMPDEST DUP2 EQ PUSH2 0x1CD JUMPI PUSH0 DUP1 REVERT JUMPDEST POP JUMP JUMPDEST PUSH0 DUP2 CALLDATALOAD SWAP1 POP PUSH2 0x1DE DUP2 PUSH2 0x1BA JUMP JUMPDEST SWAP3 SWAP2 POP POP JUMP JUMPDEST PUSH0 DUP2 SWAP1 POP SWAP2 SWAP1 POP JUMP JUMPDEST PUSH2 0x1F6 DUP2 PUSH2 0x1E4 JUMP JUMPDEST DUP2 EQ PUSH2 0x200 JUMPI PUSH0 DUP1 REVERT JUMPDEST POP JUMP JUMPDEST PUSH0 DUP2 CALLDATALOAD SWAP1 POP PUSH2 0x211 DUP2 PUSH2 0x1ED JUMP JUMPDEST SWAP3 SWAP2 POP POP JUMP JUMPDEST PUSH0 DUP1 PUSH0 DUP1 PUSH1 0x80 DUP6 DUP8 SUB SLT ISZERO PUSH2 0x22F JUMPI PUSH2 0x22E PUSH2 0x131 JUMP JUMPDEST JUMPDEST PUSH0 PUSH2 0x23C DUP8 DUP3 DUP9 ADD PUSH2 0x17B JUMP JUMPDEST SWAP5 POP POP PUSH1 0x20 PUSH2 0x24D DUP8 DUP3 DUP9 ADD PUSH2 0x1D0 JUMP JUMPDEST SWAP4 POP POP PUSH1 0x40 PUSH2 0x25E DUP8 DUP3 DUP9 ADD PUSH2 0x203 JUMP JUMPDEST SWAP3 POP POP PUSH1 0x60 PUSH2 0x26F DUP8 DUP3 DUP9 ADD PUSH2 0x17B JUMP JUMPDEST SWAP2 POP POP SWAP3 SWAP6 SWAP2 SWAP5 POP SWAP3 POP JUMP JUMPDEST PUSH2 0x284 DUP2 PUSH2 0x1E4 JUMP JUMPDEST DUP3 MSTORE POP POP JUMP JUMPDEST PUSH2 0x293 DUP2 PUSH2 0x154 JUMP JUMPDEST DUP3 MSTORE POP POP JUMP JUMPDEST PUSH0 PUSH1 0x40 DUP3 ADD SWAP1 POP PUSH2 0x2AC PUSH0 DUP4 ADD DUP6 PUSH2 0x27B JUMP JUMPDEST PUSH2 0x2B9 PUSH1 0x20 DUP4 ADD DUP5 PUSH2 0x28A JUMP JUMPDEST SWAP4 SWAP3 POP POP POP JUMP JUMPDEST PUSH0 DUP2 MLOAD SWAP1 POP SWAP2 SWAP1 POP JUMP JUMPDEST PUSH0 DUP2 SWAP1 POP SWAP3 SWAP2 POP POP JUMP JUMPDEST DUP3 DUP2 DUP4 MCOPY PUSH0 DUP4 DUP4 ADD MSTORE POP POP POP JUMP JUMPDEST PUSH0 PUSH2 0x2EC DUP3 PUSH2 0x2C0 JUMP JUMPDEST PUSH2 0x2F6 DUP2 DUP6 PUSH2 0x2CA JUMP JUMPDEST SWAP4 POP PUSH2 0x306 DUP2 DUP6 PUSH1 0x20 DUP7 ADD PUSH2 0x2D4 JUMP JUMPDEST DUP1 DUP5 ADD SWAP2 POP POP SWAP3 SWAP2 POP POP JUMP JUMPDEST PUSH0 PUSH2 0x31D DUP3 DUP5 PUSH2 0x2E2 JUMP JUMPDEST SWAP2 POP DUP2 SWAP1 POP SWAP3 SWAP2 POP POP JUMP INVALID LOG2 PUSH5 0x6970667358 0x22 SLT KECCAK256 PUSH6 0xEF1508386966 PUSH17 0xB8C0A4C65CB53785C66F76DF3A46003115 0x4C 0xA8 SWAP2 SWAP2 PUSH12 0x54F664736F6C634300081A00 CALLER "
				},
				"gasEstimates": {
					"creation": {
						"codeDepositCost": "172400",
						"executionCost": "212",
						"totalCost": "172612"
					},
					"external": {
						"useCall(address,bytes4,uint256,address)": "infinite"
					}
				},
				"methodIdentifiers": {
					"useCall(address,bytes4,uint256,address)": "3108f46c"
				}
			},
			"storageLayout": {
				"storage": [],
				"types": null
			},
			"userdoc": {
				"kind": "user",
				"methods": {},
				"version": 1
			}
		}
	}
}