{
	"solidity/soidity91~100.sol": {
		"Q97": {
			"abi": [
				{
					"inputs": [],
					"name": "getNumbers",
					"outputs": [
						{
							"internalType": "uint256[]",
							"name": "",
							"type": "uint256[]"
						}
					],
					"stateMutability": "view",
					"type": "function"
				},
				{
					"inputs": [
						{
							"internalType": "uint256",
							"name": "",
							"type": "uint256"
						}
					],
					"name": "numbers",
					"outputs": [
						{
							"internalType": "uint256",
							"name": "",
							"type": "uint256"
						}
					],
					"stateMutability": "view",
					"type": "function"
				},
				{
					"inputs": [],
					"name": "pop",
					"outputs": [],
					"stateMutability": "nonpayable",
					"type": "function"
				},
				{
					"inputs": [
						{
							"internalType": "uint256",
							"name": "_n",
							"type": "uint256"
						}
					],
					"name": "push",
					"outputs": [],
					"stateMutability": "nonpayable",
					"type": "function"
				}
			],
			"devdoc": {
				"kind": "dev",
				"methods": {},
				"version": 1
			},
			"evm": {
				"assembly": "    /* \"solidity/soidity91~100.sol\":3972:5429  contract Q97 {... */\n  mstore(0x40, 0x80)\n  callvalue\n  dup1\n  iszero\n  tag_1\n  jumpi\n  0x00\n  dup1\n  revert\ntag_1:\n  pop\n  dataSize(sub_0)\n  dup1\n  dataOffset(sub_0)\n  0x00\n  codecopy\n  0x00\n  return\nstop\n\nsub_0: assembly {\n        /* \"solidity/soidity91~100.sol\":3972:5429  contract Q97 {... */\n      mstore(0x40, 0x80)\n      callvalue\n      dup1\n      iszero\n      tag_1\n      jumpi\n      0x00\n      dup1\n      revert\n    tag_1:\n      pop\n      jumpi(tag_2, lt(calldatasize, 0x04))\n      shr(0xe0, calldataload(0x00))\n      dup1\n      0x89f915f6\n      eq\n      tag_3\n      jumpi\n      dup1\n      0x959ac484\n      eq\n      tag_4\n      jumpi\n      dup1\n      0xa4ece52c\n      eq\n      tag_5\n      jumpi\n      dup1\n      0xd39fa233\n      eq\n      tag_6\n      jumpi\n    tag_2:\n      0x00\n      dup1\n      revert\n        /* \"solidity/soidity91~100.sol\":4838:5427  function getNumbers() public view returns (uint[] memory) {... */\n    tag_3:\n      tag_7\n      tag_8\n      jump\t// in\n    tag_7:\n      mload(0x40)\n      tag_9\n      swap2\n      swap1\n      tag_10\n      jump\t// in\n    tag_9:\n      mload(0x40)\n      dup1\n      swap2\n      sub\n      swap1\n      return\n        /* \"solidity/soidity91~100.sol\":4174:4472  function push(uint _n) public {... */\n    tag_4:\n      tag_11\n      0x04\n      dup1\n      calldatasize\n      sub\n      dup2\n      add\n      swap1\n      tag_12\n      swap2\n      swap1\n      tag_13\n      jump\t// in\n    tag_12:\n      tag_14\n      jump\t// in\n    tag_11:\n      stop\n        /* \"solidity/soidity91~100.sol\":4478:4832  function pop() public {... */\n    tag_5:\n      tag_15\n      tag_16\n      jump\t// in\n    tag_15:\n      stop\n        /* \"solidity/soidity91~100.sol\":4146:4167  uint[] public numbers */\n    tag_6:\n      tag_17\n      0x04\n      dup1\n      calldatasize\n      sub\n      dup2\n      add\n      swap1\n      tag_18\n      swap2\n      swap1\n      tag_13\n      jump\t// in\n    tag_18:\n      tag_19\n      jump\t// in\n    tag_17:\n      mload(0x40)\n      tag_20\n      swap2\n      swap1\n      tag_21\n      jump\t// in\n    tag_20:\n      mload(0x40)\n      dup1\n      swap2\n      sub\n      swap1\n      return\n        /* \"solidity/soidity91~100.sol\":4838:5427  function getNumbers() public view returns (uint[] memory) {... */\n    tag_8:\n        /* \"solidity/soidity91~100.sol\":4881:4894  uint[] memory */\n      0x60\n        /* \"solidity/soidity91~100.sol\":4906:4917  uint length */\n      0x00\n        /* \"solidity/soidity91~100.sol\":4966:4978  numbers.slot */\n      dup1\n        /* \"solidity/soidity91~100.sol\":4960:4979  sload(numbers.slot) */\n      sload\n        /* \"solidity/soidity91~100.sol\":4950:4979  length := sload(numbers.slot) */\n      swap1\n      pop\n        /* \"solidity/soidity91~100.sol\":4999:5019  uint[] memory result */\n      0x00\n        /* \"solidity/soidity91~100.sol\":5033:5039  length */\n      dup2\n        /* \"solidity/soidity91~100.sol\":5022:5040  new uint[](length) */\n      0xffffffffffffffff\n      dup2\n      gt\n      iszero\n      tag_23\n      jumpi\n      tag_24\n      tag_25\n      jump\t// in\n    tag_24:\n    tag_23:\n      mload(0x40)\n      swap1\n      dup1\n      dup3\n      mstore\n      dup1\n      0x20\n      mul\n      0x20\n      add\n      dup3\n      add\n      0x40\n      mstore\n      dup1\n      iszero\n      tag_26\n      jumpi\n      dup2\n      0x20\n      add\n      0x20\n      dup3\n      mul\n      dup1\n      calldatasize\n      dup4\n      calldatacopy\n      dup1\n      dup3\n      add\n      swap2\n      pop\n      pop\n      swap1\n      pop\n    tag_26:\n      pop\n        /* \"solidity/soidity91~100.sol\":4999:5040  uint[] memory result = new uint[](length) */\n      swap1\n      pop\n        /* \"solidity/soidity91~100.sol\":5130:5131  0 */\n      0x00\n        /* \"solidity/soidity91~100.sol\":5123:5127  0x20 */\n      0x20\n        /* \"solidity/soidity91~100.sol\":5116:5120  0x20 */\n      dup1\n        /* \"solidity/soidity91~100.sol\":5102:5114  numbers.slot */\n      0x00\n        /* \"solidity/soidity91~100.sol\":5098:5121  add(numbers.slot, 0x20) */\n      add\n        /* \"solidity/soidity91~100.sol\":5088:5128  keccak256(add(numbers.slot, 0x20), 0x20) */\n      keccak256\n        /* \"solidity/soidity91~100.sol\":5084:5132  add(keccak256(add(numbers.slot, 0x20), 0x20), 0) */\n      add\n        /* \"solidity/soidity91~100.sol\":5168:5172  0x20 */\n      0x20\n        /* \"solidity/soidity91~100.sol\":5160:5166  result */\n      dup3\n        /* \"solidity/soidity91~100.sol\":5156:5173  add(result, 0x20) */\n      add\n        /* \"solidity/soidity91~100.sol\":5219:5220  0 */\n      0x00\n        /* \"solidity/soidity91~100.sol\":5204:5387  for { let i := 0 } lt(i, length) { i := add(i, 1) } {... */\n    tag_27:\n        /* \"solidity/soidity91~100.sol\":5229:5235  length */\n      dup5\n        /* \"solidity/soidity91~100.sol\":5226:5227  i */\n      dup2\n        /* \"solidity/soidity91~100.sol\":5223:5236  lt(i, length) */\n      lt\n        /* \"solidity/soidity91~100.sol\":5204:5387  for { let i := 0 } lt(i, length) { i := add(i, 1) } {... */\n      iszero\n      tag_29\n      jumpi\n        /* \"solidity/soidity91~100.sol\":5292:5295  src */\n      dup3\n        /* \"solidity/soidity91~100.sol\":5286:5296  sload(src) */\n      sload\n        /* \"solidity/soidity91~100.sol\":5281:5284  dst */\n      dup3\n        /* \"solidity/soidity91~100.sol\":5274:5297  mstore(dst, sload(src)) */\n      mstore\n        /* \"solidity/soidity91~100.sol\":5330:5334  0x20 */\n      0x20\n        /* \"solidity/soidity91~100.sol\":5325:5328  dst */\n      dup3\n        /* \"solidity/soidity91~100.sol\":5321:5335  add(dst, 0x20) */\n      add\n        /* \"solidity/soidity91~100.sol\":5314:5335  dst := add(dst, 0x20) */\n      swap2\n      pop\n        /* \"solidity/soidity91~100.sol\":5368:5372  0x20 */\n      0x20\n        /* \"solidity/soidity91~100.sol\":5363:5366  src */\n      dup4\n        /* \"solidity/soidity91~100.sol\":5359:5373  add(src, 0x20) */\n      add\n        /* \"solidity/soidity91~100.sol\":5352:5373  src := add(src, 0x20) */\n      swap3\n      pop\n        /* \"solidity/soidity91~100.sol\":5251:5252  1 */\n      0x01\n        /* \"solidity/soidity91~100.sol\":5248:5249  i */\n      dup2\n        /* \"solidity/soidity91~100.sol\":5244:5253  add(i, 1) */\n      add\n        /* \"solidity/soidity91~100.sol\":5239:5253  i := add(i, 1) */\n      swap1\n      pop\n        /* \"solidity/soidity91~100.sol\":5204:5387  for { let i := 0 } lt(i, length) { i := add(i, 1) } {... */\n      jump(tag_27)\n    tag_29:\n        /* \"solidity/soidity91~100.sol\":5208:5222  { let i := 0 } */\n      pop\n        /* \"solidity/soidity91~100.sol\":5059:5397  {... */\n      pop\n      pop\n        /* \"solidity/soidity91~100.sol\":5414:5420  result */\n      dup1\n        /* \"solidity/soidity91~100.sol\":5407:5420  return result */\n      swap3\n      pop\n      pop\n      pop\n        /* \"solidity/soidity91~100.sol\":4838:5427  function getNumbers() public view returns (uint[] memory) {... */\n      swap1\n      jump\t// out\n        /* \"solidity/soidity91~100.sol\":4174:4472  function push(uint _n) public {... */\n    tag_14:\n        /* \"solidity/soidity91~100.sol\":4257:4269  numbers.slot */\n      0x00\n        /* \"solidity/soidity91~100.sol\":4251:4270  sload(numbers.slot) */\n      sload\n        /* \"solidity/soidity91~100.sol\":4354:4360  length */\n      dup1\n        /* \"solidity/soidity91~100.sol\":4347:4351  0x20 */\n      0x20\n        /* \"solidity/soidity91~100.sol\":4340:4344  0x20 */\n      dup1\n        /* \"solidity/soidity91~100.sol\":4326:4338  numbers.slot */\n      0x00\n        /* \"solidity/soidity91~100.sol\":4322:4345  add(numbers.slot, 0x20) */\n      add\n        /* \"solidity/soidity91~100.sol\":4312:4352  keccak256(add(numbers.slot, 0x20), 0x20) */\n      keccak256\n        /* \"solidity/soidity91~100.sol\":4308:4361  add(keccak256(add(numbers.slot, 0x20), 0x20), length) */\n      add\n        /* \"solidity/soidity91~100.sol\":4391:4393  _n */\n      dup3\n        /* \"solidity/soidity91~100.sol\":4385:4389  slot */\n      dup2\n        /* \"solidity/soidity91~100.sol\":4378:4394  sstore(slot, _n) */\n      sstore\n        /* \"solidity/soidity91~100.sol\":4453:4454  1 */\n      0x01\n        /* \"solidity/soidity91~100.sol\":4445:4451  length */\n      dup3\n        /* \"solidity/soidity91~100.sol\":4441:4455  add(length, 1) */\n      add\n        /* \"solidity/soidity91~100.sol\":4427:4439  numbers.slot */\n      0x00\n        /* \"solidity/soidity91~100.sol\":4420:4456  sstore(numbers.slot, add(length, 1)) */\n      sstore\n        /* \"solidity/soidity91~100.sol\":4223:4466  {... */\n      pop\n      pop\n        /* \"solidity/soidity91~100.sol\":4174:4472  function push(uint _n) public {... */\n      pop\n      jump\t// out\n        /* \"solidity/soidity91~100.sol\":4478:4832  function pop() public {... */\n    tag_16:\n        /* \"solidity/soidity91~100.sol\":4553:4565  numbers.slot */\n      0x00\n        /* \"solidity/soidity91~100.sol\":4547:4566  sload(numbers.slot) */\n      sload\n        /* \"solidity/soidity91~100.sol\":4589:4595  length */\n      dup1\n        /* \"solidity/soidity91~100.sol\":4579:4613  if iszero(length) { revert(0, 0) } */\n      tag_32\n      jumpi\n        /* \"solidity/soidity91~100.sol\":4609:4610  0 */\n      0x00\n        /* \"solidity/soidity91~100.sol\":4606:4607  0 */\n      dup1\n        /* \"solidity/soidity91~100.sol\":4599:4611  revert(0, 0) */\n      revert\n        /* \"solidity/soidity91~100.sol\":4579:4613  if iszero(length) { revert(0, 0) } */\n    tag_32:\n        /* \"solidity/soidity91~100.sol\":4710:4711  1 */\n      0x01\n        /* \"solidity/soidity91~100.sol\":4702:4708  length */\n      dup2\n        /* \"solidity/soidity91~100.sol\":4698:4712  sub(length, 1) */\n      sub\n        /* \"solidity/soidity91~100.sol\":4691:4695  0x20 */\n      0x20\n        /* \"solidity/soidity91~100.sol\":4684:4688  0x20 */\n      dup1\n        /* \"solidity/soidity91~100.sol\":4670:4682  numbers.slot */\n      0x00\n        /* \"solidity/soidity91~100.sol\":4666:4689  add(numbers.slot, 0x20) */\n      add\n        /* \"solidity/soidity91~100.sol\":4656:4696  keccak256(add(numbers.slot, 0x20), 0x20) */\n      keccak256\n        /* \"solidity/soidity91~100.sol\":4652:4713  add(keccak256(add(numbers.slot, 0x20), 0x20), sub(length, 1)) */\n      add\n        /* \"solidity/soidity91~100.sol\":4752:4753  0 */\n      0x00\n        /* \"solidity/soidity91~100.sol\":4746:4750  slot */\n      dup2\n        /* \"solidity/soidity91~100.sol\":4739:4754  sstore(slot, 0) */\n      sstore\n        /* \"solidity/soidity91~100.sol\":4813:4814  1 */\n      0x01\n        /* \"solidity/soidity91~100.sol\":4805:4811  length */\n      dup3\n        /* \"solidity/soidity91~100.sol\":4801:4815  sub(length, 1) */\n      sub\n        /* \"solidity/soidity91~100.sol\":4787:4799  numbers.slot */\n      0x00\n        /* \"solidity/soidity91~100.sol\":4780:4816  sstore(numbers.slot, sub(length, 1)) */\n      sstore\n        /* \"solidity/soidity91~100.sol\":4519:4826  {... */\n      pop\n      pop\n        /* \"solidity/soidity91~100.sol\":4478:4832  function pop() public {... */\n      jump\t// out\n        /* \"solidity/soidity91~100.sol\":4146:4167  uint[] public numbers */\n    tag_19:\n      0x00\n      dup2\n      dup2\n      sload\n      dup2\n      lt\n      tag_33\n      jumpi\n      0x00\n      dup1\n      revert\n    tag_33:\n      swap1\n      0x00\n      mstore\n      keccak256(0x00, 0x20)\n      add\n      0x00\n      swap2\n      pop\n      swap1\n      pop\n      sload\n      dup2\n      jump\t// out\n        /* \"#utility.yul\":7:121   */\n    tag_35:\n        /* \"#utility.yul\":74:80   */\n      0x00\n        /* \"#utility.yul\":108:113   */\n      dup2\n        /* \"#utility.yul\":102:114   */\n      mload\n        /* \"#utility.yul\":92:114   */\n      swap1\n      pop\n        /* \"#utility.yul\":7:121   */\n      swap2\n      swap1\n      pop\n      jump\t// out\n        /* \"#utility.yul\":127:311   */\n    tag_36:\n        /* \"#utility.yul\":226:237   */\n      0x00\n        /* \"#utility.yul\":260:266   */\n      dup3\n        /* \"#utility.yul\":255:258   */\n      dup3\n        /* \"#utility.yul\":248:267   */\n      mstore\n        /* \"#utility.yul\":300:304   */\n      0x20\n        /* \"#utility.yul\":295:298   */\n      dup3\n        /* \"#utility.yul\":291:305   */\n      add\n        /* \"#utility.yul\":276:305   */\n      swap1\n      pop\n        /* \"#utility.yul\":127:311   */\n      swap3\n      swap2\n      pop\n      pop\n      jump\t// out\n        /* \"#utility.yul\":317:449   */\n    tag_37:\n        /* \"#utility.yul\":384:388   */\n      0x00\n        /* \"#utility.yul\":407:410   */\n      dup2\n        /* \"#utility.yul\":399:410   */\n      swap1\n      pop\n        /* \"#utility.yul\":437:441   */\n      0x20\n        /* \"#utility.yul\":432:435   */\n      dup3\n        /* \"#utility.yul\":428:442   */\n      add\n        /* \"#utility.yul\":420:442   */\n      swap1\n      pop\n        /* \"#utility.yul\":317:449   */\n      swap2\n      swap1\n      pop\n      jump\t// out\n        /* \"#utility.yul\":455:532   */\n    tag_38:\n        /* \"#utility.yul\":492:499   */\n      0x00\n        /* \"#utility.yul\":521:526   */\n      dup2\n        /* \"#utility.yul\":510:526   */\n      swap1\n      pop\n        /* \"#utility.yul\":455:532   */\n      swap2\n      swap1\n      pop\n      jump\t// out\n        /* \"#utility.yul\":538:646   */\n    tag_39:\n        /* \"#utility.yul\":615:639   */\n      tag_55\n        /* \"#utility.yul\":633:638   */\n      dup2\n        /* \"#utility.yul\":615:639   */\n      tag_38\n      jump\t// in\n    tag_55:\n        /* \"#utility.yul\":610:613   */\n      dup3\n        /* \"#utility.yul\":603:640   */\n      mstore\n        /* \"#utility.yul\":538:646   */\n      pop\n      pop\n      jump\t// out\n        /* \"#utility.yul\":652:831   */\n    tag_40:\n        /* \"#utility.yul\":721:731   */\n      0x00\n        /* \"#utility.yul\":742:788   */\n      tag_57\n        /* \"#utility.yul\":784:787   */\n      dup4\n        /* \"#utility.yul\":776:782   */\n      dup4\n        /* \"#utility.yul\":742:788   */\n      tag_39\n      jump\t// in\n    tag_57:\n        /* \"#utility.yul\":820:824   */\n      0x20\n        /* \"#utility.yul\":815:818   */\n      dup4\n        /* \"#utility.yul\":811:825   */\n      add\n        /* \"#utility.yul\":797:825   */\n      swap1\n      pop\n        /* \"#utility.yul\":652:831   */\n      swap3\n      swap2\n      pop\n      pop\n      jump\t// out\n        /* \"#utility.yul\":837:950   */\n    tag_41:\n        /* \"#utility.yul\":907:911   */\n      0x00\n        /* \"#utility.yul\":939:943   */\n      0x20\n        /* \"#utility.yul\":934:937   */\n      dup3\n        /* \"#utility.yul\":930:944   */\n      add\n        /* \"#utility.yul\":922:944   */\n      swap1\n      pop\n        /* \"#utility.yul\":837:950   */\n      swap2\n      swap1\n      pop\n      jump\t// out\n        /* \"#utility.yul\":986:1718   */\n    tag_42:\n        /* \"#utility.yul\":1105:1108   */\n      0x00\n        /* \"#utility.yul\":1134:1188   */\n      tag_60\n        /* \"#utility.yul\":1182:1187   */\n      dup3\n        /* \"#utility.yul\":1134:1188   */\n      tag_35\n      jump\t// in\n    tag_60:\n        /* \"#utility.yul\":1204:1290   */\n      tag_61\n        /* \"#utility.yul\":1283:1289   */\n      dup2\n        /* \"#utility.yul\":1278:1281   */\n      dup6\n        /* \"#utility.yul\":1204:1290   */\n      tag_36\n      jump\t// in\n    tag_61:\n        /* \"#utility.yul\":1197:1290   */\n      swap4\n      pop\n        /* \"#utility.yul\":1314:1370   */\n      tag_62\n        /* \"#utility.yul\":1364:1369   */\n      dup4\n        /* \"#utility.yul\":1314:1370   */\n      tag_37\n      jump\t// in\n    tag_62:\n        /* \"#utility.yul\":1393:1400   */\n      dup1\n        /* \"#utility.yul\":1424:1425   */\n      0x00\n        /* \"#utility.yul\":1409:1693   */\n    tag_63:\n        /* \"#utility.yul\":1434:1440   */\n      dup4\n        /* \"#utility.yul\":1431:1432   */\n      dup2\n        /* \"#utility.yul\":1428:1441   */\n      lt\n        /* \"#utility.yul\":1409:1693   */\n      iszero\n      tag_65\n      jumpi\n        /* \"#utility.yul\":1510:1516   */\n      dup2\n        /* \"#utility.yul\":1504:1517   */\n      mload\n        /* \"#utility.yul\":1537:1600   */\n      tag_66\n        /* \"#utility.yul\":1596:1599   */\n      dup9\n        /* \"#utility.yul\":1581:1594   */\n      dup3\n        /* \"#utility.yul\":1537:1600   */\n      tag_40\n      jump\t// in\n    tag_66:\n        /* \"#utility.yul\":1530:1600   */\n      swap8\n      pop\n        /* \"#utility.yul\":1623:1683   */\n      tag_67\n        /* \"#utility.yul\":1676:1682   */\n      dup4\n        /* \"#utility.yul\":1623:1683   */\n      tag_41\n      jump\t// in\n    tag_67:\n        /* \"#utility.yul\":1613:1683   */\n      swap3\n      pop\n        /* \"#utility.yul\":1469:1693   */\n      pop\n        /* \"#utility.yul\":1456:1457   */\n      0x01\n        /* \"#utility.yul\":1453:1454   */\n      dup2\n        /* \"#utility.yul\":1449:1458   */\n      add\n        /* \"#utility.yul\":1444:1458   */\n      swap1\n      pop\n        /* \"#utility.yul\":1409:1693   */\n      jump(tag_63)\n    tag_65:\n        /* \"#utility.yul\":1413:1427   */\n      pop\n        /* \"#utility.yul\":1709:1712   */\n      dup6\n        /* \"#utility.yul\":1702:1712   */\n      swap4\n      pop\n        /* \"#utility.yul\":1110:1718   */\n      pop\n      pop\n      pop\n        /* \"#utility.yul\":986:1718   */\n      swap3\n      swap2\n      pop\n      pop\n      jump\t// out\n        /* \"#utility.yul\":1724:2097   */\n    tag_10:\n        /* \"#utility.yul\":1867:1871   */\n      0x00\n        /* \"#utility.yul\":1905:1907   */\n      0x20\n        /* \"#utility.yul\":1894:1903   */\n      dup3\n        /* \"#utility.yul\":1890:1908   */\n      add\n        /* \"#utility.yul\":1882:1908   */\n      swap1\n      pop\n        /* \"#utility.yul\":1954:1963   */\n      dup2\n        /* \"#utility.yul\":1948:1952   */\n      dup2\n        /* \"#utility.yul\":1944:1964   */\n      sub\n        /* \"#utility.yul\":1940:1941   */\n      0x00\n        /* \"#utility.yul\":1929:1938   */\n      dup4\n        /* \"#utility.yul\":1925:1942   */\n      add\n        /* \"#utility.yul\":1918:1965   */\n      mstore\n        /* \"#utility.yul\":1982:2090   */\n      tag_69\n        /* \"#utility.yul\":2085:2089   */\n      dup2\n        /* \"#utility.yul\":2076:2082   */\n      dup5\n        /* \"#utility.yul\":1982:2090   */\n      tag_42\n      jump\t// in\n    tag_69:\n        /* \"#utility.yul\":1974:2090   */\n      swap1\n      pop\n        /* \"#utility.yul\":1724:2097   */\n      swap3\n      swap2\n      pop\n      pop\n      jump\t// out\n        /* \"#utility.yul\":2184:2301   */\n    tag_44:\n        /* \"#utility.yul\":2293:2294   */\n      0x00\n        /* \"#utility.yul\":2290:2291   */\n      dup1\n        /* \"#utility.yul\":2283:2295   */\n      revert\n        /* \"#utility.yul\":2430:2552   */\n    tag_46:\n        /* \"#utility.yul\":2503:2527   */\n      tag_74\n        /* \"#utility.yul\":2521:2526   */\n      dup2\n        /* \"#utility.yul\":2503:2527   */\n      tag_38\n      jump\t// in\n    tag_74:\n        /* \"#utility.yul\":2496:2501   */\n      dup2\n        /* \"#utility.yul\":2493:2528   */\n      eq\n        /* \"#utility.yul\":2483:2546   */\n      tag_75\n      jumpi\n        /* \"#utility.yul\":2542:2543   */\n      0x00\n        /* \"#utility.yul\":2539:2540   */\n      dup1\n        /* \"#utility.yul\":2532:2544   */\n      revert\n        /* \"#utility.yul\":2483:2546   */\n    tag_75:\n        /* \"#utility.yul\":2430:2552   */\n      pop\n      jump\t// out\n        /* \"#utility.yul\":2558:2697   */\n    tag_47:\n        /* \"#utility.yul\":2604:2609   */\n      0x00\n        /* \"#utility.yul\":2642:2648   */\n      dup2\n        /* \"#utility.yul\":2629:2649   */\n      calldataload\n        /* \"#utility.yul\":2620:2649   */\n      swap1\n      pop\n        /* \"#utility.yul\":2658:2691   */\n      tag_77\n        /* \"#utility.yul\":2685:2690   */\n      dup2\n        /* \"#utility.yul\":2658:2691   */\n      tag_46\n      jump\t// in\n    tag_77:\n        /* \"#utility.yul\":2558:2697   */\n      swap3\n      swap2\n      pop\n      pop\n      jump\t// out\n        /* \"#utility.yul\":2703:3032   */\n    tag_13:\n        /* \"#utility.yul\":2762:2768   */\n      0x00\n        /* \"#utility.yul\":2811:2813   */\n      0x20\n        /* \"#utility.yul\":2799:2808   */\n      dup3\n        /* \"#utility.yul\":2790:2797   */\n      dup5\n        /* \"#utility.yul\":2786:2809   */\n      sub\n        /* \"#utility.yul\":2782:2814   */\n      slt\n        /* \"#utility.yul\":2779:2898   */\n      iszero\n      tag_79\n      jumpi\n        /* \"#utility.yul\":2817:2896   */\n      tag_80\n      tag_44\n      jump\t// in\n    tag_80:\n        /* \"#utility.yul\":2779:2898   */\n    tag_79:\n        /* \"#utility.yul\":2937:2938   */\n      0x00\n        /* \"#utility.yul\":2962:3015   */\n      tag_81\n        /* \"#utility.yul\":3007:3014   */\n      dup5\n        /* \"#utility.yul\":2998:3004   */\n      dup3\n        /* \"#utility.yul\":2987:2996   */\n      dup6\n        /* \"#utility.yul\":2983:3005   */\n      add\n        /* \"#utility.yul\":2962:3015   */\n      tag_47\n      jump\t// in\n    tag_81:\n        /* \"#utility.yul\":2952:3015   */\n      swap2\n      pop\n        /* \"#utility.yul\":2908:3025   */\n      pop\n        /* \"#utility.yul\":2703:3032   */\n      swap3\n      swap2\n      pop\n      pop\n      jump\t// out\n        /* \"#utility.yul\":3038:3156   */\n    tag_48:\n        /* \"#utility.yul\":3125:3149   */\n      tag_83\n        /* \"#utility.yul\":3143:3148   */\n      dup2\n        /* \"#utility.yul\":3125:3149   */\n      tag_38\n      jump\t// in\n    tag_83:\n        /* \"#utility.yul\":3120:3123   */\n      dup3\n        /* \"#utility.yul\":3113:3150   */\n      mstore\n        /* \"#utility.yul\":3038:3156   */\n      pop\n      pop\n      jump\t// out\n        /* \"#utility.yul\":3162:3384   */\n    tag_21:\n        /* \"#utility.yul\":3255:3259   */\n      0x00\n        /* \"#utility.yul\":3293:3295   */\n      0x20\n        /* \"#utility.yul\":3282:3291   */\n      dup3\n        /* \"#utility.yul\":3278:3296   */\n      add\n        /* \"#utility.yul\":3270:3296   */\n      swap1\n      pop\n        /* \"#utility.yul\":3306:3377   */\n      tag_85\n        /* \"#utility.yul\":3374:3375   */\n      0x00\n        /* \"#utility.yul\":3363:3372   */\n      dup4\n        /* \"#utility.yul\":3359:3376   */\n      add\n        /* \"#utility.yul\":3350:3356   */\n      dup5\n        /* \"#utility.yul\":3306:3377   */\n      tag_48\n      jump\t// in\n    tag_85:\n        /* \"#utility.yul\":3162:3384   */\n      swap3\n      swap2\n      pop\n      pop\n      jump\t// out\n        /* \"#utility.yul\":3390:3570   */\n    tag_25:\n        /* \"#utility.yul\":3438:3515   */\n      0x4e487b7100000000000000000000000000000000000000000000000000000000\n        /* \"#utility.yul\":3435:3436   */\n      0x00\n        /* \"#utility.yul\":3428:3516   */\n      mstore\n        /* \"#utility.yul\":3535:3539   */\n      0x41\n        /* \"#utility.yul\":3532:3533   */\n      0x04\n        /* \"#utility.yul\":3525:3540   */\n      mstore\n        /* \"#utility.yul\":3559:3563   */\n      0x24\n        /* \"#utility.yul\":3556:3557   */\n      0x00\n        /* \"#utility.yul\":3549:3564   */\n      revert\n\n    auxdata: 0xa264697066735822122058aa6a2e90f7055c0217d00524c5862224d4a154505224502fe98301044a722d64736f6c634300081a0033\n}\n",
				"bytecode": {
					"linkReferences": {},
					"object": "6080604052348015600e575f80fd5b5061036f8061001c5f395ff3fe608060405234801561000f575f80fd5b506004361061004a575f3560e01c806389f915f61461004e578063959ac4841461006c578063a4ece52c14610088578063d39fa23314610092575b5f80fd5b6100566100c2565b604051610063919061026b565b60405180910390f35b610086600480360381019061008191906102b9565b610151565b005b610090610169565b005b6100ac60048036038101906100a791906102b9565b61018c565b6040516100b991906102f3565b60405180910390f35b60605f805490505f8167ffffffffffffffff8111156100e4576100e361030c565b5b6040519080825280602002602001820160405280156101125781602001602082028036833780820191505090505b5090505f6020805f012001602082015f5b848110156101465782548252602082019150602083019250600181019050610123565b505050809250505090565b5f54806020805f012001828155600182015f55505050565b5f5480610174575f80fd5b600181036020805f0120015f8155600182035f555050565b5f818154811061019a575f80fd5b905f5260205f20015f915090505481565b5f81519050919050565b5f82825260208201905092915050565b5f819050602082019050919050565b5f819050919050565b6101e6816101d4565b82525050565b5f6101f783836101dd565b60208301905092915050565b5f602082019050919050565b5f610219826101ab565b61022381856101b5565b935061022e836101c5565b805f5b8381101561025e57815161024588826101ec565b975061025083610203565b925050600181019050610231565b5085935050505092915050565b5f6020820190508181035f830152610283818461020f565b905092915050565b5f80fd5b610298816101d4565b81146102a2575f80fd5b50565b5f813590506102b38161028f565b92915050565b5f602082840312156102ce576102cd61028b565b5b5f6102db848285016102a5565b91505092915050565b6102ed816101d4565b82525050565b5f6020820190506103065f8301846102e4565b92915050565b7f4e487b71000000000000000000000000000000000000000000000000000000005f52604160045260245ffdfea264697066735822122058aa6a2e90f7055c0217d00524c5862224d4a154505224502fe98301044a722d64736f6c634300081a0033",
					"opcodes": "PUSH1 0x80 PUSH1 0x40 MSTORE CALLVALUE DUP1 ISZERO PUSH1 0xE JUMPI PUSH0 DUP1 REVERT JUMPDEST POP PUSH2 0x36F DUP1 PUSH2 0x1C PUSH0 CODECOPY PUSH0 RETURN INVALID PUSH1 0x80 PUSH1 0x40 MSTORE CALLVALUE DUP1 ISZERO PUSH2 0xF JUMPI PUSH0 DUP1 REVERT JUMPDEST POP PUSH1 0x4 CALLDATASIZE LT PUSH2 0x4A JUMPI PUSH0 CALLDATALOAD PUSH1 0xE0 SHR DUP1 PUSH4 0x89F915F6 EQ PUSH2 0x4E JUMPI DUP1 PUSH4 0x959AC484 EQ PUSH2 0x6C JUMPI DUP1 PUSH4 0xA4ECE52C EQ PUSH2 0x88 JUMPI DUP1 PUSH4 0xD39FA233 EQ PUSH2 0x92 JUMPI JUMPDEST PUSH0 DUP1 REVERT JUMPDEST PUSH2 0x56 PUSH2 0xC2 JUMP JUMPDEST PUSH1 0x40 MLOAD PUSH2 0x63 SWAP2 SWAP1 PUSH2 0x26B JUMP JUMPDEST PUSH1 0x40 MLOAD DUP1 SWAP2 SUB SWAP1 RETURN JUMPDEST PUSH2 0x86 PUSH1 0x4 DUP1 CALLDATASIZE SUB DUP2 ADD SWAP1 PUSH2 0x81 SWAP2 SWAP1 PUSH2 0x2B9 JUMP JUMPDEST PUSH2 0x151 JUMP JUMPDEST STOP JUMPDEST PUSH2 0x90 PUSH2 0x169 JUMP JUMPDEST STOP JUMPDEST PUSH2 0xAC PUSH1 0x4 DUP1 CALLDATASIZE SUB DUP2 ADD SWAP1 PUSH2 0xA7 SWAP2 SWAP1 PUSH2 0x2B9 JUMP JUMPDEST PUSH2 0x18C JUMP JUMPDEST PUSH1 0x40 MLOAD PUSH2 0xB9 SWAP2 SWAP1 PUSH2 0x2F3 JUMP JUMPDEST PUSH1 0x40 MLOAD DUP1 SWAP2 SUB SWAP1 RETURN JUMPDEST PUSH1 0x60 PUSH0 DUP1 SLOAD SWAP1 POP PUSH0 DUP2 PUSH8 0xFFFFFFFFFFFFFFFF DUP2 GT ISZERO PUSH2 0xE4 JUMPI PUSH2 0xE3 PUSH2 0x30C JUMP JUMPDEST JUMPDEST PUSH1 0x40 MLOAD SWAP1 DUP1 DUP3 MSTORE DUP1 PUSH1 0x20 MUL PUSH1 0x20 ADD DUP3 ADD PUSH1 0x40 MSTORE DUP1 ISZERO PUSH2 0x112 JUMPI DUP2 PUSH1 0x20 ADD PUSH1 0x20 DUP3 MUL DUP1 CALLDATASIZE DUP4 CALLDATACOPY DUP1 DUP3 ADD SWAP2 POP POP SWAP1 POP JUMPDEST POP SWAP1 POP PUSH0 PUSH1 0x20 DUP1 PUSH0 ADD KECCAK256 ADD PUSH1 0x20 DUP3 ADD PUSH0 JUMPDEST DUP5 DUP2 LT ISZERO PUSH2 0x146 JUMPI DUP3 SLOAD DUP3 MSTORE PUSH1 0x20 DUP3 ADD SWAP2 POP PUSH1 0x20 DUP4 ADD SWAP3 POP PUSH1 0x1 DUP2 ADD SWAP1 POP PUSH2 0x123 JUMP JUMPDEST POP POP POP DUP1 SWAP3 POP POP POP SWAP1 JUMP JUMPDEST PUSH0 SLOAD DUP1 PUSH1 0x20 DUP1 PUSH0 ADD KECCAK256 ADD DUP3 DUP2 SSTORE PUSH1 0x1 DUP3 ADD PUSH0 SSTORE POP POP POP JUMP JUMPDEST PUSH0 SLOAD DUP1 PUSH2 0x174 JUMPI PUSH0 DUP1 REVERT JUMPDEST PUSH1 0x1 DUP2 SUB PUSH1 0x20 DUP1 PUSH0 ADD KECCAK256 ADD PUSH0 DUP2 SSTORE PUSH1 0x1 DUP3 SUB PUSH0 SSTORE POP POP JUMP JUMPDEST PUSH0 DUP2 DUP2 SLOAD DUP2 LT PUSH2 0x19A JUMPI PUSH0 DUP1 REVERT JUMPDEST SWAP1 PUSH0 MSTORE PUSH1 0x20 PUSH0 KECCAK256 ADD PUSH0 SWAP2 POP SWAP1 POP SLOAD DUP2 JUMP JUMPDEST PUSH0 DUP2 MLOAD SWAP1 POP SWAP2 SWAP1 POP JUMP JUMPDEST PUSH0 DUP3 DUP3 MSTORE PUSH1 0x20 DUP3 ADD SWAP1 POP SWAP3 SWAP2 POP POP JUMP JUMPDEST PUSH0 DUP2 SWAP1 POP PUSH1 0x20 DUP3 ADD SWAP1 POP SWAP2 SWAP1 POP JUMP JUMPDEST PUSH0 DUP2 SWAP1 POP SWAP2 SWAP1 POP JUMP JUMPDEST PUSH2 0x1E6 DUP2 PUSH2 0x1D4 JUMP JUMPDEST DUP3 MSTORE POP POP JUMP JUMPDEST PUSH0 PUSH2 0x1F7 DUP4 DUP4 PUSH2 0x1DD JUMP JUMPDEST PUSH1 0x20 DUP4 ADD SWAP1 POP SWAP3 SWAP2 POP POP JUMP JUMPDEST PUSH0 PUSH1 0x20 DUP3 ADD SWAP1 POP SWAP2 SWAP1 POP JUMP JUMPDEST PUSH0 PUSH2 0x219 DUP3 PUSH2 0x1AB JUMP JUMPDEST PUSH2 0x223 DUP2 DUP6 PUSH2 0x1B5 JUMP JUMPDEST SWAP4 POP PUSH2 0x22E DUP4 PUSH2 0x1C5 JUMP JUMPDEST DUP1 PUSH0 JUMPDEST DUP4 DUP2 LT ISZERO PUSH2 0x25E JUMPI DUP2 MLOAD PUSH2 0x245 DUP9 DUP3 PUSH2 0x1EC JUMP JUMPDEST SWAP8 POP PUSH2 0x250 DUP4 PUSH2 0x203 JUMP JUMPDEST SWAP3 POP POP PUSH1 0x1 DUP2 ADD SWAP1 POP PUSH2 0x231 JUMP JUMPDEST POP DUP6 SWAP4 POP POP POP POP SWAP3 SWAP2 POP POP JUMP JUMPDEST PUSH0 PUSH1 0x20 DUP3 ADD SWAP1 POP DUP2 DUP2 SUB PUSH0 DUP4 ADD MSTORE PUSH2 0x283 DUP2 DUP5 PUSH2 0x20F JUMP JUMPDEST SWAP1 POP SWAP3 SWAP2 POP POP JUMP JUMPDEST PUSH0 DUP1 REVERT JUMPDEST PUSH2 0x298 DUP2 PUSH2 0x1D4 JUMP JUMPDEST DUP2 EQ PUSH2 0x2A2 JUMPI PUSH0 DUP1 REVERT JUMPDEST POP JUMP JUMPDEST PUSH0 DUP2 CALLDATALOAD SWAP1 POP PUSH2 0x2B3 DUP2 PUSH2 0x28F JUMP JUMPDEST SWAP3 SWAP2 POP POP JUMP JUMPDEST PUSH0 PUSH1 0x20 DUP3 DUP5 SUB SLT ISZERO PUSH2 0x2CE JUMPI PUSH2 0x2CD PUSH2 0x28B JUMP JUMPDEST JUMPDEST PUSH0 PUSH2 0x2DB DUP5 DUP3 DUP6 ADD PUSH2 0x2A5 JUMP JUMPDEST SWAP2 POP POP SWAP3 SWAP2 POP POP JUMP JUMPDEST PUSH2 0x2ED DUP2 PUSH2 0x1D4 JUMP JUMPDEST DUP3 MSTORE POP POP JUMP JUMPDEST PUSH0 PUSH1 0x20 DUP3 ADD SWAP1 POP PUSH2 0x306 PUSH0 DUP4 ADD DUP5 PUSH2 0x2E4 JUMP JUMPDEST SWAP3 SWAP2 POP POP JUMP JUMPDEST PUSH32 0x4E487B7100000000000000000000000000000000000000000000000000000000 PUSH0 MSTORE PUSH1 0x41 PUSH1 0x4 MSTORE PUSH1 0x24 PUSH0 REVERT INVALID LOG2 PUSH5 0x6970667358 0x22 SLT KECCAK256 PC 0xAA PUSH11 0x2E90F7055C0217D00524C5 DUP7 0x22 0x24 0xD4 LOG1 SLOAD POP MSTORE 0x24 POP 0x2F 0xE9 DUP4 ADD DIV BLOBBASEFEE PUSH19 0x2D64736F6C634300081A003300000000000000 "
				},
				"gasEstimates": {
					"creation": {
						"codeDepositCost": "175800",
						"executionCost": "218",
						"totalCost": "176018"
					},
					"external": {
						"getNumbers()": "infinite",
						"numbers(uint256)": "infinite",
						"pop()": "29463",
						"push(uint256)": "46777"
					}
				},
				"methodIdentifiers": {
					"getNumbers()": "89f915f6",
					"numbers(uint256)": "d39fa233",
					"pop()": "a4ece52c",
					"push(uint256)": "959ac484"
				}
			},
			"storageLayout": {
				"storage": [
					{
						"astId": 218,
						"contract": "solidity/soidity91~100.sol:Q97",
						"label": "numbers",
						"offset": 0,
						"slot": "0",
						"type": "t_array(t_uint256)dyn_storage"
					}
				],
				"types": {
					"t_array(t_uint256)dyn_storage": {
						"base": "t_uint256",
						"encoding": "dynamic_array",
						"label": "uint256[]",
						"numberOfBytes": "32"
					},
					"t_uint256": {
						"encoding": "inplace",
						"label": "uint256",
						"numberOfBytes": "32"
					}
				}
			},
			"userdoc": {
				"kind": "user",
				"methods": {},
				"version": 1
			}
		}
	}
}