{
	"solidity/soidity91~100.sol": {
		"Q99": {
			"abi": [
				{
					"inputs": [
						{
							"internalType": "uint256",
							"name": "_a",
							"type": "uint256"
						},
						{
							"internalType": "uint256",
							"name": "_b",
							"type": "uint256"
						},
						{
							"internalType": "uint256",
							"name": "_c",
							"type": "uint256"
						},
						{
							"internalType": "uint256",
							"name": "_d",
							"type": "uint256"
						}
					],
					"name": "findMaxMin",
					"outputs": [
						{
							"internalType": "uint256",
							"name": "_max",
							"type": "uint256"
						},
						{
							"internalType": "uint256",
							"name": "_min",
							"type": "uint256"
						}
					],
					"stateMutability": "pure",
					"type": "function"
				}
			],
			"devdoc": {
				"kind": "dev",
				"methods": {},
				"version": 1
			},
			"evm": {
				"assembly": "    /* \"solidity/soidity91~100.sol\":5836:6895  contract Q99 {... */\n  mstore(0x40, 0x80)\n  callvalue\n  dup1\n  iszero\n  tag_1\n  jumpi\n  0x00\n  dup1\n  revert\ntag_1:\n  pop\n  dataSize(sub_0)\n  dup1\n  dataOffset(sub_0)\n  0x00\n  codecopy\n  0x00\n  return\nstop\n\nsub_0: assembly {\n        /* \"solidity/soidity91~100.sol\":5836:6895  contract Q99 {... */\n      mstore(0x40, 0x80)\n      callvalue\n      dup1\n      iszero\n      tag_1\n      jumpi\n      0x00\n      dup1\n      revert\n    tag_1:\n      pop\n      jumpi(tag_2, lt(calldatasize, 0x04))\n      shr(0xe0, calldataload(0x00))\n      dup1\n      0x98e64d1e\n      eq\n      tag_3\n      jumpi\n    tag_2:\n      0x00\n      dup1\n      revert\n        /* \"solidity/soidity91~100.sol\":5970:6893  function findMaxMin(uint _a, uint _b, uint _c, uint _d) public pure returns (uint _max, uint _min) {... */\n    tag_3:\n      tag_4\n      0x04\n      dup1\n      calldatasize\n      sub\n      dup2\n      add\n      swap1\n      tag_5\n      swap2\n      swap1\n      tag_6\n      jump\t// in\n    tag_5:\n      tag_7\n      jump\t// in\n    tag_4:\n      mload(0x40)\n      tag_8\n      swap3\n      swap2\n      swap1\n      tag_9\n      jump\t// in\n    tag_8:\n      mload(0x40)\n      dup1\n      swap2\n      sub\n      swap1\n      return\n    tag_7:\n        /* \"solidity/soidity91~100.sol\":6047:6056  uint _max */\n      0x00\n        /* \"solidity/soidity91~100.sol\":6058:6067  uint _min */\n      dup1\n        /* \"solidity/soidity91~100.sol\":6115:6119  0x80 */\n      0x80\n        /* \"solidity/soidity91~100.sol\":6145:6147  _a */\n      dup7\n        /* \"solidity/soidity91~100.sol\":6139:6143  base */\n      dup2\n        /* \"solidity/soidity91~100.sol\":6132:6148  mstore(base, _a) */\n      mstore\n        /* \"solidity/soidity91~100.sol\":6185:6187  _b */\n      dup6\n        /* \"solidity/soidity91~100.sol\":6178:6182  0x20 */\n      0x20\n        /* \"solidity/soidity91~100.sol\":6172:6176  base */\n      dup3\n        /* \"solidity/soidity91~100.sol\":6168:6183  add(base, 0x20) */\n      add\n        /* \"solidity/soidity91~100.sol\":6161:6188  mstore(add(base, 0x20), _b) */\n      mstore\n        /* \"solidity/soidity91~100.sol\":6225:6227  _c */\n      dup5\n        /* \"solidity/soidity91~100.sol\":6218:6222  0x40 */\n      0x40\n        /* \"solidity/soidity91~100.sol\":6212:6216  base */\n      dup3\n        /* \"solidity/soidity91~100.sol\":6208:6223  add(base, 0x40) */\n      add\n        /* \"solidity/soidity91~100.sol\":6201:6228  mstore(add(base, 0x40), _c) */\n      mstore\n        /* \"solidity/soidity91~100.sol\":6265:6267  _d */\n      dup4\n        /* \"solidity/soidity91~100.sol\":6258:6262  0x60 */\n      0x60\n        /* \"solidity/soidity91~100.sol\":6252:6256  base */\n      dup3\n        /* \"solidity/soidity91~100.sol\":6248:6263  add(base, 0x60) */\n      add\n        /* \"solidity/soidity91~100.sol\":6241:6268  mstore(add(base, 0x60), _d) */\n      mstore\n        /* \"solidity/soidity91~100.sol\":6315:6319  base */\n      dup1\n        /* \"solidity/soidity91~100.sol\":6309:6320  mload(base) */\n      mload\n        /* \"solidity/soidity91~100.sol\":6354:6358  base */\n      dup2\n        /* \"solidity/soidity91~100.sol\":6348:6359  mload(base) */\n      mload\n        /* \"solidity/soidity91~100.sol\":6389:6393  base */\n      dup3\n        /* \"solidity/soidity91~100.sol\":6374:6719  for { let i := base } lt(i, add(base, 0x80)) { i := add(i, 0x20) } {... */\n    tag_11:\n        /* \"solidity/soidity91~100.sol\":6412:6416  0x80 */\n      0x80\n        /* \"solidity/soidity91~100.sol\":6406:6410  base */\n      dup5\n        /* \"solidity/soidity91~100.sol\":6402:6417  add(base, 0x80) */\n      add\n        /* \"solidity/soidity91~100.sol\":6399:6400  i */\n      dup2\n        /* \"solidity/soidity91~100.sol\":6396:6418  lt(i, add(base, 0x80)) */\n      lt\n        /* \"solidity/soidity91~100.sol\":6374:6719  for { let i := base } lt(i, add(base, 0x80)) { i := add(i, 0x20) } {... */\n      iszero\n      tag_13\n      jumpi\n        /* \"solidity/soidity91~100.sol\":6478:6479  i */\n      dup1\n        /* \"solidity/soidity91~100.sol\":6472:6480  mload(i) */\n      mload\n        /* \"solidity/soidity91~100.sol\":6527:6534  maxTemp */\n      dup4\n        /* \"solidity/soidity91~100.sol\":6520:6525  value */\n      dup2\n        /* \"solidity/soidity91~100.sol\":6517:6535  gt(value, maxTemp) */\n      gt\n        /* \"solidity/soidity91~100.sol\":6514:6592  if gt(value, maxTemp) {... */\n      iszero\n      tag_14\n      jumpi\n        /* \"solidity/soidity91~100.sol\":6569:6574  value */\n      dup1\n        /* \"solidity/soidity91~100.sol\":6558:6574  maxTemp := value */\n      swap4\n      pop\n        /* \"solidity/soidity91~100.sol\":6514:6592  if gt(value, maxTemp) {... */\n    tag_14:\n        /* \"solidity/soidity91~100.sol\":6640:6647  minTemp */\n      dup3\n        /* \"solidity/soidity91~100.sol\":6633:6638  value */\n      dup2\n        /* \"solidity/soidity91~100.sol\":6630:6648  lt(value, minTemp) */\n      lt\n        /* \"solidity/soidity91~100.sol\":6627:6705  if lt(value, minTemp) {... */\n      iszero\n      tag_15\n      jumpi\n        /* \"solidity/soidity91~100.sol\":6682:6687  value */\n      dup1\n        /* \"solidity/soidity91~100.sol\":6671:6687  minTemp := value */\n      swap3\n      pop\n        /* \"solidity/soidity91~100.sol\":6627:6705  if lt(value, minTemp) {... */\n    tag_15:\n        /* \"solidity/soidity91~100.sol\":6441:6719  {... */\n      pop\n        /* \"solidity/soidity91~100.sol\":6433:6437  0x20 */\n      0x20\n        /* \"solidity/soidity91~100.sol\":6430:6431  i */\n      dup2\n        /* \"solidity/soidity91~100.sol\":6426:6438  add(i, 0x20) */\n      add\n        /* \"solidity/soidity91~100.sol\":6421:6438  i := add(i, 0x20) */\n      swap1\n      pop\n        /* \"solidity/soidity91~100.sol\":6374:6719  for { let i := base } lt(i, add(base, 0x80)) { i := add(i, 0x20) } {... */\n      jump(tag_11)\n    tag_13:\n        /* \"solidity/soidity91~100.sol\":6378:6395  { let i := base } */\n      pop\n        /* \"solidity/soidity91~100.sol\":6758:6765  maxTemp */\n      dup2\n        /* \"solidity/soidity91~100.sol\":6752:6756  0x80 */\n      0x80\n        /* \"solidity/soidity91~100.sol\":6745:6766  mstore(0x80, maxTemp) */\n      mstore\n        /* \"solidity/soidity91~100.sol\":6792:6799  minTemp */\n      dup1\n        /* \"solidity/soidity91~100.sol\":6786:6790  0xa0 */\n      0xa0\n        /* \"solidity/soidity91~100.sol\":6779:6800  mstore(0xa0, minTemp) */\n      mstore\n        /* \"solidity/soidity91~100.sol\":6840:6844  0x80 */\n      0x80\n        /* \"solidity/soidity91~100.sol\":6834:6845  mload(0x80) */\n      mload\n        /* \"solidity/soidity91~100.sol\":6826:6845  _max := mload(0x80) */\n      swap5\n      pop\n        /* \"solidity/soidity91~100.sol\":6872:6876  0xa0 */\n      0xa0\n        /* \"solidity/soidity91~100.sol\":6866:6877  mload(0xa0) */\n      mload\n        /* \"solidity/soidity91~100.sol\":6858:6877  _min := mload(0xa0) */\n      swap4\n      pop\n        /* \"solidity/soidity91~100.sol\":6088:6887  {... */\n      pop\n      pop\n      pop\n        /* \"solidity/soidity91~100.sol\":5970:6893  function findMaxMin(uint _a, uint _b, uint _c, uint _d) public pure returns (uint _max, uint _min) {... */\n      swap5\n      pop\n      swap5\n      swap3\n      pop\n      pop\n      pop\n      jump\t// out\n        /* \"#utility.yul\":88:205   */\n    tag_17:\n        /* \"#utility.yul\":197:198   */\n      0x00\n        /* \"#utility.yul\":194:195   */\n      dup1\n        /* \"#utility.yul\":187:199   */\n      revert\n        /* \"#utility.yul\":334:411   */\n    tag_19:\n        /* \"#utility.yul\":371:378   */\n      0x00\n        /* \"#utility.yul\":400:405   */\n      dup2\n        /* \"#utility.yul\":389:405   */\n      swap1\n      pop\n        /* \"#utility.yul\":334:411   */\n      swap2\n      swap1\n      pop\n      jump\t// out\n        /* \"#utility.yul\":417:539   */\n    tag_20:\n        /* \"#utility.yul\":490:514   */\n      tag_29\n        /* \"#utility.yul\":508:513   */\n      dup2\n        /* \"#utility.yul\":490:514   */\n      tag_19\n      jump\t// in\n    tag_29:\n        /* \"#utility.yul\":483:488   */\n      dup2\n        /* \"#utility.yul\":480:515   */\n      eq\n        /* \"#utility.yul\":470:533   */\n      tag_30\n      jumpi\n        /* \"#utility.yul\":529:530   */\n      0x00\n        /* \"#utility.yul\":526:527   */\n      dup1\n        /* \"#utility.yul\":519:531   */\n      revert\n        /* \"#utility.yul\":470:533   */\n    tag_30:\n        /* \"#utility.yul\":417:539   */\n      pop\n      jump\t// out\n        /* \"#utility.yul\":545:684   */\n    tag_21:\n        /* \"#utility.yul\":591:596   */\n      0x00\n        /* \"#utility.yul\":629:635   */\n      dup2\n        /* \"#utility.yul\":616:636   */\n      calldataload\n        /* \"#utility.yul\":607:636   */\n      swap1\n      pop\n        /* \"#utility.yul\":645:678   */\n      tag_32\n        /* \"#utility.yul\":672:677   */\n      dup2\n        /* \"#utility.yul\":645:678   */\n      tag_20\n      jump\t// in\n    tag_32:\n        /* \"#utility.yul\":545:684   */\n      swap3\n      swap2\n      pop\n      pop\n      jump\t// out\n        /* \"#utility.yul\":690:1455   */\n    tag_6:\n        /* \"#utility.yul\":776:782   */\n      0x00\n        /* \"#utility.yul\":784:790   */\n      dup1\n        /* \"#utility.yul\":792:798   */\n      0x00\n        /* \"#utility.yul\":800:806   */\n      dup1\n        /* \"#utility.yul\":849:852   */\n      0x80\n        /* \"#utility.yul\":837:846   */\n      dup6\n        /* \"#utility.yul\":828:835   */\n      dup8\n        /* \"#utility.yul\":824:847   */\n      sub\n        /* \"#utility.yul\":820:853   */\n      slt\n        /* \"#utility.yul\":817:937   */\n      iszero\n      tag_34\n      jumpi\n        /* \"#utility.yul\":856:935   */\n      tag_35\n      tag_17\n      jump\t// in\n    tag_35:\n        /* \"#utility.yul\":817:937   */\n    tag_34:\n        /* \"#utility.yul\":976:977   */\n      0x00\n        /* \"#utility.yul\":1001:1054   */\n      tag_36\n        /* \"#utility.yul\":1046:1053   */\n      dup8\n        /* \"#utility.yul\":1037:1043   */\n      dup3\n        /* \"#utility.yul\":1026:1035   */\n      dup9\n        /* \"#utility.yul\":1022:1044   */\n      add\n        /* \"#utility.yul\":1001:1054   */\n      tag_21\n      jump\t// in\n    tag_36:\n        /* \"#utility.yul\":991:1054   */\n      swap5\n      pop\n        /* \"#utility.yul\":947:1064   */\n      pop\n        /* \"#utility.yul\":1103:1105   */\n      0x20\n        /* \"#utility.yul\":1129:1182   */\n      tag_37\n        /* \"#utility.yul\":1174:1181   */\n      dup8\n        /* \"#utility.yul\":1165:1171   */\n      dup3\n        /* \"#utility.yul\":1154:1163   */\n      dup9\n        /* \"#utility.yul\":1150:1172   */\n      add\n        /* \"#utility.yul\":1129:1182   */\n      tag_21\n      jump\t// in\n    tag_37:\n        /* \"#utility.yul\":1119:1182   */\n      swap4\n      pop\n        /* \"#utility.yul\":1074:1192   */\n      pop\n        /* \"#utility.yul\":1231:1233   */\n      0x40\n        /* \"#utility.yul\":1257:1310   */\n      tag_38\n        /* \"#utility.yul\":1302:1309   */\n      dup8\n        /* \"#utility.yul\":1293:1299   */\n      dup3\n        /* \"#utility.yul\":1282:1291   */\n      dup9\n        /* \"#utility.yul\":1278:1300   */\n      add\n        /* \"#utility.yul\":1257:1310   */\n      tag_21\n      jump\t// in\n    tag_38:\n        /* \"#utility.yul\":1247:1310   */\n      swap3\n      pop\n        /* \"#utility.yul\":1202:1320   */\n      pop\n        /* \"#utility.yul\":1359:1361   */\n      0x60\n        /* \"#utility.yul\":1385:1438   */\n      tag_39\n        /* \"#utility.yul\":1430:1437   */\n      dup8\n        /* \"#utility.yul\":1421:1427   */\n      dup3\n        /* \"#utility.yul\":1410:1419   */\n      dup9\n        /* \"#utility.yul\":1406:1428   */\n      add\n        /* \"#utility.yul\":1385:1438   */\n      tag_21\n      jump\t// in\n    tag_39:\n        /* \"#utility.yul\":1375:1438   */\n      swap2\n      pop\n        /* \"#utility.yul\":1330:1448   */\n      pop\n        /* \"#utility.yul\":690:1455   */\n      swap3\n      swap6\n      swap2\n      swap5\n      pop\n      swap3\n      pop\n      jump\t// out\n        /* \"#utility.yul\":1461:1579   */\n    tag_22:\n        /* \"#utility.yul\":1548:1572   */\n      tag_41\n        /* \"#utility.yul\":1566:1571   */\n      dup2\n        /* \"#utility.yul\":1548:1572   */\n      tag_19\n      jump\t// in\n    tag_41:\n        /* \"#utility.yul\":1543:1546   */\n      dup3\n        /* \"#utility.yul\":1536:1573   */\n      mstore\n        /* \"#utility.yul\":1461:1579   */\n      pop\n      pop\n      jump\t// out\n        /* \"#utility.yul\":1585:1917   */\n    tag_9:\n        /* \"#utility.yul\":1706:1710   */\n      0x00\n        /* \"#utility.yul\":1744:1746   */\n      0x40\n        /* \"#utility.yul\":1733:1742   */\n      dup3\n        /* \"#utility.yul\":1729:1747   */\n      add\n        /* \"#utility.yul\":1721:1747   */\n      swap1\n      pop\n        /* \"#utility.yul\":1757:1828   */\n      tag_43\n        /* \"#utility.yul\":1825:1826   */\n      0x00\n        /* \"#utility.yul\":1814:1823   */\n      dup4\n        /* \"#utility.yul\":1810:1827   */\n      add\n        /* \"#utility.yul\":1801:1807   */\n      dup6\n        /* \"#utility.yul\":1757:1828   */\n      tag_22\n      jump\t// in\n    tag_43:\n        /* \"#utility.yul\":1838:1910   */\n      tag_44\n        /* \"#utility.yul\":1906:1908   */\n      0x20\n        /* \"#utility.yul\":1895:1904   */\n      dup4\n        /* \"#utility.yul\":1891:1909   */\n      add\n        /* \"#utility.yul\":1882:1888   */\n      dup5\n        /* \"#utility.yul\":1838:1910   */\n      tag_22\n      jump\t// in\n    tag_44:\n        /* \"#utility.yul\":1585:1917   */\n      swap4\n      swap3\n      pop\n      pop\n      pop\n      jump\t// out\n\n    auxdata: 0xa264697066735822122048b3327ee22cb78a9ea87cb10ced399c9e94fde696c207e7ee0035d1ba8bab9064736f6c634300081a0033\n}\n",
				"bytecode": {
					"linkReferences": {},
					"object": "6080604052348015600e575f80fd5b506101d48061001c5f395ff3fe608060405234801561000f575f80fd5b5060043610610029575f3560e01c806398e64d1e1461002d575b5f80fd5b61004760048036038101906100429190610104565b61005e565b604051610055929190610177565b60405180910390f35b5f80608086815285602082015284604082015283606082015280518151825b608084018110156100ae57805183811115610096578093505b828110156100a2578092505b5060208101905061007d565b50816080528060a052608051945060a051935050505094509492505050565b5f80fd5b5f819050919050565b6100e3816100d1565b81146100ed575f80fd5b50565b5f813590506100fe816100da565b92915050565b5f805f806080858703121561011c5761011b6100cd565b5b5f610129878288016100f0565b945050602061013a878288016100f0565b935050604061014b878288016100f0565b925050606061015c878288016100f0565b91505092959194509250565b610171816100d1565b82525050565b5f60408201905061018a5f830185610168565b6101976020830184610168565b939250505056fea264697066735822122048b3327ee22cb78a9ea87cb10ced399c9e94fde696c207e7ee0035d1ba8bab9064736f6c634300081a0033",
					"opcodes": "PUSH1 0x80 PUSH1 0x40 MSTORE CALLVALUE DUP1 ISZERO PUSH1 0xE JUMPI PUSH0 DUP1 REVERT JUMPDEST POP PUSH2 0x1D4 DUP1 PUSH2 0x1C PUSH0 CODECOPY PUSH0 RETURN INVALID PUSH1 0x80 PUSH1 0x40 MSTORE CALLVALUE DUP1 ISZERO PUSH2 0xF JUMPI PUSH0 DUP1 REVERT JUMPDEST POP PUSH1 0x4 CALLDATASIZE LT PUSH2 0x29 JUMPI PUSH0 CALLDATALOAD PUSH1 0xE0 SHR DUP1 PUSH4 0x98E64D1E EQ PUSH2 0x2D JUMPI JUMPDEST PUSH0 DUP1 REVERT JUMPDEST PUSH2 0x47 PUSH1 0x4 DUP1 CALLDATASIZE SUB DUP2 ADD SWAP1 PUSH2 0x42 SWAP2 SWAP1 PUSH2 0x104 JUMP JUMPDEST PUSH2 0x5E JUMP JUMPDEST PUSH1 0x40 MLOAD PUSH2 0x55 SWAP3 SWAP2 SWAP1 PUSH2 0x177 JUMP JUMPDEST PUSH1 0x40 MLOAD DUP1 SWAP2 SUB SWAP1 RETURN JUMPDEST PUSH0 DUP1 PUSH1 0x80 DUP7 DUP2 MSTORE DUP6 PUSH1 0x20 DUP3 ADD MSTORE DUP5 PUSH1 0x40 DUP3 ADD MSTORE DUP4 PUSH1 0x60 DUP3 ADD MSTORE DUP1 MLOAD DUP2 MLOAD DUP3 JUMPDEST PUSH1 0x80 DUP5 ADD DUP2 LT ISZERO PUSH2 0xAE JUMPI DUP1 MLOAD DUP4 DUP2 GT ISZERO PUSH2 0x96 JUMPI DUP1 SWAP4 POP JUMPDEST DUP3 DUP2 LT ISZERO PUSH2 0xA2 JUMPI DUP1 SWAP3 POP JUMPDEST POP PUSH1 0x20 DUP2 ADD SWAP1 POP PUSH2 0x7D JUMP JUMPDEST POP DUP2 PUSH1 0x80 MSTORE DUP1 PUSH1 0xA0 MSTORE PUSH1 0x80 MLOAD SWAP5 POP PUSH1 0xA0 MLOAD SWAP4 POP POP POP POP SWAP5 POP SWAP5 SWAP3 POP POP POP JUMP JUMPDEST PUSH0 DUP1 REVERT JUMPDEST PUSH0 DUP2 SWAP1 POP SWAP2 SWAP1 POP JUMP JUMPDEST PUSH2 0xE3 DUP2 PUSH2 0xD1 JUMP JUMPDEST DUP2 EQ PUSH2 0xED JUMPI PUSH0 DUP1 REVERT JUMPDEST POP JUMP JUMPDEST PUSH0 DUP2 CALLDATALOAD SWAP1 POP PUSH2 0xFE DUP2 PUSH2 0xDA JUMP JUMPDEST SWAP3 SWAP2 POP POP JUMP JUMPDEST PUSH0 DUP1 PUSH0 DUP1 PUSH1 0x80 DUP6 DUP8 SUB SLT ISZERO PUSH2 0x11C JUMPI PUSH2 0x11B PUSH2 0xCD JUMP JUMPDEST JUMPDEST PUSH0 PUSH2 0x129 DUP8 DUP3 DUP9 ADD PUSH2 0xF0 JUMP JUMPDEST SWAP5 POP POP PUSH1 0x20 PUSH2 0x13A DUP8 DUP3 DUP9 ADD PUSH2 0xF0 JUMP JUMPDEST SWAP4 POP POP PUSH1 0x40 PUSH2 0x14B DUP8 DUP3 DUP9 ADD PUSH2 0xF0 JUMP JUMPDEST SWAP3 POP POP PUSH1 0x60 PUSH2 0x15C DUP8 DUP3 DUP9 ADD PUSH2 0xF0 JUMP JUMPDEST SWAP2 POP POP SWAP3 SWAP6 SWAP2 SWAP5 POP SWAP3 POP JUMP JUMPDEST PUSH2 0x171 DUP2 PUSH2 0xD1 JUMP JUMPDEST DUP3 MSTORE POP POP JUMP JUMPDEST PUSH0 PUSH1 0x40 DUP3 ADD SWAP1 POP PUSH2 0x18A PUSH0 DUP4 ADD DUP6 PUSH2 0x168 JUMP JUMPDEST PUSH2 0x197 PUSH1 0x20 DUP4 ADD DUP5 PUSH2 0x168 JUMP JUMPDEST SWAP4 SWAP3 POP POP POP JUMP INVALID LOG2 PUSH5 0x6970667358 0x22 SLT KECCAK256 BASEFEE 0xB3 ORIGIN PUSH31 0xE22CB78A9EA87CB10CED399C9E94FDE696C207E7EE0035D1BA8BAB9064736F PUSH13 0x634300081A0033000000000000 "
				},
				"gasEstimates": {
					"creation": {
						"codeDepositCost": "93600",
						"executionCost": "139",
						"totalCost": "93739"
					},
					"external": {
						"findMaxMin(uint256,uint256,uint256,uint256)": "infinite"
					}
				},
				"methodIdentifiers": {
					"findMaxMin(uint256,uint256,uint256,uint256)": "98e64d1e"
				}
			},
			"storageLayout": {
				"storage": [],
				"types": null
			},
			"userdoc": {
				"kind": "user",
				"methods": {},
				"version": 1
			}
		}
	}
}