{
	"solidity/soidity91~100.sol": {
		"Q95": {
			"abi": [
				{
					"inputs": [
						{
							"internalType": "uint256",
							"name": "_a",
							"type": "uint256"
						},
						{
							"internalType": "uint256",
							"name": "_b",
							"type": "uint256"
						},
						{
							"internalType": "uint256",
							"name": "_c",
							"type": "uint256"
						}
					],
					"name": "add",
					"outputs": [
						{
							"internalType": "uint256",
							"name": "result",
							"type": "uint256"
						}
					],
					"stateMutability": "pure",
					"type": "function"
				},
				{
					"inputs": [
						{
							"internalType": "uint256",
							"name": "_a",
							"type": "uint256"
						},
						{
							"internalType": "uint256",
							"name": "_b",
							"type": "uint256"
						},
						{
							"internalType": "uint256",
							"name": "_c",
							"type": "uint256"
						}
					],
					"name": "mul",
					"outputs": [
						{
							"internalType": "uint256",
							"name": "result",
							"type": "uint256"
						}
					],
					"stateMutability": "pure",
					"type": "function"
				}
			],
			"devdoc": {
				"kind": "dev",
				"methods": {},
				"version": 1
			},
			"evm": {
				"assembly": "    /* \"solidity/soidity91~100.sol\":2298:2909  contract Q95 {... */\n  mstore(0x40, 0x80)\n  callvalue\n  dup1\n  iszero\n  tag_1\n  jumpi\n  0x00\n  dup1\n  revert\ntag_1:\n  pop\n  dataSize(sub_0)\n  dup1\n  dataOffset(sub_0)\n  0x00\n  codecopy\n  0x00\n  return\nstop\n\nsub_0: assembly {\n        /* \"solidity/soidity91~100.sol\":2298:2909  contract Q95 {... */\n      mstore(0x40, 0x80)\n      callvalue\n      dup1\n      iszero\n      tag_1\n      jumpi\n      0x00\n      dup1\n      revert\n    tag_1:\n      pop\n      jumpi(tag_2, lt(calldatasize, 0x04))\n      shr(0xe0, calldataload(0x00))\n      dup1\n      0x505fb46c\n      eq\n      tag_3\n      jumpi\n      dup1\n      0xe91cac2d\n      eq\n      tag_4\n      jumpi\n    tag_2:\n      0x00\n      dup1\n      revert\n        /* \"solidity/soidity91~100.sol\":2433:2663  function add(uint _a, uint _b, uint _c) public pure returns (uint result) {... */\n    tag_3:\n      tag_5\n      0x04\n      dup1\n      calldatasize\n      sub\n      dup2\n      add\n      swap1\n      tag_6\n      swap2\n      swap1\n      tag_7\n      jump\t// in\n    tag_6:\n      tag_8\n      jump\t// in\n    tag_5:\n      mload(0x40)\n      tag_9\n      swap2\n      swap1\n      tag_10\n      jump\t// in\n    tag_9:\n      mload(0x40)\n      dup1\n      swap2\n      sub\n      swap1\n      return\n        /* \"solidity/soidity91~100.sol\":2669:2907  function mul(uint _a, uint _b, uint _c) public pure returns (uint result) {... */\n    tag_4:\n      tag_11\n      0x04\n      dup1\n      calldatasize\n      sub\n      dup2\n      add\n      swap1\n      tag_12\n      swap2\n      swap1\n      tag_7\n      jump\t// in\n    tag_12:\n      tag_13\n      jump\t// in\n    tag_11:\n      mload(0x40)\n      tag_14\n      swap2\n      swap1\n      tag_10\n      jump\t// in\n    tag_14:\n      mload(0x40)\n      dup1\n      swap2\n      sub\n      swap1\n      return\n        /* \"solidity/soidity91~100.sol\":2433:2663  function add(uint _a, uint _b, uint _c) public pure returns (uint result) {... */\n    tag_8:\n        /* \"solidity/soidity91~100.sol\":2494:2505  uint result */\n      0x00\n        /* \"solidity/soidity91~100.sol\":2574:2576  _c */\n      dup2\n        /* \"solidity/soidity91~100.sol\":2569:2571  _b */\n      dup4\n        /* \"solidity/soidity91~100.sol\":2565:2567  _a */\n      dup6\n        /* \"solidity/soidity91~100.sol\":2561:2572  add(_a, _b) */\n      add\n        /* \"solidity/soidity91~100.sol\":2557:2577  add(add(_a, _b), _c) */\n      add\n        /* \"solidity/soidity91~100.sol\":2603:2612  sumResult */\n      dup1\n        /* \"solidity/soidity91~100.sol\":2597:2601  0x80 */\n      0x80\n        /* \"solidity/soidity91~100.sol\":2590:2613  mstore(0x80, sumResult) */\n      mstore\n        /* \"solidity/soidity91~100.sol\":2642:2646  0x80 */\n      0x80\n        /* \"solidity/soidity91~100.sol\":2636:2647  mload(0x80) */\n      mload\n        /* \"solidity/soidity91~100.sol\":2626:2647  result := mload(0x80) */\n      swap2\n      pop\n        /* \"solidity/soidity91~100.sol\":2526:2657  {... */\n      pop\n        /* \"solidity/soidity91~100.sol\":2433:2663  function add(uint _a, uint _b, uint _c) public pure returns (uint result) {... */\n      swap4\n      swap3\n      pop\n      pop\n      pop\n      jump\t// out\n        /* \"solidity/soidity91~100.sol\":2669:2907  function mul(uint _a, uint _b, uint _c) public pure returns (uint result) {... */\n    tag_13:\n        /* \"solidity/soidity91~100.sol\":2730:2741  uint result */\n      0x00\n        /* \"solidity/soidity91~100.sol\":2814:2816  _c */\n      dup2\n        /* \"solidity/soidity91~100.sol\":2809:2811  _b */\n      dup4\n        /* \"solidity/soidity91~100.sol\":2805:2807  _a */\n      dup6\n        /* \"solidity/soidity91~100.sol\":2801:2812  mul(_a, _b) */\n      mul\n        /* \"solidity/soidity91~100.sol\":2797:2817  mul(mul(_a, _b), _c) */\n      mul\n        /* \"solidity/soidity91~100.sol\":2843:2856  productResult */\n      dup1\n        /* \"solidity/soidity91~100.sol\":2837:2841  0x80 */\n      0x80\n        /* \"solidity/soidity91~100.sol\":2830:2857  mstore(0x80, productResult) */\n      mstore\n        /* \"solidity/soidity91~100.sol\":2886:2890  0x80 */\n      0x80\n        /* \"solidity/soidity91~100.sol\":2880:2891  mload(0x80) */\n      mload\n        /* \"solidity/soidity91~100.sol\":2870:2891  result := mload(0x80) */\n      swap2\n      pop\n        /* \"solidity/soidity91~100.sol\":2762:2901  {... */\n      pop\n        /* \"solidity/soidity91~100.sol\":2669:2907  function mul(uint _a, uint _b, uint _c) public pure returns (uint result) {... */\n      swap4\n      swap3\n      pop\n      pop\n      pop\n      jump\t// out\n        /* \"#utility.yul\":88:205   */\n    tag_18:\n        /* \"#utility.yul\":197:198   */\n      0x00\n        /* \"#utility.yul\":194:195   */\n      dup1\n        /* \"#utility.yul\":187:199   */\n      revert\n        /* \"#utility.yul\":334:411   */\n    tag_20:\n        /* \"#utility.yul\":371:378   */\n      0x00\n        /* \"#utility.yul\":400:405   */\n      dup2\n        /* \"#utility.yul\":389:405   */\n      swap1\n      pop\n        /* \"#utility.yul\":334:411   */\n      swap2\n      swap1\n      pop\n      jump\t// out\n        /* \"#utility.yul\":417:539   */\n    tag_21:\n        /* \"#utility.yul\":490:514   */\n      tag_30\n        /* \"#utility.yul\":508:513   */\n      dup2\n        /* \"#utility.yul\":490:514   */\n      tag_20\n      jump\t// in\n    tag_30:\n        /* \"#utility.yul\":483:488   */\n      dup2\n        /* \"#utility.yul\":480:515   */\n      eq\n        /* \"#utility.yul\":470:533   */\n      tag_31\n      jumpi\n        /* \"#utility.yul\":529:530   */\n      0x00\n        /* \"#utility.yul\":526:527   */\n      dup1\n        /* \"#utility.yul\":519:531   */\n      revert\n        /* \"#utility.yul\":470:533   */\n    tag_31:\n        /* \"#utility.yul\":417:539   */\n      pop\n      jump\t// out\n        /* \"#utility.yul\":545:684   */\n    tag_22:\n        /* \"#utility.yul\":591:596   */\n      0x00\n        /* \"#utility.yul\":629:635   */\n      dup2\n        /* \"#utility.yul\":616:636   */\n      calldataload\n        /* \"#utility.yul\":607:636   */\n      swap1\n      pop\n        /* \"#utility.yul\":645:678   */\n      tag_33\n        /* \"#utility.yul\":672:677   */\n      dup2\n        /* \"#utility.yul\":645:678   */\n      tag_21\n      jump\t// in\n    tag_33:\n        /* \"#utility.yul\":545:684   */\n      swap3\n      swap2\n      pop\n      pop\n      jump\t// out\n        /* \"#utility.yul\":690:1309   */\n    tag_7:\n        /* \"#utility.yul\":767:773   */\n      0x00\n        /* \"#utility.yul\":775:781   */\n      dup1\n        /* \"#utility.yul\":783:789   */\n      0x00\n        /* \"#utility.yul\":832:834   */\n      0x60\n        /* \"#utility.yul\":820:829   */\n      dup5\n        /* \"#utility.yul\":811:818   */\n      dup7\n        /* \"#utility.yul\":807:830   */\n      sub\n        /* \"#utility.yul\":803:835   */\n      slt\n        /* \"#utility.yul\":800:919   */\n      iszero\n      tag_35\n      jumpi\n        /* \"#utility.yul\":838:917   */\n      tag_36\n      tag_18\n      jump\t// in\n    tag_36:\n        /* \"#utility.yul\":800:919   */\n    tag_35:\n        /* \"#utility.yul\":958:959   */\n      0x00\n        /* \"#utility.yul\":983:1036   */\n      tag_37\n        /* \"#utility.yul\":1028:1035   */\n      dup7\n        /* \"#utility.yul\":1019:1025   */\n      dup3\n        /* \"#utility.yul\":1008:1017   */\n      dup8\n        /* \"#utility.yul\":1004:1026   */\n      add\n        /* \"#utility.yul\":983:1036   */\n      tag_22\n      jump\t// in\n    tag_37:\n        /* \"#utility.yul\":973:1036   */\n      swap4\n      pop\n        /* \"#utility.yul\":929:1046   */\n      pop\n        /* \"#utility.yul\":1085:1087   */\n      0x20\n        /* \"#utility.yul\":1111:1164   */\n      tag_38\n        /* \"#utility.yul\":1156:1163   */\n      dup7\n        /* \"#utility.yul\":1147:1153   */\n      dup3\n        /* \"#utility.yul\":1136:1145   */\n      dup8\n        /* \"#utility.yul\":1132:1154   */\n      add\n        /* \"#utility.yul\":1111:1164   */\n      tag_22\n      jump\t// in\n    tag_38:\n        /* \"#utility.yul\":1101:1164   */\n      swap3\n      pop\n        /* \"#utility.yul\":1056:1174   */\n      pop\n        /* \"#utility.yul\":1213:1215   */\n      0x40\n        /* \"#utility.yul\":1239:1292   */\n      tag_39\n        /* \"#utility.yul\":1284:1291   */\n      dup7\n        /* \"#utility.yul\":1275:1281   */\n      dup3\n        /* \"#utility.yul\":1264:1273   */\n      dup8\n        /* \"#utility.yul\":1260:1282   */\n      add\n        /* \"#utility.yul\":1239:1292   */\n      tag_22\n      jump\t// in\n    tag_39:\n        /* \"#utility.yul\":1229:1292   */\n      swap2\n      pop\n        /* \"#utility.yul\":1184:1302   */\n      pop\n        /* \"#utility.yul\":690:1309   */\n      swap3\n      pop\n      swap3\n      pop\n      swap3\n      jump\t// out\n        /* \"#utility.yul\":1315:1433   */\n    tag_23:\n        /* \"#utility.yul\":1402:1426   */\n      tag_41\n        /* \"#utility.yul\":1420:1425   */\n      dup2\n        /* \"#utility.yul\":1402:1426   */\n      tag_20\n      jump\t// in\n    tag_41:\n        /* \"#utility.yul\":1397:1400   */\n      dup3\n        /* \"#utility.yul\":1390:1427   */\n      mstore\n        /* \"#utility.yul\":1315:1433   */\n      pop\n      pop\n      jump\t// out\n        /* \"#utility.yul\":1439:1661   */\n    tag_10:\n        /* \"#utility.yul\":1532:1536   */\n      0x00\n        /* \"#utility.yul\":1570:1572   */\n      0x20\n        /* \"#utility.yul\":1559:1568   */\n      dup3\n        /* \"#utility.yul\":1555:1573   */\n      add\n        /* \"#utility.yul\":1547:1573   */\n      swap1\n      pop\n        /* \"#utility.yul\":1583:1654   */\n      tag_43\n        /* \"#utility.yul\":1651:1652   */\n      0x00\n        /* \"#utility.yul\":1640:1649   */\n      dup4\n        /* \"#utility.yul\":1636:1653   */\n      add\n        /* \"#utility.yul\":1627:1633   */\n      dup5\n        /* \"#utility.yul\":1583:1654   */\n      tag_23\n      jump\t// in\n    tag_43:\n        /* \"#utility.yul\":1439:1661   */\n      swap3\n      swap2\n      pop\n      pop\n      jump\t// out\n\n    auxdata: 0xa26469706673582212208f0c63a5c6544a66e2c2aab2ba7f28f40eea73b14dfe16227225170baefb16ae64736f6c634300081a0033\n}\n",
				"bytecode": {
					"linkReferences": {},
					"object": "6080604052348015600e575f80fd5b506101ab8061001c5f395ff3fe608060405234801561000f575f80fd5b5060043610610034575f3560e01c8063505fb46c14610038578063e91cac2d14610068575b5f80fd5b610052600480360381019061004d91906100fd565b610098565b60405161005f919061015c565b60405180910390f35b610082600480360381019061007d91906100fd565b6100af565b60405161008f919061015c565b60405180910390f35b5f8183850101806080526080519150509392505050565b5f8183850202806080526080519150509392505050565b5f80fd5b5f819050919050565b6100dc816100ca565b81146100e6575f80fd5b50565b5f813590506100f7816100d3565b92915050565b5f805f60608486031215610114576101136100c6565b5b5f610121868287016100e9565b9350506020610132868287016100e9565b9250506040610143868287016100e9565b9150509250925092565b610156816100ca565b82525050565b5f60208201905061016f5f83018461014d565b9291505056fea26469706673582212208f0c63a5c6544a66e2c2aab2ba7f28f40eea73b14dfe16227225170baefb16ae64736f6c634300081a0033",
					"opcodes": "PUSH1 0x80 PUSH1 0x40 MSTORE CALLVALUE DUP1 ISZERO PUSH1 0xE JUMPI PUSH0 DUP1 REVERT JUMPDEST POP PUSH2 0x1AB DUP1 PUSH2 0x1C PUSH0 CODECOPY PUSH0 RETURN INVALID PUSH1 0x80 PUSH1 0x40 MSTORE CALLVALUE DUP1 ISZERO PUSH2 0xF JUMPI PUSH0 DUP1 REVERT JUMPDEST POP PUSH1 0x4 CALLDATASIZE LT PUSH2 0x34 JUMPI PUSH0 CALLDATALOAD PUSH1 0xE0 SHR DUP1 PUSH4 0x505FB46C EQ PUSH2 0x38 JUMPI DUP1 PUSH4 0xE91CAC2D EQ PUSH2 0x68 JUMPI JUMPDEST PUSH0 DUP1 REVERT JUMPDEST PUSH2 0x52 PUSH1 0x4 DUP1 CALLDATASIZE SUB DUP2 ADD SWAP1 PUSH2 0x4D SWAP2 SWAP1 PUSH2 0xFD JUMP JUMPDEST PUSH2 0x98 JUMP JUMPDEST PUSH1 0x40 MLOAD PUSH2 0x5F SWAP2 SWAP1 PUSH2 0x15C JUMP JUMPDEST PUSH1 0x40 MLOAD DUP1 SWAP2 SUB SWAP1 RETURN JUMPDEST PUSH2 0x82 PUSH1 0x4 DUP1 CALLDATASIZE SUB DUP2 ADD SWAP1 PUSH2 0x7D SWAP2 SWAP1 PUSH2 0xFD JUMP JUMPDEST PUSH2 0xAF JUMP JUMPDEST PUSH1 0x40 MLOAD PUSH2 0x8F SWAP2 SWAP1 PUSH2 0x15C JUMP JUMPDEST PUSH1 0x40 MLOAD DUP1 SWAP2 SUB SWAP1 RETURN JUMPDEST PUSH0 DUP2 DUP4 DUP6 ADD ADD DUP1 PUSH1 0x80 MSTORE PUSH1 0x80 MLOAD SWAP2 POP POP SWAP4 SWAP3 POP POP POP JUMP JUMPDEST PUSH0 DUP2 DUP4 DUP6 MUL MUL DUP1 PUSH1 0x80 MSTORE PUSH1 0x80 MLOAD SWAP2 POP POP SWAP4 SWAP3 POP POP POP JUMP JUMPDEST PUSH0 DUP1 REVERT JUMPDEST PUSH0 DUP2 SWAP1 POP SWAP2 SWAP1 POP JUMP JUMPDEST PUSH2 0xDC DUP2 PUSH2 0xCA JUMP JUMPDEST DUP2 EQ PUSH2 0xE6 JUMPI PUSH0 DUP1 REVERT JUMPDEST POP JUMP JUMPDEST PUSH0 DUP2 CALLDATALOAD SWAP1 POP PUSH2 0xF7 DUP2 PUSH2 0xD3 JUMP JUMPDEST SWAP3 SWAP2 POP POP JUMP JUMPDEST PUSH0 DUP1 PUSH0 PUSH1 0x60 DUP5 DUP7 SUB SLT ISZERO PUSH2 0x114 JUMPI PUSH2 0x113 PUSH2 0xC6 JUMP JUMPDEST JUMPDEST PUSH0 PUSH2 0x121 DUP7 DUP3 DUP8 ADD PUSH2 0xE9 JUMP JUMPDEST SWAP4 POP POP PUSH1 0x20 PUSH2 0x132 DUP7 DUP3 DUP8 ADD PUSH2 0xE9 JUMP JUMPDEST SWAP3 POP POP PUSH1 0x40 PUSH2 0x143 DUP7 DUP3 DUP8 ADD PUSH2 0xE9 JUMP JUMPDEST SWAP2 POP POP SWAP3 POP SWAP3 POP SWAP3 JUMP JUMPDEST PUSH2 0x156 DUP2 PUSH2 0xCA JUMP JUMPDEST DUP3 MSTORE POP POP JUMP JUMPDEST PUSH0 PUSH1 0x20 DUP3 ADD SWAP1 POP PUSH2 0x16F PUSH0 DUP4 ADD DUP5 PUSH2 0x14D JUMP JUMPDEST SWAP3 SWAP2 POP POP JUMP INVALID LOG2 PUSH5 0x6970667358 0x22 SLT KECCAK256 DUP16 0xC PUSH4 0xA5C6544A PUSH7 0xE2C2AAB2BA7F28 DELEGATECALL 0xE 0xEA PUSH20 0xB14DFE16227225170BAEFB16AE64736F6C634300 ADDMOD BYTE STOP CALLER "
				},
				"gasEstimates": {
					"creation": {
						"codeDepositCost": "85400",
						"executionCost": "133",
						"totalCost": "85533"
					},
					"external": {
						"add(uint256,uint256,uint256)": "infinite",
						"mul(uint256,uint256,uint256)": "infinite"
					}
				},
				"methodIdentifiers": {
					"add(uint256,uint256,uint256)": "505fb46c",
					"mul(uint256,uint256,uint256)": "e91cac2d"
				}
			},
			"storageLayout": {
				"storage": [],
				"types": null
			},
			"userdoc": {
				"kind": "user",
				"methods": {},
				"version": 1
			}
		}
	}
}