{
	"solidity/solidity81~90.sol": {
		"Q89": {
			"abi": [
				{
					"inputs": [
						{
							"internalType": "address",
							"name": "",
							"type": "address"
						}
					],
					"name": "customers",
					"outputs": [
						{
							"internalType": "string",
							"name": "name",
							"type": "string"
						},
						{
							"internalType": "string",
							"name": "introduction",
							"type": "string"
						}
					],
					"stateMutability": "view",
					"type": "function"
				},
				{
					"inputs": [
						{
							"internalType": "address",
							"name": "_customerAddress",
							"type": "address"
						}
					],
					"name": "getCustomer",
					"outputs": [
						{
							"internalType": "string",
							"name": "name",
							"type": "string"
						},
						{
							"internalType": "string",
							"name": "introduction",
							"type": "string"
						}
					],
					"stateMutability": "view",
					"type": "function"
				},
				{
					"inputs": [
						{
							"internalType": "string",
							"name": "_name",
							"type": "string"
						},
						{
							"internalType": "string",
							"name": "_introduction",
							"type": "string"
						}
					],
					"name": "registerCustomer",
					"outputs": [],
					"stateMutability": "nonpayable",
					"type": "function"
				}
			],
			"devdoc": {
				"kind": "dev",
				"methods": {},
				"version": 1
			},
			"evm": {
				"assembly": "    /* \"solidity/solidity81~90.sol\":7113:8221  contract Q89 {... */\n  mstore(0x40, 0x80)\n  callvalue\n  dup1\n  iszero\n  tag_1\n  jumpi\n  0x00\n  dup1\n  revert\ntag_1:\n  pop\n  dataSize(sub_0)\n  dup1\n  dataOffset(sub_0)\n  0x00\n  codecopy\n  0x00\n  return\nstop\n\nsub_0: assembly {\n        /* \"solidity/solidity81~90.sol\":7113:8221  contract Q89 {... */\n      mstore(0x40, 0x80)\n      callvalue\n      dup1\n      iszero\n      tag_1\n      jumpi\n      0x00\n      dup1\n      revert\n    tag_1:\n      pop\n      jumpi(tag_2, lt(calldatasize, 0x04))\n      shr(0xe0, calldataload(0x00))\n      dup1\n      0x336989ae\n      eq\n      tag_3\n      jumpi\n      dup1\n      0xcb949e51\n      eq\n      tag_4\n      jumpi\n      dup1\n      0xdb0f9894\n      eq\n      tag_5\n      jumpi\n    tag_2:\n      0x00\n      dup1\n      revert\n        /* \"solidity/solidity81~90.sol\":7496:7541  mapping(address => Customer) public customers */\n    tag_3:\n      tag_6\n      0x04\n      dup1\n      calldatasize\n      sub\n      dup2\n      add\n      swap1\n      tag_7\n      swap2\n      swap1\n      tag_8\n      jump\t// in\n    tag_7:\n      tag_9\n      jump\t// in\n    tag_6:\n      mload(0x40)\n      tag_10\n      swap3\n      swap2\n      swap1\n      tag_11\n      jump\t// in\n    tag_10:\n      mload(0x40)\n      dup1\n      swap2\n      sub\n      swap1\n      return\n        /* \"solidity/solidity81~90.sol\":7977:8219  function getCustomer(address _customerAddress) public view returns (string memory name, string memory introduction) {... */\n    tag_4:\n      tag_12\n      0x04\n      dup1\n      calldatasize\n      sub\n      dup2\n      add\n      swap1\n      tag_13\n      swap2\n      swap1\n      tag_8\n      jump\t// in\n    tag_13:\n      tag_14\n      jump\t// in\n    tag_12:\n      mload(0x40)\n      tag_15\n      swap3\n      swap2\n      swap1\n      tag_11\n      jump\t// in\n    tag_15:\n      mload(0x40)\n      dup1\n      swap2\n      sub\n      swap1\n      return\n        /* \"solidity/solidity81~90.sol\":7548:7971  function registerCustomer(string memory _name, string memory _introduction) public {... */\n    tag_5:\n      tag_16\n      0x04\n      dup1\n      calldatasize\n      sub\n      dup2\n      add\n      swap1\n      tag_17\n      swap2\n      swap1\n      tag_18\n      jump\t// in\n    tag_17:\n      tag_19\n      jump\t// in\n    tag_16:\n      stop\n        /* \"solidity/solidity81~90.sol\":7496:7541  mapping(address => Customer) public customers */\n    tag_9:\n      mstore(0x20, 0x00)\n      dup1\n      0x00\n      mstore\n      keccak256(0x00, 0x40)\n      0x00\n      swap2\n      pop\n      swap1\n      pop\n      dup1\n      0x00\n      add\n      dup1\n      sload\n      tag_20\n      swap1\n      tag_21\n      jump\t// in\n    tag_20:\n      dup1\n      0x1f\n      add\n      0x20\n      dup1\n      swap2\n      div\n      mul\n      0x20\n      add\n      mload(0x40)\n      swap1\n      dup2\n      add\n      0x40\n      mstore\n      dup1\n      swap3\n      swap2\n      swap1\n      dup2\n      dup2\n      mstore\n      0x20\n      add\n      dup3\n      dup1\n      sload\n      tag_22\n      swap1\n      tag_21\n      jump\t// in\n    tag_22:\n      dup1\n      iszero\n      tag_23\n      jumpi\n      dup1\n      0x1f\n      lt\n      tag_24\n      jumpi\n      0x0100\n      dup1\n      dup4\n      sload\n      div\n      mul\n      dup4\n      mstore\n      swap2\n      0x20\n      add\n      swap2\n      jump(tag_23)\n    tag_24:\n      dup3\n      add\n      swap2\n      swap1\n      0x00\n      mstore\n      keccak256(0x00, 0x20)\n      swap1\n    tag_25:\n      dup2\n      sload\n      dup2\n      mstore\n      swap1\n      0x01\n      add\n      swap1\n      0x20\n      add\n      dup1\n      dup4\n      gt\n      tag_25\n      jumpi\n      dup3\n      swap1\n      sub\n      0x1f\n      and\n      dup3\n      add\n      swap2\n    tag_23:\n      pop\n      pop\n      pop\n      pop\n      pop\n      swap1\n      dup1\n      0x01\n      add\n      dup1\n      sload\n      tag_26\n      swap1\n      tag_21\n      jump\t// in\n    tag_26:\n      dup1\n      0x1f\n      add\n      0x20\n      dup1\n      swap2\n      div\n      mul\n      0x20\n      add\n      mload(0x40)\n      swap1\n      dup2\n      add\n      0x40\n      mstore\n      dup1\n      swap3\n      swap2\n      swap1\n      dup2\n      dup2\n      mstore\n      0x20\n      add\n      dup3\n      dup1\n      sload\n      tag_27\n      swap1\n      tag_21\n      jump\t// in\n    tag_27:\n      dup1\n      iszero\n      tag_28\n      jumpi\n      dup1\n      0x1f\n      lt\n      tag_29\n      jumpi\n      0x0100\n      dup1\n      dup4\n      sload\n      div\n      mul\n      dup4\n      mstore\n      swap2\n      0x20\n      add\n      swap2\n      jump(tag_28)\n    tag_29:\n      dup3\n      add\n      swap2\n      swap1\n      0x00\n      mstore\n      keccak256(0x00, 0x20)\n      swap1\n    tag_30:\n      dup2\n      sload\n      dup2\n      mstore\n      swap1\n      0x01\n      add\n      swap1\n      0x20\n      add\n      dup1\n      dup4\n      gt\n      tag_30\n      jumpi\n      dup3\n      swap1\n      sub\n      0x1f\n      and\n      dup3\n      add\n      swap2\n    tag_28:\n      pop\n      pop\n      pop\n      pop\n      pop\n      swap1\n      pop\n      dup3\n      jump\t// out\n        /* \"solidity/solidity81~90.sol\":7977:8219  function getCustomer(address _customerAddress) public view returns (string memory name, string memory introduction) {... */\n    tag_14:\n        /* \"solidity/solidity81~90.sol\":8045:8063  string memory name */\n      0x60\n        /* \"solidity/solidity81~90.sol\":8065:8091  string memory introduction */\n      dup1\n        /* \"solidity/solidity81~90.sol\":8103:8127  Customer memory customer */\n      0x00\n        /* \"solidity/solidity81~90.sol\":8130:8139  customers */\n      dup1\n        /* \"solidity/solidity81~90.sol\":8130:8157  customers[_customerAddress] */\n      0x00\n        /* \"solidity/solidity81~90.sol\":8140:8156  _customerAddress */\n      dup6\n        /* \"solidity/solidity81~90.sol\":8130:8157  customers[_customerAddress] */\n      0xffffffffffffffffffffffffffffffffffffffff\n      and\n      0xffffffffffffffffffffffffffffffffffffffff\n      and\n      dup2\n      mstore\n      0x20\n      add\n      swap1\n      dup2\n      mstore\n      0x20\n      add\n      0x00\n      keccak256\n        /* \"solidity/solidity81~90.sol\":8103:8157  Customer memory customer = customers[_customerAddress] */\n      mload(0x40)\n      dup1\n      0x40\n      add\n      0x40\n      mstore\n      swap1\n      dup2\n      0x00\n      dup3\n      add\n      dup1\n      sload\n      tag_32\n      swap1\n      tag_21\n      jump\t// in\n    tag_32:\n      dup1\n      0x1f\n      add\n      0x20\n      dup1\n      swap2\n      div\n      mul\n      0x20\n      add\n      mload(0x40)\n      swap1\n      dup2\n      add\n      0x40\n      mstore\n      dup1\n      swap3\n      swap2\n      swap1\n      dup2\n      dup2\n      mstore\n      0x20\n      add\n      dup3\n      dup1\n      sload\n      tag_33\n      swap1\n      tag_21\n      jump\t// in\n    tag_33:\n      dup1\n      iszero\n      tag_34\n      jumpi\n      dup1\n      0x1f\n      lt\n      tag_35\n      jumpi\n      0x0100\n      dup1\n      dup4\n      sload\n      div\n      mul\n      dup4\n      mstore\n      swap2\n      0x20\n      add\n      swap2\n      jump(tag_34)\n    tag_35:\n      dup3\n      add\n      swap2\n      swap1\n      0x00\n      mstore\n      keccak256(0x00, 0x20)\n      swap1\n    tag_36:\n      dup2\n      sload\n      dup2\n      mstore\n      swap1\n      0x01\n      add\n      swap1\n      0x20\n      add\n      dup1\n      dup4\n      gt\n      tag_36\n      jumpi\n      dup3\n      swap1\n      sub\n      0x1f\n      and\n      dup3\n      add\n      swap2\n    tag_34:\n      pop\n      pop\n      pop\n      pop\n      pop\n      dup2\n      mstore\n      0x20\n      add\n      0x01\n      dup3\n      add\n      dup1\n      sload\n      tag_37\n      swap1\n      tag_21\n      jump\t// in\n    tag_37:\n      dup1\n      0x1f\n      add\n      0x20\n      dup1\n      swap2\n      div\n      mul\n      0x20\n      add\n      mload(0x40)\n      swap1\n      dup2\n      add\n      0x40\n      mstore\n      dup1\n      swap3\n      swap2\n      swap1\n      dup2\n      dup2\n      mstore\n      0x20\n      add\n      dup3\n      dup1\n      sload\n      tag_38\n      swap1\n      tag_21\n      jump\t// in\n    tag_38:\n      dup1\n      iszero\n      tag_39\n      jumpi\n      dup1\n      0x1f\n      lt\n      tag_40\n      jumpi\n      0x0100\n      dup1\n      dup4\n      sload\n      div\n      mul\n      dup4\n      mstore\n      swap2\n      0x20\n      add\n      swap2\n      jump(tag_39)\n    tag_40:\n      dup3\n      add\n      swap2\n      swap1\n      0x00\n      mstore\n      keccak256(0x00, 0x20)\n      swap1\n    tag_41:\n      dup2\n      sload\n      dup2\n      mstore\n      swap1\n      0x01\n      add\n      swap1\n      0x20\n      add\n      dup1\n      dup4\n      gt\n      tag_41\n      jumpi\n      dup3\n      swap1\n      sub\n      0x1f\n      and\n      dup3\n      add\n      swap2\n    tag_39:\n      pop\n      pop\n      pop\n      pop\n      pop\n      dup2\n      mstore\n      pop\n      pop\n      swap1\n      pop\n        /* \"solidity/solidity81~90.sol\":8175:8183  customer */\n      dup1\n        /* \"solidity/solidity81~90.sol\":8175:8188  customer.name */\n      0x00\n      add\n      mload\n        /* \"solidity/solidity81~90.sol\":8190:8198  customer */\n      dup2\n        /* \"solidity/solidity81~90.sol\":8190:8211  customer.introduction */\n      0x20\n      add\n      mload\n        /* \"solidity/solidity81~90.sol\":8167:8212  return (customer.name, customer.introduction) */\n      swap3\n      pop\n      swap3\n      pop\n      pop\n        /* \"solidity/solidity81~90.sol\":7977:8219  function getCustomer(address _customerAddress) public view returns (string memory name, string memory introduction) {... */\n      swap2\n      pop\n      swap2\n      jump\t// out\n        /* \"solidity/solidity81~90.sol\":7548:7971  function registerCustomer(string memory _name, string memory _introduction) public {... */\n    tag_19:\n        /* \"solidity/solidity81~90.sol\":7672:7673  5 */\n      0x05\n        /* \"solidity/solidity81~90.sol\":7655:7660  _name */\n      dup3\n        /* \"solidity/solidity81~90.sol\":7649:7668  bytes(_name).length */\n      mload\n        /* \"solidity/solidity81~90.sol\":7649:7673  bytes(_name).length >= 5 */\n      lt\n      iszero\n        /* \"solidity/solidity81~90.sol\":7649:7702  bytes(_name).length >= 5 && bytes(_name).length <= 10 */\n      dup1\n      iszero\n      tag_43\n      jumpi\n      pop\n        /* \"solidity/solidity81~90.sol\":7700:7702  10 */\n      0x0a\n        /* \"solidity/solidity81~90.sol\":7683:7688  _name */\n      dup3\n        /* \"solidity/solidity81~90.sol\":7677:7696  bytes(_name).length */\n      mload\n        /* \"solidity/solidity81~90.sol\":7677:7702  bytes(_name).length <= 10 */\n      gt\n      iszero\n        /* \"solidity/solidity81~90.sol\":7649:7702  bytes(_name).length >= 5 && bytes(_name).length <= 10 */\n    tag_43:\n        /* \"solidity/solidity81~90.sol\":7641:7748  require(bytes(_name).length >= 5 && bytes(_name).length <= 10, \"Name must be between 5 and 10 characters.\") */\n      tag_44\n      jumpi\n      mload(0x40)\n      0x08c379a000000000000000000000000000000000000000000000000000000000\n      dup2\n      mstore\n      0x04\n      add\n      tag_45\n      swap1\n      tag_46\n      jump\t// in\n    tag_45:\n      mload(0x40)\n      dup1\n      swap2\n      sub\n      swap1\n      revert\n    tag_44:\n        /* \"solidity/solidity81~90.sol\":7797:7799  20 */\n      0x14\n        /* \"solidity/solidity81~90.sol\":7772:7785  _introduction */\n      dup2\n        /* \"solidity/solidity81~90.sol\":7766:7793  bytes(_introduction).length */\n      mload\n        /* \"solidity/solidity81~90.sol\":7766:7799  bytes(_introduction).length >= 20 */\n      lt\n      iszero\n        /* \"solidity/solidity81~90.sol\":7766:7836  bytes(_introduction).length >= 20 && bytes(_introduction).length <= 50 */\n      dup1\n      iszero\n      tag_47\n      jumpi\n      pop\n        /* \"solidity/solidity81~90.sol\":7834:7836  50 */\n      0x32\n        /* \"solidity/solidity81~90.sol\":7809:7822  _introduction */\n      dup2\n        /* \"solidity/solidity81~90.sol\":7803:7830  bytes(_introduction).length */\n      mload\n        /* \"solidity/solidity81~90.sol\":7803:7836  bytes(_introduction).length <= 50 */\n      gt\n      iszero\n        /* \"solidity/solidity81~90.sol\":7766:7836  bytes(_introduction).length >= 20 && bytes(_introduction).length <= 50 */\n    tag_47:\n        /* \"solidity/solidity81~90.sol\":7758:7891  require(bytes(_introduction).length >= 20 && bytes(_introduction).length <= 50, \"Introduction must be between 20 and 50 characters.\") */\n      tag_48\n      jumpi\n      mload(0x40)\n      0x08c379a000000000000000000000000000000000000000000000000000000000\n      dup2\n      mstore\n      0x04\n      add\n      tag_49\n      swap1\n      tag_50\n      jump\t// in\n    tag_49:\n      mload(0x40)\n      dup1\n      swap2\n      sub\n      swap1\n      revert\n    tag_48:\n        /* \"solidity/solidity81~90.sol\":7934:7964  Customer(_name, _introduction) */\n      mload(0x40)\n      dup1\n      0x40\n      add\n      0x40\n      mstore\n      dup1\n        /* \"solidity/solidity81~90.sol\":7943:7948  _name */\n      dup4\n        /* \"solidity/solidity81~90.sol\":7934:7964  Customer(_name, _introduction) */\n      dup2\n      mstore\n      0x20\n      add\n        /* \"solidity/solidity81~90.sol\":7950:7963  _introduction */\n      dup3\n        /* \"solidity/solidity81~90.sol\":7934:7964  Customer(_name, _introduction) */\n      dup2\n      mstore\n      pop\n        /* \"solidity/solidity81~90.sol\":7910:7919  customers */\n      0x00\n        /* \"solidity/solidity81~90.sol\":7910:7931  customers[msg.sender] */\n      dup1\n        /* \"solidity/solidity81~90.sol\":7920:7930  msg.sender */\n      caller\n        /* \"solidity/solidity81~90.sol\":7910:7931  customers[msg.sender] */\n      0xffffffffffffffffffffffffffffffffffffffff\n      and\n      0xffffffffffffffffffffffffffffffffffffffff\n      and\n      dup2\n      mstore\n      0x20\n      add\n      swap1\n      dup2\n      mstore\n      0x20\n      add\n      0x00\n      keccak256\n        /* \"solidity/solidity81~90.sol\":7910:7964  customers[msg.sender] = Customer(_name, _introduction) */\n      0x00\n      dup3\n      add\n      mload\n      dup2\n      0x00\n      add\n      swap1\n      dup2\n      tag_51\n      swap2\n      swap1\n      tag_52\n      jump\t// in\n    tag_51:\n      pop\n      0x20\n      dup3\n      add\n      mload\n      dup2\n      0x01\n      add\n      swap1\n      dup2\n      tag_53\n      swap2\n      swap1\n      tag_52\n      jump\t// in\n    tag_53:\n      pop\n      swap1\n      pop\n      pop\n        /* \"solidity/solidity81~90.sol\":7548:7971  function registerCustomer(string memory _name, string memory _introduction) public {... */\n      pop\n      pop\n      jump\t// out\n        /* \"#utility.yul\":7:82   */\n    tag_54:\n        /* \"#utility.yul\":40:46   */\n      0x00\n        /* \"#utility.yul\":73:75   */\n      0x40\n        /* \"#utility.yul\":67:76   */\n      mload\n        /* \"#utility.yul\":57:76   */\n      swap1\n      pop\n        /* \"#utility.yul\":7:82   */\n      swap1\n      jump\t// out\n        /* \"#utility.yul\":88:205   */\n    tag_55:\n        /* \"#utility.yul\":197:198   */\n      0x00\n        /* \"#utility.yul\":194:195   */\n      dup1\n        /* \"#utility.yul\":187:199   */\n      revert\n        /* \"#utility.yul\":211:328   */\n    tag_56:\n        /* \"#utility.yul\":320:321   */\n      0x00\n        /* \"#utility.yul\":317:318   */\n      dup1\n        /* \"#utility.yul\":310:322   */\n      revert\n        /* \"#utility.yul\":334:460   */\n    tag_57:\n        /* \"#utility.yul\":371:378   */\n      0x00\n        /* \"#utility.yul\":411:453   */\n      0xffffffffffffffffffffffffffffffffffffffff\n        /* \"#utility.yul\":404:409   */\n      dup3\n        /* \"#utility.yul\":400:454   */\n      and\n        /* \"#utility.yul\":389:454   */\n      swap1\n      pop\n        /* \"#utility.yul\":334:460   */\n      swap2\n      swap1\n      pop\n      jump\t// out\n        /* \"#utility.yul\":466:562   */\n    tag_58:\n        /* \"#utility.yul\":503:510   */\n      0x00\n        /* \"#utility.yul\":532:556   */\n      tag_102\n        /* \"#utility.yul\":550:555   */\n      dup3\n        /* \"#utility.yul\":532:556   */\n      tag_57\n      jump\t// in\n    tag_102:\n        /* \"#utility.yul\":521:556   */\n      swap1\n      pop\n        /* \"#utility.yul\":466:562   */\n      swap2\n      swap1\n      pop\n      jump\t// out\n        /* \"#utility.yul\":568:690   */\n    tag_59:\n        /* \"#utility.yul\":641:665   */\n      tag_104\n        /* \"#utility.yul\":659:664   */\n      dup2\n        /* \"#utility.yul\":641:665   */\n      tag_58\n      jump\t// in\n    tag_104:\n        /* \"#utility.yul\":634:639   */\n      dup2\n        /* \"#utility.yul\":631:666   */\n      eq\n        /* \"#utility.yul\":621:684   */\n      tag_105\n      jumpi\n        /* \"#utility.yul\":680:681   */\n      0x00\n        /* \"#utility.yul\":677:678   */\n      dup1\n        /* \"#utility.yul\":670:682   */\n      revert\n        /* \"#utility.yul\":621:684   */\n    tag_105:\n        /* \"#utility.yul\":568:690   */\n      pop\n      jump\t// out\n        /* \"#utility.yul\":696:835   */\n    tag_60:\n        /* \"#utility.yul\":742:747   */\n      0x00\n        /* \"#utility.yul\":780:786   */\n      dup2\n        /* \"#utility.yul\":767:787   */\n      calldataload\n        /* \"#utility.yul\":758:787   */\n      swap1\n      pop\n        /* \"#utility.yul\":796:829   */\n      tag_107\n        /* \"#utility.yul\":823:828   */\n      dup2\n        /* \"#utility.yul\":796:829   */\n      tag_59\n      jump\t// in\n    tag_107:\n        /* \"#utility.yul\":696:835   */\n      swap3\n      swap2\n      pop\n      pop\n      jump\t// out\n        /* \"#utility.yul\":841:1170   */\n    tag_8:\n        /* \"#utility.yul\":900:906   */\n      0x00\n        /* \"#utility.yul\":949:951   */\n      0x20\n        /* \"#utility.yul\":937:946   */\n      dup3\n        /* \"#utility.yul\":928:935   */\n      dup5\n        /* \"#utility.yul\":924:947   */\n      sub\n        /* \"#utility.yul\":920:952   */\n      slt\n        /* \"#utility.yul\":917:1036   */\n      iszero\n      tag_109\n      jumpi\n        /* \"#utility.yul\":955:1034   */\n      tag_110\n      tag_55\n      jump\t// in\n    tag_110:\n        /* \"#utility.yul\":917:1036   */\n    tag_109:\n        /* \"#utility.yul\":1075:1076   */\n      0x00\n        /* \"#utility.yul\":1100:1153   */\n      tag_111\n        /* \"#utility.yul\":1145:1152   */\n      dup5\n        /* \"#utility.yul\":1136:1142   */\n      dup3\n        /* \"#utility.yul\":1125:1134   */\n      dup6\n        /* \"#utility.yul\":1121:1143   */\n      add\n        /* \"#utility.yul\":1100:1153   */\n      tag_60\n      jump\t// in\n    tag_111:\n        /* \"#utility.yul\":1090:1153   */\n      swap2\n      pop\n        /* \"#utility.yul\":1046:1163   */\n      pop\n        /* \"#utility.yul\":841:1170   */\n      swap3\n      swap2\n      pop\n      pop\n      jump\t// out\n        /* \"#utility.yul\":1176:1275   */\n    tag_61:\n        /* \"#utility.yul\":1228:1234   */\n      0x00\n        /* \"#utility.yul\":1262:1267   */\n      dup2\n        /* \"#utility.yul\":1256:1268   */\n      mload\n        /* \"#utility.yul\":1246:1268   */\n      swap1\n      pop\n        /* \"#utility.yul\":1176:1275   */\n      swap2\n      swap1\n      pop\n      jump\t// out\n        /* \"#utility.yul\":1281:1450   */\n    tag_62:\n        /* \"#utility.yul\":1365:1376   */\n      0x00\n        /* \"#utility.yul\":1399:1405   */\n      dup3\n        /* \"#utility.yul\":1394:1397   */\n      dup3\n        /* \"#utility.yul\":1387:1406   */\n      mstore\n        /* \"#utility.yul\":1439:1443   */\n      0x20\n        /* \"#utility.yul\":1434:1437   */\n      dup3\n        /* \"#utility.yul\":1430:1444   */\n      add\n        /* \"#utility.yul\":1415:1444   */\n      swap1\n      pop\n        /* \"#utility.yul\":1281:1450   */\n      swap3\n      swap2\n      pop\n      pop\n      jump\t// out\n        /* \"#utility.yul\":1456:1595   */\n    tag_63:\n        /* \"#utility.yul\":1545:1551   */\n      dup3\n        /* \"#utility.yul\":1540:1543   */\n      dup2\n        /* \"#utility.yul\":1535:1538   */\n      dup4\n        /* \"#utility.yul\":1529:1552   */\n      mcopy\n        /* \"#utility.yul\":1586:1587   */\n      0x00\n        /* \"#utility.yul\":1577:1583   */\n      dup4\n        /* \"#utility.yul\":1572:1575   */\n      dup4\n        /* \"#utility.yul\":1568:1584   */\n      add\n        /* \"#utility.yul\":1561:1588   */\n      mstore\n        /* \"#utility.yul\":1456:1595   */\n      pop\n      pop\n      pop\n      jump\t// out\n        /* \"#utility.yul\":1601:1703   */\n    tag_64:\n        /* \"#utility.yul\":1642:1648   */\n      0x00\n        /* \"#utility.yul\":1693:1695   */\n      0x1f\n        /* \"#utility.yul\":1689:1696   */\n      not\n        /* \"#utility.yul\":1684:1686   */\n      0x1f\n        /* \"#utility.yul\":1677:1682   */\n      dup4\n        /* \"#utility.yul\":1673:1687   */\n      add\n        /* \"#utility.yul\":1669:1697   */\n      and\n        /* \"#utility.yul\":1659:1697   */\n      swap1\n      pop\n        /* \"#utility.yul\":1601:1703   */\n      swap2\n      swap1\n      pop\n      jump\t// out\n        /* \"#utility.yul\":1709:2086   */\n    tag_65:\n        /* \"#utility.yul\":1797:1800   */\n      0x00\n        /* \"#utility.yul\":1825:1864   */\n      tag_117\n        /* \"#utility.yul\":1858:1863   */\n      dup3\n        /* \"#utility.yul\":1825:1864   */\n      tag_61\n      jump\t// in\n    tag_117:\n        /* \"#utility.yul\":1880:1951   */\n      tag_118\n        /* \"#utility.yul\":1944:1950   */\n      dup2\n        /* \"#utility.yul\":1939:1942   */\n      dup6\n        /* \"#utility.yul\":1880:1951   */\n      tag_62\n      jump\t// in\n    tag_118:\n        /* \"#utility.yul\":1873:1951   */\n      swap4\n      pop\n        /* \"#utility.yul\":1960:2025   */\n      tag_119\n        /* \"#utility.yul\":2018:2024   */\n      dup2\n        /* \"#utility.yul\":2013:2016   */\n      dup6\n        /* \"#utility.yul\":2006:2010   */\n      0x20\n        /* \"#utility.yul\":1999:2004   */\n      dup7\n        /* \"#utility.yul\":1995:2011   */\n      add\n        /* \"#utility.yul\":1960:2025   */\n      tag_63\n      jump\t// in\n    tag_119:\n        /* \"#utility.yul\":2050:2079   */\n      tag_120\n        /* \"#utility.yul\":2072:2078   */\n      dup2\n        /* \"#utility.yul\":2050:2079   */\n      tag_64\n      jump\t// in\n    tag_120:\n        /* \"#utility.yul\":2045:2048   */\n      dup5\n        /* \"#utility.yul\":2041:2080   */\n      add\n        /* \"#utility.yul\":2034:2080   */\n      swap2\n      pop\n        /* \"#utility.yul\":1801:2086   */\n      pop\n        /* \"#utility.yul\":1709:2086   */\n      swap3\n      swap2\n      pop\n      pop\n      jump\t// out\n        /* \"#utility.yul\":2092:2606   */\n    tag_11:\n        /* \"#utility.yul\":2253:2257   */\n      0x00\n        /* \"#utility.yul\":2291:2293   */\n      0x40\n        /* \"#utility.yul\":2280:2289   */\n      dup3\n        /* \"#utility.yul\":2276:2294   */\n      add\n        /* \"#utility.yul\":2268:2294   */\n      swap1\n      pop\n        /* \"#utility.yul\":2340:2349   */\n      dup2\n        /* \"#utility.yul\":2334:2338   */\n      dup2\n        /* \"#utility.yul\":2330:2350   */\n      sub\n        /* \"#utility.yul\":2326:2327   */\n      0x00\n        /* \"#utility.yul\":2315:2324   */\n      dup4\n        /* \"#utility.yul\":2311:2328   */\n      add\n        /* \"#utility.yul\":2304:2351   */\n      mstore\n        /* \"#utility.yul\":2368:2446   */\n      tag_122\n        /* \"#utility.yul\":2441:2445   */\n      dup2\n        /* \"#utility.yul\":2432:2438   */\n      dup6\n        /* \"#utility.yul\":2368:2446   */\n      tag_65\n      jump\t// in\n    tag_122:\n        /* \"#utility.yul\":2360:2446   */\n      swap1\n      pop\n        /* \"#utility.yul\":2493:2502   */\n      dup2\n        /* \"#utility.yul\":2487:2491   */\n      dup2\n        /* \"#utility.yul\":2483:2503   */\n      sub\n        /* \"#utility.yul\":2478:2480   */\n      0x20\n        /* \"#utility.yul\":2467:2476   */\n      dup4\n        /* \"#utility.yul\":2463:2481   */\n      add\n        /* \"#utility.yul\":2456:2504   */\n      mstore\n        /* \"#utility.yul\":2521:2599   */\n      tag_123\n        /* \"#utility.yul\":2594:2598   */\n      dup2\n        /* \"#utility.yul\":2585:2591   */\n      dup5\n        /* \"#utility.yul\":2521:2599   */\n      tag_65\n      jump\t// in\n    tag_123:\n        /* \"#utility.yul\":2513:2599   */\n      swap1\n      pop\n        /* \"#utility.yul\":2092:2606   */\n      swap4\n      swap3\n      pop\n      pop\n      pop\n      jump\t// out\n        /* \"#utility.yul\":2612:2729   */\n    tag_66:\n        /* \"#utility.yul\":2721:2722   */\n      0x00\n        /* \"#utility.yul\":2718:2719   */\n      dup1\n        /* \"#utility.yul\":2711:2723   */\n      revert\n        /* \"#utility.yul\":2735:2852   */\n    tag_67:\n        /* \"#utility.yul\":2844:2845   */\n      0x00\n        /* \"#utility.yul\":2841:2842   */\n      dup1\n        /* \"#utility.yul\":2834:2846   */\n      revert\n        /* \"#utility.yul\":2858:3038   */\n    tag_68:\n        /* \"#utility.yul\":2906:2983   */\n      0x4e487b7100000000000000000000000000000000000000000000000000000000\n        /* \"#utility.yul\":2903:2904   */\n      0x00\n        /* \"#utility.yul\":2896:2984   */\n      mstore\n        /* \"#utility.yul\":3003:3007   */\n      0x41\n        /* \"#utility.yul\":3000:3001   */\n      0x04\n        /* \"#utility.yul\":2993:3008   */\n      mstore\n        /* \"#utility.yul\":3027:3031   */\n      0x24\n        /* \"#utility.yul\":3024:3025   */\n      0x00\n        /* \"#utility.yul\":3017:3032   */\n      revert\n        /* \"#utility.yul\":3044:3325   */\n    tag_69:\n        /* \"#utility.yul\":3127:3154   */\n      tag_128\n        /* \"#utility.yul\":3149:3153   */\n      dup3\n        /* \"#utility.yul\":3127:3154   */\n      tag_64\n      jump\t// in\n    tag_128:\n        /* \"#utility.yul\":3119:3125   */\n      dup2\n        /* \"#utility.yul\":3115:3155   */\n      add\n        /* \"#utility.yul\":3257:3263   */\n      dup2\n        /* \"#utility.yul\":3245:3255   */\n      dup2\n        /* \"#utility.yul\":3242:3264   */\n      lt\n        /* \"#utility.yul\":3221:3239   */\n      0xffffffffffffffff\n        /* \"#utility.yul\":3209:3219   */\n      dup3\n        /* \"#utility.yul\":3206:3240   */\n      gt\n        /* \"#utility.yul\":3203:3265   */\n      or\n        /* \"#utility.yul\":3200:3288   */\n      iszero\n      tag_129\n      jumpi\n        /* \"#utility.yul\":3268:3286   */\n      tag_130\n      tag_68\n      jump\t// in\n    tag_130:\n        /* \"#utility.yul\":3200:3288   */\n    tag_129:\n        /* \"#utility.yul\":3308:3318   */\n      dup1\n        /* \"#utility.yul\":3304:3306   */\n      0x40\n        /* \"#utility.yul\":3297:3319   */\n      mstore\n        /* \"#utility.yul\":3087:3325   */\n      pop\n        /* \"#utility.yul\":3044:3325   */\n      pop\n      pop\n      jump\t// out\n        /* \"#utility.yul\":3331:3460   */\n    tag_70:\n        /* \"#utility.yul\":3365:3371   */\n      0x00\n        /* \"#utility.yul\":3392:3412   */\n      tag_132\n      tag_54\n      jump\t// in\n    tag_132:\n        /* \"#utility.yul\":3382:3412   */\n      swap1\n      pop\n        /* \"#utility.yul\":3421:3454   */\n      tag_133\n        /* \"#utility.yul\":3449:3453   */\n      dup3\n        /* \"#utility.yul\":3441:3447   */\n      dup3\n        /* \"#utility.yul\":3421:3454   */\n      tag_69\n      jump\t// in\n    tag_133:\n        /* \"#utility.yul\":3331:3460   */\n      swap2\n      swap1\n      pop\n      jump\t// out\n        /* \"#utility.yul\":3466:3774   */\n    tag_71:\n        /* \"#utility.yul\":3528:3532   */\n      0x00\n        /* \"#utility.yul\":3618:3636   */\n      0xffffffffffffffff\n        /* \"#utility.yul\":3610:3616   */\n      dup3\n        /* \"#utility.yul\":3607:3637   */\n      gt\n        /* \"#utility.yul\":3604:3660   */\n      iszero\n      tag_135\n      jumpi\n        /* \"#utility.yul\":3640:3658   */\n      tag_136\n      tag_68\n      jump\t// in\n    tag_136:\n        /* \"#utility.yul\":3604:3660   */\n    tag_135:\n        /* \"#utility.yul\":3678:3707   */\n      tag_137\n        /* \"#utility.yul\":3700:3706   */\n      dup3\n        /* \"#utility.yul\":3678:3707   */\n      tag_64\n      jump\t// in\n    tag_137:\n        /* \"#utility.yul\":3670:3707   */\n      swap1\n      pop\n        /* \"#utility.yul\":3762:3766   */\n      0x20\n        /* \"#utility.yul\":3756:3760   */\n      dup2\n        /* \"#utility.yul\":3752:3767   */\n      add\n        /* \"#utility.yul\":3744:3767   */\n      swap1\n      pop\n        /* \"#utility.yul\":3466:3774   */\n      swap2\n      swap1\n      pop\n      jump\t// out\n        /* \"#utility.yul\":3780:3928   */\n    tag_72:\n        /* \"#utility.yul\":3878:3884   */\n      dup3\n        /* \"#utility.yul\":3873:3876   */\n      dup2\n        /* \"#utility.yul\":3868:3871   */\n      dup4\n        /* \"#utility.yul\":3855:3885   */\n      calldatacopy\n        /* \"#utility.yul\":3919:3920   */\n      0x00\n        /* \"#utility.yul\":3910:3916   */\n      dup4\n        /* \"#utility.yul\":3905:3908   */\n      dup4\n        /* \"#utility.yul\":3901:3917   */\n      add\n        /* \"#utility.yul\":3894:3921   */\n      mstore\n        /* \"#utility.yul\":3780:3928   */\n      pop\n      pop\n      pop\n      jump\t// out\n        /* \"#utility.yul\":3934:4359   */\n    tag_73:\n        /* \"#utility.yul\":4012:4017   */\n      0x00\n        /* \"#utility.yul\":4037:4103   */\n      tag_140\n        /* \"#utility.yul\":4053:4102   */\n      tag_141\n        /* \"#utility.yul\":4095:4101   */\n      dup5\n        /* \"#utility.yul\":4053:4102   */\n      tag_71\n      jump\t// in\n    tag_141:\n        /* \"#utility.yul\":4037:4103   */\n      tag_70\n      jump\t// in\n    tag_140:\n        /* \"#utility.yul\":4028:4103   */\n      swap1\n      pop\n        /* \"#utility.yul\":4126:4132   */\n      dup3\n        /* \"#utility.yul\":4119:4124   */\n      dup2\n        /* \"#utility.yul\":4112:4133   */\n      mstore\n        /* \"#utility.yul\":4164:4168   */\n      0x20\n        /* \"#utility.yul\":4157:4162   */\n      dup2\n        /* \"#utility.yul\":4153:4169   */\n      add\n        /* \"#utility.yul\":4202:4205   */\n      dup5\n        /* \"#utility.yul\":4193:4199   */\n      dup5\n        /* \"#utility.yul\":4188:4191   */\n      dup5\n        /* \"#utility.yul\":4184:4200   */\n      add\n        /* \"#utility.yul\":4181:4206   */\n      gt\n        /* \"#utility.yul\":4178:4290   */\n      iszero\n      tag_142\n      jumpi\n        /* \"#utility.yul\":4209:4288   */\n      tag_143\n      tag_67\n      jump\t// in\n    tag_143:\n        /* \"#utility.yul\":4178:4290   */\n    tag_142:\n        /* \"#utility.yul\":4299:4353   */\n      tag_144\n        /* \"#utility.yul\":4346:4352   */\n      dup5\n        /* \"#utility.yul\":4341:4344   */\n      dup3\n        /* \"#utility.yul\":4336:4339   */\n      dup6\n        /* \"#utility.yul\":4299:4353   */\n      tag_72\n      jump\t// in\n    tag_144:\n        /* \"#utility.yul\":4018:4359   */\n      pop\n        /* \"#utility.yul\":3934:4359   */\n      swap4\n      swap3\n      pop\n      pop\n      pop\n      jump\t// out\n        /* \"#utility.yul\":4379:4719   */\n    tag_74:\n        /* \"#utility.yul\":4435:4440   */\n      0x00\n        /* \"#utility.yul\":4484:4487   */\n      dup3\n        /* \"#utility.yul\":4477:4481   */\n      0x1f\n        /* \"#utility.yul\":4469:4475   */\n      dup4\n        /* \"#utility.yul\":4465:4482   */\n      add\n        /* \"#utility.yul\":4461:4488   */\n      slt\n        /* \"#utility.yul\":4451:4573   */\n      tag_146\n      jumpi\n        /* \"#utility.yul\":4492:4571   */\n      tag_147\n      tag_66\n      jump\t// in\n    tag_147:\n        /* \"#utility.yul\":4451:4573   */\n    tag_146:\n        /* \"#utility.yul\":4609:4615   */\n      dup2\n        /* \"#utility.yul\":4596:4616   */\n      calldataload\n        /* \"#utility.yul\":4634:4713   */\n      tag_148\n        /* \"#utility.yul\":4709:4712   */\n      dup5\n        /* \"#utility.yul\":4701:4707   */\n      dup3\n        /* \"#utility.yul\":4694:4698   */\n      0x20\n        /* \"#utility.yul\":4686:4692   */\n      dup7\n        /* \"#utility.yul\":4682:4699   */\n      add\n        /* \"#utility.yul\":4634:4713   */\n      tag_73\n      jump\t// in\n    tag_148:\n        /* \"#utility.yul\":4625:4713   */\n      swap2\n      pop\n        /* \"#utility.yul\":4441:4719   */\n      pop\n        /* \"#utility.yul\":4379:4719   */\n      swap3\n      swap2\n      pop\n      pop\n      jump\t// out\n        /* \"#utility.yul\":4725:5559   */\n    tag_18:\n        /* \"#utility.yul\":4813:4819   */\n      0x00\n        /* \"#utility.yul\":4821:4827   */\n      dup1\n        /* \"#utility.yul\":4870:4872   */\n      0x40\n        /* \"#utility.yul\":4858:4867   */\n      dup4\n        /* \"#utility.yul\":4849:4856   */\n      dup6\n        /* \"#utility.yul\":4845:4868   */\n      sub\n        /* \"#utility.yul\":4841:4873   */\n      slt\n        /* \"#utility.yul\":4838:4957   */\n      iszero\n      tag_150\n      jumpi\n        /* \"#utility.yul\":4876:4955   */\n      tag_151\n      tag_55\n      jump\t// in\n    tag_151:\n        /* \"#utility.yul\":4838:4957   */\n    tag_150:\n        /* \"#utility.yul\":5024:5025   */\n      0x00\n        /* \"#utility.yul\":5013:5022   */\n      dup4\n        /* \"#utility.yul\":5009:5026   */\n      add\n        /* \"#utility.yul\":4996:5027   */\n      calldataload\n        /* \"#utility.yul\":5054:5072   */\n      0xffffffffffffffff\n        /* \"#utility.yul\":5046:5052   */\n      dup2\n        /* \"#utility.yul\":5043:5073   */\n      gt\n        /* \"#utility.yul\":5040:5157   */\n      iszero\n      tag_152\n      jumpi\n        /* \"#utility.yul\":5076:5155   */\n      tag_153\n      tag_56\n      jump\t// in\n    tag_153:\n        /* \"#utility.yul\":5040:5157   */\n    tag_152:\n        /* \"#utility.yul\":5181:5244   */\n      tag_154\n        /* \"#utility.yul\":5236:5243   */\n      dup6\n        /* \"#utility.yul\":5227:5233   */\n      dup3\n        /* \"#utility.yul\":5216:5225   */\n      dup7\n        /* \"#utility.yul\":5212:5234   */\n      add\n        /* \"#utility.yul\":5181:5244   */\n      tag_74\n      jump\t// in\n    tag_154:\n        /* \"#utility.yul\":5171:5244   */\n      swap3\n      pop\n        /* \"#utility.yul\":4967:5254   */\n      pop\n        /* \"#utility.yul\":5321:5323   */\n      0x20\n        /* \"#utility.yul\":5310:5319   */\n      dup4\n        /* \"#utility.yul\":5306:5324   */\n      add\n        /* \"#utility.yul\":5293:5325   */\n      calldataload\n        /* \"#utility.yul\":5352:5370   */\n      0xffffffffffffffff\n        /* \"#utility.yul\":5344:5350   */\n      dup2\n        /* \"#utility.yul\":5341:5371   */\n      gt\n        /* \"#utility.yul\":5338:5455   */\n      iszero\n      tag_155\n      jumpi\n        /* \"#utility.yul\":5374:5453   */\n      tag_156\n      tag_56\n      jump\t// in\n    tag_156:\n        /* \"#utility.yul\":5338:5455   */\n    tag_155:\n        /* \"#utility.yul\":5479:5542   */\n      tag_157\n        /* \"#utility.yul\":5534:5541   */\n      dup6\n        /* \"#utility.yul\":5525:5531   */\n      dup3\n        /* \"#utility.yul\":5514:5523   */\n      dup7\n        /* \"#utility.yul\":5510:5532   */\n      add\n        /* \"#utility.yul\":5479:5542   */\n      tag_74\n      jump\t// in\n    tag_157:\n        /* \"#utility.yul\":5469:5542   */\n      swap2\n      pop\n        /* \"#utility.yul\":5264:5552   */\n      pop\n        /* \"#utility.yul\":4725:5559   */\n      swap3\n      pop\n      swap3\n      swap1\n      pop\n      jump\t// out\n        /* \"#utility.yul\":5565:5745   */\n    tag_75:\n        /* \"#utility.yul\":5613:5690   */\n      0x4e487b7100000000000000000000000000000000000000000000000000000000\n        /* \"#utility.yul\":5610:5611   */\n      0x00\n        /* \"#utility.yul\":5603:5691   */\n      mstore\n        /* \"#utility.yul\":5710:5714   */\n      0x22\n        /* \"#utility.yul\":5707:5708   */\n      0x04\n        /* \"#utility.yul\":5700:5715   */\n      mstore\n        /* \"#utility.yul\":5734:5738   */\n      0x24\n        /* \"#utility.yul\":5731:5732   */\n      0x00\n        /* \"#utility.yul\":5724:5739   */\n      revert\n        /* \"#utility.yul\":5751:6071   */\n    tag_21:\n        /* \"#utility.yul\":5795:5801   */\n      0x00\n        /* \"#utility.yul\":5832:5833   */\n      0x02\n        /* \"#utility.yul\":5826:5830   */\n      dup3\n        /* \"#utility.yul\":5822:5834   */\n      div\n        /* \"#utility.yul\":5812:5834   */\n      swap1\n      pop\n        /* \"#utility.yul\":5879:5880   */\n      0x01\n        /* \"#utility.yul\":5873:5877   */\n      dup3\n        /* \"#utility.yul\":5869:5881   */\n      and\n        /* \"#utility.yul\":5900:5918   */\n      dup1\n        /* \"#utility.yul\":5890:5971   */\n      tag_160\n      jumpi\n        /* \"#utility.yul\":5956:5960   */\n      0x7f\n        /* \"#utility.yul\":5948:5954   */\n      dup3\n        /* \"#utility.yul\":5944:5961   */\n      and\n        /* \"#utility.yul\":5934:5961   */\n      swap2\n      pop\n        /* \"#utility.yul\":5890:5971   */\n    tag_160:\n        /* \"#utility.yul\":6018:6020   */\n      0x20\n        /* \"#utility.yul\":6010:6016   */\n      dup3\n        /* \"#utility.yul\":6007:6021   */\n      lt\n        /* \"#utility.yul\":5987:6005   */\n      dup2\n        /* \"#utility.yul\":5984:6022   */\n      sub\n        /* \"#utility.yul\":5981:6065   */\n      tag_161\n      jumpi\n        /* \"#utility.yul\":6037:6055   */\n      tag_162\n      tag_75\n      jump\t// in\n    tag_162:\n        /* \"#utility.yul\":5981:6065   */\n    tag_161:\n        /* \"#utility.yul\":5802:6071   */\n      pop\n        /* \"#utility.yul\":5751:6071   */\n      swap2\n      swap1\n      pop\n      jump\t// out\n        /* \"#utility.yul\":6077:6305   */\n    tag_76:\n        /* \"#utility.yul\":6217:6251   */\n      0x4e616d65206d757374206265206265747765656e203520616e64203130206368\n        /* \"#utility.yul\":6213:6214   */\n      0x00\n        /* \"#utility.yul\":6205:6211   */\n      dup3\n        /* \"#utility.yul\":6201:6215   */\n      add\n        /* \"#utility.yul\":6194:6252   */\n      mstore\n        /* \"#utility.yul\":6286:6297   */\n      0x61726163746572732e0000000000000000000000000000000000000000000000\n        /* \"#utility.yul\":6281:6283   */\n      0x20\n        /* \"#utility.yul\":6273:6279   */\n      dup3\n        /* \"#utility.yul\":6269:6284   */\n      add\n        /* \"#utility.yul\":6262:6298   */\n      mstore\n        /* \"#utility.yul\":6077:6305   */\n      pop\n      jump\t// out\n        /* \"#utility.yul\":6311:6677   */\n    tag_77:\n        /* \"#utility.yul\":6453:6456   */\n      0x00\n        /* \"#utility.yul\":6474:6541   */\n      tag_165\n        /* \"#utility.yul\":6538:6540   */\n      0x29\n        /* \"#utility.yul\":6533:6536   */\n      dup4\n        /* \"#utility.yul\":6474:6541   */\n      tag_62\n      jump\t// in\n    tag_165:\n        /* \"#utility.yul\":6467:6541   */\n      swap2\n      pop\n        /* \"#utility.yul\":6550:6643   */\n      tag_166\n        /* \"#utility.yul\":6639:6642   */\n      dup3\n        /* \"#utility.yul\":6550:6643   */\n      tag_76\n      jump\t// in\n    tag_166:\n        /* \"#utility.yul\":6668:6670   */\n      0x40\n        /* \"#utility.yul\":6663:6666   */\n      dup3\n        /* \"#utility.yul\":6659:6671   */\n      add\n        /* \"#utility.yul\":6652:6671   */\n      swap1\n      pop\n        /* \"#utility.yul\":6311:6677   */\n      swap2\n      swap1\n      pop\n      jump\t// out\n        /* \"#utility.yul\":6683:7102   */\n    tag_46:\n        /* \"#utility.yul\":6849:6853   */\n      0x00\n        /* \"#utility.yul\":6887:6889   */\n      0x20\n        /* \"#utility.yul\":6876:6885   */\n      dup3\n        /* \"#utility.yul\":6872:6890   */\n      add\n        /* \"#utility.yul\":6864:6890   */\n      swap1\n      pop\n        /* \"#utility.yul\":6936:6945   */\n      dup2\n        /* \"#utility.yul\":6930:6934   */\n      dup2\n        /* \"#utility.yul\":6926:6946   */\n      sub\n        /* \"#utility.yul\":6922:6923   */\n      0x00\n        /* \"#utility.yul\":6911:6920   */\n      dup4\n        /* \"#utility.yul\":6907:6924   */\n      add\n        /* \"#utility.yul\":6900:6947   */\n      mstore\n        /* \"#utility.yul\":6964:7095   */\n      tag_168\n        /* \"#utility.yul\":7090:7094   */\n      dup2\n        /* \"#utility.yul\":6964:7095   */\n      tag_77\n      jump\t// in\n    tag_168:\n        /* \"#utility.yul\":6956:7095   */\n      swap1\n      pop\n        /* \"#utility.yul\":6683:7102   */\n      swap2\n      swap1\n      pop\n      jump\t// out\n        /* \"#utility.yul\":7108:7345   */\n    tag_78:\n        /* \"#utility.yul\":7248:7282   */\n      0x496e74726f64756374696f6e206d757374206265206265747765656e20323020\n        /* \"#utility.yul\":7244:7245   */\n      0x00\n        /* \"#utility.yul\":7236:7242   */\n      dup3\n        /* \"#utility.yul\":7232:7246   */\n      add\n        /* \"#utility.yul\":7225:7283   */\n      mstore\n        /* \"#utility.yul\":7317:7337   */\n      0x616e6420353020636861726163746572732e0000000000000000000000000000\n        /* \"#utility.yul\":7312:7314   */\n      0x20\n        /* \"#utility.yul\":7304:7310   */\n      dup3\n        /* \"#utility.yul\":7300:7315   */\n      add\n        /* \"#utility.yul\":7293:7338   */\n      mstore\n        /* \"#utility.yul\":7108:7345   */\n      pop\n      jump\t// out\n        /* \"#utility.yul\":7351:7717   */\n    tag_79:\n        /* \"#utility.yul\":7493:7496   */\n      0x00\n        /* \"#utility.yul\":7514:7581   */\n      tag_171\n        /* \"#utility.yul\":7578:7580   */\n      0x32\n        /* \"#utility.yul\":7573:7576   */\n      dup4\n        /* \"#utility.yul\":7514:7581   */\n      tag_62\n      jump\t// in\n    tag_171:\n        /* \"#utility.yul\":7507:7581   */\n      swap2\n      pop\n        /* \"#utility.yul\":7590:7683   */\n      tag_172\n        /* \"#utility.yul\":7679:7682   */\n      dup3\n        /* \"#utility.yul\":7590:7683   */\n      tag_78\n      jump\t// in\n    tag_172:\n        /* \"#utility.yul\":7708:7710   */\n      0x40\n        /* \"#utility.yul\":7703:7706   */\n      dup3\n        /* \"#utility.yul\":7699:7711   */\n      add\n        /* \"#utility.yul\":7692:7711   */\n      swap1\n      pop\n        /* \"#utility.yul\":7351:7717   */\n      swap2\n      swap1\n      pop\n      jump\t// out\n        /* \"#utility.yul\":7723:8142   */\n    tag_50:\n        /* \"#utility.yul\":7889:7893   */\n      0x00\n        /* \"#utility.yul\":7927:7929   */\n      0x20\n        /* \"#utility.yul\":7916:7925   */\n      dup3\n        /* \"#utility.yul\":7912:7930   */\n      add\n        /* \"#utility.yul\":7904:7930   */\n      swap1\n      pop\n        /* \"#utility.yul\":7976:7985   */\n      dup2\n        /* \"#utility.yul\":7970:7974   */\n      dup2\n        /* \"#utility.yul\":7966:7986   */\n      sub\n        /* \"#utility.yul\":7962:7963   */\n      0x00\n        /* \"#utility.yul\":7951:7960   */\n      dup4\n        /* \"#utility.yul\":7947:7964   */\n      add\n        /* \"#utility.yul\":7940:7987   */\n      mstore\n        /* \"#utility.yul\":8004:8135   */\n      tag_174\n        /* \"#utility.yul\":8130:8134   */\n      dup2\n        /* \"#utility.yul\":8004:8135   */\n      tag_79\n      jump\t// in\n    tag_174:\n        /* \"#utility.yul\":7996:8135   */\n      swap1\n      pop\n        /* \"#utility.yul\":7723:8142   */\n      swap2\n      swap1\n      pop\n      jump\t// out\n        /* \"#utility.yul\":8148:8289   */\n    tag_80:\n        /* \"#utility.yul\":8197:8201   */\n      0x00\n        /* \"#utility.yul\":8220:8223   */\n      dup2\n        /* \"#utility.yul\":8212:8223   */\n      swap1\n      pop\n        /* \"#utility.yul\":8243:8246   */\n      dup2\n        /* \"#utility.yul\":8240:8241   */\n      0x00\n        /* \"#utility.yul\":8233:8247   */\n      mstore\n        /* \"#utility.yul\":8277:8281   */\n      0x20\n        /* \"#utility.yul\":8274:8275   */\n      0x00\n        /* \"#utility.yul\":8264:8282   */\n      keccak256\n        /* \"#utility.yul\":8256:8282   */\n      swap1\n      pop\n        /* \"#utility.yul\":8148:8289   */\n      swap2\n      swap1\n      pop\n      jump\t// out\n        /* \"#utility.yul\":8295:8388   */\n    tag_81:\n        /* \"#utility.yul\":8332:8338   */\n      0x00\n        /* \"#utility.yul\":8379:8381   */\n      0x20\n        /* \"#utility.yul\":8374:8376   */\n      0x1f\n        /* \"#utility.yul\":8367:8372   */\n      dup4\n        /* \"#utility.yul\":8363:8377   */\n      add\n        /* \"#utility.yul\":8359:8382   */\n      div\n        /* \"#utility.yul\":8349:8382   */\n      swap1\n      pop\n        /* \"#utility.yul\":8295:8388   */\n      swap2\n      swap1\n      pop\n      jump\t// out\n        /* \"#utility.yul\":8394:8501   */\n    tag_82:\n        /* \"#utility.yul\":8438:8446   */\n      0x00\n        /* \"#utility.yul\":8488:8493   */\n      dup3\n        /* \"#utility.yul\":8482:8486   */\n      dup3\n        /* \"#utility.yul\":8478:8494   */\n      shl\n        /* \"#utility.yul\":8457:8494   */\n      swap1\n      pop\n        /* \"#utility.yul\":8394:8501   */\n      swap3\n      swap2\n      pop\n      pop\n      jump\t// out\n        /* \"#utility.yul\":8507:8900   */\n    tag_83:\n        /* \"#utility.yul\":8576:8582   */\n      0x00\n        /* \"#utility.yul\":8626:8627   */\n      0x08\n        /* \"#utility.yul\":8614:8624   */\n      dup4\n        /* \"#utility.yul\":8610:8628   */\n      mul\n        /* \"#utility.yul\":8649:8746   */\n      tag_179\n        /* \"#utility.yul\":8679:8745   */\n      0xffffffffffffffffffffffffffffffffffffffffffffffffffffffffffffffff\n        /* \"#utility.yul\":8668:8677   */\n      dup3\n        /* \"#utility.yul\":8649:8746   */\n      tag_82\n      jump\t// in\n    tag_179:\n        /* \"#utility.yul\":8767:8806   */\n      tag_180\n        /* \"#utility.yul\":8797:8805   */\n      dup7\n        /* \"#utility.yul\":8786:8795   */\n      dup4\n        /* \"#utility.yul\":8767:8806   */\n      tag_82\n      jump\t// in\n    tag_180:\n        /* \"#utility.yul\":8755:8806   */\n      swap6\n      pop\n        /* \"#utility.yul\":8839:8843   */\n      dup1\n        /* \"#utility.yul\":8835:8844   */\n      not\n        /* \"#utility.yul\":8828:8833   */\n      dup5\n        /* \"#utility.yul\":8824:8845   */\n      and\n        /* \"#utility.yul\":8815:8845   */\n      swap4\n      pop\n        /* \"#utility.yul\":8888:8892   */\n      dup1\n        /* \"#utility.yul\":8878:8886   */\n      dup7\n        /* \"#utility.yul\":8874:8893   */\n      and\n        /* \"#utility.yul\":8867:8872   */\n      dup5\n        /* \"#utility.yul\":8864:8894   */\n      or\n        /* \"#utility.yul\":8854:8894   */\n      swap3\n      pop\n        /* \"#utility.yul\":8583:8900   */\n      pop\n      pop\n        /* \"#utility.yul\":8507:8900   */\n      swap4\n      swap3\n      pop\n      pop\n      pop\n      jump\t// out\n        /* \"#utility.yul\":8906:8983   */\n    tag_84:\n        /* \"#utility.yul\":8943:8950   */\n      0x00\n        /* \"#utility.yul\":8972:8977   */\n      dup2\n        /* \"#utility.yul\":8961:8977   */\n      swap1\n      pop\n        /* \"#utility.yul\":8906:8983   */\n      swap2\n      swap1\n      pop\n      jump\t// out\n        /* \"#utility.yul\":8989:9049   */\n    tag_85:\n        /* \"#utility.yul\":9017:9020   */\n      0x00\n        /* \"#utility.yul\":9038:9043   */\n      dup2\n        /* \"#utility.yul\":9031:9043   */\n      swap1\n      pop\n        /* \"#utility.yul\":8989:9049   */\n      swap2\n      swap1\n      pop\n      jump\t// out\n        /* \"#utility.yul\":9055:9197   */\n    tag_86:\n        /* \"#utility.yul\":9105:9114   */\n      0x00\n        /* \"#utility.yul\":9138:9191   */\n      tag_184\n        /* \"#utility.yul\":9156:9190   */\n      tag_185\n        /* \"#utility.yul\":9165:9189   */\n      tag_186\n        /* \"#utility.yul\":9183:9188   */\n      dup5\n        /* \"#utility.yul\":9165:9189   */\n      tag_84\n      jump\t// in\n    tag_186:\n        /* \"#utility.yul\":9156:9190   */\n      tag_85\n      jump\t// in\n    tag_185:\n        /* \"#utility.yul\":9138:9191   */\n      tag_84\n      jump\t// in\n    tag_184:\n        /* \"#utility.yul\":9125:9191   */\n      swap1\n      pop\n        /* \"#utility.yul\":9055:9197   */\n      swap2\n      swap1\n      pop\n      jump\t// out\n        /* \"#utility.yul\":9203:9278   */\n    tag_87:\n        /* \"#utility.yul\":9246:9249   */\n      0x00\n        /* \"#utility.yul\":9267:9272   */\n      dup2\n        /* \"#utility.yul\":9260:9272   */\n      swap1\n      pop\n        /* \"#utility.yul\":9203:9278   */\n      swap2\n      swap1\n      pop\n      jump\t// out\n        /* \"#utility.yul\":9284:9553   */\n    tag_88:\n        /* \"#utility.yul\":9394:9433   */\n      tag_189\n        /* \"#utility.yul\":9425:9432   */\n      dup4\n        /* \"#utility.yul\":9394:9433   */\n      tag_86\n      jump\t// in\n    tag_189:\n        /* \"#utility.yul\":9455:9546   */\n      tag_190\n        /* \"#utility.yul\":9504:9545   */\n      tag_191\n        /* \"#utility.yul\":9528:9544   */\n      dup3\n        /* \"#utility.yul\":9504:9545   */\n      tag_87\n      jump\t// in\n    tag_191:\n        /* \"#utility.yul\":9496:9502   */\n      dup5\n        /* \"#utility.yul\":9489:9493   */\n      dup5\n        /* \"#utility.yul\":9483:9494   */\n      sload\n        /* \"#utility.yul\":9455:9546   */\n      tag_83\n      jump\t// in\n    tag_190:\n        /* \"#utility.yul\":9449:9453   */\n      dup3\n        /* \"#utility.yul\":9442:9547   */\n      sstore\n        /* \"#utility.yul\":9360:9553   */\n      pop\n        /* \"#utility.yul\":9284:9553   */\n      pop\n      pop\n      pop\n      jump\t// out\n        /* \"#utility.yul\":9559:9632   */\n    tag_89:\n        /* \"#utility.yul\":9604:9607   */\n      0x00\n        /* \"#utility.yul\":9559:9632   */\n      swap1\n      jump\t// out\n        /* \"#utility.yul\":9638:9827   */\n    tag_90:\n        /* \"#utility.yul\":9715:9747   */\n      tag_194\n      tag_89\n      jump\t// in\n    tag_194:\n        /* \"#utility.yul\":9756:9821   */\n      tag_195\n        /* \"#utility.yul\":9814:9820   */\n      dup2\n        /* \"#utility.yul\":9806:9812   */\n      dup5\n        /* \"#utility.yul\":9800:9804   */\n      dup5\n        /* \"#utility.yul\":9756:9821   */\n      tag_88\n      jump\t// in\n    tag_195:\n        /* \"#utility.yul\":9691:9827   */\n      pop\n        /* \"#utility.yul\":9638:9827   */\n      pop\n      pop\n      jump\t// out\n        /* \"#utility.yul\":9833:10019   */\n    tag_91:\n        /* \"#utility.yul\":9893:10013   */\n    tag_197:\n        /* \"#utility.yul\":9910:9913   */\n      dup2\n        /* \"#utility.yul\":9903:9908   */\n      dup2\n        /* \"#utility.yul\":9900:9914   */\n      lt\n        /* \"#utility.yul\":9893:10013   */\n      iszero\n      tag_199\n      jumpi\n        /* \"#utility.yul\":9964:10003   */\n      tag_200\n        /* \"#utility.yul\":10001:10002   */\n      0x00\n        /* \"#utility.yul\":9994:9999   */\n      dup3\n        /* \"#utility.yul\":9964:10003   */\n      tag_90\n      jump\t// in\n    tag_200:\n        /* \"#utility.yul\":9937:9938   */\n      0x01\n        /* \"#utility.yul\":9930:9935   */\n      dup2\n        /* \"#utility.yul\":9926:9939   */\n      add\n        /* \"#utility.yul\":9917:9939   */\n      swap1\n      pop\n        /* \"#utility.yul\":9893:10013   */\n      jump(tag_197)\n    tag_199:\n        /* \"#utility.yul\":9833:10019   */\n      pop\n      pop\n      jump\t// out\n        /* \"#utility.yul\":10025:10568   */\n    tag_92:\n        /* \"#utility.yul\":10126:10128   */\n      0x1f\n        /* \"#utility.yul\":10121:10124   */\n      dup3\n        /* \"#utility.yul\":10118:10129   */\n      gt\n        /* \"#utility.yul\":10115:10561   */\n      iszero\n      tag_202\n      jumpi\n        /* \"#utility.yul\":10160:10198   */\n      tag_203\n        /* \"#utility.yul\":10192:10197   */\n      dup2\n        /* \"#utility.yul\":10160:10198   */\n      tag_80\n      jump\t// in\n    tag_203:\n        /* \"#utility.yul\":10244:10273   */\n      tag_204\n        /* \"#utility.yul\":10262:10272   */\n      dup5\n        /* \"#utility.yul\":10244:10273   */\n      tag_81\n      jump\t// in\n    tag_204:\n        /* \"#utility.yul\":10234:10242   */\n      dup2\n        /* \"#utility.yul\":10230:10274   */\n      add\n        /* \"#utility.yul\":10427:10429   */\n      0x20\n        /* \"#utility.yul\":10415:10425   */\n      dup6\n        /* \"#utility.yul\":10412:10430   */\n      lt\n        /* \"#utility.yul\":10409:10458   */\n      iszero\n      tag_205\n      jumpi\n        /* \"#utility.yul\":10448:10456   */\n      dup2\n        /* \"#utility.yul\":10433:10456   */\n      swap1\n      pop\n        /* \"#utility.yul\":10409:10458   */\n    tag_205:\n        /* \"#utility.yul\":10471:10551   */\n      tag_206\n        /* \"#utility.yul\":10527:10549   */\n      tag_207\n        /* \"#utility.yul\":10545:10548   */\n      dup6\n        /* \"#utility.yul\":10527:10549   */\n      tag_81\n      jump\t// in\n    tag_207:\n        /* \"#utility.yul\":10517:10525   */\n      dup4\n        /* \"#utility.yul\":10513:10550   */\n      add\n        /* \"#utility.yul\":10500:10511   */\n      dup3\n        /* \"#utility.yul\":10471:10551   */\n      tag_91\n      jump\t// in\n    tag_206:\n        /* \"#utility.yul\":10130:10561   */\n      pop\n      pop\n        /* \"#utility.yul\":10115:10561   */\n    tag_202:\n        /* \"#utility.yul\":10025:10568   */\n      pop\n      pop\n      pop\n      jump\t// out\n        /* \"#utility.yul\":10574:10691   */\n    tag_93:\n        /* \"#utility.yul\":10628:10636   */\n      0x00\n        /* \"#utility.yul\":10678:10683   */\n      dup3\n        /* \"#utility.yul\":10672:10676   */\n      dup3\n        /* \"#utility.yul\":10668:10684   */\n      shr\n        /* \"#utility.yul\":10647:10684   */\n      swap1\n      pop\n        /* \"#utility.yul\":10574:10691   */\n      swap3\n      swap2\n      pop\n      pop\n      jump\t// out\n        /* \"#utility.yul\":10697:10866   */\n    tag_94:\n        /* \"#utility.yul\":10741:10747   */\n      0x00\n        /* \"#utility.yul\":10774:10825   */\n      tag_210\n        /* \"#utility.yul\":10822:10823   */\n      0x00\n        /* \"#utility.yul\":10818:10824   */\n      not\n        /* \"#utility.yul\":10810:10815   */\n      dup5\n        /* \"#utility.yul\":10807:10808   */\n      0x08\n        /* \"#utility.yul\":10803:10816   */\n      mul\n        /* \"#utility.yul\":10774:10825   */\n      tag_93\n      jump\t// in\n    tag_210:\n        /* \"#utility.yul\":10770:10826   */\n      not\n        /* \"#utility.yul\":10855:10859   */\n      dup1\n        /* \"#utility.yul\":10849:10853   */\n      dup4\n        /* \"#utility.yul\":10845:10860   */\n      and\n        /* \"#utility.yul\":10835:10860   */\n      swap2\n      pop\n        /* \"#utility.yul\":10748:10866   */\n      pop\n        /* \"#utility.yul\":10697:10866   */\n      swap3\n      swap2\n      pop\n      pop\n      jump\t// out\n        /* \"#utility.yul\":10871:11166   */\n    tag_95:\n        /* \"#utility.yul\":10947:10951   */\n      0x00\n        /* \"#utility.yul\":11093:11122   */\n      tag_212\n        /* \"#utility.yul\":11118:11121   */\n      dup4\n        /* \"#utility.yul\":11112:11116   */\n      dup4\n        /* \"#utility.yul\":11093:11122   */\n      tag_94\n      jump\t// in\n    tag_212:\n        /* \"#utility.yul\":11085:11122   */\n      swap2\n      pop\n        /* \"#utility.yul\":11155:11158   */\n      dup3\n        /* \"#utility.yul\":11152:11153   */\n      0x02\n        /* \"#utility.yul\":11148:11159   */\n      mul\n        /* \"#utility.yul\":11142:11146   */\n      dup3\n        /* \"#utility.yul\":11139:11160   */\n      or\n        /* \"#utility.yul\":11131:11160   */\n      swap1\n      pop\n        /* \"#utility.yul\":10871:11166   */\n      swap3\n      swap2\n      pop\n      pop\n      jump\t// out\n        /* \"#utility.yul\":11171:12566   */\n    tag_52:\n        /* \"#utility.yul\":11288:11325   */\n      tag_214\n        /* \"#utility.yul\":11321:11324   */\n      dup3\n        /* \"#utility.yul\":11288:11325   */\n      tag_61\n      jump\t// in\n    tag_214:\n        /* \"#utility.yul\":11390:11408   */\n      0xffffffffffffffff\n        /* \"#utility.yul\":11382:11388   */\n      dup2\n        /* \"#utility.yul\":11379:11409   */\n      gt\n        /* \"#utility.yul\":11376:11432   */\n      iszero\n      tag_215\n      jumpi\n        /* \"#utility.yul\":11412:11430   */\n      tag_216\n      tag_68\n      jump\t// in\n    tag_216:\n        /* \"#utility.yul\":11376:11432   */\n    tag_215:\n        /* \"#utility.yul\":11456:11494   */\n      tag_217\n        /* \"#utility.yul\":11488:11492   */\n      dup3\n        /* \"#utility.yul\":11482:11493   */\n      sload\n        /* \"#utility.yul\":11456:11494   */\n      tag_21\n      jump\t// in\n    tag_217:\n        /* \"#utility.yul\":11541:11608   */\n      tag_218\n        /* \"#utility.yul\":11601:11607   */\n      dup3\n        /* \"#utility.yul\":11593:11599   */\n      dup3\n        /* \"#utility.yul\":11587:11591   */\n      dup6\n        /* \"#utility.yul\":11541:11608   */\n      tag_92\n      jump\t// in\n    tag_218:\n        /* \"#utility.yul\":11635:11636   */\n      0x00\n        /* \"#utility.yul\":11659:11663   */\n      0x20\n        /* \"#utility.yul\":11646:11663   */\n      swap1\n      pop\n        /* \"#utility.yul\":11691:11693   */\n      0x1f\n        /* \"#utility.yul\":11683:11689   */\n      dup4\n        /* \"#utility.yul\":11680:11694   */\n      gt\n        /* \"#utility.yul\":11708:11709   */\n      0x01\n        /* \"#utility.yul\":11703:12321   */\n      dup2\n      eq\n      tag_220\n      jumpi\n        /* \"#utility.yul\":12365:12366   */\n      0x00\n        /* \"#utility.yul\":12382:12388   */\n      dup5\n        /* \"#utility.yul\":12379:12456   */\n      iszero\n      tag_221\n      jumpi\n        /* \"#utility.yul\":12431:12440   */\n      dup3\n        /* \"#utility.yul\":12426:12429   */\n      dup8\n        /* \"#utility.yul\":12422:12441   */\n      add\n        /* \"#utility.yul\":12416:12442   */\n      mload\n        /* \"#utility.yul\":12407:12442   */\n      swap1\n      pop\n        /* \"#utility.yul\":12379:12456   */\n    tag_221:\n        /* \"#utility.yul\":12482:12549   */\n      tag_222\n        /* \"#utility.yul\":12542:12548   */\n      dup6\n        /* \"#utility.yul\":12535:12540   */\n      dup3\n        /* \"#utility.yul\":12482:12549   */\n      tag_95\n      jump\t// in\n    tag_222:\n        /* \"#utility.yul\":12476:12480   */\n      dup7\n        /* \"#utility.yul\":12469:12550   */\n      sstore\n        /* \"#utility.yul\":12338:12560   */\n      pop\n        /* \"#utility.yul\":11673:12560   */\n      jump(tag_219)\n        /* \"#utility.yul\":11703:12321   */\n    tag_220:\n        /* \"#utility.yul\":11755:11759   */\n      0x1f\n        /* \"#utility.yul\":11751:11760   */\n      not\n        /* \"#utility.yul\":11743:11749   */\n      dup5\n        /* \"#utility.yul\":11739:11761   */\n      and\n        /* \"#utility.yul\":11789:11826   */\n      tag_223\n        /* \"#utility.yul\":11821:11825   */\n      dup7\n        /* \"#utility.yul\":11789:11826   */\n      tag_80\n      jump\t// in\n    tag_223:\n        /* \"#utility.yul\":11848:11849   */\n      0x00\n        /* \"#utility.yul\":11862:12070   */\n    tag_224:\n        /* \"#utility.yul\":11876:11883   */\n      dup3\n        /* \"#utility.yul\":11873:11874   */\n      dup2\n        /* \"#utility.yul\":11870:11884   */\n      lt\n        /* \"#utility.yul\":11862:12070   */\n      iszero\n      tag_226\n      jumpi\n        /* \"#utility.yul\":11955:11964   */\n      dup5\n        /* \"#utility.yul\":11950:11953   */\n      dup10\n        /* \"#utility.yul\":11946:11965   */\n      add\n        /* \"#utility.yul\":11940:11966   */\n      mload\n        /* \"#utility.yul\":11932:11938   */\n      dup3\n        /* \"#utility.yul\":11925:11967   */\n      sstore\n        /* \"#utility.yul\":12006:12007   */\n      0x01\n        /* \"#utility.yul\":11998:12004   */\n      dup3\n        /* \"#utility.yul\":11994:12008   */\n      add\n        /* \"#utility.yul\":11984:12008   */\n      swap2\n      pop\n        /* \"#utility.yul\":12053:12055   */\n      0x20\n        /* \"#utility.yul\":12042:12051   */\n      dup6\n        /* \"#utility.yul\":12038:12056   */\n      add\n        /* \"#utility.yul\":12025:12056   */\n      swap5\n      pop\n        /* \"#utility.yul\":11899:11903   */\n      0x20\n        /* \"#utility.yul\":11896:11897   */\n      dup2\n        /* \"#utility.yul\":11892:11904   */\n      add\n        /* \"#utility.yul\":11887:11904   */\n      swap1\n      pop\n        /* \"#utility.yul\":11862:12070   */\n      jump(tag_224)\n    tag_226:\n        /* \"#utility.yul\":12098:12104   */\n      dup7\n        /* \"#utility.yul\":12089:12096   */\n      dup4\n        /* \"#utility.yul\":12086:12105   */\n      lt\n        /* \"#utility.yul\":12083:12262   */\n      iszero\n      tag_227\n      jumpi\n        /* \"#utility.yul\":12156:12165   */\n      dup5\n        /* \"#utility.yul\":12151:12154   */\n      dup10\n        /* \"#utility.yul\":12147:12166   */\n      add\n        /* \"#utility.yul\":12141:12167   */\n      mload\n        /* \"#utility.yul\":12199:12247   */\n      tag_228\n        /* \"#utility.yul\":12241:12245   */\n      0x1f\n        /* \"#utility.yul\":12233:12239   */\n      dup10\n        /* \"#utility.yul\":12229:12246   */\n      and\n        /* \"#utility.yul\":12218:12227   */\n      dup3\n        /* \"#utility.yul\":12199:12247   */\n      tag_94\n      jump\t// in\n    tag_228:\n        /* \"#utility.yul\":12191:12197   */\n      dup4\n        /* \"#utility.yul\":12184:12248   */\n      sstore\n        /* \"#utility.yul\":12106:12262   */\n      pop\n        /* \"#utility.yul\":12083:12262   */\n    tag_227:\n        /* \"#utility.yul\":12308:12309   */\n      0x01\n        /* \"#utility.yul\":12304:12305   */\n      0x02\n        /* \"#utility.yul\":12296:12302   */\n      dup9\n        /* \"#utility.yul\":12292:12306   */\n      mul\n        /* \"#utility.yul\":12288:12310   */\n      add\n        /* \"#utility.yul\":12282:12286   */\n      dup9\n        /* \"#utility.yul\":12275:12311   */\n      sstore\n        /* \"#utility.yul\":11710:12321   */\n      pop\n      pop\n      pop\n        /* \"#utility.yul\":11673:12560   */\n    tag_219:\n      pop\n        /* \"#utility.yul\":11263:12566   */\n      pop\n      pop\n      pop\n        /* \"#utility.yul\":11171:12566   */\n      pop\n      pop\n      jump\t// out\n\n    auxdata: 0xa264697066735822122002a3b5b1431dc75457dda444cc9107b49d167174563389d812b796eed905f26564736f6c634300081a0033\n}\n",
				"bytecode": {
					"linkReferences": {},
					"object": "6080604052348015600e575f80fd5b50610b948061001c5f395ff3fe608060405234801561000f575f80fd5b506004361061003f575f3560e01c8063336989ae14610043578063cb949e5114610074578063db0f9894146100a5575b5f80fd5b61005d600480360381019061005891906104fe565b6100c1565b60405161006b929190610599565b60405180910390f35b61008e600480360381019061008991906104fe565b6101ec565b60405161009c929190610599565b60405180910390f35b6100bf60048036038101906100ba91906106fa565b61036b565b005b5f602052805f5260405f205f91509050805f0180546100df9061079d565b80601f016020809104026020016040519081016040528092919081815260200182805461010b9061079d565b80156101565780601f1061012d57610100808354040283529160200191610156565b820191905f5260205f20905b81548152906001019060200180831161013957829003601f168201915b50505050509080600101805461016b9061079d565b80601f01602080910402602001604051908101604052809291908181526020018280546101979061079d565b80156101e25780601f106101b9576101008083540402835291602001916101e2565b820191905f5260205f20905b8154815290600101906020018083116101c557829003601f168201915b5050505050905082565b6060805f805f8573ffffffffffffffffffffffffffffffffffffffff1673ffffffffffffffffffffffffffffffffffffffff1681526020019081526020015f206040518060400160405290815f820180546102469061079d565b80601f01602080910402602001604051908101604052809291908181526020018280546102729061079d565b80156102bd5780601f10610294576101008083540402835291602001916102bd565b820191905f5260205f20905b8154815290600101906020018083116102a057829003601f168201915b505050505081526020016001820180546102d69061079d565b80601f01602080910402602001604051908101604052809291908181526020018280546103029061079d565b801561034d5780601f106103245761010080835404028352916020019161034d565b820191905f5260205f20905b81548152906001019060200180831161033057829003601f168201915b5050505050815250509050805f015181602001519250925050915091565b600582511015801561037f5750600a825111155b6103be576040517f08c379a00000000000000000000000000000000000000000000000000000000081526004016103b59061083d565b60405180910390fd5b60148151101580156103d257506032815111155b610411576040517f08c379a0000000000000000000000000000000000000000000000000000000008152600401610408906108cb565b60405180910390fd5b6040518060400160405280838152602001828152505f803373ffffffffffffffffffffffffffffffffffffffff1673ffffffffffffffffffffffffffffffffffffffff1681526020019081526020015f205f820151815f0190816104759190610a8f565b50602082015181600101908161048b9190610a8f565b509050505050565b5f604051905090565b5f80fd5b5f80fd5b5f73ffffffffffffffffffffffffffffffffffffffff82169050919050565b5f6104cd826104a4565b9050919050565b6104dd816104c3565b81146104e7575f80fd5b50565b5f813590506104f8816104d4565b92915050565b5f602082840312156105135761051261049c565b5b5f610520848285016104ea565b91505092915050565b5f81519050919050565b5f82825260208201905092915050565b8281835e5f83830152505050565b5f601f19601f8301169050919050565b5f61056b82610529565b6105758185610533565b9350610585818560208601610543565b61058e81610551565b840191505092915050565b5f6040820190508181035f8301526105b18185610561565b905081810360208301526105c58184610561565b90509392505050565b5f80fd5b5f80fd5b7f4e487b71000000000000000000000000000000000000000000000000000000005f52604160045260245ffd5b61060c82610551565b810181811067ffffffffffffffff8211171561062b5761062a6105d6565b5b80604052505050565b5f61063d610493565b90506106498282610603565b919050565b5f67ffffffffffffffff821115610668576106676105d6565b5b61067182610551565b9050602081019050919050565b828183375f83830152505050565b5f61069e6106998461064e565b610634565b9050828152602081018484840111156106ba576106b96105d2565b5b6106c584828561067e565b509392505050565b5f82601f8301126106e1576106e06105ce565b5b81356106f184826020860161068c565b91505092915050565b5f80604083850312156107105761070f61049c565b5b5f83013567ffffffffffffffff81111561072d5761072c6104a0565b5b610739858286016106cd565b925050602083013567ffffffffffffffff81111561075a576107596104a0565b5b610766858286016106cd565b9150509250929050565b7f4e487b71000000000000000000000000000000000000000000000000000000005f52602260045260245ffd5b5f60028204905060018216806107b457607f821691505b6020821081036107c7576107c6610770565b5b50919050565b7f4e616d65206d757374206265206265747765656e203520616e642031302063685f8201527f61726163746572732e0000000000000000000000000000000000000000000000602082015250565b5f610827602983610533565b9150610832826107cd565b604082019050919050565b5f6020820190508181035f8301526108548161081b565b9050919050565b7f496e74726f64756374696f6e206d757374206265206265747765656e203230205f8201527f616e6420353020636861726163746572732e0000000000000000000000000000602082015250565b5f6108b5603283610533565b91506108c08261085b565b604082019050919050565b5f6020820190508181035f8301526108e2816108a9565b9050919050565b5f819050815f5260205f209050919050565b5f6020601f8301049050919050565b5f82821b905092915050565b5f600883026109457fffffffffffffffffffffffffffffffffffffffffffffffffffffffffffffffff8261090a565b61094f868361090a565b95508019841693508086168417925050509392505050565b5f819050919050565b5f819050919050565b5f61099361098e61098984610967565b610970565b610967565b9050919050565b5f819050919050565b6109ac83610979565b6109c06109b88261099a565b848454610916565b825550505050565b5f90565b6109d46109c8565b6109df8184846109a3565b505050565b5b81811015610a02576109f75f826109cc565b6001810190506109e5565b5050565b601f821115610a4757610a18816108e9565b610a21846108fb565b81016020851015610a30578190505b610a44610a3c856108fb565b8301826109e4565b50505b505050565b5f82821c905092915050565b5f610a675f1984600802610a4c565b1980831691505092915050565b5f610a7f8383610a58565b9150826002028217905092915050565b610a9882610529565b67ffffffffffffffff811115610ab157610ab06105d6565b5b610abb825461079d565b610ac6828285610a06565b5f60209050601f831160018114610af7575f8415610ae5578287015190505b610aef8582610a74565b865550610b56565b601f198416610b05866108e9565b5f5b82811015610b2c57848901518255600182019150602085019450602081019050610b07565b86831015610b495784890151610b45601f891682610a58565b8355505b6001600288020188555050505b50505050505056fea264697066735822122002a3b5b1431dc75457dda444cc9107b49d167174563389d812b796eed905f26564736f6c634300081a0033",
					"opcodes": "PUSH1 0x80 PUSH1 0x40 MSTORE CALLVALUE DUP1 ISZERO PUSH1 0xE JUMPI PUSH0 DUP1 REVERT JUMPDEST POP PUSH2 0xB94 DUP1 PUSH2 0x1C PUSH0 CODECOPY PUSH0 RETURN INVALID PUSH1 0x80 PUSH1 0x40 MSTORE CALLVALUE DUP1 ISZERO PUSH2 0xF JUMPI PUSH0 DUP1 REVERT JUMPDEST POP PUSH1 0x4 CALLDATASIZE LT PUSH2 0x3F JUMPI PUSH0 CALLDATALOAD PUSH1 0xE0 SHR DUP1 PUSH4 0x336989AE EQ PUSH2 0x43 JUMPI DUP1 PUSH4 0xCB949E51 EQ PUSH2 0x74 JUMPI DUP1 PUSH4 0xDB0F9894 EQ PUSH2 0xA5 JUMPI JUMPDEST PUSH0 DUP1 REVERT JUMPDEST PUSH2 0x5D PUSH1 0x4 DUP1 CALLDATASIZE SUB DUP2 ADD SWAP1 PUSH2 0x58 SWAP2 SWAP1 PUSH2 0x4FE JUMP JUMPDEST PUSH2 0xC1 JUMP JUMPDEST PUSH1 0x40 MLOAD PUSH2 0x6B SWAP3 SWAP2 SWAP1 PUSH2 0x599 JUMP JUMPDEST PUSH1 0x40 MLOAD DUP1 SWAP2 SUB SWAP1 RETURN JUMPDEST PUSH2 0x8E PUSH1 0x4 DUP1 CALLDATASIZE SUB DUP2 ADD SWAP1 PUSH2 0x89 SWAP2 SWAP1 PUSH2 0x4FE JUMP JUMPDEST PUSH2 0x1EC JUMP JUMPDEST PUSH1 0x40 MLOAD PUSH2 0x9C SWAP3 SWAP2 SWAP1 PUSH2 0x599 JUMP JUMPDEST PUSH1 0x40 MLOAD DUP1 SWAP2 SUB SWAP1 RETURN JUMPDEST PUSH2 0xBF PUSH1 0x4 DUP1 CALLDATASIZE SUB DUP2 ADD SWAP1 PUSH2 0xBA SWAP2 SWAP1 PUSH2 0x6FA JUMP JUMPDEST PUSH2 0x36B JUMP JUMPDEST STOP JUMPDEST PUSH0 PUSH1 0x20 MSTORE DUP1 PUSH0 MSTORE PUSH1 0x40 PUSH0 KECCAK256 PUSH0 SWAP2 POP SWAP1 POP DUP1 PUSH0 ADD DUP1 SLOAD PUSH2 0xDF SWAP1 PUSH2 0x79D JUMP JUMPDEST DUP1 PUSH1 0x1F ADD PUSH1 0x20 DUP1 SWAP2 DIV MUL PUSH1 0x20 ADD PUSH1 0x40 MLOAD SWAP1 DUP2 ADD PUSH1 0x40 MSTORE DUP1 SWAP3 SWAP2 SWAP1 DUP2 DUP2 MSTORE PUSH1 0x20 ADD DUP3 DUP1 SLOAD PUSH2 0x10B SWAP1 PUSH2 0x79D JUMP JUMPDEST DUP1 ISZERO PUSH2 0x156 JUMPI DUP1 PUSH1 0x1F LT PUSH2 0x12D JUMPI PUSH2 0x100 DUP1 DUP4 SLOAD DIV MUL DUP4 MSTORE SWAP2 PUSH1 0x20 ADD SWAP2 PUSH2 0x156 JUMP JUMPDEST DUP3 ADD SWAP2 SWAP1 PUSH0 MSTORE PUSH1 0x20 PUSH0 KECCAK256 SWAP1 JUMPDEST DUP2 SLOAD DUP2 MSTORE SWAP1 PUSH1 0x1 ADD SWAP1 PUSH1 0x20 ADD DUP1 DUP4 GT PUSH2 0x139 JUMPI DUP3 SWAP1 SUB PUSH1 0x1F AND DUP3 ADD SWAP2 JUMPDEST POP POP POP POP POP SWAP1 DUP1 PUSH1 0x1 ADD DUP1 SLOAD PUSH2 0x16B SWAP1 PUSH2 0x79D JUMP JUMPDEST DUP1 PUSH1 0x1F ADD PUSH1 0x20 DUP1 SWAP2 DIV MUL PUSH1 0x20 ADD PUSH1 0x40 MLOAD SWAP1 DUP2 ADD PUSH1 0x40 MSTORE DUP1 SWAP3 SWAP2 SWAP1 DUP2 DUP2 MSTORE PUSH1 0x20 ADD DUP3 DUP1 SLOAD PUSH2 0x197 SWAP1 PUSH2 0x79D JUMP JUMPDEST DUP1 ISZERO PUSH2 0x1E2 JUMPI DUP1 PUSH1 0x1F LT PUSH2 0x1B9 JUMPI PUSH2 0x100 DUP1 DUP4 SLOAD DIV MUL DUP4 MSTORE SWAP2 PUSH1 0x20 ADD SWAP2 PUSH2 0x1E2 JUMP JUMPDEST DUP3 ADD SWAP2 SWAP1 PUSH0 MSTORE PUSH1 0x20 PUSH0 KECCAK256 SWAP1 JUMPDEST DUP2 SLOAD DUP2 MSTORE SWAP1 PUSH1 0x1 ADD SWAP1 PUSH1 0x20 ADD DUP1 DUP4 GT PUSH2 0x1C5 JUMPI DUP3 SWAP1 SUB PUSH1 0x1F AND DUP3 ADD SWAP2 JUMPDEST POP POP POP POP POP SWAP1 POP DUP3 JUMP JUMPDEST PUSH1 0x60 DUP1 PUSH0 DUP1 PUSH0 DUP6 PUSH20 0xFFFFFFFFFFFFFFFFFFFFFFFFFFFFFFFFFFFFFFFF AND PUSH20 0xFFFFFFFFFFFFFFFFFFFFFFFFFFFFFFFFFFFFFFFF AND DUP2 MSTORE PUSH1 0x20 ADD SWAP1 DUP2 MSTORE PUSH1 0x20 ADD PUSH0 KECCAK256 PUSH1 0x40 MLOAD DUP1 PUSH1 0x40 ADD PUSH1 0x40 MSTORE SWAP1 DUP2 PUSH0 DUP3 ADD DUP1 SLOAD PUSH2 0x246 SWAP1 PUSH2 0x79D JUMP JUMPDEST DUP1 PUSH1 0x1F ADD PUSH1 0x20 DUP1 SWAP2 DIV MUL PUSH1 0x20 ADD PUSH1 0x40 MLOAD SWAP1 DUP2 ADD PUSH1 0x40 MSTORE DUP1 SWAP3 SWAP2 SWAP1 DUP2 DUP2 MSTORE PUSH1 0x20 ADD DUP3 DUP1 SLOAD PUSH2 0x272 SWAP1 PUSH2 0x79D JUMP JUMPDEST DUP1 ISZERO PUSH2 0x2BD JUMPI DUP1 PUSH1 0x1F LT PUSH2 0x294 JUMPI PUSH2 0x100 DUP1 DUP4 SLOAD DIV MUL DUP4 MSTORE SWAP2 PUSH1 0x20 ADD SWAP2 PUSH2 0x2BD JUMP JUMPDEST DUP3 ADD SWAP2 SWAP1 PUSH0 MSTORE PUSH1 0x20 PUSH0 KECCAK256 SWAP1 JUMPDEST DUP2 SLOAD DUP2 MSTORE SWAP1 PUSH1 0x1 ADD SWAP1 PUSH1 0x20 ADD DUP1 DUP4 GT PUSH2 0x2A0 JUMPI DUP3 SWAP1 SUB PUSH1 0x1F AND DUP3 ADD SWAP2 JUMPDEST POP POP POP POP POP DUP2 MSTORE PUSH1 0x20 ADD PUSH1 0x1 DUP3 ADD DUP1 SLOAD PUSH2 0x2D6 SWAP1 PUSH2 0x79D JUMP JUMPDEST DUP1 PUSH1 0x1F ADD PUSH1 0x20 DUP1 SWAP2 DIV MUL PUSH1 0x20 ADD PUSH1 0x40 MLOAD SWAP1 DUP2 ADD PUSH1 0x40 MSTORE DUP1 SWAP3 SWAP2 SWAP1 DUP2 DUP2 MSTORE PUSH1 0x20 ADD DUP3 DUP1 SLOAD PUSH2 0x302 SWAP1 PUSH2 0x79D JUMP JUMPDEST DUP1 ISZERO PUSH2 0x34D JUMPI DUP1 PUSH1 0x1F LT PUSH2 0x324 JUMPI PUSH2 0x100 DUP1 DUP4 SLOAD DIV MUL DUP4 MSTORE SWAP2 PUSH1 0x20 ADD SWAP2 PUSH2 0x34D JUMP JUMPDEST DUP3 ADD SWAP2 SWAP1 PUSH0 MSTORE PUSH1 0x20 PUSH0 KECCAK256 SWAP1 JUMPDEST DUP2 SLOAD DUP2 MSTORE SWAP1 PUSH1 0x1 ADD SWAP1 PUSH1 0x20 ADD DUP1 DUP4 GT PUSH2 0x330 JUMPI DUP3 SWAP1 SUB PUSH1 0x1F AND DUP3 ADD SWAP2 JUMPDEST POP POP POP POP POP DUP2 MSTORE POP POP SWAP1 POP DUP1 PUSH0 ADD MLOAD DUP2 PUSH1 0x20 ADD MLOAD SWAP3 POP SWAP3 POP POP SWAP2 POP SWAP2 JUMP JUMPDEST PUSH1 0x5 DUP3 MLOAD LT ISZERO DUP1 ISZERO PUSH2 0x37F JUMPI POP PUSH1 0xA DUP3 MLOAD GT ISZERO JUMPDEST PUSH2 0x3BE JUMPI PUSH1 0x40 MLOAD PUSH32 0x8C379A000000000000000000000000000000000000000000000000000000000 DUP2 MSTORE PUSH1 0x4 ADD PUSH2 0x3B5 SWAP1 PUSH2 0x83D JUMP JUMPDEST PUSH1 0x40 MLOAD DUP1 SWAP2 SUB SWAP1 REVERT JUMPDEST PUSH1 0x14 DUP2 MLOAD LT ISZERO DUP1 ISZERO PUSH2 0x3D2 JUMPI POP PUSH1 0x32 DUP2 MLOAD GT ISZERO JUMPDEST PUSH2 0x411 JUMPI PUSH1 0x40 MLOAD PUSH32 0x8C379A000000000000000000000000000000000000000000000000000000000 DUP2 MSTORE PUSH1 0x4 ADD PUSH2 0x408 SWAP1 PUSH2 0x8CB JUMP JUMPDEST PUSH1 0x40 MLOAD DUP1 SWAP2 SUB SWAP1 REVERT JUMPDEST PUSH1 0x40 MLOAD DUP1 PUSH1 0x40 ADD PUSH1 0x40 MSTORE DUP1 DUP4 DUP2 MSTORE PUSH1 0x20 ADD DUP3 DUP2 MSTORE POP PUSH0 DUP1 CALLER PUSH20 0xFFFFFFFFFFFFFFFFFFFFFFFFFFFFFFFFFFFFFFFF AND PUSH20 0xFFFFFFFFFFFFFFFFFFFFFFFFFFFFFFFFFFFFFFFF AND DUP2 MSTORE PUSH1 0x20 ADD SWAP1 DUP2 MSTORE PUSH1 0x20 ADD PUSH0 KECCAK256 PUSH0 DUP3 ADD MLOAD DUP2 PUSH0 ADD SWAP1 DUP2 PUSH2 0x475 SWAP2 SWAP1 PUSH2 0xA8F JUMP JUMPDEST POP PUSH1 0x20 DUP3 ADD MLOAD DUP2 PUSH1 0x1 ADD SWAP1 DUP2 PUSH2 0x48B SWAP2 SWAP1 PUSH2 0xA8F JUMP JUMPDEST POP SWAP1 POP POP POP POP JUMP JUMPDEST PUSH0 PUSH1 0x40 MLOAD SWAP1 POP SWAP1 JUMP JUMPDEST PUSH0 DUP1 REVERT JUMPDEST PUSH0 DUP1 REVERT JUMPDEST PUSH0 PUSH20 0xFFFFFFFFFFFFFFFFFFFFFFFFFFFFFFFFFFFFFFFF DUP3 AND SWAP1 POP SWAP2 SWAP1 POP JUMP JUMPDEST PUSH0 PUSH2 0x4CD DUP3 PUSH2 0x4A4 JUMP JUMPDEST SWAP1 POP SWAP2 SWAP1 POP JUMP JUMPDEST PUSH2 0x4DD DUP2 PUSH2 0x4C3 JUMP JUMPDEST DUP2 EQ PUSH2 0x4E7 JUMPI PUSH0 DUP1 REVERT JUMPDEST POP JUMP JUMPDEST PUSH0 DUP2 CALLDATALOAD SWAP1 POP PUSH2 0x4F8 DUP2 PUSH2 0x4D4 JUMP JUMPDEST SWAP3 SWAP2 POP POP JUMP JUMPDEST PUSH0 PUSH1 0x20 DUP3 DUP5 SUB SLT ISZERO PUSH2 0x513 JUMPI PUSH2 0x512 PUSH2 0x49C JUMP JUMPDEST JUMPDEST PUSH0 PUSH2 0x520 DUP5 DUP3 DUP6 ADD PUSH2 0x4EA JUMP JUMPDEST SWAP2 POP POP SWAP3 SWAP2 POP POP JUMP JUMPDEST PUSH0 DUP2 MLOAD SWAP1 POP SWAP2 SWAP1 POP JUMP JUMPDEST PUSH0 DUP3 DUP3 MSTORE PUSH1 0x20 DUP3 ADD SWAP1 POP SWAP3 SWAP2 POP POP JUMP JUMPDEST DUP3 DUP2 DUP4 MCOPY PUSH0 DUP4 DUP4 ADD MSTORE POP POP POP JUMP JUMPDEST PUSH0 PUSH1 0x1F NOT PUSH1 0x1F DUP4 ADD AND SWAP1 POP SWAP2 SWAP1 POP JUMP JUMPDEST PUSH0 PUSH2 0x56B DUP3 PUSH2 0x529 JUMP JUMPDEST PUSH2 0x575 DUP2 DUP6 PUSH2 0x533 JUMP JUMPDEST SWAP4 POP PUSH2 0x585 DUP2 DUP6 PUSH1 0x20 DUP7 ADD PUSH2 0x543 JUMP JUMPDEST PUSH2 0x58E DUP2 PUSH2 0x551 JUMP JUMPDEST DUP5 ADD SWAP2 POP POP SWAP3 SWAP2 POP POP JUMP JUMPDEST PUSH0 PUSH1 0x40 DUP3 ADD SWAP1 POP DUP2 DUP2 SUB PUSH0 DUP4 ADD MSTORE PUSH2 0x5B1 DUP2 DUP6 PUSH2 0x561 JUMP JUMPDEST SWAP1 POP DUP2 DUP2 SUB PUSH1 0x20 DUP4 ADD MSTORE PUSH2 0x5C5 DUP2 DUP5 PUSH2 0x561 JUMP JUMPDEST SWAP1 POP SWAP4 SWAP3 POP POP POP JUMP JUMPDEST PUSH0 DUP1 REVERT JUMPDEST PUSH0 DUP1 REVERT JUMPDEST PUSH32 0x4E487B7100000000000000000000000000000000000000000000000000000000 PUSH0 MSTORE PUSH1 0x41 PUSH1 0x4 MSTORE PUSH1 0x24 PUSH0 REVERT JUMPDEST PUSH2 0x60C DUP3 PUSH2 0x551 JUMP JUMPDEST DUP2 ADD DUP2 DUP2 LT PUSH8 0xFFFFFFFFFFFFFFFF DUP3 GT OR ISZERO PUSH2 0x62B JUMPI PUSH2 0x62A PUSH2 0x5D6 JUMP JUMPDEST JUMPDEST DUP1 PUSH1 0x40 MSTORE POP POP POP JUMP JUMPDEST PUSH0 PUSH2 0x63D PUSH2 0x493 JUMP JUMPDEST SWAP1 POP PUSH2 0x649 DUP3 DUP3 PUSH2 0x603 JUMP JUMPDEST SWAP2 SWAP1 POP JUMP JUMPDEST PUSH0 PUSH8 0xFFFFFFFFFFFFFFFF DUP3 GT ISZERO PUSH2 0x668 JUMPI PUSH2 0x667 PUSH2 0x5D6 JUMP JUMPDEST JUMPDEST PUSH2 0x671 DUP3 PUSH2 0x551 JUMP JUMPDEST SWAP1 POP PUSH1 0x20 DUP2 ADD SWAP1 POP SWAP2 SWAP1 POP JUMP JUMPDEST DUP3 DUP2 DUP4 CALLDATACOPY PUSH0 DUP4 DUP4 ADD MSTORE POP POP POP JUMP JUMPDEST PUSH0 PUSH2 0x69E PUSH2 0x699 DUP5 PUSH2 0x64E JUMP JUMPDEST PUSH2 0x634 JUMP JUMPDEST SWAP1 POP DUP3 DUP2 MSTORE PUSH1 0x20 DUP2 ADD DUP5 DUP5 DUP5 ADD GT ISZERO PUSH2 0x6BA JUMPI PUSH2 0x6B9 PUSH2 0x5D2 JUMP JUMPDEST JUMPDEST PUSH2 0x6C5 DUP5 DUP3 DUP6 PUSH2 0x67E JUMP JUMPDEST POP SWAP4 SWAP3 POP POP POP JUMP JUMPDEST PUSH0 DUP3 PUSH1 0x1F DUP4 ADD SLT PUSH2 0x6E1 JUMPI PUSH2 0x6E0 PUSH2 0x5CE JUMP JUMPDEST JUMPDEST DUP2 CALLDATALOAD PUSH2 0x6F1 DUP5 DUP3 PUSH1 0x20 DUP7 ADD PUSH2 0x68C JUMP JUMPDEST SWAP2 POP POP SWAP3 SWAP2 POP POP JUMP JUMPDEST PUSH0 DUP1 PUSH1 0x40 DUP4 DUP6 SUB SLT ISZERO PUSH2 0x710 JUMPI PUSH2 0x70F PUSH2 0x49C JUMP JUMPDEST JUMPDEST PUSH0 DUP4 ADD CALLDATALOAD PUSH8 0xFFFFFFFFFFFFFFFF DUP2 GT ISZERO PUSH2 0x72D JUMPI PUSH2 0x72C PUSH2 0x4A0 JUMP JUMPDEST JUMPDEST PUSH2 0x739 DUP6 DUP3 DUP7 ADD PUSH2 0x6CD JUMP JUMPDEST SWAP3 POP POP PUSH1 0x20 DUP4 ADD CALLDATALOAD PUSH8 0xFFFFFFFFFFFFFFFF DUP2 GT ISZERO PUSH2 0x75A JUMPI PUSH2 0x759 PUSH2 0x4A0 JUMP JUMPDEST JUMPDEST PUSH2 0x766 DUP6 DUP3 DUP7 ADD PUSH2 0x6CD JUMP JUMPDEST SWAP2 POP POP SWAP3 POP SWAP3 SWAP1 POP JUMP JUMPDEST PUSH32 0x4E487B7100000000000000000000000000000000000000000000000000000000 PUSH0 MSTORE PUSH1 0x22 PUSH1 0x4 MSTORE PUSH1 0x24 PUSH0 REVERT JUMPDEST PUSH0 PUSH1 0x2 DUP3 DIV SWAP1 POP PUSH1 0x1 DUP3 AND DUP1 PUSH2 0x7B4 JUMPI PUSH1 0x7F DUP3 AND SWAP2 POP JUMPDEST PUSH1 0x20 DUP3 LT DUP2 SUB PUSH2 0x7C7 JUMPI PUSH2 0x7C6 PUSH2 0x770 JUMP JUMPDEST JUMPDEST POP SWAP2 SWAP1 POP JUMP JUMPDEST PUSH32 0x4E616D65206D757374206265206265747765656E203520616E64203130206368 PUSH0 DUP3 ADD MSTORE PUSH32 0x61726163746572732E0000000000000000000000000000000000000000000000 PUSH1 0x20 DUP3 ADD MSTORE POP JUMP JUMPDEST PUSH0 PUSH2 0x827 PUSH1 0x29 DUP4 PUSH2 0x533 JUMP JUMPDEST SWAP2 POP PUSH2 0x832 DUP3 PUSH2 0x7CD JUMP JUMPDEST PUSH1 0x40 DUP3 ADD SWAP1 POP SWAP2 SWAP1 POP JUMP JUMPDEST PUSH0 PUSH1 0x20 DUP3 ADD SWAP1 POP DUP2 DUP2 SUB PUSH0 DUP4 ADD MSTORE PUSH2 0x854 DUP2 PUSH2 0x81B JUMP JUMPDEST SWAP1 POP SWAP2 SWAP1 POP JUMP JUMPDEST PUSH32 0x496E74726F64756374696F6E206D757374206265206265747765656E20323020 PUSH0 DUP3 ADD MSTORE PUSH32 0x616E6420353020636861726163746572732E0000000000000000000000000000 PUSH1 0x20 DUP3 ADD MSTORE POP JUMP JUMPDEST PUSH0 PUSH2 0x8B5 PUSH1 0x32 DUP4 PUSH2 0x533 JUMP JUMPDEST SWAP2 POP PUSH2 0x8C0 DUP3 PUSH2 0x85B JUMP JUMPDEST PUSH1 0x40 DUP3 ADD SWAP1 POP SWAP2 SWAP1 POP JUMP JUMPDEST PUSH0 PUSH1 0x20 DUP3 ADD SWAP1 POP DUP2 DUP2 SUB PUSH0 DUP4 ADD MSTORE PUSH2 0x8E2 DUP2 PUSH2 0x8A9 JUMP JUMPDEST SWAP1 POP SWAP2 SWAP1 POP JUMP JUMPDEST PUSH0 DUP2 SWAP1 POP DUP2 PUSH0 MSTORE PUSH1 0x20 PUSH0 KECCAK256 SWAP1 POP SWAP2 SWAP1 POP JUMP JUMPDEST PUSH0 PUSH1 0x20 PUSH1 0x1F DUP4 ADD DIV SWAP1 POP SWAP2 SWAP1 POP JUMP JUMPDEST PUSH0 DUP3 DUP3 SHL SWAP1 POP SWAP3 SWAP2 POP POP JUMP JUMPDEST PUSH0 PUSH1 0x8 DUP4 MUL PUSH2 0x945 PUSH32 0xFFFFFFFFFFFFFFFFFFFFFFFFFFFFFFFFFFFFFFFFFFFFFFFFFFFFFFFFFFFFFFFF DUP3 PUSH2 0x90A JUMP JUMPDEST PUSH2 0x94F DUP7 DUP4 PUSH2 0x90A JUMP JUMPDEST SWAP6 POP DUP1 NOT DUP5 AND SWAP4 POP DUP1 DUP7 AND DUP5 OR SWAP3 POP POP POP SWAP4 SWAP3 POP POP POP JUMP JUMPDEST PUSH0 DUP2 SWAP1 POP SWAP2 SWAP1 POP JUMP JUMPDEST PUSH0 DUP2 SWAP1 POP SWAP2 SWAP1 POP JUMP JUMPDEST PUSH0 PUSH2 0x993 PUSH2 0x98E PUSH2 0x989 DUP5 PUSH2 0x967 JUMP JUMPDEST PUSH2 0x970 JUMP JUMPDEST PUSH2 0x967 JUMP JUMPDEST SWAP1 POP SWAP2 SWAP1 POP JUMP JUMPDEST PUSH0 DUP2 SWAP1 POP SWAP2 SWAP1 POP JUMP JUMPDEST PUSH2 0x9AC DUP4 PUSH2 0x979 JUMP JUMPDEST PUSH2 0x9C0 PUSH2 0x9B8 DUP3 PUSH2 0x99A JUMP JUMPDEST DUP5 DUP5 SLOAD PUSH2 0x916 JUMP JUMPDEST DUP3 SSTORE POP POP POP POP JUMP JUMPDEST PUSH0 SWAP1 JUMP JUMPDEST PUSH2 0x9D4 PUSH2 0x9C8 JUMP JUMPDEST PUSH2 0x9DF DUP2 DUP5 DUP5 PUSH2 0x9A3 JUMP JUMPDEST POP POP POP JUMP JUMPDEST JUMPDEST DUP2 DUP2 LT ISZERO PUSH2 0xA02 JUMPI PUSH2 0x9F7 PUSH0 DUP3 PUSH2 0x9CC JUMP JUMPDEST PUSH1 0x1 DUP2 ADD SWAP1 POP PUSH2 0x9E5 JUMP JUMPDEST POP POP JUMP JUMPDEST PUSH1 0x1F DUP3 GT ISZERO PUSH2 0xA47 JUMPI PUSH2 0xA18 DUP2 PUSH2 0x8E9 JUMP JUMPDEST PUSH2 0xA21 DUP5 PUSH2 0x8FB JUMP JUMPDEST DUP2 ADD PUSH1 0x20 DUP6 LT ISZERO PUSH2 0xA30 JUMPI DUP2 SWAP1 POP JUMPDEST PUSH2 0xA44 PUSH2 0xA3C DUP6 PUSH2 0x8FB JUMP JUMPDEST DUP4 ADD DUP3 PUSH2 0x9E4 JUMP JUMPDEST POP POP JUMPDEST POP POP POP JUMP JUMPDEST PUSH0 DUP3 DUP3 SHR SWAP1 POP SWAP3 SWAP2 POP POP JUMP JUMPDEST PUSH0 PUSH2 0xA67 PUSH0 NOT DUP5 PUSH1 0x8 MUL PUSH2 0xA4C JUMP JUMPDEST NOT DUP1 DUP4 AND SWAP2 POP POP SWAP3 SWAP2 POP POP JUMP JUMPDEST PUSH0 PUSH2 0xA7F DUP4 DUP4 PUSH2 0xA58 JUMP JUMPDEST SWAP2 POP DUP3 PUSH1 0x2 MUL DUP3 OR SWAP1 POP SWAP3 SWAP2 POP POP JUMP JUMPDEST PUSH2 0xA98 DUP3 PUSH2 0x529 JUMP JUMPDEST PUSH8 0xFFFFFFFFFFFFFFFF DUP2 GT ISZERO PUSH2 0xAB1 JUMPI PUSH2 0xAB0 PUSH2 0x5D6 JUMP JUMPDEST JUMPDEST PUSH2 0xABB DUP3 SLOAD PUSH2 0x79D JUMP JUMPDEST PUSH2 0xAC6 DUP3 DUP3 DUP6 PUSH2 0xA06 JUMP JUMPDEST PUSH0 PUSH1 0x20 SWAP1 POP PUSH1 0x1F DUP4 GT PUSH1 0x1 DUP2 EQ PUSH2 0xAF7 JUMPI PUSH0 DUP5 ISZERO PUSH2 0xAE5 JUMPI DUP3 DUP8 ADD MLOAD SWAP1 POP JUMPDEST PUSH2 0xAEF DUP6 DUP3 PUSH2 0xA74 JUMP JUMPDEST DUP7 SSTORE POP PUSH2 0xB56 JUMP JUMPDEST PUSH1 0x1F NOT DUP5 AND PUSH2 0xB05 DUP7 PUSH2 0x8E9 JUMP JUMPDEST PUSH0 JUMPDEST DUP3 DUP2 LT ISZERO PUSH2 0xB2C JUMPI DUP5 DUP10 ADD MLOAD DUP3 SSTORE PUSH1 0x1 DUP3 ADD SWAP2 POP PUSH1 0x20 DUP6 ADD SWAP5 POP PUSH1 0x20 DUP2 ADD SWAP1 POP PUSH2 0xB07 JUMP JUMPDEST DUP7 DUP4 LT ISZERO PUSH2 0xB49 JUMPI DUP5 DUP10 ADD MLOAD PUSH2 0xB45 PUSH1 0x1F DUP10 AND DUP3 PUSH2 0xA58 JUMP JUMPDEST DUP4 SSTORE POP JUMPDEST PUSH1 0x1 PUSH1 0x2 DUP9 MUL ADD DUP9 SSTORE POP POP POP JUMPDEST POP POP POP POP POP POP JUMP INVALID LOG2 PUSH5 0x6970667358 0x22 SLT KECCAK256 MUL LOG3 0xB5 0xB1 NUMBER SAR 0xC7 SLOAD JUMPI 0xDD LOG4 PREVRANDAO 0xCC SWAP2 SMOD 0xB4 SWAP14 AND PUSH18 0x74563389D812B796EED905F26564736F6C63 NUMBER STOP ADDMOD BYTE STOP CALLER "
				},
				"gasEstimates": {
					"creation": {
						"codeDepositCost": "592800",
						"executionCost": "623",
						"totalCost": "593423"
					},
					"external": {
						"customers(address)": "infinite",
						"getCustomer(address)": "infinite",
						"registerCustomer(string,string)": "infinite"
					}
				},
				"methodIdentifiers": {
					"customers(address)": "336989ae",
					"getCustomer(address)": "cb949e51",
					"registerCustomer(string,string)": "db0f9894"
				}
			},
			"storageLayout": {
				"storage": [
					{
						"astId": 627,
						"contract": "solidity/solidity81~90.sol:Q89",
						"label": "customers",
						"offset": 0,
						"slot": "0",
						"type": "t_mapping(t_address,t_struct(Customer)622_storage)"
					}
				],
				"types": {
					"t_address": {
						"encoding": "inplace",
						"label": "address",
						"numberOfBytes": "20"
					},
					"t_mapping(t_address,t_struct(Customer)622_storage)": {
						"encoding": "mapping",
						"key": "t_address",
						"label": "mapping(address => struct Q89.Customer)",
						"numberOfBytes": "32",
						"value": "t_struct(Customer)622_storage"
					},
					"t_string_storage": {
						"encoding": "bytes",
						"label": "string",
						"numberOfBytes": "32"
					},
					"t_struct(Customer)622_storage": {
						"encoding": "inplace",
						"label": "struct Q89.Customer",
						"members": [
							{
								"astId": 619,
								"contract": "solidity/solidity81~90.sol:Q89",
								"label": "name",
								"offset": 0,
								"slot": "0",
								"type": "t_string_storage"
							},
							{
								"astId": 621,
								"contract": "solidity/solidity81~90.sol:Q89",
								"label": "introduction",
								"offset": 0,
								"slot": "1",
								"type": "t_string_storage"
							}
						],
						"numberOfBytes": "64"
					}
				}
			},
			"userdoc": {
				"kind": "user",
				"methods": {},
				"version": 1
			}
		}
	}
}