{
	"solidity/solidity81~90.sol": {
		"Q83": {
			"abi": [
				{
					"inputs": [
						{
							"internalType": "uint256",
							"name": "_personIndex",
							"type": "uint256"
						},
						{
							"internalType": "uint256",
							"name": "_key",
							"type": "uint256"
						},
						{
							"internalType": "string",
							"name": "_value",
							"type": "string"
						}
					],
					"name": "addDataToMapping",
					"outputs": [],
					"stateMutability": "nonpayable",
					"type": "function"
				},
				{
					"inputs": [
						{
							"internalType": "string",
							"name": "_name",
							"type": "string"
						},
						{
							"internalType": "uint256",
							"name": "_number",
							"type": "uint256"
						},
						{
							"internalType": "address",
							"name": "_walletAddress",
							"type": "address"
						}
					],
					"name": "addPerson",
					"outputs": [],
					"stateMutability": "nonpayable",
					"type": "function"
				},
				{
					"inputs": [
						{
							"internalType": "uint256",
							"name": "_personIndex",
							"type": "uint256"
						},
						{
							"internalType": "uint256",
							"name": "_key",
							"type": "uint256"
						}
					],
					"name": "getPersonData",
					"outputs": [
						{
							"internalType": "string",
							"name": "",
							"type": "string"
						}
					],
					"stateMutability": "view",
					"type": "function"
				},
				{
					"inputs": [
						{
							"internalType": "uint256",
							"name": "",
							"type": "uint256"
						}
					],
					"name": "people",
					"outputs": [
						{
							"internalType": "string",
							"name": "name",
							"type": "string"
						},
						{
							"internalType": "uint256",
							"name": "number",
							"type": "uint256"
						},
						{
							"internalType": "address",
							"name": "walletAddress",
							"type": "address"
						}
					],
					"stateMutability": "view",
					"type": "function"
				},
				{
					"inputs": [],
					"name": "peopleCount",
					"outputs": [
						{
							"internalType": "uint256",
							"name": "",
							"type": "uint256"
						}
					],
					"stateMutability": "view",
					"type": "function"
				}
			],
			"devdoc": {
				"kind": "dev",
				"methods": {},
				"version": 1
			},
			"evm": {
				"assembly": "    /* \"solidity/solidity81~90.sol\":1525:2739  contract Q83 {... */\n  mstore(0x40, 0x80)\n  callvalue\n  dup1\n  iszero\n  tag_1\n  jumpi\n  0x00\n  dup1\n  revert\ntag_1:\n  pop\n  dataSize(sub_0)\n  dup1\n  dataOffset(sub_0)\n  0x00\n  codecopy\n  0x00\n  return\nstop\n\nsub_0: assembly {\n        /* \"solidity/solidity81~90.sol\":1525:2739  contract Q83 {... */\n      mstore(0x40, 0x80)\n      callvalue\n      dup1\n      iszero\n      tag_1\n      jumpi\n      0x00\n      dup1\n      revert\n    tag_1:\n      pop\n      jumpi(tag_2, lt(calldatasize, 0x04))\n      shr(0xe0, calldataload(0x00))\n      dup1\n      0x0923ce4b\n      eq\n      tag_3\n      jumpi\n      dup1\n      0x267c68e0\n      eq\n      tag_4\n      jumpi\n      dup1\n      0x4325e5bf\n      eq\n      tag_5\n      jumpi\n      dup1\n      0x9e7a13ad\n      eq\n      tag_6\n      jumpi\n      dup1\n      0xe11641cf\n      eq\n      tag_7\n      jumpi\n    tag_2:\n      0x00\n      dup1\n      revert\n        /* \"solidity/solidity81~90.sol\":2279:2504  function addDataToMapping(uint256 _personIndex, uint256 _key, string memory _value) public {... */\n    tag_3:\n      tag_8\n      0x04\n      dup1\n      calldatasize\n      sub\n      dup2\n      add\n      swap1\n      tag_9\n      swap2\n      swap1\n      tag_10\n      jump\t// in\n    tag_9:\n      tag_11\n      jump\t// in\n    tag_8:\n      stop\n        /* \"solidity/solidity81~90.sol\":1954:1980  uint256 public peopleCount */\n    tag_4:\n      tag_12\n      tag_13\n      jump\t// in\n    tag_12:\n      mload(0x40)\n      tag_14\n      swap2\n      swap1\n      tag_15\n      jump\t// in\n    tag_14:\n      mload(0x40)\n      dup1\n      swap2\n      sub\n      swap1\n      return\n        /* \"solidity/solidity81~90.sol\":2510:2737  function getPersonData(uint256 _personIndex, uint256 _key) public view returns (string memory) {... */\n    tag_5:\n      tag_16\n      0x04\n      dup1\n      calldatasize\n      sub\n      dup2\n      add\n      swap1\n      tag_17\n      swap2\n      swap1\n      tag_18\n      jump\t// in\n    tag_17:\n      tag_19\n      jump\t// in\n    tag_16:\n      mload(0x40)\n      tag_20\n      swap2\n      swap1\n      tag_21\n      jump\t// in\n    tag_20:\n      mload(0x40)\n      dup1\n      swap2\n      sub\n      swap1\n      return\n        /* \"solidity/solidity81~90.sol\":1926:1948  Person[] public people */\n    tag_6:\n      tag_22\n      0x04\n      dup1\n      calldatasize\n      sub\n      dup2\n      add\n      swap1\n      tag_23\n      swap2\n      swap1\n      tag_24\n      jump\t// in\n    tag_23:\n      tag_25\n      jump\t// in\n    tag_22:\n      mload(0x40)\n      tag_26\n      swap4\n      swap3\n      swap2\n      swap1\n      tag_27\n      jump\t// in\n    tag_26:\n      mload(0x40)\n      dup1\n      swap2\n      sub\n      swap1\n      return\n        /* \"solidity/solidity81~90.sol\":1987:2273  function addPerson(string memory _name, uint256 _number, address _walletAddress) public {... */\n    tag_7:\n      tag_28\n      0x04\n      dup1\n      calldatasize\n      sub\n      dup2\n      add\n      swap1\n      tag_29\n      swap2\n      swap1\n      tag_30\n      jump\t// in\n    tag_29:\n      tag_31\n      jump\t// in\n    tag_28:\n      stop\n        /* \"solidity/solidity81~90.sol\":2279:2504  function addDataToMapping(uint256 _personIndex, uint256 _key, string memory _value) public {... */\n    tag_11:\n        /* \"solidity/solidity81~90.sol\":2403:2414  peopleCount */\n      sload(0x01)\n        /* \"solidity/solidity81~90.sol\":2388:2400  _personIndex */\n      dup4\n        /* \"solidity/solidity81~90.sol\":2388:2414  _personIndex < peopleCount */\n      lt\n        /* \"solidity/solidity81~90.sol\":2380:2440  require(_personIndex < peopleCount, \"Person does not exist\") */\n      tag_33\n      jumpi\n      mload(0x40)\n      0x08c379a000000000000000000000000000000000000000000000000000000000\n      dup2\n      mstore\n      0x04\n      add\n      tag_34\n      swap1\n      tag_35\n      jump\t// in\n    tag_34:\n      mload(0x40)\n      dup1\n      swap2\n      sub\n      swap1\n      revert\n    tag_33:\n        /* \"solidity/solidity81~90.sol\":2491:2497  _value */\n      dup1\n        /* \"solidity/solidity81~90.sol\":2450:2456  people */\n      0x00\n        /* \"solidity/solidity81~90.sol\":2457:2469  _personIndex */\n      dup5\n        /* \"solidity/solidity81~90.sol\":2450:2470  people[_personIndex] */\n      dup2\n      sload\n      dup2\n      lt\n      tag_36\n      jumpi\n      tag_37\n      tag_38\n      jump\t// in\n    tag_37:\n    tag_36:\n      swap1\n      0x00\n      mstore\n      keccak256(0x00, 0x20)\n      swap1\n      0x04\n      mul\n      add\n        /* \"solidity/solidity81~90.sol\":2450:2482  people[_personIndex].dataMapping */\n      0x03\n      add\n        /* \"solidity/solidity81~90.sol\":2450:2488  people[_personIndex].dataMapping[_key] */\n      0x00\n        /* \"solidity/solidity81~90.sol\":2483:2487  _key */\n      dup5\n        /* \"solidity/solidity81~90.sol\":2450:2488  people[_personIndex].dataMapping[_key] */\n      dup2\n      mstore\n      0x20\n      add\n      swap1\n      dup2\n      mstore\n      0x20\n      add\n      0x00\n      keccak256\n        /* \"solidity/solidity81~90.sol\":2450:2497  people[_personIndex].dataMapping[_key] = _value */\n      swap1\n      dup2\n      tag_40\n      swap2\n      swap1\n      tag_41\n      jump\t// in\n    tag_40:\n      pop\n        /* \"solidity/solidity81~90.sol\":2279:2504  function addDataToMapping(uint256 _personIndex, uint256 _key, string memory _value) public {... */\n      pop\n      pop\n      pop\n      jump\t// out\n        /* \"solidity/solidity81~90.sol\":1954:1980  uint256 public peopleCount */\n    tag_13:\n      sload(0x01)\n      dup2\n      jump\t// out\n        /* \"solidity/solidity81~90.sol\":2510:2737  function getPersonData(uint256 _personIndex, uint256 _key) public view returns (string memory) {... */\n    tag_19:\n        /* \"solidity/solidity81~90.sol\":2590:2603  string memory */\n      0x60\n        /* \"solidity/solidity81~90.sol\":2638:2649  peopleCount */\n      sload(0x01)\n        /* \"solidity/solidity81~90.sol\":2623:2635  _personIndex */\n      dup4\n        /* \"solidity/solidity81~90.sol\":2623:2649  _personIndex < peopleCount */\n      lt\n        /* \"solidity/solidity81~90.sol\":2615:2675  require(_personIndex < peopleCount, \"Person does not exist\") */\n      tag_43\n      jumpi\n      mload(0x40)\n      0x08c379a000000000000000000000000000000000000000000000000000000000\n      dup2\n      mstore\n      0x04\n      add\n      tag_44\n      swap1\n      tag_35\n      jump\t// in\n    tag_44:\n      mload(0x40)\n      dup1\n      swap2\n      sub\n      swap1\n      revert\n    tag_43:\n        /* \"solidity/solidity81~90.sol\":2692:2698  people */\n      0x00\n        /* \"solidity/solidity81~90.sol\":2699:2711  _personIndex */\n      dup4\n        /* \"solidity/solidity81~90.sol\":2692:2712  people[_personIndex] */\n      dup2\n      sload\n      dup2\n      lt\n      tag_45\n      jumpi\n      tag_46\n      tag_38\n      jump\t// in\n    tag_46:\n    tag_45:\n      swap1\n      0x00\n      mstore\n      keccak256(0x00, 0x20)\n      swap1\n      0x04\n      mul\n      add\n        /* \"solidity/solidity81~90.sol\":2692:2724  people[_personIndex].dataMapping */\n      0x03\n      add\n        /* \"solidity/solidity81~90.sol\":2692:2730  people[_personIndex].dataMapping[_key] */\n      0x00\n        /* \"solidity/solidity81~90.sol\":2725:2729  _key */\n      dup4\n        /* \"solidity/solidity81~90.sol\":2692:2730  people[_personIndex].dataMapping[_key] */\n      dup2\n      mstore\n      0x20\n      add\n      swap1\n      dup2\n      mstore\n      0x20\n      add\n      0x00\n      keccak256\n        /* \"solidity/solidity81~90.sol\":2685:2730  return people[_personIndex].dataMapping[_key] */\n      dup1\n      sload\n      tag_48\n      swap1\n      tag_49\n      jump\t// in\n    tag_48:\n      dup1\n      0x1f\n      add\n      0x20\n      dup1\n      swap2\n      div\n      mul\n      0x20\n      add\n      mload(0x40)\n      swap1\n      dup2\n      add\n      0x40\n      mstore\n      dup1\n      swap3\n      swap2\n      swap1\n      dup2\n      dup2\n      mstore\n      0x20\n      add\n      dup3\n      dup1\n      sload\n      tag_50\n      swap1\n      tag_49\n      jump\t// in\n    tag_50:\n      dup1\n      iszero\n      tag_51\n      jumpi\n      dup1\n      0x1f\n      lt\n      tag_52\n      jumpi\n      0x0100\n      dup1\n      dup4\n      sload\n      div\n      mul\n      dup4\n      mstore\n      swap2\n      0x20\n      add\n      swap2\n      jump(tag_51)\n    tag_52:\n      dup3\n      add\n      swap2\n      swap1\n      0x00\n      mstore\n      keccak256(0x00, 0x20)\n      swap1\n    tag_53:\n      dup2\n      sload\n      dup2\n      mstore\n      swap1\n      0x01\n      add\n      swap1\n      0x20\n      add\n      dup1\n      dup4\n      gt\n      tag_53\n      jumpi\n      dup3\n      swap1\n      sub\n      0x1f\n      and\n      dup3\n      add\n      swap2\n    tag_51:\n      pop\n      pop\n      pop\n      pop\n      pop\n      swap1\n      pop\n        /* \"solidity/solidity81~90.sol\":2510:2737  function getPersonData(uint256 _personIndex, uint256 _key) public view returns (string memory) {... */\n      swap3\n      swap2\n      pop\n      pop\n      jump\t// out\n        /* \"solidity/solidity81~90.sol\":1926:1948  Person[] public people */\n    tag_25:\n      0x00\n      dup2\n      dup2\n      sload\n      dup2\n      lt\n      tag_54\n      jumpi\n      0x00\n      dup1\n      revert\n    tag_54:\n      swap1\n      0x00\n      mstore\n      keccak256(0x00, 0x20)\n      swap1\n      0x04\n      mul\n      add\n      0x00\n      swap2\n      pop\n      swap1\n      pop\n      dup1\n      0x00\n      add\n      dup1\n      sload\n      tag_56\n      swap1\n      tag_49\n      jump\t// in\n    tag_56:\n      dup1\n      0x1f\n      add\n      0x20\n      dup1\n      swap2\n      div\n      mul\n      0x20\n      add\n      mload(0x40)\n      swap1\n      dup2\n      add\n      0x40\n      mstore\n      dup1\n      swap3\n      swap2\n      swap1\n      dup2\n      dup2\n      mstore\n      0x20\n      add\n      dup3\n      dup1\n      sload\n      tag_57\n      swap1\n      tag_49\n      jump\t// in\n    tag_57:\n      dup1\n      iszero\n      tag_58\n      jumpi\n      dup1\n      0x1f\n      lt\n      tag_59\n      jumpi\n      0x0100\n      dup1\n      dup4\n      sload\n      div\n      mul\n      dup4\n      mstore\n      swap2\n      0x20\n      add\n      swap2\n      jump(tag_58)\n    tag_59:\n      dup3\n      add\n      swap2\n      swap1\n      0x00\n      mstore\n      keccak256(0x00, 0x20)\n      swap1\n    tag_60:\n      dup2\n      sload\n      dup2\n      mstore\n      swap1\n      0x01\n      add\n      swap1\n      0x20\n      add\n      dup1\n      dup4\n      gt\n      tag_60\n      jumpi\n      dup3\n      swap1\n      sub\n      0x1f\n      and\n      dup3\n      add\n      swap2\n    tag_58:\n      pop\n      pop\n      pop\n      pop\n      pop\n      swap1\n      dup1\n      0x01\n      add\n      sload\n      swap1\n      dup1\n      0x02\n      add\n      0x00\n      swap1\n      sload\n      swap1\n      0x0100\n      exp\n      swap1\n      div\n      0xffffffffffffffffffffffffffffffffffffffff\n      and\n      swap1\n      pop\n      dup4\n      jump\t// out\n        /* \"solidity/solidity81~90.sol\":1987:2273  function addPerson(string memory _name, uint256 _number, address _walletAddress) public {... */\n    tag_31:\n        /* \"solidity/solidity81~90.sol\":2085:2109  Person storage newPerson */\n      0x00\n        /* \"solidity/solidity81~90.sol\":2112:2118  people */\n      dup1\n        /* \"solidity/solidity81~90.sol\":2112:2125  people.push() */\n      0x01\n      dup2\n      0x01\n      dup2\n      sload\n      add\n      dup1\n      dup3\n      sstore\n      dup1\n      swap2\n      pop\n      pop\n      sub\n      swap1\n      0x00\n      mstore\n      keccak256(0x00, 0x20)\n      swap1\n      0x04\n      mul\n      add\n        /* \"solidity/solidity81~90.sol\":2085:2125  Person storage newPerson = people.push() */\n      swap1\n      pop\n        /* \"solidity/solidity81~90.sol\":2152:2157  _name */\n      dup4\n        /* \"solidity/solidity81~90.sol\":2135:2144  newPerson */\n      dup2\n        /* \"solidity/solidity81~90.sol\":2135:2149  newPerson.name */\n      0x00\n      add\n        /* \"solidity/solidity81~90.sol\":2135:2157  newPerson.name = _name */\n      swap1\n      dup2\n      tag_63\n      swap2\n      swap1\n      tag_41\n      jump\t// in\n    tag_63:\n      pop\n        /* \"solidity/solidity81~90.sol\":2186:2193  _number */\n      dup3\n        /* \"solidity/solidity81~90.sol\":2167:2176  newPerson */\n      dup2\n        /* \"solidity/solidity81~90.sol\":2167:2183  newPerson.number */\n      0x01\n      add\n        /* \"solidity/solidity81~90.sol\":2167:2193  newPerson.number = _number */\n      dup2\n      swap1\n      sstore\n      pop\n        /* \"solidity/solidity81~90.sol\":2229:2243  _walletAddress */\n      dup2\n        /* \"solidity/solidity81~90.sol\":2203:2212  newPerson */\n      dup2\n        /* \"solidity/solidity81~90.sol\":2203:2226  newPerson.walletAddress */\n      0x02\n      add\n      0x00\n        /* \"solidity/solidity81~90.sol\":2203:2243  newPerson.walletAddress = _walletAddress */\n      0x0100\n      exp\n      dup2\n      sload\n      dup2\n      0xffffffffffffffffffffffffffffffffffffffff\n      mul\n      not\n      and\n      swap1\n      dup4\n      0xffffffffffffffffffffffffffffffffffffffff\n      and\n      mul\n      or\n      swap1\n      sstore\n      pop\n        /* \"solidity/solidity81~90.sol\":2253:2264  peopleCount */\n      0x01\n      0x00\n        /* \"solidity/solidity81~90.sol\":2253:2266  peopleCount++ */\n      dup2\n      sload\n      dup1\n      swap3\n      swap2\n      swap1\n      tag_64\n      swap1\n      tag_65\n      jump\t// in\n    tag_64:\n      swap2\n      swap1\n      pop\n      sstore\n      pop\n        /* \"solidity/solidity81~90.sol\":2075:2273  {... */\n      pop\n        /* \"solidity/solidity81~90.sol\":1987:2273  function addPerson(string memory _name, uint256 _number, address _walletAddress) public {... */\n      pop\n      pop\n      pop\n      jump\t// out\n        /* \"#utility.yul\":7:82   */\n    tag_66:\n        /* \"#utility.yul\":40:46   */\n      0x00\n        /* \"#utility.yul\":73:75   */\n      0x40\n        /* \"#utility.yul\":67:76   */\n      mload\n        /* \"#utility.yul\":57:76   */\n      swap1\n      pop\n        /* \"#utility.yul\":7:82   */\n      swap1\n      jump\t// out\n        /* \"#utility.yul\":88:205   */\n    tag_67:\n        /* \"#utility.yul\":197:198   */\n      0x00\n        /* \"#utility.yul\":194:195   */\n      dup1\n        /* \"#utility.yul\":187:199   */\n      revert\n        /* \"#utility.yul\":211:328   */\n    tag_68:\n        /* \"#utility.yul\":320:321   */\n      0x00\n        /* \"#utility.yul\":317:318   */\n      dup1\n        /* \"#utility.yul\":310:322   */\n      revert\n        /* \"#utility.yul\":334:411   */\n    tag_69:\n        /* \"#utility.yul\":371:378   */\n      0x00\n        /* \"#utility.yul\":400:405   */\n      dup2\n        /* \"#utility.yul\":389:405   */\n      swap1\n      pop\n        /* \"#utility.yul\":334:411   */\n      swap2\n      swap1\n      pop\n      jump\t// out\n        /* \"#utility.yul\":417:539   */\n    tag_70:\n        /* \"#utility.yul\":490:514   */\n      tag_117\n        /* \"#utility.yul\":508:513   */\n      dup2\n        /* \"#utility.yul\":490:514   */\n      tag_69\n      jump\t// in\n    tag_117:\n        /* \"#utility.yul\":483:488   */\n      dup2\n        /* \"#utility.yul\":480:515   */\n      eq\n        /* \"#utility.yul\":470:533   */\n      tag_118\n      jumpi\n        /* \"#utility.yul\":529:530   */\n      0x00\n        /* \"#utility.yul\":526:527   */\n      dup1\n        /* \"#utility.yul\":519:531   */\n      revert\n        /* \"#utility.yul\":470:533   */\n    tag_118:\n        /* \"#utility.yul\":417:539   */\n      pop\n      jump\t// out\n        /* \"#utility.yul\":545:684   */\n    tag_71:\n        /* \"#utility.yul\":591:596   */\n      0x00\n        /* \"#utility.yul\":629:635   */\n      dup2\n        /* \"#utility.yul\":616:636   */\n      calldataload\n        /* \"#utility.yul\":607:636   */\n      swap1\n      pop\n        /* \"#utility.yul\":645:678   */\n      tag_120\n        /* \"#utility.yul\":672:677   */\n      dup2\n        /* \"#utility.yul\":645:678   */\n      tag_70\n      jump\t// in\n    tag_120:\n        /* \"#utility.yul\":545:684   */\n      swap3\n      swap2\n      pop\n      pop\n      jump\t// out\n        /* \"#utility.yul\":690:807   */\n    tag_72:\n        /* \"#utility.yul\":799:800   */\n      0x00\n        /* \"#utility.yul\":796:797   */\n      dup1\n        /* \"#utility.yul\":789:801   */\n      revert\n        /* \"#utility.yul\":813:930   */\n    tag_73:\n        /* \"#utility.yul\":922:923   */\n      0x00\n        /* \"#utility.yul\":919:920   */\n      dup1\n        /* \"#utility.yul\":912:924   */\n      revert\n        /* \"#utility.yul\":936:1038   */\n    tag_74:\n        /* \"#utility.yul\":977:983   */\n      0x00\n        /* \"#utility.yul\":1028:1030   */\n      0x1f\n        /* \"#utility.yul\":1024:1031   */\n      not\n        /* \"#utility.yul\":1019:1021   */\n      0x1f\n        /* \"#utility.yul\":1012:1017   */\n      dup4\n        /* \"#utility.yul\":1008:1022   */\n      add\n        /* \"#utility.yul\":1004:1032   */\n      and\n        /* \"#utility.yul\":994:1032   */\n      swap1\n      pop\n        /* \"#utility.yul\":936:1038   */\n      swap2\n      swap1\n      pop\n      jump\t// out\n        /* \"#utility.yul\":1044:1224   */\n    tag_75:\n        /* \"#utility.yul\":1092:1169   */\n      0x4e487b7100000000000000000000000000000000000000000000000000000000\n        /* \"#utility.yul\":1089:1090   */\n      0x00\n        /* \"#utility.yul\":1082:1170   */\n      mstore\n        /* \"#utility.yul\":1189:1193   */\n      0x41\n        /* \"#utility.yul\":1186:1187   */\n      0x04\n        /* \"#utility.yul\":1179:1194   */\n      mstore\n        /* \"#utility.yul\":1213:1217   */\n      0x24\n        /* \"#utility.yul\":1210:1211   */\n      0x00\n        /* \"#utility.yul\":1203:1218   */\n      revert\n        /* \"#utility.yul\":1230:1511   */\n    tag_76:\n        /* \"#utility.yul\":1313:1340   */\n      tag_126\n        /* \"#utility.yul\":1335:1339   */\n      dup3\n        /* \"#utility.yul\":1313:1340   */\n      tag_74\n      jump\t// in\n    tag_126:\n        /* \"#utility.yul\":1305:1311   */\n      dup2\n        /* \"#utility.yul\":1301:1341   */\n      add\n        /* \"#utility.yul\":1443:1449   */\n      dup2\n        /* \"#utility.yul\":1431:1441   */\n      dup2\n        /* \"#utility.yul\":1428:1450   */\n      lt\n        /* \"#utility.yul\":1407:1425   */\n      0xffffffffffffffff\n        /* \"#utility.yul\":1395:1405   */\n      dup3\n        /* \"#utility.yul\":1392:1426   */\n      gt\n        /* \"#utility.yul\":1389:1451   */\n      or\n        /* \"#utility.yul\":1386:1474   */\n      iszero\n      tag_127\n      jumpi\n        /* \"#utility.yul\":1454:1472   */\n      tag_128\n      tag_75\n      jump\t// in\n    tag_128:\n        /* \"#utility.yul\":1386:1474   */\n    tag_127:\n        /* \"#utility.yul\":1494:1504   */\n      dup1\n        /* \"#utility.yul\":1490:1492   */\n      0x40\n        /* \"#utility.yul\":1483:1505   */\n      mstore\n        /* \"#utility.yul\":1273:1511   */\n      pop\n        /* \"#utility.yul\":1230:1511   */\n      pop\n      pop\n      jump\t// out\n        /* \"#utility.yul\":1517:1646   */\n    tag_77:\n        /* \"#utility.yul\":1551:1557   */\n      0x00\n        /* \"#utility.yul\":1578:1598   */\n      tag_130\n      tag_66\n      jump\t// in\n    tag_130:\n        /* \"#utility.yul\":1568:1598   */\n      swap1\n      pop\n        /* \"#utility.yul\":1607:1640   */\n      tag_131\n        /* \"#utility.yul\":1635:1639   */\n      dup3\n        /* \"#utility.yul\":1627:1633   */\n      dup3\n        /* \"#utility.yul\":1607:1640   */\n      tag_76\n      jump\t// in\n    tag_131:\n        /* \"#utility.yul\":1517:1646   */\n      swap2\n      swap1\n      pop\n      jump\t// out\n        /* \"#utility.yul\":1652:1960   */\n    tag_78:\n        /* \"#utility.yul\":1714:1718   */\n      0x00\n        /* \"#utility.yul\":1804:1822   */\n      0xffffffffffffffff\n        /* \"#utility.yul\":1796:1802   */\n      dup3\n        /* \"#utility.yul\":1793:1823   */\n      gt\n        /* \"#utility.yul\":1790:1846   */\n      iszero\n      tag_133\n      jumpi\n        /* \"#utility.yul\":1826:1844   */\n      tag_134\n      tag_75\n      jump\t// in\n    tag_134:\n        /* \"#utility.yul\":1790:1846   */\n    tag_133:\n        /* \"#utility.yul\":1864:1893   */\n      tag_135\n        /* \"#utility.yul\":1886:1892   */\n      dup3\n        /* \"#utility.yul\":1864:1893   */\n      tag_74\n      jump\t// in\n    tag_135:\n        /* \"#utility.yul\":1856:1893   */\n      swap1\n      pop\n        /* \"#utility.yul\":1948:1952   */\n      0x20\n        /* \"#utility.yul\":1942:1946   */\n      dup2\n        /* \"#utility.yul\":1938:1953   */\n      add\n        /* \"#utility.yul\":1930:1953   */\n      swap1\n      pop\n        /* \"#utility.yul\":1652:1960   */\n      swap2\n      swap1\n      pop\n      jump\t// out\n        /* \"#utility.yul\":1966:2114   */\n    tag_79:\n        /* \"#utility.yul\":2064:2070   */\n      dup3\n        /* \"#utility.yul\":2059:2062   */\n      dup2\n        /* \"#utility.yul\":2054:2057   */\n      dup4\n        /* \"#utility.yul\":2041:2071   */\n      calldatacopy\n        /* \"#utility.yul\":2105:2106   */\n      0x00\n        /* \"#utility.yul\":2096:2102   */\n      dup4\n        /* \"#utility.yul\":2091:2094   */\n      dup4\n        /* \"#utility.yul\":2087:2103   */\n      add\n        /* \"#utility.yul\":2080:2107   */\n      mstore\n        /* \"#utility.yul\":1966:2114   */\n      pop\n      pop\n      pop\n      jump\t// out\n        /* \"#utility.yul\":2120:2545   */\n    tag_80:\n        /* \"#utility.yul\":2198:2203   */\n      0x00\n        /* \"#utility.yul\":2223:2289   */\n      tag_138\n        /* \"#utility.yul\":2239:2288   */\n      tag_139\n        /* \"#utility.yul\":2281:2287   */\n      dup5\n        /* \"#utility.yul\":2239:2288   */\n      tag_78\n      jump\t// in\n    tag_139:\n        /* \"#utility.yul\":2223:2289   */\n      tag_77\n      jump\t// in\n    tag_138:\n        /* \"#utility.yul\":2214:2289   */\n      swap1\n      pop\n        /* \"#utility.yul\":2312:2318   */\n      dup3\n        /* \"#utility.yul\":2305:2310   */\n      dup2\n        /* \"#utility.yul\":2298:2319   */\n      mstore\n        /* \"#utility.yul\":2350:2354   */\n      0x20\n        /* \"#utility.yul\":2343:2348   */\n      dup2\n        /* \"#utility.yul\":2339:2355   */\n      add\n        /* \"#utility.yul\":2388:2391   */\n      dup5\n        /* \"#utility.yul\":2379:2385   */\n      dup5\n        /* \"#utility.yul\":2374:2377   */\n      dup5\n        /* \"#utility.yul\":2370:2386   */\n      add\n        /* \"#utility.yul\":2367:2392   */\n      gt\n        /* \"#utility.yul\":2364:2476   */\n      iszero\n      tag_140\n      jumpi\n        /* \"#utility.yul\":2395:2474   */\n      tag_141\n      tag_73\n      jump\t// in\n    tag_141:\n        /* \"#utility.yul\":2364:2476   */\n    tag_140:\n        /* \"#utility.yul\":2485:2539   */\n      tag_142\n        /* \"#utility.yul\":2532:2538   */\n      dup5\n        /* \"#utility.yul\":2527:2530   */\n      dup3\n        /* \"#utility.yul\":2522:2525   */\n      dup6\n        /* \"#utility.yul\":2485:2539   */\n      tag_79\n      jump\t// in\n    tag_142:\n        /* \"#utility.yul\":2204:2545   */\n      pop\n        /* \"#utility.yul\":2120:2545   */\n      swap4\n      swap3\n      pop\n      pop\n      pop\n      jump\t// out\n        /* \"#utility.yul\":2565:2905   */\n    tag_81:\n        /* \"#utility.yul\":2621:2626   */\n      0x00\n        /* \"#utility.yul\":2670:2673   */\n      dup3\n        /* \"#utility.yul\":2663:2667   */\n      0x1f\n        /* \"#utility.yul\":2655:2661   */\n      dup4\n        /* \"#utility.yul\":2651:2668   */\n      add\n        /* \"#utility.yul\":2647:2674   */\n      slt\n        /* \"#utility.yul\":2637:2759   */\n      tag_144\n      jumpi\n        /* \"#utility.yul\":2678:2757   */\n      tag_145\n      tag_72\n      jump\t// in\n    tag_145:\n        /* \"#utility.yul\":2637:2759   */\n    tag_144:\n        /* \"#utility.yul\":2795:2801   */\n      dup2\n        /* \"#utility.yul\":2782:2802   */\n      calldataload\n        /* \"#utility.yul\":2820:2899   */\n      tag_146\n        /* \"#utility.yul\":2895:2898   */\n      dup5\n        /* \"#utility.yul\":2887:2893   */\n      dup3\n        /* \"#utility.yul\":2880:2884   */\n      0x20\n        /* \"#utility.yul\":2872:2878   */\n      dup7\n        /* \"#utility.yul\":2868:2885   */\n      add\n        /* \"#utility.yul\":2820:2899   */\n      tag_80\n      jump\t// in\n    tag_146:\n        /* \"#utility.yul\":2811:2899   */\n      swap2\n      pop\n        /* \"#utility.yul\":2627:2905   */\n      pop\n        /* \"#utility.yul\":2565:2905   */\n      swap3\n      swap2\n      pop\n      pop\n      jump\t// out\n        /* \"#utility.yul\":2911:3710   */\n    tag_10:\n        /* \"#utility.yul\":2998:3004   */\n      0x00\n        /* \"#utility.yul\":3006:3012   */\n      dup1\n        /* \"#utility.yul\":3014:3020   */\n      0x00\n        /* \"#utility.yul\":3063:3065   */\n      0x60\n        /* \"#utility.yul\":3051:3060   */\n      dup5\n        /* \"#utility.yul\":3042:3049   */\n      dup7\n        /* \"#utility.yul\":3038:3061   */\n      sub\n        /* \"#utility.yul\":3034:3066   */\n      slt\n        /* \"#utility.yul\":3031:3150   */\n      iszero\n      tag_148\n      jumpi\n        /* \"#utility.yul\":3069:3148   */\n      tag_149\n      tag_67\n      jump\t// in\n    tag_149:\n        /* \"#utility.yul\":3031:3150   */\n    tag_148:\n        /* \"#utility.yul\":3189:3190   */\n      0x00\n        /* \"#utility.yul\":3214:3267   */\n      tag_150\n        /* \"#utility.yul\":3259:3266   */\n      dup7\n        /* \"#utility.yul\":3250:3256   */\n      dup3\n        /* \"#utility.yul\":3239:3248   */\n      dup8\n        /* \"#utility.yul\":3235:3257   */\n      add\n        /* \"#utility.yul\":3214:3267   */\n      tag_71\n      jump\t// in\n    tag_150:\n        /* \"#utility.yul\":3204:3267   */\n      swap4\n      pop\n        /* \"#utility.yul\":3160:3277   */\n      pop\n        /* \"#utility.yul\":3316:3318   */\n      0x20\n        /* \"#utility.yul\":3342:3395   */\n      tag_151\n        /* \"#utility.yul\":3387:3394   */\n      dup7\n        /* \"#utility.yul\":3378:3384   */\n      dup3\n        /* \"#utility.yul\":3367:3376   */\n      dup8\n        /* \"#utility.yul\":3363:3385   */\n      add\n        /* \"#utility.yul\":3342:3395   */\n      tag_71\n      jump\t// in\n    tag_151:\n        /* \"#utility.yul\":3332:3395   */\n      swap3\n      pop\n        /* \"#utility.yul\":3287:3405   */\n      pop\n        /* \"#utility.yul\":3472:3474   */\n      0x40\n        /* \"#utility.yul\":3461:3470   */\n      dup5\n        /* \"#utility.yul\":3457:3475   */\n      add\n        /* \"#utility.yul\":3444:3476   */\n      calldataload\n        /* \"#utility.yul\":3503:3521   */\n      0xffffffffffffffff\n        /* \"#utility.yul\":3495:3501   */\n      dup2\n        /* \"#utility.yul\":3492:3522   */\n      gt\n        /* \"#utility.yul\":3489:3606   */\n      iszero\n      tag_152\n      jumpi\n        /* \"#utility.yul\":3525:3604   */\n      tag_153\n      tag_68\n      jump\t// in\n    tag_153:\n        /* \"#utility.yul\":3489:3606   */\n    tag_152:\n        /* \"#utility.yul\":3630:3693   */\n      tag_154\n        /* \"#utility.yul\":3685:3692   */\n      dup7\n        /* \"#utility.yul\":3676:3682   */\n      dup3\n        /* \"#utility.yul\":3665:3674   */\n      dup8\n        /* \"#utility.yul\":3661:3683   */\n      add\n        /* \"#utility.yul\":3630:3693   */\n      tag_81\n      jump\t// in\n    tag_154:\n        /* \"#utility.yul\":3620:3693   */\n      swap2\n      pop\n        /* \"#utility.yul\":3415:3703   */\n      pop\n        /* \"#utility.yul\":2911:3710   */\n      swap3\n      pop\n      swap3\n      pop\n      swap3\n      jump\t// out\n        /* \"#utility.yul\":3716:3834   */\n    tag_82:\n        /* \"#utility.yul\":3803:3827   */\n      tag_156\n        /* \"#utility.yul\":3821:3826   */\n      dup2\n        /* \"#utility.yul\":3803:3827   */\n      tag_69\n      jump\t// in\n    tag_156:\n        /* \"#utility.yul\":3798:3801   */\n      dup3\n        /* \"#utility.yul\":3791:3828   */\n      mstore\n        /* \"#utility.yul\":3716:3834   */\n      pop\n      pop\n      jump\t// out\n        /* \"#utility.yul\":3840:4062   */\n    tag_15:\n        /* \"#utility.yul\":3933:3937   */\n      0x00\n        /* \"#utility.yul\":3971:3973   */\n      0x20\n        /* \"#utility.yul\":3960:3969   */\n      dup3\n        /* \"#utility.yul\":3956:3974   */\n      add\n        /* \"#utility.yul\":3948:3974   */\n      swap1\n      pop\n        /* \"#utility.yul\":3984:4055   */\n      tag_158\n        /* \"#utility.yul\":4052:4053   */\n      0x00\n        /* \"#utility.yul\":4041:4050   */\n      dup4\n        /* \"#utility.yul\":4037:4054   */\n      add\n        /* \"#utility.yul\":4028:4034   */\n      dup5\n        /* \"#utility.yul\":3984:4055   */\n      tag_82\n      jump\t// in\n    tag_158:\n        /* \"#utility.yul\":3840:4062   */\n      swap3\n      swap2\n      pop\n      pop\n      jump\t// out\n        /* \"#utility.yul\":4068:4542   */\n    tag_18:\n        /* \"#utility.yul\":4136:4142   */\n      0x00\n        /* \"#utility.yul\":4144:4150   */\n      dup1\n        /* \"#utility.yul\":4193:4195   */\n      0x40\n        /* \"#utility.yul\":4181:4190   */\n      dup4\n        /* \"#utility.yul\":4172:4179   */\n      dup6\n        /* \"#utility.yul\":4168:4191   */\n      sub\n        /* \"#utility.yul\":4164:4196   */\n      slt\n        /* \"#utility.yul\":4161:4280   */\n      iszero\n      tag_160\n      jumpi\n        /* \"#utility.yul\":4199:4278   */\n      tag_161\n      tag_67\n      jump\t// in\n    tag_161:\n        /* \"#utility.yul\":4161:4280   */\n    tag_160:\n        /* \"#utility.yul\":4319:4320   */\n      0x00\n        /* \"#utility.yul\":4344:4397   */\n      tag_162\n        /* \"#utility.yul\":4389:4396   */\n      dup6\n        /* \"#utility.yul\":4380:4386   */\n      dup3\n        /* \"#utility.yul\":4369:4378   */\n      dup7\n        /* \"#utility.yul\":4365:4387   */\n      add\n        /* \"#utility.yul\":4344:4397   */\n      tag_71\n      jump\t// in\n    tag_162:\n        /* \"#utility.yul\":4334:4397   */\n      swap3\n      pop\n        /* \"#utility.yul\":4290:4407   */\n      pop\n        /* \"#utility.yul\":4446:4448   */\n      0x20\n        /* \"#utility.yul\":4472:4525   */\n      tag_163\n        /* \"#utility.yul\":4517:4524   */\n      dup6\n        /* \"#utility.yul\":4508:4514   */\n      dup3\n        /* \"#utility.yul\":4497:4506   */\n      dup7\n        /* \"#utility.yul\":4493:4515   */\n      add\n        /* \"#utility.yul\":4472:4525   */\n      tag_71\n      jump\t// in\n    tag_163:\n        /* \"#utility.yul\":4462:4525   */\n      swap2\n      pop\n        /* \"#utility.yul\":4417:4535   */\n      pop\n        /* \"#utility.yul\":4068:4542   */\n      swap3\n      pop\n      swap3\n      swap1\n      pop\n      jump\t// out\n        /* \"#utility.yul\":4548:4647   */\n    tag_83:\n        /* \"#utility.yul\":4600:4606   */\n      0x00\n        /* \"#utility.yul\":4634:4639   */\n      dup2\n        /* \"#utility.yul\":4628:4640   */\n      mload\n        /* \"#utility.yul\":4618:4640   */\n      swap1\n      pop\n        /* \"#utility.yul\":4548:4647   */\n      swap2\n      swap1\n      pop\n      jump\t// out\n        /* \"#utility.yul\":4653:4822   */\n    tag_84:\n        /* \"#utility.yul\":4737:4748   */\n      0x00\n        /* \"#utility.yul\":4771:4777   */\n      dup3\n        /* \"#utility.yul\":4766:4769   */\n      dup3\n        /* \"#utility.yul\":4759:4778   */\n      mstore\n        /* \"#utility.yul\":4811:4815   */\n      0x20\n        /* \"#utility.yul\":4806:4809   */\n      dup3\n        /* \"#utility.yul\":4802:4816   */\n      add\n        /* \"#utility.yul\":4787:4816   */\n      swap1\n      pop\n        /* \"#utility.yul\":4653:4822   */\n      swap3\n      swap2\n      pop\n      pop\n      jump\t// out\n        /* \"#utility.yul\":4828:4967   */\n    tag_85:\n        /* \"#utility.yul\":4917:4923   */\n      dup3\n        /* \"#utility.yul\":4912:4915   */\n      dup2\n        /* \"#utility.yul\":4907:4910   */\n      dup4\n        /* \"#utility.yul\":4901:4924   */\n      mcopy\n        /* \"#utility.yul\":4958:4959   */\n      0x00\n        /* \"#utility.yul\":4949:4955   */\n      dup4\n        /* \"#utility.yul\":4944:4947   */\n      dup4\n        /* \"#utility.yul\":4940:4956   */\n      add\n        /* \"#utility.yul\":4933:4960   */\n      mstore\n        /* \"#utility.yul\":4828:4967   */\n      pop\n      pop\n      pop\n      jump\t// out\n        /* \"#utility.yul\":4973:5350   */\n    tag_86:\n        /* \"#utility.yul\":5061:5064   */\n      0x00\n        /* \"#utility.yul\":5089:5128   */\n      tag_168\n        /* \"#utility.yul\":5122:5127   */\n      dup3\n        /* \"#utility.yul\":5089:5128   */\n      tag_83\n      jump\t// in\n    tag_168:\n        /* \"#utility.yul\":5144:5215   */\n      tag_169\n        /* \"#utility.yul\":5208:5214   */\n      dup2\n        /* \"#utility.yul\":5203:5206   */\n      dup6\n        /* \"#utility.yul\":5144:5215   */\n      tag_84\n      jump\t// in\n    tag_169:\n        /* \"#utility.yul\":5137:5215   */\n      swap4\n      pop\n        /* \"#utility.yul\":5224:5289   */\n      tag_170\n        /* \"#utility.yul\":5282:5288   */\n      dup2\n        /* \"#utility.yul\":5277:5280   */\n      dup6\n        /* \"#utility.yul\":5270:5274   */\n      0x20\n        /* \"#utility.yul\":5263:5268   */\n      dup7\n        /* \"#utility.yul\":5259:5275   */\n      add\n        /* \"#utility.yul\":5224:5289   */\n      tag_85\n      jump\t// in\n    tag_170:\n        /* \"#utility.yul\":5314:5343   */\n      tag_171\n        /* \"#utility.yul\":5336:5342   */\n      dup2\n        /* \"#utility.yul\":5314:5343   */\n      tag_74\n      jump\t// in\n    tag_171:\n        /* \"#utility.yul\":5309:5312   */\n      dup5\n        /* \"#utility.yul\":5305:5344   */\n      add\n        /* \"#utility.yul\":5298:5344   */\n      swap2\n      pop\n        /* \"#utility.yul\":5065:5350   */\n      pop\n        /* \"#utility.yul\":4973:5350   */\n      swap3\n      swap2\n      pop\n      pop\n      jump\t// out\n        /* \"#utility.yul\":5356:5669   */\n    tag_21:\n        /* \"#utility.yul\":5469:5473   */\n      0x00\n        /* \"#utility.yul\":5507:5509   */\n      0x20\n        /* \"#utility.yul\":5496:5505   */\n      dup3\n        /* \"#utility.yul\":5492:5510   */\n      add\n        /* \"#utility.yul\":5484:5510   */\n      swap1\n      pop\n        /* \"#utility.yul\":5556:5565   */\n      dup2\n        /* \"#utility.yul\":5550:5554   */\n      dup2\n        /* \"#utility.yul\":5546:5566   */\n      sub\n        /* \"#utility.yul\":5542:5543   */\n      0x00\n        /* \"#utility.yul\":5531:5540   */\n      dup4\n        /* \"#utility.yul\":5527:5544   */\n      add\n        /* \"#utility.yul\":5520:5567   */\n      mstore\n        /* \"#utility.yul\":5584:5662   */\n      tag_173\n        /* \"#utility.yul\":5657:5661   */\n      dup2\n        /* \"#utility.yul\":5648:5654   */\n      dup5\n        /* \"#utility.yul\":5584:5662   */\n      tag_86\n      jump\t// in\n    tag_173:\n        /* \"#utility.yul\":5576:5662   */\n      swap1\n      pop\n        /* \"#utility.yul\":5356:5669   */\n      swap3\n      swap2\n      pop\n      pop\n      jump\t// out\n        /* \"#utility.yul\":5675:6004   */\n    tag_24:\n        /* \"#utility.yul\":5734:5740   */\n      0x00\n        /* \"#utility.yul\":5783:5785   */\n      0x20\n        /* \"#utility.yul\":5771:5780   */\n      dup3\n        /* \"#utility.yul\":5762:5769   */\n      dup5\n        /* \"#utility.yul\":5758:5781   */\n      sub\n        /* \"#utility.yul\":5754:5786   */\n      slt\n        /* \"#utility.yul\":5751:5870   */\n      iszero\n      tag_175\n      jumpi\n        /* \"#utility.yul\":5789:5868   */\n      tag_176\n      tag_67\n      jump\t// in\n    tag_176:\n        /* \"#utility.yul\":5751:5870   */\n    tag_175:\n        /* \"#utility.yul\":5909:5910   */\n      0x00\n        /* \"#utility.yul\":5934:5987   */\n      tag_177\n        /* \"#utility.yul\":5979:5986   */\n      dup5\n        /* \"#utility.yul\":5970:5976   */\n      dup3\n        /* \"#utility.yul\":5959:5968   */\n      dup6\n        /* \"#utility.yul\":5955:5977   */\n      add\n        /* \"#utility.yul\":5934:5987   */\n      tag_71\n      jump\t// in\n    tag_177:\n        /* \"#utility.yul\":5924:5987   */\n      swap2\n      pop\n        /* \"#utility.yul\":5880:5997   */\n      pop\n        /* \"#utility.yul\":5675:6004   */\n      swap3\n      swap2\n      pop\n      pop\n      jump\t// out\n        /* \"#utility.yul\":6010:6136   */\n    tag_87:\n        /* \"#utility.yul\":6047:6054   */\n      0x00\n        /* \"#utility.yul\":6087:6129   */\n      0xffffffffffffffffffffffffffffffffffffffff\n        /* \"#utility.yul\":6080:6085   */\n      dup3\n        /* \"#utility.yul\":6076:6130   */\n      and\n        /* \"#utility.yul\":6065:6130   */\n      swap1\n      pop\n        /* \"#utility.yul\":6010:6136   */\n      swap2\n      swap1\n      pop\n      jump\t// out\n        /* \"#utility.yul\":6142:6238   */\n    tag_88:\n        /* \"#utility.yul\":6179:6186   */\n      0x00\n        /* \"#utility.yul\":6208:6232   */\n      tag_180\n        /* \"#utility.yul\":6226:6231   */\n      dup3\n        /* \"#utility.yul\":6208:6232   */\n      tag_87\n      jump\t// in\n    tag_180:\n        /* \"#utility.yul\":6197:6232   */\n      swap1\n      pop\n        /* \"#utility.yul\":6142:6238   */\n      swap2\n      swap1\n      pop\n      jump\t// out\n        /* \"#utility.yul\":6244:6362   */\n    tag_89:\n        /* \"#utility.yul\":6331:6355   */\n      tag_182\n        /* \"#utility.yul\":6349:6354   */\n      dup2\n        /* \"#utility.yul\":6331:6355   */\n      tag_88\n      jump\t// in\n    tag_182:\n        /* \"#utility.yul\":6326:6329   */\n      dup3\n        /* \"#utility.yul\":6319:6356   */\n      mstore\n        /* \"#utility.yul\":6244:6362   */\n      pop\n      pop\n      jump\t// out\n        /* \"#utility.yul\":6368:6901   */\n    tag_27:\n        /* \"#utility.yul\":6537:6541   */\n      0x00\n        /* \"#utility.yul\":6575:6577   */\n      0x60\n        /* \"#utility.yul\":6564:6573   */\n      dup3\n        /* \"#utility.yul\":6560:6578   */\n      add\n        /* \"#utility.yul\":6552:6578   */\n      swap1\n      pop\n        /* \"#utility.yul\":6624:6633   */\n      dup2\n        /* \"#utility.yul\":6618:6622   */\n      dup2\n        /* \"#utility.yul\":6614:6634   */\n      sub\n        /* \"#utility.yul\":6610:6611   */\n      0x00\n        /* \"#utility.yul\":6599:6608   */\n      dup4\n        /* \"#utility.yul\":6595:6612   */\n      add\n        /* \"#utility.yul\":6588:6635   */\n      mstore\n        /* \"#utility.yul\":6652:6730   */\n      tag_184\n        /* \"#utility.yul\":6725:6729   */\n      dup2\n        /* \"#utility.yul\":6716:6722   */\n      dup7\n        /* \"#utility.yul\":6652:6730   */\n      tag_86\n      jump\t// in\n    tag_184:\n        /* \"#utility.yul\":6644:6730   */\n      swap1\n      pop\n        /* \"#utility.yul\":6740:6812   */\n      tag_185\n        /* \"#utility.yul\":6808:6810   */\n      0x20\n        /* \"#utility.yul\":6797:6806   */\n      dup4\n        /* \"#utility.yul\":6793:6811   */\n      add\n        /* \"#utility.yul\":6784:6790   */\n      dup6\n        /* \"#utility.yul\":6740:6812   */\n      tag_82\n      jump\t// in\n    tag_185:\n        /* \"#utility.yul\":6822:6894   */\n      tag_186\n        /* \"#utility.yul\":6890:6892   */\n      0x40\n        /* \"#utility.yul\":6879:6888   */\n      dup4\n        /* \"#utility.yul\":6875:6893   */\n      add\n        /* \"#utility.yul\":6866:6872   */\n      dup5\n        /* \"#utility.yul\":6822:6894   */\n      tag_89\n      jump\t// in\n    tag_186:\n        /* \"#utility.yul\":6368:6901   */\n      swap5\n      swap4\n      pop\n      pop\n      pop\n      pop\n      jump\t// out\n        /* \"#utility.yul\":6907:7029   */\n    tag_90:\n        /* \"#utility.yul\":6980:7004   */\n      tag_188\n        /* \"#utility.yul\":6998:7003   */\n      dup2\n        /* \"#utility.yul\":6980:7004   */\n      tag_88\n      jump\t// in\n    tag_188:\n        /* \"#utility.yul\":6973:6978   */\n      dup2\n        /* \"#utility.yul\":6970:7005   */\n      eq\n        /* \"#utility.yul\":6960:7023   */\n      tag_189\n      jumpi\n        /* \"#utility.yul\":7019:7020   */\n      0x00\n        /* \"#utility.yul\":7016:7017   */\n      dup1\n        /* \"#utility.yul\":7009:7021   */\n      revert\n        /* \"#utility.yul\":6960:7023   */\n    tag_189:\n        /* \"#utility.yul\":6907:7029   */\n      pop\n      jump\t// out\n        /* \"#utility.yul\":7035:7174   */\n    tag_91:\n        /* \"#utility.yul\":7081:7086   */\n      0x00\n        /* \"#utility.yul\":7119:7125   */\n      dup2\n        /* \"#utility.yul\":7106:7126   */\n      calldataload\n        /* \"#utility.yul\":7097:7126   */\n      swap1\n      pop\n        /* \"#utility.yul\":7135:7168   */\n      tag_191\n        /* \"#utility.yul\":7162:7167   */\n      dup2\n        /* \"#utility.yul\":7135:7168   */\n      tag_90\n      jump\t// in\n    tag_191:\n        /* \"#utility.yul\":7035:7174   */\n      swap3\n      swap2\n      pop\n      pop\n      jump\t// out\n        /* \"#utility.yul\":7180:7979   */\n    tag_30:\n        /* \"#utility.yul\":7267:7273   */\n      0x00\n        /* \"#utility.yul\":7275:7281   */\n      dup1\n        /* \"#utility.yul\":7283:7289   */\n      0x00\n        /* \"#utility.yul\":7332:7334   */\n      0x60\n        /* \"#utility.yul\":7320:7329   */\n      dup5\n        /* \"#utility.yul\":7311:7318   */\n      dup7\n        /* \"#utility.yul\":7307:7330   */\n      sub\n        /* \"#utility.yul\":7303:7335   */\n      slt\n        /* \"#utility.yul\":7300:7419   */\n      iszero\n      tag_193\n      jumpi\n        /* \"#utility.yul\":7338:7417   */\n      tag_194\n      tag_67\n      jump\t// in\n    tag_194:\n        /* \"#utility.yul\":7300:7419   */\n    tag_193:\n        /* \"#utility.yul\":7486:7487   */\n      0x00\n        /* \"#utility.yul\":7475:7484   */\n      dup5\n        /* \"#utility.yul\":7471:7488   */\n      add\n        /* \"#utility.yul\":7458:7489   */\n      calldataload\n        /* \"#utility.yul\":7516:7534   */\n      0xffffffffffffffff\n        /* \"#utility.yul\":7508:7514   */\n      dup2\n        /* \"#utility.yul\":7505:7535   */\n      gt\n        /* \"#utility.yul\":7502:7619   */\n      iszero\n      tag_195\n      jumpi\n        /* \"#utility.yul\":7538:7617   */\n      tag_196\n      tag_68\n      jump\t// in\n    tag_196:\n        /* \"#utility.yul\":7502:7619   */\n    tag_195:\n        /* \"#utility.yul\":7643:7706   */\n      tag_197\n        /* \"#utility.yul\":7698:7705   */\n      dup7\n        /* \"#utility.yul\":7689:7695   */\n      dup3\n        /* \"#utility.yul\":7678:7687   */\n      dup8\n        /* \"#utility.yul\":7674:7696   */\n      add\n        /* \"#utility.yul\":7643:7706   */\n      tag_81\n      jump\t// in\n    tag_197:\n        /* \"#utility.yul\":7633:7706   */\n      swap4\n      pop\n        /* \"#utility.yul\":7429:7716   */\n      pop\n        /* \"#utility.yul\":7755:7757   */\n      0x20\n        /* \"#utility.yul\":7781:7834   */\n      tag_198\n        /* \"#utility.yul\":7826:7833   */\n      dup7\n        /* \"#utility.yul\":7817:7823   */\n      dup3\n        /* \"#utility.yul\":7806:7815   */\n      dup8\n        /* \"#utility.yul\":7802:7824   */\n      add\n        /* \"#utility.yul\":7781:7834   */\n      tag_71\n      jump\t// in\n    tag_198:\n        /* \"#utility.yul\":7771:7834   */\n      swap3\n      pop\n        /* \"#utility.yul\":7726:7844   */\n      pop\n        /* \"#utility.yul\":7883:7885   */\n      0x40\n        /* \"#utility.yul\":7909:7962   */\n      tag_199\n        /* \"#utility.yul\":7954:7961   */\n      dup7\n        /* \"#utility.yul\":7945:7951   */\n      dup3\n        /* \"#utility.yul\":7934:7943   */\n      dup8\n        /* \"#utility.yul\":7930:7952   */\n      add\n        /* \"#utility.yul\":7909:7962   */\n      tag_91\n      jump\t// in\n    tag_199:\n        /* \"#utility.yul\":7899:7962   */\n      swap2\n      pop\n        /* \"#utility.yul\":7854:7972   */\n      pop\n        /* \"#utility.yul\":7180:7979   */\n      swap3\n      pop\n      swap3\n      pop\n      swap3\n      jump\t// out\n        /* \"#utility.yul\":7985:8156   */\n    tag_92:\n        /* \"#utility.yul\":8125:8148   */\n      0x506572736f6e20646f6573206e6f742065786973740000000000000000000000\n        /* \"#utility.yul\":8121:8122   */\n      0x00\n        /* \"#utility.yul\":8113:8119   */\n      dup3\n        /* \"#utility.yul\":8109:8123   */\n      add\n        /* \"#utility.yul\":8102:8149   */\n      mstore\n        /* \"#utility.yul\":7985:8156   */\n      pop\n      jump\t// out\n        /* \"#utility.yul\":8162:8528   */\n    tag_93:\n        /* \"#utility.yul\":8304:8307   */\n      0x00\n        /* \"#utility.yul\":8325:8392   */\n      tag_202\n        /* \"#utility.yul\":8389:8391   */\n      0x15\n        /* \"#utility.yul\":8384:8387   */\n      dup4\n        /* \"#utility.yul\":8325:8392   */\n      tag_84\n      jump\t// in\n    tag_202:\n        /* \"#utility.yul\":8318:8392   */\n      swap2\n      pop\n        /* \"#utility.yul\":8401:8494   */\n      tag_203\n        /* \"#utility.yul\":8490:8493   */\n      dup3\n        /* \"#utility.yul\":8401:8494   */\n      tag_92\n      jump\t// in\n    tag_203:\n        /* \"#utility.yul\":8519:8521   */\n      0x20\n        /* \"#utility.yul\":8514:8517   */\n      dup3\n        /* \"#utility.yul\":8510:8522   */\n      add\n        /* \"#utility.yul\":8503:8522   */\n      swap1\n      pop\n        /* \"#utility.yul\":8162:8528   */\n      swap2\n      swap1\n      pop\n      jump\t// out\n        /* \"#utility.yul\":8534:8953   */\n    tag_35:\n        /* \"#utility.yul\":8700:8704   */\n      0x00\n        /* \"#utility.yul\":8738:8740   */\n      0x20\n        /* \"#utility.yul\":8727:8736   */\n      dup3\n        /* \"#utility.yul\":8723:8741   */\n      add\n        /* \"#utility.yul\":8715:8741   */\n      swap1\n      pop\n        /* \"#utility.yul\":8787:8796   */\n      dup2\n        /* \"#utility.yul\":8781:8785   */\n      dup2\n        /* \"#utility.yul\":8777:8797   */\n      sub\n        /* \"#utility.yul\":8773:8774   */\n      0x00\n        /* \"#utility.yul\":8762:8771   */\n      dup4\n        /* \"#utility.yul\":8758:8775   */\n      add\n        /* \"#utility.yul\":8751:8798   */\n      mstore\n        /* \"#utility.yul\":8815:8946   */\n      tag_205\n        /* \"#utility.yul\":8941:8945   */\n      dup2\n        /* \"#utility.yul\":8815:8946   */\n      tag_93\n      jump\t// in\n    tag_205:\n        /* \"#utility.yul\":8807:8946   */\n      swap1\n      pop\n        /* \"#utility.yul\":8534:8953   */\n      swap2\n      swap1\n      pop\n      jump\t// out\n        /* \"#utility.yul\":8959:9139   */\n    tag_38:\n        /* \"#utility.yul\":9007:9084   */\n      0x4e487b7100000000000000000000000000000000000000000000000000000000\n        /* \"#utility.yul\":9004:9005   */\n      0x00\n        /* \"#utility.yul\":8997:9085   */\n      mstore\n        /* \"#utility.yul\":9104:9108   */\n      0x32\n        /* \"#utility.yul\":9101:9102   */\n      0x04\n        /* \"#utility.yul\":9094:9109   */\n      mstore\n        /* \"#utility.yul\":9128:9132   */\n      0x24\n        /* \"#utility.yul\":9125:9126   */\n      0x00\n        /* \"#utility.yul\":9118:9133   */\n      revert\n        /* \"#utility.yul\":9145:9325   */\n    tag_94:\n        /* \"#utility.yul\":9193:9270   */\n      0x4e487b7100000000000000000000000000000000000000000000000000000000\n        /* \"#utility.yul\":9190:9191   */\n      0x00\n        /* \"#utility.yul\":9183:9271   */\n      mstore\n        /* \"#utility.yul\":9290:9294   */\n      0x22\n        /* \"#utility.yul\":9287:9288   */\n      0x04\n        /* \"#utility.yul\":9280:9295   */\n      mstore\n        /* \"#utility.yul\":9314:9318   */\n      0x24\n        /* \"#utility.yul\":9311:9312   */\n      0x00\n        /* \"#utility.yul\":9304:9319   */\n      revert\n        /* \"#utility.yul\":9331:9651   */\n    tag_49:\n        /* \"#utility.yul\":9375:9381   */\n      0x00\n        /* \"#utility.yul\":9412:9413   */\n      0x02\n        /* \"#utility.yul\":9406:9410   */\n      dup3\n        /* \"#utility.yul\":9402:9414   */\n      div\n        /* \"#utility.yul\":9392:9414   */\n      swap1\n      pop\n        /* \"#utility.yul\":9459:9460   */\n      0x01\n        /* \"#utility.yul\":9453:9457   */\n      dup3\n        /* \"#utility.yul\":9449:9461   */\n      and\n        /* \"#utility.yul\":9480:9498   */\n      dup1\n        /* \"#utility.yul\":9470:9551   */\n      tag_209\n      jumpi\n        /* \"#utility.yul\":9536:9540   */\n      0x7f\n        /* \"#utility.yul\":9528:9534   */\n      dup3\n        /* \"#utility.yul\":9524:9541   */\n      and\n        /* \"#utility.yul\":9514:9541   */\n      swap2\n      pop\n        /* \"#utility.yul\":9470:9551   */\n    tag_209:\n        /* \"#utility.yul\":9598:9600   */\n      0x20\n        /* \"#utility.yul\":9590:9596   */\n      dup3\n        /* \"#utility.yul\":9587:9601   */\n      lt\n        /* \"#utility.yul\":9567:9585   */\n      dup2\n        /* \"#utility.yul\":9564:9602   */\n      sub\n        /* \"#utility.yul\":9561:9645   */\n      tag_210\n      jumpi\n        /* \"#utility.yul\":9617:9635   */\n      tag_211\n      tag_94\n      jump\t// in\n    tag_211:\n        /* \"#utility.yul\":9561:9645   */\n    tag_210:\n        /* \"#utility.yul\":9382:9651   */\n      pop\n        /* \"#utility.yul\":9331:9651   */\n      swap2\n      swap1\n      pop\n      jump\t// out\n        /* \"#utility.yul\":9657:9798   */\n    tag_95:\n        /* \"#utility.yul\":9706:9710   */\n      0x00\n        /* \"#utility.yul\":9729:9732   */\n      dup2\n        /* \"#utility.yul\":9721:9732   */\n      swap1\n      pop\n        /* \"#utility.yul\":9752:9755   */\n      dup2\n        /* \"#utility.yul\":9749:9750   */\n      0x00\n        /* \"#utility.yul\":9742:9756   */\n      mstore\n        /* \"#utility.yul\":9786:9790   */\n      0x20\n        /* \"#utility.yul\":9783:9784   */\n      0x00\n        /* \"#utility.yul\":9773:9791   */\n      keccak256\n        /* \"#utility.yul\":9765:9791   */\n      swap1\n      pop\n        /* \"#utility.yul\":9657:9798   */\n      swap2\n      swap1\n      pop\n      jump\t// out\n        /* \"#utility.yul\":9804:9897   */\n    tag_96:\n        /* \"#utility.yul\":9841:9847   */\n      0x00\n        /* \"#utility.yul\":9888:9890   */\n      0x20\n        /* \"#utility.yul\":9883:9885   */\n      0x1f\n        /* \"#utility.yul\":9876:9881   */\n      dup4\n        /* \"#utility.yul\":9872:9886   */\n      add\n        /* \"#utility.yul\":9868:9891   */\n      div\n        /* \"#utility.yul\":9858:9891   */\n      swap1\n      pop\n        /* \"#utility.yul\":9804:9897   */\n      swap2\n      swap1\n      pop\n      jump\t// out\n        /* \"#utility.yul\":9903:10010   */\n    tag_97:\n        /* \"#utility.yul\":9947:9955   */\n      0x00\n        /* \"#utility.yul\":9997:10002   */\n      dup3\n        /* \"#utility.yul\":9991:9995   */\n      dup3\n        /* \"#utility.yul\":9987:10003   */\n      shl\n        /* \"#utility.yul\":9966:10003   */\n      swap1\n      pop\n        /* \"#utility.yul\":9903:10010   */\n      swap3\n      swap2\n      pop\n      pop\n      jump\t// out\n        /* \"#utility.yul\":10016:10409   */\n    tag_98:\n        /* \"#utility.yul\":10085:10091   */\n      0x00\n        /* \"#utility.yul\":10135:10136   */\n      0x08\n        /* \"#utility.yul\":10123:10133   */\n      dup4\n        /* \"#utility.yul\":10119:10137   */\n      mul\n        /* \"#utility.yul\":10158:10255   */\n      tag_216\n        /* \"#utility.yul\":10188:10254   */\n      0xffffffffffffffffffffffffffffffffffffffffffffffffffffffffffffffff\n        /* \"#utility.yul\":10177:10186   */\n      dup3\n        /* \"#utility.yul\":10158:10255   */\n      tag_97\n      jump\t// in\n    tag_216:\n        /* \"#utility.yul\":10276:10315   */\n      tag_217\n        /* \"#utility.yul\":10306:10314   */\n      dup7\n        /* \"#utility.yul\":10295:10304   */\n      dup4\n        /* \"#utility.yul\":10276:10315   */\n      tag_97\n      jump\t// in\n    tag_217:\n        /* \"#utility.yul\":10264:10315   */\n      swap6\n      pop\n        /* \"#utility.yul\":10348:10352   */\n      dup1\n        /* \"#utility.yul\":10344:10353   */\n      not\n        /* \"#utility.yul\":10337:10342   */\n      dup5\n        /* \"#utility.yul\":10333:10354   */\n      and\n        /* \"#utility.yul\":10324:10354   */\n      swap4\n      pop\n        /* \"#utility.yul\":10397:10401   */\n      dup1\n        /* \"#utility.yul\":10387:10395   */\n      dup7\n        /* \"#utility.yul\":10383:10402   */\n      and\n        /* \"#utility.yul\":10376:10381   */\n      dup5\n        /* \"#utility.yul\":10373:10403   */\n      or\n        /* \"#utility.yul\":10363:10403   */\n      swap3\n      pop\n        /* \"#utility.yul\":10092:10409   */\n      pop\n      pop\n        /* \"#utility.yul\":10016:10409   */\n      swap4\n      swap3\n      pop\n      pop\n      pop\n      jump\t// out\n        /* \"#utility.yul\":10415:10475   */\n    tag_99:\n        /* \"#utility.yul\":10443:10446   */\n      0x00\n        /* \"#utility.yul\":10464:10469   */\n      dup2\n        /* \"#utility.yul\":10457:10469   */\n      swap1\n      pop\n        /* \"#utility.yul\":10415:10475   */\n      swap2\n      swap1\n      pop\n      jump\t// out\n        /* \"#utility.yul\":10481:10623   */\n    tag_100:\n        /* \"#utility.yul\":10531:10540   */\n      0x00\n        /* \"#utility.yul\":10564:10617   */\n      tag_220\n        /* \"#utility.yul\":10582:10616   */\n      tag_221\n        /* \"#utility.yul\":10591:10615   */\n      tag_222\n        /* \"#utility.yul\":10609:10614   */\n      dup5\n        /* \"#utility.yul\":10591:10615   */\n      tag_69\n      jump\t// in\n    tag_222:\n        /* \"#utility.yul\":10582:10616   */\n      tag_99\n      jump\t// in\n    tag_221:\n        /* \"#utility.yul\":10564:10617   */\n      tag_69\n      jump\t// in\n    tag_220:\n        /* \"#utility.yul\":10551:10617   */\n      swap1\n      pop\n        /* \"#utility.yul\":10481:10623   */\n      swap2\n      swap1\n      pop\n      jump\t// out\n        /* \"#utility.yul\":10629:10704   */\n    tag_101:\n        /* \"#utility.yul\":10672:10675   */\n      0x00\n        /* \"#utility.yul\":10693:10698   */\n      dup2\n        /* \"#utility.yul\":10686:10698   */\n      swap1\n      pop\n        /* \"#utility.yul\":10629:10704   */\n      swap2\n      swap1\n      pop\n      jump\t// out\n        /* \"#utility.yul\":10710:10979   */\n    tag_102:\n        /* \"#utility.yul\":10820:10859   */\n      tag_225\n        /* \"#utility.yul\":10851:10858   */\n      dup4\n        /* \"#utility.yul\":10820:10859   */\n      tag_100\n      jump\t// in\n    tag_225:\n        /* \"#utility.yul\":10881:10972   */\n      tag_226\n        /* \"#utility.yul\":10930:10971   */\n      tag_227\n        /* \"#utility.yul\":10954:10970   */\n      dup3\n        /* \"#utility.yul\":10930:10971   */\n      tag_101\n      jump\t// in\n    tag_227:\n        /* \"#utility.yul\":10922:10928   */\n      dup5\n        /* \"#utility.yul\":10915:10919   */\n      dup5\n        /* \"#utility.yul\":10909:10920   */\n      sload\n        /* \"#utility.yul\":10881:10972   */\n      tag_98\n      jump\t// in\n    tag_226:\n        /* \"#utility.yul\":10875:10879   */\n      dup3\n        /* \"#utility.yul\":10868:10973   */\n      sstore\n        /* \"#utility.yul\":10786:10979   */\n      pop\n        /* \"#utility.yul\":10710:10979   */\n      pop\n      pop\n      pop\n      jump\t// out\n        /* \"#utility.yul\":10985:11058   */\n    tag_103:\n        /* \"#utility.yul\":11030:11033   */\n      0x00\n        /* \"#utility.yul\":10985:11058   */\n      swap1\n      jump\t// out\n        /* \"#utility.yul\":11064:11253   */\n    tag_104:\n        /* \"#utility.yul\":11141:11173   */\n      tag_230\n      tag_103\n      jump\t// in\n    tag_230:\n        /* \"#utility.yul\":11182:11247   */\n      tag_231\n        /* \"#utility.yul\":11240:11246   */\n      dup2\n        /* \"#utility.yul\":11232:11238   */\n      dup5\n        /* \"#utility.yul\":11226:11230   */\n      dup5\n        /* \"#utility.yul\":11182:11247   */\n      tag_102\n      jump\t// in\n    tag_231:\n        /* \"#utility.yul\":11117:11253   */\n      pop\n        /* \"#utility.yul\":11064:11253   */\n      pop\n      pop\n      jump\t// out\n        /* \"#utility.yul\":11259:11445   */\n    tag_105:\n        /* \"#utility.yul\":11319:11439   */\n    tag_233:\n        /* \"#utility.yul\":11336:11339   */\n      dup2\n        /* \"#utility.yul\":11329:11334   */\n      dup2\n        /* \"#utility.yul\":11326:11340   */\n      lt\n        /* \"#utility.yul\":11319:11439   */\n      iszero\n      tag_235\n      jumpi\n        /* \"#utility.yul\":11390:11429   */\n      tag_236\n        /* \"#utility.yul\":11427:11428   */\n      0x00\n        /* \"#utility.yul\":11420:11425   */\n      dup3\n        /* \"#utility.yul\":11390:11429   */\n      tag_104\n      jump\t// in\n    tag_236:\n        /* \"#utility.yul\":11363:11364   */\n      0x01\n        /* \"#utility.yul\":11356:11361   */\n      dup2\n        /* \"#utility.yul\":11352:11365   */\n      add\n        /* \"#utility.yul\":11343:11365   */\n      swap1\n      pop\n        /* \"#utility.yul\":11319:11439   */\n      jump(tag_233)\n    tag_235:\n        /* \"#utility.yul\":11259:11445   */\n      pop\n      pop\n      jump\t// out\n        /* \"#utility.yul\":11451:11994   */\n    tag_106:\n        /* \"#utility.yul\":11552:11554   */\n      0x1f\n        /* \"#utility.yul\":11547:11550   */\n      dup3\n        /* \"#utility.yul\":11544:11555   */\n      gt\n        /* \"#utility.yul\":11541:11987   */\n      iszero\n      tag_238\n      jumpi\n        /* \"#utility.yul\":11586:11624   */\n      tag_239\n        /* \"#utility.yul\":11618:11623   */\n      dup2\n        /* \"#utility.yul\":11586:11624   */\n      tag_95\n      jump\t// in\n    tag_239:\n        /* \"#utility.yul\":11670:11699   */\n      tag_240\n        /* \"#utility.yul\":11688:11698   */\n      dup5\n        /* \"#utility.yul\":11670:11699   */\n      tag_96\n      jump\t// in\n    tag_240:\n        /* \"#utility.yul\":11660:11668   */\n      dup2\n        /* \"#utility.yul\":11656:11700   */\n      add\n        /* \"#utility.yul\":11853:11855   */\n      0x20\n        /* \"#utility.yul\":11841:11851   */\n      dup6\n        /* \"#utility.yul\":11838:11856   */\n      lt\n        /* \"#utility.yul\":11835:11884   */\n      iszero\n      tag_241\n      jumpi\n        /* \"#utility.yul\":11874:11882   */\n      dup2\n        /* \"#utility.yul\":11859:11882   */\n      swap1\n      pop\n        /* \"#utility.yul\":11835:11884   */\n    tag_241:\n        /* \"#utility.yul\":11897:11977   */\n      tag_242\n        /* \"#utility.yul\":11953:11975   */\n      tag_243\n        /* \"#utility.yul\":11971:11974   */\n      dup6\n        /* \"#utility.yul\":11953:11975   */\n      tag_96\n      jump\t// in\n    tag_243:\n        /* \"#utility.yul\":11943:11951   */\n      dup4\n        /* \"#utility.yul\":11939:11976   */\n      add\n        /* \"#utility.yul\":11926:11937   */\n      dup3\n        /* \"#utility.yul\":11897:11977   */\n      tag_105\n      jump\t// in\n    tag_242:\n        /* \"#utility.yul\":11556:11987   */\n      pop\n      pop\n        /* \"#utility.yul\":11541:11987   */\n    tag_238:\n        /* \"#utility.yul\":11451:11994   */\n      pop\n      pop\n      pop\n      jump\t// out\n        /* \"#utility.yul\":12000:12117   */\n    tag_107:\n        /* \"#utility.yul\":12054:12062   */\n      0x00\n        /* \"#utility.yul\":12104:12109   */\n      dup3\n        /* \"#utility.yul\":12098:12102   */\n      dup3\n        /* \"#utility.yul\":12094:12110   */\n      shr\n        /* \"#utility.yul\":12073:12110   */\n      swap1\n      pop\n        /* \"#utility.yul\":12000:12117   */\n      swap3\n      swap2\n      pop\n      pop\n      jump\t// out\n        /* \"#utility.yul\":12123:12292   */\n    tag_108:\n        /* \"#utility.yul\":12167:12173   */\n      0x00\n        /* \"#utility.yul\":12200:12251   */\n      tag_246\n        /* \"#utility.yul\":12248:12249   */\n      0x00\n        /* \"#utility.yul\":12244:12250   */\n      not\n        /* \"#utility.yul\":12236:12241   */\n      dup5\n        /* \"#utility.yul\":12233:12234   */\n      0x08\n        /* \"#utility.yul\":12229:12242   */\n      mul\n        /* \"#utility.yul\":12200:12251   */\n      tag_107\n      jump\t// in\n    tag_246:\n        /* \"#utility.yul\":12196:12252   */\n      not\n        /* \"#utility.yul\":12281:12285   */\n      dup1\n        /* \"#utility.yul\":12275:12279   */\n      dup4\n        /* \"#utility.yul\":12271:12286   */\n      and\n        /* \"#utility.yul\":12261:12286   */\n      swap2\n      pop\n        /* \"#utility.yul\":12174:12292   */\n      pop\n        /* \"#utility.yul\":12123:12292   */\n      swap3\n      swap2\n      pop\n      pop\n      jump\t// out\n        /* \"#utility.yul\":12297:12592   */\n    tag_109:\n        /* \"#utility.yul\":12373:12377   */\n      0x00\n        /* \"#utility.yul\":12519:12548   */\n      tag_248\n        /* \"#utility.yul\":12544:12547   */\n      dup4\n        /* \"#utility.yul\":12538:12542   */\n      dup4\n        /* \"#utility.yul\":12519:12548   */\n      tag_108\n      jump\t// in\n    tag_248:\n        /* \"#utility.yul\":12511:12548   */\n      swap2\n      pop\n        /* \"#utility.yul\":12581:12584   */\n      dup3\n        /* \"#utility.yul\":12578:12579   */\n      0x02\n        /* \"#utility.yul\":12574:12585   */\n      mul\n        /* \"#utility.yul\":12568:12572   */\n      dup3\n        /* \"#utility.yul\":12565:12586   */\n      or\n        /* \"#utility.yul\":12557:12586   */\n      swap1\n      pop\n        /* \"#utility.yul\":12297:12592   */\n      swap3\n      swap2\n      pop\n      pop\n      jump\t// out\n        /* \"#utility.yul\":12597:13992   */\n    tag_41:\n        /* \"#utility.yul\":12714:12751   */\n      tag_250\n        /* \"#utility.yul\":12747:12750   */\n      dup3\n        /* \"#utility.yul\":12714:12751   */\n      tag_83\n      jump\t// in\n    tag_250:\n        /* \"#utility.yul\":12816:12834   */\n      0xffffffffffffffff\n        /* \"#utility.yul\":12808:12814   */\n      dup2\n        /* \"#utility.yul\":12805:12835   */\n      gt\n        /* \"#utility.yul\":12802:12858   */\n      iszero\n      tag_251\n      jumpi\n        /* \"#utility.yul\":12838:12856   */\n      tag_252\n      tag_75\n      jump\t// in\n    tag_252:\n        /* \"#utility.yul\":12802:12858   */\n    tag_251:\n        /* \"#utility.yul\":12882:12920   */\n      tag_253\n        /* \"#utility.yul\":12914:12918   */\n      dup3\n        /* \"#utility.yul\":12908:12919   */\n      sload\n        /* \"#utility.yul\":12882:12920   */\n      tag_49\n      jump\t// in\n    tag_253:\n        /* \"#utility.yul\":12967:13034   */\n      tag_254\n        /* \"#utility.yul\":13027:13033   */\n      dup3\n        /* \"#utility.yul\":13019:13025   */\n      dup3\n        /* \"#utility.yul\":13013:13017   */\n      dup6\n        /* \"#utility.yul\":12967:13034   */\n      tag_106\n      jump\t// in\n    tag_254:\n        /* \"#utility.yul\":13061:13062   */\n      0x00\n        /* \"#utility.yul\":13085:13089   */\n      0x20\n        /* \"#utility.yul\":13072:13089   */\n      swap1\n      pop\n        /* \"#utility.yul\":13117:13119   */\n      0x1f\n        /* \"#utility.yul\":13109:13115   */\n      dup4\n        /* \"#utility.yul\":13106:13120   */\n      gt\n        /* \"#utility.yul\":13134:13135   */\n      0x01\n        /* \"#utility.yul\":13129:13747   */\n      dup2\n      eq\n      tag_256\n      jumpi\n        /* \"#utility.yul\":13791:13792   */\n      0x00\n        /* \"#utility.yul\":13808:13814   */\n      dup5\n        /* \"#utility.yul\":13805:13882   */\n      iszero\n      tag_257\n      jumpi\n        /* \"#utility.yul\":13857:13866   */\n      dup3\n        /* \"#utility.yul\":13852:13855   */\n      dup8\n        /* \"#utility.yul\":13848:13867   */\n      add\n        /* \"#utility.yul\":13842:13868   */\n      mload\n        /* \"#utility.yul\":13833:13868   */\n      swap1\n      pop\n        /* \"#utility.yul\":13805:13882   */\n    tag_257:\n        /* \"#utility.yul\":13908:13975   */\n      tag_258\n        /* \"#utility.yul\":13968:13974   */\n      dup6\n        /* \"#utility.yul\":13961:13966   */\n      dup3\n        /* \"#utility.yul\":13908:13975   */\n      tag_109\n      jump\t// in\n    tag_258:\n        /* \"#utility.yul\":13902:13906   */\n      dup7\n        /* \"#utility.yul\":13895:13976   */\n      sstore\n        /* \"#utility.yul\":13764:13986   */\n      pop\n        /* \"#utility.yul\":13099:13986   */\n      jump(tag_255)\n        /* \"#utility.yul\":13129:13747   */\n    tag_256:\n        /* \"#utility.yul\":13181:13185   */\n      0x1f\n        /* \"#utility.yul\":13177:13186   */\n      not\n        /* \"#utility.yul\":13169:13175   */\n      dup5\n        /* \"#utility.yul\":13165:13187   */\n      and\n        /* \"#utility.yul\":13215:13252   */\n      tag_259\n        /* \"#utility.yul\":13247:13251   */\n      dup7\n        /* \"#utility.yul\":13215:13252   */\n      tag_95\n      jump\t// in\n    tag_259:\n        /* \"#utility.yul\":13274:13275   */\n      0x00\n        /* \"#utility.yul\":13288:13496   */\n    tag_260:\n        /* \"#utility.yul\":13302:13309   */\n      dup3\n        /* \"#utility.yul\":13299:13300   */\n      dup2\n        /* \"#utility.yul\":13296:13310   */\n      lt\n        /* \"#utility.yul\":13288:13496   */\n      iszero\n      tag_262\n      jumpi\n        /* \"#utility.yul\":13381:13390   */\n      dup5\n        /* \"#utility.yul\":13376:13379   */\n      dup10\n        /* \"#utility.yul\":13372:13391   */\n      add\n        /* \"#utility.yul\":13366:13392   */\n      mload\n        /* \"#utility.yul\":13358:13364   */\n      dup3\n        /* \"#utility.yul\":13351:13393   */\n      sstore\n        /* \"#utility.yul\":13432:13433   */\n      0x01\n        /* \"#utility.yul\":13424:13430   */\n      dup3\n        /* \"#utility.yul\":13420:13434   */\n      add\n        /* \"#utility.yul\":13410:13434   */\n      swap2\n      pop\n        /* \"#utility.yul\":13479:13481   */\n      0x20\n        /* \"#utility.yul\":13468:13477   */\n      dup6\n        /* \"#utility.yul\":13464:13482   */\n      add\n        /* \"#utility.yul\":13451:13482   */\n      swap5\n      pop\n        /* \"#utility.yul\":13325:13329   */\n      0x20\n        /* \"#utility.yul\":13322:13323   */\n      dup2\n        /* \"#utility.yul\":13318:13330   */\n      add\n        /* \"#utility.yul\":13313:13330   */\n      swap1\n      pop\n        /* \"#utility.yul\":13288:13496   */\n      jump(tag_260)\n    tag_262:\n        /* \"#utility.yul\":13524:13530   */\n      dup7\n        /* \"#utility.yul\":13515:13522   */\n      dup4\n        /* \"#utility.yul\":13512:13531   */\n      lt\n        /* \"#utility.yul\":13509:13688   */\n      iszero\n      tag_263\n      jumpi\n        /* \"#utility.yul\":13582:13591   */\n      dup5\n        /* \"#utility.yul\":13577:13580   */\n      dup10\n        /* \"#utility.yul\":13573:13592   */\n      add\n        /* \"#utility.yul\":13567:13593   */\n      mload\n        /* \"#utility.yul\":13625:13673   */\n      tag_264\n        /* \"#utility.yul\":13667:13671   */\n      0x1f\n        /* \"#utility.yul\":13659:13665   */\n      dup10\n        /* \"#utility.yul\":13655:13672   */\n      and\n        /* \"#utility.yul\":13644:13653   */\n      dup3\n        /* \"#utility.yul\":13625:13673   */\n      tag_108\n      jump\t// in\n    tag_264:\n        /* \"#utility.yul\":13617:13623   */\n      dup4\n        /* \"#utility.yul\":13610:13674   */\n      sstore\n        /* \"#utility.yul\":13532:13688   */\n      pop\n        /* \"#utility.yul\":13509:13688   */\n    tag_263:\n        /* \"#utility.yul\":13734:13735   */\n      0x01\n        /* \"#utility.yul\":13730:13731   */\n      0x02\n        /* \"#utility.yul\":13722:13728   */\n      dup9\n        /* \"#utility.yul\":13718:13732   */\n      mul\n        /* \"#utility.yul\":13714:13736   */\n      add\n        /* \"#utility.yul\":13708:13712   */\n      dup9\n        /* \"#utility.yul\":13701:13737   */\n      sstore\n        /* \"#utility.yul\":13136:13747   */\n      pop\n      pop\n      pop\n        /* \"#utility.yul\":13099:13986   */\n    tag_255:\n      pop\n        /* \"#utility.yul\":12689:13992   */\n      pop\n      pop\n      pop\n        /* \"#utility.yul\":12597:13992   */\n      pop\n      pop\n      jump\t// out\n        /* \"#utility.yul\":13998:14178   */\n    tag_110:\n        /* \"#utility.yul\":14046:14123   */\n      0x4e487b7100000000000000000000000000000000000000000000000000000000\n        /* \"#utility.yul\":14043:14044   */\n      0x00\n        /* \"#utility.yul\":14036:14124   */\n      mstore\n        /* \"#utility.yul\":14143:14147   */\n      0x11\n        /* \"#utility.yul\":14140:14141   */\n      0x04\n        /* \"#utility.yul\":14133:14148   */\n      mstore\n        /* \"#utility.yul\":14167:14171   */\n      0x24\n        /* \"#utility.yul\":14164:14165   */\n      0x00\n        /* \"#utility.yul\":14157:14172   */\n      revert\n        /* \"#utility.yul\":14184:14417   */\n    tag_65:\n        /* \"#utility.yul\":14223:14226   */\n      0x00\n        /* \"#utility.yul\":14246:14270   */\n      tag_267\n        /* \"#utility.yul\":14264:14269   */\n      dup3\n        /* \"#utility.yul\":14246:14270   */\n      tag_69\n      jump\t// in\n    tag_267:\n        /* \"#utility.yul\":14237:14270   */\n      swap2\n      pop\n        /* \"#utility.yul\":14292:14358   */\n      0xffffffffffffffffffffffffffffffffffffffffffffffffffffffffffffffff\n        /* \"#utility.yul\":14285:14290   */\n      dup3\n        /* \"#utility.yul\":14282:14359   */\n      sub\n        /* \"#utility.yul\":14279:14382   */\n      tag_268\n      jumpi\n        /* \"#utility.yul\":14362:14380   */\n      tag_269\n      tag_110\n      jump\t// in\n    tag_269:\n        /* \"#utility.yul\":14279:14382   */\n    tag_268:\n        /* \"#utility.yul\":14409:14410   */\n      0x01\n        /* \"#utility.yul\":14402:14407   */\n      dup3\n        /* \"#utility.yul\":14398:14411   */\n      add\n        /* \"#utility.yul\":14391:14411   */\n      swap1\n      pop\n        /* \"#utility.yul\":14184:14417   */\n      swap2\n      swap1\n      pop\n      jump\t// out\n\n    auxdata: 0xa264697066735822122055a5b7598caa70fa92c519d2daebdd0a639a9116d8809c7083861b3878aaf0dd64736f6c634300081a0033\n}\n",
				"bytecode": {
					"linkReferences": {},
					"object": "6080604052348015600e575f80fd5b50610c2d8061001c5f395ff3fe608060405234801561000f575f80fd5b5060043610610055575f3560e01c80630923ce4b14610059578063267c68e0146100755780634325e5bf146100935780639e7a13ad146100c3578063e11641cf146100f5575b5f80fd5b610073600480360381019061006e9190610597565b610111565b005b61007d610199565b60405161008a9190610612565b60405180910390f35b6100ad60048036038101906100a8919061062b565b61019f565b6040516100ba91906106c9565b60405180910390f35b6100dd60048036038101906100d891906106e9565b6102a5565b6040516100ec93929190610753565b60405180910390f35b61010f600480360381019061010a91906107b9565b61037e565b005b6001548310610155576040517f08c379a000000000000000000000000000000000000000000000000000000000815260040161014c9061086f565b60405180910390fd5b805f84815481106101695761016861088d565b5b905f5260205f2090600402016003015f8481526020019081526020015f2090816101939190610ab4565b50505050565b60015481565b606060015483106101e5576040517f08c379a00000000000000000000000000000000000000000000000000000000081526004016101dc9061086f565b60405180910390fd5b5f83815481106101f8576101f761088d565b5b905f5260205f2090600402016003015f8381526020019081526020015f208054610221906108e7565b80601f016020809104026020016040519081016040528092919081815260200182805461024d906108e7565b80156102985780601f1061026f57610100808354040283529160200191610298565b820191905f5260205f20905b81548152906001019060200180831161027b57829003601f168201915b5050505050905092915050565b5f81815481106102b3575f80fd5b905f5260205f2090600402015f91509050805f0180546102d2906108e7565b80601f01602080910402602001604051908101604052809291908181526020018280546102fe906108e7565b80156103495780601f1061032057610100808354040283529160200191610349565b820191905f5260205f20905b81548152906001019060200180831161032c57829003601f168201915b505050505090806001015490806002015f9054906101000a900473ffffffffffffffffffffffffffffffffffffffff16905083565b5f8060018160018154018082558091505003905f5260205f209060040201905083815f0190816103ae9190610ab4565b5082816001018190555081816002015f6101000a81548173ffffffffffffffffffffffffffffffffffffffff021916908373ffffffffffffffffffffffffffffffffffffffff16021790555060015f81548092919061040c90610bb0565b919050555050505050565b5f604051905090565b5f80fd5b5f80fd5b5f819050919050565b61043a81610428565b8114610444575f80fd5b50565b5f8135905061045581610431565b92915050565b5f80fd5b5f80fd5b5f601f19601f8301169050919050565b7f4e487b71000000000000000000000000000000000000000000000000000000005f52604160045260245ffd5b6104a982610463565b810181811067ffffffffffffffff821117156104c8576104c7610473565b5b80604052505050565b5f6104da610417565b90506104e682826104a0565b919050565b5f67ffffffffffffffff82111561050557610504610473565b5b61050e82610463565b9050602081019050919050565b828183375f83830152505050565b5f61053b610536846104eb565b6104d1565b9050828152602081018484840111156105575761055661045f565b5b61056284828561051b565b509392505050565b5f82601f83011261057e5761057d61045b565b5b813561058e848260208601610529565b91505092915050565b5f805f606084860312156105ae576105ad610420565b5b5f6105bb86828701610447565b93505060206105cc86828701610447565b925050604084013567ffffffffffffffff8111156105ed576105ec610424565b5b6105f98682870161056a565b9150509250925092565b61060c81610428565b82525050565b5f6020820190506106255f830184610603565b92915050565b5f806040838503121561064157610640610420565b5b5f61064e85828601610447565b925050602061065f85828601610447565b9150509250929050565b5f81519050919050565b5f82825260208201905092915050565b8281835e5f83830152505050565b5f61069b82610669565b6106a58185610673565b93506106b5818560208601610683565b6106be81610463565b840191505092915050565b5f6020820190508181035f8301526106e18184610691565b905092915050565b5f602082840312156106fe576106fd610420565b5b5f61070b84828501610447565b91505092915050565b5f73ffffffffffffffffffffffffffffffffffffffff82169050919050565b5f61073d82610714565b9050919050565b61074d81610733565b82525050565b5f6060820190508181035f83015261076b8186610691565b905061077a6020830185610603565b6107876040830184610744565b949350505050565b61079881610733565b81146107a2575f80fd5b50565b5f813590506107b38161078f565b92915050565b5f805f606084860312156107d0576107cf610420565b5b5f84013567ffffffffffffffff8111156107ed576107ec610424565b5b6107f98682870161056a565b935050602061080a86828701610447565b925050604061081b868287016107a5565b9150509250925092565b7f506572736f6e20646f6573206e6f7420657869737400000000000000000000005f82015250565b5f610859601583610673565b915061086482610825565b602082019050919050565b5f6020820190508181035f8301526108868161084d565b9050919050565b7f4e487b71000000000000000000000000000000000000000000000000000000005f52603260045260245ffd5b7f4e487b71000000000000000000000000000000000000000000000000000000005f52602260045260245ffd5b5f60028204905060018216806108fe57607f821691505b602082108103610911576109106108ba565b5b50919050565b5f819050815f5260205f209050919050565b5f6020601f8301049050919050565b5f82821b905092915050565b5f600883026109737fffffffffffffffffffffffffffffffffffffffffffffffffffffffffffffffff82610938565b61097d8683610938565b95508019841693508086168417925050509392505050565b5f819050919050565b5f6109b86109b36109ae84610428565b610995565b610428565b9050919050565b5f819050919050565b6109d18361099e565b6109e56109dd826109bf565b848454610944565b825550505050565b5f90565b6109f96109ed565b610a048184846109c8565b505050565b5b81811015610a2757610a1c5f826109f1565b600181019050610a0a565b5050565b601f821115610a6c57610a3d81610917565b610a4684610929565b81016020851015610a55578190505b610a69610a6185610929565b830182610a09565b50505b505050565b5f82821c905092915050565b5f610a8c5f1984600802610a71565b1980831691505092915050565b5f610aa48383610a7d565b9150826002028217905092915050565b610abd82610669565b67ffffffffffffffff811115610ad657610ad5610473565b5b610ae082546108e7565b610aeb828285610a2b565b5f60209050601f831160018114610b1c575f8415610b0a578287015190505b610b148582610a99565b865550610b7b565b601f198416610b2a86610917565b5f5b82811015610b5157848901518255600182019150602085019450602081019050610b2c565b86831015610b6e5784890151610b6a601f891682610a7d565b8355505b6001600288020188555050505b505050505050565b7f4e487b71000000000000000000000000000000000000000000000000000000005f52601160045260245ffd5b5f610bba82610428565b91507fffffffffffffffffffffffffffffffffffffffffffffffffffffffffffffffff8203610bec57610beb610b83565b5b60018201905091905056fea264697066735822122055a5b7598caa70fa92c519d2daebdd0a639a9116d8809c7083861b3878aaf0dd64736f6c634300081a0033",
					"opcodes": "PUSH1 0x80 PUSH1 0x40 MSTORE CALLVALUE DUP1 ISZERO PUSH1 0xE JUMPI PUSH0 DUP1 REVERT JUMPDEST POP PUSH2 0xC2D DUP1 PUSH2 0x1C PUSH0 CODECOPY PUSH0 RETURN INVALID PUSH1 0x80 PUSH1 0x40 MSTORE CALLVALUE DUP1 ISZERO PUSH2 0xF JUMPI PUSH0 DUP1 REVERT JUMPDEST POP PUSH1 0x4 CALLDATASIZE LT PUSH2 0x55 JUMPI PUSH0 CALLDATALOAD PUSH1 0xE0 SHR DUP1 PUSH4 0x923CE4B EQ PUSH2 0x59 JUMPI DUP1 PUSH4 0x267C68E0 EQ PUSH2 0x75 JUMPI DUP1 PUSH4 0x4325E5BF EQ PUSH2 0x93 JUMPI DUP1 PUSH4 0x9E7A13AD EQ PUSH2 0xC3 JUMPI DUP1 PUSH4 0xE11641CF EQ PUSH2 0xF5 JUMPI JUMPDEST PUSH0 DUP1 REVERT JUMPDEST PUSH2 0x73 PUSH1 0x4 DUP1 CALLDATASIZE SUB DUP2 ADD SWAP1 PUSH2 0x6E SWAP2 SWAP1 PUSH2 0x597 JUMP JUMPDEST PUSH2 0x111 JUMP JUMPDEST STOP JUMPDEST PUSH2 0x7D PUSH2 0x199 JUMP JUMPDEST PUSH1 0x40 MLOAD PUSH2 0x8A SWAP2 SWAP1 PUSH2 0x612 JUMP JUMPDEST PUSH1 0x40 MLOAD DUP1 SWAP2 SUB SWAP1 RETURN JUMPDEST PUSH2 0xAD PUSH1 0x4 DUP1 CALLDATASIZE SUB DUP2 ADD SWAP1 PUSH2 0xA8 SWAP2 SWAP1 PUSH2 0x62B JUMP JUMPDEST PUSH2 0x19F JUMP JUMPDEST PUSH1 0x40 MLOAD PUSH2 0xBA SWAP2 SWAP1 PUSH2 0x6C9 JUMP JUMPDEST PUSH1 0x40 MLOAD DUP1 SWAP2 SUB SWAP1 RETURN JUMPDEST PUSH2 0xDD PUSH1 0x4 DUP1 CALLDATASIZE SUB DUP2 ADD SWAP1 PUSH2 0xD8 SWAP2 SWAP1 PUSH2 0x6E9 JUMP JUMPDEST PUSH2 0x2A5 JUMP JUMPDEST PUSH1 0x40 MLOAD PUSH2 0xEC SWAP4 SWAP3 SWAP2 SWAP1 PUSH2 0x753 JUMP JUMPDEST PUSH1 0x40 MLOAD DUP1 SWAP2 SUB SWAP1 RETURN JUMPDEST PUSH2 0x10F PUSH1 0x4 DUP1 CALLDATASIZE SUB DUP2 ADD SWAP1 PUSH2 0x10A SWAP2 SWAP1 PUSH2 0x7B9 JUMP JUMPDEST PUSH2 0x37E JUMP JUMPDEST STOP JUMPDEST PUSH1 0x1 SLOAD DUP4 LT PUSH2 0x155 JUMPI PUSH1 0x40 MLOAD PUSH32 0x8C379A000000000000000000000000000000000000000000000000000000000 DUP2 MSTORE PUSH1 0x4 ADD PUSH2 0x14C SWAP1 PUSH2 0x86F JUMP JUMPDEST PUSH1 0x40 MLOAD DUP1 SWAP2 SUB SWAP1 REVERT JUMPDEST DUP1 PUSH0 DUP5 DUP2 SLOAD DUP2 LT PUSH2 0x169 JUMPI PUSH2 0x168 PUSH2 0x88D JUMP JUMPDEST JUMPDEST SWAP1 PUSH0 MSTORE PUSH1 0x20 PUSH0 KECCAK256 SWAP1 PUSH1 0x4 MUL ADD PUSH1 0x3 ADD PUSH0 DUP5 DUP2 MSTORE PUSH1 0x20 ADD SWAP1 DUP2 MSTORE PUSH1 0x20 ADD PUSH0 KECCAK256 SWAP1 DUP2 PUSH2 0x193 SWAP2 SWAP1 PUSH2 0xAB4 JUMP JUMPDEST POP POP POP POP JUMP JUMPDEST PUSH1 0x1 SLOAD DUP2 JUMP JUMPDEST PUSH1 0x60 PUSH1 0x1 SLOAD DUP4 LT PUSH2 0x1E5 JUMPI PUSH1 0x40 MLOAD PUSH32 0x8C379A000000000000000000000000000000000000000000000000000000000 DUP2 MSTORE PUSH1 0x4 ADD PUSH2 0x1DC SWAP1 PUSH2 0x86F JUMP JUMPDEST PUSH1 0x40 MLOAD DUP1 SWAP2 SUB SWAP1 REVERT JUMPDEST PUSH0 DUP4 DUP2 SLOAD DUP2 LT PUSH2 0x1F8 JUMPI PUSH2 0x1F7 PUSH2 0x88D JUMP JUMPDEST JUMPDEST SWAP1 PUSH0 MSTORE PUSH1 0x20 PUSH0 KECCAK256 SWAP1 PUSH1 0x4 MUL ADD PUSH1 0x3 ADD PUSH0 DUP4 DUP2 MSTORE PUSH1 0x20 ADD SWAP1 DUP2 MSTORE PUSH1 0x20 ADD PUSH0 KECCAK256 DUP1 SLOAD PUSH2 0x221 SWAP1 PUSH2 0x8E7 JUMP JUMPDEST DUP1 PUSH1 0x1F ADD PUSH1 0x20 DUP1 SWAP2 DIV MUL PUSH1 0x20 ADD PUSH1 0x40 MLOAD SWAP1 DUP2 ADD PUSH1 0x40 MSTORE DUP1 SWAP3 SWAP2 SWAP1 DUP2 DUP2 MSTORE PUSH1 0x20 ADD DUP3 DUP1 SLOAD PUSH2 0x24D SWAP1 PUSH2 0x8E7 JUMP JUMPDEST DUP1 ISZERO PUSH2 0x298 JUMPI DUP1 PUSH1 0x1F LT PUSH2 0x26F JUMPI PUSH2 0x100 DUP1 DUP4 SLOAD DIV MUL DUP4 MSTORE SWAP2 PUSH1 0x20 ADD SWAP2 PUSH2 0x298 JUMP JUMPDEST DUP3 ADD SWAP2 SWAP1 PUSH0 MSTORE PUSH1 0x20 PUSH0 KECCAK256 SWAP1 JUMPDEST DUP2 SLOAD DUP2 MSTORE SWAP1 PUSH1 0x1 ADD SWAP1 PUSH1 0x20 ADD DUP1 DUP4 GT PUSH2 0x27B JUMPI DUP3 SWAP1 SUB PUSH1 0x1F AND DUP3 ADD SWAP2 JUMPDEST POP POP POP POP POP SWAP1 POP SWAP3 SWAP2 POP POP JUMP JUMPDEST PUSH0 DUP2 DUP2 SLOAD DUP2 LT PUSH2 0x2B3 JUMPI PUSH0 DUP1 REVERT JUMPDEST SWAP1 PUSH0 MSTORE PUSH1 0x20 PUSH0 KECCAK256 SWAP1 PUSH1 0x4 MUL ADD PUSH0 SWAP2 POP SWAP1 POP DUP1 PUSH0 ADD DUP1 SLOAD PUSH2 0x2D2 SWAP1 PUSH2 0x8E7 JUMP JUMPDEST DUP1 PUSH1 0x1F ADD PUSH1 0x20 DUP1 SWAP2 DIV MUL PUSH1 0x20 ADD PUSH1 0x40 MLOAD SWAP1 DUP2 ADD PUSH1 0x40 MSTORE DUP1 SWAP3 SWAP2 SWAP1 DUP2 DUP2 MSTORE PUSH1 0x20 ADD DUP3 DUP1 SLOAD PUSH2 0x2FE SWAP1 PUSH2 0x8E7 JUMP JUMPDEST DUP1 ISZERO PUSH2 0x349 JUMPI DUP1 PUSH1 0x1F LT PUSH2 0x320 JUMPI PUSH2 0x100 DUP1 DUP4 SLOAD DIV MUL DUP4 MSTORE SWAP2 PUSH1 0x20 ADD SWAP2 PUSH2 0x349 JUMP JUMPDEST DUP3 ADD SWAP2 SWAP1 PUSH0 MSTORE PUSH1 0x20 PUSH0 KECCAK256 SWAP1 JUMPDEST DUP2 SLOAD DUP2 MSTORE SWAP1 PUSH1 0x1 ADD SWAP1 PUSH1 0x20 ADD DUP1 DUP4 GT PUSH2 0x32C JUMPI DUP3 SWAP1 SUB PUSH1 0x1F AND DUP3 ADD SWAP2 JUMPDEST POP POP POP POP POP SWAP1 DUP1 PUSH1 0x1 ADD SLOAD SWAP1 DUP1 PUSH1 0x2 ADD PUSH0 SWAP1 SLOAD SWAP1 PUSH2 0x100 EXP SWAP1 DIV PUSH20 0xFFFFFFFFFFFFFFFFFFFFFFFFFFFFFFFFFFFFFFFF AND SWAP1 POP DUP4 JUMP JUMPDEST PUSH0 DUP1 PUSH1 0x1 DUP2 PUSH1 0x1 DUP2 SLOAD ADD DUP1 DUP3 SSTORE DUP1 SWAP2 POP POP SUB SWAP1 PUSH0 MSTORE PUSH1 0x20 PUSH0 KECCAK256 SWAP1 PUSH1 0x4 MUL ADD SWAP1 POP DUP4 DUP2 PUSH0 ADD SWAP1 DUP2 PUSH2 0x3AE SWAP2 SWAP1 PUSH2 0xAB4 JUMP JUMPDEST POP DUP3 DUP2 PUSH1 0x1 ADD DUP2 SWAP1 SSTORE POP DUP2 DUP2 PUSH1 0x2 ADD PUSH0 PUSH2 0x100 EXP DUP2 SLOAD DUP2 PUSH20 0xFFFFFFFFFFFFFFFFFFFFFFFFFFFFFFFFFFFFFFFF MUL NOT AND SWAP1 DUP4 PUSH20 0xFFFFFFFFFFFFFFFFFFFFFFFFFFFFFFFFFFFFFFFF AND MUL OR SWAP1 SSTORE POP PUSH1 0x1 PUSH0 DUP2 SLOAD DUP1 SWAP3 SWAP2 SWAP1 PUSH2 0x40C SWAP1 PUSH2 0xBB0 JUMP JUMPDEST SWAP2 SWAP1 POP SSTORE POP POP POP POP POP JUMP JUMPDEST PUSH0 PUSH1 0x40 MLOAD SWAP1 POP SWAP1 JUMP JUMPDEST PUSH0 DUP1 REVERT JUMPDEST PUSH0 DUP1 REVERT JUMPDEST PUSH0 DUP2 SWAP1 POP SWAP2 SWAP1 POP JUMP JUMPDEST PUSH2 0x43A DUP2 PUSH2 0x428 JUMP JUMPDEST DUP2 EQ PUSH2 0x444 JUMPI PUSH0 DUP1 REVERT JUMPDEST POP JUMP JUMPDEST PUSH0 DUP2 CALLDATALOAD SWAP1 POP PUSH2 0x455 DUP2 PUSH2 0x431 JUMP JUMPDEST SWAP3 SWAP2 POP POP JUMP JUMPDEST PUSH0 DUP1 REVERT JUMPDEST PUSH0 DUP1 REVERT JUMPDEST PUSH0 PUSH1 0x1F NOT PUSH1 0x1F DUP4 ADD AND SWAP1 POP SWAP2 SWAP1 POP JUMP JUMPDEST PUSH32 0x4E487B7100000000000000000000000000000000000000000000000000000000 PUSH0 MSTORE PUSH1 0x41 PUSH1 0x4 MSTORE PUSH1 0x24 PUSH0 REVERT JUMPDEST PUSH2 0x4A9 DUP3 PUSH2 0x463 JUMP JUMPDEST DUP2 ADD DUP2 DUP2 LT PUSH8 0xFFFFFFFFFFFFFFFF DUP3 GT OR ISZERO PUSH2 0x4C8 JUMPI PUSH2 0x4C7 PUSH2 0x473 JUMP JUMPDEST JUMPDEST DUP1 PUSH1 0x40 MSTORE POP POP POP JUMP JUMPDEST PUSH0 PUSH2 0x4DA PUSH2 0x417 JUMP JUMPDEST SWAP1 POP PUSH2 0x4E6 DUP3 DUP3 PUSH2 0x4A0 JUMP JUMPDEST SWAP2 SWAP1 POP JUMP JUMPDEST PUSH0 PUSH8 0xFFFFFFFFFFFFFFFF DUP3 GT ISZERO PUSH2 0x505 JUMPI PUSH2 0x504 PUSH2 0x473 JUMP JUMPDEST JUMPDEST PUSH2 0x50E DUP3 PUSH2 0x463 JUMP JUMPDEST SWAP1 POP PUSH1 0x20 DUP2 ADD SWAP1 POP SWAP2 SWAP1 POP JUMP JUMPDEST DUP3 DUP2 DUP4 CALLDATACOPY PUSH0 DUP4 DUP4 ADD MSTORE POP POP POP JUMP JUMPDEST PUSH0 PUSH2 0x53B PUSH2 0x536 DUP5 PUSH2 0x4EB JUMP JUMPDEST PUSH2 0x4D1 JUMP JUMPDEST SWAP1 POP DUP3 DUP2 MSTORE PUSH1 0x20 DUP2 ADD DUP5 DUP5 DUP5 ADD GT ISZERO PUSH2 0x557 JUMPI PUSH2 0x556 PUSH2 0x45F JUMP JUMPDEST JUMPDEST PUSH2 0x562 DUP5 DUP3 DUP6 PUSH2 0x51B JUMP JUMPDEST POP SWAP4 SWAP3 POP POP POP JUMP JUMPDEST PUSH0 DUP3 PUSH1 0x1F DUP4 ADD SLT PUSH2 0x57E JUMPI PUSH2 0x57D PUSH2 0x45B JUMP JUMPDEST JUMPDEST DUP2 CALLDATALOAD PUSH2 0x58E DUP5 DUP3 PUSH1 0x20 DUP7 ADD PUSH2 0x529 JUMP JUMPDEST SWAP2 POP POP SWAP3 SWAP2 POP POP JUMP JUMPDEST PUSH0 DUP1 PUSH0 PUSH1 0x60 DUP5 DUP7 SUB SLT ISZERO PUSH2 0x5AE JUMPI PUSH2 0x5AD PUSH2 0x420 JUMP JUMPDEST JUMPDEST PUSH0 PUSH2 0x5BB DUP7 DUP3 DUP8 ADD PUSH2 0x447 JUMP JUMPDEST SWAP4 POP POP PUSH1 0x20 PUSH2 0x5CC DUP7 DUP3 DUP8 ADD PUSH2 0x447 JUMP JUMPDEST SWAP3 POP POP PUSH1 0x40 DUP5 ADD CALLDATALOAD PUSH8 0xFFFFFFFFFFFFFFFF DUP2 GT ISZERO PUSH2 0x5ED JUMPI PUSH2 0x5EC PUSH2 0x424 JUMP JUMPDEST JUMPDEST PUSH2 0x5F9 DUP7 DUP3 DUP8 ADD PUSH2 0x56A JUMP JUMPDEST SWAP2 POP POP SWAP3 POP SWAP3 POP SWAP3 JUMP JUMPDEST PUSH2 0x60C DUP2 PUSH2 0x428 JUMP JUMPDEST DUP3 MSTORE POP POP JUMP JUMPDEST PUSH0 PUSH1 0x20 DUP3 ADD SWAP1 POP PUSH2 0x625 PUSH0 DUP4 ADD DUP5 PUSH2 0x603 JUMP JUMPDEST SWAP3 SWAP2 POP POP JUMP JUMPDEST PUSH0 DUP1 PUSH1 0x40 DUP4 DUP6 SUB SLT ISZERO PUSH2 0x641 JUMPI PUSH2 0x640 PUSH2 0x420 JUMP JUMPDEST JUMPDEST PUSH0 PUSH2 0x64E DUP6 DUP3 DUP7 ADD PUSH2 0x447 JUMP JUMPDEST SWAP3 POP POP PUSH1 0x20 PUSH2 0x65F DUP6 DUP3 DUP7 ADD PUSH2 0x447 JUMP JUMPDEST SWAP2 POP POP SWAP3 POP SWAP3 SWAP1 POP JUMP JUMPDEST PUSH0 DUP2 MLOAD SWAP1 POP SWAP2 SWAP1 POP JUMP JUMPDEST PUSH0 DUP3 DUP3 MSTORE PUSH1 0x20 DUP3 ADD SWAP1 POP SWAP3 SWAP2 POP POP JUMP JUMPDEST DUP3 DUP2 DUP4 MCOPY PUSH0 DUP4 DUP4 ADD MSTORE POP POP POP JUMP JUMPDEST PUSH0 PUSH2 0x69B DUP3 PUSH2 0x669 JUMP JUMPDEST PUSH2 0x6A5 DUP2 DUP6 PUSH2 0x673 JUMP JUMPDEST SWAP4 POP PUSH2 0x6B5 DUP2 DUP6 PUSH1 0x20 DUP7 ADD PUSH2 0x683 JUMP JUMPDEST PUSH2 0x6BE DUP2 PUSH2 0x463 JUMP JUMPDEST DUP5 ADD SWAP2 POP POP SWAP3 SWAP2 POP POP JUMP JUMPDEST PUSH0 PUSH1 0x20 DUP3 ADD SWAP1 POP DUP2 DUP2 SUB PUSH0 DUP4 ADD MSTORE PUSH2 0x6E1 DUP2 DUP5 PUSH2 0x691 JUMP JUMPDEST SWAP1 POP SWAP3 SWAP2 POP POP JUMP JUMPDEST PUSH0 PUSH1 0x20 DUP3 DUP5 SUB SLT ISZERO PUSH2 0x6FE JUMPI PUSH2 0x6FD PUSH2 0x420 JUMP JUMPDEST JUMPDEST PUSH0 PUSH2 0x70B DUP5 DUP3 DUP6 ADD PUSH2 0x447 JUMP JUMPDEST SWAP2 POP POP SWAP3 SWAP2 POP POP JUMP JUMPDEST PUSH0 PUSH20 0xFFFFFFFFFFFFFFFFFFFFFFFFFFFFFFFFFFFFFFFF DUP3 AND SWAP1 POP SWAP2 SWAP1 POP JUMP JUMPDEST PUSH0 PUSH2 0x73D DUP3 PUSH2 0x714 JUMP JUMPDEST SWAP1 POP SWAP2 SWAP1 POP JUMP JUMPDEST PUSH2 0x74D DUP2 PUSH2 0x733 JUMP JUMPDEST DUP3 MSTORE POP POP JUMP JUMPDEST PUSH0 PUSH1 0x60 DUP3 ADD SWAP1 POP DUP2 DUP2 SUB PUSH0 DUP4 ADD MSTORE PUSH2 0x76B DUP2 DUP7 PUSH2 0x691 JUMP JUMPDEST SWAP1 POP PUSH2 0x77A PUSH1 0x20 DUP4 ADD DUP6 PUSH2 0x603 JUMP JUMPDEST PUSH2 0x787 PUSH1 0x40 DUP4 ADD DUP5 PUSH2 0x744 JUMP JUMPDEST SWAP5 SWAP4 POP POP POP POP JUMP JUMPDEST PUSH2 0x798 DUP2 PUSH2 0x733 JUMP JUMPDEST DUP2 EQ PUSH2 0x7A2 JUMPI PUSH0 DUP1 REVERT JUMPDEST POP JUMP JUMPDEST PUSH0 DUP2 CALLDATALOAD SWAP1 POP PUSH2 0x7B3 DUP2 PUSH2 0x78F JUMP JUMPDEST SWAP3 SWAP2 POP POP JUMP JUMPDEST PUSH0 DUP1 PUSH0 PUSH1 0x60 DUP5 DUP7 SUB SLT ISZERO PUSH2 0x7D0 JUMPI PUSH2 0x7CF PUSH2 0x420 JUMP JUMPDEST JUMPDEST PUSH0 DUP5 ADD CALLDATALOAD PUSH8 0xFFFFFFFFFFFFFFFF DUP2 GT ISZERO PUSH2 0x7ED JUMPI PUSH2 0x7EC PUSH2 0x424 JUMP JUMPDEST JUMPDEST PUSH2 0x7F9 DUP7 DUP3 DUP8 ADD PUSH2 0x56A JUMP JUMPDEST SWAP4 POP POP PUSH1 0x20 PUSH2 0x80A DUP7 DUP3 DUP8 ADD PUSH2 0x447 JUMP JUMPDEST SWAP3 POP POP PUSH1 0x40 PUSH2 0x81B DUP7 DUP3 DUP8 ADD PUSH2 0x7A5 JUMP JUMPDEST SWAP2 POP POP SWAP3 POP SWAP3 POP SWAP3 JUMP JUMPDEST PUSH32 0x506572736F6E20646F6573206E6F742065786973740000000000000000000000 PUSH0 DUP3 ADD MSTORE POP JUMP JUMPDEST PUSH0 PUSH2 0x859 PUSH1 0x15 DUP4 PUSH2 0x673 JUMP JUMPDEST SWAP2 POP PUSH2 0x864 DUP3 PUSH2 0x825 JUMP JUMPDEST PUSH1 0x20 DUP3 ADD SWAP1 POP SWAP2 SWAP1 POP JUMP JUMPDEST PUSH0 PUSH1 0x20 DUP3 ADD SWAP1 POP DUP2 DUP2 SUB PUSH0 DUP4 ADD MSTORE PUSH2 0x886 DUP2 PUSH2 0x84D JUMP JUMPDEST SWAP1 POP SWAP2 SWAP1 POP JUMP JUMPDEST PUSH32 0x4E487B7100000000000000000000000000000000000000000000000000000000 PUSH0 MSTORE PUSH1 0x32 PUSH1 0x4 MSTORE PUSH1 0x24 PUSH0 REVERT JUMPDEST PUSH32 0x4E487B7100000000000000000000000000000000000000000000000000000000 PUSH0 MSTORE PUSH1 0x22 PUSH1 0x4 MSTORE PUSH1 0x24 PUSH0 REVERT JUMPDEST PUSH0 PUSH1 0x2 DUP3 DIV SWAP1 POP PUSH1 0x1 DUP3 AND DUP1 PUSH2 0x8FE JUMPI PUSH1 0x7F DUP3 AND SWAP2 POP JUMPDEST PUSH1 0x20 DUP3 LT DUP2 SUB PUSH2 0x911 JUMPI PUSH2 0x910 PUSH2 0x8BA JUMP JUMPDEST JUMPDEST POP SWAP2 SWAP1 POP JUMP JUMPDEST PUSH0 DUP2 SWAP1 POP DUP2 PUSH0 MSTORE PUSH1 0x20 PUSH0 KECCAK256 SWAP1 POP SWAP2 SWAP1 POP JUMP JUMPDEST PUSH0 PUSH1 0x20 PUSH1 0x1F DUP4 ADD DIV SWAP1 POP SWAP2 SWAP1 POP JUMP JUMPDEST PUSH0 DUP3 DUP3 SHL SWAP1 POP SWAP3 SWAP2 POP POP JUMP JUMPDEST PUSH0 PUSH1 0x8 DUP4 MUL PUSH2 0x973 PUSH32 0xFFFFFFFFFFFFFFFFFFFFFFFFFFFFFFFFFFFFFFFFFFFFFFFFFFFFFFFFFFFFFFFF DUP3 PUSH2 0x938 JUMP JUMPDEST PUSH2 0x97D DUP7 DUP4 PUSH2 0x938 JUMP JUMPDEST SWAP6 POP DUP1 NOT DUP5 AND SWAP4 POP DUP1 DUP7 AND DUP5 OR SWAP3 POP POP POP SWAP4 SWAP3 POP POP POP JUMP JUMPDEST PUSH0 DUP2 SWAP1 POP SWAP2 SWAP1 POP JUMP JUMPDEST PUSH0 PUSH2 0x9B8 PUSH2 0x9B3 PUSH2 0x9AE DUP5 PUSH2 0x428 JUMP JUMPDEST PUSH2 0x995 JUMP JUMPDEST PUSH2 0x428 JUMP JUMPDEST SWAP1 POP SWAP2 SWAP1 POP JUMP JUMPDEST PUSH0 DUP2 SWAP1 POP SWAP2 SWAP1 POP JUMP JUMPDEST PUSH2 0x9D1 DUP4 PUSH2 0x99E JUMP JUMPDEST PUSH2 0x9E5 PUSH2 0x9DD DUP3 PUSH2 0x9BF JUMP JUMPDEST DUP5 DUP5 SLOAD PUSH2 0x944 JUMP JUMPDEST DUP3 SSTORE POP POP POP POP JUMP JUMPDEST PUSH0 SWAP1 JUMP JUMPDEST PUSH2 0x9F9 PUSH2 0x9ED JUMP JUMPDEST PUSH2 0xA04 DUP2 DUP5 DUP5 PUSH2 0x9C8 JUMP JUMPDEST POP POP POP JUMP JUMPDEST JUMPDEST DUP2 DUP2 LT ISZERO PUSH2 0xA27 JUMPI PUSH2 0xA1C PUSH0 DUP3 PUSH2 0x9F1 JUMP JUMPDEST PUSH1 0x1 DUP2 ADD SWAP1 POP PUSH2 0xA0A JUMP JUMPDEST POP POP JUMP JUMPDEST PUSH1 0x1F DUP3 GT ISZERO PUSH2 0xA6C JUMPI PUSH2 0xA3D DUP2 PUSH2 0x917 JUMP JUMPDEST PUSH2 0xA46 DUP5 PUSH2 0x929 JUMP JUMPDEST DUP2 ADD PUSH1 0x20 DUP6 LT ISZERO PUSH2 0xA55 JUMPI DUP2 SWAP1 POP JUMPDEST PUSH2 0xA69 PUSH2 0xA61 DUP6 PUSH2 0x929 JUMP JUMPDEST DUP4 ADD DUP3 PUSH2 0xA09 JUMP JUMPDEST POP POP JUMPDEST POP POP POP JUMP JUMPDEST PUSH0 DUP3 DUP3 SHR SWAP1 POP SWAP3 SWAP2 POP POP JUMP JUMPDEST PUSH0 PUSH2 0xA8C PUSH0 NOT DUP5 PUSH1 0x8 MUL PUSH2 0xA71 JUMP JUMPDEST NOT DUP1 DUP4 AND SWAP2 POP POP SWAP3 SWAP2 POP POP JUMP JUMPDEST PUSH0 PUSH2 0xAA4 DUP4 DUP4 PUSH2 0xA7D JUMP JUMPDEST SWAP2 POP DUP3 PUSH1 0x2 MUL DUP3 OR SWAP1 POP SWAP3 SWAP2 POP POP JUMP JUMPDEST PUSH2 0xABD DUP3 PUSH2 0x669 JUMP JUMPDEST PUSH8 0xFFFFFFFFFFFFFFFF DUP2 GT ISZERO PUSH2 0xAD6 JUMPI PUSH2 0xAD5 PUSH2 0x473 JUMP JUMPDEST JUMPDEST PUSH2 0xAE0 DUP3 SLOAD PUSH2 0x8E7 JUMP JUMPDEST PUSH2 0xAEB DUP3 DUP3 DUP6 PUSH2 0xA2B JUMP JUMPDEST PUSH0 PUSH1 0x20 SWAP1 POP PUSH1 0x1F DUP4 GT PUSH1 0x1 DUP2 EQ PUSH2 0xB1C JUMPI PUSH0 DUP5 ISZERO PUSH2 0xB0A JUMPI DUP3 DUP8 ADD MLOAD SWAP1 POP JUMPDEST PUSH2 0xB14 DUP6 DUP3 PUSH2 0xA99 JUMP JUMPDEST DUP7 SSTORE POP PUSH2 0xB7B JUMP JUMPDEST PUSH1 0x1F NOT DUP5 AND PUSH2 0xB2A DUP7 PUSH2 0x917 JUMP JUMPDEST PUSH0 JUMPDEST DUP3 DUP2 LT ISZERO PUSH2 0xB51 JUMPI DUP5 DUP10 ADD MLOAD DUP3 SSTORE PUSH1 0x1 DUP3 ADD SWAP2 POP PUSH1 0x20 DUP6 ADD SWAP5 POP PUSH1 0x20 DUP2 ADD SWAP1 POP PUSH2 0xB2C JUMP JUMPDEST DUP7 DUP4 LT ISZERO PUSH2 0xB6E JUMPI DUP5 DUP10 ADD MLOAD PUSH2 0xB6A PUSH1 0x1F DUP10 AND DUP3 PUSH2 0xA7D JUMP JUMPDEST DUP4 SSTORE POP JUMPDEST PUSH1 0x1 PUSH1 0x2 DUP9 MUL ADD DUP9 SSTORE POP POP POP JUMPDEST POP POP POP POP POP POP JUMP JUMPDEST PUSH32 0x4E487B7100000000000000000000000000000000000000000000000000000000 PUSH0 MSTORE PUSH1 0x11 PUSH1 0x4 MSTORE PUSH1 0x24 PUSH0 REVERT JUMPDEST PUSH0 PUSH2 0xBBA DUP3 PUSH2 0x428 JUMP JUMPDEST SWAP2 POP PUSH32 0xFFFFFFFFFFFFFFFFFFFFFFFFFFFFFFFFFFFFFFFFFFFFFFFFFFFFFFFFFFFFFFFF DUP3 SUB PUSH2 0xBEC JUMPI PUSH2 0xBEB PUSH2 0xB83 JUMP JUMPDEST JUMPDEST PUSH1 0x1 DUP3 ADD SWAP1 POP SWAP2 SWAP1 POP JUMP INVALID LOG2 PUSH5 0x6970667358 0x22 SLT KECCAK256 SSTORE 0xA5 0xB7 MSIZE DUP13 0xAA PUSH17 0xFA92C519D2DAEBDD0A639A9116D8809C70 DUP4 DUP7 SHL CODESIZE PUSH25 0xAAF0DD64736F6C634300081A00330000000000000000000000 "
				},
				"gasEstimates": {
					"creation": {
						"codeDepositCost": "623400",
						"executionCost": "655",
						"totalCost": "624055"
					},
					"external": {
						"addDataToMapping(uint256,uint256,string)": "infinite",
						"addPerson(string,uint256,address)": "infinite",
						"getPersonData(uint256,uint256)": "infinite",
						"people(uint256)": "infinite",
						"peopleCount()": "2425"
					}
				},
				"methodIdentifiers": {
					"addDataToMapping(uint256,uint256,string)": "0923ce4b",
					"addPerson(string,uint256,address)": "e11641cf",
					"getPersonData(uint256,uint256)": "4325e5bf",
					"people(uint256)": "9e7a13ad",
					"peopleCount()": "267c68e0"
				}
			},
			"storageLayout": {
				"storage": [
					{
						"astId": 173,
						"contract": "solidity/solidity81~90.sol:Q83",
						"label": "people",
						"offset": 0,
						"slot": "0",
						"type": "t_array(t_struct(Person)169_storage)dyn_storage"
					},
					{
						"astId": 175,
						"contract": "solidity/solidity81~90.sol:Q83",
						"label": "peopleCount",
						"offset": 0,
						"slot": "1",
						"type": "t_uint256"
					}
				],
				"types": {
					"t_address": {
						"encoding": "inplace",
						"label": "address",
						"numberOfBytes": "20"
					},
					"t_array(t_struct(Person)169_storage)dyn_storage": {
						"base": "t_struct(Person)169_storage",
						"encoding": "dynamic_array",
						"label": "struct Q83.Person[]",
						"numberOfBytes": "32"
					},
					"t_mapping(t_uint256,t_string_storage)": {
						"encoding": "mapping",
						"key": "t_uint256",
						"label": "mapping(uint256 => string)",
						"numberOfBytes": "32",
						"value": "t_string_storage"
					},
					"t_string_storage": {
						"encoding": "bytes",
						"label": "string",
						"numberOfBytes": "32"
					},
					"t_struct(Person)169_storage": {
						"encoding": "inplace",
						"label": "struct Q83.Person",
						"members": [
							{
								"astId": 160,
								"contract": "solidity/solidity81~90.sol:Q83",
								"label": "name",
								"offset": 0,
								"slot": "0",
								"type": "t_string_storage"
							},
							{
								"astId": 162,
								"contract": "solidity/solidity81~90.sol:Q83",
								"label": "number",
								"offset": 0,
								"slot": "1",
								"type": "t_uint256"
							},
							{
								"astId": 164,
								"contract": "solidity/solidity81~90.sol:Q83",
								"label": "walletAddress",
								"offset": 0,
								"slot": "2",
								"type": "t_address"
							},
							{
								"astId": 168,
								"contract": "solidity/solidity81~90.sol:Q83",
								"label": "dataMapping",
								"offset": 0,
								"slot": "3",
								"type": "t_mapping(t_uint256,t_string_storage)"
							}
						],
						"numberOfBytes": "128"
					},
					"t_uint256": {
						"encoding": "inplace",
						"label": "uint256",
						"numberOfBytes": "32"
					}
				}
			},
			"userdoc": {
				"kind": "user",
				"methods": {},
				"version": 1
			}
		}
	}
}