{
	"solidity/solidity71~80.sol": {
		"Q78": {
			"abi": [
				{
					"inputs": [],
					"name": "hasNumberInRange",
					"outputs": [
						{
							"internalType": "bool",
							"name": "",
							"type": "bool"
						}
					],
					"stateMutability": "view",
					"type": "function"
				},
				{
					"inputs": [
						{
							"internalType": "uint256[]",
							"name": "_numbers",
							"type": "uint256[]"
						}
					],
					"name": "setNumbers",
					"outputs": [],
					"stateMutability": "nonpayable",
					"type": "function"
				}
			],
			"devdoc": {
				"kind": "dev",
				"methods": {},
				"version": 1
			},
			"evm": {
				"assembly": "    /* \"solidity/solidity71~80.sol\":5566:6401  contract Q78 {... */\n  mstore(0x40, 0x80)\n  callvalue\n  dup1\n  iszero\n  tag_1\n  jumpi\n  0x00\n  dup1\n  revert\ntag_1:\n  pop\n  dataSize(sub_0)\n  dup1\n  dataOffset(sub_0)\n  0x00\n  codecopy\n  0x00\n  return\nstop\n\nsub_0: assembly {\n        /* \"solidity/solidity71~80.sol\":5566:6401  contract Q78 {... */\n      mstore(0x40, 0x80)\n      callvalue\n      dup1\n      iszero\n      tag_1\n      jumpi\n      0x00\n      dup1\n      revert\n    tag_1:\n      pop\n      jumpi(tag_2, lt(calldatasize, 0x04))\n      shr(0xe0, calldataload(0x00))\n      dup1\n      0x25427cd4\n      eq\n      tag_3\n      jumpi\n      dup1\n      0xe577052b\n      eq\n      tag_4\n      jumpi\n    tag_2:\n      0x00\n      dup1\n      revert\n        /* \"solidity/solidity71~80.sol\":5956:6104  function setNumbers(uint256[] calldata _numbers) external {... */\n    tag_3:\n      tag_5\n      0x04\n      dup1\n      calldatasize\n      sub\n      dup2\n      add\n      swap1\n      tag_6\n      swap2\n      swap1\n      tag_7\n      jump\t// in\n    tag_6:\n      tag_8\n      jump\t// in\n    tag_5:\n      stop\n        /* \"solidity/solidity71~80.sol\":6110:6399  function hasNumberInRange() external view returns (bool) {... */\n    tag_4:\n      tag_9\n      tag_10\n      jump\t// in\n    tag_9:\n      mload(0x40)\n      tag_11\n      swap2\n      swap1\n      tag_12\n      jump\t// in\n    tag_11:\n      mload(0x40)\n      dup1\n      swap2\n      sub\n      swap1\n      return\n        /* \"solidity/solidity71~80.sol\":5956:6104  function setNumbers(uint256[] calldata _numbers) external {... */\n    tag_8:\n        /* \"solidity/solidity71~80.sol\":6089:6097  _numbers */\n      dup2\n      dup2\n        /* \"solidity/solidity71~80.sol\":6079:6086  numbers */\n      0x00\n        /* \"solidity/solidity71~80.sol\":6079:6097  numbers = _numbers */\n      swap2\n      swap1\n      tag_14\n      swap3\n      swap2\n      swap1\n      tag_15\n      jump\t// in\n    tag_14:\n      pop\n        /* \"solidity/solidity71~80.sol\":5956:6104  function setNumbers(uint256[] calldata _numbers) external {... */\n      pop\n      pop\n      jump\t// out\n        /* \"solidity/solidity71~80.sol\":6110:6399  function hasNumberInRange() external view returns (bool) {... */\n    tag_10:\n        /* \"solidity/solidity71~80.sol\":6161:6165  bool */\n      0x00\n        /* \"solidity/solidity71~80.sol\":6181:6195  uint256 length */\n      dup1\n        /* \"solidity/solidity71~80.sol\":6198:6205  numbers */\n      0x00\n        /* \"solidity/solidity71~80.sol\":6198:6212  numbers.length */\n      dup1\n      sload\n      swap1\n      pop\n        /* \"solidity/solidity71~80.sol\":6181:6212  uint256 length = numbers.length */\n      swap1\n      pop\n        /* \"solidity/solidity71~80.sol\":6228:6237  uint256 i */\n      0x00\n        /* \"solidity/solidity71~80.sol\":6223:6370  for (uint256 i = 0; i < length; i++) {... */\n    tag_17:\n        /* \"solidity/solidity71~80.sol\":6247:6253  length */\n      dup2\n        /* \"solidity/solidity71~80.sol\":6243:6244  i */\n      dup2\n        /* \"solidity/solidity71~80.sol\":6243:6253  i < length */\n      lt\n        /* \"solidity/solidity71~80.sol\":6223:6370  for (uint256 i = 0; i < length; i++) {... */\n      iszero\n      tag_18\n      jumpi\n        /* \"solidity/solidity71~80.sol\":6292:6294  10 */\n      0x0a\n        /* \"solidity/solidity71~80.sol\":6278:6285  numbers */\n      0x00\n        /* \"solidity/solidity71~80.sol\":6286:6287  i */\n      dup3\n        /* \"solidity/solidity71~80.sol\":6278:6288  numbers[i] */\n      dup2\n      sload\n      dup2\n      lt\n      tag_20\n      jumpi\n      tag_21\n      tag_22\n      jump\t// in\n    tag_21:\n    tag_20:\n      swap1\n      0x00\n      mstore\n      keccak256(0x00, 0x20)\n      add\n      sload\n        /* \"solidity/solidity71~80.sol\":6278:6294  numbers[i] >= 10 */\n      lt\n      iszero\n        /* \"solidity/solidity71~80.sol\":6278:6314  numbers[i] >= 10 && numbers[i] <= 25 */\n      dup1\n      iszero\n      tag_24\n      jumpi\n      pop\n        /* \"solidity/solidity71~80.sol\":6312:6314  25 */\n      0x19\n        /* \"solidity/solidity71~80.sol\":6298:6305  numbers */\n      0x00\n        /* \"solidity/solidity71~80.sol\":6306:6307  i */\n      dup3\n        /* \"solidity/solidity71~80.sol\":6298:6308  numbers[i] */\n      dup2\n      sload\n      dup2\n      lt\n      tag_25\n      jumpi\n      tag_26\n      tag_22\n      jump\t// in\n    tag_26:\n    tag_25:\n      swap1\n      0x00\n      mstore\n      keccak256(0x00, 0x20)\n      add\n      sload\n        /* \"solidity/solidity71~80.sol\":6298:6314  numbers[i] <= 25 */\n      gt\n      iszero\n        /* \"solidity/solidity71~80.sol\":6278:6314  numbers[i] >= 10 && numbers[i] <= 25 */\n    tag_24:\n        /* \"solidity/solidity71~80.sol\":6274:6360  if (numbers[i] >= 10 && numbers[i] <= 25) {... */\n      iszero\n      tag_28\n      jumpi\n        /* \"solidity/solidity71~80.sol\":6341:6345  true */\n      0x01\n        /* \"solidity/solidity71~80.sol\":6334:6345  return true */\n      swap3\n      pop\n      pop\n      pop\n      jump(tag_16)\n        /* \"solidity/solidity71~80.sol\":6274:6360  if (numbers[i] >= 10 && numbers[i] <= 25) {... */\n    tag_28:\n        /* \"solidity/solidity71~80.sol\":6255:6258  i++ */\n      dup1\n      dup1\n      0x01\n      add\n      swap2\n      pop\n      pop\n        /* \"solidity/solidity71~80.sol\":6223:6370  for (uint256 i = 0; i < length; i++) {... */\n      jump(tag_17)\n    tag_18:\n      pop\n        /* \"solidity/solidity71~80.sol\":6387:6392  false */\n      0x00\n        /* \"solidity/solidity71~80.sol\":6380:6392  return false */\n      swap2\n      pop\n      pop\n        /* \"solidity/solidity71~80.sol\":6110:6399  function hasNumberInRange() external view returns (bool) {... */\n    tag_16:\n      swap1\n      jump\t// out\n    tag_15:\n      dup3\n      dup1\n      sload\n      dup3\n      dup3\n      sstore\n      swap1\n      0x00\n      mstore\n      keccak256(0x00, 0x20)\n      swap1\n      dup2\n      add\n      swap3\n      dup3\n      iszero\n      tag_29\n      jumpi\n      swap2\n      0x20\n      mul\n      dup3\n      add\n    tag_30:\n      dup3\n      dup2\n      gt\n      iszero\n      tag_31\n      jumpi\n      dup3\n      calldataload\n      dup3\n      sstore\n      swap2\n      0x20\n      add\n      swap2\n      swap1\n      0x01\n      add\n      swap1\n      jump(tag_30)\n    tag_31:\n    tag_29:\n      pop\n      swap1\n      pop\n      tag_32\n      swap2\n      swap1\n      tag_33\n      jump\t// in\n    tag_32:\n      pop\n      swap1\n      jump\t// out\n    tag_33:\n    tag_34:\n      dup1\n      dup3\n      gt\n      iszero\n      tag_35\n      jumpi\n      0x00\n      dup2\n      0x00\n      swap1\n      sstore\n      pop\n      0x01\n      add\n      jump(tag_34)\n    tag_35:\n      pop\n      swap1\n      jump\t// out\n        /* \"#utility.yul\":88:205   */\n    tag_37:\n        /* \"#utility.yul\":197:198   */\n      0x00\n        /* \"#utility.yul\":194:195   */\n      dup1\n        /* \"#utility.yul\":187:199   */\n      revert\n        /* \"#utility.yul\":211:328   */\n    tag_38:\n        /* \"#utility.yul\":320:321   */\n      0x00\n        /* \"#utility.yul\":317:318   */\n      dup1\n        /* \"#utility.yul\":310:322   */\n      revert\n        /* \"#utility.yul\":334:451   */\n    tag_39:\n        /* \"#utility.yul\":443:444   */\n      0x00\n        /* \"#utility.yul\":440:441   */\n      dup1\n        /* \"#utility.yul\":433:445   */\n      revert\n        /* \"#utility.yul\":457:574   */\n    tag_40:\n        /* \"#utility.yul\":566:567   */\n      0x00\n        /* \"#utility.yul\":563:564   */\n      dup1\n        /* \"#utility.yul\":556:568   */\n      revert\n        /* \"#utility.yul\":580:697   */\n    tag_41:\n        /* \"#utility.yul\":689:690   */\n      0x00\n        /* \"#utility.yul\":686:687   */\n      dup1\n        /* \"#utility.yul\":679:691   */\n      revert\n        /* \"#utility.yul\":720:1288   */\n    tag_42:\n        /* \"#utility.yul\":793:801   */\n      0x00\n        /* \"#utility.yul\":803:809   */\n      dup1\n        /* \"#utility.yul\":853:856   */\n      dup4\n        /* \"#utility.yul\":846:850   */\n      0x1f\n        /* \"#utility.yul\":838:844   */\n      dup5\n        /* \"#utility.yul\":834:851   */\n      add\n        /* \"#utility.yul\":830:857   */\n      slt\n        /* \"#utility.yul\":820:942   */\n      tag_53\n      jumpi\n        /* \"#utility.yul\":861:940   */\n      tag_54\n      tag_39\n      jump\t// in\n    tag_54:\n        /* \"#utility.yul\":820:942   */\n    tag_53:\n        /* \"#utility.yul\":974:980   */\n      dup3\n        /* \"#utility.yul\":961:981   */\n      calldataload\n        /* \"#utility.yul\":951:981   */\n      swap1\n      pop\n        /* \"#utility.yul\":1004:1022   */\n      0xffffffffffffffff\n        /* \"#utility.yul\":996:1002   */\n      dup2\n        /* \"#utility.yul\":993:1023   */\n      gt\n        /* \"#utility.yul\":990:1107   */\n      iszero\n      tag_55\n      jumpi\n        /* \"#utility.yul\":1026:1105   */\n      tag_56\n      tag_40\n      jump\t// in\n    tag_56:\n        /* \"#utility.yul\":990:1107   */\n    tag_55:\n        /* \"#utility.yul\":1140:1144   */\n      0x20\n        /* \"#utility.yul\":1132:1138   */\n      dup4\n        /* \"#utility.yul\":1128:1145   */\n      add\n        /* \"#utility.yul\":1116:1145   */\n      swap2\n      pop\n        /* \"#utility.yul\":1194:1197   */\n      dup4\n        /* \"#utility.yul\":1186:1190   */\n      0x20\n        /* \"#utility.yul\":1178:1184   */\n      dup3\n        /* \"#utility.yul\":1174:1191   */\n      mul\n        /* \"#utility.yul\":1164:1172   */\n      dup4\n        /* \"#utility.yul\":1160:1192   */\n      add\n        /* \"#utility.yul\":1157:1198   */\n      gt\n        /* \"#utility.yul\":1154:1282   */\n      iszero\n      tag_57\n      jumpi\n        /* \"#utility.yul\":1201:1280   */\n      tag_58\n      tag_41\n      jump\t// in\n    tag_58:\n        /* \"#utility.yul\":1154:1282   */\n    tag_57:\n        /* \"#utility.yul\":720:1288   */\n      swap3\n      pop\n      swap3\n      swap1\n      pop\n      jump\t// out\n        /* \"#utility.yul\":1294:1853   */\n    tag_7:\n        /* \"#utility.yul\":1380:1386   */\n      0x00\n        /* \"#utility.yul\":1388:1394   */\n      dup1\n        /* \"#utility.yul\":1437:1439   */\n      0x20\n        /* \"#utility.yul\":1425:1434   */\n      dup4\n        /* \"#utility.yul\":1416:1423   */\n      dup6\n        /* \"#utility.yul\":1412:1435   */\n      sub\n        /* \"#utility.yul\":1408:1440   */\n      slt\n        /* \"#utility.yul\":1405:1524   */\n      iszero\n      tag_60\n      jumpi\n        /* \"#utility.yul\":1443:1522   */\n      tag_61\n      tag_37\n      jump\t// in\n    tag_61:\n        /* \"#utility.yul\":1405:1524   */\n    tag_60:\n        /* \"#utility.yul\":1591:1592   */\n      0x00\n        /* \"#utility.yul\":1580:1589   */\n      dup4\n        /* \"#utility.yul\":1576:1593   */\n      add\n        /* \"#utility.yul\":1563:1594   */\n      calldataload\n        /* \"#utility.yul\":1621:1639   */\n      0xffffffffffffffff\n        /* \"#utility.yul\":1613:1619   */\n      dup2\n        /* \"#utility.yul\":1610:1640   */\n      gt\n        /* \"#utility.yul\":1607:1724   */\n      iszero\n      tag_62\n      jumpi\n        /* \"#utility.yul\":1643:1722   */\n      tag_63\n      tag_38\n      jump\t// in\n    tag_63:\n        /* \"#utility.yul\":1607:1724   */\n    tag_62:\n        /* \"#utility.yul\":1756:1836   */\n      tag_64\n        /* \"#utility.yul\":1828:1835   */\n      dup6\n        /* \"#utility.yul\":1819:1825   */\n      dup3\n        /* \"#utility.yul\":1808:1817   */\n      dup7\n        /* \"#utility.yul\":1804:1826   */\n      add\n        /* \"#utility.yul\":1756:1836   */\n      tag_42\n      jump\t// in\n    tag_64:\n        /* \"#utility.yul\":1738:1836   */\n      swap3\n      pop\n      swap3\n      pop\n        /* \"#utility.yul\":1534:1846   */\n      pop\n        /* \"#utility.yul\":1294:1853   */\n      swap3\n      pop\n      swap3\n      swap1\n      pop\n      jump\t// out\n        /* \"#utility.yul\":1859:1949   */\n    tag_43:\n        /* \"#utility.yul\":1893:1900   */\n      0x00\n        /* \"#utility.yul\":1936:1941   */\n      dup2\n        /* \"#utility.yul\":1929:1942   */\n      iszero\n        /* \"#utility.yul\":1922:1943   */\n      iszero\n        /* \"#utility.yul\":1911:1943   */\n      swap1\n      pop\n        /* \"#utility.yul\":1859:1949   */\n      swap2\n      swap1\n      pop\n      jump\t// out\n        /* \"#utility.yul\":1955:2064   */\n    tag_44:\n        /* \"#utility.yul\":2036:2057   */\n      tag_67\n        /* \"#utility.yul\":2051:2056   */\n      dup2\n        /* \"#utility.yul\":2036:2057   */\n      tag_43\n      jump\t// in\n    tag_67:\n        /* \"#utility.yul\":2031:2034   */\n      dup3\n        /* \"#utility.yul\":2024:2058   */\n      mstore\n        /* \"#utility.yul\":1955:2064   */\n      pop\n      pop\n      jump\t// out\n        /* \"#utility.yul\":2070:2280   */\n    tag_12:\n        /* \"#utility.yul\":2157:2161   */\n      0x00\n        /* \"#utility.yul\":2195:2197   */\n      0x20\n        /* \"#utility.yul\":2184:2193   */\n      dup3\n        /* \"#utility.yul\":2180:2198   */\n      add\n        /* \"#utility.yul\":2172:2198   */\n      swap1\n      pop\n        /* \"#utility.yul\":2208:2273   */\n      tag_69\n        /* \"#utility.yul\":2270:2271   */\n      0x00\n        /* \"#utility.yul\":2259:2268   */\n      dup4\n        /* \"#utility.yul\":2255:2272   */\n      add\n        /* \"#utility.yul\":2246:2252   */\n      dup5\n        /* \"#utility.yul\":2208:2273   */\n      tag_44\n      jump\t// in\n    tag_69:\n        /* \"#utility.yul\":2070:2280   */\n      swap3\n      swap2\n      pop\n      pop\n      jump\t// out\n        /* \"#utility.yul\":2286:2466   */\n    tag_22:\n        /* \"#utility.yul\":2334:2411   */\n      0x4e487b7100000000000000000000000000000000000000000000000000000000\n        /* \"#utility.yul\":2331:2332   */\n      0x00\n        /* \"#utility.yul\":2324:2412   */\n      mstore\n        /* \"#utility.yul\":2431:2435   */\n      0x32\n        /* \"#utility.yul\":2428:2429   */\n      0x04\n        /* \"#utility.yul\":2421:2436   */\n      mstore\n        /* \"#utility.yul\":2455:2459   */\n      0x24\n        /* \"#utility.yul\":2452:2453   */\n      0x00\n        /* \"#utility.yul\":2445:2460   */\n      revert\n\n    auxdata: 0xa264697066735822122094c2f417760c7c2b8080aea89a674cb997fcd5d07e6d82bfcf7dea8ffc0c65d264736f6c634300081a0033\n}\n",
				"bytecode": {
					"linkReferences": {},
					"object": "6080604052348015600e575f80fd5b506102b88061001c5f395ff3fe608060405234801561000f575f80fd5b5060043610610034575f3560e01c806325427cd414610038578063e577052b14610054575b5f80fd5b610052600480360381019061004d91906101d7565b610072565b005b61005c610087565b604051610069919061023c565b60405180910390f35b81815f9190610082929190610108565b505050565b5f805f8054905090505f5b818110156100ff57600a5f82815481106100af576100ae610255565b5b905f5260205f200154101580156100e2575060195f82815481106100d6576100d5610255565b5b905f5260205f20015411155b156100f257600192505050610105565b8080600101915050610092565b505f9150505b90565b828054828255905f5260205f20908101928215610142579160200282015b82811115610141578235825591602001919060010190610126565b5b50905061014f9190610153565b5090565b5b8082111561016a575f815f905550600101610154565b5090565b5f80fd5b5f80fd5b5f80fd5b5f80fd5b5f80fd5b5f8083601f84011261019757610196610176565b5b8235905067ffffffffffffffff8111156101b4576101b361017a565b5b6020830191508360208202830111156101d0576101cf61017e565b5b9250929050565b5f80602083850312156101ed576101ec61016e565b5b5f83013567ffffffffffffffff81111561020a57610209610172565b5b61021685828601610182565b92509250509250929050565b5f8115159050919050565b61023681610222565b82525050565b5f60208201905061024f5f83018461022d565b92915050565b7f4e487b71000000000000000000000000000000000000000000000000000000005f52603260045260245ffdfea264697066735822122094c2f417760c7c2b8080aea89a674cb997fcd5d07e6d82bfcf7dea8ffc0c65d264736f6c634300081a0033",
					"opcodes": "PUSH1 0x80 PUSH1 0x40 MSTORE CALLVALUE DUP1 ISZERO PUSH1 0xE JUMPI PUSH0 DUP1 REVERT JUMPDEST POP PUSH2 0x2B8 DUP1 PUSH2 0x1C PUSH0 CODECOPY PUSH0 RETURN INVALID PUSH1 0x80 PUSH1 0x40 MSTORE CALLVALUE DUP1 ISZERO PUSH2 0xF JUMPI PUSH0 DUP1 REVERT JUMPDEST POP PUSH1 0x4 CALLDATASIZE LT PUSH2 0x34 JUMPI PUSH0 CALLDATALOAD PUSH1 0xE0 SHR DUP1 PUSH4 0x25427CD4 EQ PUSH2 0x38 JUMPI DUP1 PUSH4 0xE577052B EQ PUSH2 0x54 JUMPI JUMPDEST PUSH0 DUP1 REVERT JUMPDEST PUSH2 0x52 PUSH1 0x4 DUP1 CALLDATASIZE SUB DUP2 ADD SWAP1 PUSH2 0x4D SWAP2 SWAP1 PUSH2 0x1D7 JUMP JUMPDEST PUSH2 0x72 JUMP JUMPDEST STOP JUMPDEST PUSH2 0x5C PUSH2 0x87 JUMP JUMPDEST PUSH1 0x40 MLOAD PUSH2 0x69 SWAP2 SWAP1 PUSH2 0x23C JUMP JUMPDEST PUSH1 0x40 MLOAD DUP1 SWAP2 SUB SWAP1 RETURN JUMPDEST DUP2 DUP2 PUSH0 SWAP2 SWAP1 PUSH2 0x82 SWAP3 SWAP2 SWAP1 PUSH2 0x108 JUMP JUMPDEST POP POP POP JUMP JUMPDEST PUSH0 DUP1 PUSH0 DUP1 SLOAD SWAP1 POP SWAP1 POP PUSH0 JUMPDEST DUP2 DUP2 LT ISZERO PUSH2 0xFF JUMPI PUSH1 0xA PUSH0 DUP3 DUP2 SLOAD DUP2 LT PUSH2 0xAF JUMPI PUSH2 0xAE PUSH2 0x255 JUMP JUMPDEST JUMPDEST SWAP1 PUSH0 MSTORE PUSH1 0x20 PUSH0 KECCAK256 ADD SLOAD LT ISZERO DUP1 ISZERO PUSH2 0xE2 JUMPI POP PUSH1 0x19 PUSH0 DUP3 DUP2 SLOAD DUP2 LT PUSH2 0xD6 JUMPI PUSH2 0xD5 PUSH2 0x255 JUMP JUMPDEST JUMPDEST SWAP1 PUSH0 MSTORE PUSH1 0x20 PUSH0 KECCAK256 ADD SLOAD GT ISZERO JUMPDEST ISZERO PUSH2 0xF2 JUMPI PUSH1 0x1 SWAP3 POP POP POP PUSH2 0x105 JUMP JUMPDEST DUP1 DUP1 PUSH1 0x1 ADD SWAP2 POP POP PUSH2 0x92 JUMP JUMPDEST POP PUSH0 SWAP2 POP POP JUMPDEST SWAP1 JUMP JUMPDEST DUP3 DUP1 SLOAD DUP3 DUP3 SSTORE SWAP1 PUSH0 MSTORE PUSH1 0x20 PUSH0 KECCAK256 SWAP1 DUP2 ADD SWAP3 DUP3 ISZERO PUSH2 0x142 JUMPI SWAP2 PUSH1 0x20 MUL DUP3 ADD JUMPDEST DUP3 DUP2 GT ISZERO PUSH2 0x141 JUMPI DUP3 CALLDATALOAD DUP3 SSTORE SWAP2 PUSH1 0x20 ADD SWAP2 SWAP1 PUSH1 0x1 ADD SWAP1 PUSH2 0x126 JUMP JUMPDEST JUMPDEST POP SWAP1 POP PUSH2 0x14F SWAP2 SWAP1 PUSH2 0x153 JUMP JUMPDEST POP SWAP1 JUMP JUMPDEST JUMPDEST DUP1 DUP3 GT ISZERO PUSH2 0x16A JUMPI PUSH0 DUP2 PUSH0 SWAP1 SSTORE POP PUSH1 0x1 ADD PUSH2 0x154 JUMP JUMPDEST POP SWAP1 JUMP JUMPDEST PUSH0 DUP1 REVERT JUMPDEST PUSH0 DUP1 REVERT JUMPDEST PUSH0 DUP1 REVERT JUMPDEST PUSH0 DUP1 REVERT JUMPDEST PUSH0 DUP1 REVERT JUMPDEST PUSH0 DUP1 DUP4 PUSH1 0x1F DUP5 ADD SLT PUSH2 0x197 JUMPI PUSH2 0x196 PUSH2 0x176 JUMP JUMPDEST JUMPDEST DUP3 CALLDATALOAD SWAP1 POP PUSH8 0xFFFFFFFFFFFFFFFF DUP2 GT ISZERO PUSH2 0x1B4 JUMPI PUSH2 0x1B3 PUSH2 0x17A JUMP JUMPDEST JUMPDEST PUSH1 0x20 DUP4 ADD SWAP2 POP DUP4 PUSH1 0x20 DUP3 MUL DUP4 ADD GT ISZERO PUSH2 0x1D0 JUMPI PUSH2 0x1CF PUSH2 0x17E JUMP JUMPDEST JUMPDEST SWAP3 POP SWAP3 SWAP1 POP JUMP JUMPDEST PUSH0 DUP1 PUSH1 0x20 DUP4 DUP6 SUB SLT ISZERO PUSH2 0x1ED JUMPI PUSH2 0x1EC PUSH2 0x16E JUMP JUMPDEST JUMPDEST PUSH0 DUP4 ADD CALLDATALOAD PUSH8 0xFFFFFFFFFFFFFFFF DUP2 GT ISZERO PUSH2 0x20A JUMPI PUSH2 0x209 PUSH2 0x172 JUMP JUMPDEST JUMPDEST PUSH2 0x216 DUP6 DUP3 DUP7 ADD PUSH2 0x182 JUMP JUMPDEST SWAP3 POP SWAP3 POP POP SWAP3 POP SWAP3 SWAP1 POP JUMP JUMPDEST PUSH0 DUP2 ISZERO ISZERO SWAP1 POP SWAP2 SWAP1 POP JUMP JUMPDEST PUSH2 0x236 DUP2 PUSH2 0x222 JUMP JUMPDEST DUP3 MSTORE POP POP JUMP JUMPDEST PUSH0 PUSH1 0x20 DUP3 ADD SWAP1 POP PUSH2 0x24F PUSH0 DUP4 ADD DUP5 PUSH2 0x22D JUMP JUMPDEST SWAP3 SWAP2 POP POP JUMP JUMPDEST PUSH32 0x4E487B7100000000000000000000000000000000000000000000000000000000 PUSH0 MSTORE PUSH1 0x32 PUSH1 0x4 MSTORE PUSH1 0x24 PUSH0 REVERT INVALID LOG2 PUSH5 0x6970667358 0x22 SLT KECCAK256 SWAP5 0xC2 DELEGATECALL OR PUSH23 0xC7C2B8080AEA89A674CB997FCD5D07E6D82BFCF7DEA8F 0xFC 0xC PUSH6 0xD264736F6C63 NUMBER STOP ADDMOD BYTE STOP CALLER "
				},
				"gasEstimates": {
					"creation": {
						"codeDepositCost": "139200",
						"executionCost": "181",
						"totalCost": "139381"
					},
					"external": {
						"hasNumberInRange()": "infinite",
						"setNumbers(uint256[])": "infinite"
					}
				},
				"methodIdentifiers": {
					"hasNumberInRange()": "e577052b",
					"setNumbers(uint256[])": "25427cd4"
				}
			},
			"storageLayout": {
				"storage": [
					{
						"astId": 1874,
						"contract": "solidity/solidity71~80.sol:Q78",
						"label": "numbers",
						"offset": 0,
						"slot": "0",
						"type": "t_array(t_uint256)dyn_storage"
					}
				],
				"types": {
					"t_array(t_uint256)dyn_storage": {
						"base": "t_uint256",
						"encoding": "dynamic_array",
						"label": "uint256[]",
						"numberOfBytes": "32"
					},
					"t_uint256": {
						"encoding": "inplace",
						"label": "uint256",
						"numberOfBytes": "32"
					}
				}
			},
			"userdoc": {
				"kind": "user",
				"methods": {},
				"version": 1
			}
		}
	}
}