{
	"solidity/solidity71~80.sol": {
		"Q74": {
			"abi": [
				{
					"inputs": [
						{
							"internalType": "uint256",
							"name": "_number",
							"type": "uint256"
						}
					],
					"name": "addTenPercent",
					"outputs": [
						{
							"internalType": "uint256",
							"name": "",
							"type": "uint256"
						},
						{
							"internalType": "uint256",
							"name": "",
							"type": "uint256"
						}
					],
					"stateMutability": "pure",
					"type": "function"
				}
			],
			"devdoc": {
				"kind": "dev",
				"methods": {},
				"version": 1
			},
			"evm": {
				"assembly": "    /* \"solidity/solidity71~80.sol\":3220:3858  contract Q74 {... */\n  mstore(0x40, 0x80)\n  callvalue\n  dup1\n  iszero\n  tag_1\n  jumpi\n  0x00\n  dup1\n  revert\ntag_1:\n  pop\n  dataSize(sub_0)\n  dup1\n  dataOffset(sub_0)\n  0x00\n  codecopy\n  0x00\n  return\nstop\n\nsub_0: assembly {\n        /* \"solidity/solidity71~80.sol\":3220:3858  contract Q74 {... */\n      mstore(0x40, 0x80)\n      callvalue\n      dup1\n      iszero\n      tag_1\n      jumpi\n      0x00\n      dup1\n      revert\n    tag_1:\n      pop\n      jumpi(tag_2, lt(calldatasize, 0x04))\n      shr(0xe0, calldataload(0x00))\n      dup1\n      0x8dfd1848\n      eq\n      tag_3\n      jumpi\n    tag_2:\n      0x00\n      dup1\n      revert\n        /* \"solidity/solidity71~80.sol\":3596:3856  function addTenPercent(uint _number) public pure returns (uint, uint) {... */\n    tag_3:\n      tag_4\n      0x04\n      dup1\n      calldatasize\n      sub\n      dup2\n      add\n      swap1\n      tag_5\n      swap2\n      swap1\n      tag_6\n      jump\t// in\n    tag_5:\n      tag_7\n      jump\t// in\n    tag_4:\n      mload(0x40)\n      tag_8\n      swap3\n      swap2\n      swap1\n      tag_9\n      jump\t// in\n    tag_8:\n      mload(0x40)\n      dup1\n      swap2\n      sub\n      swap1\n      return\n    tag_7:\n        /* \"solidity/solidity71~80.sol\":3654:3658  uint */\n      0x00\n        /* \"solidity/solidity71~80.sol\":3660:3664  uint */\n      dup1\n        /* \"solidity/solidity71~80.sol\":3676:3691  uint tenPercent */\n      0x00\n        /* \"solidity/solidity71~80.sol\":3711:3714  100 */\n      0x64\n        /* \"solidity/solidity71~80.sol\":3705:3707  10 */\n      0x0a\n        /* \"solidity/solidity71~80.sol\":3695:3702  _number */\n      dup6\n        /* \"solidity/solidity71~80.sol\":3695:3707  _number * 10 */\n      tag_11\n      swap2\n      swap1\n      tag_12\n      jump\t// in\n    tag_11:\n        /* \"solidity/solidity71~80.sol\":3694:3714  (_number * 10) / 100 */\n      tag_13\n      swap2\n      swap1\n      tag_14\n      jump\t// in\n    tag_13:\n        /* \"solidity/solidity71~80.sol\":3676:3714  uint tenPercent = (_number * 10) / 100 */\n      swap1\n      pop\n        /* \"solidity/solidity71~80.sol\":3724:3734  uint total */\n      0x00\n        /* \"solidity/solidity71~80.sol\":3747:3757  tenPercent */\n      dup2\n        /* \"solidity/solidity71~80.sol\":3737:3744  _number */\n      dup6\n        /* \"solidity/solidity71~80.sol\":3737:3757  _number + tenPercent */\n      tag_15\n      swap2\n      swap1\n      tag_16\n      jump\t// in\n    tag_15:\n        /* \"solidity/solidity71~80.sol\":3724:3757  uint total = _number + tenPercent */\n      swap1\n      pop\n        /* \"solidity/solidity71~80.sol\":3776:3790  uint remainder */\n      0x00\n        /* \"solidity/solidity71~80.sol\":3810:3813  100 */\n      0x64\n        /* \"solidity/solidity71~80.sol\":3804:3806  10 */\n      0x0a\n        /* \"solidity/solidity71~80.sol\":3794:3801  _number */\n      dup8\n        /* \"solidity/solidity71~80.sol\":3794:3806  _number * 10 */\n      tag_17\n      swap2\n      swap1\n      tag_12\n      jump\t// in\n    tag_17:\n        /* \"solidity/solidity71~80.sol\":3793:3813  (_number * 10) % 100 */\n      tag_18\n      swap2\n      swap1\n      tag_19\n      jump\t// in\n    tag_18:\n        /* \"solidity/solidity71~80.sol\":3776:3813  uint remainder = (_number * 10) % 100 */\n      swap1\n      pop\n        /* \"solidity/solidity71~80.sol\":3832:3837  total */\n      dup2\n        /* \"solidity/solidity71~80.sol\":3839:3848  remainder */\n      dup2\n        /* \"solidity/solidity71~80.sol\":3824:3849  return (total, remainder) */\n      swap5\n      pop\n      swap5\n      pop\n      pop\n      pop\n      pop\n        /* \"solidity/solidity71~80.sol\":3596:3856  function addTenPercent(uint _number) public pure returns (uint, uint) {... */\n      swap2\n      pop\n      swap2\n      jump\t// out\n        /* \"#utility.yul\":88:205   */\n    tag_21:\n        /* \"#utility.yul\":197:198   */\n      0x00\n        /* \"#utility.yul\":194:195   */\n      dup1\n        /* \"#utility.yul\":187:199   */\n      revert\n        /* \"#utility.yul\":334:411   */\n    tag_23:\n        /* \"#utility.yul\":371:378   */\n      0x00\n        /* \"#utility.yul\":400:405   */\n      dup2\n        /* \"#utility.yul\":389:405   */\n      swap1\n      pop\n        /* \"#utility.yul\":334:411   */\n      swap2\n      swap1\n      pop\n      jump\t// out\n        /* \"#utility.yul\":417:539   */\n    tag_24:\n        /* \"#utility.yul\":490:514   */\n      tag_35\n        /* \"#utility.yul\":508:513   */\n      dup2\n        /* \"#utility.yul\":490:514   */\n      tag_23\n      jump\t// in\n    tag_35:\n        /* \"#utility.yul\":483:488   */\n      dup2\n        /* \"#utility.yul\":480:515   */\n      eq\n        /* \"#utility.yul\":470:533   */\n      tag_36\n      jumpi\n        /* \"#utility.yul\":529:530   */\n      0x00\n        /* \"#utility.yul\":526:527   */\n      dup1\n        /* \"#utility.yul\":519:531   */\n      revert\n        /* \"#utility.yul\":470:533   */\n    tag_36:\n        /* \"#utility.yul\":417:539   */\n      pop\n      jump\t// out\n        /* \"#utility.yul\":545:684   */\n    tag_25:\n        /* \"#utility.yul\":591:596   */\n      0x00\n        /* \"#utility.yul\":629:635   */\n      dup2\n        /* \"#utility.yul\":616:636   */\n      calldataload\n        /* \"#utility.yul\":607:636   */\n      swap1\n      pop\n        /* \"#utility.yul\":645:678   */\n      tag_38\n        /* \"#utility.yul\":672:677   */\n      dup2\n        /* \"#utility.yul\":645:678   */\n      tag_24\n      jump\t// in\n    tag_38:\n        /* \"#utility.yul\":545:684   */\n      swap3\n      swap2\n      pop\n      pop\n      jump\t// out\n        /* \"#utility.yul\":690:1019   */\n    tag_6:\n        /* \"#utility.yul\":749:755   */\n      0x00\n        /* \"#utility.yul\":798:800   */\n      0x20\n        /* \"#utility.yul\":786:795   */\n      dup3\n        /* \"#utility.yul\":777:784   */\n      dup5\n        /* \"#utility.yul\":773:796   */\n      sub\n        /* \"#utility.yul\":769:801   */\n      slt\n        /* \"#utility.yul\":766:885   */\n      iszero\n      tag_40\n      jumpi\n        /* \"#utility.yul\":804:883   */\n      tag_41\n      tag_21\n      jump\t// in\n    tag_41:\n        /* \"#utility.yul\":766:885   */\n    tag_40:\n        /* \"#utility.yul\":924:925   */\n      0x00\n        /* \"#utility.yul\":949:1002   */\n      tag_42\n        /* \"#utility.yul\":994:1001   */\n      dup5\n        /* \"#utility.yul\":985:991   */\n      dup3\n        /* \"#utility.yul\":974:983   */\n      dup6\n        /* \"#utility.yul\":970:992   */\n      add\n        /* \"#utility.yul\":949:1002   */\n      tag_25\n      jump\t// in\n    tag_42:\n        /* \"#utility.yul\":939:1002   */\n      swap2\n      pop\n        /* \"#utility.yul\":895:1012   */\n      pop\n        /* \"#utility.yul\":690:1019   */\n      swap3\n      swap2\n      pop\n      pop\n      jump\t// out\n        /* \"#utility.yul\":1025:1143   */\n    tag_26:\n        /* \"#utility.yul\":1112:1136   */\n      tag_44\n        /* \"#utility.yul\":1130:1135   */\n      dup2\n        /* \"#utility.yul\":1112:1136   */\n      tag_23\n      jump\t// in\n    tag_44:\n        /* \"#utility.yul\":1107:1110   */\n      dup3\n        /* \"#utility.yul\":1100:1137   */\n      mstore\n        /* \"#utility.yul\":1025:1143   */\n      pop\n      pop\n      jump\t// out\n        /* \"#utility.yul\":1149:1481   */\n    tag_9:\n        /* \"#utility.yul\":1270:1274   */\n      0x00\n        /* \"#utility.yul\":1308:1310   */\n      0x40\n        /* \"#utility.yul\":1297:1306   */\n      dup3\n        /* \"#utility.yul\":1293:1311   */\n      add\n        /* \"#utility.yul\":1285:1311   */\n      swap1\n      pop\n        /* \"#utility.yul\":1321:1392   */\n      tag_46\n        /* \"#utility.yul\":1389:1390   */\n      0x00\n        /* \"#utility.yul\":1378:1387   */\n      dup4\n        /* \"#utility.yul\":1374:1391   */\n      add\n        /* \"#utility.yul\":1365:1371   */\n      dup6\n        /* \"#utility.yul\":1321:1392   */\n      tag_26\n      jump\t// in\n    tag_46:\n        /* \"#utility.yul\":1402:1474   */\n      tag_47\n        /* \"#utility.yul\":1470:1472   */\n      0x20\n        /* \"#utility.yul\":1459:1468   */\n      dup4\n        /* \"#utility.yul\":1455:1473   */\n      add\n        /* \"#utility.yul\":1446:1452   */\n      dup5\n        /* \"#utility.yul\":1402:1474   */\n      tag_26\n      jump\t// in\n    tag_47:\n        /* \"#utility.yul\":1149:1481   */\n      swap4\n      swap3\n      pop\n      pop\n      pop\n      jump\t// out\n        /* \"#utility.yul\":1487:1667   */\n    tag_27:\n        /* \"#utility.yul\":1535:1612   */\n      0x4e487b7100000000000000000000000000000000000000000000000000000000\n        /* \"#utility.yul\":1532:1533   */\n      0x00\n        /* \"#utility.yul\":1525:1613   */\n      mstore\n        /* \"#utility.yul\":1632:1636   */\n      0x11\n        /* \"#utility.yul\":1629:1630   */\n      0x04\n        /* \"#utility.yul\":1622:1637   */\n      mstore\n        /* \"#utility.yul\":1656:1660   */\n      0x24\n        /* \"#utility.yul\":1653:1654   */\n      0x00\n        /* \"#utility.yul\":1646:1661   */\n      revert\n        /* \"#utility.yul\":1673:2083   */\n    tag_12:\n        /* \"#utility.yul\":1713:1720   */\n      0x00\n        /* \"#utility.yul\":1736:1756   */\n      tag_50\n        /* \"#utility.yul\":1754:1755   */\n      dup3\n        /* \"#utility.yul\":1736:1756   */\n      tag_23\n      jump\t// in\n    tag_50:\n        /* \"#utility.yul\":1731:1756   */\n      swap2\n      pop\n        /* \"#utility.yul\":1770:1790   */\n      tag_51\n        /* \"#utility.yul\":1788:1789   */\n      dup4\n        /* \"#utility.yul\":1770:1790   */\n      tag_23\n      jump\t// in\n    tag_51:\n        /* \"#utility.yul\":1765:1790   */\n      swap3\n      pop\n        /* \"#utility.yul\":1825:1826   */\n      dup3\n        /* \"#utility.yul\":1822:1823   */\n      dup3\n        /* \"#utility.yul\":1818:1827   */\n      mul\n        /* \"#utility.yul\":1847:1877   */\n      tag_52\n        /* \"#utility.yul\":1865:1876   */\n      dup2\n        /* \"#utility.yul\":1847:1877   */\n      tag_23\n      jump\t// in\n    tag_52:\n        /* \"#utility.yul\":1836:1877   */\n      swap2\n      pop\n        /* \"#utility.yul\":2026:2027   */\n      dup3\n        /* \"#utility.yul\":2017:2024   */\n      dup3\n        /* \"#utility.yul\":2013:2028   */\n      div\n        /* \"#utility.yul\":2010:2011   */\n      dup5\n        /* \"#utility.yul\":2007:2029   */\n      eq\n        /* \"#utility.yul\":1987:1988   */\n      dup4\n        /* \"#utility.yul\":1980:1989   */\n      iszero\n        /* \"#utility.yul\":1960:2043   */\n      or\n        /* \"#utility.yul\":1937:2076   */\n      tag_53\n      jumpi\n        /* \"#utility.yul\":2056:2074   */\n      tag_54\n      tag_27\n      jump\t// in\n    tag_54:\n        /* \"#utility.yul\":1937:2076   */\n    tag_53:\n        /* \"#utility.yul\":1721:2083   */\n      pop\n        /* \"#utility.yul\":1673:2083   */\n      swap3\n      swap2\n      pop\n      pop\n      jump\t// out\n        /* \"#utility.yul\":2089:2269   */\n    tag_28:\n        /* \"#utility.yul\":2137:2214   */\n      0x4e487b7100000000000000000000000000000000000000000000000000000000\n        /* \"#utility.yul\":2134:2135   */\n      0x00\n        /* \"#utility.yul\":2127:2215   */\n      mstore\n        /* \"#utility.yul\":2234:2238   */\n      0x12\n        /* \"#utility.yul\":2231:2232   */\n      0x04\n        /* \"#utility.yul\":2224:2239   */\n      mstore\n        /* \"#utility.yul\":2258:2262   */\n      0x24\n        /* \"#utility.yul\":2255:2256   */\n      0x00\n        /* \"#utility.yul\":2248:2263   */\n      revert\n        /* \"#utility.yul\":2275:2460   */\n    tag_14:\n        /* \"#utility.yul\":2315:2316   */\n      0x00\n        /* \"#utility.yul\":2332:2352   */\n      tag_57\n        /* \"#utility.yul\":2350:2351   */\n      dup3\n        /* \"#utility.yul\":2332:2352   */\n      tag_23\n      jump\t// in\n    tag_57:\n        /* \"#utility.yul\":2327:2352   */\n      swap2\n      pop\n        /* \"#utility.yul\":2366:2386   */\n      tag_58\n        /* \"#utility.yul\":2384:2385   */\n      dup4\n        /* \"#utility.yul\":2366:2386   */\n      tag_23\n      jump\t// in\n    tag_58:\n        /* \"#utility.yul\":2361:2386   */\n      swap3\n      pop\n        /* \"#utility.yul\":2405:2406   */\n      dup3\n        /* \"#utility.yul\":2395:2430   */\n      tag_59\n      jumpi\n        /* \"#utility.yul\":2410:2428   */\n      tag_60\n      tag_28\n      jump\t// in\n    tag_60:\n        /* \"#utility.yul\":2395:2430   */\n    tag_59:\n        /* \"#utility.yul\":2452:2453   */\n      dup3\n        /* \"#utility.yul\":2449:2450   */\n      dup3\n        /* \"#utility.yul\":2445:2454   */\n      div\n        /* \"#utility.yul\":2440:2454   */\n      swap1\n      pop\n        /* \"#utility.yul\":2275:2460   */\n      swap3\n      swap2\n      pop\n      pop\n      jump\t// out\n        /* \"#utility.yul\":2466:2657   */\n    tag_16:\n        /* \"#utility.yul\":2506:2509   */\n      0x00\n        /* \"#utility.yul\":2525:2545   */\n      tag_62\n        /* \"#utility.yul\":2543:2544   */\n      dup3\n        /* \"#utility.yul\":2525:2545   */\n      tag_23\n      jump\t// in\n    tag_62:\n        /* \"#utility.yul\":2520:2545   */\n      swap2\n      pop\n        /* \"#utility.yul\":2559:2579   */\n      tag_63\n        /* \"#utility.yul\":2577:2578   */\n      dup4\n        /* \"#utility.yul\":2559:2579   */\n      tag_23\n      jump\t// in\n    tag_63:\n        /* \"#utility.yul\":2554:2579   */\n      swap3\n      pop\n        /* \"#utility.yul\":2602:2603   */\n      dup3\n        /* \"#utility.yul\":2599:2600   */\n      dup3\n        /* \"#utility.yul\":2595:2604   */\n      add\n        /* \"#utility.yul\":2588:2604   */\n      swap1\n      pop\n        /* \"#utility.yul\":2623:2626   */\n      dup1\n        /* \"#utility.yul\":2620:2621   */\n      dup3\n        /* \"#utility.yul\":2617:2627   */\n      gt\n        /* \"#utility.yul\":2614:2650   */\n      iszero\n      tag_64\n      jumpi\n        /* \"#utility.yul\":2630:2648   */\n      tag_65\n      tag_27\n      jump\t// in\n    tag_65:\n        /* \"#utility.yul\":2614:2650   */\n    tag_64:\n        /* \"#utility.yul\":2466:2657   */\n      swap3\n      swap2\n      pop\n      pop\n      jump\t// out\n        /* \"#utility.yul\":2663:2839   */\n    tag_19:\n        /* \"#utility.yul\":2695:2696   */\n      0x00\n        /* \"#utility.yul\":2712:2732   */\n      tag_67\n        /* \"#utility.yul\":2730:2731   */\n      dup3\n        /* \"#utility.yul\":2712:2732   */\n      tag_23\n      jump\t// in\n    tag_67:\n        /* \"#utility.yul\":2707:2732   */\n      swap2\n      pop\n        /* \"#utility.yul\":2746:2766   */\n      tag_68\n        /* \"#utility.yul\":2764:2765   */\n      dup4\n        /* \"#utility.yul\":2746:2766   */\n      tag_23\n      jump\t// in\n    tag_68:\n        /* \"#utility.yul\":2741:2766   */\n      swap3\n      pop\n        /* \"#utility.yul\":2785:2786   */\n      dup3\n        /* \"#utility.yul\":2775:2810   */\n      tag_69\n      jumpi\n        /* \"#utility.yul\":2790:2808   */\n      tag_70\n      tag_28\n      jump\t// in\n    tag_70:\n        /* \"#utility.yul\":2775:2810   */\n    tag_69:\n        /* \"#utility.yul\":2831:2832   */\n      dup3\n        /* \"#utility.yul\":2828:2829   */\n      dup3\n        /* \"#utility.yul\":2824:2833   */\n      mod\n        /* \"#utility.yul\":2819:2833   */\n      swap1\n      pop\n        /* \"#utility.yul\":2663:2839   */\n      swap3\n      swap2\n      pop\n      pop\n      jump\t// out\n\n    auxdata: 0xa264697066735822122023c0473784e4c084178293999532016a9905015f164fbf489ce00ac167a895fe64736f6c634300081a0033\n}\n",
				"bytecode": {
					"linkReferences": {},
					"object": "6080604052348015600e575f80fd5b506102b18061001c5f395ff3fe608060405234801561000f575f80fd5b5060043610610029575f3560e01c80638dfd18481461002d575b5f80fd5b610047600480360381019061004291906100ec565b61005e565b604051610055929190610126565b60405180910390f35b5f805f6064600a85610070919061017a565b61007a91906101e8565b90505f81856100899190610218565b90505f6064600a8761009b919061017a565b6100a5919061024b565b9050818194509450505050915091565b5f80fd5b5f819050919050565b6100cb816100b9565b81146100d5575f80fd5b50565b5f813590506100e6816100c2565b92915050565b5f60208284031215610101576101006100b5565b5b5f61010e848285016100d8565b91505092915050565b610120816100b9565b82525050565b5f6040820190506101395f830185610117565b6101466020830184610117565b9392505050565b7f4e487b71000000000000000000000000000000000000000000000000000000005f52601160045260245ffd5b5f610184826100b9565b915061018f836100b9565b925082820261019d816100b9565b915082820484148315176101b4576101b361014d565b5b5092915050565b7f4e487b71000000000000000000000000000000000000000000000000000000005f52601260045260245ffd5b5f6101f2826100b9565b91506101fd836100b9565b92508261020d5761020c6101bb565b5b828204905092915050565b5f610222826100b9565b915061022d836100b9565b92508282019050808211156102455761024461014d565b5b92915050565b5f610255826100b9565b9150610260836100b9565b9250826102705761026f6101bb565b5b82820690509291505056fea264697066735822122023c0473784e4c084178293999532016a9905015f164fbf489ce00ac167a895fe64736f6c634300081a0033",
					"opcodes": "PUSH1 0x80 PUSH1 0x40 MSTORE CALLVALUE DUP1 ISZERO PUSH1 0xE JUMPI PUSH0 DUP1 REVERT JUMPDEST POP PUSH2 0x2B1 DUP1 PUSH2 0x1C PUSH0 CODECOPY PUSH0 RETURN INVALID PUSH1 0x80 PUSH1 0x40 MSTORE CALLVALUE DUP1 ISZERO PUSH2 0xF JUMPI PUSH0 DUP1 REVERT JUMPDEST POP PUSH1 0x4 CALLDATASIZE LT PUSH2 0x29 JUMPI PUSH0 CALLDATALOAD PUSH1 0xE0 SHR DUP1 PUSH4 0x8DFD1848 EQ PUSH2 0x2D JUMPI JUMPDEST PUSH0 DUP1 REVERT JUMPDEST PUSH2 0x47 PUSH1 0x4 DUP1 CALLDATASIZE SUB DUP2 ADD SWAP1 PUSH2 0x42 SWAP2 SWAP1 PUSH2 0xEC JUMP JUMPDEST PUSH2 0x5E JUMP JUMPDEST PUSH1 0x40 MLOAD PUSH2 0x55 SWAP3 SWAP2 SWAP1 PUSH2 0x126 JUMP JUMPDEST PUSH1 0x40 MLOAD DUP1 SWAP2 SUB SWAP1 RETURN JUMPDEST PUSH0 DUP1 PUSH0 PUSH1 0x64 PUSH1 0xA DUP6 PUSH2 0x70 SWAP2 SWAP1 PUSH2 0x17A JUMP JUMPDEST PUSH2 0x7A SWAP2 SWAP1 PUSH2 0x1E8 JUMP JUMPDEST SWAP1 POP PUSH0 DUP2 DUP6 PUSH2 0x89 SWAP2 SWAP1 PUSH2 0x218 JUMP JUMPDEST SWAP1 POP PUSH0 PUSH1 0x64 PUSH1 0xA DUP8 PUSH2 0x9B SWAP2 SWAP1 PUSH2 0x17A JUMP JUMPDEST PUSH2 0xA5 SWAP2 SWAP1 PUSH2 0x24B JUMP JUMPDEST SWAP1 POP DUP2 DUP2 SWAP5 POP SWAP5 POP POP POP POP SWAP2 POP SWAP2 JUMP JUMPDEST PUSH0 DUP1 REVERT JUMPDEST PUSH0 DUP2 SWAP1 POP SWAP2 SWAP1 POP JUMP JUMPDEST PUSH2 0xCB DUP2 PUSH2 0xB9 JUMP JUMPDEST DUP2 EQ PUSH2 0xD5 JUMPI PUSH0 DUP1 REVERT JUMPDEST POP JUMP JUMPDEST PUSH0 DUP2 CALLDATALOAD SWAP1 POP PUSH2 0xE6 DUP2 PUSH2 0xC2 JUMP JUMPDEST SWAP3 SWAP2 POP POP JUMP JUMPDEST PUSH0 PUSH1 0x20 DUP3 DUP5 SUB SLT ISZERO PUSH2 0x101 JUMPI PUSH2 0x100 PUSH2 0xB5 JUMP JUMPDEST JUMPDEST PUSH0 PUSH2 0x10E DUP5 DUP3 DUP6 ADD PUSH2 0xD8 JUMP JUMPDEST SWAP2 POP POP SWAP3 SWAP2 POP POP JUMP JUMPDEST PUSH2 0x120 DUP2 PUSH2 0xB9 JUMP JUMPDEST DUP3 MSTORE POP POP JUMP JUMPDEST PUSH0 PUSH1 0x40 DUP3 ADD SWAP1 POP PUSH2 0x139 PUSH0 DUP4 ADD DUP6 PUSH2 0x117 JUMP JUMPDEST PUSH2 0x146 PUSH1 0x20 DUP4 ADD DUP5 PUSH2 0x117 JUMP JUMPDEST SWAP4 SWAP3 POP POP POP JUMP JUMPDEST PUSH32 0x4E487B7100000000000000000000000000000000000000000000000000000000 PUSH0 MSTORE PUSH1 0x11 PUSH1 0x4 MSTORE PUSH1 0x24 PUSH0 REVERT JUMPDEST PUSH0 PUSH2 0x184 DUP3 PUSH2 0xB9 JUMP JUMPDEST SWAP2 POP PUSH2 0x18F DUP4 PUSH2 0xB9 JUMP JUMPDEST SWAP3 POP DUP3 DUP3 MUL PUSH2 0x19D DUP2 PUSH2 0xB9 JUMP JUMPDEST SWAP2 POP DUP3 DUP3 DIV DUP5 EQ DUP4 ISZERO OR PUSH2 0x1B4 JUMPI PUSH2 0x1B3 PUSH2 0x14D JUMP JUMPDEST JUMPDEST POP SWAP3 SWAP2 POP POP JUMP JUMPDEST PUSH32 0x4E487B7100000000000000000000000000000000000000000000000000000000 PUSH0 MSTORE PUSH1 0x12 PUSH1 0x4 MSTORE PUSH1 0x24 PUSH0 REVERT JUMPDEST PUSH0 PUSH2 0x1F2 DUP3 PUSH2 0xB9 JUMP JUMPDEST SWAP2 POP PUSH2 0x1FD DUP4 PUSH2 0xB9 JUMP JUMPDEST SWAP3 POP DUP3 PUSH2 0x20D JUMPI PUSH2 0x20C PUSH2 0x1BB JUMP JUMPDEST JUMPDEST DUP3 DUP3 DIV SWAP1 POP SWAP3 SWAP2 POP POP JUMP JUMPDEST PUSH0 PUSH2 0x222 DUP3 PUSH2 0xB9 JUMP JUMPDEST SWAP2 POP PUSH2 0x22D DUP4 PUSH2 0xB9 JUMP JUMPDEST SWAP3 POP DUP3 DUP3 ADD SWAP1 POP DUP1 DUP3 GT ISZERO PUSH2 0x245 JUMPI PUSH2 0x244 PUSH2 0x14D JUMP JUMPDEST JUMPDEST SWAP3 SWAP2 POP POP JUMP JUMPDEST PUSH0 PUSH2 0x255 DUP3 PUSH2 0xB9 JUMP JUMPDEST SWAP2 POP PUSH2 0x260 DUP4 PUSH2 0xB9 JUMP JUMPDEST SWAP3 POP DUP3 PUSH2 0x270 JUMPI PUSH2 0x26F PUSH2 0x1BB JUMP JUMPDEST JUMPDEST DUP3 DUP3 MOD SWAP1 POP SWAP3 SWAP2 POP POP JUMP INVALID LOG2 PUSH5 0x6970667358 0x22 SLT KECCAK256 0x23 0xC0 SELFBALANCE CALLDATACOPY DUP5 0xE4 0xC0 DUP5 OR DUP3 SWAP4 SWAP10 SWAP6 ORIGIN ADD PUSH11 0x9905015F164FBF489CE00A 0xC1 PUSH8 0xA895FE64736F6C63 NUMBER STOP ADDMOD BYTE STOP CALLER "
				},
				"gasEstimates": {
					"creation": {
						"codeDepositCost": "137800",
						"executionCost": "181",
						"totalCost": "137981"
					},
					"external": {
						"addTenPercent(uint256)": "infinite"
					}
				},
				"methodIdentifiers": {
					"addTenPercent(uint256)": "8dfd1848"
				}
			},
			"storageLayout": {
				"storage": [],
				"types": null
			},
			"userdoc": {
				"kind": "user",
				"methods": {},
				"version": 1
			}
		}
	}
}